{
    "contractName": "Exchange",
    "abi": [
        {
            "inputs": [
                {
                    "internalType": "address payable",
                    "name": "_marketMakerAddress",
                    "type": "address"
                },
                {
                    "internalType": "address",
                    "name": "_optionAddress",
                    "type": "address"
                },
                {
                    "internalType": "address payable",
                    "name": "_volTokenAddress",
                    "type": "address"
                }
            ],
            "stateMutability": "nonpayable",
            "type": "constructor"
        },
        {
            "anonymous": false,
            "inputs": [
                {
                    "indexed": true,
                    "internalType": "bytes32",
                    "name": "role",
                    "type": "bytes32"
                },
                {
                    "indexed": true,
                    "internalType": "bytes32",
                    "name": "previousAdminRole",
                    "type": "bytes32"
                },
                {
                    "indexed": true,
                    "internalType": "bytes32",
                    "name": "newAdminRole",
                    "type": "bytes32"
                }
            ],
            "name": "RoleAdminChanged",
            "type": "event"
        },
        {
            "anonymous": false,
            "inputs": [
                {
                    "indexed": true,
                    "internalType": "bytes32",
                    "name": "role",
                    "type": "bytes32"
                },
                {
                    "indexed": true,
                    "internalType": "address",
                    "name": "account",
                    "type": "address"
                },
                {
                    "indexed": true,
                    "internalType": "address",
                    "name": "sender",
                    "type": "address"
                }
            ],
            "name": "RoleGranted",
            "type": "event"
        },
        {
            "anonymous": false,
            "inputs": [
                {
                    "indexed": true,
                    "internalType": "bytes32",
                    "name": "role",
                    "type": "bytes32"
                },
                {
                    "indexed": true,
                    "internalType": "address",
                    "name": "account",
                    "type": "address"
                },
                {
                    "indexed": true,
                    "internalType": "address",
                    "name": "sender",
                    "type": "address"
                }
            ],
            "name": "RoleRevoked",
            "type": "event"
        },
        {
            "anonymous": false,
            "inputs": [
                {
                    "indexed": false,
                    "internalType": "address",
                    "name": "_recipient",
                    "type": "address"
                },
                {
                    "indexed": false,
                    "internalType": "uint256",
                    "name": "_mintMPTokenAmount",
                    "type": "uint256"
                },
                {
                    "indexed": false,
                    "internalType": "uint256",
                    "name": "_addedValue",
                    "type": "uint256"
                }
            ],
            "name": "capitalAdded",
            "type": "event"
        },
        {
            "anonymous": false,
            "inputs": [
                {
                    "indexed": false,
                    "internalType": "address",
                    "name": "_recipient",
                    "type": "address"
                },
                {
                    "indexed": false,
                    "internalType": "uint256",
                    "name": "_burnMPTokenAmount",
                    "type": "uint256"
                },
                {
                    "indexed": false,
                    "internalType": "uint256",
                    "name": "_withdrawValue",
                    "type": "uint256"
                }
            ],
            "name": "capitalWithdrawn",
            "type": "event"
        },
        {
            "anonymous": false,
            "inputs": [
                {
                    "indexed": true,
                    "internalType": "address",
                    "name": "_purchaser",
                    "type": "address"
                },
                {
                    "components": [
                        {
                            "internalType": "enum OptionLibrary.PayoffType",
                            "name": "poType",
                            "type": "uint8"
                        },
                        {
                            "internalType": "enum OptionLibrary.OptionSide",
                            "name": "side",
                            "type": "uint8"
                        },
                        {
                            "internalType": "enum OptionLibrary.OptionStatus",
                            "name": "status",
                            "type": "uint8"
                        },
                        {
                            "internalType": "address",
                            "name": "holder",
                            "type": "address"
                        },
                        {
                            "internalType": "uint256",
                            "name": "id",
                            "type": "uint256"
                        },
                        {
                            "internalType": "uint256",
                            "name": "createTime",
                            "type": "uint256"
                        },
                        {
                            "internalType": "uint256",
                            "name": "effectiveTime",
                            "type": "uint256"
                        },
                        {
                            "internalType": "uint256",
                            "name": "tenor",
                            "type": "uint256"
                        },
                        {
                            "internalType": "uint256",
                            "name": "exerciseTime",
                            "type": "uint256"
                        },
                        {
                            "internalType": "uint256",
                            "name": "amount",
                            "type": "uint256"
                        },
                        {
                            "internalType": "uint256",
                            "name": "spot",
                            "type": "uint256"
                        },
                        {
                            "internalType": "uint256",
                            "name": "strike",
                            "type": "uint256"
                        },
                        {
                            "internalType": "uint256",
                            "name": "volatility",
                            "type": "uint256"
                        },
                        {
                            "internalType": "uint256",
                            "name": "premium",
                            "type": "uint256"
                        },
                        {
                            "internalType": "uint256",
                            "name": "fee",
                            "type": "uint256"
                        }
                    ],
                    "indexed": false,
                    "internalType": "struct OptionLibrary.Option",
                    "name": "_option",
                    "type": "tuple"
                },
                {
                    "indexed": false,
                    "internalType": "uint256",
                    "name": "_cost",
                    "type": "uint256"
                },
                {
                    "indexed": false,
                    "internalType": "bool",
                    "name": "_inVol",
                    "type": "bool"
                }
            ],
            "name": "newOptionBought",
            "type": "event"
        },
        {
            "anonymous": false,
            "inputs": [
                {
                    "indexed": false,
                    "internalType": "address",
                    "name": "_purchaser",
                    "type": "address"
                },
                {
                    "indexed": false,
                    "internalType": "uint256",
                    "name": "_time",
                    "type": "uint256"
                },
                {
                    "indexed": false,
                    "internalType": "uint256",
                    "name": "_tenor",
                    "type": "uint256"
                },
                {
                    "indexed": false,
                    "internalType": "uint256",
                    "name": "_amount",
                    "type": "uint256"
                }
            ],
            "name": "newVolatilityTokenBought",
            "type": "event"
        },
        {
            "anonymous": false,
            "inputs": [
                {
                    "indexed": true,
                    "internalType": "address",
                    "name": "_purchaser",
                    "type": "address"
                },
                {
                    "components": [
                        {
                            "internalType": "enum OptionLibrary.PayoffType",
                            "name": "poType",
                            "type": "uint8"
                        },
                        {
                            "internalType": "enum OptionLibrary.OptionSide",
                            "name": "side",
                            "type": "uint8"
                        },
                        {
                            "internalType": "enum OptionLibrary.OptionStatus",
                            "name": "status",
                            "type": "uint8"
                        },
                        {
                            "internalType": "address",
                            "name": "holder",
                            "type": "address"
                        },
                        {
                            "internalType": "uint256",
                            "name": "id",
                            "type": "uint256"
                        },
                        {
                            "internalType": "uint256",
                            "name": "createTime",
                            "type": "uint256"
                        },
                        {
                            "internalType": "uint256",
                            "name": "effectiveTime",
                            "type": "uint256"
                        },
                        {
                            "internalType": "uint256",
                            "name": "tenor",
                            "type": "uint256"
                        },
                        {
                            "internalType": "uint256",
                            "name": "exerciseTime",
                            "type": "uint256"
                        },
                        {
                            "internalType": "uint256",
                            "name": "amount",
                            "type": "uint256"
                        },
                        {
                            "internalType": "uint256",
                            "name": "spot",
                            "type": "uint256"
                        },
                        {
                            "internalType": "uint256",
                            "name": "strike",
                            "type": "uint256"
                        },
                        {
                            "internalType": "uint256",
                            "name": "volatility",
                            "type": "uint256"
                        },
                        {
                            "internalType": "uint256",
                            "name": "premium",
                            "type": "uint256"
                        },
                        {
                            "internalType": "uint256",
                            "name": "fee",
                            "type": "uint256"
                        }
                    ],
                    "indexed": false,
                    "internalType": "struct OptionLibrary.Option",
                    "name": "_option",
                    "type": "tuple"
                },
                {
                    "indexed": false,
                    "internalType": "uint256",
                    "name": "_payoff",
                    "type": "uint256"
                }
            ],
            "name": "optionExercised",
            "type": "event"
        },
        {
            "inputs": [],
            "name": "ADMIN_ROLE",
            "outputs": [
                {
                    "internalType": "bytes32",
                    "name": "",
                    "type": "bytes32"
                }
            ],
            "stateMutability": "view",
            "type": "function"
        },
        {
            "inputs": [],
            "name": "DEFAULT_ADMIN_ROLE",
            "outputs": [
                {
                    "internalType": "bytes32",
                    "name": "",
                    "type": "bytes32"
                }
            ],
            "stateMutability": "view",
            "type": "function"
        },
        {
            "inputs": [
                {
                    "internalType": "address payable",
                    "name": "_tokenAddress",
                    "type": "address"
                }
            ],
            "name": "addVolToken",
            "outputs": [],
            "stateMutability": "nonpayable",
            "type": "function"
        },
        {
            "inputs": [
                {
                    "internalType": "uint256",
                    "name": "_amount",
                    "type": "uint256"
                },
                {
                    "internalType": "enum OptionLibrary.PayoffType",
                    "name": "_poType",
                    "type": "uint8"
                },
                {
                    "internalType": "enum OptionLibrary.OptionSide",
                    "name": "_side",
                    "type": "uint8"
                }
            ],
            "name": "calcUtilisation",
            "outputs": [
                {
                    "internalType": "uint256",
                    "name": "",
                    "type": "uint256"
                },
                {
                    "internalType": "uint256",
                    "name": "",
                    "type": "uint256"
                }
            ],
            "stateMutability": "view",
            "type": "function"
        },
        {
            "inputs": [],
            "name": "contractAddress",
            "outputs": [
                {
                    "internalType": "address payable",
                    "name": "",
                    "type": "address"
                }
            ],
            "stateMutability": "view",
            "type": "function"
        },
        {
            "inputs": [
                {
                    "internalType": "uint256",
                    "name": "_id",
                    "type": "uint256"
                }
            ],
            "name": "exerciseOption",
            "outputs": [],
            "stateMutability": "nonpayable",
            "type": "function"
        },
        {
            "inputs": [
                {
                    "internalType": "uint256",
                    "name": "_id",
                    "type": "uint256"
                }
            ],
            "name": "getOptionPayoffValue",
            "outputs": [
                {
                    "internalType": "uint256",
                    "name": "",
                    "type": "uint256"
                }
            ],
            "stateMutability": "view",
            "type": "function"
        },
        {
            "inputs": [
                {
                    "internalType": "bytes32",
                    "name": "role",
                    "type": "bytes32"
                }
            ],
            "name": "getRoleAdmin",
            "outputs": [
                {
                    "internalType": "bytes32",
                    "name": "",
                    "type": "bytes32"
                }
            ],
            "stateMutability": "view",
            "type": "function"
        },
        {
            "inputs": [
                {
                    "internalType": "bytes32",
                    "name": "role",
                    "type": "bytes32"
                },
                {
                    "internalType": "address",
                    "name": "account",
                    "type": "address"
                }
            ],
            "name": "grantRole",
            "outputs": [],
            "stateMutability": "nonpayable",
            "type": "function"
        },
        {
            "inputs": [
                {
                    "internalType": "bytes32",
                    "name": "role",
                    "type": "bytes32"
                },
                {
                    "internalType": "address",
                    "name": "account",
                    "type": "address"
                }
            ],
            "name": "hasRole",
            "outputs": [
                {
                    "internalType": "bool",
                    "name": "",
                    "type": "bool"
                }
            ],
            "stateMutability": "view",
            "type": "function"
        },
        {
            "inputs": [],
            "name": "marketMakerAddress",
            "outputs": [
                {
                    "internalType": "address",
                    "name": "",
                    "type": "address"
                }
            ],
            "stateMutability": "view",
            "type": "function"
        },
        {
            "inputs": [],
            "name": "maxUtilisation",
            "outputs": [
                {
                    "internalType": "uint256",
                    "name": "",
                    "type": "uint256"
                }
            ],
            "stateMutability": "view",
            "type": "function"
        },
        {
            "inputs": [],
            "name": "priceDecimals",
            "outputs": [
                {
                    "internalType": "uint256",
                    "name": "",
                    "type": "uint256"
                }
            ],
            "stateMutability": "view",
            "type": "function"
        },
        {
            "inputs": [
                {
                    "internalType": "uint256",
                    "name": "_tenor",
                    "type": "uint256"
                },
                {
                    "internalType": "uint256",
                    "name": "_strike",
                    "type": "uint256"
                },
                {
                    "internalType": "enum OptionLibrary.PayoffType",
                    "name": "_poType",
                    "type": "uint8"
                },
                {
                    "internalType": "enum OptionLibrary.OptionSide",
                    "name": "_side",
                    "type": "uint8"
                },
                {
                    "internalType": "uint256",
                    "name": "_amount",
                    "type": "uint256"
                },
                {
                    "internalType": "uint256",
                    "name": "_payInCost",
                    "type": "uint256"
                }
            ],
            "name": "purchaseOption",
            "outputs": [],
            "stateMutability": "nonpayable",
            "type": "function"
        },
        {
            "inputs": [
                {
                    "internalType": "uint256",
                    "name": "_tenor",
                    "type": "uint256"
                },
                {
                    "internalType": "uint256",
                    "name": "_strike",
                    "type": "uint256"
                },
                {
                    "internalType": "enum OptionLibrary.PayoffType",
                    "name": "_poType",
                    "type": "uint8"
                },
                {
                    "internalType": "uint256",
                    "name": "_amount",
                    "type": "uint256"
                },
                {
                    "internalType": "uint256",
                    "name": "_payInCost",
                    "type": "uint256"
                }
            ],
            "name": "purchaseOptionInVol",
            "outputs": [],
            "stateMutability": "nonpayable",
            "type": "function"
        },
        {
            "inputs": [
                {
                    "internalType": "uint256",
                    "name": "_tenor",
                    "type": "uint256"
                },
                {
                    "internalType": "uint256",
                    "name": "_volAmount",
                    "type": "uint256"
                },
                {
                    "internalType": "uint256",
                    "name": "_payInCost",
                    "type": "uint256"
                }
            ],
            "name": "purchaseVolatilityToken",
            "outputs": [],
            "stateMutability": "nonpayable",
            "type": "function"
        },
        {
            "inputs": [
                {
                    "internalType": "uint256",
                    "name": "_tenor",
                    "type": "uint256"
                },
                {
                    "internalType": "uint256",
                    "name": "_strike",
                    "type": "uint256"
                },
                {
                    "internalType": "uint256",
                    "name": "_amount",
                    "type": "uint256"
                },
                {
                    "internalType": "enum OptionLibrary.PayoffType",
                    "name": "_poType",
                    "type": "uint8"
                },
                {
                    "internalType": "enum OptionLibrary.OptionSide",
                    "name": "_side",
                    "type": "uint8"
                }
            ],
            "name": "queryOptionCost",
            "outputs": [
                {
                    "internalType": "uint256",
                    "name": "",
                    "type": "uint256"
                }
            ],
            "stateMutability": "view",
            "type": "function"
        },
        {
            "inputs": [],
            "name": "queryPrice",
            "outputs": [
                {
                    "internalType": "uint256",
                    "name": "",
                    "type": "uint256"
                },
                {
                    "internalType": "uint256",
                    "name": "",
                    "type": "uint256"
                }
            ],
            "stateMutability": "view",
            "type": "function"
        },
        {
            "inputs": [
                {
                    "internalType": "uint256",
                    "name": "_tenor",
                    "type": "uint256"
                }
            ],
            "name": "queryVol",
            "outputs": [
                {
                    "internalType": "uint256",
                    "name": "",
                    "type": "uint256"
                },
                {
                    "internalType": "uint256",
                    "name": "",
                    "type": "uint256"
                }
            ],
            "stateMutability": "view",
            "type": "function"
        },
        {
            "inputs": [
                {
                    "internalType": "uint256",
                    "name": "_tenor",
                    "type": "uint256"
                },
                {
                    "internalType": "uint256",
                    "name": "_volAmount",
                    "type": "uint256"
                }
            ],
            "name": "quoteVolatilityCost",
            "outputs": [
                {
                    "internalType": "uint256",
                    "name": "",
                    "type": "uint256"
                },
                {
                    "internalType": "uint256",
                    "name": "",
                    "type": "uint256"
                }
            ],
            "stateMutability": "view",
            "type": "function"
        },
        {
            "inputs": [
                {
                    "internalType": "bytes32",
                    "name": "role",
                    "type": "bytes32"
                },
                {
                    "internalType": "address",
                    "name": "account",
                    "type": "address"
                }
            ],
            "name": "renounceRole",
            "outputs": [],
            "stateMutability": "nonpayable",
            "type": "function"
        },
        {
            "inputs": [
                {
                    "internalType": "uint256",
                    "name": "_maxUtil",
                    "type": "uint256"
                }
            ],
            "name": "resetMaxUtilisation",
            "outputs": [],
            "stateMutability": "nonpayable",
            "type": "function"
        },
        {
            "inputs": [
                {
                    "internalType": "uint256",
                    "name": "_fee",
                    "type": "uint256"
                },
                {
                    "internalType": "uint256",
                    "name": "_denominator",
                    "type": "uint256"
                }
            ],
            "name": "resetSettlementFees",
            "outputs": [],
            "stateMutability": "nonpayable",
            "type": "function"
        },
        {
            "inputs": [
                {
                    "internalType": "uint256",
                    "name": "_fee",
                    "type": "uint256"
                },
                {
                    "internalType": "uint256",
                    "name": "_denominator",
                    "type": "uint256"
                }
            ],
            "name": "resetVolTransactionFees",
            "outputs": [],
            "stateMutability": "nonpayable",
            "type": "function"
        },
        {
            "inputs": [
                {
                    "internalType": "bytes32",
                    "name": "role",
                    "type": "bytes32"
                },
                {
                    "internalType": "address",
                    "name": "account",
                    "type": "address"
                }
            ],
            "name": "revokeRole",
            "outputs": [],
            "stateMutability": "nonpayable",
            "type": "function"
        },
        {
            "inputs": [],
            "name": "settlementFee",
            "outputs": [
                {
                    "internalType": "uint256",
                    "name": "numerator",
                    "type": "uint256"
                },
                {
                    "internalType": "uint256",
                    "name": "denominator",
                    "type": "uint256"
                }
            ],
            "stateMutability": "view",
            "type": "function"
        },
        {
            "inputs": [
                {
                    "internalType": "bytes4",
                    "name": "interfaceId",
                    "type": "bytes4"
                }
            ],
            "name": "supportsInterface",
            "outputs": [
                {
                    "internalType": "bool",
                    "name": "",
                    "type": "bool"
                }
            ],
            "stateMutability": "view",
            "type": "function"
        },
        {
            "inputs": [],
            "name": "sweepBalance",
            "outputs": [],
            "stateMutability": "nonpayable",
            "type": "function"
        },
        {
            "inputs": [
                {
                    "internalType": "uint256",
                    "name": "",
                    "type": "uint256"
                }
            ],
            "name": "volTokensList",
            "outputs": [
                {
                    "internalType": "contract VolatilityToken",
                    "name": "",
                    "type": "address"
                }
            ],
            "stateMutability": "view",
            "type": "function"
        },
        {
            "inputs": [],
            "name": "volTransactionFees",
            "outputs": [
                {
                    "internalType": "uint256",
                    "name": "numerator",
                    "type": "uint256"
                },
                {
                    "internalType": "uint256",
                    "name": "denominator",
                    "type": "uint256"
                }
            ],
            "stateMutability": "view",
            "type": "function"
        }
    ],
    "bytecode": "620186a06080819052620f424060a0819052600191909155600281905561010060405261138860c081905260e0829052600355600455670de0b6b3a7640000600b553480156200004e57600080fd5b506040516200386138038062003861833981016040819052620000719162000310565b6200007e60003362000239565b620000aa7fa49807205ce4d355092ef5a8a18f56e8913cf4a201fbe287825b095693c217753362000239565b600880546001600160a01b038085166001600160a01b031992831617909255600680548684169083168117909155600780549092161790556040805163a15612d160e01b8152905183928392600a9260009285169163a15612d1916004808301926020929190829003018186803b1580156200012557600080fd5b505afa1580156200013a573d6000803e3d6000fd5b505050506040513d601f19601f8201168201806040525081019062000160919062000364565b8152602080820192909252604090810160002080546001600160a01b039485166001600160a01b03199182161790915560058054909116301790556007548151632140ea6760e01b81529151931692632140ea6792600480840193919291829003018186803b158015620001d357600080fd5b505afa158015620001e8573d6000803e3d6000fd5b505050506040513d601f19601f820116820180604052508101906200020e9190620002e9565b600980546001600160a01b0319166001600160a01b0392909216919091179055506200039792505050565b62000245828262000249565b5050565b6000828152602081815260408083206001600160a01b038516845290915290205460ff1662000245576000828152602081815260408083206001600160a01b03851684529091529020805460ff19166001179055620002a53390565b6001600160a01b0316816001600160a01b0316837f2f8788117e7eff1d82e926ec794901d17c78024a50270940304540a733656f0d60405160405180910390a45050565b600060208284031215620002fc57600080fd5b815162000309816200037e565b9392505050565b6000806000606084860312156200032657600080fd5b835162000333816200037e565b602085015190935062000346816200037e565b604085015190925062000359816200037e565b809150509250925092565b6000602082840312156200037757600080fd5b5051919050565b6001600160a01b03811681146200039457600080fd5b50565b6134ba80620003a76000396000f3fe608060405234801561001057600080fd5b50600436106101da5760003560e01c80639320d4ce11610104578063bd069b41116100a2578063d547741f11610071578063d547741f14610411578063dc89231714610424578063f52f25261461042d578063f6b4dfb41461044057600080fd5b8063bd069b41146103d0578063c3513f6d146103e3578063cc910588146103eb578063cfc2dc20146103fe57600080fd5b8063a24015fe116100de578063a24015fe14610361578063a71c1202146103a2578063b0667cf8146103b5578063b7ab8137146103bd57600080fd5b80639320d4ce1461033357806393ecc4cb14610346578063a217fddf1461035957600080fd5b806340d6eaab1161017c57806375b238fc1161014b57806375b238fc146102ea57806376df2d08146102ff5780637d1d7fb81461031257806391d148541461032057600080fd5b806340d6eaab1461028e578063467beb18146102a1578063598ddc60146102b45780635a4a3a92146102c757600080fd5b8063233dde95116101b8578063233dde9514610232578063248a9ca3146102455780632f2ff15d1461026857806336568abe1461027b57600080fd5b806301ffc9a7146101df57806305300b2814610207578063127b3a6a1461021d575b600080fd5b6101f26101ed366004612dbd565b610453565b60405190151581526020015b60405180910390f35b61020f61048a565b6040519081526020016101fe565b61023061022b366004612fbb565b61050b565b005b610230610240366004612d74565b610d8b565b61020f610253366004612d74565b60009081526020819052604090206001015490565b610230610276366004612d8d565b610daa565b610230610289366004612d8d565b610dd5565b61020f61029c366004612d74565b610e53565b6102306102af366004612f5f565b610ed0565b6102306102c2366004612f19565b61158e565b6003546004546102d5919082565b604080519283526020830191909152016101fe565b61020f60008051602061346583398151915281565b61020f61030d366004613030565b6115c6565b6001546002546102d5919082565b6101f261032e366004612d8d565b6116cd565b610230610341366004612f19565b6116f6565b6102d5610354366004612f19565b61172e565b61020f600081565b61038a61036f366004612d74565b600a602052600090815260409020546001600160a01b031681565b6040516001600160a01b0390911681526020016101fe565b6102306103b0366004613004565b611905565b6102d5611a91565b6102306103cb366004612d18565b611b16565b6102d56103de366004612ed7565b611be1565b610230612271565b60065461038a906001600160a01b031681565b6102d561040c366004612d74565b6123d5565b61023061041f366004612d8d565b61245e565b61020f600b5481565b61023061043b366004612d74565b612484565b60055461038a906001600160a01b031681565b60006001600160e01b03198216637965db0b60e01b148061048457506301ffc9a760e01b6001600160e01b03198316145b92915050565b6008546040805162a6016560e31b815290516000926001600160a01b0316916305300b28916004808301926020929190829003018186803b1580156104ce57600080fd5b505afa1580156104e2573d6000803e3d6000fd5b505050506040513d601f19601f820116820180604052508101906105069190612ebe565b905090565b600061051b8686858760006115c6565b9050600061053382600160000154600180015461292a565b6008549091506000906001600160a01b031663af7b2625898989858a610559898b61337c565b896040518863ffffffff1660e01b815260040161057c97969594939291906132a1565b602060405180830381600087803b15801561059657600080fd5b505af11580156105aa573d6000803e3d6000fd5b505050506040513d601f19601f820116820180604052508101906105ce9190612ebe565b600854604051636abae9b360e01b815260048101839052600160248201529192506001600160a01b031690636abae9b39060440160206040518083038186803b15801561061a57600080fd5b505afa15801561062e573d6000803e3d6000fd5b505050506040513d601f19601f820116820180604052508101906106529190612ebe565b8410156106a65760405162461bcd60e51b815260206004820152601a60248201527f456e7465726564207072656d69756d20696e636f72726563742e00000000000060448201526064015b60405180910390fd5b6000888152600a6020526040908190205460055491516323b872dd60e01b81523360048201526001600160a01b039283166024820152604481018790529116906323b872dd90606401602060405180830381600087803b15801561070957600080fd5b505af115801561071d573d6000803e3d6000fd5b505050506040513d601f19601f820116820180604052508101906107419190612d52565b61077f5760405162461bcd60e51b815260206004820152600f60248201526e2330b4b632b2103830bcb6b2b73a1760891b604482015260640161069d565b6000888152600a6020908152604091829020548251633dad37ed60e21b815292516001600160a01b039091169263095ea7b392849263f6b4dfb4926004808201939291829003018186803b1580156107d657600080fd5b505afa1580156107ea573d6000803e3d6000fd5b505050506040513d601f19601f8201168201806040525081019061080e9190612d35565b6040516001600160e01b031960e084901b1681526001600160a01b03909116600482015260248101879052604401602060405180830381600087803b15801561085657600080fd5b505af115801561086a573d6000803e3d6000fd5b505050506040513d601f19601f8201168201806040525081019061088e9190612d52565b506000888152600a60205260409081902054600554600954925163d2f714c560e01b81526001600160a01b039182166004820152602481018890529281166044840152169063d2f714c590606401602060405180830381600087803b1580156108f657600080fd5b505af115801561090a573d6000803e3d6000fd5b505050506040513d601f19601f8201168201806040525081019061092e9190612ebe565b506009546006546008546040516323023d3360e11b8152600481018590526001600160a01b039384169363a9059cbb9381169216906346047a669060240160206040518083038186803b15801561098457600080fd5b505afa158015610998573d6000803e3d6000fd5b505050506040513d601f19601f820116820180604052508101906109bc9190612ebe565b6040516001600160e01b031960e085901b1681526001600160a01b0390921660048301526024820152604401602060405180830381600087803b158015610a0257600080fd5b505af1158015610a16573d6000803e3d6000fd5b505050506040513d601f19601f82011682018060405250810190610a3a9190612d52565b610a805760405162461bcd60e51b81526020600482015260176024820152762330b4b632b210383932b6b4bab6903830bcb6b2b73a1760491b604482015260640161069d565b6008546040516328e493c160e01b8152600481018390526001600160a01b03909116906328e493c190602401600060405180830381600087803b158015610ac657600080fd5b505af1158015610ada573d6000803e3d6000fd5b50506007546008546040516323023d3360e11b8152600481018690526001600160a01b03928316945063d8d1caeb9350339286926001929116906346047a669060240160206040518083038186803b158015610b3557600080fd5b505afa158015610b49573d6000803e3d6000fd5b505050506040513d601f19601f82011682018060405250810190610b6d9190612ebe565b60085460405163128734c560e01b81526001600160a01b039091169063128734c590610ba0908a90600090600401613284565b60206040518083038186803b158015610bb857600080fd5b505afa158015610bcc573d6000803e3d6000fd5b505050506040513d601f19601f82011682018060405250810190610bf09190612ebe565b60085460405163128734c560e01b81526001600160a01b039091169063128734c590610c23908b90600190600401613284565b60206040518083038186803b158015610c3b57600080fd5b505afa158015610c4f573d6000803e3d6000fd5b505050506040513d601f19601f82011682018060405250810190610c739190612ebe565b6040518763ffffffff1660e01b8152600401610c94969594939291906131da565b600060405180830381600087803b158015610cae57600080fd5b505af1158015610cc2573d6000803e3d6000fd5b5050600854604051630e72f4d360e11b8152600481018590523393507f70f78afb3477f32fbbdae25a5446780cf2f44e041329d5f7688fa98e6524bf4392506001600160a01b0390911690631ce5e9a6906024016101e06040518083038186803b158015610d2f57600080fd5b505afa158015610d43573d6000803e3d6000fd5b505050506040513d601f19601f82011682018060405250810190610d679190612de7565b866001604051610d799392919061325d565b60405180910390a25050505050505050565b600080516020613465833981519152610da481336129df565b50600b55565b600082815260208190526040902060010154610dc681336129df565b610dd08383612a43565b505050565b6001600160a01b0381163314610e455760405162461bcd60e51b815260206004820152602f60248201527f416363657373436f6e74726f6c3a2063616e206f6e6c792072656e6f756e636560448201526e103937b632b9903337b91039b2b63360891b606482015260840161069d565b610e4f8282612ac7565b5050565b6008546040516340d6eaab60e01b8152600481018390526000916001600160a01b0316906340d6eaab9060240160206040518083038186803b158015610e9857600080fd5b505afa158015610eac573d6000803e3d6000fd5b505050506040513d601f19601f820116820180604052508101906104849190612ebe565b6000610edf87878588886115c6565b90506000610ef782600160000154600180015461292a565b6008549091506000906001600160a01b031663af7b26258a8a8a8a8a610f1d898b61337c565b896040518863ffffffff1660e01b8152600401610f4097969594939291906132a1565b602060405180830381600087803b158015610f5a57600080fd5b505af1158015610f6e573d6000803e3d6000fd5b505050506040513d601f19601f82011682018060405250810190610f929190612ebe565b600854604051636abae9b360e01b815260048101839052600060248201529192506001600160a01b031690636abae9b39060440160206040518083038186803b158015610fde57600080fd5b505afa158015610ff2573d6000803e3d6000fd5b505050506040513d601f19601f820116820180604052508101906110169190612ebe565b8410156110655760405162461bcd60e51b815260206004820152601a60248201527f456e7465726564207072656d69756d20696e636f72726563742e000000000000604482015260640161069d565b6009546005546040516323b872dd60e01b81523360048201526001600160a01b039182166024820152604481018790529116906323b872dd90606401602060405180830381600087803b1580156110bb57600080fd5b505af11580156110cf573d6000803e3d6000fd5b505050506040513d601f19601f820116820180604052508101906110f39190612d52565b6111315760405162461bcd60e51b815260206004820152600f60248201526e2330b4b632b2103830bcb6b2b73a1760891b604482015260640161069d565b6009546006546008546040516323023d3360e11b8152600481018590526001600160a01b039384169363a9059cbb9381169216906346047a669060240160206040518083038186803b15801561118657600080fd5b505afa15801561119a573d6000803e3d6000fd5b505050506040513d601f19601f820116820180604052508101906111be9190612ebe565b6040516001600160e01b031960e085901b1681526001600160a01b0390921660048301526024820152604401602060405180830381600087803b15801561120457600080fd5b505af1158015611218573d6000803e3d6000fd5b505050506040513d601f19601f8201168201806040525081019061123c9190612d52565b6112825760405162461bcd60e51b81526020600482015260176024820152762330b4b632b210383932b6b4bab6903830bcb6b2b73a1760491b604482015260640161069d565b6008546040516328e493c160e01b8152600481018390526001600160a01b03909116906328e493c190602401600060405180830381600087803b1580156112c857600080fd5b505af11580156112dc573d6000803e3d6000fd5b50506007546008546040516323023d3360e11b8152600481018690526001600160a01b03928316945063d8d1caeb9350339286926001929116906346047a669060240160206040518083038186803b15801561133757600080fd5b505afa15801561134b573d6000803e3d6000fd5b505050506040513d601f19601f8201168201806040525081019061136f9190612ebe565b60085460405163128734c560e01b81526001600160a01b039091169063128734c5906113a2908a90600090600401613284565b60206040518083038186803b1580156113ba57600080fd5b505afa1580156113ce573d6000803e3d6000fd5b505050506040513d601f19601f820116820180604052508101906113f29190612ebe565b60085460405163128734c560e01b81526001600160a01b039091169063128734c590611425908b90600190600401613284565b60206040518083038186803b15801561143d57600080fd5b505afa158015611451573d6000803e3d6000fd5b505050506040513d601f19601f820116820180604052508101906114759190612ebe565b6040518763ffffffff1660e01b8152600401611496969594939291906131da565b600060405180830381600087803b1580156114b057600080fd5b505af11580156114c4573d6000803e3d6000fd5b5050600854604051630e72f4d360e11b8152600481018590523393507f70f78afb3477f32fbbdae25a5446780cf2f44e041329d5f7688fa98e6524bf4392506001600160a01b0390911690631ce5e9a6906024016101e06040518083038186803b15801561153157600080fd5b505afa158015611545573d6000803e3d6000fd5b505050506040513d601f19601f820116820180604052508101906115699190612de7565b86600060405161157b9392919061325d565b60405180910390a2505050505050505050565b6000805160206134658339815191526115a781336129df565b5060408051808201909152828152602001819052600391909155600455565b60008060006115d6868686611be1565b91509150600b546115e78383612b2c565b11156116355760405162461bcd60e51b815260206004820152601960248201527f4d6178207574696c69736174696f6e2062726561636865642e00000000000000604482015260640161069d565b6008546040516376851f1d60e11b81526001600160a01b039091169063ed0a3e3a90611671908b908b908a908a908d908a908a906004016132a1565b60206040518083038186803b15801561168957600080fd5b505afa15801561169d573d6000803e3d6000fd5b505050506040513d601f19601f820116820180604052508101906116c19190612ebe565b98975050505050505050565b6000918252602082815260408084206001600160a01b0393909316845291905290205460ff1690565b60008051602061346583398151915261170f81336129df565b5060408051808201909152828152602001819052600191909155600255565b6000806000600860009054906101000a90046001600160a01b03166001600160a01b031663b0667cf86040518163ffffffff1660e01b8152600401604080518083038186803b15801561178057600080fd5b505afa158015611794573d6000803e3d6000fd5b505050506040513d601f19601f820116820180604052508101906117b89190612f3b565b5060085460405163067e16e160e51b8152600481018890529192506000916001600160a01b039091169063cfc2dc2090602401604080518083038186803b15801561180257600080fd5b505afa158015611816573d6000803e3d6000fd5b505050506040513d601f19601f8201168201806040525081019061183a9190612f3b565b506000878152600a60205260408082205490516362c5c11960e01b815260048101899052602481018690526044810184905292935090916001600160a01b03909116906362c5c1199060640160206040518083038186803b15801561189e57600080fd5b505afa1580156118b2573d6000803e3d6000fd5b505050506040513d601f19601f820116820180604052508101906118d69190612ebe565b6004546003549192506000916118ec908461335d565b6118f6919061333b565b91989197509095505050505050565b600080611912858561172e565b90925090506119218183613323565b83101561192d57600080fd5b6009546000868152600a6020526040908190205490516323b872dd60e01b81523360048201526001600160a01b039182166024820152604481018590529116906323b872dd90606401602060405180830381600087803b15801561199057600080fd5b505af11580156119a4573d6000803e3d6000fd5b505050506040513d601f19601f820116820180604052508101906119c89190612d52565b506000858152600a6020526040908190205490516340c10f1960e01b8152336004820152602481018690526001600160a01b03909116906340c10f199084906044016000604051808303818588803b158015611a2357600080fd5b505af1158015611a37573d6000803e3d6000fd5b505060408051338152426020820152908101899052606081018890527f701297180b43ed5c70ad79a3036dca759169e2b5f64d7c4d04f2322af0511c8d93506080019150611a829050565b60405180910390a15050505050565b6008546040805163160ccf9f60e31b8152815160009384936001600160a01b039091169263b0667cf89260048083019392829003018186803b158015611ad657600080fd5b505afa158015611aea573d6000803e3d6000fd5b505050506040513d601f19601f82011682018060405250810190611b0e9190612f3b565b915091509091565b600080516020613465833981519152611b2f81336129df565b600082905080600a6000836001600160a01b031663a15612d16040518163ffffffff1660e01b815260040160206040518083038186803b158015611b7257600080fd5b505afa158015611b86573d6000803e3d6000fd5b505050506040513d601f19601f82011682018060405250810190611baa9190612ebe565b815260200190815260200160002060006101000a8154816001600160a01b0302191690836001600160a01b03160217905550505050565b6007546040516331a23c8160e11b81526000600482018190526024820181905291829182916001600160a01b03169063634479029060440160206040518083038186803b158015611c3157600080fd5b505afa158015611c45573d6000803e3d6000fd5b505050506040513d601f19601f82011682018060405250810190611c699190612ebe565b9050600080866001811115611c8057611c806133f0565b14611d1057600760009054906101000a90046001600160a01b03166001600160a01b03166336da48876040518163ffffffff1660e01b815260040160206040518083038186803b158015611cd357600080fd5b505afa158015611ce7573d6000803e3d6000fd5b505050506040513d601f19601f82011682018060405250810190611d0b9190612ebe565b611ec3565b6000856001811115611d2457611d246133f0565b14611e3d57600754604080516336da488760e01b81529051611dad926001600160a01b0316916336da4887916004808301926020929190829003018186803b158015611d6f57600080fd5b505afa158015611d83573d6000803e3d6000fd5b505050506040513d601f19601f82011682018060405250810190611da79190612ebe565b88612b43565b600760009054906101000a90046001600160a01b03166001600160a01b03166336da48876040518163ffffffff1660e01b815260040160206040518083038186803b158015611dfb57600080fd5b505afa158015611e0f573d6000803e3d6000fd5b505050506040513d601f19601f82011682018060405250810190611e339190612ebe565b611d0b919061337c565b600754604080516336da488760e01b8152905189926001600160a01b0316916336da4887916004808301926020929190829003018186803b158015611e8157600080fd5b505afa158015611e95573d6000803e3d6000fd5b505050506040513d601f19601f82011682018060405250810190611eb99190612ebe565b611ec39190613323565b905060006001876001811115611edb57611edb6133f0565b14611f6b57600760009054906101000a90046001600160a01b03166001600160a01b031663f8daf7d86040518163ffffffff1660e01b815260040160206040518083038186803b158015611f2e57600080fd5b505afa158015611f42573d6000803e3d6000fd5b505050506040513d601f19601f82011682018060405250810190611f669190612ebe565b61211e565b6000866001811115611f7f57611f7f6133f0565b146120985760075460408051631f1b5efb60e31b81529051612008926001600160a01b03169163f8daf7d8916004808301926020929190829003018186803b158015611fca57600080fd5b505afa158015611fde573d6000803e3d6000fd5b505050506040513d601f19601f820116820180604052508101906120029190612ebe565b89612b43565b600760009054906101000a90046001600160a01b03166001600160a01b031663f8daf7d86040518163ffffffff1660e01b815260040160206040518083038186803b15801561205657600080fd5b505afa15801561206a573d6000803e3d6000fd5b505050506040513d601f19601f8201168201806040525081019061208e9190612ebe565b611f66919061337c565b60075460408051631f1b5efb60e31b815290518a926001600160a01b03169163f8daf7d8916004808301926020929190829003018186803b1580156120dc57600080fd5b505afa1580156120f0573d6000803e3d6000fd5b505050506040513d601f19601f820116820180604052508101906121149190612ebe565b61211e9190613323565b9050612246612237600760009054906101000a90046001600160a01b03166001600160a01b03166336da48876040518163ffffffff1660e01b815260040160206040518083038186803b15801561217457600080fd5b505afa158015612188573d6000803e3d6000fd5b505050506040513d601f19601f820116820180604052508101906121ac9190612ebe565b600760009054906101000a90046001600160a01b03166001600160a01b031663f8daf7d86040518163ffffffff1660e01b815260040160206040518083038186803b1580156121fa57600080fd5b505afa15801561220e573d6000803e3d6000fd5b505050506040513d601f19601f820116820180604052508101906122329190612ebe565b612b2c565b670de0b6b3a76400008561292a565b6122626122538484612b2c565b670de0b6b3a76400008661292a565b94509450505050935093915050565b60008051602061346583398151915261228a81336129df565b6009546005546040516370a0823160e01b81526001600160a01b03918216600482015291169063a9059cbb90339083906370a082319060240160206040518083038186803b1580156122db57600080fd5b505afa1580156122ef573d6000803e3d6000fd5b505050506040513d601f19601f820116820180604052508101906123139190612ebe565b6040516001600160e01b031960e085901b1681526001600160a01b0390921660048301526024820152604401602060405180830381600087803b15801561235957600080fd5b505af115801561236d573d6000803e3d6000fd5b505050506040513d601f19601f820116820180604052508101906123919190612d52565b6123d25760405162461bcd60e51b81526020600482015260126024820152712bb4ba34323930bbb0b6103330b4b632b21760711b604482015260640161069d565b50565b60085460405163067e16e160e51b81526004810183905260009182916001600160a01b039091169063cfc2dc2090602401604080518083038186803b15801561241d57600080fd5b505afa158015612431573d6000803e3d6000fd5b505050506040513d601f19601f820116820180604052508101906124559190612f3b565b91509150915091565b60008281526020819052604090206001015461247a81336129df565b610dd08383612ac7565b600854604051632955bfbb60e21b8152600481018390523360248201526001600160a01b039091169063a556feec9060440160006040518083038186803b1580156124ce57600080fd5b505afa1580156124e2573d6000803e3d6000fd5b50506008546040516340d6eaab60e01b815260048101859052600093506001600160a01b0390911691506340d6eaab9060240160206040518083038186803b15801561252d57600080fd5b505afa158015612541573d6000803e3d6000fd5b505050506040513d601f19601f820116820180604052508101906125659190612ebe565b600854604051636c1f7b9360e01b8152600481018590529192506001600160a01b031690636c1f7b9390602401600060405180830381600087803b1580156125ac57600080fd5b505af11580156125c0573d6000803e3d6000fd5b505060095460405163a9059cbb60e01b8152336004820152602481018590526001600160a01b03909116925063a9059cbb9150604401602060405180830381600087803b15801561261057600080fd5b505af1158015612624573d6000803e3d6000fd5b505050506040513d601f19601f820116820180604052508101906126489190612d52565b6126875760405162461bcd60e51b815260206004820152601060248201526f2a3930b739b332b9103330b4b632b21760811b604482015260640161069d565b6007546008546040516323023d3360e11b8152600481018590526001600160a01b039283169263d8d1caeb923392879260009216906346047a669060240160206040518083038186803b1580156126dd57600080fd5b505afa1580156126f1573d6000803e3d6000fd5b505050506040513d601f19601f820116820180604052508101906127159190612ebe565b60085460405163128734c560e01b81526001600160a01b039091169063128734c590612748908b90600090600401613284565b60206040518083038186803b15801561276057600080fd5b505afa158015612774573d6000803e3d6000fd5b505050506040513d601f19601f820116820180604052508101906127989190612ebe565b60085460405163128734c560e01b81526001600160a01b039091169063128734c5906127cb908c90600190600401613284565b60206040518083038186803b1580156127e357600080fd5b505afa1580156127f7573d6000803e3d6000fd5b505050506040513d601f19601f8201168201806040525081019061281b9190612ebe565b6040518763ffffffff1660e01b815260040161283c969594939291906131da565b600060405180830381600087803b15801561285657600080fd5b505af115801561286a573d6000803e3d6000fd5b5050600854604051630e72f4d360e11b8152600481018690523393507f41c2c00510329a39f538637baf1a4cec0c212ffecb304f9a04517c285c981b0892506001600160a01b0390911690631ce5e9a6906024016101e06040518083038186803b1580156128d757600080fd5b505afa1580156128eb573d6000803e3d6000fd5b505050506040513d601f19601f8201168201806040525081019061290f9190612de7565b8360405161291e929190613240565b60405180910390a25050565b600080806000198587098587029250828110838203039150508060001415612964576000841161295957600080fd5b5082900490506129d8565b80841161297057600080fd5b600084868809851960019081018716968790049682860381900495909211909303600082900391909104909201919091029190911760038402600290811880860282030280860282030280860282030280860282030280860282030280860290910302029150505b9392505050565b6129e982826116cd565b610e4f57612a01816001600160a01b03166014612b52565b612a0c836020612b52565b604051602001612a1d929190613165565b60408051601f198184030181529082905262461bcd60e51b825261069d9160040161320d565b612a4d82826116cd565b610e4f576000828152602081815260408083206001600160a01b03851684529091529020805460ff19166001179055612a833390565b6001600160a01b0316816001600160a01b0316837f2f8788117e7eff1d82e926ec794901d17c78024a50270940304540a733656f0d60405160405180910390a45050565b612ad182826116cd565b15610e4f576000828152602081815260408083206001600160a01b0385168085529252808320805460ff1916905551339285917ff6391f5c32d9c69d2a47ea670b442974b53935d1edc7fd64eb21e047a839171b9190a45050565b600081831015612b3c57816129d8565b5090919050565b6000818310612b3c57816129d8565b60606000612b6183600261335d565b612b6c906002613323565b67ffffffffffffffff811115612b8457612b8461341c565b6040519080825280601f01601f191660200182016040528015612bae576020820181803683370190505b509050600360fc1b81600081518110612bc957612bc9613406565b60200101906001600160f81b031916908160001a905350600f60fb1b81600181518110612bf857612bf8613406565b60200101906001600160f81b031916908160001a9053506000612c1c84600261335d565b612c27906001613323565b90505b6001811115612c9f576f181899199a1a9b1b9c1cb0b131b232b360811b85600f1660108110612c5b57612c5b613406565b1a60f81b828281518110612c7157612c71613406565b60200101906001600160f81b031916908160001a90535060049490941c93612c98816133c3565b9050612c2a565b5083156129d85760405162461bcd60e51b815260206004820181905260248201527f537472696e67733a20686578206c656e67746820696e73756666696369656e74604482015260640161069d565b8051612cf981613442565b919050565b8051612cf981613457565b805160048110612cf957600080fd5b600060208284031215612d2a57600080fd5b81356129d881613442565b600060208284031215612d4757600080fd5b81516129d881613442565b600060208284031215612d6457600080fd5b815180151581146129d857600080fd5b600060208284031215612d8657600080fd5b5035919050565b60008060408385031215612da057600080fd5b823591506020830135612db281613442565b809150509250929050565b600060208284031215612dcf57600080fd5b81356001600160e01b0319811681146129d857600080fd5b60006101e08284031215612dfa57600080fd5b612e026132eb565b612e0b83612cfe565b8152612e1960208401612cfe565b6020820152612e2a60408401612d09565b6040820152612e3b60608401612cee565b60608201526080838101519082015260a0808401519082015260c0808401519082015260e08084015190820152610100808401519082015261012080840151908201526101408084015190820152610160808401519082015261018080840151908201526101a080840151908201526101c0928301519281019290925250919050565b600060208284031215612ed057600080fd5b5051919050565b600080600060608486031215612eec57600080fd5b833592506020840135612efe81613457565b91506040840135612f0e81613457565b809150509250925092565b60008060408385031215612f2c57600080fd5b50508035926020909101359150565b60008060408385031215612f4e57600080fd5b505080516020909101519092909150565b60008060008060008060c08789031215612f7857600080fd5b86359550602087013594506040870135612f9181613457565b93506060870135612fa181613457565b9598949750929560808101359460a0909101359350915050565b600080600080600060a08688031215612fd357600080fd5b85359450602086013593506040860135612fec81613457565b94979396509394606081013594506080013592915050565b60008060006060848603121561301957600080fd5b505081359360208301359350604090920135919050565b600080600080600060a0868803121561304857600080fd5b853594506020860135935060408601359250606086013561306881613457565b9150608086013561307881613457565b809150509295509295909350565b61308f81613432565b9052565b6004811061308f5761308f6133f0565b6130ae828251613086565b60208101516130c06020840182613086565b5060408101516130d36040840182613093565b5060608101516130ee60608401826001600160a01b03169052565b506080818101519083015260a0808201519083015260c0808201519083015260e08082015190830152610100808201519083015261012080820151908301526101408082015190830152610160808201519083015261018080820151908301526101a080820151908301526101c090810151910152565b7f416363657373436f6e74726f6c3a206163636f756e742000000000000000000081526000835161319d816017850160208801613393565b7001034b99036b4b9b9b4b733903937b6329607d1b60179184019182015283516131ce816028840160208801613393565b01602801949350505050565b6001600160a01b03969096168652602086019490945291151560408501526060840152608083015260a082015260c00190565b602081526000825180602084015261322c816040850160208701613393565b601f01601f19169190910160400192915050565b610200810161324f82856130a3565b826101e08301529392505050565b610220810161326c82866130a3565b836101e0830152821515610200830152949350505050565b8281526040810161329483613432565b8260208301529392505050565b8781526020810187905260e081016132b887613432565b8660408301526132c786613432565b8560608301528460808301528360a08301528260c083015298975050505050505050565b6040516101e0810167ffffffffffffffff8111828210171561331d57634e487b7160e01b600052604160045260246000fd5b60405290565b60008219821115613336576133366133da565b500190565b60008261335857634e487b7160e01b600052601260045260246000fd5b500490565b6000816000190483118215151615613377576133776133da565b500290565b60008282101561338e5761338e6133da565b500390565b60005b838110156133ae578181015183820152602001613396565b838111156133bd576000848401525b50505050565b6000816133d2576133d26133da565b506000190190565b634e487b7160e01b600052601160045260246000fd5b634e487b7160e01b600052602160045260246000fd5b634e487b7160e01b600052603260045260246000fd5b634e487b7160e01b600052604160045260246000fd5b600281106123d2576123d26133f0565b6001600160a01b03811681146123d257600080fd5b600281106123d257600080fdfea49807205ce4d355092ef5a8a18f56e8913cf4a201fbe287825b095693c21775a26469706673582212206a7d74d7776546a5a4f5ece91d1778db00d92f49a4b9558b1534b304648642c064736f6c63430008070033",
    "sourcePath": "/Users/mac/Documents/GitHub/moret/contracts/Exchange.sol",
    "compiler": {
        "name": "solc",
        "version": "0.8.7+commit.e28d00a7"
    },
    "functionHashes": {
        "ADMIN_ROLE()": "75b238fc",
        "DEFAULT_ADMIN_ROLE()": "a217fddf",
        "addVolToken(address)": "b7ab8137",
        "calcUtilisation(uint256,uint8,uint8)": "bd069b41",
        "contractAddress()": "f6b4dfb4",
        "exerciseOption(uint256)": "f52f2526",
        "getOptionPayoffValue(uint256)": "40d6eaab",
        "getRoleAdmin(bytes32)": "248a9ca3",
        "grantRole(bytes32,address)": "2f2ff15d",
        "hasRole(bytes32,address)": "91d14854",
        "marketMakerAddress()": "cc910588",
        "maxUtilisation()": "dc892317",
        "priceDecimals()": "05300b28",
        "purchaseOption(uint256,uint256,uint8,uint8,uint256,uint256)": "467beb18",
        "purchaseOptionInVol(uint256,uint256,uint8,uint256,uint256)": "127b3a6a",
        "purchaseVolatilityToken(uint256,uint256,uint256)": "a71c1202",
        "queryOptionCost(uint256,uint256,uint256,uint8,uint8)": "76df2d08",
        "queryPrice()": "b0667cf8",
        "queryVol(uint256)": "cfc2dc20",
        "quoteVolatilityCost(uint256,uint256)": "93ecc4cb",
        "renounceRole(bytes32,address)": "36568abe",
        "resetMaxUtilisation(uint256)": "233dde95",
        "resetSettlementFees(uint256,uint256)": "9320d4ce",
        "resetVolTransactionFees(uint256,uint256)": "598ddc60",
        "revokeRole(bytes32,address)": "d547741f",
        "settlementFee()": "7d1d7fb8",
        "supportsInterface(bytes4)": "01ffc9a7",
        "sweepBalance()": "c3513f6d",
        "volTokensList(uint256)": "a24015fe",
        "volTransactionFees()": "5a4a3a92"
    },
    "gasEstimates": {
        "creation": {
            "codeDepositCost": "2699600",
            "executionCost": "infinite",
            "totalCost": "infinite"
        },
        "external": {
            "ADMIN_ROLE()": "infinite",
            "DEFAULT_ADMIN_ROLE()": "285",
            "addVolToken(address)": "infinite",
            "calcUtilisation(uint256,uint8,uint8)": "infinite",
            "contractAddress()": "2447",
            "exerciseOption(uint256)": "infinite",
            "getOptionPayoffValue(uint256)": "infinite",
            "getRoleAdmin(bytes32)": "2515",
            "grantRole(bytes32,address)": "infinite",
            "hasRole(bytes32,address)": "2761",
            "marketMakerAddress()": "2426",
            "maxUtilisation()": "2361",
            "priceDecimals()": "infinite",
            "purchaseOption(uint256,uint256,uint8,uint8,uint256,uint256)": "infinite",
            "purchaseOptionInVol(uint256,uint256,uint8,uint256,uint256)": "infinite",
            "purchaseVolatilityToken(uint256,uint256,uint256)": "infinite",
            "queryOptionCost(uint256,uint256,uint256,uint8,uint8)": "infinite",
            "queryPrice()": "infinite",
            "queryVol(uint256)": "infinite",
            "quoteVolatilityCost(uint256,uint256)": "infinite",
            "renounceRole(bytes32,address)": "29106",
            "resetMaxUtilisation(uint256)": "infinite",
            "resetSettlementFees(uint256,uint256)": "infinite",
            "resetVolTransactionFees(uint256,uint256)": "infinite",
            "revokeRole(bytes32,address)": "infinite",
            "settlementFee()": "4517",
            "supportsInterface(bytes4)": "473",
            "sweepBalance()": "infinite",
            "volTokensList(uint256)": "2522",
            "volTransactionFees()": "4540"
        },
        "internal": {
            "expireOption(uint256)": "infinite"
        }
    }
}