{
    "contractName": "Exchange",
    "abi": [
        {
            "inputs": [
                {
                    "internalType": "address payable",
                    "name": "_marketMakerAddress",
                    "type": "address"
                },
                {
                    "internalType": "address",
                    "name": "_optionAddress",
                    "type": "address"
                },
                {
                    "internalType": "address payable",
                    "name": "_volTokenAddress",
                    "type": "address"
                }
            ],
            "stateMutability": "nonpayable",
            "type": "constructor"
        },
        {
            "anonymous": false,
            "inputs": [
                {
                    "indexed": true,
                    "internalType": "bytes32",
                    "name": "role",
                    "type": "bytes32"
                },
                {
                    "indexed": true,
                    "internalType": "bytes32",
                    "name": "previousAdminRole",
                    "type": "bytes32"
                },
                {
                    "indexed": true,
                    "internalType": "bytes32",
                    "name": "newAdminRole",
                    "type": "bytes32"
                }
            ],
            "name": "RoleAdminChanged",
            "type": "event"
        },
        {
            "anonymous": false,
            "inputs": [
                {
                    "indexed": true,
                    "internalType": "bytes32",
                    "name": "role",
                    "type": "bytes32"
                },
                {
                    "indexed": true,
                    "internalType": "address",
                    "name": "account",
                    "type": "address"
                },
                {
                    "indexed": true,
                    "internalType": "address",
                    "name": "sender",
                    "type": "address"
                }
            ],
            "name": "RoleGranted",
            "type": "event"
        },
        {
            "anonymous": false,
            "inputs": [
                {
                    "indexed": true,
                    "internalType": "bytes32",
                    "name": "role",
                    "type": "bytes32"
                },
                {
                    "indexed": true,
                    "internalType": "address",
                    "name": "account",
                    "type": "address"
                },
                {
                    "indexed": true,
                    "internalType": "address",
                    "name": "sender",
                    "type": "address"
                }
            ],
            "name": "RoleRevoked",
            "type": "event"
        },
        {
            "anonymous": false,
            "inputs": [
                {
                    "indexed": false,
                    "internalType": "address",
                    "name": "_recipient",
                    "type": "address"
                },
                {
                    "indexed": false,
                    "internalType": "uint256",
                    "name": "_mintMPTokenAmount",
                    "type": "uint256"
                },
                {
                    "indexed": false,
                    "internalType": "uint256",
                    "name": "_addedValue",
                    "type": "uint256"
                }
            ],
            "name": "capitalAdded",
            "type": "event"
        },
        {
            "anonymous": false,
            "inputs": [
                {
                    "indexed": false,
                    "internalType": "address",
                    "name": "_recipient",
                    "type": "address"
                },
                {
                    "indexed": false,
                    "internalType": "uint256",
                    "name": "_burnMPTokenAmount",
                    "type": "uint256"
                },
                {
                    "indexed": false,
                    "internalType": "uint256",
                    "name": "_withdrawValue",
                    "type": "uint256"
                }
            ],
            "name": "capitalWithdrawn",
            "type": "event"
        },
        {
            "anonymous": false,
            "inputs": [
                {
                    "indexed": true,
                    "internalType": "address",
                    "name": "_purchaser",
                    "type": "address"
                },
                {
                    "components": [
                        {
                            "internalType": "enum OptionLibrary.PayoffType",
                            "name": "poType",
                            "type": "uint8"
                        },
                        {
                            "internalType": "enum OptionLibrary.OptionSide",
                            "name": "side",
                            "type": "uint8"
                        },
                        {
                            "internalType": "enum OptionLibrary.OptionStatus",
                            "name": "status",
                            "type": "uint8"
                        },
                        {
                            "internalType": "address",
                            "name": "holder",
                            "type": "address"
                        },
                        {
                            "internalType": "uint256",
                            "name": "id",
                            "type": "uint256"
                        },
                        {
                            "internalType": "uint256",
                            "name": "createTime",
                            "type": "uint256"
                        },
                        {
                            "internalType": "uint256",
                            "name": "effectiveTime",
                            "type": "uint256"
                        },
                        {
                            "internalType": "uint256",
                            "name": "tenor",
                            "type": "uint256"
                        },
                        {
                            "internalType": "uint256",
                            "name": "exerciseTime",
                            "type": "uint256"
                        },
                        {
                            "internalType": "uint256",
                            "name": "amount",
                            "type": "uint256"
                        },
                        {
                            "internalType": "uint256",
                            "name": "spot",
                            "type": "uint256"
                        },
                        {
                            "internalType": "uint256",
                            "name": "strike",
                            "type": "uint256"
                        },
                        {
                            "internalType": "uint256",
                            "name": "volatility",
                            "type": "uint256"
                        },
                        {
                            "internalType": "uint256",
                            "name": "premium",
                            "type": "uint256"
                        },
                        {
                            "internalType": "uint256",
                            "name": "fee",
                            "type": "uint256"
                        }
                    ],
                    "indexed": false,
                    "internalType": "struct OptionLibrary.Option",
                    "name": "_option",
                    "type": "tuple"
                },
                {
                    "indexed": false,
                    "internalType": "uint256",
                    "name": "_cost",
                    "type": "uint256"
                },
                {
                    "indexed": false,
                    "internalType": "bool",
                    "name": "_inVol",
                    "type": "bool"
                }
            ],
            "name": "newOptionBought",
            "type": "event"
        },
        {
            "anonymous": false,
            "inputs": [
                {
                    "indexed": false,
                    "internalType": "address",
                    "name": "_purchaser",
                    "type": "address"
                },
                {
                    "indexed": false,
                    "internalType": "uint256",
                    "name": "_time",
                    "type": "uint256"
                },
                {
                    "indexed": false,
                    "internalType": "uint256",
                    "name": "_tenor",
                    "type": "uint256"
                },
                {
                    "indexed": false,
                    "internalType": "uint256",
                    "name": "_amount",
                    "type": "uint256"
                }
            ],
            "name": "newVolatilityTokenBought",
            "type": "event"
        },
        {
            "anonymous": false,
            "inputs": [
                {
                    "indexed": true,
                    "internalType": "address",
                    "name": "_purchaser",
                    "type": "address"
                },
                {
                    "components": [
                        {
                            "internalType": "enum OptionLibrary.PayoffType",
                            "name": "poType",
                            "type": "uint8"
                        },
                        {
                            "internalType": "enum OptionLibrary.OptionSide",
                            "name": "side",
                            "type": "uint8"
                        },
                        {
                            "internalType": "enum OptionLibrary.OptionStatus",
                            "name": "status",
                            "type": "uint8"
                        },
                        {
                            "internalType": "address",
                            "name": "holder",
                            "type": "address"
                        },
                        {
                            "internalType": "uint256",
                            "name": "id",
                            "type": "uint256"
                        },
                        {
                            "internalType": "uint256",
                            "name": "createTime",
                            "type": "uint256"
                        },
                        {
                            "internalType": "uint256",
                            "name": "effectiveTime",
                            "type": "uint256"
                        },
                        {
                            "internalType": "uint256",
                            "name": "tenor",
                            "type": "uint256"
                        },
                        {
                            "internalType": "uint256",
                            "name": "exerciseTime",
                            "type": "uint256"
                        },
                        {
                            "internalType": "uint256",
                            "name": "amount",
                            "type": "uint256"
                        },
                        {
                            "internalType": "uint256",
                            "name": "spot",
                            "type": "uint256"
                        },
                        {
                            "internalType": "uint256",
                            "name": "strike",
                            "type": "uint256"
                        },
                        {
                            "internalType": "uint256",
                            "name": "volatility",
                            "type": "uint256"
                        },
                        {
                            "internalType": "uint256",
                            "name": "premium",
                            "type": "uint256"
                        },
                        {
                            "internalType": "uint256",
                            "name": "fee",
                            "type": "uint256"
                        }
                    ],
                    "indexed": false,
                    "internalType": "struct OptionLibrary.Option",
                    "name": "_option",
                    "type": "tuple"
                },
                {
                    "indexed": false,
                    "internalType": "uint256",
                    "name": "_payoff",
                    "type": "uint256"
                }
            ],
            "name": "optionExercised",
            "type": "event"
        },
        {
            "inputs": [],
            "name": "ADMIN_ROLE",
            "outputs": [
                {
                    "internalType": "bytes32",
                    "name": "",
                    "type": "bytes32"
                }
            ],
            "stateMutability": "view",
            "type": "function"
        },
        {
            "inputs": [],
            "name": "DEFAULT_ADMIN_ROLE",
            "outputs": [
                {
                    "internalType": "bytes32",
                    "name": "",
                    "type": "bytes32"
                }
            ],
            "stateMutability": "view",
            "type": "function"
        },
        {
            "inputs": [
                {
                    "internalType": "address payable",
                    "name": "_tokenAddress",
                    "type": "address"
                }
            ],
            "name": "addVolToken",
            "outputs": [],
            "stateMutability": "nonpayable",
            "type": "function"
        },
        {
            "inputs": [
                {
                    "internalType": "uint256",
                    "name": "_amount",
                    "type": "uint256"
                },
                {
                    "internalType": "enum OptionLibrary.PayoffType",
                    "name": "_poType",
                    "type": "uint8"
                },
                {
                    "internalType": "enum OptionLibrary.OptionSide",
                    "name": "_side",
                    "type": "uint8"
                }
            ],
            "name": "calcUtilisation",
            "outputs": [
                {
                    "internalType": "uint256",
                    "name": "",
                    "type": "uint256"
                },
                {
                    "internalType": "uint256",
                    "name": "",
                    "type": "uint256"
                }
            ],
            "stateMutability": "view",
            "type": "function"
        },
        {
            "inputs": [],
            "name": "contractAddress",
            "outputs": [
                {
                    "internalType": "address payable",
                    "name": "",
                    "type": "address"
                }
            ],
            "stateMutability": "view",
            "type": "function"
        },
        {
            "inputs": [
                {
                    "internalType": "uint256",
                    "name": "_id",
                    "type": "uint256"
                }
            ],
            "name": "exerciseOption",
            "outputs": [],
            "stateMutability": "nonpayable",
            "type": "function"
        },
        {
            "inputs": [
                {
                    "internalType": "uint256",
                    "name": "_id",
                    "type": "uint256"
                }
            ],
            "name": "getOptionPayoffValue",
            "outputs": [
                {
                    "internalType": "uint256",
                    "name": "",
                    "type": "uint256"
                }
            ],
            "stateMutability": "view",
            "type": "function"
        },
        {
            "inputs": [
                {
                    "internalType": "bytes32",
                    "name": "role",
                    "type": "bytes32"
                }
            ],
            "name": "getRoleAdmin",
            "outputs": [
                {
                    "internalType": "bytes32",
                    "name": "",
                    "type": "bytes32"
                }
            ],
            "stateMutability": "view",
            "type": "function"
        },
        {
            "inputs": [
                {
                    "internalType": "bytes32",
                    "name": "role",
                    "type": "bytes32"
                },
                {
                    "internalType": "address",
                    "name": "account",
                    "type": "address"
                }
            ],
            "name": "grantRole",
            "outputs": [],
            "stateMutability": "nonpayable",
            "type": "function"
        },
        {
            "inputs": [
                {
                    "internalType": "bytes32",
                    "name": "role",
                    "type": "bytes32"
                },
                {
                    "internalType": "address",
                    "name": "account",
                    "type": "address"
                }
            ],
            "name": "hasRole",
            "outputs": [
                {
                    "internalType": "bool",
                    "name": "",
                    "type": "bool"
                }
            ],
            "stateMutability": "view",
            "type": "function"
        },
        {
            "inputs": [],
            "name": "marketMakerAddress",
            "outputs": [
                {
                    "internalType": "address",
                    "name": "",
                    "type": "address"
                }
            ],
            "stateMutability": "view",
            "type": "function"
        },
        {
            "inputs": [],
            "name": "maxUtilisation",
            "outputs": [
                {
                    "internalType": "uint256",
                    "name": "",
                    "type": "uint256"
                }
            ],
            "stateMutability": "view",
            "type": "function"
        },
        {
            "inputs": [],
            "name": "priceDecimals",
            "outputs": [
                {
                    "internalType": "uint256",
                    "name": "",
                    "type": "uint256"
                }
            ],
            "stateMutability": "view",
            "type": "function"
        },
        {
            "inputs": [
                {
                    "internalType": "uint256",
                    "name": "_tenor",
                    "type": "uint256"
                },
                {
                    "internalType": "uint256",
                    "name": "_strike",
                    "type": "uint256"
                },
                {
                    "internalType": "enum OptionLibrary.PayoffType",
                    "name": "_poType",
                    "type": "uint8"
                },
                {
                    "internalType": "uint256",
                    "name": "_amount",
                    "type": "uint256"
                },
                {
                    "internalType": "uint256",
                    "name": "_payInCost",
                    "type": "uint256"
                }
            ],
            "name": "purchaseOption",
            "outputs": [],
            "stateMutability": "nonpayable",
            "type": "function"
        },
        {
            "inputs": [
                {
                    "internalType": "uint256",
                    "name": "_tenor",
                    "type": "uint256"
                },
                {
                    "internalType": "uint256",
                    "name": "_strike",
                    "type": "uint256"
                },
                {
                    "internalType": "enum OptionLibrary.PayoffType",
                    "name": "_poType",
                    "type": "uint8"
                },
                {
                    "internalType": "uint256",
                    "name": "_amount",
                    "type": "uint256"
                },
                {
                    "internalType": "uint256",
                    "name": "_payInCost",
                    "type": "uint256"
                }
            ],
            "name": "purchaseOptionInVol",
            "outputs": [],
            "stateMutability": "nonpayable",
            "type": "function"
        },
        {
            "inputs": [
                {
                    "internalType": "uint256",
                    "name": "_tenor",
                    "type": "uint256"
                },
                {
                    "internalType": "uint256",
                    "name": "_volAmount",
                    "type": "uint256"
                },
                {
                    "internalType": "uint256",
                    "name": "_payInCost",
                    "type": "uint256"
                }
            ],
            "name": "purchaseVolatilityToken",
            "outputs": [],
            "stateMutability": "nonpayable",
            "type": "function"
        },
        {
            "inputs": [
                {
                    "internalType": "uint256",
                    "name": "_tenor",
                    "type": "uint256"
                },
                {
                    "internalType": "uint256",
                    "name": "_strike",
                    "type": "uint256"
                },
                {
                    "internalType": "uint256",
                    "name": "_amount",
                    "type": "uint256"
                },
                {
                    "internalType": "enum OptionLibrary.PayoffType",
                    "name": "_poType",
                    "type": "uint8"
                },
                {
                    "internalType": "enum OptionLibrary.OptionSide",
                    "name": "_side",
                    "type": "uint8"
                }
            ],
            "name": "queryOptionCost",
            "outputs": [
                {
                    "internalType": "uint256",
                    "name": "",
                    "type": "uint256"
                }
            ],
            "stateMutability": "view",
            "type": "function"
        },
        {
            "inputs": [],
            "name": "queryPrice",
            "outputs": [
                {
                    "internalType": "uint256",
                    "name": "",
                    "type": "uint256"
                },
                {
                    "internalType": "uint256",
                    "name": "",
                    "type": "uint256"
                }
            ],
            "stateMutability": "view",
            "type": "function"
        },
        {
            "inputs": [
                {
                    "internalType": "uint256",
                    "name": "_tenor",
                    "type": "uint256"
                }
            ],
            "name": "queryVol",
            "outputs": [
                {
                    "internalType": "uint256",
                    "name": "",
                    "type": "uint256"
                },
                {
                    "internalType": "uint256",
                    "name": "",
                    "type": "uint256"
                }
            ],
            "stateMutability": "view",
            "type": "function"
        },
        {
            "inputs": [
                {
                    "internalType": "uint256",
                    "name": "_tenor",
                    "type": "uint256"
                },
                {
                    "internalType": "uint256",
                    "name": "_volAmount",
                    "type": "uint256"
                }
            ],
            "name": "quoteVolatilityCost",
            "outputs": [
                {
                    "internalType": "uint256",
                    "name": "",
                    "type": "uint256"
                },
                {
                    "internalType": "uint256",
                    "name": "",
                    "type": "uint256"
                }
            ],
            "stateMutability": "view",
            "type": "function"
        },
        {
            "inputs": [
                {
                    "internalType": "bytes32",
                    "name": "role",
                    "type": "bytes32"
                },
                {
                    "internalType": "address",
                    "name": "account",
                    "type": "address"
                }
            ],
            "name": "renounceRole",
            "outputs": [],
            "stateMutability": "nonpayable",
            "type": "function"
        },
        {
            "inputs": [
                {
                    "internalType": "uint256",
                    "name": "_maxUtil",
                    "type": "uint256"
                }
            ],
            "name": "resetMaxUtilisation",
            "outputs": [],
            "stateMutability": "nonpayable",
            "type": "function"
        },
        {
            "inputs": [
                {
                    "internalType": "uint256",
                    "name": "_fee",
                    "type": "uint256"
                },
                {
                    "internalType": "uint256",
                    "name": "_denominator",
                    "type": "uint256"
                }
            ],
            "name": "resetSettlementFees",
            "outputs": [],
            "stateMutability": "nonpayable",
            "type": "function"
        },
        {
            "inputs": [
                {
                    "internalType": "uint256",
                    "name": "_fee",
                    "type": "uint256"
                },
                {
                    "internalType": "uint256",
                    "name": "_denominator",
                    "type": "uint256"
                }
            ],
            "name": "resetVolTransactionFees",
            "outputs": [],
            "stateMutability": "nonpayable",
            "type": "function"
        },
        {
            "inputs": [
                {
                    "internalType": "bytes32",
                    "name": "role",
                    "type": "bytes32"
                },
                {
                    "internalType": "address",
                    "name": "account",
                    "type": "address"
                }
            ],
            "name": "revokeRole",
            "outputs": [],
            "stateMutability": "nonpayable",
            "type": "function"
        },
        {
            "inputs": [],
            "name": "settlementFee",
            "outputs": [
                {
                    "internalType": "uint256",
                    "name": "numerator",
                    "type": "uint256"
                },
                {
                    "internalType": "uint256",
                    "name": "denominator",
                    "type": "uint256"
                }
            ],
            "stateMutability": "view",
            "type": "function"
        },
        {
            "inputs": [
                {
                    "internalType": "bytes4",
                    "name": "interfaceId",
                    "type": "bytes4"
                }
            ],
            "name": "supportsInterface",
            "outputs": [
                {
                    "internalType": "bool",
                    "name": "",
                    "type": "bool"
                }
            ],
            "stateMutability": "view",
            "type": "function"
        },
        {
            "inputs": [],
            "name": "sweepBalance",
            "outputs": [],
            "stateMutability": "nonpayable",
            "type": "function"
        },
        {
            "inputs": [
                {
                    "internalType": "uint256",
                    "name": "",
                    "type": "uint256"
                }
            ],
            "name": "volTokensList",
            "outputs": [
                {
                    "internalType": "contract VolatilityToken",
                    "name": "",
                    "type": "address"
                }
            ],
            "stateMutability": "view",
            "type": "function"
        },
        {
            "inputs": [],
            "name": "volTransactionFees",
            "outputs": [
                {
                    "internalType": "uint256",
                    "name": "numerator",
                    "type": "uint256"
                },
                {
                    "internalType": "uint256",
                    "name": "denominator",
                    "type": "uint256"
                }
            ],
            "stateMutability": "view",
            "type": "function"
        }
    ],
    "bytecode": "620186a06080819052620f424060a0819052600191909155600281905561010060405261138860c081905260e0829052600355600455670de0b6b3a7640000600b553480156200004e57600080fd5b506040516200382b3803806200382b833981016040819052620000719162000310565b6200007e60003362000239565b620000aa7fa49807205ce4d355092ef5a8a18f56e8913cf4a201fbe287825b095693c217753362000239565b600880546001600160a01b038085166001600160a01b031992831617909255600680548684169083168117909155600780549092161790556040805163a15612d160e01b8152905183928392600a9260009285169163a15612d1916004808301926020929190829003018186803b1580156200012557600080fd5b505afa1580156200013a573d6000803e3d6000fd5b505050506040513d601f19601f8201168201806040525081019062000160919062000364565b8152602080820192909252604090810160002080546001600160a01b039485166001600160a01b03199182161790915560058054909116301790556007548151632140ea6760e01b81529151931692632140ea6792600480840193919291829003018186803b158015620001d357600080fd5b505afa158015620001e8573d6000803e3d6000fd5b505050506040513d601f19601f820116820180604052508101906200020e9190620002e9565b600980546001600160a01b0319166001600160a01b0392909216919091179055506200039792505050565b62000245828262000249565b5050565b6000828152602081815260408083206001600160a01b038516845290915290205460ff1662000245576000828152602081815260408083206001600160a01b03851684529091529020805460ff19166001179055620002a53390565b6001600160a01b0316816001600160a01b0316837f2f8788117e7eff1d82e926ec794901d17c78024a50270940304540a733656f0d60405160405180910390a45050565b600060208284031215620002fc57600080fd5b815162000309816200037e565b9392505050565b6000806000606084860312156200032657600080fd5b835162000333816200037e565b602085015190935062000346816200037e565b604085015190925062000359816200037e565b809150509250925092565b6000602082840312156200037757600080fd5b5051919050565b6001600160a01b03811681146200039457600080fd5b50565b61348480620003a76000396000f3fe608060405234801561001057600080fd5b50600436106101da5760003560e01c806393ecc4cb11610104578063bd069b41116100a2578063d547741f11610071578063d547741f14610411578063dc89231714610424578063f52f25261461042d578063f6b4dfb41461044057600080fd5b8063bd069b41146103d0578063c3513f6d146103e3578063cc910588146103eb578063cfc2dc20146103fe57600080fd5b8063a71c1202116100de578063a71c12021461038f578063b0667cf8146103a2578063b3036ae0146103aa578063b7ab8137146103bd57600080fd5b806393ecc4cb14610333578063a217fddf14610346578063a24015fe1461034e57600080fd5b806340d6eaab1161017c57806376df2d081161014b57806376df2d08146102ec5780637d1d7fb8146102ff57806391d148541461030d5780639320d4ce1461032057600080fd5b806340d6eaab1461028e578063598ddc60146102a15780635a4a3a92146102b457806375b238fc146102d757600080fd5b8063233dde95116101b8578063233dde9514610232578063248a9ca3146102455780632f2ff15d1461026857806336568abe1461027b57600080fd5b806301ffc9a7146101df57806305300b2814610207578063127b3a6a1461021d575b600080fd5b6101f26101ed366004612da9565b610453565b60405190151581526020015b60405180910390f35b61020f61048a565b6040519081526020016101fe565b61023061022b366004612f4b565b61050b565b005b610230610240366004612d60565b610d8b565b61020f610253366004612d60565b60009081526020819052604090206001015490565b610230610276366004612d79565b610daa565b610230610289366004612d79565b610dd5565b61020f61029c366004612d60565b610e53565b6102306102af366004612f05565b610ed0565b6003546004546102c2919082565b604080519283526020830191909152016101fe565b61020f60008051602061342f83398151915281565b61020f6102fa366004612fc0565b610f08565b6001546002546102c2919082565b6101f261031b366004612d79565b61100d565b61023061032e366004612f05565b611036565b6102c2610341366004612f05565b61106e565b61020f600081565b61037761035c366004612d60565b600a602052600090815260409020546001600160a01b031681565b6040516001600160a01b0390911681526020016101fe565b61023061039d366004612f94565b611245565b6102c26113d1565b6102306103b8366004612f4b565b611456565b6102306103cb366004612d04565b611b02565b6102c26103de366004612ec3565b611bcd565b61023061225d565b600654610377906001600160a01b031681565b6102c261040c366004612d60565b6123c1565b61023061041f366004612d79565b61244a565b61020f600b5481565b61023061043b366004612d60565b612470565b600554610377906001600160a01b031681565b60006001600160e01b03198216637965db0b60e01b148061048457506301ffc9a760e01b6001600160e01b03198316145b92915050565b6008546040805162a6016560e31b815290516000926001600160a01b0316916305300b28916004808301926020929190829003018186803b1580156104ce57600080fd5b505afa1580156104e2573d6000803e3d6000fd5b505050506040513d601f19601f820116820180604052508101906105069190612eaa565b905090565b600061051b868685876000610f08565b90506000610533826001600001546001800154612916565b6008549091506000906001600160a01b031663af7b2625898989858a610559898b613346565b896040518863ffffffff1660e01b815260040161057c9796959493929190613231565b602060405180830381600087803b15801561059657600080fd5b505af11580156105aa573d6000803e3d6000fd5b505050506040513d601f19601f820116820180604052508101906105ce9190612eaa565b600854604051636abae9b360e01b815260048101839052600160248201529192506001600160a01b031690636abae9b39060440160206040518083038186803b15801561061a57600080fd5b505afa15801561062e573d6000803e3d6000fd5b505050506040513d601f19601f820116820180604052508101906106529190612eaa565b8410156106a65760405162461bcd60e51b815260206004820152601a60248201527f456e7465726564207072656d69756d20696e636f72726563742e00000000000060448201526064015b60405180910390fd5b6000888152600a6020526040908190205460055491516323b872dd60e01b81523360048201526001600160a01b039283166024820152604481018790529116906323b872dd90606401602060405180830381600087803b15801561070957600080fd5b505af115801561071d573d6000803e3d6000fd5b505050506040513d601f19601f820116820180604052508101906107419190612d3e565b61077f5760405162461bcd60e51b815260206004820152600f60248201526e2330b4b632b2103830bcb6b2b73a1760891b604482015260640161069d565b6000888152600a6020908152604091829020548251633dad37ed60e21b815292516001600160a01b039091169263095ea7b392849263f6b4dfb4926004808201939291829003018186803b1580156107d657600080fd5b505afa1580156107ea573d6000803e3d6000fd5b505050506040513d601f19601f8201168201806040525081019061080e9190612d21565b6040516001600160e01b031960e084901b1681526001600160a01b03909116600482015260248101879052604401602060405180830381600087803b15801561085657600080fd5b505af115801561086a573d6000803e3d6000fd5b505050506040513d601f19601f8201168201806040525081019061088e9190612d3e565b506000888152600a60205260409081902054600554600954925163d2f714c560e01b81526001600160a01b039182166004820152602481018890529281166044840152169063d2f714c590606401602060405180830381600087803b1580156108f657600080fd5b505af115801561090a573d6000803e3d6000fd5b505050506040513d601f19601f8201168201806040525081019061092e9190612eaa565b506009546006546008546040516323023d3360e11b8152600481018590526001600160a01b039384169363a9059cbb9381169216906346047a669060240160206040518083038186803b15801561098457600080fd5b505afa158015610998573d6000803e3d6000fd5b505050506040513d601f19601f820116820180604052508101906109bc9190612eaa565b6040516001600160e01b031960e085901b1681526001600160a01b0390921660048301526024820152604401602060405180830381600087803b158015610a0257600080fd5b505af1158015610a16573d6000803e3d6000fd5b505050506040513d601f19601f82011682018060405250810190610a3a9190612d3e565b610a805760405162461bcd60e51b81526020600482015260176024820152762330b4b632b210383932b6b4bab6903830bcb6b2b73a1760491b604482015260640161069d565b6008546040516328e493c160e01b8152600481018390526001600160a01b03909116906328e493c190602401600060405180830381600087803b158015610ac657600080fd5b505af1158015610ada573d6000803e3d6000fd5b50506007546008546040516323023d3360e11b8152600481018690526001600160a01b03928316945063d8d1caeb9350339286926001929116906346047a669060240160206040518083038186803b158015610b3557600080fd5b505afa158015610b49573d6000803e3d6000fd5b505050506040513d601f19601f82011682018060405250810190610b6d9190612eaa565b60085460405163128734c560e01b81526001600160a01b039091169063128734c590610ba0908a90600090600401613214565b60206040518083038186803b158015610bb857600080fd5b505afa158015610bcc573d6000803e3d6000fd5b505050506040513d601f19601f82011682018060405250810190610bf09190612eaa565b60085460405163128734c560e01b81526001600160a01b039091169063128734c590610c23908b90600190600401613214565b60206040518083038186803b158015610c3b57600080fd5b505afa158015610c4f573d6000803e3d6000fd5b505050506040513d601f19601f82011682018060405250810190610c739190612eaa565b6040518763ffffffff1660e01b8152600401610c949695949392919061316a565b600060405180830381600087803b158015610cae57600080fd5b505af1158015610cc2573d6000803e3d6000fd5b5050600854604051630e72f4d360e11b8152600481018590523393507f70f78afb3477f32fbbdae25a5446780cf2f44e041329d5f7688fa98e6524bf4392506001600160a01b0390911690631ce5e9a6906024016101e06040518083038186803b158015610d2f57600080fd5b505afa158015610d43573d6000803e3d6000fd5b505050506040513d601f19601f82011682018060405250810190610d679190612dd3565b866001604051610d79939291906131ed565b60405180910390a25050505050505050565b60008051602061342f833981519152610da481336129cb565b50600b55565b600082815260208190526040902060010154610dc681336129cb565b610dd08383612a2f565b505050565b6001600160a01b0381163314610e455760405162461bcd60e51b815260206004820152602f60248201527f416363657373436f6e74726f6c3a2063616e206f6e6c792072656e6f756e636560448201526e103937b632b9903337b91039b2b63360891b606482015260840161069d565b610e4f8282612ab3565b5050565b6008546040516340d6eaab60e01b8152600481018390526000916001600160a01b0316906340d6eaab9060240160206040518083038186803b158015610e9857600080fd5b505afa158015610eac573d6000803e3d6000fd5b505050506040513d601f19601f820116820180604052508101906104849190612eaa565b60008051602061342f833981519152610ee981336129cb565b5060408051808201909152828152602001819052600391909155600455565b6000806000610f18868686611bcd565b91509150600b54610f298383612b18565b1115610f775760405162461bcd60e51b815260206004820152601960248201527f4d6178207574696c69736174696f6e2062726561636865642e00000000000000604482015260640161069d565b600854604051630d6811db60e41b81526001600160a01b039091169063d6811db090610fb1908b908b908a908c908990899060040161327b565b60206040518083038186803b158015610fc957600080fd5b505afa158015610fdd573d6000803e3d6000fd5b505050506040513d601f19601f820116820180604052508101906110019190612eaa565b98975050505050505050565b6000918252602082815260408084206001600160a01b0393909316845291905290205460ff1690565b60008051602061342f83398151915261104f81336129cb565b5060408051808201909152828152602001819052600191909155600255565b6000806000600860009054906101000a90046001600160a01b03166001600160a01b031663b0667cf86040518163ffffffff1660e01b8152600401604080518083038186803b1580156110c057600080fd5b505afa1580156110d4573d6000803e3d6000fd5b505050506040513d601f19601f820116820180604052508101906110f89190612f27565b5060085460405163067e16e160e51b8152600481018890529192506000916001600160a01b039091169063cfc2dc2090602401604080518083038186803b15801561114257600080fd5b505afa158015611156573d6000803e3d6000fd5b505050506040513d601f19601f8201168201806040525081019061117a9190612f27565b506000878152600a60205260408082205490516362c5c11960e01b815260048101899052602481018690526044810184905292935090916001600160a01b03909116906362c5c1199060640160206040518083038186803b1580156111de57600080fd5b505afa1580156111f2573d6000803e3d6000fd5b505050506040513d601f19601f820116820180604052508101906112169190612eaa565b60045460035491925060009161122c9084613327565b6112369190613305565b91989197509095505050505050565b600080611252858561106e565b909250905061126181836132ed565b83101561126d57600080fd5b6009546000868152600a6020526040908190205490516323b872dd60e01b81523360048201526001600160a01b039182166024820152604481018590529116906323b872dd90606401602060405180830381600087803b1580156112d057600080fd5b505af11580156112e4573d6000803e3d6000fd5b505050506040513d601f19601f820116820180604052508101906113089190612d3e565b506000858152600a6020526040908190205490516340c10f1960e01b8152336004820152602481018690526001600160a01b03909116906340c10f199084906044016000604051808303818588803b15801561136357600080fd5b505af1158015611377573d6000803e3d6000fd5b505060408051338152426020820152908101899052606081018890527f701297180b43ed5c70ad79a3036dca759169e2b5f64d7c4d04f2322af0511c8d935060800191506113c29050565b60405180910390a15050505050565b6008546040805163160ccf9f60e31b8152815160009384936001600160a01b039091169263b0667cf89260048083019392829003018186803b15801561141657600080fd5b505afa15801561142a573d6000803e3d6000fd5b505050506040513d601f19601f8201168201806040525081019061144e9190612f27565b915091509091565b6000611466868685876000610f08565b9050600061147e826001600001546001800154612916565b6008549091506000906001600160a01b031663af7b2625898989858a6114a4898b613346565b896040518863ffffffff1660e01b81526004016114c79796959493929190613231565b602060405180830381600087803b1580156114e157600080fd5b505af11580156114f5573d6000803e3d6000fd5b505050506040513d601f19601f820116820180604052508101906115199190612eaa565b600854604051636abae9b360e01b815260048101839052600060248201529192506001600160a01b031690636abae9b39060440160206040518083038186803b15801561156557600080fd5b505afa158015611579573d6000803e3d6000fd5b505050506040513d601f19601f8201168201806040525081019061159d9190612eaa565b8410156115ec5760405162461bcd60e51b815260206004820152601a60248201527f456e7465726564207072656d69756d20696e636f72726563742e000000000000604482015260640161069d565b6009546005546040516323b872dd60e01b81523360048201526001600160a01b039182166024820152604481018790529116906323b872dd90606401602060405180830381600087803b15801561164257600080fd5b505af1158015611656573d6000803e3d6000fd5b505050506040513d601f19601f8201168201806040525081019061167a9190612d3e565b6116b85760405162461bcd60e51b815260206004820152600f60248201526e2330b4b632b2103830bcb6b2b73a1760891b604482015260640161069d565b6009546006546008546040516323023d3360e11b8152600481018590526001600160a01b039384169363a9059cbb9381169216906346047a669060240160206040518083038186803b15801561170d57600080fd5b505afa158015611721573d6000803e3d6000fd5b505050506040513d601f19601f820116820180604052508101906117459190612eaa565b6040516001600160e01b031960e085901b1681526001600160a01b0390921660048301526024820152604401602060405180830381600087803b15801561178b57600080fd5b505af115801561179f573d6000803e3d6000fd5b505050506040513d601f19601f820116820180604052508101906117c39190612d3e565b6118095760405162461bcd60e51b81526020600482015260176024820152762330b4b632b210383932b6b4bab6903830bcb6b2b73a1760491b604482015260640161069d565b6008546040516328e493c160e01b8152600481018390526001600160a01b03909116906328e493c190602401600060405180830381600087803b15801561184f57600080fd5b505af1158015611863573d6000803e3d6000fd5b50506007546008546040516323023d3360e11b8152600481018690526001600160a01b03928316945063d8d1caeb9350339286926001929116906346047a669060240160206040518083038186803b1580156118be57600080fd5b505afa1580156118d2573d6000803e3d6000fd5b505050506040513d601f19601f820116820180604052508101906118f69190612eaa565b60085460405163128734c560e01b81526001600160a01b039091169063128734c590611929908a90600090600401613214565b60206040518083038186803b15801561194157600080fd5b505afa158015611955573d6000803e3d6000fd5b505050506040513d601f19601f820116820180604052508101906119799190612eaa565b60085460405163128734c560e01b81526001600160a01b039091169063128734c5906119ac908b90600190600401613214565b60206040518083038186803b1580156119c457600080fd5b505afa1580156119d8573d6000803e3d6000fd5b505050506040513d601f19601f820116820180604052508101906119fc9190612eaa565b6040518763ffffffff1660e01b8152600401611a1d9695949392919061316a565b600060405180830381600087803b158015611a3757600080fd5b505af1158015611a4b573d6000803e3d6000fd5b5050600854604051630e72f4d360e11b8152600481018590523393507f70f78afb3477f32fbbdae25a5446780cf2f44e041329d5f7688fa98e6524bf4392506001600160a01b0390911690631ce5e9a6906024016101e06040518083038186803b158015611ab857600080fd5b505afa158015611acc573d6000803e3d6000fd5b505050506040513d601f19601f82011682018060405250810190611af09190612dd3565b866000604051610d79939291906131ed565b60008051602061342f833981519152611b1b81336129cb565b600082905080600a6000836001600160a01b031663a15612d16040518163ffffffff1660e01b815260040160206040518083038186803b158015611b5e57600080fd5b505afa158015611b72573d6000803e3d6000fd5b505050506040513d601f19601f82011682018060405250810190611b969190612eaa565b815260200190815260200160002060006101000a8154816001600160a01b0302191690836001600160a01b03160217905550505050565b6007546040516331a23c8160e11b81526000600482018190526024820181905291829182916001600160a01b03169063634479029060440160206040518083038186803b158015611c1d57600080fd5b505afa158015611c31573d6000803e3d6000fd5b505050506040513d601f19601f82011682018060405250810190611c559190612eaa565b9050600080866001811115611c6c57611c6c6133ba565b14611cfc57600760009054906101000a90046001600160a01b03166001600160a01b03166336da48876040518163ffffffff1660e01b815260040160206040518083038186803b158015611cbf57600080fd5b505afa158015611cd3573d6000803e3d6000fd5b505050506040513d601f19601f82011682018060405250810190611cf79190612eaa565b611eaf565b6000856001811115611d1057611d106133ba565b14611e2957600754604080516336da488760e01b81529051611d99926001600160a01b0316916336da4887916004808301926020929190829003018186803b158015611d5b57600080fd5b505afa158015611d6f573d6000803e3d6000fd5b505050506040513d601f19601f82011682018060405250810190611d939190612eaa565b88612b2f565b600760009054906101000a90046001600160a01b03166001600160a01b03166336da48876040518163ffffffff1660e01b815260040160206040518083038186803b158015611de757600080fd5b505afa158015611dfb573d6000803e3d6000fd5b505050506040513d601f19601f82011682018060405250810190611e1f9190612eaa565b611cf79190613346565b600754604080516336da488760e01b8152905189926001600160a01b0316916336da4887916004808301926020929190829003018186803b158015611e6d57600080fd5b505afa158015611e81573d6000803e3d6000fd5b505050506040513d601f19601f82011682018060405250810190611ea59190612eaa565b611eaf91906132ed565b905060006001876001811115611ec757611ec76133ba565b14611f5757600760009054906101000a90046001600160a01b03166001600160a01b031663f8daf7d86040518163ffffffff1660e01b815260040160206040518083038186803b158015611f1a57600080fd5b505afa158015611f2e573d6000803e3d6000fd5b505050506040513d601f19601f82011682018060405250810190611f529190612eaa565b61210a565b6000866001811115611f6b57611f6b6133ba565b146120845760075460408051631f1b5efb60e31b81529051611ff4926001600160a01b03169163f8daf7d8916004808301926020929190829003018186803b158015611fb657600080fd5b505afa158015611fca573d6000803e3d6000fd5b505050506040513d601f19601f82011682018060405250810190611fee9190612eaa565b89612b2f565b600760009054906101000a90046001600160a01b03166001600160a01b031663f8daf7d86040518163ffffffff1660e01b815260040160206040518083038186803b15801561204257600080fd5b505afa158015612056573d6000803e3d6000fd5b505050506040513d601f19601f8201168201806040525081019061207a9190612eaa565b611f529190613346565b60075460408051631f1b5efb60e31b815290518a926001600160a01b03169163f8daf7d8916004808301926020929190829003018186803b1580156120c857600080fd5b505afa1580156120dc573d6000803e3d6000fd5b505050506040513d601f19601f820116820180604052508101906121009190612eaa565b61210a91906132ed565b9050612232612223600760009054906101000a90046001600160a01b03166001600160a01b03166336da48876040518163ffffffff1660e01b815260040160206040518083038186803b15801561216057600080fd5b505afa158015612174573d6000803e3d6000fd5b505050506040513d601f19601f820116820180604052508101906121989190612eaa565b600760009054906101000a90046001600160a01b03166001600160a01b031663f8daf7d86040518163ffffffff1660e01b815260040160206040518083038186803b1580156121e657600080fd5b505afa1580156121fa573d6000803e3d6000fd5b505050506040513d601f19601f8201168201806040525081019061221e9190612eaa565b612b18565b670de0b6b3a764000085612916565b61224e61223f8484612b18565b670de0b6b3a764000086612916565b94509450505050935093915050565b60008051602061342f83398151915261227681336129cb565b6009546005546040516370a0823160e01b81526001600160a01b03918216600482015291169063a9059cbb90339083906370a082319060240160206040518083038186803b1580156122c757600080fd5b505afa1580156122db573d6000803e3d6000fd5b505050506040513d601f19601f820116820180604052508101906122ff9190612eaa565b6040516001600160e01b031960e085901b1681526001600160a01b0390921660048301526024820152604401602060405180830381600087803b15801561234557600080fd5b505af1158015612359573d6000803e3d6000fd5b505050506040513d601f19601f8201168201806040525081019061237d9190612d3e565b6123be5760405162461bcd60e51b81526020600482015260126024820152712bb4ba34323930bbb0b6103330b4b632b21760711b604482015260640161069d565b50565b60085460405163067e16e160e51b81526004810183905260009182916001600160a01b039091169063cfc2dc2090602401604080518083038186803b15801561240957600080fd5b505afa15801561241d573d6000803e3d6000fd5b505050506040513d601f19601f820116820180604052508101906124419190612f27565b91509150915091565b60008281526020819052604090206001015461246681336129cb565b610dd08383612ab3565b600854604051632955bfbb60e21b8152600481018390523360248201526001600160a01b039091169063a556feec9060440160006040518083038186803b1580156124ba57600080fd5b505afa1580156124ce573d6000803e3d6000fd5b50506008546040516340d6eaab60e01b815260048101859052600093506001600160a01b0390911691506340d6eaab9060240160206040518083038186803b15801561251957600080fd5b505afa15801561252d573d6000803e3d6000fd5b505050506040513d601f19601f820116820180604052508101906125519190612eaa565b600854604051636c1f7b9360e01b8152600481018590529192506001600160a01b031690636c1f7b9390602401600060405180830381600087803b15801561259857600080fd5b505af11580156125ac573d6000803e3d6000fd5b505060095460405163a9059cbb60e01b8152336004820152602481018590526001600160a01b03909116925063a9059cbb9150604401602060405180830381600087803b1580156125fc57600080fd5b505af1158015612610573d6000803e3d6000fd5b505050506040513d601f19601f820116820180604052508101906126349190612d3e565b6126735760405162461bcd60e51b815260206004820152601060248201526f2a3930b739b332b9103330b4b632b21760811b604482015260640161069d565b6007546008546040516323023d3360e11b8152600481018590526001600160a01b039283169263d8d1caeb923392879260009216906346047a669060240160206040518083038186803b1580156126c957600080fd5b505afa1580156126dd573d6000803e3d6000fd5b505050506040513d601f19601f820116820180604052508101906127019190612eaa565b60085460405163128734c560e01b81526001600160a01b039091169063128734c590612734908b90600090600401613214565b60206040518083038186803b15801561274c57600080fd5b505afa158015612760573d6000803e3d6000fd5b505050506040513d601f19601f820116820180604052508101906127849190612eaa565b60085460405163128734c560e01b81526001600160a01b039091169063128734c5906127b7908c90600190600401613214565b60206040518083038186803b1580156127cf57600080fd5b505afa1580156127e3573d6000803e3d6000fd5b505050506040513d601f19601f820116820180604052508101906128079190612eaa565b6040518763ffffffff1660e01b81526004016128289695949392919061316a565b600060405180830381600087803b15801561284257600080fd5b505af1158015612856573d6000803e3d6000fd5b5050600854604051630e72f4d360e11b8152600481018690523393507f41c2c00510329a39f538637baf1a4cec0c212ffecb304f9a04517c285c981b0892506001600160a01b0390911690631ce5e9a6906024016101e06040518083038186803b1580156128c357600080fd5b505afa1580156128d7573d6000803e3d6000fd5b505050506040513d601f19601f820116820180604052508101906128fb9190612dd3565b8360405161290a9291906131d0565b60405180910390a25050565b600080806000198587098587029250828110838203039150508060001415612950576000841161294557600080fd5b5082900490506129c4565b80841161295c57600080fd5b600084868809851960019081018716968790049682860381900495909211909303600082900391909104909201919091029190911760038402600290811880860282030280860282030280860282030280860282030280860282030280860290910302029150505b9392505050565b6129d5828261100d565b610e4f576129ed816001600160a01b03166014612b3e565b6129f8836020612b3e565b604051602001612a099291906130f5565b60408051601f198184030181529082905262461bcd60e51b825261069d9160040161319d565b612a39828261100d565b610e4f576000828152602081815260408083206001600160a01b03851684529091529020805460ff19166001179055612a6f3390565b6001600160a01b0316816001600160a01b0316837f2f8788117e7eff1d82e926ec794901d17c78024a50270940304540a733656f0d60405160405180910390a45050565b612abd828261100d565b15610e4f576000828152602081815260408083206001600160a01b0385168085529252808320805460ff1916905551339285917ff6391f5c32d9c69d2a47ea670b442974b53935d1edc7fd64eb21e047a839171b9190a45050565b600081831015612b2857816129c4565b5090919050565b6000818310612b2857816129c4565b60606000612b4d836002613327565b612b589060026132ed565b67ffffffffffffffff811115612b7057612b706133e6565b6040519080825280601f01601f191660200182016040528015612b9a576020820181803683370190505b509050600360fc1b81600081518110612bb557612bb56133d0565b60200101906001600160f81b031916908160001a905350600f60fb1b81600181518110612be457612be46133d0565b60200101906001600160f81b031916908160001a9053506000612c08846002613327565b612c139060016132ed565b90505b6001811115612c8b576f181899199a1a9b1b9c1cb0b131b232b360811b85600f1660108110612c4757612c476133d0565b1a60f81b828281518110612c5d57612c5d6133d0565b60200101906001600160f81b031916908160001a90535060049490941c93612c848161338d565b9050612c16565b5083156129c45760405162461bcd60e51b815260206004820181905260248201527f537472696e67733a20686578206c656e67746820696e73756666696369656e74604482015260640161069d565b8051612ce58161340c565b919050565b8051612ce581613421565b805160048110612ce557600080fd5b600060208284031215612d1657600080fd5b81356129c48161340c565b600060208284031215612d3357600080fd5b81516129c48161340c565b600060208284031215612d5057600080fd5b815180151581146129c457600080fd5b600060208284031215612d7257600080fd5b5035919050565b60008060408385031215612d8c57600080fd5b823591506020830135612d9e8161340c565b809150509250929050565b600060208284031215612dbb57600080fd5b81356001600160e01b0319811681146129c457600080fd5b60006101e08284031215612de657600080fd5b612dee6132b5565b612df783612cea565b8152612e0560208401612cea565b6020820152612e1660408401612cf5565b6040820152612e2760608401612cda565b60608201526080838101519082015260a0808401519082015260c0808401519082015260e08084015190820152610100808401519082015261012080840151908201526101408084015190820152610160808401519082015261018080840151908201526101a080840151908201526101c0928301519281019290925250919050565b600060208284031215612ebc57600080fd5b5051919050565b600080600060608486031215612ed857600080fd5b833592506020840135612eea81613421565b91506040840135612efa81613421565b809150509250925092565b60008060408385031215612f1857600080fd5b50508035926020909101359150565b60008060408385031215612f3a57600080fd5b505080516020909101519092909150565b600080600080600060a08688031215612f6357600080fd5b85359450602086013593506040860135612f7c81613421565b94979396509394606081013594506080013592915050565b600080600060608486031215612fa957600080fd5b505081359360208301359350604090920135919050565b600080600080600060a08688031215612fd857600080fd5b8535945060208601359350604086013592506060860135612ff881613421565b9150608086013561300881613421565b809150509295509295909350565b61301f816133fc565b9052565b6004811061301f5761301f6133ba565b61303e828251613016565b60208101516130506020840182613016565b5060408101516130636040840182613023565b50606081015161307e60608401826001600160a01b03169052565b506080818101519083015260a0808201519083015260c0808201519083015260e08082015190830152610100808201519083015261012080820151908301526101408082015190830152610160808201519083015261018080820151908301526101a080820151908301526101c090810151910152565b7f416363657373436f6e74726f6c3a206163636f756e742000000000000000000081526000835161312d81601785016020880161335d565b7001034b99036b4b9b9b4b733903937b6329607d1b601791840191820152835161315e81602884016020880161335d565b01602801949350505050565b6001600160a01b03969096168652602086019490945291151560408501526060840152608083015260a082015260c00190565b60208152600082518060208401526131bc81604085016020870161335d565b601f01601f19169190910160400192915050565b61020081016131df8285613033565b826101e08301529392505050565b61022081016131fc8286613033565b836101e0830152821515610200830152949350505050565b82815260408101613224836133fc565b8260208301529392505050565b8781526020810187905260e08101613248876133fc565b866040830152613257866133fc565b8560608301528460808301528360a08301528260c083015298975050505050505050565b8681526020810186905260c08101613292866133fc565b8560408301528460608301528360808301528260a0830152979650505050505050565b6040516101e0810167ffffffffffffffff811182821017156132e757634e487b7160e01b600052604160045260246000fd5b60405290565b60008219821115613300576133006133a4565b500190565b60008261332257634e487b7160e01b600052601260045260246000fd5b500490565b6000816000190483118215151615613341576133416133a4565b500290565b600082821015613358576133586133a4565b500390565b60005b83811015613378578181015183820152602001613360565b83811115613387576000848401525b50505050565b60008161339c5761339c6133a4565b506000190190565b634e487b7160e01b600052601160045260246000fd5b634e487b7160e01b600052602160045260246000fd5b634e487b7160e01b600052603260045260246000fd5b634e487b7160e01b600052604160045260246000fd5b600281106123be576123be6133ba565b6001600160a01b03811681146123be57600080fd5b600281106123be57600080fdfea49807205ce4d355092ef5a8a18f56e8913cf4a201fbe287825b095693c21775a26469706673582212207ba089ae21de04d611030394c6fe04ef385d27d55c84f866003e55605dd9c47764736f6c63430008070033",
    "sourcePath": "/Users/mac/Documents/GitHub/moret/contracts/Exchange.sol",
    "compiler": {
        "name": "solc",
        "version": "0.8.7+commit.e28d00a7"
    },
    "functionHashes": {
        "ADMIN_ROLE()": "75b238fc",
        "DEFAULT_ADMIN_ROLE()": "a217fddf",
        "addVolToken(address)": "b7ab8137",
        "calcUtilisation(uint256,uint8,uint8)": "bd069b41",
        "contractAddress()": "f6b4dfb4",
        "exerciseOption(uint256)": "f52f2526",
        "getOptionPayoffValue(uint256)": "40d6eaab",
        "getRoleAdmin(bytes32)": "248a9ca3",
        "grantRole(bytes32,address)": "2f2ff15d",
        "hasRole(bytes32,address)": "91d14854",
        "marketMakerAddress()": "cc910588",
        "maxUtilisation()": "dc892317",
        "priceDecimals()": "05300b28",
        "purchaseOption(uint256,uint256,uint8,uint256,uint256)": "b3036ae0",
        "purchaseOptionInVol(uint256,uint256,uint8,uint256,uint256)": "127b3a6a",
        "purchaseVolatilityToken(uint256,uint256,uint256)": "a71c1202",
        "queryOptionCost(uint256,uint256,uint256,uint8,uint8)": "76df2d08",
        "queryPrice()": "b0667cf8",
        "queryVol(uint256)": "cfc2dc20",
        "quoteVolatilityCost(uint256,uint256)": "93ecc4cb",
        "renounceRole(bytes32,address)": "36568abe",
        "resetMaxUtilisation(uint256)": "233dde95",
        "resetSettlementFees(uint256,uint256)": "9320d4ce",
        "resetVolTransactionFees(uint256,uint256)": "598ddc60",
        "revokeRole(bytes32,address)": "d547741f",
        "settlementFee()": "7d1d7fb8",
        "supportsInterface(bytes4)": "01ffc9a7",
        "sweepBalance()": "c3513f6d",
        "volTokensList(uint256)": "a24015fe",
        "volTransactionFees()": "5a4a3a92"
    },
    "gasEstimates": {
        "creation": {
            "codeDepositCost": "2688800",
            "executionCost": "infinite",
            "totalCost": "infinite"
        },
        "external": {
            "ADMIN_ROLE()": "infinite",
            "DEFAULT_ADMIN_ROLE()": "263",
            "addVolToken(address)": "infinite",
            "calcUtilisation(uint256,uint8,uint8)": "infinite",
            "contractAddress()": "2447",
            "exerciseOption(uint256)": "infinite",
            "getOptionPayoffValue(uint256)": "infinite",
            "getRoleAdmin(bytes32)": "2515",
            "grantRole(bytes32,address)": "infinite",
            "hasRole(bytes32,address)": "2739",
            "marketMakerAddress()": "2426",
            "maxUtilisation()": "2361",
            "priceDecimals()": "infinite",
            "purchaseOption(uint256,uint256,uint8,uint256,uint256)": "infinite",
            "purchaseOptionInVol(uint256,uint256,uint8,uint256,uint256)": "infinite",
            "purchaseVolatilityToken(uint256,uint256,uint256)": "infinite",
            "queryOptionCost(uint256,uint256,uint256,uint8,uint8)": "infinite",
            "queryPrice()": "infinite",
            "queryVol(uint256)": "infinite",
            "quoteVolatilityCost(uint256,uint256)": "infinite",
            "renounceRole(bytes32,address)": "29106",
            "resetMaxUtilisation(uint256)": "infinite",
            "resetSettlementFees(uint256,uint256)": "infinite",
            "resetVolTransactionFees(uint256,uint256)": "infinite",
            "revokeRole(bytes32,address)": "infinite",
            "settlementFee()": "4495",
            "supportsInterface(bytes4)": "473",
            "sweepBalance()": "infinite",
            "volTokensList(uint256)": "2567",
            "volTransactionFees()": "4518"
        },
        "internal": {
            "expireOption(uint256)": "infinite"
        }
    }
}