{
    "contractName": "Exchange",
    "abi": [
        {
            "inputs": [
                {
                    "internalType": "address",
                    "name": "_marketMakerAddress",
                    "type": "address"
                },
                {
                    "internalType": "address",
                    "name": "_optionAddress",
                    "type": "address"
                }
            ],
            "stateMutability": "nonpayable",
            "type": "constructor"
        },
        {
            "anonymous": false,
            "inputs": [
                {
                    "indexed": true,
                    "internalType": "bytes32",
                    "name": "role",
                    "type": "bytes32"
                },
                {
                    "indexed": true,
                    "internalType": "bytes32",
                    "name": "previousAdminRole",
                    "type": "bytes32"
                },
                {
                    "indexed": true,
                    "internalType": "bytes32",
                    "name": "newAdminRole",
                    "type": "bytes32"
                }
            ],
            "name": "RoleAdminChanged",
            "type": "event"
        },
        {
            "anonymous": false,
            "inputs": [
                {
                    "indexed": true,
                    "internalType": "bytes32",
                    "name": "role",
                    "type": "bytes32"
                },
                {
                    "indexed": true,
                    "internalType": "address",
                    "name": "account",
                    "type": "address"
                },
                {
                    "indexed": true,
                    "internalType": "address",
                    "name": "sender",
                    "type": "address"
                }
            ],
            "name": "RoleGranted",
            "type": "event"
        },
        {
            "anonymous": false,
            "inputs": [
                {
                    "indexed": true,
                    "internalType": "bytes32",
                    "name": "role",
                    "type": "bytes32"
                },
                {
                    "indexed": true,
                    "internalType": "address",
                    "name": "account",
                    "type": "address"
                },
                {
                    "indexed": true,
                    "internalType": "address",
                    "name": "sender",
                    "type": "address"
                }
            ],
            "name": "RoleRevoked",
            "type": "event"
        },
        {
            "anonymous": false,
            "inputs": [
                {
                    "indexed": false,
                    "internalType": "address",
                    "name": "_recipient",
                    "type": "address"
                },
                {
                    "indexed": false,
                    "internalType": "uint256",
                    "name": "_mintMPTokenAmount",
                    "type": "uint256"
                },
                {
                    "indexed": false,
                    "internalType": "uint256",
                    "name": "_addedValue",
                    "type": "uint256"
                }
            ],
            "name": "capitalAdded",
            "type": "event"
        },
        {
            "anonymous": false,
            "inputs": [
                {
                    "indexed": false,
                    "internalType": "address",
                    "name": "_recipient",
                    "type": "address"
                },
                {
                    "indexed": false,
                    "internalType": "uint256",
                    "name": "_burnMPTokenAmount",
                    "type": "uint256"
                },
                {
                    "indexed": false,
                    "internalType": "uint256",
                    "name": "_withdrawValue",
                    "type": "uint256"
                }
            ],
            "name": "capitalWithdrawn",
            "type": "event"
        },
        {
            "anonymous": false,
            "inputs": [
                {
                    "indexed": true,
                    "internalType": "address",
                    "name": "_purchaser",
                    "type": "address"
                },
                {
                    "components": [
                        {
                            "internalType": "enum OptionLibrary.PayoffType",
                            "name": "poType",
                            "type": "uint8"
                        },
                        {
                            "internalType": "enum OptionLibrary.OptionSide",
                            "name": "side",
                            "type": "uint8"
                        },
                        {
                            "internalType": "enum OptionLibrary.OptionStatus",
                            "name": "status",
                            "type": "uint8"
                        },
                        {
                            "internalType": "address",
                            "name": "holder",
                            "type": "address"
                        },
                        {
                            "internalType": "uint256",
                            "name": "id",
                            "type": "uint256"
                        },
                        {
                            "internalType": "uint256",
                            "name": "createTime",
                            "type": "uint256"
                        },
                        {
                            "internalType": "uint256",
                            "name": "effectiveTime",
                            "type": "uint256"
                        },
                        {
                            "internalType": "uint256",
                            "name": "tenor",
                            "type": "uint256"
                        },
                        {
                            "internalType": "uint256",
                            "name": "maturity",
                            "type": "uint256"
                        },
                        {
                            "internalType": "uint256",
                            "name": "exerciseTime",
                            "type": "uint256"
                        },
                        {
                            "internalType": "uint256",
                            "name": "amount",
                            "type": "uint256"
                        },
                        {
                            "internalType": "uint256",
                            "name": "spot",
                            "type": "uint256"
                        },
                        {
                            "internalType": "uint256",
                            "name": "strike",
                            "type": "uint256"
                        },
                        {
                            "internalType": "uint256",
                            "name": "volatility",
                            "type": "uint256"
                        },
                        {
                            "internalType": "uint256",
                            "name": "premium",
                            "type": "uint256"
                        },
                        {
                            "internalType": "uint256",
                            "name": "cost",
                            "type": "uint256"
                        }
                    ],
                    "indexed": false,
                    "internalType": "struct OptionLibrary.Option",
                    "name": "_option",
                    "type": "tuple"
                },
                {
                    "indexed": false,
                    "internalType": "uint256",
                    "name": "_cost",
                    "type": "uint256"
                },
                {
                    "indexed": false,
                    "internalType": "bool",
                    "name": "_inVol",
                    "type": "bool"
                }
            ],
            "name": "newOptionBought",
            "type": "event"
        },
        {
            "anonymous": false,
            "inputs": [
                {
                    "indexed": false,
                    "internalType": "address",
                    "name": "_purchaser",
                    "type": "address"
                },
                {
                    "indexed": false,
                    "internalType": "uint256",
                    "name": "_time",
                    "type": "uint256"
                },
                {
                    "indexed": false,
                    "internalType": "uint256",
                    "name": "_tenor",
                    "type": "uint256"
                },
                {
                    "indexed": false,
                    "internalType": "uint256",
                    "name": "_amount",
                    "type": "uint256"
                }
            ],
            "name": "newVolatilityTokenBought",
            "type": "event"
        },
        {
            "anonymous": false,
            "inputs": [
                {
                    "indexed": true,
                    "internalType": "address",
                    "name": "_purchaser",
                    "type": "address"
                },
                {
                    "components": [
                        {
                            "internalType": "enum OptionLibrary.PayoffType",
                            "name": "poType",
                            "type": "uint8"
                        },
                        {
                            "internalType": "enum OptionLibrary.OptionSide",
                            "name": "side",
                            "type": "uint8"
                        },
                        {
                            "internalType": "enum OptionLibrary.OptionStatus",
                            "name": "status",
                            "type": "uint8"
                        },
                        {
                            "internalType": "address",
                            "name": "holder",
                            "type": "address"
                        },
                        {
                            "internalType": "uint256",
                            "name": "id",
                            "type": "uint256"
                        },
                        {
                            "internalType": "uint256",
                            "name": "createTime",
                            "type": "uint256"
                        },
                        {
                            "internalType": "uint256",
                            "name": "effectiveTime",
                            "type": "uint256"
                        },
                        {
                            "internalType": "uint256",
                            "name": "tenor",
                            "type": "uint256"
                        },
                        {
                            "internalType": "uint256",
                            "name": "maturity",
                            "type": "uint256"
                        },
                        {
                            "internalType": "uint256",
                            "name": "exerciseTime",
                            "type": "uint256"
                        },
                        {
                            "internalType": "uint256",
                            "name": "amount",
                            "type": "uint256"
                        },
                        {
                            "internalType": "uint256",
                            "name": "spot",
                            "type": "uint256"
                        },
                        {
                            "internalType": "uint256",
                            "name": "strike",
                            "type": "uint256"
                        },
                        {
                            "internalType": "uint256",
                            "name": "volatility",
                            "type": "uint256"
                        },
                        {
                            "internalType": "uint256",
                            "name": "premium",
                            "type": "uint256"
                        },
                        {
                            "internalType": "uint256",
                            "name": "cost",
                            "type": "uint256"
                        }
                    ],
                    "indexed": false,
                    "internalType": "struct OptionLibrary.Option",
                    "name": "_option",
                    "type": "tuple"
                },
                {
                    "indexed": false,
                    "internalType": "uint256",
                    "name": "_payoff",
                    "type": "uint256"
                }
            ],
            "name": "optionExercised",
            "type": "event"
        },
        {
            "inputs": [],
            "name": "DEFAULT_ADMIN_ROLE",
            "outputs": [
                {
                    "internalType": "bytes32",
                    "name": "",
                    "type": "bytes32"
                }
            ],
            "stateMutability": "view",
            "type": "function"
        },
        {
            "inputs": [],
            "name": "MINER_ROLE",
            "outputs": [
                {
                    "internalType": "bytes32",
                    "name": "",
                    "type": "bytes32"
                }
            ],
            "stateMutability": "view",
            "type": "function"
        },
        {
            "inputs": [
                {
                    "internalType": "bytes32",
                    "name": "role",
                    "type": "bytes32"
                }
            ],
            "name": "getRoleAdmin",
            "outputs": [
                {
                    "internalType": "bytes32",
                    "name": "",
                    "type": "bytes32"
                }
            ],
            "stateMutability": "view",
            "type": "function"
        },
        {
            "inputs": [
                {
                    "internalType": "bytes32",
                    "name": "role",
                    "type": "bytes32"
                },
                {
                    "internalType": "address",
                    "name": "account",
                    "type": "address"
                }
            ],
            "name": "grantRole",
            "outputs": [],
            "stateMutability": "nonpayable",
            "type": "function"
        },
        {
            "inputs": [
                {
                    "internalType": "bytes32",
                    "name": "role",
                    "type": "bytes32"
                },
                {
                    "internalType": "address",
                    "name": "account",
                    "type": "address"
                }
            ],
            "name": "hasRole",
            "outputs": [
                {
                    "internalType": "bool",
                    "name": "",
                    "type": "bool"
                }
            ],
            "stateMutability": "view",
            "type": "function"
        },
        {
            "inputs": [
                {
                    "internalType": "uint256",
                    "name": "_tenor",
                    "type": "uint256"
                },
                {
                    "internalType": "uint256",
                    "name": "_strike",
                    "type": "uint256"
                },
                {
                    "internalType": "uint256",
                    "name": "_amount",
                    "type": "uint256"
                },
                {
                    "internalType": "enum OptionLibrary.PayoffType",
                    "name": "_poType",
                    "type": "uint8"
                },
                {
                    "internalType": "enum OptionLibrary.OptionSide",
                    "name": "_side",
                    "type": "uint8"
                },
                {
                    "internalType": "uint256",
                    "name": "_payInCost",
                    "type": "uint256"
                },
                {
                    "internalType": "uint256",
                    "name": "_price",
                    "type": "uint256"
                },
                {
                    "internalType": "uint256",
                    "name": "_volatility",
                    "type": "uint256"
                }
            ],
            "name": "purchaseOption",
            "outputs": [],
            "stateMutability": "nonpayable",
            "type": "function"
        },
        {
            "inputs": [
                {
                    "internalType": "uint256",
                    "name": "_tenor",
                    "type": "uint256"
                },
                {
                    "internalType": "uint256",
                    "name": "_strike",
                    "type": "uint256"
                },
                {
                    "internalType": "uint256",
                    "name": "_amount",
                    "type": "uint256"
                },
                {
                    "internalType": "enum OptionLibrary.PayoffType",
                    "name": "_poType",
                    "type": "uint8"
                },
                {
                    "internalType": "enum OptionLibrary.OptionSide",
                    "name": "_side",
                    "type": "uint8"
                }
            ],
            "name": "queryOptionCost",
            "outputs": [
                {
                    "internalType": "uint256",
                    "name": "",
                    "type": "uint256"
                },
                {
                    "internalType": "uint256",
                    "name": "",
                    "type": "uint256"
                }
            ],
            "stateMutability": "view",
            "type": "function"
        },
        {
            "inputs": [
                {
                    "internalType": "uint256",
                    "name": "_tenor",
                    "type": "uint256"
                },
                {
                    "internalType": "uint256",
                    "name": "_strike",
                    "type": "uint256"
                },
                {
                    "internalType": "uint256",
                    "name": "_amount",
                    "type": "uint256"
                },
                {
                    "internalType": "enum OptionLibrary.OptionSide",
                    "name": "_side",
                    "type": "uint8"
                }
            ],
            "name": "queryOptionVolatility",
            "outputs": [
                {
                    "internalType": "uint256",
                    "name": "_vol",
                    "type": "uint256"
                }
            ],
            "stateMutability": "view",
            "type": "function"
        },
        {
            "inputs": [],
            "name": "queryPrice",
            "outputs": [
                {
                    "internalType": "uint256",
                    "name": "",
                    "type": "uint256"
                },
                {
                    "internalType": "uint256",
                    "name": "",
                    "type": "uint256"
                },
                {
                    "internalType": "uint256",
                    "name": "",
                    "type": "uint256"
                }
            ],
            "stateMutability": "view",
            "type": "function"
        },
        {
            "inputs": [
                {
                    "internalType": "uint256",
                    "name": "_tenor",
                    "type": "uint256"
                }
            ],
            "name": "queryVol",
            "outputs": [
                {
                    "internalType": "uint256",
                    "name": "",
                    "type": "uint256"
                }
            ],
            "stateMutability": "view",
            "type": "function"
        },
        {
            "inputs": [
                {
                    "internalType": "bytes32",
                    "name": "role",
                    "type": "bytes32"
                },
                {
                    "internalType": "address",
                    "name": "account",
                    "type": "address"
                }
            ],
            "name": "renounceRole",
            "outputs": [],
            "stateMutability": "nonpayable",
            "type": "function"
        },
        {
            "inputs": [
                {
                    "internalType": "bytes32",
                    "name": "role",
                    "type": "bytes32"
                },
                {
                    "internalType": "address",
                    "name": "account",
                    "type": "address"
                }
            ],
            "name": "revokeRole",
            "outputs": [],
            "stateMutability": "nonpayable",
            "type": "function"
        },
        {
            "inputs": [
                {
                    "internalType": "bytes4",
                    "name": "interfaceId",
                    "type": "bytes4"
                }
            ],
            "name": "supportsInterface",
            "outputs": [
                {
                    "internalType": "bool",
                    "name": "",
                    "type": "bool"
                }
            ],
            "stateMutability": "view",
            "type": "function"
        }
    ],
    "bytecode": "60806040523480156200001157600080fd5b5060405162001b6b38038062001b6b83398101604081905262000034916200016f565b62000041600033620000a2565b6200006d7fa952726ef2588ad078edf35b066f7c7406e207cb0003bbaba8cb53eba9553e7233620000a2565b600280546001600160a01b039283166001600160a01b03199182161790915560018054939092169216919091179055620001a7565b620000ae8282620000b2565b5050565b6000828152602081815260408083206001600160a01b038516845290915290205460ff16620000ae576000828152602081815260408083206001600160a01b03851684529091529020805460ff191660011790556200010e3390565b6001600160a01b0316816001600160a01b0316837f2f8788117e7eff1d82e926ec794901d17c78024a50270940304540a733656f0d60405160405180910390a45050565b80516001600160a01b03811681146200016a57600080fd5b919050565b600080604083850312156200018357600080fd5b6200018e8362000152565b91506200019e6020840162000152565b90509250929050565b6119b480620001b76000396000f3fe608060405234801561001057600080fd5b50600436106100cf5760003560e01c80636a7d116f1161008c578063a217fddf11610066578063a217fddf146101dd578063b0667cf8146101e5578063cfc2dc2014610208578063d547741f1461021b57600080fd5b80636a7d116f1461018f57806376df2d08146101a257806391d14854146101ca57600080fd5b806301ffc9a7146100d4578063248a9ca3146100fc5780632f2ff15d1461012d578063319951281461014257806336568abe146101555780636394f6e614610168575b600080fd5b6100e76100e236600461139f565b61022e565b60405190151581526020015b60405180910390f35b61011f61010a3660046113c9565b60009081526020819052604090206001015490565b6040519081526020016100f3565b61014061013b3660046113fa565b610265565b005b610140610150366004611437565b610290565b6101406101633660046113fa565b6105a3565b61011f7fa952726ef2588ad078edf35b066f7c7406e207cb0003bbaba8cb53eba9553e7281565b61011f61019d3660046114a6565b610621565b6101b56101b03660046114e7565b610751565b604080519283526020830191909152016100f3565b6100e76101d83660046113fa565b610a57565b61011f600081565b6101ed610a80565b604080519384526020840192909252908201526060016100f3565b61011f6102163660046113c9565b610b16565b6101406102293660046113fa565b610b93565b60006001600160e01b03198216637965db0b60e01b148061025f57506301ffc9a760e01b6001600160e01b03198316145b92915050565b6000828152602081905260409020600101546102818133610bb9565b61028b8383610c1d565b505050565b6000806102a08a8a8a8a8a610751565b91509150808510156102f05760405162461bcd60e51b815260206004820152601460248201527324b731b7b93932b1ba1031b7b9ba103830b4b21760611b60448201526064015b60405180910390fd5b60025460405163f7327abd60e01b81526000916001600160a01b03169063f7327abd90610331908e908e908e908e908e908b908b908f908f90600401611571565b602060405180830381600087803b15801561034b57600080fd5b505af115801561035f573d6000803e3d6000fd5b505050506040513d601f19601f8201168201806040525081019061038391906115cb565b9050600160009054906101000a90046001600160a01b03166001600160a01b031663d3b7bfb46040518163ffffffff1660e01b815260040160206040518083038186803b1580156103d357600080fd5b505afa1580156103e7573d6000803e3d6000fd5b505050506040513d601f19601f8201168201806040525081019061040b91906115e4565b6001546040516323b872dd60e01b81523360048201526001600160a01b039182166024820152604481018990529116906323b872dd90606401602060405180830381600087803b15801561045e57600080fd5b505af1158015610472573d6000803e3d6000fd5b505050506040513d601f19601f820116820180604052508101906104969190611601565b6104d45760405162461bcd60e51b815260206004820152600f60248201526e2330b4b632b2103830bcb6b2b73a1760891b60448201526064016102e7565b6002546040516328e493c160e01b8152600481018390526001600160a01b03909116906328e493c190602401600060405180830381600087803b15801561051a57600080fd5b505af115801561052e573d6000803e3d6000fd5b505060015460405163454a287f60e11b8152336004820152602481018590526001600160a01b039091169250638a9450fe9150604401600060405180830381600087803b15801561057e57600080fd5b505af1158015610592573d6000803e3d6000fd5b505050505050505050505050505050565b6001600160a01b03811633146106135760405162461bcd60e51b815260206004820152602f60248201527f416363657373436f6e74726f6c3a2063616e206f6e6c792072656e6f756e636560448201526e103937b632b9903337b91039b2b63360891b60648201526084016102e7565b61061d8282610ca1565b5050565b60025460405163067e16e160e51b8152600481018690526000916001600160a01b03169063cfc2dc209060240160206040518083038186803b15801561066657600080fd5b505afa15801561067a573d6000803e3d6000fd5b505050506040513d601f19601f8201168201806040525081019061069e91906115cb565b9050600080600260009054906101000a90046001600160a01b03166001600160a01b031663b0667cf86040518163ffffffff1660e01b815260040160606040518083038186803b1580156106f157600080fd5b505afa158015610705573d6000803e3d6000fd5b505050506040513d601f19601f820116820180604052508101906107299190611623565b925050915061073c828285898989610d06565b6107469084611667565b979650505050505050565b600080600061076288888887610621565b9050600061081088670de0b6b3a7640000600160009054906101000a90046001600160a01b03166001600160a01b0316631aedeabe6040518163ffffffff1660e01b815260040160206040518083038186803b1580156107c157600080fd5b505afa1580156107d5573d6000803e3d6000fd5b505050506040513d601f19601f820116820180604052508101906107f991906115cb565b61080b90670de0b6b3a7640000611667565b611066565b905060018660018111156108265761082661153d565b148015610844575060008560018111156108425761084261153d565b145b8061087c5750600086600181111561085e5761085e61153d565b14801561087c5750600185600181111561087a5761087a61153d565b145b156109be576109bb88600160009054906101000a90046001600160a01b03166001600160a01b031663a7292ea46040518163ffffffff1660e01b815260040160206040518083038186803b1580156108d357600080fd5b505afa1580156108e7573d6000803e3d6000fd5b505050506040513d601f19601f8201168201806040525081019061090b91906115cb565b600160009054906101000a90046001600160a01b03166001600160a01b0316631aedeabe6040518163ffffffff1660e01b815260040160206040518083038186803b15801561095957600080fd5b505afa15801561096d573d6000803e3d6000fd5b505050506040513d601f19601f8201168201806040525081019061099191906115cb565b6109a390670de0b6b3a7640000611667565b6109ad9190611667565b670de0b6b3a7640000611066565b90505b600254604051632396952560e11b81526001600160a01b039091169063472d2a4a906109f8908c9085908c9088908d908d9060040161167f565b604080518083038186803b158015610a0f57600080fd5b505afa158015610a23573d6000803e3d6000fd5b505050506040513d601f19601f82011682018060405250810190610a4791906116c5565b9350935050509550959350505050565b6000918252602082815260408084206001600160a01b0393909316845291905290205460ff1690565b6000806000600260009054906101000a90046001600160a01b03166001600160a01b031663b0667cf86040518163ffffffff1660e01b815260040160606040518083038186803b158015610ad357600080fd5b505afa158015610ae7573d6000803e3d6000fd5b505050506040513d601f19601f82011682018060405250810190610b0b9190611623565b925092509250909192565b60025460405163067e16e160e51b8152600481018390526000916001600160a01b03169063cfc2dc209060240160206040518083038186803b158015610b5b57600080fd5b505afa158015610b6f573d6000803e3d6000fd5b505050506040513d601f19601f8201168201806040525081019061025f91906115cb565b600082815260208190526040902060010154610baf8133610bb9565b61028b8383610ca1565b610bc38282610a57565b61061d57610bdb816001600160a01b0316601461111b565b610be683602061111b565b604051602001610bf7929190611719565b60408051601f198184030181529082905262461bcd60e51b82526102e79160040161178e565b610c278282610a57565b61061d576000828152602081815260408083206001600160a01b03851684529091529020805460ff19166001179055610c5d3390565b6001600160a01b0316816001600160a01b0316837f2f8788117e7eff1d82e926ec794901d17c78024a50270940304540a733656f0d60405160405180910390a45050565b610cab8282610a57565b1561061d576000828152602081815260408083206001600160a01b0385168085529252808320805460ff1916905551339285917ff6391f5c32d9c69d2a47ea670b442974b53935d1edc7fd64eb21e047a839171b9190a45050565b604051632862f4af60e11b8152600481018790526024810187905260448101869052606481018590526000908190610e339073__$31d4c8eb8333d4ada51ee7940c11238919$__906350c5e95e9060840160206040518083038186803b158015610d6f57600080fd5b505af4158015610d83573d6000803e3d6000fd5b505050506040513d601f19601f82011682018060405250810190610da791906115cb565b6001546040516331a23c8160e11b815260006004820181905260248201526109ad916001600160a01b03169063634479029060440160206040518083038186803b158015610df457600080fd5b505afa158015610e08573d6000803e3d6000fd5b505050506040513d601f19601f82011682018060405250810190610e2c91906115cb565b8a8c611066565b600154604051639462ad6560e01b81526000600482018190529293506001600160a01b0390911690639462ad659060240160206040518083038186803b158015610e7c57600080fd5b505afa158015610e90573d6000803e3d6000fd5b505050506040513d601f19601f82011682018060405250810190610eb491906115cb565b905060006001856001811115610ecc57610ecc61153d565b14610ed8576001610edc565b6000195b604051632862f4af60e11b8152600481018c905260248101899052604481018b9052606481018a9052610f879073__$31d4c8eb8333d4ada51ee7940c11238919$__906350c5e95e9060840160206040518083038186803b158015610f4057600080fd5b505af4158015610f54573d6000803e3d6000fd5b505050506040513d601f19601f82011682018060405250810190610f7891906115cb565b88670de0b6b3a7640000611066565b610f9191906117c1565b610f9b9083611846565b9050600061102989600160009054906101000a90046001600160a01b03166001600160a01b0316630875c6b16040518163ffffffff1660e01b815260040160206040518083038186803b158015610ff157600080fd5b505afa158015611005573d6000803e3d6000fd5b505050506040513d601f19601f820116820180604052508101906109ad91906115cb565b905060026110388584846112b7565b6110438686856112b7565b61104d9190611667565b6110579190611887565b9b9a5050505050505050505050565b6000808060001985870985870292508281108382030391505080600014156110a0576000841161109557600080fd5b508290049050611114565b8084116110ac57600080fd5b600084868809851960019081018716968790049682860381900495909211909303600082900391909104909201919091029190911760038402600290811880860282030280860282030280860282030280860282030280860282030280860290910302029150505b9392505050565b6060600061112a8360026118a9565b611135906002611667565b67ffffffffffffffff81111561114d5761114d6118c8565b6040519080825280601f01601f191660200182016040528015611177576020820181803683370190505b509050600360fc1b81600081518110611192576111926118de565b60200101906001600160f81b031916908160001a905350600f60fb1b816001815181106111c1576111c16118de565b60200101906001600160f81b031916908160001a90535060006111e58460026118a9565b6111f0906001611667565b90505b6001811115611268576f181899199a1a9b1b9c1cb0b131b232b360811b85600f1660108110611224576112246118de565b1a60f81b82828151811061123a5761123a6118de565b60200101906001600160f81b031916908160001a90535060049490941c93611261816118f4565b90506111f3565b5083156111145760405162461bcd60e51b815260206004820181905260248201527f537472696e67733a20686578206c656e67746820696e73756666696369656e7460448201526064016102e7565b6000670de0b6b3a7640000818412156112f2576112e56112d68561190b565b670de0b6b3a764000087611066565b6112ef9082611846565b90505b600084131561131b5761130e84670de0b6b3a764000087611066565b6113189082611928565b90505b60008113158061132c575060028112155b6113785760405162461bcd60e51b815260206004820152601860248201527f4361706163697479206c696d69742062726561636865642e000000000000000060448201526064016102e7565b8261138c84670de0b6b3a764000084611066565b6113969190611967565b95945050505050565b6000602082840312156113b157600080fd5b81356001600160e01b03198116811461111457600080fd5b6000602082840312156113db57600080fd5b5035919050565b6001600160a01b03811681146113f757600080fd5b50565b6000806040838503121561140d57600080fd5b82359150602083013561141f816113e2565b809150509250929050565b600281106113f757600080fd5b600080600080600080600080610100898b03121561145457600080fd5b88359750602089013596506040890135955060608901356114748161142a565b945060808901356114848161142a565b979a969950949793969560a0850135955060c08501359460e001359350915050565b600080600080608085870312156114bc57600080fd5b84359350602085013592506040850135915060608501356114dc8161142a565b939692955090935050565b600080600080600060a086880312156114ff57600080fd5b853594506020860135935060408601359250606086013561151f8161142a565b9150608086013561152f8161142a565b809150509295509295909350565b634e487b7160e01b600052602160045260246000fd5b600281106113f757634e487b7160e01b600052602160045260246000fd5b8981526020810189905260408101889052610120810161159088611553565b87606083015261159f87611553565b608082019690965260a081019490945260c084019290925260e083015261010090910152949350505050565b6000602082840312156115dd57600080fd5b5051919050565b6000602082840312156115f657600080fd5b8151611114816113e2565b60006020828403121561161357600080fd5b8151801515811461111457600080fd5b60008060006060848603121561163857600080fd5b8351925060208401519150604084015190509250925092565b634e487b7160e01b600052601160045260246000fd5b6000821982111561167a5761167a611651565b500190565b600060c0820190508782528660208301528560408301528460608301526116a584611553565b8360808301526116b483611553565b8260a0830152979650505050505050565b600080604083850312156116d857600080fd5b505080516020909101519092909150565b60005b838110156117045781810151838201526020016116ec565b83811115611713576000848401525b50505050565b7f416363657373436f6e74726f6c3a206163636f756e74200000000000000000008152600083516117518160178501602088016116e9565b7001034b99036b4b9b9b4b733903937b6329607d1b60179184019182015283516117828160288401602088016116e9565b01602801949350505050565b60208152600082518060208401526117ad8160408501602087016116e9565b601f01601f19169190910160400192915050565b60006001600160ff1b03818413828413808216868404861116156117e7576117e7611651565b600160ff1b600087128281168783058912161561180657611806611651565b6000871292508782058712848416161561182257611822611651565b8785058712818416161561183857611838611651565b505050929093029392505050565b600080821280156001600160ff1b038490038513161561186857611868611651565b600160ff1b839003841281161561188157611881611651565b50500190565b6000826118a457634e487b7160e01b600052601260045260246000fd5b500490565b60008160001904831182151516156118c3576118c3611651565b500290565b634e487b7160e01b600052604160045260246000fd5b634e487b7160e01b600052603260045260246000fd5b60008161190357611903611651565b506000190190565b6000600160ff1b82141561192157611921611651565b5060000390565b60008083128015600160ff1b85018412161561194657611946611651565b6001600160ff1b038401831381161561196157611961611651565b50500390565b60008282101561197957611979611651565b50039056fea26469706673582212208520ad2de07549d87e8b05b65f88188a26d015880df01f4b58e01a2d514c35f864736f6c63430008090033",
    "sourcePath": "/Users/apple/Documents/GitHub/moret/contracts/Exchange.sol",
    "compiler": {
        "name": "solc",
        "version": "0.8.9+commit.e5eed63a"
    },
    "functionHashes": {
        "DEFAULT_ADMIN_ROLE()": "a217fddf",
        "MINER_ROLE()": "6394f6e6",
        "getRoleAdmin(bytes32)": "248a9ca3",
        "grantRole(bytes32,address)": "2f2ff15d",
        "hasRole(bytes32,address)": "91d14854",
        "purchaseOption(uint256,uint256,uint256,uint8,uint8,uint256,uint256,uint256)": "31995128",
        "queryOptionCost(uint256,uint256,uint256,uint8,uint8)": "76df2d08",
        "queryOptionVolatility(uint256,uint256,uint256,uint8)": "6a7d116f",
        "queryPrice()": "b0667cf8",
        "queryVol(uint256)": "cfc2dc20",
        "renounceRole(bytes32,address)": "36568abe",
        "revokeRole(bytes32,address)": "d547741f",
        "supportsInterface(bytes4)": "01ffc9a7"
    },
    "gasEstimates": {
        "creation": {
            "codeDepositCost": "1316000",
            "executionCost": "infinite",
            "totalCost": "infinite"
        },
        "external": {
            "DEFAULT_ADMIN_ROLE()": "217",
            "MINER_ROLE()": "306",
            "getRoleAdmin(bytes32)": "2470",
            "grantRole(bytes32,address)": "infinite",
            "hasRole(bytes32,address)": "2717",
            "purchaseOption(uint256,uint256,uint256,uint8,uint8,uint256,uint256,uint256)": "infinite",
            "queryOptionCost(uint256,uint256,uint256,uint8,uint8)": "infinite",
            "queryOptionVolatility(uint256,uint256,uint256,uint8)": "infinite",
            "queryPrice()": "infinite",
            "queryVol(uint256)": "infinite",
            "renounceRole(bytes32,address)": "29083",
            "revokeRole(bytes32,address)": "infinite",
            "supportsInterface(bytes4)": "427"
        },
        "internal": {
            "calcRiskPremium(uint256,uint256,uint256,uint256,uint256,enum OptionLibrary.OptionSide)": "infinite",
            "calcRiskPremiumAMM(uint256,int256,uint256)": "720"
        }
    }
}