{
    "contractName": "Exchange",
    "abi": [
        {
            "inputs": [
                {
                    "internalType": "address",
                    "name": "_marketMakerAddress",
                    "type": "address"
                },
                {
                    "internalType": "address",
                    "name": "_optionAddress",
                    "type": "address"
                },
                {
                    "internalType": "address",
                    "name": "_swapRouterAddress",
                    "type": "address"
                },
                {
                    "internalType": "address",
                    "name": "_aggregatorAddress",
                    "type": "address"
                },
                {
                    "internalType": "address",
                    "name": "_lendingPoolAddressProvider",
                    "type": "address"
                }
            ],
            "stateMutability": "nonpayable",
            "type": "constructor"
        },
        {
            "anonymous": false,
            "inputs": [
                {
                    "indexed": true,
                    "internalType": "bytes32",
                    "name": "role",
                    "type": "bytes32"
                },
                {
                    "indexed": true,
                    "internalType": "bytes32",
                    "name": "previousAdminRole",
                    "type": "bytes32"
                },
                {
                    "indexed": true,
                    "internalType": "bytes32",
                    "name": "newAdminRole",
                    "type": "bytes32"
                }
            ],
            "name": "RoleAdminChanged",
            "type": "event"
        },
        {
            "anonymous": false,
            "inputs": [
                {
                    "indexed": true,
                    "internalType": "bytes32",
                    "name": "role",
                    "type": "bytes32"
                },
                {
                    "indexed": true,
                    "internalType": "address",
                    "name": "account",
                    "type": "address"
                },
                {
                    "indexed": true,
                    "internalType": "address",
                    "name": "sender",
                    "type": "address"
                }
            ],
            "name": "RoleGranted",
            "type": "event"
        },
        {
            "anonymous": false,
            "inputs": [
                {
                    "indexed": true,
                    "internalType": "bytes32",
                    "name": "role",
                    "type": "bytes32"
                },
                {
                    "indexed": true,
                    "internalType": "address",
                    "name": "account",
                    "type": "address"
                },
                {
                    "indexed": true,
                    "internalType": "address",
                    "name": "sender",
                    "type": "address"
                }
            ],
            "name": "RoleRevoked",
            "type": "event"
        },
        {
            "anonymous": false,
            "inputs": [
                {
                    "indexed": false,
                    "internalType": "address",
                    "name": "_recipient",
                    "type": "address"
                },
                {
                    "indexed": false,
                    "internalType": "uint256",
                    "name": "_mintMPTokenAmount",
                    "type": "uint256"
                },
                {
                    "indexed": false,
                    "internalType": "uint256",
                    "name": "_addedValue",
                    "type": "uint256"
                }
            ],
            "name": "capitalAdded",
            "type": "event"
        },
        {
            "anonymous": false,
            "inputs": [
                {
                    "indexed": false,
                    "internalType": "address",
                    "name": "_recipient",
                    "type": "address"
                },
                {
                    "indexed": false,
                    "internalType": "uint256",
                    "name": "_burnMPTokenAmount",
                    "type": "uint256"
                },
                {
                    "indexed": false,
                    "internalType": "uint256",
                    "name": "_withdrawValue",
                    "type": "uint256"
                }
            ],
            "name": "capitalWithdrawn",
            "type": "event"
        },
        {
            "anonymous": false,
            "inputs": [
                {
                    "indexed": true,
                    "internalType": "address",
                    "name": "_purchaser",
                    "type": "address"
                },
                {
                    "components": [
                        {
                            "internalType": "enum OptionLibrary.PayoffType",
                            "name": "poType",
                            "type": "uint8"
                        },
                        {
                            "internalType": "enum OptionLibrary.OptionSide",
                            "name": "side",
                            "type": "uint8"
                        },
                        {
                            "internalType": "enum OptionLibrary.OptionStatus",
                            "name": "status",
                            "type": "uint8"
                        },
                        {
                            "internalType": "address",
                            "name": "holder",
                            "type": "address"
                        },
                        {
                            "internalType": "uint256",
                            "name": "id",
                            "type": "uint256"
                        },
                        {
                            "internalType": "uint256",
                            "name": "createTime",
                            "type": "uint256"
                        },
                        {
                            "internalType": "uint256",
                            "name": "effectiveTime",
                            "type": "uint256"
                        },
                        {
                            "internalType": "uint256",
                            "name": "tenor",
                            "type": "uint256"
                        },
                        {
                            "internalType": "uint256",
                            "name": "maturity",
                            "type": "uint256"
                        },
                        {
                            "internalType": "uint256",
                            "name": "exerciseTime",
                            "type": "uint256"
                        },
                        {
                            "internalType": "uint256",
                            "name": "amount",
                            "type": "uint256"
                        },
                        {
                            "internalType": "uint256",
                            "name": "spot",
                            "type": "uint256"
                        },
                        {
                            "internalType": "uint256",
                            "name": "strike",
                            "type": "uint256"
                        },
                        {
                            "internalType": "uint256",
                            "name": "volatility",
                            "type": "uint256"
                        },
                        {
                            "internalType": "uint256",
                            "name": "premium",
                            "type": "uint256"
                        },
                        {
                            "internalType": "uint256",
                            "name": "cost",
                            "type": "uint256"
                        }
                    ],
                    "indexed": false,
                    "internalType": "struct OptionLibrary.Option",
                    "name": "_option",
                    "type": "tuple"
                },
                {
                    "indexed": false,
                    "internalType": "uint256",
                    "name": "_cost",
                    "type": "uint256"
                },
                {
                    "indexed": false,
                    "internalType": "bool",
                    "name": "_inVol",
                    "type": "bool"
                }
            ],
            "name": "newOptionBought",
            "type": "event"
        },
        {
            "anonymous": false,
            "inputs": [
                {
                    "indexed": false,
                    "internalType": "address",
                    "name": "_purchaser",
                    "type": "address"
                },
                {
                    "indexed": false,
                    "internalType": "uint256",
                    "name": "_time",
                    "type": "uint256"
                },
                {
                    "indexed": false,
                    "internalType": "uint256",
                    "name": "_tenor",
                    "type": "uint256"
                },
                {
                    "indexed": false,
                    "internalType": "uint256",
                    "name": "_amount",
                    "type": "uint256"
                }
            ],
            "name": "newVolatilityTokenBought",
            "type": "event"
        },
        {
            "anonymous": false,
            "inputs": [
                {
                    "indexed": true,
                    "internalType": "address",
                    "name": "_purchaser",
                    "type": "address"
                },
                {
                    "components": [
                        {
                            "internalType": "enum OptionLibrary.PayoffType",
                            "name": "poType",
                            "type": "uint8"
                        },
                        {
                            "internalType": "enum OptionLibrary.OptionSide",
                            "name": "side",
                            "type": "uint8"
                        },
                        {
                            "internalType": "enum OptionLibrary.OptionStatus",
                            "name": "status",
                            "type": "uint8"
                        },
                        {
                            "internalType": "address",
                            "name": "holder",
                            "type": "address"
                        },
                        {
                            "internalType": "uint256",
                            "name": "id",
                            "type": "uint256"
                        },
                        {
                            "internalType": "uint256",
                            "name": "createTime",
                            "type": "uint256"
                        },
                        {
                            "internalType": "uint256",
                            "name": "effectiveTime",
                            "type": "uint256"
                        },
                        {
                            "internalType": "uint256",
                            "name": "tenor",
                            "type": "uint256"
                        },
                        {
                            "internalType": "uint256",
                            "name": "maturity",
                            "type": "uint256"
                        },
                        {
                            "internalType": "uint256",
                            "name": "exerciseTime",
                            "type": "uint256"
                        },
                        {
                            "internalType": "uint256",
                            "name": "amount",
                            "type": "uint256"
                        },
                        {
                            "internalType": "uint256",
                            "name": "spot",
                            "type": "uint256"
                        },
                        {
                            "internalType": "uint256",
                            "name": "strike",
                            "type": "uint256"
                        },
                        {
                            "internalType": "uint256",
                            "name": "volatility",
                            "type": "uint256"
                        },
                        {
                            "internalType": "uint256",
                            "name": "premium",
                            "type": "uint256"
                        },
                        {
                            "internalType": "uint256",
                            "name": "cost",
                            "type": "uint256"
                        }
                    ],
                    "indexed": false,
                    "internalType": "struct OptionLibrary.Option",
                    "name": "_option",
                    "type": "tuple"
                },
                {
                    "indexed": false,
                    "internalType": "uint256",
                    "name": "_payoff",
                    "type": "uint256"
                }
            ],
            "name": "optionExercised",
            "type": "event"
        },
        {
            "inputs": [],
            "name": "ADMIN_ROLE",
            "outputs": [
                {
                    "internalType": "bytes32",
                    "name": "",
                    "type": "bytes32"
                }
            ],
            "stateMutability": "view",
            "type": "function"
        },
        {
            "inputs": [],
            "name": "DEFAULT_ADMIN_ROLE",
            "outputs": [
                {
                    "internalType": "bytes32",
                    "name": "",
                    "type": "bytes32"
                }
            ],
            "stateMutability": "view",
            "type": "function"
        },
        {
            "inputs": [],
            "name": "MINER_ROLE",
            "outputs": [
                {
                    "internalType": "bytes32",
                    "name": "",
                    "type": "bytes32"
                }
            ],
            "stateMutability": "view",
            "type": "function"
        },
        {
            "inputs": [],
            "name": "exchangeDeadlineLag",
            "outputs": [
                {
                    "internalType": "uint256",
                    "name": "",
                    "type": "uint256"
                }
            ],
            "stateMutability": "view",
            "type": "function"
        },
        {
            "inputs": [],
            "name": "exchangeSlippageDown",
            "outputs": [
                {
                    "internalType": "uint256",
                    "name": "",
                    "type": "uint256"
                }
            ],
            "stateMutability": "view",
            "type": "function"
        },
        {
            "inputs": [],
            "name": "exchangeSlippageMax",
            "outputs": [
                {
                    "internalType": "uint256",
                    "name": "",
                    "type": "uint256"
                }
            ],
            "stateMutability": "view",
            "type": "function"
        },
        {
            "inputs": [],
            "name": "exchangeSlippageUp",
            "outputs": [
                {
                    "internalType": "uint256",
                    "name": "",
                    "type": "uint256"
                }
            ],
            "stateMutability": "view",
            "type": "function"
        },
        {
            "inputs": [],
            "name": "executeHedgeTrades",
            "outputs": [],
            "stateMutability": "nonpayable",
            "type": "function"
        },
        {
            "inputs": [
                {
                    "internalType": "bytes32",
                    "name": "role",
                    "type": "bytes32"
                }
            ],
            "name": "getRoleAdmin",
            "outputs": [
                {
                    "internalType": "bytes32",
                    "name": "",
                    "type": "bytes32"
                }
            ],
            "stateMutability": "view",
            "type": "function"
        },
        {
            "inputs": [
                {
                    "internalType": "bytes32",
                    "name": "role",
                    "type": "bytes32"
                },
                {
                    "internalType": "address",
                    "name": "account",
                    "type": "address"
                }
            ],
            "name": "grantRole",
            "outputs": [],
            "stateMutability": "nonpayable",
            "type": "function"
        },
        {
            "inputs": [
                {
                    "internalType": "bytes32",
                    "name": "role",
                    "type": "bytes32"
                },
                {
                    "internalType": "address",
                    "name": "account",
                    "type": "address"
                }
            ],
            "name": "hasRole",
            "outputs": [
                {
                    "internalType": "bool",
                    "name": "",
                    "type": "bool"
                }
            ],
            "stateMutability": "view",
            "type": "function"
        },
        {
            "inputs": [],
            "name": "loanInterest",
            "outputs": [
                {
                    "internalType": "uint256",
                    "name": "",
                    "type": "uint256"
                }
            ],
            "stateMutability": "view",
            "type": "function"
        },
        {
            "inputs": [
                {
                    "internalType": "uint256",
                    "name": "_tenor",
                    "type": "uint256"
                },
                {
                    "internalType": "uint256",
                    "name": "_strike",
                    "type": "uint256"
                },
                {
                    "internalType": "uint256",
                    "name": "_amount",
                    "type": "uint256"
                },
                {
                    "internalType": "enum OptionLibrary.PayoffType",
                    "name": "_poType",
                    "type": "uint8"
                },
                {
                    "internalType": "enum OptionLibrary.OptionSide",
                    "name": "_side",
                    "type": "uint8"
                },
                {
                    "internalType": "uint256",
                    "name": "_payInCost",
                    "type": "uint256"
                },
                {
                    "internalType": "uint256",
                    "name": "_price",
                    "type": "uint256"
                },
                {
                    "internalType": "uint256",
                    "name": "_volatility",
                    "type": "uint256"
                }
            ],
            "name": "purchaseOption",
            "outputs": [],
            "stateMutability": "nonpayable",
            "type": "function"
        },
        {
            "inputs": [
                {
                    "internalType": "uint256",
                    "name": "_tenor",
                    "type": "uint256"
                },
                {
                    "internalType": "uint256",
                    "name": "_strike",
                    "type": "uint256"
                },
                {
                    "internalType": "uint256",
                    "name": "_amount",
                    "type": "uint256"
                },
                {
                    "internalType": "enum OptionLibrary.PayoffType",
                    "name": "_poType",
                    "type": "uint8"
                },
                {
                    "internalType": "enum OptionLibrary.OptionSide",
                    "name": "_side",
                    "type": "uint8"
                }
            ],
            "name": "queryOptionCost",
            "outputs": [
                {
                    "internalType": "uint256",
                    "name": "",
                    "type": "uint256"
                },
                {
                    "internalType": "uint256",
                    "name": "",
                    "type": "uint256"
                }
            ],
            "stateMutability": "view",
            "type": "function"
        },
        {
            "inputs": [
                {
                    "internalType": "uint256",
                    "name": "_tenor",
                    "type": "uint256"
                },
                {
                    "internalType": "uint256",
                    "name": "_strike",
                    "type": "uint256"
                },
                {
                    "internalType": "uint256",
                    "name": "_amount",
                    "type": "uint256"
                },
                {
                    "internalType": "enum OptionLibrary.OptionSide",
                    "name": "_side",
                    "type": "uint8"
                }
            ],
            "name": "queryOptionVolatility",
            "outputs": [
                {
                    "internalType": "uint256",
                    "name": "_vol",
                    "type": "uint256"
                }
            ],
            "stateMutability": "view",
            "type": "function"
        },
        {
            "inputs": [],
            "name": "queryPrice",
            "outputs": [
                {
                    "internalType": "uint256",
                    "name": "",
                    "type": "uint256"
                },
                {
                    "internalType": "uint256",
                    "name": "",
                    "type": "uint256"
                },
                {
                    "internalType": "uint256",
                    "name": "",
                    "type": "uint256"
                }
            ],
            "stateMutability": "view",
            "type": "function"
        },
        {
            "inputs": [
                {
                    "internalType": "uint256",
                    "name": "_tenor",
                    "type": "uint256"
                }
            ],
            "name": "queryVol",
            "outputs": [
                {
                    "internalType": "uint256",
                    "name": "",
                    "type": "uint256"
                }
            ],
            "stateMutability": "view",
            "type": "function"
        },
        {
            "inputs": [
                {
                    "internalType": "bytes32",
                    "name": "role",
                    "type": "bytes32"
                },
                {
                    "internalType": "address",
                    "name": "account",
                    "type": "address"
                }
            ],
            "name": "renounceRole",
            "outputs": [],
            "stateMutability": "nonpayable",
            "type": "function"
        },
        {
            "inputs": [
                {
                    "internalType": "uint256",
                    "name": "_newRatio",
                    "type": "uint256"
                }
            ],
            "name": "resetRiskPremiumMaxRatio",
            "outputs": [],
            "stateMutability": "nonpayable",
            "type": "function"
        },
        {
            "inputs": [
                {
                    "internalType": "bytes32",
                    "name": "role",
                    "type": "bytes32"
                },
                {
                    "internalType": "address",
                    "name": "account",
                    "type": "address"
                }
            ],
            "name": "revokeRole",
            "outputs": [],
            "stateMutability": "nonpayable",
            "type": "function"
        },
        {
            "inputs": [
                {
                    "internalType": "bytes4",
                    "name": "interfaceId",
                    "type": "bytes4"
                }
            ],
            "name": "supportsInterface",
            "outputs": [
                {
                    "internalType": "bool",
                    "name": "",
                    "type": "bool"
                }
            ],
            "stateMutability": "view",
            "type": "function"
        },
        {
            "inputs": [],
            "name": "volRiskPremiumMaxRatio",
            "outputs": [
                {
                    "internalType": "uint256",
                    "name": "",
                    "type": "uint256"
                }
            ],
            "stateMutability": "view",
            "type": "function"
        }
    ],
    "bytecode": "60806040526718fae27693b400006006556002600755662386f26fc100006009556014600a556000600b556000600c556000600d553480156200004157600080fd5b506040516200263738038062002637833981016040819052620000649162000200565b6200007160003362000133565b6200009d7fa49807205ce4d355092ef5a8a18f56e8913cf4a201fbe287825b095693c217753362000133565b620000c97fa952726ef2588ad078edf35b066f7c7406e207cb0003bbaba8cb53eba9553e723362000133565b600280546001600160a01b03199081166001600160a01b039687161790915560018054821696861696909617909555600480548616938516939093179092556005805485169184169190911790556003805490931691161790556008805460ff1916905562000270565b6200013f828262000143565b5050565b6000828152602081815260408083206001600160a01b038516845290915290205460ff166200013f576000828152602081815260408083206001600160a01b03851684529091529020805460ff191660011790556200019f3390565b6001600160a01b0316816001600160a01b0316837f2f8788117e7eff1d82e926ec794901d17c78024a50270940304540a733656f0d60405160405180910390a45050565b80516001600160a01b0381168114620001fb57600080fd5b919050565b600080600080600060a086880312156200021957600080fd5b6200022486620001e3565b94506200023460208701620001e3565b93506200024460408701620001e3565b92506200025460608701620001e3565b91506200026460808701620001e3565b90509295509295909350565b6123b780620002806000396000f3fe608060405234801561001057600080fd5b50600436106101425760003560e01c806375bf05cf116100b857806392c278ef1161007c57806392c278ef146102b6578063a217fddf146102bf578063a7292ea4146102c7578063b0667cf8146102d0578063cfc2dc20146102f3578063d547741f1461030657600080fd5b806375bf05cf1461025757806376df2d081461025f578063819482191461028757806385e6be8b1461029057806391d14854146102a357600080fd5b80632f2ff15d1161010a5780632f2ff15d146101bb57806331995128146101d057806336568abe146101e35780636394f6e6146101f65780636a7d116f1461021d57806375b238fc1461023057600080fd5b806301ffc9a7146101475780630875c6b11461016f5780630b83e48314610186578063248a9ca31461018f57806327251b14146101b2575b600080fd5b61015a610155366004611ce4565b610319565b60405190151581526020015b60405180910390f35b61017860065481565b604051908152602001610166565b61017860095481565b61017861019d366004611d0e565b60009081526020819052604090206001015490565b610178600b5481565b6101ce6101c9366004611d3f565b610350565b005b6101ce6101de366004611d7c565b61037b565b6101ce6101f1366004611d3f565b61068e565b6101787fa952726ef2588ad078edf35b066f7c7406e207cb0003bbaba8cb53eba9553e7281565b61017861022b366004611deb565b61070c565b6101787fa49807205ce4d355092ef5a8a18f56e8913cf4a201fbe287825b095693c2177581565b6101ce61083c565b61027261026d366004611e2c565b611053565b60408051928352602083019190915201610166565b610178600a5481565b6101ce61029e366004611d0e565b6110fd565b61015a6102b1366004611d3f565b61112e565b610178600c5481565b610178600081565b610178600d5481565b6102d8611157565b60408051938452602084019290925290820152606001610166565b610178610301366004611d0e565b6111ed565b6101ce610314366004611d3f565b61126a565b60006001600160e01b03198216637965db0b60e01b148061034a57506301ffc9a760e01b6001600160e01b03198316145b92915050565b60008281526020819052604090206001015461036c8133611290565b61037683836112f4565b505050565b60008061038b8a8a8a8a8a611053565b91509150808510156103db5760405162461bcd60e51b815260206004820152601460248201527324b731b7b93932b1ba1031b7b9ba103830b4b21760611b60448201526064015b60405180910390fd5b60025460405163f7327abd60e01b81526000916001600160a01b03169063f7327abd9061041c908e908e908e908e908e908b908b908f908f90600401611eb6565b602060405180830381600087803b15801561043657600080fd5b505af115801561044a573d6000803e3d6000fd5b505050506040513d601f19601f8201168201806040525081019061046e9190611f10565b9050600160009054906101000a90046001600160a01b03166001600160a01b031663d3b7bfb46040518163ffffffff1660e01b815260040160206040518083038186803b1580156104be57600080fd5b505afa1580156104d2573d6000803e3d6000fd5b505050506040513d601f19601f820116820180604052508101906104f69190611f29565b6001546040516323b872dd60e01b81523360048201526001600160a01b039182166024820152604481018990529116906323b872dd90606401602060405180830381600087803b15801561054957600080fd5b505af115801561055d573d6000803e3d6000fd5b505050506040513d601f19601f820116820180604052508101906105819190611f46565b6105bf5760405162461bcd60e51b815260206004820152600f60248201526e2330b4b632b2103830bcb6b2b73a1760891b60448201526064016103d2565b6002546040516328e493c160e01b8152600481018390526001600160a01b03909116906328e493c190602401600060405180830381600087803b15801561060557600080fd5b505af1158015610619573d6000803e3d6000fd5b505060015460405163454a287f60e11b8152336004820152602481018590526001600160a01b039091169250638a9450fe9150604401600060405180830381600087803b15801561066957600080fd5b505af115801561067d573d6000803e3d6000fd5b505050505050505050505050505050565b6001600160a01b03811633146106fe5760405162461bcd60e51b815260206004820152602f60248201527f416363657373436f6e74726f6c3a2063616e206f6e6c792072656e6f756e636560448201526e103937b632b9903337b91039b2b63360891b60648201526084016103d2565b6107088282611378565b5050565b60025460405163067e16e160e51b8152600481018690526000916001600160a01b03169063cfc2dc209060240160206040518083038186803b15801561075157600080fd5b505afa158015610765573d6000803e3d6000fd5b505050506040513d601f19601f820116820180604052508101906107899190611f10565b9050600080600260009054906101000a90046001600160a01b03166001600160a01b031663b0667cf86040518163ffffffff1660e01b815260040160606040518083038186803b1580156107dc57600080fd5b505afa1580156107f0573d6000803e3d6000fd5b505050506040513d601f19601f820116820180604052508101906108149190611f68565b92505091506108278282858989896113dd565b6108319084611fac565b979650505050505050565b7fa952726ef2588ad078edf35b066f7c7406e207cb0003bbaba8cb53eba9553e726108678133611290565b6000806000600160009054906101000a90046001600160a01b03166001600160a01b03166321fccce96040518163ffffffff1660e01b815260040160606040518083038186803b1580156108ba57600080fd5b505afa1580156108ce573d6000803e3d6000fd5b505050506040513d601f19601f820116820180604052508101906108f29190611f68565b9250925092506000821315610bfd5760008113156109f55760015460035460408051630261bf8b60e01b815290516001600160a01b039384169363481fef8a938693911691630261bf8b91600480820192602092909190829003018186803b15801561095d57600080fd5b505afa158015610971573d6000803e3d6000fd5b505050506040513d601f19601f820116820180604052508101906109959190611f29565b6040516001600160e01b031960e085901b16815260048101929092526001600160a01b03166024820152604401600060405180830381600087803b1580156109dc57600080fd5b505af11580156109f0573d6000803e3d6000fd5b505050505b60015460035460408051630261bf8b60e01b815290516001600160a01b039384169363bf546331938793911691630261bf8b91600480820192602092909190829003018186803b158015610a4857600080fd5b505afa158015610a5c573d6000803e3d6000fd5b505050506040513d601f19601f82011682018060405250810190610a809190611f29565b6007546040516001600160e01b031960e086901b16815260048101939093526001600160a01b0390911660248301526044820152606401600060405180830381600087803b158015610ad157600080fd5b505af1158015610ae5573d6000803e3d6000fd5b505050506000811215610bf2576001546001600160a01b0316630af504cc610b0c83611fc4565b600360009054906101000a90046001600160a01b03166001600160a01b0316630261bf8b6040518163ffffffff1660e01b815260040160206040518083038186803b158015610b5a57600080fd5b505afa158015610b6e573d6000803e3d6000fd5b505050506040513d601f19601f82011682018060405250810190610b929190611f29565b6040516001600160e01b031960e085901b16815260048101929092526001600160a01b03166024820152604401600060405180830381600087803b158015610bd957600080fd5b505af1158015610bed573d6000803e3d6000fd5b505050505b610bfb826116d6565b505b6000821215610f1e57610c17610c1283611fc4565b611849565b506001546001600160a01b03166380110e99610c3284611fc4565b600360009054906101000a90046001600160a01b03166001600160a01b0316630261bf8b6040518163ffffffff1660e01b815260040160206040518083038186803b158015610c8057600080fd5b505afa158015610c94573d6000803e3d6000fd5b505050506040513d601f19601f82011682018060405250810190610cb89190611f29565b6007546040516001600160e01b031960e086901b16815260048101939093526001600160a01b0390911660248301526044820152606401600060405180830381600087803b158015610d0957600080fd5b505af1158015610d1d573d6000803e3d6000fd5b505050506000811215610e2a576001546001600160a01b0316630af504cc610d4483611fc4565b600360009054906101000a90046001600160a01b03166001600160a01b0316630261bf8b6040518163ffffffff1660e01b815260040160206040518083038186803b158015610d9257600080fd5b505afa158015610da6573d6000803e3d6000fd5b505050506040513d601f19601f82011682018060405250810190610dca9190611f29565b6040516001600160e01b031960e085901b16815260048101929092526001600160a01b03166024820152604401600060405180830381600087803b158015610e1157600080fd5b505af1158015610e25573d6000803e3d6000fd5b505050505b6000811315610f1e5760015460035460408051630261bf8b60e01b815290516001600160a01b039384169363481fef8a938693911691630261bf8b91600480820192602092909190829003018186803b158015610e8657600080fd5b505afa158015610e9a573d6000803e3d6000fd5b505050506040513d601f19601f82011682018060405250810190610ebe9190611f29565b6040516001600160e01b031960e085901b16815260048101929092526001600160a01b03166024820152604401600060405180830381600087803b158015610f0557600080fd5b505af1158015610f19573d6000803e3d6000fd5b505050505b60015460408051632140ea6760e01b815290516000926001600160a01b031691632140ea67916004808301926020929190829003018186803b158015610f6357600080fd5b505afa158015610f77573d6000803e3d6000fd5b505050506040513d601f19601f82011682018060405250810190610f9b9190611f29565b6001546040516370a0823160e01b81526001600160a01b0391821660048201529116906370a082319060240160206040518083038186803b158015610fdf57600080fd5b505afa158015610ff3573d6000803e3d6000fd5b505050506040513d601f19601f820116820180604052508101906110179190611f10565b9050838111156110355761103361102e8583611fe1565b6116d6565b505b8381101561104c5761104a610c128286611fe1565b505b5050505050565b60008060006110648888888761070c565b600254604051632396952560e11b81529192506001600160a01b03169063472d2a4a9061109f908b908b908b9087908c908c90600401611ff8565b604080518083038186803b1580156110b657600080fd5b505afa1580156110ca573d6000803e3d6000fd5b505050506040513d601f19601f820116820180604052508101906110ee919061203e565b92509250509550959350505050565b7fa49807205ce4d355092ef5a8a18f56e8913cf4a201fbe287825b095693c217756111288133611290565b50600655565b6000918252602082815260408084206001600160a01b0393909316845291905290205460ff1690565b6000806000600260009054906101000a90046001600160a01b03166001600160a01b031663b0667cf86040518163ffffffff1660e01b815260040160606040518083038186803b1580156111aa57600080fd5b505afa1580156111be573d6000803e3d6000fd5b505050506040513d601f19601f820116820180604052508101906111e29190611f68565b925092509250909192565b60025460405163067e16e160e51b8152600481018390526000916001600160a01b03169063cfc2dc209060240160206040518083038186803b15801561123257600080fd5b505afa158015611246573d6000803e3d6000fd5b505050506040513d601f19601f8201168201806040525081019061034a9190611f10565b6000828152602081905260409020600101546112868133611290565b6103768383611378565b61129a828261112e565b610708576112b2816001600160a01b031660146119ab565b6112bd8360206119ab565b6040516020016112ce929190612092565b60408051601f198184030181529082905262461bcd60e51b82526103d291600401612107565b6112fe828261112e565b610708576000828152602081815260408083206001600160a01b03851684529091529020805460ff191660011790556113343390565b6001600160a01b0316816001600160a01b0316837f2f8788117e7eff1d82e926ec794901d17c78024a50270940304540a733656f0d60405160405180910390a45050565b611382828261112e565b15610708576000828152602081815260408083206001600160a01b0385168085529252808320805460ff1916905551339285917ff6391f5c32d9c69d2a47ea670b442974b53935d1edc7fd64eb21e047a839171b9190a45050565b604051632862f4af60e11b81526004810187905260248101879052604481018690526064810185905260009081906115189073__$1f0b044773d651c90510525d7b74bc2ba4$__906350c5e95e9060840160206040518083038186803b15801561144657600080fd5b505af415801561145a573d6000803e3d6000fd5b505050506040513d601f19601f8201168201806040525081019061147e9190611f10565b6001546040516331a23c8160e11b8152600060048201819052602482015261150a916001600160a01b03169063634479029060440160206040518083038186803b1580156114cb57600080fd5b505afa1580156114df573d6000803e3d6000fd5b505050506040513d601f19601f820116820180604052508101906115039190611f10565b8a8c611b4e565b670de0b6b3a7640000611b4e565b600154604051639462ad6560e01b81526000600482018190529293506001600160a01b0390911690639462ad659060240160206040518083038186803b15801561156157600080fd5b505afa158015611575573d6000803e3d6000fd5b505050506040513d601f19601f820116820180604052508101906115999190611f10565b9050600060018560018111156115b1576115b1611e82565b146115bd5760016115c1565b6000195b604051632862f4af60e11b8152600481018c905260248101899052604481018b9052606481018a905261166c9073__$1f0b044773d651c90510525d7b74bc2ba4$__906350c5e95e9060840160206040518083038186803b15801561162557600080fd5b505af4158015611639573d6000803e3d6000fd5b505050506040513d601f19601f8201168201806040525081019061165d9190611f10565b88670de0b6b3a7640000611b4e565b611676919061213a565b61168090836121bf565b9050600061169989600654670de0b6b3a7640000611b4e565b905060026116a8858484611bfc565b6116b3868685611bfc565b6116bd9190611fac565b6116c79190612200565b9b9a5050505050505050505050565b60085460009060ff16156117785760015460048054600954604051633814e1ad60e11b81529283018690526001600160a01b039182166024840152604483015290911690637029c35a90606401602060405180830381600087803b15801561173d57600080fd5b505af1158015611751573d6000803e3d6000fd5b505050506040513d601f19601f820116820180604052508101906117759190611f10565b90505b60085460ff166118445760015460048054600954600a546040516370426cb160e11b81529384018790526001600160a01b03928316602485015260448401919091526064830152600092169063e084d96290608401600060405180830381600087803b1580156117e757600080fd5b505af11580156117fb573d6000803e3d6000fd5b505050506040513d6000823e601f3d908101601f191682016040526118239190810190612238565b905080600181518110611838576118386122f6565b60200260200101519150505b919050565b60085460009060ff16156118eb576001546004805460095460405163031b9a1760e61b81529283018690526001600160a01b03918216602484015260448301529091169063c6e685c0906064016040805180830381600087803b1580156118af57600080fd5b505af11580156118c3573d6000803e3d6000fd5b505050506040513d601f19601f820116820180604052508101906118e7919061203e565b5090505b60085460ff166118445760015460048054600954600a546040516317e8e22b60e01b81529384018790526001600160a01b0392831660248501526044840191909152606483015260009216906317e8e22b90608401600060405180830381600087803b15801561195a57600080fd5b505af115801561196e573d6000803e3d6000fd5b505050506040513d6000823e601f3d908101601f191682016040526119969190810190612238565b905080600081518110611838576118386122f6565b606060006119ba83600261230c565b6119c5906002611fac565b67ffffffffffffffff8111156119dd576119dd612222565b6040519080825280601f01601f191660200182016040528015611a07576020820181803683370190505b509050600360fc1b81600081518110611a2257611a226122f6565b60200101906001600160f81b031916908160001a905350600f60fb1b81600181518110611a5157611a516122f6565b60200101906001600160f81b031916908160001a9053506000611a7584600261230c565b611a80906001611fac565b90505b6001811115611af8576f181899199a1a9b1b9c1cb0b131b232b360811b85600f1660108110611ab457611ab46122f6565b1a60f81b828281518110611aca57611aca6122f6565b60200101906001600160f81b031916908160001a90535060049490941c93611af18161232b565b9050611a83565b508315611b475760405162461bcd60e51b815260206004820181905260248201527f537472696e67733a20686578206c656e67746820696e73756666696369656e7460448201526064016103d2565b9392505050565b600080806000198587098587029250828110838203039150508060001415611b885760008411611b7d57600080fd5b508290049050611b47565b808411611b9457600080fd5b600084868809600260036001881981018916988990049182028318808302840302808302840302808302840302808302840302808302840302918202909203026000889003889004909101858311909403939093029303949094049190911702949350505050565b6000670de0b6b3a764000081841215611c3757611c2a611c1b85611fc4565b670de0b6b3a764000087611b4e565b611c3490826121bf565b90505b6000841315611c6057611c5384670de0b6b3a764000087611b4e565b611c5d9082612342565b90505b600081131580611c71575060028112155b611cbd5760405162461bcd60e51b815260206004820152601860248201527f4361706163697479206c696d69742062726561636865642e000000000000000060448201526064016103d2565b82611cd184670de0b6b3a764000084611b4e565b611cdb9190611fe1565b95945050505050565b600060208284031215611cf657600080fd5b81356001600160e01b031981168114611b4757600080fd5b600060208284031215611d2057600080fd5b5035919050565b6001600160a01b0381168114611d3c57600080fd5b50565b60008060408385031215611d5257600080fd5b823591506020830135611d6481611d27565b809150509250929050565b60028110611d3c57600080fd5b600080600080600080600080610100898b031215611d9957600080fd5b8835975060208901359650604089013595506060890135611db981611d6f565b94506080890135611dc981611d6f565b979a969950949793969560a0850135955060c08501359460e001359350915050565b60008060008060808587031215611e0157600080fd5b8435935060208501359250604085013591506060850135611e2181611d6f565b939692955090935050565b600080600080600060a08688031215611e4457600080fd5b8535945060208601359350604086013592506060860135611e6481611d6f565b91506080860135611e7481611d6f565b809150509295509295909350565b634e487b7160e01b600052602160045260246000fd5b60028110611d3c57634e487b7160e01b600052602160045260246000fd5b89815260208101899052604081018890526101208101611ed588611e98565b876060830152611ee487611e98565b608082019690965260a081019490945260c084019290925260e083015261010090910152949350505050565b600060208284031215611f2257600080fd5b5051919050565b600060208284031215611f3b57600080fd5b8151611b4781611d27565b600060208284031215611f5857600080fd5b81518015158114611b4757600080fd5b600080600060608486031215611f7d57600080fd5b8351925060208401519150604084015190509250925092565b634e487b7160e01b600052601160045260246000fd5b60008219821115611fbf57611fbf611f96565b500190565b6000600160ff1b821415611fda57611fda611f96565b5060000390565b600082821015611ff357611ff3611f96565b500390565b600060c08201905087825286602083015285604083015284606083015261201e84611e98565b83608083015261202d83611e98565b8260a0830152979650505050505050565b6000806040838503121561205157600080fd5b505080516020909101519092909150565b60005b8381101561207d578181015183820152602001612065565b8381111561208c576000848401525b50505050565b7f416363657373436f6e74726f6c3a206163636f756e74200000000000000000008152600083516120ca816017850160208801612062565b7001034b99036b4b9b9b4b733903937b6329607d1b60179184019182015283516120fb816028840160208801612062565b01602801949350505050565b6020815260008251806020840152612126816040850160208701612062565b601f01601f19169190910160400192915050565b60006001600160ff1b038184138284138082168684048611161561216057612160611f96565b600160ff1b600087128281168783058912161561217f5761217f611f96565b6000871292508782058712848416161561219b5761219b611f96565b878505871281841616156121b1576121b1611f96565b505050929093029392505050565b600080821280156001600160ff1b03849003851316156121e1576121e1611f96565b600160ff1b83900384128116156121fa576121fa611f96565b50500190565b60008261221d57634e487b7160e01b600052601260045260246000fd5b500490565b634e487b7160e01b600052604160045260246000fd5b6000602080838503121561224b57600080fd5b825167ffffffffffffffff8082111561226357600080fd5b818501915085601f83011261227757600080fd5b81518181111561228957612289612222565b8060051b604051601f19603f830116810181811085821117156122ae576122ae612222565b6040529182528482019250838101850191888311156122cc57600080fd5b938501935b828510156122ea578451845293850193928501926122d1565b98975050505050505050565b634e487b7160e01b600052603260045260246000fd5b600081600019048311821515161561232657612326611f96565b500290565b60008161233a5761233a611f96565b506000190190565b60008083128015600160ff1b85018412161561236057612360611f96565b6001600160ff1b038401831381161561237b5761237b611f96565b5050039056fea2646970667358221220fa1231429319de9aa04370bba438a3e5add32d9839db8e22375d69384b80c97a64736f6c63430008090033",
    "sourcePath": "/Users/mac/Documents/GitHub/moret/contracts/Exchange.sol",
    "compiler": {
        "name": "solc",
        "version": "0.8.9+commit.e5eed63a"
    },
    "functionHashes": {
        "ADMIN_ROLE()": "75b238fc",
        "DEFAULT_ADMIN_ROLE()": "a217fddf",
        "MINER_ROLE()": "6394f6e6",
        "exchangeDeadlineLag()": "81948219",
        "exchangeSlippageDown()": "92c278ef",
        "exchangeSlippageMax()": "0b83e483",
        "exchangeSlippageUp()": "27251b14",
        "executeHedgeTrades()": "75bf05cf",
        "getRoleAdmin(bytes32)": "248a9ca3",
        "grantRole(bytes32,address)": "2f2ff15d",
        "hasRole(bytes32,address)": "91d14854",
        "loanInterest()": "a7292ea4",
        "purchaseOption(uint256,uint256,uint256,uint8,uint8,uint256,uint256,uint256)": "31995128",
        "queryOptionCost(uint256,uint256,uint256,uint8,uint8)": "76df2d08",
        "queryOptionVolatility(uint256,uint256,uint256,uint8)": "6a7d116f",
        "queryPrice()": "b0667cf8",
        "queryVol(uint256)": "cfc2dc20",
        "renounceRole(bytes32,address)": "36568abe",
        "resetRiskPremiumMaxRatio(uint256)": "85e6be8b",
        "revokeRole(bytes32,address)": "d547741f",
        "supportsInterface(bytes4)": "01ffc9a7",
        "volRiskPremiumMaxRatio()": "0875c6b1"
    },
    "gasEstimates": {
        "creation": {
            "codeDepositCost": "1828600",
            "executionCost": "infinite",
            "totalCost": "infinite"
        },
        "external": {
            "ADMIN_ROLE()": "328",
            "DEFAULT_ADMIN_ROLE()": "239",
            "MINER_ROLE()": "284",
            "exchangeDeadlineLag()": "2362",
            "exchangeSlippageDown()": "2317",
            "exchangeSlippageMax()": "2363",
            "exchangeSlippageUp()": "2407",
            "executeHedgeTrades()": "infinite",
            "getRoleAdmin(bytes32)": "2537",
            "grantRole(bytes32,address)": "infinite",
            "hasRole(bytes32,address)": "2761",
            "loanInterest()": "2361",
            "purchaseOption(uint256,uint256,uint256,uint8,uint8,uint256,uint256,uint256)": "infinite",
            "queryOptionCost(uint256,uint256,uint256,uint8,uint8)": "infinite",
            "queryOptionVolatility(uint256,uint256,uint256,uint8)": "infinite",
            "queryPrice()": "infinite",
            "queryVol(uint256)": "infinite",
            "renounceRole(bytes32,address)": "29061",
            "resetRiskPremiumMaxRatio(uint256)": "infinite",
            "revokeRole(bytes32,address)": "infinite",
            "supportsInterface(bytes4)": "450",
            "volRiskPremiumMaxRatio()": "2341"
        },
        "internal": {
            "calcRiskPremium(uint256,uint256,uint256,uint256,uint256,enum OptionLibrary.OptionSide)": "infinite",
            "calcRiskPremiumAMM(uint256,int256,uint256)": "702",
            "swapToFunding(uint256)": "infinite",
            "swapToUnderlying(uint256)": "infinite"
        }
    }
}