{
  "contractName": "Exchange",
  "abi": [
    {
      "inputs": [
        {
          "internalType": "address",
          "name": "_marketMakerAddress",
          "type": "address"
        },
        {
          "internalType": "address",
          "name": "_optionAddress",
          "type": "address"
        }
      ],
      "stateMutability": "nonpayable",
      "type": "constructor"
    },
    {
      "anonymous": false,
      "inputs": [
        {
          "indexed": true,
          "internalType": "bytes32",
          "name": "role",
          "type": "bytes32"
        },
        {
          "indexed": true,
          "internalType": "bytes32",
          "name": "previousAdminRole",
          "type": "bytes32"
        },
        {
          "indexed": true,
          "internalType": "bytes32",
          "name": "newAdminRole",
          "type": "bytes32"
        }
      ],
      "name": "RoleAdminChanged",
      "type": "event"
    },
    {
      "anonymous": false,
      "inputs": [
        {
          "indexed": true,
          "internalType": "bytes32",
          "name": "role",
          "type": "bytes32"
        },
        {
          "indexed": true,
          "internalType": "address",
          "name": "account",
          "type": "address"
        },
        {
          "indexed": true,
          "internalType": "address",
          "name": "sender",
          "type": "address"
        }
      ],
      "name": "RoleGranted",
      "type": "event"
    },
    {
      "anonymous": false,
      "inputs": [
        {
          "indexed": true,
          "internalType": "bytes32",
          "name": "role",
          "type": "bytes32"
        },
        {
          "indexed": true,
          "internalType": "address",
          "name": "account",
          "type": "address"
        },
        {
          "indexed": true,
          "internalType": "address",
          "name": "sender",
          "type": "address"
        }
      ],
      "name": "RoleRevoked",
      "type": "event"
    },
    {
      "anonymous": false,
      "inputs": [
        {
          "indexed": false,
          "internalType": "address",
          "name": "_recipient",
          "type": "address"
        },
        {
          "indexed": false,
          "internalType": "uint256",
          "name": "_mintMPTokenAmount",
          "type": "uint256"
        },
        {
          "indexed": false,
          "internalType": "uint256",
          "name": "_addedValue",
          "type": "uint256"
        }
      ],
      "name": "capitalAdded",
      "type": "event"
    },
    {
      "anonymous": false,
      "inputs": [
        {
          "indexed": false,
          "internalType": "address",
          "name": "_recipient",
          "type": "address"
        },
        {
          "indexed": false,
          "internalType": "uint256",
          "name": "_burnMPTokenAmount",
          "type": "uint256"
        },
        {
          "indexed": false,
          "internalType": "uint256",
          "name": "_withdrawValue",
          "type": "uint256"
        }
      ],
      "name": "capitalWithdrawn",
      "type": "event"
    },
    {
      "anonymous": false,
      "inputs": [
        {
          "indexed": true,
          "internalType": "address",
          "name": "_purchaser",
          "type": "address"
        },
        {
          "components": [
            {
              "internalType": "enum OptionLibrary.PayoffType",
              "name": "poType",
              "type": "uint8"
            },
            {
              "internalType": "enum OptionLibrary.OptionSide",
              "name": "side",
              "type": "uint8"
            },
            {
              "internalType": "enum OptionLibrary.OptionStatus",
              "name": "status",
              "type": "uint8"
            },
            {
              "internalType": "address",
              "name": "holder",
              "type": "address"
            },
            {
              "internalType": "uint256",
              "name": "id",
              "type": "uint256"
            },
            {
              "internalType": "uint256",
              "name": "createTime",
              "type": "uint256"
            },
            {
              "internalType": "uint256",
              "name": "effectiveTime",
              "type": "uint256"
            },
            {
              "internalType": "uint256",
              "name": "tenor",
              "type": "uint256"
            },
            {
              "internalType": "uint256",
              "name": "maturity",
              "type": "uint256"
            },
            {
              "internalType": "uint256",
              "name": "exerciseTime",
              "type": "uint256"
            },
            {
              "internalType": "uint256",
              "name": "amount",
              "type": "uint256"
            },
            {
              "internalType": "uint256",
              "name": "spot",
              "type": "uint256"
            },
            {
              "internalType": "uint256",
              "name": "strike",
              "type": "uint256"
            },
            {
              "internalType": "uint256",
              "name": "volatility",
              "type": "uint256"
            },
            {
              "internalType": "uint256",
              "name": "premium",
              "type": "uint256"
            },
            {
              "internalType": "uint256",
              "name": "cost",
              "type": "uint256"
            }
          ],
          "indexed": false,
          "internalType": "struct OptionLibrary.Option",
          "name": "_option",
          "type": "tuple"
        },
        {
          "indexed": false,
          "internalType": "uint256",
          "name": "_cost",
          "type": "uint256"
        },
        {
          "indexed": false,
          "internalType": "bool",
          "name": "_inVol",
          "type": "bool"
        }
      ],
      "name": "newOptionBought",
      "type": "event"
    },
    {
      "anonymous": false,
      "inputs": [
        {
          "indexed": false,
          "internalType": "address",
          "name": "_purchaser",
          "type": "address"
        },
        {
          "indexed": false,
          "internalType": "uint256",
          "name": "_time",
          "type": "uint256"
        },
        {
          "indexed": false,
          "internalType": "uint256",
          "name": "_tenor",
          "type": "uint256"
        },
        {
          "indexed": false,
          "internalType": "uint256",
          "name": "_amount",
          "type": "uint256"
        }
      ],
      "name": "newVolatilityTokenBought",
      "type": "event"
    },
    {
      "anonymous": false,
      "inputs": [
        {
          "indexed": true,
          "internalType": "address",
          "name": "_purchaser",
          "type": "address"
        },
        {
          "components": [
            {
              "internalType": "enum OptionLibrary.PayoffType",
              "name": "poType",
              "type": "uint8"
            },
            {
              "internalType": "enum OptionLibrary.OptionSide",
              "name": "side",
              "type": "uint8"
            },
            {
              "internalType": "enum OptionLibrary.OptionStatus",
              "name": "status",
              "type": "uint8"
            },
            {
              "internalType": "address",
              "name": "holder",
              "type": "address"
            },
            {
              "internalType": "uint256",
              "name": "id",
              "type": "uint256"
            },
            {
              "internalType": "uint256",
              "name": "createTime",
              "type": "uint256"
            },
            {
              "internalType": "uint256",
              "name": "effectiveTime",
              "type": "uint256"
            },
            {
              "internalType": "uint256",
              "name": "tenor",
              "type": "uint256"
            },
            {
              "internalType": "uint256",
              "name": "maturity",
              "type": "uint256"
            },
            {
              "internalType": "uint256",
              "name": "exerciseTime",
              "type": "uint256"
            },
            {
              "internalType": "uint256",
              "name": "amount",
              "type": "uint256"
            },
            {
              "internalType": "uint256",
              "name": "spot",
              "type": "uint256"
            },
            {
              "internalType": "uint256",
              "name": "strike",
              "type": "uint256"
            },
            {
              "internalType": "uint256",
              "name": "volatility",
              "type": "uint256"
            },
            {
              "internalType": "uint256",
              "name": "premium",
              "type": "uint256"
            },
            {
              "internalType": "uint256",
              "name": "cost",
              "type": "uint256"
            }
          ],
          "indexed": false,
          "internalType": "struct OptionLibrary.Option",
          "name": "_option",
          "type": "tuple"
        },
        {
          "indexed": false,
          "internalType": "uint256",
          "name": "_payoff",
          "type": "uint256"
        }
      ],
      "name": "optionExercised",
      "type": "event"
    },
    {
      "inputs": [],
      "name": "DEFAULT_ADMIN_ROLE",
      "outputs": [
        {
          "internalType": "bytes32",
          "name": "",
          "type": "bytes32"
        }
      ],
      "stateMutability": "view",
      "type": "function"
    },
    {
      "inputs": [],
      "name": "allowTrading",
      "outputs": [
        {
          "internalType": "bool",
          "name": "",
          "type": "bool"
        }
      ],
      "stateMutability": "view",
      "type": "function"
    },
    {
      "inputs": [
        {
          "internalType": "bytes32",
          "name": "role",
          "type": "bytes32"
        }
      ],
      "name": "getRoleAdmin",
      "outputs": [
        {
          "internalType": "bytes32",
          "name": "",
          "type": "bytes32"
        }
      ],
      "stateMutability": "view",
      "type": "function"
    },
    {
      "inputs": [
        {
          "internalType": "bytes32",
          "name": "role",
          "type": "bytes32"
        },
        {
          "internalType": "address",
          "name": "account",
          "type": "address"
        }
      ],
      "name": "grantRole",
      "outputs": [],
      "stateMutability": "nonpayable",
      "type": "function"
    },
    {
      "inputs": [
        {
          "internalType": "bytes32",
          "name": "role",
          "type": "bytes32"
        },
        {
          "internalType": "address",
          "name": "account",
          "type": "address"
        }
      ],
      "name": "hasRole",
      "outputs": [
        {
          "internalType": "bool",
          "name": "",
          "type": "bool"
        }
      ],
      "stateMutability": "view",
      "type": "function"
    },
    {
      "inputs": [],
      "name": "loanInterest",
      "outputs": [
        {
          "internalType": "uint256",
          "name": "",
          "type": "uint256"
        }
      ],
      "stateMutability": "view",
      "type": "function"
    },
    {
      "inputs": [],
      "name": "marketMakerAddress",
      "outputs": [
        {
          "internalType": "address",
          "name": "",
          "type": "address"
        }
      ],
      "stateMutability": "view",
      "type": "function"
    },
    {
      "inputs": [
        {
          "internalType": "bytes32",
          "name": "role",
          "type": "bytes32"
        },
        {
          "internalType": "address",
          "name": "account",
          "type": "address"
        }
      ],
      "name": "renounceRole",
      "outputs": [],
      "stateMutability": "nonpayable",
      "type": "function"
    },
    {
      "inputs": [
        {
          "internalType": "bytes32",
          "name": "role",
          "type": "bytes32"
        },
        {
          "internalType": "address",
          "name": "account",
          "type": "address"
        }
      ],
      "name": "revokeRole",
      "outputs": [],
      "stateMutability": "nonpayable",
      "type": "function"
    },
    {
      "inputs": [
        {
          "internalType": "bytes4",
          "name": "interfaceId",
          "type": "bytes4"
        }
      ],
      "name": "supportsInterface",
      "outputs": [
        {
          "internalType": "bool",
          "name": "",
          "type": "bool"
        }
      ],
      "stateMutability": "view",
      "type": "function"
    },
    {
      "inputs": [],
      "name": "volRiskPremiumMaxRatio",
      "outputs": [
        {
          "internalType": "uint256",
          "name": "",
          "type": "uint256"
        }
      ],
      "stateMutability": "view",
      "type": "function"
    },
    {
      "inputs": [
        {
          "internalType": "uint256",
          "name": "_tenor",
          "type": "uint256"
        },
        {
          "internalType": "uint256",
          "name": "_strike",
          "type": "uint256"
        },
        {
          "internalType": "uint256",
          "name": "_amount",
          "type": "uint256"
        },
        {
          "internalType": "enum OptionLibrary.PayoffType",
          "name": "_poType",
          "type": "uint8"
        },
        {
          "internalType": "enum OptionLibrary.OptionSide",
          "name": "_side",
          "type": "uint8"
        }
      ],
      "name": "calcOptionCost",
      "outputs": [
        {
          "internalType": "uint256",
          "name": "_premium",
          "type": "uint256"
        },
        {
          "internalType": "uint256",
          "name": "_cost",
          "type": "uint256"
        },
        {
          "internalType": "uint256",
          "name": "_price",
          "type": "uint256"
        },
        {
          "internalType": "uint256",
          "name": "_vol",
          "type": "uint256"
        }
      ],
      "stateMutability": "view",
      "type": "function"
    },
    {
      "inputs": [
        {
          "internalType": "uint256",
          "name": "_tenor",
          "type": "uint256"
        },
        {
          "internalType": "uint256",
          "name": "_strike",
          "type": "uint256"
        },
        {
          "internalType": "uint256",
          "name": "_amount",
          "type": "uint256"
        },
        {
          "internalType": "enum OptionLibrary.OptionSide",
          "name": "_side",
          "type": "uint8"
        }
      ],
      "name": "queryOptionVolatility",
      "outputs": [
        {
          "internalType": "uint256",
          "name": "_vol",
          "type": "uint256"
        }
      ],
      "stateMutability": "view",
      "type": "function"
    },
    {
      "inputs": [
        {
          "internalType": "uint256",
          "name": "_tenor",
          "type": "uint256"
        },
        {
          "internalType": "uint256",
          "name": "_strike",
          "type": "uint256"
        },
        {
          "internalType": "uint256",
          "name": "_amount",
          "type": "uint256"
        },
        {
          "internalType": "enum OptionLibrary.PayoffType",
          "name": "_poType",
          "type": "uint8"
        },
        {
          "internalType": "enum OptionLibrary.OptionSide",
          "name": "_side",
          "type": "uint8"
        },
        {
          "internalType": "uint256",
          "name": "_payInCost",
          "type": "uint256"
        }
      ],
      "name": "purchaseOption",
      "outputs": [],
      "stateMutability": "nonpayable",
      "type": "function"
    },
    {
      "inputs": [
        {
          "internalType": "uint256",
          "name": "_id",
          "type": "uint256"
        }
      ],
      "name": "getOptionPayoffValue",
      "outputs": [
        {
          "internalType": "uint256",
          "name": "_payback",
          "type": "uint256"
        }
      ],
      "stateMutability": "view",
      "type": "function"
    },
    {
      "inputs": [
        {
          "internalType": "uint256",
          "name": "_loanInterest",
          "type": "uint256"
        }
      ],
      "name": "resetLoanRate",
      "outputs": [],
      "stateMutability": "nonpayable",
      "type": "function"
    },
    {
      "inputs": [
        {
          "internalType": "uint256",
          "name": "_newRatio",
          "type": "uint256"
        }
      ],
      "name": "resetRiskPremiumMaxRatio",
      "outputs": [],
      "stateMutability": "nonpayable",
      "type": "function"
    },
    {
      "inputs": [
        {
          "internalType": "bool",
          "name": "_allowTrading",
          "type": "bool"
        }
      ],
      "name": "resetTrading",
      "outputs": [],
      "stateMutability": "nonpayable",
      "type": "function"
    },
    {
      "inputs": [],
      "name": "queryPrice",
      "outputs": [
        {
          "internalType": "uint256",
          "name": "",
          "type": "uint256"
        },
        {
          "internalType": "uint256",
          "name": "",
          "type": "uint256"
        }
      ],
      "stateMutability": "view",
      "type": "function"
    },
    {
      "inputs": [
        {
          "internalType": "uint256",
          "name": "_tenor",
          "type": "uint256"
        }
      ],
      "name": "queryVol",
      "outputs": [
        {
          "internalType": "uint256",
          "name": "",
          "type": "uint256"
        }
      ],
      "stateMutability": "view",
      "type": "function"
    }
  ],
  "bytecode": "0x60806040526718fae27693b4000060045560006005556001600660006101000a81548160ff0219169083151502179055503480156200003d57600080fd5b506040516200389838038062003898833981810160405281019062000063919062000326565b620000786000801b336200014360201b60201c565b80600360006101000a81548173ffffffffffffffffffffffffffffffffffffffff021916908373ffffffffffffffffffffffffffffffffffffffff16021790555081600160006101000a81548173ffffffffffffffffffffffffffffffffffffffff021916908373ffffffffffffffffffffffffffffffffffffffff16021790555081600260006101000a81548173ffffffffffffffffffffffffffffffffffffffff021916908373ffffffffffffffffffffffffffffffffffffffff16021790555050506200036d565b6200015582826200015960201b60201c565b5050565b6200016b82826200024a60201b60201c565b6200024657600160008084815260200190815260200160002060000160008373ffffffffffffffffffffffffffffffffffffffff1673ffffffffffffffffffffffffffffffffffffffff16815260200190815260200160002060006101000a81548160ff021916908315150217905550620001eb620002b460201b60201c565b73ffffffffffffffffffffffffffffffffffffffff168173ffffffffffffffffffffffffffffffffffffffff16837f2f8788117e7eff1d82e926ec794901d17c78024a50270940304540a733656f0d60405160405180910390a45b5050565b600080600084815260200190815260200160002060000160008373ffffffffffffffffffffffffffffffffffffffff1673ffffffffffffffffffffffffffffffffffffffff16815260200190815260200160002060009054906101000a900460ff16905092915050565b600033905090565b600080fd5b600073ffffffffffffffffffffffffffffffffffffffff82169050919050565b6000620002ee82620002c1565b9050919050565b6200030081620002e1565b81146200030c57600080fd5b50565b6000815190506200032081620002f5565b92915050565b6000806040838503121562000340576200033f620002bc565b5b600062000350858286016200030f565b925050602062000363858286016200030f565b9150509250929050565b61351b806200037d6000396000f3fe608060405234801561001057600080fd5b506004361061012c5760003560e01c8063896b5b1d116100ad578063a7292ea411610071578063a7292ea414610356578063b0667cf814610374578063cc91058814610393578063cfc2dc20146103b1578063d547741f146103e15761012c565b8063896b5b1d1461029d5780638d4939c6146102d057806391d14854146102ec578063a217fddf1461031c578063a34a1e4d1461033a5761012c565b80632f2ff15d116100f45780632f2ff15d146101e957806336568abe1461020557806340d6eaab146102215780636a7d116f1461025157806385e6be8b146102815761012c565b806301ffc9a7146101315780630875c6b1146101615780630c64307d1461017f578063248a9ca31461019b5780632e5b4c43146101cb575b600080fd5b61014b600480360381019061014691906121e6565b6103fd565b604051610158919061222e565b60405180910390f35b610169610477565b6040516101769190612262565b60405180910390f35b610199600480360381019061019491906122a9565b61047d565b005b6101b560048036038101906101b0919061230c565b61049d565b6040516101c29190612348565b60405180910390f35b6101d36104bc565b6040516101e0919061222e565b60405180910390f35b61020360048036038101906101fe91906123c1565b6104cf565b005b61021f600480360381019061021a91906123c1565b6104f8565b005b61023b600480360381019061023691906122a9565b61057b565b6040516102489190612262565b60405180910390f35b61026b60048036038101906102669190612426565b610632565b6040516102789190612262565b60405180910390f35b61029b600480360381019061029691906122a9565b6107a8565b005b6102b760048036038101906102b291906124b2565b6107c8565b6040516102c7949392919061252d565b60405180910390f35b6102ea60048036038101906102e5919061259e565b610e1a565b005b610306600480360381019061030191906123c1565b610e4d565b604051610313919061222e565b60405180910390f35b610324610eb7565b6040516103319190612348565b60405180910390f35b610354600480360381019061034f91906125cb565b610ebe565b005b61035e6112e4565b60405161036b9190612262565b60405180910390f35b61037c6112ea565b60405161038a929190612658565b60405180910390f35b61039b611394565b6040516103a89190612690565b60405180910390f35b6103cb60048036038101906103c691906122a9565b6113ba565b6040516103d89190612262565b60405180910390f35b6103fb60048036038101906103f691906123c1565b61146e565b005b60007f7965db0b000000000000000000000000000000000000000000000000000000007bffffffffffffffffffffffffffffffffffffffffffffffffffffffff1916827bffffffffffffffffffffffffffffffffffffffffffffffffffffffff19161480610470575061046f82611497565b5b9050919050565b60045481565b6000801b6104928161048d611501565b611509565b816005819055505050565b6000806000838152602001908152602001600020600101549050919050565b600660009054906101000a900460ff1681565b6104d88261049d565b6104e9816104e4611501565b611509565b6104f383836115a6565b505050565b610500611501565b73ffffffffffffffffffffffffffffffffffffffff168173ffffffffffffffffffffffffffffffffffffffff161461056d576040517f08c379a00000000000000000000000000000000000000000000000000000000081526004016105649061272e565b60405180910390fd5b6105778282611686565b5050565b6000600360009054906101000a900473ffffffffffffffffffffffffffffffffffffffff1673ffffffffffffffffffffffffffffffffffffffff166385ae10e6836040518263ffffffff1660e01b81526004016105d89190612262565b604080518083038186803b1580156105ef57600080fd5b505afa158015610603573d6000803e3d6000fd5b505050506040513d601f19601f820116820180604052508101906106279190612763565b905080915050919050565b6000600360009054906101000a900473ffffffffffffffffffffffffffffffffffffffff1673ffffffffffffffffffffffffffffffffffffffff1663cfc2dc20866040518263ffffffff1660e01b815260040161068f9190612262565b60206040518083038186803b1580156106a757600080fd5b505afa1580156106bb573d6000803e3d6000fd5b505050506040513d601f19601f820116820180604052508101906106df91906127a3565b90506000600360009054906101000a900473ffffffffffffffffffffffffffffffffffffffff1673ffffffffffffffffffffffffffffffffffffffff1663b0667cf86040518163ffffffff1660e01b8152600401604080518083038186803b15801561074a57600080fd5b505afa15801561075e573d6000803e3d6000fd5b505050506040513d601f19601f820116820180604052508101906107829190612763565b5090506107928183878787611767565b8261079d91906127ff565b915050949350505050565b6000801b6107bd816107b8611501565b611509565b816004819055505050565b6000806000806107da89898988610632565b9050600073__OptionLibrary_________________________63508cd14e8a6000600260009054906101000a900473ffffffffffffffffffffffffffffffffffffffff1673ffffffffffffffffffffffffffffffffffffffff16631aedeabe6040518163ffffffff1660e01b815260040160206040518083038186803b15801561086357600080fd5b505afa158015610877573d6000803e3d6000fd5b505050506040513d601f19601f8201168201806040525081019061089b91906127a3565b60006040518563ffffffff1660e01b81526004016108bc94939291906128b8565b60206040518083038186803b1580156108d457600080fd5b505af41580156108e8573d6000803e3d6000fd5b505050506040513d601f19601f8201168201806040525081019061090c91906127a3565b9050600180811115610921576109206128fd565b5b876001811115610934576109336128fd565b5b1480156109655750600060018111156109505761094f6128fd565b5b866001811115610963576109626128fd565b5b145b806109c357506000600181111561097f5761097e6128fd565b5b876001811115610992576109916128fd565b5b1480156109c257506001808111156109ad576109ac6128fd565b5b8660018111156109c0576109bf6128fd565b5b145b5b15610afa5773__OptionLibrary_________________________63508cd14e8a6001600260009054906101000a900473ffffffffffffffffffffffffffffffffffffffff1673ffffffffffffffffffffffffffffffffffffffff16631aedeabe6040518163ffffffff1660e01b815260040160206040518083038186803b158015610a4d57600080fd5b505afa158015610a61573d6000803e3d6000fd5b505050506040513d601f19601f82011682018060405250810190610a8591906127a3565b6005546040518563ffffffff1660e01b8152600401610aa7949392919061292c565b60206040518083038186803b158015610abf57600080fd5b505af4158015610ad3573d6000803e3d6000fd5b505050506040513d601f19601f82011682018060405250810190610af791906127a3565b90505b600360009054906101000a900473ffffffffffffffffffffffffffffffffffffffff1673ffffffffffffffffffffffffffffffffffffffff166376df2d08828a858b8b6040518663ffffffff1660e01b8152600401610b5d959493929190612a01565b60606040518083038186803b158015610b7557600080fd5b505afa158015610b89573d6000803e3d6000fd5b505050506040513d601f19601f82011682018060405250810190610bad9190612a54565b80955081965082975050505073__MarketLibrary_________________________638170ce8086600260009054906101000a900473ffffffffffffffffffffffffffffffffffffffff1673ffffffffffffffffffffffffffffffffffffffff1663d3b7bfb46040518163ffffffff1660e01b815260040160206040518083038186803b158015610c3c57600080fd5b505afa158015610c50573d6000803e3d6000fd5b505050506040513d601f19601f82011682018060405250810190610c749190612abc565b6040518363ffffffff1660e01b8152600401610c91929190612af8565b60206040518083038186803b158015610ca957600080fd5b505af4158015610cbd573d6000803e3d6000fd5b505050506040513d601f19601f82011682018060405250810190610ce191906127a3565b945073__MarketLibrary_________________________638170ce8085600260009054906101000a900473ffffffffffffffffffffffffffffffffffffffff1673ffffffffffffffffffffffffffffffffffffffff1663d3b7bfb46040518163ffffffff1660e01b815260040160206040518083038186803b158015610d6657600080fd5b505afa158015610d7a573d6000803e3d6000fd5b505050506040513d601f19601f82011682018060405250810190610d9e9190612abc565b6040518363ffffffff1660e01b8152600401610dbb929190612af8565b60206040518083038186803b158015610dd357600080fd5b505af4158015610de7573d6000803e3d6000fd5b505050506040513d601f19601f82011682018060405250810190610e0b91906127a3565b93505095509550955095915050565b6000801b610e2f81610e2a611501565b611509565b81600660006101000a81548160ff0219169083151502179055505050565b600080600084815260200190815260200160002060000160008373ffffffffffffffffffffffffffffffffffffffff1673ffffffffffffffffffffffffffffffffffffffff16815260200190815260200160002060009054906101000a900460ff16905092915050565b6000801b81565b600660009054906101000a900460ff16610f0d576040517f08c379a0000000000000000000000000000000000000000000000000000000008152600401610f0490612b6d565b60405180910390fd5b600080600080610f208a8a8a8a8a6107c8565b935093509350935082851015610f6b576040517f08c379a0000000000000000000000000000000000000000000000000000000008152600401610f6290612bd9565b60405180910390fd5b6000600360009054906101000a900473ffffffffffffffffffffffffffffffffffffffff1673ffffffffffffffffffffffffffffffffffffffff1663f7327abd8c8c8c8c8c8b8b8b8b6040518a63ffffffff1660e01b8152600401610fd899989796959493929190612bf9565b602060405180830381600087803b158015610ff257600080fd5b505af1158015611006573d6000803e3d6000fd5b505050506040513d601f19601f8201168201806040525081019061102a91906127a3565b9050600260009054906101000a900473ffffffffffffffffffffffffffffffffffffffff1673ffffffffffffffffffffffffffffffffffffffff1663d3b7bfb46040518163ffffffff1660e01b815260040160206040518083038186803b15801561109457600080fd5b505afa1580156110a8573d6000803e3d6000fd5b505050506040513d601f19601f820116820180604052508101906110cc9190612abc565b73ffffffffffffffffffffffffffffffffffffffff166323b872dd33600260009054906101000a900473ffffffffffffffffffffffffffffffffffffffff16896040518463ffffffff1660e01b815260040161112a93929190612c86565b602060405180830381600087803b15801561114457600080fd5b505af1158015611158573d6000803e3d6000fd5b505050506040513d601f19601f8201168201806040525081019061117c9190612cd2565b6111bb576040517f08c379a00000000000000000000000000000000000000000000000000000000081526004016111b290612d4b565b60405180910390fd5b600360009054906101000a900473ffffffffffffffffffffffffffffffffffffffff1673ffffffffffffffffffffffffffffffffffffffff166328e493c1826040518263ffffffff1660e01b81526004016112169190612262565b600060405180830381600087803b15801561123057600080fd5b505af1158015611244573d6000803e3d6000fd5b50505050600260009054906101000a900473ffffffffffffffffffffffffffffffffffffffff1673ffffffffffffffffffffffffffffffffffffffff16638a9450fe33836040518363ffffffff1660e01b81526004016112a5929190612d6b565b600060405180830381600087803b1580156112bf57600080fd5b505af11580156112d3573d6000803e3d6000fd5b505050505050505050505050505050565b60055481565b600080600360009054906101000a900473ffffffffffffffffffffffffffffffffffffffff1673ffffffffffffffffffffffffffffffffffffffff1663b0667cf86040518163ffffffff1660e01b8152600401604080518083038186803b15801561135457600080fd5b505afa158015611368573d6000803e3d6000fd5b505050506040513d601f19601f8201168201806040525081019061138c9190612763565b915091509091565b600160009054906101000a900473ffffffffffffffffffffffffffffffffffffffff1681565b6000600360009054906101000a900473ffffffffffffffffffffffffffffffffffffffff1673ffffffffffffffffffffffffffffffffffffffff1663cfc2dc20836040518263ffffffff1660e01b81526004016114179190612262565b60206040518083038186803b15801561142f57600080fd5b505afa158015611443573d6000803e3d6000fd5b505050506040513d601f19601f8201168201806040525081019061146791906127a3565b9050919050565b6114778261049d565b61148881611483611501565b611509565b6114928383611686565b505050565b60007f01ffc9a7000000000000000000000000000000000000000000000000000000007bffffffffffffffffffffffffffffffffffffffffffffffffffffffff1916827bffffffffffffffffffffffffffffffffffffffffffffffffffffffff1916149050919050565b600033905090565b6115138282610e4d565b6115a2576115388173ffffffffffffffffffffffffffffffffffffffff166014611ba2565b6115468360001c6020611ba2565b604051602001611557929190612ea6565b6040516020818303038152906040526040517f08c379a00000000000000000000000000000000000000000000000000000000081526004016115999190612f2a565b60405180910390fd5b5050565b6115b08282610e4d565b61168257600160008084815260200190815260200160002060000160008373ffffffffffffffffffffffffffffffffffffffff1673ffffffffffffffffffffffffffffffffffffffff16815260200190815260200160002060006101000a81548160ff021916908315150217905550611627611501565b73ffffffffffffffffffffffffffffffffffffffff168173ffffffffffffffffffffffffffffffffffffffff16837f2f8788117e7eff1d82e926ec794901d17c78024a50270940304540a733656f0d60405160405180910390a45b5050565b6116908282610e4d565b1561176357600080600084815260200190815260200160002060000160008373ffffffffffffffffffffffffffffffffffffffff1673ffffffffffffffffffffffffffffffffffffffff16815260200190815260200160002060006101000a81548160ff021916908315150217905550611708611501565b73ffffffffffffffffffffffffffffffffffffffff168173ffffffffffffffffffffffffffffffffffffffff16837ff6391f5c32d9c69d2a47ea670b442974b53935d1edc7fd64eb21e047a839171b60405160405180910390a45b5050565b6000806118ac73__OptionLibrary_________________________639932b2be898a8a6040518463ffffffff1660e01b81526004016117a893929190612f4c565b60206040518083038186803b1580156117c057600080fd5b505af41580156117d4573d6000803e3d6000fd5b505050506040513d601f19601f820116820180604052508101906117f891906127a3565b600260009054906101000a900473ffffffffffffffffffffffffffffffffffffffff1673ffffffffffffffffffffffffffffffffffffffff1663634479026000806040518363ffffffff1660e01b8152600401611856929190612f83565b60206040518083038186803b15801561186e57600080fd5b505afa158015611882573d6000803e3d6000fd5b505050506040513d601f19601f820116820180604052508101906118a691906127a3565b89611dde565b90506000600260009054906101000a900473ffffffffffffffffffffffffffffffffffffffff1673ffffffffffffffffffffffffffffffffffffffff16639462ad6560006040518263ffffffff1660e01b815260040161190c919061222e565b60206040518083038186803b15801561192457600080fd5b505afa158015611938573d6000803e3d6000fd5b505050506040513d601f19601f8201168201806040525081019061195c9190612fe2565b90506000600180811115611973576119726128fd565b5b856001811115611986576119856128fd565b5b146119925760016119b4565b7fffffffffffffffffffffffffffffffffffffffffffffffffffffffffffffffff5b611ac473__OptionLibrary_________________________639932b2be8c8b8d6040518463ffffffff1660e01b81526004016119f293929190612f4c565b60206040518083038186803b158015611a0a57600080fd5b505af4158015611a1e573d6000803e3d6000fd5b505050506040513d601f19601f82011682018060405250810190611a4291906127a3565b8873__OptionLibrary_________________________63fd9b87636040518163ffffffff1660e01b815260040160206040518083038186803b158015611a8757600080fd5b505af4158015611a9b573d6000803e3d6000fd5b505050506040513d601f19601f82011682018060405250810190611abf91906127a3565b611dde565b611ace919061300f565b82611ad99190613126565b90506000611b658960045473__OptionLibrary_________________________63fd9b87636040518163ffffffff1660e01b815260040160206040518083038186803b158015611b2857600080fd5b505af4158015611b3c573d6000803e3d6000fd5b505050506040513d601f19601f82011682018060405250810190611b6091906127a3565b611dde565b90506002611b74858484611eda565b611b7f868685611eda565b611b8991906127ff565b611b9391906131e9565b94505050505095945050505050565b606060006002836002611bb5919061321a565b611bbf91906127ff565b67ffffffffffffffff811115611bd857611bd7613274565b5b6040519080825280601f01601f191660200182016040528015611c0a5781602001600182028036833780820191505090505b5090507f300000000000000000000000000000000000000000000000000000000000000081600081518110611c4257611c416132a3565b5b60200101907effffffffffffffffffffffffffffffffffffffffffffffffffffffffffffff1916908160001a9053507f780000000000000000000000000000000000000000000000000000000000000081600181518110611ca657611ca56132a3565b5b60200101907effffffffffffffffffffffffffffffffffffffffffffffffffffffffffffff1916908160001a90535060006001846002611ce6919061321a565b611cf091906127ff565b90505b6001811115611d90577f3031323334353637383961626364656600000000000000000000000000000000600f861660108110611d3257611d316132a3565b5b1a60f81b828281518110611d4957611d486132a3565b5b60200101907effffffffffffffffffffffffffffffffffffffffffffffffffffffffffffff1916908160001a905350600485901c945080611d89906132d2565b9050611cf3565b5060008414611dd4576040517f08c379a0000000000000000000000000000000000000000000000000000000008152600401611dcb90613348565b60405180910390fd5b8091505092915050565b600080600080198587098587029250828110838203039150506000811415611e195760008411611e0d57600080fd5b83820492505050611ed3565b808411611e2557600080fd5b60008486880990508281118203915080830392506000856001877fffffffffffffffffffffffffffffffffffffffffffffffffffffffffffffffff0301169050808604955080840493506001818260000304019050808302841793506000600287600302189050808702600203810290508087026002038102905080870260020381029050808702600203810290508087026002038102905080870260020381029050808502955050505050505b9392505050565b60008073__OptionLibrary_________________________63fd9b87636040518163ffffffff1660e01b815260040160206040518083038186803b158015611f2157600080fd5b505af4158015611f35573d6000803e3d6000fd5b505050506040513d601f19601f82011682018060405250810190611f5991906127a3565b9050600084121561200157611ff384611f7190613368565b73__OptionLibrary_________________________63fd9b87636040518163ffffffff1660e01b815260040160206040518083038186803b158015611fb557600080fd5b505af4158015611fc9573d6000803e3d6000fd5b505050506040513d601f19601f82011682018060405250810190611fed91906127a3565b87611dde565b81611ffe9190613126565b90505b600084131561209e576120908473__OptionLibrary_________________________63fd9b87636040518163ffffffff1660e01b815260040160206040518083038186803b15801561205257600080fd5b505af4158015612066573d6000803e3d6000fd5b505050506040513d601f19601f8201168201806040525081019061208a91906127a3565b87611dde565b8161209b91906133b1565b90505b6000811315806120af575060028112155b6120ee576040517f08c379a00000000000000000000000000000000000000000000000000000000081526004016120e590613491565b60405180910390fd5b826121758473__OptionLibrary_________________________63fd9b87636040518163ffffffff1660e01b815260040160206040518083038186803b15801561213757600080fd5b505af415801561214b573d6000803e3d6000fd5b505050506040513d601f19601f8201168201806040525081019061216f91906127a3565b84611dde565b61217f91906134b1565b9150509392505050565b600080fd5b60007fffffffff0000000000000000000000000000000000000000000000000000000082169050919050565b6121c38161218e565b81146121ce57600080fd5b50565b6000813590506121e0816121ba565b92915050565b6000602082840312156121fc576121fb612189565b5b600061220a848285016121d1565b91505092915050565b60008115159050919050565b61222881612213565b82525050565b6000602082019050612243600083018461221f565b92915050565b6000819050919050565b61225c81612249565b82525050565b60006020820190506122776000830184612253565b92915050565b61228681612249565b811461229157600080fd5b50565b6000813590506122a38161227d565b92915050565b6000602082840312156122bf576122be612189565b5b60006122cd84828501612294565b91505092915050565b6000819050919050565b6122e9816122d6565b81146122f457600080fd5b50565b600081359050612306816122e0565b92915050565b60006020828403121561232257612321612189565b5b6000612330848285016122f7565b91505092915050565b612342816122d6565b82525050565b600060208201905061235d6000830184612339565b92915050565b600073ffffffffffffffffffffffffffffffffffffffff82169050919050565b600061238e82612363565b9050919050565b61239e81612383565b81146123a957600080fd5b50565b6000813590506123bb81612395565b92915050565b600080604083850312156123d8576123d7612189565b5b60006123e6858286016122f7565b92505060206123f7858286016123ac565b9150509250929050565b6002811061240e57600080fd5b50565b60008135905061242081612401565b92915050565b600080600080608085870312156124405761243f612189565b5b600061244e87828801612294565b945050602061245f87828801612294565b935050604061247087828801612294565b925050606061248187828801612411565b91505092959194509250565b6002811061249a57600080fd5b50565b6000813590506124ac8161248d565b92915050565b600080600080600060a086880312156124ce576124cd612189565b5b60006124dc88828901612294565b95505060206124ed88828901612294565b94505060406124fe88828901612294565b935050606061250f8882890161249d565b925050608061252088828901612411565b9150509295509295909350565b60006080820190506125426000830187612253565b61254f6020830186612253565b61255c6040830185612253565b6125696060830184612253565b95945050505050565b61257b81612213565b811461258657600080fd5b50565b60008135905061259881612572565b92915050565b6000602082840312156125b4576125b3612189565b5b60006125c284828501612589565b91505092915050565b60008060008060008060c087890312156125e8576125e7612189565b5b60006125f689828a01612294565b965050602061260789828a01612294565b955050604061261889828a01612294565b945050606061262989828a0161249d565b935050608061263a89828a01612411565b92505060a061264b89828a01612294565b9150509295509295509295565b600060408201905061266d6000830185612253565b61267a6020830184612253565b9392505050565b61268a81612383565b82525050565b60006020820190506126a56000830184612681565b92915050565b600082825260208201905092915050565b7f416363657373436f6e74726f6c3a2063616e206f6e6c792072656e6f756e636560008201527f20726f6c657320666f722073656c660000000000000000000000000000000000602082015250565b6000612718602f836126ab565b9150612723826126bc565b604082019050919050565b600060208201905081810360008301526127478161270b565b9050919050565b60008151905061275d8161227d565b92915050565b6000806040838503121561277a57612779612189565b5b60006127888582860161274e565b92505060206127998582860161274e565b9150509250929050565b6000602082840312156127b9576127b8612189565b5b60006127c78482850161274e565b91505092915050565b7f4e487b7100000000000000000000000000000000000000000000000000000000600052601160045260246000fd5b600061280a82612249565b915061281583612249565b9250827fffffffffffffffffffffffffffffffffffffffffffffffffffffffffffffffff0382111561284a576128496127d0565b5b828201905092915050565b61285e81612249565b82525050565b61286d81612213565b82525050565b6000819050919050565b6000819050919050565b60006128a261289d61289884612873565b61287d565b612249565b9050919050565b6128b281612887565b82525050565b60006080820190506128cd6000830187612855565b6128da6020830186612864565b6128e76040830185612855565b6128f460608301846128a9565b95945050505050565b7f4e487b7100000000000000000000000000000000000000000000000000000000600052602160045260246000fd5b60006080820190506129416000830187612855565b61294e6020830186612864565b61295b6040830185612855565b6129686060830184612855565b95945050505050565b60028110612982576129816128fd565b5b50565b600081905061299382612971565b919050565b60006129a382612985565b9050919050565b6129b381612998565b82525050565b600281106129ca576129c96128fd565b5b50565b60008190506129db826129b9565b919050565b60006129eb826129cd565b9050919050565b6129fb816129e0565b82525050565b600060a082019050612a166000830188612253565b612a236020830187612253565b612a306040830186612253565b612a3d60608301856129aa565b612a4a60808301846129f2565b9695505050505050565b600080600060608486031215612a6d57612a6c612189565b5b6000612a7b8682870161274e565b9350506020612a8c8682870161274e565b9250506040612a9d8682870161274e565b9150509250925092565b600081519050612ab681612395565b92915050565b600060208284031215612ad257612ad1612189565b5b6000612ae084828501612aa7565b91505092915050565b612af281612383565b82525050565b6000604082019050612b0d6000830185612855565b612b1a6020830184612ae9565b9392505050565b7f54726164696e672073746f707065642100000000000000000000000000000000600082015250565b6000612b576010836126ab565b9150612b6282612b21565b602082019050919050565b60006020820190508181036000830152612b8681612b4a565b9050919050565b7f496e636f727265637420636f737420706169642e000000000000000000000000600082015250565b6000612bc36014836126ab565b9150612bce82612b8d565b602082019050919050565b60006020820190508181036000830152612bf281612bb6565b9050919050565b600061012082019050612c0f600083018c612253565b612c1c602083018b612253565b612c29604083018a612253565b612c3660608301896129aa565b612c4360808301886129f2565b612c5060a0830187612253565b612c5d60c0830186612253565b612c6a60e0830185612253565b612c78610100830184612253565b9a9950505050505050505050565b6000606082019050612c9b6000830186612681565b612ca86020830185612681565b612cb56040830184612253565b949350505050565b600081519050612ccc81612572565b92915050565b600060208284031215612ce857612ce7612189565b5b6000612cf684828501612cbd565b91505092915050565b7f4661696c6564207061796d656e742e0000000000000000000000000000000000600082015250565b6000612d35600f836126ab565b9150612d4082612cff565b602082019050919050565b60006020820190508181036000830152612d6481612d28565b9050919050565b6000604082019050612d806000830185612681565b612d8d6020830184612253565b9392505050565b600081905092915050565b7f416363657373436f6e74726f6c3a206163636f756e7420000000000000000000600082015250565b6000612dd5601783612d94565b9150612de082612d9f565b601782019050919050565b600081519050919050565b60005b83811015612e14578082015181840152602081019050612df9565b83811115612e23576000848401525b50505050565b6000612e3482612deb565b612e3e8185612d94565b9350612e4e818560208601612df6565b80840191505092915050565b7f206973206d697373696e6720726f6c6520000000000000000000000000000000600082015250565b6000612e90601183612d94565b9150612e9b82612e5a565b601182019050919050565b6000612eb182612dc8565b9150612ebd8285612e29565b9150612ec882612e83565b9150612ed48284612e29565b91508190509392505050565b6000601f19601f8301169050919050565b6000612efc82612deb565b612f0681856126ab565b9350612f16818560208601612df6565b612f1f81612ee0565b840191505092915050565b60006020820190508181036000830152612f448184612ef1565b905092915050565b6000606082019050612f616000830186612855565b612f6e6020830185612855565b612f7b6040830184612855565b949350505050565b6000604082019050612f98600083018561221f565b612fa5602083018461221f565b9392505050565b6000819050919050565b612fbf81612fac565b8114612fca57600080fd5b50565b600081519050612fdc81612fb6565b92915050565b600060208284031215612ff857612ff7612189565b5b600061300684828501612fcd565b91505092915050565b600061301a82612fac565b915061302583612fac565b9250827f7fffffffffffffffffffffffffffffffffffffffffffffffffffffffffffffff0482116000841360008413161615613064576130636127d0565b5b817f800000000000000000000000000000000000000000000000000000000000000005831260008412600084131616156130a1576130a06127d0565b5b827f800000000000000000000000000000000000000000000000000000000000000005821260008413600084121616156130de576130dd6127d0565b5b827f7fffffffffffffffffffffffffffffffffffffffffffffffffffffffffffffff058212600084126000841216161561311b5761311a6127d0565b5b828202905092915050565b600061313182612fac565b915061313c83612fac565b9250817f7fffffffffffffffffffffffffffffffffffffffffffffffffffffffffffffff03831360008312151615613177576131766127d0565b5b817f80000000000000000000000000000000000000000000000000000000000000000383126000831216156131af576131ae6127d0565b5b828201905092915050565b7f4e487b7100000000000000000000000000000000000000000000000000000000600052601260045260246000fd5b60006131f482612249565b91506131ff83612249565b92508261320f5761320e6131ba565b5b828204905092915050565b600061322582612249565b915061323083612249565b9250817fffffffffffffffffffffffffffffffffffffffffffffffffffffffffffffffff0483118215151615613269576132686127d0565b5b828202905092915050565b7f4e487b7100000000000000000000000000000000000000000000000000000000600052604160045260246000fd5b7f4e487b7100000000000000000000000000000000000000000000000000000000600052603260045260246000fd5b60006132dd82612249565b915060008214156132f1576132f06127d0565b5b600182039050919050565b7f537472696e67733a20686578206c656e67746820696e73756666696369656e74600082015250565b60006133326020836126ab565b915061333d826132fc565b602082019050919050565b6000602082019050818103600083015261336181613325565b9050919050565b600061337382612fac565b91507f80000000000000000000000000000000000000000000000000000000000000008214156133a6576133a56127d0565b5b816000039050919050565b60006133bc82612fac565b91506133c783612fac565b9250827f800000000000000000000000000000000000000000000000000000000000000001821260008412151615613402576134016127d0565b5b827f7fffffffffffffffffffffffffffffffffffffffffffffffffffffffffffffff01821360008412161561343a576134396127d0565b5b828203905092915050565b7f4361706163697479206c696d69742062726561636865642e0000000000000000600082015250565b600061347b6018836126ab565b915061348682613445565b602082019050919050565b600060208201905081810360008301526134aa8161346e565b9050919050565b60006134bc82612249565b91506134c783612249565b9250828210156134da576134d96127d0565b5b82820390509291505056fea2646970667358221220ac8e3df92e2fda0ba9ee32dc868d1e9e7d9c4f06897619ab983d231f512338d664736f6c63430008090033",
  "immutableReferences": {},
  "source": "// SPDX-License-Identifier: MIT\npragma solidity 0.8.9;\n\nimport \"@openzeppelin/contracts/token/ERC20/ERC20.sol\";\nimport \"@openzeppelin/contracts/access/AccessControl.sol\";\nimport \"@openzeppelin/contracts/utils/structs/EnumerableSet.sol\";\nimport \"@openzeppelin/contracts/utils/math/Math.sol\";\nimport \"./MoretInterfaces.sol\";\nimport \"./VolatilityToken.sol\";\nimport \"./MoretMarketMaker.sol\";\nimport \"./FullMath.sol\";\n\ncontract Exchange is AccessControl, EOption{\n  // bytes32 public constant MINER_ROLE = keccak256(\"MINER_ROLE\");\n  // OptionLibrary.Percent public volTransactionFees = OptionLibrary.Percent(5 * 10 ** 3, 10 ** 6);\n  // address public contractAddress;\n  address public marketMakerAddress;\n  // ERC20 internal underlyingToken; // used to pay premiums (vol token is alternative)\n  // mapping(uint256=>VolatilityToken) public volTokensList;\n\n  MoretMarketMaker internal marketMaker;\n  IOptionVault internal optionVault;\n\n  uint256 public volRiskPremiumMaxRatio= 18 * (10 ** 17);\n  uint256 public loanInterest = 0;\n\n  // ILendingPoolAddressesProvider internal lendingPoolAddressProvider;\n  // address internal swapRouterAddress;\n  // address internal aggregatorAddress;\n\n  // uint256 private constant ethMultiplier = 10 ** 18;\n  bool public allowTrading = true;\n  // uint256 lendingPoolRateMode = 2;\n  // bool internal useAggregator;\n  // uint256 public exchangeSlippageMax = 10 ** 16; // 1% max slippage allowed\n  // uint256 public exchangeDeadlineLag = 20; // 20s slippage time\n\n  constructor( address _marketMakerAddress,address _optionAddress){// address payable _volTokenAddress)\n    _setupRole(DEFAULT_ADMIN_ROLE, msg.sender);\n    // _setupRole(MINER_ROLE, msg.sender);\n    optionVault = IOptionVault(_optionAddress);\n    marketMakerAddress = _marketMakerAddress;\n    marketMaker = MoretMarketMaker(_marketMakerAddress);\n    // VolatilityToken _volToken = VolatilityToken(_volTokenAddress);\n    // volTokensList[_volToken.tenor()] = _volToken;\n    // contractAddress = address(this);\n    // underlyingToken = ERC20(marketMaker.underlyingAddress());\n    // swapRouterAddress = _swapRouterAddress;\n    // aggregatorAddress = _aggregatorAddress;\n    // lendingPoolAddressProvider = ILendingPoolAddressesProvider(_lendingPoolAddressProvider);\n    // useAggregator = false;\n    }\n\n  function calcOptionCost(uint256 _tenor, uint256 _strike, uint256 _amount, OptionLibrary.PayoffType _poType, OptionLibrary.OptionSide _side) public view returns(uint256 _premium, uint256 _cost, uint256 _price, uint256 _vol){\n    _vol = queryOptionVolatility(_tenor, _strike, _amount, _side);\n    uint256 _adjustedStrike = OptionLibrary.adjustSlippage(_strike, false, marketMaker.swapSlippage(), 0); // downward\n    if((_poType==OptionLibrary.PayoffType.Put && _side == OptionLibrary.OptionSide.Buy) || (_poType==OptionLibrary.PayoffType.Call && _side == OptionLibrary.OptionSide.Sell)){ \n      _adjustedStrike = OptionLibrary.adjustSlippage(_strike,true, marketMaker.swapSlippage(), loanInterest);}\n    (_premium, _cost, _price) = optionVault.queryOptionCost(_adjustedStrike, _amount, _vol, _poType, _side);\n    _premium = MarketLibrary.cvtDecimals(_premium, marketMaker.fundingAddress());\n    _cost = MarketLibrary.cvtDecimals(_cost, marketMaker.fundingAddress());}\n\n  function queryOptionVolatility(uint256 _tenor, uint256 _strike, uint256 _amount, OptionLibrary.OptionSide _side) public view returns(uint256 _vol){  \n    _vol = optionVault.queryVol(_tenor); // running vol\n    (uint256 _price,) = optionVault.queryPrice();\n    _vol += calcRiskPremium(_price, _vol, _strike, _amount, _side);}\n\n  function calcRiskPremium(uint256 _price, uint256 _vol, uint256 _strike, uint256 _amount,OptionLibrary.OptionSide _side) internal view returns(uint256) {\n    uint256 _maxGamma = MulDiv(OptionLibrary.calcGamma(_price, _price, _vol), marketMaker.calcCapital(false, false), _price);\n    int256 _currentGamma = marketMaker.getAggregateGamma(false); // include sells.\n    int256 _newGamma = _currentGamma + int256(MulDiv(OptionLibrary.calcGamma(_price, _strike, _vol), _amount, OptionLibrary.Multiplier() )) * (_side==OptionLibrary.OptionSide.Sell? -1: int(1));\n    uint256 _K = MulDiv(_vol, volRiskPremiumMaxRatio, OptionLibrary.Multiplier());\n    return (calcRiskPremiumAMM(_maxGamma, _currentGamma,  _K) + calcRiskPremiumAMM(_maxGamma, _newGamma, _K)) / 2;}\n\n  function calcRiskPremiumAMM(uint256 _max, int256 _input, uint256 _constant) internal pure returns(uint256) {\n    int256 _capacity = int256(OptionLibrary.Multiplier()); // capacity should be in (0,2)\n    if(_input < 0){_capacity +=  int256(MulDiv(uint256(-_input), OptionLibrary.Multiplier(), _max));}\n    if(_input > 0){ _capacity -= int256(MulDiv(uint256(_input) , OptionLibrary.Multiplier(), _max));}\n    require(_capacity<=0 || _capacity >= 2,\"Capacity limit breached.\");\n    return MulDiv(_constant, OptionLibrary.Multiplier(), uint256(_capacity)) - _constant;}\n\n  function purchaseOption(uint256 _tenor, uint256 _strike, uint256 _amount, OptionLibrary.PayoffType _poType, OptionLibrary.OptionSide _side, uint256 _payInCost) external {\n    require(allowTrading,\"Trading stopped!\");\n    (uint256 _premium, uint256 _cost, uint256 _price, uint256 _vol) = calcOptionCost(_tenor, _strike, _amount, _poType, _side );      \n    require(_payInCost >= _cost, \"Incorrect cost paid.\");\n    uint256 _id = optionVault.addOption(_tenor, _strike, _amount, _poType, _side, _premium, _cost, _price, _vol);\n    require(ERC20(marketMaker.fundingAddress()).transferFrom(msg.sender, address(marketMaker), _payInCost), 'Failed payment.');  \n    // emit newOptionBought(msg.sender, optionVault.getOption(_id), _payInCost, false);\n    optionVault.stampActiveOption(_id);\n    marketMaker.recordOptionPurchase(msg.sender, _id);}\n\n  function getOptionPayoffValue(uint256 _id) external view returns(uint256 _payback){\n    (,_payback) = optionVault.getContractPayoff(_id);}\n\n/* \n    function purchaseOptionInVol(uint256 _tenor, uint256 _strike, OptionLibrary.PayoffType _poType,\n      uint256 _amount, uint256 _payInCost)\n      external\n      {\n      uint256 _premium = queryOptionCost(_tenor, _strike, _amount, _poType,OptionLibrary.OptionSide.Buy );\n      uint256 _fee = MulDiv(_premium, settlementFee.numerator, settlementFee.denominator);\n\n      uint256 _id = optionVault.addOption(_tenor, _strike, _poType, OptionLibrary.OptionSide.Buy, _amount, _premium - _fee, _fee );\n      require(_payInCost >= optionVault.queryDraftOptionCost(_id, true), \"Entered premium incorrect.\");\n\n      require(volTokensList[_tenor].transferFrom(msg.sender, contractAddress, _payInCost), 'Failed payment.');\n\n      volTokensList[_tenor].approve(volTokensList[_tenor].contractAddress(), _payInCost);\n      volTokensList[_tenor].recycleInToken(contractAddress, _payInCost, underlyingToken);\n      require(underlyingToken.transfer(marketMakerAddress, optionVault.queryOptionPremium(_id)), 'Failed premium payment.');\n\n      optionVault.stampActiveOption(_id);\n\n      marketMaker.recordOption(msg.sender, _id, true,\n        optionVault.queryOptionPremium(_id),\n        optionVault.queryOptionExposure(_id, OptionLibrary.PayoffType.Call),\n        optionVault.queryOptionExposure(_id, OptionLibrary.PayoffType.Put));\n\n      emit newOptionBought(msg.sender, optionVault.getOption(_id), _payInCost, true);\n\n    } */\n\n  \n    /* unction exerciseOption(uint256 _id) external  {\n        optionVault.validateOption(_id, msg.sender);\n\n        uint256 _payoffValue = optionVault.getOptionPayoffValue(_id);\n\n        optionVault.stampExercisedOption(_id);\n\n        require(underlyingToken.transfer(msg.sender, _payoffValue), \"Transfer failed.\");\n\n        marketMaker.recordOption(msg.sender, _id, false);\n\n        emit optionExercised(msg.sender, optionVault.getOption(_id), _payoffValue);\n    } */\n\n\n      // function addVolToken(address payable _tokenAddress) external onlyRole(ADMIN_ROLE)\n      // {\n      //     VolatilityToken _volToken = VolatilityToken(_tokenAddress);\n      //     /* require(_volToken.descriptionHash() == optionVault.descriptionHash());\n      //     require(optionVault.containsTenor(_volToken.tenor())); */\n\n      //     volTokensList[_volToken.tenor()] = _volToken;\n\n      // }\n\n      // function quoteVolatilityCost(uint256 _tenor, uint256 _volAmount) public view returns(uint256, uint256)\n      // {\n      //     /* require(optionVault.containsTenor(_tenor)); */\n\n      //     (uint256 _price,) = optionVault.queryPrice();\n      //     (uint256 _volatility, ) = optionVault.queryVol(_tenor);\n\n      //     uint256 _value = volTokensList[_tenor].calculateMintValue(_volAmount, _price, _volatility);\n      //     uint256 _fee = _value * volTransactionFees.numerator/ volTransactionFees.denominator;\n\n      //     return (_value, _fee);\n      // }\n\n      // function purchaseVolatilityToken(uint256 _tenor, uint256 _volAmount, uint256 _payInCost)\n      // external {\n      //     (uint256 _value, uint256 _fee) = quoteVolatilityCost(_tenor, _volAmount);\n      //     require(_payInCost >= (_value + _fee));\n\n      //     underlyingToken.transferFrom(msg.sender, address(volTokensList[_tenor]), _value);\n      //     volTokensList[_tenor].mint{value: _value}(msg.sender, _volAmount);\n\n      //     emit newVolatilityTokenBought(msg.sender, block.timestamp, _tenor, _volAmount);\n      // }\n\n    function resetLoanRate(uint256 _loanInterest) external onlyRole(DEFAULT_ADMIN_ROLE){ loanInterest = _loanInterest;}\n    function resetRiskPremiumMaxRatio(uint256 _newRatio) external onlyRole(DEFAULT_ADMIN_ROLE){ volRiskPremiumMaxRatio=_newRatio;}\n    function resetTrading(bool _allowTrading) external onlyRole(DEFAULT_ADMIN_ROLE) {allowTrading=_allowTrading;}\n    function queryPrice() external view returns(uint256, uint256){return optionVault.queryPrice();}\n    function queryVol(uint256 _tenor) external view returns(uint256){return optionVault.queryVol(_tenor);}\n}\n",
  "sourcePath": "/Users/apple/Documents/GitHub/moret/contracts/Exchange.sol",
  "compiler": {
    "name": "solc",
    "version": "0.8.9+commit.e5eed63a.Emscripten.clang"
  },
  "schemaVersion": "3.4.3",
  "updatedAt": "2021-11-10T20:12:01.206Z",
  "devdoc": {
    "kind": "dev",
    "methods": {
      "getRoleAdmin(bytes32)": {
        "details": "Returns the admin role that controls `role`. See {grantRole} and {revokeRole}. To change a role's admin, use {_setRoleAdmin}."
      },
      "grantRole(bytes32,address)": {
        "details": "Grants `role` to `account`. If `account` had not been already granted `role`, emits a {RoleGranted} event. Requirements: - the caller must have ``role``'s admin role."
      },
      "hasRole(bytes32,address)": {
        "details": "Returns `true` if `account` has been granted `role`."
      },
      "renounceRole(bytes32,address)": {
        "details": "Revokes `role` from the calling account. Roles are often managed via {grantRole} and {revokeRole}: this function's purpose is to provide a mechanism for accounts to lose their privileges if they are compromised (such as when a trusted device is misplaced). If the calling account had been granted `role`, emits a {RoleRevoked} event. Requirements: - the caller must be `account`."
      },
      "revokeRole(bytes32,address)": {
        "details": "Revokes `role` from `account`. If `account` had been granted `role`, emits a {RoleRevoked} event. Requirements: - the caller must have ``role``'s admin role."
      },
      "supportsInterface(bytes4)": {
        "details": "See {IERC165-supportsInterface}."
      }
    },
    "version": 1
  },
  "userdoc": {
    "kind": "user",
    "methods": {},
    "version": 1
  }
}