{
  "contractName": "Exchange",
  "abi": [
    {
      "inputs": [
        {
          "internalType": "address payable",
          "name": "_marketMakerAddress",
          "type": "address"
        },
        {
          "internalType": "address",
          "name": "_optionAddress",
          "type": "address"
        }
      ],
      "stateMutability": "nonpayable",
      "type": "constructor"
    },
    {
      "anonymous": false,
      "inputs": [
        {
          "indexed": true,
          "internalType": "bytes32",
          "name": "role",
          "type": "bytes32"
        },
        {
          "indexed": true,
          "internalType": "bytes32",
          "name": "previousAdminRole",
          "type": "bytes32"
        },
        {
          "indexed": true,
          "internalType": "bytes32",
          "name": "newAdminRole",
          "type": "bytes32"
        }
      ],
      "name": "RoleAdminChanged",
      "type": "event"
    },
    {
      "anonymous": false,
      "inputs": [
        {
          "indexed": true,
          "internalType": "bytes32",
          "name": "role",
          "type": "bytes32"
        },
        {
          "indexed": true,
          "internalType": "address",
          "name": "account",
          "type": "address"
        },
        {
          "indexed": true,
          "internalType": "address",
          "name": "sender",
          "type": "address"
        }
      ],
      "name": "RoleGranted",
      "type": "event"
    },
    {
      "anonymous": false,
      "inputs": [
        {
          "indexed": true,
          "internalType": "bytes32",
          "name": "role",
          "type": "bytes32"
        },
        {
          "indexed": true,
          "internalType": "address",
          "name": "account",
          "type": "address"
        },
        {
          "indexed": true,
          "internalType": "address",
          "name": "sender",
          "type": "address"
        }
      ],
      "name": "RoleRevoked",
      "type": "event"
    },
    {
      "anonymous": false,
      "inputs": [
        {
          "indexed": false,
          "internalType": "address",
          "name": "_recipient",
          "type": "address"
        },
        {
          "indexed": false,
          "internalType": "uint256",
          "name": "_mintMPTokenAmount",
          "type": "uint256"
        },
        {
          "indexed": false,
          "internalType": "uint256",
          "name": "_addedValue",
          "type": "uint256"
        }
      ],
      "name": "capitalAdded",
      "type": "event"
    },
    {
      "anonymous": false,
      "inputs": [
        {
          "indexed": false,
          "internalType": "address",
          "name": "_recipient",
          "type": "address"
        },
        {
          "indexed": false,
          "internalType": "uint256",
          "name": "_burnMPTokenAmount",
          "type": "uint256"
        },
        {
          "indexed": false,
          "internalType": "uint256",
          "name": "_withdrawValue",
          "type": "uint256"
        }
      ],
      "name": "capitalWithdrawn",
      "type": "event"
    },
    {
      "anonymous": false,
      "inputs": [
        {
          "indexed": true,
          "internalType": "address",
          "name": "_purchaser",
          "type": "address"
        },
        {
          "components": [
            {
              "internalType": "enum OptionLibrary.PayoffType",
              "name": "poType",
              "type": "uint8"
            },
            {
              "internalType": "enum OptionLibrary.OptionSide",
              "name": "side",
              "type": "uint8"
            },
            {
              "internalType": "enum OptionLibrary.OptionStatus",
              "name": "status",
              "type": "uint8"
            },
            {
              "internalType": "address",
              "name": "holder",
              "type": "address"
            },
            {
              "internalType": "uint256",
              "name": "id",
              "type": "uint256"
            },
            {
              "internalType": "uint256",
              "name": "createTime",
              "type": "uint256"
            },
            {
              "internalType": "uint256",
              "name": "effectiveTime",
              "type": "uint256"
            },
            {
              "internalType": "uint256",
              "name": "tenor",
              "type": "uint256"
            },
            {
              "internalType": "uint256",
              "name": "maturity",
              "type": "uint256"
            },
            {
              "internalType": "uint256",
              "name": "exerciseTime",
              "type": "uint256"
            },
            {
              "internalType": "uint256",
              "name": "amount",
              "type": "uint256"
            },
            {
              "internalType": "uint256",
              "name": "spot",
              "type": "uint256"
            },
            {
              "internalType": "uint256",
              "name": "strike",
              "type": "uint256"
            },
            {
              "internalType": "uint256",
              "name": "volatility",
              "type": "uint256"
            },
            {
              "internalType": "uint256",
              "name": "premium",
              "type": "uint256"
            },
            {
              "internalType": "uint256",
              "name": "fee",
              "type": "uint256"
            }
          ],
          "indexed": false,
          "internalType": "struct OptionLibrary.Option",
          "name": "_option",
          "type": "tuple"
        },
        {
          "indexed": false,
          "internalType": "uint256",
          "name": "_cost",
          "type": "uint256"
        },
        {
          "indexed": false,
          "internalType": "bool",
          "name": "_inVol",
          "type": "bool"
        }
      ],
      "name": "newOptionBought",
      "type": "event"
    },
    {
      "anonymous": false,
      "inputs": [
        {
          "indexed": false,
          "internalType": "address",
          "name": "_purchaser",
          "type": "address"
        },
        {
          "indexed": false,
          "internalType": "uint256",
          "name": "_time",
          "type": "uint256"
        },
        {
          "indexed": false,
          "internalType": "uint256",
          "name": "_tenor",
          "type": "uint256"
        },
        {
          "indexed": false,
          "internalType": "uint256",
          "name": "_amount",
          "type": "uint256"
        }
      ],
      "name": "newVolatilityTokenBought",
      "type": "event"
    },
    {
      "anonymous": false,
      "inputs": [
        {
          "indexed": true,
          "internalType": "address",
          "name": "_purchaser",
          "type": "address"
        },
        {
          "components": [
            {
              "internalType": "enum OptionLibrary.PayoffType",
              "name": "poType",
              "type": "uint8"
            },
            {
              "internalType": "enum OptionLibrary.OptionSide",
              "name": "side",
              "type": "uint8"
            },
            {
              "internalType": "enum OptionLibrary.OptionStatus",
              "name": "status",
              "type": "uint8"
            },
            {
              "internalType": "address",
              "name": "holder",
              "type": "address"
            },
            {
              "internalType": "uint256",
              "name": "id",
              "type": "uint256"
            },
            {
              "internalType": "uint256",
              "name": "createTime",
              "type": "uint256"
            },
            {
              "internalType": "uint256",
              "name": "effectiveTime",
              "type": "uint256"
            },
            {
              "internalType": "uint256",
              "name": "tenor",
              "type": "uint256"
            },
            {
              "internalType": "uint256",
              "name": "maturity",
              "type": "uint256"
            },
            {
              "internalType": "uint256",
              "name": "exerciseTime",
              "type": "uint256"
            },
            {
              "internalType": "uint256",
              "name": "amount",
              "type": "uint256"
            },
            {
              "internalType": "uint256",
              "name": "spot",
              "type": "uint256"
            },
            {
              "internalType": "uint256",
              "name": "strike",
              "type": "uint256"
            },
            {
              "internalType": "uint256",
              "name": "volatility",
              "type": "uint256"
            },
            {
              "internalType": "uint256",
              "name": "premium",
              "type": "uint256"
            },
            {
              "internalType": "uint256",
              "name": "fee",
              "type": "uint256"
            }
          ],
          "indexed": false,
          "internalType": "struct OptionLibrary.Option",
          "name": "_option",
          "type": "tuple"
        },
        {
          "indexed": false,
          "internalType": "uint256",
          "name": "_payoff",
          "type": "uint256"
        }
      ],
      "name": "optionExercised",
      "type": "event"
    },
    {
      "inputs": [],
      "name": "ADMIN_ROLE",
      "outputs": [
        {
          "internalType": "bytes32",
          "name": "",
          "type": "bytes32"
        }
      ],
      "stateMutability": "view",
      "type": "function",
      "constant": true
    },
    {
      "inputs": [],
      "name": "DEFAULT_ADMIN_ROLE",
      "outputs": [
        {
          "internalType": "bytes32",
          "name": "",
          "type": "bytes32"
        }
      ],
      "stateMutability": "view",
      "type": "function",
      "constant": true
    },
    {
      "inputs": [],
      "name": "contractAddress",
      "outputs": [
        {
          "internalType": "address payable",
          "name": "",
          "type": "address"
        }
      ],
      "stateMutability": "view",
      "type": "function",
      "constant": true
    },
    {
      "inputs": [
        {
          "internalType": "bytes32",
          "name": "role",
          "type": "bytes32"
        }
      ],
      "name": "getRoleAdmin",
      "outputs": [
        {
          "internalType": "bytes32",
          "name": "",
          "type": "bytes32"
        }
      ],
      "stateMutability": "view",
      "type": "function",
      "constant": true
    },
    {
      "inputs": [
        {
          "internalType": "bytes32",
          "name": "role",
          "type": "bytes32"
        },
        {
          "internalType": "address",
          "name": "account",
          "type": "address"
        }
      ],
      "name": "grantRole",
      "outputs": [],
      "stateMutability": "nonpayable",
      "type": "function"
    },
    {
      "inputs": [
        {
          "internalType": "bytes32",
          "name": "role",
          "type": "bytes32"
        },
        {
          "internalType": "address",
          "name": "account",
          "type": "address"
        }
      ],
      "name": "hasRole",
      "outputs": [
        {
          "internalType": "bool",
          "name": "",
          "type": "bool"
        }
      ],
      "stateMutability": "view",
      "type": "function",
      "constant": true
    },
    {
      "inputs": [],
      "name": "marketMakerAddress",
      "outputs": [
        {
          "internalType": "address",
          "name": "",
          "type": "address"
        }
      ],
      "stateMutability": "view",
      "type": "function",
      "constant": true
    },
    {
      "inputs": [],
      "name": "maxUtilisation",
      "outputs": [
        {
          "internalType": "uint256",
          "name": "",
          "type": "uint256"
        }
      ],
      "stateMutability": "view",
      "type": "function",
      "constant": true
    },
    {
      "inputs": [
        {
          "internalType": "bytes32",
          "name": "role",
          "type": "bytes32"
        },
        {
          "internalType": "address",
          "name": "account",
          "type": "address"
        }
      ],
      "name": "renounceRole",
      "outputs": [],
      "stateMutability": "nonpayable",
      "type": "function"
    },
    {
      "inputs": [
        {
          "internalType": "bytes32",
          "name": "role",
          "type": "bytes32"
        },
        {
          "internalType": "address",
          "name": "account",
          "type": "address"
        }
      ],
      "name": "revokeRole",
      "outputs": [],
      "stateMutability": "nonpayable",
      "type": "function"
    },
    {
      "inputs": [],
      "name": "settlementFee",
      "outputs": [
        {
          "internalType": "uint256",
          "name": "numerator",
          "type": "uint256"
        },
        {
          "internalType": "uint256",
          "name": "denominator",
          "type": "uint256"
        }
      ],
      "stateMutability": "view",
      "type": "function",
      "constant": true
    },
    {
      "inputs": [
        {
          "internalType": "bytes4",
          "name": "interfaceId",
          "type": "bytes4"
        }
      ],
      "name": "supportsInterface",
      "outputs": [
        {
          "internalType": "bool",
          "name": "",
          "type": "bool"
        }
      ],
      "stateMutability": "view",
      "type": "function",
      "constant": true
    },
    {
      "inputs": [],
      "name": "volTransactionFees",
      "outputs": [
        {
          "internalType": "uint256",
          "name": "numerator",
          "type": "uint256"
        },
        {
          "internalType": "uint256",
          "name": "denominator",
          "type": "uint256"
        }
      ],
      "stateMutability": "view",
      "type": "function",
      "constant": true
    },
    {
      "inputs": [
        {
          "internalType": "uint256",
          "name": "_tenor",
          "type": "uint256"
        },
        {
          "internalType": "uint256",
          "name": "_strike",
          "type": "uint256"
        },
        {
          "internalType": "uint256",
          "name": "_amount",
          "type": "uint256"
        },
        {
          "internalType": "enum OptionLibrary.PayoffType",
          "name": "_poType",
          "type": "uint8"
        },
        {
          "internalType": "enum OptionLibrary.OptionSide",
          "name": "_side",
          "type": "uint8"
        }
      ],
      "name": "queryOptionCost",
      "outputs": [
        {
          "internalType": "uint256",
          "name": "",
          "type": "uint256"
        }
      ],
      "stateMutability": "view",
      "type": "function",
      "constant": true
    },
    {
      "inputs": [
        {
          "internalType": "uint256",
          "name": "_tenor",
          "type": "uint256"
        },
        {
          "internalType": "uint256",
          "name": "_strike",
          "type": "uint256"
        },
        {
          "internalType": "enum OptionLibrary.PayoffType",
          "name": "_poType",
          "type": "uint8"
        },
        {
          "internalType": "enum OptionLibrary.OptionSide",
          "name": "_side",
          "type": "uint8"
        },
        {
          "internalType": "uint256",
          "name": "_amount",
          "type": "uint256"
        },
        {
          "internalType": "uint256",
          "name": "_payInCost",
          "type": "uint256"
        }
      ],
      "name": "purchaseOption",
      "outputs": [],
      "stateMutability": "nonpayable",
      "type": "function"
    },
    {
      "inputs": [
        {
          "internalType": "uint256",
          "name": "_id",
          "type": "uint256"
        }
      ],
      "name": "getOptionPayoffValue",
      "outputs": [
        {
          "internalType": "uint256",
          "name": "",
          "type": "uint256"
        }
      ],
      "stateMutability": "view",
      "type": "function",
      "constant": true
    },
    {
      "inputs": [
        {
          "internalType": "uint256",
          "name": "_fee",
          "type": "uint256"
        },
        {
          "internalType": "uint256",
          "name": "_denominator",
          "type": "uint256"
        }
      ],
      "name": "resetSettlementFees",
      "outputs": [],
      "stateMutability": "nonpayable",
      "type": "function"
    },
    {
      "inputs": [
        {
          "internalType": "uint256",
          "name": "_fee",
          "type": "uint256"
        },
        {
          "internalType": "uint256",
          "name": "_denominator",
          "type": "uint256"
        }
      ],
      "name": "resetVolTransactionFees",
      "outputs": [],
      "stateMutability": "nonpayable",
      "type": "function"
    },
    {
      "inputs": [
        {
          "internalType": "uint256",
          "name": "_maxUtil",
          "type": "uint256"
        }
      ],
      "name": "resetMaxUtilisation",
      "outputs": [],
      "stateMutability": "nonpayable",
      "type": "function"
    },
    {
      "inputs": [
        {
          "internalType": "uint256",
          "name": "_amount",
          "type": "uint256"
        },
        {
          "internalType": "uint256",
          "name": "_strike",
          "type": "uint256"
        },
        {
          "internalType": "enum OptionLibrary.PayoffType",
          "name": "_poType",
          "type": "uint8"
        },
        {
          "internalType": "enum OptionLibrary.OptionSide",
          "name": "_side",
          "type": "uint8"
        }
      ],
      "name": "calcUtilisation",
      "outputs": [
        {
          "internalType": "uint256",
          "name": "",
          "type": "uint256"
        },
        {
          "internalType": "uint256",
          "name": "",
          "type": "uint256"
        }
      ],
      "stateMutability": "view",
      "type": "function",
      "constant": true
    },
    {
      "inputs": [],
      "name": "priceDecimals",
      "outputs": [
        {
          "internalType": "uint256",
          "name": "",
          "type": "uint256"
        }
      ],
      "stateMutability": "view",
      "type": "function",
      "constant": true
    },
    {
      "inputs": [],
      "name": "queryPrice",
      "outputs": [
        {
          "internalType": "uint256",
          "name": "",
          "type": "uint256"
        },
        {
          "internalType": "uint256",
          "name": "",
          "type": "uint256"
        }
      ],
      "stateMutability": "view",
      "type": "function",
      "constant": true
    },
    {
      "inputs": [
        {
          "internalType": "uint256",
          "name": "_tenor",
          "type": "uint256"
        }
      ],
      "name": "queryVol",
      "outputs": [
        {
          "internalType": "uint256",
          "name": "",
          "type": "uint256"
        },
        {
          "internalType": "uint256",
          "name": "",
          "type": "uint256"
        }
      ],
      "stateMutability": "view",
      "type": "function",
      "constant": true
    }
  ],
  "bytecode": "0x608060405260405180604001604052806103e88152602001620f424081525060016000820151816000015560208201518160010155505060405180604001604052806113888152602001620f4240815250600360008201518160000155602082015181600101555050670de0b6b3a7640000600a553480156200008157600080fd5b50604051620038d5380380620038d58339818101604052810190620000a79190620004b7565b620000bc6000801b33620002de60201b60201c565b620000ee7fa49807205ce4d355092ef5a8a18f56e8913cf4a201fbe287825b095693c2177533620002de60201b60201c565b80600860006101000a81548173ffffffffffffffffffffffffffffffffffffffff021916908373ffffffffffffffffffffffffffffffffffffffff16021790555081600660006101000a81548173ffffffffffffffffffffffffffffffffffffffff021916908373ffffffffffffffffffffffffffffffffffffffff16021790555081600760006101000a81548173ffffffffffffffffffffffffffffffffffffffff021916908373ffffffffffffffffffffffffffffffffffffffff16021790555030600560006101000a81548173ffffffffffffffffffffffffffffffffffffffff021916908373ffffffffffffffffffffffffffffffffffffffff160217905550600760009054906101000a900473ffffffffffffffffffffffffffffffffffffffff1673ffffffffffffffffffffffffffffffffffffffff16632140ea676040518163ffffffff1660e01b815260040160206040518083038186803b1580156200025b57600080fd5b505afa15801562000270573d6000803e3d6000fd5b505050506040513d601f19601f8201168201806040525081019062000296919062000485565b600960006101000a81548173ffffffffffffffffffffffffffffffffffffffff021916908373ffffffffffffffffffffffffffffffffffffffff16021790555050506200057f565b620002f08282620002f460201b60201c565b5050565b620003068282620003e560201b60201c565b620003e157600160008084815260200190815260200160002060000160008373ffffffffffffffffffffffffffffffffffffffff1673ffffffffffffffffffffffffffffffffffffffff16815260200190815260200160002060006101000a81548160ff021916908315150217905550620003866200044f60201b60201c565b73ffffffffffffffffffffffffffffffffffffffff168173ffffffffffffffffffffffffffffffffffffffff16837f2f8788117e7eff1d82e926ec794901d17c78024a50270940304540a733656f0d60405160405180910390a45b5050565b600080600084815260200190815260200160002060000160008373ffffffffffffffffffffffffffffffffffffffff1673ffffffffffffffffffffffffffffffffffffffff16815260200190815260200160002060009054906101000a900460ff16905092915050565b600033905090565b60008151905062000468816200054b565b92915050565b6000815190506200047f8162000565565b92915050565b6000602082840312156200049e576200049d62000546565b5b6000620004ae8482850162000457565b91505092915050565b60008060408385031215620004d157620004d062000546565b5b6000620004e1858286016200046e565b9250506020620004f48582860162000457565b9150509250929050565b60006200050b8262000526565b9050919050565b60006200051f8262000526565b9050919050565b600073ffffffffffffffffffffffffffffffffffffffff82169050919050565b600080fd5b6200055681620004fe565b81146200056257600080fd5b50565b620005708162000512565b81146200057c57600080fd5b50565b613346806200058f6000396000f3fe608060405234801561001057600080fd5b506004361061014d5760003560e01c806376df2d08116100c3578063c506c5cb1161007c578063c506c5cb146103a1578063cc910588146103d2578063cfc2dc20146103f0578063d547741f14610421578063dc8923171461043d578063f6b4dfb41461045b5761014d565b806376df2d08146102c95780637d1d7fb8146102f957806391d14854146103185780639320d4ce14610348578063a217fddf14610364578063b0667cf8146103825761014d565b806336568abe1161011557806336568abe1461020857806340d6eaab14610224578063467beb1814610254578063598ddc60146102705780635a4a3a921461028c57806375b238fc146102ab5761014d565b806301ffc9a71461015257806305300b2814610182578063233dde95146101a0578063248a9ca3146101bc5780632f2ff15d146101ec575b600080fd5b61016c60048036038101906101679190612207565b610479565b60405161017991906129b7565b60405180910390f35b61018a6104f3565b6040516101979190612b52565b60405180910390f35b6101ba60048036038101906101b59190612262565b61059a565b005b6101d660048036038101906101d1919061219a565b6105d7565b6040516101e391906129fb565b60405180910390f35b610206600480360381019061020191906121c7565b6105f6565b005b610222600480360381019061021d91906121c7565b61061f565b005b61023e60048036038101906102399190612262565b6106a2565b60405161024b9190612b52565b60405180910390f35b61026e600480360381019061026991906123a3565b61075d565b005b61028a600480360381019061028591906122bc565b6110ed565b005b610294611152565b6040516102a2929190612bbf565b60405180910390f35b6102b3611164565b6040516102c091906129fb565b60405180910390f35b6102e360048036038101906102de9190612483565b611188565b6040516102f09190612b52565b60405180910390f35b6103016112af565b60405161030f929190612bbf565b60405180910390f35b610332600480360381019061032d91906121c7565b6112c1565b60405161033f91906129b7565b60405180910390f35b610362600480360381019061035d91906122bc565b61132b565b005b61036c611390565b60405161037991906129fb565b60405180910390f35b61038a611397565b604051610398929190612bbf565b60405180910390f35b6103bb60048036038101906103b6919061233c565b611441565b6040516103c9929190612bbf565b60405180910390f35b6103da6117a4565b6040516103e791906128ea565b60405180910390f35b61040a60048036038101906104059190612262565b6117ca565b604051610418929190612bbf565b60405180910390f35b61043b600480360381019061043691906121c7565b611880565b005b6104456118a9565b6040516104529190612b52565b60405180910390f35b6104636118af565b6040516104709190612905565b60405180910390f35b60007f7965db0b000000000000000000000000000000000000000000000000000000007bffffffffffffffffffffffffffffffffffffffffffffffffffffffff1916827bffffffffffffffffffffffffffffffffffffffffffffffffffffffff191614806104ec57506104eb826118d5565b5b9050919050565b6000600860009054906101000a900473ffffffffffffffffffffffffffffffffffffffff1673ffffffffffffffffffffffffffffffffffffffff166305300b286040518163ffffffff1660e01b815260040160206040518083038186803b15801561055d57600080fd5b505afa158015610571573d6000803e3d6000fd5b505050506040513d601f19601f82011682018060405250810190610595919061228f565b905090565b7fa49807205ce4d355092ef5a8a18f56e8913cf4a201fbe287825b095693c217756105cc816105c761193f565b611947565b81600a819055505050565b6000806000838152602001908152602001600020600101549050919050565b6105ff826105d7565b6106108161060b61193f565b611947565b61061a83836119e4565b505050565b61062761193f565b73ffffffffffffffffffffffffffffffffffffffff168173ffffffffffffffffffffffffffffffffffffffff1614610694576040517f08c379a000000000000000000000000000000000000000000000000000000000815260040161068b90612af8565b60405180910390fd5b61069e8282611ac4565b5050565b600080600860009054906101000a900473ffffffffffffffffffffffffffffffffffffffff1673ffffffffffffffffffffffffffffffffffffffff166340d6eaab846040518263ffffffff1660e01b81526004016107009190612b52565b60606040518083038186803b15801561071857600080fd5b505afa15801561072c573d6000803e3d6000fd5b505050506040513d601f19601f820116820180604052508101906107509190612430565b5050905080915050919050565b60018001546001600001541061077257600080fd5b60006107818787858888611188565b9050600080600860009054906101000a900473ffffffffffffffffffffffffffffffffffffffff1673ffffffffffffffffffffffffffffffffffffffff1663af7b26258a8a8a8a8a888a6107d59190612da6565b896040518863ffffffff1660e01b81526004016107f89796959493929190612c3b565b602060405180830381600087803b15801561081257600080fd5b505af1158015610826573d6000803e3d6000fd5b505050506040513d601f19601f8201168201806040525081019061084a919061228f565b9050600860009054906101000a900473ffffffffffffffffffffffffffffffffffffffff1673ffffffffffffffffffffffffffffffffffffffff16636abae9b38260006040518363ffffffff1660e01b81526004016108aa929190612b96565b60206040518083038186803b1580156108c257600080fd5b505afa1580156108d6573d6000803e3d6000fd5b505050506040513d601f19601f820116820180604052508101906108fa919061228f565b84101561093c576040517f08c379a000000000000000000000000000000000000000000000000000000000815260040161093390612ab8565b60405180910390fd5b600960009054906101000a900473ffffffffffffffffffffffffffffffffffffffff1673ffffffffffffffffffffffffffffffffffffffff166323b872dd33600560009054906101000a900473ffffffffffffffffffffffffffffffffffffffff16876040518463ffffffff1660e01b81526004016109bd93929190612920565b602060405180830381600087803b1580156109d757600080fd5b505af11580156109eb573d6000803e3d6000fd5b505050506040513d601f19601f82011682018060405250810190610a0f919061216d565b610a4e576040517f08c379a0000000000000000000000000000000000000000000000000000000008152600401610a4590612a78565b60405180910390fd5b60006001811115610a6257610a61612fcc565b5b866001811115610a7557610a74612fcc565b5b1415610c3657600960009054906101000a900473ffffffffffffffffffffffffffffffffffffffff1673ffffffffffffffffffffffffffffffffffffffff1663a9059cbb600660009054906101000a900473ffffffffffffffffffffffffffffffffffffffff16600860009054906101000a900473ffffffffffffffffffffffffffffffffffffffff1673ffffffffffffffffffffffffffffffffffffffff166346047a66856040518263ffffffff1660e01b8152600401610b379190612b52565b60206040518083038186803b158015610b4f57600080fd5b505afa158015610b63573d6000803e3d6000fd5b505050506040513d601f19601f82011682018060405250810190610b87919061228f565b6040518363ffffffff1660e01b8152600401610ba4929190612957565b602060405180830381600087803b158015610bbe57600080fd5b505af1158015610bd2573d6000803e3d6000fd5b505050506040513d601f19601f82011682018060405250810190610bf6919061216d565b610c35576040517f08c379a0000000000000000000000000000000000000000000000000000000008152600401610c2c90612a98565b60405180910390fd5b5b600180811115610c4957610c48612fcc565b5b866001811115610c5c57610c5b612fcc565b5b1415610e24576000600760009054906101000a900473ffffffffffffffffffffffffffffffffffffffff1673ffffffffffffffffffffffffffffffffffffffff166363447902600160006040518363ffffffff1660e01b8152600401610cc39291906129d2565b60206040518083038186803b158015610cdb57600080fd5b505afa158015610cef573d6000803e3d6000fd5b505050506040513d601f19601f82011682018060405250810190610d13919061228f565b9050600085610d228888611ba5565b610d2c9190612da6565b9050808211610d70576040517f08c379a0000000000000000000000000000000000000000000000000000000008152600401610d6790612ad8565b60405180910390fd5b600760009054906101000a900473ffffffffffffffffffffffffffffffffffffffff1673ffffffffffffffffffffffffffffffffffffffff16639b69544b82600560009054906101000a900473ffffffffffffffffffffffffffffffffffffffff166040518363ffffffff1660e01b8152600401610def929190612b6d565b600060405180830381600087803b158015610e0957600080fd5b505af1158015610e1d573d6000803e3d6000fd5b5050505050505b600860009054906101000a900473ffffffffffffffffffffffffffffffffffffffff1673ffffffffffffffffffffffffffffffffffffffff16634147145382600760009054906101000a900473ffffffffffffffffffffffffffffffffffffffff1673ffffffffffffffffffffffffffffffffffffffff1663fd2c80ae6040518163ffffffff1660e01b815260040160206040518083038186803b158015610ecb57600080fd5b505afa158015610edf573d6000803e3d6000fd5b505050506040513d601f19601f82011682018060405250810190610f03919061228f565b6040518363ffffffff1660e01b8152600401610f20929190612bbf565b600060405180830381600087803b158015610f3a57600080fd5b505af1158015610f4e573d6000803e3d6000fd5b50505050600760009054906101000a900473ffffffffffffffffffffffffffffffffffffffff1673ffffffffffffffffffffffffffffffffffffffff16637a8b34e8338360016040518463ffffffff1660e01b8152600401610fb293929190612980565b600060405180830381600087803b158015610fcc57600080fd5b505af1158015610fe0573d6000803e3d6000fd5b505050503373ffffffffffffffffffffffffffffffffffffffff167f639bcb68083836b73ad6cd444bd790e8421c4b363635459fbfff715dc24fa855600860009054906101000a900473ffffffffffffffffffffffffffffffffffffffff1673ffffffffffffffffffffffffffffffffffffffff16631ce5e9a6846040518263ffffffff1660e01b81526004016110779190612b52565b6102006040518083038186803b15801561109057600080fd5b505afa1580156110a4573d6000803e3d6000fd5b505050506040513d601f19601f820116820180604052508101906110c89190612234565b8660006040516110da93929190612b18565b60405180910390a2505050505050505050565b7fa49807205ce4d355092ef5a8a18f56e8913cf4a201fbe287825b095693c2177561111f8161111a61193f565b611947565b60405180604001604052808481526020018381525060036000820151816000015560208201518160010155905050505050565b60038060000154908060010154905082565b7fa49807205ce4d355092ef5a8a18f56e8913cf4a201fbe287825b095693c2177581565b600080600061119986888787611441565b915091506000600860009054906101000a900473ffffffffffffffffffffffffffffffffffffffff1673ffffffffffffffffffffffffffffffffffffffff1663ed0a3e3a8a8a89898c89896040518863ffffffff1660e01b81526004016112069796959493929190612c3b565b60206040518083038186803b15801561121e57600080fd5b505afa158015611232573d6000803e3d6000fd5b505050506040513d601f19601f82011682018060405250810190611256919061228f565b905060018081111561126b5761126a612fcc565b5b85600181111561127e5761127d612fcc565b5b14156112a0578087101561129157600080fd5b808761129d9190612da6565b90505b80935050505095945050505050565b60018060000154908060010154905082565b600080600084815260200190815260200160002060000160008373ffffffffffffffffffffffffffffffffffffffff1673ffffffffffffffffffffffffffffffffffffffff16815260200190815260200160002060009054906101000a900460ff16905092915050565b7fa49807205ce4d355092ef5a8a18f56e8913cf4a201fbe287825b095693c2177561135d8161135861193f565b611947565b60405180604001604052808481526020018381525060016000820151816000015560208201518160010155905050505050565b6000801b81565b600080600860009054906101000a900473ffffffffffffffffffffffffffffffffffffffff1673ffffffffffffffffffffffffffffffffffffffff1663b0667cf86040518163ffffffff1660e01b8152600401604080518083038186803b15801561140157600080fd5b505afa158015611415573d6000803e3d6000fd5b505050506040513d601f19601f8201168201806040525081019061143991906122fc565b915091509091565b6000806000600760009054906101000a900473ffffffffffffffffffffffffffffffffffffffff1673ffffffffffffffffffffffffffffffffffffffff1663634479026000806040518363ffffffff1660e01b81526004016114a49291906129d2565b60206040518083038186803b1580156114bc57600080fd5b505afa1580156114d0573d6000803e3d6000fd5b505050506040513d601f19601f820116820180604052508101906114f4919061228f565b90506000600760009054906101000a900473ffffffffffffffffffffffffffffffffffffffff1673ffffffffffffffffffffffffffffffffffffffff166363447902600160006040518363ffffffff1660e01b81526004016115579291906129d2565b60206040518083038186803b15801561156f57600080fd5b505afa158015611583573d6000803e3d6000fd5b505050506040513d601f19601f820116820180604052508101906115a7919061228f565b90506000600860009054906101000a900473ffffffffffffffffffffffffffffffffffffffff1673ffffffffffffffffffffffffffffffffffffffff1663588d2f708a8a8a8a600760009054906101000a900473ffffffffffffffffffffffffffffffffffffffff1673ffffffffffffffffffffffffffffffffffffffff166333e464116040518163ffffffff1660e01b815260040160206040518083038186803b15801561165557600080fd5b505afa158015611669573d6000803e3d6000fd5b505050506040513d601f19601f8201168201806040525081019061168d919061228f565b6040518663ffffffff1660e01b81526004016116ad959493929190612be8565b60206040518083038186803b1580156116c557600080fd5b505afa1580156116d9573d6000803e3d6000fd5b505050506040513d601f19601f820116820180604052508101906116fd919061228f565b905082818361170c9190612cf6565b111561174d576040517f08c379a000000000000000000000000000000000000000000000000000000000815260040161174490612a58565b60405180910390fd5b61176b828461175c9190612da6565b670de0b6b3a764000085611bbf565b61179482848661177b9190612da6565b6117859190612da6565b670de0b6b3a764000086611bbf565b9450945050505094509492505050565b600660009054906101000a900473ffffffffffffffffffffffffffffffffffffffff1681565b600080600860009054906101000a900473ffffffffffffffffffffffffffffffffffffffff1673ffffffffffffffffffffffffffffffffffffffff1663cfc2dc20846040518263ffffffff1660e01b81526004016118289190612b52565b604080518083038186803b15801561183f57600080fd5b505afa158015611853573d6000803e3d6000fd5b505050506040513d601f19601f8201168201806040525081019061187791906122fc565b91509150915091565b611889826105d7565b61189a8161189561193f565b611947565b6118a48383611ac4565b505050565b600a5481565b600560009054906101000a900473ffffffffffffffffffffffffffffffffffffffff1681565b60007f01ffc9a7000000000000000000000000000000000000000000000000000000007bffffffffffffffffffffffffffffffffffffffffffffffffffffffff1916827bffffffffffffffffffffffffffffffffffffffffffffffffffffffff1916149050919050565b600033905090565b61195182826112c1565b6119e0576119768173ffffffffffffffffffffffffffffffffffffffff166014611cbb565b6119848360001c6020611cbb565b6040516020016119959291906128b0565b6040516020818303038152906040526040517f08c379a00000000000000000000000000000000000000000000000000000000081526004016119d79190612a16565b60405180910390fd5b5050565b6119ee82826112c1565b611ac057600160008084815260200190815260200160002060000160008373ffffffffffffffffffffffffffffffffffffffff1673ffffffffffffffffffffffffffffffffffffffff16815260200190815260200160002060006101000a81548160ff021916908315150217905550611a6561193f565b73ffffffffffffffffffffffffffffffffffffffff168173ffffffffffffffffffffffffffffffffffffffff16837f2f8788117e7eff1d82e926ec794901d17c78024a50270940304540a733656f0d60405160405180910390a45b5050565b611ace82826112c1565b15611ba157600080600084815260200190815260200160002060000160008373ffffffffffffffffffffffffffffffffffffffff1673ffffffffffffffffffffffffffffffffffffffff16815260200190815260200160002060006101000a81548160ff021916908315150217905550611b4661193f565b73ffffffffffffffffffffffffffffffffffffffff168173ffffffffffffffffffffffffffffffffffffffff16837ff6391f5c32d9c69d2a47ea670b442974b53935d1edc7fd64eb21e047a839171b60405160405180910390a45b5050565b600081831015611bb55781611bb7565b825b905092915050565b600080600080198587098587029250828110838203039150506000811415611bfa5760008411611bee57600080fd5b83820492505050611cb4565b808411611c0657600080fd5b60008486880990508281118203915080830392506000856001877fffffffffffffffffffffffffffffffffffffffffffffffffffffffffffffffff0301169050808604955080840493506001818260000304019050808302841793506000600287600302189050808702600203810290508087026002038102905080870260020381029050808702600203810290508087026002038102905080870260020381029050808502955050505050505b9392505050565b606060006002836002611cce9190612d4c565b611cd89190612cf6565b67ffffffffffffffff811115611cf157611cf061302a565b5b6040519080825280601f01601f191660200182016040528015611d235781602001600182028036833780820191505090505b5090507f300000000000000000000000000000000000000000000000000000000000000081600081518110611d5b57611d5a612ffb565b5b60200101907effffffffffffffffffffffffffffffffffffffffffffffffffffffffffffff1916908160001a9053507f780000000000000000000000000000000000000000000000000000000000000081600181518110611dbf57611dbe612ffb565b5b60200101907effffffffffffffffffffffffffffffffffffffffffffffffffffffffffffff1916908160001a90535060006001846002611dff9190612d4c565b611e099190612cf6565b90505b6001811115611ea9577f3031323334353637383961626364656600000000000000000000000000000000600f861660108110611e4b57611e4a612ffb565b5b1a60f81b828281518110611e6257611e61612ffb565b5b60200101907effffffffffffffffffffffffffffffffffffffffffffffffffffffffffffff1916908160001a905350600485901c945080611ea290612f42565b9050611e0c565b5060008414611eed576040517f08c379a0000000000000000000000000000000000000000000000000000000008152600401611ee490612a38565b60405180910390fd5b8091505092915050565b600081359050611f068161326d565b92915050565b600081519050611f1b8161326d565b92915050565b600081519050611f3081613284565b92915050565b600081359050611f458161329b565b92915050565b600081359050611f5a816132b2565b92915050565b600081359050611f6f816132c9565b92915050565b600081519050611f84816132c9565b92915050565b600081519050611f99816132d9565b92915050565b600081359050611fae816132e9565b92915050565b600081519050611fc3816132e9565b92915050565b60006102008284031215611fe057611fdf613059565b5b611feb610200612caa565b90506000611ffb84828501611fb4565b600083015250602061200f84828501611f75565b602083015250604061202384828501611f8a565b604083015250606061203784828501611f0c565b606083015250608061204b84828501612158565b60808301525060a061205f84828501612158565b60a08301525060c061207384828501612158565b60c08301525060e061208784828501612158565b60e08301525061010061209c84828501612158565b610100830152506101206120b284828501612158565b610120830152506101406120c884828501612158565b610140830152506101606120de84828501612158565b610160830152506101806120f484828501612158565b610180830152506101a061210a84828501612158565b6101a0830152506101c061212084828501612158565b6101c0830152506101e061213684828501612158565b6101e08301525092915050565b600081359050612152816132f9565b92915050565b600081519050612167816132f9565b92915050565b6000602082840312156121835761218261305e565b5b600061219184828501611f21565b91505092915050565b6000602082840312156121b0576121af61305e565b5b60006121be84828501611f36565b91505092915050565b600080604083850312156121de576121dd61305e565b5b60006121ec85828601611f36565b92505060206121fd85828601611ef7565b9150509250929050565b60006020828403121561221d5761221c61305e565b5b600061222b84828501611f4b565b91505092915050565b6000610200828403121561224b5761224a61305e565b5b600061225984828501611fc9565b91505092915050565b6000602082840312156122785761227761305e565b5b600061228684828501612143565b91505092915050565b6000602082840312156122a5576122a461305e565b5b60006122b384828501612158565b91505092915050565b600080604083850312156122d3576122d261305e565b5b60006122e185828601612143565b92505060206122f285828601612143565b9150509250929050565b600080604083850312156123135761231261305e565b5b600061232185828601612158565b925050602061233285828601612158565b9150509250929050565b600080600080608085870312156123565761235561305e565b5b600061236487828801612143565b945050602061237587828801612143565b935050604061238687828801611f9f565b925050606061239787828801611f60565b91505092959194509250565b60008060008060008060c087890312156123c0576123bf61305e565b5b60006123ce89828a01612143565b96505060206123df89828a01612143565b95505060406123f089828a01611f9f565b945050606061240189828a01611f60565b935050608061241289828a01612143565b92505060a061242389828a01612143565b9150509295509295509295565b6000806000606084860312156124495761244861305e565b5b600061245786828701612158565b935050602061246886828701612158565b925050604061247986828701612158565b9150509250925092565b600080600080600060a0868803121561249f5761249e61305e565b5b60006124ad88828901612143565b95505060206124be88828901612143565b94505060406124cf88828901612143565b93505060606124e088828901611f9f565b92505060806124f188828901611f60565b9150509295509295909350565b61250781612ea3565b82525050565b61251681612dec565b82525050565b61252581612dda565b82525050565b61253481612dda565b82525050565b61254381612dfe565b82525050565b61255281612e0a565b82525050565b61256181612eb5565b82525050565b61257081612eb5565b82525050565b61257f81612ec7565b82525050565b61258e81612ed9565b82525050565b61259d81612ed9565b82525050565b60006125ae82612ccf565b6125b88185612cda565b93506125c8818560208601612f0f565b6125d181613063565b840191505092915050565b60006125e782612ccf565b6125f18185612ceb565b9350612601818560208601612f0f565b80840191505092915050565b600061261a602083612cda565b915061262582613074565b602082019050919050565b600061263d601583612cda565b91506126488261309d565b602082019050919050565b6000612660600f83612cda565b915061266b826130c6565b602082019050919050565b6000612683601783612cda565b915061268e826130ef565b602082019050919050565b60006126a6601a83612cda565b91506126b182613118565b602082019050919050565b60006126c9602183612cda565b91506126d482613141565b604082019050919050565b60006126ec601783612ceb565b91506126f782613190565b601782019050919050565b600061270f601183612ceb565b915061271a826131b9565b601182019050919050565b6000612732602f83612cda565b915061273d826131e2565b604082019050919050565b6102008201600082015161275f6000850182612585565b5060208201516127726020850182612558565b5060408201516127856040850182612576565b506060820151612798606085018261251c565b5060808201516127ab6080850182612892565b5060a08201516127be60a0850182612892565b5060c08201516127d160c0850182612892565b5060e08201516127e460e0850182612892565b506101008201516127f9610100850182612892565b5061012082015161280e610120850182612892565b50610140820151612823610140850182612892565b50610160820151612838610160850182612892565b5061018082015161284d610180850182612892565b506101a08201516128626101a0850182612892565b506101c08201516128776101c0850182612892565b506101e082015161288c6101e0850182612892565b50505050565b61289b81612e99565b82525050565b6128aa81612e99565b82525050565b60006128bb826126df565b91506128c782856125dc565b91506128d282612702565b91506128de82846125dc565b91508190509392505050565b60006020820190506128ff600083018461252b565b92915050565b600060208201905061291a600083018461250d565b92915050565b6000606082019050612935600083018661252b565b61294260208301856124fe565b61294f60408301846128a1565b949350505050565b600060408201905061296c600083018561252b565b61297960208301846128a1565b9392505050565b6000606082019050612995600083018661252b565b6129a260208301856128a1565b6129af604083018461253a565b949350505050565b60006020820190506129cc600083018461253a565b92915050565b60006040820190506129e7600083018561253a565b6129f4602083018461253a565b9392505050565b6000602082019050612a106000830184612549565b92915050565b60006020820190508181036000830152612a3081846125a3565b905092915050565b60006020820190508181036000830152612a518161260d565b9050919050565b60006020820190508181036000830152612a7181612630565b9050919050565b60006020820190508181036000830152612a9181612653565b9050919050565b60006020820190508181036000830152612ab181612676565b9050919050565b60006020820190508181036000830152612ad181612699565b9050919050565b60006020820190508181036000830152612af1816126bc565b9050919050565b60006020820190508181036000830152612b1181612725565b9050919050565b600061024082019050612b2e6000830186612748565b612b3c6102008301856128a1565b612b4a61022083018461253a565b949350505050565b6000602082019050612b6760008301846128a1565b92915050565b6000604082019050612b8260008301856128a1565b612b8f60208301846124fe565b9392505050565b6000604082019050612bab60008301856128a1565b612bb8602083018461253a565b9392505050565b6000604082019050612bd460008301856128a1565b612be160208301846128a1565b9392505050565b600060a082019050612bfd60008301886128a1565b612c0a60208301876128a1565b612c176040830186612594565b612c246060830185612567565b612c3160808301846128a1565b9695505050505050565b600060e082019050612c50600083018a6128a1565b612c5d60208301896128a1565b612c6a6040830188612594565b612c776060830187612567565b612c8460808301866128a1565b612c9160a08301856128a1565b612c9e60c08301846128a1565b98975050505050505050565b6000612cb4612cc5565b9050612cc08282612f6c565b919050565b6000604051905090565b600081519050919050565b600082825260208201905092915050565b600081905092915050565b6000612d0182612e99565b9150612d0c83612e99565b9250827fffffffffffffffffffffffffffffffffffffffffffffffffffffffffffffffff03821115612d4157612d40612f9d565b5b828201905092915050565b6000612d5782612e99565b9150612d6283612e99565b9250817fffffffffffffffffffffffffffffffffffffffffffffffffffffffffffffffff0483118215151615612d9b57612d9a612f9d565b5b828202905092915050565b6000612db182612e99565b9150612dbc83612e99565b925082821015612dcf57612dce612f9d565b5b828203905092915050565b6000612de582612e79565b9050919050565b6000612df782612e79565b9050919050565b60008115159050919050565b6000819050919050565b60007fffffffff0000000000000000000000000000000000000000000000000000000082169050919050565b6000819050612e4e82613231565b919050565b6000819050612e6182613245565b919050565b6000819050612e7482613259565b919050565b600073ffffffffffffffffffffffffffffffffffffffff82169050919050565b6000819050919050565b6000612eae82612eeb565b9050919050565b6000612ec082612e40565b9050919050565b6000612ed282612e53565b9050919050565b6000612ee482612e66565b9050919050565b6000612ef682612efd565b9050919050565b6000612f0882612e79565b9050919050565b60005b83811015612f2d578082015181840152602081019050612f12565b83811115612f3c576000848401525b50505050565b6000612f4d82612e99565b91506000821415612f6157612f60612f9d565b5b600182039050919050565b612f7582613063565b810181811067ffffffffffffffff82111715612f9457612f9361302a565b5b80604052505050565b7f4e487b7100000000000000000000000000000000000000000000000000000000600052601160045260246000fd5b7f4e487b7100000000000000000000000000000000000000000000000000000000600052602160045260246000fd5b7f4e487b7100000000000000000000000000000000000000000000000000000000600052603260045260246000fd5b7f4e487b7100000000000000000000000000000000000000000000000000000000600052604160045260246000fd5b600080fd5b600080fd5b6000601f19601f8301169050919050565b7f537472696e67733a20686578206c656e67746820696e73756666696369656e74600082015250565b7f496e73756666696369656e74206361706974616c2e0000000000000000000000600082015250565b7f4661696c6564207061796d656e742e0000000000000000000000000000000000600082015250565b7f4661696c6564207072656d69756d207061796d656e742e000000000000000000600082015250565b7f456e7465726564207072656d69756d20696e636f72726563742e000000000000600082015250565b7f496e73756666696369656e74206361706974616c20666f72206f7074696f6e7360008201527f2e00000000000000000000000000000000000000000000000000000000000000602082015250565b7f416363657373436f6e74726f6c3a206163636f756e7420000000000000000000600082015250565b7f206973206d697373696e6720726f6c6520000000000000000000000000000000600082015250565b7f416363657373436f6e74726f6c3a2063616e206f6e6c792072656e6f756e636560008201527f20726f6c657320666f722073656c660000000000000000000000000000000000602082015250565b6002811061324257613241612fcc565b5b50565b6004811061325657613255612fcc565b5b50565b6002811061326a57613269612fcc565b5b50565b61327681612dda565b811461328157600080fd5b50565b61328d81612dfe565b811461329857600080fd5b50565b6132a481612e0a565b81146132af57600080fd5b50565b6132bb81612e14565b81146132c657600080fd5b50565b600281106132d657600080fd5b50565b600481106132e657600080fd5b50565b600281106132f657600080fd5b50565b61330281612e99565b811461330d57600080fd5b5056fea26469706673582212205d6476917cd109a255ce32440d448b6b6d0de921e13ffe0632d78ae6b65a61f564736f6c63430008070033",
  "immutableReferences": {},
  "source": "/**\n * SPDX-License-Identifier: GPL-3.0-or-later\n * Moret\n * Copyright (C) 2021 Moret\n*/\n\npragma solidity 0.8.7;\n\nimport \"@openzeppelin/contracts/token/ERC20/ERC20.sol\";\nimport \"@openzeppelin/contracts/access/AccessControl.sol\";\nimport \"@openzeppelin/contracts/utils/structs/EnumerableSet.sol\";\nimport \"@openzeppelin/contracts/utils/math/Math.sol\";\nimport \"./MoretInterfaces.sol\";\nimport \"./OptionVault.sol\";\nimport \"./VolatilityToken.sol\";\nimport \"./MoretMarketMaker.sol\";\nimport \"./FullMath.sol\";\n\ncontract Exchange is AccessControl, EOption\n{\n    bytes32 public constant ADMIN_ROLE = keccak256(\"ADMIN_ROLE\");\n\n    OptionLibrary.Percent public settlementFee = OptionLibrary.Percent(10 ** 3, 10 ** 6);\n    OptionLibrary.Percent public volTransactionFees = OptionLibrary.Percent(5 * 10 ** 3, 10 ** 6);\n    address payable public contractAddress;\n\n    address public marketMakerAddress;\n    MoretMarketMaker internal marketMaker;\n    OptionVault internal optionVault;\n      ERC20 internal underlyingToken;\n    // mapping(uint256=>VolatilityToken) public volTokensList;\n\n    uint256 private constant ethMultiplier = 10 ** 18;\n    uint256 public maxUtilisation = 10 ** 18;\n\n    constructor(\n      address payable _marketMakerAddress,\n      address _optionAddress\n      // address payable _volTokenAddress\n      )\n    {\n       _setupRole(DEFAULT_ADMIN_ROLE, msg.sender);\n        _setupRole(ADMIN_ROLE, msg.sender);\n\n      optionVault = OptionVault(_optionAddress);\n      marketMakerAddress = _marketMakerAddress;\n      marketMaker = MoretMarketMaker(_marketMakerAddress);\n      // VolatilityToken _volToken = VolatilityToken(_volTokenAddress);\n      // volTokensList[_volToken.tenor()] = _volToken;\n      contractAddress = payable(address(this));\n\n      underlyingToken = ERC20(marketMaker.underlyingAddress());\n    }\n\n    function queryOptionCost(uint256 _tenor, uint256 _strike, uint256 _amount,\n      OptionLibrary.PayoffType _poType, OptionLibrary.OptionSide _side)\n      public view returns(uint256)\n    {\n        (uint256 _utilPrior, uint256 _utilAfter)  = calcUtilisation(_amount, _strike, _poType, _side);\n        // require(Math.max(_utilPrior, _utilAfter)<= maxUtilisation, \"Max utilisation breached.\");\n\n        uint256 _optionCost = optionVault.queryOptionCost(_tenor, _strike, _poType, _side, _amount, _utilPrior, _utilAfter );\n        if(_side == OptionLibrary.OptionSide.Sell){\n          require(_amount>= _optionCost);\n          _optionCost = _amount - _optionCost;\n        }\n        return _optionCost;\n    }\n\n    function purchaseOption(uint256 _tenor, uint256 _strike, \n      OptionLibrary.PayoffType _poType,\n      OptionLibrary.OptionSide _side,\n      uint256 _amount, uint256 _payInCost)\n      external\n      {\n        require(settlementFee.numerator < settlementFee.denominator);\n      uint256 _premium = queryOptionCost(_tenor, _strike, _amount, _poType, _side );\n      uint256 _fee = 0;//MulDiv(_premium, settlementFee.numerator, settlementFee.denominator);\n\n      uint256 _id = optionVault.addOption(_tenor, _strike, _poType, _side, _amount, _premium - _fee, _fee );\n      require(_payInCost >= optionVault.queryDraftOptionCost(_id, false), \"Entered premium incorrect.\");\n      require(underlyingToken.transferFrom(msg.sender, contractAddress, _payInCost), 'Failed payment.');  \n\n      if(_side == OptionLibrary.OptionSide.Buy){  \n        require(underlyingToken.transfer(marketMakerAddress, optionVault.queryOptionPremium(_id)), 'Failed premium payment.');\n      }\n      \n      if(_side == OptionLibrary.OptionSide.Sell){\n        uint256 _netCapital = marketMaker.calcCapital(true, false);\n        uint256 _premiumCollect = Math.max(_amount, _payInCost)-_payInCost;\n        require(_netCapital > _premiumCollect, \"Insufficient capital for options.\");\n        marketMaker.payExchange(_premiumCollect, contractAddress);\n      }\n      \n      optionVault.stampActiveOption(_id, marketMaker.updateInterval());\n\n      marketMaker.recordOption(msg.sender, _id, true);\n      \n      emit newOptionBought(msg.sender, optionVault.getOption(_id), _payInCost, false);\n    }\n/* \n    function purchaseOptionInVol(uint256 _tenor, uint256 _strike, OptionLibrary.PayoffType _poType,\n      uint256 _amount, uint256 _payInCost)\n      external\n      {\n      uint256 _premium = queryOptionCost(_tenor, _strike, _amount, _poType,OptionLibrary.OptionSide.Buy );\n      uint256 _fee = MulDiv(_premium, settlementFee.numerator, settlementFee.denominator);\n\n      uint256 _id = optionVault.addOption(_tenor, _strike, _poType, OptionLibrary.OptionSide.Buy, _amount, _premium - _fee, _fee );\n      require(_payInCost >= optionVault.queryDraftOptionCost(_id, true), \"Entered premium incorrect.\");\n\n      require(volTokensList[_tenor].transferFrom(msg.sender, contractAddress, _payInCost), 'Failed payment.');\n\n      volTokensList[_tenor].approve(volTokensList[_tenor].contractAddress(), _payInCost);\n      volTokensList[_tenor].recycleInToken(contractAddress, _payInCost, underlyingToken);\n      require(underlyingToken.transfer(marketMakerAddress, optionVault.queryOptionPremium(_id)), 'Failed premium payment.');\n\n      optionVault.stampActiveOption(_id);\n\n      marketMaker.recordOption(msg.sender, _id, true,\n        optionVault.queryOptionPremium(_id),\n        optionVault.queryOptionExposure(_id, OptionLibrary.PayoffType.Call),\n        optionVault.queryOptionExposure(_id, OptionLibrary.PayoffType.Put));\n\n      emit newOptionBought(msg.sender, optionVault.getOption(_id), _payInCost, true);\n\n    } */\n\n    function getOptionPayoffValue(uint256 _id) external view returns(uint256){\n      (uint256 _payoff,,) = optionVault.getOptionPayoffValue(_id);\n      return _payoff;\n    }\n\n    /* unction exerciseOption(uint256 _id) external  {\n        optionVault.validateOption(_id, msg.sender);\n\n        uint256 _payoffValue = optionVault.getOptionPayoffValue(_id);\n\n        optionVault.stampExercisedOption(_id);\n\n        require(underlyingToken.transfer(msg.sender, _payoffValue), \"Transfer failed.\");\n\n        marketMaker.recordOption(msg.sender, _id, false);\n\n        emit optionExercised(msg.sender, optionVault.getOption(_id), _payoffValue);\n    } */\n\n    function expireOption(uint256 _id) internal {\n        if(optionVault.isOptionExpiring(_id, marketMaker.updateInterval()))\n        {\n            (uint256 _payoffValue, uint256 _fromMarketMaker,uint256 _toMarketMaker ) = optionVault.getOptionPayoffValue(_id);\n\n            if(_fromMarketMaker >0 )\n            {\n              marketMaker.payExchange(_fromMarketMaker, contractAddress);\n            }\n\n            if(_toMarketMaker >0 )\n            {\n              require(underlyingToken.transfer(marketMakerAddress, _toMarketMaker));\n            }\n\n            require(_payoffValue < underlyingToken.balanceOf(contractAddress), \"Balance insufficient.\");\n\n            optionVault.stampExpiredOption(_id);\n\n            address _optionHolder = optionVault.getOptionHolder(_id);\n            require(underlyingToken.transfer(_optionHolder, _payoffValue), \"Transfer failed.\");\n\n            marketMaker.recordOption(msg.sender, _id, false);\n        }\n    }\n\n      // function addVolToken(address payable _tokenAddress) external onlyRole(ADMIN_ROLE)\n      // {\n      //     VolatilityToken _volToken = VolatilityToken(_tokenAddress);\n      //     /* require(_volToken.descriptionHash() == optionVault.descriptionHash());\n      //     require(optionVault.containsTenor(_volToken.tenor())); */\n\n      //     volTokensList[_volToken.tenor()] = _volToken;\n\n      // }\n\n      // function quoteVolatilityCost(uint256 _tenor, uint256 _volAmount) public view returns(uint256, uint256)\n      // {\n      //     /* require(optionVault.containsTenor(_tenor)); */\n\n      //     (uint256 _price,) = optionVault.queryPrice();\n      //     (uint256 _volatility, ) = optionVault.queryVol(_tenor);\n\n      //     uint256 _value = volTokensList[_tenor].calculateMintValue(_volAmount, _price, _volatility);\n      //     uint256 _fee = _value * volTransactionFees.numerator/ volTransactionFees.denominator;\n\n      //     return (_value, _fee);\n      // }\n\n      // function purchaseVolatilityToken(uint256 _tenor, uint256 _volAmount, uint256 _payInCost)\n      // external {\n      //     (uint256 _value, uint256 _fee) = quoteVolatilityCost(_tenor, _volAmount);\n      //     require(_payInCost >= (_value + _fee));\n\n      //     underlyingToken.transferFrom(msg.sender, address(volTokensList[_tenor]), _value);\n      //     volTokensList[_tenor].mint{value: _value}(msg.sender, _volAmount);\n\n      //     emit newVolatilityTokenBought(msg.sender, block.timestamp, _tenor, _volAmount);\n      // }\n\n      // function sweepBalance() external onlyRole(ADMIN_ROLE){\n      //       require(underlyingToken.transfer(msg.sender, underlyingToken.balanceOf(contractAddress)), \"Withdrawal failed.\");\n      // }\n\n      function resetSettlementFees(uint256 _fee, uint256 _denominator) external onlyRole(ADMIN_ROLE){\n          settlementFee = OptionLibrary.Percent(_fee, _denominator);\n      }\n\n      function resetVolTransactionFees(uint256 _fee, uint256 _denominator) external onlyRole(ADMIN_ROLE){\n          volTransactionFees = OptionLibrary.Percent(_fee, _denominator);\n      }\n\n      function resetMaxUtilisation(uint256 _maxUtil) external onlyRole(ADMIN_ROLE){\n          maxUtilisation = _maxUtil;\n      }\n\n      function calcUtilisation(uint256 _amount, uint256 _strike, OptionLibrary.PayoffType _poType, OptionLibrary.OptionSide _side)\n      public view returns(uint256, uint256){\n          uint256 _grossCapital = marketMaker.calcCapital(false, false);\n          uint256 _netCapital = marketMaker.calcCapital(true, false);\n          uint256 _incrementalCapital = optionVault.queryOptionCapitalV2(_amount, _strike, _poType, _side, marketMaker.capitalRatio());\n          require((_netCapital+_incrementalCapital)<= _grossCapital, \"Insufficient capital.\");\n\n          return (MulDiv(_grossCapital-_netCapital, ethMultiplier, _grossCapital), \n            MulDiv(_grossCapital-_netCapital-_incrementalCapital, ethMultiplier, _grossCapital));\n\n          /* uint256 _newCallExposure = (_poType==OptionLibrary.PayoffType.Call)?\n            ((_side==OptionLibrary.OptionSide.Buy)? (marketMaker.callExposure() + _amount):\n              (marketMaker.callExposure() - Math.min(marketMaker.callExposure(), _amount)) )\n            : marketMaker.callExposure();\n          uint256 _newPutExposure = (_poType==OptionLibrary.PayoffType.Put)?\n            ((_side==OptionLibrary.OptionSide.Buy)? (marketMaker.putExposure()+_amount):\n              (marketMaker.putExposure() - Math.min(marketMaker.putExposure(), _amount)) )\n            : marketMaker.putExposure();\n\n          return (MulDiv(Math.max(marketMaker.callExposure(), marketMaker.putExposure()), ethMultiplier, _grossCapital ),\n            MulDiv(Math.max(_newCallExposure, _newPutExposure) , ethMultiplier, _grossCapital )); */\n      }\n\n      function priceDecimals() external view returns(uint256){ return optionVault.priceDecimals();}\n      function queryPrice() external view returns(uint256, uint256){return optionVault.queryPrice();}\n      function queryVol(uint256 _tenor) external view returns(uint256, uint256){return optionVault.queryVol(_tenor);}\n\n}\n",
  "sourcePath": "/Users/mac/Documents/GitHub/moret/contracts/Exchange.sol",
  "compiler": {
    "name": "solc",
    "version": "0.8.7+commit.e28d00a7.Emscripten.clang"
  },
  "schemaVersion": "3.4.3",
  "updatedAt": "2021-09-15T23:25:58.374Z",
  "networkType": "ethereum",
  "devdoc": {
    "kind": "dev",
    "methods": {
      "getRoleAdmin(bytes32)": {
        "details": "Returns the admin role that controls `role`. See {grantRole} and {revokeRole}. To change a role's admin, use {_setRoleAdmin}."
      },
      "grantRole(bytes32,address)": {
        "details": "Grants `role` to `account`. If `account` had not been already granted `role`, emits a {RoleGranted} event. Requirements: - the caller must have ``role``'s admin role."
      },
      "hasRole(bytes32,address)": {
        "details": "Returns `true` if `account` has been granted `role`."
      },
      "renounceRole(bytes32,address)": {
        "details": "Revokes `role` from the calling account. Roles are often managed via {grantRole} and {revokeRole}: this function's purpose is to provide a mechanism for accounts to lose their privileges if they are compromised (such as when a trusted device is misplaced). If the calling account had been granted `role`, emits a {RoleRevoked} event. Requirements: - the caller must be `account`."
      },
      "revokeRole(bytes32,address)": {
        "details": "Revokes `role` from `account`. If `account` had been granted `role`, emits a {RoleRevoked} event. Requirements: - the caller must have ``role``'s admin role."
      },
      "supportsInterface(bytes4)": {
        "details": "See {IERC165-supportsInterface}."
      }
    },
    "version": 1
  },
  "userdoc": {
    "kind": "user",
    "methods": {},
    "version": 1
  }
}