{
  "contractName": "Exchange",
  "abi": [
    {
      "inputs": [
        {
          "internalType": "address payable",
          "name": "_marketMakerAddress",
          "type": "address"
        },
        {
          "internalType": "address",
          "name": "_optionAddress",
          "type": "address"
        },
        {
          "internalType": "address payable",
          "name": "_volTokenAddress",
          "type": "address"
        }
      ],
      "stateMutability": "nonpayable",
      "type": "constructor"
    },
    {
      "anonymous": false,
      "inputs": [
        {
          "indexed": true,
          "internalType": "bytes32",
          "name": "role",
          "type": "bytes32"
        },
        {
          "indexed": true,
          "internalType": "bytes32",
          "name": "previousAdminRole",
          "type": "bytes32"
        },
        {
          "indexed": true,
          "internalType": "bytes32",
          "name": "newAdminRole",
          "type": "bytes32"
        }
      ],
      "name": "RoleAdminChanged",
      "type": "event"
    },
    {
      "anonymous": false,
      "inputs": [
        {
          "indexed": true,
          "internalType": "bytes32",
          "name": "role",
          "type": "bytes32"
        },
        {
          "indexed": true,
          "internalType": "address",
          "name": "account",
          "type": "address"
        },
        {
          "indexed": true,
          "internalType": "address",
          "name": "sender",
          "type": "address"
        }
      ],
      "name": "RoleGranted",
      "type": "event"
    },
    {
      "anonymous": false,
      "inputs": [
        {
          "indexed": true,
          "internalType": "bytes32",
          "name": "role",
          "type": "bytes32"
        },
        {
          "indexed": true,
          "internalType": "address",
          "name": "account",
          "type": "address"
        },
        {
          "indexed": true,
          "internalType": "address",
          "name": "sender",
          "type": "address"
        }
      ],
      "name": "RoleRevoked",
      "type": "event"
    },
    {
      "anonymous": false,
      "inputs": [
        {
          "indexed": false,
          "internalType": "address",
          "name": "_recipient",
          "type": "address"
        },
        {
          "indexed": false,
          "internalType": "uint256",
          "name": "_mintMPTokenAmount",
          "type": "uint256"
        },
        {
          "indexed": false,
          "internalType": "uint256",
          "name": "_addedValue",
          "type": "uint256"
        }
      ],
      "name": "capitalAdded",
      "type": "event"
    },
    {
      "anonymous": false,
      "inputs": [
        {
          "indexed": false,
          "internalType": "address",
          "name": "_recipient",
          "type": "address"
        },
        {
          "indexed": false,
          "internalType": "uint256",
          "name": "_burnMPTokenAmount",
          "type": "uint256"
        },
        {
          "indexed": false,
          "internalType": "uint256",
          "name": "_withdrawValue",
          "type": "uint256"
        }
      ],
      "name": "capitalWithdrawn",
      "type": "event"
    },
    {
      "anonymous": false,
      "inputs": [
        {
          "indexed": false,
          "internalType": "address",
          "name": "_purchaser",
          "type": "address"
        },
        {
          "indexed": false,
          "internalType": "uint256",
          "name": "_time",
          "type": "uint256"
        },
        {
          "indexed": false,
          "internalType": "uint256",
          "name": "_id",
          "type": "uint256"
        },
        {
          "indexed": false,
          "internalType": "uint256",
          "name": "_cost",
          "type": "uint256"
        },
        {
          "indexed": false,
          "internalType": "bool",
          "name": "_inVol",
          "type": "bool"
        }
      ],
      "name": "newOptionBought",
      "type": "event"
    },
    {
      "anonymous": false,
      "inputs": [
        {
          "indexed": false,
          "internalType": "address",
          "name": "_purchaser",
          "type": "address"
        },
        {
          "indexed": false,
          "internalType": "uint256",
          "name": "_time",
          "type": "uint256"
        },
        {
          "indexed": false,
          "internalType": "uint256",
          "name": "_tenor",
          "type": "uint256"
        },
        {
          "indexed": false,
          "internalType": "uint256",
          "name": "_amount",
          "type": "uint256"
        }
      ],
      "name": "newVolatilityTokenBought",
      "type": "event"
    },
    {
      "anonymous": false,
      "inputs": [
        {
          "indexed": false,
          "internalType": "uint256",
          "name": "_time",
          "type": "uint256"
        },
        {
          "indexed": false,
          "internalType": "uint256",
          "name": "_id",
          "type": "uint256"
        }
      ],
      "name": "optionExercised",
      "type": "event"
    },
    {
      "inputs": [],
      "name": "ADMIN_ROLE",
      "outputs": [
        {
          "internalType": "bytes32",
          "name": "",
          "type": "bytes32"
        }
      ],
      "stateMutability": "view",
      "type": "function"
    },
    {
      "inputs": [],
      "name": "DEFAULT_ADMIN_ROLE",
      "outputs": [
        {
          "internalType": "bytes32",
          "name": "",
          "type": "bytes32"
        }
      ],
      "stateMutability": "view",
      "type": "function"
    },
    {
      "inputs": [
        {
          "internalType": "bytes32",
          "name": "role",
          "type": "bytes32"
        }
      ],
      "name": "getRoleAdmin",
      "outputs": [
        {
          "internalType": "bytes32",
          "name": "",
          "type": "bytes32"
        }
      ],
      "stateMutability": "view",
      "type": "function"
    },
    {
      "inputs": [
        {
          "internalType": "bytes32",
          "name": "role",
          "type": "bytes32"
        },
        {
          "internalType": "address",
          "name": "account",
          "type": "address"
        }
      ],
      "name": "grantRole",
      "outputs": [],
      "stateMutability": "nonpayable",
      "type": "function"
    },
    {
      "inputs": [
        {
          "internalType": "bytes32",
          "name": "role",
          "type": "bytes32"
        },
        {
          "internalType": "address",
          "name": "account",
          "type": "address"
        }
      ],
      "name": "hasRole",
      "outputs": [
        {
          "internalType": "bool",
          "name": "",
          "type": "bool"
        }
      ],
      "stateMutability": "view",
      "type": "function"
    },
    {
      "inputs": [
        {
          "internalType": "bytes32",
          "name": "role",
          "type": "bytes32"
        },
        {
          "internalType": "address",
          "name": "account",
          "type": "address"
        }
      ],
      "name": "renounceRole",
      "outputs": [],
      "stateMutability": "nonpayable",
      "type": "function"
    },
    {
      "inputs": [
        {
          "internalType": "bytes32",
          "name": "role",
          "type": "bytes32"
        },
        {
          "internalType": "address",
          "name": "account",
          "type": "address"
        }
      ],
      "name": "revokeRole",
      "outputs": [],
      "stateMutability": "nonpayable",
      "type": "function"
    },
    {
      "inputs": [],
      "name": "settlementFee",
      "outputs": [
        {
          "internalType": "uint256",
          "name": "numerator",
          "type": "uint256"
        },
        {
          "internalType": "uint256",
          "name": "denominator",
          "type": "uint256"
        }
      ],
      "stateMutability": "view",
      "type": "function"
    },
    {
      "inputs": [
        {
          "internalType": "bytes4",
          "name": "interfaceId",
          "type": "bytes4"
        }
      ],
      "name": "supportsInterface",
      "outputs": [
        {
          "internalType": "bool",
          "name": "",
          "type": "bool"
        }
      ],
      "stateMutability": "view",
      "type": "function"
    },
    {
      "inputs": [],
      "name": "volTransactionFees",
      "outputs": [
        {
          "internalType": "uint256",
          "name": "numerator",
          "type": "uint256"
        },
        {
          "internalType": "uint256",
          "name": "denominator",
          "type": "uint256"
        }
      ],
      "stateMutability": "view",
      "type": "function"
    },
    {
      "stateMutability": "payable",
      "type": "receive"
    },
    {
      "inputs": [
        {
          "internalType": "uint256",
          "name": "_tenor",
          "type": "uint256"
        },
        {
          "internalType": "uint256",
          "name": "_strike",
          "type": "uint256"
        },
        {
          "internalType": "enum OptionLibrary.PayoffType",
          "name": "_poType",
          "type": "uint8"
        },
        {
          "internalType": "uint256",
          "name": "_amount",
          "type": "uint256"
        }
      ],
      "name": "queryOptionCost",
      "outputs": [
        {
          "internalType": "uint256",
          "name": "",
          "type": "uint256"
        }
      ],
      "stateMutability": "view",
      "type": "function"
    },
    {
      "inputs": [
        {
          "internalType": "uint256",
          "name": "_tenor",
          "type": "uint256"
        },
        {
          "internalType": "uint256",
          "name": "_strike",
          "type": "uint256"
        },
        {
          "internalType": "enum OptionLibrary.PayoffType",
          "name": "_poType",
          "type": "uint8"
        },
        {
          "internalType": "uint256",
          "name": "_amount",
          "type": "uint256"
        },
        {
          "internalType": "uint256",
          "name": "_payInCost",
          "type": "uint256"
        }
      ],
      "name": "purchaseOption",
      "outputs": [],
      "stateMutability": "nonpayable",
      "type": "function"
    },
    {
      "inputs": [
        {
          "internalType": "uint256",
          "name": "_tenor",
          "type": "uint256"
        },
        {
          "internalType": "uint256",
          "name": "_strike",
          "type": "uint256"
        },
        {
          "internalType": "enum OptionLibrary.PayoffType",
          "name": "_poType",
          "type": "uint8"
        },
        {
          "internalType": "uint256",
          "name": "_amount",
          "type": "uint256"
        },
        {
          "internalType": "uint256",
          "name": "_payInCost",
          "type": "uint256"
        }
      ],
      "name": "purchaseOptionInVol",
      "outputs": [],
      "stateMutability": "nonpayable",
      "type": "function"
    },
    {
      "inputs": [
        {
          "internalType": "uint256",
          "name": "_id",
          "type": "uint256"
        }
      ],
      "name": "exerciseOption",
      "outputs": [],
      "stateMutability": "nonpayable",
      "type": "function"
    },
    {
      "inputs": [
        {
          "internalType": "address payable",
          "name": "_tokenAddress",
          "type": "address"
        }
      ],
      "name": "addVolToken",
      "outputs": [],
      "stateMutability": "nonpayable",
      "type": "function"
    },
    {
      "inputs": [
        {
          "internalType": "uint256",
          "name": "_tenor",
          "type": "uint256"
        },
        {
          "internalType": "uint256",
          "name": "_volAmount",
          "type": "uint256"
        }
      ],
      "name": "quoteVolatilityCost",
      "outputs": [
        {
          "internalType": "uint256",
          "name": "",
          "type": "uint256"
        },
        {
          "internalType": "uint256",
          "name": "",
          "type": "uint256"
        }
      ],
      "stateMutability": "view",
      "type": "function"
    },
    {
      "inputs": [
        {
          "internalType": "uint256",
          "name": "_tenor",
          "type": "uint256"
        },
        {
          "internalType": "uint256",
          "name": "_volAmount",
          "type": "uint256"
        },
        {
          "internalType": "uint256",
          "name": "_payInCost",
          "type": "uint256"
        }
      ],
      "name": "purchaseVolatilityToken",
      "outputs": [],
      "stateMutability": "nonpayable",
      "type": "function"
    },
    {
      "inputs": [],
      "name": "sweepBalance",
      "outputs": [],
      "stateMutability": "nonpayable",
      "type": "function"
    },
    {
      "inputs": [
        {
          "internalType": "uint256",
          "name": "_fee",
          "type": "uint256"
        },
        {
          "internalType": "uint256",
          "name": "_denominator",
          "type": "uint256"
        }
      ],
      "name": "resetSettlementFees",
      "outputs": [],
      "stateMutability": "nonpayable",
      "type": "function"
    },
    {
      "inputs": [
        {
          "internalType": "uint256",
          "name": "_fee",
          "type": "uint256"
        },
        {
          "internalType": "uint256",
          "name": "_denominator",
          "type": "uint256"
        }
      ],
      "name": "resetVolTransactionFees",
      "outputs": [],
      "stateMutability": "nonpayable",
      "type": "function"
    },
    {
      "inputs": [],
      "name": "priceDecimals",
      "outputs": [
        {
          "internalType": "uint256",
          "name": "",
          "type": "uint256"
        }
      ],
      "stateMutability": "view",
      "type": "function"
    },
    {
      "inputs": [
        {
          "internalType": "uint256",
          "name": "_tenor",
          "type": "uint256"
        }
      ],
      "name": "queryVol",
      "outputs": [
        {
          "internalType": "uint256",
          "name": "",
          "type": "uint256"
        }
      ],
      "stateMutability": "view",
      "type": "function"
    }
  ],
  "bytecode": "0x608060405260405180604001604052806113888152602001620f424081525060016000820151816000015560208201518160010155505060405180604001604052806113888152602001620f42408152506003600082015181600001556020820151816001015550503480156200007557600080fd5b50604051620052733803806200527383398181016040528101906200009b91906200055b565b620000b06000801b336200036b60201b60201c565b620000e27fa49807205ce4d355092ef5a8a18f56e8913cf4a201fbe287825b095693c21775336200036b60201b60201c565b81600760006101000a81548173ffffffffffffffffffffffffffffffffffffffff021916908373ffffffffffffffffffffffffffffffffffffffff16021790555082600660006101000a81548173ffffffffffffffffffffffffffffffffffffffff021916908373ffffffffffffffffffffffffffffffffffffffff160217905550600081905080600960008373ffffffffffffffffffffffffffffffffffffffff1663a15612d16040518163ffffffff1660e01b815260040160206040518083038186803b158015620001b557600080fd5b505afa158015620001ca573d6000803e3d6000fd5b505050506040513d601f19601f82011682018060405250810190620001f09190620005b7565b815260200190815260200160002060006101000a81548173ffffffffffffffffffffffffffffffffffffffff021916908373ffffffffffffffffffffffffffffffffffffffff16021790555030600560006101000a81548173ffffffffffffffffffffffffffffffffffffffff021916908373ffffffffffffffffffffffffffffffffffffffff160217905550600660009054906101000a900473ffffffffffffffffffffffffffffffffffffffff1673ffffffffffffffffffffffffffffffffffffffff16632140ea676040518163ffffffff1660e01b815260040160206040518083038186803b158015620002e657600080fd5b505afa158015620002fb573d6000803e3d6000fd5b505050506040513d601f19601f8201168201806040525081019062000321919062000529565b600860006101000a81548173ffffffffffffffffffffffffffffffffffffffff021916908373ffffffffffffffffffffffffffffffffffffffff160217905550505050506200068e565b6200037d82826200038160201b60201c565b5050565b6200039382826200047260201b60201c565b6200046e57600160008084815260200190815260200160002060000160008373ffffffffffffffffffffffffffffffffffffffff1673ffffffffffffffffffffffffffffffffffffffff16815260200190815260200160002060006101000a81548160ff02191690831515021790555062000413620004dc60201b60201c565b73ffffffffffffffffffffffffffffffffffffffff168173ffffffffffffffffffffffffffffffffffffffff16837f2f8788117e7eff1d82e926ec794901d17c78024a50270940304540a733656f0d60405160405180910390a45b5050565b600080600084815260200190815260200160002060000160008373ffffffffffffffffffffffffffffffffffffffff1673ffffffffffffffffffffffffffffffffffffffff16815260200190815260200160002060009054906101000a900460ff16905092915050565b600033905090565b600081519050620004f58162000640565b92915050565b6000815190506200050c816200065a565b92915050565b600081519050620005238162000674565b92915050565b6000602082840312156200054257620005416200063b565b5b60006200055284828501620004e4565b91505092915050565b6000806000606084860312156200057757620005766200063b565b5b60006200058786828701620004fb565b93505060206200059a86828701620004e4565b9250506040620005ad86828701620004fb565b9150509250925092565b600060208284031215620005d057620005cf6200063b565b5b6000620005e08482850162000512565b91505092915050565b6000620005f68262000611565b9050919050565b60006200060a8262000611565b9050919050565b600073ffffffffffffffffffffffffffffffffffffffff82169050919050565b6000819050919050565b600080fd5b6200064b81620005e9565b81146200065757600080fd5b50565b6200066581620005fd565b81146200067157600080fd5b50565b6200067f8162000631565b81146200068b57600080fd5b50565b614bd5806200069e6000396000f3fe6080604052600436106101395760003560e01c806391d14854116100ab578063b3036ae01161006f578063b3036ae014610446578063b7ab81371461046f578063c3513f6d14610498578063cfc2dc20146104af578063d547741f146104ec578063f52f25261461051557610140565b806391d148541461034e5780639320d4ce1461038b57806393ecc4cb146103b4578063a217fddf146103f2578063a71c12021461041d57610140565b806336568abe116100fd57806336568abe1461023c5780634b70084f14610265578063598ddc60146102a25780635a4a3a92146102cb57806375b238fc146102f75780637d1d7fb81461032257610140565b806301ffc9a71461014557806305300b2814610182578063127b3a6a146101ad578063248a9ca3146101d65780632f2ff15d1461021357610140565b3661014057005b600080fd5b34801561015157600080fd5b5061016c60048036038101906101679190613a4e565b61053e565b60405161017991906141d6565b60405180910390f35b34801561018e57600080fd5b506101976105b8565b6040516101a4919061434e565b60405180910390f35b3480156101b957600080fd5b506101d460048036038101906101cf9190613be9565b61065f565b005b3480156101e257600080fd5b506101fd60048036038101906101f891906139b4565b6113b5565b60405161020a91906141f1565b60405180910390f35b34801561021f57600080fd5b5061023a60048036038101906102359190613a0e565b6113d4565b005b34801561024857600080fd5b50610263600480360381019061025e9190613a0e565b6113fd565b005b34801561027157600080fd5b5061028c60048036038101906102879190613b82565b611480565b604051610299919061434e565b60405180910390f35b3480156102ae57600080fd5b506102c960048036038101906102c49190613b02565b611601565b005b3480156102d757600080fd5b506102e0611666565b6040516102ee9291906143e4565b60405180910390f35b34801561030357600080fd5b5061030c611678565b60405161031991906141f1565b60405180910390f35b34801561032e57600080fd5b5061033761169c565b6040516103459291906143e4565b60405180910390f35b34801561035a57600080fd5b5061037560048036038101906103709190613a0e565b6116ae565b60405161038291906141d6565b60405180910390f35b34801561039757600080fd5b506103b260048036038101906103ad9190613b02565b611718565b005b3480156103c057600080fd5b506103db60048036038101906103d69190613b02565b61177d565b6040516103e99291906143e4565b60405180910390f35b3480156103fe57600080fd5b50610407611a7b565b60405161041491906141f1565b60405180910390f35b34801561042957600080fd5b50610444600480360381019061043f9190613c64565b611a82565b005b34801561045257600080fd5b5061046d60048036038101906104689190613be9565b611c75565b005b34801561047b57600080fd5b506104966004803603810190610491919061392d565b612742565b005b3480156104a457600080fd5b506104ad612aa6565b005b3480156104bb57600080fd5b506104d660048036038101906104d19190613aa8565b612c95565b6040516104e3919061434e565b60405180910390f35b3480156104f857600080fd5b50610513600480360381019061050e9190613a0e565b612d49565b005b34801561052157600080fd5b5061053c60048036038101906105379190613aa8565b612d72565b005b60007f7965db0b000000000000000000000000000000000000000000000000000000007bffffffffffffffffffffffffffffffffffffffffffffffffffffffff1916827bffffffffffffffffffffffffffffffffffffffffffffffffffffffff191614806105b157506105b0826132ff565b5b9050919050565b6000600760009054906101000a900473ffffffffffffffffffffffffffffffffffffffff1673ffffffffffffffffffffffffffffffffffffffff166305300b286040518163ffffffff1660e01b815260040160206040518083038186803b15801561062257600080fd5b505afa158015610636573d6000803e3d6000fd5b505050506040513d601f19601f8201168201806040525081019061065a9190613ad5565b905090565b600760009054906101000a900473ffffffffffffffffffffffffffffffffffffffff1673ffffffffffffffffffffffffffffffffffffffff16634d38cad9866040518263ffffffff1660e01b81526004016106ba919061434e565b60206040518083038186803b1580156106d257600080fd5b505afa1580156106e6573d6000803e3d6000fd5b505050506040513d601f19601f8201168201806040525081019061070a9190613987565b610749576040517f08c379a00000000000000000000000000000000000000000000000000000000081526004016107409061430e565b60405180910390fd5b6000600181111561075d5761075c614853565b5b8360018111156107705761076f614853565b5b148061079f575060018081111561078a57610789614853565b5b83600181111561079d5761079c614853565b5b145b6107de576040517f08c379a00000000000000000000000000000000000000000000000000000000081526004016107d59061424e565b60405180910390fd5b600080600760009054906101000a900473ffffffffffffffffffffffffffffffffffffffff1673ffffffffffffffffffffffffffffffffffffffff1663fa66dcd4888888886001600660009054906101000a900473ffffffffffffffffffffffffffffffffffffffff1673ffffffffffffffffffffffffffffffffffffffff1663c679dc798c8e6040518363ffffffff1660e01b81526004016108829291906143bb565b604080518083038186803b15801561089957600080fd5b505afa1580156108ad573d6000803e3d6000fd5b505050506040513d601f19601f820116820180604052508101906108d19190613a7b565b6040518763ffffffff1660e01b81526004016108f29695949392919061440d565b604080518083038186803b15801561090957600080fd5b505afa15801561091d573d6000803e3d6000fd5b505050506040513d601f19601f820116820180604052508101906109419190613b42565b915091506000600760009054906101000a900473ffffffffffffffffffffffffffffffffffffffff1673ffffffffffffffffffffffffffffffffffffffff1663867536778989898988886040518763ffffffff1660e01b81526004016109ac9695949392919061446f565b602060405180830381600087803b1580156109c657600080fd5b505af11580156109da573d6000803e3d6000fd5b505050506040513d601f19601f820116820180604052508101906109fe9190613ad5565b9050600760009054906101000a900473ffffffffffffffffffffffffffffffffffffffff1673ffffffffffffffffffffffffffffffffffffffff16636abae9b38260016040518363ffffffff1660e01b8152600401610a5e929190614392565b60206040518083038186803b158015610a7657600080fd5b505afa158015610a8a573d6000803e3d6000fd5b505050506040513d601f19601f82011682018060405250810190610aae9190613ad5565b841015610af0576040517f08c379a0000000000000000000000000000000000000000000000000000000008152600401610ae7906142ce565b60405180910390fd5b6009600089815260200190815260200160002060009054906101000a900473ffffffffffffffffffffffffffffffffffffffff1673ffffffffffffffffffffffffffffffffffffffff166323b872dd33600560009054906101000a900473ffffffffffffffffffffffffffffffffffffffff16876040518463ffffffff1660e01b8152600401610b8293929190614054565b602060405180830381600087803b158015610b9c57600080fd5b505af1158015610bb0573d6000803e3d6000fd5b505050506040513d601f19601f82011682018060405250810190610bd49190613987565b610c13576040517f08c379a0000000000000000000000000000000000000000000000000000000008152600401610c0a9061428e565b60405180910390fd5b6009600089815260200190815260200160002060009054906101000a900473ffffffffffffffffffffffffffffffffffffffff1673ffffffffffffffffffffffffffffffffffffffff1663095ea7b3600960008b815260200190815260200160002060009054906101000a900473ffffffffffffffffffffffffffffffffffffffff1673ffffffffffffffffffffffffffffffffffffffff1663f6b4dfb46040518163ffffffff1660e01b815260040160206040518083038186803b158015610cdb57600080fd5b505afa158015610cef573d6000803e3d6000fd5b505050506040513d601f19601f82011682018060405250810190610d13919061395a565b866040518363ffffffff1660e01b8152600401610d31929190613ff4565b602060405180830381600087803b158015610d4b57600080fd5b505af1158015610d5f573d6000803e3d6000fd5b505050506040513d601f19601f82011682018060405250810190610d839190613987565b506009600089815260200190815260200160002060009054906101000a900473ffffffffffffffffffffffffffffffffffffffff1673ffffffffffffffffffffffffffffffffffffffff1663d2f714c5600560009054906101000a900473ffffffffffffffffffffffffffffffffffffffff1686600860009054906101000a900473ffffffffffffffffffffffffffffffffffffffff166040518463ffffffff1660e01b8152600401610e389392919061401d565b602060405180830381600087803b158015610e5257600080fd5b505af1158015610e66573d6000803e3d6000fd5b505050506040513d601f19601f82011682018060405250810190610e8a9190613ad5565b50600860009054906101000a900473ffffffffffffffffffffffffffffffffffffffff1673ffffffffffffffffffffffffffffffffffffffff1663a9059cbb600660009054906101000a900473ffffffffffffffffffffffffffffffffffffffff16600760009054906101000a900473ffffffffffffffffffffffffffffffffffffffff1673ffffffffffffffffffffffffffffffffffffffff166346047a66856040518263ffffffff1660e01b8152600401610f47919061434e565b60206040518083038186803b158015610f5f57600080fd5b505afa158015610f73573d6000803e3d6000fd5b505050506040513d601f19601f82011682018060405250810190610f979190613ad5565b6040518363ffffffff1660e01b8152600401610fb49291906140c2565b602060405180830381600087803b158015610fce57600080fd5b505af1158015610fe2573d6000803e3d6000fd5b505050506040513d601f19601f820116820180604052508101906110069190613987565b611045576040517f08c379a000000000000000000000000000000000000000000000000000000000815260040161103c906142ae565b60405180910390fd5b600760009054906101000a900473ffffffffffffffffffffffffffffffffffffffff1673ffffffffffffffffffffffffffffffffffffffff166328e493c1826040518263ffffffff1660e01b81526004016110a0919061434e565b600060405180830381600087803b1580156110ba57600080fd5b505af11580156110ce573d6000803e3d6000fd5b50505050600660009054906101000a900473ffffffffffffffffffffffffffffffffffffffff1673ffffffffffffffffffffffffffffffffffffffff1663cbe42a183383600760009054906101000a900473ffffffffffffffffffffffffffffffffffffffff1673ffffffffffffffffffffffffffffffffffffffff166346047a66866040518263ffffffff1660e01b815260040161116d919061434e565b60206040518083038186803b15801561118557600080fd5b505afa158015611199573d6000803e3d6000fd5b505050506040513d601f19601f820116820180604052508101906111bd9190613ad5565b600760009054906101000a900473ffffffffffffffffffffffffffffffffffffffff1673ffffffffffffffffffffffffffffffffffffffff1663128734c58760006040518363ffffffff1660e01b815260040161121b9291906143bb565b60206040518083038186803b15801561123357600080fd5b505afa158015611247573d6000803e3d6000fd5b505050506040513d601f19601f8201168201806040525081019061126b9190613ad5565b600760009054906101000a900473ffffffffffffffffffffffffffffffffffffffff1673ffffffffffffffffffffffffffffffffffffffff1663128734c58860016040518363ffffffff1660e01b81526004016112c99291906143bb565b60206040518083038186803b1580156112e157600080fd5b505afa1580156112f5573d6000803e3d6000fd5b505050506040513d601f19601f820116820180604052508101906113199190613ad5565b6040518663ffffffff1660e01b8152600401611339959493929190614183565b600060405180830381600087803b15801561135357600080fd5b505af1158015611367573d6000803e3d6000fd5b505050507fea8251c51a940bb8095a907000291c1bc09e1d2c37e4d69f81e56f4ed31046403342838760016040516113a3959493929190614130565b60405180910390a15050505050505050565b6000806000838152602001908152602001600020600101549050919050565b6113dd826113b5565b6113ee816113e9613369565b613371565b6113f8838361340e565b505050565b611405613369565b73ffffffffffffffffffffffffffffffffffffffff168173ffffffffffffffffffffffffffffffffffffffff1614611472576040517f08c379a00000000000000000000000000000000000000000000000000000000081526004016114699061432e565b60405180910390fd5b61147c82826134ee565b5050565b6000806000600760009054906101000a900473ffffffffffffffffffffffffffffffffffffffff1673ffffffffffffffffffffffffffffffffffffffff1663fa66dcd4888888886001600660009054906101000a900473ffffffffffffffffffffffffffffffffffffffff1673ffffffffffffffffffffffffffffffffffffffff1663c679dc798c8e6040518363ffffffff1660e01b81526004016115269291906143bb565b604080518083038186803b15801561153d57600080fd5b505afa158015611551573d6000803e3d6000fd5b505050506040513d601f19601f820116820180604052508101906115759190613a7b565b6040518763ffffffff1660e01b81526004016115969695949392919061440d565b604080518083038186803b1580156115ad57600080fd5b505afa1580156115c1573d6000803e3d6000fd5b505050506040513d601f19601f820116820180604052508101906115e59190613b42565b9150915080826115f59190614553565b92505050949350505050565b7fa49807205ce4d355092ef5a8a18f56e8913cf4a201fbe287825b095693c217756116338161162e613369565b613371565b60405180604001604052808481526020018381525060036000820151816000015560208201518160010155905050505050565b60038060000154908060010154905082565b7fa49807205ce4d355092ef5a8a18f56e8913cf4a201fbe287825b095693c2177581565b60018060000154908060010154905082565b600080600084815260200190815260200160002060000160008373ffffffffffffffffffffffffffffffffffffffff1673ffffffffffffffffffffffffffffffffffffffff16815260200190815260200160002060009054906101000a900460ff16905092915050565b7fa49807205ce4d355092ef5a8a18f56e8913cf4a201fbe287825b095693c2177561174a81611745613369565b613371565b60405180604001604052808481526020018381525060016000820151816000015560208201518160010155905050505050565b600080600760009054906101000a900473ffffffffffffffffffffffffffffffffffffffff1673ffffffffffffffffffffffffffffffffffffffff16634d38cad9856040518263ffffffff1660e01b81526004016117db919061434e565b60206040518083038186803b1580156117f357600080fd5b505afa158015611807573d6000803e3d6000fd5b505050506040513d601f19601f8201168201806040525081019061182b9190613987565b61183457600080fd5b6000600760009054906101000a900473ffffffffffffffffffffffffffffffffffffffff1673ffffffffffffffffffffffffffffffffffffffff1663b0667cf86040518163ffffffff1660e01b8152600401604080518083038186803b15801561189d57600080fd5b505afa1580156118b1573d6000803e3d6000fd5b505050506040513d601f19601f820116820180604052508101906118d59190613b42565b50905060006009600087815260200190815260200160002060009054906101000a900473ffffffffffffffffffffffffffffffffffffffff1673ffffffffffffffffffffffffffffffffffffffff166362c5c1198684600760009054906101000a900473ffffffffffffffffffffffffffffffffffffffff1673ffffffffffffffffffffffffffffffffffffffff1663cfc2dc208b6040518263ffffffff1660e01b8152600401611986919061434e565b60206040518083038186803b15801561199e57600080fd5b505afa1580156119b2573d6000803e3d6000fd5b505050506040513d601f19601f820116820180604052508101906119d69190613ad5565b6040518463ffffffff1660e01b81526004016119f4939291906144d0565b60206040518083038186803b158015611a0c57600080fd5b505afa158015611a20573d6000803e3d6000fd5b505050506040513d601f19601f82011682018060405250810190611a449190613ad5565b9050600060036001015460036000015483611a5f91906145da565b611a6991906145a9565b90508181945094505050509250929050565b6000801b81565b600080611a8f858561177d565b915091508082611a9f9190614553565b831015611aab57600080fd5b600860009054906101000a900473ffffffffffffffffffffffffffffffffffffffff1673ffffffffffffffffffffffffffffffffffffffff166323b872dd336009600089815260200190815260200160002060009054906101000a900473ffffffffffffffffffffffffffffffffffffffff16856040518463ffffffff1660e01b8152600401611b3d9392919061408b565b602060405180830381600087803b158015611b5757600080fd5b505af1158015611b6b573d6000803e3d6000fd5b505050506040513d601f19601f82011682018060405250810190611b8f9190613987565b506009600086815260200190815260200160002060009054906101000a900473ffffffffffffffffffffffffffffffffffffffff1673ffffffffffffffffffffffffffffffffffffffff166340c10f198333876040518463ffffffff1660e01b8152600401611bff9291906140c2565b6000604051808303818588803b158015611c1857600080fd5b505af1158015611c2c573d6000803e3d6000fd5b50505050507f701297180b43ed5c70ad79a3036dca759169e2b5f64d7c4d04f2322af0511c8d33428787604051611c6694939291906140eb565b60405180910390a15050505050565b600760009054906101000a900473ffffffffffffffffffffffffffffffffffffffff1673ffffffffffffffffffffffffffffffffffffffff16634d38cad9866040518263ffffffff1660e01b8152600401611cd0919061434e565b60206040518083038186803b158015611ce857600080fd5b505afa158015611cfc573d6000803e3d6000fd5b505050506040513d601f19601f82011682018060405250810190611d209190613987565b611d5f576040517f08c379a0000000000000000000000000000000000000000000000000000000008152600401611d569061430e565b60405180910390fd5b60006001811115611d7357611d72614853565b5b836001811115611d8657611d85614853565b5b1480611db55750600180811115611da057611d9f614853565b5b836001811115611db357611db2614853565b5b145b611df4576040517f08c379a0000000000000000000000000000000000000000000000000000000008152600401611deb9061424e565b60405180910390fd5b600080600760009054906101000a900473ffffffffffffffffffffffffffffffffffffffff1673ffffffffffffffffffffffffffffffffffffffff1663fa66dcd4888888886001600660009054906101000a900473ffffffffffffffffffffffffffffffffffffffff1673ffffffffffffffffffffffffffffffffffffffff1663c679dc798c8e6040518363ffffffff1660e01b8152600401611e989291906143bb565b604080518083038186803b158015611eaf57600080fd5b505afa158015611ec3573d6000803e3d6000fd5b505050506040513d601f19601f82011682018060405250810190611ee79190613a7b565b6040518763ffffffff1660e01b8152600401611f089695949392919061440d565b604080518083038186803b158015611f1f57600080fd5b505afa158015611f33573d6000803e3d6000fd5b505050506040513d601f19601f82011682018060405250810190611f579190613b42565b915091506000600760009054906101000a900473ffffffffffffffffffffffffffffffffffffffff1673ffffffffffffffffffffffffffffffffffffffff1663867536778989898988886040518763ffffffff1660e01b8152600401611fc29695949392919061446f565b602060405180830381600087803b158015611fdc57600080fd5b505af1158015611ff0573d6000803e3d6000fd5b505050506040513d601f19601f820116820180604052508101906120149190613ad5565b9050600760009054906101000a900473ffffffffffffffffffffffffffffffffffffffff1673ffffffffffffffffffffffffffffffffffffffff16636abae9b38260006040518363ffffffff1660e01b8152600401612074929190614392565b60206040518083038186803b15801561208c57600080fd5b505afa1580156120a0573d6000803e3d6000fd5b505050506040513d601f19601f820116820180604052508101906120c49190613ad5565b841015612106576040517f08c379a00000000000000000000000000000000000000000000000000000000081526004016120fd906142ce565b60405180910390fd5b600860009054906101000a900473ffffffffffffffffffffffffffffffffffffffff1673ffffffffffffffffffffffffffffffffffffffff166323b872dd33600560009054906101000a900473ffffffffffffffffffffffffffffffffffffffff16876040518463ffffffff1660e01b815260040161218793929190614054565b602060405180830381600087803b1580156121a157600080fd5b505af11580156121b5573d6000803e3d6000fd5b505050506040513d601f19601f820116820180604052508101906121d99190613987565b612218576040517f08c379a000000000000000000000000000000000000000000000000000000000815260040161220f9061428e565b60405180910390fd5b600860009054906101000a900473ffffffffffffffffffffffffffffffffffffffff1673ffffffffffffffffffffffffffffffffffffffff1663a9059cbb600660009054906101000a900473ffffffffffffffffffffffffffffffffffffffff16600760009054906101000a900473ffffffffffffffffffffffffffffffffffffffff1673ffffffffffffffffffffffffffffffffffffffff166346047a66856040518263ffffffff1660e01b81526004016122d4919061434e565b60206040518083038186803b1580156122ec57600080fd5b505afa158015612300573d6000803e3d6000fd5b505050506040513d601f19601f820116820180604052508101906123249190613ad5565b6040518363ffffffff1660e01b81526004016123419291906140c2565b602060405180830381600087803b15801561235b57600080fd5b505af115801561236f573d6000803e3d6000fd5b505050506040513d601f19601f820116820180604052508101906123939190613987565b6123d2576040517f08c379a00000000000000000000000000000000000000000000000000000000081526004016123c9906142ae565b60405180910390fd5b600760009054906101000a900473ffffffffffffffffffffffffffffffffffffffff1673ffffffffffffffffffffffffffffffffffffffff166328e493c1826040518263ffffffff1660e01b815260040161242d919061434e565b600060405180830381600087803b15801561244757600080fd5b505af115801561245b573d6000803e3d6000fd5b50505050600660009054906101000a900473ffffffffffffffffffffffffffffffffffffffff1673ffffffffffffffffffffffffffffffffffffffff1663cbe42a183383600760009054906101000a900473ffffffffffffffffffffffffffffffffffffffff1673ffffffffffffffffffffffffffffffffffffffff166346047a66866040518263ffffffff1660e01b81526004016124fa919061434e565b60206040518083038186803b15801561251257600080fd5b505afa158015612526573d6000803e3d6000fd5b505050506040513d601f19601f8201168201806040525081019061254a9190613ad5565b600760009054906101000a900473ffffffffffffffffffffffffffffffffffffffff1673ffffffffffffffffffffffffffffffffffffffff1663128734c58760006040518363ffffffff1660e01b81526004016125a89291906143bb565b60206040518083038186803b1580156125c057600080fd5b505afa1580156125d4573d6000803e3d6000fd5b505050506040513d601f19601f820116820180604052508101906125f89190613ad5565b600760009054906101000a900473ffffffffffffffffffffffffffffffffffffffff1673ffffffffffffffffffffffffffffffffffffffff1663128734c58860016040518363ffffffff1660e01b81526004016126569291906143bb565b60206040518083038186803b15801561266e57600080fd5b505afa158015612682573d6000803e3d6000fd5b505050506040513d601f19601f820116820180604052508101906126a69190613ad5565b6040518663ffffffff1660e01b81526004016126c6959493929190614183565b600060405180830381600087803b1580156126e057600080fd5b505af11580156126f4573d6000803e3d6000fd5b505050507fea8251c51a940bb8095a907000291c1bc09e1d2c37e4d69f81e56f4ed3104640334283876000604051612730959493929190614130565b60405180910390a15050505050505050565b7fa49807205ce4d355092ef5a8a18f56e8913cf4a201fbe287825b095693c217756127748161276f613369565b613371565b6000829050600760009054906101000a900473ffffffffffffffffffffffffffffffffffffffff1673ffffffffffffffffffffffffffffffffffffffff166385dcee936040518163ffffffff1660e01b815260040160206040518083038186803b1580156127e157600080fd5b505afa1580156127f5573d6000803e3d6000fd5b505050506040513d601f19601f8201168201806040525081019061281991906139e1565b8173ffffffffffffffffffffffffffffffffffffffff166385dcee936040518163ffffffff1660e01b815260040160206040518083038186803b15801561285f57600080fd5b505afa158015612873573d6000803e3d6000fd5b505050506040513d601f19601f8201168201806040525081019061289791906139e1565b146128a157600080fd5b600760009054906101000a900473ffffffffffffffffffffffffffffffffffffffff1673ffffffffffffffffffffffffffffffffffffffff16634d38cad98273ffffffffffffffffffffffffffffffffffffffff1663a15612d16040518163ffffffff1660e01b815260040160206040518083038186803b15801561292557600080fd5b505afa158015612939573d6000803e3d6000fd5b505050506040513d601f19601f8201168201806040525081019061295d9190613ad5565b6040518263ffffffff1660e01b8152600401612979919061434e565b60206040518083038186803b15801561299157600080fd5b505afa1580156129a5573d6000803e3d6000fd5b505050506040513d601f19601f820116820180604052508101906129c99190613987565b6129d257600080fd5b80600960008373ffffffffffffffffffffffffffffffffffffffff1663a15612d16040518163ffffffff1660e01b815260040160206040518083038186803b158015612a1d57600080fd5b505afa158015612a31573d6000803e3d6000fd5b505050506040513d601f19601f82011682018060405250810190612a559190613ad5565b815260200190815260200160002060006101000a81548173ffffffffffffffffffffffffffffffffffffffff021916908373ffffffffffffffffffffffffffffffffffffffff160217905550505050565b7fa49807205ce4d355092ef5a8a18f56e8913cf4a201fbe287825b095693c21775612ad881612ad3613369565b613371565b600860009054906101000a900473ffffffffffffffffffffffffffffffffffffffff1673ffffffffffffffffffffffffffffffffffffffff1663a9059cbb33600860009054906101000a900473ffffffffffffffffffffffffffffffffffffffff1673ffffffffffffffffffffffffffffffffffffffff166370a08231600560009054906101000a900473ffffffffffffffffffffffffffffffffffffffff166040518263ffffffff1660e01b8152600401612b949190613fd9565b60206040518083038186803b158015612bac57600080fd5b505afa158015612bc0573d6000803e3d6000fd5b505050506040513d601f19601f82011682018060405250810190612be49190613ad5565b6040518363ffffffff1660e01b8152600401612c019291906140c2565b602060405180830381600087803b158015612c1b57600080fd5b505af1158015612c2f573d6000803e3d6000fd5b505050506040513d601f19601f82011682018060405250810190612c539190613987565b612c92576040517f08c379a0000000000000000000000000000000000000000000000000000000008152600401612c899061426e565b60405180910390fd5b50565b6000600760009054906101000a900473ffffffffffffffffffffffffffffffffffffffff1673ffffffffffffffffffffffffffffffffffffffff1663cfc2dc20836040518263ffffffff1660e01b8152600401612cf2919061434e565b60206040518083038186803b158015612d0a57600080fd5b505afa158015612d1e573d6000803e3d6000fd5b505050506040513d601f19601f82011682018060405250810190612d429190613ad5565b9050919050565b612d52826113b5565b612d6381612d5e613369565b613371565b612d6d83836134ee565b505050565b600760009054906101000a900473ffffffffffffffffffffffffffffffffffffffff1673ffffffffffffffffffffffffffffffffffffffff1663a556feec82336040518363ffffffff1660e01b8152600401612dcf929190614369565b60006040518083038186803b158015612de757600080fd5b505afa158015612dfb573d6000803e3d6000fd5b505050506000600760009054906101000a900473ffffffffffffffffffffffffffffffffffffffff1673ffffffffffffffffffffffffffffffffffffffff166340d6eaab836040518263ffffffff1660e01b8152600401612e5c919061434e565b60206040518083038186803b158015612e7457600080fd5b505afa158015612e88573d6000803e3d6000fd5b505050506040513d601f19601f82011682018060405250810190612eac9190613ad5565b9050600760009054906101000a900473ffffffffffffffffffffffffffffffffffffffff1673ffffffffffffffffffffffffffffffffffffffff16636c1f7b93836040518263ffffffff1660e01b8152600401612f09919061434e565b600060405180830381600087803b158015612f2357600080fd5b505af1158015612f37573d6000803e3d6000fd5b50505050600860009054906101000a900473ffffffffffffffffffffffffffffffffffffffff1673ffffffffffffffffffffffffffffffffffffffff1663a9059cbb33836040518363ffffffff1660e01b8152600401612f989291906140c2565b602060405180830381600087803b158015612fb257600080fd5b505af1158015612fc6573d6000803e3d6000fd5b505050506040513d601f19601f82011682018060405250810190612fea9190613987565b613029576040517f08c379a0000000000000000000000000000000000000000000000000000000008152600401613020906142ee565b60405180910390fd5b600660009054906101000a900473ffffffffffffffffffffffffffffffffffffffff1673ffffffffffffffffffffffffffffffffffffffff1663d5093b0b3384600760009054906101000a900473ffffffffffffffffffffffffffffffffffffffff1673ffffffffffffffffffffffffffffffffffffffff166346047a66876040518263ffffffff1660e01b81526004016130c4919061434e565b60206040518083038186803b1580156130dc57600080fd5b505afa1580156130f0573d6000803e3d6000fd5b505050506040513d601f19601f820116820180604052508101906131149190613ad5565b600760009054906101000a900473ffffffffffffffffffffffffffffffffffffffff1673ffffffffffffffffffffffffffffffffffffffff1663128734c58860006040518363ffffffff1660e01b81526004016131729291906143bb565b60206040518083038186803b15801561318a57600080fd5b505afa15801561319e573d6000803e3d6000fd5b505050506040513d601f19601f820116820180604052508101906131c29190613ad5565b600760009054906101000a900473ffffffffffffffffffffffffffffffffffffffff1673ffffffffffffffffffffffffffffffffffffffff1663128734c58960016040518363ffffffff1660e01b81526004016132209291906143bb565b60206040518083038186803b15801561323857600080fd5b505afa15801561324c573d6000803e3d6000fd5b505050506040513d601f19601f820116820180604052508101906132709190613ad5565b6040518663ffffffff1660e01b8152600401613290959493929190614183565b600060405180830381600087803b1580156132aa57600080fd5b505af11580156132be573d6000803e3d6000fd5b505050507f0bb99e129e5fcf8767a2ede7e52d7f33f9c773cd484cc97a36467772da52c3b482426040516132f39291906143e4565b60405180910390a15050565b60007f01ffc9a7000000000000000000000000000000000000000000000000000000007bffffffffffffffffffffffffffffffffffffffffffffffffffffffff1916827bffffffffffffffffffffffffffffffffffffffffffffffffffffffff1916149050919050565b600033905090565b61337b82826116ae565b61340a576133a08173ffffffffffffffffffffffffffffffffffffffff1660146135cf565b6133ae8360001c60206135cf565b6040516020016133bf929190613f9f565b6040516020818303038152906040526040517f08c379a0000000000000000000000000000000000000000000000000000000008152600401613401919061420c565b60405180910390fd5b5050565b61341882826116ae565b6134ea57600160008084815260200190815260200160002060000160008373ffffffffffffffffffffffffffffffffffffffff1673ffffffffffffffffffffffffffffffffffffffff16815260200190815260200160002060006101000a81548160ff02191690831515021790555061348f613369565b73ffffffffffffffffffffffffffffffffffffffff168173ffffffffffffffffffffffffffffffffffffffff16837f2f8788117e7eff1d82e926ec794901d17c78024a50270940304540a733656f0d60405160405180910390a45b5050565b6134f882826116ae565b156135cb57600080600084815260200190815260200160002060000160008373ffffffffffffffffffffffffffffffffffffffff1673ffffffffffffffffffffffffffffffffffffffff16815260200190815260200160002060006101000a81548160ff021916908315150217905550613570613369565b73ffffffffffffffffffffffffffffffffffffffff168173ffffffffffffffffffffffffffffffffffffffff16837ff6391f5c32d9c69d2a47ea670b442974b53935d1edc7fd64eb21e047a839171b60405160405180910390a45b5050565b6060600060028360026135e291906145da565b6135ec9190614553565b67ffffffffffffffff811115613605576136046148b1565b5b6040519080825280601f01601f1916602001820160405280156136375781602001600182028036833780820191505090505b5090507f30000000000000000000000000000000000000000000000000000000000000008160008151811061366f5761366e614882565b5b60200101907effffffffffffffffffffffffffffffffffffffffffffffffffffffffffffff1916908160001a9053507f7800000000000000000000000000000000000000000000000000000000000000816001815181106136d3576136d2614882565b5b60200101907effffffffffffffffffffffffffffffffffffffffffffffffffffffffffffff1916908160001a9053506000600184600261371391906145da565b61371d9190614553565b90505b60018111156137bd577f3031323334353637383961626364656600000000000000000000000000000000600f86166010811061375f5761375e614882565b5b1a60f81b82828151811061377657613775614882565b5b60200101907effffffffffffffffffffffffffffffffffffffffffffffffffffffffffffff1916908160001a905350600485901c9450806137b690614780565b9050613720565b5060008414613801576040517f08c379a00000000000000000000000000000000000000000000000000000000081526004016137f89061422e565b60405180910390fd5b8091505092915050565b60008135905061381a81614b05565b92915050565b60008135905061382f81614b1c565b92915050565b60008151905061384481614b1c565b92915050565b60008151905061385981614b33565b92915050565b60008135905061386e81614b4a565b92915050565b60008151905061388381614b4a565b92915050565b60008135905061389881614b61565b92915050565b6000813590506138ad81614b78565b92915050565b6000604082840312156138c9576138c86148e0565b5b6138d36040614507565b905060006138e384828501613918565b60008301525060206138f784828501613918565b60208301525092915050565b60008135905061391281614b88565b92915050565b60008151905061392781614b88565b92915050565b600060208284031215613943576139426148e5565b5b600061395184828501613820565b91505092915050565b6000602082840312156139705761396f6148e5565b5b600061397e84828501613835565b91505092915050565b60006020828403121561399d5761399c6148e5565b5b60006139ab8482850161384a565b91505092915050565b6000602082840312156139ca576139c96148e5565b5b60006139d88482850161385f565b91505092915050565b6000602082840312156139f7576139f66148e5565b5b6000613a0584828501613874565b91505092915050565b60008060408385031215613a2557613a246148e5565b5b6000613a338582860161385f565b9250506020613a448582860161380b565b9150509250929050565b600060208284031215613a6457613a636148e5565b5b6000613a7284828501613889565b91505092915050565b600060408284031215613a9157613a906148e5565b5b6000613a9f848285016138b3565b91505092915050565b600060208284031215613abe57613abd6148e5565b5b6000613acc84828501613903565b91505092915050565b600060208284031215613aeb57613aea6148e5565b5b6000613af984828501613918565b91505092915050565b60008060408385031215613b1957613b186148e5565b5b6000613b2785828601613903565b9250506020613b3885828601613903565b9150509250929050565b60008060408385031215613b5957613b586148e5565b5b6000613b6785828601613918565b9250506020613b7885828601613918565b9150509250929050565b60008060008060808587031215613b9c57613b9b6148e5565b5b6000613baa87828801613903565b9450506020613bbb87828801613903565b9350506040613bcc8782880161389e565b9250506060613bdd87828801613903565b91505092959194509250565b600080600080600060a08688031215613c0557613c046148e5565b5b6000613c1388828901613903565b9550506020613c2488828901613903565b9450506040613c358882890161389e565b9350506060613c4688828901613903565b9250506080613c5788828901613903565b9150509295509295909350565b600080600060608486031215613c7d57613c7c6148e5565b5b6000613c8b86828701613903565b9350506020613c9c86828701613903565b9250506040613cad86828701613903565b9150509250925092565b613cc0816146e1565b82525050565b613ccf81614650565b82525050565b613cde8161463e565b82525050565b613ced81614662565b82525050565b613cfc8161466e565b82525050565b613d0b816146f3565b82525050565b613d1a81614717565b82525050565b6000613d2b8261452c565b613d358185614537565b9350613d4581856020860161474d565b613d4e816148ea565b840191505092915050565b6000613d648261452c565b613d6e8185614548565b9350613d7e81856020860161474d565b80840191505092915050565b6000613d97602083614537565b9150613da282614908565b602082019050919050565b6000613dba601883614537565b9150613dc582614931565b602082019050919050565b6000613ddd601283614537565b9150613de88261495a565b602082019050919050565b6000613e00600f83614537565b9150613e0b82614983565b602082019050919050565b6000613e23601783614537565b9150613e2e826149ac565b602082019050919050565b6000613e46601a83614537565b9150613e51826149d5565b602082019050919050565b6000613e69601083614537565b9150613e74826149fe565b602082019050919050565b6000613e8c601983614537565b9150613e9782614a27565b602082019050919050565b6000613eaf601783614548565b9150613eba82614a50565b601782019050919050565b6000613ed2601183614548565b9150613edd82614a79565b601182019050919050565b6000613ef5602f83614537565b9150613f0082614aa2565b604082019050919050565b604082016000820151613f216000850182613f81565b506020820151613f346020850182613f81565b50505050565b604082016000808301549050613f4f816147aa565b613f5c6000860182613f81565b5060018301549050613f6d816147aa565b613f7a6020860182613f81565b5050505050565b613f8a816146d7565b82525050565b613f99816146d7565b82525050565b6000613faa82613ea2565b9150613fb68285613d59565b9150613fc182613ec5565b9150613fcd8284613d59565b91508190509392505050565b6000602082019050613fee6000830184613cb7565b92915050565b60006040820190506140096000830185613cb7565b6140166020830184613f90565b9392505050565b60006060820190506140326000830186613cc6565b61403f6020830185613f90565b61404c6040830184613d02565b949350505050565b60006060820190506140696000830186613cd5565b6140766020830185613cb7565b6140836040830184613f90565b949350505050565b60006060820190506140a06000830186613cd5565b6140ad6020830185613cd5565b6140ba6040830184613f90565b949350505050565b60006040820190506140d76000830185613cd5565b6140e46020830184613f90565b9392505050565b60006080820190506141006000830187613cd5565b61410d6020830186613f90565b61411a6040830185613f90565b6141276060830184613f90565b95945050505050565b600060a0820190506141456000830188613cd5565b6141526020830187613f90565b61415f6040830186613f90565b61416c6060830185613f90565b6141796080830184613ce4565b9695505050505050565b600060a0820190506141986000830188613cd5565b6141a56020830187613f90565b6141b26040830186613f90565b6141bf6060830185613f90565b6141cc6080830184613f90565b9695505050505050565b60006020820190506141eb6000830184613ce4565b92915050565b60006020820190506142066000830184613cf3565b92915050565b600060208201905081810360008301526142268184613d20565b905092915050565b6000602082019050818103600083015261424781613d8a565b9050919050565b6000602082019050818103600083015261426781613dad565b9050919050565b6000602082019050818103600083015261428781613dd0565b9050919050565b600060208201905081810360008301526142a781613df3565b9050919050565b600060208201905081810360008301526142c781613e16565b9050919050565b600060208201905081810360008301526142e781613e39565b9050919050565b6000602082019050818103600083015261430781613e5c565b9050919050565b6000602082019050818103600083015261432781613e7f565b9050919050565b6000602082019050818103600083015261434781613ee8565b9050919050565b60006020820190506143636000830184613f90565b92915050565b600060408201905061437e6000830185613f90565b61438b6020830184613cd5565b9392505050565b60006040820190506143a76000830185613f90565b6143b46020830184613ce4565b9392505050565b60006040820190506143d06000830185613f90565b6143dd6020830184613d11565b9392505050565b60006040820190506143f96000830185613f90565b6144066020830184613f90565b9392505050565b6000610100820190506144236000830189613f90565b6144306020830188613f90565b61443d6040830187613d11565b61444a6060830186613f90565b6144576080830185613f3a565b61446460c0830184613f0b565b979650505050505050565b600060c0820190506144846000830189613f90565b6144916020830188613f90565b61449e6040830187613d11565b6144ab6060830186613f90565b6144b86080830185613f90565b6144c560a0830184613f90565b979650505050505050565b60006060820190506144e56000830186613f90565b6144f26020830185613f90565b6144ff6040830184613f90565b949350505050565b6000614511614522565b905061451d82826147c4565b919050565b6000604051905090565b600081519050919050565b600082825260208201905092915050565b600081905092915050565b600061455e826146d7565b9150614569836146d7565b9250827fffffffffffffffffffffffffffffffffffffffffffffffffffffffffffffffff0382111561459e5761459d6147f5565b5b828201905092915050565b60006145b4826146d7565b91506145bf836146d7565b9250826145cf576145ce614824565b5b828204905092915050565b60006145e5826146d7565b91506145f0836146d7565b9250817fffffffffffffffffffffffffffffffffffffffffffffffffffffffffffffffff0483118215151615614629576146286147f5565b5b828202905092915050565b6000819050919050565b6000614649826146b7565b9050919050565b600061465b826146b7565b9050919050565b60008115159050919050565b6000819050919050565b60007fffffffff0000000000000000000000000000000000000000000000000000000082169050919050565b60008190506146b282614af1565b919050565b600073ffffffffffffffffffffffffffffffffffffffff82169050919050565b6000819050919050565b60006146ec82614729565b9050919050565b60006146fe82614705565b9050919050565b6000614710826146b7565b9050919050565b6000614722826146a4565b9050919050565b60006147348261473b565b9050919050565b6000614746826146b7565b9050919050565b60005b8381101561476b578082015181840152602081019050614750565b8381111561477a576000848401525b50505050565b600061478b826146d7565b9150600082141561479f5761479e6147f5565b5b600182039050919050565b60006147bd6147b8836148fb565b614634565b9050919050565b6147cd826148ea565b810181811067ffffffffffffffff821117156147ec576147eb6148b1565b5b80604052505050565b7f4e487b7100000000000000000000000000000000000000000000000000000000600052601160045260246000fd5b7f4e487b7100000000000000000000000000000000000000000000000000000000600052601260045260246000fd5b7f4e487b7100000000000000000000000000000000000000000000000000000000600052602160045260246000fd5b7f4e487b7100000000000000000000000000000000000000000000000000000000600052603260045260246000fd5b7f4e487b7100000000000000000000000000000000000000000000000000000000600052604160045260246000fd5b600080fd5b600080fd5b6000601f19601f8301169050919050565b60008160001c9050919050565b7f537472696e67733a20686578206c656e67746820696e73756666696369656e74600082015250565b7f556e737570706f72746564206f7074696f6e20747970652e0000000000000000600082015250565b7f5769746864726177616c206661696c65642e0000000000000000000000000000600082015250565b7f4661696c6564207061796d656e742e0000000000000000000000000000000000600082015250565b7f4661696c6564207072656d69756d207061796d656e742e000000000000000000600082015250565b7f456e7465726564207072656d69756d20696e636f72726563742e000000000000600082015250565b7f5472616e73666572206661696c65642e00000000000000000000000000000000600082015250565b7f556e737570706f72746564206f7074696f6e2074656e6f722e00000000000000600082015250565b7f416363657373436f6e74726f6c3a206163636f756e7420000000000000000000600082015250565b7f206973206d697373696e6720726f6c6520000000000000000000000000000000600082015250565b7f416363657373436f6e74726f6c3a2063616e206f6e6c792072656e6f756e636560008201527f20726f6c657320666f722073656c660000000000000000000000000000000000602082015250565b60028110614b0257614b01614853565b5b50565b614b0e8161463e565b8114614b1957600080fd5b50565b614b2581614650565b8114614b3057600080fd5b50565b614b3c81614662565b8114614b4757600080fd5b50565b614b538161466e565b8114614b5e57600080fd5b50565b614b6a81614678565b8114614b7557600080fd5b50565b60028110614b8557600080fd5b50565b614b91816146d7565b8114614b9c57600080fd5b5056fea2646970667358221220988b496d95af8f9186f9f70eb7bbe4239eb32df9f4952e7bc19cb21fa63efc6664736f6c63430008060033",
  "immutableReferences": {},
  "source": "/**\n * SPDX-License-Identifier: GPL-3.0-or-later\n * Moret\n * Copyright (C) 2021 Moret\n*/\n\npragma solidity ^0.8.4;\n\nimport \"@openzeppelin/contracts/token/ERC20/ERC20.sol\";\nimport \"@openzeppelin/contracts/access/AccessControl.sol\";\nimport \"./MoretInterfaces.sol\";\nimport \"./OptionVault.sol\";\nimport \"./VolatilityToken.sol\";\nimport \"./MoretMarketMaker.sol\";\n\ncontract Exchange is AccessControl, IOption\n{\n    bytes32 public constant ADMIN_ROLE = keccak256(\"ADMIN_ROLE\");\n\n    OptionLibrary.Percent public settlementFee = OptionLibrary.Percent(5 * 10 ** 3, 10 ** 6);\n    OptionLibrary.Percent public volTransactionFees = OptionLibrary.Percent(5 * 10 ** 3, 10 ** 6);\n      address payable contractAddress;\n\n    MoretMarketMaker internal marketMaker;\n    OptionVault internal optionVault;\n      ERC20 internal underlyingToken;\n    mapping(uint256=>VolatilityToken) volTokensList;\n\n    constructor(\n      address payable _marketMakerAddress,\n      address _optionAddress,\n      address payable _volTokenAddress\n      )\n    {\n       _setupRole(DEFAULT_ADMIN_ROLE, msg.sender);\n        _setupRole(ADMIN_ROLE, msg.sender);\n\n      optionVault = OptionVault(_optionAddress);\n      marketMaker = MoretMarketMaker(_marketMakerAddress);\n      VolatilityToken _volToken = VolatilityToken(_volTokenAddress);\n      volTokensList[_volToken.tenor()] = _volToken;\n      contractAddress = payable(address(this));\n\n      underlyingToken = ERC20(marketMaker.underlyingAddress());\n    }\n\n\n    function queryOptionCost(uint256 _tenor, uint256 _strike, OptionLibrary.PayoffType _poType, uint256 _amount) external view returns(uint256)\n    {\n        (uint256 _premium, uint256 _fee) = optionVault.queryOptionCost(_tenor, _strike, _poType, _amount,\n          settlementFee, marketMaker.calcUtilityAddon(_amount, _poType) );\n        return _premium + _fee;\n    }\n\n    function purchaseOption(uint256 _tenor, uint256 _strike, OptionLibrary.PayoffType _poType,\n      uint256 _amount, uint256 _payInCost)\n      external\n      {\n      require(optionVault.containsTenor(_tenor), \"Unsupported option tenor.\");\n      require((_poType == OptionLibrary.PayoffType.Call) || (_poType==OptionLibrary.PayoffType.Put), \"Unsupported option type.\");\n\n      (uint256 _premium, uint256 _fee) = optionVault.queryOptionCost(_tenor, _strike, _poType, _amount,\n        settlementFee, marketMaker.calcUtilityAddon(_amount, _poType) );\n\n      uint256 _id = optionVault.addOption(_tenor, _strike, _poType, _amount, _premium, _fee );\n\n      require(_payInCost >= optionVault.queryDraftOptionCost(_id, false), \"Entered premium incorrect.\");\n\n      require(underlyingToken.transferFrom(msg.sender, contractAddress, _payInCost), 'Failed payment.');\n      require(underlyingToken.transfer(address(marketMaker), optionVault.queryOptionPremium(_id)), 'Failed premium payment.');\n\n      optionVault.stampActiveOption(_id);\n\n      marketMaker.recordOptionPurhcase(msg.sender, _id, optionVault.queryOptionPremium(_id),\n        optionVault.queryOptionExposure(_id, OptionLibrary.PayoffType.Call),\n        optionVault.queryOptionExposure(_id, OptionLibrary.PayoffType.Put));\n\n        emit newOptionBought(msg.sender, block.timestamp, _id, _payInCost, false);\n    }\n\n    function purchaseOptionInVol(uint256 _tenor, uint256 _strike, OptionLibrary.PayoffType _poType,\n      uint256 _amount, uint256 _payInCost)\n      external\n      {\n      require(optionVault.containsTenor(_tenor), \"Unsupported option tenor.\");\n      require((_poType == OptionLibrary.PayoffType.Call) || (_poType==OptionLibrary.PayoffType.Put), \"Unsupported option type.\");\n\n      (uint256 _premium, uint256 _fee) = optionVault.queryOptionCost(_tenor, _strike, _poType, _amount,\n        settlementFee, marketMaker.calcUtilityAddon(_amount, _poType) );\n\n      uint256 _id = optionVault.addOption(_tenor, _strike, _poType, _amount, _premium, _fee );\n      require(_payInCost >= optionVault.queryDraftOptionCost(_id, true), \"Entered premium incorrect.\");\n\n      require(volTokensList[_tenor].transferFrom(msg.sender, contractAddress, _payInCost), 'Failed payment.');\n\n      volTokensList[_tenor].approve(volTokensList[_tenor].contractAddress(), _payInCost);\n      volTokensList[_tenor].recycleInToken(contractAddress, _payInCost, underlyingToken);\n      require(underlyingToken.transfer(address(marketMaker), optionVault.queryOptionPremium(_id)), 'Failed premium payment.');\n\n      optionVault.stampActiveOption(_id);\n\n      marketMaker.recordOptionPurhcase(msg.sender, _id, optionVault.queryOptionPremium(_id),\n        optionVault.queryOptionExposure(_id, OptionLibrary.PayoffType.Call),\n        optionVault.queryOptionExposure(_id, OptionLibrary.PayoffType.Put));\n\n      emit newOptionBought(msg.sender, block.timestamp, _id, _payInCost, true);\n    }\n\n    function exerciseOption(uint256 _id) external  {\n        optionVault.validateOption(_id, msg.sender);\n\n        uint256 _payoffValue = optionVault.getOptionPayoffValue(_id);\n\n        optionVault.stampExercisedOption(_id);\n\n        require(underlyingToken.transfer(msg.sender, _payoffValue), \"Transfer failed.\");\n\n        marketMaker.recordOptionRemoval(msg.sender, _id, optionVault.queryOptionPremium(_id),\n          optionVault.queryOptionExposure(_id, OptionLibrary.PayoffType.Call),\n          optionVault.queryOptionExposure(_id, OptionLibrary.PayoffType.Put));\n\n        emit optionExercised(_id, block.timestamp);\n    }\n\n    function expireOption(uint256 _id) internal {\n        if(optionVault.isOptionExpiring(_id))\n        {\n            uint256 _payoffValue = optionVault.getOptionPayoffValue(_id);\n            require(_payoffValue < underlyingToken.balanceOf(contractAddress), \"Balance insufficient.\");\n\n            optionVault.stampExercisedOption(_id);\n\n            address payable _optionHolder = optionVault.getOptionHolder(_id);\n            require(underlyingToken.transfer(_optionHolder, _payoffValue), \"Transfer failed.\");\n\n            marketMaker.recordOptionRemoval(msg.sender, _id, optionVault.queryOptionPremium(_id),\n              optionVault.queryOptionExposure(_id, OptionLibrary.PayoffType.Call),\n              optionVault.queryOptionExposure(_id, OptionLibrary.PayoffType.Put));\n        }\n    }\n\n\n      function addVolToken(address payable _tokenAddress) external onlyRole(ADMIN_ROLE)\n      {\n          VolatilityToken _volToken = VolatilityToken(_tokenAddress);\n          require(_volToken.descriptionHash() == optionVault.descriptionHash());\n          require(optionVault.containsTenor(_volToken.tenor()));\n\n          volTokensList[_volToken.tenor()] = _volToken;\n\n      }\n\n      function quoteVolatilityCost(uint256 _tenor, uint256 _volAmount) public view returns(uint256, uint256)\n      {\n          require(optionVault.containsTenor(_tenor));\n\n          (uint256 _price,) = optionVault.queryPrice();\n\n          uint256 _value = volTokensList[_tenor].calculateMintValue(_volAmount, _price, optionVault.queryVol(_tenor));\n          uint256 _fee = _value * volTransactionFees.numerator/ volTransactionFees.denominator;\n\n          return (_value, _fee);\n      }\n\n      function purchaseVolatilityToken(uint256 _tenor, uint256 _volAmount, uint256 _payInCost)\n      external {\n          (uint256 _value, uint256 _fee) = quoteVolatilityCost(_tenor, _volAmount);\n          require(_payInCost >= (_value + _fee));\n\n          underlyingToken.transferFrom(msg.sender, address(volTokensList[_tenor]), _value);\n          volTokensList[_tenor].mint{value: _value}(msg.sender, _volAmount);\n\n          emit newVolatilityTokenBought(msg.sender, block.timestamp, _tenor, _volAmount);\n      }\n\n      function sweepBalance() external onlyRole(ADMIN_ROLE){\n            require(underlyingToken.transfer(msg.sender, underlyingToken.balanceOf(contractAddress)), \"Withdrawal failed.\");\n      }\n\n      function resetSettlementFees(uint256 _fee, uint256 _denominator) external onlyRole(ADMIN_ROLE){\n          settlementFee = OptionLibrary.Percent(_fee, _denominator);\n      }\n\n          function resetVolTransactionFees(uint256 _fee, uint256 _denominator) external onlyRole(ADMIN_ROLE){\n              volTransactionFees = OptionLibrary.Percent(_fee, _denominator);\n          }\n\n          function priceDecimals() external view returns(uint256){ return optionVault.priceDecimals();}\n          function queryVol(uint256 _tenor) external view returns(uint256){return optionVault.queryVol(_tenor);}\n\n          receive() external payable{}\n\n}\n",
  "sourcePath": "/Users/mac/Documents/GitHub/moret/contracts/Exchange.sol",
  "compiler": {
    "name": "solc",
    "version": "0.8.6+commit.11564f7e.Emscripten.clang"
  },
  "schemaVersion": "3.4.1",
  "updatedAt": "2021-06-27T15:30:55.698Z",
  "devdoc": {
    "kind": "dev",
    "methods": {
      "getRoleAdmin(bytes32)": {
        "details": "Returns the admin role that controls `role`. See {grantRole} and {revokeRole}. To change a role's admin, use {_setRoleAdmin}."
      },
      "grantRole(bytes32,address)": {
        "details": "Grants `role` to `account`. If `account` had not been already granted `role`, emits a {RoleGranted} event. Requirements: - the caller must have ``role``'s admin role."
      },
      "hasRole(bytes32,address)": {
        "details": "Returns `true` if `account` has been granted `role`."
      },
      "renounceRole(bytes32,address)": {
        "details": "Revokes `role` from the calling account. Roles are often managed via {grantRole} and {revokeRole}: this function's purpose is to provide a mechanism for accounts to lose their privileges if they are compromised (such as when a trusted device is misplaced). If the calling account had been granted `role`, emits a {RoleRevoked} event. Requirements: - the caller must be `account`."
      },
      "revokeRole(bytes32,address)": {
        "details": "Revokes `role` from `account`. If `account` had been granted `role`, emits a {RoleRevoked} event. Requirements: - the caller must have ``role``'s admin role."
      },
      "supportsInterface(bytes4)": {
        "details": "See {IERC165-supportsInterface}."
      }
    },
    "version": 1
  },
  "userdoc": {
    "kind": "user",
    "methods": {},
    "version": 1
  }
}