{
  "contractName": "ExchangeNative",
  "abi": [
    {
      "inputs": [
        {
          "internalType": "address payable",
          "name": "_marketMakerAddress",
          "type": "address"
        },
        {
          "internalType": "address",
          "name": "_optionAddress",
          "type": "address"
        },
        {
          "internalType": "address payable",
          "name": "_volTokenAddress",
          "type": "address"
        }
      ],
      "stateMutability": "nonpayable",
      "type": "constructor"
    },
    {
      "anonymous": false,
      "inputs": [
        {
          "indexed": true,
          "internalType": "bytes32",
          "name": "role",
          "type": "bytes32"
        },
        {
          "indexed": true,
          "internalType": "bytes32",
          "name": "previousAdminRole",
          "type": "bytes32"
        },
        {
          "indexed": true,
          "internalType": "bytes32",
          "name": "newAdminRole",
          "type": "bytes32"
        }
      ],
      "name": "RoleAdminChanged",
      "type": "event"
    },
    {
      "anonymous": false,
      "inputs": [
        {
          "indexed": true,
          "internalType": "bytes32",
          "name": "role",
          "type": "bytes32"
        },
        {
          "indexed": true,
          "internalType": "address",
          "name": "account",
          "type": "address"
        },
        {
          "indexed": true,
          "internalType": "address",
          "name": "sender",
          "type": "address"
        }
      ],
      "name": "RoleGranted",
      "type": "event"
    },
    {
      "anonymous": false,
      "inputs": [
        {
          "indexed": true,
          "internalType": "bytes32",
          "name": "role",
          "type": "bytes32"
        },
        {
          "indexed": true,
          "internalType": "address",
          "name": "account",
          "type": "address"
        },
        {
          "indexed": true,
          "internalType": "address",
          "name": "sender",
          "type": "address"
        }
      ],
      "name": "RoleRevoked",
      "type": "event"
    },
    {
      "anonymous": false,
      "inputs": [
        {
          "indexed": false,
          "internalType": "address",
          "name": "_recipient",
          "type": "address"
        },
        {
          "indexed": false,
          "internalType": "uint256",
          "name": "_mintMPTokenAmount",
          "type": "uint256"
        },
        {
          "indexed": false,
          "internalType": "uint256",
          "name": "_addedValue",
          "type": "uint256"
        }
      ],
      "name": "capitalAdded",
      "type": "event"
    },
    {
      "anonymous": false,
      "inputs": [
        {
          "indexed": false,
          "internalType": "address",
          "name": "_recipient",
          "type": "address"
        },
        {
          "indexed": false,
          "internalType": "uint256",
          "name": "_burnMPTokenAmount",
          "type": "uint256"
        },
        {
          "indexed": false,
          "internalType": "uint256",
          "name": "_withdrawValue",
          "type": "uint256"
        }
      ],
      "name": "capitalWithdrawn",
      "type": "event"
    },
    {
      "anonymous": false,
      "inputs": [
        {
          "indexed": false,
          "internalType": "address",
          "name": "_purchaser",
          "type": "address"
        },
        {
          "indexed": false,
          "internalType": "uint256",
          "name": "_time",
          "type": "uint256"
        },
        {
          "indexed": false,
          "internalType": "uint256",
          "name": "_id",
          "type": "uint256"
        },
        {
          "indexed": false,
          "internalType": "uint256",
          "name": "_cost",
          "type": "uint256"
        },
        {
          "indexed": false,
          "internalType": "bool",
          "name": "_inVol",
          "type": "bool"
        }
      ],
      "name": "newOptionBought",
      "type": "event"
    },
    {
      "anonymous": false,
      "inputs": [
        {
          "indexed": false,
          "internalType": "address",
          "name": "_purchaser",
          "type": "address"
        },
        {
          "indexed": false,
          "internalType": "uint256",
          "name": "_time",
          "type": "uint256"
        },
        {
          "indexed": false,
          "internalType": "uint256",
          "name": "_tenor",
          "type": "uint256"
        },
        {
          "indexed": false,
          "internalType": "uint256",
          "name": "_amount",
          "type": "uint256"
        }
      ],
      "name": "newVolatilityTokenBought",
      "type": "event"
    },
    {
      "anonymous": false,
      "inputs": [
        {
          "indexed": false,
          "internalType": "uint256",
          "name": "_time",
          "type": "uint256"
        },
        {
          "indexed": false,
          "internalType": "uint256",
          "name": "_id",
          "type": "uint256"
        }
      ],
      "name": "optionExercised",
      "type": "event"
    },
    {
      "inputs": [],
      "name": "ADMIN_ROLE",
      "outputs": [
        {
          "internalType": "bytes32",
          "name": "",
          "type": "bytes32"
        }
      ],
      "stateMutability": "view",
      "type": "function"
    },
    {
      "inputs": [],
      "name": "DEFAULT_ADMIN_ROLE",
      "outputs": [
        {
          "internalType": "bytes32",
          "name": "",
          "type": "bytes32"
        }
      ],
      "stateMutability": "view",
      "type": "function"
    },
    {
      "inputs": [
        {
          "internalType": "bytes32",
          "name": "role",
          "type": "bytes32"
        }
      ],
      "name": "getRoleAdmin",
      "outputs": [
        {
          "internalType": "bytes32",
          "name": "",
          "type": "bytes32"
        }
      ],
      "stateMutability": "view",
      "type": "function"
    },
    {
      "inputs": [
        {
          "internalType": "bytes32",
          "name": "role",
          "type": "bytes32"
        },
        {
          "internalType": "address",
          "name": "account",
          "type": "address"
        }
      ],
      "name": "grantRole",
      "outputs": [],
      "stateMutability": "nonpayable",
      "type": "function"
    },
    {
      "inputs": [
        {
          "internalType": "bytes32",
          "name": "role",
          "type": "bytes32"
        },
        {
          "internalType": "address",
          "name": "account",
          "type": "address"
        }
      ],
      "name": "hasRole",
      "outputs": [
        {
          "internalType": "bool",
          "name": "",
          "type": "bool"
        }
      ],
      "stateMutability": "view",
      "type": "function"
    },
    {
      "inputs": [
        {
          "internalType": "bytes32",
          "name": "role",
          "type": "bytes32"
        },
        {
          "internalType": "address",
          "name": "account",
          "type": "address"
        }
      ],
      "name": "renounceRole",
      "outputs": [],
      "stateMutability": "nonpayable",
      "type": "function"
    },
    {
      "inputs": [
        {
          "internalType": "bytes32",
          "name": "role",
          "type": "bytes32"
        },
        {
          "internalType": "address",
          "name": "account",
          "type": "address"
        }
      ],
      "name": "revokeRole",
      "outputs": [],
      "stateMutability": "nonpayable",
      "type": "function"
    },
    {
      "inputs": [],
      "name": "settlementFee",
      "outputs": [
        {
          "internalType": "uint256",
          "name": "numerator",
          "type": "uint256"
        },
        {
          "internalType": "uint256",
          "name": "denominator",
          "type": "uint256"
        }
      ],
      "stateMutability": "view",
      "type": "function"
    },
    {
      "inputs": [
        {
          "internalType": "bytes4",
          "name": "interfaceId",
          "type": "bytes4"
        }
      ],
      "name": "supportsInterface",
      "outputs": [
        {
          "internalType": "bool",
          "name": "",
          "type": "bool"
        }
      ],
      "stateMutability": "view",
      "type": "function"
    },
    {
      "inputs": [],
      "name": "volTransactionFees",
      "outputs": [
        {
          "internalType": "uint256",
          "name": "numerator",
          "type": "uint256"
        },
        {
          "internalType": "uint256",
          "name": "denominator",
          "type": "uint256"
        }
      ],
      "stateMutability": "view",
      "type": "function"
    },
    {
      "stateMutability": "payable",
      "type": "receive"
    },
    {
      "inputs": [
        {
          "internalType": "uint256",
          "name": "_tenor",
          "type": "uint256"
        },
        {
          "internalType": "uint256",
          "name": "_strike",
          "type": "uint256"
        },
        {
          "internalType": "enum OptionLibrary.PayoffType",
          "name": "_poType",
          "type": "uint8"
        },
        {
          "internalType": "uint256",
          "name": "_amount",
          "type": "uint256"
        }
      ],
      "name": "queryOptionCost",
      "outputs": [
        {
          "internalType": "uint256",
          "name": "",
          "type": "uint256"
        }
      ],
      "stateMutability": "view",
      "type": "function"
    },
    {
      "inputs": [
        {
          "internalType": "uint256",
          "name": "_tenor",
          "type": "uint256"
        },
        {
          "internalType": "uint256",
          "name": "_strike",
          "type": "uint256"
        },
        {
          "internalType": "enum OptionLibrary.PayoffType",
          "name": "_poType",
          "type": "uint8"
        },
        {
          "internalType": "uint256",
          "name": "_amount",
          "type": "uint256"
        }
      ],
      "name": "purchaseOption",
      "outputs": [],
      "stateMutability": "payable",
      "type": "function"
    },
    {
      "inputs": [
        {
          "internalType": "uint256",
          "name": "_tenor",
          "type": "uint256"
        },
        {
          "internalType": "uint256",
          "name": "_strike",
          "type": "uint256"
        },
        {
          "internalType": "enum OptionLibrary.PayoffType",
          "name": "_poType",
          "type": "uint8"
        },
        {
          "internalType": "uint256",
          "name": "_amount",
          "type": "uint256"
        },
        {
          "internalType": "uint256",
          "name": "_payInCost",
          "type": "uint256"
        }
      ],
      "name": "purchaseOptionInVol",
      "outputs": [],
      "stateMutability": "nonpayable",
      "type": "function"
    },
    {
      "inputs": [
        {
          "internalType": "uint256",
          "name": "_id",
          "type": "uint256"
        }
      ],
      "name": "exerciseOption",
      "outputs": [],
      "stateMutability": "nonpayable",
      "type": "function"
    },
    {
      "inputs": [
        {
          "internalType": "address payable",
          "name": "_tokenAddress",
          "type": "address"
        }
      ],
      "name": "addVolToken",
      "outputs": [],
      "stateMutability": "nonpayable",
      "type": "function"
    },
    {
      "inputs": [
        {
          "internalType": "uint256",
          "name": "_tenor",
          "type": "uint256"
        },
        {
          "internalType": "uint256",
          "name": "_volAmount",
          "type": "uint256"
        }
      ],
      "name": "quoteVolatilityCost",
      "outputs": [
        {
          "internalType": "uint256",
          "name": "",
          "type": "uint256"
        },
        {
          "internalType": "uint256",
          "name": "",
          "type": "uint256"
        }
      ],
      "stateMutability": "view",
      "type": "function"
    },
    {
      "inputs": [
        {
          "internalType": "uint256",
          "name": "_tenor",
          "type": "uint256"
        },
        {
          "internalType": "uint256",
          "name": "_volAmount",
          "type": "uint256"
        }
      ],
      "name": "purchaseVolatilityToken",
      "outputs": [],
      "stateMutability": "payable",
      "type": "function"
    },
    {
      "inputs": [],
      "name": "sweepBalance",
      "outputs": [],
      "stateMutability": "nonpayable",
      "type": "function"
    },
    {
      "inputs": [
        {
          "internalType": "uint256",
          "name": "_fee",
          "type": "uint256"
        },
        {
          "internalType": "uint256",
          "name": "_denominator",
          "type": "uint256"
        }
      ],
      "name": "resetSettlementFees",
      "outputs": [],
      "stateMutability": "nonpayable",
      "type": "function"
    },
    {
      "inputs": [
        {
          "internalType": "uint256",
          "name": "_fee",
          "type": "uint256"
        },
        {
          "internalType": "uint256",
          "name": "_denominator",
          "type": "uint256"
        }
      ],
      "name": "resetVolTransactionFees",
      "outputs": [],
      "stateMutability": "nonpayable",
      "type": "function"
    },
    {
      "inputs": [],
      "name": "priceDecimals",
      "outputs": [
        {
          "internalType": "uint256",
          "name": "",
          "type": "uint256"
        }
      ],
      "stateMutability": "view",
      "type": "function"
    },
    {
      "inputs": [
        {
          "internalType": "uint256",
          "name": "_tenor",
          "type": "uint256"
        }
      ],
      "name": "queryVol",
      "outputs": [
        {
          "internalType": "uint256",
          "name": "",
          "type": "uint256"
        }
      ],
      "stateMutability": "view",
      "type": "function"
    }
  ],
  "bytecode": "0x608060405260405180604001604052806113888152602001620f424081525060016000820151816000015560208201518160010155505060405180604001604052806113888152602001620f42408152506003600082015181600001556020820151816001015550503480156200007557600080fd5b50604051620049cc380380620049cc83398181016040528101906200009b919062000445565b620000b06000801b336200028760201b60201c565b620000e27fa49807205ce4d355092ef5a8a18f56e8913cf4a201fbe287825b095693c21775336200028760201b60201c565b81600760006101000a81548173ffffffffffffffffffffffffffffffffffffffff021916908373ffffffffffffffffffffffffffffffffffffffff16021790555082600660006101000a81548173ffffffffffffffffffffffffffffffffffffffff021916908373ffffffffffffffffffffffffffffffffffffffff160217905550600081905080600860008373ffffffffffffffffffffffffffffffffffffffff1663a15612d16040518163ffffffff1660e01b815260040160206040518083038186803b158015620001b557600080fd5b505afa158015620001ca573d6000803e3d6000fd5b505050506040513d601f19601f82011682018060405250810190620001f09190620004a1565b815260200190815260200160002060006101000a81548173ffffffffffffffffffffffffffffffffffffffff021916908373ffffffffffffffffffffffffffffffffffffffff16021790555030600560006101000a81548173ffffffffffffffffffffffffffffffffffffffff021916908373ffffffffffffffffffffffffffffffffffffffff1602179055505050505062000578565b6200029982826200029d60201b60201c565b5050565b620002af82826200038e60201b60201c565b6200038a57600160008084815260200190815260200160002060000160008373ffffffffffffffffffffffffffffffffffffffff1673ffffffffffffffffffffffffffffffffffffffff16815260200190815260200160002060006101000a81548160ff0219169083151502179055506200032f620003f860201b60201c565b73ffffffffffffffffffffffffffffffffffffffff168173ffffffffffffffffffffffffffffffffffffffff16837f2f8788117e7eff1d82e926ec794901d17c78024a50270940304540a733656f0d60405160405180910390a45b5050565b600080600084815260200190815260200160002060000160008373ffffffffffffffffffffffffffffffffffffffff1673ffffffffffffffffffffffffffffffffffffffff16815260200190815260200160002060009054906101000a900460ff16905092915050565b600033905090565b60008151905062000411816200052a565b92915050565b600081519050620004288162000544565b92915050565b6000815190506200043f816200055e565b92915050565b60008060006060848603121562000461576200046062000525565b5b6000620004718682870162000417565b9350506020620004848682870162000400565b9250506040620004978682870162000417565b9150509250925092565b600060208284031215620004ba57620004b962000525565b5b6000620004ca848285016200042e565b91505092915050565b6000620004e082620004fb565b9050919050565b6000620004f482620004fb565b9050919050565b600073ffffffffffffffffffffffffffffffffffffffff82169050919050565b6000819050919050565b600080fd5b6200053581620004d3565b81146200054157600080fd5b50565b6200054f81620004e7565b81146200055b57600080fd5b50565b62000569816200051b565b81146200057557600080fd5b50565b61444480620005886000396000f3fe6080604052600436106101395760003560e01c80637d1d7fb8116100ab578063ada9ecb41161006f578063ada9ecb414610439578063b7ab813714610455578063c3513f6d1461047e578063cfc2dc2014610495578063d547741f146104d2578063f52f2526146104fb57610140565b80637d1d7fb81461033e57806391d148541461036a5780639320d4ce146103a757806393ecc4cb146103d0578063a217fddf1461040e57610140565b80632f2ff15d116100fd5780632f2ff15d1461022f57806336568abe146102585780634b70084f14610281578063598ddc60146102be5780635a4a3a92146102e757806375b238fc1461031357610140565b806301ffc9a71461014557806305300b28146101825780630fd00a0d146101ad578063127b3a6a146101c9578063248a9ca3146101f257610140565b3661014057005b600080fd5b34801561015157600080fd5b5061016c600480360381019061016791906134a4565b610524565b6040516101799190613afb565b60405180910390f35b34801561018e57600080fd5b5061019761059e565b6040516101a49190613c33565b60405180910390f35b6101c760048036038101906101c291906135d8565b610645565b005b3480156101d557600080fd5b506101f060048036038101906101eb919061363f565b610f58565b005b3480156101fe57600080fd5b506102196004803603810190610214919061340a565b611b66565b6040516102269190613b16565b60405180910390f35b34801561023b57600080fd5b5061025660048036038101906102519190613464565b611b85565b005b34801561026457600080fd5b5061027f600480360381019061027a9190613464565b611bae565b005b34801561028d57600080fd5b506102a860048036038101906102a391906135d8565b611c31565b6040516102b59190613c33565b60405180910390f35b3480156102ca57600080fd5b506102e560048036038101906102e09190613558565b611db2565b005b3480156102f357600080fd5b506102fc611e17565b60405161030a929190613cc9565b60405180910390f35b34801561031f57600080fd5b50610328611e29565b6040516103359190613b16565b60405180910390f35b34801561034a57600080fd5b50610353611e4d565b604051610361929190613cc9565b60405180910390f35b34801561037657600080fd5b50610391600480360381019061038c9190613464565b611e5f565b60405161039e9190613afb565b60405180910390f35b3480156103b357600080fd5b506103ce60048036038101906103c99190613558565b611ec9565b005b3480156103dc57600080fd5b506103f760048036038101906103f29190613558565b611f2e565b604051610405929190613cc9565b60405180910390f35b34801561041a57600080fd5b5061042361222c565b6040516104309190613b16565b60405180910390f35b610453600480360381019061044e9190613558565b612233565b005b34801561046157600080fd5b5061047c600480360381019061047791906133b0565b612340565b005b34801561048a57600080fd5b506104936126a4565b005b3480156104a157600080fd5b506104bc60048036038101906104b791906134fe565b612759565b6040516104c99190613c33565b60405180910390f35b3480156104de57600080fd5b506104f960048036038101906104f49190613464565b61280d565b005b34801561050757600080fd5b50610522600480360381019061051d91906134fe565b612836565b005b60007f7965db0b000000000000000000000000000000000000000000000000000000007bffffffffffffffffffffffffffffffffffffffffffffffffffffffff1916827bffffffffffffffffffffffffffffffffffffffffffffffffffffffff19161480610597575061059682612d97565b5b9050919050565b6000600760009054906101000a900473ffffffffffffffffffffffffffffffffffffffff1673ffffffffffffffffffffffffffffffffffffffff166305300b286040518163ffffffff1660e01b815260040160206040518083038186803b15801561060857600080fd5b505afa15801561061c573d6000803e3d6000fd5b505050506040513d601f19601f82011682018060405250810190610640919061352b565b905090565b600760009054906101000a900473ffffffffffffffffffffffffffffffffffffffff1673ffffffffffffffffffffffffffffffffffffffff16634d38cad9856040518263ffffffff1660e01b81526004016106a09190613c33565b60206040518083038186803b1580156106b857600080fd5b505afa1580156106cc573d6000803e3d6000fd5b505050506040513d601f19601f820116820180604052508101906106f091906133dd565b61072f576040517f08c379a000000000000000000000000000000000000000000000000000000000815260040161072690613bf3565b60405180910390fd5b6000600181111561074357610742614114565b5b82600181111561075657610755614114565b5b148061078557506001808111156107705761076f614114565b5b82600181111561078357610782614114565b5b145b6107c4576040517f08c379a00000000000000000000000000000000000000000000000000000000081526004016107bb90613b73565b60405180910390fd5b600080600760009054906101000a900473ffffffffffffffffffffffffffffffffffffffff1673ffffffffffffffffffffffffffffffffffffffff1663fa66dcd4878787876001600660009054906101000a900473ffffffffffffffffffffffffffffffffffffffff1673ffffffffffffffffffffffffffffffffffffffff1663c679dc798b8d6040518363ffffffff1660e01b8152600401610868929190613ca0565b604080518083038186803b15801561087f57600080fd5b505afa158015610893573d6000803e3d6000fd5b505050506040513d601f19601f820116820180604052508101906108b791906134d1565b6040518763ffffffff1660e01b81526004016108d896959493929190613cf2565b604080518083038186803b1580156108ef57600080fd5b505afa158015610903573d6000803e3d6000fd5b505050506040513d601f19601f820116820180604052508101906109279190613598565b915091506000600760009054906101000a900473ffffffffffffffffffffffffffffffffffffffff1673ffffffffffffffffffffffffffffffffffffffff1663867536778888888888886040518763ffffffff1660e01b815260040161099296959493929190613d54565b602060405180830381600087803b1580156109ac57600080fd5b505af11580156109c0573d6000803e3d6000fd5b505050506040513d601f19601f820116820180604052508101906109e4919061352b565b9050600760009054906101000a900473ffffffffffffffffffffffffffffffffffffffff1673ffffffffffffffffffffffffffffffffffffffff16636abae9b38260006040518363ffffffff1660e01b8152600401610a44929190613c77565b60206040518083038186803b158015610a5c57600080fd5b505afa158015610a70573d6000803e3d6000fd5b505050506040513d601f19601f82011682018060405250810190610a94919061352b565b341015610ad6576040517f08c379a0000000000000000000000000000000000000000000000000000000008152600401610acd90613bb3565b60405180910390fd5b600660009054906101000a900473ffffffffffffffffffffffffffffffffffffffff1673ffffffffffffffffffffffffffffffffffffffff166108fc600760009054906101000a900473ffffffffffffffffffffffffffffffffffffffff1673ffffffffffffffffffffffffffffffffffffffff166346047a66846040518263ffffffff1660e01b8152600401610b6d9190613c33565b60206040518083038186803b158015610b8557600080fd5b505afa158015610b99573d6000803e3d6000fd5b505050506040513d601f19601f82011682018060405250810190610bbd919061352b565b9081150290604051600060405180830381858888f19350505050158015610be8573d6000803e3d6000fd5b50600760009054906101000a900473ffffffffffffffffffffffffffffffffffffffff1673ffffffffffffffffffffffffffffffffffffffff166328e493c1826040518263ffffffff1660e01b8152600401610c449190613c33565b600060405180830381600087803b158015610c5e57600080fd5b505af1158015610c72573d6000803e3d6000fd5b50505050600660009054906101000a900473ffffffffffffffffffffffffffffffffffffffff1673ffffffffffffffffffffffffffffffffffffffff1663cbe42a183383600760009054906101000a900473ffffffffffffffffffffffffffffffffffffffff1673ffffffffffffffffffffffffffffffffffffffff166346047a66866040518263ffffffff1660e01b8152600401610d119190613c33565b60206040518083038186803b158015610d2957600080fd5b505afa158015610d3d573d6000803e3d6000fd5b505050506040513d601f19601f82011682018060405250810190610d61919061352b565b600760009054906101000a900473ffffffffffffffffffffffffffffffffffffffff1673ffffffffffffffffffffffffffffffffffffffff1663128734c58760006040518363ffffffff1660e01b8152600401610dbf929190613ca0565b60206040518083038186803b158015610dd757600080fd5b505afa158015610deb573d6000803e3d6000fd5b505050506040513d601f19601f82011682018060405250810190610e0f919061352b565b600760009054906101000a900473ffffffffffffffffffffffffffffffffffffffff1673ffffffffffffffffffffffffffffffffffffffff1663128734c58860016040518363ffffffff1660e01b8152600401610e6d929190613ca0565b60206040518083038186803b158015610e8557600080fd5b505afa158015610e99573d6000803e3d6000fd5b505050506040513d601f19601f82011682018060405250810190610ebd919061352b565b6040518663ffffffff1660e01b8152600401610edd959493929190613aa8565b600060405180830381600087803b158015610ef757600080fd5b505af1158015610f0b573d6000803e3d6000fd5b505050507fea8251c51a940bb8095a907000291c1bc09e1d2c37e4d69f81e56f4ed3104640334283346000604051610f47959493929190613a55565b60405180910390a150505050505050565b600760009054906101000a900473ffffffffffffffffffffffffffffffffffffffff1673ffffffffffffffffffffffffffffffffffffffff16634d38cad9866040518263ffffffff1660e01b8152600401610fb39190613c33565b60206040518083038186803b158015610fcb57600080fd5b505afa158015610fdf573d6000803e3d6000fd5b505050506040513d601f19601f8201168201806040525081019061100391906133dd565b611042576040517f08c379a000000000000000000000000000000000000000000000000000000000815260040161103990613bf3565b60405180910390fd5b6000600181111561105657611055614114565b5b83600181111561106957611068614114565b5b1480611098575060018081111561108357611082614114565b5b83600181111561109657611095614114565b5b145b6110d7576040517f08c379a00000000000000000000000000000000000000000000000000000000081526004016110ce90613b73565b60405180910390fd5b600080600760009054906101000a900473ffffffffffffffffffffffffffffffffffffffff1673ffffffffffffffffffffffffffffffffffffffff1663fa66dcd4888888886001600660009054906101000a900473ffffffffffffffffffffffffffffffffffffffff1673ffffffffffffffffffffffffffffffffffffffff1663c679dc798c8e6040518363ffffffff1660e01b815260040161117b929190613ca0565b604080518083038186803b15801561119257600080fd5b505afa1580156111a6573d6000803e3d6000fd5b505050506040513d601f19601f820116820180604052508101906111ca91906134d1565b6040518763ffffffff1660e01b81526004016111eb96959493929190613cf2565b604080518083038186803b15801561120257600080fd5b505afa158015611216573d6000803e3d6000fd5b505050506040513d601f19601f8201168201806040525081019061123a9190613598565b915091506000600760009054906101000a900473ffffffffffffffffffffffffffffffffffffffff1673ffffffffffffffffffffffffffffffffffffffff1663867536778989898988886040518763ffffffff1660e01b81526004016112a596959493929190613d54565b602060405180830381600087803b1580156112bf57600080fd5b505af11580156112d3573d6000803e3d6000fd5b505050506040513d601f19601f820116820180604052508101906112f7919061352b565b9050600760009054906101000a900473ffffffffffffffffffffffffffffffffffffffff1673ffffffffffffffffffffffffffffffffffffffff16636abae9b38260016040518363ffffffff1660e01b8152600401611357929190613c77565b60206040518083038186803b15801561136f57600080fd5b505afa158015611383573d6000803e3d6000fd5b505050506040513d601f19601f820116820180604052508101906113a7919061352b565b8410156113e9576040517f08c379a00000000000000000000000000000000000000000000000000000000081526004016113e090613bb3565b60405180910390fd5b6008600089815260200190815260200160002060009054906101000a900473ffffffffffffffffffffffffffffffffffffffff1673ffffffffffffffffffffffffffffffffffffffff166323b872dd33600560009054906101000a900473ffffffffffffffffffffffffffffffffffffffff16876040518463ffffffff1660e01b815260040161147b939291906139b0565b602060405180830381600087803b15801561149557600080fd5b505af11580156114a9573d6000803e3d6000fd5b505050506040513d601f19601f820116820180604052508101906114cd91906133dd565b61150c576040517f08c379a000000000000000000000000000000000000000000000000000000000815260040161150390613b93565b60405180910390fd5b6008600089815260200190815260200160002060009054906101000a900473ffffffffffffffffffffffffffffffffffffffff1673ffffffffffffffffffffffffffffffffffffffff1663095ea7b3600860008b815260200190815260200160002060009054906101000a900473ffffffffffffffffffffffffffffffffffffffff16866040518363ffffffff1660e01b81526004016115ad9291906139e7565b602060405180830381600087803b1580156115c757600080fd5b505af11580156115db573d6000803e3d6000fd5b505050506040513d601f19601f820116820180604052508101906115ff91906133dd565b506008600089815260200190815260200160002060009054906101000a900473ffffffffffffffffffffffffffffffffffffffff1673ffffffffffffffffffffffffffffffffffffffff16635d36d182600560009054906101000a900473ffffffffffffffffffffffffffffffffffffffff16866040518363ffffffff1660e01b8152600401611690929190613987565b602060405180830381600087803b1580156116aa57600080fd5b505af11580156116be573d6000803e3d6000fd5b505050506040513d601f19601f820116820180604052508101906116e2919061352b565b50600660009054906101000a900473ffffffffffffffffffffffffffffffffffffffff1673ffffffffffffffffffffffffffffffffffffffff166108fc600760009054906101000a900473ffffffffffffffffffffffffffffffffffffffff1673ffffffffffffffffffffffffffffffffffffffff166346047a66846040518263ffffffff1660e01b815260040161177a9190613c33565b60206040518083038186803b15801561179257600080fd5b505afa1580156117a6573d6000803e3d6000fd5b505050506040513d601f19601f820116820180604052508101906117ca919061352b565b9081150290604051600060405180830381858888f193505050501580156117f5573d6000803e3d6000fd5b50600760009054906101000a900473ffffffffffffffffffffffffffffffffffffffff1673ffffffffffffffffffffffffffffffffffffffff166328e493c1826040518263ffffffff1660e01b81526004016118519190613c33565b600060405180830381600087803b15801561186b57600080fd5b505af115801561187f573d6000803e3d6000fd5b50505050600660009054906101000a900473ffffffffffffffffffffffffffffffffffffffff1673ffffffffffffffffffffffffffffffffffffffff1663cbe42a183383600760009054906101000a900473ffffffffffffffffffffffffffffffffffffffff1673ffffffffffffffffffffffffffffffffffffffff166346047a66866040518263ffffffff1660e01b815260040161191e9190613c33565b60206040518083038186803b15801561193657600080fd5b505afa15801561194a573d6000803e3d6000fd5b505050506040513d601f19601f8201168201806040525081019061196e919061352b565b600760009054906101000a900473ffffffffffffffffffffffffffffffffffffffff1673ffffffffffffffffffffffffffffffffffffffff1663128734c58760006040518363ffffffff1660e01b81526004016119cc929190613ca0565b60206040518083038186803b1580156119e457600080fd5b505afa1580156119f8573d6000803e3d6000fd5b505050506040513d601f19601f82011682018060405250810190611a1c919061352b565b600760009054906101000a900473ffffffffffffffffffffffffffffffffffffffff1673ffffffffffffffffffffffffffffffffffffffff1663128734c58860016040518363ffffffff1660e01b8152600401611a7a929190613ca0565b60206040518083038186803b158015611a9257600080fd5b505afa158015611aa6573d6000803e3d6000fd5b505050506040513d601f19601f82011682018060405250810190611aca919061352b565b6040518663ffffffff1660e01b8152600401611aea959493929190613aa8565b600060405180830381600087803b158015611b0457600080fd5b505af1158015611b18573d6000803e3d6000fd5b505050507fea8251c51a940bb8095a907000291c1bc09e1d2c37e4d69f81e56f4ed3104640334283876001604051611b54959493929190613a55565b60405180910390a15050505050505050565b6000806000838152602001908152602001600020600101549050919050565b611b8e82611b66565b611b9f81611b9a612e01565b612e09565b611ba98383612ea6565b505050565b611bb6612e01565b73ffffffffffffffffffffffffffffffffffffffff168173ffffffffffffffffffffffffffffffffffffffff1614611c23576040517f08c379a0000000000000000000000000000000000000000000000000000000008152600401611c1a90613c13565b60405180910390fd5b611c2d8282612f86565b5050565b6000806000600760009054906101000a900473ffffffffffffffffffffffffffffffffffffffff1673ffffffffffffffffffffffffffffffffffffffff1663fa66dcd4888888886001600660009054906101000a900473ffffffffffffffffffffffffffffffffffffffff1673ffffffffffffffffffffffffffffffffffffffff1663c679dc798c8e6040518363ffffffff1660e01b8152600401611cd7929190613ca0565b604080518083038186803b158015611cee57600080fd5b505afa158015611d02573d6000803e3d6000fd5b505050506040513d601f19601f82011682018060405250810190611d2691906134d1565b6040518763ffffffff1660e01b8152600401611d4796959493929190613cf2565b604080518083038186803b158015611d5e57600080fd5b505afa158015611d72573d6000803e3d6000fd5b505050506040513d601f19601f82011682018060405250810190611d969190613598565b915091508082611da69190613e38565b92505050949350505050565b7fa49807205ce4d355092ef5a8a18f56e8913cf4a201fbe287825b095693c21775611de481611ddf612e01565b612e09565b60405180604001604052808481526020018381525060036000820151816000015560208201518160010155905050505050565b60038060000154908060010154905082565b7fa49807205ce4d355092ef5a8a18f56e8913cf4a201fbe287825b095693c2177581565b60018060000154908060010154905082565b600080600084815260200190815260200160002060000160008373ffffffffffffffffffffffffffffffffffffffff1673ffffffffffffffffffffffffffffffffffffffff16815260200190815260200160002060009054906101000a900460ff16905092915050565b7fa49807205ce4d355092ef5a8a18f56e8913cf4a201fbe287825b095693c21775611efb81611ef6612e01565b612e09565b60405180604001604052808481526020018381525060016000820151816000015560208201518160010155905050505050565b600080600760009054906101000a900473ffffffffffffffffffffffffffffffffffffffff1673ffffffffffffffffffffffffffffffffffffffff16634d38cad9856040518263ffffffff1660e01b8152600401611f8c9190613c33565b60206040518083038186803b158015611fa457600080fd5b505afa158015611fb8573d6000803e3d6000fd5b505050506040513d601f19601f82011682018060405250810190611fdc91906133dd565b611fe557600080fd5b6000600760009054906101000a900473ffffffffffffffffffffffffffffffffffffffff1673ffffffffffffffffffffffffffffffffffffffff1663b0667cf86040518163ffffffff1660e01b8152600401604080518083038186803b15801561204e57600080fd5b505afa158015612062573d6000803e3d6000fd5b505050506040513d601f19601f820116820180604052508101906120869190613598565b50905060006008600087815260200190815260200160002060009054906101000a900473ffffffffffffffffffffffffffffffffffffffff1673ffffffffffffffffffffffffffffffffffffffff166362c5c1198684600760009054906101000a900473ffffffffffffffffffffffffffffffffffffffff1673ffffffffffffffffffffffffffffffffffffffff1663cfc2dc208b6040518263ffffffff1660e01b81526004016121379190613c33565b60206040518083038186803b15801561214f57600080fd5b505afa158015612163573d6000803e3d6000fd5b505050506040513d601f19601f82011682018060405250810190612187919061352b565b6040518463ffffffff1660e01b81526004016121a593929190613db5565b60206040518083038186803b1580156121bd57600080fd5b505afa1580156121d1573d6000803e3d6000fd5b505050506040513d601f19601f820116820180604052508101906121f5919061352b565b90506000600360010154600360000154836122109190613ebf565b61221a9190613e8e565b90508181945094505050509250929050565b6000801b81565b6000806122408484611f2e565b9150915080826122509190613e38565b34101561225c57600080fd5b6008600085815260200190815260200160002060009054906101000a900473ffffffffffffffffffffffffffffffffffffffff1673ffffffffffffffffffffffffffffffffffffffff166340c10f198333866040518463ffffffff1660e01b81526004016122cb9291906139e7565b6000604051808303818588803b1580156122e457600080fd5b505af11580156122f8573d6000803e3d6000fd5b50505050507f701297180b43ed5c70ad79a3036dca759169e2b5f64d7c4d04f2322af0511c8d334286866040516123329493929190613a10565b60405180910390a150505050565b7fa49807205ce4d355092ef5a8a18f56e8913cf4a201fbe287825b095693c217756123728161236d612e01565b612e09565b6000829050600760009054906101000a900473ffffffffffffffffffffffffffffffffffffffff1673ffffffffffffffffffffffffffffffffffffffff166385dcee936040518163ffffffff1660e01b815260040160206040518083038186803b1580156123df57600080fd5b505afa1580156123f3573d6000803e3d6000fd5b505050506040513d601f19601f820116820180604052508101906124179190613437565b8173ffffffffffffffffffffffffffffffffffffffff166385dcee936040518163ffffffff1660e01b815260040160206040518083038186803b15801561245d57600080fd5b505afa158015612471573d6000803e3d6000fd5b505050506040513d601f19601f820116820180604052508101906124959190613437565b1461249f57600080fd5b600760009054906101000a900473ffffffffffffffffffffffffffffffffffffffff1673ffffffffffffffffffffffffffffffffffffffff16634d38cad98273ffffffffffffffffffffffffffffffffffffffff1663a15612d16040518163ffffffff1660e01b815260040160206040518083038186803b15801561252357600080fd5b505afa158015612537573d6000803e3d6000fd5b505050506040513d601f19601f8201168201806040525081019061255b919061352b565b6040518263ffffffff1660e01b81526004016125779190613c33565b60206040518083038186803b15801561258f57600080fd5b505afa1580156125a3573d6000803e3d6000fd5b505050506040513d601f19601f820116820180604052508101906125c791906133dd565b6125d057600080fd5b80600860008373ffffffffffffffffffffffffffffffffffffffff1663a15612d16040518163ffffffff1660e01b815260040160206040518083038186803b15801561261b57600080fd5b505afa15801561262f573d6000803e3d6000fd5b505050506040513d601f19601f82011682018060405250810190612653919061352b565b815260200190815260200160002060006101000a81548173ffffffffffffffffffffffffffffffffffffffff021916908373ffffffffffffffffffffffffffffffffffffffff160217905550505050565b7fa49807205ce4d355092ef5a8a18f56e8913cf4a201fbe287825b095693c217756126d6816126d1612e01565b612e09565b3373ffffffffffffffffffffffffffffffffffffffff166108fc600560009054906101000a900473ffffffffffffffffffffffffffffffffffffffff1673ffffffffffffffffffffffffffffffffffffffff16319081150290604051600060405180830381858888f19350505050158015612755573d6000803e3d6000fd5b5050565b6000600760009054906101000a900473ffffffffffffffffffffffffffffffffffffffff1673ffffffffffffffffffffffffffffffffffffffff1663cfc2dc20836040518263ffffffff1660e01b81526004016127b69190613c33565b60206040518083038186803b1580156127ce57600080fd5b505afa1580156127e2573d6000803e3d6000fd5b505050506040513d601f19601f82011682018060405250810190612806919061352b565b9050919050565b61281682611b66565b61282781612822612e01565b612e09565b6128318383612f86565b505050565b600760009054906101000a900473ffffffffffffffffffffffffffffffffffffffff1673ffffffffffffffffffffffffffffffffffffffff1663a556feec82336040518363ffffffff1660e01b8152600401612893929190613c4e565b60006040518083038186803b1580156128ab57600080fd5b505afa1580156128bf573d6000803e3d6000fd5b505050506000600760009054906101000a900473ffffffffffffffffffffffffffffffffffffffff1673ffffffffffffffffffffffffffffffffffffffff166340d6eaab836040518263ffffffff1660e01b81526004016129209190613c33565b60206040518083038186803b15801561293857600080fd5b505afa15801561294c573d6000803e3d6000fd5b505050506040513d601f19601f82011682018060405250810190612970919061352b565b9050600560009054906101000a900473ffffffffffffffffffffffffffffffffffffffff1673ffffffffffffffffffffffffffffffffffffffff163181106129ed576040517f08c379a00000000000000000000000000000000000000000000000000000000081526004016129e490613bd3565b60405180910390fd5b600760009054906101000a900473ffffffffffffffffffffffffffffffffffffffff1673ffffffffffffffffffffffffffffffffffffffff16636c1f7b93836040518263ffffffff1660e01b8152600401612a489190613c33565b600060405180830381600087803b158015612a6257600080fd5b505af1158015612a76573d6000803e3d6000fd5b505050503373ffffffffffffffffffffffffffffffffffffffff166108fc829081150290604051600060405180830381858888f19350505050158015612ac0573d6000803e3d6000fd5b50600660009054906101000a900473ffffffffffffffffffffffffffffffffffffffff1673ffffffffffffffffffffffffffffffffffffffff1663d5093b0b3384600760009054906101000a900473ffffffffffffffffffffffffffffffffffffffff1673ffffffffffffffffffffffffffffffffffffffff166346047a66876040518263ffffffff1660e01b8152600401612b5c9190613c33565b60206040518083038186803b158015612b7457600080fd5b505afa158015612b88573d6000803e3d6000fd5b505050506040513d601f19601f82011682018060405250810190612bac919061352b565b600760009054906101000a900473ffffffffffffffffffffffffffffffffffffffff1673ffffffffffffffffffffffffffffffffffffffff1663128734c58860006040518363ffffffff1660e01b8152600401612c0a929190613ca0565b60206040518083038186803b158015612c2257600080fd5b505afa158015612c36573d6000803e3d6000fd5b505050506040513d601f19601f82011682018060405250810190612c5a919061352b565b600760009054906101000a900473ffffffffffffffffffffffffffffffffffffffff1673ffffffffffffffffffffffffffffffffffffffff1663128734c58960016040518363ffffffff1660e01b8152600401612cb8929190613ca0565b60206040518083038186803b158015612cd057600080fd5b505afa158015612ce4573d6000803e3d6000fd5b505050506040513d601f19601f82011682018060405250810190612d08919061352b565b6040518663ffffffff1660e01b8152600401612d28959493929190613aa8565b600060405180830381600087803b158015612d4257600080fd5b505af1158015612d56573d6000803e3d6000fd5b505050507f0bb99e129e5fcf8767a2ede7e52d7f33f9c773cd484cc97a36467772da52c3b48242604051612d8b929190613cc9565b60405180910390a15050565b60007f01ffc9a7000000000000000000000000000000000000000000000000000000007bffffffffffffffffffffffffffffffffffffffffffffffffffffffff1916827bffffffffffffffffffffffffffffffffffffffffffffffffffffffff1916149050919050565b600033905090565b612e138282611e5f565b612ea257612e388173ffffffffffffffffffffffffffffffffffffffff166014613067565b612e468360001c6020613067565b604051602001612e5792919061394d565b6040516020818303038152906040526040517f08c379a0000000000000000000000000000000000000000000000000000000008152600401612e999190613b31565b60405180910390fd5b5050565b612eb08282611e5f565b612f8257600160008084815260200190815260200160002060000160008373ffffffffffffffffffffffffffffffffffffffff1673ffffffffffffffffffffffffffffffffffffffff16815260200190815260200160002060006101000a81548160ff021916908315150217905550612f27612e01565b73ffffffffffffffffffffffffffffffffffffffff168173ffffffffffffffffffffffffffffffffffffffff16837f2f8788117e7eff1d82e926ec794901d17c78024a50270940304540a733656f0d60405160405180910390a45b5050565b612f908282611e5f565b1561306357600080600084815260200190815260200160002060000160008373ffffffffffffffffffffffffffffffffffffffff1673ffffffffffffffffffffffffffffffffffffffff16815260200190815260200160002060006101000a81548160ff021916908315150217905550613008612e01565b73ffffffffffffffffffffffffffffffffffffffff168173ffffffffffffffffffffffffffffffffffffffff16837ff6391f5c32d9c69d2a47ea670b442974b53935d1edc7fd64eb21e047a839171b60405160405180910390a45b5050565b60606000600283600261307a9190613ebf565b6130849190613e38565b67ffffffffffffffff81111561309d5761309c614172565b5b6040519080825280601f01601f1916602001820160405280156130cf5781602001600182028036833780820191505090505b5090507f30000000000000000000000000000000000000000000000000000000000000008160008151811061310757613106614143565b5b60200101907effffffffffffffffffffffffffffffffffffffffffffffffffffffffffffff1916908160001a9053507f78000000000000000000000000000000000000000000000000000000000000008160018151811061316b5761316a614143565b5b60200101907effffffffffffffffffffffffffffffffffffffffffffffffffffffffffffff1916908160001a905350600060018460026131ab9190613ebf565b6131b59190613e38565b90505b6001811115613255577f3031323334353637383961626364656600000000000000000000000000000000600f8616601081106131f7576131f6614143565b5b1a60f81b82828151811061320e5761320d614143565b5b60200101907effffffffffffffffffffffffffffffffffffffffffffffffffffffffffffff1916908160001a905350600485901c94508061324e90614041565b90506131b8565b5060008414613299576040517f08c379a000000000000000000000000000000000000000000000000000000000815260040161329090613b53565b60405180910390fd5b8091505092915050565b6000813590506132b281614374565b92915050565b6000813590506132c78161438b565b92915050565b6000815190506132dc816143a2565b92915050565b6000813590506132f1816143b9565b92915050565b600081519050613306816143b9565b92915050565b60008135905061331b816143d0565b92915050565b600081359050613330816143e7565b92915050565b60006040828403121561334c5761334b6141a1565b5b6133566040613dec565b905060006133668482850161339b565b600083015250602061337a8482850161339b565b60208301525092915050565b600081359050613395816143f7565b92915050565b6000815190506133aa816143f7565b92915050565b6000602082840312156133c6576133c56141a6565b5b60006133d4848285016132b8565b91505092915050565b6000602082840312156133f3576133f26141a6565b5b6000613401848285016132cd565b91505092915050565b6000602082840312156134205761341f6141a6565b5b600061342e848285016132e2565b91505092915050565b60006020828403121561344d5761344c6141a6565b5b600061345b848285016132f7565b91505092915050565b6000806040838503121561347b5761347a6141a6565b5b6000613489858286016132e2565b925050602061349a858286016132a3565b9150509250929050565b6000602082840312156134ba576134b96141a6565b5b60006134c88482850161330c565b91505092915050565b6000604082840312156134e7576134e66141a6565b5b60006134f584828501613336565b91505092915050565b600060208284031215613514576135136141a6565b5b600061352284828501613386565b91505092915050565b600060208284031215613541576135406141a6565b5b600061354f8482850161339b565b91505092915050565b6000806040838503121561356f5761356e6141a6565b5b600061357d85828601613386565b925050602061358e85828601613386565b9150509250929050565b600080604083850312156135af576135ae6141a6565b5b60006135bd8582860161339b565b92505060206135ce8582860161339b565b9150509250929050565b600080600080608085870312156135f2576135f16141a6565b5b600061360087828801613386565b945050602061361187828801613386565b935050604061362287828801613321565b925050606061363387828801613386565b91505092959194509250565b600080600080600060a0868803121561365b5761365a6141a6565b5b600061366988828901613386565b955050602061367a88828901613386565b945050604061368b88828901613321565b935050606061369c88828901613386565b92505060806136ad88828901613386565b9150509295509295909350565b6136c381613fc6565b82525050565b6136d281613f35565b82525050565b6136e181613f23565b82525050565b6136f081613f47565b82525050565b6136ff81613f53565b82525050565b61370e81613fd8565b82525050565b600061371f82613e11565b6137298185613e1c565b935061373981856020860161400e565b613742816141ab565b840191505092915050565b600061375882613e11565b6137628185613e2d565b935061377281856020860161400e565b80840191505092915050565b600061378b602083613e1c565b9150613796826141c9565b602082019050919050565b60006137ae601883613e1c565b91506137b9826141f2565b602082019050919050565b60006137d1600f83613e1c565b91506137dc8261421b565b602082019050919050565b60006137f4601a83613e1c565b91506137ff82614244565b602082019050919050565b6000613817601583613e1c565b91506138228261426d565b602082019050919050565b600061383a601983613e1c565b915061384582614296565b602082019050919050565b600061385d601783613e2d565b9150613868826142bf565b601782019050919050565b6000613880601183613e2d565b915061388b826142e8565b601182019050919050565b60006138a3602f83613e1c565b91506138ae82614311565b604082019050919050565b6040820160008201516138cf600085018261392f565b5060208201516138e2602085018261392f565b50505050565b6040820160008083015490506138fd8161406b565b61390a600086018261392f565b506001830154905061391b8161406b565b613928602086018261392f565b5050505050565b61393881613fbc565b82525050565b61394781613fbc565b82525050565b600061395882613850565b9150613964828561374d565b915061396f82613873565b915061397b828461374d565b91508190509392505050565b600060408201905061399c60008301856136c9565b6139a9602083018461393e565b9392505050565b60006060820190506139c560008301866136d8565b6139d260208301856136ba565b6139df604083018461393e565b949350505050565b60006040820190506139fc60008301856136d8565b613a09602083018461393e565b9392505050565b6000608082019050613a2560008301876136d8565b613a32602083018661393e565b613a3f604083018561393e565b613a4c606083018461393e565b95945050505050565b600060a082019050613a6a60008301886136d8565b613a77602083018761393e565b613a84604083018661393e565b613a91606083018561393e565b613a9e60808301846136e7565b9695505050505050565b600060a082019050613abd60008301886136d8565b613aca602083018761393e565b613ad7604083018661393e565b613ae4606083018561393e565b613af1608083018461393e565b9695505050505050565b6000602082019050613b1060008301846136e7565b92915050565b6000602082019050613b2b60008301846136f6565b92915050565b60006020820190508181036000830152613b4b8184613714565b905092915050565b60006020820190508181036000830152613b6c8161377e565b9050919050565b60006020820190508181036000830152613b8c816137a1565b9050919050565b60006020820190508181036000830152613bac816137c4565b9050919050565b60006020820190508181036000830152613bcc816137e7565b9050919050565b60006020820190508181036000830152613bec8161380a565b9050919050565b60006020820190508181036000830152613c0c8161382d565b9050919050565b60006020820190508181036000830152613c2c81613896565b9050919050565b6000602082019050613c48600083018461393e565b92915050565b6000604082019050613c63600083018561393e565b613c7060208301846136d8565b9392505050565b6000604082019050613c8c600083018561393e565b613c9960208301846136e7565b9392505050565b6000604082019050613cb5600083018561393e565b613cc26020830184613705565b9392505050565b6000604082019050613cde600083018561393e565b613ceb602083018461393e565b9392505050565b600061010082019050613d08600083018961393e565b613d15602083018861393e565b613d226040830187613705565b613d2f606083018661393e565b613d3c60808301856138e8565b613d4960c08301846138b9565b979650505050505050565b600060c082019050613d69600083018961393e565b613d76602083018861393e565b613d836040830187613705565b613d90606083018661393e565b613d9d608083018561393e565b613daa60a083018461393e565b979650505050505050565b6000606082019050613dca600083018661393e565b613dd7602083018561393e565b613de4604083018461393e565b949350505050565b6000613df6613e07565b9050613e028282614085565b919050565b6000604051905090565b600081519050919050565b600082825260208201905092915050565b600081905092915050565b6000613e4382613fbc565b9150613e4e83613fbc565b9250827fffffffffffffffffffffffffffffffffffffffffffffffffffffffffffffffff03821115613e8357613e826140b6565b5b828201905092915050565b6000613e9982613fbc565b9150613ea483613fbc565b925082613eb457613eb36140e5565b5b828204905092915050565b6000613eca82613fbc565b9150613ed583613fbc565b9250817fffffffffffffffffffffffffffffffffffffffffffffffffffffffffffffffff0483118215151615613f0e57613f0d6140b6565b5b828202905092915050565b6000819050919050565b6000613f2e82613f9c565b9050919050565b6000613f4082613f9c565b9050919050565b60008115159050919050565b6000819050919050565b60007fffffffff0000000000000000000000000000000000000000000000000000000082169050919050565b6000819050613f9782614360565b919050565b600073ffffffffffffffffffffffffffffffffffffffff82169050919050565b6000819050919050565b6000613fd182613fea565b9050919050565b6000613fe382613f89565b9050919050565b6000613ff582613ffc565b9050919050565b600061400782613f9c565b9050919050565b60005b8381101561402c578082015181840152602081019050614011565b8381111561403b576000848401525b50505050565b600061404c82613fbc565b915060008214156140605761405f6140b6565b5b600182039050919050565b600061407e614079836141bc565b613f19565b9050919050565b61408e826141ab565b810181811067ffffffffffffffff821117156140ad576140ac614172565b5b80604052505050565b7f4e487b7100000000000000000000000000000000000000000000000000000000600052601160045260246000fd5b7f4e487b7100000000000000000000000000000000000000000000000000000000600052601260045260246000fd5b7f4e487b7100000000000000000000000000000000000000000000000000000000600052602160045260246000fd5b7f4e487b7100000000000000000000000000000000000000000000000000000000600052603260045260246000fd5b7f4e487b7100000000000000000000000000000000000000000000000000000000600052604160045260246000fd5b600080fd5b600080fd5b6000601f19601f8301169050919050565b60008160001c9050919050565b7f537472696e67733a20686578206c656e67746820696e73756666696369656e74600082015250565b7f556e737570706f72746564206f7074696f6e20747970652e0000000000000000600082015250565b7f4661696c6564207061796d656e742e0000000000000000000000000000000000600082015250565b7f456e7465726564207072656d69756d20696e636f72726563742e000000000000600082015250565b7f42616c616e636520696e73756666696369656e742e0000000000000000000000600082015250565b7f556e737570706f72746564206f7074696f6e2074656e6f722e00000000000000600082015250565b7f416363657373436f6e74726f6c3a206163636f756e7420000000000000000000600082015250565b7f206973206d697373696e6720726f6c6520000000000000000000000000000000600082015250565b7f416363657373436f6e74726f6c3a2063616e206f6e6c792072656e6f756e636560008201527f20726f6c657320666f722073656c660000000000000000000000000000000000602082015250565b6002811061437157614370614114565b5b50565b61437d81613f23565b811461438857600080fd5b50565b61439481613f35565b811461439f57600080fd5b50565b6143ab81613f47565b81146143b657600080fd5b50565b6143c281613f53565b81146143cd57600080fd5b50565b6143d981613f5d565b81146143e457600080fd5b50565b600281106143f457600080fd5b50565b61440081613fbc565b811461440b57600080fd5b5056fea26469706673582212207a20d352c4a0d0da696a8b7e86b7cd56332aa0fcb886328c15b3f40d14c5474064736f6c63430008060033",
  "immutableReferences": {},
  "source": "/**\n * SPDX-License-Identifier: GPL-3.0-or-later\n * Moret\n * Copyright (C) 2021 Moret\n*/\n\npragma solidity ^0.8.4;\n\nimport \"@openzeppelin/contracts/token/ERC20/ERC20.sol\";\nimport \"@openzeppelin/contracts/access/AccessControl.sol\";\nimport \"./MoretInterfaces.sol\";\nimport \"./OptionVault.sol\";\nimport \"./VolatilityToken.sol\";\nimport \"./MarketMakerNative.sol\";\n\ncontract ExchangeNative is AccessControl, IOption\n{\nbytes32 public constant ADMIN_ROLE = keccak256(\"ADMIN_ROLE\");\n    OptionLibrary.Percent public settlementFee = OptionLibrary.Percent(5 * 10 ** 3, 10 ** 6);\n    OptionLibrary.Percent public volTransactionFees = OptionLibrary.Percent(5 * 10 ** 3, 10 ** 6);\n      address payable contractAddress;\n\n    MarketMakerNative internal marketMaker;\n    OptionVault internal optionVault;\n\n    mapping(uint256=>VolatilityToken) volTokensList;\n\n    constructor(\n      address payable _marketMakerAddress,\n      address _optionAddress,\n      address payable _volTokenAddress\n      )\n    {\n      _setupRole(DEFAULT_ADMIN_ROLE, msg.sender);\n        _setupRole(ADMIN_ROLE, msg.sender);\n\n      optionVault = OptionVault(_optionAddress);\n      marketMaker = MarketMakerNative(_marketMakerAddress);\n      VolatilityToken _volToken = VolatilityToken(_volTokenAddress);\n      volTokensList[_volToken.tenor()] = _volToken;\n      contractAddress = payable(address(this));\n    }\n\n    function queryOptionCost(uint256 _tenor, uint256 _strike, OptionLibrary.PayoffType _poType, uint256 _amount)\n    external view returns(uint256)\n    {\n        (uint256 _premium, uint256 _fee) = optionVault.queryOptionCost(_tenor, _strike, _poType, _amount,\n          settlementFee, marketMaker.calcUtilityAddon(_amount, _poType) );\n        return _premium + _fee;\n    }\n\n    function purchaseOption(uint256 _tenor, uint256 _strike, OptionLibrary.PayoffType _poType, uint256 _amount)\n    external payable{\n      require(optionVault.containsTenor(_tenor), \"Unsupported option tenor.\");\n      require((_poType == OptionLibrary.PayoffType.Call) || (_poType==OptionLibrary.PayoffType.Put), \"Unsupported option type.\");\n\n      (uint256 _premium, uint256 _fee) = optionVault.queryOptionCost(_tenor, _strike, _poType, _amount, settlementFee, marketMaker.calcUtilityAddon(_amount, _poType) );\n\n      uint256 _id = optionVault.addOption(_tenor, _strike, _poType, _amount, _premium, _fee );\n      require(msg.value >= optionVault.queryDraftOptionCost(_id, false), \"Entered premium incorrect.\");\n      payable(address(marketMaker)).transfer(optionVault.queryOptionPremium(_id));\n\n      optionVault.stampActiveOption(_id);\n\n      marketMaker.recordOptionPurhcase(msg.sender, _id, optionVault.queryOptionPremium(_id),\n        optionVault.queryOptionExposure(_id, OptionLibrary.PayoffType.Call),\n        optionVault.queryOptionExposure(_id, OptionLibrary.PayoffType.Put));\n\n      emit newOptionBought(msg.sender, block.timestamp, _id, msg.value, false);\n    }\n\n    function purchaseOptionInVol(uint256 _tenor, uint256 _strike, OptionLibrary.PayoffType _poType, uint256 _amount,\n      uint256 _payInCost)\n      external{\n      require(optionVault.containsTenor(_tenor), \"Unsupported option tenor.\");\n      require((_poType == OptionLibrary.PayoffType.Call) || (_poType==OptionLibrary.PayoffType.Put), \"Unsupported option type.\");\n\n      (uint256 _premium, uint256 _fee) = optionVault.queryOptionCost(_tenor, _strike, _poType, _amount, settlementFee, marketMaker.calcUtilityAddon(_amount, _poType) );\n\n      uint256 _id = optionVault.addOption(_tenor, _strike, _poType, _amount, _premium, _fee );\n      require(_payInCost >= optionVault.queryDraftOptionCost(_id, true), \"Entered premium incorrect.\");\n\n      require(volTokensList[_tenor].transferFrom(msg.sender, contractAddress, _payInCost), 'Failed payment.');\n\n      volTokensList[_tenor].approve(address(volTokensList[_tenor]), _payInCost);\n      volTokensList[_tenor].recycle(contractAddress, _payInCost);\n      payable(address(marketMaker)).transfer(optionVault.queryOptionPremium(_id));\n\n      optionVault.stampActiveOption(_id);\n\n      marketMaker.recordOptionPurhcase(msg.sender, _id, optionVault.queryOptionPremium(_id),\n        optionVault.queryOptionExposure(_id, OptionLibrary.PayoffType.Call),\n        optionVault.queryOptionExposure(_id, OptionLibrary.PayoffType.Put));\n\n      emit newOptionBought(msg.sender, block.timestamp, _id, _payInCost, true);\n    }\n\n    function exerciseOption(uint256 _id) external  {\n        optionVault.validateOption(_id, msg.sender);\n\n        uint256 _payoffValue = optionVault.getOptionPayoffValue(_id);\n        require(_payoffValue < contractAddress.balance, \"Balance insufficient.\");\n\n        optionVault.stampExercisedOption(_id);\n        payable(msg.sender).transfer(_payoffValue);\n\n        marketMaker.recordOptionRemoval(msg.sender, _id, optionVault.queryOptionPremium(_id),\n          optionVault.queryOptionExposure(_id, OptionLibrary.PayoffType.Call),\n          optionVault.queryOptionExposure(_id, OptionLibrary.PayoffType.Put));\n\n        emit optionExercised(_id, block.timestamp);\n    }\n\n    function expireOption(uint256 _id) internal {\n        if(optionVault.isOptionExpiring(_id))\n        {\n            uint256 _payoffValue = optionVault.getOptionPayoffValue(_id);\n            require(_payoffValue < contractAddress.balance, \"Balance insufficient.\");\n\n            optionVault.stampExpiredOption(_id);\n\n            address payable _optionHolder = optionVault.getOptionHolder(_id);\n            payable(_optionHolder).transfer(_payoffValue);\n\n            marketMaker.recordOptionRemoval(msg.sender, _id, optionVault.queryOptionPremium(_id),\n              optionVault.queryOptionExposure(_id, OptionLibrary.PayoffType.Call),\n              optionVault.queryOptionExposure(_id, OptionLibrary.PayoffType.Put));\n        }\n    }\n\n\n      function addVolToken(address payable _tokenAddress) external onlyRole(ADMIN_ROLE)\n      {\n          VolatilityToken _volToken = VolatilityToken(_tokenAddress);\n          require(_volToken.descriptionHash() == optionVault.descriptionHash());\n          require(optionVault.containsTenor(_volToken.tenor()));\n\n          volTokensList[_volToken.tenor()] = _volToken;\n\n      }\n\n      function quoteVolatilityCost(uint256 _tenor, uint256 _volAmount) public view returns(uint256, uint256)\n      {\n          require(optionVault.containsTenor(_tenor));\n\n          (uint256 _price,) = optionVault.queryPrice();\n\n          uint256 _value = volTokensList[_tenor].calculateMintValue(_volAmount, _price, optionVault.queryVol(_tenor));\n          uint256 _fee = _value * volTransactionFees.numerator/ volTransactionFees.denominator;\n\n          return (_value, _fee);\n      }\n\n      function purchaseVolatilityToken(uint256 _tenor, uint256 _volAmount)\n      external payable {\n          (uint256 _value, uint256 _fee) = quoteVolatilityCost(_tenor, _volAmount);\n          require(msg.value >= (_value + _fee));\n\n          volTokensList[_tenor].mint{value: _value}(msg.sender, _volAmount);\n\n          emit newVolatilityTokenBought(msg.sender, block.timestamp, _tenor, _volAmount);\n      }\n\n      function sweepBalance() external onlyRole(ADMIN_ROLE){\n            payable(msg.sender).transfer(contractAddress.balance);\n      }\n\n      function resetSettlementFees(uint256 _fee, uint256 _denominator) external onlyRole(ADMIN_ROLE){\n          settlementFee = OptionLibrary.Percent(_fee, _denominator);\n      }\n\n      function resetVolTransactionFees(uint256 _fee, uint256 _denominator) external onlyRole(ADMIN_ROLE){\n          volTransactionFees = OptionLibrary.Percent(_fee, _denominator);\n      }\n\n      function priceDecimals() external view returns(uint256){ return optionVault.priceDecimals();}\n      function queryVol(uint256 _tenor) external view returns(uint256){return optionVault.queryVol(_tenor);}\n\n          receive() external payable{}\n\n}\n",
  "sourcePath": "/Users/mac/Documents/GitHub/moret/contracts/ExchangeNative.sol",
  "compiler": {
    "name": "solc",
    "version": "0.8.6+commit.11564f7e.Emscripten.clang"
  },
  "schemaVersion": "3.4.1",
  "updatedAt": "2021-06-27T15:30:55.772Z",
  "devdoc": {
    "kind": "dev",
    "methods": {
      "getRoleAdmin(bytes32)": {
        "details": "Returns the admin role that controls `role`. See {grantRole} and {revokeRole}. To change a role's admin, use {_setRoleAdmin}."
      },
      "grantRole(bytes32,address)": {
        "details": "Grants `role` to `account`. If `account` had not been already granted `role`, emits a {RoleGranted} event. Requirements: - the caller must have ``role``'s admin role."
      },
      "hasRole(bytes32,address)": {
        "details": "Returns `true` if `account` has been granted `role`."
      },
      "renounceRole(bytes32,address)": {
        "details": "Revokes `role` from the calling account. Roles are often managed via {grantRole} and {revokeRole}: this function's purpose is to provide a mechanism for accounts to lose their privileges if they are compromised (such as when a trusted device is misplaced). If the calling account had been granted `role`, emits a {RoleRevoked} event. Requirements: - the caller must be `account`."
      },
      "revokeRole(bytes32,address)": {
        "details": "Revokes `role` from `account`. If `account` had been granted `role`, emits a {RoleRevoked} event. Requirements: - the caller must have ``role``'s admin role."
      },
      "supportsInterface(bytes4)": {
        "details": "See {IERC165-supportsInterface}."
      }
    },
    "version": 1
  },
  "userdoc": {
    "kind": "user",
    "methods": {},
    "version": 1
  }
}