{
  "contractName": "Exchange",
  "abi": [
    {
      "inputs": [
        {
          "internalType": "contract MoretMarketMaker",
          "name": "_marketMaker",
          "type": "address"
        },
        {
          "internalType": "contract OptionVault",
          "name": "_vault",
          "type": "address"
        }
      ],
      "stateMutability": "nonpayable",
      "type": "constructor"
    },
    {
      "anonymous": false,
      "inputs": [
        {
          "indexed": true,
          "internalType": "address",
          "name": "_purchaser",
          "type": "address"
        },
        {
          "components": [
            {
              "internalType": "enum OptionLibrary.PayoffType",
              "name": "poType",
              "type": "uint8"
            },
            {
              "internalType": "enum OptionLibrary.OptionSide",
              "name": "side",
              "type": "uint8"
            },
            {
              "internalType": "enum OptionLibrary.OptionStatus",
              "name": "status",
              "type": "uint8"
            },
            {
              "internalType": "address",
              "name": "holder",
              "type": "address"
            },
            {
              "internalType": "uint256",
              "name": "id",
              "type": "uint256"
            },
            {
              "internalType": "uint256",
              "name": "createTime",
              "type": "uint256"
            },
            {
              "internalType": "uint256",
              "name": "effectiveTime",
              "type": "uint256"
            },
            {
              "internalType": "uint256",
              "name": "tenor",
              "type": "uint256"
            },
            {
              "internalType": "uint256",
              "name": "maturity",
              "type": "uint256"
            },
            {
              "internalType": "uint256",
              "name": "exerciseTime",
              "type": "uint256"
            },
            {
              "internalType": "uint256",
              "name": "amount",
              "type": "uint256"
            },
            {
              "internalType": "uint256",
              "name": "spot",
              "type": "uint256"
            },
            {
              "internalType": "uint256",
              "name": "strike",
              "type": "uint256"
            },
            {
              "internalType": "uint256",
              "name": "volatility",
              "type": "uint256"
            },
            {
              "internalType": "uint256",
              "name": "premium",
              "type": "uint256"
            },
            {
              "internalType": "uint256",
              "name": "cost",
              "type": "uint256"
            }
          ],
          "indexed": false,
          "internalType": "struct OptionLibrary.Option",
          "name": "_option",
          "type": "tuple"
        },
        {
          "indexed": false,
          "internalType": "uint256",
          "name": "_payoff",
          "type": "uint256"
        }
      ],
      "name": "Expire",
      "type": "event"
    },
    {
      "anonymous": false,
      "inputs": [
        {
          "indexed": true,
          "internalType": "address",
          "name": "_purchaser",
          "type": "address"
        },
        {
          "components": [
            {
              "internalType": "enum OptionLibrary.PayoffType",
              "name": "poType",
              "type": "uint8"
            },
            {
              "internalType": "enum OptionLibrary.OptionSide",
              "name": "side",
              "type": "uint8"
            },
            {
              "internalType": "enum OptionLibrary.OptionStatus",
              "name": "status",
              "type": "uint8"
            },
            {
              "internalType": "address",
              "name": "holder",
              "type": "address"
            },
            {
              "internalType": "uint256",
              "name": "id",
              "type": "uint256"
            },
            {
              "internalType": "uint256",
              "name": "createTime",
              "type": "uint256"
            },
            {
              "internalType": "uint256",
              "name": "effectiveTime",
              "type": "uint256"
            },
            {
              "internalType": "uint256",
              "name": "tenor",
              "type": "uint256"
            },
            {
              "internalType": "uint256",
              "name": "maturity",
              "type": "uint256"
            },
            {
              "internalType": "uint256",
              "name": "exerciseTime",
              "type": "uint256"
            },
            {
              "internalType": "uint256",
              "name": "amount",
              "type": "uint256"
            },
            {
              "internalType": "uint256",
              "name": "spot",
              "type": "uint256"
            },
            {
              "internalType": "uint256",
              "name": "strike",
              "type": "uint256"
            },
            {
              "internalType": "uint256",
              "name": "volatility",
              "type": "uint256"
            },
            {
              "internalType": "uint256",
              "name": "premium",
              "type": "uint256"
            },
            {
              "internalType": "uint256",
              "name": "cost",
              "type": "uint256"
            }
          ],
          "indexed": false,
          "internalType": "struct OptionLibrary.Option",
          "name": "_option",
          "type": "tuple"
        },
        {
          "indexed": false,
          "internalType": "uint256",
          "name": "_cost",
          "type": "uint256"
        },
        {
          "indexed": false,
          "internalType": "bool",
          "name": "_inVol",
          "type": "bool"
        }
      ],
      "name": "NewOption",
      "type": "event"
    },
    {
      "anonymous": false,
      "inputs": [
        {
          "indexed": true,
          "internalType": "uint256",
          "name": "_addressId",
          "type": "uint256"
        },
        {
          "indexed": false,
          "internalType": "address",
          "name": "_address",
          "type": "address"
        }
      ],
      "name": "ResetAddress",
      "type": "event"
    },
    {
      "anonymous": false,
      "inputs": [
        {
          "indexed": true,
          "internalType": "uint256",
          "name": "_parameterId",
          "type": "uint256"
        },
        {
          "indexed": false,
          "internalType": "uint256",
          "name": "_parameter",
          "type": "uint256"
        }
      ],
      "name": "ResetParameter",
      "type": "event"
    },
    {
      "anonymous": false,
      "inputs": [
        {
          "indexed": false,
          "internalType": "bool",
          "name": "success",
          "type": "bool"
        },
        {
          "indexed": false,
          "internalType": "bytes",
          "name": "data",
          "type": "bytes"
        }
      ],
      "name": "Response",
      "type": "event"
    },
    {
      "anonymous": false,
      "inputs": [
        {
          "indexed": true,
          "internalType": "bytes32",
          "name": "role",
          "type": "bytes32"
        },
        {
          "indexed": true,
          "internalType": "bytes32",
          "name": "previousAdminRole",
          "type": "bytes32"
        },
        {
          "indexed": true,
          "internalType": "bytes32",
          "name": "newAdminRole",
          "type": "bytes32"
        }
      ],
      "name": "RoleAdminChanged",
      "type": "event"
    },
    {
      "anonymous": false,
      "inputs": [
        {
          "indexed": true,
          "internalType": "bytes32",
          "name": "role",
          "type": "bytes32"
        },
        {
          "indexed": true,
          "internalType": "address",
          "name": "account",
          "type": "address"
        },
        {
          "indexed": true,
          "internalType": "address",
          "name": "sender",
          "type": "address"
        }
      ],
      "name": "RoleGranted",
      "type": "event"
    },
    {
      "anonymous": false,
      "inputs": [
        {
          "indexed": true,
          "internalType": "bytes32",
          "name": "role",
          "type": "bytes32"
        },
        {
          "indexed": true,
          "internalType": "address",
          "name": "account",
          "type": "address"
        },
        {
          "indexed": true,
          "internalType": "address",
          "name": "sender",
          "type": "address"
        }
      ],
      "name": "RoleRevoked",
      "type": "event"
    },
    {
      "anonymous": false,
      "inputs": [
        {
          "indexed": true,
          "internalType": "uint256",
          "name": "_id",
          "type": "uint256"
        },
        {
          "indexed": false,
          "internalType": "uint256",
          "name": "_timestamp",
          "type": "uint256"
        }
      ],
      "name": "StampExpire",
      "type": "event"
    },
    {
      "anonymous": false,
      "inputs": [
        {
          "indexed": true,
          "internalType": "uint256",
          "name": "_id",
          "type": "uint256"
        },
        {
          "indexed": false,
          "internalType": "uint256",
          "name": "_timestamp",
          "type": "uint256"
        }
      ],
      "name": "StampNewOption",
      "type": "event"
    },
    {
      "anonymous": false,
      "inputs": [
        {
          "indexed": true,
          "internalType": "uint256",
          "name": "_tenor",
          "type": "uint256"
        },
        {
          "indexed": false,
          "internalType": "address",
          "name": "_tokenAddress",
          "type": "address"
        }
      ],
      "name": "VolTokenAddition",
      "type": "event"
    },
    {
      "anonymous": false,
      "inputs": [
        {
          "indexed": true,
          "internalType": "uint256",
          "name": "_tenor",
          "type": "uint256"
        }
      ],
      "name": "VolTokenRemoved",
      "type": "event"
    },
    {
      "inputs": [],
      "name": "ADMIN_ROLE",
      "outputs": [
        {
          "internalType": "bytes32",
          "name": "",
          "type": "bytes32"
        }
      ],
      "stateMutability": "view",
      "type": "function"
    },
    {
      "inputs": [],
      "name": "DEFAULT_ADMIN_ROLE",
      "outputs": [
        {
          "internalType": "bytes32",
          "name": "",
          "type": "bytes32"
        }
      ],
      "stateMutability": "view",
      "type": "function"
    },
    {
      "inputs": [],
      "name": "allowTrading",
      "outputs": [
        {
          "internalType": "bool",
          "name": "",
          "type": "bool"
        }
      ],
      "stateMutability": "view",
      "type": "function"
    },
    {
      "inputs": [
        {
          "internalType": "bytes32",
          "name": "role",
          "type": "bytes32"
        }
      ],
      "name": "getRoleAdmin",
      "outputs": [
        {
          "internalType": "bytes32",
          "name": "",
          "type": "bytes32"
        }
      ],
      "stateMutability": "view",
      "type": "function"
    },
    {
      "inputs": [
        {
          "internalType": "bytes32",
          "name": "role",
          "type": "bytes32"
        },
        {
          "internalType": "address",
          "name": "account",
          "type": "address"
        }
      ],
      "name": "grantRole",
      "outputs": [],
      "stateMutability": "nonpayable",
      "type": "function"
    },
    {
      "inputs": [
        {
          "internalType": "bytes32",
          "name": "role",
          "type": "bytes32"
        },
        {
          "internalType": "address",
          "name": "account",
          "type": "address"
        }
      ],
      "name": "hasRole",
      "outputs": [
        {
          "internalType": "bool",
          "name": "",
          "type": "bool"
        }
      ],
      "stateMutability": "view",
      "type": "function"
    },
    {
      "inputs": [],
      "name": "hedgingSlippage",
      "outputs": [
        {
          "internalType": "uint256",
          "name": "",
          "type": "uint256"
        }
      ],
      "stateMutability": "view",
      "type": "function"
    },
    {
      "inputs": [],
      "name": "loanInterest",
      "outputs": [
        {
          "internalType": "uint256",
          "name": "",
          "type": "uint256"
        }
      ],
      "stateMutability": "view",
      "type": "function"
    },
    {
      "inputs": [],
      "name": "minTradeAmount",
      "outputs": [
        {
          "internalType": "uint256",
          "name": "",
          "type": "uint256"
        }
      ],
      "stateMutability": "view",
      "type": "function"
    },
    {
      "inputs": [
        {
          "internalType": "bytes32",
          "name": "role",
          "type": "bytes32"
        },
        {
          "internalType": "address",
          "name": "account",
          "type": "address"
        }
      ],
      "name": "renounceRole",
      "outputs": [],
      "stateMutability": "nonpayable",
      "type": "function"
    },
    {
      "inputs": [
        {
          "internalType": "bytes32",
          "name": "role",
          "type": "bytes32"
        },
        {
          "internalType": "address",
          "name": "account",
          "type": "address"
        }
      ],
      "name": "revokeRole",
      "outputs": [],
      "stateMutability": "nonpayable",
      "type": "function"
    },
    {
      "inputs": [
        {
          "internalType": "bytes4",
          "name": "interfaceId",
          "type": "bytes4"
        }
      ],
      "name": "supportsInterface",
      "outputs": [
        {
          "internalType": "bool",
          "name": "",
          "type": "bool"
        }
      ],
      "stateMutability": "view",
      "type": "function"
    },
    {
      "inputs": [],
      "name": "volCapacityFactor",
      "outputs": [
        {
          "internalType": "uint256",
          "name": "",
          "type": "uint256"
        }
      ],
      "stateMutability": "view",
      "type": "function"
    },
    {
      "inputs": [
        {
          "internalType": "uint256",
          "name": "",
          "type": "uint256"
        }
      ],
      "name": "volTokenAddressList",
      "outputs": [
        {
          "internalType": "contract VolatilityToken",
          "name": "",
          "type": "address"
        }
      ],
      "stateMutability": "view",
      "type": "function"
    },
    {
      "inputs": [
        {
          "internalType": "uint256",
          "name": "_tenor",
          "type": "uint256"
        },
        {
          "internalType": "uint256",
          "name": "_strike",
          "type": "uint256"
        },
        {
          "internalType": "uint256",
          "name": "_amount",
          "type": "uint256"
        },
        {
          "internalType": "enum OptionLibrary.PayoffType",
          "name": "_poType",
          "type": "uint8"
        },
        {
          "internalType": "enum OptionLibrary.OptionSide",
          "name": "_side",
          "type": "uint8"
        }
      ],
      "name": "calcCost",
      "outputs": [
        {
          "internalType": "uint256",
          "name": "",
          "type": "uint256"
        },
        {
          "internalType": "uint256",
          "name": "",
          "type": "uint256"
        },
        {
          "internalType": "uint256",
          "name": "",
          "type": "uint256"
        }
      ],
      "stateMutability": "view",
      "type": "function"
    },
    {
      "inputs": [
        {
          "internalType": "uint256",
          "name": "_tenor",
          "type": "uint256"
        },
        {
          "internalType": "uint256",
          "name": "_price",
          "type": "uint256"
        },
        {
          "internalType": "uint256",
          "name": "_strike",
          "type": "uint256"
        },
        {
          "internalType": "uint256",
          "name": "_amount",
          "type": "uint256"
        },
        {
          "internalType": "enum OptionLibrary.PayoffType",
          "name": "_poType",
          "type": "uint8"
        },
        {
          "internalType": "enum OptionLibrary.OptionSide",
          "name": "_side",
          "type": "uint8"
        }
      ],
      "name": "calcOptionCost",
      "outputs": [
        {
          "internalType": "uint256",
          "name": "_premium",
          "type": "uint256"
        },
        {
          "internalType": "uint256",
          "name": "_cost",
          "type": "uint256"
        },
        {
          "internalType": "uint256",
          "name": "_vol",
          "type": "uint256"
        }
      ],
      "stateMutability": "view",
      "type": "function"
    },
    {
      "inputs": [
        {
          "internalType": "uint256",
          "name": "_tenor",
          "type": "uint256"
        },
        {
          "internalType": "uint256",
          "name": "_strike",
          "type": "uint256"
        },
        {
          "internalType": "uint256",
          "name": "_amount",
          "type": "uint256"
        },
        {
          "internalType": "enum OptionLibrary.OptionSide",
          "name": "_side",
          "type": "uint8"
        }
      ],
      "name": "queryOptionVolatility",
      "outputs": [
        {
          "internalType": "uint256",
          "name": "_vol",
          "type": "uint256"
        }
      ],
      "stateMutability": "view",
      "type": "function"
    },
    {
      "inputs": [
        {
          "internalType": "uint256",
          "name": "_tenor",
          "type": "uint256"
        },
        {
          "internalType": "uint256",
          "name": "_strike",
          "type": "uint256"
        },
        {
          "internalType": "uint256",
          "name": "_amount",
          "type": "uint256"
        },
        {
          "internalType": "enum OptionLibrary.PayoffType",
          "name": "_poType",
          "type": "uint8"
        },
        {
          "internalType": "enum OptionLibrary.OptionSide",
          "name": "_side",
          "type": "uint8"
        },
        {
          "internalType": "uint256",
          "name": "_payInCost",
          "type": "uint256"
        }
      ],
      "name": "purchaseOption",
      "outputs": [],
      "stateMutability": "nonpayable",
      "type": "function"
    },
    {
      "inputs": [
        {
          "internalType": "uint256",
          "name": "_id",
          "type": "uint256"
        }
      ],
      "name": "getOptionPayoffValue",
      "outputs": [
        {
          "internalType": "uint256",
          "name": "_payback",
          "type": "uint256"
        }
      ],
      "stateMutability": "view",
      "type": "function"
    },
    {
      "inputs": [
        {
          "internalType": "uint256",
          "name": "_tenor",
          "type": "uint256"
        },
        {
          "internalType": "uint256",
          "name": "_amount",
          "type": "uint256"
        },
        {
          "internalType": "enum OptionLibrary.OptionSide",
          "name": "_side",
          "type": "uint8"
        }
      ],
      "name": "calcVolAmount",
      "outputs": [
        {
          "internalType": "uint256",
          "name": "_volAmount",
          "type": "uint256"
        },
        {
          "internalType": "uint256",
          "name": "_vol",
          "type": "uint256"
        },
        {
          "internalType": "uint256",
          "name": "_premium",
          "type": "uint256"
        },
        {
          "internalType": "uint256",
          "name": "_cost",
          "type": "uint256"
        },
        {
          "internalType": "uint256",
          "name": "_price",
          "type": "uint256"
        }
      ],
      "stateMutability": "view",
      "type": "function"
    },
    {
      "inputs": [
        {
          "internalType": "uint256",
          "name": "_tenor",
          "type": "uint256"
        },
        {
          "internalType": "uint256",
          "name": "_amount",
          "type": "uint256"
        },
        {
          "internalType": "uint256",
          "name": "_payInCost",
          "type": "uint256"
        }
      ],
      "name": "buyVol",
      "outputs": [],
      "stateMutability": "nonpayable",
      "type": "function"
    },
    {
      "inputs": [
        {
          "internalType": "uint256",
          "name": "_tenor",
          "type": "uint256"
        },
        {
          "internalType": "uint256",
          "name": "_amount",
          "type": "uint256"
        },
        {
          "internalType": "uint256",
          "name": "_payInVol",
          "type": "uint256"
        }
      ],
      "name": "sellVol",
      "outputs": [],
      "stateMutability": "nonpayable",
      "type": "function"
    },
    {
      "inputs": [
        {
          "internalType": "uint256",
          "name": "_tenor",
          "type": "uint256"
        },
        {
          "internalType": "uint256",
          "name": "_amount",
          "type": "uint256"
        },
        {
          "internalType": "enum OptionLibrary.PayoffType",
          "name": "_poType",
          "type": "uint8"
        },
        {
          "internalType": "uint256",
          "name": "_payInVol",
          "type": "uint256"
        }
      ],
      "name": "buyOptionInVol",
      "outputs": [],
      "stateMutability": "nonpayable",
      "type": "function"
    },
    {
      "inputs": [
        {
          "internalType": "uint256",
          "name": "_tenor",
          "type": "uint256"
        },
        {
          "internalType": "uint256",
          "name": "_amount",
          "type": "uint256"
        },
        {
          "internalType": "enum OptionLibrary.PayoffType",
          "name": "_poType",
          "type": "uint8"
        },
        {
          "internalType": "uint256",
          "name": "_payInCost",
          "type": "uint256"
        }
      ],
      "name": "sellOptionInVol",
      "outputs": [],
      "stateMutability": "nonpayable",
      "type": "function"
    },
    {
      "inputs": [
        {
          "internalType": "uint256",
          "name": "_tenor",
          "type": "uint256"
        },
        {
          "internalType": "address",
          "name": "_tokenAddress",
          "type": "address"
        }
      ],
      "name": "addVolToken",
      "outputs": [],
      "stateMutability": "nonpayable",
      "type": "function"
    },
    {
      "inputs": [
        {
          "internalType": "uint256",
          "name": "_tenor",
          "type": "uint256"
        }
      ],
      "name": "removeVolToken",
      "outputs": [],
      "stateMutability": "nonpayable",
      "type": "function"
    },
    {
      "inputs": [],
      "name": "vaultAddress",
      "outputs": [
        {
          "internalType": "address",
          "name": "",
          "type": "address"
        }
      ],
      "stateMutability": "view",
      "type": "function"
    },
    {
      "inputs": [],
      "name": "marketMakerAddress",
      "outputs": [
        {
          "internalType": "address",
          "name": "",
          "type": "address"
        }
      ],
      "stateMutability": "view",
      "type": "function"
    },
    {
      "inputs": [
        {
          "internalType": "uint256",
          "name": "_loanInterest",
          "type": "uint256"
        }
      ],
      "name": "resetLoanRate",
      "outputs": [],
      "stateMutability": "nonpayable",
      "type": "function"
    },
    {
      "inputs": [
        {
          "internalType": "uint256",
          "name": "_newFactor",
          "type": "uint256"
        }
      ],
      "name": "resetVolCapacityFactor",
      "outputs": [],
      "stateMutability": "nonpayable",
      "type": "function"
    },
    {
      "inputs": [
        {
          "internalType": "uint256",
          "name": "_newAmount",
          "type": "uint256"
        }
      ],
      "name": "resetMinAmount",
      "outputs": [],
      "stateMutability": "nonpayable",
      "type": "function"
    },
    {
      "inputs": [
        {
          "internalType": "bool",
          "name": "_allowTrading",
          "type": "bool"
        }
      ],
      "name": "resetTrading",
      "outputs": [],
      "stateMutability": "nonpayable",
      "type": "function"
    }
  ],
  "bytecode": "0x6101206040526706f05b59d3b20000600255670de0b6b3a76400006003556000600455660aa87bee5380006005556001600660006101000a81548160ff0219169083151502179055503480156200005557600080fd5b5060405162005bb638038062005bb683398181016040528101906200007b9190620005ee565b620000906000801b33620003b260201b60201c565b620000c27fa49807205ce4d355092ef5a8a18f56e8913cf4a201fbe287825b095693c2177533620003b260201b60201c565b8073ffffffffffffffffffffffffffffffffffffffff1660a08173ffffffffffffffffffffffffffffffffffffffff16815250508173ffffffffffffffffffffffffffffffffffffffff1660808173ffffffffffffffffffffffffffffffffffffffff16815250508073ffffffffffffffffffffffffffffffffffffffff1663cb4c86b76040518163ffffffff1660e01b8152600401602060405180830381865afa15801562000176573d6000803e3d6000fd5b505050506040513d601f19601f820116820180604052508101906200019c91906200067a565b73ffffffffffffffffffffffffffffffffffffffff166101008173ffffffffffffffffffffffffffffffffffffffff16815250508073ffffffffffffffffffffffffffffffffffffffff1663cb4c86b76040518163ffffffff1660e01b8152600401602060405180830381865afa1580156200021c573d6000803e3d6000fd5b505050506040513d601f19601f820116820180604052508101906200024291906200067a565b73ffffffffffffffffffffffffffffffffffffffff1663313ce5676040518163ffffffff1660e01b8152600401602060405180830381865afa1580156200028d573d6000803e3d6000fd5b505050506040513d601f19601f82011682018060405250810190620002b39190620006ea565b60ff1660c081815250508073ffffffffffffffffffffffffffffffffffffffff16636f307dc36040518163ffffffff1660e01b8152600401602060405180830381865afa15801562000309573d6000803e3d6000fd5b505050506040513d601f19601f820116820180604052508101906200032f91906200067a565b73ffffffffffffffffffffffffffffffffffffffff1663313ce5676040518163ffffffff1660e01b8152600401602060405180830381865afa1580156200037a573d6000803e3d6000fd5b505050506040513d601f19601f82011682018060405250810190620003a09190620006ea565b60ff1660e0818152505050506200071c565b620003c48282620003c860201b60201c565b5050565b620003da8282620004b960201b60201c565b620004b557600160008084815260200190815260200160002060000160008373ffffffffffffffffffffffffffffffffffffffff1673ffffffffffffffffffffffffffffffffffffffff16815260200190815260200160002060006101000a81548160ff0219169083151502179055506200045a6200052360201b60201c565b73ffffffffffffffffffffffffffffffffffffffff168173ffffffffffffffffffffffffffffffffffffffff16837f2f8788117e7eff1d82e926ec794901d17c78024a50270940304540a733656f0d60405160405180910390a45b5050565b600080600084815260200190815260200160002060000160008373ffffffffffffffffffffffffffffffffffffffff1673ffffffffffffffffffffffffffffffffffffffff16815260200190815260200160002060009054906101000a900460ff16905092915050565b600033905090565b600080fd5b600073ffffffffffffffffffffffffffffffffffffffff82169050919050565b60006200055d8262000530565b9050919050565b6000620005718262000550565b9050919050565b620005838162000564565b81146200058f57600080fd5b50565b600081519050620005a38162000578565b92915050565b6000620005b68262000550565b9050919050565b620005c881620005a9565b8114620005d457600080fd5b50565b600081519050620005e881620005bd565b92915050565b600080604083850312156200060857620006076200052b565b5b6000620006188582860162000592565b92505060206200062b85828601620005d7565b9150509250929050565b6000620006428262000550565b9050919050565b620006548162000635565b81146200066057600080fd5b50565b600081519050620006748162000649565b92915050565b6000602082840312156200069357620006926200052b565b5b6000620006a38482850162000663565b91505092915050565b600060ff82169050919050565b620006c481620006ac565b8114620006d057600080fd5b50565b600081519050620006e481620006b9565b92915050565b6000602082840312156200070357620007026200052b565b5b60006200071384828501620006d3565b91505092915050565b60805160a05160c05160e051610100516153946200082260003960008181610d3301528181610f7901528181611078015281816119fe015281816122c201526126ed01526000505060008181612a110152612aaf01526000818161076901528181610bbf01528181610c6501528181611159015281816112aa0152818161136f01528181611437015281816114ea015281816115880152818161194d01528181611afb01528181611bc001528181611d4f0152818161212301528181612212015281816123c1015281816124860152612fdc015260008181610fb60152818161161901528181611a3a015281816122ff015281816125560152612edb01526153946000f3fe608060405234801561001057600080fd5b50600436106101f05760003560e01c80637188157e1161010f578063ba2d76cb116100a2578063dbfed78311610071578063dbfed783146105a7578063dda9046f146105c3578063e327c248146105e1578063edf0bec614610613576101f0565b8063ba2d76cb14610533578063cc91058814610551578063d547741f1461056f578063dab243291461058b576101f0565b806391d14854116100de57806391d14854146104ab578063a217fddf146104db578063a34a1e4d146104f9578063a7292ea414610515576101f0565b80637188157e1461042157806375b238fc1461043d57806375b8452b1461045b5780638d4939c61461048f576101f0565b80632f2ff15d116101875780634b7a58fb116101565780634b7a58fb146103875780634d937da9146103a357806368fefdfb146103bf5780636a7d116f146103f1576101f0565b80632f2ff15d1461030157806336568abe1461031d57806340d6eaab14610339578063430bf08a14610369576101f0565b8063130dab6a116101c3578063130dab6a1461027b5780631fb2274214610297578063248a9ca3146102b35780632e5b4c43146102e3576101f0565b806301ffc9a7146101f55780630227ac83146102255780630c64307d146102415780630f9026181461025d575b600080fd5b61020f600480360381019061020a919061360b565b610643565b60405161021c9190613653565b60405180910390f35b61023f600480360381019061023a9190613702565b6106bd565b005b61025b60048036038101906102569190613742565b610935565b005b6102656109ab565b604051610272919061377e565b60405180910390f35b61029560048036038101906102909190613742565b6109b1565b005b6102b160048036038101906102ac9190613742565b610a67565b005b6102cd60048036038101906102c891906137cf565b610add565b6040516102da919061380b565b60405180910390f35b6102eb610afc565b6040516102f89190613653565b60405180910390f35b61031b60048036038101906103169190613826565b610b0f565b005b61033760048036038101906103329190613826565b610b38565b005b610353600480360381019061034e9190613742565b610bbb565b604051610360919061377e565b60405180910390f35b610371610c61565b60405161037e9190613875565b60405180910390f35b6103a1600480360381019061039c9190613890565b610c89565b005b6103bd60048036038101906103b89190613908565b610eb7565b005b6103d960048036038101906103d49190613994565b61142f565b6040516103e893929190613a0f565b60405180910390f35b61040b60048036038101906104069190613a46565b6114e6565b604051610418919061377e565b60405180910390f35b61043b60048036038101906104369190613908565b6117f9565b005b610445611c7f565b604051610452919061380b565b60405180910390f35b61047560048036038101906104709190613aad565b611ca3565b604051610486959493929190613b00565b60405180910390f35b6104a960048036038101906104a49190613b7f565b611fa0565b005b6104c560048036038101906104c09190613826565b61201a565b6040516104d29190613653565b60405180910390f35b6104e3612084565b6040516104f0919061380b565b60405180910390f35b610513600480360381019061050e9190613bac565b61208b565b005b61051d612546565b60405161052a919061377e565b60405180910390f35b61053b61254c565b604051610548919061377e565b60405180910390f35b610559612552565b6040516105669190613875565b60405180910390f35b61058960048036038101906105849190613826565b61257a565b005b6105a560048036038101906105a09190613890565b6125a3565b005b6105c160048036038101906105bc9190613742565b6127cf565b005b6105cb612845565b6040516105d8919061377e565b60405180910390f35b6105fb60048036038101906105f69190613c39565b61284b565b60405161060a93929190613a0f565b60405180910390f35b61062d60048036038101906106289190613742565b612b3b565b60405161063a9190613d25565b60405180910390f35b60007f7965db0b000000000000000000000000000000000000000000000000000000007bffffffffffffffffffffffffffffffffffffffffffffffffffffffff1916827bffffffffffffffffffffffffffffffffffffffffffffffffffffffff191614806106b657506106b582612b6e565b5b9050919050565b7fa49807205ce4d355092ef5a8a18f56e8913cf4a201fbe287825b095693c217756106ef816106ea612bd8565b612be0565b828273ffffffffffffffffffffffffffffffffffffffff1663a15612d16040518163ffffffff1660e01b8152600401602060405180830381865afa15801561073b573d6000803e3d6000fd5b505050506040513d601f19601f8201168201806040525081019061075f9190613d55565b14801561086757507f000000000000000000000000000000000000000000000000000000000000000073ffffffffffffffffffffffffffffffffffffffff1663cca494736040518163ffffffff1660e01b8152600401602060405180830381865afa1580156107d2573d6000803e3d6000fd5b505050506040513d601f19601f820116820180604052508101906107f69190613d97565b8273ffffffffffffffffffffffffffffffffffffffff1663cca494736040518163ffffffff1660e01b8152600401602060405180830381865afa158015610841573d6000803e3d6000fd5b505050506040513d601f19601f820116820180604052508101906108659190613d97565b145b6108a6576040517f08c379a000000000000000000000000000000000000000000000000000000000815260040161089d90613e21565b60405180910390fd5b816001600085815260200190815260200160002060006101000a81548173ffffffffffffffffffffffffffffffffffffffff021916908373ffffffffffffffffffffffffffffffffffffffff160217905550827ff52090a6d0640328e5fca5b38028063dc80957a1911e51223e7a53797b600eda836040516109289190613875565b60405180910390a2505050565b7fa49807205ce4d355092ef5a8a18f56e8913cf4a201fbe287825b095693c2177561096781610962612bd8565b612be0565b8160048190555060647f1f77a5f1218c5e380f0425a2e88a823d831b5f8906f5ab4db8b1565a36f780d78360405161099f919061377e565b60405180910390a25050565b60025481565b7fa49807205ce4d355092ef5a8a18f56e8913cf4a201fbe287825b095693c217756109e3816109de612bd8565b612be0565b60006001600084815260200190815260200160002060006101000a81548173ffffffffffffffffffffffffffffffffffffffff021916908373ffffffffffffffffffffffffffffffffffffffff160217905550817f77deee3eb9b4bb6f251b71ecb6cab511fad7f468b72b821d2315bce091d693b560405160405180910390a25050565b7fa49807205ce4d355092ef5a8a18f56e8913cf4a201fbe287825b095693c21775610a9981610a94612bd8565b612be0565b8160038190555060667f1f77a5f1218c5e380f0425a2e88a823d831b5f8906f5ab4db8b1565a36f780d783604051610ad1919061377e565b60405180910390a25050565b6000806000838152602001908152602001600020600101549050919050565b600660009054906101000a900460ff1681565b610b1882610add565b610b2981610b24612bd8565b612be0565b610b338383612c7d565b505050565b610b40612bd8565b73ffffffffffffffffffffffffffffffffffffffff168173ffffffffffffffffffffffffffffffffffffffff1614610bad576040517f08c379a0000000000000000000000000000000000000000000000000000000008152600401610ba490613eb3565b60405180910390fd5b610bb78282612d5d565b5050565b60007f000000000000000000000000000000000000000000000000000000000000000073ffffffffffffffffffffffffffffffffffffffff166385ae10e6836040518263ffffffff1660e01b8152600401610c16919061377e565b6040805180830381865afa158015610c32573d6000803e3d6000fd5b505050506040513d601f19601f82011682018060405250810190610c569190613ed3565b905080915050919050565b60007f0000000000000000000000000000000000000000000000000000000000000000905090565b600660009054906101000a900460ff16610cd8576040517f08c379a0000000000000000000000000000000000000000000000000000000008152600401610ccf90613f5f565b60405180910390fd5b600080610ce785856000611ca3565b5050925050915080831015610d31576040517f08c379a0000000000000000000000000000000000000000000000000000000008152600401610d2890613fcb565b60405180910390fd5b7f000000000000000000000000000000000000000000000000000000000000000073ffffffffffffffffffffffffffffffffffffffff166323b872dd3330846040518463ffffffff1660e01b8152600401610d8e93929190613feb565b6020604051808303816000875af1158015610dad573d6000803e3d6000fd5b505050506040513d601f19601f82011682018060405250810190610dd19190614037565b610e10576040517f08c379a0000000000000000000000000000000000000000000000000000000008152600401610e07906140b0565b60405180910390fd5b6001600086815260200190815260200160002060009054906101000a900473ffffffffffffffffffffffffffffffffffffffff1673ffffffffffffffffffffffffffffffffffffffff166340c10f1933846040518363ffffffff1660e01b8152600401610e7e9291906140d0565b600060405180830381600087803b158015610e9857600080fd5b505af1158015610eac573d6000803e3d6000fd5b505050505050505050565b600660009054906101000a900460ff16610f06576040517f08c379a0000000000000000000000000000000000000000000000000000000008152600401610efd90613f5f565b60405180910390fd5b6000806000806000610f1a89896001611ca3565b9450945094509450945060008284610f329190614128565b905080871015610f77576040517f08c379a0000000000000000000000000000000000000000000000000000000008152600401610f6e90613fcb565b60405180910390fd5b7f000000000000000000000000000000000000000000000000000000000000000073ffffffffffffffffffffffffffffffffffffffff166323b872dd337f0000000000000000000000000000000000000000000000000000000000000000866040518463ffffffff1660e01b8152600401610ff493929190613feb565b6020604051808303816000875af1158015611013573d6000803e3d6000fd5b505050506040513d601f19601f820116820180604052508101906110379190614037565b611076576040517f08c379a000000000000000000000000000000000000000000000000000000000815260040161106d906141ca565b60405180910390fd5b7f000000000000000000000000000000000000000000000000000000000000000073ffffffffffffffffffffffffffffffffffffffff166323b872dd3330876040518463ffffffff1660e01b81526004016110d393929190613feb565b6020604051808303816000875af11580156110f2573d6000803e3d6000fd5b505050506040513d601f19601f820116820180604052508101906111169190614037565b611155576040517f08c379a000000000000000000000000000000000000000000000000000000000815260040161114c906141ca565b60405180910390fd5b60007f000000000000000000000000000000000000000000000000000000000000000073ffffffffffffffffffffffffffffffffffffffff1663b5310ff98c858d8d60018b8b8b8f336040518b63ffffffff1660e01b81526004016111c39a999897969594939291906142a9565b6020604051808303816000875af11580156111e2573d6000803e3d6000fd5b505050506040513d601f19601f820116820180604052508101906112069190613d55565b9050600160008c815260200190815260200160002060009054906101000a900473ffffffffffffffffffffffffffffffffffffffff1673ffffffffffffffffffffffffffffffffffffffff166340c10f1933896040518363ffffffff1660e01b81526004016112769291906140d0565b600060405180830381600087803b15801561129057600080fd5b505af11580156112a4573d6000803e3d6000fd5b505050507f000000000000000000000000000000000000000000000000000000000000000073ffffffffffffffffffffffffffffffffffffffff166324b4110e82336040518363ffffffff1660e01b8152600401611303929190614345565b600060405180830381600087803b15801561131d57600080fd5b505af1158015611331573d6000803e3d6000fd5b505050503373ffffffffffffffffffffffffffffffffffffffff167fec9992eb00731da134f6eac37d87ed04f0324c070c4eff62d553ae005dc451067f000000000000000000000000000000000000000000000000000000000000000073ffffffffffffffffffffffffffffffffffffffff16631ce5e9a6846040518263ffffffff1660e01b81526004016113c6919061377e565b61020060405180830381865afa1580156113e4573d6000803e3d6000fd5b505050506040513d601f19601f8201168201806040525081019061140891906145dd565b89600160405161141a939291906147d9565b60405180910390a25050505050505050505050565b6000806000807f000000000000000000000000000000000000000000000000000000000000000073ffffffffffffffffffffffffffffffffffffffff1663b0667cf86040518163ffffffff1660e01b81526004016040805180830381865afa15801561149f573d6000803e3d6000fd5b505050506040513d601f19601f820116820180604052508101906114c39190613ed3565b5090506114d489828a8a8a8a61284b565b93509350935050955095509592505050565b60007f000000000000000000000000000000000000000000000000000000000000000073ffffffffffffffffffffffffffffffffffffffff1663cfc2dc20866040518263ffffffff1660e01b8152600401611541919061377e565b602060405180830381865afa15801561155e573d6000803e3d6000fd5b505050506040513d601f19601f820116820180604052508101906115829190613d55565b905060007f000000000000000000000000000000000000000000000000000000000000000073ffffffffffffffffffffffffffffffffffffffff1663b0667cf86040518163ffffffff1660e01b81526004016040805180830381865afa1580156115f0573d6000803e3d6000fd5b505050506040513d601f19601f820116820180604052508101906116149190613ed3565b5090507f000000000000000000000000000000000000000000000000000000000000000073ffffffffffffffffffffffffffffffffffffffff166363447902600160006040518363ffffffff1660e01b8152600401611674929190614813565b602060405180830381865afa158015611691573d6000803e3d6000fd5b505050506040513d601f19601f820116820180604052508101906116b59190613d55565b8473__FullMath______________________________63fed4a0f39091846040518363ffffffff1660e01b81526004016116f092919061484b565b602060405180830381865af415801561170d573d6000803e3d6000fd5b505050506040513d601f19601f820116820180604052508101906117319190613d55565b1115611772576040517f08c379a0000000000000000000000000000000000000000000000000000000008152600401611769906148c0565b60405180910390fd5b60006117818284888888612e3e565b905060008161178f856132fb565b61179991906148ea565b136117d9576040517f08c379a00000000000000000000000000000000000000000000000000000000081526004016117d0906149ca565b60405180910390fd5b806117e3846132fb565b6117ed91906148ea565b92505050949350505050565b600660009054906101000a900460ff16611848576040517f08c379a000000000000000000000000000000000000000000000000000000000815260040161183f90613f5f565b60405180910390fd5b600080600080600061185c89896000611ca3565b94509450945094509450848610156118a9576040517f08c379a00000000000000000000000000000000000000000000000000000000081526004016118a090613fcb565b60405180910390fd5b600160008a815260200190815260200160002060009054906101000a900473ffffffffffffffffffffffffffffffffffffffff1673ffffffffffffffffffffffffffffffffffffffff16639dc29fac33876040518363ffffffff1660e01b81526004016119179291906140d0565b600060405180830381600087803b15801561193157600080fd5b505af1158015611945573d6000803e3d6000fd5b5050505060007f000000000000000000000000000000000000000000000000000000000000000073ffffffffffffffffffffffffffffffffffffffff1663b5310ff98b848c8c60008a8a8a8e336040518b63ffffffff1660e01b81526004016119b79a999897969594939291906142a9565b6020604051808303816000875af11580156119d6573d6000803e3d6000fd5b505050506040513d601f19601f820116820180604052508101906119fa9190613d55565b90507f000000000000000000000000000000000000000000000000000000000000000073ffffffffffffffffffffffffffffffffffffffff1663a9059cbb7f0000000000000000000000000000000000000000000000000000000000000000866040518363ffffffff1660e01b8152600401611a779291906140d0565b6020604051808303816000875af1158015611a96573d6000803e3d6000fd5b505050506040513d601f19601f82011682018060405250810190611aba9190614037565b611af9576040517f08c379a0000000000000000000000000000000000000000000000000000000008152600401611af0906141ca565b60405180910390fd5b7f000000000000000000000000000000000000000000000000000000000000000073ffffffffffffffffffffffffffffffffffffffff166324b4110e82336040518363ffffffff1660e01b8152600401611b54929190614345565b600060405180830381600087803b158015611b6e57600080fd5b505af1158015611b82573d6000803e3d6000fd5b505050503373ffffffffffffffffffffffffffffffffffffffff167fec9992eb00731da134f6eac37d87ed04f0324c070c4eff62d553ae005dc451067f000000000000000000000000000000000000000000000000000000000000000073ffffffffffffffffffffffffffffffffffffffff16631ce5e9a6846040518263ffffffff1660e01b8152600401611c17919061377e565b61020060405180830381865afa158015611c35573d6000803e3d6000fd5b505050506040513d601f19601f82011682018060405250810190611c5991906145dd565b886001604051611c6b939291906147d9565b60405180910390a250505050505050505050565b7fa49807205ce4d355092ef5a8a18f56e8913cf4a201fbe287825b095693c2177581565b60008060008060008073ffffffffffffffffffffffffffffffffffffffff16600160008a815260200190815260200160002060009054906101000a900473ffffffffffffffffffffffffffffffffffffffff1673ffffffffffffffffffffffffffffffffffffffff161415611d4d576040517f08c379a0000000000000000000000000000000000000000000000000000000008152600401611d4490614a36565b60405180910390fd5b7f000000000000000000000000000000000000000000000000000000000000000073ffffffffffffffffffffffffffffffffffffffff1663b0667cf86040518163ffffffff1660e01b81526004016040805180830381865afa158015611db7573d6000803e3d6000fd5b505050506040513d601f19601f82011682018060405250810190611ddb9190613ed3565b5080915050611def8882838a60008b61284b565b8096508194508295505050508273__FullMath______________________________63de7f61709091866040518363ffffffff1660e01b8152600401611e3692919061484b565b602060405180830381865af4158015611e53573d6000803e3d6000fd5b505050506040513d601f19601f82011682018060405250810190611e779190613d55565b73__MarketLibrary_________________________63174e20e69091600160008c815260200190815260200160002060009054906101000a900473ffffffffffffffffffffffffffffffffffffffff1673ffffffffffffffffffffffffffffffffffffffff1663313ce5676040518163ffffffff1660e01b8152600401602060405180830381865afa158015611f11573d6000803e3d6000fd5b505050506040513d601f19601f82011682018060405250810190611f359190614a8f565b6040518363ffffffff1660e01b8152600401611f52929190614aed565b602060405180830381865af4158015611f6f573d6000803e3d6000fd5b505050506040513d601f19601f82011682018060405250810190611f939190613d55565b9450939792965093509350565b6000801b611fb581611fb0612bd8565b612be0565b81600660006101000a81548160ff02191690831515021790555060667f1f77a5f1218c5e380f0425a2e88a823d831b5f8906f5ab4db8b1565a36f780d783611ffe576000612001565b60015b60405161200e9190614b25565b60405180910390a25050565b600080600084815260200190815260200160002060000160008373ffffffffffffffffffffffffffffffffffffffff1673ffffffffffffffffffffffffffffffffffffffff16815260200190815260200160002060009054906101000a900460ff16905092915050565b6000801b81565b600660009054906101000a900460ff166120da576040517f08c379a00000000000000000000000000000000000000000000000000000000081526004016120d190613f5f565b60405180910390fd5b83600354111561211f576040517f08c379a000000000000000000000000000000000000000000000000000000000815260040161211690614b8c565b60405180910390fd5b60007f000000000000000000000000000000000000000000000000000000000000000073ffffffffffffffffffffffffffffffffffffffff1663b0667cf86040518163ffffffff1660e01b81526004016040805180830381865afa15801561218b573d6000803e3d6000fd5b505050506040513d601f19601f820116820180604052508101906121af9190613ed3565b50905060008060006121c58a858b8b8b8b61284b565b9250925092508185101561220e576040517f08c379a000000000000000000000000000000000000000000000000000000000815260040161220590614bf8565b60405180910390fd5b60007f000000000000000000000000000000000000000000000000000000000000000073ffffffffffffffffffffffffffffffffffffffff1663b5310ff98c8c8c8c8c8a8a8d8b336040518b63ffffffff1660e01b815260040161227b9a999897969594939291906142a9565b6020604051808303816000875af115801561229a573d6000803e3d6000fd5b505050506040513d601f19601f820116820180604052508101906122be9190613d55565b90507f000000000000000000000000000000000000000000000000000000000000000073ffffffffffffffffffffffffffffffffffffffff166323b872dd337f0000000000000000000000000000000000000000000000000000000000000000896040518463ffffffff1660e01b815260040161233d93929190613feb565b6020604051808303816000875af115801561235c573d6000803e3d6000fd5b505050506040513d601f19601f820116820180604052508101906123809190614037565b6123bf576040517f08c379a00000000000000000000000000000000000000000000000000000000081526004016123b690614c64565b60405180910390fd5b7f000000000000000000000000000000000000000000000000000000000000000073ffffffffffffffffffffffffffffffffffffffff166324b4110e82336040518363ffffffff1660e01b815260040161241a929190614345565b600060405180830381600087803b15801561243457600080fd5b505af1158015612448573d6000803e3d6000fd5b505050503373ffffffffffffffffffffffffffffffffffffffff167fec9992eb00731da134f6eac37d87ed04f0324c070c4eff62d553ae005dc451067f000000000000000000000000000000000000000000000000000000000000000073ffffffffffffffffffffffffffffffffffffffff16631ce5e9a6846040518263ffffffff1660e01b81526004016124dd919061377e565b61020060405180830381865afa1580156124fb573d6000803e3d6000fd5b505050506040513d601f19601f8201168201806040525081019061251f91906145dd565b886000604051612531939291906147d9565b60405180910390a25050505050505050505050565b60045481565b60055481565b60007f0000000000000000000000000000000000000000000000000000000000000000905090565b61258382610add565b6125948161258f612bd8565b612be0565b61259e8383612d5d565b505050565b600660009054906101000a900460ff166125f2576040517f08c379a00000000000000000000000000000000000000000000000000000000081526004016125e990613f5f565b60405180910390fd5b60008061260185856001611ca3565b505092505091508183101561264b576040517f08c379a000000000000000000000000000000000000000000000000000000000815260040161264290613fcb565b60405180910390fd5b6001600086815260200190815260200160002060009054906101000a900473ffffffffffffffffffffffffffffffffffffffff1673ffffffffffffffffffffffffffffffffffffffff16639dc29fac33846040518363ffffffff1660e01b81526004016126b99291906140d0565b600060405180830381600087803b1580156126d357600080fd5b505af11580156126e7573d6000803e3d6000fd5b505050507f000000000000000000000000000000000000000000000000000000000000000073ffffffffffffffffffffffffffffffffffffffff1663a9059cbb33836040518363ffffffff1660e01b81526004016127469291906140d0565b6020604051808303816000875af1158015612765573d6000803e3d6000fd5b505050506040513d601f19601f820116820180604052508101906127899190614037565b6127c8576040517f08c379a00000000000000000000000000000000000000000000000000000000081526004016127bf906141ca565b60405180910390fd5b5050505050565b7fa49807205ce4d355092ef5a8a18f56e8913cf4a201fbe287825b095693c21775612801816127fc612bd8565b612be0565b8160028190555060657f1f77a5f1218c5e380f0425a2e88a823d831b5f8906f5ab4db8b1565a36f780d783604051612839919061377e565b60405180910390a25050565b60035481565b600080600061285c898888876114e6565b9050600060045473__FullMath______________________________63b3947c1790918c6301e133806040518463ffffffff1660e01b81526004016128a393929190614c84565b602060405180830381865af41580156128c0573d6000803e3d6000fd5b505050506040513d601f19601f820116820180604052508101906128e49190613d55565b905073__OptionLibrary_________________________632634764d8a848b8a8c876005546040518863ffffffff1660e01b815260040161292b9796959493929190614cca565b602060405180830381865af4158015612948573d6000803e3d6000fd5b505050506040513d601f19601f8201168201806040525081019061296c9190613d55565b935073__OptionLibrary_________________________638234348f8a8a8a8a8a8a6040518763ffffffff1660e01b81526004016129af96959493929190614d48565b602060405180830381865af41580156129cc573d6000803e3d6000fd5b505050506040513d601f19601f820116820180604052508101906129f09190613d55565b92508373__MarketLibrary_________________________63174e20e690917f00000000000000000000000000000000000000000000000000000000000000006040518363ffffffff1660e01b8152600401612a4d92919061484b565b602060405180830381865af4158015612a6a573d6000803e3d6000fd5b505050506040513d601f19601f82011682018060405250810190612a8e9190613d55565b93508273__MarketLibrary_________________________63174e20e690917f00000000000000000000000000000000000000000000000000000000000000006040518363ffffffff1660e01b8152600401612aeb92919061484b565b602060405180830381865af4158015612b08573d6000803e3d6000fd5b505050506040513d601f19601f82011682018060405250810190612b2c9190613d55565b92505096509650969350505050565b60016020528060005260406000206000915054906101000a900473ffffffffffffffffffffffffffffffffffffffff1681565b60007f01ffc9a7000000000000000000000000000000000000000000000000000000007bffffffffffffffffffffffffffffffffffffffffffffffffffffffff1916827bffffffffffffffffffffffffffffffffffffffffffffffffffffffff1916149050919050565b600033905090565b612bea828261201a565b612c7957612c0f8173ffffffffffffffffffffffffffffffffffffffff166014613368565b612c1d8360001c6020613368565b604051602001612c2e929190614ebb565b6040516020818303038152906040526040517f08c379a0000000000000000000000000000000000000000000000000000000008152600401612c709190614f2e565b60405180910390fd5b5050565b612c87828261201a565b612d5957600160008084815260200190815260200160002060000160008373ffffffffffffffffffffffffffffffffffffffff1673ffffffffffffffffffffffffffffffffffffffff16815260200190815260200160002060006101000a81548160ff021916908315150217905550612cfe612bd8565b73ffffffffffffffffffffffffffffffffffffffff168173ffffffffffffffffffffffffffffffffffffffff16837f2f8788117e7eff1d82e926ec794901d17c78024a50270940304540a733656f0d60405160405180910390a45b5050565b612d67828261201a565b15612e3a57600080600084815260200190815260200160002060000160008373ffffffffffffffffffffffffffffffffffffffff1673ffffffffffffffffffffffffffffffffffffffff16815260200190815260200160002060006101000a81548160ff021916908315150217905550612ddf612bd8565b73ffffffffffffffffffffffffffffffffffffffff168173ffffffffffffffffffffffffffffffffffffffff16837ff6391f5c32d9c69d2a47ea670b442974b53935d1edc7fd64eb21e047a839171b60405160405180910390a45b5050565b60008073__OptionLibrary_________________________639932b2be8889896040518463ffffffff1660e01b8152600401612e7c93929190614c84565b602060405180830381865af4158015612e99573d6000803e3d6000fd5b505050506040513d601f19601f82011682018060405250810190612ebd9190613d55565b73__FullMath______________________________63b3947c1790917f000000000000000000000000000000000000000000000000000000000000000073ffffffffffffffffffffffffffffffffffffffff1663634479026000806040518363ffffffff1660e01b8152600401612f35929190614813565b602060405180830381865afa158015612f52573d6000803e3d6000fd5b505050506040513d601f19601f82011682018060405250810190612f769190613d55565b8a6040518463ffffffff1660e01b8152600401612f9593929190614c84565b602060405180830381865af4158015612fb2573d6000803e3d6000fd5b505050506040513d601f19601f82011682018060405250810190612fd69190613d55565b905060007f000000000000000000000000000000000000000000000000000000000000000073ffffffffffffffffffffffffffffffffffffffff16636fe440316040518163ffffffff1660e01b8152600401602060405180830381865afa158015613045573d6000803e3d6000fd5b505050506040513d601f19601f820116820180604052508101906130699190614f7c565b905060006001808111156130805761307f6141ea565b5b856001811115613093576130926141ea565b5b1461309f5760016130c1565b7fffffffffffffffffffffffffffffffffffffffffffffffffffffffffffffffff5b6131c073__OptionLibrary_________________________639932b2be8c8b8d6040518463ffffffff1660e01b81526004016130ff93929190614c84565b602060405180830381865af415801561311c573d6000803e3d6000fd5b505050506040513d601f19601f820116820180604052508101906131409190613d55565b73__FullMath______________________________63fed4a0f390918a6040518363ffffffff1660e01b815260040161317a92919061484b565b602060405180830381865af4158015613197573d6000803e3d6000fd5b505050506040513d601f19601f820116820180604052508101906131bb9190613d55565b6132fb565b6131ca9190614fa9565b826131d591906148ea565b9050600273__OptionLibrary_________________________63fcc14dfd85848c6002546040518563ffffffff1660e01b815260040161321894939291906150cf565b602060405180830381865af4158015613235573d6000803e3d6000fd5b505050506040513d601f19601f820116820180604052508101906132599190614f7c565b73__OptionLibrary_________________________63fcc14dfd86868d6002546040518563ffffffff1660e01b815260040161329894939291906150cf565b602060405180830381865af41580156132b5573d6000803e3d6000fd5b505050506040513d601f19601f820116820180604052508101906132d99190614f7c565b6132e391906148ea565b6132ed9190615143565b935050505095945050505050565b60007f7fffffffffffffffffffffffffffffffffffffffffffffffffffffffffffffff821115613360576040517f08c379a00000000000000000000000000000000000000000000000000000000081526004016133579061521f565b60405180910390fd5b819050919050565b60606000600283600261337b919061523f565b6133859190614128565b67ffffffffffffffff81111561339e5761339d614384565b5b6040519080825280601f01601f1916602001820160405280156133d05781602001600182028036833780820191505090505b5090507f30000000000000000000000000000000000000000000000000000000000000008160008151811061340857613407615299565b5b60200101907effffffffffffffffffffffffffffffffffffffffffffffffffffffffffffff1916908160001a9053507f78000000000000000000000000000000000000000000000000000000000000008160018151811061346c5761346b615299565b5b60200101907effffffffffffffffffffffffffffffffffffffffffffffffffffffffffffff1916908160001a905350600060018460026134ac919061523f565b6134b69190614128565b90505b6001811115613556577f3031323334353637383961626364656600000000000000000000000000000000600f8616601081106134f8576134f7615299565b5b1a60f81b82828151811061350f5761350e615299565b5b60200101907effffffffffffffffffffffffffffffffffffffffffffffffffffffffffffff1916908160001a905350600485901c94508061354f906152c8565b90506134b9565b506000841461359a576040517f08c379a00000000000000000000000000000000000000000000000000000000081526004016135919061533e565b60405180910390fd5b8091505092915050565b6000604051905090565b600080fd5b60007fffffffff0000000000000000000000000000000000000000000000000000000082169050919050565b6135e8816135b3565b81146135f357600080fd5b50565b600081359050613605816135df565b92915050565b600060208284031215613621576136206135ae565b5b600061362f848285016135f6565b91505092915050565b60008115159050919050565b61364d81613638565b82525050565b60006020820190506136686000830184613644565b92915050565b6000819050919050565b6136818161366e565b811461368c57600080fd5b50565b60008135905061369e81613678565b92915050565b600073ffffffffffffffffffffffffffffffffffffffff82169050919050565b60006136cf826136a4565b9050919050565b6136df816136c4565b81146136ea57600080fd5b50565b6000813590506136fc816136d6565b92915050565b60008060408385031215613719576137186135ae565b5b60006137278582860161368f565b9250506020613738858286016136ed565b9150509250929050565b600060208284031215613758576137576135ae565b5b60006137668482850161368f565b91505092915050565b6137788161366e565b82525050565b6000602082019050613793600083018461376f565b92915050565b6000819050919050565b6137ac81613799565b81146137b757600080fd5b50565b6000813590506137c9816137a3565b92915050565b6000602082840312156137e5576137e46135ae565b5b60006137f3848285016137ba565b91505092915050565b61380581613799565b82525050565b600060208201905061382060008301846137fc565b92915050565b6000806040838503121561383d5761383c6135ae565b5b600061384b858286016137ba565b925050602061385c858286016136ed565b9150509250929050565b61386f816136c4565b82525050565b600060208201905061388a6000830184613866565b92915050565b6000806000606084860312156138a9576138a86135ae565b5b60006138b78682870161368f565b93505060206138c88682870161368f565b92505060406138d98682870161368f565b9150509250925092565b600281106138f057600080fd5b50565b600081359050613902816138e3565b92915050565b60008060008060808587031215613922576139216135ae565b5b60006139308782880161368f565b94505060206139418782880161368f565b9350506040613952878288016138f3565b92505060606139638782880161368f565b91505092959194509250565b6002811061397c57600080fd5b50565b60008135905061398e8161396f565b92915050565b600080600080600060a086880312156139b0576139af6135ae565b5b60006139be8882890161368f565b95505060206139cf8882890161368f565b94505060406139e08882890161368f565b93505060606139f1888289016138f3565b9250506080613a028882890161397f565b9150509295509295909350565b6000606082019050613a24600083018661376f565b613a31602083018561376f565b613a3e604083018461376f565b949350505050565b60008060008060808587031215613a6057613a5f6135ae565b5b6000613a6e8782880161368f565b9450506020613a7f8782880161368f565b9350506040613a908782880161368f565b9250506060613aa18782880161397f565b91505092959194509250565b600080600060608486031215613ac657613ac56135ae565b5b6000613ad48682870161368f565b9350506020613ae58682870161368f565b9250506040613af68682870161397f565b9150509250925092565b600060a082019050613b15600083018861376f565b613b22602083018761376f565b613b2f604083018661376f565b613b3c606083018561376f565b613b49608083018461376f565b9695505050505050565b613b5c81613638565b8114613b6757600080fd5b50565b600081359050613b7981613b53565b92915050565b600060208284031215613b9557613b946135ae565b5b6000613ba384828501613b6a565b91505092915050565b60008060008060008060c08789031215613bc957613bc86135ae565b5b6000613bd789828a0161368f565b9650506020613be889828a0161368f565b9550506040613bf989828a0161368f565b9450506060613c0a89828a016138f3565b9350506080613c1b89828a0161397f565b92505060a0613c2c89828a0161368f565b9150509295509295509295565b60008060008060008060c08789031215613c5657613c556135ae565b5b6000613c6489828a0161368f565b9650506020613c7589828a0161368f565b9550506040613c8689828a0161368f565b9450506060613c9789828a0161368f565b9350506080613ca889828a016138f3565b92505060a0613cb989828a0161397f565b9150509295509295509295565b6000819050919050565b6000613ceb613ce6613ce1846136a4565b613cc6565b6136a4565b9050919050565b6000613cfd82613cd0565b9050919050565b6000613d0f82613cf2565b9050919050565b613d1f81613d04565b82525050565b6000602082019050613d3a6000830184613d16565b92915050565b600081519050613d4f81613678565b92915050565b600060208284031215613d6b57613d6a6135ae565b5b6000613d7984828501613d40565b91505092915050565b600081519050613d91816137a3565b92915050565b600060208284031215613dad57613dac6135ae565b5b6000613dbb84828501613d82565b91505092915050565b600082825260208201905092915050565b7f6d69736d61746368656420746f6b656e20616464726573730000000000000000600082015250565b6000613e0b601883613dc4565b9150613e1682613dd5565b602082019050919050565b60006020820190508181036000830152613e3a81613dfe565b9050919050565b7f416363657373436f6e74726f6c3a2063616e206f6e6c792072656e6f756e636560008201527f20726f6c657320666f722073656c660000000000000000000000000000000000602082015250565b6000613e9d602f83613dc4565b9150613ea882613e41565b604082019050919050565b60006020820190508181036000830152613ecc81613e90565b9050919050565b60008060408385031215613eea57613ee96135ae565b5b6000613ef885828601613d40565b9250506020613f0985828601613d40565b9150509250929050565b7f54726164696e672073746f707065642100000000000000000000000000000000600082015250565b6000613f49601083613dc4565b9150613f5482613f13565b602082019050919050565b60006020820190508181036000830152613f7881613f3c565b9050919050565b7f436f737420696e636f7272656374000000000000000000000000000000000000600082015250565b6000613fb5600e83613dc4565b9150613fc082613f7f565b602082019050919050565b60006020820190508181036000830152613fe481613fa8565b9050919050565b60006060820190506140006000830186613866565b61400d6020830185613866565b61401a604083018461376f565b949350505050565b60008151905061403181613b53565b92915050565b60006020828403121561404d5761404c6135ae565b5b600061405b84828501614022565b91505092915050565b7f766f6c207061796d656e74206572726f72000000000000000000000000000000600082015250565b600061409a601183613dc4565b91506140a582614064565b602082019050919050565b600060208201905081810360008301526140c98161408d565b9050919050565b60006040820190506140e56000830185613866565b6140f2602083018461376f565b9392505050565b7f4e487b7100000000000000000000000000000000000000000000000000000000600052601160045260246000fd5b60006141338261366e565b915061413e8361366e565b9250827fffffffffffffffffffffffffffffffffffffffffffffffffffffffffffffffff03821115614173576141726140f9565b5b828201905092915050565b7f7061796d656e74206572726f7200000000000000000000000000000000000000600082015250565b60006141b4600d83613dc4565b91506141bf8261417e565b602082019050919050565b600060208201905081810360008301526141e3816141a7565b9050919050565b7f4e487b7100000000000000000000000000000000000000000000000000000000600052602160045260246000fd5b6002811061422a576142296141ea565b5b50565b600081905061423b82614219565b919050565b600061424b8261422d565b9050919050565b61425b81614240565b82525050565b60028110614272576142716141ea565b5b50565b600081905061428382614261565b919050565b600061429382614275565b9050919050565b6142a381614288565b82525050565b6000610140820190506142bf600083018d61376f565b6142cc602083018c61376f565b6142d9604083018b61376f565b6142e6606083018a614252565b6142f3608083018961429a565b61430060a083018861376f565b61430d60c083018761376f565b61431a60e083018661376f565b61432861010083018561376f565b614336610120830184613866565b9b9a5050505050505050505050565b600060408201905061435a600083018561376f565b6143676020830184613866565b9392505050565b600080fd5b6000601f19601f8301169050919050565b7f4e487b7100000000000000000000000000000000000000000000000000000000600052604160045260246000fd5b6143bc82614373565b810181811067ffffffffffffffff821117156143db576143da614384565b5b80604052505050565b60006143ee6135a4565b90506143fa82826143b3565b919050565b60008151905061440e816138e3565b92915050565b6000815190506144238161396f565b92915050565b6004811061443657600080fd5b50565b60008151905061444881614429565b92915050565b60008151905061445d816136d6565b92915050565b6000610200828403121561447a5761447961436e565b5b6144856102006143e4565b90506000614495848285016143ff565b60008301525060206144a984828501614414565b60208301525060406144bd84828501614439565b60408301525060606144d18482850161444e565b60608301525060806144e584828501613d40565b60808301525060a06144f984828501613d40565b60a08301525060c061450d84828501613d40565b60c08301525060e061452184828501613d40565b60e08301525061010061453684828501613d40565b6101008301525061012061454c84828501613d40565b6101208301525061014061456284828501613d40565b6101408301525061016061457884828501613d40565b6101608301525061018061458e84828501613d40565b610180830152506101a06145a484828501613d40565b6101a0830152506101c06145ba84828501613d40565b6101c0830152506101e06145d084828501613d40565b6101e08301525092915050565b600061020082840312156145f4576145f36135ae565b5b600061460284828501614463565b91505092915050565b61461481614240565b82525050565b61462381614288565b82525050565b6004811061463a576146396141ea565b5b50565b600081905061464b82614629565b919050565b600061465b8261463d565b9050919050565b61466b81614650565b82525050565b61467a816136c4565b82525050565b6146898161366e565b82525050565b610200820160008201516146a6600085018261460b565b5060208201516146b9602085018261461a565b5060408201516146cc6040850182614662565b5060608201516146df6060850182614671565b5060808201516146f26080850182614680565b5060a082015161470560a0850182614680565b5060c082015161471860c0850182614680565b5060e082015161472b60e0850182614680565b50610100820151614740610100850182614680565b50610120820151614755610120850182614680565b5061014082015161476a610140850182614680565b5061016082015161477f610160850182614680565b50610180820151614794610180850182614680565b506101a08201516147a96101a0850182614680565b506101c08201516147be6101c0850182614680565b506101e08201516147d36101e0850182614680565b50505050565b6000610240820190506147ef600083018661468f565b6147fd61020083018561376f565b61480b610220830184613644565b949350505050565b60006040820190506148286000830185613644565b6148356020830184613644565b9392505050565b6148458161366e565b82525050565b6000604082019050614860600083018561483c565b61486d602083018461483c565b9392505050565b7f696e73756666696369656e74206361706974616c000000000000000000000000600082015250565b60006148aa601483613dc4565b91506148b582614874565b602082019050919050565b600060208201905081810360008301526148d98161489d565b9050919050565b6000819050919050565b60006148f5826148e0565b9150614900836148e0565b9250817f7fffffffffffffffffffffffffffffffffffffffffffffffffffffffffffffff0383136000831215161561493b5761493a6140f9565b5b817f8000000000000000000000000000000000000000000000000000000000000000038312600083121615614973576149726140f9565b5b828201905092915050565b7f496e636f727265637420766f6c207072656d69756d0000000000000000000000600082015250565b60006149b4601583613dc4565b91506149bf8261497e565b602082019050919050565b600060208201905081810360008301526149e3816149a7565b9050919050565b7f54656e6f72206973206e6f742073657400000000000000000000000000000000600082015250565b6000614a20601083613dc4565b9150614a2b826149ea565b602082019050919050565b60006020820190508181036000830152614a4f81614a13565b9050919050565b600060ff82169050919050565b614a6c81614a56565b8114614a7757600080fd5b50565b600081519050614a8981614a63565b92915050565b600060208284031215614aa557614aa46135ae565b5b6000614ab384828501614a7a565b91505092915050565b6000614ad7614ad2614acd84614a56565b613cc6565b61366e565b9050919050565b614ae781614abc565b82525050565b6000604082019050614b02600083018561483c565b614b0f6020830184614ade565b9392505050565b614b1f81614abc565b82525050565b6000602082019050614b3a6000830184614b16565b92915050565b7f547261646520616d6f756e742062656c6f77206d696e696d756d2e0000000000600082015250565b6000614b76601b83613dc4565b9150614b8182614b40565b602082019050919050565b60006020820190508181036000830152614ba581614b69565b9050919050565b7f496e636f727265637420636f737420706169642e000000000000000000000000600082015250565b6000614be2601483613dc4565b9150614bed82614bac565b602082019050919050565b60006020820190508181036000830152614c1181614bd5565b9050919050565b7f4661696c6564207061796d656e742e0000000000000000000000000000000000600082015250565b6000614c4e600f83613dc4565b9150614c5982614c18565b602082019050919050565b60006020820190508181036000830152614c7d81614c41565b9050919050565b6000606082019050614c99600083018661483c565b614ca6602083018561483c565b614cb3604083018461483c565b949350505050565b614cc481614240565b82525050565b600060e082019050614cdf600083018a61483c565b614cec602083018961483c565b614cf9604083018861483c565b614d066060830187614cbb565b614d13608083018661483c565b614d2060a083018561483c565b614d2d60c083018461483c565b98975050505050505050565b614d4281614288565b82525050565b600060c082019050614d5d600083018961483c565b614d6a602083018861483c565b614d77604083018761483c565b614d846060830186614cbb565b614d916080830185614d39565b614d9e60a083018461483c565b979650505050505050565b600081905092915050565b7f416363657373436f6e74726f6c3a206163636f756e7420000000000000000000600082015250565b6000614dea601783614da9565b9150614df582614db4565b601782019050919050565b600081519050919050565b60005b83811015614e29578082015181840152602081019050614e0e565b83811115614e38576000848401525b50505050565b6000614e4982614e00565b614e538185614da9565b9350614e63818560208601614e0b565b80840191505092915050565b7f206973206d697373696e6720726f6c6520000000000000000000000000000000600082015250565b6000614ea5601183614da9565b9150614eb082614e6f565b601182019050919050565b6000614ec682614ddd565b9150614ed28285614e3e565b9150614edd82614e98565b9150614ee98284614e3e565b91508190509392505050565b6000614f0082614e00565b614f0a8185613dc4565b9350614f1a818560208601614e0b565b614f2381614373565b840191505092915050565b60006020820190508181036000830152614f488184614ef5565b905092915050565b614f59816148e0565b8114614f6457600080fd5b50565b600081519050614f7681614f50565b92915050565b600060208284031215614f9257614f916135ae565b5b6000614fa084828501614f67565b91505092915050565b6000614fb4826148e0565b9150614fbf836148e0565b9250827f7fffffffffffffffffffffffffffffffffffffffffffffffffffffffffffffff0482116000841360008413161615614ffe57614ffd6140f9565b5b817f8000000000000000000000000000000000000000000000000000000000000000058312600084126000841316161561503b5761503a6140f9565b5b827f80000000000000000000000000000000000000000000000000000000000000000582126000841360008412161615615078576150776140f9565b5b827f7fffffffffffffffffffffffffffffffffffffffffffffffffffffffffffffff05821260008412600084121616156150b5576150b46140f9565b5b828202905092915050565b6150c9816148e0565b82525050565b60006080820190506150e4600083018761483c565b6150f160208301866150c0565b6150fe604083018561483c565b61510b606083018461483c565b95945050505050565b7f4e487b7100000000000000000000000000000000000000000000000000000000600052601260045260246000fd5b600061514e826148e0565b9150615159836148e0565b92508261516957615168615114565b5b600160000383147f8000000000000000000000000000000000000000000000000000000000000000831416156151a2576151a16140f9565b5b828205905092915050565b7f53616665436173743a2076616c756520646f65736e27742066697420696e206160008201527f6e20696e74323536000000000000000000000000000000000000000000000000602082015250565b6000615209602883613dc4565b9150615214826151ad565b604082019050919050565b60006020820190508181036000830152615238816151fc565b9050919050565b600061524a8261366e565b91506152558361366e565b9250817fffffffffffffffffffffffffffffffffffffffffffffffffffffffffffffffff048311821515161561528e5761528d6140f9565b5b828202905092915050565b7f4e487b7100000000000000000000000000000000000000000000000000000000600052603260045260246000fd5b60006152d38261366e565b915060008214156152e7576152e66140f9565b5b600182039050919050565b7f537472696e67733a20686578206c656e67746820696e73756666696369656e74600082015250565b6000615328602083613dc4565b9150615333826152f2565b602082019050919050565b600060208201905081810360008301526153578161531b565b905091905056fea264697066735822122096bb181953bb88fee57036134837dbe5c1f1212801fdf61b954f9700a851d9c664736f6c634300080b0033",
  "immutableReferences": {
    "2553": [
      {
        "length": 32,
        "start": 4022
      },
      {
        "length": 32,
        "start": 5657
      },
      {
        "length": 32,
        "start": 6714
      },
      {
        "length": 32,
        "start": 8959
      },
      {
        "length": 32,
        "start": 9558
      },
      {
        "length": 32,
        "start": 11995
      }
    ],
    "2556": [
      {
        "length": 32,
        "start": 1897
      },
      {
        "length": 32,
        "start": 3007
      },
      {
        "length": 32,
        "start": 3173
      },
      {
        "length": 32,
        "start": 4441
      },
      {
        "length": 32,
        "start": 4778
      },
      {
        "length": 32,
        "start": 4975
      },
      {
        "length": 32,
        "start": 5175
      },
      {
        "length": 32,
        "start": 5354
      },
      {
        "length": 32,
        "start": 5512
      },
      {
        "length": 32,
        "start": 6477
      },
      {
        "length": 32,
        "start": 6907
      },
      {
        "length": 32,
        "start": 7104
      },
      {
        "length": 32,
        "start": 7503
      },
      {
        "length": 32,
        "start": 8483
      },
      {
        "length": 32,
        "start": 8722
      },
      {
        "length": 32,
        "start": 9153
      },
      {
        "length": 32,
        "start": 9350
      },
      {
        "length": 32,
        "start": 12252
      }
    ],
    "2558": [
      {
        "length": 32,
        "start": 10769
      },
      {
        "length": 32,
        "start": 10927
      }
    ],
    "2563": [
      {
        "length": 32,
        "start": 3379
      },
      {
        "length": 32,
        "start": 3961
      },
      {
        "length": 32,
        "start": 4216
      },
      {
        "length": 32,
        "start": 6654
      },
      {
        "length": 32,
        "start": 8898
      },
      {
        "length": 32,
        "start": 9965
      }
    ]
  },
  "source": "// SPDX-License-Identifier: MIT\npragma solidity ^0.8.0;\n\nimport \"@openzeppelin/contracts/token/ERC20/ERC20.sol\";\nimport \"@openzeppelin/contracts/access/AccessControl.sol\";\nimport \"@openzeppelin/contracts/utils/structs/EnumerableSet.sol\";\nimport \"./VolatilityToken.sol\";\nimport \"./MoretMarketMaker.sol\";\nimport \"./interfaces/EOption.sol\";\n\ncontract Exchange is AccessControl, EOption{\n  using FullMath for uint256;\n  using MarketLibrary for uint256;\n\n  bytes32 public constant ADMIN_ROLE = keccak256(\"ADMIN_ROLE\");\n  mapping(uint256=>VolatilityToken) public volTokenAddressList;\n\n  MoretMarketMaker internal immutable marketMaker;\n  OptionVault internal immutable optionVault;\n  uint256 internal immutable fundingDecimals;\n  uint256 internal immutable underlyingDecimals;\n  ERC20 internal immutable fundingToken;\n\n  uint256 internal constant SECONDS_1Y = 31536000; // 365 * 24 * 60 * 60\n\n  uint256 public volCapacityFactor = 0.5e18;\n  uint256 public minTradeAmount = 1e18;\n  uint256 public loanInterest = 0; // Annualised interest rate in 1e18\n  uint256 public hedgingSlippage = 3e15; // 0.3% for hedging slippage (similar to DEX tx fees)\n  bool public allowTrading = true;\n\n  constructor(MoretMarketMaker _marketMaker, OptionVault _vault){\n    _setupRole(DEFAULT_ADMIN_ROLE, msg.sender);\n    _setupRole(ADMIN_ROLE, msg.sender);\n    optionVault = _vault;\n    marketMaker = _marketMaker;\n    fundingToken = ERC20(_vault.funding());\n    fundingDecimals = ERC20(_vault.funding()).decimals();\n    underlyingDecimals = ERC20(_vault.underlying()).decimals();}\n\n  // Returns premium, costs (if sell option, cost includes collateral) and implied volatility\n  function calcCost(uint256 _tenor, uint256 _strike, uint256 _amount, OptionLibrary.PayoffType _poType, OptionLibrary.OptionSide _side) public view returns(uint256 , uint256 , uint256 ){\n    (uint256 _price,) = optionVault.queryPrice();\n    return calcOptionCost(_tenor, _price, _strike, _amount, _poType, _side);}\n\n  function calcOptionCost(uint256 _tenor, uint256 _price, uint256 _strike, uint256 _amount, OptionLibrary.PayoffType _poType, OptionLibrary.OptionSide _side) public view returns(uint256 _premium, uint256 _cost, uint256 _vol){\n    _vol = queryOptionVolatility(_tenor, _strike, _amount, _side);\n    uint256 _interest = loanInterest.muldiv(_tenor, SECONDS_1Y);\n    _premium = OptionLibrary.calcPremium(_price, _vol, _strike, _poType, _amount, _interest, hedgingSlippage);\n    _cost = OptionLibrary.calcCost(_price, _strike, _amount, _poType, _side, _premium);\n    _premium = _premium.toDecimals(fundingDecimals);\n    _cost = _cost.toDecimals(fundingDecimals);}\n\n  function queryOptionVolatility(uint256 _tenor, uint256 _strike, uint256 _amount, OptionLibrary.OptionSide _side) public view returns(uint256 _vol){  \n    _vol = optionVault.queryVol(_tenor); // running vol\n    (uint256 _price,) = optionVault.queryPrice();\n    require(_amount.ethmul(_price)<=marketMaker.calcCapital(true,false),'insufficient capital');\n    int256 _riskPremium = calcRiskPremium(_price, _vol, _strike, _amount, _side);\n    require((SafeCast.toInt256(_vol)+_riskPremium) > 0,\"Incorrect vol premium\");\n    _vol = uint256(SafeCast.toInt256(_vol)+_riskPremium);}\n\n  function calcRiskPremium(uint256 _price, uint256 _vol, uint256 _strike, uint256 _amount, OptionLibrary.OptionSide _side) internal view returns(int256) {\n    uint256 _maxGamma = OptionLibrary.calcGamma(_price, _price, _vol).muldiv(marketMaker.calcCapital(false, false), _price);\n    int256 _currentGamma = optionVault.calculateAggregateGamma(); // include sells.\n    int256 _newGamma = _currentGamma + SafeCast.toInt256(OptionLibrary.calcGamma(_price, _strike, _vol).ethmul(_amount)) * (_side==OptionLibrary.OptionSide.Sell? -1: int(1));\n    return (OptionLibrary.calcRiskPremiumAMM(_maxGamma, _currentGamma,  _vol, volCapacityFactor) + OptionLibrary.calcRiskPremiumAMM(_maxGamma, _newGamma, _vol, volCapacityFactor)) / 2;}\n\n  function purchaseOption(uint256 _tenor, uint256 _strike, uint256 _amount, OptionLibrary.PayoffType _poType, OptionLibrary.OptionSide _side, uint256 _payInCost) external {\n    require(allowTrading,\"Trading stopped!\");\n    require(minTradeAmount<= _amount, \"Trade amount below minimum.\");\n    (uint256 _price, ) = optionVault.queryPrice();\n    (uint256 _premium, uint256 _cost, uint256 _vol) = calcOptionCost(_tenor, _price, _strike, _amount, _poType, _side );      \n    require(_payInCost >= _cost, \"Incorrect cost paid.\");\n    uint256 _id = optionVault.addOption(_tenor, _strike, _amount, _poType, _side, _premium, _cost, _price, _vol, msg.sender);\n    require(fundingToken.transferFrom(msg.sender, address(marketMaker), _payInCost), 'Failed payment.');  \n    optionVault.stampActiveOption(_id, msg.sender);\n    emit NewOption(msg.sender, optionVault.getOption(_id), _payInCost, false);}\n\n  function getOptionPayoffValue(uint256 _id) external view returns(uint256 _payback){\n    (,_payback) = optionVault.getContractPayoff(_id);}\n\n  function calcVolAmount(uint256 _tenor, uint256 _amount, OptionLibrary.OptionSide _side) public view returns(uint256 _volAmount, uint256 _vol, uint256 _premium, uint256 _cost, uint256 _price){\n    require(address(volTokenAddressList[_tenor])!=address(0), \"Tenor is not set\");\n    (_price, ) = optionVault.queryPrice();\n    (_premium, _cost, _vol) = calcOptionCost(_tenor, _price, _price, _amount, OptionLibrary.PayoffType.Call, _side); \n    _volAmount = _premium.ethdiv(_vol).toDecimals(volTokenAddressList[_tenor].decimals());}\n\n  function buyVol(uint256 _tenor, uint256 _amount, uint256 _payInCost) external {\n    require(allowTrading,\"Trading stopped!\");\n    (uint256 _volAmount, , uint256 _premium, , ) = calcVolAmount(_tenor, _amount, OptionLibrary.OptionSide.Buy);\n    require(_payInCost >= _premium, \"Cost incorrect\");\n    require(fundingToken.transferFrom(msg.sender, address(this), _premium), \"vol payment error\");\n    volTokenAddressList[_tenor].mint(msg.sender, _volAmount);}\n  \n  function sellVol(uint256 _tenor, uint256 _amount, uint256 _payInVol) external {\n    require(allowTrading,\"Trading stopped!\");\n    (uint256 _volAmount,  ,  uint256 _premium,  ,  ) = calcVolAmount(_tenor, _amount, OptionLibrary.OptionSide.Sell);\n    require(_payInVol >= _volAmount, \"Cost incorrect\");\n\n    volTokenAddressList[_tenor].burn(msg.sender, _volAmount);\n    require(fundingToken.transfer(msg.sender, _premium), \"payment error\");}  \n\n  function buyOptionInVol(uint256 _tenor, uint256 _amount, OptionLibrary.PayoffType _poType, uint256 _payInVol) external {\n    require(allowTrading,\"Trading stopped!\");\n    (uint256 _volAmount, uint256 _vol, uint256 _premium, uint256 _cost, uint256 _price) = calcVolAmount(_tenor, _amount, OptionLibrary.OptionSide.Buy);\n    require(_payInVol >= _volAmount, \"Cost incorrect\");\n\n    volTokenAddressList[_tenor].burn(msg.sender, _volAmount);\n    uint256 _id = optionVault.addOption(_tenor, _price, _amount, _poType, OptionLibrary.OptionSide.Buy, _premium, _cost, _price, _vol, msg.sender);\n    require(fundingToken.transfer(address(marketMaker), _premium), 'payment error');  \n    optionVault.stampActiveOption(_id, msg.sender);\n    emit NewOption(msg.sender, optionVault.getOption(_id), _volAmount, true);}\n\n  function sellOptionInVol(uint256 _tenor, uint256 _amount, OptionLibrary.PayoffType _poType, uint256 _payInCost) external {\n    require(allowTrading,\"Trading stopped!\");\n    (uint256 _volAmount, uint256 _vol, uint256 _premium, uint256 _cost, uint256 _price) = calcVolAmount(_tenor, _amount, OptionLibrary.OptionSide.Sell);\n    uint256 _totalCost = _premium + _cost;\n    require(_payInCost >= _totalCost, \"Cost incorrect\");\n\n    require(fundingToken.transferFrom(msg.sender, address(marketMaker), _cost), 'payment error'); \n    require(fundingToken.transferFrom(msg.sender, address(this), _premium), 'payment error');  \n    uint256 _id = optionVault.addOption(_tenor, _price, _amount, _poType, OptionLibrary.OptionSide.Sell, _premium, _cost, _price, _vol, msg.sender);\n    volTokenAddressList[_tenor].mint(msg.sender, _volAmount);\n    optionVault.stampActiveOption(_id, msg.sender);\n    emit NewOption(msg.sender, optionVault.getOption(_id), _volAmount, true);}\n\n  function addVolToken(uint256 _tenor, address _tokenAddress) external onlyRole(ADMIN_ROLE){ \n    require(VolatilityToken(_tokenAddress).tenor()==_tenor && VolatilityToken(_tokenAddress).tokenHash()==optionVault.tokenHash(), 'mismatched token address');\n    volTokenAddressList[_tenor] = VolatilityToken(_tokenAddress);\n    emit VolTokenAddition(_tenor, _tokenAddress); }\n\n  function removeVolToken(uint256 _tenor) external onlyRole(ADMIN_ROLE){ \n    volTokenAddressList[_tenor] = VolatilityToken(address(0));\n    emit VolTokenRemoved(_tenor);}\n\n  function vaultAddress() external view returns(address){return address(optionVault);}\n  function marketMakerAddress() external view returns(address) {return address(marketMaker);}\n\n  function resetLoanRate(uint256 _loanInterest) external onlyRole(ADMIN_ROLE){ \n    loanInterest = _loanInterest;\n    emit ResetParameter(100, _loanInterest);}\n\n  function resetVolCapacityFactor(uint256 _newFactor) external onlyRole(ADMIN_ROLE){ \n    volCapacityFactor =_newFactor;\n    emit ResetParameter(101, _newFactor);}\n\n  function resetMinAmount(uint256 _newAmount) external onlyRole(ADMIN_ROLE){\n    minTradeAmount = _newAmount;\n    emit ResetParameter(102, _newAmount);\n  }\n\n  function resetTrading(bool _allowTrading) external onlyRole(DEFAULT_ADMIN_ROLE) {\n    allowTrading=_allowTrading;\n    emit ResetParameter(102, _allowTrading ? 1 : 0);}\n\n}\n",
  "sourcePath": "/Users/mac/Documents/GitHub/moret/contracts/Exchange.sol",
  "compiler": {
    "name": "solc",
    "version": "0.8.11+commit.d7f03943.Emscripten.clang"
  },
  "schemaVersion": "3.4.3",
  "updatedAt": "2022-01-03T11:21:18.351Z",
  "devdoc": {
    "kind": "dev",
    "methods": {
      "getRoleAdmin(bytes32)": {
        "details": "Returns the admin role that controls `role`. See {grantRole} and {revokeRole}. To change a role's admin, use {_setRoleAdmin}."
      },
      "grantRole(bytes32,address)": {
        "details": "Grants `role` to `account`. If `account` had not been already granted `role`, emits a {RoleGranted} event. Requirements: - the caller must have ``role``'s admin role."
      },
      "hasRole(bytes32,address)": {
        "details": "Returns `true` if `account` has been granted `role`."
      },
      "renounceRole(bytes32,address)": {
        "details": "Revokes `role` from the calling account. Roles are often managed via {grantRole} and {revokeRole}: this function's purpose is to provide a mechanism for accounts to lose their privileges if they are compromised (such as when a trusted device is misplaced). If the calling account had been revoked `role`, emits a {RoleRevoked} event. Requirements: - the caller must be `account`."
      },
      "revokeRole(bytes32,address)": {
        "details": "Revokes `role` from `account`. If `account` had been granted `role`, emits a {RoleRevoked} event. Requirements: - the caller must have ``role``'s admin role."
      },
      "supportsInterface(bytes4)": {
        "details": "See {IERC165-supportsInterface}."
      }
    },
    "version": 1
  },
  "userdoc": {
    "kind": "user",
    "methods": {},
    "version": 1
  }
}