{
  "contractName": "ExchangeNative",
  "abi": [
    {
      "inputs": [
        {
          "internalType": "address payable",
          "name": "_marketMakerAddress",
          "type": "address"
        },
        {
          "internalType": "address",
          "name": "_optionAddress",
          "type": "address"
        },
        {
          "internalType": "address payable",
          "name": "_volTokenAddress",
          "type": "address"
        }
      ],
      "stateMutability": "nonpayable",
      "type": "constructor"
    },
    {
      "anonymous": false,
      "inputs": [
        {
          "indexed": true,
          "internalType": "bytes32",
          "name": "role",
          "type": "bytes32"
        },
        {
          "indexed": true,
          "internalType": "bytes32",
          "name": "previousAdminRole",
          "type": "bytes32"
        },
        {
          "indexed": true,
          "internalType": "bytes32",
          "name": "newAdminRole",
          "type": "bytes32"
        }
      ],
      "name": "RoleAdminChanged",
      "type": "event"
    },
    {
      "anonymous": false,
      "inputs": [
        {
          "indexed": true,
          "internalType": "bytes32",
          "name": "role",
          "type": "bytes32"
        },
        {
          "indexed": true,
          "internalType": "address",
          "name": "account",
          "type": "address"
        },
        {
          "indexed": true,
          "internalType": "address",
          "name": "sender",
          "type": "address"
        }
      ],
      "name": "RoleGranted",
      "type": "event"
    },
    {
      "anonymous": false,
      "inputs": [
        {
          "indexed": true,
          "internalType": "bytes32",
          "name": "role",
          "type": "bytes32"
        },
        {
          "indexed": true,
          "internalType": "address",
          "name": "account",
          "type": "address"
        },
        {
          "indexed": true,
          "internalType": "address",
          "name": "sender",
          "type": "address"
        }
      ],
      "name": "RoleRevoked",
      "type": "event"
    },
    {
      "anonymous": false,
      "inputs": [
        {
          "indexed": false,
          "internalType": "address",
          "name": "_recipient",
          "type": "address"
        },
        {
          "indexed": false,
          "internalType": "uint256",
          "name": "_mintMPTokenAmount",
          "type": "uint256"
        },
        {
          "indexed": false,
          "internalType": "uint256",
          "name": "_addedValue",
          "type": "uint256"
        }
      ],
      "name": "capitalAdded",
      "type": "event"
    },
    {
      "anonymous": false,
      "inputs": [
        {
          "indexed": false,
          "internalType": "address",
          "name": "_recipient",
          "type": "address"
        },
        {
          "indexed": false,
          "internalType": "uint256",
          "name": "_burnMPTokenAmount",
          "type": "uint256"
        },
        {
          "indexed": false,
          "internalType": "uint256",
          "name": "_withdrawValue",
          "type": "uint256"
        }
      ],
      "name": "capitalWithdrawn",
      "type": "event"
    },
    {
      "anonymous": false,
      "inputs": [
        {
          "indexed": true,
          "internalType": "address",
          "name": "_purchaser",
          "type": "address"
        },
        {
          "components": [
            {
              "internalType": "enum OptionLibrary.PayoffType",
              "name": "poType",
              "type": "uint8"
            },
            {
              "internalType": "enum OptionLibrary.OptionSide",
              "name": "side",
              "type": "uint8"
            },
            {
              "internalType": "enum OptionLibrary.OptionStatus",
              "name": "status",
              "type": "uint8"
            },
            {
              "internalType": "address",
              "name": "holder",
              "type": "address"
            },
            {
              "internalType": "uint256",
              "name": "id",
              "type": "uint256"
            },
            {
              "internalType": "uint256",
              "name": "createTime",
              "type": "uint256"
            },
            {
              "internalType": "uint256",
              "name": "effectiveTime",
              "type": "uint256"
            },
            {
              "internalType": "uint256",
              "name": "tenor",
              "type": "uint256"
            },
            {
              "internalType": "uint256",
              "name": "exerciseTime",
              "type": "uint256"
            },
            {
              "internalType": "uint256",
              "name": "amount",
              "type": "uint256"
            },
            {
              "internalType": "uint256",
              "name": "spot",
              "type": "uint256"
            },
            {
              "internalType": "uint256",
              "name": "strike",
              "type": "uint256"
            },
            {
              "internalType": "uint256",
              "name": "volatility",
              "type": "uint256"
            },
            {
              "internalType": "uint256",
              "name": "premium",
              "type": "uint256"
            },
            {
              "internalType": "uint256",
              "name": "fee",
              "type": "uint256"
            }
          ],
          "indexed": false,
          "internalType": "struct OptionLibrary.Option",
          "name": "_option",
          "type": "tuple"
        },
        {
          "indexed": false,
          "internalType": "uint256",
          "name": "_cost",
          "type": "uint256"
        },
        {
          "indexed": false,
          "internalType": "bool",
          "name": "_inVol",
          "type": "bool"
        }
      ],
      "name": "newOptionBought",
      "type": "event"
    },
    {
      "anonymous": false,
      "inputs": [
        {
          "indexed": false,
          "internalType": "address",
          "name": "_purchaser",
          "type": "address"
        },
        {
          "indexed": false,
          "internalType": "uint256",
          "name": "_time",
          "type": "uint256"
        },
        {
          "indexed": false,
          "internalType": "uint256",
          "name": "_tenor",
          "type": "uint256"
        },
        {
          "indexed": false,
          "internalType": "uint256",
          "name": "_amount",
          "type": "uint256"
        }
      ],
      "name": "newVolatilityTokenBought",
      "type": "event"
    },
    {
      "anonymous": false,
      "inputs": [
        {
          "indexed": true,
          "internalType": "address",
          "name": "_purchaser",
          "type": "address"
        },
        {
          "components": [
            {
              "internalType": "enum OptionLibrary.PayoffType",
              "name": "poType",
              "type": "uint8"
            },
            {
              "internalType": "enum OptionLibrary.OptionSide",
              "name": "side",
              "type": "uint8"
            },
            {
              "internalType": "enum OptionLibrary.OptionStatus",
              "name": "status",
              "type": "uint8"
            },
            {
              "internalType": "address",
              "name": "holder",
              "type": "address"
            },
            {
              "internalType": "uint256",
              "name": "id",
              "type": "uint256"
            },
            {
              "internalType": "uint256",
              "name": "createTime",
              "type": "uint256"
            },
            {
              "internalType": "uint256",
              "name": "effectiveTime",
              "type": "uint256"
            },
            {
              "internalType": "uint256",
              "name": "tenor",
              "type": "uint256"
            },
            {
              "internalType": "uint256",
              "name": "exerciseTime",
              "type": "uint256"
            },
            {
              "internalType": "uint256",
              "name": "amount",
              "type": "uint256"
            },
            {
              "internalType": "uint256",
              "name": "spot",
              "type": "uint256"
            },
            {
              "internalType": "uint256",
              "name": "strike",
              "type": "uint256"
            },
            {
              "internalType": "uint256",
              "name": "volatility",
              "type": "uint256"
            },
            {
              "internalType": "uint256",
              "name": "premium",
              "type": "uint256"
            },
            {
              "internalType": "uint256",
              "name": "fee",
              "type": "uint256"
            }
          ],
          "indexed": false,
          "internalType": "struct OptionLibrary.Option",
          "name": "_option",
          "type": "tuple"
        },
        {
          "indexed": false,
          "internalType": "uint256",
          "name": "_payoff",
          "type": "uint256"
        }
      ],
      "name": "optionExercised",
      "type": "event"
    },
    {
      "inputs": [],
      "name": "ADMIN_ROLE",
      "outputs": [
        {
          "internalType": "bytes32",
          "name": "",
          "type": "bytes32"
        }
      ],
      "stateMutability": "view",
      "type": "function"
    },
    {
      "inputs": [],
      "name": "DEFAULT_ADMIN_ROLE",
      "outputs": [
        {
          "internalType": "bytes32",
          "name": "",
          "type": "bytes32"
        }
      ],
      "stateMutability": "view",
      "type": "function"
    },
    {
      "inputs": [],
      "name": "contractAddress",
      "outputs": [
        {
          "internalType": "address payable",
          "name": "",
          "type": "address"
        }
      ],
      "stateMutability": "view",
      "type": "function"
    },
    {
      "inputs": [
        {
          "internalType": "bytes32",
          "name": "role",
          "type": "bytes32"
        }
      ],
      "name": "getRoleAdmin",
      "outputs": [
        {
          "internalType": "bytes32",
          "name": "",
          "type": "bytes32"
        }
      ],
      "stateMutability": "view",
      "type": "function"
    },
    {
      "inputs": [
        {
          "internalType": "bytes32",
          "name": "role",
          "type": "bytes32"
        },
        {
          "internalType": "address",
          "name": "account",
          "type": "address"
        }
      ],
      "name": "grantRole",
      "outputs": [],
      "stateMutability": "nonpayable",
      "type": "function"
    },
    {
      "inputs": [
        {
          "internalType": "bytes32",
          "name": "role",
          "type": "bytes32"
        },
        {
          "internalType": "address",
          "name": "account",
          "type": "address"
        }
      ],
      "name": "hasRole",
      "outputs": [
        {
          "internalType": "bool",
          "name": "",
          "type": "bool"
        }
      ],
      "stateMutability": "view",
      "type": "function"
    },
    {
      "inputs": [],
      "name": "maxUtilisation",
      "outputs": [
        {
          "internalType": "uint256",
          "name": "",
          "type": "uint256"
        }
      ],
      "stateMutability": "view",
      "type": "function"
    },
    {
      "inputs": [
        {
          "internalType": "bytes32",
          "name": "role",
          "type": "bytes32"
        },
        {
          "internalType": "address",
          "name": "account",
          "type": "address"
        }
      ],
      "name": "renounceRole",
      "outputs": [],
      "stateMutability": "nonpayable",
      "type": "function"
    },
    {
      "inputs": [
        {
          "internalType": "bytes32",
          "name": "role",
          "type": "bytes32"
        },
        {
          "internalType": "address",
          "name": "account",
          "type": "address"
        }
      ],
      "name": "revokeRole",
      "outputs": [],
      "stateMutability": "nonpayable",
      "type": "function"
    },
    {
      "inputs": [],
      "name": "settlementFee",
      "outputs": [
        {
          "internalType": "uint256",
          "name": "numerator",
          "type": "uint256"
        },
        {
          "internalType": "uint256",
          "name": "denominator",
          "type": "uint256"
        }
      ],
      "stateMutability": "view",
      "type": "function"
    },
    {
      "inputs": [
        {
          "internalType": "bytes4",
          "name": "interfaceId",
          "type": "bytes4"
        }
      ],
      "name": "supportsInterface",
      "outputs": [
        {
          "internalType": "bool",
          "name": "",
          "type": "bool"
        }
      ],
      "stateMutability": "view",
      "type": "function"
    },
    {
      "inputs": [
        {
          "internalType": "uint256",
          "name": "",
          "type": "uint256"
        }
      ],
      "name": "volTokensList",
      "outputs": [
        {
          "internalType": "contract VolatilityToken",
          "name": "",
          "type": "address"
        }
      ],
      "stateMutability": "view",
      "type": "function"
    },
    {
      "inputs": [],
      "name": "volTransactionFees",
      "outputs": [
        {
          "internalType": "uint256",
          "name": "numerator",
          "type": "uint256"
        },
        {
          "internalType": "uint256",
          "name": "denominator",
          "type": "uint256"
        }
      ],
      "stateMutability": "view",
      "type": "function"
    },
    {
      "stateMutability": "payable",
      "type": "receive"
    },
    {
      "inputs": [
        {
          "internalType": "uint256",
          "name": "_tenor",
          "type": "uint256"
        },
        {
          "internalType": "uint256",
          "name": "_strike",
          "type": "uint256"
        },
        {
          "internalType": "uint256",
          "name": "_amount",
          "type": "uint256"
        },
        {
          "internalType": "enum OptionLibrary.PayoffType",
          "name": "_poType",
          "type": "uint8"
        },
        {
          "internalType": "enum OptionLibrary.OptionSide",
          "name": "_side",
          "type": "uint8"
        }
      ],
      "name": "queryOptionCost",
      "outputs": [
        {
          "internalType": "uint256",
          "name": "",
          "type": "uint256"
        }
      ],
      "stateMutability": "view",
      "type": "function"
    },
    {
      "inputs": [
        {
          "internalType": "uint256",
          "name": "_tenor",
          "type": "uint256"
        },
        {
          "internalType": "uint256",
          "name": "_strike",
          "type": "uint256"
        },
        {
          "internalType": "enum OptionLibrary.PayoffType",
          "name": "_poType",
          "type": "uint8"
        },
        {
          "internalType": "uint256",
          "name": "_amount",
          "type": "uint256"
        }
      ],
      "name": "purchaseOption",
      "outputs": [],
      "stateMutability": "payable",
      "type": "function"
    },
    {
      "inputs": [
        {
          "internalType": "uint256",
          "name": "_tenor",
          "type": "uint256"
        },
        {
          "internalType": "uint256",
          "name": "_strike",
          "type": "uint256"
        },
        {
          "internalType": "enum OptionLibrary.PayoffType",
          "name": "_poType",
          "type": "uint8"
        },
        {
          "internalType": "uint256",
          "name": "_amount",
          "type": "uint256"
        },
        {
          "internalType": "uint256",
          "name": "_payInCost",
          "type": "uint256"
        }
      ],
      "name": "purchaseOptionInVol",
      "outputs": [],
      "stateMutability": "nonpayable",
      "type": "function"
    },
    {
      "inputs": [
        {
          "internalType": "uint256",
          "name": "_id",
          "type": "uint256"
        }
      ],
      "name": "getOptionPayoffValue",
      "outputs": [
        {
          "internalType": "uint256",
          "name": "",
          "type": "uint256"
        }
      ],
      "stateMutability": "view",
      "type": "function"
    },
    {
      "inputs": [
        {
          "internalType": "uint256",
          "name": "_id",
          "type": "uint256"
        }
      ],
      "name": "exerciseOption",
      "outputs": [],
      "stateMutability": "nonpayable",
      "type": "function"
    },
    {
      "inputs": [
        {
          "internalType": "address payable",
          "name": "_tokenAddress",
          "type": "address"
        }
      ],
      "name": "addVolToken",
      "outputs": [],
      "stateMutability": "nonpayable",
      "type": "function"
    },
    {
      "inputs": [
        {
          "internalType": "uint256",
          "name": "_tenor",
          "type": "uint256"
        },
        {
          "internalType": "uint256",
          "name": "_volAmount",
          "type": "uint256"
        }
      ],
      "name": "quoteVolatilityCost",
      "outputs": [
        {
          "internalType": "uint256",
          "name": "",
          "type": "uint256"
        },
        {
          "internalType": "uint256",
          "name": "",
          "type": "uint256"
        }
      ],
      "stateMutability": "view",
      "type": "function"
    },
    {
      "inputs": [
        {
          "internalType": "uint256",
          "name": "_tenor",
          "type": "uint256"
        },
        {
          "internalType": "uint256",
          "name": "_volAmount",
          "type": "uint256"
        }
      ],
      "name": "purchaseVolatilityToken",
      "outputs": [],
      "stateMutability": "payable",
      "type": "function"
    },
    {
      "inputs": [],
      "name": "sweepBalance",
      "outputs": [],
      "stateMutability": "nonpayable",
      "type": "function"
    },
    {
      "inputs": [
        {
          "internalType": "uint256",
          "name": "_fee",
          "type": "uint256"
        },
        {
          "internalType": "uint256",
          "name": "_denominator",
          "type": "uint256"
        }
      ],
      "name": "resetSettlementFees",
      "outputs": [],
      "stateMutability": "nonpayable",
      "type": "function"
    },
    {
      "inputs": [
        {
          "internalType": "uint256",
          "name": "_fee",
          "type": "uint256"
        },
        {
          "internalType": "uint256",
          "name": "_denominator",
          "type": "uint256"
        }
      ],
      "name": "resetVolTransactionFees",
      "outputs": [],
      "stateMutability": "nonpayable",
      "type": "function"
    },
    {
      "inputs": [
        {
          "internalType": "uint256",
          "name": "_maxUtil",
          "type": "uint256"
        }
      ],
      "name": "resetMaxUtilisation",
      "outputs": [],
      "stateMutability": "nonpayable",
      "type": "function"
    },
    {
      "inputs": [],
      "name": "priceDecimals",
      "outputs": [
        {
          "internalType": "uint256",
          "name": "",
          "type": "uint256"
        }
      ],
      "stateMutability": "view",
      "type": "function"
    },
    {
      "inputs": [
        {
          "internalType": "uint256",
          "name": "_tenor",
          "type": "uint256"
        }
      ],
      "name": "queryVol",
      "outputs": [
        {
          "internalType": "uint256",
          "name": "",
          "type": "uint256"
        },
        {
          "internalType": "uint256",
          "name": "",
          "type": "uint256"
        }
      ],
      "stateMutability": "view",
      "type": "function"
    }
  ],
  "bytecode": "0x608060405260405180604001604052806113888152602001620f424081525060016000820151816000015560208201518160010155505060405180604001604052806113888152602001620f4240815250600360008201518160000155602082015181600101555050670de0b6b3a76400006008553480156200008157600080fd5b5060405162004b0c38038062004b0c8339818101604052810190620000a7919062000451565b620000bc6000801b336200029360201b60201c565b620000ee7fa49807205ce4d355092ef5a8a18f56e8913cf4a201fbe287825b095693c21775336200029360201b60201c565b81600760006101000a81548173ffffffffffffffffffffffffffffffffffffffff021916908373ffffffffffffffffffffffffffffffffffffffff16021790555082600660006101000a81548173ffffffffffffffffffffffffffffffffffffffff021916908373ffffffffffffffffffffffffffffffffffffffff160217905550600081905080600960008373ffffffffffffffffffffffffffffffffffffffff1663a15612d16040518163ffffffff1660e01b815260040160206040518083038186803b158015620001c157600080fd5b505afa158015620001d6573d6000803e3d6000fd5b505050506040513d601f19601f82011682018060405250810190620001fc9190620004ad565b815260200190815260200160002060006101000a81548173ffffffffffffffffffffffffffffffffffffffff021916908373ffffffffffffffffffffffffffffffffffffffff16021790555030600560006101000a81548173ffffffffffffffffffffffffffffffffffffffff021916908373ffffffffffffffffffffffffffffffffffffffff1602179055505050505062000584565b620002a58282620002a960201b60201c565b5050565b620002bb82826200039a60201b60201c565b6200039657600160008084815260200190815260200160002060000160008373ffffffffffffffffffffffffffffffffffffffff1673ffffffffffffffffffffffffffffffffffffffff16815260200190815260200160002060006101000a81548160ff0219169083151502179055506200033b6200040460201b60201c565b73ffffffffffffffffffffffffffffffffffffffff168173ffffffffffffffffffffffffffffffffffffffff16837f2f8788117e7eff1d82e926ec794901d17c78024a50270940304540a733656f0d60405160405180910390a45b5050565b600080600084815260200190815260200160002060000160008373ffffffffffffffffffffffffffffffffffffffff1673ffffffffffffffffffffffffffffffffffffffff16815260200190815260200160002060009054906101000a900460ff16905092915050565b600033905090565b6000815190506200041d8162000536565b92915050565b600081519050620004348162000550565b92915050565b6000815190506200044b816200056a565b92915050565b6000806000606084860312156200046d576200046c62000531565b5b60006200047d8682870162000423565b935050602062000490868287016200040c565b9250506040620004a38682870162000423565b9150509250925092565b600060208284031215620004c657620004c562000531565b5b6000620004d6848285016200043a565b91505092915050565b6000620004ec8262000507565b9050919050565b6000620005008262000507565b9050919050565b600073ffffffffffffffffffffffffffffffffffffffff82169050919050565b6000819050919050565b600080fd5b6200054181620004df565b81146200054d57600080fd5b50565b6200055b81620004f3565b81146200056757600080fd5b50565b620005758162000527565b81146200058157600080fd5b50565b61457880620005946000396000f3fe6080604052600436106101a05760003560e01c80637d1d7fb8116100ec578063b7ab81371161008a578063d547741f11610064578063d547741f146105dd578063dc89231714610606578063f52f252614610631578063f6b4dfb41461065a576101a7565b8063b7ab81371461055f578063c3513f6d14610588578063cfc2dc201461059f576101a7565b806393ecc4cb116100c657806393ecc4cb1461049d578063a217fddf146104db578063a24015fe14610506578063ada9ecb414610543576101a7565b80637d1d7fb81461040b57806391d14854146104375780639320d4ce14610474576101a7565b80632f2ff15d11610159578063598ddc6011610133578063598ddc601461034e5780635a4a3a921461037757806375b238fc146103a357806376df2d08146103ce576101a7565b80632f2ff15d146102bf57806336568abe146102e857806340d6eaab14610311576101a7565b806301ffc9a7146101ac57806305300b28146101e95780630fd00a0d14610214578063127b3a6a14610230578063233dde9514610259578063248a9ca314610282576101a7565b366101a757005b600080fd5b3480156101b857600080fd5b506101d360048036038101906101ce91906133cb565b610685565b6040516101e09190613b5c565b60405180910390f35b3480156101f557600080fd5b506101fe6106ff565b60405161020b9190613cf4565b60405180910390f35b61022e60048036038101906102299190613500565b6107a6565b005b34801561023c57600080fd5b5061025760048036038101906102529190613567565b610ec9565b005b34801561026557600080fd5b50610280600480360381019061027b9190613426565b6118e7565b005b34801561028e57600080fd5b506102a960048036038101906102a4919061335e565b611924565b6040516102b69190613b77565b60405180910390f35b3480156102cb57600080fd5b506102e660048036038101906102e1919061338b565b611943565b005b3480156102f457600080fd5b5061030f600480360381019061030a919061338b565b61196c565b005b34801561031d57600080fd5b5061033860048036038101906103339190613426565b6119ef565b6040516103459190613cf4565b60405180910390f35b34801561035a57600080fd5b5061037560048036038101906103709190613480565b611aa3565b005b34801561038357600080fd5b5061038c611b08565b60405161039a929190613dc1565b60405180910390f35b3480156103af57600080fd5b506103b8611b1a565b6040516103c59190613b77565b60405180910390f35b3480156103da57600080fd5b506103f560048036038101906103f091906135e2565b611b3e565b6040516104029190613cf4565b60405180910390f35b34801561041757600080fd5b50610420611d07565b60405161042e929190613dc1565b60405180910390f35b34801561044357600080fd5b5061045e6004803603810190610459919061338b565b611d19565b60405161046b9190613b5c565b60405180910390f35b34801561048057600080fd5b5061049b60048036038101906104969190613480565b611d83565b005b3480156104a957600080fd5b506104c460048036038101906104bf9190613480565b611de8565b6040516104d2929190613dc1565b60405180910390f35b3480156104e757600080fd5b506104f0612038565b6040516104fd9190613b77565b60405180910390f35b34801561051257600080fd5b5061052d60048036038101906105289190613426565b61203f565b60405161053a9190613b92565b60405180910390f35b61055d60048036038101906105589190613480565b612072565b005b34801561056b57600080fd5b5061058660048036038101906105819190613304565b61217f565b005b34801561059457600080fd5b5061059d61228a565b005b3480156105ab57600080fd5b506105c660048036038101906105c19190613426565b61233f565b6040516105d4929190613dc1565b60405180910390f35b3480156105e957600080fd5b5061060460048036038101906105ff919061338b565b6123f5565b005b34801561061257600080fd5b5061061b61241e565b6040516106289190613cf4565b60405180910390f35b34801561063d57600080fd5b5061065860048036038101906106539190613426565b612424565b005b34801561066657600080fd5b5061066f612a47565b60405161067c9190613a20565b60405180910390f35b60007f7965db0b000000000000000000000000000000000000000000000000000000007bffffffffffffffffffffffffffffffffffffffffffffffffffffffff1916827bffffffffffffffffffffffffffffffffffffffffffffffffffffffff191614806106f857506106f782612a6d565b5b9050919050565b6000600760009054906101000a900473ffffffffffffffffffffffffffffffffffffffff1673ffffffffffffffffffffffffffffffffffffffff166305300b286040518163ffffffff1660e01b815260040160206040518083038186803b15801561076957600080fd5b505afa15801561077d573d6000803e3d6000fd5b505050506040513d601f19601f820116820180604052508101906107a19190613453565b905090565b60006107b6858584866000611b3e565b905060006107ce826001600001546001800154612ad7565b90506000600760009054906101000a900473ffffffffffffffffffffffffffffffffffffffff1673ffffffffffffffffffffffffffffffffffffffff1663af7b2625888888600089888a6108229190613fbd565b896040518863ffffffff1660e01b81526004016108459796959493929190613dea565b602060405180830381600087803b15801561085f57600080fd5b505af1158015610873573d6000803e3d6000fd5b505050506040513d601f19601f820116820180604052508101906108979190613453565b9050600760009054906101000a900473ffffffffffffffffffffffffffffffffffffffff1673ffffffffffffffffffffffffffffffffffffffff16636abae9b38260006040518363ffffffff1660e01b81526004016108f7929190613d38565b60206040518083038186803b15801561090f57600080fd5b505afa158015610923573d6000803e3d6000fd5b505050506040513d601f19601f820116820180604052508101906109479190613453565b341015610989576040517f08c379a000000000000000000000000000000000000000000000000000000000815260040161098090613c2f565b60405180910390fd5b600660009054906101000a900473ffffffffffffffffffffffffffffffffffffffff1673ffffffffffffffffffffffffffffffffffffffff166108fc600760009054906101000a900473ffffffffffffffffffffffffffffffffffffffff1673ffffffffffffffffffffffffffffffffffffffff166346047a66846040518263ffffffff1660e01b8152600401610a209190613cf4565b60206040518083038186803b158015610a3857600080fd5b505afa158015610a4c573d6000803e3d6000fd5b505050506040513d601f19601f82011682018060405250810190610a709190613453565b9081150290604051600060405180830381858888f19350505050158015610a9b573d6000803e3d6000fd5b50600760009054906101000a900473ffffffffffffffffffffffffffffffffffffffff1673ffffffffffffffffffffffffffffffffffffffff166328e493c1826040518263ffffffff1660e01b8152600401610af79190613cf4565b600060405180830381600087803b158015610b1157600080fd5b505af1158015610b25573d6000803e3d6000fd5b50505050600660009054906101000a900473ffffffffffffffffffffffffffffffffffffffff1673ffffffffffffffffffffffffffffffffffffffff1663cbe42a183383600760009054906101000a900473ffffffffffffffffffffffffffffffffffffffff1673ffffffffffffffffffffffffffffffffffffffff166346047a66866040518263ffffffff1660e01b8152600401610bc49190613cf4565b60206040518083038186803b158015610bdc57600080fd5b505afa158015610bf0573d6000803e3d6000fd5b505050506040513d601f19601f82011682018060405250810190610c149190613453565b600760009054906101000a900473ffffffffffffffffffffffffffffffffffffffff1673ffffffffffffffffffffffffffffffffffffffff1663128734c58760006040518363ffffffff1660e01b8152600401610c72929190613d61565b60206040518083038186803b158015610c8a57600080fd5b505afa158015610c9e573d6000803e3d6000fd5b505050506040513d601f19601f82011682018060405250810190610cc29190613453565b600760009054906101000a900473ffffffffffffffffffffffffffffffffffffffff1673ffffffffffffffffffffffffffffffffffffffff1663128734c58860016040518363ffffffff1660e01b8152600401610d20929190613d61565b60206040518083038186803b158015610d3857600080fd5b505afa158015610d4c573d6000803e3d6000fd5b505050506040513d601f19601f82011682018060405250810190610d709190613453565b6040518663ffffffff1660e01b8152600401610d90959493929190613b09565b600060405180830381600087803b158015610daa57600080fd5b505af1158015610dbe573d6000803e3d6000fd5b505050503373ffffffffffffffffffffffffffffffffffffffff167f70f78afb3477f32fbbdae25a5446780cf2f44e041329d5f7688fa98e6524bf43600760009054906101000a900473ffffffffffffffffffffffffffffffffffffffff1673ffffffffffffffffffffffffffffffffffffffff16631ce5e9a6846040518263ffffffff1660e01b8152600401610e559190613cf4565b6101e06040518083038186803b158015610e6e57600080fd5b505afa158015610e82573d6000803e3d6000fd5b505050506040513d601f19601f82011682018060405250810190610ea691906133f8565b346000604051610eb893929190613cba565b60405180910390a250505050505050565b6000610ed9868685876000611b3e565b90506000610ef1826001600001546001800154612ad7565b90506000600760009054906101000a900473ffffffffffffffffffffffffffffffffffffffff1673ffffffffffffffffffffffffffffffffffffffff1663af7b262589898960008a888a610f459190613fbd565b896040518863ffffffff1660e01b8152600401610f689796959493929190613dea565b602060405180830381600087803b158015610f8257600080fd5b505af1158015610f96573d6000803e3d6000fd5b505050506040513d601f19601f82011682018060405250810190610fba9190613453565b9050600760009054906101000a900473ffffffffffffffffffffffffffffffffffffffff1673ffffffffffffffffffffffffffffffffffffffff16636abae9b38260016040518363ffffffff1660e01b815260040161101a929190613d38565b60206040518083038186803b15801561103257600080fd5b505afa158015611046573d6000803e3d6000fd5b505050506040513d601f19601f8201168201806040525081019061106a9190613453565b8410156110ac576040517f08c379a00000000000000000000000000000000000000000000000000000000081526004016110a390613c2f565b60405180910390fd5b6009600089815260200190815260200160002060009054906101000a900473ffffffffffffffffffffffffffffffffffffffff1673ffffffffffffffffffffffffffffffffffffffff166323b872dd33600560009054906101000a900473ffffffffffffffffffffffffffffffffffffffff16876040518463ffffffff1660e01b815260040161113e93929190613a64565b602060405180830381600087803b15801561115857600080fd5b505af115801561116c573d6000803e3d6000fd5b505050506040513d601f19601f820116820180604052508101906111909190613331565b6111cf576040517f08c379a00000000000000000000000000000000000000000000000000000000081526004016111c690613c0f565b60405180910390fd5b6009600089815260200190815260200160002060009054906101000a900473ffffffffffffffffffffffffffffffffffffffff1673ffffffffffffffffffffffffffffffffffffffff1663095ea7b3600960008b815260200190815260200160002060009054906101000a900473ffffffffffffffffffffffffffffffffffffffff16866040518363ffffffff1660e01b8152600401611270929190613a9b565b602060405180830381600087803b15801561128a57600080fd5b505af115801561129e573d6000803e3d6000fd5b505050506040513d601f19601f820116820180604052508101906112c29190613331565b506009600089815260200190815260200160002060009054906101000a900473ffffffffffffffffffffffffffffffffffffffff1673ffffffffffffffffffffffffffffffffffffffff16635d36d182600560009054906101000a900473ffffffffffffffffffffffffffffffffffffffff16866040518363ffffffff1660e01b8152600401611353929190613a3b565b602060405180830381600087803b15801561136d57600080fd5b505af1158015611381573d6000803e3d6000fd5b505050506040513d601f19601f820116820180604052508101906113a59190613453565b50600660009054906101000a900473ffffffffffffffffffffffffffffffffffffffff1673ffffffffffffffffffffffffffffffffffffffff166108fc600760009054906101000a900473ffffffffffffffffffffffffffffffffffffffff1673ffffffffffffffffffffffffffffffffffffffff166346047a66846040518263ffffffff1660e01b815260040161143d9190613cf4565b60206040518083038186803b15801561145557600080fd5b505afa158015611469573d6000803e3d6000fd5b505050506040513d601f19601f8201168201806040525081019061148d9190613453565b9081150290604051600060405180830381858888f193505050501580156114b8573d6000803e3d6000fd5b50600760009054906101000a900473ffffffffffffffffffffffffffffffffffffffff1673ffffffffffffffffffffffffffffffffffffffff166328e493c1826040518263ffffffff1660e01b81526004016115149190613cf4565b600060405180830381600087803b15801561152e57600080fd5b505af1158015611542573d6000803e3d6000fd5b50505050600660009054906101000a900473ffffffffffffffffffffffffffffffffffffffff1673ffffffffffffffffffffffffffffffffffffffff1663cbe42a183383600760009054906101000a900473ffffffffffffffffffffffffffffffffffffffff1673ffffffffffffffffffffffffffffffffffffffff166346047a66866040518263ffffffff1660e01b81526004016115e19190613cf4565b60206040518083038186803b1580156115f957600080fd5b505afa15801561160d573d6000803e3d6000fd5b505050506040513d601f19601f820116820180604052508101906116319190613453565b600760009054906101000a900473ffffffffffffffffffffffffffffffffffffffff1673ffffffffffffffffffffffffffffffffffffffff1663128734c58760006040518363ffffffff1660e01b815260040161168f929190613d61565b60206040518083038186803b1580156116a757600080fd5b505afa1580156116bb573d6000803e3d6000fd5b505050506040513d601f19601f820116820180604052508101906116df9190613453565b600760009054906101000a900473ffffffffffffffffffffffffffffffffffffffff1673ffffffffffffffffffffffffffffffffffffffff1663128734c58860016040518363ffffffff1660e01b815260040161173d929190613d61565b60206040518083038186803b15801561175557600080fd5b505afa158015611769573d6000803e3d6000fd5b505050506040513d601f19601f8201168201806040525081019061178d9190613453565b6040518663ffffffff1660e01b81526004016117ad959493929190613b09565b600060405180830381600087803b1580156117c757600080fd5b505af11580156117db573d6000803e3d6000fd5b505050503373ffffffffffffffffffffffffffffffffffffffff167f70f78afb3477f32fbbdae25a5446780cf2f44e041329d5f7688fa98e6524bf43600760009054906101000a900473ffffffffffffffffffffffffffffffffffffffff1673ffffffffffffffffffffffffffffffffffffffff16631ce5e9a6846040518263ffffffff1660e01b81526004016118729190613cf4565b6101e06040518083038186803b15801561188b57600080fd5b505afa15801561189f573d6000803e3d6000fd5b505050506040513d601f19601f820116820180604052508101906118c391906133f8565b8660016040516118d593929190613cba565b60405180910390a25050505050505050565b7fa49807205ce4d355092ef5a8a18f56e8913cf4a201fbe287825b095693c2177561191981611914612bd3565b612bdb565b816008819055505050565b6000806000838152602001908152602001600020600101549050919050565b61194c82611924565b61195d81611958612bd3565b612bdb565b6119678383612c78565b505050565b611974612bd3565b73ffffffffffffffffffffffffffffffffffffffff168173ffffffffffffffffffffffffffffffffffffffff16146119e1576040517f08c379a00000000000000000000000000000000000000000000000000000000081526004016119d890613c6f565b60405180910390fd5b6119eb8282612d58565b5050565b6000600760009054906101000a900473ffffffffffffffffffffffffffffffffffffffff1673ffffffffffffffffffffffffffffffffffffffff166340d6eaab836040518263ffffffff1660e01b8152600401611a4c9190613cf4565b60206040518083038186803b158015611a6457600080fd5b505afa158015611a78573d6000803e3d6000fd5b505050506040513d601f19601f82011682018060405250810190611a9c9190613453565b9050919050565b7fa49807205ce4d355092ef5a8a18f56e8913cf4a201fbe287825b095693c21775611ad581611ad0612bd3565b612bdb565b60405180604001604052808481526020018381525060036000820151816000015560208201518160010155905050505050565b60038060000154908060010154905082565b7fa49807205ce4d355092ef5a8a18f56e8913cf4a201fbe287825b095693c2177581565b6000806000600660009054906101000a900473ffffffffffffffffffffffffffffffffffffffff1673ffffffffffffffffffffffffffffffffffffffff1663bd069b418787876040518463ffffffff1660e01b8152600401611ba293929190613d8a565b604080518083038186803b158015611bb957600080fd5b505afa158015611bcd573d6000803e3d6000fd5b505050506040513d601f19601f82011682018060405250810190611bf191906134c0565b91509150600854611c028383612e39565b1115611c43576040517f08c379a0000000000000000000000000000000000000000000000000000000008152600401611c3a90613bef565b60405180910390fd5b600760009054906101000a900473ffffffffffffffffffffffffffffffffffffffff1673ffffffffffffffffffffffffffffffffffffffff1663ed0a3e3a898988888b88886040518863ffffffff1660e01b8152600401611caa9796959493929190613dea565b60206040518083038186803b158015611cc257600080fd5b505afa158015611cd6573d6000803e3d6000fd5b505050506040513d601f19601f82011682018060405250810190611cfa9190613453565b9250505095945050505050565b60018060000154908060010154905082565b600080600084815260200190815260200160002060000160008373ffffffffffffffffffffffffffffffffffffffff1673ffffffffffffffffffffffffffffffffffffffff16815260200190815260200160002060009054906101000a900460ff16905092915050565b7fa49807205ce4d355092ef5a8a18f56e8913cf4a201fbe287825b095693c21775611db581611db0612bd3565b612bdb565b60405180604001604052808481526020018381525060016000820151816000015560208201518160010155905050505050565b6000806000600760009054906101000a900473ffffffffffffffffffffffffffffffffffffffff1673ffffffffffffffffffffffffffffffffffffffff1663b0667cf86040518163ffffffff1660e01b8152600401604080518083038186803b158015611e5457600080fd5b505afa158015611e68573d6000803e3d6000fd5b505050506040513d601f19601f82011682018060405250810190611e8c91906134c0565b5090506000600760009054906101000a900473ffffffffffffffffffffffffffffffffffffffff1673ffffffffffffffffffffffffffffffffffffffff1663cfc2dc20876040518263ffffffff1660e01b8152600401611eec9190613cf4565b604080518083038186803b158015611f0357600080fd5b505afa158015611f17573d6000803e3d6000fd5b505050506040513d601f19601f82011682018060405250810190611f3b91906134c0565b50905060006009600088815260200190815260200160002060009054906101000a900473ffffffffffffffffffffffffffffffffffffffff1673ffffffffffffffffffffffffffffffffffffffff166362c5c1198785856040518463ffffffff1660e01b8152600401611fb093929190613e59565b60206040518083038186803b158015611fc857600080fd5b505afa158015611fdc573d6000803e3d6000fd5b505050506040513d601f19601f820116820180604052508101906120009190613453565b905060006003600101546003600001548361201b9190613f63565b6120259190613f32565b9050818195509550505050509250929050565b6000801b81565b60096020528060005260406000206000915054906101000a900473ffffffffffffffffffffffffffffffffffffffff1681565b60008061207f8484611de8565b91509150808261208f9190613edc565b34101561209b57600080fd5b6009600085815260200190815260200160002060009054906101000a900473ffffffffffffffffffffffffffffffffffffffff1673ffffffffffffffffffffffffffffffffffffffff166340c10f198333866040518463ffffffff1660e01b815260040161210a929190613a9b565b6000604051808303818588803b15801561212357600080fd5b505af1158015612137573d6000803e3d6000fd5b50505050507f701297180b43ed5c70ad79a3036dca759169e2b5f64d7c4d04f2322af0511c8d334286866040516121719493929190613ac4565b60405180910390a150505050565b7fa49807205ce4d355092ef5a8a18f56e8913cf4a201fbe287825b095693c217756121b1816121ac612bd3565b612bdb565b600082905080600960008373ffffffffffffffffffffffffffffffffffffffff1663a15612d16040518163ffffffff1660e01b815260040160206040518083038186803b15801561220157600080fd5b505afa158015612215573d6000803e3d6000fd5b505050506040513d601f19601f820116820180604052508101906122399190613453565b815260200190815260200160002060006101000a81548173ffffffffffffffffffffffffffffffffffffffff021916908373ffffffffffffffffffffffffffffffffffffffff160217905550505050565b7fa49807205ce4d355092ef5a8a18f56e8913cf4a201fbe287825b095693c217756122bc816122b7612bd3565b612bdb565b3373ffffffffffffffffffffffffffffffffffffffff166108fc600560009054906101000a900473ffffffffffffffffffffffffffffffffffffffff1673ffffffffffffffffffffffffffffffffffffffff16319081150290604051600060405180830381858888f1935050505015801561233b573d6000803e3d6000fd5b5050565b600080600760009054906101000a900473ffffffffffffffffffffffffffffffffffffffff1673ffffffffffffffffffffffffffffffffffffffff1663cfc2dc20846040518263ffffffff1660e01b815260040161239d9190613cf4565b604080518083038186803b1580156123b457600080fd5b505afa1580156123c8573d6000803e3d6000fd5b505050506040513d601f19601f820116820180604052508101906123ec91906134c0565b91509150915091565b6123fe82611924565b61240f8161240a612bd3565b612bdb565b6124198383612d58565b505050565b60085481565b600760009054906101000a900473ffffffffffffffffffffffffffffffffffffffff1673ffffffffffffffffffffffffffffffffffffffff1663a556feec82336040518363ffffffff1660e01b8152600401612481929190613d0f565b60006040518083038186803b15801561249957600080fd5b505afa1580156124ad573d6000803e3d6000fd5b505050506000600760009054906101000a900473ffffffffffffffffffffffffffffffffffffffff1673ffffffffffffffffffffffffffffffffffffffff166340d6eaab836040518263ffffffff1660e01b815260040161250e9190613cf4565b60206040518083038186803b15801561252657600080fd5b505afa15801561253a573d6000803e3d6000fd5b505050506040513d601f19601f8201168201806040525081019061255e9190613453565b9050600560009054906101000a900473ffffffffffffffffffffffffffffffffffffffff1673ffffffffffffffffffffffffffffffffffffffff163181106125db576040517f08c379a00000000000000000000000000000000000000000000000000000000081526004016125d290613c4f565b60405180910390fd5b600760009054906101000a900473ffffffffffffffffffffffffffffffffffffffff1673ffffffffffffffffffffffffffffffffffffffff16636c1f7b93836040518263ffffffff1660e01b81526004016126369190613cf4565b600060405180830381600087803b15801561265057600080fd5b505af1158015612664573d6000803e3d6000fd5b505050503373ffffffffffffffffffffffffffffffffffffffff166108fc829081150290604051600060405180830381858888f193505050501580156126ae573d6000803e3d6000fd5b50600660009054906101000a900473ffffffffffffffffffffffffffffffffffffffff1673ffffffffffffffffffffffffffffffffffffffff1663d5093b0b3384600760009054906101000a900473ffffffffffffffffffffffffffffffffffffffff1673ffffffffffffffffffffffffffffffffffffffff166346047a66876040518263ffffffff1660e01b815260040161274a9190613cf4565b60206040518083038186803b15801561276257600080fd5b505afa158015612776573d6000803e3d6000fd5b505050506040513d601f19601f8201168201806040525081019061279a9190613453565b600760009054906101000a900473ffffffffffffffffffffffffffffffffffffffff1673ffffffffffffffffffffffffffffffffffffffff1663128734c58860006040518363ffffffff1660e01b81526004016127f8929190613d61565b60206040518083038186803b15801561281057600080fd5b505afa158015612824573d6000803e3d6000fd5b505050506040513d601f19601f820116820180604052508101906128489190613453565b600760009054906101000a900473ffffffffffffffffffffffffffffffffffffffff1673ffffffffffffffffffffffffffffffffffffffff1663128734c58960016040518363ffffffff1660e01b81526004016128a6929190613d61565b60206040518083038186803b1580156128be57600080fd5b505afa1580156128d2573d6000803e3d6000fd5b505050506040513d601f19601f820116820180604052508101906128f69190613453565b6040518663ffffffff1660e01b8152600401612916959493929190613b09565b600060405180830381600087803b15801561293057600080fd5b505af1158015612944573d6000803e3d6000fd5b505050503373ffffffffffffffffffffffffffffffffffffffff167f41c2c00510329a39f538637baf1a4cec0c212ffecb304f9a04517c285c981b08600760009054906101000a900473ffffffffffffffffffffffffffffffffffffffff1673ffffffffffffffffffffffffffffffffffffffff16631ce5e9a6856040518263ffffffff1660e01b81526004016129db9190613cf4565b6101e06040518083038186803b1580156129f457600080fd5b505afa158015612a08573d6000803e3d6000fd5b505050506040513d601f19601f82011682018060405250810190612a2c91906133f8565b83604051612a3b929190613c8f565b60405180910390a25050565b600560009054906101000a900473ffffffffffffffffffffffffffffffffffffffff1681565b60007f01ffc9a7000000000000000000000000000000000000000000000000000000007bffffffffffffffffffffffffffffffffffffffffffffffffffffffff1916827bffffffffffffffffffffffffffffffffffffffffffffffffffffffff1916149050919050565b600080600080198587098587029250828110838203039150506000811415612b125760008411612b0657600080fd5b83820492505050612bcc565b808411612b1e57600080fd5b60008486880990508281118203915080830392506000856001877fffffffffffffffffffffffffffffffffffffffffffffffffffffffffffffffff0301169050808604955080840493506001818260000304019050808302841793506000600287600302189050808702600203810290508087026002038102905080870260020381029050808702600203810290508087026002038102905080870260020381029050808502955050505050505b9392505050565b600033905090565b612be58282611d19565b612c7457612c0a8173ffffffffffffffffffffffffffffffffffffffff166014612e53565b612c188360001c6020612e53565b604051602001612c299291906139e6565b6040516020818303038152906040526040517f08c379a0000000000000000000000000000000000000000000000000000000008152600401612c6b9190613bad565b60405180910390fd5b5050565b612c828282611d19565b612d5457600160008084815260200190815260200160002060000160008373ffffffffffffffffffffffffffffffffffffffff1673ffffffffffffffffffffffffffffffffffffffff16815260200190815260200160002060006101000a81548160ff021916908315150217905550612cf9612bd3565b73ffffffffffffffffffffffffffffffffffffffff168173ffffffffffffffffffffffffffffffffffffffff16837f2f8788117e7eff1d82e926ec794901d17c78024a50270940304540a733656f0d60405160405180910390a45b5050565b612d628282611d19565b15612e3557600080600084815260200190815260200160002060000160008373ffffffffffffffffffffffffffffffffffffffff1673ffffffffffffffffffffffffffffffffffffffff16815260200190815260200160002060006101000a81548160ff021916908315150217905550612dda612bd3565b73ffffffffffffffffffffffffffffffffffffffff168173ffffffffffffffffffffffffffffffffffffffff16837ff6391f5c32d9c69d2a47ea670b442974b53935d1edc7fd64eb21e047a839171b60405160405180910390a45b5050565b600081831015612e495781612e4b565b825b905092915050565b606060006002836002612e669190613f63565b612e709190613edc565b67ffffffffffffffff811115612e8957612e88614294565b5b6040519080825280601f01601f191660200182016040528015612ebb5781602001600182028036833780820191505090505b5090507f300000000000000000000000000000000000000000000000000000000000000081600081518110612ef357612ef2614265565b5b60200101907effffffffffffffffffffffffffffffffffffffffffffffffffffffffffffff1916908160001a9053507f780000000000000000000000000000000000000000000000000000000000000081600181518110612f5757612f56614265565b5b60200101907effffffffffffffffffffffffffffffffffffffffffffffffffffffffffffff1916908160001a90535060006001846002612f979190613f63565b612fa19190613edc565b90505b6001811115613041577f3031323334353637383961626364656600000000000000000000000000000000600f861660108110612fe357612fe2614265565b5b1a60f81b828281518110612ffa57612ff9614265565b5b60200101907effffffffffffffffffffffffffffffffffffffffffffffffffffffffffffff1916908160001a905350600485901c94508061303a9061417d565b9050612fa4565b5060008414613085576040517f08c379a000000000000000000000000000000000000000000000000000000000815260040161307c90613bcf565b60405180910390fd5b8091505092915050565b60008135905061309e81614488565b92915050565b6000815190506130b381614488565b92915050565b6000813590506130c88161449f565b92915050565b6000815190506130dd816144b6565b92915050565b6000813590506130f2816144cd565b92915050565b600081359050613107816144e4565b92915050565b60008135905061311c816144fb565b92915050565b600081519050613131816144fb565b92915050565b6000815190506131468161450b565b92915050565b60008135905061315b8161451b565b92915050565b6000815190506131708161451b565b92915050565b60006101e0828403121561318d5761318c6142c3565b5b6131986101e0613e90565b905060006131a884828501613161565b60008301525060206131bc84828501613122565b60208301525060406131d084828501613137565b60408301525060606131e4848285016130a4565b60608301525060806131f8848285016132ef565b60808301525060a061320c848285016132ef565b60a08301525060c0613220848285016132ef565b60c08301525060e0613234848285016132ef565b60e083015250610100613249848285016132ef565b6101008301525061012061325f848285016132ef565b61012083015250610140613275848285016132ef565b6101408301525061016061328b848285016132ef565b610160830152506101806132a1848285016132ef565b610180830152506101a06132b7848285016132ef565b6101a0830152506101c06132cd848285016132ef565b6101c08301525092915050565b6000813590506132e98161452b565b92915050565b6000815190506132fe8161452b565b92915050565b60006020828403121561331a576133196142c8565b5b6000613328848285016130b9565b91505092915050565b600060208284031215613347576133466142c8565b5b6000613355848285016130ce565b91505092915050565b600060208284031215613374576133736142c8565b5b6000613382848285016130e3565b91505092915050565b600080604083850312156133a2576133a16142c8565b5b60006133b0858286016130e3565b92505060206133c18582860161308f565b9150509250929050565b6000602082840312156133e1576133e06142c8565b5b60006133ef848285016130f8565b91505092915050565b60006101e0828403121561340f5761340e6142c8565b5b600061341d84828501613176565b91505092915050565b60006020828403121561343c5761343b6142c8565b5b600061344a848285016132da565b91505092915050565b600060208284031215613469576134686142c8565b5b6000613477848285016132ef565b91505092915050565b60008060408385031215613497576134966142c8565b5b60006134a5858286016132da565b92505060206134b6858286016132da565b9150509250929050565b600080604083850312156134d7576134d66142c8565b5b60006134e5858286016132ef565b92505060206134f6858286016132ef565b9150509250929050565b6000806000806080858703121561351a576135196142c8565b5b6000613528878288016132da565b9450506020613539878288016132da565b935050604061354a8782880161314c565b925050606061355b878288016132da565b91505092959194509250565b600080600080600060a08688031215613583576135826142c8565b5b6000613591888289016132da565b95505060206135a2888289016132da565b94505060406135b38882890161314c565b93505060606135c4888289016132da565b92505060806135d5888289016132da565b9150509295509295909350565b600080600080600060a086880312156135fe576135fd6142c8565b5b600061360c888289016132da565b955050602061361d888289016132da565b945050604061362e888289016132da565b935050606061363f8882890161314c565b92505060806136508882890161310d565b9150509295509295909350565b613666816140ba565b82525050565b61367581614003565b82525050565b61368481613ff1565b82525050565b61369381613ff1565b82525050565b6136a281614015565b82525050565b6136b181614021565b82525050565b6136c0816140cc565b82525050565b6136cf816140de565b82525050565b6136de816140de565b82525050565b6136ed816140f0565b82525050565b6136fc81614102565b82525050565b61370b81614102565b82525050565b600061371c82613eb5565b6137268185613ec0565b935061373681856020860161414a565b61373f816142cd565b840191505092915050565b600061375582613eb5565b61375f8185613ed1565b935061376f81856020860161414a565b80840191505092915050565b6000613788602083613ec0565b9150613793826142de565b602082019050919050565b60006137ab601983613ec0565b91506137b682614307565b602082019050919050565b60006137ce600f83613ec0565b91506137d982614330565b602082019050919050565b60006137f1601a83613ec0565b91506137fc82614359565b602082019050919050565b6000613814601583613ec0565b915061381f82614382565b602082019050919050565b6000613837601783613ed1565b9150613842826143ab565b601782019050919050565b600061385a601183613ed1565b9150613865826143d4565b601182019050919050565b600061387d602f83613ec0565b9150613888826143fd565b604082019050919050565b6101e0820160008201516138aa60008501826136f3565b5060208201516138bd60208501826136c6565b5060408201516138d060408501826136e4565b5060608201516138e3606085018261367b565b5060808201516138f660808501826139c8565b5060a082015161390960a08501826139c8565b5060c082015161391c60c08501826139c8565b5060e082015161392f60e08501826139c8565b506101008201516139446101008501826139c8565b506101208201516139596101208501826139c8565b5061014082015161396e6101408501826139c8565b506101608201516139836101608501826139c8565b506101808201516139986101808501826139c8565b506101a08201516139ad6101a08501826139c8565b506101c08201516139c26101c08501826139c8565b50505050565b6139d1816140b0565b82525050565b6139e0816140b0565b82525050565b60006139f18261382a565b91506139fd828561374a565b9150613a088261384d565b9150613a14828461374a565b91508190509392505050565b6000602082019050613a35600083018461366c565b92915050565b6000604082019050613a50600083018561366c565b613a5d60208301846139d7565b9392505050565b6000606082019050613a79600083018661368a565b613a86602083018561365d565b613a9360408301846139d7565b949350505050565b6000604082019050613ab0600083018561368a565b613abd60208301846139d7565b9392505050565b6000608082019050613ad9600083018761368a565b613ae660208301866139d7565b613af360408301856139d7565b613b0060608301846139d7565b95945050505050565b600060a082019050613b1e600083018861368a565b613b2b60208301876139d7565b613b3860408301866139d7565b613b4560608301856139d7565b613b5260808301846139d7565b9695505050505050565b6000602082019050613b716000830184613699565b92915050565b6000602082019050613b8c60008301846136a8565b92915050565b6000602082019050613ba760008301846136b7565b92915050565b60006020820190508181036000830152613bc78184613711565b905092915050565b60006020820190508181036000830152613be88161377b565b9050919050565b60006020820190508181036000830152613c088161379e565b9050919050565b60006020820190508181036000830152613c28816137c1565b9050919050565b60006020820190508181036000830152613c48816137e4565b9050919050565b60006020820190508181036000830152613c6881613807565b9050919050565b60006020820190508181036000830152613c8881613870565b9050919050565b600061020082019050613ca56000830185613893565b613cb36101e08301846139d7565b9392505050565b600061022082019050613cd06000830186613893565b613cde6101e08301856139d7565b613cec610200830184613699565b949350505050565b6000602082019050613d0960008301846139d7565b92915050565b6000604082019050613d2460008301856139d7565b613d31602083018461368a565b9392505050565b6000604082019050613d4d60008301856139d7565b613d5a6020830184613699565b9392505050565b6000604082019050613d7660008301856139d7565b613d836020830184613702565b9392505050565b6000606082019050613d9f60008301866139d7565b613dac6020830185613702565b613db960408301846136d5565b949350505050565b6000604082019050613dd660008301856139d7565b613de360208301846139d7565b9392505050565b600060e082019050613dff600083018a6139d7565b613e0c60208301896139d7565b613e196040830188613702565b613e2660608301876136d5565b613e3360808301866139d7565b613e4060a08301856139d7565b613e4d60c08301846139d7565b98975050505050505050565b6000606082019050613e6e60008301866139d7565b613e7b60208301856139d7565b613e8860408301846139d7565b949350505050565b6000613e9a613eab565b9050613ea682826141a7565b919050565b6000604051905090565b600081519050919050565b600082825260208201905092915050565b600081905092915050565b6000613ee7826140b0565b9150613ef2836140b0565b9250827fffffffffffffffffffffffffffffffffffffffffffffffffffffffffffffffff03821115613f2757613f266141d8565b5b828201905092915050565b6000613f3d826140b0565b9150613f48836140b0565b925082613f5857613f57614207565b5b828204905092915050565b6000613f6e826140b0565b9150613f79836140b0565b9250817fffffffffffffffffffffffffffffffffffffffffffffffffffffffffffffffff0483118215151615613fb257613fb16141d8565b5b828202905092915050565b6000613fc8826140b0565b9150613fd3836140b0565b925082821015613fe657613fe56141d8565b5b828203905092915050565b6000613ffc82614090565b9050919050565b600061400e82614090565b9050919050565b60008115159050919050565b6000819050919050565b60007fffffffff0000000000000000000000000000000000000000000000000000000082169050919050565b60008190506140658261444c565b919050565b600081905061407882614460565b919050565b600081905061408b82614474565b919050565b600073ffffffffffffffffffffffffffffffffffffffff82169050919050565b6000819050919050565b60006140c582614114565b9050919050565b60006140d782614126565b9050919050565b60006140e982614057565b9050919050565b60006140fb8261406a565b9050919050565b600061410d8261407d565b9050919050565b600061411f82614138565b9050919050565b600061413182614138565b9050919050565b600061414382614090565b9050919050565b60005b8381101561416857808201518184015260208101905061414d565b83811115614177576000848401525b50505050565b6000614188826140b0565b9150600082141561419c5761419b6141d8565b5b600182039050919050565b6141b0826142cd565b810181811067ffffffffffffffff821117156141cf576141ce614294565b5b80604052505050565b7f4e487b7100000000000000000000000000000000000000000000000000000000600052601160045260246000fd5b7f4e487b7100000000000000000000000000000000000000000000000000000000600052601260045260246000fd5b7f4e487b7100000000000000000000000000000000000000000000000000000000600052602160045260246000fd5b7f4e487b7100000000000000000000000000000000000000000000000000000000600052603260045260246000fd5b7f4e487b7100000000000000000000000000000000000000000000000000000000600052604160045260246000fd5b600080fd5b600080fd5b6000601f19601f8301169050919050565b7f537472696e67733a20686578206c656e67746820696e73756666696369656e74600082015250565b7f4d6178207574696c69736174696f6e2062726561636865642e00000000000000600082015250565b7f4661696c6564207061796d656e742e0000000000000000000000000000000000600082015250565b7f456e7465726564207072656d69756d20696e636f72726563742e000000000000600082015250565b7f42616c616e636520696e73756666696369656e742e0000000000000000000000600082015250565b7f416363657373436f6e74726f6c3a206163636f756e7420000000000000000000600082015250565b7f206973206d697373696e6720726f6c6520000000000000000000000000000000600082015250565b7f416363657373436f6e74726f6c3a2063616e206f6e6c792072656e6f756e636560008201527f20726f6c657320666f722073656c660000000000000000000000000000000000602082015250565b6002811061445d5761445c614236565b5b50565b6004811061447157614470614236565b5b50565b6002811061448557614484614236565b5b50565b61449181613ff1565b811461449c57600080fd5b50565b6144a881614003565b81146144b357600080fd5b50565b6144bf81614015565b81146144ca57600080fd5b50565b6144d681614021565b81146144e157600080fd5b50565b6144ed8161402b565b81146144f857600080fd5b50565b6002811061450857600080fd5b50565b6004811061451857600080fd5b50565b6002811061452857600080fd5b50565b614534816140b0565b811461453f57600080fd5b5056fea2646970667358221220583720f68cae90753d2af2a59ea7ad84e592d9d378aebaa55ffe15792e4ecc9864736f6c63430008070033",
  "immutableReferences": {},
  "source": "/**\n * SPDX-License-Identifier: GPL-3.0-or-later\n * Moret\n * Copyright (C) 2021 Moret\n*/\n\npragma solidity ^0.8.4;\n\nimport \"@openzeppelin/contracts/token/ERC20/ERC20.sol\";\nimport \"@openzeppelin/contracts/access/AccessControl.sol\";\nimport \"./MoretInterfaces.sol\";\nimport \"./OptionVault.sol\";\nimport \"./VolatilityToken.sol\";\nimport \"./MarketMakerNative.sol\";\n\ncontract ExchangeNative is AccessControl, EOption\n{\nbytes32 public constant ADMIN_ROLE = keccak256(\"ADMIN_ROLE\");\n    OptionLibrary.Percent public settlementFee = OptionLibrary.Percent(5 * 10 ** 3, 10 ** 6);\n    OptionLibrary.Percent public volTransactionFees = OptionLibrary.Percent(5 * 10 ** 3, 10 ** 6);\n      address payable public contractAddress;\n\n    MarketMakerNative internal marketMaker;\n    OptionVault internal optionVault;\n\n\n        uint256 private constant ethMultiplier = 10 ** 18;\n        uint256 public maxUtilisation = 10 ** 18;\n\n    mapping(uint256=>VolatilityToken) public volTokensList;\n\n    constructor(\n      address payable _marketMakerAddress,\n      address _optionAddress,\n      address payable _volTokenAddress\n      )\n    {\n      _setupRole(DEFAULT_ADMIN_ROLE, msg.sender);\n        _setupRole(ADMIN_ROLE, msg.sender);\n\n      optionVault = OptionVault(_optionAddress);\n      marketMaker = MarketMakerNative(_marketMakerAddress);\n      VolatilityToken _volToken = VolatilityToken(_volTokenAddress);\n      volTokensList[_volToken.tenor()] = _volToken;\n      contractAddress = payable(address(this));\n    }\n\n    function queryOptionCost(uint256 _tenor, uint256 _strike, uint256 _amount,\n      OptionLibrary.PayoffType _poType, OptionLibrary.OptionSide _side)\n    public view returns(uint256)\n    {\n      (uint256 _utilPrior, uint256 _utilAfter)  = marketMaker.calcUtilisation(_amount, _poType, _side);\n      require(Math.max(_utilPrior, _utilAfter)<= maxUtilisation, \"Max utilisation breached.\");\n\n      return optionVault.queryOptionCost(_tenor, _strike, _poType, _side, _amount, _utilPrior, _utilAfter );\n    }\n\n    function purchaseOption(uint256 _tenor, uint256 _strike, OptionLibrary.PayoffType _poType, uint256 _amount)\n    external payable {\n      uint256 _premium = queryOptionCost(_tenor, _strike, _amount, _poType,OptionLibrary.OptionSide.Buy );\n      uint256 _fee = MulDiv(_premium, settlementFee.numerator, settlementFee.denominator);\n\n      uint256 _id = optionVault.addOption(_tenor, _strike, _poType, OptionLibrary.OptionSide.Buy, _amount, _premium - _fee, _fee );\n      require(msg.value >= optionVault.queryDraftOptionCost(_id, false), \"Entered premium incorrect.\");\n      payable(address(marketMaker)).transfer(optionVault.queryOptionPremium(_id));\n\n      optionVault.stampActiveOption(_id);\n\n      marketMaker.recordOptionPurhcase(msg.sender, _id, optionVault.queryOptionPremium(_id),\n        optionVault.queryOptionExposure(_id, OptionLibrary.PayoffType.Call),\n        optionVault.queryOptionExposure(_id, OptionLibrary.PayoffType.Put));\n\n      emit newOptionBought(msg.sender, optionVault.getOption(_id), msg.value, false);\n\n    }\n\n    function purchaseOptionInVol(uint256 _tenor, uint256 _strike, OptionLibrary.PayoffType _poType, uint256 _amount,\n      uint256 _payInCost)\n      external {\n      uint256 _premium = queryOptionCost(_tenor, _strike, _amount, _poType,OptionLibrary.OptionSide.Buy );\n      uint256 _fee = MulDiv(_premium, settlementFee.numerator, settlementFee.denominator);\n\n      uint256 _id = optionVault.addOption(_tenor, _strike, _poType, OptionLibrary.OptionSide.Buy, _amount, _premium - _fee, _fee );\n      require(_payInCost >= optionVault.queryDraftOptionCost(_id, true), \"Entered premium incorrect.\");\n\n      require(volTokensList[_tenor].transferFrom(msg.sender, contractAddress, _payInCost), 'Failed payment.');\n\n      volTokensList[_tenor].approve(address(volTokensList[_tenor]), _payInCost);\n      volTokensList[_tenor].recycle(contractAddress, _payInCost);\n      payable(address(marketMaker)).transfer(optionVault.queryOptionPremium(_id));\n\n      optionVault.stampActiveOption(_id);\n\n      marketMaker.recordOptionPurhcase(msg.sender, _id, optionVault.queryOptionPremium(_id),\n        optionVault.queryOptionExposure(_id, OptionLibrary.PayoffType.Call),\n        optionVault.queryOptionExposure(_id, OptionLibrary.PayoffType.Put));\n\n      emit newOptionBought(msg.sender, optionVault.getOption(_id), _payInCost, true);\n\n    }\n\n    function getOptionPayoffValue(uint256 _id) external view returns(uint256){\n      return optionVault.getOptionPayoffValue(_id);\n    }\n\n    function exerciseOption(uint256 _id) external  {\n        optionVault.validateOption(_id, msg.sender);\n\n        uint256 _payoffValue = optionVault.getOptionPayoffValue(_id);\n        require(_payoffValue < contractAddress.balance, \"Balance insufficient.\");\n\n        optionVault.stampExercisedOption(_id);\n        payable(msg.sender).transfer(_payoffValue);\n\n        marketMaker.recordOptionRemoval(msg.sender, _id, optionVault.queryOptionPremium(_id),\n          optionVault.queryOptionExposure(_id, OptionLibrary.PayoffType.Call),\n          optionVault.queryOptionExposure(_id, OptionLibrary.PayoffType.Put));\n\n        emit optionExercised(msg.sender, optionVault.getOption(_id), _payoffValue);\n    }\n\n    function expireOption(uint256 _id) internal {\n        if(optionVault.isOptionExpiring(_id))\n        {\n            uint256 _payoffValue = optionVault.getOptionPayoffValue(_id);\n            require(_payoffValue < contractAddress.balance, \"Balance insufficient.\");\n\n            optionVault.stampExpiredOption(_id);\n\n            address payable _optionHolder = optionVault.getOptionHolder(_id);\n            payable(_optionHolder).transfer(_payoffValue);\n\n            marketMaker.recordOptionRemoval(msg.sender, _id, optionVault.queryOptionPremium(_id),\n              optionVault.queryOptionExposure(_id, OptionLibrary.PayoffType.Call),\n              optionVault.queryOptionExposure(_id, OptionLibrary.PayoffType.Put));\n        }\n    }\n\n\n      function addVolToken(address payable _tokenAddress) external onlyRole(ADMIN_ROLE)\n      {\n          VolatilityToken _volToken = VolatilityToken(_tokenAddress);\n          /* require(_volToken.descriptionHash() == optionVault.descriptionHash());\n          require(optionVault.containsTenor(_volToken.tenor())); */\n\n          volTokensList[_volToken.tenor()] = _volToken;\n\n      }\n\n      function quoteVolatilityCost(uint256 _tenor, uint256 _volAmount) public view returns(uint256, uint256)\n      {\n          /* require(optionVault.containsTenor(_tenor)); */\n\n          (uint256 _price,) = optionVault.queryPrice();\n          (uint256 _volatility, ) = optionVault.queryVol(_tenor);\n\n          uint256 _value = volTokensList[_tenor].calculateMintValue(_volAmount, _price, _volatility);\n          uint256 _fee = _value * volTransactionFees.numerator/ volTransactionFees.denominator;\n\n          return (_value, _fee);\n      }\n\n      function purchaseVolatilityToken(uint256 _tenor, uint256 _volAmount)\n      external payable {\n          (uint256 _value, uint256 _fee) = quoteVolatilityCost(_tenor, _volAmount);\n          require(msg.value >= (_value + _fee));\n\n          volTokensList[_tenor].mint{value: _value}(msg.sender, _volAmount);\n\n          emit newVolatilityTokenBought(msg.sender, block.timestamp, _tenor, _volAmount);\n      }\n\n      function sweepBalance() external onlyRole(ADMIN_ROLE){\n            payable(msg.sender).transfer(contractAddress.balance);\n      }\n\n      function resetSettlementFees(uint256 _fee, uint256 _denominator) external onlyRole(ADMIN_ROLE){\n          settlementFee = OptionLibrary.Percent(_fee, _denominator);\n      }\n\n      function resetVolTransactionFees(uint256 _fee, uint256 _denominator) external onlyRole(ADMIN_ROLE){\n          volTransactionFees = OptionLibrary.Percent(_fee, _denominator);\n      }\n\n\n\n                  function resetMaxUtilisation(uint256 _maxUtil) external onlyRole(ADMIN_ROLE){\n                      maxUtilisation = _maxUtil;\n                  }\n\n\n      function priceDecimals() external view returns(uint256){ return optionVault.priceDecimals();}\n      function queryVol(uint256 _tenor) external view returns(uint256, uint256){return optionVault.queryVol(_tenor);}\n\n          receive() external payable{}\n\n}\n",
  "sourcePath": "/Users/mac/Documents/GitHub/moret/contracts/ExchangeNative.sol",
  "compiler": {
    "name": "solc",
    "version": "0.8.7+commit.e28d00a7.Emscripten.clang"
  },
  "schemaVersion": "3.4.3",
  "updatedAt": "2021-09-11T13:19:27.897Z",
  "devdoc": {
    "kind": "dev",
    "methods": {
      "getRoleAdmin(bytes32)": {
        "details": "Returns the admin role that controls `role`. See {grantRole} and {revokeRole}. To change a role's admin, use {_setRoleAdmin}."
      },
      "grantRole(bytes32,address)": {
        "details": "Grants `role` to `account`. If `account` had not been already granted `role`, emits a {RoleGranted} event. Requirements: - the caller must have ``role``'s admin role."
      },
      "hasRole(bytes32,address)": {
        "details": "Returns `true` if `account` has been granted `role`."
      },
      "renounceRole(bytes32,address)": {
        "details": "Revokes `role` from the calling account. Roles are often managed via {grantRole} and {revokeRole}: this function's purpose is to provide a mechanism for accounts to lose their privileges if they are compromised (such as when a trusted device is misplaced). If the calling account had been granted `role`, emits a {RoleRevoked} event. Requirements: - the caller must be `account`."
      },
      "revokeRole(bytes32,address)": {
        "details": "Revokes `role` from `account`. If `account` had been granted `role`, emits a {RoleRevoked} event. Requirements: - the caller must have ``role``'s admin role."
      },
      "supportsInterface(bytes4)": {
        "details": "See {IERC165-supportsInterface}."
      }
    },
    "version": 1
  },
  "userdoc": {
    "kind": "user",
    "methods": {},
    "version": 1
  }
}