{
  "contractName": "Exchange",
  "abi": [
    {
      "inputs": [
        {
          "internalType": "address",
          "name": "_marketMakerAddress",
          "type": "address"
        },
        {
          "internalType": "address",
          "name": "_vaultAddress",
          "type": "address"
        }
      ],
      "stateMutability": "nonpayable",
      "type": "constructor"
    },
    {
      "anonymous": false,
      "inputs": [
        {
          "indexed": false,
          "internalType": "bool",
          "name": "success",
          "type": "bool"
        },
        {
          "indexed": false,
          "internalType": "bytes",
          "name": "data",
          "type": "bytes"
        }
      ],
      "name": "Response",
      "type": "event"
    },
    {
      "anonymous": false,
      "inputs": [
        {
          "indexed": true,
          "internalType": "bytes32",
          "name": "role",
          "type": "bytes32"
        },
        {
          "indexed": true,
          "internalType": "bytes32",
          "name": "previousAdminRole",
          "type": "bytes32"
        },
        {
          "indexed": true,
          "internalType": "bytes32",
          "name": "newAdminRole",
          "type": "bytes32"
        }
      ],
      "name": "RoleAdminChanged",
      "type": "event"
    },
    {
      "anonymous": false,
      "inputs": [
        {
          "indexed": true,
          "internalType": "bytes32",
          "name": "role",
          "type": "bytes32"
        },
        {
          "indexed": true,
          "internalType": "address",
          "name": "account",
          "type": "address"
        },
        {
          "indexed": true,
          "internalType": "address",
          "name": "sender",
          "type": "address"
        }
      ],
      "name": "RoleGranted",
      "type": "event"
    },
    {
      "anonymous": false,
      "inputs": [
        {
          "indexed": true,
          "internalType": "bytes32",
          "name": "role",
          "type": "bytes32"
        },
        {
          "indexed": true,
          "internalType": "address",
          "name": "account",
          "type": "address"
        },
        {
          "indexed": true,
          "internalType": "address",
          "name": "sender",
          "type": "address"
        }
      ],
      "name": "RoleRevoked",
      "type": "event"
    },
    {
      "anonymous": false,
      "inputs": [
        {
          "indexed": false,
          "internalType": "address",
          "name": "_recipient",
          "type": "address"
        },
        {
          "indexed": false,
          "internalType": "uint256",
          "name": "_mintMPTokenAmount",
          "type": "uint256"
        },
        {
          "indexed": false,
          "internalType": "uint256",
          "name": "_addedValue",
          "type": "uint256"
        }
      ],
      "name": "capitalAdded",
      "type": "event"
    },
    {
      "anonymous": false,
      "inputs": [
        {
          "indexed": false,
          "internalType": "address",
          "name": "_recipient",
          "type": "address"
        },
        {
          "indexed": false,
          "internalType": "uint256",
          "name": "_burnMPTokenAmount",
          "type": "uint256"
        },
        {
          "indexed": false,
          "internalType": "uint256",
          "name": "_withdrawValue",
          "type": "uint256"
        }
      ],
      "name": "capitalWithdrawn",
      "type": "event"
    },
    {
      "anonymous": false,
      "inputs": [
        {
          "indexed": true,
          "internalType": "address",
          "name": "_purchaser",
          "type": "address"
        },
        {
          "components": [
            {
              "internalType": "enum OptionLibrary.PayoffType",
              "name": "poType",
              "type": "uint8"
            },
            {
              "internalType": "enum OptionLibrary.OptionSide",
              "name": "side",
              "type": "uint8"
            },
            {
              "internalType": "enum OptionLibrary.OptionStatus",
              "name": "status",
              "type": "uint8"
            },
            {
              "internalType": "address",
              "name": "holder",
              "type": "address"
            },
            {
              "internalType": "uint256",
              "name": "id",
              "type": "uint256"
            },
            {
              "internalType": "uint256",
              "name": "createTime",
              "type": "uint256"
            },
            {
              "internalType": "uint256",
              "name": "effectiveTime",
              "type": "uint256"
            },
            {
              "internalType": "uint256",
              "name": "tenor",
              "type": "uint256"
            },
            {
              "internalType": "uint256",
              "name": "maturity",
              "type": "uint256"
            },
            {
              "internalType": "uint256",
              "name": "exerciseTime",
              "type": "uint256"
            },
            {
              "internalType": "uint256",
              "name": "amount",
              "type": "uint256"
            },
            {
              "internalType": "uint256",
              "name": "spot",
              "type": "uint256"
            },
            {
              "internalType": "uint256",
              "name": "strike",
              "type": "uint256"
            },
            {
              "internalType": "uint256",
              "name": "volatility",
              "type": "uint256"
            },
            {
              "internalType": "uint256",
              "name": "premium",
              "type": "uint256"
            },
            {
              "internalType": "uint256",
              "name": "cost",
              "type": "uint256"
            }
          ],
          "indexed": false,
          "internalType": "struct OptionLibrary.Option",
          "name": "_option",
          "type": "tuple"
        },
        {
          "indexed": false,
          "internalType": "uint256",
          "name": "_cost",
          "type": "uint256"
        },
        {
          "indexed": false,
          "internalType": "bool",
          "name": "_inVol",
          "type": "bool"
        }
      ],
      "name": "newOptionBought",
      "type": "event"
    },
    {
      "anonymous": false,
      "inputs": [
        {
          "indexed": true,
          "internalType": "address",
          "name": "_purchaser",
          "type": "address"
        },
        {
          "components": [
            {
              "internalType": "enum OptionLibrary.PayoffType",
              "name": "poType",
              "type": "uint8"
            },
            {
              "internalType": "enum OptionLibrary.OptionSide",
              "name": "side",
              "type": "uint8"
            },
            {
              "internalType": "enum OptionLibrary.OptionStatus",
              "name": "status",
              "type": "uint8"
            },
            {
              "internalType": "address",
              "name": "holder",
              "type": "address"
            },
            {
              "internalType": "uint256",
              "name": "id",
              "type": "uint256"
            },
            {
              "internalType": "uint256",
              "name": "createTime",
              "type": "uint256"
            },
            {
              "internalType": "uint256",
              "name": "effectiveTime",
              "type": "uint256"
            },
            {
              "internalType": "uint256",
              "name": "tenor",
              "type": "uint256"
            },
            {
              "internalType": "uint256",
              "name": "maturity",
              "type": "uint256"
            },
            {
              "internalType": "uint256",
              "name": "exerciseTime",
              "type": "uint256"
            },
            {
              "internalType": "uint256",
              "name": "amount",
              "type": "uint256"
            },
            {
              "internalType": "uint256",
              "name": "spot",
              "type": "uint256"
            },
            {
              "internalType": "uint256",
              "name": "strike",
              "type": "uint256"
            },
            {
              "internalType": "uint256",
              "name": "volatility",
              "type": "uint256"
            },
            {
              "internalType": "uint256",
              "name": "premium",
              "type": "uint256"
            },
            {
              "internalType": "uint256",
              "name": "cost",
              "type": "uint256"
            }
          ],
          "indexed": false,
          "internalType": "struct OptionLibrary.Option",
          "name": "_option",
          "type": "tuple"
        },
        {
          "indexed": false,
          "internalType": "uint256",
          "name": "_payoff",
          "type": "uint256"
        }
      ],
      "name": "optionExercised",
      "type": "event"
    },
    {
      "anonymous": false,
      "inputs": [
        {
          "indexed": false,
          "internalType": "address",
          "name": "_purchaser",
          "type": "address"
        },
        {
          "indexed": false,
          "internalType": "uint256",
          "name": "_time",
          "type": "uint256"
        },
        {
          "indexed": false,
          "internalType": "uint256",
          "name": "_tenor",
          "type": "uint256"
        },
        {
          "indexed": false,
          "internalType": "uint256",
          "name": "_amount",
          "type": "uint256"
        },
        {
          "indexed": false,
          "internalType": "uint256",
          "name": "_cost",
          "type": "uint256"
        }
      ],
      "name": "volatilityTokenBought",
      "type": "event"
    },
    {
      "anonymous": false,
      "inputs": [
        {
          "indexed": false,
          "internalType": "address",
          "name": "_seller",
          "type": "address"
        },
        {
          "indexed": false,
          "internalType": "uint256",
          "name": "_time",
          "type": "uint256"
        },
        {
          "indexed": false,
          "internalType": "uint256",
          "name": "_tenor",
          "type": "uint256"
        },
        {
          "indexed": false,
          "internalType": "uint256",
          "name": "_amount",
          "type": "uint256"
        },
        {
          "indexed": false,
          "internalType": "uint256",
          "name": "_cost",
          "type": "uint256"
        }
      ],
      "name": "volatilityTokenSold",
      "type": "event"
    },
    {
      "inputs": [],
      "name": "ADMIN_ROLE",
      "outputs": [
        {
          "internalType": "bytes32",
          "name": "",
          "type": "bytes32"
        }
      ],
      "stateMutability": "view",
      "type": "function"
    },
    {
      "inputs": [],
      "name": "DEFAULT_ADMIN_ROLE",
      "outputs": [
        {
          "internalType": "bytes32",
          "name": "",
          "type": "bytes32"
        }
      ],
      "stateMutability": "view",
      "type": "function"
    },
    {
      "inputs": [],
      "name": "allowTrading",
      "outputs": [
        {
          "internalType": "bool",
          "name": "",
          "type": "bool"
        }
      ],
      "stateMutability": "view",
      "type": "function"
    },
    {
      "inputs": [
        {
          "internalType": "bytes32",
          "name": "role",
          "type": "bytes32"
        }
      ],
      "name": "getRoleAdmin",
      "outputs": [
        {
          "internalType": "bytes32",
          "name": "",
          "type": "bytes32"
        }
      ],
      "stateMutability": "view",
      "type": "function"
    },
    {
      "inputs": [
        {
          "internalType": "bytes32",
          "name": "role",
          "type": "bytes32"
        },
        {
          "internalType": "address",
          "name": "account",
          "type": "address"
        }
      ],
      "name": "grantRole",
      "outputs": [],
      "stateMutability": "nonpayable",
      "type": "function"
    },
    {
      "inputs": [
        {
          "internalType": "bytes32",
          "name": "role",
          "type": "bytes32"
        },
        {
          "internalType": "address",
          "name": "account",
          "type": "address"
        }
      ],
      "name": "hasRole",
      "outputs": [
        {
          "internalType": "bool",
          "name": "",
          "type": "bool"
        }
      ],
      "stateMutability": "view",
      "type": "function"
    },
    {
      "inputs": [],
      "name": "loanInterest",
      "outputs": [
        {
          "internalType": "uint256",
          "name": "",
          "type": "uint256"
        }
      ],
      "stateMutability": "view",
      "type": "function"
    },
    {
      "inputs": [],
      "name": "marketMakerAddress",
      "outputs": [
        {
          "internalType": "address",
          "name": "",
          "type": "address"
        }
      ],
      "stateMutability": "view",
      "type": "function"
    },
    {
      "inputs": [
        {
          "internalType": "bytes32",
          "name": "role",
          "type": "bytes32"
        },
        {
          "internalType": "address",
          "name": "account",
          "type": "address"
        }
      ],
      "name": "renounceRole",
      "outputs": [],
      "stateMutability": "nonpayable",
      "type": "function"
    },
    {
      "inputs": [
        {
          "internalType": "bytes32",
          "name": "role",
          "type": "bytes32"
        },
        {
          "internalType": "address",
          "name": "account",
          "type": "address"
        }
      ],
      "name": "revokeRole",
      "outputs": [],
      "stateMutability": "nonpayable",
      "type": "function"
    },
    {
      "inputs": [
        {
          "internalType": "bytes4",
          "name": "interfaceId",
          "type": "bytes4"
        }
      ],
      "name": "supportsInterface",
      "outputs": [
        {
          "internalType": "bool",
          "name": "",
          "type": "bool"
        }
      ],
      "stateMutability": "view",
      "type": "function"
    },
    {
      "inputs": [],
      "name": "vaultAddress",
      "outputs": [
        {
          "internalType": "address",
          "name": "",
          "type": "address"
        }
      ],
      "stateMutability": "view",
      "type": "function"
    },
    {
      "inputs": [],
      "name": "volRiskPremiumMaxRatio",
      "outputs": [
        {
          "internalType": "uint256",
          "name": "",
          "type": "uint256"
        }
      ],
      "stateMutability": "view",
      "type": "function"
    },
    {
      "inputs": [
        {
          "internalType": "uint256",
          "name": "",
          "type": "uint256"
        }
      ],
      "name": "volTokenAddressList",
      "outputs": [
        {
          "internalType": "address",
          "name": "",
          "type": "address"
        }
      ],
      "stateMutability": "view",
      "type": "function"
    },
    {
      "inputs": [
        {
          "internalType": "uint256",
          "name": "_tenor",
          "type": "uint256"
        },
        {
          "internalType": "uint256",
          "name": "_strike",
          "type": "uint256"
        },
        {
          "internalType": "uint256",
          "name": "_amount",
          "type": "uint256"
        },
        {
          "internalType": "enum OptionLibrary.PayoffType",
          "name": "_poType",
          "type": "uint8"
        },
        {
          "internalType": "enum OptionLibrary.OptionSide",
          "name": "_side",
          "type": "uint8"
        }
      ],
      "name": "calcCost",
      "outputs": [
        {
          "internalType": "uint256",
          "name": "",
          "type": "uint256"
        },
        {
          "internalType": "uint256",
          "name": "",
          "type": "uint256"
        },
        {
          "internalType": "uint256",
          "name": "",
          "type": "uint256"
        }
      ],
      "stateMutability": "view",
      "type": "function"
    },
    {
      "inputs": [
        {
          "internalType": "uint256",
          "name": "_tenor",
          "type": "uint256"
        },
        {
          "internalType": "uint256",
          "name": "_price",
          "type": "uint256"
        },
        {
          "internalType": "uint256",
          "name": "_strike",
          "type": "uint256"
        },
        {
          "internalType": "uint256",
          "name": "_amount",
          "type": "uint256"
        },
        {
          "internalType": "enum OptionLibrary.PayoffType",
          "name": "_poType",
          "type": "uint8"
        },
        {
          "internalType": "enum OptionLibrary.OptionSide",
          "name": "_side",
          "type": "uint8"
        }
      ],
      "name": "calcOptionCost",
      "outputs": [
        {
          "internalType": "uint256",
          "name": "_premium",
          "type": "uint256"
        },
        {
          "internalType": "uint256",
          "name": "_cost",
          "type": "uint256"
        },
        {
          "internalType": "uint256",
          "name": "_vol",
          "type": "uint256"
        }
      ],
      "stateMutability": "view",
      "type": "function"
    },
    {
      "inputs": [
        {
          "internalType": "uint256",
          "name": "_tenor",
          "type": "uint256"
        },
        {
          "internalType": "uint256",
          "name": "_strike",
          "type": "uint256"
        },
        {
          "internalType": "uint256",
          "name": "_amount",
          "type": "uint256"
        },
        {
          "internalType": "enum OptionLibrary.OptionSide",
          "name": "_side",
          "type": "uint8"
        }
      ],
      "name": "queryOptionVolatility",
      "outputs": [
        {
          "internalType": "uint256",
          "name": "_vol",
          "type": "uint256"
        }
      ],
      "stateMutability": "view",
      "type": "function"
    },
    {
      "inputs": [
        {
          "internalType": "uint256",
          "name": "_tenor",
          "type": "uint256"
        },
        {
          "internalType": "uint256",
          "name": "_strike",
          "type": "uint256"
        },
        {
          "internalType": "uint256",
          "name": "_amount",
          "type": "uint256"
        },
        {
          "internalType": "enum OptionLibrary.PayoffType",
          "name": "_poType",
          "type": "uint8"
        },
        {
          "internalType": "enum OptionLibrary.OptionSide",
          "name": "_side",
          "type": "uint8"
        },
        {
          "internalType": "uint256",
          "name": "_payInCost",
          "type": "uint256"
        }
      ],
      "name": "purchaseOption",
      "outputs": [],
      "stateMutability": "nonpayable",
      "type": "function"
    },
    {
      "inputs": [
        {
          "internalType": "uint256",
          "name": "_id",
          "type": "uint256"
        }
      ],
      "name": "getOptionPayoffValue",
      "outputs": [
        {
          "internalType": "uint256",
          "name": "_payback",
          "type": "uint256"
        }
      ],
      "stateMutability": "view",
      "type": "function"
    },
    {
      "inputs": [
        {
          "internalType": "uint256",
          "name": "_tenor",
          "type": "uint256"
        },
        {
          "internalType": "uint256",
          "name": "_amount",
          "type": "uint256"
        },
        {
          "internalType": "enum OptionLibrary.OptionSide",
          "name": "_side",
          "type": "uint8"
        }
      ],
      "name": "calcVolAmount",
      "outputs": [
        {
          "internalType": "uint256",
          "name": "_volAmount",
          "type": "uint256"
        },
        {
          "internalType": "uint256",
          "name": "_vol",
          "type": "uint256"
        },
        {
          "internalType": "uint256",
          "name": "_premium",
          "type": "uint256"
        },
        {
          "internalType": "uint256",
          "name": "_cost",
          "type": "uint256"
        },
        {
          "internalType": "uint256",
          "name": "_price",
          "type": "uint256"
        }
      ],
      "stateMutability": "view",
      "type": "function"
    },
    {
      "inputs": [
        {
          "internalType": "uint256",
          "name": "_tenor",
          "type": "uint256"
        },
        {
          "internalType": "uint256",
          "name": "_amount",
          "type": "uint256"
        },
        {
          "internalType": "uint256",
          "name": "_payInCost",
          "type": "uint256"
        }
      ],
      "name": "buyVol",
      "outputs": [],
      "stateMutability": "nonpayable",
      "type": "function"
    },
    {
      "inputs": [
        {
          "internalType": "uint256",
          "name": "_tenor",
          "type": "uint256"
        },
        {
          "internalType": "uint256",
          "name": "_amount",
          "type": "uint256"
        },
        {
          "internalType": "uint256",
          "name": "_payInVol",
          "type": "uint256"
        }
      ],
      "name": "sellVol",
      "outputs": [],
      "stateMutability": "nonpayable",
      "type": "function"
    },
    {
      "inputs": [
        {
          "internalType": "uint256",
          "name": "_tenor",
          "type": "uint256"
        },
        {
          "internalType": "uint256",
          "name": "_amount",
          "type": "uint256"
        },
        {
          "internalType": "enum OptionLibrary.PayoffType",
          "name": "_poType",
          "type": "uint8"
        },
        {
          "internalType": "uint256",
          "name": "_payInVol",
          "type": "uint256"
        }
      ],
      "name": "buyOptionInVol",
      "outputs": [],
      "stateMutability": "nonpayable",
      "type": "function"
    },
    {
      "inputs": [
        {
          "internalType": "uint256",
          "name": "_tenor",
          "type": "uint256"
        },
        {
          "internalType": "uint256",
          "name": "_amount",
          "type": "uint256"
        },
        {
          "internalType": "enum OptionLibrary.PayoffType",
          "name": "_poType",
          "type": "uint8"
        },
        {
          "internalType": "uint256",
          "name": "_payInCost",
          "type": "uint256"
        }
      ],
      "name": "sellOptionInVol",
      "outputs": [],
      "stateMutability": "nonpayable",
      "type": "function"
    },
    {
      "inputs": [
        {
          "internalType": "uint256",
          "name": "_tenor",
          "type": "uint256"
        },
        {
          "internalType": "address",
          "name": "_tokenAddress",
          "type": "address"
        }
      ],
      "name": "addVolToken",
      "outputs": [],
      "stateMutability": "nonpayable",
      "type": "function"
    },
    {
      "inputs": [
        {
          "internalType": "uint256",
          "name": "_tenor",
          "type": "uint256"
        }
      ],
      "name": "removeVolToken",
      "outputs": [],
      "stateMutability": "nonpayable",
      "type": "function"
    },
    {
      "inputs": [
        {
          "internalType": "uint256",
          "name": "_loanInterest",
          "type": "uint256"
        }
      ],
      "name": "resetLoanRate",
      "outputs": [],
      "stateMutability": "nonpayable",
      "type": "function"
    },
    {
      "inputs": [
        {
          "internalType": "uint256",
          "name": "_newRatio",
          "type": "uint256"
        }
      ],
      "name": "resetRiskPremiumMaxRatio",
      "outputs": [],
      "stateMutability": "nonpayable",
      "type": "function"
    },
    {
      "inputs": [
        {
          "internalType": "bool",
          "name": "_allowTrading",
          "type": "bool"
        }
      ],
      "name": "resetTrading",
      "outputs": [],
      "stateMutability": "nonpayable",
      "type": "function"
    }
  ],
  "bytecode": "0x60806040526718fae27693b4000060065560006007556001600860006101000a81548160ff0219169083151502179055503480156200003d57600080fd5b5060405162005c5d38038062005c5d833981810160405281019062000063919062000399565b620000786000801b33620001b660201b60201c565b620000aa7fa49807205ce4d355092ef5a8a18f56e8913cf4a201fbe287825b095693c2177533620001b660201b60201c565b80600160006101000a81548173ffffffffffffffffffffffffffffffffffffffff021916908373ffffffffffffffffffffffffffffffffffffffff16021790555080600560006101000a81548173ffffffffffffffffffffffffffffffffffffffff021916908373ffffffffffffffffffffffffffffffffffffffff16021790555081600260006101000a81548173ffffffffffffffffffffffffffffffffffffffff021916908373ffffffffffffffffffffffffffffffffffffffff16021790555081600460006101000a81548173ffffffffffffffffffffffffffffffffffffffff021916908373ffffffffffffffffffffffffffffffffffffffff1602179055505050620003e0565b620001c88282620001cc60201b60201c565b5050565b620001de8282620002bd60201b60201c565b620002b957600160008084815260200190815260200160002060000160008373ffffffffffffffffffffffffffffffffffffffff1673ffffffffffffffffffffffffffffffffffffffff16815260200190815260200160002060006101000a81548160ff0219169083151502179055506200025e6200032760201b60201c565b73ffffffffffffffffffffffffffffffffffffffff168173ffffffffffffffffffffffffffffffffffffffff16837f2f8788117e7eff1d82e926ec794901d17c78024a50270940304540a733656f0d60405160405180910390a45b5050565b600080600084815260200190815260200160002060000160008373ffffffffffffffffffffffffffffffffffffffff1673ffffffffffffffffffffffffffffffffffffffff16815260200190815260200160002060009054906101000a900460ff16905092915050565b600033905090565b600080fd5b600073ffffffffffffffffffffffffffffffffffffffff82169050919050565b6000620003618262000334565b9050919050565b620003738162000354565b81146200037f57600080fd5b50565b600081519050620003938162000368565b92915050565b60008060408385031215620003b357620003b26200032f565b5b6000620003c38582860162000382565b9250506020620003d68582860162000382565b9150509250929050565b61586d80620003f06000396000f3fe608060405234801561001057600080fd5b50600436106101cf5760003560e01c80636a7d116f11610104578063a217fddf116100a2578063d547741f11610071578063d547741f14610530578063dab243291461054c578063e327c24814610568578063edf0bec61461059a576101cf565b8063a217fddf146104ba578063a34a1e4d146104d8578063a7292ea4146104f4578063cc91058814610512576101cf565b806375b8452b116100de57806375b8452b1461041e57806385e6be8b146104525780638d4939c61461046e57806391d148541461048a576101cf565b80636a7d116f146103b45780637188157e146103e457806375b238fc14610400576101cf565b80632f2ff15d11610171578063430bf08a1161014b578063430bf08a1461032c5780634b7a58fb1461034a5780634d937da91461036657806368fefdfb14610382576101cf565b80632f2ff15d146102c457806336568abe146102e057806340d6eaab146102fc576101cf565b80630c64307d116101ad5780630c64307d1461023e578063130dab6a1461025a578063248a9ca3146102765780632e5b4c43146102a6576101cf565b806301ffc9a7146101d45780630227ac83146102045780630875c6b114610220575b600080fd5b6101ee60048036038101906101e99190613bc5565b6105ca565b6040516101fb9190613c0d565b60405180910390f35b61021e60048036038101906102199190613cbc565b610644565b005b6102286108ec565b6040516102359190613d0b565b60405180910390f35b61025860048036038101906102539190613d26565b6108f2565b005b610274600480360381019061026f9190613d26565b61092f565b005b610290600480360381019061028b9190613d89565b6109b8565b60405161029d9190613dc5565b60405180910390f35b6102ae6109d7565b6040516102bb9190613c0d565b60405180910390f35b6102de60048036038101906102d99190613de0565b6109ea565b005b6102fa60048036038101906102f59190613de0565b610a13565b005b61031660048036038101906103119190613d26565b610a96565b6040516103239190613d0b565b60405180910390f35b610334610b3e565b6040516103419190613e2f565b60405180910390f35b610364600480360381019061035f9190613e4a565b610b64565b005b610380600480360381019061037b9190613ec2565b610e41565b005b61039c60048036038101906103979190613f4e565b6114a1565b6040516103ab93929190613fc9565b60405180910390f35b6103ce60048036038101906103c99190614000565b61155a565b6040516103db9190613d0b565b60405180910390f35b6103fe60048036038101906103f99190613ec2565b61185e565b005b610408611ea8565b6040516104159190613dc5565b60405180910390f35b61043860048036038101906104339190614067565b611ecc565b6040516104499594939291906140ba565b60405180910390f35b61046c60048036038101906104679190613d26565b612156565b005b61048860048036038101906104839190614139565b612193565b005b6104a4600480360381019061049f9190613de0565b6121c6565b6040516104b19190613c0d565b60405180910390f35b6104c2612230565b6040516104cf9190613dc5565b60405180910390f35b6104f260048036038101906104ed9190614166565b612237565b005b6104fc612727565b6040516105099190613d0b565b60405180910390f35b61051a61272d565b6040516105279190613e2f565b60405180910390f35b61054a60048036038101906105459190613de0565b612753565b005b61056660048036038101906105619190613e4a565b61277c565b005b610582600480360381019061057d91906141f3565b612ba3565b60405161059193929190613fc9565b60405180910390f35b6105b460048036038101906105af9190613d26565b612e63565b6040516105c19190613e2f565b60405180910390f35b60007f7965db0b000000000000000000000000000000000000000000000000000000007bffffffffffffffffffffffffffffffffffffffffffffffffffffffff1916827bffffffffffffffffffffffffffffffffffffffffffffffffffffffff1916148061063d575061063c82612e96565b5b9050919050565b7fa49807205ce4d355092ef5a8a18f56e8913cf4a201fbe287825b095693c2177561067681610671612f00565b612f08565b826003600085815260200190815260200160002060009054906101000a900473ffffffffffffffffffffffffffffffffffffffff1673ffffffffffffffffffffffffffffffffffffffff1663a15612d16040518163ffffffff1660e01b8152600401602060405180830381865afa1580156106f5573d6000803e3d6000fd5b505050506040513d601f19601f820116820180604052508101906107199190614295565b1480156108565750600560009054906101000a900473ffffffffffffffffffffffffffffffffffffffff1673ffffffffffffffffffffffffffffffffffffffff1663cca494736040518163ffffffff1660e01b8152600401602060405180830381865afa15801561078e573d6000803e3d6000fd5b505050506040513d601f19601f820116820180604052508101906107b291906142d7565b6003600085815260200190815260200160002060009054906101000a900473ffffffffffffffffffffffffffffffffffffffff1673ffffffffffffffffffffffffffffffffffffffff1663cca494736040518163ffffffff1660e01b8152600401602060405180830381865afa158015610830573d6000803e3d6000fd5b505050506040513d601f19601f8201168201806040525081019061085491906142d7565b145b610895576040517f08c379a000000000000000000000000000000000000000000000000000000000815260040161088c90614361565b60405180910390fd5b816003600085815260200190815260200160002060006101000a81548173ffffffffffffffffffffffffffffffffffffffff021916908373ffffffffffffffffffffffffffffffffffffffff160217905550505050565b60065481565b7fa49807205ce4d355092ef5a8a18f56e8913cf4a201fbe287825b095693c217756109248161091f612f00565b612f08565b816007819055505050565b7fa49807205ce4d355092ef5a8a18f56e8913cf4a201fbe287825b095693c217756109618161095c612f00565b612f08565b60006003600084815260200190815260200160002060006101000a81548173ffffffffffffffffffffffffffffffffffffffff021916908373ffffffffffffffffffffffffffffffffffffffff1602179055505050565b6000806000838152602001908152602001600020600101549050919050565b600860009054906101000a900460ff1681565b6109f3826109b8565b610a04816109ff612f00565b612f08565b610a0e8383612fa5565b505050565b610a1b612f00565b73ffffffffffffffffffffffffffffffffffffffff168173ffffffffffffffffffffffffffffffffffffffff1614610a88576040517f08c379a0000000000000000000000000000000000000000000000000000000008152600401610a7f906143f3565b60405180910390fd5b610a928282613085565b5050565b6000600560009054906101000a900473ffffffffffffffffffffffffffffffffffffffff1673ffffffffffffffffffffffffffffffffffffffff166385ae10e6836040518263ffffffff1660e01b8152600401610af39190613d0b565b6040805180830381865afa158015610b0f573d6000803e3d6000fd5b505050506040513d601f19601f82011682018060405250810190610b339190614413565b905080915050919050565b600160009054906101000a900473ffffffffffffffffffffffffffffffffffffffff1681565b600860009054906101000a900460ff16610bb3576040517f08c379a0000000000000000000000000000000000000000000000000000000008152600401610baa9061449f565b60405180910390fd5b600080610bc285856000611ecc565b5050925050915080831015610c0c576040517f08c379a0000000000000000000000000000000000000000000000000000000008152600401610c039061450b565b60405180910390fd5b600560009054906101000a900473ffffffffffffffffffffffffffffffffffffffff1673ffffffffffffffffffffffffffffffffffffffff1663cb4c86b76040518163ffffffff1660e01b8152600401602060405180830381865afa158015610c79573d6000803e3d6000fd5b505050506040513d601f19601f82011682018060405250810190610c9d9190614540565b73ffffffffffffffffffffffffffffffffffffffff166323b872dd3330846040518463ffffffff1660e01b8152600401610cd99392919061456d565b6020604051808303816000875af1158015610cf8573d6000803e3d6000fd5b505050506040513d601f19601f82011682018060405250810190610d1c91906145b9565b610d5b576040517f08c379a0000000000000000000000000000000000000000000000000000000008152600401610d5290614632565b60405180910390fd5b6003600086815260200190815260200160002060009054906101000a900473ffffffffffffffffffffffffffffffffffffffff1673ffffffffffffffffffffffffffffffffffffffff166340c10f1933846040518363ffffffff1660e01b8152600401610dc9929190614652565b600060405180830381600087803b158015610de357600080fd5b505af1158015610df7573d6000803e3d6000fd5b505050507f41d69e33fd598418aa9a6a5462a34bc55033968f3e4060ef4721e770058cbbb93342878585604051610e3295949392919061467b565b60405180910390a15050505050565b600860009054906101000a900460ff16610e90576040517f08c379a0000000000000000000000000000000000000000000000000000000008152600401610e879061449f565b60405180910390fd5b6000806000806000610ea489896001611ecc565b9450945094509450945060008284610ebc91906146fd565b905080871015610f01576040517f08c379a0000000000000000000000000000000000000000000000000000000008152600401610ef89061450b565b60405180910390fd5b600560009054906101000a900473ffffffffffffffffffffffffffffffffffffffff1673ffffffffffffffffffffffffffffffffffffffff1663cb4c86b76040518163ffffffff1660e01b8152600401602060405180830381865afa158015610f6e573d6000803e3d6000fd5b505050506040513d601f19601f82011682018060405250810190610f929190614540565b73ffffffffffffffffffffffffffffffffffffffff166323b872dd33600260009054906101000a900473ffffffffffffffffffffffffffffffffffffffff16866040518463ffffffff1660e01b8152600401610ff09392919061456d565b6020604051808303816000875af115801561100f573d6000803e3d6000fd5b505050506040513d601f19601f8201168201806040525081019061103391906145b9565b611072576040517f08c379a00000000000000000000000000000000000000000000000000000000081526004016110699061479f565b60405180910390fd5b600560009054906101000a900473ffffffffffffffffffffffffffffffffffffffff1673ffffffffffffffffffffffffffffffffffffffff1663cb4c86b76040518163ffffffff1660e01b8152600401602060405180830381865afa1580156110df573d6000803e3d6000fd5b505050506040513d601f19601f820116820180604052508101906111039190614540565b73ffffffffffffffffffffffffffffffffffffffff166323b872dd3330876040518463ffffffff1660e01b815260040161113f9392919061456d565b6020604051808303816000875af115801561115e573d6000803e3d6000fd5b505050506040513d601f19601f8201168201806040525081019061118291906145b9565b6111c1576040517f08c379a00000000000000000000000000000000000000000000000000000000081526004016111b89061479f565b60405180910390fd5b6000600560009054906101000a900473ffffffffffffffffffffffffffffffffffffffff1673ffffffffffffffffffffffffffffffffffffffff1663b5310ff98c858d8d60018b8b8b8f336040518b63ffffffff1660e01b81526004016112319a9998979695949392919061487e565b6020604051808303816000875af1158015611250573d6000803e3d6000fd5b505050506040513d601f19601f820116820180604052508101906112749190614295565b9050600360008c815260200190815260200160002060009054906101000a900473ffffffffffffffffffffffffffffffffffffffff1673ffffffffffffffffffffffffffffffffffffffff166340c10f1933896040518363ffffffff1660e01b81526004016112e4929190614652565b600060405180830381600087803b1580156112fe57600080fd5b505af1158015611312573d6000803e3d6000fd5b50505050600560009054906101000a900473ffffffffffffffffffffffffffffffffffffffff1673ffffffffffffffffffffffffffffffffffffffff166324b4110e82336040518363ffffffff1660e01b815260040161137392919061491a565b600060405180830381600087803b15801561138d57600080fd5b505af11580156113a1573d6000803e3d6000fd5b505050503373ffffffffffffffffffffffffffffffffffffffff167f639bcb68083836b73ad6cd444bd790e8421c4b363635459fbfff715dc24fa855600560009054906101000a900473ffffffffffffffffffffffffffffffffffffffff1673ffffffffffffffffffffffffffffffffffffffff16631ce5e9a6846040518263ffffffff1660e01b81526004016114389190613d0b565b61020060405180830381865afa158015611456573d6000803e3d6000fd5b505050506040513d601f19601f8201168201806040525081019061147a9190614b9d565b89600160405161148c93929190614d99565b60405180910390a25050505050505050505050565b600080600080600560009054906101000a900473ffffffffffffffffffffffffffffffffffffffff1673ffffffffffffffffffffffffffffffffffffffff1663b0667cf86040518163ffffffff1660e01b81526004016040805180830381865afa158015611513573d6000803e3d6000fd5b505050506040513d601f19601f820116820180604052508101906115379190614413565b50905061154889828a8a8a8a612ba3565b93509350935050955095509592505050565b6000600560009054906101000a900473ffffffffffffffffffffffffffffffffffffffff1673ffffffffffffffffffffffffffffffffffffffff1663cfc2dc20866040518263ffffffff1660e01b81526004016115b79190613d0b565b602060405180830381865afa1580156115d4573d6000803e3d6000fd5b505050506040513d601f19601f820116820180604052508101906115f89190614295565b90506000600560009054906101000a900473ffffffffffffffffffffffffffffffffffffffff1673ffffffffffffffffffffffffffffffffffffffff1663b0667cf86040518163ffffffff1660e01b81526004016040805180830381865afa158015611668573d6000803e3d6000fd5b505050506040513d601f19601f8201168201806040525081019061168c9190614413565b509050600460009054906101000a900473ffffffffffffffffffffffffffffffffffffffff1673ffffffffffffffffffffffffffffffffffffffff166363447902600160006040518363ffffffff1660e01b81526004016116ee929190614dd3565b602060405180830381865afa15801561170b573d6000803e3d6000fd5b505050506040513d601f19601f8201168201806040525081019061172f9190614295565b6117a6858373__OptionLibrary_________________________63fd9b87636040518163ffffffff1660e01b8152600401602060405180830381865af415801561177d573d6000803e3d6000fd5b505050506040513d601f19601f820116820180604052508101906117a19190614295565b613166565b11156117e7576040517f08c379a00000000000000000000000000000000000000000000000000000000081526004016117de90614e48565b60405180910390fd5b60006117f68284888888613262565b9050600081846118069190614e72565b13611846576040517f08c379a000000000000000000000000000000000000000000000000000000000815260040161183d90614f52565b60405180910390fd5b80836118529190614e72565b92505050949350505050565b600860009054906101000a900460ff166118ad576040517f08c379a00000000000000000000000000000000000000000000000000000000081526004016118a49061449f565b60405180910390fd5b60008060008060006118c189896000611ecc565b945094509450945094508486101561190e576040517f08c379a00000000000000000000000000000000000000000000000000000000081526004016119059061450b565b60405180910390fd5b82600560009054906101000a900473ffffffffffffffffffffffffffffffffffffffff1673ffffffffffffffffffffffffffffffffffffffff1663cb4c86b76040518163ffffffff1660e01b8152600401602060405180830381865afa15801561197c573d6000803e3d6000fd5b505050506040513d601f19601f820116820180604052508101906119a09190614540565b73ffffffffffffffffffffffffffffffffffffffff166370a08231306040518263ffffffff1660e01b81526004016119d89190613e2f565b602060405180830381865afa1580156119f5573d6000803e3d6000fd5b505050506040513d601f19601f82011682018060405250810190611a199190614295565b1015611a5a576040517f08c379a0000000000000000000000000000000000000000000000000000000008152600401611a5190614fbe565b60405180910390fd5b600360008a815260200190815260200160002060009054906101000a900473ffffffffffffffffffffffffffffffffffffffff1673ffffffffffffffffffffffffffffffffffffffff16639dc29fac33876040518363ffffffff1660e01b8152600401611ac8929190614652565b600060405180830381600087803b158015611ae257600080fd5b505af1158015611af6573d6000803e3d6000fd5b505050506000600560009054906101000a900473ffffffffffffffffffffffffffffffffffffffff1673ffffffffffffffffffffffffffffffffffffffff1663b5310ff98b848c8c60008a8a8a8e336040518b63ffffffff1660e01b8152600401611b6a9a9998979695949392919061487e565b6020604051808303816000875af1158015611b89573d6000803e3d6000fd5b505050506040513d601f19601f82011682018060405250810190611bad9190614295565b9050600560009054906101000a900473ffffffffffffffffffffffffffffffffffffffff1673ffffffffffffffffffffffffffffffffffffffff1663cb4c86b76040518163ffffffff1660e01b8152600401602060405180830381865afa158015611c1c573d6000803e3d6000fd5b505050506040513d601f19601f82011682018060405250810190611c409190614540565b73ffffffffffffffffffffffffffffffffffffffff1663a9059cbb600260009054906101000a900473ffffffffffffffffffffffffffffffffffffffff16866040518363ffffffff1660e01b8152600401611c9c929190614652565b6020604051808303816000875af1158015611cbb573d6000803e3d6000fd5b505050506040513d601f19601f82011682018060405250810190611cdf91906145b9565b611d1e576040517f08c379a0000000000000000000000000000000000000000000000000000000008152600401611d159061479f565b60405180910390fd5b600560009054906101000a900473ffffffffffffffffffffffffffffffffffffffff1673ffffffffffffffffffffffffffffffffffffffff166324b4110e82336040518363ffffffff1660e01b8152600401611d7b92919061491a565b600060405180830381600087803b158015611d9557600080fd5b505af1158015611da9573d6000803e3d6000fd5b505050503373ffffffffffffffffffffffffffffffffffffffff167f639bcb68083836b73ad6cd444bd790e8421c4b363635459fbfff715dc24fa855600560009054906101000a900473ffffffffffffffffffffffffffffffffffffffff1673ffffffffffffffffffffffffffffffffffffffff16631ce5e9a6846040518263ffffffff1660e01b8152600401611e409190613d0b565b61020060405180830381865afa158015611e5e573d6000803e3d6000fd5b505050506040513d601f19601f82011682018060405250810190611e829190614b9d565b886001604051611e9493929190614d99565b60405180910390a250505050505050505050565b7fa49807205ce4d355092ef5a8a18f56e8913cf4a201fbe287825b095693c2177581565b60008060008060008073ffffffffffffffffffffffffffffffffffffffff16600360008a815260200190815260200160002060009054906101000a900473ffffffffffffffffffffffffffffffffffffffff1673ffffffffffffffffffffffffffffffffffffffff161415611f76576040517f08c379a0000000000000000000000000000000000000000000000000000000008152600401611f6d9061502a565b60405180910390fd5b600560009054906101000a900473ffffffffffffffffffffffffffffffffffffffff1673ffffffffffffffffffffffffffffffffffffffff1663b0667cf86040518163ffffffff1660e01b81526004016040805180830381865afa158015611fe2573d6000803e3d6000fd5b505050506040513d601f19601f820116820180604052508101906120069190614413565b508091505061201a8882838a60008b612ba3565b80965081945082955050505073__MarketLibrary_________________________638170ce806120b78573__OptionLibrary_________________________63fd9b87636040518163ffffffff1660e01b8152600401602060405180830381865af415801561208d573d6000803e3d6000fd5b505050506040513d601f19601f820116820180604052508101906120b19190614295565b88613166565b600360008c815260200190815260200160002060009054906101000a900473ffffffffffffffffffffffffffffffffffffffff166040518363ffffffff1660e01b8152600401612108929190615068565b602060405180830381865af4158015612125573d6000803e3d6000fd5b505050506040513d601f19601f820116820180604052508101906121499190614295565b9450939792965093509350565b7fa49807205ce4d355092ef5a8a18f56e8913cf4a201fbe287825b095693c2177561218881612183612f00565b612f08565b816006819055505050565b6000801b6121a8816121a3612f00565b612f08565b81600860006101000a81548160ff0219169083151502179055505050565b600080600084815260200190815260200160002060000160008373ffffffffffffffffffffffffffffffffffffffff1673ffffffffffffffffffffffffffffffffffffffff16815260200190815260200160002060009054906101000a900460ff16905092915050565b6000801b81565b600860009054906101000a900460ff16612286576040517f08c379a000000000000000000000000000000000000000000000000000000000815260040161227d9061449f565b60405180910390fd5b6000600560009054906101000a900473ffffffffffffffffffffffffffffffffffffffff1673ffffffffffffffffffffffffffffffffffffffff1663b0667cf86040518163ffffffff1660e01b81526004016040805180830381865afa1580156122f4573d6000803e3d6000fd5b505050506040513d601f19601f820116820180604052508101906123189190614413565b509050600080600061232e8a858b8b8b8b612ba3565b92509250925081851015612377576040517f08c379a000000000000000000000000000000000000000000000000000000000815260040161236e906150dd565b60405180910390fd5b6000600560009054906101000a900473ffffffffffffffffffffffffffffffffffffffff1673ffffffffffffffffffffffffffffffffffffffff1663b5310ff98c8c8c8c8c8a8a8d8b336040518b63ffffffff1660e01b81526004016123e69a9998979695949392919061487e565b6020604051808303816000875af1158015612405573d6000803e3d6000fd5b505050506040513d601f19601f820116820180604052508101906124299190614295565b9050600560009054906101000a900473ffffffffffffffffffffffffffffffffffffffff1673ffffffffffffffffffffffffffffffffffffffff1663cb4c86b76040518163ffffffff1660e01b8152600401602060405180830381865afa158015612498573d6000803e3d6000fd5b505050506040513d601f19601f820116820180604052508101906124bc9190614540565b73ffffffffffffffffffffffffffffffffffffffff166323b872dd33600260009054906101000a900473ffffffffffffffffffffffffffffffffffffffff16896040518463ffffffff1660e01b815260040161251a9392919061456d565b6020604051808303816000875af1158015612539573d6000803e3d6000fd5b505050506040513d601f19601f8201168201806040525081019061255d91906145b9565b61259c576040517f08c379a000000000000000000000000000000000000000000000000000000000815260040161259390615149565b60405180910390fd5b600560009054906101000a900473ffffffffffffffffffffffffffffffffffffffff1673ffffffffffffffffffffffffffffffffffffffff166324b4110e82336040518363ffffffff1660e01b81526004016125f992919061491a565b600060405180830381600087803b15801561261357600080fd5b505af1158015612627573d6000803e3d6000fd5b505050503373ffffffffffffffffffffffffffffffffffffffff167f639bcb68083836b73ad6cd444bd790e8421c4b363635459fbfff715dc24fa855600560009054906101000a900473ffffffffffffffffffffffffffffffffffffffff1673ffffffffffffffffffffffffffffffffffffffff16631ce5e9a6846040518263ffffffff1660e01b81526004016126be9190613d0b565b61020060405180830381865afa1580156126dc573d6000803e3d6000fd5b505050506040513d601f19601f820116820180604052508101906127009190614b9d565b88600060405161271293929190614d99565b60405180910390a25050505050505050505050565b60075481565b600260009054906101000a900473ffffffffffffffffffffffffffffffffffffffff1681565b61275c826109b8565b61276d81612768612f00565b612f08565b6127778383613085565b505050565b600860009054906101000a900460ff166127cb576040517f08c379a00000000000000000000000000000000000000000000000000000000081526004016127c29061449f565b60405180910390fd5b6000806127da85856001611ecc565b5050925050915081831015612824576040517f08c379a000000000000000000000000000000000000000000000000000000000815260040161281b9061450b565b60405180910390fd5b80600560009054906101000a900473ffffffffffffffffffffffffffffffffffffffff1673ffffffffffffffffffffffffffffffffffffffff1663cb4c86b76040518163ffffffff1660e01b8152600401602060405180830381865afa158015612892573d6000803e3d6000fd5b505050506040513d601f19601f820116820180604052508101906128b69190614540565b73ffffffffffffffffffffffffffffffffffffffff166370a08231306040518263ffffffff1660e01b81526004016128ee9190613e2f565b602060405180830381865afa15801561290b573d6000803e3d6000fd5b505050506040513d601f19601f8201168201806040525081019061292f9190614295565b1015612970576040517f08c379a000000000000000000000000000000000000000000000000000000000815260040161296790614fbe565b60405180910390fd5b6003600086815260200190815260200160002060009054906101000a900473ffffffffffffffffffffffffffffffffffffffff1673ffffffffffffffffffffffffffffffffffffffff16639dc29fac33846040518363ffffffff1660e01b81526004016129de929190614652565b600060405180830381600087803b1580156129f857600080fd5b505af1158015612a0c573d6000803e3d6000fd5b50505050600560009054906101000a900473ffffffffffffffffffffffffffffffffffffffff1673ffffffffffffffffffffffffffffffffffffffff1663cb4c86b76040518163ffffffff1660e01b8152600401602060405180830381865afa158015612a7d573d6000803e3d6000fd5b505050506040513d601f19601f82011682018060405250810190612aa19190614540565b73ffffffffffffffffffffffffffffffffffffffff1663a9059cbb33836040518363ffffffff1660e01b8152600401612adb929190614652565b6020604051808303816000875af1158015612afa573d6000803e3d6000fd5b505050506040513d601f19601f82011682018060405250810190612b1e91906145b9565b612b5d576040517f08c379a0000000000000000000000000000000000000000000000000000000008152600401612b549061479f565b60405180910390fd5b7f78dd81a4822884ab6551f5b2dd2a9718e78d150f1a178a3a5bdf9ed45d81c1c83342878585604051612b9495949392919061467b565b60405180910390a15050505050565b6000806000612bb48988888761155a565b905073__OptionLibrary_________________________6390829f91898989858a8a6040518763ffffffff1660e01b8152600401612bf796959493929190615187565b6040805180830381865af4158015612c13573d6000803e3d6000fd5b505050506040513d601f19601f82011682018060405250810190612c379190614413565b809350819450505073__MarketLibrary_________________________638170ce8084600560009054906101000a900473ffffffffffffffffffffffffffffffffffffffff1673ffffffffffffffffffffffffffffffffffffffff1663cb4c86b76040518163ffffffff1660e01b8152600401602060405180830381865afa158015612cc7573d6000803e3d6000fd5b505050506040513d601f19601f82011682018060405250810190612ceb9190614540565b6040518363ffffffff1660e01b8152600401612d08929190615068565b602060405180830381865af4158015612d25573d6000803e3d6000fd5b505050506040513d601f19601f82011682018060405250810190612d499190614295565b925073__MarketLibrary_________________________638170ce8083600560009054906101000a900473ffffffffffffffffffffffffffffffffffffffff1673ffffffffffffffffffffffffffffffffffffffff1663cb4c86b76040518163ffffffff1660e01b8152600401602060405180830381865afa158015612dd3573d6000803e3d6000fd5b505050506040513d601f19601f82011682018060405250810190612df79190614540565b6040518363ffffffff1660e01b8152600401612e14929190615068565b602060405180830381865af4158015612e31573d6000803e3d6000fd5b505050506040513d601f19601f82011682018060405250810190612e559190614295565b915096509650969350505050565b60036020528060005260406000206000915054906101000a900473ffffffffffffffffffffffffffffffffffffffff1681565b60007f01ffc9a7000000000000000000000000000000000000000000000000000000007bffffffffffffffffffffffffffffffffffffffffffffffffffffffff1916827bffffffffffffffffffffffffffffffffffffffffffffffffffffffff1916149050919050565b600033905090565b612f1282826121c6565b612fa157612f378173ffffffffffffffffffffffffffffffffffffffff166014613637565b612f458360001c6020613637565b604051602001612f569291906152fa565b6040516020818303038152906040526040517f08c379a0000000000000000000000000000000000000000000000000000000008152600401612f98919061536d565b60405180910390fd5b5050565b612faf82826121c6565b61308157600160008084815260200190815260200160002060000160008373ffffffffffffffffffffffffffffffffffffffff1673ffffffffffffffffffffffffffffffffffffffff16815260200190815260200160002060006101000a81548160ff021916908315150217905550613026612f00565b73ffffffffffffffffffffffffffffffffffffffff168173ffffffffffffffffffffffffffffffffffffffff16837f2f8788117e7eff1d82e926ec794901d17c78024a50270940304540a733656f0d60405160405180910390a45b5050565b61308f82826121c6565b1561316257600080600084815260200190815260200160002060000160008373ffffffffffffffffffffffffffffffffffffffff1673ffffffffffffffffffffffffffffffffffffffff16815260200190815260200160002060006101000a81548160ff021916908315150217905550613107612f00565b73ffffffffffffffffffffffffffffffffffffffff168173ffffffffffffffffffffffffffffffffffffffff16837ff6391f5c32d9c69d2a47ea670b442974b53935d1edc7fd64eb21e047a839171b60405160405180910390a45b5050565b6000806000801985870985870292508281108382030391505060008114156131a1576000841161319557600080fd5b8382049250505061325b565b8084116131ad57600080fd5b60008486880990508281118203915080830392506000856001877fffffffffffffffffffffffffffffffffffffffffffffffffffffffffffffffff0301169050808604955080840493506001818260000304019050808302841793506000600287600302189050808702600203810290508087026002038102905080870260020381029050808702600203810290508087026002038102905080870260020381029050808502955050505050505b9392505050565b60008061338973__OptionLibrary_________________________639932b2be898a8a6040518463ffffffff1660e01b81526004016132a39392919061538f565b602060405180830381865af41580156132c0573d6000803e3d6000fd5b505050506040513d601f19601f820116820180604052508101906132e49190614295565b600460009054906101000a900473ffffffffffffffffffffffffffffffffffffffff1673ffffffffffffffffffffffffffffffffffffffff1663634479026000806040518363ffffffff1660e01b8152600401613342929190614dd3565b602060405180830381865afa15801561335f573d6000803e3d6000fd5b505050506040513d601f19601f820116820180604052508101906133839190614295565b89613166565b90506000600560009054906101000a900473ffffffffffffffffffffffffffffffffffffffff1673ffffffffffffffffffffffffffffffffffffffff16636fe440316040518163ffffffff1660e01b8152600401602060405180830381865afa1580156133fa573d6000803e3d6000fd5b505050506040513d601f19601f8201168201806040525081019061341e91906153f2565b90506000600180811115613435576134346147bf565b5b856001811115613448576134476147bf565b5b14613454576001613476565b7fffffffffffffffffffffffffffffffffffffffffffffffffffffffffffffffff5b61356873__OptionLibrary_________________________639932b2be8c8b8d6040518463ffffffff1660e01b81526004016134b49392919061538f565b602060405180830381865af41580156134d1573d6000803e3d6000fd5b505050506040513d601f19601f820116820180604052508101906134f59190614295565b8873__OptionLibrary_________________________63fd9b87636040518163ffffffff1660e01b8152600401602060405180830381865af415801561353f573d6000803e3d6000fd5b505050506040513d601f19601f820116820180604052508101906135639190614295565b613166565b613572919061541f565b8261357d9190614e72565b905060006135fa8960065473__OptionLibrary_________________________63fd9b87636040518163ffffffff1660e01b8152600401602060405180830381865af41580156135d1573d6000803e3d6000fd5b505050506040513d601f19601f820116820180604052508101906135f59190614295565b613166565b90506002613609858484613873565b613614868685613873565b61361e9190614e72565b6136289190615565565b94505050505095945050505050565b60606000600283600261364a91906155cf565b61365491906146fd565b67ffffffffffffffff81111561366d5761366c614959565b5b6040519080825280601f01601f19166020018201604052801561369f5781602001600182028036833780820191505090505b5090507f3000000000000000000000000000000000000000000000000000000000000000816000815181106136d7576136d6615629565b5b60200101907effffffffffffffffffffffffffffffffffffffffffffffffffffffffffffff1916908160001a9053507f78000000000000000000000000000000000000000000000000000000000000008160018151811061373b5761373a615629565b5b60200101907effffffffffffffffffffffffffffffffffffffffffffffffffffffffffffff1916908160001a9053506000600184600261377b91906155cf565b61378591906146fd565b90505b6001811115613825577f3031323334353637383961626364656600000000000000000000000000000000600f8616601081106137c7576137c6615629565b5b1a60f81b8282815181106137de576137dd615629565b5b60200101907effffffffffffffffffffffffffffffffffffffffffffffffffffffffffffff1916908160001a905350600485901c94508061381e90615658565b9050613788565b5060008414613869576040517f08c379a0000000000000000000000000000000000000000000000000000000008152600401613860906156ce565b60405180910390fd5b8091505092915050565b60008073__OptionLibrary_________________________63fd9b87636040518163ffffffff1660e01b8152600401602060405180830381865af41580156138bf573d6000803e3d6000fd5b505050506040513d601f19601f820116820180604052508101906138e39190614295565b9050600084121561397c5761396e846138fb906156ee565b73__OptionLibrary_________________________63fd9b87636040518163ffffffff1660e01b8152600401602060405180830381865af4158015613944573d6000803e3d6000fd5b505050506040513d601f19601f820116820180604052508101906139689190614295565b87613166565b816139799190614e72565b90505b6000841315613a0a576139fc8473__OptionLibrary_________________________63fd9b87636040518163ffffffff1660e01b8152600401602060405180830381865af41580156139d2573d6000803e3d6000fd5b505050506040513d601f19601f820116820180604052508101906139f69190614295565b87613166565b81613a079190615737565b90505b60008112158015613a93575073__OptionLibrary_________________________63fd9b87636040518163ffffffff1660e01b8152600401602060405180830381865af4158015613a5f573d6000803e3d6000fd5b505050506040513d601f19601f82011682018060405250810190613a839190614295565b6002613a8f91906155cf565b8113155b613ad2576040517f08c379a0000000000000000000000000000000000000000000000000000000008152600401613ac990615817565b60405180910390fd5b82613b4a8473__OptionLibrary_________________________63fd9b87636040518163ffffffff1660e01b8152600401602060405180830381865af4158015613b20573d6000803e3d6000fd5b505050506040513d601f19601f82011682018060405250810190613b449190614295565b84613166565b613b549190615737565b9150509392505050565b6000604051905090565b600080fd5b60007fffffffff0000000000000000000000000000000000000000000000000000000082169050919050565b613ba281613b6d565b8114613bad57600080fd5b50565b600081359050613bbf81613b99565b92915050565b600060208284031215613bdb57613bda613b68565b5b6000613be984828501613bb0565b91505092915050565b60008115159050919050565b613c0781613bf2565b82525050565b6000602082019050613c226000830184613bfe565b92915050565b6000819050919050565b613c3b81613c28565b8114613c4657600080fd5b50565b600081359050613c5881613c32565b92915050565b600073ffffffffffffffffffffffffffffffffffffffff82169050919050565b6000613c8982613c5e565b9050919050565b613c9981613c7e565b8114613ca457600080fd5b50565b600081359050613cb681613c90565b92915050565b60008060408385031215613cd357613cd2613b68565b5b6000613ce185828601613c49565b9250506020613cf285828601613ca7565b9150509250929050565b613d0581613c28565b82525050565b6000602082019050613d206000830184613cfc565b92915050565b600060208284031215613d3c57613d3b613b68565b5b6000613d4a84828501613c49565b91505092915050565b6000819050919050565b613d6681613d53565b8114613d7157600080fd5b50565b600081359050613d8381613d5d565b92915050565b600060208284031215613d9f57613d9e613b68565b5b6000613dad84828501613d74565b91505092915050565b613dbf81613d53565b82525050565b6000602082019050613dda6000830184613db6565b92915050565b60008060408385031215613df757613df6613b68565b5b6000613e0585828601613d74565b9250506020613e1685828601613ca7565b9150509250929050565b613e2981613c7e565b82525050565b6000602082019050613e446000830184613e20565b92915050565b600080600060608486031215613e6357613e62613b68565b5b6000613e7186828701613c49565b9350506020613e8286828701613c49565b9250506040613e9386828701613c49565b9150509250925092565b60028110613eaa57600080fd5b50565b600081359050613ebc81613e9d565b92915050565b60008060008060808587031215613edc57613edb613b68565b5b6000613eea87828801613c49565b9450506020613efb87828801613c49565b9350506040613f0c87828801613ead565b9250506060613f1d87828801613c49565b91505092959194509250565b60028110613f3657600080fd5b50565b600081359050613f4881613f29565b92915050565b600080600080600060a08688031215613f6a57613f69613b68565b5b6000613f7888828901613c49565b9550506020613f8988828901613c49565b9450506040613f9a88828901613c49565b9350506060613fab88828901613ead565b9250506080613fbc88828901613f39565b9150509295509295909350565b6000606082019050613fde6000830186613cfc565b613feb6020830185613cfc565b613ff86040830184613cfc565b949350505050565b6000806000806080858703121561401a57614019613b68565b5b600061402887828801613c49565b945050602061403987828801613c49565b935050604061404a87828801613c49565b925050606061405b87828801613f39565b91505092959194509250565b6000806000606084860312156140805761407f613b68565b5b600061408e86828701613c49565b935050602061409f86828701613c49565b92505060406140b086828701613f39565b9150509250925092565b600060a0820190506140cf6000830188613cfc565b6140dc6020830187613cfc565b6140e96040830186613cfc565b6140f66060830185613cfc565b6141036080830184613cfc565b9695505050505050565b61411681613bf2565b811461412157600080fd5b50565b6000813590506141338161410d565b92915050565b60006020828403121561414f5761414e613b68565b5b600061415d84828501614124565b91505092915050565b60008060008060008060c0878903121561418357614182613b68565b5b600061419189828a01613c49565b96505060206141a289828a01613c49565b95505060406141b389828a01613c49565b94505060606141c489828a01613ead565b93505060806141d589828a01613f39565b92505060a06141e689828a01613c49565b9150509295509295509295565b60008060008060008060c087890312156142105761420f613b68565b5b600061421e89828a01613c49565b965050602061422f89828a01613c49565b955050604061424089828a01613c49565b945050606061425189828a01613c49565b935050608061426289828a01613ead565b92505060a061427389828a01613f39565b9150509295509295509295565b60008151905061428f81613c32565b92915050565b6000602082840312156142ab576142aa613b68565b5b60006142b984828501614280565b91505092915050565b6000815190506142d181613d5d565b92915050565b6000602082840312156142ed576142ec613b68565b5b60006142fb848285016142c2565b91505092915050565b600082825260208201905092915050565b7f6d69736d61746368656420746f6b656e20616464726573730000000000000000600082015250565b600061434b601883614304565b915061435682614315565b602082019050919050565b6000602082019050818103600083015261437a8161433e565b9050919050565b7f416363657373436f6e74726f6c3a2063616e206f6e6c792072656e6f756e636560008201527f20726f6c657320666f722073656c660000000000000000000000000000000000602082015250565b60006143dd602f83614304565b91506143e882614381565b604082019050919050565b6000602082019050818103600083015261440c816143d0565b9050919050565b6000806040838503121561442a57614429613b68565b5b600061443885828601614280565b925050602061444985828601614280565b9150509250929050565b7f54726164696e672073746f707065642100000000000000000000000000000000600082015250565b6000614489601083614304565b915061449482614453565b602082019050919050565b600060208201905081810360008301526144b88161447c565b9050919050565b7f436f737420696e636f7272656374000000000000000000000000000000000000600082015250565b60006144f5600e83614304565b9150614500826144bf565b602082019050919050565b60006020820190508181036000830152614524816144e8565b9050919050565b60008151905061453a81613c90565b92915050565b60006020828403121561455657614555613b68565b5b60006145648482850161452b565b91505092915050565b60006060820190506145826000830186613e20565b61458f6020830185613e20565b61459c6040830184613cfc565b949350505050565b6000815190506145b38161410d565b92915050565b6000602082840312156145cf576145ce613b68565b5b60006145dd848285016145a4565b91505092915050565b7f766f6c207061796d656e74206572726f72000000000000000000000000000000600082015250565b600061461c601183614304565b9150614627826145e6565b602082019050919050565b6000602082019050818103600083015261464b8161460f565b9050919050565b60006040820190506146676000830185613e20565b6146746020830184613cfc565b9392505050565b600060a0820190506146906000830188613e20565b61469d6020830187613cfc565b6146aa6040830186613cfc565b6146b76060830185613cfc565b6146c46080830184613cfc565b9695505050505050565b7f4e487b7100000000000000000000000000000000000000000000000000000000600052601160045260246000fd5b600061470882613c28565b915061471383613c28565b9250827fffffffffffffffffffffffffffffffffffffffffffffffffffffffffffffffff03821115614748576147476146ce565b5b828201905092915050565b7f7061796d656e74206572726f7200000000000000000000000000000000000000600082015250565b6000614789600d83614304565b915061479482614753565b602082019050919050565b600060208201905081810360008301526147b88161477c565b9050919050565b7f4e487b7100000000000000000000000000000000000000000000000000000000600052602160045260246000fd5b600281106147ff576147fe6147bf565b5b50565b6000819050614810826147ee565b919050565b600061482082614802565b9050919050565b61483081614815565b82525050565b60028110614847576148466147bf565b5b50565b600081905061485882614836565b919050565b60006148688261484a565b9050919050565b6148788161485d565b82525050565b600061014082019050614894600083018d613cfc565b6148a1602083018c613cfc565b6148ae604083018b613cfc565b6148bb606083018a614827565b6148c8608083018961486f565b6148d560a0830188613cfc565b6148e260c0830187613cfc565b6148ef60e0830186613cfc565b6148fd610100830185613cfc565b61490b610120830184613e20565b9b9a5050505050505050505050565b600060408201905061492f6000830185613cfc565b61493c6020830184613e20565b9392505050565b600080fd5b6000601f19601f8301169050919050565b7f4e487b7100000000000000000000000000000000000000000000000000000000600052604160045260246000fd5b61499182614948565b810181811067ffffffffffffffff821117156149b0576149af614959565b5b80604052505050565b60006149c3613b5e565b90506149cf8282614988565b919050565b6000815190506149e381613e9d565b92915050565b6000815190506149f881613f29565b92915050565b60048110614a0b57600080fd5b50565b600081519050614a1d816149fe565b92915050565b60006102008284031215614a3a57614a39614943565b5b614a456102006149b9565b90506000614a55848285016149d4565b6000830152506020614a69848285016149e9565b6020830152506040614a7d84828501614a0e565b6040830152506060614a918482850161452b565b6060830152506080614aa584828501614280565b60808301525060a0614ab984828501614280565b60a08301525060c0614acd84828501614280565b60c08301525060e0614ae184828501614280565b60e083015250610100614af684828501614280565b61010083015250610120614b0c84828501614280565b61012083015250610140614b2284828501614280565b61014083015250610160614b3884828501614280565b61016083015250610180614b4e84828501614280565b610180830152506101a0614b6484828501614280565b6101a0830152506101c0614b7a84828501614280565b6101c0830152506101e0614b9084828501614280565b6101e08301525092915050565b60006102008284031215614bb457614bb3613b68565b5b6000614bc284828501614a23565b91505092915050565b614bd481614815565b82525050565b614be38161485d565b82525050565b60048110614bfa57614bf96147bf565b5b50565b6000819050614c0b82614be9565b919050565b6000614c1b82614bfd565b9050919050565b614c2b81614c10565b82525050565b614c3a81613c7e565b82525050565b614c4981613c28565b82525050565b61020082016000820151614c666000850182614bcb565b506020820151614c796020850182614bda565b506040820151614c8c6040850182614c22565b506060820151614c9f6060850182614c31565b506080820151614cb26080850182614c40565b5060a0820151614cc560a0850182614c40565b5060c0820151614cd860c0850182614c40565b5060e0820151614ceb60e0850182614c40565b50610100820151614d00610100850182614c40565b50610120820151614d15610120850182614c40565b50610140820151614d2a610140850182614c40565b50610160820151614d3f610160850182614c40565b50610180820151614d54610180850182614c40565b506101a0820151614d696101a0850182614c40565b506101c0820151614d7e6101c0850182614c40565b506101e0820151614d936101e0850182614c40565b50505050565b600061024082019050614daf6000830186614c4f565b614dbd610200830185613cfc565b614dcb610220830184613bfe565b949350505050565b6000604082019050614de86000830185613bfe565b614df56020830184613bfe565b9392505050565b7f696e73756666696369656e74206361706974616c000000000000000000000000600082015250565b6000614e32601483614304565b9150614e3d82614dfc565b602082019050919050565b60006020820190508181036000830152614e6181614e25565b9050919050565b6000819050919050565b6000614e7d82614e68565b9150614e8883614e68565b9250817f7fffffffffffffffffffffffffffffffffffffffffffffffffffffffffffffff03831360008312151615614ec357614ec26146ce565b5b817f8000000000000000000000000000000000000000000000000000000000000000038312600083121615614efb57614efa6146ce565b5b828201905092915050565b7f496e636f727265637420766f6c207072656d69756d0000000000000000000000600082015250565b6000614f3c601583614304565b9150614f4782614f06565b602082019050919050565b60006020820190508181036000830152614f6b81614f2f565b9050919050565b7f696e73756666696369656e74207573646320696e2065786368616e67652e0000600082015250565b6000614fa8601e83614304565b9150614fb382614f72565b602082019050919050565b60006020820190508181036000830152614fd781614f9b565b9050919050565b7f54656e6f72206973206e6f742073657400000000000000000000000000000000600082015250565b6000615014601083614304565b915061501f82614fde565b602082019050919050565b6000602082019050818103600083015261504381615007565b9050919050565b61505381613c28565b82525050565b61506281613c7e565b82525050565b600060408201905061507d600083018561504a565b61508a6020830184615059565b9392505050565b7f496e636f727265637420636f737420706169642e000000000000000000000000600082015250565b60006150c7601483614304565b91506150d282615091565b602082019050919050565b600060208201905081810360008301526150f6816150ba565b9050919050565b7f4661696c6564207061796d656e742e0000000000000000000000000000000000600082015250565b6000615133600f83614304565b915061513e826150fd565b602082019050919050565b6000602082019050818103600083015261516281615126565b9050919050565b61517281614815565b82525050565b6151818161485d565b82525050565b600060c08201905061519c600083018961504a565b6151a9602083018861504a565b6151b6604083018761504a565b6151c3606083018661504a565b6151d06080830185615169565b6151dd60a0830184615178565b979650505050505050565b600081905092915050565b7f416363657373436f6e74726f6c3a206163636f756e7420000000000000000000600082015250565b60006152296017836151e8565b9150615234826151f3565b601782019050919050565b600081519050919050565b60005b8381101561526857808201518184015260208101905061524d565b83811115615277576000848401525b50505050565b60006152888261523f565b61529281856151e8565b93506152a281856020860161524a565b80840191505092915050565b7f206973206d697373696e6720726f6c6520000000000000000000000000000000600082015250565b60006152e46011836151e8565b91506152ef826152ae565b601182019050919050565b60006153058261521c565b9150615311828561527d565b915061531c826152d7565b9150615328828461527d565b91508190509392505050565b600061533f8261523f565b6153498185614304565b935061535981856020860161524a565b61536281614948565b840191505092915050565b600060208201905081810360008301526153878184615334565b905092915050565b60006060820190506153a4600083018661504a565b6153b1602083018561504a565b6153be604083018461504a565b949350505050565b6153cf81614e68565b81146153da57600080fd5b50565b6000815190506153ec816153c6565b92915050565b60006020828403121561540857615407613b68565b5b6000615416848285016153dd565b91505092915050565b600061542a82614e68565b915061543583614e68565b9250827f7fffffffffffffffffffffffffffffffffffffffffffffffffffffffffffffff0482116000841360008413161615615474576154736146ce565b5b817f800000000000000000000000000000000000000000000000000000000000000005831260008412600084131616156154b1576154b06146ce565b5b827f800000000000000000000000000000000000000000000000000000000000000005821260008413600084121616156154ee576154ed6146ce565b5b827f7fffffffffffffffffffffffffffffffffffffffffffffffffffffffffffffff058212600084126000841216161561552b5761552a6146ce565b5b828202905092915050565b7f4e487b7100000000000000000000000000000000000000000000000000000000600052601260045260246000fd5b600061557082614e68565b915061557b83614e68565b92508261558b5761558a615536565b5b600160000383147f8000000000000000000000000000000000000000000000000000000000000000831416156155c4576155c36146ce565b5b828205905092915050565b60006155da82613c28565b91506155e583613c28565b9250817fffffffffffffffffffffffffffffffffffffffffffffffffffffffffffffffff048311821515161561561e5761561d6146ce565b5b828202905092915050565b7f4e487b7100000000000000000000000000000000000000000000000000000000600052603260045260246000fd5b600061566382613c28565b91506000821415615677576156766146ce565b5b600182039050919050565b7f537472696e67733a20686578206c656e67746820696e73756666696369656e74600082015250565b60006156b8602083614304565b91506156c382615682565b602082019050919050565b600060208201905081810360008301526156e7816156ab565b9050919050565b60006156f982614e68565b91507f800000000000000000000000000000000000000000000000000000000000000082141561572c5761572b6146ce565b5b816000039050919050565b600061574282614e68565b915061574d83614e68565b9250827f800000000000000000000000000000000000000000000000000000000000000001821260008412151615615788576157876146ce565b5b827f7fffffffffffffffffffffffffffffffffffffffffffffffffffffffffffffff0182136000841216156157c0576157bf6146ce565b5b828203905092915050565b7f43617061636974792062726561636865642e0000000000000000000000000000600082015250565b6000615801601283614304565b915061580c826157cb565b602082019050919050565b60006020820190508181036000830152615830816157f4565b905091905056fea26469706673582212200cf767edb3c29e7f6c5c976ca2a911aef79be1fc8e0743eb88e80cbc855fe7bf64736f6c634300080a0033",
  "immutableReferences": {},
  "source": "// SPDX-License-Identifier: MIT\npragma solidity 0.8.10;\n\nimport \"@openzeppelin/contracts/token/ERC20/ERC20.sol\";\nimport \"@openzeppelin/contracts/access/AccessControl.sol\";\nimport \"@openzeppelin/contracts/utils/structs/EnumerableSet.sol\";\nimport \"./MoretInterfaces.sol\";\nimport \"./VolatilityToken.sol\";\nimport \"./MoretMarketMaker.sol\";\n\ncontract Exchange is AccessControl, EOption{\n  bytes32 public constant ADMIN_ROLE = keccak256(\"ADMIN_ROLE\");\n  address public vaultAddress;\n  address public marketMakerAddress;\n  mapping(uint256=>address) public volTokenAddressList;\n\n  MoretMarketMaker internal marketMaker;\n  OptionVault internal optionVault;\n\n  uint256 public volRiskPremiumMaxRatio= 18 * (10 ** 17);\n  uint256 public loanInterest = 0;\n  bool public allowTrading = true;\n\n  constructor( address _marketMakerAddress,address _vaultAddress){\n    _setupRole(DEFAULT_ADMIN_ROLE, msg.sender);\n    _setupRole(ADMIN_ROLE, msg.sender);\n    vaultAddress = _vaultAddress;\n    optionVault = OptionVault(_vaultAddress);\n    marketMakerAddress = _marketMakerAddress;\n    marketMaker = MoretMarketMaker(_marketMakerAddress);}\n\n  function calcCost(uint256 _tenor, uint256 _strike, uint256 _amount, OptionLibrary.PayoffType _poType, OptionLibrary.OptionSide _side) public view returns(uint256 , uint256 , uint256 ){\n    (uint256 _price,) = optionVault.queryPrice();\n    return calcOptionCost(_tenor, _price, _strike, _amount, _poType, _side);}\n\n  function calcOptionCost(uint256 _tenor, uint256 _price, uint256 _strike, uint256 _amount, OptionLibrary.PayoffType _poType, OptionLibrary.OptionSide _side) public view returns(uint256 _premium, uint256 _cost, uint256 _vol){\n    _vol = queryOptionVolatility(_tenor, _strike, _amount, _side);\n    // uint256 _adjustedStrike = OptionLibrary.adjustStrike(_strike, _poType, _side, marketMaker.swapSlippage(), loanInterest); \n    (_premium, _cost) = OptionLibrary.calcOptionCost(_price, _strike, _amount, _vol, _poType, _side);\n    _premium = MarketLibrary.cvtDecimals(_premium, optionVault.funding());\n    _cost = MarketLibrary.cvtDecimals(_cost, optionVault.funding());}\n\n  function queryOptionVolatility(uint256 _tenor, uint256 _strike, uint256 _amount, OptionLibrary.OptionSide _side) public view returns(uint256 _vol){  \n    _vol = optionVault.queryVol(_tenor); // running vol\n    (uint256 _price,) = optionVault.queryPrice();\n    require(MulDiv(_amount, _price, OptionLibrary.Multiplier())<=marketMaker.calcCapital(true,false),'insufficient capital');\n    int256 _riskPremium = calcRiskPremium(_price, _vol, _strike, _amount, _side);\n    require((int256(_vol)+_riskPremium) > 0,\"Incorrect vol premium\");\n    _vol = uint256(int256(_vol)+_riskPremium);}\n\n  function calcRiskPremium(uint256 _price, uint256 _vol, uint256 _strike, uint256 _amount,OptionLibrary.OptionSide _side) internal view returns(int256) {\n    uint256 _maxGamma = MulDiv(OptionLibrary.calcGamma(_price, _price, _vol), marketMaker.calcCapital(false, false), _price);\n    int256 _currentGamma = optionVault.calculateAggregateGamma(); // include sells.\n    int256 _newGamma = _currentGamma + int256(MulDiv(OptionLibrary.calcGamma(_price, _strike, _vol), _amount, OptionLibrary.Multiplier() )) * (_side==OptionLibrary.OptionSide.Sell? -1: int(1));\n    uint256 _K = MulDiv(_vol, volRiskPremiumMaxRatio, OptionLibrary.Multiplier());\n    return (calcRiskPremiumAMM(_maxGamma, _currentGamma,  _K) + calcRiskPremiumAMM(_maxGamma, _newGamma, _K)) / 2;}\n\n  function calcRiskPremiumAMM(uint256 _max, int256 _input, uint256 _constant) internal pure returns(int256) {\n    int256 _capacity = int256(OptionLibrary.Multiplier()); // capacity should be in (0,2)\n    if(_input < 0){_capacity +=  int256(MulDiv(uint256(-_input), OptionLibrary.Multiplier(), _max));}\n    if(_input > 0){ _capacity -= int256(MulDiv(uint256(_input) , OptionLibrary.Multiplier(), _max));}\n    require((_capacity>=0) && (_capacity <= int256(2 * OptionLibrary.Multiplier())),\"Capacity breached.\");\n    return int256(MulDiv(_constant, OptionLibrary.Multiplier(), uint256(_capacity))) - int256(_constant);}\n\n  function purchaseOption(uint256 _tenor, uint256 _strike, uint256 _amount, OptionLibrary.PayoffType _poType, OptionLibrary.OptionSide _side, uint256 _payInCost) external {\n    require(allowTrading,\"Trading stopped!\");\n    (uint256 _price, ) = optionVault.queryPrice();\n    (uint256 _premium, uint256 _cost, uint256 _vol) = calcOptionCost(_tenor, _price, _strike, _amount, _poType, _side );      \n    require(_payInCost >= _cost, \"Incorrect cost paid.\");\n    uint256 _id = optionVault.addOption(_tenor, _strike, _amount, _poType, _side, _premium, _cost, _price, _vol, msg.sender);\n    require(ERC20(optionVault.funding()).transferFrom(msg.sender, marketMakerAddress, _payInCost), 'Failed payment.');  \n    optionVault.stampActiveOption(_id, msg.sender);\n    emit newOptionBought(msg.sender, optionVault.getOption(_id), _payInCost, false);}\n\n  function getOptionPayoffValue(uint256 _id) external view returns(uint256 _payback){\n    (,_payback) = optionVault.getContractPayoff(_id);}\n\n  function calcVolAmount(uint256 _tenor, uint256 _amount, OptionLibrary.OptionSide _side) public view returns(uint256 _volAmount, uint256 _vol, uint256 _premium, uint256 _cost, uint256 _price){\n    require(volTokenAddressList[_tenor]!=address(0), \"Tenor is not set\");\n    (_price, ) = optionVault.queryPrice();\n    (_premium, _cost, _vol) = calcOptionCost(_tenor, _price, _price, _amount, OptionLibrary.PayoffType.Call, _side); \n    _volAmount = MarketLibrary.cvtDecimals(MulDiv(_premium, OptionLibrary.Multiplier(), _vol), volTokenAddressList[_tenor]);}\n\n  function buyVol(uint256 _tenor, uint256 _amount, uint256 _payInCost) external {\n    require(allowTrading,\"Trading stopped!\");\n    (uint256 _volAmount, , uint256 _premium, , ) = calcVolAmount(_tenor, _amount, OptionLibrary.OptionSide.Buy);\n    require(_payInCost >= _premium, \"Cost incorrect\");\n    require(ERC20(optionVault.funding()).transferFrom(msg.sender, address(this), _premium), \"vol payment error\");\n    VolatilityToken(volTokenAddressList[_tenor]).mint(msg.sender, _volAmount);\n    emit volatilityTokenBought(msg.sender, block.timestamp, _tenor, _volAmount, _premium);}\n  \n  function sellVol(uint256 _tenor, uint256 _amount, uint256 _payInVol) external {\n    require(allowTrading,\"Trading stopped!\");\n    (uint256 _volAmount,  ,  uint256 _premium,  ,  ) = calcVolAmount(_tenor, _amount, OptionLibrary.OptionSide.Sell);\n    require(_payInVol >= _volAmount, \"Cost incorrect\");\n    require(ERC20(optionVault.funding()).balanceOf(address(this))>=_premium, \"insufficient usdc in exchange.\");\n\n    VolatilityToken(volTokenAddressList[_tenor]).burn(msg.sender, _volAmount);\n    require(ERC20(optionVault.funding()).transfer(msg.sender, _premium), \"payment error\");\n    emit volatilityTokenSold(msg.sender, block.timestamp, _tenor, _volAmount, _premium);}  \n\n  function buyOptionInVol(uint256 _tenor, uint256 _amount, OptionLibrary.PayoffType _poType, uint256 _payInVol) external {\n    require(allowTrading,\"Trading stopped!\");\n    (uint256 _volAmount, uint256 _vol, uint256 _premium, uint256 _cost, uint256 _price) = calcVolAmount(_tenor, _amount, OptionLibrary.OptionSide.Buy);\n    require(_payInVol >= _volAmount, \"Cost incorrect\");\n    require(ERC20(optionVault.funding()).balanceOf(address(this))>=_premium, \"insufficient usdc in exchange.\");\n\n    VolatilityToken(volTokenAddressList[_tenor]).burn(msg.sender, _volAmount);\n    uint256 _id = optionVault.addOption(_tenor, _price, _amount, _poType, OptionLibrary.OptionSide.Buy, _premium, _cost, _price, _vol, msg.sender);\n    require(ERC20(optionVault.funding()).transfer(marketMakerAddress, _premium), 'payment error');  \n    optionVault.stampActiveOption(_id, msg.sender);\n    emit newOptionBought(msg.sender, optionVault.getOption(_id), _volAmount, true);}\n\n  function sellOptionInVol(uint256 _tenor, uint256 _amount, OptionLibrary.PayoffType _poType, uint256 _payInCost) external {\n    require(allowTrading,\"Trading stopped!\");\n    (uint256 _volAmount, uint256 _vol, uint256 _premium, uint256 _cost, uint256 _price) = calcVolAmount(_tenor, _amount, OptionLibrary.OptionSide.Sell);\n    uint256 _totalCost = _premium + _cost;\n    require(_payInCost >= _totalCost, \"Cost incorrect\");\n\n    require(ERC20(optionVault.funding()).transferFrom(msg.sender, marketMakerAddress, _cost), 'payment error'); \n    require(ERC20(optionVault.funding()).transferFrom(msg.sender, address(this), _premium), 'payment error');  \n    uint256 _id = optionVault.addOption(_tenor, _price, _amount, _poType, OptionLibrary.OptionSide.Sell, _premium, _cost, _price, _vol, msg.sender);\n    VolatilityToken(volTokenAddressList[_tenor]).mint(msg.sender, _volAmount);\n    optionVault.stampActiveOption(_id, msg.sender);\n    emit newOptionBought(msg.sender, optionVault.getOption(_id), _volAmount, true);}\n\n  function addVolToken(uint256 _tenor, address _tokenAddress) external onlyRole(ADMIN_ROLE){ \n    require(VolatilityToken(volTokenAddressList[_tenor]).tenor()==_tenor && VolatilityToken(volTokenAddressList[_tenor]).tokenHash()==optionVault.tokenHash(), 'mismatched token address');\n    volTokenAddressList[_tenor] = _tokenAddress; }\n  function removeVolToken(uint256 _tenor) external onlyRole(ADMIN_ROLE){ volTokenAddressList[_tenor] = address(0);}\n  \n  function resetLoanRate(uint256 _loanInterest) external onlyRole(ADMIN_ROLE){ loanInterest = _loanInterest;}\n  function resetRiskPremiumMaxRatio(uint256 _newRatio) external onlyRole(ADMIN_ROLE){ volRiskPremiumMaxRatio=_newRatio;}\n  function resetTrading(bool _allowTrading) external onlyRole(DEFAULT_ADMIN_ROLE) {allowTrading=_allowTrading;}\n}\n",
  "sourcePath": "/Users/mac/Documents/GitHub/moret/contracts/Exchange.sol",
  "compiler": {
    "name": "solc",
    "version": "0.8.10+commit.fc410830.Emscripten.clang"
  },
  "schemaVersion": "3.4.3",
  "updatedAt": "2021-12-02T07:29:47.791Z",
  "devdoc": {
    "kind": "dev",
    "methods": {
      "getRoleAdmin(bytes32)": {
        "details": "Returns the admin role that controls `role`. See {grantRole} and {revokeRole}. To change a role's admin, use {_setRoleAdmin}."
      },
      "grantRole(bytes32,address)": {
        "details": "Grants `role` to `account`. If `account` had not been already granted `role`, emits a {RoleGranted} event. Requirements: - the caller must have ``role``'s admin role."
      },
      "hasRole(bytes32,address)": {
        "details": "Returns `true` if `account` has been granted `role`."
      },
      "renounceRole(bytes32,address)": {
        "details": "Revokes `role` from the calling account. Roles are often managed via {grantRole} and {revokeRole}: this function's purpose is to provide a mechanism for accounts to lose their privileges if they are compromised (such as when a trusted device is misplaced). If the calling account had been revoked `role`, emits a {RoleRevoked} event. Requirements: - the caller must be `account`."
      },
      "revokeRole(bytes32,address)": {
        "details": "Revokes `role` from `account`. If `account` had been granted `role`, emits a {RoleRevoked} event. Requirements: - the caller must have ``role``'s admin role."
      },
      "supportsInterface(bytes4)": {
        "details": "See {IERC165-supportsInterface}."
      }
    },
    "version": 1
  },
  "userdoc": {
    "kind": "user",
    "methods": {},
    "version": 1
  }
}