{
  "contractName": "Exchange",
  "abi": [
    {
      "inputs": [
        {
          "internalType": "address payable",
          "name": "_marketMakerAddress",
          "type": "address"
        },
        {
          "internalType": "address",
          "name": "_optionAddress",
          "type": "address"
        },
        {
          "internalType": "address payable",
          "name": "_volTokenAddress",
          "type": "address"
        }
      ],
      "stateMutability": "nonpayable",
      "type": "constructor"
    },
    {
      "anonymous": false,
      "inputs": [
        {
          "indexed": true,
          "internalType": "bytes32",
          "name": "role",
          "type": "bytes32"
        },
        {
          "indexed": true,
          "internalType": "bytes32",
          "name": "previousAdminRole",
          "type": "bytes32"
        },
        {
          "indexed": true,
          "internalType": "bytes32",
          "name": "newAdminRole",
          "type": "bytes32"
        }
      ],
      "name": "RoleAdminChanged",
      "type": "event"
    },
    {
      "anonymous": false,
      "inputs": [
        {
          "indexed": true,
          "internalType": "bytes32",
          "name": "role",
          "type": "bytes32"
        },
        {
          "indexed": true,
          "internalType": "address",
          "name": "account",
          "type": "address"
        },
        {
          "indexed": true,
          "internalType": "address",
          "name": "sender",
          "type": "address"
        }
      ],
      "name": "RoleGranted",
      "type": "event"
    },
    {
      "anonymous": false,
      "inputs": [
        {
          "indexed": true,
          "internalType": "bytes32",
          "name": "role",
          "type": "bytes32"
        },
        {
          "indexed": true,
          "internalType": "address",
          "name": "account",
          "type": "address"
        },
        {
          "indexed": true,
          "internalType": "address",
          "name": "sender",
          "type": "address"
        }
      ],
      "name": "RoleRevoked",
      "type": "event"
    },
    {
      "anonymous": false,
      "inputs": [
        {
          "indexed": false,
          "internalType": "address",
          "name": "_recipient",
          "type": "address"
        },
        {
          "indexed": false,
          "internalType": "uint256",
          "name": "_mintMPTokenAmount",
          "type": "uint256"
        },
        {
          "indexed": false,
          "internalType": "uint256",
          "name": "_addedValue",
          "type": "uint256"
        }
      ],
      "name": "capitalAdded",
      "type": "event"
    },
    {
      "anonymous": false,
      "inputs": [
        {
          "indexed": false,
          "internalType": "address",
          "name": "_recipient",
          "type": "address"
        },
        {
          "indexed": false,
          "internalType": "uint256",
          "name": "_burnMPTokenAmount",
          "type": "uint256"
        },
        {
          "indexed": false,
          "internalType": "uint256",
          "name": "_withdrawValue",
          "type": "uint256"
        }
      ],
      "name": "capitalWithdrawn",
      "type": "event"
    },
    {
      "anonymous": false,
      "inputs": [
        {
          "indexed": true,
          "internalType": "address",
          "name": "_purchaser",
          "type": "address"
        },
        {
          "components": [
            {
              "internalType": "enum OptionLibrary.PayoffType",
              "name": "poType",
              "type": "uint8"
            },
            {
              "internalType": "enum OptionLibrary.OptionSide",
              "name": "side",
              "type": "uint8"
            },
            {
              "internalType": "enum OptionLibrary.OptionStatus",
              "name": "status",
              "type": "uint8"
            },
            {
              "internalType": "address",
              "name": "holder",
              "type": "address"
            },
            {
              "internalType": "uint256",
              "name": "id",
              "type": "uint256"
            },
            {
              "internalType": "uint256",
              "name": "createTime",
              "type": "uint256"
            },
            {
              "internalType": "uint256",
              "name": "effectiveTime",
              "type": "uint256"
            },
            {
              "internalType": "uint256",
              "name": "tenor",
              "type": "uint256"
            },
            {
              "internalType": "uint256",
              "name": "exerciseTime",
              "type": "uint256"
            },
            {
              "internalType": "uint256",
              "name": "amount",
              "type": "uint256"
            },
            {
              "internalType": "uint256",
              "name": "spot",
              "type": "uint256"
            },
            {
              "internalType": "uint256",
              "name": "strike",
              "type": "uint256"
            },
            {
              "internalType": "uint256",
              "name": "volatility",
              "type": "uint256"
            },
            {
              "internalType": "uint256",
              "name": "premium",
              "type": "uint256"
            },
            {
              "internalType": "uint256",
              "name": "fee",
              "type": "uint256"
            }
          ],
          "indexed": false,
          "internalType": "struct OptionLibrary.Option",
          "name": "_option",
          "type": "tuple"
        },
        {
          "indexed": false,
          "internalType": "uint256",
          "name": "_cost",
          "type": "uint256"
        },
        {
          "indexed": false,
          "internalType": "bool",
          "name": "_inVol",
          "type": "bool"
        }
      ],
      "name": "newOptionBought",
      "type": "event"
    },
    {
      "anonymous": false,
      "inputs": [
        {
          "indexed": false,
          "internalType": "address",
          "name": "_purchaser",
          "type": "address"
        },
        {
          "indexed": false,
          "internalType": "uint256",
          "name": "_time",
          "type": "uint256"
        },
        {
          "indexed": false,
          "internalType": "uint256",
          "name": "_tenor",
          "type": "uint256"
        },
        {
          "indexed": false,
          "internalType": "uint256",
          "name": "_amount",
          "type": "uint256"
        }
      ],
      "name": "newVolatilityTokenBought",
      "type": "event"
    },
    {
      "anonymous": false,
      "inputs": [
        {
          "indexed": true,
          "internalType": "address",
          "name": "_purchaser",
          "type": "address"
        },
        {
          "components": [
            {
              "internalType": "enum OptionLibrary.PayoffType",
              "name": "poType",
              "type": "uint8"
            },
            {
              "internalType": "enum OptionLibrary.OptionSide",
              "name": "side",
              "type": "uint8"
            },
            {
              "internalType": "enum OptionLibrary.OptionStatus",
              "name": "status",
              "type": "uint8"
            },
            {
              "internalType": "address",
              "name": "holder",
              "type": "address"
            },
            {
              "internalType": "uint256",
              "name": "id",
              "type": "uint256"
            },
            {
              "internalType": "uint256",
              "name": "createTime",
              "type": "uint256"
            },
            {
              "internalType": "uint256",
              "name": "effectiveTime",
              "type": "uint256"
            },
            {
              "internalType": "uint256",
              "name": "tenor",
              "type": "uint256"
            },
            {
              "internalType": "uint256",
              "name": "exerciseTime",
              "type": "uint256"
            },
            {
              "internalType": "uint256",
              "name": "amount",
              "type": "uint256"
            },
            {
              "internalType": "uint256",
              "name": "spot",
              "type": "uint256"
            },
            {
              "internalType": "uint256",
              "name": "strike",
              "type": "uint256"
            },
            {
              "internalType": "uint256",
              "name": "volatility",
              "type": "uint256"
            },
            {
              "internalType": "uint256",
              "name": "premium",
              "type": "uint256"
            },
            {
              "internalType": "uint256",
              "name": "fee",
              "type": "uint256"
            }
          ],
          "indexed": false,
          "internalType": "struct OptionLibrary.Option",
          "name": "_option",
          "type": "tuple"
        },
        {
          "indexed": false,
          "internalType": "uint256",
          "name": "_payoff",
          "type": "uint256"
        }
      ],
      "name": "optionExercised",
      "type": "event"
    },
    {
      "inputs": [],
      "name": "ADMIN_ROLE",
      "outputs": [
        {
          "internalType": "bytes32",
          "name": "",
          "type": "bytes32"
        }
      ],
      "stateMutability": "view",
      "type": "function"
    },
    {
      "inputs": [],
      "name": "DEFAULT_ADMIN_ROLE",
      "outputs": [
        {
          "internalType": "bytes32",
          "name": "",
          "type": "bytes32"
        }
      ],
      "stateMutability": "view",
      "type": "function"
    },
    {
      "inputs": [],
      "name": "contractAddress",
      "outputs": [
        {
          "internalType": "address payable",
          "name": "",
          "type": "address"
        }
      ],
      "stateMutability": "view",
      "type": "function"
    },
    {
      "inputs": [
        {
          "internalType": "bytes32",
          "name": "role",
          "type": "bytes32"
        }
      ],
      "name": "getRoleAdmin",
      "outputs": [
        {
          "internalType": "bytes32",
          "name": "",
          "type": "bytes32"
        }
      ],
      "stateMutability": "view",
      "type": "function"
    },
    {
      "inputs": [
        {
          "internalType": "bytes32",
          "name": "role",
          "type": "bytes32"
        },
        {
          "internalType": "address",
          "name": "account",
          "type": "address"
        }
      ],
      "name": "grantRole",
      "outputs": [],
      "stateMutability": "nonpayable",
      "type": "function"
    },
    {
      "inputs": [
        {
          "internalType": "bytes32",
          "name": "role",
          "type": "bytes32"
        },
        {
          "internalType": "address",
          "name": "account",
          "type": "address"
        }
      ],
      "name": "hasRole",
      "outputs": [
        {
          "internalType": "bool",
          "name": "",
          "type": "bool"
        }
      ],
      "stateMutability": "view",
      "type": "function"
    },
    {
      "inputs": [],
      "name": "maxUtilisation",
      "outputs": [
        {
          "internalType": "uint256",
          "name": "",
          "type": "uint256"
        }
      ],
      "stateMutability": "view",
      "type": "function"
    },
    {
      "inputs": [
        {
          "internalType": "bytes32",
          "name": "role",
          "type": "bytes32"
        },
        {
          "internalType": "address",
          "name": "account",
          "type": "address"
        }
      ],
      "name": "renounceRole",
      "outputs": [],
      "stateMutability": "nonpayable",
      "type": "function"
    },
    {
      "inputs": [
        {
          "internalType": "bytes32",
          "name": "role",
          "type": "bytes32"
        },
        {
          "internalType": "address",
          "name": "account",
          "type": "address"
        }
      ],
      "name": "revokeRole",
      "outputs": [],
      "stateMutability": "nonpayable",
      "type": "function"
    },
    {
      "inputs": [],
      "name": "settlementFee",
      "outputs": [
        {
          "internalType": "uint256",
          "name": "numerator",
          "type": "uint256"
        },
        {
          "internalType": "uint256",
          "name": "denominator",
          "type": "uint256"
        }
      ],
      "stateMutability": "view",
      "type": "function"
    },
    {
      "inputs": [
        {
          "internalType": "bytes4",
          "name": "interfaceId",
          "type": "bytes4"
        }
      ],
      "name": "supportsInterface",
      "outputs": [
        {
          "internalType": "bool",
          "name": "",
          "type": "bool"
        }
      ],
      "stateMutability": "view",
      "type": "function"
    },
    {
      "inputs": [
        {
          "internalType": "uint256",
          "name": "",
          "type": "uint256"
        }
      ],
      "name": "volTokensList",
      "outputs": [
        {
          "internalType": "contract VolatilityToken",
          "name": "",
          "type": "address"
        }
      ],
      "stateMutability": "view",
      "type": "function"
    },
    {
      "inputs": [],
      "name": "volTransactionFees",
      "outputs": [
        {
          "internalType": "uint256",
          "name": "numerator",
          "type": "uint256"
        },
        {
          "internalType": "uint256",
          "name": "denominator",
          "type": "uint256"
        }
      ],
      "stateMutability": "view",
      "type": "function"
    },
    {
      "stateMutability": "payable",
      "type": "receive"
    },
    {
      "inputs": [
        {
          "internalType": "uint256",
          "name": "_tenor",
          "type": "uint256"
        },
        {
          "internalType": "uint256",
          "name": "_strike",
          "type": "uint256"
        },
        {
          "internalType": "uint256",
          "name": "_amount",
          "type": "uint256"
        },
        {
          "internalType": "enum OptionLibrary.PayoffType",
          "name": "_poType",
          "type": "uint8"
        },
        {
          "internalType": "enum OptionLibrary.OptionSide",
          "name": "_side",
          "type": "uint8"
        }
      ],
      "name": "queryOptionCost",
      "outputs": [
        {
          "internalType": "uint256",
          "name": "",
          "type": "uint256"
        }
      ],
      "stateMutability": "view",
      "type": "function"
    },
    {
      "inputs": [
        {
          "internalType": "uint256",
          "name": "_tenor",
          "type": "uint256"
        },
        {
          "internalType": "uint256",
          "name": "_strike",
          "type": "uint256"
        },
        {
          "internalType": "enum OptionLibrary.PayoffType",
          "name": "_poType",
          "type": "uint8"
        },
        {
          "internalType": "uint256",
          "name": "_amount",
          "type": "uint256"
        },
        {
          "internalType": "uint256",
          "name": "_payInCost",
          "type": "uint256"
        }
      ],
      "name": "purchaseOption",
      "outputs": [],
      "stateMutability": "nonpayable",
      "type": "function"
    },
    {
      "inputs": [
        {
          "internalType": "uint256",
          "name": "_tenor",
          "type": "uint256"
        },
        {
          "internalType": "uint256",
          "name": "_strike",
          "type": "uint256"
        },
        {
          "internalType": "enum OptionLibrary.PayoffType",
          "name": "_poType",
          "type": "uint8"
        },
        {
          "internalType": "uint256",
          "name": "_amount",
          "type": "uint256"
        },
        {
          "internalType": "uint256",
          "name": "_payInCost",
          "type": "uint256"
        }
      ],
      "name": "purchaseOptionInVol",
      "outputs": [],
      "stateMutability": "nonpayable",
      "type": "function"
    },
    {
      "inputs": [
        {
          "internalType": "uint256",
          "name": "_id",
          "type": "uint256"
        }
      ],
      "name": "getOptionPayoffValue",
      "outputs": [
        {
          "internalType": "uint256",
          "name": "",
          "type": "uint256"
        }
      ],
      "stateMutability": "view",
      "type": "function"
    },
    {
      "inputs": [
        {
          "internalType": "uint256",
          "name": "_id",
          "type": "uint256"
        }
      ],
      "name": "exerciseOption",
      "outputs": [],
      "stateMutability": "nonpayable",
      "type": "function"
    },
    {
      "inputs": [
        {
          "internalType": "address payable",
          "name": "_tokenAddress",
          "type": "address"
        }
      ],
      "name": "addVolToken",
      "outputs": [],
      "stateMutability": "nonpayable",
      "type": "function"
    },
    {
      "inputs": [
        {
          "internalType": "uint256",
          "name": "_tenor",
          "type": "uint256"
        },
        {
          "internalType": "uint256",
          "name": "_volAmount",
          "type": "uint256"
        }
      ],
      "name": "quoteVolatilityCost",
      "outputs": [
        {
          "internalType": "uint256",
          "name": "",
          "type": "uint256"
        },
        {
          "internalType": "uint256",
          "name": "",
          "type": "uint256"
        }
      ],
      "stateMutability": "view",
      "type": "function"
    },
    {
      "inputs": [
        {
          "internalType": "uint256",
          "name": "_tenor",
          "type": "uint256"
        },
        {
          "internalType": "uint256",
          "name": "_volAmount",
          "type": "uint256"
        },
        {
          "internalType": "uint256",
          "name": "_payInCost",
          "type": "uint256"
        }
      ],
      "name": "purchaseVolatilityToken",
      "outputs": [],
      "stateMutability": "nonpayable",
      "type": "function"
    },
    {
      "inputs": [],
      "name": "sweepBalance",
      "outputs": [],
      "stateMutability": "nonpayable",
      "type": "function"
    },
    {
      "inputs": [
        {
          "internalType": "uint256",
          "name": "_fee",
          "type": "uint256"
        },
        {
          "internalType": "uint256",
          "name": "_denominator",
          "type": "uint256"
        }
      ],
      "name": "resetSettlementFees",
      "outputs": [],
      "stateMutability": "nonpayable",
      "type": "function"
    },
    {
      "inputs": [
        {
          "internalType": "uint256",
          "name": "_fee",
          "type": "uint256"
        },
        {
          "internalType": "uint256",
          "name": "_denominator",
          "type": "uint256"
        }
      ],
      "name": "resetVolTransactionFees",
      "outputs": [],
      "stateMutability": "nonpayable",
      "type": "function"
    },
    {
      "inputs": [
        {
          "internalType": "uint256",
          "name": "_maxUtil",
          "type": "uint256"
        }
      ],
      "name": "resetMaxUtilisation",
      "outputs": [],
      "stateMutability": "nonpayable",
      "type": "function"
    },
    {
      "inputs": [],
      "name": "priceDecimals",
      "outputs": [
        {
          "internalType": "uint256",
          "name": "",
          "type": "uint256"
        }
      ],
      "stateMutability": "view",
      "type": "function"
    },
    {
      "inputs": [
        {
          "internalType": "uint256",
          "name": "_tenor",
          "type": "uint256"
        }
      ],
      "name": "queryVol",
      "outputs": [
        {
          "internalType": "uint256",
          "name": "",
          "type": "uint256"
        },
        {
          "internalType": "uint256",
          "name": "",
          "type": "uint256"
        }
      ],
      "stateMutability": "view",
      "type": "function"
    }
  ],
  "bytecode": "0x60806040526040518060400160405280620186a08152602001620f424081525060016000820151816000015560208201518160010155505060405180604001604052806113888152602001620f4240815250600360008201518160000155602082015181600101555050670de0b6b3a7640000600a553480156200008257600080fd5b50604051620053ac380380620053ac8339818101604052810190620000a8919062000568565b620000bd6000801b336200037860201b60201c565b620000ef7fa49807205ce4d355092ef5a8a18f56e8913cf4a201fbe287825b095693c21775336200037860201b60201c565b81600760006101000a81548173ffffffffffffffffffffffffffffffffffffffff021916908373ffffffffffffffffffffffffffffffffffffffff16021790555082600660006101000a81548173ffffffffffffffffffffffffffffffffffffffff021916908373ffffffffffffffffffffffffffffffffffffffff160217905550600081905080600960008373ffffffffffffffffffffffffffffffffffffffff1663a15612d16040518163ffffffff1660e01b815260040160206040518083038186803b158015620001c257600080fd5b505afa158015620001d7573d6000803e3d6000fd5b505050506040513d601f19601f82011682018060405250810190620001fd9190620005c4565b815260200190815260200160002060006101000a81548173ffffffffffffffffffffffffffffffffffffffff021916908373ffffffffffffffffffffffffffffffffffffffff16021790555030600560006101000a81548173ffffffffffffffffffffffffffffffffffffffff021916908373ffffffffffffffffffffffffffffffffffffffff160217905550600660009054906101000a900473ffffffffffffffffffffffffffffffffffffffff1673ffffffffffffffffffffffffffffffffffffffff16632140ea676040518163ffffffff1660e01b815260040160206040518083038186803b158015620002f357600080fd5b505afa15801562000308573d6000803e3d6000fd5b505050506040513d601f19601f820116820180604052508101906200032e919062000536565b600860006101000a81548173ffffffffffffffffffffffffffffffffffffffff021916908373ffffffffffffffffffffffffffffffffffffffff160217905550505050506200069b565b6200038a82826200038e60201b60201c565b5050565b620003a082826200047f60201b60201c565b6200047b57600160008084815260200190815260200160002060000160008373ffffffffffffffffffffffffffffffffffffffff1673ffffffffffffffffffffffffffffffffffffffff16815260200190815260200160002060006101000a81548160ff02191690831515021790555062000420620004e960201b60201c565b73ffffffffffffffffffffffffffffffffffffffff168173ffffffffffffffffffffffffffffffffffffffff16837f2f8788117e7eff1d82e926ec794901d17c78024a50270940304540a733656f0d60405160405180910390a45b5050565b600080600084815260200190815260200160002060000160008373ffffffffffffffffffffffffffffffffffffffff1673ffffffffffffffffffffffffffffffffffffffff16815260200190815260200160002060009054906101000a900460ff16905092915050565b600033905090565b60008151905062000502816200064d565b92915050565b600081519050620005198162000667565b92915050565b600081519050620005308162000681565b92915050565b6000602082840312156200054f576200054e62000648565b5b60006200055f84828501620004f1565b91505092915050565b60008060006060848603121562000584576200058362000648565b5b6000620005948682870162000508565b9350506020620005a786828701620004f1565b9250506040620005ba8682870162000508565b9150509250925092565b600060208284031215620005dd57620005dc62000648565b5b6000620005ed848285016200051f565b91505092915050565b600062000603826200061e565b9050919050565b600062000617826200061e565b9050919050565b600073ffffffffffffffffffffffffffffffffffffffff82169050919050565b6000819050919050565b600080fd5b6200065881620005f6565b81146200066457600080fd5b50565b62000672816200060a565b81146200067e57600080fd5b50565b6200068c816200063e565b81146200069857600080fd5b50565b614d0180620006ab6000396000f3fe6080604052600436106101a05760003560e01c806391d14854116100ec578063b7ab81371161008a578063d547741f11610064578063d547741f146105f7578063dc89231714610620578063f52f25261461064b578063f6b4dfb414610674576101a7565b8063b7ab813714610579578063c3513f6d146105a2578063cfc2dc20146105b9576101a7565b8063a217fddf116100c6578063a217fddf146104bf578063a24015fe146104ea578063a71c120214610527578063b3036ae014610550576101a7565b806391d148541461041b5780639320d4ce1461045857806393ecc4cb14610481576101a7565b806336568abe116101595780635a4a3a92116101335780635a4a3a921461035b57806375b238fc1461038757806376df2d08146103b25780637d1d7fb8146103ef576101a7565b806336568abe146102cc57806340d6eaab146102f5578063598ddc6014610332576101a7565b806301ffc9a7146101ac57806305300b28146101e9578063127b3a6a14610214578063233dde951461023d578063248a9ca3146102665780632f2ff15d146102a3576101a7565b366101a757005b600080fd5b3480156101b857600080fd5b506101d360048036038101906101ce9190613973565b61069f565b6040516101e091906141ce565b60405180910390f35b3480156101f557600080fd5b506101fe610719565b60405161020b91906143a6565b60405180910390f35b34801561022057600080fd5b5061023b60048036038101906102369190613aa8565b6107c0565b005b34801561024957600080fd5b50610264600480360381019061025f91906139ce565b611326565b005b34801561027257600080fd5b5061028d60048036038101906102889190613906565b611363565b60405161029a91906141e9565b60405180910390f35b3480156102af57600080fd5b506102ca60048036038101906102c59190613933565b611382565b005b3480156102d857600080fd5b506102f360048036038101906102ee9190613933565b6113ab565b005b34801561030157600080fd5b5061031c600480360381019061031791906139ce565b61142e565b60405161032991906143a6565b60405180910390f35b34801561033e57600080fd5b5061035960048036038101906103549190613a28565b6114e2565b005b34801561036757600080fd5b50610370611547565b60405161037e929190614473565b60405180910390f35b34801561039357600080fd5b5061039c611559565b6040516103a991906141e9565b60405180910390f35b3480156103be57600080fd5b506103d960048036038101906103d49190613b76565b61157d565b6040516103e691906143a6565b60405180910390f35b3480156103fb57600080fd5b50610404611744565b604051610412929190614473565b60405180910390f35b34801561042757600080fd5b50610442600480360381019061043d9190613933565b611756565b60405161044f91906141ce565b60405180910390f35b34801561046457600080fd5b5061047f600480360381019061047a9190613a28565b6117c0565b005b34801561048d57600080fd5b506104a860048036038101906104a39190613a28565b611825565b6040516104b6929190614473565b60405180910390f35b3480156104cb57600080fd5b506104d4611a75565b6040516104e191906141e9565b60405180910390f35b3480156104f657600080fd5b50610511600480360381019061050c91906139ce565b611a7c565b60405161051e9190614204565b60405180910390f35b34801561053357600080fd5b5061054e60048036038101906105499190613b23565b611aaf565b005b34801561055c57600080fd5b5061057760048036038101906105729190613aa8565b611ca2565b005b34801561058557600080fd5b506105a0600480360381019061059b919061387f565b61257f565b005b3480156105ae57600080fd5b506105b761268a565b005b3480156105c557600080fd5b506105e060048036038101906105db91906139ce565b612879565b6040516105ee929190614473565b60405180910390f35b34801561060357600080fd5b5061061e60048036038101906106199190613933565b61292f565b005b34801561062c57600080fd5b50610635612958565b60405161064291906143a6565b60405180910390f35b34801561065757600080fd5b50610672600480360381019061066d91906139ce565b61295e565b005b34801561068057600080fd5b50610689612fad565b6040516106969190614024565b60405180910390f35b60007f7965db0b000000000000000000000000000000000000000000000000000000007bffffffffffffffffffffffffffffffffffffffffffffffffffffffff1916827bffffffffffffffffffffffffffffffffffffffffffffffffffffffff19161480610712575061071182612fd3565b5b9050919050565b6000600760009054906101000a900473ffffffffffffffffffffffffffffffffffffffff1673ffffffffffffffffffffffffffffffffffffffff166305300b286040518163ffffffff1660e01b815260040160206040518083038186803b15801561078357600080fd5b505afa158015610797573d6000803e3d6000fd5b505050506040513d601f19601f820116820180604052508101906107bb91906139fb565b905090565b60006107d086868587600061157d565b905060006107e882600160000154600180015461303d565b90506000600760009054906101000a900473ffffffffffffffffffffffffffffffffffffffff1673ffffffffffffffffffffffffffffffffffffffff1663af7b262589898960008a888a61083c91906146d0565b896040518863ffffffff1660e01b815260040161085f979695949392919061449c565b602060405180830381600087803b15801561087957600080fd5b505af115801561088d573d6000803e3d6000fd5b505050506040513d601f19601f820116820180604052508101906108b191906139fb565b9050600760009054906101000a900473ffffffffffffffffffffffffffffffffffffffff1673ffffffffffffffffffffffffffffffffffffffff16636abae9b38260016040518363ffffffff1660e01b81526004016109119291906143ea565b60206040518083038186803b15801561092957600080fd5b505afa15801561093d573d6000803e3d6000fd5b505050506040513d601f19601f8201168201806040525081019061096191906139fb565b8410156109a3576040517f08c379a000000000000000000000000000000000000000000000000000000000815260040161099a906142e1565b60405180910390fd5b6009600089815260200190815260200160002060009054906101000a900473ffffffffffffffffffffffffffffffffffffffff1673ffffffffffffffffffffffffffffffffffffffff166323b872dd33600560009054906101000a900473ffffffffffffffffffffffffffffffffffffffff16876040518463ffffffff1660e01b8152600401610a359392919061409f565b602060405180830381600087803b158015610a4f57600080fd5b505af1158015610a63573d6000803e3d6000fd5b505050506040513d601f19601f82011682018060405250810190610a8791906138d9565b610ac6576040517f08c379a0000000000000000000000000000000000000000000000000000000008152600401610abd906142a1565b60405180910390fd5b6009600089815260200190815260200160002060009054906101000a900473ffffffffffffffffffffffffffffffffffffffff1673ffffffffffffffffffffffffffffffffffffffff1663095ea7b3600960008b815260200190815260200160002060009054906101000a900473ffffffffffffffffffffffffffffffffffffffff1673ffffffffffffffffffffffffffffffffffffffff1663f6b4dfb46040518163ffffffff1660e01b815260040160206040518083038186803b158015610b8e57600080fd5b505afa158015610ba2573d6000803e3d6000fd5b505050506040513d601f19601f82011682018060405250810190610bc691906138ac565b866040518363ffffffff1660e01b8152600401610be492919061403f565b602060405180830381600087803b158015610bfe57600080fd5b505af1158015610c12573d6000803e3d6000fd5b505050506040513d601f19601f82011682018060405250810190610c3691906138d9565b506009600089815260200190815260200160002060009054906101000a900473ffffffffffffffffffffffffffffffffffffffff1673ffffffffffffffffffffffffffffffffffffffff1663d2f714c5600560009054906101000a900473ffffffffffffffffffffffffffffffffffffffff1686600860009054906101000a900473ffffffffffffffffffffffffffffffffffffffff166040518463ffffffff1660e01b8152600401610ceb93929190614068565b602060405180830381600087803b158015610d0557600080fd5b505af1158015610d19573d6000803e3d6000fd5b505050506040513d601f19601f82011682018060405250810190610d3d91906139fb565b50600860009054906101000a900473ffffffffffffffffffffffffffffffffffffffff1673ffffffffffffffffffffffffffffffffffffffff1663a9059cbb600660009054906101000a900473ffffffffffffffffffffffffffffffffffffffff16600760009054906101000a900473ffffffffffffffffffffffffffffffffffffffff1673ffffffffffffffffffffffffffffffffffffffff166346047a66856040518263ffffffff1660e01b8152600401610dfa91906143a6565b60206040518083038186803b158015610e1257600080fd5b505afa158015610e26573d6000803e3d6000fd5b505050506040513d601f19601f82011682018060405250810190610e4a91906139fb565b6040518363ffffffff1660e01b8152600401610e6792919061410d565b602060405180830381600087803b158015610e8157600080fd5b505af1158015610e95573d6000803e3d6000fd5b505050506040513d601f19601f82011682018060405250810190610eb991906138d9565b610ef8576040517f08c379a0000000000000000000000000000000000000000000000000000000008152600401610eef906142c1565b60405180910390fd5b600760009054906101000a900473ffffffffffffffffffffffffffffffffffffffff1673ffffffffffffffffffffffffffffffffffffffff166328e493c1826040518263ffffffff1660e01b8152600401610f5391906143a6565b600060405180830381600087803b158015610f6d57600080fd5b505af1158015610f81573d6000803e3d6000fd5b50505050600660009054906101000a900473ffffffffffffffffffffffffffffffffffffffff1673ffffffffffffffffffffffffffffffffffffffff1663cbe42a183383600760009054906101000a900473ffffffffffffffffffffffffffffffffffffffff1673ffffffffffffffffffffffffffffffffffffffff166346047a66866040518263ffffffff1660e01b815260040161102091906143a6565b60206040518083038186803b15801561103857600080fd5b505afa15801561104c573d6000803e3d6000fd5b505050506040513d601f19601f8201168201806040525081019061107091906139fb565b600760009054906101000a900473ffffffffffffffffffffffffffffffffffffffff1673ffffffffffffffffffffffffffffffffffffffff1663128734c58760006040518363ffffffff1660e01b81526004016110ce929190614413565b60206040518083038186803b1580156110e657600080fd5b505afa1580156110fa573d6000803e3d6000fd5b505050506040513d601f19601f8201168201806040525081019061111e91906139fb565b600760009054906101000a900473ffffffffffffffffffffffffffffffffffffffff1673ffffffffffffffffffffffffffffffffffffffff1663128734c58860016040518363ffffffff1660e01b815260040161117c929190614413565b60206040518083038186803b15801561119457600080fd5b505afa1580156111a8573d6000803e3d6000fd5b505050506040513d601f19601f820116820180604052508101906111cc91906139fb565b6040518663ffffffff1660e01b81526004016111ec95949392919061417b565b600060405180830381600087803b15801561120657600080fd5b505af115801561121a573d6000803e3d6000fd5b505050503373ffffffffffffffffffffffffffffffffffffffff167f70f78afb3477f32fbbdae25a5446780cf2f44e041329d5f7688fa98e6524bf43600760009054906101000a900473ffffffffffffffffffffffffffffffffffffffff1673ffffffffffffffffffffffffffffffffffffffff16631ce5e9a6846040518263ffffffff1660e01b81526004016112b191906143a6565b6101e06040518083038186803b1580156112ca57600080fd5b505afa1580156112de573d6000803e3d6000fd5b505050506040513d601f19601f8201168201806040525081019061130291906139a0565b8660016040516113149392919061436c565b60405180910390a25050505050505050565b7fa49807205ce4d355092ef5a8a18f56e8913cf4a201fbe287825b095693c2177561135881611353613139565b613141565b81600a819055505050565b6000806000838152602001908152602001600020600101549050919050565b61138b82611363565b61139c81611397613139565b613141565b6113a683836131de565b505050565b6113b3613139565b73ffffffffffffffffffffffffffffffffffffffff168173ffffffffffffffffffffffffffffffffffffffff1614611420576040517f08c379a000000000000000000000000000000000000000000000000000000000815260040161141790614321565b60405180910390fd5b61142a82826132be565b5050565b6000600760009054906101000a900473ffffffffffffffffffffffffffffffffffffffff1673ffffffffffffffffffffffffffffffffffffffff166340d6eaab836040518263ffffffff1660e01b815260040161148b91906143a6565b60206040518083038186803b1580156114a357600080fd5b505afa1580156114b7573d6000803e3d6000fd5b505050506040513d601f19601f820116820180604052508101906114db91906139fb565b9050919050565b7fa49807205ce4d355092ef5a8a18f56e8913cf4a201fbe287825b095693c217756115148161150f613139565b613141565b60405180604001604052808481526020018381525060036000820151816000015560208201518160010155905050505050565b60038060000154908060010154905082565b7fa49807205ce4d355092ef5a8a18f56e8913cf4a201fbe287825b095693c2177581565b6000806000600660009054906101000a900473ffffffffffffffffffffffffffffffffffffffff1673ffffffffffffffffffffffffffffffffffffffff1663bd069b418787876040518463ffffffff1660e01b81526004016115e19392919061443c565b604080518083038186803b1580156115f857600080fd5b505afa15801561160c573d6000803e3d6000fd5b505050506040513d601f19601f820116820180604052508101906116309190613a68565b91509150600a54611641838361339f565b1115611682576040517f08c379a000000000000000000000000000000000000000000000000000000000815260040161167990614261565b60405180910390fd5b600760009054906101000a900473ffffffffffffffffffffffffffffffffffffffff1673ffffffffffffffffffffffffffffffffffffffff1663d6811db08989888a87876040518763ffffffff1660e01b81526004016116e79695949392919061450b565b60206040518083038186803b1580156116ff57600080fd5b505afa158015611713573d6000803e3d6000fd5b505050506040513d601f19601f8201168201806040525081019061173791906139fb565b9250505095945050505050565b60018060000154908060010154905082565b600080600084815260200190815260200160002060000160008373ffffffffffffffffffffffffffffffffffffffff1673ffffffffffffffffffffffffffffffffffffffff16815260200190815260200160002060009054906101000a900460ff16905092915050565b7fa49807205ce4d355092ef5a8a18f56e8913cf4a201fbe287825b095693c217756117f2816117ed613139565b613141565b60405180604001604052808481526020018381525060016000820151816000015560208201518160010155905050505050565b6000806000600760009054906101000a900473ffffffffffffffffffffffffffffffffffffffff1673ffffffffffffffffffffffffffffffffffffffff1663b0667cf86040518163ffffffff1660e01b8152600401604080518083038186803b15801561189157600080fd5b505afa1580156118a5573d6000803e3d6000fd5b505050506040513d601f19601f820116820180604052508101906118c99190613a68565b5090506000600760009054906101000a900473ffffffffffffffffffffffffffffffffffffffff1673ffffffffffffffffffffffffffffffffffffffff1663cfc2dc20876040518263ffffffff1660e01b815260040161192991906143a6565b604080518083038186803b15801561194057600080fd5b505afa158015611954573d6000803e3d6000fd5b505050506040513d601f19601f820116820180604052508101906119789190613a68565b50905060006009600088815260200190815260200160002060009054906101000a900473ffffffffffffffffffffffffffffffffffffffff1673ffffffffffffffffffffffffffffffffffffffff166362c5c1198785856040518463ffffffff1660e01b81526004016119ed9392919061456c565b60206040518083038186803b158015611a0557600080fd5b505afa158015611a19573d6000803e3d6000fd5b505050506040513d601f19601f82011682018060405250810190611a3d91906139fb565b9050600060036001015460036000015483611a589190614676565b611a629190614645565b9050818195509550505050509250929050565b6000801b81565b60096020528060005260406000206000915054906101000a900473ffffffffffffffffffffffffffffffffffffffff1681565b600080611abc8585611825565b915091508082611acc91906145ef565b831015611ad857600080fd5b600860009054906101000a900473ffffffffffffffffffffffffffffffffffffffff1673ffffffffffffffffffffffffffffffffffffffff166323b872dd336009600089815260200190815260200160002060009054906101000a900473ffffffffffffffffffffffffffffffffffffffff16856040518463ffffffff1660e01b8152600401611b6a939291906140d6565b602060405180830381600087803b158015611b8457600080fd5b505af1158015611b98573d6000803e3d6000fd5b505050506040513d601f19601f82011682018060405250810190611bbc91906138d9565b506009600086815260200190815260200160002060009054906101000a900473ffffffffffffffffffffffffffffffffffffffff1673ffffffffffffffffffffffffffffffffffffffff166340c10f198333876040518463ffffffff1660e01b8152600401611c2c92919061410d565b6000604051808303818588803b158015611c4557600080fd5b505af1158015611c59573d6000803e3d6000fd5b50505050507f701297180b43ed5c70ad79a3036dca759169e2b5f64d7c4d04f2322af0511c8d33428787604051611c939493929190614136565b60405180910390a15050505050565b6000611cb286868587600061157d565b90506000611cca82600160000154600180015461303d565b90506000600760009054906101000a900473ffffffffffffffffffffffffffffffffffffffff1673ffffffffffffffffffffffffffffffffffffffff1663af7b262589898960008a888a611d1e91906146d0565b896040518863ffffffff1660e01b8152600401611d41979695949392919061449c565b602060405180830381600087803b158015611d5b57600080fd5b505af1158015611d6f573d6000803e3d6000fd5b505050506040513d601f19601f82011682018060405250810190611d9391906139fb565b9050600760009054906101000a900473ffffffffffffffffffffffffffffffffffffffff1673ffffffffffffffffffffffffffffffffffffffff16636abae9b38260006040518363ffffffff1660e01b8152600401611df39291906143ea565b60206040518083038186803b158015611e0b57600080fd5b505afa158015611e1f573d6000803e3d6000fd5b505050506040513d601f19601f82011682018060405250810190611e4391906139fb565b841015611e85576040517f08c379a0000000000000000000000000000000000000000000000000000000008152600401611e7c906142e1565b60405180910390fd5b600860009054906101000a900473ffffffffffffffffffffffffffffffffffffffff1673ffffffffffffffffffffffffffffffffffffffff166323b872dd33600560009054906101000a900473ffffffffffffffffffffffffffffffffffffffff16876040518463ffffffff1660e01b8152600401611f069392919061409f565b602060405180830381600087803b158015611f2057600080fd5b505af1158015611f34573d6000803e3d6000fd5b505050506040513d601f19601f82011682018060405250810190611f5891906138d9565b611f97576040517f08c379a0000000000000000000000000000000000000000000000000000000008152600401611f8e906142a1565b60405180910390fd5b600860009054906101000a900473ffffffffffffffffffffffffffffffffffffffff1673ffffffffffffffffffffffffffffffffffffffff1663a9059cbb600660009054906101000a900473ffffffffffffffffffffffffffffffffffffffff16600760009054906101000a900473ffffffffffffffffffffffffffffffffffffffff1673ffffffffffffffffffffffffffffffffffffffff166346047a66856040518263ffffffff1660e01b815260040161205391906143a6565b60206040518083038186803b15801561206b57600080fd5b505afa15801561207f573d6000803e3d6000fd5b505050506040513d601f19601f820116820180604052508101906120a391906139fb565b6040518363ffffffff1660e01b81526004016120c092919061410d565b602060405180830381600087803b1580156120da57600080fd5b505af11580156120ee573d6000803e3d6000fd5b505050506040513d601f19601f8201168201806040525081019061211291906138d9565b612151576040517f08c379a0000000000000000000000000000000000000000000000000000000008152600401612148906142c1565b60405180910390fd5b600760009054906101000a900473ffffffffffffffffffffffffffffffffffffffff1673ffffffffffffffffffffffffffffffffffffffff166328e493c1826040518263ffffffff1660e01b81526004016121ac91906143a6565b600060405180830381600087803b1580156121c657600080fd5b505af11580156121da573d6000803e3d6000fd5b50505050600660009054906101000a900473ffffffffffffffffffffffffffffffffffffffff1673ffffffffffffffffffffffffffffffffffffffff1663cbe42a183383600760009054906101000a900473ffffffffffffffffffffffffffffffffffffffff1673ffffffffffffffffffffffffffffffffffffffff166346047a66866040518263ffffffff1660e01b815260040161227991906143a6565b60206040518083038186803b15801561229157600080fd5b505afa1580156122a5573d6000803e3d6000fd5b505050506040513d601f19601f820116820180604052508101906122c991906139fb565b600760009054906101000a900473ffffffffffffffffffffffffffffffffffffffff1673ffffffffffffffffffffffffffffffffffffffff1663128734c58760006040518363ffffffff1660e01b8152600401612327929190614413565b60206040518083038186803b15801561233f57600080fd5b505afa158015612353573d6000803e3d6000fd5b505050506040513d601f19601f8201168201806040525081019061237791906139fb565b600760009054906101000a900473ffffffffffffffffffffffffffffffffffffffff1673ffffffffffffffffffffffffffffffffffffffff1663128734c58860016040518363ffffffff1660e01b81526004016123d5929190614413565b60206040518083038186803b1580156123ed57600080fd5b505afa158015612401573d6000803e3d6000fd5b505050506040513d601f19601f8201168201806040525081019061242591906139fb565b6040518663ffffffff1660e01b815260040161244595949392919061417b565b600060405180830381600087803b15801561245f57600080fd5b505af1158015612473573d6000803e3d6000fd5b505050503373ffffffffffffffffffffffffffffffffffffffff167f70f78afb3477f32fbbdae25a5446780cf2f44e041329d5f7688fa98e6524bf43600760009054906101000a900473ffffffffffffffffffffffffffffffffffffffff1673ffffffffffffffffffffffffffffffffffffffff16631ce5e9a6846040518263ffffffff1660e01b815260040161250a91906143a6565b6101e06040518083038186803b15801561252357600080fd5b505afa158015612537573d6000803e3d6000fd5b505050506040513d601f19601f8201168201806040525081019061255b91906139a0565b86600060405161256d9392919061436c565b60405180910390a25050505050505050565b7fa49807205ce4d355092ef5a8a18f56e8913cf4a201fbe287825b095693c217756125b1816125ac613139565b613141565b600082905080600960008373ffffffffffffffffffffffffffffffffffffffff1663a15612d16040518163ffffffff1660e01b815260040160206040518083038186803b15801561260157600080fd5b505afa158015612615573d6000803e3d6000fd5b505050506040513d601f19601f8201168201806040525081019061263991906139fb565b815260200190815260200160002060006101000a81548173ffffffffffffffffffffffffffffffffffffffff021916908373ffffffffffffffffffffffffffffffffffffffff160217905550505050565b7fa49807205ce4d355092ef5a8a18f56e8913cf4a201fbe287825b095693c217756126bc816126b7613139565b613141565b600860009054906101000a900473ffffffffffffffffffffffffffffffffffffffff1673ffffffffffffffffffffffffffffffffffffffff1663a9059cbb33600860009054906101000a900473ffffffffffffffffffffffffffffffffffffffff1673ffffffffffffffffffffffffffffffffffffffff166370a08231600560009054906101000a900473ffffffffffffffffffffffffffffffffffffffff166040518263ffffffff1660e01b81526004016127789190614009565b60206040518083038186803b15801561279057600080fd5b505afa1580156127a4573d6000803e3d6000fd5b505050506040513d601f19601f820116820180604052508101906127c891906139fb565b6040518363ffffffff1660e01b81526004016127e592919061410d565b602060405180830381600087803b1580156127ff57600080fd5b505af1158015612813573d6000803e3d6000fd5b505050506040513d601f19601f8201168201806040525081019061283791906138d9565b612876576040517f08c379a000000000000000000000000000000000000000000000000000000000815260040161286d90614281565b60405180910390fd5b50565b600080600760009054906101000a900473ffffffffffffffffffffffffffffffffffffffff1673ffffffffffffffffffffffffffffffffffffffff1663cfc2dc20846040518263ffffffff1660e01b81526004016128d791906143a6565b604080518083038186803b1580156128ee57600080fd5b505afa158015612902573d6000803e3d6000fd5b505050506040513d601f19601f820116820180604052508101906129269190613a68565b91509150915091565b61293882611363565b61294981612944613139565b613141565b61295383836132be565b505050565b600a5481565b600760009054906101000a900473ffffffffffffffffffffffffffffffffffffffff1673ffffffffffffffffffffffffffffffffffffffff1663a556feec82336040518363ffffffff1660e01b81526004016129bb9291906143c1565b60006040518083038186803b1580156129d357600080fd5b505afa1580156129e7573d6000803e3d6000fd5b505050506000600760009054906101000a900473ffffffffffffffffffffffffffffffffffffffff1673ffffffffffffffffffffffffffffffffffffffff166340d6eaab836040518263ffffffff1660e01b8152600401612a4891906143a6565b60206040518083038186803b158015612a6057600080fd5b505afa158015612a74573d6000803e3d6000fd5b505050506040513d601f19601f82011682018060405250810190612a9891906139fb565b9050600760009054906101000a900473ffffffffffffffffffffffffffffffffffffffff1673ffffffffffffffffffffffffffffffffffffffff16636c1f7b93836040518263ffffffff1660e01b8152600401612af591906143a6565b600060405180830381600087803b158015612b0f57600080fd5b505af1158015612b23573d6000803e3d6000fd5b50505050600860009054906101000a900473ffffffffffffffffffffffffffffffffffffffff1673ffffffffffffffffffffffffffffffffffffffff1663a9059cbb33836040518363ffffffff1660e01b8152600401612b8492919061410d565b602060405180830381600087803b158015612b9e57600080fd5b505af1158015612bb2573d6000803e3d6000fd5b505050506040513d601f19601f82011682018060405250810190612bd691906138d9565b612c15576040517f08c379a0000000000000000000000000000000000000000000000000000000008152600401612c0c90614301565b60405180910390fd5b600660009054906101000a900473ffffffffffffffffffffffffffffffffffffffff1673ffffffffffffffffffffffffffffffffffffffff1663d5093b0b3384600760009054906101000a900473ffffffffffffffffffffffffffffffffffffffff1673ffffffffffffffffffffffffffffffffffffffff166346047a66876040518263ffffffff1660e01b8152600401612cb091906143a6565b60206040518083038186803b158015612cc857600080fd5b505afa158015612cdc573d6000803e3d6000fd5b505050506040513d601f19601f82011682018060405250810190612d0091906139fb565b600760009054906101000a900473ffffffffffffffffffffffffffffffffffffffff1673ffffffffffffffffffffffffffffffffffffffff1663128734c58860006040518363ffffffff1660e01b8152600401612d5e929190614413565b60206040518083038186803b158015612d7657600080fd5b505afa158015612d8a573d6000803e3d6000fd5b505050506040513d601f19601f82011682018060405250810190612dae91906139fb565b600760009054906101000a900473ffffffffffffffffffffffffffffffffffffffff1673ffffffffffffffffffffffffffffffffffffffff1663128734c58960016040518363ffffffff1660e01b8152600401612e0c929190614413565b60206040518083038186803b158015612e2457600080fd5b505afa158015612e38573d6000803e3d6000fd5b505050506040513d601f19601f82011682018060405250810190612e5c91906139fb565b6040518663ffffffff1660e01b8152600401612e7c95949392919061417b565b600060405180830381600087803b158015612e9657600080fd5b505af1158015612eaa573d6000803e3d6000fd5b505050503373ffffffffffffffffffffffffffffffffffffffff167f41c2c00510329a39f538637baf1a4cec0c212ffecb304f9a04517c285c981b08600760009054906101000a900473ffffffffffffffffffffffffffffffffffffffff1673ffffffffffffffffffffffffffffffffffffffff16631ce5e9a6856040518263ffffffff1660e01b8152600401612f4191906143a6565b6101e06040518083038186803b158015612f5a57600080fd5b505afa158015612f6e573d6000803e3d6000fd5b505050506040513d601f19601f82011682018060405250810190612f9291906139a0565b83604051612fa1929190614341565b60405180910390a25050565b600560009054906101000a900473ffffffffffffffffffffffffffffffffffffffff1681565b60007f01ffc9a7000000000000000000000000000000000000000000000000000000007bffffffffffffffffffffffffffffffffffffffffffffffffffffffff1916827bffffffffffffffffffffffffffffffffffffffffffffffffffffffff1916149050919050565b600080600080198587098587029250828110838203039150506000811415613078576000841161306c57600080fd5b83820492505050613132565b80841161308457600080fd5b60008486880990508281118203915080830392506000856001877fffffffffffffffffffffffffffffffffffffffffffffffffffffffffffffffff0301169050808604955080840493506001818260000304019050808302841793506000600287600302189050808702600203810290508087026002038102905080870260020381029050808702600203810290508087026002038102905080870260020381029050808502955050505050505b9392505050565b600033905090565b61314b8282611756565b6131da576131708173ffffffffffffffffffffffffffffffffffffffff1660146133b9565b61317e8360001c60206133b9565b60405160200161318f929190613fcf565b6040516020818303038152906040526040517f08c379a00000000000000000000000000000000000000000000000000000000081526004016131d1919061421f565b60405180910390fd5b5050565b6131e88282611756565b6132ba57600160008084815260200190815260200160002060000160008373ffffffffffffffffffffffffffffffffffffffff1673ffffffffffffffffffffffffffffffffffffffff16815260200190815260200160002060006101000a81548160ff02191690831515021790555061325f613139565b73ffffffffffffffffffffffffffffffffffffffff168173ffffffffffffffffffffffffffffffffffffffff16837f2f8788117e7eff1d82e926ec794901d17c78024a50270940304540a733656f0d60405160405180910390a45b5050565b6132c88282611756565b1561339b57600080600084815260200190815260200160002060000160008373ffffffffffffffffffffffffffffffffffffffff1673ffffffffffffffffffffffffffffffffffffffff16815260200190815260200160002060006101000a81548160ff021916908315150217905550613340613139565b73ffffffffffffffffffffffffffffffffffffffff168173ffffffffffffffffffffffffffffffffffffffff16837ff6391f5c32d9c69d2a47ea670b442974b53935d1edc7fd64eb21e047a839171b60405160405180910390a45b5050565b6000818310156133af57816133b1565b825b905092915050565b6060600060028360026133cc9190614676565b6133d691906145ef565b67ffffffffffffffff8111156133ef576133ee6149cb565b5b6040519080825280601f01601f1916602001820160405280156134215781602001600182028036833780820191505090505b5090507f3000000000000000000000000000000000000000000000000000000000000000816000815181106134595761345861499c565b5b60200101907effffffffffffffffffffffffffffffffffffffffffffffffffffffffffffff1916908160001a9053507f7800000000000000000000000000000000000000000000000000000000000000816001815181106134bd576134bc61499c565b5b60200101907effffffffffffffffffffffffffffffffffffffffffffffffffffffffffffff1916908160001a905350600060018460026134fd9190614676565b61350791906145ef565b90505b60018111156135a7577f3031323334353637383961626364656600000000000000000000000000000000600f8616601081106135495761354861499c565b5b1a60f81b8282815181106135605761355f61499c565b5b60200101907effffffffffffffffffffffffffffffffffffffffffffffffffffffffffffff1916908160001a905350600485901c9450806135a0906148b4565b905061350a565b50600084146135eb576040517f08c379a00000000000000000000000000000000000000000000000000000000081526004016135e290614241565b60405180910390fd5b8091505092915050565b60008135905061360481614c11565b92915050565b60008151905061361981614c11565b92915050565b60008135905061362e81614c28565b92915050565b60008151905061364381614c28565b92915050565b60008151905061365881614c3f565b92915050565b60008135905061366d81614c56565b92915050565b60008135905061368281614c6d565b92915050565b60008135905061369781614c84565b92915050565b6000815190506136ac81614c84565b92915050565b6000815190506136c181614c94565b92915050565b6000813590506136d681614ca4565b92915050565b6000815190506136eb81614ca4565b92915050565b60006101e08284031215613708576137076149fa565b5b6137136101e06145a3565b90506000613723848285016136dc565b60008301525060206137378482850161369d565b602083015250604061374b848285016136b2565b604083015250606061375f8482850161360a565b60608301525060806137738482850161386a565b60808301525060a06137878482850161386a565b60a08301525060c061379b8482850161386a565b60c08301525060e06137af8482850161386a565b60e0830152506101006137c48482850161386a565b610100830152506101206137da8482850161386a565b610120830152506101406137f08482850161386a565b610140830152506101606138068482850161386a565b6101608301525061018061381c8482850161386a565b610180830152506101a06138328482850161386a565b6101a0830152506101c06138488482850161386a565b6101c08301525092915050565b60008135905061386481614cb4565b92915050565b60008151905061387981614cb4565b92915050565b600060208284031215613895576138946149ff565b5b60006138a38482850161361f565b91505092915050565b6000602082840312156138c2576138c16149ff565b5b60006138d084828501613634565b91505092915050565b6000602082840312156138ef576138ee6149ff565b5b60006138fd84828501613649565b91505092915050565b60006020828403121561391c5761391b6149ff565b5b600061392a8482850161365e565b91505092915050565b6000806040838503121561394a576139496149ff565b5b60006139588582860161365e565b9250506020613969858286016135f5565b9150509250929050565b600060208284031215613989576139886149ff565b5b600061399784828501613673565b91505092915050565b60006101e082840312156139b7576139b66149ff565b5b60006139c5848285016136f1565b91505092915050565b6000602082840312156139e4576139e36149ff565b5b60006139f284828501613855565b91505092915050565b600060208284031215613a1157613a106149ff565b5b6000613a1f8482850161386a565b91505092915050565b60008060408385031215613a3f57613a3e6149ff565b5b6000613a4d85828601613855565b9250506020613a5e85828601613855565b9150509250929050565b60008060408385031215613a7f57613a7e6149ff565b5b6000613a8d8582860161386a565b9250506020613a9e8582860161386a565b9150509250929050565b600080600080600060a08688031215613ac457613ac36149ff565b5b6000613ad288828901613855565b9550506020613ae388828901613855565b9450506040613af4888289016136c7565b9350506060613b0588828901613855565b9250506080613b1688828901613855565b9150509295509295909350565b600080600060608486031215613b3c57613b3b6149ff565b5b6000613b4a86828701613855565b9350506020613b5b86828701613855565b9250506040613b6c86828701613855565b9150509250925092565b600080600080600060a08688031215613b9257613b916149ff565b5b6000613ba088828901613855565b9550506020613bb188828901613855565b9450506040613bc288828901613855565b9350506060613bd3888289016136c7565b9250506080613be488828901613688565b9150509295509295909350565b613bfa816147cd565b82525050565b613c0981614716565b82525050565b613c1881614704565b82525050565b613c2781614704565b82525050565b613c3681614728565b82525050565b613c4581614734565b82525050565b613c54816147df565b82525050565b613c6381614803565b82525050565b613c7281614827565b82525050565b613c8181614827565b82525050565b613c9081614839565b82525050565b613c9f8161484b565b82525050565b613cae8161484b565b82525050565b6000613cbf826145c8565b613cc981856145d3565b9350613cd9818560208601614881565b613ce281614a04565b840191505092915050565b6000613cf8826145c8565b613d0281856145e4565b9350613d12818560208601614881565b80840191505092915050565b6000613d2b6020836145d3565b9150613d3682614a15565b602082019050919050565b6000613d4e6019836145d3565b9150613d5982614a3e565b602082019050919050565b6000613d716012836145d3565b9150613d7c82614a67565b602082019050919050565b6000613d94600f836145d3565b9150613d9f82614a90565b602082019050919050565b6000613db76017836145d3565b9150613dc282614ab9565b602082019050919050565b6000613dda601a836145d3565b9150613de582614ae2565b602082019050919050565b6000613dfd6010836145d3565b9150613e0882614b0b565b602082019050919050565b6000613e206017836145e4565b9150613e2b82614b34565b601782019050919050565b6000613e436011836145e4565b9150613e4e82614b5d565b601182019050919050565b6000613e66602f836145d3565b9150613e7182614b86565b604082019050919050565b6101e082016000820151613e936000850182613c96565b506020820151613ea66020850182613c69565b506040820151613eb96040850182613c87565b506060820151613ecc6060850182613c0f565b506080820151613edf6080850182613fb1565b5060a0820151613ef260a0850182613fb1565b5060c0820151613f0560c0850182613fb1565b5060e0820151613f1860e0850182613fb1565b50610100820151613f2d610100850182613fb1565b50610120820151613f42610120850182613fb1565b50610140820151613f57610140850182613fb1565b50610160820151613f6c610160850182613fb1565b50610180820151613f81610180850182613fb1565b506101a0820151613f966101a0850182613fb1565b506101c0820151613fab6101c0850182613fb1565b50505050565b613fba816147c3565b82525050565b613fc9816147c3565b82525050565b6000613fda82613e13565b9150613fe68285613ced565b9150613ff182613e36565b9150613ffd8284613ced565b91508190509392505050565b600060208201905061401e6000830184613bf1565b92915050565b60006020820190506140396000830184613c00565b92915050565b60006040820190506140546000830185613bf1565b6140616020830184613fc0565b9392505050565b600060608201905061407d6000830186613c00565b61408a6020830185613fc0565b6140976040830184613c4b565b949350505050565b60006060820190506140b46000830186613c1e565b6140c16020830185613bf1565b6140ce6040830184613fc0565b949350505050565b60006060820190506140eb6000830186613c1e565b6140f86020830185613c1e565b6141056040830184613fc0565b949350505050565b60006040820190506141226000830185613c1e565b61412f6020830184613fc0565b9392505050565b600060808201905061414b6000830187613c1e565b6141586020830186613fc0565b6141656040830185613fc0565b6141726060830184613fc0565b95945050505050565b600060a0820190506141906000830188613c1e565b61419d6020830187613fc0565b6141aa6040830186613fc0565b6141b76060830185613fc0565b6141c46080830184613fc0565b9695505050505050565b60006020820190506141e36000830184613c2d565b92915050565b60006020820190506141fe6000830184613c3c565b92915050565b60006020820190506142196000830184613c5a565b92915050565b600060208201905081810360008301526142398184613cb4565b905092915050565b6000602082019050818103600083015261425a81613d1e565b9050919050565b6000602082019050818103600083015261427a81613d41565b9050919050565b6000602082019050818103600083015261429a81613d64565b9050919050565b600060208201905081810360008301526142ba81613d87565b9050919050565b600060208201905081810360008301526142da81613daa565b9050919050565b600060208201905081810360008301526142fa81613dcd565b9050919050565b6000602082019050818103600083015261431a81613df0565b9050919050565b6000602082019050818103600083015261433a81613e59565b9050919050565b6000610200820190506143576000830185613e7c565b6143656101e0830184613fc0565b9392505050565b6000610220820190506143826000830186613e7c565b6143906101e0830185613fc0565b61439e610200830184613c2d565b949350505050565b60006020820190506143bb6000830184613fc0565b92915050565b60006040820190506143d66000830185613fc0565b6143e36020830184613c1e565b9392505050565b60006040820190506143ff6000830185613fc0565b61440c6020830184613c2d565b9392505050565b60006040820190506144286000830185613fc0565b6144356020830184613ca5565b9392505050565b60006060820190506144516000830186613fc0565b61445e6020830185613ca5565b61446b6040830184613c78565b949350505050565b60006040820190506144886000830185613fc0565b6144956020830184613fc0565b9392505050565b600060e0820190506144b1600083018a613fc0565b6144be6020830189613fc0565b6144cb6040830188613ca5565b6144d86060830187613c78565b6144e56080830186613fc0565b6144f260a0830185613fc0565b6144ff60c0830184613fc0565b98975050505050505050565b600060c0820190506145206000830189613fc0565b61452d6020830188613fc0565b61453a6040830187613ca5565b6145476060830186613fc0565b6145546080830185613fc0565b61456160a0830184613fc0565b979650505050505050565b60006060820190506145816000830186613fc0565b61458e6020830185613fc0565b61459b6040830184613fc0565b949350505050565b60006145ad6145be565b90506145b982826148de565b919050565b6000604051905090565b600081519050919050565b600082825260208201905092915050565b600081905092915050565b60006145fa826147c3565b9150614605836147c3565b9250827fffffffffffffffffffffffffffffffffffffffffffffffffffffffffffffffff0382111561463a5761463961490f565b5b828201905092915050565b6000614650826147c3565b915061465b836147c3565b92508261466b5761466a61493e565b5b828204905092915050565b6000614681826147c3565b915061468c836147c3565b9250817fffffffffffffffffffffffffffffffffffffffffffffffffffffffffffffffff04831182151516156146c5576146c461490f565b5b828202905092915050565b60006146db826147c3565b91506146e6836147c3565b9250828210156146f9576146f861490f565b5b828203905092915050565b600061470f826147a3565b9050919050565b6000614721826147a3565b9050919050565b60008115159050919050565b6000819050919050565b60007fffffffff0000000000000000000000000000000000000000000000000000000082169050919050565b600081905061477882614bd5565b919050565b600081905061478b82614be9565b919050565b600081905061479e82614bfd565b919050565b600073ffffffffffffffffffffffffffffffffffffffff82169050919050565b6000819050919050565b60006147d88261485d565b9050919050565b60006147ea826147f1565b9050919050565b60006147fc826147a3565b9050919050565b600061480e82614815565b9050919050565b6000614820826147a3565b9050919050565b60006148328261476a565b9050919050565b60006148448261477d565b9050919050565b600061485682614790565b9050919050565b60006148688261486f565b9050919050565b600061487a826147a3565b9050919050565b60005b8381101561489f578082015181840152602081019050614884565b838111156148ae576000848401525b50505050565b60006148bf826147c3565b915060008214156148d3576148d261490f565b5b600182039050919050565b6148e782614a04565b810181811067ffffffffffffffff82111715614906576149056149cb565b5b80604052505050565b7f4e487b7100000000000000000000000000000000000000000000000000000000600052601160045260246000fd5b7f4e487b7100000000000000000000000000000000000000000000000000000000600052601260045260246000fd5b7f4e487b7100000000000000000000000000000000000000000000000000000000600052602160045260246000fd5b7f4e487b7100000000000000000000000000000000000000000000000000000000600052603260045260246000fd5b7f4e487b7100000000000000000000000000000000000000000000000000000000600052604160045260246000fd5b600080fd5b600080fd5b6000601f19601f8301169050919050565b7f537472696e67733a20686578206c656e67746820696e73756666696369656e74600082015250565b7f4d6178207574696c69736174696f6e2062726561636865642e00000000000000600082015250565b7f5769746864726177616c206661696c65642e0000000000000000000000000000600082015250565b7f4661696c6564207061796d656e742e0000000000000000000000000000000000600082015250565b7f4661696c6564207072656d69756d207061796d656e742e000000000000000000600082015250565b7f456e7465726564207072656d69756d20696e636f72726563742e000000000000600082015250565b7f5472616e73666572206661696c65642e00000000000000000000000000000000600082015250565b7f416363657373436f6e74726f6c3a206163636f756e7420000000000000000000600082015250565b7f206973206d697373696e6720726f6c6520000000000000000000000000000000600082015250565b7f416363657373436f6e74726f6c3a2063616e206f6e6c792072656e6f756e636560008201527f20726f6c657320666f722073656c660000000000000000000000000000000000602082015250565b60028110614be657614be561496d565b5b50565b60048110614bfa57614bf961496d565b5b50565b60028110614c0e57614c0d61496d565b5b50565b614c1a81614704565b8114614c2557600080fd5b50565b614c3181614716565b8114614c3c57600080fd5b50565b614c4881614728565b8114614c5357600080fd5b50565b614c5f81614734565b8114614c6a57600080fd5b50565b614c768161473e565b8114614c8157600080fd5b50565b60028110614c9157600080fd5b50565b60048110614ca157600080fd5b50565b60028110614cb157600080fd5b50565b614cbd816147c3565b8114614cc857600080fd5b5056fea26469706673582212207f537f09a1249f515f7d30c20f3c5285af3a11c5ef2ad2280d8d14a6dc40858064736f6c63430008060033",
  "immutableReferences": {},
  "source": "/**\n * SPDX-License-Identifier: GPL-3.0-or-later\n * Moret\n * Copyright (C) 2021 Moret\n*/\n\npragma solidity ^0.8.4;\n\nimport \"@openzeppelin/contracts/token/ERC20/ERC20.sol\";\nimport \"@openzeppelin/contracts/access/AccessControl.sol\";\nimport \"@openzeppelin/contracts/utils/math/Math.sol\";\nimport \"./MoretInterfaces.sol\";\nimport \"./OptionVault.sol\";\nimport \"./VolatilityToken.sol\";\nimport \"./MoretMarketMaker.sol\";\nimport \"./FullMath.sol\";\n\ncontract Exchange is AccessControl, EOption\n{\n    bytes32 public constant ADMIN_ROLE = keccak256(\"ADMIN_ROLE\");\n\n    OptionLibrary.Percent public settlementFee = OptionLibrary.Percent(10 ** 5, 10 ** 6);\n    OptionLibrary.Percent public volTransactionFees = OptionLibrary.Percent(5 * 10 ** 3, 10 ** 6);\n      address payable public contractAddress;\n\n    MoretMarketMaker internal marketMaker;\n    OptionVault internal optionVault;\n      ERC20 internal underlyingToken;\n    mapping(uint256=>VolatilityToken) public volTokensList;\n\n    uint256 private constant ethMultiplier = 10 ** 18;\n    uint256 public maxUtilisation = 10 ** 18;\n\n    constructor(\n      address payable _marketMakerAddress,\n      address _optionAddress,\n      address payable _volTokenAddress\n      )\n    {\n       _setupRole(DEFAULT_ADMIN_ROLE, msg.sender);\n        _setupRole(ADMIN_ROLE, msg.sender);\n\n      optionVault = OptionVault(_optionAddress);\n      marketMaker = MoretMarketMaker(_marketMakerAddress);\n      VolatilityToken _volToken = VolatilityToken(_volTokenAddress);\n      volTokensList[_volToken.tenor()] = _volToken;\n      contractAddress = payable(address(this));\n\n      underlyingToken = ERC20(marketMaker.underlyingAddress());\n    }\n\n    function queryOptionCost(uint256 _tenor, uint256 _strike, uint256 _amount,\n      OptionLibrary.PayoffType _poType, OptionLibrary.OptionSide _side)\n      public view returns(uint256)\n    {\n        (uint256 _utilPrior, uint256 _utilAfter)  = marketMaker.calcUtilisation(_amount, _poType, _side);\n        require(Math.max(_utilPrior, _utilAfter)<= maxUtilisation, \"Max utilisation breached.\");\n\n        return optionVault.queryOptionCost(_tenor, _strike, _poType, _amount, _utilPrior, _utilAfter );\n    }\n\n    function purchaseOption(uint256 _tenor, uint256 _strike, OptionLibrary.PayoffType _poType,\n      uint256 _amount, uint256 _payInCost)\n      external\n      {\n      uint256 _premium = queryOptionCost(_tenor, _strike, _amount, _poType,OptionLibrary.OptionSide.Buy );\n      uint256 _fee = MulDiv(_premium, settlementFee.numerator, settlementFee.denominator);\n\n      uint256 _id = optionVault.addOption(_tenor, _strike, _poType, OptionLibrary.OptionSide.Buy, _amount, _premium - _fee, _fee );\n\n      require(_payInCost >= optionVault.queryDraftOptionCost(_id, false), \"Entered premium incorrect.\");\n\n      require(underlyingToken.transferFrom(msg.sender, contractAddress, _payInCost), 'Failed payment.');\n      require(underlyingToken.transfer(address(marketMaker), optionVault.queryOptionPremium(_id)), 'Failed premium payment.');\n\n      optionVault.stampActiveOption(_id);\n\n      marketMaker.recordOptionPurhcase(msg.sender, _id, optionVault.queryOptionPremium(_id),\n        optionVault.queryOptionExposure(_id, OptionLibrary.PayoffType.Call),\n        optionVault.queryOptionExposure(_id, OptionLibrary.PayoffType.Put));\n\n\n        emit newOptionBought(msg.sender, optionVault.getOption(_id), _payInCost, false);\n\n    }\n\n    function purchaseOptionInVol(uint256 _tenor, uint256 _strike, OptionLibrary.PayoffType _poType,\n      uint256 _amount, uint256 _payInCost)\n      external\n      {\n      uint256 _premium = queryOptionCost(_tenor, _strike, _amount, _poType,OptionLibrary.OptionSide.Buy );\n      uint256 _fee = MulDiv(_premium, settlementFee.numerator, settlementFee.denominator);\n\n      uint256 _id = optionVault.addOption(_tenor, _strike, _poType, OptionLibrary.OptionSide.Buy, _amount, _premium - _fee, _fee );\n      require(_payInCost >= optionVault.queryDraftOptionCost(_id, true), \"Entered premium incorrect.\");\n\n      require(volTokensList[_tenor].transferFrom(msg.sender, contractAddress, _payInCost), 'Failed payment.');\n\n      volTokensList[_tenor].approve(volTokensList[_tenor].contractAddress(), _payInCost);\n      volTokensList[_tenor].recycleInToken(contractAddress, _payInCost, underlyingToken);\n      require(underlyingToken.transfer(address(marketMaker), optionVault.queryOptionPremium(_id)), 'Failed premium payment.');\n\n      optionVault.stampActiveOption(_id);\n\n      marketMaker.recordOptionPurhcase(msg.sender, _id, optionVault.queryOptionPremium(_id),\n        optionVault.queryOptionExposure(_id, OptionLibrary.PayoffType.Call),\n        optionVault.queryOptionExposure(_id, OptionLibrary.PayoffType.Put));\n\n      emit newOptionBought(msg.sender, optionVault.getOption(_id), _payInCost, true);\n\n    }\n\n    function getOptionPayoffValue(uint256 _id) external view returns(uint256){\n      return optionVault.getOptionPayoffValue(_id);\n    }\n\n    function exerciseOption(uint256 _id) external  {\n        optionVault.validateOption(_id, msg.sender);\n\n        uint256 _payoffValue = optionVault.getOptionPayoffValue(_id);\n\n        optionVault.stampExercisedOption(_id);\n\n        require(underlyingToken.transfer(msg.sender, _payoffValue), \"Transfer failed.\");\n\n        marketMaker.recordOptionRemoval(msg.sender, _id, optionVault.queryOptionPremium(_id),\n          optionVault.queryOptionExposure(_id, OptionLibrary.PayoffType.Call),\n          optionVault.queryOptionExposure(_id, OptionLibrary.PayoffType.Put));\n\n        emit optionExercised(msg.sender, optionVault.getOption(_id), _payoffValue);\n    }\n\n    function expireOption(uint256 _id) internal {\n        if(optionVault.isOptionExpiring(_id))\n        {\n            uint256 _payoffValue = optionVault.getOptionPayoffValue(_id);\n            require(_payoffValue < underlyingToken.balanceOf(contractAddress), \"Balance insufficient.\");\n\n            optionVault.stampExercisedOption(_id);\n\n            address payable _optionHolder = optionVault.getOptionHolder(_id);\n            require(underlyingToken.transfer(_optionHolder, _payoffValue), \"Transfer failed.\");\n\n            marketMaker.recordOptionRemoval(msg.sender, _id, optionVault.queryOptionPremium(_id),\n              optionVault.queryOptionExposure(_id, OptionLibrary.PayoffType.Call),\n              optionVault.queryOptionExposure(_id, OptionLibrary.PayoffType.Put));\n        }\n    }\n\n\n      function addVolToken(address payable _tokenAddress) external onlyRole(ADMIN_ROLE)\n      {\n          VolatilityToken _volToken = VolatilityToken(_tokenAddress);\n          /* require(_volToken.descriptionHash() == optionVault.descriptionHash());\n          require(optionVault.containsTenor(_volToken.tenor())); */\n\n          volTokensList[_volToken.tenor()] = _volToken;\n\n      }\n\n      function quoteVolatilityCost(uint256 _tenor, uint256 _volAmount) public view returns(uint256, uint256)\n      {\n          /* require(optionVault.containsTenor(_tenor)); */\n\n          (uint256 _price,) = optionVault.queryPrice();\n          (uint256 _volatility, ) = optionVault.queryVol(_tenor);\n\n          uint256 _value = volTokensList[_tenor].calculateMintValue(_volAmount, _price, _volatility);\n          uint256 _fee = _value * volTransactionFees.numerator/ volTransactionFees.denominator;\n\n          return (_value, _fee);\n      }\n\n      function purchaseVolatilityToken(uint256 _tenor, uint256 _volAmount, uint256 _payInCost)\n      external {\n          (uint256 _value, uint256 _fee) = quoteVolatilityCost(_tenor, _volAmount);\n          require(_payInCost >= (_value + _fee));\n\n          underlyingToken.transferFrom(msg.sender, address(volTokensList[_tenor]), _value);\n          volTokensList[_tenor].mint{value: _value}(msg.sender, _volAmount);\n\n          emit newVolatilityTokenBought(msg.sender, block.timestamp, _tenor, _volAmount);\n      }\n\n      function sweepBalance() external onlyRole(ADMIN_ROLE){\n            require(underlyingToken.transfer(msg.sender, underlyingToken.balanceOf(contractAddress)), \"Withdrawal failed.\");\n      }\n\n      function resetSettlementFees(uint256 _fee, uint256 _denominator) external onlyRole(ADMIN_ROLE){\n          settlementFee = OptionLibrary.Percent(_fee, _denominator);\n      }\n\n          function resetVolTransactionFees(uint256 _fee, uint256 _denominator) external onlyRole(ADMIN_ROLE){\n              volTransactionFees = OptionLibrary.Percent(_fee, _denominator);\n          }\n\n\n            function resetMaxUtilisation(uint256 _maxUtil) external onlyRole(ADMIN_ROLE){\n                maxUtilisation = _maxUtil;\n            }\n\n\n          function priceDecimals() external view returns(uint256){ return optionVault.priceDecimals();}\n          function queryVol(uint256 _tenor) external view returns(uint256, uint256){return optionVault.queryVol(_tenor);}\n\n          receive() external payable{}\n\n}\n",
  "sourcePath": "/Users/mac/Documents/GitHub/moret/contracts/Exchange.sol",
  "compiler": {
    "name": "solc",
    "version": "0.8.6+commit.11564f7e.Emscripten.clang"
  },
  "schemaVersion": "3.4.1",
  "updatedAt": "2021-07-04T15:00:07.598Z",
  "devdoc": {
    "kind": "dev",
    "methods": {
      "getRoleAdmin(bytes32)": {
        "details": "Returns the admin role that controls `role`. See {grantRole} and {revokeRole}. To change a role's admin, use {_setRoleAdmin}."
      },
      "grantRole(bytes32,address)": {
        "details": "Grants `role` to `account`. If `account` had not been already granted `role`, emits a {RoleGranted} event. Requirements: - the caller must have ``role``'s admin role."
      },
      "hasRole(bytes32,address)": {
        "details": "Returns `true` if `account` has been granted `role`."
      },
      "renounceRole(bytes32,address)": {
        "details": "Revokes `role` from the calling account. Roles are often managed via {grantRole} and {revokeRole}: this function's purpose is to provide a mechanism for accounts to lose their privileges if they are compromised (such as when a trusted device is misplaced). If the calling account had been granted `role`, emits a {RoleRevoked} event. Requirements: - the caller must be `account`."
      },
      "revokeRole(bytes32,address)": {
        "details": "Revokes `role` from `account`. If `account` had been granted `role`, emits a {RoleRevoked} event. Requirements: - the caller must have ``role``'s admin role."
      },
      "supportsInterface(bytes4)": {
        "details": "See {IERC165-supportsInterface}."
      }
    },
    "version": 1
  },
  "userdoc": {
    "kind": "user",
    "methods": {},
    "version": 1
  }
}