{
  "contractName": "Exchange",
  "abi": [
    {
      "inputs": [
        {
          "internalType": "address",
          "name": "_marketMakerAddress",
          "type": "address"
        },
        {
          "internalType": "address",
          "name": "_optionAddress",
          "type": "address"
        },
        {
          "internalType": "address",
          "name": "_swapRouterAddress",
          "type": "address"
        },
        {
          "internalType": "address",
          "name": "_aggregatorAddress",
          "type": "address"
        },
        {
          "internalType": "address",
          "name": "_lendingPoolAddressProvider",
          "type": "address"
        }
      ],
      "stateMutability": "nonpayable",
      "type": "constructor"
    },
    {
      "anonymous": false,
      "inputs": [
        {
          "indexed": true,
          "internalType": "bytes32",
          "name": "role",
          "type": "bytes32"
        },
        {
          "indexed": true,
          "internalType": "bytes32",
          "name": "previousAdminRole",
          "type": "bytes32"
        },
        {
          "indexed": true,
          "internalType": "bytes32",
          "name": "newAdminRole",
          "type": "bytes32"
        }
      ],
      "name": "RoleAdminChanged",
      "type": "event"
    },
    {
      "anonymous": false,
      "inputs": [
        {
          "indexed": true,
          "internalType": "bytes32",
          "name": "role",
          "type": "bytes32"
        },
        {
          "indexed": true,
          "internalType": "address",
          "name": "account",
          "type": "address"
        },
        {
          "indexed": true,
          "internalType": "address",
          "name": "sender",
          "type": "address"
        }
      ],
      "name": "RoleGranted",
      "type": "event"
    },
    {
      "anonymous": false,
      "inputs": [
        {
          "indexed": true,
          "internalType": "bytes32",
          "name": "role",
          "type": "bytes32"
        },
        {
          "indexed": true,
          "internalType": "address",
          "name": "account",
          "type": "address"
        },
        {
          "indexed": true,
          "internalType": "address",
          "name": "sender",
          "type": "address"
        }
      ],
      "name": "RoleRevoked",
      "type": "event"
    },
    {
      "anonymous": false,
      "inputs": [
        {
          "indexed": false,
          "internalType": "address",
          "name": "_recipient",
          "type": "address"
        },
        {
          "indexed": false,
          "internalType": "uint256",
          "name": "_mintMPTokenAmount",
          "type": "uint256"
        },
        {
          "indexed": false,
          "internalType": "uint256",
          "name": "_addedValue",
          "type": "uint256"
        }
      ],
      "name": "capitalAdded",
      "type": "event"
    },
    {
      "anonymous": false,
      "inputs": [
        {
          "indexed": false,
          "internalType": "address",
          "name": "_recipient",
          "type": "address"
        },
        {
          "indexed": false,
          "internalType": "uint256",
          "name": "_burnMPTokenAmount",
          "type": "uint256"
        },
        {
          "indexed": false,
          "internalType": "uint256",
          "name": "_withdrawValue",
          "type": "uint256"
        }
      ],
      "name": "capitalWithdrawn",
      "type": "event"
    },
    {
      "anonymous": false,
      "inputs": [
        {
          "indexed": true,
          "internalType": "address",
          "name": "_purchaser",
          "type": "address"
        },
        {
          "components": [
            {
              "internalType": "enum OptionLibrary.PayoffType",
              "name": "poType",
              "type": "uint8"
            },
            {
              "internalType": "enum OptionLibrary.OptionSide",
              "name": "side",
              "type": "uint8"
            },
            {
              "internalType": "enum OptionLibrary.OptionStatus",
              "name": "status",
              "type": "uint8"
            },
            {
              "internalType": "address",
              "name": "holder",
              "type": "address"
            },
            {
              "internalType": "uint256",
              "name": "id",
              "type": "uint256"
            },
            {
              "internalType": "uint256",
              "name": "createTime",
              "type": "uint256"
            },
            {
              "internalType": "uint256",
              "name": "effectiveTime",
              "type": "uint256"
            },
            {
              "internalType": "uint256",
              "name": "tenor",
              "type": "uint256"
            },
            {
              "internalType": "uint256",
              "name": "maturity",
              "type": "uint256"
            },
            {
              "internalType": "uint256",
              "name": "exerciseTime",
              "type": "uint256"
            },
            {
              "internalType": "uint256",
              "name": "amount",
              "type": "uint256"
            },
            {
              "internalType": "uint256",
              "name": "spot",
              "type": "uint256"
            },
            {
              "internalType": "uint256",
              "name": "strike",
              "type": "uint256"
            },
            {
              "internalType": "uint256",
              "name": "volatility",
              "type": "uint256"
            },
            {
              "internalType": "uint256",
              "name": "premium",
              "type": "uint256"
            },
            {
              "internalType": "uint256",
              "name": "cost",
              "type": "uint256"
            }
          ],
          "indexed": false,
          "internalType": "struct OptionLibrary.Option",
          "name": "_option",
          "type": "tuple"
        },
        {
          "indexed": false,
          "internalType": "uint256",
          "name": "_cost",
          "type": "uint256"
        },
        {
          "indexed": false,
          "internalType": "bool",
          "name": "_inVol",
          "type": "bool"
        }
      ],
      "name": "newOptionBought",
      "type": "event"
    },
    {
      "anonymous": false,
      "inputs": [
        {
          "indexed": false,
          "internalType": "address",
          "name": "_purchaser",
          "type": "address"
        },
        {
          "indexed": false,
          "internalType": "uint256",
          "name": "_time",
          "type": "uint256"
        },
        {
          "indexed": false,
          "internalType": "uint256",
          "name": "_tenor",
          "type": "uint256"
        },
        {
          "indexed": false,
          "internalType": "uint256",
          "name": "_amount",
          "type": "uint256"
        }
      ],
      "name": "newVolatilityTokenBought",
      "type": "event"
    },
    {
      "anonymous": false,
      "inputs": [
        {
          "indexed": true,
          "internalType": "address",
          "name": "_purchaser",
          "type": "address"
        },
        {
          "components": [
            {
              "internalType": "enum OptionLibrary.PayoffType",
              "name": "poType",
              "type": "uint8"
            },
            {
              "internalType": "enum OptionLibrary.OptionSide",
              "name": "side",
              "type": "uint8"
            },
            {
              "internalType": "enum OptionLibrary.OptionStatus",
              "name": "status",
              "type": "uint8"
            },
            {
              "internalType": "address",
              "name": "holder",
              "type": "address"
            },
            {
              "internalType": "uint256",
              "name": "id",
              "type": "uint256"
            },
            {
              "internalType": "uint256",
              "name": "createTime",
              "type": "uint256"
            },
            {
              "internalType": "uint256",
              "name": "effectiveTime",
              "type": "uint256"
            },
            {
              "internalType": "uint256",
              "name": "tenor",
              "type": "uint256"
            },
            {
              "internalType": "uint256",
              "name": "maturity",
              "type": "uint256"
            },
            {
              "internalType": "uint256",
              "name": "exerciseTime",
              "type": "uint256"
            },
            {
              "internalType": "uint256",
              "name": "amount",
              "type": "uint256"
            },
            {
              "internalType": "uint256",
              "name": "spot",
              "type": "uint256"
            },
            {
              "internalType": "uint256",
              "name": "strike",
              "type": "uint256"
            },
            {
              "internalType": "uint256",
              "name": "volatility",
              "type": "uint256"
            },
            {
              "internalType": "uint256",
              "name": "premium",
              "type": "uint256"
            },
            {
              "internalType": "uint256",
              "name": "cost",
              "type": "uint256"
            }
          ],
          "indexed": false,
          "internalType": "struct OptionLibrary.Option",
          "name": "_option",
          "type": "tuple"
        },
        {
          "indexed": false,
          "internalType": "uint256",
          "name": "_payoff",
          "type": "uint256"
        }
      ],
      "name": "optionExercised",
      "type": "event"
    },
    {
      "inputs": [],
      "name": "ADMIN_ROLE",
      "outputs": [
        {
          "internalType": "bytes32",
          "name": "",
          "type": "bytes32"
        }
      ],
      "stateMutability": "view",
      "type": "function"
    },
    {
      "inputs": [],
      "name": "DEFAULT_ADMIN_ROLE",
      "outputs": [
        {
          "internalType": "bytes32",
          "name": "",
          "type": "bytes32"
        }
      ],
      "stateMutability": "view",
      "type": "function"
    },
    {
      "inputs": [],
      "name": "MINER_ROLE",
      "outputs": [
        {
          "internalType": "bytes32",
          "name": "",
          "type": "bytes32"
        }
      ],
      "stateMutability": "view",
      "type": "function"
    },
    {
      "inputs": [],
      "name": "exchangeDeadlineLag",
      "outputs": [
        {
          "internalType": "uint256",
          "name": "",
          "type": "uint256"
        }
      ],
      "stateMutability": "view",
      "type": "function"
    },
    {
      "inputs": [],
      "name": "exchangeSlippageDown",
      "outputs": [
        {
          "internalType": "uint256",
          "name": "",
          "type": "uint256"
        }
      ],
      "stateMutability": "view",
      "type": "function"
    },
    {
      "inputs": [],
      "name": "exchangeSlippageMax",
      "outputs": [
        {
          "internalType": "uint256",
          "name": "",
          "type": "uint256"
        }
      ],
      "stateMutability": "view",
      "type": "function"
    },
    {
      "inputs": [],
      "name": "exchangeSlippageUp",
      "outputs": [
        {
          "internalType": "uint256",
          "name": "",
          "type": "uint256"
        }
      ],
      "stateMutability": "view",
      "type": "function"
    },
    {
      "inputs": [
        {
          "internalType": "bytes32",
          "name": "role",
          "type": "bytes32"
        }
      ],
      "name": "getRoleAdmin",
      "outputs": [
        {
          "internalType": "bytes32",
          "name": "",
          "type": "bytes32"
        }
      ],
      "stateMutability": "view",
      "type": "function"
    },
    {
      "inputs": [
        {
          "internalType": "bytes32",
          "name": "role",
          "type": "bytes32"
        },
        {
          "internalType": "address",
          "name": "account",
          "type": "address"
        }
      ],
      "name": "grantRole",
      "outputs": [],
      "stateMutability": "nonpayable",
      "type": "function"
    },
    {
      "inputs": [
        {
          "internalType": "bytes32",
          "name": "role",
          "type": "bytes32"
        },
        {
          "internalType": "address",
          "name": "account",
          "type": "address"
        }
      ],
      "name": "hasRole",
      "outputs": [
        {
          "internalType": "bool",
          "name": "",
          "type": "bool"
        }
      ],
      "stateMutability": "view",
      "type": "function"
    },
    {
      "inputs": [],
      "name": "loanInterest",
      "outputs": [
        {
          "internalType": "uint256",
          "name": "",
          "type": "uint256"
        }
      ],
      "stateMutability": "view",
      "type": "function"
    },
    {
      "inputs": [
        {
          "internalType": "bytes32",
          "name": "role",
          "type": "bytes32"
        },
        {
          "internalType": "address",
          "name": "account",
          "type": "address"
        }
      ],
      "name": "renounceRole",
      "outputs": [],
      "stateMutability": "nonpayable",
      "type": "function"
    },
    {
      "inputs": [
        {
          "internalType": "bytes32",
          "name": "role",
          "type": "bytes32"
        },
        {
          "internalType": "address",
          "name": "account",
          "type": "address"
        }
      ],
      "name": "revokeRole",
      "outputs": [],
      "stateMutability": "nonpayable",
      "type": "function"
    },
    {
      "inputs": [
        {
          "internalType": "bytes4",
          "name": "interfaceId",
          "type": "bytes4"
        }
      ],
      "name": "supportsInterface",
      "outputs": [
        {
          "internalType": "bool",
          "name": "",
          "type": "bool"
        }
      ],
      "stateMutability": "view",
      "type": "function"
    },
    {
      "inputs": [],
      "name": "volRiskPremiumMaxRatio",
      "outputs": [
        {
          "internalType": "uint256",
          "name": "",
          "type": "uint256"
        }
      ],
      "stateMutability": "view",
      "type": "function"
    },
    {
      "inputs": [
        {
          "internalType": "uint256",
          "name": "_tenor",
          "type": "uint256"
        },
        {
          "internalType": "uint256",
          "name": "_strike",
          "type": "uint256"
        },
        {
          "internalType": "uint256",
          "name": "_amount",
          "type": "uint256"
        },
        {
          "internalType": "enum OptionLibrary.PayoffType",
          "name": "_poType",
          "type": "uint8"
        },
        {
          "internalType": "enum OptionLibrary.OptionSide",
          "name": "_side",
          "type": "uint8"
        }
      ],
      "name": "queryOptionCost",
      "outputs": [
        {
          "internalType": "uint256",
          "name": "",
          "type": "uint256"
        },
        {
          "internalType": "uint256",
          "name": "",
          "type": "uint256"
        }
      ],
      "stateMutability": "view",
      "type": "function"
    },
    {
      "inputs": [
        {
          "internalType": "uint256",
          "name": "_tenor",
          "type": "uint256"
        },
        {
          "internalType": "uint256",
          "name": "_strike",
          "type": "uint256"
        },
        {
          "internalType": "uint256",
          "name": "_amount",
          "type": "uint256"
        },
        {
          "internalType": "enum OptionLibrary.OptionSide",
          "name": "_side",
          "type": "uint8"
        }
      ],
      "name": "queryOptionVolatility",
      "outputs": [
        {
          "internalType": "uint256",
          "name": "_vol",
          "type": "uint256"
        }
      ],
      "stateMutability": "view",
      "type": "function"
    },
    {
      "inputs": [
        {
          "internalType": "uint256",
          "name": "_tenor",
          "type": "uint256"
        },
        {
          "internalType": "uint256",
          "name": "_strike",
          "type": "uint256"
        },
        {
          "internalType": "uint256",
          "name": "_amount",
          "type": "uint256"
        },
        {
          "internalType": "enum OptionLibrary.PayoffType",
          "name": "_poType",
          "type": "uint8"
        },
        {
          "internalType": "enum OptionLibrary.OptionSide",
          "name": "_side",
          "type": "uint8"
        },
        {
          "internalType": "uint256",
          "name": "_payInCost",
          "type": "uint256"
        },
        {
          "internalType": "uint256",
          "name": "_price",
          "type": "uint256"
        },
        {
          "internalType": "uint256",
          "name": "_volatility",
          "type": "uint256"
        }
      ],
      "name": "purchaseOption",
      "outputs": [],
      "stateMutability": "nonpayable",
      "type": "function"
    },
    {
      "inputs": [],
      "name": "executeHedgeTrades",
      "outputs": [],
      "stateMutability": "nonpayable",
      "type": "function"
    },
    {
      "inputs": [
        {
          "internalType": "uint256",
          "name": "_newRatio",
          "type": "uint256"
        }
      ],
      "name": "resetRiskPremiumMaxRatio",
      "outputs": [],
      "stateMutability": "nonpayable",
      "type": "function"
    },
    {
      "inputs": [],
      "name": "queryPrice",
      "outputs": [
        {
          "internalType": "uint256",
          "name": "",
          "type": "uint256"
        },
        {
          "internalType": "uint256",
          "name": "",
          "type": "uint256"
        },
        {
          "internalType": "uint256",
          "name": "",
          "type": "uint256"
        }
      ],
      "stateMutability": "view",
      "type": "function"
    },
    {
      "inputs": [
        {
          "internalType": "uint256",
          "name": "_tenor",
          "type": "uint256"
        }
      ],
      "name": "queryVol",
      "outputs": [
        {
          "internalType": "uint256",
          "name": "",
          "type": "uint256"
        }
      ],
      "stateMutability": "view",
      "type": "function"
    }
  ],
  "bytecode": "0x60806040526718fae27693b400006006556002600755662386f26fc100006009556014600a556000600b556000600c556000600d553480156200004157600080fd5b5060405162003fd938038062003fd983398181016040528101906200006791906200042e565b6200007c6000801b336200024b60201b60201c565b620000ae7fa49807205ce4d355092ef5a8a18f56e8913cf4a201fbe287825b095693c21775336200024b60201b60201c565b620000e07fa952726ef2588ad078edf35b066f7c7406e207cb0003bbaba8cb53eba9553e72336200024b60201b60201c565b83600260006101000a81548173ffffffffffffffffffffffffffffffffffffffff021916908373ffffffffffffffffffffffffffffffffffffffff16021790555084600160006101000a81548173ffffffffffffffffffffffffffffffffffffffff021916908373ffffffffffffffffffffffffffffffffffffffff16021790555082600460006101000a81548173ffffffffffffffffffffffffffffffffffffffff021916908373ffffffffffffffffffffffffffffffffffffffff16021790555081600560006101000a81548173ffffffffffffffffffffffffffffffffffffffff021916908373ffffffffffffffffffffffffffffffffffffffff16021790555080600360006101000a81548173ffffffffffffffffffffffffffffffffffffffff021916908373ffffffffffffffffffffffffffffffffffffffff1602179055506000600860006101000a81548160ff0219169083151502179055505050505050620004b6565b6200025d82826200026160201b60201c565b5050565b6200027382826200035260201b60201c565b6200034e57600160008084815260200190815260200160002060000160008373ffffffffffffffffffffffffffffffffffffffff1673ffffffffffffffffffffffffffffffffffffffff16815260200190815260200160002060006101000a81548160ff021916908315150217905550620002f3620003bc60201b60201c565b73ffffffffffffffffffffffffffffffffffffffff168173ffffffffffffffffffffffffffffffffffffffff16837f2f8788117e7eff1d82e926ec794901d17c78024a50270940304540a733656f0d60405160405180910390a45b5050565b600080600084815260200190815260200160002060000160008373ffffffffffffffffffffffffffffffffffffffff1673ffffffffffffffffffffffffffffffffffffffff16815260200190815260200160002060009054906101000a900460ff16905092915050565b600033905090565b600080fd5b600073ffffffffffffffffffffffffffffffffffffffff82169050919050565b6000620003f682620003c9565b9050919050565b6200040881620003e9565b81146200041457600080fd5b50565b6000815190506200042881620003fd565b92915050565b600080600080600060a086880312156200044d576200044c620003c4565b5b60006200045d8882890162000417565b9550506020620004708882890162000417565b9450506040620004838882890162000417565b9350506060620004968882890162000417565b9250506080620004a98882890162000417565b9150509295509295909350565b613b1380620004c66000396000f3fe608060405234801561001057600080fd5b50600436106101425760003560e01c806375bf05cf116100b857806392c278ef1161007c57806392c278ef14610366578063a217fddf14610384578063a7292ea4146103a2578063b0667cf8146103c0578063cfc2dc20146103e0578063d547741f1461041057610142565b806375bf05cf146102c157806376df2d08146102cb57806381948219146102fc57806385e6be8b1461031a57806391d148541461033657610142565b80632f2ff15d1161010a5780632f2ff15d14610201578063319951281461021d57806336568abe146102395780636394f6e6146102555780636a7d116f1461027357806375b238fc146102a357610142565b806301ffc9a7146101475780630875c6b1146101775780630b83e48314610195578063248a9ca3146101b357806327251b14146101e3575b600080fd5b610161600480360381019061015c9190612711565b61042c565b60405161016e9190612759565b60405180910390f35b61017f6104a6565b60405161018c919061278d565b60405180910390f35b61019d6104ac565b6040516101aa919061278d565b60405180910390f35b6101cd60048036038101906101c891906127de565b6104b2565b6040516101da919061281a565b60405180910390f35b6101eb6104d1565b6040516101f8919061278d565b60405180910390f35b61021b60048036038101906102169190612893565b6104d7565b005b61023760048036038101906102329190612949565b610500565b005b610253600480360381019061024e9190612893565b6108d0565b005b61025d610953565b60405161026a919061281a565b60405180910390f35b61028d600480360381019061028891906129ff565b610977565b60405161029a919061278d565b60405180910390f35b6102ab610af3565b6040516102b8919061281a565b60405180910390f35b6102c9610b17565b005b6102e560048036038101906102e09190612a66565b611515565b6040516102f3929190612ae1565b60405180910390f35b6103046115eb565b604051610311919061278d565b60405180910390f35b610334600480360381019061032f9190612b0a565b6115f1565b005b610350600480360381019061034b9190612893565b61162e565b60405161035d9190612759565b60405180910390f35b61036e611698565b60405161037b919061278d565b60405180910390f35b61038c61169e565b604051610399919061281a565b60405180910390f35b6103aa6116a5565b6040516103b7919061278d565b60405180910390f35b6103c86116ab565b6040516103d793929190612b37565b60405180910390f35b6103fa60048036038101906103f59190612b0a565b61175b565b604051610407919061278d565b60405180910390f35b61042a60048036038101906104259190612893565b61180f565b005b60007f7965db0b000000000000000000000000000000000000000000000000000000007bffffffffffffffffffffffffffffffffffffffffffffffffffffffff1916827bffffffffffffffffffffffffffffffffffffffffffffffffffffffff1916148061049f575061049e82611838565b5b9050919050565b60065481565b60095481565b6000806000838152602001908152602001600020600101549050919050565b600b5481565b6104e0826104b2565b6104f1816104ec6118a2565b6118aa565b6104fb8383611947565b505050565b6000806105108a8a8a8a8a611515565b9150915080851015610557576040517f08c379a000000000000000000000000000000000000000000000000000000000815260040161054e90612bcb565b60405180910390fd5b6000600260009054906101000a900473ffffffffffffffffffffffffffffffffffffffff1673ffffffffffffffffffffffffffffffffffffffff1663f7327abd8c8c8c8c8c89898d8d6040518a63ffffffff1660e01b81526004016105c499989796959493929190612caa565b602060405180830381600087803b1580156105de57600080fd5b505af11580156105f2573d6000803e3d6000fd5b505050506040513d601f19601f820116820180604052508101906106169190612d4c565b9050600160009054906101000a900473ffffffffffffffffffffffffffffffffffffffff1673ffffffffffffffffffffffffffffffffffffffff1663d3b7bfb46040518163ffffffff1660e01b815260040160206040518083038186803b15801561068057600080fd5b505afa158015610694573d6000803e3d6000fd5b505050506040513d601f19601f820116820180604052508101906106b89190612d8e565b73ffffffffffffffffffffffffffffffffffffffff166323b872dd33600160009054906101000a900473ffffffffffffffffffffffffffffffffffffffff16896040518463ffffffff1660e01b815260040161071693929190612dca565b602060405180830381600087803b15801561073057600080fd5b505af1158015610744573d6000803e3d6000fd5b505050506040513d601f19601f820116820180604052508101906107689190612e2d565b6107a7576040517f08c379a000000000000000000000000000000000000000000000000000000000815260040161079e90612ea6565b60405180910390fd5b600260009054906101000a900473ffffffffffffffffffffffffffffffffffffffff1673ffffffffffffffffffffffffffffffffffffffff166328e493c1826040518263ffffffff1660e01b8152600401610802919061278d565b600060405180830381600087803b15801561081c57600080fd5b505af1158015610830573d6000803e3d6000fd5b50505050600160009054906101000a900473ffffffffffffffffffffffffffffffffffffffff1673ffffffffffffffffffffffffffffffffffffffff16638a9450fe33836040518363ffffffff1660e01b8152600401610891929190612ec6565b600060405180830381600087803b1580156108ab57600080fd5b505af11580156108bf573d6000803e3d6000fd5b505050505050505050505050505050565b6108d86118a2565b73ffffffffffffffffffffffffffffffffffffffff168173ffffffffffffffffffffffffffffffffffffffff1614610945576040517f08c379a000000000000000000000000000000000000000000000000000000000815260040161093c90612f61565b60405180910390fd5b61094f8282611a27565b5050565b7fa952726ef2588ad078edf35b066f7c7406e207cb0003bbaba8cb53eba9553e7281565b6000600260009054906101000a900473ffffffffffffffffffffffffffffffffffffffff1673ffffffffffffffffffffffffffffffffffffffff1663cfc2dc20866040518263ffffffff1660e01b81526004016109d4919061278d565b60206040518083038186803b1580156109ec57600080fd5b505afa158015610a00573d6000803e3d6000fd5b505050506040513d601f19601f82011682018060405250810190610a249190612d4c565b9050600080600260009054906101000a900473ffffffffffffffffffffffffffffffffffffffff1673ffffffffffffffffffffffffffffffffffffffff1663b0667cf86040518163ffffffff1660e01b815260040160606040518083038186803b158015610a9157600080fd5b505afa158015610aa5573d6000803e3d6000fd5b505050506040513d601f19601f82011682018060405250810190610ac99190612f81565b9250509150610adc828285898989611b08565b83610ae79190613003565b92505050949350505050565b7fa49807205ce4d355092ef5a8a18f56e8913cf4a201fbe287825b095693c2177581565b7fa952726ef2588ad078edf35b066f7c7406e207cb0003bbaba8cb53eba9553e72610b4981610b446118a2565b6118aa565b6000806000600160009054906101000a900473ffffffffffffffffffffffffffffffffffffffff1673ffffffffffffffffffffffffffffffffffffffff166321fccce96040518163ffffffff1660e01b815260040160606040518083038186803b158015610bb657600080fd5b505afa158015610bca573d6000803e3d6000fd5b505050506040513d601f19601f82011682018060405250810190610bee919061308f565b9250925092506000821315610fb3576000811315610d3557600160009054906101000a900473ffffffffffffffffffffffffffffffffffffffff1673ffffffffffffffffffffffffffffffffffffffff1663481fef8a82600360009054906101000a900473ffffffffffffffffffffffffffffffffffffffff1673ffffffffffffffffffffffffffffffffffffffff16630261bf8b6040518163ffffffff1660e01b815260040160206040518083038186803b158015610cad57600080fd5b505afa158015610cc1573d6000803e3d6000fd5b505050506040513d601f19601f82011682018060405250810190610ce59190612d8e565b6040518363ffffffff1660e01b8152600401610d029291906130e2565b600060405180830381600087803b158015610d1c57600080fd5b505af1158015610d30573d6000803e3d6000fd5b505050505b600160009054906101000a900473ffffffffffffffffffffffffffffffffffffffff1673ffffffffffffffffffffffffffffffffffffffff1663bf54633183600360009054906101000a900473ffffffffffffffffffffffffffffffffffffffff1673ffffffffffffffffffffffffffffffffffffffff16630261bf8b6040518163ffffffff1660e01b815260040160206040518083038186803b158015610ddc57600080fd5b505afa158015610df0573d6000803e3d6000fd5b505050506040513d601f19601f82011682018060405250810190610e149190612d8e565b6007546040518463ffffffff1660e01b8152600401610e359392919061310b565b600060405180830381600087803b158015610e4f57600080fd5b505af1158015610e63573d6000803e3d6000fd5b505050506000811215610fa857600160009054906101000a900473ffffffffffffffffffffffffffffffffffffffff1673ffffffffffffffffffffffffffffffffffffffff16630af504cc82610eb890613142565b600360009054906101000a900473ffffffffffffffffffffffffffffffffffffffff1673ffffffffffffffffffffffffffffffffffffffff16630261bf8b6040518163ffffffff1660e01b815260040160206040518083038186803b158015610f2057600080fd5b505afa158015610f34573d6000803e3d6000fd5b505050506040513d601f19601f82011682018060405250810190610f589190612d8e565b6040518363ffffffff1660e01b8152600401610f759291906130e2565b600060405180830381600087803b158015610f8f57600080fd5b505af1158015610fa3573d6000803e3d6000fd5b505050505b610fb182611e74565b505b600082121561138457610fce82610fc990613142565b61207e565b50600160009054906101000a900473ffffffffffffffffffffffffffffffffffffffff1673ffffffffffffffffffffffffffffffffffffffff166380110e998361101790613142565b600360009054906101000a900473ffffffffffffffffffffffffffffffffffffffff1673ffffffffffffffffffffffffffffffffffffffff16630261bf8b6040518163ffffffff1660e01b815260040160206040518083038186803b15801561107f57600080fd5b505afa158015611093573d6000803e3d6000fd5b505050506040513d601f19601f820116820180604052508101906110b79190612d8e565b6007546040518463ffffffff1660e01b81526004016110d89392919061310b565b600060405180830381600087803b1580156110f257600080fd5b505af1158015611106573d6000803e3d6000fd5b50505050600081121561124b57600160009054906101000a900473ffffffffffffffffffffffffffffffffffffffff1673ffffffffffffffffffffffffffffffffffffffff16630af504cc8261115b90613142565b600360009054906101000a900473ffffffffffffffffffffffffffffffffffffffff1673ffffffffffffffffffffffffffffffffffffffff16630261bf8b6040518163ffffffff1660e01b815260040160206040518083038186803b1580156111c357600080fd5b505afa1580156111d7573d6000803e3d6000fd5b505050506040513d601f19601f820116820180604052508101906111fb9190612d8e565b6040518363ffffffff1660e01b81526004016112189291906130e2565b600060405180830381600087803b15801561123257600080fd5b505af1158015611246573d6000803e3d6000fd5b505050505b600081131561138357600160009054906101000a900473ffffffffffffffffffffffffffffffffffffffff1673ffffffffffffffffffffffffffffffffffffffff1663481fef8a82600360009054906101000a900473ffffffffffffffffffffffffffffffffffffffff1673ffffffffffffffffffffffffffffffffffffffff16630261bf8b6040518163ffffffff1660e01b815260040160206040518083038186803b1580156112fb57600080fd5b505afa15801561130f573d6000803e3d6000fd5b505050506040513d601f19601f820116820180604052508101906113339190612d8e565b6040518363ffffffff1660e01b81526004016113509291906130e2565b600060405180830381600087803b15801561136a57600080fd5b505af115801561137e573d6000803e3d6000fd5b505050505b5b6000600160009054906101000a900473ffffffffffffffffffffffffffffffffffffffff1673ffffffffffffffffffffffffffffffffffffffff16632140ea676040518163ffffffff1660e01b815260040160206040518083038186803b1580156113ee57600080fd5b505afa158015611402573d6000803e3d6000fd5b505050506040513d601f19601f820116820180604052508101906114269190612d8e565b73ffffffffffffffffffffffffffffffffffffffff166370a08231600160009054906101000a900473ffffffffffffffffffffffffffffffffffffffff166040518263ffffffff1660e01b8152600401611480919061318b565b60206040518083038186803b15801561149857600080fd5b505afa1580156114ac573d6000803e3d6000fd5b505050506040513d601f19601f820116820180604052508101906114d09190612d4c565b9050838111156114f0576114ee84826114e991906131a6565b611e74565b505b8381101561150e5761150c818561150791906131a6565b61207e565b505b5050505050565b600080600061152688888887610977565b9050600260009054906101000a900473ffffffffffffffffffffffffffffffffffffffff1673ffffffffffffffffffffffffffffffffffffffff1663472d2a4a898989858a8a6040518763ffffffff1660e01b815260040161158d969594939291906131da565b604080518083038186803b1580156115a457600080fd5b505afa1580156115b8573d6000803e3d6000fd5b505050506040513d601f19601f820116820180604052508101906115dc919061323b565b92509250509550959350505050565b600a5481565b7fa49807205ce4d355092ef5a8a18f56e8913cf4a201fbe287825b095693c217756116238161161e6118a2565b6118aa565b816006819055505050565b600080600084815260200190815260200160002060000160008373ffffffffffffffffffffffffffffffffffffffff1673ffffffffffffffffffffffffffffffffffffffff16815260200190815260200160002060009054906101000a900460ff16905092915050565b600c5481565b6000801b81565b600d5481565b6000806000600260009054906101000a900473ffffffffffffffffffffffffffffffffffffffff1673ffffffffffffffffffffffffffffffffffffffff1663b0667cf86040518163ffffffff1660e01b815260040160606040518083038186803b15801561171857600080fd5b505afa15801561172c573d6000803e3d6000fd5b505050506040513d601f19601f820116820180604052508101906117509190612f81565b925092509250909192565b6000600260009054906101000a900473ffffffffffffffffffffffffffffffffffffffff1673ffffffffffffffffffffffffffffffffffffffff1663cfc2dc20836040518263ffffffff1660e01b81526004016117b8919061278d565b60206040518083038186803b1580156117d057600080fd5b505afa1580156117e4573d6000803e3d6000fd5b505050506040513d601f19601f820116820180604052508101906118089190612d4c565b9050919050565b611818826104b2565b611829816118246118a2565b6118aa565b6118338383611a27565b505050565b60007f01ffc9a7000000000000000000000000000000000000000000000000000000007bffffffffffffffffffffffffffffffffffffffffffffffffffffffff1916827bffffffffffffffffffffffffffffffffffffffffffffffffffffffff1916149050919050565b600033905090565b6118b4828261162e565b611943576118d98173ffffffffffffffffffffffffffffffffffffffff16601461228a565b6118e78360001c602061228a565b6040516020016118f892919061338d565b6040516020818303038152906040526040517f08c379a000000000000000000000000000000000000000000000000000000000815260040161193a9190613411565b60405180910390fd5b5050565b611951828261162e565b611a2357600160008084815260200190815260200160002060000160008373ffffffffffffffffffffffffffffffffffffffff1673ffffffffffffffffffffffffffffffffffffffff16815260200190815260200160002060006101000a81548160ff0219169083151502179055506119c86118a2565b73ffffffffffffffffffffffffffffffffffffffff168173ffffffffffffffffffffffffffffffffffffffff16837f2f8788117e7eff1d82e926ec794901d17c78024a50270940304540a733656f0d60405160405180910390a45b5050565b611a31828261162e565b15611b0457600080600084815260200190815260200160002060000160008373ffffffffffffffffffffffffffffffffffffffff1673ffffffffffffffffffffffffffffffffffffffff16815260200190815260200160002060006101000a81548160ff021916908315150217905550611aa96118a2565b73ffffffffffffffffffffffffffffffffffffffff168173ffffffffffffffffffffffffffffffffffffffff16837ff6391f5c32d9c69d2a47ea670b442974b53935d1edc7fd64eb21e047a839171b60405160405180910390a45b5050565b600080611c6173__OptionLibrary_________________________6350c5e95e8a8b8b8b6040518563ffffffff1660e01b8152600401611b4b9493929190613442565b60206040518083038186803b158015611b6357600080fd5b505af4158015611b77573d6000803e3d6000fd5b505050506040513d601f19601f82011682018060405250810190611b9b9190612d4c565b611c53600160009054906101000a900473ffffffffffffffffffffffffffffffffffffffff1673ffffffffffffffffffffffffffffffffffffffff1663634479026000806040518363ffffffff1660e01b8152600401611bfc929190613487565b60206040518083038186803b158015611c1457600080fd5b505afa158015611c28573d6000803e3d6000fd5b505050506040513d601f19601f82011682018060405250810190611c4c9190612d4c565b8a8c6124c6565b670de0b6b3a76400006124c6565b90506000600160009054906101000a900473ffffffffffffffffffffffffffffffffffffffff1673ffffffffffffffffffffffffffffffffffffffff16639462ad6560006040518263ffffffff1660e01b8152600401611cc19190612759565b60206040518083038186803b158015611cd957600080fd5b505afa158015611ced573d6000803e3d6000fd5b505050506040513d601f19601f82011682018060405250810190611d1191906134b0565b90506000600180811115611d2857611d27612beb565b5b856001811115611d3b57611d3a612beb565b5b14611d47576001611d69565b7fffffffffffffffffffffffffffffffffffffffffffffffffffffffffffffffff5b611e0873__OptionLibrary_________________________6350c5e95e8d8b8e8e6040518563ffffffff1660e01b8152600401611da99493929190613442565b60206040518083038186803b158015611dc157600080fd5b505af4158015611dd5573d6000803e3d6000fd5b505050506040513d601f19601f82011682018060405250810190611df99190612d4c565b88670de0b6b3a76400006124c6565b611e1291906134dd565b82611e1d91906135f4565b90506000611e3689600654670de0b6b3a76400006124c6565b90506002611e458584846125c2565b611e508686856125c2565b611e5a9190613003565b611e6491906136b7565b9450505050509695505050505050565b6000600860009054906101000a900460ff1615611f6357600160009054906101000a900473ffffffffffffffffffffffffffffffffffffffff1673ffffffffffffffffffffffffffffffffffffffff16637029c35a83600460009054906101000a900473ffffffffffffffffffffffffffffffffffffffff166009546040518463ffffffff1660e01b8152600401611f0e9392919061310b565b602060405180830381600087803b158015611f2857600080fd5b505af1158015611f3c573d6000803e3d6000fd5b505050506040513d601f19601f82011682018060405250810190611f609190612d4c565b90505b600860009054906101000a900460ff16612079576000600160009054906101000a900473ffffffffffffffffffffffffffffffffffffffff1673ffffffffffffffffffffffffffffffffffffffff1663e084d96284600460009054906101000a900473ffffffffffffffffffffffffffffffffffffffff16600954600a546040518563ffffffff1660e01b815260040161200094939291906136e8565b600060405180830381600087803b15801561201a57600080fd5b505af115801561202e573d6000803e3d6000fd5b505050506040513d6000823e3d601f19601f820116820180604052508101906120579190613875565b90508060018151811061206d5761206c6138be565b5b60200260200101519150505b919050565b6000600860009054906101000a900460ff161561216f57600160009054906101000a900473ffffffffffffffffffffffffffffffffffffffff1673ffffffffffffffffffffffffffffffffffffffff1663c6e685c083600460009054906101000a900473ffffffffffffffffffffffffffffffffffffffff166009546040518463ffffffff1660e01b81526004016121189392919061310b565b6040805180830381600087803b15801561213157600080fd5b505af1158015612145573d6000803e3d6000fd5b505050506040513d601f19601f82011682018060405250810190612169919061323b565b50809150505b600860009054906101000a900460ff16612285576000600160009054906101000a900473ffffffffffffffffffffffffffffffffffffffff1673ffffffffffffffffffffffffffffffffffffffff166317e8e22b84600460009054906101000a900473ffffffffffffffffffffffffffffffffffffffff16600954600a546040518563ffffffff1660e01b815260040161220c94939291906136e8565b600060405180830381600087803b15801561222657600080fd5b505af115801561223a573d6000803e3d6000fd5b505050506040513d6000823e3d601f19601f820116820180604052508101906122639190613875565b905080600081518110612279576122786138be565b5b60200260200101519150505b919050565b60606000600283600261229d91906138ed565b6122a79190613003565b67ffffffffffffffff8111156122c0576122bf613732565b5b6040519080825280601f01601f1916602001820160405280156122f25781602001600182028036833780820191505090505b5090507f30000000000000000000000000000000000000000000000000000000000000008160008151811061232a576123296138be565b5b60200101907effffffffffffffffffffffffffffffffffffffffffffffffffffffffffffff1916908160001a9053507f78000000000000000000000000000000000000000000000000000000000000008160018151811061238e5761238d6138be565b5b60200101907effffffffffffffffffffffffffffffffffffffffffffffffffffffffffffff1916908160001a905350600060018460026123ce91906138ed565b6123d89190613003565b90505b6001811115612478577f3031323334353637383961626364656600000000000000000000000000000000600f86166010811061241a576124196138be565b5b1a60f81b828281518110612431576124306138be565b5b60200101907effffffffffffffffffffffffffffffffffffffffffffffffffffffffffffff1916908160001a905350600485901c94508061247190613947565b90506123db565b50600084146124bc576040517f08c379a00000000000000000000000000000000000000000000000000000000081526004016124b3906139bd565b60405180910390fd5b8091505092915050565b60008060008019858709858702925082811083820303915050600081141561250157600084116124f557600080fd5b838204925050506125bb565b80841161250d57600080fd5b60008486880990508281118203915080830392506000856001877fffffffffffffffffffffffffffffffffffffffffffffffffffffffffffffffff0301169050808604955080840493506001818260000304019050808302841793506000600287600302189050808702600203810290508087026002038102905080870260020381029050808702600203810290508087026002038102905080870260020381029050808502955050505050505b9392505050565b600080670de0b6b3a764000090506000841215612603576125f5846125e690613142565b670de0b6b3a7640000876124c6565b8161260091906135f4565b90505b600084131561262d5761261f84670de0b6b3a7640000876124c6565b8161262a91906139dd565b90505b60008113158061263e575060028112155b61267d576040517f08c379a000000000000000000000000000000000000000000000000000000000815260040161267490613abd565b60405180910390fd5b8261269184670de0b6b3a7640000846124c6565b61269b91906131a6565b9150509392505050565b6000604051905090565b600080fd5b600080fd5b60007fffffffff0000000000000000000000000000000000000000000000000000000082169050919050565b6126ee816126b9565b81146126f957600080fd5b50565b60008135905061270b816126e5565b92915050565b600060208284031215612727576127266126af565b5b6000612735848285016126fc565b91505092915050565b60008115159050919050565b6127538161273e565b82525050565b600060208201905061276e600083018461274a565b92915050565b6000819050919050565b61278781612774565b82525050565b60006020820190506127a2600083018461277e565b92915050565b6000819050919050565b6127bb816127a8565b81146127c657600080fd5b50565b6000813590506127d8816127b2565b92915050565b6000602082840312156127f4576127f36126af565b5b6000612802848285016127c9565b91505092915050565b612814816127a8565b82525050565b600060208201905061282f600083018461280b565b92915050565b600073ffffffffffffffffffffffffffffffffffffffff82169050919050565b600061286082612835565b9050919050565b61287081612855565b811461287b57600080fd5b50565b60008135905061288d81612867565b92915050565b600080604083850312156128aa576128a96126af565b5b60006128b8858286016127c9565b92505060206128c98582860161287e565b9150509250929050565b6128dc81612774565b81146128e757600080fd5b50565b6000813590506128f9816128d3565b92915050565b6002811061290c57600080fd5b50565b60008135905061291e816128ff565b92915050565b6002811061293157600080fd5b50565b60008135905061294381612924565b92915050565b600080600080600080600080610100898b03121561296a576129696126af565b5b60006129788b828c016128ea565b98505060206129898b828c016128ea565b975050604061299a8b828c016128ea565b96505060606129ab8b828c0161290f565b95505060806129bc8b828c01612934565b94505060a06129cd8b828c016128ea565b93505060c06129de8b828c016128ea565b92505060e06129ef8b828c016128ea565b9150509295985092959890939650565b60008060008060808587031215612a1957612a186126af565b5b6000612a27878288016128ea565b9450506020612a38878288016128ea565b9350506040612a49878288016128ea565b9250506060612a5a87828801612934565b91505092959194509250565b600080600080600060a08688031215612a8257612a816126af565b5b6000612a90888289016128ea565b9550506020612aa1888289016128ea565b9450506040612ab2888289016128ea565b9350506060612ac38882890161290f565b9250506080612ad488828901612934565b9150509295509295909350565b6000604082019050612af6600083018561277e565b612b03602083018461277e565b9392505050565b600060208284031215612b2057612b1f6126af565b5b6000612b2e848285016128ea565b91505092915050565b6000606082019050612b4c600083018661277e565b612b59602083018561277e565b612b66604083018461277e565b949350505050565b600082825260208201905092915050565b7f496e636f727265637420636f737420706169642e000000000000000000000000600082015250565b6000612bb5601483612b6e565b9150612bc082612b7f565b602082019050919050565b60006020820190508181036000830152612be481612ba8565b9050919050565b7f4e487b7100000000000000000000000000000000000000000000000000000000600052602160045260246000fd5b60028110612c2b57612c2a612beb565b5b50565b6000819050612c3c82612c1a565b919050565b6000612c4c82612c2e565b9050919050565b612c5c81612c41565b82525050565b60028110612c7357612c72612beb565b5b50565b6000819050612c8482612c62565b919050565b6000612c9482612c76565b9050919050565b612ca481612c89565b82525050565b600061012082019050612cc0600083018c61277e565b612ccd602083018b61277e565b612cda604083018a61277e565b612ce76060830189612c53565b612cf46080830188612c9b565b612d0160a083018761277e565b612d0e60c083018661277e565b612d1b60e083018561277e565b612d2961010083018461277e565b9a9950505050505050505050565b600081519050612d46816128d3565b92915050565b600060208284031215612d6257612d616126af565b5b6000612d7084828501612d37565b91505092915050565b600081519050612d8881612867565b92915050565b600060208284031215612da457612da36126af565b5b6000612db284828501612d79565b91505092915050565b612dc481612855565b82525050565b6000606082019050612ddf6000830186612dbb565b612dec6020830185612dbb565b612df9604083018461277e565b949350505050565b612e0a8161273e565b8114612e1557600080fd5b50565b600081519050612e2781612e01565b92915050565b600060208284031215612e4357612e426126af565b5b6000612e5184828501612e18565b91505092915050565b7f4661696c6564207061796d656e742e0000000000000000000000000000000000600082015250565b6000612e90600f83612b6e565b9150612e9b82612e5a565b602082019050919050565b60006020820190508181036000830152612ebf81612e83565b9050919050565b6000604082019050612edb6000830185612dbb565b612ee8602083018461277e565b9392505050565b7f416363657373436f6e74726f6c3a2063616e206f6e6c792072656e6f756e636560008201527f20726f6c657320666f722073656c660000000000000000000000000000000000602082015250565b6000612f4b602f83612b6e565b9150612f5682612eef565b604082019050919050565b60006020820190508181036000830152612f7a81612f3e565b9050919050565b600080600060608486031215612f9a57612f996126af565b5b6000612fa886828701612d37565b9350506020612fb986828701612d37565b9250506040612fca86828701612d37565b9150509250925092565b7f4e487b7100000000000000000000000000000000000000000000000000000000600052601160045260246000fd5b600061300e82612774565b915061301983612774565b9250827fffffffffffffffffffffffffffffffffffffffffffffffffffffffffffffffff0382111561304e5761304d612fd4565b5b828201905092915050565b6000819050919050565b61306c81613059565b811461307757600080fd5b50565b60008151905061308981613063565b92915050565b6000806000606084860312156130a8576130a76126af565b5b60006130b686828701612d37565b93505060206130c78682870161307a565b92505060406130d88682870161307a565b9150509250925092565b60006040820190506130f7600083018561277e565b6131046020830184612dbb565b9392505050565b6000606082019050613120600083018661277e565b61312d6020830185612dbb565b61313a604083018461277e565b949350505050565b600061314d82613059565b91507f80000000000000000000000000000000000000000000000000000000000000008214156131805761317f612fd4565b5b816000039050919050565b60006020820190506131a06000830184612dbb565b92915050565b60006131b182612774565b91506131bc83612774565b9250828210156131cf576131ce612fd4565b5b828203905092915050565b600060c0820190506131ef600083018961277e565b6131fc602083018861277e565b613209604083018761277e565b613216606083018661277e565b6132236080830185612c53565b61323060a0830184612c9b565b979650505050505050565b60008060408385031215613252576132516126af565b5b600061326085828601612d37565b925050602061327185828601612d37565b9150509250929050565b600081905092915050565b7f416363657373436f6e74726f6c3a206163636f756e7420000000000000000000600082015250565b60006132bc60178361327b565b91506132c782613286565b601782019050919050565b600081519050919050565b60005b838110156132fb5780820151818401526020810190506132e0565b8381111561330a576000848401525b50505050565b600061331b826132d2565b613325818561327b565b93506133358185602086016132dd565b80840191505092915050565b7f206973206d697373696e6720726f6c6520000000000000000000000000000000600082015250565b600061337760118361327b565b915061338282613341565b601182019050919050565b6000613398826132af565b91506133a48285613310565b91506133af8261336a565b91506133bb8284613310565b91508190509392505050565b6000601f19601f8301169050919050565b60006133e3826132d2565b6133ed8185612b6e565b93506133fd8185602086016132dd565b613406816133c7565b840191505092915050565b6000602082019050818103600083015261342b81846133d8565b905092915050565b61343c81612774565b82525050565b60006080820190506134576000830187613433565b6134646020830186613433565b6134716040830185613433565b61347e6060830184613433565b95945050505050565b600060408201905061349c600083018561274a565b6134a9602083018461274a565b9392505050565b6000602082840312156134c6576134c56126af565b5b60006134d48482850161307a565b91505092915050565b60006134e882613059565b91506134f383613059565b9250827f7fffffffffffffffffffffffffffffffffffffffffffffffffffffffffffffff048211600084136000841316161561353257613531612fd4565b5b817f8000000000000000000000000000000000000000000000000000000000000000058312600084126000841316161561356f5761356e612fd4565b5b827f800000000000000000000000000000000000000000000000000000000000000005821260008413600084121616156135ac576135ab612fd4565b5b827f7fffffffffffffffffffffffffffffffffffffffffffffffffffffffffffffff05821260008412600084121616156135e9576135e8612fd4565b5b828202905092915050565b60006135ff82613059565b915061360a83613059565b9250817f7fffffffffffffffffffffffffffffffffffffffffffffffffffffffffffffff0383136000831215161561364557613644612fd4565b5b817f800000000000000000000000000000000000000000000000000000000000000003831260008312161561367d5761367c612fd4565b5b828201905092915050565b7f4e487b7100000000000000000000000000000000000000000000000000000000600052601260045260246000fd5b60006136c282612774565b91506136cd83612774565b9250826136dd576136dc613688565b5b828204905092915050565b60006080820190506136fd600083018761277e565b61370a6020830186612dbb565b613717604083018561277e565b613724606083018461277e565b95945050505050565b600080fd5b7f4e487b7100000000000000000000000000000000000000000000000000000000600052604160045260246000fd5b61376a826133c7565b810181811067ffffffffffffffff8211171561378957613788613732565b5b80604052505050565b600061379c6126a5565b90506137a88282613761565b919050565b600067ffffffffffffffff8211156137c8576137c7613732565b5b602082029050602081019050919050565b600080fd5b60006137f16137ec846137ad565b613792565b90508083825260208201905060208402830185811115613814576138136137d9565b5b835b8181101561383d57806138298882612d37565b845260208401935050602081019050613816565b5050509392505050565b600082601f83011261385c5761385b61372d565b5b815161386c8482602086016137de565b91505092915050565b60006020828403121561388b5761388a6126af565b5b600082015167ffffffffffffffff8111156138a9576138a86126b4565b5b6138b584828501613847565b91505092915050565b7f4e487b7100000000000000000000000000000000000000000000000000000000600052603260045260246000fd5b60006138f882612774565b915061390383612774565b9250817fffffffffffffffffffffffffffffffffffffffffffffffffffffffffffffffff048311821515161561393c5761393b612fd4565b5b828202905092915050565b600061395282612774565b9150600082141561396657613965612fd4565b5b600182039050919050565b7f537472696e67733a20686578206c656e67746820696e73756666696369656e74600082015250565b60006139a7602083612b6e565b91506139b282613971565b602082019050919050565b600060208201905081810360008301526139d68161399a565b9050919050565b60006139e882613059565b91506139f383613059565b9250827f800000000000000000000000000000000000000000000000000000000000000001821260008412151615613a2e57613a2d612fd4565b5b827f7fffffffffffffffffffffffffffffffffffffffffffffffffffffffffffffff018213600084121615613a6657613a65612fd4565b5b828203905092915050565b7f4361706163697479206c696d69742062726561636865642e0000000000000000600082015250565b6000613aa7601883612b6e565b9150613ab282613a71565b602082019050919050565b60006020820190508181036000830152613ad681613a9a565b905091905056fea2646970667358221220d67b84d79c8fb081b37729b7d96c88e4392be6b1a4fd88765fbc34395c5f05e264736f6c63430008090033",
  "immutableReferences": {},
  "source": "// SPDX-License-Identifier: MIT\npragma solidity 0.8.9;\n\nimport \"@openzeppelin/contracts/token/ERC20/ERC20.sol\";\nimport \"@openzeppelin/contracts/access/AccessControl.sol\";\nimport \"@openzeppelin/contracts/utils/structs/EnumerableSet.sol\";\nimport \"@openzeppelin/contracts/utils/math/Math.sol\";\nimport \"./MoretInterfaces.sol\";\nimport \"./VolatilityToken.sol\";\nimport \"./MoretMarketMaker.sol\";\nimport \"./FullMath.sol\";\n\ncontract Exchange is AccessControl, EOption{\n  bytes32 public constant ADMIN_ROLE = keccak256(\"ADMIN_ROLE\"); // setting parameters and see the overall positions\n  bytes32 public constant MINER_ROLE = keccak256(\"MINER_ROLE\");\n  // OptionLibrary.Percent public volTransactionFees = OptionLibrary.Percent(5 * 10 ** 3, 10 ** 6);\n  // address public contractAddress;\n  // address public marketMakerAddress;\n  // ERC20 internal underlyingToken; // used to pay premiums (vol token is alternative)\n  // mapping(uint256=>VolatilityToken) public volTokensList;\n\n  MoretMarketMaker internal marketMaker;\n  IOptionVault internal optionVault;\n  ILendingPoolAddressesProvider internal lendingPoolAddressProvider;\n  address internal swapRouterAddress;\n  address internal aggregatorAddress;\n\n  uint256 private constant ethMultiplier = 10 ** 18;\n  uint256 public volRiskPremiumMaxRatio = 18 * (10 ** 17);\n  uint256 lendingPoolRateMode = 2;\n  bool internal useAggregator;\n  uint256 public exchangeSlippageMax = 10 ** 16; // 1% max slippage allowed\n  uint256 public exchangeDeadlineLag = 20; // 20s slippage time\n  uint256 public exchangeSlippageUp = 0;\n  uint256 public exchangeSlippageDown = 0;\n  uint256 public loanInterest = 0;\n\n  constructor( address _marketMakerAddress,address _optionAddress, address _swapRouterAddress, address _aggregatorAddress, address _lendingPoolAddressProvider){// address payable _volTokenAddress)\n    _setupRole(DEFAULT_ADMIN_ROLE, msg.sender);\n    _setupRole(ADMIN_ROLE, msg.sender);\n    _setupRole(MINER_ROLE, msg.sender);\n    optionVault = IOptionVault(_optionAddress);\n    // marketMakerAddress = _marketMakerAddress;\n    marketMaker = MoretMarketMaker(_marketMakerAddress);\n    // VolatilityToken _volToken = VolatilityToken(_volTokenAddress);\n    // volTokensList[_volToken.tenor()] = _volToken;\n    // contractAddress = payable(address(this));\n    // underlyingToken = ERC20(marketMaker.underlyingAddress());\n    swapRouterAddress = _swapRouterAddress;\n    aggregatorAddress = _aggregatorAddress;\n    lendingPoolAddressProvider = ILendingPoolAddressesProvider(_lendingPoolAddressProvider);\n    useAggregator = false;}\n\n  function queryOptionCost(uint256 _tenor, uint256 _strike, uint256 _amount, OptionLibrary.PayoffType _poType, OptionLibrary.OptionSide _side) public view returns(uint256, uint256){\n    uint256 _vol = queryOptionVolatility(_tenor, _strike, _amount, _side);\n    return optionVault.queryOptionCost(_tenor, _strike, _amount, _vol, _poType, _side);}\n\n  function queryOptionVolatility(uint256 _tenor, uint256 _strike, uint256 _amount, OptionLibrary.OptionSide _side) public view returns(uint256 _vol){  \n    _vol = optionVault.queryVol(_tenor); // running vol\n    (uint256 _price,, uint256 _priceMultiplier) = optionVault.queryPrice();\n    _vol += calcRiskPremium(_price, _priceMultiplier, _vol, _strike, _amount, _side);}\n\n  function calcRiskPremium(uint256 _price, uint256 _priceMultiplier, uint256 _vol, uint256 _strike, uint256 _amount,OptionLibrary.OptionSide _side) internal view returns(uint256) {\n    uint256 _maxGamma = MulDiv(OptionLibrary.calcGamma(_price, _price, _priceMultiplier, _vol), MulDiv(marketMaker.calcCapital(false, false), _priceMultiplier, _price), ethMultiplier );\n    int256 _currentGamma = marketMaker.getAggregateGamma(false); // include sells.\n    int256 _newGamma = _currentGamma + int256(MulDiv(OptionLibrary.calcGamma(_price, _strike, _priceMultiplier, _vol), _amount, ethMultiplier )) * (_side==OptionLibrary.OptionSide.Sell? -1: int(1));\n    uint256 _K = MulDiv(_vol, volRiskPremiumMaxRatio, ethMultiplier);\n    return (calcRiskPremiumAMM(_maxGamma, _currentGamma,  _K) + calcRiskPremiumAMM(_maxGamma, _newGamma, _K)) / 2;}\n\n  function calcRiskPremiumAMM(uint256 _max, int256 _input, uint256 _constant) internal pure returns(uint256) {\n    int256 _capacity = int256(ethMultiplier); // capacity should be in (0,2)\n    if(_input < 0){_capacity +=  int256(MulDiv(uint256(-_input), ethMultiplier, _max));}\n    if(_input > 0){ _capacity -= int256(MulDiv(uint256(_input) , ethMultiplier, _max));}\n    require(_capacity<=0 || _capacity >= 2,\"Capacity limit breached.\");\n    return MulDiv(_constant, ethMultiplier, uint256(_capacity)) - _constant;}\n\n  function purchaseOption(uint256 _tenor, uint256 _strike, uint256 _amount, OptionLibrary.PayoffType _poType, OptionLibrary.OptionSide _side, uint256 _payInCost, uint256 _price, uint256 _volatility) external {\n    (uint256 _premium, uint256 _cost) = queryOptionCost(_tenor, _strike, _amount, _poType, _side );      \n    require(_payInCost >= _cost, \"Incorrect cost paid.\");\n    uint256 _id = optionVault.addOption(_tenor, _strike, _amount, _poType, _side, _premium, _cost, _price, _volatility);\n    require(ERC20(marketMaker.fundingAddress()).transferFrom(msg.sender, address(marketMaker), _payInCost), 'Failed payment.');  \n    // emit newOptionBought(msg.sender, optionVault.getOption(_id), _payInCost, false);\n    optionVault.stampActiveOption(_id);\n    marketMaker.recordOptionPurchase(msg.sender, _id);}\n\n  function executeHedgeTrades() external onlyRole(MINER_ROLE){\n    (uint256 _targetUnderlying, int256 _chgDebt, int256 _chgCollateral) = marketMaker.calcHedgeTrade();\n    if(_chgDebt > 0){ \n      if(_chgCollateral>0) marketMaker.depositCollateral(uint256(_chgCollateral), lendingPoolAddressProvider.getLendingPool());\n      marketMaker.borrowLoans(uint256(_chgDebt),lendingPoolAddressProvider.getLendingPool(), lendingPoolRateMode);\n      if(_chgCollateral<0) marketMaker.withdrawCollateral(uint256(-_chgCollateral), lendingPoolAddressProvider.getLendingPool());\n      swapToFunding(uint256(_chgDebt));}\n    if(_chgDebt < 0){  \n      swapToUnderlying(uint256(-_chgDebt));\n      marketMaker.repayLoans(uint256(-_chgDebt), lendingPoolAddressProvider.getLendingPool(), lendingPoolRateMode);\n      if(_chgCollateral<0) marketMaker.withdrawCollateral(uint256(-_chgCollateral), lendingPoolAddressProvider.getLendingPool());\n      if(_chgCollateral>0) marketMaker.depositCollateral(uint256(_chgCollateral), lendingPoolAddressProvider.getLendingPool());}\n    uint256 _currentMarketMakerUnderlying = ERC20(marketMaker.underlyingAddress()).balanceOf(address(marketMaker));\n    if( _currentMarketMakerUnderlying > _targetUnderlying){\n      swapToFunding(_currentMarketMakerUnderlying - _targetUnderlying);}\n    if(_currentMarketMakerUnderlying < _targetUnderlying){\n      swapToUnderlying(_targetUnderlying - _currentMarketMakerUnderlying);}}\n\n  function swapToUnderlying(uint256 _underlyingAmount) internal  returns(uint256 _paidCost){\n    _paidCost = 0;\n    if(useAggregator) (_paidCost,) = marketMaker.swapToUnderlyingAtAggregator(_underlyingAmount, swapRouterAddress, exchangeSlippageMax);\n    if(!useAggregator) { \n      uint256[] memory _swappedAmounts = marketMaker.swapToUnderlyingAtVenue(_underlyingAmount, swapRouterAddress, exchangeSlippageMax, exchangeDeadlineLag);\n      _paidCost = _swappedAmounts[0];}}\n\n  function swapToFunding(uint256 _underlyingAmount) internal  returns(uint256 _returnedFunding){\n    _returnedFunding = 0;\n    if(useAggregator) _returnedFunding = marketMaker.swapToFundingAtAggregator(_underlyingAmount, swapRouterAddress, exchangeSlippageMax);\n    if(!useAggregator) { \n      uint256[] memory _swappedAmounts =marketMaker.swapToFundingAtVenue(_underlyingAmount, swapRouterAddress, exchangeSlippageMax, exchangeDeadlineLag);\n      _returnedFunding = _swappedAmounts[1];}}\n\n/* \n    function purchaseOptionInVol(uint256 _tenor, uint256 _strike, OptionLibrary.PayoffType _poType,\n      uint256 _amount, uint256 _payInCost)\n      external\n      {\n      uint256 _premium = queryOptionCost(_tenor, _strike, _amount, _poType,OptionLibrary.OptionSide.Buy );\n      uint256 _fee = MulDiv(_premium, settlementFee.numerator, settlementFee.denominator);\n\n      uint256 _id = optionVault.addOption(_tenor, _strike, _poType, OptionLibrary.OptionSide.Buy, _amount, _premium - _fee, _fee );\n      require(_payInCost >= optionVault.queryDraftOptionCost(_id, true), \"Entered premium incorrect.\");\n\n      require(volTokensList[_tenor].transferFrom(msg.sender, contractAddress, _payInCost), 'Failed payment.');\n\n      volTokensList[_tenor].approve(volTokensList[_tenor].contractAddress(), _payInCost);\n      volTokensList[_tenor].recycleInToken(contractAddress, _payInCost, underlyingToken);\n      require(underlyingToken.transfer(marketMakerAddress, optionVault.queryOptionPremium(_id)), 'Failed premium payment.');\n\n      optionVault.stampActiveOption(_id);\n\n      marketMaker.recordOption(msg.sender, _id, true,\n        optionVault.queryOptionPremium(_id),\n        optionVault.queryOptionExposure(_id, OptionLibrary.PayoffType.Call),\n        optionVault.queryOptionExposure(_id, OptionLibrary.PayoffType.Put));\n\n      emit newOptionBought(msg.sender, optionVault.getOption(_id), _payInCost, true);\n\n    } */\n\n  // function getOptionPayoffValue(uint256 _id) external view returns(uint256){return optionVault.getContractPayoff(_id);}\n\n    /* unction exerciseOption(uint256 _id) external  {\n        optionVault.validateOption(_id, msg.sender);\n\n        uint256 _payoffValue = optionVault.getOptionPayoffValue(_id);\n\n        optionVault.stampExercisedOption(_id);\n\n        require(underlyingToken.transfer(msg.sender, _payoffValue), \"Transfer failed.\");\n\n        marketMaker.recordOption(msg.sender, _id, false);\n\n        emit optionExercised(msg.sender, optionVault.getOption(_id), _payoffValue);\n    } */\n\n  // function expireOption(uint256 _id) external {\n  //       if(optionVault.isOptionExpiring(_id, marketMaker.updateInterval()))\n  //       {\n  //           (uint256 _payoffValue, uint256 _fromMarketMaker,uint256 _toMarketMaker ) = optionVault.getOptionPayoffValue(_id);\n\n  //           if(_fromMarketMaker >0 )\n  //           {\n  //             marketMaker.payExchange(_fromMarketMaker, contractAddress);\n  //           }\n\n  //           if(_toMarketMaker >0 )\n  //           {\n  //             require(underlyingToken.transfer(marketMakerAddress, _toMarketMaker));\n  //           }\n\n  //           require(_payoffValue < underlyingToken.balanceOf(contractAddress), \"Balance insufficient.\");\n\n  //           optionVault.stampExpiredOption(_id);\n\n  //           address _optionHolder = optionVault.getOptionHolder(_id);\n  //           require(underlyingToken.transfer(_optionHolder, _payoffValue), \"Transfer failed.\");\n\n  //           marketMaker.recordOption(msg.sender, _id, false);\n  //       }\n  //   }\n\n      // function addVolToken(address payable _tokenAddress) external onlyRole(ADMIN_ROLE)\n      // {\n      //     VolatilityToken _volToken = VolatilityToken(_tokenAddress);\n      //     /* require(_volToken.descriptionHash() == optionVault.descriptionHash());\n      //     require(optionVault.containsTenor(_volToken.tenor())); */\n\n      //     volTokensList[_volToken.tenor()] = _volToken;\n\n      // }\n\n      // function quoteVolatilityCost(uint256 _tenor, uint256 _volAmount) public view returns(uint256, uint256)\n      // {\n      //     /* require(optionVault.containsTenor(_tenor)); */\n\n      //     (uint256 _price,) = optionVault.queryPrice();\n      //     (uint256 _volatility, ) = optionVault.queryVol(_tenor);\n\n      //     uint256 _value = volTokensList[_tenor].calculateMintValue(_volAmount, _price, _volatility);\n      //     uint256 _fee = _value * volTransactionFees.numerator/ volTransactionFees.denominator;\n\n      //     return (_value, _fee);\n      // }\n\n      // function purchaseVolatilityToken(uint256 _tenor, uint256 _volAmount, uint256 _payInCost)\n      // external {\n      //     (uint256 _value, uint256 _fee) = quoteVolatilityCost(_tenor, _volAmount);\n      //     require(_payInCost >= (_value + _fee));\n\n      //     underlyingToken.transferFrom(msg.sender, address(volTokensList[_tenor]), _value);\n      //     volTokensList[_tenor].mint{value: _value}(msg.sender, _volAmount);\n\n      //     emit newVolatilityTokenBought(msg.sender, block.timestamp, _tenor, _volAmount);\n      // }\n\n      // function sweepBalance() external onlyRole(ADMIN_ROLE){\n      //       require(underlyingToken.transfer(msg.sender, underlyingToken.balanceOf(contractAddress)), \"Withdrawal failed.\");\n      // }\n\n      // function resetVolTransactionFees(uint256 _fee, uint256 _denominator) external onlyRole(ADMIN_ROLE){\n      //     volTransactionFees = OptionLibrary.Percent(_fee, _denominator);\n      // }\n      \n\n      // function calcUtilisation(uint256 _amount, uint256 _strike, OptionLibrary.PayoffType _poType, OptionLibrary.OptionSide _side)\n      // public view returns(uint256, uint256){\n      //     uint256 _grossCapital = marketMaker.calcCapital(false, false);\n      //     uint256 _netCapital = marketMaker.calcCapital(true, false);\n      //     uint256 _incrementalCapital = optionVault.queryOptionCapitalV2(_amount, _strike, _poType, _side, marketMaker.capitalRatio());\n      //     require((_netCapital+_incrementalCapital)<= _grossCapital, \"Insufficient capital.\");\n\n      //     return (MulDiv(_grossCapital-_netCapital, ethMultiplier, _grossCapital), \n      //       MulDiv(_grossCapital-_netCapital-_incrementalCapital, ethMultiplier, _grossCapital));\n\n      //     /* uint256 _newCallExposure = (_poType==OptionLibrary.PayoffType.Call)?\n      //       ((_side==OptionLibrary.OptionSide.Buy)? (marketMaker.callExposure() + _amount):\n      //         (marketMaker.callExposure() - Math.min(marketMaker.callExposure(), _amount)) )\n      //       : marketMaker.callExposure();\n      //     uint256 _newPutExposure = (_poType==OptionLibrary.PayoffType.Put)?\n      //       ((_side==OptionLibrary.OptionSide.Buy)? (marketMaker.putExposure()+_amount):\n      //         (marketMaker.putExposure() - Math.min(marketMaker.putExposure(), _amount)) )\n      //       : marketMaker.putExposure();\n\n      //     return (MulDiv(Math.max(marketMaker.callExposure(), marketMaker.putExposure()), ethMultiplier, _grossCapital ),\n      //       MulDiv(Math.max(_newCallExposure, _newPutExposure) , ethMultiplier, _grossCapital )); */\n      // }\n\n      function resetRiskPremiumMaxRatio(uint256 _newRatio) external onlyRole(ADMIN_ROLE){ volRiskPremiumMaxRatio=_newRatio;}\n      function queryPrice() external view returns(uint256, uint256, uint256){return optionVault.queryPrice();}\n      function queryVol(uint256 _tenor) external view returns(uint256){return optionVault.queryVol(_tenor);}\n}\n",
  "sourcePath": "/Users/mac/Documents/GitHub/moret/contracts/Exchange.sol",
  "compiler": {
    "name": "solc",
    "version": "0.8.9+commit.e5eed63a.Emscripten.clang"
  },
  "schemaVersion": "3.4.3",
  "updatedAt": "2021-10-26T23:07:52.523Z",
  "devdoc": {
    "kind": "dev",
    "methods": {
      "getRoleAdmin(bytes32)": {
        "details": "Returns the admin role that controls `role`. See {grantRole} and {revokeRole}. To change a role's admin, use {_setRoleAdmin}."
      },
      "grantRole(bytes32,address)": {
        "details": "Grants `role` to `account`. If `account` had not been already granted `role`, emits a {RoleGranted} event. Requirements: - the caller must have ``role``'s admin role."
      },
      "hasRole(bytes32,address)": {
        "details": "Returns `true` if `account` has been granted `role`."
      },
      "renounceRole(bytes32,address)": {
        "details": "Revokes `role` from the calling account. Roles are often managed via {grantRole} and {revokeRole}: this function's purpose is to provide a mechanism for accounts to lose their privileges if they are compromised (such as when a trusted device is misplaced). If the calling account had been granted `role`, emits a {RoleRevoked} event. Requirements: - the caller must be `account`."
      },
      "revokeRole(bytes32,address)": {
        "details": "Revokes `role` from `account`. If `account` had been granted `role`, emits a {RoleRevoked} event. Requirements: - the caller must have ``role``'s admin role."
      },
      "supportsInterface(bytes4)": {
        "details": "See {IERC165-supportsInterface}."
      }
    },
    "version": 1
  },
  "userdoc": {
    "kind": "user",
    "methods": {},
    "version": 1
  }
}