{
  "contractName": "GovernanceToken",
  "abi": [
    {
      "inputs": [
        {
          "internalType": "string",
          "name": "_name",
          "type": "string"
        },
        {
          "internalType": "string",
          "name": "_symbol",
          "type": "string"
        }
      ],
      "stateMutability": "nonpayable",
      "type": "constructor"
    },
    {
      "anonymous": false,
      "inputs": [
        {
          "indexed": true,
          "internalType": "address",
          "name": "owner",
          "type": "address"
        },
        {
          "indexed": true,
          "internalType": "address",
          "name": "spender",
          "type": "address"
        },
        {
          "indexed": false,
          "internalType": "uint256",
          "name": "value",
          "type": "uint256"
        }
      ],
      "name": "Approval",
      "type": "event"
    },
    {
      "anonymous": false,
      "inputs": [
        {
          "indexed": true,
          "internalType": "address",
          "name": "previousOwner",
          "type": "address"
        },
        {
          "indexed": true,
          "internalType": "address",
          "name": "newOwner",
          "type": "address"
        }
      ],
      "name": "OwnershipTransferred",
      "type": "event"
    },
    {
      "anonymous": false,
      "inputs": [
        {
          "indexed": true,
          "internalType": "bytes32",
          "name": "role",
          "type": "bytes32"
        },
        {
          "indexed": true,
          "internalType": "bytes32",
          "name": "previousAdminRole",
          "type": "bytes32"
        },
        {
          "indexed": true,
          "internalType": "bytes32",
          "name": "newAdminRole",
          "type": "bytes32"
        }
      ],
      "name": "RoleAdminChanged",
      "type": "event"
    },
    {
      "anonymous": false,
      "inputs": [
        {
          "indexed": true,
          "internalType": "bytes32",
          "name": "role",
          "type": "bytes32"
        },
        {
          "indexed": true,
          "internalType": "address",
          "name": "account",
          "type": "address"
        },
        {
          "indexed": true,
          "internalType": "address",
          "name": "sender",
          "type": "address"
        }
      ],
      "name": "RoleGranted",
      "type": "event"
    },
    {
      "anonymous": false,
      "inputs": [
        {
          "indexed": true,
          "internalType": "bytes32",
          "name": "role",
          "type": "bytes32"
        },
        {
          "indexed": true,
          "internalType": "address",
          "name": "account",
          "type": "address"
        },
        {
          "indexed": true,
          "internalType": "address",
          "name": "sender",
          "type": "address"
        }
      ],
      "name": "RoleRevoked",
      "type": "event"
    },
    {
      "anonymous": false,
      "inputs": [
        {
          "indexed": true,
          "internalType": "address",
          "name": "from",
          "type": "address"
        },
        {
          "indexed": true,
          "internalType": "address",
          "name": "to",
          "type": "address"
        },
        {
          "indexed": false,
          "internalType": "uint256",
          "name": "value",
          "type": "uint256"
        }
      ],
      "name": "Transfer",
      "type": "event"
    },
    {
      "anonymous": false,
      "inputs": [
        {
          "indexed": false,
          "internalType": "uint256",
          "name": "_amount",
          "type": "uint256"
        }
      ],
      "name": "cashSweep",
      "type": "event"
    },
    {
      "anonymous": false,
      "inputs": [
        {
          "indexed": false,
          "internalType": "uint256",
          "name": "_fee",
          "type": "uint256"
        }
      ],
      "name": "newGovernanceFees",
      "type": "event"
    },
    {
      "anonymous": false,
      "inputs": [
        {
          "indexed": false,
          "internalType": "string",
          "name": "_underlying",
          "type": "string"
        },
        {
          "indexed": false,
          "internalType": "uint256",
          "name": "_tenor",
          "type": "uint256"
        },
        {
          "indexed": false,
          "internalType": "address",
          "name": "_tokenAddress",
          "type": "address"
        }
      ],
      "name": "newVolatilityToken",
      "type": "event"
    },
    {
      "anonymous": false,
      "inputs": [
        {
          "indexed": false,
          "internalType": "address",
          "name": "_buyer",
          "type": "address"
        },
        {
          "indexed": false,
          "internalType": "uint256",
          "name": "_amout",
          "type": "uint256"
        },
        {
          "indexed": false,
          "internalType": "uint256",
          "name": "_cost",
          "type": "uint256"
        },
        {
          "indexed": false,
          "internalType": "uint256",
          "name": "_fee",
          "type": "uint256"
        }
      ],
      "name": "volatilityTokenPurchased",
      "type": "event"
    },
    {
      "inputs": [],
      "name": "ADMIN_ROLE",
      "outputs": [
        {
          "internalType": "bytes32",
          "name": "",
          "type": "bytes32"
        }
      ],
      "stateMutability": "view",
      "type": "function"
    },
    {
      "inputs": [],
      "name": "DEFAULT_ADMIN_ROLE",
      "outputs": [
        {
          "internalType": "bytes32",
          "name": "",
          "type": "bytes32"
        }
      ],
      "stateMutability": "view",
      "type": "function"
    },
    {
      "inputs": [
        {
          "internalType": "address",
          "name": "owner",
          "type": "address"
        },
        {
          "internalType": "address",
          "name": "spender",
          "type": "address"
        }
      ],
      "name": "allowance",
      "outputs": [
        {
          "internalType": "uint256",
          "name": "",
          "type": "uint256"
        }
      ],
      "stateMutability": "view",
      "type": "function"
    },
    {
      "inputs": [
        {
          "internalType": "address",
          "name": "spender",
          "type": "address"
        },
        {
          "internalType": "uint256",
          "name": "amount",
          "type": "uint256"
        }
      ],
      "name": "approve",
      "outputs": [
        {
          "internalType": "bool",
          "name": "",
          "type": "bool"
        }
      ],
      "stateMutability": "nonpayable",
      "type": "function"
    },
    {
      "inputs": [
        {
          "internalType": "address",
          "name": "account",
          "type": "address"
        }
      ],
      "name": "balanceOf",
      "outputs": [
        {
          "internalType": "uint256",
          "name": "",
          "type": "uint256"
        }
      ],
      "stateMutability": "view",
      "type": "function"
    },
    {
      "inputs": [],
      "name": "decimals",
      "outputs": [
        {
          "internalType": "uint8",
          "name": "",
          "type": "uint8"
        }
      ],
      "stateMutability": "view",
      "type": "function"
    },
    {
      "inputs": [
        {
          "internalType": "address",
          "name": "spender",
          "type": "address"
        },
        {
          "internalType": "uint256",
          "name": "subtractedValue",
          "type": "uint256"
        }
      ],
      "name": "decreaseAllowance",
      "outputs": [
        {
          "internalType": "bool",
          "name": "",
          "type": "bool"
        }
      ],
      "stateMutability": "nonpayable",
      "type": "function"
    },
    {
      "inputs": [
        {
          "internalType": "bytes32",
          "name": "role",
          "type": "bytes32"
        }
      ],
      "name": "getRoleAdmin",
      "outputs": [
        {
          "internalType": "bytes32",
          "name": "",
          "type": "bytes32"
        }
      ],
      "stateMutability": "view",
      "type": "function"
    },
    {
      "inputs": [],
      "name": "governanceFees",
      "outputs": [
        {
          "internalType": "uint256",
          "name": "",
          "type": "uint256"
        }
      ],
      "stateMutability": "view",
      "type": "function"
    },
    {
      "inputs": [
        {
          "internalType": "bytes32",
          "name": "role",
          "type": "bytes32"
        },
        {
          "internalType": "address",
          "name": "account",
          "type": "address"
        }
      ],
      "name": "grantRole",
      "outputs": [],
      "stateMutability": "nonpayable",
      "type": "function"
    },
    {
      "inputs": [
        {
          "internalType": "bytes32",
          "name": "role",
          "type": "bytes32"
        },
        {
          "internalType": "address",
          "name": "account",
          "type": "address"
        }
      ],
      "name": "hasRole",
      "outputs": [
        {
          "internalType": "bool",
          "name": "",
          "type": "bool"
        }
      ],
      "stateMutability": "view",
      "type": "function"
    },
    {
      "inputs": [
        {
          "internalType": "address",
          "name": "spender",
          "type": "address"
        },
        {
          "internalType": "uint256",
          "name": "addedValue",
          "type": "uint256"
        }
      ],
      "name": "increaseAllowance",
      "outputs": [
        {
          "internalType": "bool",
          "name": "",
          "type": "bool"
        }
      ],
      "stateMutability": "nonpayable",
      "type": "function"
    },
    {
      "inputs": [],
      "name": "loanDayBase",
      "outputs": [
        {
          "internalType": "uint256",
          "name": "",
          "type": "uint256"
        }
      ],
      "stateMutability": "view",
      "type": "function"
    },
    {
      "inputs": [],
      "name": "loanFees",
      "outputs": [
        {
          "internalType": "uint256",
          "name": "",
          "type": "uint256"
        }
      ],
      "stateMutability": "view",
      "type": "function"
    },
    {
      "inputs": [],
      "name": "name",
      "outputs": [
        {
          "internalType": "string",
          "name": "",
          "type": "string"
        }
      ],
      "stateMutability": "view",
      "type": "function"
    },
    {
      "inputs": [],
      "name": "owner",
      "outputs": [
        {
          "internalType": "address",
          "name": "",
          "type": "address"
        }
      ],
      "stateMutability": "view",
      "type": "function"
    },
    {
      "inputs": [],
      "name": "pctDenominator",
      "outputs": [
        {
          "internalType": "uint256",
          "name": "",
          "type": "uint256"
        }
      ],
      "stateMutability": "view",
      "type": "function"
    },
    {
      "inputs": [],
      "name": "renounceOwnership",
      "outputs": [],
      "stateMutability": "nonpayable",
      "type": "function"
    },
    {
      "inputs": [
        {
          "internalType": "bytes32",
          "name": "role",
          "type": "bytes32"
        },
        {
          "internalType": "address",
          "name": "account",
          "type": "address"
        }
      ],
      "name": "renounceRole",
      "outputs": [],
      "stateMutability": "nonpayable",
      "type": "function"
    },
    {
      "inputs": [
        {
          "internalType": "bytes32",
          "name": "role",
          "type": "bytes32"
        },
        {
          "internalType": "address",
          "name": "account",
          "type": "address"
        }
      ],
      "name": "revokeRole",
      "outputs": [],
      "stateMutability": "nonpayable",
      "type": "function"
    },
    {
      "inputs": [
        {
          "internalType": "bytes4",
          "name": "interfaceId",
          "type": "bytes4"
        }
      ],
      "name": "supportsInterface",
      "outputs": [
        {
          "internalType": "bool",
          "name": "",
          "type": "bool"
        }
      ],
      "stateMutability": "view",
      "type": "function"
    },
    {
      "inputs": [],
      "name": "symbol",
      "outputs": [
        {
          "internalType": "string",
          "name": "",
          "type": "string"
        }
      ],
      "stateMutability": "view",
      "type": "function"
    },
    {
      "inputs": [],
      "name": "totalSupply",
      "outputs": [
        {
          "internalType": "uint256",
          "name": "",
          "type": "uint256"
        }
      ],
      "stateMutability": "view",
      "type": "function"
    },
    {
      "inputs": [
        {
          "internalType": "address",
          "name": "recipient",
          "type": "address"
        },
        {
          "internalType": "uint256",
          "name": "amount",
          "type": "uint256"
        }
      ],
      "name": "transfer",
      "outputs": [
        {
          "internalType": "bool",
          "name": "",
          "type": "bool"
        }
      ],
      "stateMutability": "nonpayable",
      "type": "function"
    },
    {
      "inputs": [
        {
          "internalType": "address",
          "name": "sender",
          "type": "address"
        },
        {
          "internalType": "address",
          "name": "recipient",
          "type": "address"
        },
        {
          "internalType": "uint256",
          "name": "amount",
          "type": "uint256"
        }
      ],
      "name": "transferFrom",
      "outputs": [
        {
          "internalType": "bool",
          "name": "",
          "type": "bool"
        }
      ],
      "stateMutability": "nonpayable",
      "type": "function"
    },
    {
      "inputs": [
        {
          "internalType": "address",
          "name": "newOwner",
          "type": "address"
        }
      ],
      "name": "transferOwnership",
      "outputs": [],
      "stateMutability": "nonpayable",
      "type": "function"
    },
    {
      "inputs": [
        {
          "internalType": "bytes32",
          "name": "",
          "type": "bytes32"
        }
      ],
      "name": "volChainList",
      "outputs": [
        {
          "internalType": "contract VolatilityChain",
          "name": "",
          "type": "address"
        }
      ],
      "stateMutability": "view",
      "type": "function"
    },
    {
      "inputs": [
        {
          "internalType": "bytes32",
          "name": "",
          "type": "bytes32"
        },
        {
          "internalType": "uint256",
          "name": "",
          "type": "uint256"
        }
      ],
      "name": "volTokensList",
      "outputs": [
        {
          "internalType": "contract VolatilityToken",
          "name": "",
          "type": "address"
        }
      ],
      "stateMutability": "view",
      "type": "function"
    },
    {
      "stateMutability": "payable",
      "type": "receive"
    },
    {
      "inputs": [
        {
          "internalType": "string",
          "name": "_underlying",
          "type": "string"
        },
        {
          "internalType": "uint256",
          "name": "_tenor",
          "type": "uint256"
        },
        {
          "internalType": "uint256",
          "name": "_volAmount",
          "type": "uint256"
        }
      ],
      "name": "getVolatilityQuote",
      "outputs": [
        {
          "internalType": "uint256",
          "name": "",
          "type": "uint256"
        },
        {
          "internalType": "uint256",
          "name": "",
          "type": "uint256"
        }
      ],
      "stateMutability": "view",
      "type": "function"
    },
    {
      "inputs": [
        {
          "internalType": "string",
          "name": "_underlying",
          "type": "string"
        },
        {
          "internalType": "uint256",
          "name": "_tenor",
          "type": "uint256"
        },
        {
          "internalType": "uint256",
          "name": "_ethAmount",
          "type": "uint256"
        }
      ],
      "name": "getVolatilityAmount",
      "outputs": [
        {
          "internalType": "uint256",
          "name": "",
          "type": "uint256"
        },
        {
          "internalType": "uint256",
          "name": "",
          "type": "uint256"
        }
      ],
      "stateMutability": "view",
      "type": "function"
    },
    {
      "inputs": [
        {
          "internalType": "string",
          "name": "_underlying",
          "type": "string"
        },
        {
          "internalType": "uint256",
          "name": "_tenor",
          "type": "uint256"
        }
      ],
      "name": "purchaseVolatilityToken",
      "outputs": [],
      "stateMutability": "payable",
      "type": "function"
    },
    {
      "inputs": [
        {
          "internalType": "string",
          "name": "_underlying",
          "type": "string"
        },
        {
          "internalType": "address",
          "name": "_volChainAddress",
          "type": "address"
        }
      ],
      "name": "addVolChain",
      "outputs": [],
      "stateMutability": "nonpayable",
      "type": "function"
    },
    {
      "inputs": [
        {
          "internalType": "string",
          "name": "_underlying",
          "type": "string"
        },
        {
          "internalType": "uint256",
          "name": "_tenor",
          "type": "uint256"
        },
        {
          "internalType": "address payable",
          "name": "_tokenAddress",
          "type": "address"
        }
      ],
      "name": "addVolToken",
      "outputs": [],
      "stateMutability": "nonpayable",
      "type": "function"
    },
    {
      "inputs": [
        {
          "internalType": "uint256",
          "name": "_tenor",
          "type": "uint256"
        }
      ],
      "name": "removeTenor",
      "outputs": [],
      "stateMutability": "nonpayable",
      "type": "function"
    },
    {
      "inputs": [
        {
          "internalType": "string",
          "name": "_underlying",
          "type": "string"
        }
      ],
      "name": "hasVolToken",
      "outputs": [
        {
          "internalType": "bool",
          "name": "",
          "type": "bool"
        }
      ],
      "stateMutability": "view",
      "type": "function"
    },
    {
      "inputs": [
        {
          "internalType": "uint256",
          "name": "_fee",
          "type": "uint256"
        }
      ],
      "name": "resetGovernanceFees",
      "outputs": [],
      "stateMutability": "nonpayable",
      "type": "function"
    },
    {
      "inputs": [],
      "name": "sweepBalance",
      "outputs": [],
      "stateMutability": "nonpayable",
      "type": "function"
    }
  ],
  "bytecode": "0x6080604052612710600f5562030d406010556301e133806011553480156200002657600080fd5b5060405162004d7338038062004d7383398181016040528101906200004c919062000720565b8181816003908051906020019062000066929190620004d3565b5080600490805190602001906200007f929190620004d3565b505050600062000094620001ee60201b60201c565b905080600560006101000a81548173ffffffffffffffffffffffffffffffffffffffff021916908373ffffffffffffffffffffffffffffffffffffffff1602179055508073ffffffffffffffffffffffffffffffffffffffff16600073ffffffffffffffffffffffffffffffffffffffff167f8be0079c531659141344cd1fd0a4f28419497f9722a3daafe3b4186f6b6457e060405160405180910390a35030600760006101000a81548173ffffffffffffffffffffffffffffffffffffffff021916908373ffffffffffffffffffffffffffffffffffffffff160217905550620001b4600760009054906101000a900473ffffffffffffffffffffffffffffffffffffffff166b204fce5e3e25026110000000620001f660201b60201c565b620001e67fa49807205ce4d355092ef5a8a18f56e8913cf4a201fbe287825b095693c21775336200035b60201b60201c565b505062000951565b600033905090565b600073ffffffffffffffffffffffffffffffffffffffff168273ffffffffffffffffffffffffffffffffffffffff16141562000269576040517f08c379a0000000000000000000000000000000000000000000000000000000008152600401620002609062000806565b60405180910390fd5b6200027d600083836200037160201b60201c565b806002600082825462000291919062000861565b92505081905550806000808473ffffffffffffffffffffffffffffffffffffffff1673ffffffffffffffffffffffffffffffffffffffff1681526020019081526020016000206000828254620002e8919062000861565b925050819055508173ffffffffffffffffffffffffffffffffffffffff16600073ffffffffffffffffffffffffffffffffffffffff167fddf252ad1be2c89b69c2b068fc378daa952ba7f163c4a11628f55a4df523b3ef836040516200034f9190620008cf565b60405180910390a35050565b6200036d82826200037660201b60201c565b5050565b505050565b6200038882826200046860201b60201c565b620004645760016006600084815260200190815260200160002060000160008373ffffffffffffffffffffffffffffffffffffffff1673ffffffffffffffffffffffffffffffffffffffff16815260200190815260200160002060006101000a81548160ff02191690831515021790555062000409620001ee60201b60201c565b73ffffffffffffffffffffffffffffffffffffffff168173ffffffffffffffffffffffffffffffffffffffff16837f2f8788117e7eff1d82e926ec794901d17c78024a50270940304540a733656f0d60405160405180910390a45b5050565b60006006600084815260200190815260200160002060000160008373ffffffffffffffffffffffffffffffffffffffff1673ffffffffffffffffffffffffffffffffffffffff16815260200190815260200160002060009054906101000a900460ff16905092915050565b828054620004e1906200091b565b90600052602060002090601f01602090048101928262000505576000855562000551565b82601f106200052057805160ff191683800117855562000551565b8280016001018555821562000551579182015b828111156200055057825182559160200191906001019062000533565b5b50905062000560919062000564565b5090565b5b808211156200057f57600081600090555060010162000565565b5090565b6000604051905090565b600080fd5b600080fd5b600080fd5b600080fd5b6000601f19601f8301169050919050565b7f4e487b7100000000000000000000000000000000000000000000000000000000600052604160045260246000fd5b620005ec82620005a1565b810181811067ffffffffffffffff821117156200060e576200060d620005b2565b5b80604052505050565b60006200062362000583565b9050620006318282620005e1565b919050565b600067ffffffffffffffff821115620006545762000653620005b2565b5b6200065f82620005a1565b9050602081019050919050565b60005b838110156200068c5780820151818401526020810190506200066f565b838111156200069c576000848401525b50505050565b6000620006b9620006b38462000636565b62000617565b905082815260208101848484011115620006d857620006d76200059c565b5b620006e58482856200066c565b509392505050565b600082601f83011262000705576200070462000597565b5b815162000717848260208601620006a2565b91505092915050565b600080604083850312156200073a57620007396200058d565b5b600083015167ffffffffffffffff8111156200075b576200075a62000592565b5b6200076985828601620006ed565b925050602083015167ffffffffffffffff8111156200078d576200078c62000592565b5b6200079b85828601620006ed565b9150509250929050565b600082825260208201905092915050565b7f45524332303a206d696e7420746f20746865207a65726f206164647265737300600082015250565b6000620007ee601f83620007a5565b9150620007fb82620007b6565b602082019050919050565b600060208201905081810360008301526200082181620007df565b9050919050565b6000819050919050565b7f4e487b7100000000000000000000000000000000000000000000000000000000600052601160045260246000fd5b60006200086e8262000828565b91506200087b8362000828565b9250827fffffffffffffffffffffffffffffffffffffffffffffffffffffffffffffffff03821115620008b357620008b262000832565b5b828201905092915050565b620008c98162000828565b82525050565b6000602082019050620008e66000830184620008be565b92915050565b7f4e487b7100000000000000000000000000000000000000000000000000000000600052602260045260246000fd5b600060028204905060018216806200093457607f821691505b602082108114156200094b576200094a620008ec565b5b50919050565b61441280620009616000396000f3fe60806040526004361061021e5760003560e01c80636708794a11610123578063a18dc75e116100ab578063d547741f1161006f578063d547741f14610845578063dd62ed3e1461086e578063e32059c1146108ab578063f2fde38b146108d6578063fd27195f146108ff57610225565b8063a18dc75e1461074c578063a217fddf14610789578063a457c2d7146107b4578063a9059cbb146107f1578063c3513f6d1461082e57610225565b80638da5cb5b116100f25780638da5cb5b1461065057806391d148541461067b578063921e9745146106b857806395d89b41146106f65780639dc56d941461072157610225565b80636708794a146105a857806370a08231146105d1578063715018a61461060e57806375b238fc1461062557610225565b8063248a9ca3116101a6578063313ce56711610175578063313ce5671461049d578063340462ed146104c857806336568abe14610505578063395093511461052e57806364879e411461056b57610225565b8063248a9ca3146103e5578063285f9457146104225780632e107efd1461044b5780632f2ff15d1461047457610225565b806314f35fb3116101ed57806314f35fb3146102eb57806318160ddd146103295780631e20ed2814610354578063216c24901461037d57806323b872dd146103a857610225565b806301ffc9a71461022a57806306fdde0314610267578063091152c714610292578063095ea7b3146102ae57610225565b3661022557005b600080fd5b34801561023657600080fd5b50610251600480360381019061024c9190612eb5565b61092a565b60405161025e9190612efd565b60405180910390f35b34801561027357600080fd5b5061027c6109a4565b6040516102899190612fb1565b60405180910390f35b6102ac60048036038101906102a7919061313e565b610a36565b005b3480156102ba57600080fd5b506102d560048036038101906102d091906131f8565b610c43565b6040516102e29190612efd565b60405180910390f35b3480156102f757600080fd5b50610312600480360381019061030d9190613238565b610c61565b6040516103209291906132b6565b60405180910390f35b34801561033557600080fd5b5061033e610f36565b60405161034b91906132df565b60405180910390f35b34801561036057600080fd5b5061037b600480360381019061037691906132fa565b610f40565b005b34801561038957600080fd5b50610392610fb4565b60405161039f91906132df565b60405180910390f35b3480156103b457600080fd5b506103cf60048036038101906103ca9190613327565b610fba565b6040516103dc9190612efd565b60405180910390f35b3480156103f157600080fd5b5061040c600480360381019061040791906133b0565b6110bb565b60405161041991906133ec565b60405180910390f35b34801561042e57600080fd5b50610449600480360381019061044491906132fa565b6110db565b005b34801561045757600080fd5b50610472600480360381019061046d9190613407565b611143565b005b34801561048057600080fd5b5061049b60048036038101906104969190613463565b6112af565b005b3480156104a957600080fd5b506104b26112d8565b6040516104bf91906134bf565b60405180910390f35b3480156104d457600080fd5b506104ef60048036038101906104ea91906134da565b6112e1565b6040516104fc9190613579565b60405180910390f35b34801561051157600080fd5b5061052c60048036038101906105279190613463565b611323565b005b34801561053a57600080fd5b50610555600480360381019061055091906131f8565b6113a6565b6040516105629190612efd565b60405180910390f35b34801561057757600080fd5b50610592600480360381019061058d9190613594565b611452565b60405161059f9190612efd565b60405180910390f35b3480156105b457600080fd5b506105cf60048036038101906105ca919061361b565b611495565b005b3480156105dd57600080fd5b506105f860048036038101906105f3919061368a565b6116e0565b60405161060591906132df565b60405180910390f35b34801561061a57600080fd5b50610623611728565b005b34801561063157600080fd5b5061063a611865565b60405161064791906133ec565b60405180910390f35b34801561065c57600080fd5b50610665611889565b60405161067291906136c6565b60405180910390f35b34801561068757600080fd5b506106a2600480360381019061069d9190613463565b6118b3565b6040516106af9190612efd565b60405180910390f35b3480156106c457600080fd5b506106df60048036038101906106da9190613238565b61191e565b6040516106ed9291906132b6565b60405180910390f35b34801561070257600080fd5b5061070b611c20565b6040516107189190612fb1565b60405180910390f35b34801561072d57600080fd5b50610736611cb2565b60405161074391906132df565b60405180910390f35b34801561075857600080fd5b50610773600480360381019061076e91906133b0565b611cb9565b6040516107809190613714565b60405180910390f35b34801561079557600080fd5b5061079e611cec565b6040516107ab91906133ec565b60405180910390f35b3480156107c057600080fd5b506107db60048036038101906107d691906131f8565b611cf3565b6040516107e89190612efd565b60405180910390f35b3480156107fd57600080fd5b50610818600480360381019061081391906131f8565b611de7565b6040516108259190612efd565b60405180910390f35b34801561083a57600080fd5b50610843611e05565b005b34801561085157600080fd5b5061086c60048036038101906108679190613463565b611f6d565b005b34801561087a57600080fd5b506108956004803603810190610890919061372f565b611f96565b6040516108a291906132df565b60405180910390f35b3480156108b757600080fd5b506108c061201d565b6040516108cd91906132df565b60405180910390f35b3480156108e257600080fd5b506108fd60048036038101906108f8919061368a565b612023565b005b34801561090b57600080fd5b506109146121cf565b60405161092191906132df565b60405180910390f35b60007f7965db0b000000000000000000000000000000000000000000000000000000007bffffffffffffffffffffffffffffffffffffffffffffffffffffffff1916827bffffffffffffffffffffffffffffffffffffffffffffffffffffffff1916148061099d575061099c826121d5565b5b9050919050565b6060600380546109b39061379e565b80601f01602080910402602001604051908101604052809291908181526020018280546109df9061379e565b8015610a2c5780601f10610a0157610100808354040283529160200191610a2c565b820191906000526020600020905b815481529060010190602001808311610a0f57829003601f168201915b5050505050905090565b600080610a4484843461191e565b915091506000600760009054906101000a900473ffffffffffffffffffffffffffffffffffffffff1673ffffffffffffffffffffffffffffffffffffffff1634604051610a9090613801565b60006040518083038185875af1925050503d8060008114610acd576040519150601f19603f3d011682016040523d82523d6000602084013e610ad2565b606091505b5050905080610b16576040517f08c379a0000000000000000000000000000000000000000000000000000000008152600401610b0d90613862565b60405180910390fd5b600085604051602001610b2991906138be565b604051602081830303815290604052805190602001209050600d6000828152602001908152602001600020600086815260200190815260200160002060009054906101000a900473ffffffffffffffffffffffffffffffffffffffff1673ffffffffffffffffffffffffffffffffffffffff166340c10f198434610bad9190613904565b33876040518463ffffffff1660e01b8152600401610bcc929190613938565b6000604051808303818588803b158015610be557600080fd5b505af1158015610bf9573d6000803e3d6000fd5b50505050507f8b18deef4f7095ff8e0d5807297d88a3e0001abe742fd52a9b8ef98311e4e3d333853486604051610c339493929190613961565b60405180910390a1505050505050565b6000610c57610c5061223f565b8484612247565b6001905092915050565b600080600085604051602001610c7791906138be565b604051602081830303815290604052805190602001209050610ca381600861241290919063ffffffff16565b610cac57600080fd5b610cc085600a61242990919063ffffffff16565b610cc957600080fd5b6000600c600083815260200190815260200160002060009054906101000a900473ffffffffffffffffffffffffffffffffffffffff1673ffffffffffffffffffffffffffffffffffffffff1663b0667cf86040518163ffffffff1660e01b815260040160606040518083038186803b158015610d4457600080fd5b505afa158015610d58573d6000803e3d6000fd5b505050506040513d601f19601f82011682018060405250810190610d7c91906139bb565b505090506000600c600084815260200190815260200160002060009054906101000a900473ffffffffffffffffffffffffffffffffffffffff1673ffffffffffffffffffffffffffffffffffffffff1663040b030f886040518263ffffffff1660e01b8152600401610dee91906132df565b60206040518083038186803b158015610e0657600080fd5b505afa158015610e1a573d6000803e3d6000fd5b505050506040513d601f19601f82011682018060405250810190610e3e9190613a0e565b90506000600d6000858152602001908152602001600020600089815260200190815260200160002060009054906101000a900473ffffffffffffffffffffffffffffffffffffffff1673ffffffffffffffffffffffffffffffffffffffff166362c5c1198885856040518463ffffffff1660e01b8152600401610ec393929190613a3b565b60206040518083038186803b158015610edb57600080fd5b505afa158015610eef573d6000803e3d6000fd5b505050506040513d601f19601f82011682018060405250810190610f139190613a0e565b905080610f2682600f54620f4240612443565b9550955050505050935093915050565b6000600254905090565b7fa49807205ce4d355092ef5a8a18f56e8913cf4a201fbe287825b095693c21775610f7281610f6d61223f565b61253f565b81600f819055507f500c80bd9b6a860d5773840a11c8dafaf360016284c941a068837b1ebbdc68ce82604051610fa891906132df565b60405180910390a15050565b60105481565b6000610fc78484846125dc565b6000600160008673ffffffffffffffffffffffffffffffffffffffff1673ffffffffffffffffffffffffffffffffffffffff168152602001908152602001600020600061101261223f565b73ffffffffffffffffffffffffffffffffffffffff1673ffffffffffffffffffffffffffffffffffffffff16815260200190815260200160002054905082811015611092576040517f08c379a000000000000000000000000000000000000000000000000000000000815260040161108990613ae4565b60405180910390fd5b6110af8561109e61223f565b85846110aa9190613904565b612247565b60019150509392505050565b600060066000838152602001908152602001600020600101549050919050565b7fa49807205ce4d355092ef5a8a18f56e8913cf4a201fbe287825b095693c2177561110d8161110861223f565b61253f565b61112182600a61242990919063ffffffff16565b61112a57600080fd5b61113e82600a61285b90919063ffffffff16565b505050565b7fa49807205ce4d355092ef5a8a18f56e8913cf4a201fbe287825b095693c217756111758161117061223f565b61253f565b60008360405160200161118891906138be565b6040516020818303038152906040528051906020012090506111b481600861241290919063ffffffff16565b6111ce576111cc81600861287590919063ffffffff16565b505b8273ffffffffffffffffffffffffffffffffffffffff1663cca494736040518163ffffffff1660e01b815260040160206040518083038186803b15801561121457600080fd5b505afa158015611228573d6000803e3d6000fd5b505050506040513d601f19601f8201168201806040525081019061124c9190613b19565b811461125757600080fd5b82600c600083815260200190815260200160002060006101000a81548173ffffffffffffffffffffffffffffffffffffffff021916908373ffffffffffffffffffffffffffffffffffffffff16021790555050505050565b6112b8826110bb565b6112c9816112c461223f565b61253f565b6112d3838361288c565b505050565b60006012905090565b600d6020528160005260406000206020528060005260406000206000915091509054906101000a900473ffffffffffffffffffffffffffffffffffffffff1681565b61132b61223f565b73ffffffffffffffffffffffffffffffffffffffff168173ffffffffffffffffffffffffffffffffffffffff1614611398576040517f08c379a000000000000000000000000000000000000000000000000000000000815260040161138f90613bb8565b60405180910390fd5b6113a2828261296d565b5050565b60006114486113b361223f565b8484600160006113c161223f565b73ffffffffffffffffffffffffffffffffffffffff1673ffffffffffffffffffffffffffffffffffffffff16815260200190815260200160002060008873ffffffffffffffffffffffffffffffffffffffff1673ffffffffffffffffffffffffffffffffffffffff168152602001908152602001600020546114439190613bd8565b612247565b6001905092915050565b600061148e8260405160200161146891906138be565b60405160208183030381529060405280519060200120600861241290919063ffffffff16565b9050919050565b7fa49807205ce4d355092ef5a8a18f56e8913cf4a201fbe287825b095693c217756114c7816114c261223f565b61253f565b6000846040516020016114da91906138be565b60405160208183030381529060405280519060200120905061150681600861241290919063ffffffff16565b6115205761151e81600861287590919063ffffffff16565b505b61153484600a61242990919063ffffffff16565b61154e5761154c84600a612a4f90919063ffffffff16565b505b82600d6000838152602001908152602001600020600086815260200190815260200160002060006101000a81548173ffffffffffffffffffffffffffffffffffffffff021916908373ffffffffffffffffffffffffffffffffffffffff160217905550600d6000828152602001908152602001600020600085815260200190815260200160002060009054906101000a900473ffffffffffffffffffffffffffffffffffffffff1673ffffffffffffffffffffffffffffffffffffffff1663313ce5676040518163ffffffff1660e01b815260040160206040518083038186803b15801561163b57600080fd5b505afa15801561164f573d6000803e3d6000fd5b505050506040513d601f19601f820116820180604052508101906116739190613c5a565b600e600083815260200190815260200160002060006101000a81548160ff021916908360ff1602179055507f93dc3bfce85f48c721d4974c97962581e256eb8306b1921bdc290631c6cac8a28585856040516116d193929190613ca8565b60405180910390a15050505050565b60008060008373ffffffffffffffffffffffffffffffffffffffff1673ffffffffffffffffffffffffffffffffffffffff168152602001908152602001600020549050919050565b61173061223f565b73ffffffffffffffffffffffffffffffffffffffff1661174e611889565b73ffffffffffffffffffffffffffffffffffffffff16146117a4576040517f08c379a000000000000000000000000000000000000000000000000000000000815260040161179b90613d32565b60405180910390fd5b600073ffffffffffffffffffffffffffffffffffffffff16600560009054906101000a900473ffffffffffffffffffffffffffffffffffffffff1673ffffffffffffffffffffffffffffffffffffffff167f8be0079c531659141344cd1fd0a4f28419497f9722a3daafe3b4186f6b6457e060405160405180910390a36000600560006101000a81548173ffffffffffffffffffffffffffffffffffffffff021916908373ffffffffffffffffffffffffffffffffffffffff160217905550565b7fa49807205ce4d355092ef5a8a18f56e8913cf4a201fbe287825b095693c2177581565b6000600560009054906101000a900473ffffffffffffffffffffffffffffffffffffffff16905090565b60006006600084815260200190815260200160002060000160008373ffffffffffffffffffffffffffffffffffffffff1673ffffffffffffffffffffffffffffffffffffffff16815260200190815260200160002060009054906101000a900460ff16905092915050565b60008060008560405160200161193491906138be565b60405160208183030381529060405280519060200120905061196081600861241290919063ffffffff16565b61196957600080fd5b61197d85600a61242990919063ffffffff16565b61198657600080fd5b6000600c600083815260200190815260200160002060009054906101000a900473ffffffffffffffffffffffffffffffffffffffff1673ffffffffffffffffffffffffffffffffffffffff1663b0667cf86040518163ffffffff1660e01b815260040160606040518083038186803b158015611a0157600080fd5b505afa158015611a15573d6000803e3d6000fd5b505050506040513d601f19601f82011682018060405250810190611a3991906139bb565b505090506000600c600084815260200190815260200160002060009054906101000a900473ffffffffffffffffffffffffffffffffffffffff1673ffffffffffffffffffffffffffffffffffffffff1663040b030f886040518263ffffffff1660e01b8152600401611aab91906132df565b60206040518083038186803b158015611ac357600080fd5b505afa158015611ad7573d6000803e3d6000fd5b505050506040513d601f19601f82011682018060405250810190611afb9190613a0e565b90506000611bea600d600086815260200190815260200160002060008a815260200190815260200160002060009054906101000a900473ffffffffffffffffffffffffffffffffffffffff1673ffffffffffffffffffffffffffffffffffffffff16632fc7a44a8986866040518463ffffffff1660e01b8152600401611b8393929190613a3b565b60206040518083038186803b158015611b9b57600080fd5b505afa158015611baf573d6000803e3d6000fd5b505050506040513d601f19601f82011682018060405250810190611bd39190613a0e565b620f424080600f54611be59190613bd8565b612443565b90506000611c0b88600f54620f4240600f54611c069190613bd8565b612443565b90508181965096505050505050935093915050565b606060048054611c2f9061379e565b80601f0160208091040260200160405190810160405280929190818152602001828054611c5b9061379e565b8015611ca85780601f10611c7d57610100808354040283529160200191611ca8565b820191906000526020600020905b815481529060010190602001808311611c8b57829003601f168201915b5050505050905090565b620f424081565b600c6020528060005260406000206000915054906101000a900473ffffffffffffffffffffffffffffffffffffffff1681565b6000801b81565b60008060016000611d0261223f565b73ffffffffffffffffffffffffffffffffffffffff1673ffffffffffffffffffffffffffffffffffffffff16815260200190815260200160002060008573ffffffffffffffffffffffffffffffffffffffff1673ffffffffffffffffffffffffffffffffffffffff16815260200190815260200160002054905082811015611dbf576040517f08c379a0000000000000000000000000000000000000000000000000000000008152600401611db690613dc4565b60405180910390fd5b611ddc611dca61223f565b858584611dd79190613904565b612247565b600191505092915050565b6000611dfb611df461223f565b84846125dc565b6001905092915050565b611e0d61223f565b73ffffffffffffffffffffffffffffffffffffffff16611e2b611889565b73ffffffffffffffffffffffffffffffffffffffff1614611e81576040517f08c379a0000000000000000000000000000000000000000000000000000000008152600401611e7890613d32565b60405180910390fd5b600047905060003373ffffffffffffffffffffffffffffffffffffffff1682604051611eac90613801565b60006040518083038185875af1925050503d8060008114611ee9576040519150601f19603f3d011682016040523d82523d6000602084013e611eee565b606091505b5050905080611f32576040517f08c379a0000000000000000000000000000000000000000000000000000000008152600401611f2990613e30565b60405180910390fd5b7f4f419c906cb8927e83df10513ea1227360d365c979782f6458b22891c1765ba682604051611f6191906132df565b60405180910390a15050565b611f76826110bb565b611f8781611f8261223f565b61253f565b611f91838361296d565b505050565b6000600160008473ffffffffffffffffffffffffffffffffffffffff1673ffffffffffffffffffffffffffffffffffffffff16815260200190815260200160002060008373ffffffffffffffffffffffffffffffffffffffff1673ffffffffffffffffffffffffffffffffffffffff16815260200190815260200160002054905092915050565b600f5481565b61202b61223f565b73ffffffffffffffffffffffffffffffffffffffff16612049611889565b73ffffffffffffffffffffffffffffffffffffffff161461209f576040517f08c379a000000000000000000000000000000000000000000000000000000000815260040161209690613d32565b60405180910390fd5b600073ffffffffffffffffffffffffffffffffffffffff168173ffffffffffffffffffffffffffffffffffffffff16141561210f576040517f08c379a000000000000000000000000000000000000000000000000000000000815260040161210690613ec2565b60405180910390fd5b8073ffffffffffffffffffffffffffffffffffffffff16600560009054906101000a900473ffffffffffffffffffffffffffffffffffffffff1673ffffffffffffffffffffffffffffffffffffffff167f8be0079c531659141344cd1fd0a4f28419497f9722a3daafe3b4186f6b6457e060405160405180910390a380600560006101000a81548173ffffffffffffffffffffffffffffffffffffffff021916908373ffffffffffffffffffffffffffffffffffffffff16021790555050565b60115481565b60007f01ffc9a7000000000000000000000000000000000000000000000000000000007bffffffffffffffffffffffffffffffffffffffffffffffffffffffff1916827bffffffffffffffffffffffffffffffffffffffffffffffffffffffff1916149050919050565b600033905090565b600073ffffffffffffffffffffffffffffffffffffffff168373ffffffffffffffffffffffffffffffffffffffff1614156122b7576040517f08c379a00000000000000000000000000000000000000000000000000000000081526004016122ae90613f54565b60405180910390fd5b600073ffffffffffffffffffffffffffffffffffffffff168273ffffffffffffffffffffffffffffffffffffffff161415612327576040517f08c379a000000000000000000000000000000000000000000000000000000000815260040161231e90613fe6565b60405180910390fd5b80600160008573ffffffffffffffffffffffffffffffffffffffff1673ffffffffffffffffffffffffffffffffffffffff16815260200190815260200160002060008473ffffffffffffffffffffffffffffffffffffffff1673ffffffffffffffffffffffffffffffffffffffff168152602001908152602001600020819055508173ffffffffffffffffffffffffffffffffffffffff168373ffffffffffffffffffffffffffffffffffffffff167f8c5be1e5ebec7d5bd14f71427d1e84f3dd0314c0f7b2291e5b200ac8c7c3b9258360405161240591906132df565b60405180910390a3505050565b60006124218360000183612a69565b905092915050565b600061243b836000018360001b612a69565b905092915050565b60008060008019858709858702925082811083820303915050600081141561247e576000841161247257600080fd5b83820492505050612538565b80841161248a57600080fd5b60008486880990508281118203915080830392506000856001877fffffffffffffffffffffffffffffffffffffffffffffffffffffffffffffffff0301169050808604955080840493506001818260000304019050808302841793506000600287600302189050808702600203810290508087026002038102905080870260020381029050808702600203810290508087026002038102905080870260020381029050808502955050505050505b9392505050565b61254982826118b3565b6125d85761256e8173ffffffffffffffffffffffffffffffffffffffff166014612a8c565b61257c8360001c6020612a8c565b60405160200161258d92919061409e565b6040516020818303038152906040526040517f08c379a00000000000000000000000000000000000000000000000000000000081526004016125cf9190612fb1565b60405180910390fd5b5050565b600073ffffffffffffffffffffffffffffffffffffffff168373ffffffffffffffffffffffffffffffffffffffff16141561264c576040517f08c379a00000000000000000000000000000000000000000000000000000000081526004016126439061414a565b60405180910390fd5b600073ffffffffffffffffffffffffffffffffffffffff168273ffffffffffffffffffffffffffffffffffffffff1614156126bc576040517f08c379a00000000000000000000000000000000000000000000000000000000081526004016126b3906141dc565b60405180910390fd5b6126c7838383612cc8565b60008060008573ffffffffffffffffffffffffffffffffffffffff1673ffffffffffffffffffffffffffffffffffffffff1681526020019081526020016000205490508181101561274d576040517f08c379a00000000000000000000000000000000000000000000000000000000081526004016127449061426e565b60405180910390fd5b81816127599190613904565b6000808673ffffffffffffffffffffffffffffffffffffffff1673ffffffffffffffffffffffffffffffffffffffff16815260200190815260200160002081905550816000808573ffffffffffffffffffffffffffffffffffffffff1673ffffffffffffffffffffffffffffffffffffffff16815260200190815260200160002060008282546127e99190613bd8565b925050819055508273ffffffffffffffffffffffffffffffffffffffff168473ffffffffffffffffffffffffffffffffffffffff167fddf252ad1be2c89b69c2b068fc378daa952ba7f163c4a11628f55a4df523b3ef8460405161284d91906132df565b60405180910390a350505050565b600061286d836000018360001b612ccd565b905092915050565b60006128848360000183612dd9565b905092915050565b61289682826118b3565b6129695760016006600084815260200190815260200160002060000160008373ffffffffffffffffffffffffffffffffffffffff1673ffffffffffffffffffffffffffffffffffffffff16815260200190815260200160002060006101000a81548160ff02191690831515021790555061290e61223f565b73ffffffffffffffffffffffffffffffffffffffff168173ffffffffffffffffffffffffffffffffffffffff16837f2f8788117e7eff1d82e926ec794901d17c78024a50270940304540a733656f0d60405160405180910390a45b5050565b61297782826118b3565b15612a4b5760006006600084815260200190815260200160002060000160008373ffffffffffffffffffffffffffffffffffffffff1673ffffffffffffffffffffffffffffffffffffffff16815260200190815260200160002060006101000a81548160ff0219169083151502179055506129f061223f565b73ffffffffffffffffffffffffffffffffffffffff168173ffffffffffffffffffffffffffffffffffffffff16837ff6391f5c32d9c69d2a47ea670b442974b53935d1edc7fd64eb21e047a839171b60405160405180910390a45b5050565b6000612a61836000018360001b612dd9565b905092915050565b600080836001016000848152602001908152602001600020541415905092915050565b606060006002836002612a9f919061428e565b612aa99190613bd8565b67ffffffffffffffff811115612ac257612ac1612fdd565b5b6040519080825280601f01601f191660200182016040528015612af45781602001600182028036833780820191505090505b5090507f300000000000000000000000000000000000000000000000000000000000000081600081518110612b2c57612b2b6142e8565b5b60200101907effffffffffffffffffffffffffffffffffffffffffffffffffffffffffffff1916908160001a9053507f780000000000000000000000000000000000000000000000000000000000000081600181518110612b9057612b8f6142e8565b5b60200101907effffffffffffffffffffffffffffffffffffffffffffffffffffffffffffff1916908160001a90535060006001846002612bd0919061428e565b612bda9190613bd8565b90505b6001811115612c7a577f3031323334353637383961626364656600000000000000000000000000000000600f861660108110612c1c57612c1b6142e8565b5b1a60f81b828281518110612c3357612c326142e8565b5b60200101907effffffffffffffffffffffffffffffffffffffffffffffffffffffffffffff1916908160001a905350600485901c945080612c7390614317565b9050612bdd565b5060008414612cbe576040517f08c379a0000000000000000000000000000000000000000000000000000000008152600401612cb59061438d565b60405180910390fd5b8091505092915050565b505050565b60008083600101600084815260200190815260200160002054905060008114612dcd576000600182612cff9190613904565b9050600060018660000180549050612d179190613904565b90506000866000018281548110612d3157612d306142e8565b5b9060005260206000200154905080876000018481548110612d5557612d546142e8565b5b9060005260206000200181905550838760010160008381526020019081526020016000208190555086600001805480612d9157612d906143ad565b5b60019003818190600052602060002001600090559055866001016000878152602001908152602001600020600090556001945050505050612dd3565b60009150505b92915050565b6000612de58383612a69565b612e3e578260000182908060018154018082558091505060019003906000526020600020016000909190919091505582600001805490508360010160008481526020019081526020016000208190555060019050612e43565b600090505b92915050565b6000604051905090565b600080fd5b600080fd5b60007fffffffff0000000000000000000000000000000000000000000000000000000082169050919050565b612e9281612e5d565b8114612e9d57600080fd5b50565b600081359050612eaf81612e89565b92915050565b600060208284031215612ecb57612eca612e53565b5b6000612ed984828501612ea0565b91505092915050565b60008115159050919050565b612ef781612ee2565b82525050565b6000602082019050612f126000830184612eee565b92915050565b600081519050919050565b600082825260208201905092915050565b60005b83811015612f52578082015181840152602081019050612f37565b83811115612f61576000848401525b50505050565b6000601f19601f8301169050919050565b6000612f8382612f18565b612f8d8185612f23565b9350612f9d818560208601612f34565b612fa681612f67565b840191505092915050565b60006020820190508181036000830152612fcb8184612f78565b905092915050565b600080fd5b600080fd5b7f4e487b7100000000000000000000000000000000000000000000000000000000600052604160045260246000fd5b61301582612f67565b810181811067ffffffffffffffff8211171561303457613033612fdd565b5b80604052505050565b6000613047612e49565b9050613053828261300c565b919050565b600067ffffffffffffffff82111561307357613072612fdd565b5b61307c82612f67565b9050602081019050919050565b82818337600083830152505050565b60006130ab6130a684613058565b61303d565b9050828152602081018484840111156130c7576130c6612fd8565b5b6130d2848285613089565b509392505050565b600082601f8301126130ef576130ee612fd3565b5b81356130ff848260208601613098565b91505092915050565b6000819050919050565b61311b81613108565b811461312657600080fd5b50565b60008135905061313881613112565b92915050565b6000806040838503121561315557613154612e53565b5b600083013567ffffffffffffffff81111561317357613172612e58565b5b61317f858286016130da565b925050602061319085828601613129565b9150509250929050565b600073ffffffffffffffffffffffffffffffffffffffff82169050919050565b60006131c58261319a565b9050919050565b6131d5816131ba565b81146131e057600080fd5b50565b6000813590506131f2816131cc565b92915050565b6000806040838503121561320f5761320e612e53565b5b600061321d858286016131e3565b925050602061322e85828601613129565b9150509250929050565b60008060006060848603121561325157613250612e53565b5b600084013567ffffffffffffffff81111561326f5761326e612e58565b5b61327b868287016130da565b935050602061328c86828701613129565b925050604061329d86828701613129565b9150509250925092565b6132b081613108565b82525050565b60006040820190506132cb60008301856132a7565b6132d860208301846132a7565b9392505050565b60006020820190506132f460008301846132a7565b92915050565b6000602082840312156133105761330f612e53565b5b600061331e84828501613129565b91505092915050565b6000806000606084860312156133405761333f612e53565b5b600061334e868287016131e3565b935050602061335f868287016131e3565b925050604061337086828701613129565b9150509250925092565b6000819050919050565b61338d8161337a565b811461339857600080fd5b50565b6000813590506133aa81613384565b92915050565b6000602082840312156133c6576133c5612e53565b5b60006133d48482850161339b565b91505092915050565b6133e68161337a565b82525050565b600060208201905061340160008301846133dd565b92915050565b6000806040838503121561341e5761341d612e53565b5b600083013567ffffffffffffffff81111561343c5761343b612e58565b5b613448858286016130da565b9250506020613459858286016131e3565b9150509250929050565b6000806040838503121561347a57613479612e53565b5b60006134888582860161339b565b9250506020613499858286016131e3565b9150509250929050565b600060ff82169050919050565b6134b9816134a3565b82525050565b60006020820190506134d460008301846134b0565b92915050565b600080604083850312156134f1576134f0612e53565b5b60006134ff8582860161339b565b925050602061351085828601613129565b9150509250929050565b6000819050919050565b600061353f61353a6135358461319a565b61351a565b61319a565b9050919050565b600061355182613524565b9050919050565b600061356382613546565b9050919050565b61357381613558565b82525050565b600060208201905061358e600083018461356a565b92915050565b6000602082840312156135aa576135a9612e53565b5b600082013567ffffffffffffffff8111156135c8576135c7612e58565b5b6135d4848285016130da565b91505092915050565b60006135e88261319a565b9050919050565b6135f8816135dd565b811461360357600080fd5b50565b600081359050613615816135ef565b92915050565b60008060006060848603121561363457613633612e53565b5b600084013567ffffffffffffffff81111561365257613651612e58565b5b61365e868287016130da565b935050602061366f86828701613129565b925050604061368086828701613606565b9150509250925092565b6000602082840312156136a05761369f612e53565b5b60006136ae848285016131e3565b91505092915050565b6136c0816131ba565b82525050565b60006020820190506136db60008301846136b7565b92915050565b60006136ec82613524565b9050919050565b60006136fe826136e1565b9050919050565b61370e816136f3565b82525050565b60006020820190506137296000830184613705565b92915050565b6000806040838503121561374657613745612e53565b5b6000613754858286016131e3565b9250506020613765858286016131e3565b9150509250929050565b7f4e487b7100000000000000000000000000000000000000000000000000000000600052602260045260246000fd5b600060028204905060018216806137b657607f821691505b602082108114156137ca576137c961376f565b5b50919050565b600081905092915050565b50565b60006137eb6000836137d0565b91506137f6826137db565b600082019050919050565b600061380c826137de565b9150819050919050565b7f466565207061796d656e74206661696c65642e00000000000000000000000000600082015250565b600061384c601383612f23565b915061385782613816565b602082019050919050565b6000602082019050818103600083015261387b8161383f565b9050919050565b600081905092915050565b600061389882612f18565b6138a28185613882565b93506138b2818560208601612f34565b80840191505092915050565b60006138ca828461388d565b915081905092915050565b7f4e487b7100000000000000000000000000000000000000000000000000000000600052601160045260246000fd5b600061390f82613108565b915061391a83613108565b92508282101561392d5761392c6138d5565b5b828203905092915050565b600060408201905061394d60008301856136b7565b61395a60208301846132a7565b9392505050565b600060808201905061397660008301876136b7565b61398360208301866132a7565b61399060408301856132a7565b61399d60608301846132a7565b95945050505050565b6000815190506139b581613112565b92915050565b6000806000606084860312156139d4576139d3612e53565b5b60006139e2868287016139a6565b93505060206139f3868287016139a6565b9250506040613a04868287016139a6565b9150509250925092565b600060208284031215613a2457613a23612e53565b5b6000613a32848285016139a6565b91505092915050565b6000606082019050613a5060008301866132a7565b613a5d60208301856132a7565b613a6a60408301846132a7565b949350505050565b7f45524332303a207472616e7366657220616d6f756e742065786365656473206160008201527f6c6c6f77616e6365000000000000000000000000000000000000000000000000602082015250565b6000613ace602883612f23565b9150613ad982613a72565b604082019050919050565b60006020820190508181036000830152613afd81613ac1565b9050919050565b600081519050613b1381613384565b92915050565b600060208284031215613b2f57613b2e612e53565b5b6000613b3d84828501613b04565b91505092915050565b7f416363657373436f6e74726f6c3a2063616e206f6e6c792072656e6f756e636560008201527f20726f6c657320666f722073656c660000000000000000000000000000000000602082015250565b6000613ba2602f83612f23565b9150613bad82613b46565b604082019050919050565b60006020820190508181036000830152613bd181613b95565b9050919050565b6000613be382613108565b9150613bee83613108565b9250827fffffffffffffffffffffffffffffffffffffffffffffffffffffffffffffffff03821115613c2357613c226138d5565b5b828201905092915050565b613c37816134a3565b8114613c4257600080fd5b50565b600081519050613c5481613c2e565b92915050565b600060208284031215613c7057613c6f612e53565b5b6000613c7e84828501613c45565b91505092915050565b6000613c92826136e1565b9050919050565b613ca281613c87565b82525050565b60006060820190508181036000830152613cc28186612f78565b9050613cd160208301856132a7565b613cde6040830184613c99565b949350505050565b7f4f776e61626c653a2063616c6c6572206973206e6f7420746865206f776e6572600082015250565b6000613d1c602083612f23565b9150613d2782613ce6565b602082019050919050565b60006020820190508181036000830152613d4b81613d0f565b9050919050565b7f45524332303a2064656372656173656420616c6c6f77616e63652062656c6f7760008201527f207a65726f000000000000000000000000000000000000000000000000000000602082015250565b6000613dae602583612f23565b9150613db982613d52565b604082019050919050565b60006020820190508181036000830152613ddd81613da1565b9050919050565b7f5769746864726177616c206661696c65642e0000000000000000000000000000600082015250565b6000613e1a601283612f23565b9150613e2582613de4565b602082019050919050565b60006020820190508181036000830152613e4981613e0d565b9050919050565b7f4f776e61626c653a206e6577206f776e657220697320746865207a65726f206160008201527f6464726573730000000000000000000000000000000000000000000000000000602082015250565b6000613eac602683612f23565b9150613eb782613e50565b604082019050919050565b60006020820190508181036000830152613edb81613e9f565b9050919050565b7f45524332303a20617070726f76652066726f6d20746865207a65726f2061646460008201527f7265737300000000000000000000000000000000000000000000000000000000602082015250565b6000613f3e602483612f23565b9150613f4982613ee2565b604082019050919050565b60006020820190508181036000830152613f6d81613f31565b9050919050565b7f45524332303a20617070726f766520746f20746865207a65726f20616464726560008201527f7373000000000000000000000000000000000000000000000000000000000000602082015250565b6000613fd0602283612f23565b9150613fdb82613f74565b604082019050919050565b60006020820190508181036000830152613fff81613fc3565b9050919050565b7f416363657373436f6e74726f6c3a206163636f756e7420000000000000000000600082015250565b600061403c601783613882565b915061404782614006565b601782019050919050565b7f206973206d697373696e6720726f6c6520000000000000000000000000000000600082015250565b6000614088601183613882565b915061409382614052565b601182019050919050565b60006140a98261402f565b91506140b5828561388d565b91506140c08261407b565b91506140cc828461388d565b91508190509392505050565b7f45524332303a207472616e736665722066726f6d20746865207a65726f20616460008201527f6472657373000000000000000000000000000000000000000000000000000000602082015250565b6000614134602583612f23565b915061413f826140d8565b604082019050919050565b6000602082019050818103600083015261416381614127565b9050919050565b7f45524332303a207472616e7366657220746f20746865207a65726f206164647260008201527f6573730000000000000000000000000000000000000000000000000000000000602082015250565b60006141c6602383612f23565b91506141d18261416a565b604082019050919050565b600060208201905081810360008301526141f5816141b9565b9050919050565b7f45524332303a207472616e7366657220616d6f756e742065786365656473206260008201527f616c616e63650000000000000000000000000000000000000000000000000000602082015250565b6000614258602683612f23565b9150614263826141fc565b604082019050919050565b600060208201905081810360008301526142878161424b565b9050919050565b600061429982613108565b91506142a483613108565b9250817fffffffffffffffffffffffffffffffffffffffffffffffffffffffffffffffff04831182151516156142dd576142dc6138d5565b5b828202905092915050565b7f4e487b7100000000000000000000000000000000000000000000000000000000600052603260045260246000fd5b600061432282613108565b91506000821415614336576143356138d5565b5b600182039050919050565b7f537472696e67733a20686578206c656e67746820696e73756666696369656e74600082015250565b6000614377602083612f23565b915061438282614341565b602082019050919050565b600060208201905081810360008301526143a68161436a565b9050919050565b7f4e487b7100000000000000000000000000000000000000000000000000000000600052603160045260246000fdfea2646970667358221220b07a58ae4825381fb5a86cd30b77378652177d343bf330d0f93e1fcf8b1e152864736f6c63430008090033",
  "immutableReferences": {},
  "source": "// SPDX-License-Identifier: MIT\n\npragma solidity 0.8.9;\n\nimport \"./VolatilityToken.sol\";\nimport \"./VolatilityChain.sol\";\nimport \"./FullMath.sol\";\n\nimport \"@openzeppelin/contracts/access/Ownable.sol\";\nimport \"@openzeppelin/contracts/token/ERC20/ERC20.sol\";\nimport \"@openzeppelin/contracts/utils/math/Math.sol\";\nimport \"@openzeppelin/contracts/access/AccessControl.sol\";\nimport \"@openzeppelin/contracts/utils/structs/EnumerableSet.sol\";\n\n\ncontract GovernanceToken is ERC20, Ownable, AccessControl\n{\n  using EnumerableSet for EnumerableSet.UintSet;\n  using EnumerableSet for EnumerableSet.Bytes32Set;\n\n  address payable governanceAddr;\n    bytes32 public constant ADMIN_ROLE = keccak256(\"ADMIN_ROLE\");\n\n  EnumerableSet.Bytes32Set  tokenHashSet;\n  EnumerableSet.UintSet  tenors;\n  mapping(bytes32=> VolatilityChain) public volChainList;\n  mapping(bytes32=>mapping(uint256=>VolatilityToken)) public volTokensList;\n\n  mapping(bytes32=>uint8) decimalList;\n\n    uint256 public constant pctDenominator = 10 ** 6;\n    uint256 public governanceFees = 10000;\n    uint256 public loanFees = 200000;\n    uint256 public loanDayBase = 31536000;\n\n    constructor(\n        string memory _name,\n        string memory _symbol) ERC20(_name, _symbol)\n    {\n        governanceAddr = payable(address(this));\n\n        _mint(governanceAddr, 10 ** (18+10)); // 10 billion total supply.\n        _setupRole(ADMIN_ROLE, msg.sender);\n    }\n\n    function getVolatilityQuote(string memory _underlying, uint256 _tenor, uint256 _volAmount) public view returns(uint256, uint256)\n{\n    bytes32 _underlyingHash = keccak256(abi.encodePacked(_underlying));\n    require(tokenHashSet.contains(_underlyingHash));\n        require(tenors.contains(_tenor));\n        (uint256 _price,,) = volChainList[_underlyingHash].queryPrice();\n        uint256 _volatility = volChainList[_underlyingHash].getVol(_tenor);\n\n        uint256 _quote = volTokensList[_underlyingHash][_tenor].calculateMintValue(_volAmount, _price, _volatility);\n\n        return (_quote, MulDiv(_quote, governanceFees, pctDenominator));\n}\n\n    function getVolatilityAmount(string memory _underlying, uint256 _tenor, uint256 _ethAmount) public view returns(uint256, uint256)\n    {\n        bytes32 _underlyingHash = keccak256(abi.encodePacked(_underlying));\n        require(tokenHashSet.contains(_underlyingHash));\n        require(tenors.contains(_tenor));\n\n        (uint256 _price,,) = volChainList[_underlyingHash].queryPrice();\n        uint256 _volatility = volChainList[_underlyingHash].getVol(_tenor);\n\n        uint256 _amount = MulDiv(volTokensList[_underlyingHash][_tenor].calculateMintableAmount(_ethAmount, _price, _volatility), pctDenominator, governanceFees + pctDenominator);\n        uint256 _fee = MulDiv(_ethAmount, governanceFees, governanceFees + pctDenominator);\n\n        return (_amount, _fee);\n    }\n\n    function purchaseVolatilityToken(string memory _underlying, uint256 _tenor) external payable {\n        (uint256 _volTokenAmount, uint256 _fee) = getVolatilityAmount(_underlying, _tenor, msg.value);\n        // require(msg.value > _fee);\n\n        (bool _sentFee, ) = governanceAddr.call{value: msg.value}(\"\");\n        require(_sentFee, \"Fee payment failed.\");\n\n        bytes32 _underlyingHash = keccak256(abi.encodePacked(_underlying));\n        volTokensList[_underlyingHash][_tenor].mint{value: msg.value - _fee}(msg.sender, _volTokenAmount);\n\n        emit volatilityTokenPurchased(msg.sender, _volTokenAmount,  msg.value,  _fee);\n    }\n\n    function addVolChain(string memory _underlying, address _volChainAddress) external onlyRole(ADMIN_ROLE){\n        bytes32 _underlyingHash = keccak256(abi.encodePacked(_underlying));\n\n        if(!tokenHashSet.contains(_underlyingHash))\n        {\n            tokenHashSet.add(_underlyingHash);\n        }\n        require(_underlyingHash==VolatilityChain(_volChainAddress).tokenHash());\n        volChainList[_underlyingHash] = VolatilityChain(_volChainAddress);\n    }\n\n    function addVolToken(string memory  _underlying, uint256 _tenor, address payable _tokenAddress) external onlyRole(ADMIN_ROLE)\n    {\n        bytes32 _underlyingHash = keccak256(abi.encodePacked(_underlying));\n        if(!tokenHashSet.contains(_underlyingHash)){\n            tokenHashSet.add(_underlyingHash);\n        }\n        if(!tenors.contains(_tenor)){\n            tenors.add(_tenor);\n        }\n        /* require(_underlyingHash==VolatilityToken(_tokenAddress).descriptionHash()); */\n        volTokensList[_underlyingHash][_tenor] = VolatilityToken(_tokenAddress);\n        decimalList[_underlyingHash] = volTokensList[_underlyingHash][_tenor].decimals();\n\n        emit newVolatilityToken(_underlying, _tenor, _tokenAddress);\n    }\n\n    function removeTenor(uint256 _tenor) external onlyRole(ADMIN_ROLE) {\n        require(tenors.contains(_tenor));\n        tenors.remove( _tenor);\n    }\n\n    function hasVolToken(string memory  _underlying) external view returns(bool)\n    {\n        return tokenHashSet.contains(keccak256(abi.encodePacked(_underlying)));\n    }\n\n    function resetGovernanceFees(uint256 _fee) external onlyRole(ADMIN_ROLE){\n        governanceFees = _fee;\n        emit newGovernanceFees(_fee);\n    }\n\n    function sweepBalance() external onlyOwner{\n        uint256 _amount = address(this).balance;\n        (bool _sent, ) = payable(msg.sender).call{value: _amount}(\"\");\n        require(_sent, \"Withdrawal failed.\");\n        emit cashSweep(_amount);\n    }\n\n    receive() external payable{}\n\n    event newGovernanceFees(uint256 _fee);\n    event newVolatilityToken(string  _underlying, uint256 _tenor, address _tokenAddress);\n    event cashSweep(uint256 _amount);\n    event volatilityTokenPurchased(address _buyer, uint256 _amout, uint256 _cost, uint256 _fee);\n\n}\n",
  "sourcePath": "/Users/mac/Documents/GitHub/moret/contracts/GovernanceToken.sol",
  "compiler": {
    "name": "solc",
    "version": "0.8.9+commit.e5eed63a.Emscripten.clang"
  },
  "schemaVersion": "3.4.3",
  "updatedAt": "2021-10-26T23:07:52.566Z",
  "devdoc": {
    "kind": "dev",
    "methods": {
      "allowance(address,address)": {
        "details": "See {IERC20-allowance}."
      },
      "approve(address,uint256)": {
        "details": "See {IERC20-approve}. Requirements: - `spender` cannot be the zero address."
      },
      "balanceOf(address)": {
        "details": "See {IERC20-balanceOf}."
      },
      "decimals()": {
        "details": "Returns the number of decimals used to get its user representation. For example, if `decimals` equals `2`, a balance of `505` tokens should be displayed to a user as `5,05` (`505 / 10 ** 2`). Tokens usually opt for a value of 18, imitating the relationship between Ether and Wei. This is the value {ERC20} uses, unless this function is overridden; NOTE: This information is only used for _display_ purposes: it in no way affects any of the arithmetic of the contract, including {IERC20-balanceOf} and {IERC20-transfer}."
      },
      "decreaseAllowance(address,uint256)": {
        "details": "Atomically decreases the allowance granted to `spender` by the caller. This is an alternative to {approve} that can be used as a mitigation for problems described in {IERC20-approve}. Emits an {Approval} event indicating the updated allowance. Requirements: - `spender` cannot be the zero address. - `spender` must have allowance for the caller of at least `subtractedValue`."
      },
      "getRoleAdmin(bytes32)": {
        "details": "Returns the admin role that controls `role`. See {grantRole} and {revokeRole}. To change a role's admin, use {_setRoleAdmin}."
      },
      "grantRole(bytes32,address)": {
        "details": "Grants `role` to `account`. If `account` had not been already granted `role`, emits a {RoleGranted} event. Requirements: - the caller must have ``role``'s admin role."
      },
      "hasRole(bytes32,address)": {
        "details": "Returns `true` if `account` has been granted `role`."
      },
      "increaseAllowance(address,uint256)": {
        "details": "Atomically increases the allowance granted to `spender` by the caller. This is an alternative to {approve} that can be used as a mitigation for problems described in {IERC20-approve}. Emits an {Approval} event indicating the updated allowance. Requirements: - `spender` cannot be the zero address."
      },
      "name()": {
        "details": "Returns the name of the token."
      },
      "owner()": {
        "details": "Returns the address of the current owner."
      },
      "renounceOwnership()": {
        "details": "Leaves the contract without owner. It will not be possible to call `onlyOwner` functions anymore. Can only be called by the current owner. NOTE: Renouncing ownership will leave the contract without an owner, thereby removing any functionality that is only available to the owner."
      },
      "renounceRole(bytes32,address)": {
        "details": "Revokes `role` from the calling account. Roles are often managed via {grantRole} and {revokeRole}: this function's purpose is to provide a mechanism for accounts to lose their privileges if they are compromised (such as when a trusted device is misplaced). If the calling account had been granted `role`, emits a {RoleRevoked} event. Requirements: - the caller must be `account`."
      },
      "revokeRole(bytes32,address)": {
        "details": "Revokes `role` from `account`. If `account` had been granted `role`, emits a {RoleRevoked} event. Requirements: - the caller must have ``role``'s admin role."
      },
      "supportsInterface(bytes4)": {
        "details": "See {IERC165-supportsInterface}."
      },
      "symbol()": {
        "details": "Returns the symbol of the token, usually a shorter version of the name."
      },
      "totalSupply()": {
        "details": "See {IERC20-totalSupply}."
      },
      "transfer(address,uint256)": {
        "details": "See {IERC20-transfer}. Requirements: - `recipient` cannot be the zero address. - the caller must have a balance of at least `amount`."
      },
      "transferFrom(address,address,uint256)": {
        "details": "See {IERC20-transferFrom}. Emits an {Approval} event indicating the updated allowance. This is not required by the EIP. See the note at the beginning of {ERC20}. Requirements: - `sender` and `recipient` cannot be the zero address. - `sender` must have a balance of at least `amount`. - the caller must have allowance for ``sender``'s tokens of at least `amount`."
      },
      "transferOwnership(address)": {
        "details": "Transfers ownership of the contract to a new account (`newOwner`). Can only be called by the current owner."
      }
    },
    "version": 1
  },
  "userdoc": {
    "kind": "user",
    "methods": {},
    "version": 1
  }
}