{
  "contractName": "GovernanceToken",
  "abi": [
    {
      "inputs": [
        {
          "internalType": "string",
          "name": "_name",
          "type": "string"
        },
        {
          "internalType": "string",
          "name": "_symbol",
          "type": "string"
        }
      ],
      "stateMutability": "nonpayable",
      "type": "constructor"
    },
    {
      "anonymous": false,
      "inputs": [
        {
          "indexed": true,
          "internalType": "address",
          "name": "owner",
          "type": "address"
        },
        {
          "indexed": true,
          "internalType": "address",
          "name": "spender",
          "type": "address"
        },
        {
          "indexed": false,
          "internalType": "uint256",
          "name": "value",
          "type": "uint256"
        }
      ],
      "name": "Approval",
      "type": "event"
    },
    {
      "anonymous": false,
      "inputs": [
        {
          "indexed": true,
          "internalType": "address",
          "name": "previousOwner",
          "type": "address"
        },
        {
          "indexed": true,
          "internalType": "address",
          "name": "newOwner",
          "type": "address"
        }
      ],
      "name": "OwnershipTransferred",
      "type": "event"
    },
    {
      "anonymous": false,
      "inputs": [
        {
          "indexed": true,
          "internalType": "bytes32",
          "name": "role",
          "type": "bytes32"
        },
        {
          "indexed": true,
          "internalType": "bytes32",
          "name": "previousAdminRole",
          "type": "bytes32"
        },
        {
          "indexed": true,
          "internalType": "bytes32",
          "name": "newAdminRole",
          "type": "bytes32"
        }
      ],
      "name": "RoleAdminChanged",
      "type": "event"
    },
    {
      "anonymous": false,
      "inputs": [
        {
          "indexed": true,
          "internalType": "bytes32",
          "name": "role",
          "type": "bytes32"
        },
        {
          "indexed": true,
          "internalType": "address",
          "name": "account",
          "type": "address"
        },
        {
          "indexed": true,
          "internalType": "address",
          "name": "sender",
          "type": "address"
        }
      ],
      "name": "RoleGranted",
      "type": "event"
    },
    {
      "anonymous": false,
      "inputs": [
        {
          "indexed": true,
          "internalType": "bytes32",
          "name": "role",
          "type": "bytes32"
        },
        {
          "indexed": true,
          "internalType": "address",
          "name": "account",
          "type": "address"
        },
        {
          "indexed": true,
          "internalType": "address",
          "name": "sender",
          "type": "address"
        }
      ],
      "name": "RoleRevoked",
      "type": "event"
    },
    {
      "anonymous": false,
      "inputs": [
        {
          "indexed": true,
          "internalType": "address",
          "name": "from",
          "type": "address"
        },
        {
          "indexed": true,
          "internalType": "address",
          "name": "to",
          "type": "address"
        },
        {
          "indexed": false,
          "internalType": "uint256",
          "name": "value",
          "type": "uint256"
        }
      ],
      "name": "Transfer",
      "type": "event"
    },
    {
      "anonymous": false,
      "inputs": [
        {
          "indexed": false,
          "internalType": "uint256",
          "name": "_amount",
          "type": "uint256"
        }
      ],
      "name": "cashSweep",
      "type": "event"
    },
    {
      "anonymous": false,
      "inputs": [
        {
          "indexed": false,
          "internalType": "uint256",
          "name": "_fee",
          "type": "uint256"
        }
      ],
      "name": "newGovernanceFees",
      "type": "event"
    },
    {
      "anonymous": false,
      "inputs": [
        {
          "indexed": false,
          "internalType": "string",
          "name": "_underlying",
          "type": "string"
        },
        {
          "indexed": false,
          "internalType": "uint256",
          "name": "_tenor",
          "type": "uint256"
        },
        {
          "indexed": false,
          "internalType": "address",
          "name": "_tokenAddress",
          "type": "address"
        }
      ],
      "name": "newVolatilityToken",
      "type": "event"
    },
    {
      "anonymous": false,
      "inputs": [
        {
          "indexed": false,
          "internalType": "address",
          "name": "_buyer",
          "type": "address"
        },
        {
          "indexed": false,
          "internalType": "uint256",
          "name": "_amout",
          "type": "uint256"
        },
        {
          "indexed": false,
          "internalType": "uint256",
          "name": "_cost",
          "type": "uint256"
        },
        {
          "indexed": false,
          "internalType": "uint256",
          "name": "_fee",
          "type": "uint256"
        }
      ],
      "name": "volatilityTokenPurchased",
      "type": "event"
    },
    {
      "inputs": [],
      "name": "ADMIN_ROLE",
      "outputs": [
        {
          "internalType": "bytes32",
          "name": "",
          "type": "bytes32"
        }
      ],
      "stateMutability": "view",
      "type": "function"
    },
    {
      "inputs": [],
      "name": "DEFAULT_ADMIN_ROLE",
      "outputs": [
        {
          "internalType": "bytes32",
          "name": "",
          "type": "bytes32"
        }
      ],
      "stateMutability": "view",
      "type": "function"
    },
    {
      "inputs": [
        {
          "internalType": "address",
          "name": "owner",
          "type": "address"
        },
        {
          "internalType": "address",
          "name": "spender",
          "type": "address"
        }
      ],
      "name": "allowance",
      "outputs": [
        {
          "internalType": "uint256",
          "name": "",
          "type": "uint256"
        }
      ],
      "stateMutability": "view",
      "type": "function"
    },
    {
      "inputs": [
        {
          "internalType": "address",
          "name": "spender",
          "type": "address"
        },
        {
          "internalType": "uint256",
          "name": "amount",
          "type": "uint256"
        }
      ],
      "name": "approve",
      "outputs": [
        {
          "internalType": "bool",
          "name": "",
          "type": "bool"
        }
      ],
      "stateMutability": "nonpayable",
      "type": "function"
    },
    {
      "inputs": [
        {
          "internalType": "address",
          "name": "account",
          "type": "address"
        }
      ],
      "name": "balanceOf",
      "outputs": [
        {
          "internalType": "uint256",
          "name": "",
          "type": "uint256"
        }
      ],
      "stateMutability": "view",
      "type": "function"
    },
    {
      "inputs": [],
      "name": "decimals",
      "outputs": [
        {
          "internalType": "uint8",
          "name": "",
          "type": "uint8"
        }
      ],
      "stateMutability": "view",
      "type": "function"
    },
    {
      "inputs": [
        {
          "internalType": "address",
          "name": "spender",
          "type": "address"
        },
        {
          "internalType": "uint256",
          "name": "subtractedValue",
          "type": "uint256"
        }
      ],
      "name": "decreaseAllowance",
      "outputs": [
        {
          "internalType": "bool",
          "name": "",
          "type": "bool"
        }
      ],
      "stateMutability": "nonpayable",
      "type": "function"
    },
    {
      "inputs": [
        {
          "internalType": "bytes32",
          "name": "role",
          "type": "bytes32"
        }
      ],
      "name": "getRoleAdmin",
      "outputs": [
        {
          "internalType": "bytes32",
          "name": "",
          "type": "bytes32"
        }
      ],
      "stateMutability": "view",
      "type": "function"
    },
    {
      "inputs": [],
      "name": "governanceFees",
      "outputs": [
        {
          "internalType": "uint256",
          "name": "",
          "type": "uint256"
        }
      ],
      "stateMutability": "view",
      "type": "function"
    },
    {
      "inputs": [
        {
          "internalType": "bytes32",
          "name": "role",
          "type": "bytes32"
        },
        {
          "internalType": "address",
          "name": "account",
          "type": "address"
        }
      ],
      "name": "grantRole",
      "outputs": [],
      "stateMutability": "nonpayable",
      "type": "function"
    },
    {
      "inputs": [
        {
          "internalType": "bytes32",
          "name": "role",
          "type": "bytes32"
        },
        {
          "internalType": "address",
          "name": "account",
          "type": "address"
        }
      ],
      "name": "hasRole",
      "outputs": [
        {
          "internalType": "bool",
          "name": "",
          "type": "bool"
        }
      ],
      "stateMutability": "view",
      "type": "function"
    },
    {
      "inputs": [
        {
          "internalType": "address",
          "name": "spender",
          "type": "address"
        },
        {
          "internalType": "uint256",
          "name": "addedValue",
          "type": "uint256"
        }
      ],
      "name": "increaseAllowance",
      "outputs": [
        {
          "internalType": "bool",
          "name": "",
          "type": "bool"
        }
      ],
      "stateMutability": "nonpayable",
      "type": "function"
    },
    {
      "inputs": [],
      "name": "loanDayBase",
      "outputs": [
        {
          "internalType": "uint256",
          "name": "",
          "type": "uint256"
        }
      ],
      "stateMutability": "view",
      "type": "function"
    },
    {
      "inputs": [],
      "name": "loanFees",
      "outputs": [
        {
          "internalType": "uint256",
          "name": "",
          "type": "uint256"
        }
      ],
      "stateMutability": "view",
      "type": "function"
    },
    {
      "inputs": [],
      "name": "name",
      "outputs": [
        {
          "internalType": "string",
          "name": "",
          "type": "string"
        }
      ],
      "stateMutability": "view",
      "type": "function"
    },
    {
      "inputs": [],
      "name": "owner",
      "outputs": [
        {
          "internalType": "address",
          "name": "",
          "type": "address"
        }
      ],
      "stateMutability": "view",
      "type": "function"
    },
    {
      "inputs": [],
      "name": "pctDenominator",
      "outputs": [
        {
          "internalType": "uint256",
          "name": "",
          "type": "uint256"
        }
      ],
      "stateMutability": "view",
      "type": "function"
    },
    {
      "inputs": [],
      "name": "renounceOwnership",
      "outputs": [],
      "stateMutability": "nonpayable",
      "type": "function"
    },
    {
      "inputs": [
        {
          "internalType": "bytes32",
          "name": "role",
          "type": "bytes32"
        },
        {
          "internalType": "address",
          "name": "account",
          "type": "address"
        }
      ],
      "name": "renounceRole",
      "outputs": [],
      "stateMutability": "nonpayable",
      "type": "function"
    },
    {
      "inputs": [
        {
          "internalType": "bytes32",
          "name": "role",
          "type": "bytes32"
        },
        {
          "internalType": "address",
          "name": "account",
          "type": "address"
        }
      ],
      "name": "revokeRole",
      "outputs": [],
      "stateMutability": "nonpayable",
      "type": "function"
    },
    {
      "inputs": [
        {
          "internalType": "bytes4",
          "name": "interfaceId",
          "type": "bytes4"
        }
      ],
      "name": "supportsInterface",
      "outputs": [
        {
          "internalType": "bool",
          "name": "",
          "type": "bool"
        }
      ],
      "stateMutability": "view",
      "type": "function"
    },
    {
      "inputs": [],
      "name": "symbol",
      "outputs": [
        {
          "internalType": "string",
          "name": "",
          "type": "string"
        }
      ],
      "stateMutability": "view",
      "type": "function"
    },
    {
      "inputs": [],
      "name": "totalSupply",
      "outputs": [
        {
          "internalType": "uint256",
          "name": "",
          "type": "uint256"
        }
      ],
      "stateMutability": "view",
      "type": "function"
    },
    {
      "inputs": [
        {
          "internalType": "address",
          "name": "recipient",
          "type": "address"
        },
        {
          "internalType": "uint256",
          "name": "amount",
          "type": "uint256"
        }
      ],
      "name": "transfer",
      "outputs": [
        {
          "internalType": "bool",
          "name": "",
          "type": "bool"
        }
      ],
      "stateMutability": "nonpayable",
      "type": "function"
    },
    {
      "inputs": [
        {
          "internalType": "address",
          "name": "sender",
          "type": "address"
        },
        {
          "internalType": "address",
          "name": "recipient",
          "type": "address"
        },
        {
          "internalType": "uint256",
          "name": "amount",
          "type": "uint256"
        }
      ],
      "name": "transferFrom",
      "outputs": [
        {
          "internalType": "bool",
          "name": "",
          "type": "bool"
        }
      ],
      "stateMutability": "nonpayable",
      "type": "function"
    },
    {
      "inputs": [
        {
          "internalType": "address",
          "name": "newOwner",
          "type": "address"
        }
      ],
      "name": "transferOwnership",
      "outputs": [],
      "stateMutability": "nonpayable",
      "type": "function"
    },
    {
      "inputs": [
        {
          "internalType": "bytes32",
          "name": "",
          "type": "bytes32"
        }
      ],
      "name": "volChainList",
      "outputs": [
        {
          "internalType": "contract VolatilityChain",
          "name": "",
          "type": "address"
        }
      ],
      "stateMutability": "view",
      "type": "function"
    },
    {
      "inputs": [
        {
          "internalType": "bytes32",
          "name": "",
          "type": "bytes32"
        },
        {
          "internalType": "uint256",
          "name": "",
          "type": "uint256"
        }
      ],
      "name": "volTokensList",
      "outputs": [
        {
          "internalType": "contract VolatilityToken",
          "name": "",
          "type": "address"
        }
      ],
      "stateMutability": "view",
      "type": "function"
    },
    {
      "stateMutability": "payable",
      "type": "receive"
    },
    {
      "inputs": [
        {
          "internalType": "string",
          "name": "_underlying",
          "type": "string"
        },
        {
          "internalType": "uint256",
          "name": "_tenor",
          "type": "uint256"
        },
        {
          "internalType": "uint256",
          "name": "_volAmount",
          "type": "uint256"
        }
      ],
      "name": "getVolatilityQuote",
      "outputs": [
        {
          "internalType": "uint256",
          "name": "",
          "type": "uint256"
        },
        {
          "internalType": "uint256",
          "name": "",
          "type": "uint256"
        }
      ],
      "stateMutability": "view",
      "type": "function"
    },
    {
      "inputs": [
        {
          "internalType": "string",
          "name": "_underlying",
          "type": "string"
        },
        {
          "internalType": "uint256",
          "name": "_tenor",
          "type": "uint256"
        },
        {
          "internalType": "uint256",
          "name": "_ethAmount",
          "type": "uint256"
        }
      ],
      "name": "getVolatilityAmount",
      "outputs": [
        {
          "internalType": "uint256",
          "name": "",
          "type": "uint256"
        },
        {
          "internalType": "uint256",
          "name": "",
          "type": "uint256"
        }
      ],
      "stateMutability": "view",
      "type": "function"
    },
    {
      "inputs": [
        {
          "internalType": "string",
          "name": "_underlying",
          "type": "string"
        },
        {
          "internalType": "uint256",
          "name": "_tenor",
          "type": "uint256"
        }
      ],
      "name": "purchaseVolatilityToken",
      "outputs": [],
      "stateMutability": "payable",
      "type": "function"
    },
    {
      "inputs": [
        {
          "internalType": "string",
          "name": "_underlying",
          "type": "string"
        },
        {
          "internalType": "address",
          "name": "_volChainAddress",
          "type": "address"
        }
      ],
      "name": "addVolChain",
      "outputs": [],
      "stateMutability": "nonpayable",
      "type": "function"
    },
    {
      "inputs": [
        {
          "internalType": "string",
          "name": "_underlying",
          "type": "string"
        },
        {
          "internalType": "uint256",
          "name": "_tenor",
          "type": "uint256"
        },
        {
          "internalType": "address payable",
          "name": "_tokenAddress",
          "type": "address"
        }
      ],
      "name": "addVolToken",
      "outputs": [],
      "stateMutability": "nonpayable",
      "type": "function"
    },
    {
      "inputs": [
        {
          "internalType": "uint256",
          "name": "_tenor",
          "type": "uint256"
        }
      ],
      "name": "removeTenor",
      "outputs": [],
      "stateMutability": "nonpayable",
      "type": "function"
    },
    {
      "inputs": [
        {
          "internalType": "string",
          "name": "_underlying",
          "type": "string"
        }
      ],
      "name": "hasVolToken",
      "outputs": [
        {
          "internalType": "bool",
          "name": "",
          "type": "bool"
        }
      ],
      "stateMutability": "view",
      "type": "function"
    },
    {
      "inputs": [
        {
          "internalType": "uint256",
          "name": "_fee",
          "type": "uint256"
        }
      ],
      "name": "resetGovernanceFees",
      "outputs": [],
      "stateMutability": "nonpayable",
      "type": "function"
    },
    {
      "inputs": [],
      "name": "sweepBalance",
      "outputs": [],
      "stateMutability": "nonpayable",
      "type": "function"
    }
  ],
  "bytecode": "0x6080604052612710600f5562030d406010556301e133806011553480156200002657600080fd5b5060405162004d0438038062004d0483398181016040528101906200004c91906200076e565b818181600390805190602001906200006692919062000521565b5080600490805190602001906200007f92919062000521565b505050620000a2620000966200015d60201b60201c565b6200016560201b60201c565b30600760006101000a81548173ffffffffffffffffffffffffffffffffffffffff021916908373ffffffffffffffffffffffffffffffffffffffff16021790555062000123600760009054906101000a900473ffffffffffffffffffffffffffffffffffffffff166b204fce5e3e250261100000006200022b60201b60201c565b620001557fa49807205ce4d355092ef5a8a18f56e8913cf4a201fbe287825b095693c2177533620003a460201b60201c565b50506200099f565b600033905090565b6000600560009054906101000a900473ffffffffffffffffffffffffffffffffffffffff16905081600560006101000a81548173ffffffffffffffffffffffffffffffffffffffff021916908373ffffffffffffffffffffffffffffffffffffffff1602179055508173ffffffffffffffffffffffffffffffffffffffff168173ffffffffffffffffffffffffffffffffffffffff167f8be0079c531659141344cd1fd0a4f28419497f9722a3daafe3b4186f6b6457e060405160405180910390a35050565b600073ffffffffffffffffffffffffffffffffffffffff168273ffffffffffffffffffffffffffffffffffffffff1614156200029e576040517f08c379a0000000000000000000000000000000000000000000000000000000008152600401620002959062000854565b60405180910390fd5b620002b260008383620003ba60201b60201c565b8060026000828254620002c69190620008af565b92505081905550806000808473ffffffffffffffffffffffffffffffffffffffff1673ffffffffffffffffffffffffffffffffffffffff16815260200190815260200160002060008282546200031d9190620008af565b925050819055508173ffffffffffffffffffffffffffffffffffffffff16600073ffffffffffffffffffffffffffffffffffffffff167fddf252ad1be2c89b69c2b068fc378daa952ba7f163c4a11628f55a4df523b3ef836040516200038491906200091d565b60405180910390a3620003a060008383620003bf60201b60201c565b5050565b620003b68282620003c460201b60201c565b5050565b505050565b505050565b620003d68282620004b660201b60201c565b620004b25760016006600084815260200190815260200160002060000160008373ffffffffffffffffffffffffffffffffffffffff1673ffffffffffffffffffffffffffffffffffffffff16815260200190815260200160002060006101000a81548160ff021916908315150217905550620004576200015d60201b60201c565b73ffffffffffffffffffffffffffffffffffffffff168173ffffffffffffffffffffffffffffffffffffffff16837f2f8788117e7eff1d82e926ec794901d17c78024a50270940304540a733656f0d60405160405180910390a45b5050565b60006006600084815260200190815260200160002060000160008373ffffffffffffffffffffffffffffffffffffffff1673ffffffffffffffffffffffffffffffffffffffff16815260200190815260200160002060009054906101000a900460ff16905092915050565b8280546200052f9062000969565b90600052602060002090601f0160209004810192826200055357600085556200059f565b82601f106200056e57805160ff19168380011785556200059f565b828001600101855582156200059f579182015b828111156200059e57825182559160200191906001019062000581565b5b509050620005ae9190620005b2565b5090565b5b80821115620005cd576000816000905550600101620005b3565b5090565b6000604051905090565b600080fd5b600080fd5b600080fd5b600080fd5b6000601f19601f8301169050919050565b7f4e487b7100000000000000000000000000000000000000000000000000000000600052604160045260246000fd5b6200063a82620005ef565b810181811067ffffffffffffffff821117156200065c576200065b62000600565b5b80604052505050565b600062000671620005d1565b90506200067f82826200062f565b919050565b600067ffffffffffffffff821115620006a257620006a162000600565b5b620006ad82620005ef565b9050602081019050919050565b60005b83811015620006da578082015181840152602081019050620006bd565b83811115620006ea576000848401525b50505050565b600062000707620007018462000684565b62000665565b905082815260208101848484011115620007265762000725620005ea565b5b62000733848285620006ba565b509392505050565b600082601f830112620007535762000752620005e5565b5b815162000765848260208601620006f0565b91505092915050565b60008060408385031215620007885762000787620005db565b5b600083015167ffffffffffffffff811115620007a957620007a8620005e0565b5b620007b7858286016200073b565b925050602083015167ffffffffffffffff811115620007db57620007da620005e0565b5b620007e9858286016200073b565b9150509250929050565b600082825260208201905092915050565b7f45524332303a206d696e7420746f20746865207a65726f206164647265737300600082015250565b60006200083c601f83620007f3565b9150620008498262000804565b602082019050919050565b600060208201905081810360008301526200086f816200082d565b9050919050565b6000819050919050565b7f4e487b7100000000000000000000000000000000000000000000000000000000600052601160045260246000fd5b6000620008bc8262000876565b9150620008c98362000876565b9250827fffffffffffffffffffffffffffffffffffffffffffffffffffffffffffffffff0382111562000901576200090062000880565b5b828201905092915050565b620009178162000876565b82525050565b60006020820190506200093460008301846200090c565b92915050565b7f4e487b7100000000000000000000000000000000000000000000000000000000600052602260045260246000fd5b600060028204905060018216806200098257607f821691505b602082108114156200099957620009986200093a565b5b50919050565b61435580620009af6000396000f3fe60806040526004361061021e5760003560e01c80636708794a11610123578063a18dc75e116100ab578063d547741f1161006f578063d547741f14610845578063dd62ed3e1461086e578063e32059c1146108ab578063f2fde38b146108d6578063fd27195f146108ff57610225565b8063a18dc75e1461074c578063a217fddf14610789578063a457c2d7146107b4578063a9059cbb146107f1578063c3513f6d1461082e57610225565b80638da5cb5b116100f25780638da5cb5b1461065057806391d148541461067b578063921e9745146106b857806395d89b41146106f65780639dc56d941461072157610225565b80636708794a146105a857806370a08231146105d1578063715018a61461060e57806375b238fc1461062557610225565b8063248a9ca3116101a6578063313ce56711610175578063313ce5671461049d578063340462ed146104c857806336568abe14610505578063395093511461052e57806364879e411461056b57610225565b8063248a9ca3146103e5578063285f9457146104225780632e107efd1461044b5780632f2ff15d1461047457610225565b806314f35fb3116101ed57806314f35fb3146102eb57806318160ddd146103295780631e20ed2814610354578063216c24901461037d57806323b872dd146103a857610225565b806301ffc9a71461022a57806306fdde0314610267578063091152c714610292578063095ea7b3146102ae57610225565b3661022557005b600080fd5b34801561023657600080fd5b50610251600480360381019061024c9190612e0b565b61092a565b60405161025e9190612e53565b60405180910390f35b34801561027357600080fd5b5061027c6109a4565b6040516102899190612f07565b60405180910390f35b6102ac60048036038101906102a79190613094565b610a36565b005b3480156102ba57600080fd5b506102d560048036038101906102d0919061314e565b610c43565b6040516102e29190612e53565b60405180910390f35b3480156102f757600080fd5b50610312600480360381019061030d919061318e565b610c61565b60405161032092919061320c565b60405180910390f35b34801561033557600080fd5b5061033e610f34565b60405161034b9190613235565b60405180910390f35b34801561036057600080fd5b5061037b60048036038101906103769190613250565b610f3e565b005b34801561038957600080fd5b50610392610fb2565b60405161039f9190613235565b60405180910390f35b3480156103b457600080fd5b506103cf60048036038101906103ca919061327d565b610fb8565b6040516103dc9190612e53565b60405180910390f35b3480156103f157600080fd5b5061040c60048036038101906104079190613306565b6110b0565b6040516104199190613342565b60405180910390f35b34801561042e57600080fd5b5061044960048036038101906104449190613250565b6110d0565b005b34801561045757600080fd5b50610472600480360381019061046d919061335d565b611138565b005b34801561048057600080fd5b5061049b600480360381019061049691906133b9565b6112a4565b005b3480156104a957600080fd5b506104b26112cd565b6040516104bf9190613415565b60405180910390f35b3480156104d457600080fd5b506104ef60048036038101906104ea9190613430565b6112d6565b6040516104fc91906134cf565b60405180910390f35b34801561051157600080fd5b5061052c600480360381019061052791906133b9565b611318565b005b34801561053a57600080fd5b506105556004803603810190610550919061314e565b61139b565b6040516105629190612e53565b60405180910390f35b34801561057757600080fd5b50610592600480360381019061058d91906134ea565b611447565b60405161059f9190612e53565b60405180910390f35b3480156105b457600080fd5b506105cf60048036038101906105ca9190613571565b61148a565b005b3480156105dd57600080fd5b506105f860048036038101906105f391906135e0565b6116d5565b6040516106059190613235565b60405180910390f35b34801561061a57600080fd5b5061062361171d565b005b34801561063157600080fd5b5061063a6117a5565b6040516106479190613342565b60405180910390f35b34801561065c57600080fd5b506106656117c9565b604051610672919061361c565b60405180910390f35b34801561068757600080fd5b506106a2600480360381019061069d91906133b9565b6117f3565b6040516106af9190612e53565b60405180910390f35b3480156106c457600080fd5b506106df60048036038101906106da919061318e565b61185e565b6040516106ed92919061320c565b60405180910390f35b34801561070257600080fd5b5061070b611b5e565b6040516107189190612f07565b60405180910390f35b34801561072d57600080fd5b50610736611bf0565b6040516107439190613235565b60405180910390f35b34801561075857600080fd5b50610773600480360381019061076e9190613306565b611bf7565b604051610780919061366a565b60405180910390f35b34801561079557600080fd5b5061079e611c2a565b6040516107ab9190613342565b60405180910390f35b3480156107c057600080fd5b506107db60048036038101906107d6919061314e565b611c31565b6040516107e89190612e53565b60405180910390f35b3480156107fd57600080fd5b506108186004803603810190610813919061314e565b611d1c565b6040516108259190612e53565b60405180910390f35b34801561083a57600080fd5b50610843611d3a565b005b34801561085157600080fd5b5061086c600480360381019061086791906133b9565b611ea2565b005b34801561087a57600080fd5b5061089560048036038101906108909190613685565b611ecb565b6040516108a29190613235565b60405180910390f35b3480156108b757600080fd5b506108c0611f52565b6040516108cd9190613235565b60405180910390f35b3480156108e257600080fd5b506108fd60048036038101906108f891906135e0565b611f58565b005b34801561090b57600080fd5b50610914612050565b6040516109219190613235565b60405180910390f35b60007f7965db0b000000000000000000000000000000000000000000000000000000007bffffffffffffffffffffffffffffffffffffffffffffffffffffffff1916827bffffffffffffffffffffffffffffffffffffffffffffffffffffffff1916148061099d575061099c82612056565b5b9050919050565b6060600380546109b3906136f4565b80601f01602080910402602001604051908101604052809291908181526020018280546109df906136f4565b8015610a2c5780601f10610a0157610100808354040283529160200191610a2c565b820191906000526020600020905b815481529060010190602001808311610a0f57829003601f168201915b5050505050905090565b600080610a4484843461185e565b915091506000600760009054906101000a900473ffffffffffffffffffffffffffffffffffffffff1673ffffffffffffffffffffffffffffffffffffffff1634604051610a9090613757565b60006040518083038185875af1925050503d8060008114610acd576040519150601f19603f3d011682016040523d82523d6000602084013e610ad2565b606091505b5050905080610b16576040517f08c379a0000000000000000000000000000000000000000000000000000000008152600401610b0d906137b8565b60405180910390fd5b600085604051602001610b299190613814565b604051602081830303815290604052805190602001209050600d6000828152602001908152602001600020600086815260200190815260200160002060009054906101000a900473ffffffffffffffffffffffffffffffffffffffff1673ffffffffffffffffffffffffffffffffffffffff166340c10f198434610bad919061385a565b33876040518463ffffffff1660e01b8152600401610bcc92919061388e565b6000604051808303818588803b158015610be557600080fd5b505af1158015610bf9573d6000803e3d6000fd5b50505050507f8b18deef4f7095ff8e0d5807297d88a3e0001abe742fd52a9b8ef98311e4e3d333853486604051610c3394939291906138b7565b60405180910390a1505050505050565b6000610c57610c506120c0565b84846120c8565b6001905092915050565b600080600085604051602001610c779190613814565b604051602081830303815290604052805190602001209050610ca381600861229390919063ffffffff16565b610cac57600080fd5b610cc085600a6122aa90919063ffffffff16565b610cc957600080fd5b6000600c600083815260200190815260200160002060009054906101000a900473ffffffffffffffffffffffffffffffffffffffff1673ffffffffffffffffffffffffffffffffffffffff1663b0667cf86040518163ffffffff1660e01b8152600401604080518083038186803b158015610d4357600080fd5b505afa158015610d57573d6000803e3d6000fd5b505050506040513d601f19601f82011682018060405250810190610d7b9190613911565b5090506000600c600084815260200190815260200160002060009054906101000a900473ffffffffffffffffffffffffffffffffffffffff1673ffffffffffffffffffffffffffffffffffffffff1663040b030f886040518263ffffffff1660e01b8152600401610dec9190613235565b60206040518083038186803b158015610e0457600080fd5b505afa158015610e18573d6000803e3d6000fd5b505050506040513d601f19601f82011682018060405250810190610e3c9190613951565b90506000600d6000858152602001908152602001600020600089815260200190815260200160002060009054906101000a900473ffffffffffffffffffffffffffffffffffffffff1673ffffffffffffffffffffffffffffffffffffffff166362c5c1198885856040518463ffffffff1660e01b8152600401610ec19392919061397e565b60206040518083038186803b158015610ed957600080fd5b505afa158015610eed573d6000803e3d6000fd5b505050506040513d601f19601f82011682018060405250810190610f119190613951565b905080610f2482600f54620f42406122c4565b9550955050505050935093915050565b6000600254905090565b7fa49807205ce4d355092ef5a8a18f56e8913cf4a201fbe287825b095693c21775610f7081610f6b6120c0565b6123c0565b81600f819055507f500c80bd9b6a860d5773840a11c8dafaf360016284c941a068837b1ebbdc68ce82604051610fa69190613235565b60405180910390a15050565b60105481565b6000610fc584848461245d565b6000600160008673ffffffffffffffffffffffffffffffffffffffff1673ffffffffffffffffffffffffffffffffffffffff16815260200190815260200160002060006110106120c0565b73ffffffffffffffffffffffffffffffffffffffff1673ffffffffffffffffffffffffffffffffffffffff16815260200190815260200160002054905082811015611090576040517f08c379a000000000000000000000000000000000000000000000000000000000815260040161108790613a27565b60405180910390fd5b6110a48561109c6120c0565b8584036120c8565b60019150509392505050565b600060066000838152602001908152602001600020600101549050919050565b7fa49807205ce4d355092ef5a8a18f56e8913cf4a201fbe287825b095693c21775611102816110fd6120c0565b6123c0565b61111682600a6122aa90919063ffffffff16565b61111f57600080fd5b61113382600a6126de90919063ffffffff16565b505050565b7fa49807205ce4d355092ef5a8a18f56e8913cf4a201fbe287825b095693c2177561116a816111656120c0565b6123c0565b60008360405160200161117d9190613814565b6040516020818303038152906040528051906020012090506111a981600861229390919063ffffffff16565b6111c3576111c18160086126f890919063ffffffff16565b505b8273ffffffffffffffffffffffffffffffffffffffff1663cca494736040518163ffffffff1660e01b815260040160206040518083038186803b15801561120957600080fd5b505afa15801561121d573d6000803e3d6000fd5b505050506040513d601f19601f820116820180604052508101906112419190613a5c565b811461124c57600080fd5b82600c600083815260200190815260200160002060006101000a81548173ffffffffffffffffffffffffffffffffffffffff021916908373ffffffffffffffffffffffffffffffffffffffff16021790555050505050565b6112ad826110b0565b6112be816112b96120c0565b6123c0565b6112c8838361270f565b505050565b60006012905090565b600d6020528160005260406000206020528060005260406000206000915091509054906101000a900473ffffffffffffffffffffffffffffffffffffffff1681565b6113206120c0565b73ffffffffffffffffffffffffffffffffffffffff168173ffffffffffffffffffffffffffffffffffffffff161461138d576040517f08c379a000000000000000000000000000000000000000000000000000000000815260040161138490613afb565b60405180910390fd5b61139782826127f0565b5050565b600061143d6113a86120c0565b8484600160006113b66120c0565b73ffffffffffffffffffffffffffffffffffffffff1673ffffffffffffffffffffffffffffffffffffffff16815260200190815260200160002060008873ffffffffffffffffffffffffffffffffffffffff1673ffffffffffffffffffffffffffffffffffffffff168152602001908152602001600020546114389190613b1b565b6120c8565b6001905092915050565b60006114838260405160200161145d9190613814565b60405160208183030381529060405280519060200120600861229390919063ffffffff16565b9050919050565b7fa49807205ce4d355092ef5a8a18f56e8913cf4a201fbe287825b095693c217756114bc816114b76120c0565b6123c0565b6000846040516020016114cf9190613814565b6040516020818303038152906040528051906020012090506114fb81600861229390919063ffffffff16565b611515576115138160086126f890919063ffffffff16565b505b61152984600a6122aa90919063ffffffff16565b6115435761154184600a6128d290919063ffffffff16565b505b82600d6000838152602001908152602001600020600086815260200190815260200160002060006101000a81548173ffffffffffffffffffffffffffffffffffffffff021916908373ffffffffffffffffffffffffffffffffffffffff160217905550600d6000828152602001908152602001600020600085815260200190815260200160002060009054906101000a900473ffffffffffffffffffffffffffffffffffffffff1673ffffffffffffffffffffffffffffffffffffffff1663313ce5676040518163ffffffff1660e01b815260040160206040518083038186803b15801561163057600080fd5b505afa158015611644573d6000803e3d6000fd5b505050506040513d601f19601f820116820180604052508101906116689190613b9d565b600e600083815260200190815260200160002060006101000a81548160ff021916908360ff1602179055507f93dc3bfce85f48c721d4974c97962581e256eb8306b1921bdc290631c6cac8a28585856040516116c693929190613beb565b60405180910390a15050505050565b60008060008373ffffffffffffffffffffffffffffffffffffffff1673ffffffffffffffffffffffffffffffffffffffff168152602001908152602001600020549050919050565b6117256120c0565b73ffffffffffffffffffffffffffffffffffffffff166117436117c9565b73ffffffffffffffffffffffffffffffffffffffff1614611799576040517f08c379a000000000000000000000000000000000000000000000000000000000815260040161179090613c75565b60405180910390fd5b6117a360006128ec565b565b7fa49807205ce4d355092ef5a8a18f56e8913cf4a201fbe287825b095693c2177581565b6000600560009054906101000a900473ffffffffffffffffffffffffffffffffffffffff16905090565b60006006600084815260200190815260200160002060000160008373ffffffffffffffffffffffffffffffffffffffff1673ffffffffffffffffffffffffffffffffffffffff16815260200190815260200160002060009054906101000a900460ff16905092915050565b6000806000856040516020016118749190613814565b6040516020818303038152906040528051906020012090506118a081600861229390919063ffffffff16565b6118a957600080fd5b6118bd85600a6122aa90919063ffffffff16565b6118c657600080fd5b6000600c600083815260200190815260200160002060009054906101000a900473ffffffffffffffffffffffffffffffffffffffff1673ffffffffffffffffffffffffffffffffffffffff1663b0667cf86040518163ffffffff1660e01b8152600401604080518083038186803b15801561194057600080fd5b505afa158015611954573d6000803e3d6000fd5b505050506040513d601f19601f820116820180604052508101906119789190613911565b5090506000600c600084815260200190815260200160002060009054906101000a900473ffffffffffffffffffffffffffffffffffffffff1673ffffffffffffffffffffffffffffffffffffffff1663040b030f886040518263ffffffff1660e01b81526004016119e99190613235565b60206040518083038186803b158015611a0157600080fd5b505afa158015611a15573d6000803e3d6000fd5b505050506040513d601f19601f82011682018060405250810190611a399190613951565b90506000611b28600d600086815260200190815260200160002060008a815260200190815260200160002060009054906101000a900473ffffffffffffffffffffffffffffffffffffffff1673ffffffffffffffffffffffffffffffffffffffff16632fc7a44a8986866040518463ffffffff1660e01b8152600401611ac19392919061397e565b60206040518083038186803b158015611ad957600080fd5b505afa158015611aed573d6000803e3d6000fd5b505050506040513d601f19601f82011682018060405250810190611b119190613951565b620f424080600f54611b239190613b1b565b6122c4565b90506000611b4988600f54620f4240600f54611b449190613b1b565b6122c4565b90508181965096505050505050935093915050565b606060048054611b6d906136f4565b80601f0160208091040260200160405190810160405280929190818152602001828054611b99906136f4565b8015611be65780601f10611bbb57610100808354040283529160200191611be6565b820191906000526020600020905b815481529060010190602001808311611bc957829003601f168201915b5050505050905090565b620f424081565b600c6020528060005260406000206000915054906101000a900473ffffffffffffffffffffffffffffffffffffffff1681565b6000801b81565b60008060016000611c406120c0565b73ffffffffffffffffffffffffffffffffffffffff1673ffffffffffffffffffffffffffffffffffffffff16815260200190815260200160002060008573ffffffffffffffffffffffffffffffffffffffff1673ffffffffffffffffffffffffffffffffffffffff16815260200190815260200160002054905082811015611cfd576040517f08c379a0000000000000000000000000000000000000000000000000000000008152600401611cf490613d07565b60405180910390fd5b611d11611d086120c0565b858584036120c8565b600191505092915050565b6000611d30611d296120c0565b848461245d565b6001905092915050565b611d426120c0565b73ffffffffffffffffffffffffffffffffffffffff16611d606117c9565b73ffffffffffffffffffffffffffffffffffffffff1614611db6576040517f08c379a0000000000000000000000000000000000000000000000000000000008152600401611dad90613c75565b60405180910390fd5b600047905060003373ffffffffffffffffffffffffffffffffffffffff1682604051611de190613757565b60006040518083038185875af1925050503d8060008114611e1e576040519150601f19603f3d011682016040523d82523d6000602084013e611e23565b606091505b5050905080611e67576040517f08c379a0000000000000000000000000000000000000000000000000000000008152600401611e5e90613d73565b60405180910390fd5b7f4f419c906cb8927e83df10513ea1227360d365c979782f6458b22891c1765ba682604051611e969190613235565b60405180910390a15050565b611eab826110b0565b611ebc81611eb76120c0565b6123c0565b611ec683836127f0565b505050565b6000600160008473ffffffffffffffffffffffffffffffffffffffff1673ffffffffffffffffffffffffffffffffffffffff16815260200190815260200160002060008373ffffffffffffffffffffffffffffffffffffffff1673ffffffffffffffffffffffffffffffffffffffff16815260200190815260200160002054905092915050565b600f5481565b611f606120c0565b73ffffffffffffffffffffffffffffffffffffffff16611f7e6117c9565b73ffffffffffffffffffffffffffffffffffffffff1614611fd4576040517f08c379a0000000000000000000000000000000000000000000000000000000008152600401611fcb90613c75565b60405180910390fd5b600073ffffffffffffffffffffffffffffffffffffffff168173ffffffffffffffffffffffffffffffffffffffff161415612044576040517f08c379a000000000000000000000000000000000000000000000000000000000815260040161203b90613e05565b60405180910390fd5b61204d816128ec565b50565b60115481565b60007f01ffc9a7000000000000000000000000000000000000000000000000000000007bffffffffffffffffffffffffffffffffffffffffffffffffffffffff1916827bffffffffffffffffffffffffffffffffffffffffffffffffffffffff1916149050919050565b600033905090565b600073ffffffffffffffffffffffffffffffffffffffff168373ffffffffffffffffffffffffffffffffffffffff161415612138576040517f08c379a000000000000000000000000000000000000000000000000000000000815260040161212f90613e97565b60405180910390fd5b600073ffffffffffffffffffffffffffffffffffffffff168273ffffffffffffffffffffffffffffffffffffffff1614156121a8576040517f08c379a000000000000000000000000000000000000000000000000000000000815260040161219f90613f29565b60405180910390fd5b80600160008573ffffffffffffffffffffffffffffffffffffffff1673ffffffffffffffffffffffffffffffffffffffff16815260200190815260200160002060008473ffffffffffffffffffffffffffffffffffffffff1673ffffffffffffffffffffffffffffffffffffffff168152602001908152602001600020819055508173ffffffffffffffffffffffffffffffffffffffff168373ffffffffffffffffffffffffffffffffffffffff167f8c5be1e5ebec7d5bd14f71427d1e84f3dd0314c0f7b2291e5b200ac8c7c3b925836040516122869190613235565b60405180910390a3505050565b60006122a283600001836129b2565b905092915050565b60006122bc836000018360001b6129b2565b905092915050565b6000806000801985870985870292508281108382030391505060008114156122ff57600084116122f357600080fd5b838204925050506123b9565b80841161230b57600080fd5b60008486880990508281118203915080830392506000856001877fffffffffffffffffffffffffffffffffffffffffffffffffffffffffffffffff0301169050808604955080840493506001818260000304019050808302841793506000600287600302189050808702600203810290508087026002038102905080870260020381029050808702600203810290508087026002038102905080870260020381029050808502955050505050505b9392505050565b6123ca82826117f3565b612459576123ef8173ffffffffffffffffffffffffffffffffffffffff1660146129d5565b6123fd8360001c60206129d5565b60405160200161240e929190613fe1565b6040516020818303038152906040526040517f08c379a00000000000000000000000000000000000000000000000000000000081526004016124509190612f07565b60405180910390fd5b5050565b600073ffffffffffffffffffffffffffffffffffffffff168373ffffffffffffffffffffffffffffffffffffffff1614156124cd576040517f08c379a00000000000000000000000000000000000000000000000000000000081526004016124c49061408d565b60405180910390fd5b600073ffffffffffffffffffffffffffffffffffffffff168273ffffffffffffffffffffffffffffffffffffffff16141561253d576040517f08c379a00000000000000000000000000000000000000000000000000000000081526004016125349061411f565b60405180910390fd5b612548838383612c11565b60008060008573ffffffffffffffffffffffffffffffffffffffff1673ffffffffffffffffffffffffffffffffffffffff168152602001908152602001600020549050818110156125ce576040517f08c379a00000000000000000000000000000000000000000000000000000000081526004016125c5906141b1565b60405180910390fd5b8181036000808673ffffffffffffffffffffffffffffffffffffffff1673ffffffffffffffffffffffffffffffffffffffff16815260200190815260200160002081905550816000808573ffffffffffffffffffffffffffffffffffffffff1673ffffffffffffffffffffffffffffffffffffffff16815260200190815260200160002060008282546126619190613b1b565b925050819055508273ffffffffffffffffffffffffffffffffffffffff168473ffffffffffffffffffffffffffffffffffffffff167fddf252ad1be2c89b69c2b068fc378daa952ba7f163c4a11628f55a4df523b3ef846040516126c59190613235565b60405180910390a36126d8848484612c16565b50505050565b60006126f0836000018360001b612c1b565b905092915050565b60006127078360000183612d2f565b905092915050565b61271982826117f3565b6127ec5760016006600084815260200190815260200160002060000160008373ffffffffffffffffffffffffffffffffffffffff1673ffffffffffffffffffffffffffffffffffffffff16815260200190815260200160002060006101000a81548160ff0219169083151502179055506127916120c0565b73ffffffffffffffffffffffffffffffffffffffff168173ffffffffffffffffffffffffffffffffffffffff16837f2f8788117e7eff1d82e926ec794901d17c78024a50270940304540a733656f0d60405160405180910390a45b5050565b6127fa82826117f3565b156128ce5760006006600084815260200190815260200160002060000160008373ffffffffffffffffffffffffffffffffffffffff1673ffffffffffffffffffffffffffffffffffffffff16815260200190815260200160002060006101000a81548160ff0219169083151502179055506128736120c0565b73ffffffffffffffffffffffffffffffffffffffff168173ffffffffffffffffffffffffffffffffffffffff16837ff6391f5c32d9c69d2a47ea670b442974b53935d1edc7fd64eb21e047a839171b60405160405180910390a45b5050565b60006128e4836000018360001b612d2f565b905092915050565b6000600560009054906101000a900473ffffffffffffffffffffffffffffffffffffffff16905081600560006101000a81548173ffffffffffffffffffffffffffffffffffffffff021916908373ffffffffffffffffffffffffffffffffffffffff1602179055508173ffffffffffffffffffffffffffffffffffffffff168173ffffffffffffffffffffffffffffffffffffffff167f8be0079c531659141344cd1fd0a4f28419497f9722a3daafe3b4186f6b6457e060405160405180910390a35050565b600080836001016000848152602001908152602001600020541415905092915050565b6060600060028360026129e891906141d1565b6129f29190613b1b565b67ffffffffffffffff811115612a0b57612a0a612f33565b5b6040519080825280601f01601f191660200182016040528015612a3d5781602001600182028036833780820191505090505b5090507f300000000000000000000000000000000000000000000000000000000000000081600081518110612a7557612a7461422b565b5b60200101907effffffffffffffffffffffffffffffffffffffffffffffffffffffffffffff1916908160001a9053507f780000000000000000000000000000000000000000000000000000000000000081600181518110612ad957612ad861422b565b5b60200101907effffffffffffffffffffffffffffffffffffffffffffffffffffffffffffff1916908160001a90535060006001846002612b1991906141d1565b612b239190613b1b565b90505b6001811115612bc3577f3031323334353637383961626364656600000000000000000000000000000000600f861660108110612b6557612b6461422b565b5b1a60f81b828281518110612b7c57612b7b61422b565b5b60200101907effffffffffffffffffffffffffffffffffffffffffffffffffffffffffffff1916908160001a905350600485901c945080612bbc9061425a565b9050612b26565b5060008414612c07576040517f08c379a0000000000000000000000000000000000000000000000000000000008152600401612bfe906142d0565b60405180910390fd5b8091505092915050565b505050565b505050565b60008083600101600084815260200190815260200160002054905060008114612d23576000600182612c4d919061385a565b9050600060018660000180549050612c65919061385a565b9050818114612cd4576000866000018281548110612c8657612c8561422b565b5b9060005260206000200154905080876000018481548110612caa57612ca961422b565b5b90600052602060002001819055508387600101600083815260200190815260200160002081905550505b85600001805480612ce857612ce76142f0565b5b600190038181906000526020600020016000905590558560010160008681526020019081526020016000206000905560019350505050612d29565b60009150505b92915050565b6000612d3b83836129b2565b612d94578260000182908060018154018082558091505060019003906000526020600020016000909190919091505582600001805490508360010160008481526020019081526020016000208190555060019050612d99565b600090505b92915050565b6000604051905090565b600080fd5b600080fd5b60007fffffffff0000000000000000000000000000000000000000000000000000000082169050919050565b612de881612db3565b8114612df357600080fd5b50565b600081359050612e0581612ddf565b92915050565b600060208284031215612e2157612e20612da9565b5b6000612e2f84828501612df6565b91505092915050565b60008115159050919050565b612e4d81612e38565b82525050565b6000602082019050612e686000830184612e44565b92915050565b600081519050919050565b600082825260208201905092915050565b60005b83811015612ea8578082015181840152602081019050612e8d565b83811115612eb7576000848401525b50505050565b6000601f19601f8301169050919050565b6000612ed982612e6e565b612ee38185612e79565b9350612ef3818560208601612e8a565b612efc81612ebd565b840191505092915050565b60006020820190508181036000830152612f218184612ece565b905092915050565b600080fd5b600080fd5b7f4e487b7100000000000000000000000000000000000000000000000000000000600052604160045260246000fd5b612f6b82612ebd565b810181811067ffffffffffffffff82111715612f8a57612f89612f33565b5b80604052505050565b6000612f9d612d9f565b9050612fa98282612f62565b919050565b600067ffffffffffffffff821115612fc957612fc8612f33565b5b612fd282612ebd565b9050602081019050919050565b82818337600083830152505050565b6000613001612ffc84612fae565b612f93565b90508281526020810184848401111561301d5761301c612f2e565b5b613028848285612fdf565b509392505050565b600082601f83011261304557613044612f29565b5b8135613055848260208601612fee565b91505092915050565b6000819050919050565b6130718161305e565b811461307c57600080fd5b50565b60008135905061308e81613068565b92915050565b600080604083850312156130ab576130aa612da9565b5b600083013567ffffffffffffffff8111156130c9576130c8612dae565b5b6130d585828601613030565b92505060206130e68582860161307f565b9150509250929050565b600073ffffffffffffffffffffffffffffffffffffffff82169050919050565b600061311b826130f0565b9050919050565b61312b81613110565b811461313657600080fd5b50565b60008135905061314881613122565b92915050565b6000806040838503121561316557613164612da9565b5b600061317385828601613139565b92505060206131848582860161307f565b9150509250929050565b6000806000606084860312156131a7576131a6612da9565b5b600084013567ffffffffffffffff8111156131c5576131c4612dae565b5b6131d186828701613030565b93505060206131e28682870161307f565b92505060406131f38682870161307f565b9150509250925092565b6132068161305e565b82525050565b600060408201905061322160008301856131fd565b61322e60208301846131fd565b9392505050565b600060208201905061324a60008301846131fd565b92915050565b60006020828403121561326657613265612da9565b5b60006132748482850161307f565b91505092915050565b60008060006060848603121561329657613295612da9565b5b60006132a486828701613139565b93505060206132b586828701613139565b92505060406132c68682870161307f565b9150509250925092565b6000819050919050565b6132e3816132d0565b81146132ee57600080fd5b50565b600081359050613300816132da565b92915050565b60006020828403121561331c5761331b612da9565b5b600061332a848285016132f1565b91505092915050565b61333c816132d0565b82525050565b60006020820190506133576000830184613333565b92915050565b6000806040838503121561337457613373612da9565b5b600083013567ffffffffffffffff81111561339257613391612dae565b5b61339e85828601613030565b92505060206133af85828601613139565b9150509250929050565b600080604083850312156133d0576133cf612da9565b5b60006133de858286016132f1565b92505060206133ef85828601613139565b9150509250929050565b600060ff82169050919050565b61340f816133f9565b82525050565b600060208201905061342a6000830184613406565b92915050565b6000806040838503121561344757613446612da9565b5b6000613455858286016132f1565b92505060206134668582860161307f565b9150509250929050565b6000819050919050565b600061349561349061348b846130f0565b613470565b6130f0565b9050919050565b60006134a78261347a565b9050919050565b60006134b98261349c565b9050919050565b6134c9816134ae565b82525050565b60006020820190506134e460008301846134c0565b92915050565b600060208284031215613500576134ff612da9565b5b600082013567ffffffffffffffff81111561351e5761351d612dae565b5b61352a84828501613030565b91505092915050565b600061353e826130f0565b9050919050565b61354e81613533565b811461355957600080fd5b50565b60008135905061356b81613545565b92915050565b60008060006060848603121561358a57613589612da9565b5b600084013567ffffffffffffffff8111156135a8576135a7612dae565b5b6135b486828701613030565b93505060206135c58682870161307f565b92505060406135d68682870161355c565b9150509250925092565b6000602082840312156135f6576135f5612da9565b5b600061360484828501613139565b91505092915050565b61361681613110565b82525050565b6000602082019050613631600083018461360d565b92915050565b60006136428261347a565b9050919050565b600061365482613637565b9050919050565b61366481613649565b82525050565b600060208201905061367f600083018461365b565b92915050565b6000806040838503121561369c5761369b612da9565b5b60006136aa85828601613139565b92505060206136bb85828601613139565b9150509250929050565b7f4e487b7100000000000000000000000000000000000000000000000000000000600052602260045260246000fd5b6000600282049050600182168061370c57607f821691505b602082108114156137205761371f6136c5565b5b50919050565b600081905092915050565b50565b6000613741600083613726565b915061374c82613731565b600082019050919050565b600061376282613734565b9150819050919050565b7f466565207061796d656e74206661696c65642e00000000000000000000000000600082015250565b60006137a2601383612e79565b91506137ad8261376c565b602082019050919050565b600060208201905081810360008301526137d181613795565b9050919050565b600081905092915050565b60006137ee82612e6e565b6137f881856137d8565b9350613808818560208601612e8a565b80840191505092915050565b600061382082846137e3565b915081905092915050565b7f4e487b7100000000000000000000000000000000000000000000000000000000600052601160045260246000fd5b60006138658261305e565b91506138708361305e565b9250828210156138835761388261382b565b5b828203905092915050565b60006040820190506138a3600083018561360d565b6138b060208301846131fd565b9392505050565b60006080820190506138cc600083018761360d565b6138d960208301866131fd565b6138e660408301856131fd565b6138f360608301846131fd565b95945050505050565b60008151905061390b81613068565b92915050565b6000806040838503121561392857613927612da9565b5b6000613936858286016138fc565b9250506020613947858286016138fc565b9150509250929050565b60006020828403121561396757613966612da9565b5b6000613975848285016138fc565b91505092915050565b600060608201905061399360008301866131fd565b6139a060208301856131fd565b6139ad60408301846131fd565b949350505050565b7f45524332303a207472616e7366657220616d6f756e742065786365656473206160008201527f6c6c6f77616e6365000000000000000000000000000000000000000000000000602082015250565b6000613a11602883612e79565b9150613a1c826139b5565b604082019050919050565b60006020820190508181036000830152613a4081613a04565b9050919050565b600081519050613a56816132da565b92915050565b600060208284031215613a7257613a71612da9565b5b6000613a8084828501613a47565b91505092915050565b7f416363657373436f6e74726f6c3a2063616e206f6e6c792072656e6f756e636560008201527f20726f6c657320666f722073656c660000000000000000000000000000000000602082015250565b6000613ae5602f83612e79565b9150613af082613a89565b604082019050919050565b60006020820190508181036000830152613b1481613ad8565b9050919050565b6000613b268261305e565b9150613b318361305e565b9250827fffffffffffffffffffffffffffffffffffffffffffffffffffffffffffffffff03821115613b6657613b6561382b565b5b828201905092915050565b613b7a816133f9565b8114613b8557600080fd5b50565b600081519050613b9781613b71565b92915050565b600060208284031215613bb357613bb2612da9565b5b6000613bc184828501613b88565b91505092915050565b6000613bd582613637565b9050919050565b613be581613bca565b82525050565b60006060820190508181036000830152613c058186612ece565b9050613c1460208301856131fd565b613c216040830184613bdc565b949350505050565b7f4f776e61626c653a2063616c6c6572206973206e6f7420746865206f776e6572600082015250565b6000613c5f602083612e79565b9150613c6a82613c29565b602082019050919050565b60006020820190508181036000830152613c8e81613c52565b9050919050565b7f45524332303a2064656372656173656420616c6c6f77616e63652062656c6f7760008201527f207a65726f000000000000000000000000000000000000000000000000000000602082015250565b6000613cf1602583612e79565b9150613cfc82613c95565b604082019050919050565b60006020820190508181036000830152613d2081613ce4565b9050919050565b7f5769746864726177616c206661696c65642e0000000000000000000000000000600082015250565b6000613d5d601283612e79565b9150613d6882613d27565b602082019050919050565b60006020820190508181036000830152613d8c81613d50565b9050919050565b7f4f776e61626c653a206e6577206f776e657220697320746865207a65726f206160008201527f6464726573730000000000000000000000000000000000000000000000000000602082015250565b6000613def602683612e79565b9150613dfa82613d93565b604082019050919050565b60006020820190508181036000830152613e1e81613de2565b9050919050565b7f45524332303a20617070726f76652066726f6d20746865207a65726f2061646460008201527f7265737300000000000000000000000000000000000000000000000000000000602082015250565b6000613e81602483612e79565b9150613e8c82613e25565b604082019050919050565b60006020820190508181036000830152613eb081613e74565b9050919050565b7f45524332303a20617070726f766520746f20746865207a65726f20616464726560008201527f7373000000000000000000000000000000000000000000000000000000000000602082015250565b6000613f13602283612e79565b9150613f1e82613eb7565b604082019050919050565b60006020820190508181036000830152613f4281613f06565b9050919050565b7f416363657373436f6e74726f6c3a206163636f756e7420000000000000000000600082015250565b6000613f7f6017836137d8565b9150613f8a82613f49565b601782019050919050565b7f206973206d697373696e6720726f6c6520000000000000000000000000000000600082015250565b6000613fcb6011836137d8565b9150613fd682613f95565b601182019050919050565b6000613fec82613f72565b9150613ff882856137e3565b915061400382613fbe565b915061400f82846137e3565b91508190509392505050565b7f45524332303a207472616e736665722066726f6d20746865207a65726f20616460008201527f6472657373000000000000000000000000000000000000000000000000000000602082015250565b6000614077602583612e79565b91506140828261401b565b604082019050919050565b600060208201905081810360008301526140a68161406a565b9050919050565b7f45524332303a207472616e7366657220746f20746865207a65726f206164647260008201527f6573730000000000000000000000000000000000000000000000000000000000602082015250565b6000614109602383612e79565b9150614114826140ad565b604082019050919050565b60006020820190508181036000830152614138816140fc565b9050919050565b7f45524332303a207472616e7366657220616d6f756e742065786365656473206260008201527f616c616e63650000000000000000000000000000000000000000000000000000602082015250565b600061419b602683612e79565b91506141a68261413f565b604082019050919050565b600060208201905081810360008301526141ca8161418e565b9050919050565b60006141dc8261305e565b91506141e78361305e565b9250817fffffffffffffffffffffffffffffffffffffffffffffffffffffffffffffffff04831182151516156142205761421f61382b565b5b828202905092915050565b7f4e487b7100000000000000000000000000000000000000000000000000000000600052603260045260246000fd5b60006142658261305e565b915060008214156142795761427861382b565b5b600182039050919050565b7f537472696e67733a20686578206c656e67746820696e73756666696369656e74600082015250565b60006142ba602083612e79565b91506142c582614284565b602082019050919050565b600060208201905081810360008301526142e9816142ad565b9050919050565b7f4e487b7100000000000000000000000000000000000000000000000000000000600052603160045260246000fdfea26469706673582212207b6e7f72cb2225911cd3f187f50f22a6947cba71e3fbbadaf9d107d9e5a28bdb64736f6c63430008090033",
  "immutableReferences": {},
  "source": "// SPDX-License-Identifier: MIT\n\npragma solidity 0.8.9;\n\nimport \"./VolatilityToken.sol\";\nimport \"./VolatilityChain.sol\";\nimport \"./FullMath.sol\";\n\nimport \"@openzeppelin/contracts/access/Ownable.sol\";\nimport \"@openzeppelin/contracts/token/ERC20/ERC20.sol\";\nimport \"@openzeppelin/contracts/utils/math/Math.sol\";\nimport \"@openzeppelin/contracts/access/AccessControl.sol\";\nimport \"@openzeppelin/contracts/utils/structs/EnumerableSet.sol\";\n\n\ncontract GovernanceToken is ERC20, Ownable, AccessControl\n{\n  using EnumerableSet for EnumerableSet.UintSet;\n  using EnumerableSet for EnumerableSet.Bytes32Set;\n\n  address payable governanceAddr;\n    bytes32 public constant ADMIN_ROLE = keccak256(\"ADMIN_ROLE\");\n\n  EnumerableSet.Bytes32Set  tokenHashSet;\n  EnumerableSet.UintSet  tenors;\n  mapping(bytes32=> VolatilityChain) public volChainList;\n  mapping(bytes32=>mapping(uint256=>VolatilityToken)) public volTokensList;\n\n  mapping(bytes32=>uint8) decimalList;\n\n    uint256 public constant pctDenominator = 10 ** 6;\n    uint256 public governanceFees = 10000;\n    uint256 public loanFees = 200000;\n    uint256 public loanDayBase = 31536000;\n\n    constructor(\n        string memory _name,\n        string memory _symbol) ERC20(_name, _symbol)\n    {\n        governanceAddr = payable(address(this));\n\n        _mint(governanceAddr, 10 ** (18+10)); // 10 billion total supply.\n        _setupRole(ADMIN_ROLE, msg.sender);\n    }\n\n    function getVolatilityQuote(string memory _underlying, uint256 _tenor, uint256 _volAmount) public view returns(uint256, uint256)\n{\n    bytes32 _underlyingHash = keccak256(abi.encodePacked(_underlying));\n    require(tokenHashSet.contains(_underlyingHash));\n        require(tenors.contains(_tenor));\n        (uint256 _price,) = volChainList[_underlyingHash].queryPrice();\n        uint256 _volatility = volChainList[_underlyingHash].getVol(_tenor);\n\n        uint256 _quote = volTokensList[_underlyingHash][_tenor].calculateMintValue(_volAmount, _price, _volatility);\n\n        return (_quote, MulDiv(_quote, governanceFees, pctDenominator));\n}\n\n    function getVolatilityAmount(string memory _underlying, uint256 _tenor, uint256 _ethAmount) public view returns(uint256, uint256)\n    {\n        bytes32 _underlyingHash = keccak256(abi.encodePacked(_underlying));\n        require(tokenHashSet.contains(_underlyingHash));\n        require(tenors.contains(_tenor));\n\n        (uint256 _price,) = volChainList[_underlyingHash].queryPrice();\n        uint256 _volatility = volChainList[_underlyingHash].getVol(_tenor);\n\n        uint256 _amount = MulDiv(volTokensList[_underlyingHash][_tenor].calculateMintableAmount(_ethAmount, _price, _volatility), pctDenominator, governanceFees + pctDenominator);\n        uint256 _fee = MulDiv(_ethAmount, governanceFees, governanceFees + pctDenominator);\n\n        return (_amount, _fee);\n    }\n\n    function purchaseVolatilityToken(string memory _underlying, uint256 _tenor) external payable {\n        (uint256 _volTokenAmount, uint256 _fee) = getVolatilityAmount(_underlying, _tenor, msg.value);\n        // require(msg.value > _fee);\n\n        (bool _sentFee, ) = governanceAddr.call{value: msg.value}(\"\");\n        require(_sentFee, \"Fee payment failed.\");\n\n        bytes32 _underlyingHash = keccak256(abi.encodePacked(_underlying));\n        volTokensList[_underlyingHash][_tenor].mint{value: msg.value - _fee}(msg.sender, _volTokenAmount);\n\n        emit volatilityTokenPurchased(msg.sender, _volTokenAmount,  msg.value,  _fee);\n    }\n\n    function addVolChain(string memory _underlying, address _volChainAddress) external onlyRole(ADMIN_ROLE){\n        bytes32 _underlyingHash = keccak256(abi.encodePacked(_underlying));\n\n        if(!tokenHashSet.contains(_underlyingHash))\n        {\n            tokenHashSet.add(_underlyingHash);\n        }\n        require(_underlyingHash==VolatilityChain(_volChainAddress).tokenHash());\n        volChainList[_underlyingHash] = VolatilityChain(_volChainAddress);\n    }\n\n    function addVolToken(string memory  _underlying, uint256 _tenor, address payable _tokenAddress) external onlyRole(ADMIN_ROLE)\n    {\n        bytes32 _underlyingHash = keccak256(abi.encodePacked(_underlying));\n        if(!tokenHashSet.contains(_underlyingHash)){\n            tokenHashSet.add(_underlyingHash);\n        }\n        if(!tenors.contains(_tenor)){\n            tenors.add(_tenor);\n        }\n        /* require(_underlyingHash==VolatilityToken(_tokenAddress).descriptionHash()); */\n        volTokensList[_underlyingHash][_tenor] = VolatilityToken(_tokenAddress);\n        decimalList[_underlyingHash] = volTokensList[_underlyingHash][_tenor].decimals();\n\n        emit newVolatilityToken(_underlying, _tenor, _tokenAddress);\n    }\n\n    function removeTenor(uint256 _tenor) external onlyRole(ADMIN_ROLE) {\n        require(tenors.contains(_tenor));\n        tenors.remove( _tenor);\n    }\n\n    function hasVolToken(string memory  _underlying) external view returns(bool)\n    {\n        return tokenHashSet.contains(keccak256(abi.encodePacked(_underlying)));\n    }\n\n    function resetGovernanceFees(uint256 _fee) external onlyRole(ADMIN_ROLE){\n        governanceFees = _fee;\n        emit newGovernanceFees(_fee);\n    }\n\n    function sweepBalance() external onlyOwner{\n        uint256 _amount = address(this).balance;\n        (bool _sent, ) = payable(msg.sender).call{value: _amount}(\"\");\n        require(_sent, \"Withdrawal failed.\");\n        emit cashSweep(_amount);\n    }\n\n    receive() external payable{}\n\n    event newGovernanceFees(uint256 _fee);\n    event newVolatilityToken(string  _underlying, uint256 _tenor, address _tokenAddress);\n    event cashSweep(uint256 _amount);\n    event volatilityTokenPurchased(address _buyer, uint256 _amout, uint256 _cost, uint256 _fee);\n\n}\n",
  "sourcePath": "/Users/apple/Documents/GitHub/moret/contracts/GovernanceToken.sol",
  "compiler": {
    "name": "solc",
    "version": "0.8.9+commit.e5eed63a.Emscripten.clang"
  },
  "schemaVersion": "3.4.3",
  "updatedAt": "2021-11-22T18:04:25.716Z",
  "devdoc": {
    "kind": "dev",
    "methods": {
      "allowance(address,address)": {
        "details": "See {IERC20-allowance}."
      },
      "approve(address,uint256)": {
        "details": "See {IERC20-approve}. Requirements: - `spender` cannot be the zero address."
      },
      "balanceOf(address)": {
        "details": "See {IERC20-balanceOf}."
      },
      "decimals()": {
        "details": "Returns the number of decimals used to get its user representation. For example, if `decimals` equals `2`, a balance of `505` tokens should be displayed to a user as `5.05` (`505 / 10 ** 2`). Tokens usually opt for a value of 18, imitating the relationship between Ether and Wei. This is the value {ERC20} uses, unless this function is overridden; NOTE: This information is only used for _display_ purposes: it in no way affects any of the arithmetic of the contract, including {IERC20-balanceOf} and {IERC20-transfer}."
      },
      "decreaseAllowance(address,uint256)": {
        "details": "Atomically decreases the allowance granted to `spender` by the caller. This is an alternative to {approve} that can be used as a mitigation for problems described in {IERC20-approve}. Emits an {Approval} event indicating the updated allowance. Requirements: - `spender` cannot be the zero address. - `spender` must have allowance for the caller of at least `subtractedValue`."
      },
      "getRoleAdmin(bytes32)": {
        "details": "Returns the admin role that controls `role`. See {grantRole} and {revokeRole}. To change a role's admin, use {_setRoleAdmin}."
      },
      "grantRole(bytes32,address)": {
        "details": "Grants `role` to `account`. If `account` had not been already granted `role`, emits a {RoleGranted} event. Requirements: - the caller must have ``role``'s admin role."
      },
      "hasRole(bytes32,address)": {
        "details": "Returns `true` if `account` has been granted `role`."
      },
      "increaseAllowance(address,uint256)": {
        "details": "Atomically increases the allowance granted to `spender` by the caller. This is an alternative to {approve} that can be used as a mitigation for problems described in {IERC20-approve}. Emits an {Approval} event indicating the updated allowance. Requirements: - `spender` cannot be the zero address."
      },
      "name()": {
        "details": "Returns the name of the token."
      },
      "owner()": {
        "details": "Returns the address of the current owner."
      },
      "renounceOwnership()": {
        "details": "Leaves the contract without owner. It will not be possible to call `onlyOwner` functions anymore. Can only be called by the current owner. NOTE: Renouncing ownership will leave the contract without an owner, thereby removing any functionality that is only available to the owner."
      },
      "renounceRole(bytes32,address)": {
        "details": "Revokes `role` from the calling account. Roles are often managed via {grantRole} and {revokeRole}: this function's purpose is to provide a mechanism for accounts to lose their privileges if they are compromised (such as when a trusted device is misplaced). If the calling account had been granted `role`, emits a {RoleRevoked} event. Requirements: - the caller must be `account`."
      },
      "revokeRole(bytes32,address)": {
        "details": "Revokes `role` from `account`. If `account` had been granted `role`, emits a {RoleRevoked} event. Requirements: - the caller must have ``role``'s admin role."
      },
      "supportsInterface(bytes4)": {
        "details": "See {IERC165-supportsInterface}."
      },
      "symbol()": {
        "details": "Returns the symbol of the token, usually a shorter version of the name."
      },
      "totalSupply()": {
        "details": "See {IERC20-totalSupply}."
      },
      "transfer(address,uint256)": {
        "details": "See {IERC20-transfer}. Requirements: - `recipient` cannot be the zero address. - the caller must have a balance of at least `amount`."
      },
      "transferFrom(address,address,uint256)": {
        "details": "See {IERC20-transferFrom}. Emits an {Approval} event indicating the updated allowance. This is not required by the EIP. See the note at the beginning of {ERC20}. Requirements: - `sender` and `recipient` cannot be the zero address. - `sender` must have a balance of at least `amount`. - the caller must have allowance for ``sender``'s tokens of at least `amount`."
      },
      "transferOwnership(address)": {
        "details": "Transfers ownership of the contract to a new account (`newOwner`). Can only be called by the current owner."
      }
    },
    "version": 1
  },
  "userdoc": {
    "kind": "user",
    "methods": {},
    "version": 1
  }
}