{
  "contractName": "MarketLibrary",
  "abi": [
    {
      "inputs": [
        {
          "internalType": "address",
          "name": "_protocolDataProviderAddress",
          "type": "address"
        },
        {
          "internalType": "address",
          "name": "_tokenAddress",
          "type": "address"
        }
      ],
      "name": "getLendingTokenAddresses",
      "outputs": [
        {
          "internalType": "address",
          "name": "",
          "type": "address"
        },
        {
          "internalType": "address",
          "name": "",
          "type": "address"
        },
        {
          "internalType": "address",
          "name": "",
          "type": "address"
        }
      ],
      "stateMutability": "view",
      "type": "function"
    },
    {
      "inputs": [
        {
          "internalType": "address",
          "name": "_contractAddress",
          "type": "address"
        },
        {
          "internalType": "address",
          "name": "_protocolDataProviderAddress",
          "type": "address"
        },
        {
          "internalType": "address",
          "name": "_tokenAddress",
          "type": "address"
        }
      ],
      "name": "getTokenBalances",
      "outputs": [
        {
          "internalType": "uint256",
          "name": "",
          "type": "uint256"
        },
        {
          "internalType": "uint256",
          "name": "",
          "type": "uint256"
        },
        {
          "internalType": "uint256",
          "name": "",
          "type": "uint256"
        }
      ],
      "stateMutability": "view",
      "type": "function"
    },
    {
      "inputs": [
        {
          "internalType": "address",
          "name": "_protocolDataProviderAddress",
          "type": "address"
        },
        {
          "internalType": "address",
          "name": "_tokenAddress",
          "type": "address"
        }
      ],
      "name": "getLTV",
      "outputs": [
        {
          "internalType": "uint256",
          "name": "",
          "type": "uint256"
        }
      ],
      "stateMutability": "view",
      "type": "function"
    },
    {
      "inputs": [
        {
          "internalType": "address",
          "name": "_contractAddress",
          "type": "address"
        },
        {
          "internalType": "address",
          "name": "_protocolDataProviderAddress",
          "type": "address"
        },
        {
          "internalType": "int256",
          "name": "_aggregateDelta",
          "type": "int256"
        },
        {
          "internalType": "address",
          "name": "_underlyingAddress",
          "type": "address"
        },
        {
          "internalType": "bool",
          "name": "_useVariableRate",
          "type": "bool"
        }
      ],
      "name": "getLoanTrade",
      "outputs": [
        {
          "internalType": "int256",
          "name": "_loanChange",
          "type": "int256"
        },
        {
          "internalType": "uint256",
          "name": "_targetLoan",
          "type": "uint256"
        },
        {
          "internalType": "address",
          "name": "_loanAddress",
          "type": "address"
        }
      ],
      "stateMutability": "view",
      "type": "function"
    },
    {
      "inputs": [
        {
          "internalType": "address",
          "name": "_contractAddress",
          "type": "address"
        },
        {
          "internalType": "address",
          "name": "_protocolDataProviderAddress",
          "type": "address"
        },
        {
          "internalType": "uint256",
          "name": "_targetLoan",
          "type": "uint256"
        },
        {
          "internalType": "uint256",
          "name": "_price",
          "type": "uint256"
        },
        {
          "internalType": "address",
          "name": "_fundingAddress",
          "type": "address"
        },
        {
          "internalType": "address",
          "name": "_underlyingAddress",
          "type": "address"
        }
      ],
      "name": "getCollateralTrade",
      "outputs": [
        {
          "internalType": "int256",
          "name": "_collateralChange",
          "type": "int256"
        },
        {
          "internalType": "address",
          "name": "_collateralAddress",
          "type": "address"
        }
      ],
      "stateMutability": "view",
      "type": "function"
    },
    {
      "inputs": [
        {
          "internalType": "address",
          "name": "_contractAddress",
          "type": "address"
        },
        {
          "internalType": "int256",
          "name": "_aggregateDelta",
          "type": "int256"
        },
        {
          "internalType": "address",
          "name": "_underlyingAddress",
          "type": "address"
        }
      ],
      "name": "getSwapTrade",
      "outputs": [
        {
          "internalType": "int256",
          "name": "_underlyingChange",
          "type": "int256"
        }
      ],
      "stateMutability": "view",
      "type": "function"
    },
    {
      "inputs": [
        {
          "internalType": "address",
          "name": "_tokenAddress",
          "type": "address"
        },
        {
          "internalType": "address",
          "name": "_accountAddress",
          "type": "address"
        }
      ],
      "name": "balanceDef",
      "outputs": [
        {
          "internalType": "uint256",
          "name": "",
          "type": "uint256"
        }
      ],
      "stateMutability": "view",
      "type": "function"
    },
    {
      "inputs": [
        {
          "internalType": "uint256",
          "name": "_amount",
          "type": "uint256"
        },
        {
          "internalType": "address",
          "name": "_tokenAddress",
          "type": "address"
        }
      ],
      "name": "cvtDef",
      "outputs": [
        {
          "internalType": "uint256",
          "name": "",
          "type": "uint256"
        }
      ],
      "stateMutability": "view",
      "type": "function"
    },
    {
      "inputs": [
        {
          "internalType": "uint256",
          "name": "_amount",
          "type": "uint256"
        },
        {
          "internalType": "address",
          "name": "_tokenAddress",
          "type": "address"
        }
      ],
      "name": "cvtDecimals",
      "outputs": [
        {
          "internalType": "uint256",
          "name": "",
          "type": "uint256"
        }
      ],
      "stateMutability": "view",
      "type": "function"
    },
    {
      "inputs": [
        {
          "internalType": "int256",
          "name": "_amount",
          "type": "int256"
        },
        {
          "internalType": "address",
          "name": "_tokenAddress",
          "type": "address"
        }
      ],
      "name": "cvtDecimalsInt",
      "outputs": [
        {
          "internalType": "int256",
          "name": "_newAmount",
          "type": "int256"
        }
      ],
      "stateMutability": "view",
      "type": "function"
    },
    {
      "inputs": [
        {
          "internalType": "int256",
          "name": "_underlyingAmt",
          "type": "int256"
        },
        {
          "internalType": "int256",
          "name": "_fundingAmt",
          "type": "int256"
        },
        {
          "internalType": "address",
          "name": "_underlyingAddress",
          "type": "address"
        },
        {
          "internalType": "address",
          "name": "_fundingAddress",
          "type": "address"
        }
      ],
      "name": "cleanTradeAmounts",
      "outputs": [
        {
          "internalType": "uint256",
          "name": "_fromAmount",
          "type": "uint256"
        },
        {
          "internalType": "uint256",
          "name": "_toAmount",
          "type": "uint256"
        },
        {
          "internalType": "address",
          "name": "_fromAddress",
          "type": "address"
        },
        {
          "internalType": "address",
          "name": "_toAddress",
          "type": "address"
        }
      ],
      "stateMutability": "pure",
      "type": "function"
    }
  ],
  "bytecode": "0x6117a5610053600b82828239805160001a607314610046577f4e487b7100000000000000000000000000000000000000000000000000000000600052600060045260246000fd5b30600052607381538281f3fe73000000000000000000000000000000000000000030146080604052600436106100b35760003560e01c80638684fd281161007b5780638684fd28146101ae578063aa5c12c7146101e0578063b076288a14610210578063cfb94def14610242578063eea2526b14610272578063f0742a25146102a2576100b3565b806312638d3a146100b857806332c21e13146100e9578063680f43b11461011b5780638170ce801461014b578063865c99841461017b575b600080fd5b6100d260048036038101906100cd9190610de1565b6102d2565b6040516100e0929190610e96565b60405180910390f35b61010360048036038101906100fe9190610ebf565b610412565b60405161011293929190610f21565b60405180910390f35b61013560048036038101906101309190610f58565b61046f565b6040516101429190610f98565b60405180910390f35b61016560048036038101906101609190610fb3565b6105a0565b6040516101729190610f98565b60405180910390f35b6101956004803603810190610190919061101f565b6106b0565b6040516101a59493929190611086565b60405180910390f35b6101c860048036038101906101c39190610f58565b61071f565b6040516101d7939291906110cb565b60405180910390f35b6101fa60048036038101906101f59190611102565b6107bf565b6040516102079190611142565b60405180910390f35b61022a60048036038101906102259190611195565b610808565b60405161023993929190611210565b60405180910390f35b61025c60048036038101906102579190611247565b6108f4565b6040516102699190611142565b60405180910390f35b61028c60048036038101906102879190610f58565b6109a4565b6040516102999190610f98565b60405180910390f35b6102bc60048036038101906102b79190610fb3565b610b3c565b6040516102c99190610f98565b60405180910390f35b6000808673ffffffffffffffffffffffffffffffffffffffff1663d2493b6c856040518263ffffffff1660e01b815260040161030e91906112a9565b60606040518083038186803b15801561032657600080fd5b505afa15801561033a573d6000803e3d6000fd5b505050506040513d601f19601f8201168201806040525081019061035e91906112d9565b905050809150506000610371888561046f565b9050600061037f838b6109a4565b9050600061038e898985610c4c565b9050600061039c888d6109a4565b905082816103aa919061135b565b8211156103ec576040517f08c379a00000000000000000000000000000000000000000000000000000000081526004016103e39061140e565b60405180910390fd5b61040183836103fb919061142e565b866107bf565b955050505050965096945050505050565b600080600080600080610425888861071f565b925092509250610435878a6109a4565b61043f848b6109a4565b610449838c6109a4565b610453858d6109a4565b61045d919061135b565b95509550955050505093509350939050565b60008083905060008173ffffffffffffffffffffffffffffffffffffffff16633e150141856040518263ffffffff1660e01b81526004016104b091906112a9565b6101406040518083038186803b1580156104c957600080fd5b505afa1580156104dd573d6000803e3d6000fd5b505050506040513d601f19601f8201168201806040525081019061050191906114ec565b505050505050505091505073__OptionLibrary_________________________63bde840ed8260046040518363ffffffff1660e01b8152600401610546929190611610565b60206040518083038186803b15801561055e57600080fd5b505af4158015610572573d6000803e3d6000fd5b505050506040513d601f19601f820116820180604052508101906105969190611639565b9250505092915050565b600073__OptionLibrary_________________________63092f957a848473ffffffffffffffffffffffffffffffffffffffff1663313ce5676040518163ffffffff1660e01b815260040160206040518083038186803b15801561060357600080fd5b505afa158015610617573d6000803e3d6000fd5b505050506040513d601f19601f8201168201806040525081019061063b919061169f565b6040518363ffffffff1660e01b81526004016106589291906116fd565b60206040518083038186803b15801561067057600080fd5b505af4158015610684573d6000803e3d6000fd5b505050506040513d601f19601f820116820180604052508101906106a89190611639565b905092915050565b60008060008060009350600092508491508590506000881380156106d45750600087125b156106e957866106e390611726565b93508792505b6000881280156106f95750600087135b15610714578761070890611726565b93508591508692508490505b945094509450949050565b6000806000808590508073ffffffffffffffffffffffffffffffffffffffff1663d2493b6c866040518263ffffffff1660e01b815260040161076191906112a9565b60606040518083038186803b15801561077957600080fd5b505afa15801561078d573d6000803e3d6000fd5b505050506040513d601f19601f820116820180604052508101906107b191906112d9565b935093509350509250925092565b600082905060008313156107da576107d783836105a0565b90505b6000831215610802576107f6836107f090611726565b836105a0565b6107ff90611726565b90505b92915050565b60008060008060008873ffffffffffffffffffffffffffffffffffffffff1663d2493b6c886040518263ffffffff1660e01b815260040161084991906112a9565b60606040518083038186803b15801561086157600080fd5b505afa158015610875573d6000803e3d6000fd5b505050506040513d601f19601f8201168201806040525081019061089991906112d9565b9250925050856108a957816108ab565b805b925060006108b9848c6109a4565b905060008912156108d357886108ce90611726565b6108d6565b60005b945080856108e4919061142e565b9550505050955095509592505050565b60008173ffffffffffffffffffffffffffffffffffffffff166370a08231856040518263ffffffff1660e01b815260040161092f91906112a9565b60206040518083038186803b15801561094757600080fd5b505afa15801561095b573d6000803e3d6000fd5b505050506040513d601f19601f8201168201806040525081019061097f9190611639565b600084121561098f576000610991565b835b61099b919061142e565b90509392505050565b600073__OptionLibrary_________________________63bde840ed8473ffffffffffffffffffffffffffffffffffffffff166370a08231856040518263ffffffff1660e01b81526004016109f991906112a9565b60206040518083038186803b158015610a1157600080fd5b505afa158015610a25573d6000803e3d6000fd5b505050506040513d601f19601f82011682018060405250810190610a499190611639565b8573ffffffffffffffffffffffffffffffffffffffff1663313ce5676040518163ffffffff1660e01b815260040160206040518083038186803b158015610a8f57600080fd5b505afa158015610aa3573d6000803e3d6000fd5b505050506040513d601f19601f82011682018060405250810190610ac7919061169f565b6040518363ffffffff1660e01b8152600401610ae49291906116fd565b60206040518083038186803b158015610afc57600080fd5b505af4158015610b10573d6000803e3d6000fd5b505050506040513d601f19601f82011682018060405250810190610b349190611639565b905092915050565b600073__OptionLibrary_________________________63bde840ed848473ffffffffffffffffffffffffffffffffffffffff1663313ce5676040518163ffffffff1660e01b815260040160206040518083038186803b158015610b9f57600080fd5b505afa158015610bb3573d6000803e3d6000fd5b505050506040513d601f19601f82011682018060405250810190610bd7919061169f565b6040518363ffffffff1660e01b8152600401610bf49291906116fd565b60206040518083038186803b158015610c0c57600080fd5b505af4158015610c20573d6000803e3d6000fd5b505050506040513d601f19601f82011682018060405250810190610c449190611639565b905092915050565b600080600080198587098587029250828110838203039150506000811415610c875760008411610c7b57600080fd5b83820492505050610d41565b808411610c9357600080fd5b60008486880990508281118203915080830392506000856001877fffffffffffffffffffffffffffffffffffffffffffffffffffffffffffffffff0301169050808604955080840493506001818260000304019050808302841793506000600287600302189050808702600203810290508087026002038102905080870260020381029050808702600203810290508087026002038102905080870260020381029050808502955050505050505b9392505050565b600080fd5b600073ffffffffffffffffffffffffffffffffffffffff82169050919050565b6000610d7882610d4d565b9050919050565b610d8881610d6d565b8114610d9357600080fd5b50565b600081359050610da581610d7f565b92915050565b6000819050919050565b610dbe81610dab565b8114610dc957600080fd5b50565b600081359050610ddb81610db5565b92915050565b60008060008060008060c08789031215610dfe57610dfd610d48565b5b6000610e0c89828a01610d96565b9650506020610e1d89828a01610d96565b9550506040610e2e89828a01610dcc565b9450506060610e3f89828a01610dcc565b9350506080610e5089828a01610d96565b92505060a0610e6189828a01610d96565b9150509295509295509295565b6000819050919050565b610e8181610e6e565b82525050565b610e9081610d6d565b82525050565b6000604082019050610eab6000830185610e78565b610eb86020830184610e87565b9392505050565b600080600060608486031215610ed857610ed7610d48565b5b6000610ee686828701610d96565b9350506020610ef786828701610d96565b9250506040610f0886828701610d96565b9150509250925092565b610f1b81610dab565b82525050565b6000606082019050610f366000830186610f12565b610f436020830185610f12565b610f506040830184610f12565b949350505050565b60008060408385031215610f6f57610f6e610d48565b5b6000610f7d85828601610d96565b9250506020610f8e85828601610d96565b9150509250929050565b6000602082019050610fad6000830184610f12565b92915050565b60008060408385031215610fca57610fc9610d48565b5b6000610fd885828601610dcc565b9250506020610fe985828601610d96565b9150509250929050565b610ffc81610e6e565b811461100757600080fd5b50565b60008135905061101981610ff3565b92915050565b6000806000806080858703121561103957611038610d48565b5b60006110478782880161100a565b94505060206110588782880161100a565b935050604061106987828801610d96565b925050606061107a87828801610d96565b91505092959194509250565b600060808201905061109b6000830187610f12565b6110a86020830186610f12565b6110b56040830185610e87565b6110c26060830184610e87565b95945050505050565b60006060820190506110e06000830186610e87565b6110ed6020830185610e87565b6110fa6040830184610e87565b949350505050565b6000806040838503121561111957611118610d48565b5b60006111278582860161100a565b925050602061113885828601610d96565b9150509250929050565b60006020820190506111576000830184610e78565b92915050565b60008115159050919050565b6111728161115d565b811461117d57600080fd5b50565b60008135905061118f81611169565b92915050565b600080600080600060a086880312156111b1576111b0610d48565b5b60006111bf88828901610d96565b95505060206111d088828901610d96565b94505060406111e18882890161100a565b93505060606111f288828901610d96565b925050608061120388828901611180565b9150509295509295909350565b60006060820190506112256000830186610e78565b6112326020830185610f12565b61123f6040830184610e87565b949350505050565b6000806000606084860312156112605761125f610d48565b5b600061126e86828701610d96565b935050602061127f8682870161100a565b925050604061129086828701610d96565b9150509250925092565b6112a381610d6d565b82525050565b60006020820190506112be600083018461129a565b92915050565b6000815190506112d381610d7f565b92915050565b6000806000606084860312156112f2576112f1610d48565b5b6000611300868287016112c4565b9350506020611311868287016112c4565b9250506040611322868287016112c4565b9150509250925092565b7f4e487b7100000000000000000000000000000000000000000000000000000000600052601160045260246000fd5b600061136682610dab565b915061137183610dab565b9250827fffffffffffffffffffffffffffffffffffffffffffffffffffffffffffffffff038211156113a6576113a561132c565b5b828201905092915050565b600082825260208201905092915050565b7f496e73756666696369656e7420636f6c6c61746572616c3b0000000000000000600082015250565b60006113f86018836113b1565b9150611403826113c2565b602082019050919050565b60006020820190508181036000830152611427816113eb565b9050919050565b600061143982610e6e565b915061144483610e6e565b9250827f80000000000000000000000000000000000000000000000000000000000000000182126000841215161561147f5761147e61132c565b5b827f7fffffffffffffffffffffffffffffffffffffffffffffffffffffffffffffff0182136000841216156114b7576114b661132c565b5b828203905092915050565b6000815190506114d181610db5565b92915050565b6000815190506114e681611169565b92915050565b6000806000806000806000806000806101408b8d0312156115105761150f610d48565b5b600061151e8d828e016114c2565b9a5050602061152f8d828e016114c2565b99505060406115408d828e016114c2565b98505060606115518d828e016114c2565b97505060806115628d828e016114c2565b96505060a06115738d828e016114d7565b95505060c06115848d828e016114d7565b94505060e06115958d828e016114d7565b9350506101006115a78d828e016114d7565b9250506101206115b98d828e016114d7565b9150509295989b9194979a5092959850565b6000819050919050565b6000819050919050565b60006115fa6115f56115f0846115cb565b6115d5565b610dab565b9050919050565b61160a816115df565b82525050565b60006040820190506116256000830185610f12565b6116326020830184611601565b9392505050565b60006020828403121561164f5761164e610d48565b5b600061165d848285016114c2565b91505092915050565b600060ff82169050919050565b61167c81611666565b811461168757600080fd5b50565b60008151905061169981611673565b92915050565b6000602082840312156116b5576116b4610d48565b5b60006116c38482850161168a565b91505092915050565b60006116e76116e26116dd84611666565b6115d5565b610dab565b9050919050565b6116f7816116cc565b82525050565b60006040820190506117126000830185610f12565b61171f60208301846116ee565b9392505050565b600061173182610e6e565b91507f80000000000000000000000000000000000000000000000000000000000000008214156117645761176361132c565b5b81600003905091905056fea2646970667358221220bc0d082e7390fa30424afb749a6be4d93e597d9e87804c8eccbe62f595b8153264736f6c63430008090033",
  "immutableReferences": {},
  "source": "// SPDX-License-Identifier: MIT\npragma solidity 0.8.9;\n\nimport \"./MoretInterfaces.sol\";\nimport \"@openzeppelin/contracts/utils/math/Math.sol\";\nimport \"@openzeppelin/contracts/token/ERC20/ERC20.sol\";\nimport \"./FullMath.sol\";\nimport \"./OptionLibrary.sol\";\n\nlibrary MarketLibrary {\n  \n  function getLendingTokenAddresses(address _protocolDataProviderAddress, address _tokenAddress)\n  public view returns (address, address, address){\n    IProtocolDataProvider _protocolDataProvider = IProtocolDataProvider(_protocolDataProviderAddress);\n    return  _protocolDataProvider.getReserveTokensAddresses(_tokenAddress);}\n\n  function getTokenBalances(address _contractAddress, address _protocolDataProviderAddress, address _tokenAddress) public view returns(uint256, uint256, uint256) {\n    (address _aToken, address _stableLoan, address _variableLoan) = getLendingTokenAddresses(_protocolDataProviderAddress, _tokenAddress);\n    return (balanceDef(_tokenAddress, _contractAddress), balanceDef(_aToken, _contractAddress),balanceDef(_stableLoan, _contractAddress) + balanceDef(_variableLoan, _contractAddress)); }\n\n  function getLTV(address _protocolDataProviderAddress, address _tokenAddress) public view returns (uint256) {\n    IProtocolDataProvider _protocolDataProvider = IProtocolDataProvider(_protocolDataProviderAddress);\n    (, uint256 _ltv, ,,,,,,, ) = _protocolDataProvider.getReserveConfigurationData(_tokenAddress);\n    return OptionLibrary.ToDefaultDecimals(_ltv, 4); } \n    \n  function getLoanTrade(address _contractAddress, address _protocolDataProviderAddress, int256 _aggregateDelta, address _underlyingAddress, bool _useVariableRate) public view returns(int256 _loanChange, uint256 _targetLoan, address _loanAddress){\n    ( , address _stableLoanAddress,  address _variableLoanAddress) = IProtocolDataProvider(_protocolDataProviderAddress).getReserveTokensAddresses(_underlyingAddress);\n    _loanAddress = _useVariableRate? _variableLoanAddress: _stableLoanAddress;\n    uint256 _debtBalance = balanceDef(_loanAddress, _contractAddress);\n    _targetLoan = _aggregateDelta >=0 ? 0: uint256(-_aggregateDelta);\n    _loanChange = int256(_targetLoan) - int256(_debtBalance);}\n  \n  function getCollateralTrade(address _contractAddress, address _protocolDataProviderAddress, uint256 _targetLoan, uint256 _price, address _fundingAddress, address _underlyingAddress) public view returns(int256 _collateralChange, address _collateralAddress) {\n    (_collateralAddress, , ) = IProtocolDataProvider(_protocolDataProviderAddress).getReserveTokensAddresses(_fundingAddress);\n    uint256 _ltv = getLTV(_protocolDataProviderAddress, _underlyingAddress);\n    uint256 _collateralBalance = balanceDef(_collateralAddress, _contractAddress);\n    uint256 _requiredCollateral = MulDiv(_targetLoan, _price , _ltv);\n    uint256 _fundingBalance = balanceDef(_fundingAddress, _contractAddress);\n    require(_requiredCollateral<= (_fundingBalance + _collateralBalance), \"Insufficient collateral;\");\n    _collateralChange =  cvtDecimalsInt(int256(_requiredCollateral) - int256(_collateralBalance), _collateralAddress) ;}\n\n  function getSwapTrade(address _contractAddress, int256 _aggregateDelta, address _underlyingAddress) public view returns (int256 _underlyingChange){\n    _underlyingChange = (_aggregateDelta >=0 ? _aggregateDelta: int256(0)) - int256(IERC20(_underlyingAddress).balanceOf(_contractAddress));}\n\n  function balanceDef(address _tokenAddress, address _accountAddress) public view returns(uint256){\n    return OptionLibrary.ToDefaultDecimals(ERC20(_tokenAddress).balanceOf(_accountAddress), ERC20(_tokenAddress).decimals());}\n\n  function cvtDef(uint256 _amount, address _tokenAddress) public view returns(uint256){\n    return OptionLibrary.ToDefaultDecimals(_amount, ERC20(_tokenAddress).decimals());}\n\n  function cvtDecimals(uint256 _amount, address _tokenAddress) public view returns(uint256){\n    return OptionLibrary.ToCustomDecimals(_amount, ERC20(_tokenAddress).decimals());}\n\n  function cvtDecimalsInt(int256 _amount, address _tokenAddress) public view returns(int256 _newAmount){\n    _newAmount = _amount;\n    if(_amount > 0) _newAmount = int256(cvtDecimals(uint256(_amount), _tokenAddress));\n    if(_amount < 0) _newAmount = -int256(cvtDecimals(uint256(-_amount), _tokenAddress));}\n  \n  function cleanTradeAmounts(int256 _underlyingAmt, int256 _fundingAmt, address _underlyingAddress, address _fundingAddress) public pure returns(uint256 _fromAmount, uint256 _toAmount, address _fromAddress, address _toAddress){\n    _fromAmount = 0;\n    _toAmount = 0;\n    _fromAddress = _fundingAddress;\n    _toAddress = _underlyingAddress;\n    if(_underlyingAmt > 0 && _fundingAmt < 0){\n      _fromAmount = uint256(-_fundingAmt);\n      _toAmount = uint256(_underlyingAmt);}\n    if(_underlyingAmt < 0 && _fundingAmt> 0){\n      _fromAmount = uint256(-_underlyingAmt);\n      _fromAddress = _underlyingAddress;\n      _toAmount = uint256(_fundingAmt);\n      _toAddress = _fundingAddress;}}\n}\n",
  "sourcePath": "/Users/apple/Documents/GitHub/moret/contracts/MarketLibrary.sol",
  "compiler": {
    "name": "solc",
    "version": "0.8.9+commit.e5eed63a.Emscripten.clang"
  },
  "schemaVersion": "3.4.3",
  "updatedAt": "2021-11-22T18:04:25.746Z",
  "devdoc": {
    "kind": "dev",
    "methods": {},
    "version": 1
  },
  "userdoc": {
    "kind": "user",
    "methods": {},
    "version": 1
  }
}