{
  "contractName": "MarketLibrary",
  "abi": [
    {
      "inputs": [
        {
          "internalType": "address",
          "name": "_lendingPoolAddressProviderAddress",
          "type": "address"
        },
        {
          "internalType": "address",
          "name": "_tokenAddress",
          "type": "address"
        }
      ],
      "name": "getLendingTokenAddresses",
      "outputs": [
        {
          "internalType": "address",
          "name": "",
          "type": "address"
        },
        {
          "internalType": "address",
          "name": "",
          "type": "address"
        },
        {
          "internalType": "address",
          "name": "",
          "type": "address"
        }
      ],
      "stateMutability": "view",
      "type": "function"
    },
    {
      "inputs": [
        {
          "internalType": "address",
          "name": "_contractAddress",
          "type": "address"
        },
        {
          "internalType": "address",
          "name": "_lendingPoolAddressProviderAddress",
          "type": "address"
        },
        {
          "internalType": "address",
          "name": "_tokenAddress",
          "type": "address"
        }
      ],
      "name": "calcBalancesIncDebt",
      "outputs": [
        {
          "internalType": "uint256",
          "name": "",
          "type": "uint256"
        }
      ],
      "stateMutability": "view",
      "type": "function"
    },
    {
      "inputs": [
        {
          "internalType": "address",
          "name": "_lendingPoolAddressProviderAddress",
          "type": "address"
        },
        {
          "internalType": "address",
          "name": "_tokenAddress",
          "type": "address"
        }
      ],
      "name": "getLTV",
      "outputs": [
        {
          "internalType": "uint256",
          "name": "",
          "type": "uint256"
        },
        {
          "internalType": "uint256",
          "name": "",
          "type": "uint256"
        }
      ],
      "stateMutability": "view",
      "type": "function"
    },
    {
      "inputs": [
        {
          "internalType": "int256",
          "name": "_targetBalances",
          "type": "int256"
        },
        {
          "internalType": "address",
          "name": "_contractAddress",
          "type": "address"
        },
        {
          "internalType": "address",
          "name": "_lendingPoolAddressProviderAddress",
          "type": "address"
        },
        {
          "internalType": "address",
          "name": "_tokenAddress",
          "type": "address"
        }
      ],
      "name": "calcRepayOrBorrow",
      "outputs": [
        {
          "internalType": "int256",
          "name": "",
          "type": "int256"
        }
      ],
      "stateMutability": "view",
      "type": "function"
    },
    {
      "inputs": [
        {
          "internalType": "address",
          "name": "_contractAddress",
          "type": "address"
        },
        {
          "internalType": "address",
          "name": "_lendingPoolAddressProviderAddress",
          "type": "address"
        },
        {
          "internalType": "address",
          "name": "_tokenAddress",
          "type": "address"
        }
      ],
      "name": "calcWithdrawCollateral",
      "outputs": [
        {
          "internalType": "uint256",
          "name": "",
          "type": "uint256"
        }
      ],
      "stateMutability": "view",
      "type": "function"
    },
    {
      "inputs": [
        {
          "internalType": "uint256",
          "name": "_newBorrowing",
          "type": "uint256"
        },
        {
          "internalType": "address",
          "name": "_contractAddress",
          "type": "address"
        },
        {
          "internalType": "address",
          "name": "_lendingPoolAddressProviderAddress",
          "type": "address"
        },
        {
          "internalType": "address",
          "name": "_tokenAddress",
          "type": "address"
        }
      ],
      "name": "calcDepositCollateral",
      "outputs": [
        {
          "internalType": "uint256",
          "name": "",
          "type": "uint256"
        }
      ],
      "stateMutability": "view",
      "type": "function"
    }
  ],
  "bytecode": "0x611d8a610053600b82828239805160001a607314610046577f4e487b7100000000000000000000000000000000000000000000000000000000600052600060045260246000fd5b30600052607381538281f3fe730000000000000000000000000000000000000000301460806040526004361061006c5760003560e01c80632eda16d414610071578063680f43b1146100a15780638684fd28146100d2578063b6c1728b14610104578063eb119a9514610134578063f2fc993b14610164575b600080fd5b61008b60048036038101906100869190611687565b610194565b6040516100989190611915565b60405180910390f35b6100bb60048036038101906100b691906115a1565b61060b565b6040516100c9929190611964565b60405180910390f35b6100ec60048036038101906100e791906115a1565b610754565b6040516100fb939291906118de565b60405180910390f35b61011e600480360381019061011991906115e1565b610880565b60405161012b9190611949565b60405180910390f35b61014e6004803603810190610149919061171b565b610cb0565b60405161015b9190611949565b60405180910390f35b61017e600480360381019061017991906115e1565b61117d565b60405161018b9190611949565b60405180910390f35b6000806000806101a48686610754565b92509250925060008173ffffffffffffffffffffffffffffffffffffffff166370a08231896040518263ffffffff1660e01b81526004016101e591906118c3565b60206040518083038186803b1580156101fd57600080fd5b505afa158015610211573d6000803e3d6000fd5b505050506040513d601f19601f8201168201806040525081019061023591906116ee565b8373ffffffffffffffffffffffffffffffffffffffff166370a082318a6040518263ffffffff1660e01b815260040161026e91906118c3565b60206040518083038186803b15801561028657600080fd5b505afa15801561029a573d6000803e3d6000fd5b505050506040513d601f19601f820116820180604052508101906102be91906116ee565b8573ffffffffffffffffffffffffffffffffffffffff166370a082318b6040518263ffffffff1660e01b81526004016102f791906118c3565b60206040518083038186803b15801561030f57600080fd5b505afa158015610323573d6000803e3d6000fd5b505050506040513d601f19601f8201168201806040525081019061034791906116ee565b8873ffffffffffffffffffffffffffffffffffffffff166370a082318c6040518263ffffffff1660e01b815260040161038091906118c3565b60206040518083038186803b15801561039857600080fd5b505afa1580156103ac573d6000803e3d6000fd5b505050506040513d601f19601f820116820180604052508101906103d091906116ee565b6103da919061198d565b6103e4919061198d565b6103ee919061198d565b90506000806103fd898961060b565b915091506000838c12156105475761053b8c8561041a9190611b54565b8673ffffffffffffffffffffffffffffffffffffffff166370a082318e6040518263ffffffff1660e01b815260040161045391906118c3565b60206040518083038186803b15801561046b57600080fd5b505afa15801561047f573d6000803e3d6000fd5b505050506040513d601f19601f820116820180604052508101906104a391906116ee565b8873ffffffffffffffffffffffffffffffffffffffff166370a082318f6040518263ffffffff1660e01b81526004016104dc91906118c3565b60206040518083038186803b1580156104f457600080fd5b505afa158015610508573d6000803e3d6000fd5b505050506040513d601f19601f8201168201806040525081019061052c91906116ee565b610536919061198d565b6113e1565b61054490611c6e565b90505b838c13156105f9576105f66105e58a73ffffffffffffffffffffffffffffffffffffffff166370a082318e6040518263ffffffff1660e01b815260040161058e91906118c3565b60206040518083038186803b1580156105a657600080fd5b505afa1580156105ba573d6000803e3d6000fd5b505050506040513d601f19601f820116820180604052508101906105de91906116ee565b85856113fa565b858e6105f19190611be8565b6113e1565b90505b80975050505050505050949350505050565b600080600084905060008173ffffffffffffffffffffffffffffffffffffffff166321f8a7216040518163ffffffff1660e01b815260040161064c90611930565b60206040518083038186803b15801561066457600080fd5b505afa158015610678573d6000803e3d6000fd5b505050506040513d601f19601f8201168201806040525081019061069c9190611574565b90506000808273ffffffffffffffffffffffffffffffffffffffff16633e150141886040518263ffffffff1660e01b81526004016106da91906118c3565b6101406040518083038186803b1580156106f357600080fd5b505afa158015610707573d6000803e3d6000fd5b505050506040513d601f19601f8201168201806040525081019061072b9190611782565b5050505050505050915091508082600a6107459190611a36565b95509550505050509250929050565b60008060008085905060008173ffffffffffffffffffffffffffffffffffffffff166321f8a7216040518163ffffffff1660e01b815260040161079690611930565b60206040518083038186803b1580156107ae57600080fd5b505afa1580156107c2573d6000803e3d6000fd5b505050506040513d601f19601f820116820180604052508101906107e69190611574565b90508073ffffffffffffffffffffffffffffffffffffffff1663d2493b6c876040518263ffffffff1660e01b815260040161082191906118c3565b60606040518083038186803b15801561083957600080fd5b505afa15801561084d573d6000803e3d6000fd5b505050506040513d601f19601f820116820180604052508101906108719190611634565b94509450945050509250925092565b60008083905060008173ffffffffffffffffffffffffffffffffffffffff166321f8a7216040518163ffffffff1660e01b81526004016108bf90611930565b60206040518083038186803b1580156108d757600080fd5b505afa1580156108eb573d6000803e3d6000fd5b505050506040513d601f19601f8201168201806040525081019061090f9190611574565b905060008060008373ffffffffffffffffffffffffffffffffffffffff1663d2493b6c886040518263ffffffff1660e01b815260040161094f91906118c3565b60606040518083038186803b15801561096757600080fd5b505afa15801561097b573d6000803e3d6000fd5b505050506040513d601f19601f8201168201806040525081019061099f9190611634565b9250925092506000808573ffffffffffffffffffffffffffffffffffffffff16633e1501418a6040518263ffffffff1660e01b81526004016109e191906118c3565b6101406040518083038186803b1580156109fa57600080fd5b505afa158015610a0e573d6000803e3d6000fd5b505050506040513d601f19601f82011682018060405250810190610a329190611782565b5050505050505050915091506000610b728473ffffffffffffffffffffffffffffffffffffffff166370a082318e6040518263ffffffff1660e01b8152600401610a7c91906118c3565b60206040518083038186803b158015610a9457600080fd5b505afa158015610aa8573d6000803e3d6000fd5b505050506040513d601f19601f82011682018060405250810190610acc91906116ee565b8673ffffffffffffffffffffffffffffffffffffffff166370a082318f6040518263ffffffff1660e01b8152600401610b0591906118c3565b60206040518083038186803b158015610b1d57600080fd5b505afa158015610b31573d6000803e3d6000fd5b505050506040513d601f19601f82011682018060405250810190610b5591906116ee565b610b5f919061198d565b84600a610b6c9190611a36565b846113fa565b9050808673ffffffffffffffffffffffffffffffffffffffff166370a082318e6040518263ffffffff1660e01b8152600401610bae91906118c3565b60206040518083038186803b158015610bc657600080fd5b505afa158015610bda573d6000803e3d6000fd5b505050506040513d601f19601f82011682018060405250810190610bfe91906116ee565b11610c0a576000610c9f565b808673ffffffffffffffffffffffffffffffffffffffff166370a082318e6040518263ffffffff1660e01b8152600401610c4491906118c3565b60206040518083038186803b158015610c5c57600080fd5b505afa158015610c70573d6000803e3d6000fd5b505050506040513d601f19601f82011682018060405250810190610c9491906116ee565b610c9e9190611be8565b5b985050505050505050509392505050565b60008083905060008173ffffffffffffffffffffffffffffffffffffffff166321f8a7216040518163ffffffff1660e01b8152600401610cef90611930565b60206040518083038186803b158015610d0757600080fd5b505afa158015610d1b573d6000803e3d6000fd5b505050506040513d601f19601f82011682018060405250810190610d3f9190611574565b905060008060008373ffffffffffffffffffffffffffffffffffffffff1663d2493b6c886040518263ffffffff1660e01b8152600401610d7f91906118c3565b60606040518083038186803b158015610d9757600080fd5b505afa158015610dab573d6000803e3d6000fd5b505050506040513d601f19601f82011682018060405250810190610dcf9190611634565b9250925092506000808573ffffffffffffffffffffffffffffffffffffffff16633e1501418a6040518263ffffffff1660e01b8152600401610e1191906118c3565b6101406040518083038186803b158015610e2a57600080fd5b505afa158015610e3e573d6000803e3d6000fd5b505050506040513d601f19601f82011682018060405250810190610e629190611782565b5050505050505050915091506000610fad8473ffffffffffffffffffffffffffffffffffffffff166370a082318e6040518263ffffffff1660e01b8152600401610eac91906118c3565b60206040518083038186803b158015610ec457600080fd5b505afa158015610ed8573d6000803e3d6000fd5b505050506040513d601f19601f82011682018060405250810190610efc91906116ee565b8673ffffffffffffffffffffffffffffffffffffffff166370a082318f6040518263ffffffff1660e01b8152600401610f3591906118c3565b60206040518083038186803b158015610f4d57600080fd5b505afa158015610f61573d6000803e3d6000fd5b505050506040513d601f19601f82011682018060405250810190610f8591906116ee565b8f610f90919061198d565b610f9a919061198d565b84600a610fa79190611a36565b846113fa565b9050808673ffffffffffffffffffffffffffffffffffffffff166370a082318e6040518263ffffffff1660e01b8152600401610fe991906118c3565b60206040518083038186803b15801561100157600080fd5b505afa158015611015573d6000803e3d6000fd5b505050506040513d601f19601f8201168201806040525081019061103991906116ee565b1061104557600061116b565b61116a8a73ffffffffffffffffffffffffffffffffffffffff166370a082318e6040518263ffffffff1660e01b815260040161108191906118c3565b60206040518083038186803b15801561109957600080fd5b505afa1580156110ad573d6000803e3d6000fd5b505050506040513d601f19601f820116820180604052508101906110d191906116ee565b8773ffffffffffffffffffffffffffffffffffffffff166370a082318f6040518263ffffffff1660e01b815260040161110a91906118c3565b60206040518083038186803b15801561112257600080fd5b505afa158015611136573d6000803e3d6000fd5b505050506040513d601f19601f8201168201806040525081019061115a91906116ee565b836111659190611be8565b6113e1565b5b98505050505050505050949350505050565b60008060008061118d8686610754565b9250925092508073ffffffffffffffffffffffffffffffffffffffff166370a08231886040518263ffffffff1660e01b81526004016111cc91906118c3565b60206040518083038186803b1580156111e457600080fd5b505afa1580156111f8573d6000803e3d6000fd5b505050506040513d601f19601f8201168201806040525081019061121c91906116ee565b8273ffffffffffffffffffffffffffffffffffffffff166370a08231896040518263ffffffff1660e01b815260040161125591906118c3565b60206040518083038186803b15801561126d57600080fd5b505afa158015611281573d6000803e3d6000fd5b505050506040513d601f19601f820116820180604052508101906112a591906116ee565b8473ffffffffffffffffffffffffffffffffffffffff166370a082318a6040518263ffffffff1660e01b81526004016112de91906118c3565b60206040518083038186803b1580156112f657600080fd5b505afa15801561130a573d6000803e3d6000fd5b505050506040513d601f19601f8201168201806040525081019061132e91906116ee565b8773ffffffffffffffffffffffffffffffffffffffff166370a082318b6040518263ffffffff1660e01b815260040161136791906118c3565b60206040518083038186803b15801561137f57600080fd5b505afa158015611393573d6000803e3d6000fd5b505050506040513d601f19601f820116820180604052508101906113b791906116ee565b6113c1919061198d565b6113cb919061198d565b6113d5919061198d565b93505050509392505050565b60008183106113f057816113f2565b825b905092915050565b600080600080198587098587029250828110838203039150506000811415611435576000841161142957600080fd5b838204925050506114ef565b80841161144157600080fd5b60008486880990508281118203915080830392506000856001877fffffffffffffffffffffffffffffffffffffffffffffffffffffffffffffffff0301169050808604955080840493506001818260000304019050808302841793506000600287600302189050808702600203810290508087026002038102905080870260020381029050808702600203810290508087026002038102905080870260020381029050808502955050505050505b9392505050565b60008135905061150581611cf8565b92915050565b60008151905061151a81611cf8565b92915050565b60008151905061152f81611d0f565b92915050565b60008135905061154481611d26565b92915050565b60008135905061155981611d3d565b92915050565b60008151905061156e81611d3d565b92915050565b60006020828403121561158a57611589611ce6565b5b60006115988482850161150b565b91505092915050565b600080604083850312156115b8576115b7611ce6565b5b60006115c6858286016114f6565b92505060206115d7858286016114f6565b9150509250929050565b6000806000606084860312156115fa576115f9611ce6565b5b6000611608868287016114f6565b9350506020611619868287016114f6565b925050604061162a868287016114f6565b9150509250925092565b60008060006060848603121561164d5761164c611ce6565b5b600061165b8682870161150b565b935050602061166c8682870161150b565b925050604061167d8682870161150b565b9150509250925092565b600080600080608085870312156116a1576116a0611ce6565b5b60006116af87828801611535565b94505060206116c0878288016114f6565b93505060406116d1878288016114f6565b92505060606116e2878288016114f6565b91505092959194509250565b60006020828403121561170457611703611ce6565b5b60006117128482850161155f565b91505092915050565b6000806000806080858703121561173557611734611ce6565b5b60006117438782880161154a565b9450506020611754878288016114f6565b9350506040611765878288016114f6565b9250506060611776878288016114f6565b91505092959194509250565b6000806000806000806000806000806101408b8d0312156117a6576117a5611ce6565b5b60006117b48d828e0161155f565b9a505060206117c58d828e0161155f565b99505060406117d68d828e0161155f565b98505060606117e78d828e0161155f565b97505060806117f88d828e0161155f565b96505060a06118098d828e01611520565b95505060c061181a8d828e01611520565b94505060e061182b8d828e01611520565b93505061010061183d8d828e01611520565b92505061012061184f8d828e01611520565b9150509295989b9194979a5092959850565b61186a81611c1c565b82525050565b61187981611c1c565b82525050565b61188881611c3a565b82525050565b7f3078310000000000000000000000000000000000000000000000000000000000815250565b6118bd81611c64565b82525050565b60006020820190506118d86000830184611861565b92915050565b60006060820190506118f36000830186611870565b6119006020830185611870565b61190d6040830184611870565b949350505050565b600060208201905061192a600083018461187f565b92915050565b60006020820190506119446000830161188e565b919050565b600060208201905061195e60008301846118b4565b92915050565b600060408201905061197960008301856118b4565b61198660208301846118b4565b9392505050565b600061199882611c64565b91506119a383611c64565b9250827fffffffffffffffffffffffffffffffffffffffffffffffffffffffffffffffff038211156119d8576119d7611cb7565b5b828201905092915050565b6000808291508390505b6001851115611a2d57808604811115611a0957611a08611cb7565b5b6001851615611a185780820291505b8081029050611a2685611ceb565b94506119ed565b94509492505050565b6000611a4182611c64565b9150611a4c83611c64565b9250611a797fffffffffffffffffffffffffffffffffffffffffffffffffffffffffffffffff8484611a81565b905092915050565b600082611a915760019050611b4d565b81611a9f5760009050611b4d565b8160018114611ab55760028114611abf57611aee565b6001915050611b4d565b60ff841115611ad157611ad0611cb7565b5b8360020a915084821115611ae857611ae7611cb7565b5b50611b4d565b5060208310610133831016604e8410600b8410161715611b235782820a905083811115611b1e57611b1d611cb7565b5b611b4d565b611b3084848460016119e3565b92509050818404811115611b4757611b46611cb7565b5b81810290505b9392505050565b6000611b5f82611c3a565b9150611b6a83611c3a565b9250827f800000000000000000000000000000000000000000000000000000000000000001821260008412151615611ba557611ba4611cb7565b5b827f7fffffffffffffffffffffffffffffffffffffffffffffffffffffffffffffff018213600084121615611bdd57611bdc611cb7565b5b828203905092915050565b6000611bf382611c64565b9150611bfe83611c64565b925082821015611c1157611c10611cb7565b5b828203905092915050565b6000611c2782611c44565b9050919050565b60008115159050919050565b6000819050919050565b600073ffffffffffffffffffffffffffffffffffffffff82169050919050565b6000819050919050565b6000611c7982611c3a565b91507f8000000000000000000000000000000000000000000000000000000000000000821415611cac57611cab611cb7565b5b816000039050919050565b7f4e487b7100000000000000000000000000000000000000000000000000000000600052601160045260246000fd5b600080fd5b60008160011c9050919050565b611d0181611c1c565b8114611d0c57600080fd5b50565b611d1881611c2e565b8114611d2357600080fd5b50565b611d2f81611c3a565b8114611d3a57600080fd5b50565b611d4681611c64565b8114611d5157600080fd5b5056fea26469706673582212202056b408878ed52d28f83275ef791db5c765c1a7c24d453ed70c3f01b840404464736f6c63430008060033",
  "immutableReferences": {},
  "source": "/**\n * SPDX-License-Identifier: GPL-3.0-or-later\n * Moret\n * Copyright (C) 2021 Moret\n*/\n\npragma solidity ^0.8.4;\n\nimport \"./MarketInterfaces.sol\";\nimport \"@openzeppelin/contracts/utils/math/Math.sol\";\nimport \"./FullMath.sol\";\n\nlibrary MarketLibrary {\n  function getLendingTokenAddresses(address _lendingPoolAddressProviderAddress, address _tokenAddress)\n  public view returns (address, address, address){\n    ILendingPoolAddressesProvider _lendingPoolAddressProvider = ILendingPoolAddressesProvider(_lendingPoolAddressProviderAddress);\n    IProtocolDataProvider _protocolDataProvider = IProtocolDataProvider(_lendingPoolAddressProvider.getAddress(\"0x1\"));\n    return  _protocolDataProvider.getReserveTokensAddresses(_tokenAddress);\n  }\n\n  function calcBalancesIncDebt(address _contractAddress, address _lendingPoolAddressProviderAddress, address _tokenAddress)\n  public view returns (uint256){\n    (address _aToken, address _stableDebt, address _variableDebt) = getLendingTokenAddresses (_lendingPoolAddressProviderAddress, _tokenAddress );\n    return IERC20(_tokenAddress).balanceOf(_contractAddress) + IERC20(_aToken).balanceOf(_contractAddress) + IERC20(_stableDebt).balanceOf(_contractAddress) + IERC20(_variableDebt).balanceOf(_contractAddress);\n  }\n\n  function getLTV(address _lendingPoolAddressProviderAddress, address _tokenAddress)\n  public view returns (uint256, uint256)\n  {\n    ILendingPoolAddressesProvider _lendingPoolAddressProvider = ILendingPoolAddressesProvider(_lendingPoolAddressProviderAddress);\n    IProtocolDataProvider _protocolDataProvider = IProtocolDataProvider(_lendingPoolAddressProvider.getAddress(\"0x1\"));\n    (uint256 _reserveDecimals, uint256 _ltv, ,,,,,,, ) = _protocolDataProvider.getReserveConfigurationData(_tokenAddress);\n    return (_ltv, 10**_reserveDecimals);\n  }\n\n  // Negative for repay, positive for borrow\n  function calcRepayOrBorrow(int256 _targetBalances, address _contractAddress, address _lendingPoolAddressProviderAddress, address _tokenAddress)\n  public view returns (int256)\n  {\n    (address _aToken, address _stableDebt, address _variableDebt) = getLendingTokenAddresses(_lendingPoolAddressProviderAddress, _tokenAddress);\n    uint256 _currentBalances = IERC20(_tokenAddress).balanceOf(_contractAddress) + IERC20(_aToken).balanceOf(_contractAddress) + IERC20(_stableDebt).balanceOf(_contractAddress) + IERC20(_variableDebt).balanceOf(_contractAddress);\n    (uint256 _ltv, uint256 _ltvMultiplier) = getLTV(_lendingPoolAddressProviderAddress, _tokenAddress);\n\n    int256 _repayOrBorrow = 0;\n    if(_targetBalances < int256(_currentBalances))\n    {\n        _repayOrBorrow = -int256(Math.min(uint256(int256(_currentBalances) - _targetBalances),\n          IERC20(_stableDebt).balanceOf(address(_contractAddress)) + IERC20(_variableDebt).balanceOf(_contractAddress)));\n    }\n    if(_targetBalances > int256(_currentBalances))\n    {\n        _repayOrBorrow = int256(Math.min(MulDiv(IERC20(_tokenAddress).balanceOf(_contractAddress), _ltv, _ltvMultiplier),\n          uint256(_targetBalances) - _currentBalances));\n    }\n    return _repayOrBorrow;\n  }\n\n  function calcWithdrawCollateral(address _contractAddress, address _lendingPoolAddressProviderAddress, address _tokenAddress)\n  public view returns(uint256)\n  {\n    ILendingPoolAddressesProvider _lendingPoolAddressProvider = ILendingPoolAddressesProvider(_lendingPoolAddressProviderAddress);\n    IProtocolDataProvider _protocolDataProvider = IProtocolDataProvider(_lendingPoolAddressProvider.getAddress(\"0x1\"));\n    (address _aToken, address _stableDebt, address _variableDebt) = _protocolDataProvider.getReserveTokensAddresses(_tokenAddress);\n    (uint256 _reserveDecimals, uint256 _ltv, ,,,,,,, ) = _protocolDataProvider.getReserveConfigurationData(_tokenAddress);\n\n    uint256 _desiredCollateral = MulDiv(IERC20(_stableDebt).balanceOf(_contractAddress) + IERC20(_variableDebt).balanceOf(_contractAddress), 10 ** _reserveDecimals, _ltv);\n    return (IERC20(_aToken).balanceOf(_contractAddress) > _desiredCollateral)? (IERC20(_aToken).balanceOf(_contractAddress) - _desiredCollateral): 0;\n  }\n\n  function calcDepositCollateral(uint256 _newBorrowing, address _contractAddress, address _lendingPoolAddressProviderAddress, address _tokenAddress)\n  public view returns (uint256)\n  {\n    ILendingPoolAddressesProvider _lendingPoolAddressProvider = ILendingPoolAddressesProvider(_lendingPoolAddressProviderAddress);\n    IProtocolDataProvider _protocolDataProvider = IProtocolDataProvider(_lendingPoolAddressProvider.getAddress(\"0x1\"));\n    (address _aToken, address _stableDebt, address _variableDebt) = _protocolDataProvider.getReserveTokensAddresses(_tokenAddress);\n    (uint256 _reserveDecimals, uint256 _ltv, ,,,,,,, ) = _protocolDataProvider.getReserveConfigurationData(_tokenAddress);\n\n    uint256 _desiredCollateral = MulDiv(_newBorrowing + IERC20(_stableDebt).balanceOf(_contractAddress) + IERC20(_variableDebt).balanceOf(_contractAddress), 10 ** _reserveDecimals, _ltv);\n    return (IERC20(_aToken).balanceOf(_contractAddress) < _desiredCollateral)? Math.min(IERC20(_tokenAddress).balanceOf(_contractAddress) , _desiredCollateral - IERC20(_aToken).balanceOf(_contractAddress)): 0;\n  }\n\n}\n",
  "sourcePath": "/Users/mac/Documents/GitHub/moret/contracts/MarketLibrary.sol",
  "compiler": {
    "name": "solc",
    "version": "0.8.6+commit.11564f7e.Emscripten.clang"
  },
  "schemaVersion": "3.4.1",
  "updatedAt": "2021-07-07T22:16:49.466Z",
  "devdoc": {
    "kind": "dev",
    "methods": {},
    "version": 1
  },
  "userdoc": {
    "kind": "user",
    "methods": {},
    "version": 1
  }
}