{
  "contractName": "MarketLibrary",
  "abi": [
    {
      "inputs": [
        {
          "internalType": "address",
          "name": "_protocolDataProviderAddress",
          "type": "address"
        },
        {
          "internalType": "address",
          "name": "_tokenAddress",
          "type": "address"
        }
      ],
      "name": "getLendingTokenAddresses",
      "outputs": [
        {
          "internalType": "address",
          "name": "",
          "type": "address"
        },
        {
          "internalType": "address",
          "name": "",
          "type": "address"
        },
        {
          "internalType": "address",
          "name": "",
          "type": "address"
        }
      ],
      "stateMutability": "view",
      "type": "function",
      "constant": true
    },
    {
      "inputs": [
        {
          "internalType": "address",
          "name": "_contractAddress",
          "type": "address"
        },
        {
          "internalType": "address",
          "name": "_protocolDataProviderAddress",
          "type": "address"
        },
        {
          "internalType": "address",
          "name": "_tokenAddress",
          "type": "address"
        }
      ],
      "name": "getTokenBalances",
      "outputs": [
        {
          "internalType": "uint256",
          "name": "",
          "type": "uint256"
        },
        {
          "internalType": "uint256",
          "name": "",
          "type": "uint256"
        },
        {
          "internalType": "uint256",
          "name": "",
          "type": "uint256"
        }
      ],
      "stateMutability": "view",
      "type": "function",
      "constant": true
    },
    {
      "inputs": [
        {
          "internalType": "address",
          "name": "_protocolDataProviderAddress",
          "type": "address"
        },
        {
          "internalType": "address",
          "name": "_tokenAddress",
          "type": "address"
        }
      ],
      "name": "getLTV",
      "outputs": [
        {
          "internalType": "uint256",
          "name": "",
          "type": "uint256"
        }
      ],
      "stateMutability": "view",
      "type": "function",
      "constant": true
    },
    {
      "inputs": [
        {
          "internalType": "address",
          "name": "_contractAddress",
          "type": "address"
        },
        {
          "internalType": "address",
          "name": "_protocolDataProviderAddress",
          "type": "address"
        },
        {
          "internalType": "int256",
          "name": "_aggregateDelta",
          "type": "int256"
        },
        {
          "internalType": "address",
          "name": "_underlyingAddress",
          "type": "address"
        },
        {
          "internalType": "bool",
          "name": "_useVariableRate",
          "type": "bool"
        }
      ],
      "name": "getLoanTrade",
      "outputs": [
        {
          "internalType": "int256",
          "name": "_loanChange",
          "type": "int256"
        },
        {
          "internalType": "uint256",
          "name": "_targetLoan",
          "type": "uint256"
        },
        {
          "internalType": "address",
          "name": "_loanAddress",
          "type": "address"
        }
      ],
      "stateMutability": "view",
      "type": "function",
      "constant": true
    },
    {
      "inputs": [
        {
          "internalType": "address",
          "name": "_contractAddress",
          "type": "address"
        },
        {
          "internalType": "address",
          "name": "_protocolDataProviderAddress",
          "type": "address"
        },
        {
          "internalType": "uint256",
          "name": "_targetLoan",
          "type": "uint256"
        },
        {
          "internalType": "uint256",
          "name": "_price",
          "type": "uint256"
        },
        {
          "internalType": "address",
          "name": "_fundingAddress",
          "type": "address"
        },
        {
          "internalType": "address",
          "name": "_underlyingAddress",
          "type": "address"
        },
        {
          "internalType": "uint256",
          "name": "_overCollateral",
          "type": "uint256"
        }
      ],
      "name": "getCollateralTrade",
      "outputs": [
        {
          "internalType": "int256",
          "name": "_collateralChange",
          "type": "int256"
        },
        {
          "internalType": "address",
          "name": "_collateralAddress",
          "type": "address"
        }
      ],
      "stateMutability": "view",
      "type": "function",
      "constant": true
    },
    {
      "inputs": [
        {
          "internalType": "address",
          "name": "_contractAddress",
          "type": "address"
        },
        {
          "internalType": "int256",
          "name": "_aggregateDelta",
          "type": "int256"
        },
        {
          "internalType": "address",
          "name": "_underlyingAddress",
          "type": "address"
        }
      ],
      "name": "getSwapTrade",
      "outputs": [
        {
          "internalType": "int256",
          "name": "_underlyingChange",
          "type": "int256"
        }
      ],
      "stateMutability": "view",
      "type": "function",
      "constant": true
    },
    {
      "inputs": [
        {
          "internalType": "address",
          "name": "_tokenAddress",
          "type": "address"
        },
        {
          "internalType": "address",
          "name": "_accountAddress",
          "type": "address"
        }
      ],
      "name": "balanceDef",
      "outputs": [
        {
          "internalType": "uint256",
          "name": "",
          "type": "uint256"
        }
      ],
      "stateMutability": "view",
      "type": "function",
      "constant": true
    },
    {
      "inputs": [
        {
          "internalType": "uint256",
          "name": "_amount",
          "type": "uint256"
        },
        {
          "internalType": "address",
          "name": "_tokenAddress",
          "type": "address"
        }
      ],
      "name": "cvtDef",
      "outputs": [
        {
          "internalType": "uint256",
          "name": "",
          "type": "uint256"
        }
      ],
      "stateMutability": "view",
      "type": "function",
      "constant": true
    },
    {
      "inputs": [
        {
          "internalType": "uint256",
          "name": "_amount",
          "type": "uint256"
        },
        {
          "internalType": "address",
          "name": "_tokenAddress",
          "type": "address"
        }
      ],
      "name": "cvtDecimals",
      "outputs": [
        {
          "internalType": "uint256",
          "name": "",
          "type": "uint256"
        }
      ],
      "stateMutability": "view",
      "type": "function",
      "constant": true
    },
    {
      "inputs": [
        {
          "internalType": "int256",
          "name": "_amount",
          "type": "int256"
        },
        {
          "internalType": "address",
          "name": "_tokenAddress",
          "type": "address"
        }
      ],
      "name": "cvtDecimalsInt",
      "outputs": [
        {
          "internalType": "int256",
          "name": "_newAmount",
          "type": "int256"
        }
      ],
      "stateMutability": "view",
      "type": "function",
      "constant": true
    },
    {
      "inputs": [
        {
          "internalType": "int256",
          "name": "_underlyingAmt",
          "type": "int256"
        },
        {
          "internalType": "int256",
          "name": "_fundingAmt",
          "type": "int256"
        },
        {
          "internalType": "address",
          "name": "_underlyingAddress",
          "type": "address"
        },
        {
          "internalType": "address",
          "name": "_fundingAddress",
          "type": "address"
        }
      ],
      "name": "cleanTradeAmounts",
      "outputs": [
        {
          "internalType": "uint256",
          "name": "_fromAmount",
          "type": "uint256"
        },
        {
          "internalType": "uint256",
          "name": "_toAmount",
          "type": "uint256"
        },
        {
          "internalType": "address",
          "name": "_fromAddress",
          "type": "address"
        },
        {
          "internalType": "address",
          "name": "_toAddress",
          "type": "address"
        }
      ],
      "stateMutability": "pure",
      "type": "function",
      "constant": true
    }
  ],
  "bytecode": "0x6117dc610053600b82828239805160001a607314610046577f4e487b7100000000000000000000000000000000000000000000000000000000600052600060045260246000fd5b30600052607381538281f3fe73000000000000000000000000000000000000000030146080604052600436106100b35760003560e01c80638684fd281161007b5780638684fd28146101ae578063aa5c12c7146101e0578063b076288a14610210578063cfb94def14610242578063eea2526b14610272578063f0742a25146102a2576100b3565b806332c21e13146100b85780636198d654146100ea578063680f43b11461011b5780638170ce801461014b578063865c99841461017b575b600080fd5b6100d260048036038101906100cd9190610dcd565b6102d2565b6040516100e193929190610e39565b60405180910390f35b61010460048036038101906100ff9190610e9c565b61032f565b604051610112929190610f66565b60405180910390f35b61013560048036038101906101309190610f8f565b610545565b6040516101429190610fcf565b60405180910390f35b61016560048036038101906101609190610fea565b610658565b6040516101729190610fcf565b60405180910390f35b61019560048036038101906101909190611056565b61074a565b6040516101a594939291906110bd565b60405180910390f35b6101c860048036038101906101c39190610f8f565b6107b9565b6040516101d793929190611102565b60405180910390f35b6101fa60048036038101906101f59190611139565b61084a565b6040516102079190611179565b60405180910390f35b61022a600480360381019061022591906111cc565b610893565b60405161023993929190611247565b60405180910390f35b61025c6004803603810190610257919061127e565b610970565b6040516102699190611179565b60405180910390f35b61028c60048036038101906102879190610f8f565b610a11565b6040516102999190610fcf565b60405180910390f35b6102bc60048036038101906102b79190610fea565b610b7c565b6040516102c99190610fcf565b60405180910390f35b6000806000806000806102e588886107b9565b9250925092506102f5878a610a11565b6102ff848b610a11565b610309838c610a11565b610313858d610a11565b61031d9190611300565b95509550955050505093509350939050565b6000808773ffffffffffffffffffffffffffffffffffffffff1663d2493b6c866040518263ffffffff1660e01b815260040161036b9190611365565b606060405180830381865afa158015610388573d6000803e3d6000fd5b505050506040513d601f19601f820116820180604052508101906103ac9190611395565b9050508091505060006103bf8986610545565b905060006103cd838c610a11565b905060006104c96103df8b8b86610c6e565b73__OptionLibrary_________________________63fd9b87636040518163ffffffff1660e01b8152600401602060405180830381865af4158015610428573d6000803e3d6000fd5b505050506040513d601f19601f8201168201806040525081019061044c91906113fd565b886104579190611300565b73__OptionLibrary_________________________63fd9b87636040518163ffffffff1660e01b8152600401602060405180830381865af41580156104a0573d6000803e3d6000fd5b505050506040513d601f19601f820116820180604052508101906104c491906113fd565b610c6e565b905060006104d7898e610a11565b905082816104e59190611300565b821115610527576040517f08c379a000000000000000000000000000000000000000000000000000000000815260040161051e90611487565b60405180910390fd5b828261053391906114a7565b95505050505097509795505050505050565b60008083905060008173ffffffffffffffffffffffffffffffffffffffff16633e150141856040518263ffffffff1660e01b81526004016105869190611365565b61014060405180830381865afa1580156105a4573d6000803e3d6000fd5b505050506040513d601f19601f820116820180604052508101906105c89190611550565b505050505050505091505073__OptionLibrary_________________________63bde840ed8260046040518363ffffffff1660e01b815260040161060d929190611674565b602060405180830381865af415801561062a573d6000803e3d6000fd5b505050506040513d601f19601f8201168201806040525081019061064e91906113fd565b9250505092915050565b600073__OptionLibrary_________________________63092f957a848473ffffffffffffffffffffffffffffffffffffffff1663313ce5676040518163ffffffff1660e01b8152600401602060405180830381865afa1580156106c0573d6000803e3d6000fd5b505050506040513d601f19601f820116820180604052508101906106e491906116d6565b6040518363ffffffff1660e01b8152600401610701929190611734565b602060405180830381865af415801561071e573d6000803e3d6000fd5b505050506040513d601f19601f8201168201806040525081019061074291906113fd565b905092915050565b600080600080600093506000925084915085905060008813801561076e5750600087125b15610783578661077d9061175d565b93508792505b6000881280156107935750600087135b156107ae57876107a29061175d565b93508591508692508490505b945094509450949050565b6000806000808590508073ffffffffffffffffffffffffffffffffffffffff1663d2493b6c866040518263ffffffff1660e01b81526004016107fb9190611365565b606060405180830381865afa158015610818573d6000803e3d6000fd5b505050506040513d601f19601f8201168201806040525081019061083c9190611395565b935093509350509250925092565b60008290506000831315610865576108628383610658565b90505b600083121561088d576108818361087b9061175d565b83610658565b61088a9061175d565b90505b92915050565b60008060008060008873ffffffffffffffffffffffffffffffffffffffff1663d2493b6c886040518263ffffffff1660e01b81526004016108d49190611365565b606060405180830381865afa1580156108f1573d6000803e3d6000fd5b505050506040513d601f19601f820116820180604052508101906109159190611395565b9250925050856109255781610927565b805b92506000610935848c610a11565b9050600089121561094f578861094a9061175d565b610952565b60005b9450808561096091906114a7565b9550505050955095509592505050565b60008173ffffffffffffffffffffffffffffffffffffffff166370a08231856040518263ffffffff1660e01b81526004016109ab9190611365565b602060405180830381865afa1580156109c8573d6000803e3d6000fd5b505050506040513d601f19601f820116820180604052508101906109ec91906113fd565b60008412156109fc5760006109fe565b835b610a0891906114a7565b90509392505050565b600073__OptionLibrary_________________________63bde840ed8473ffffffffffffffffffffffffffffffffffffffff166370a08231856040518263ffffffff1660e01b8152600401610a669190611365565b602060405180830381865afa158015610a83573d6000803e3d6000fd5b505050506040513d601f19601f82011682018060405250810190610aa791906113fd565b8573ffffffffffffffffffffffffffffffffffffffff1663313ce5676040518163ffffffff1660e01b8152600401602060405180830381865afa158015610af2573d6000803e3d6000fd5b505050506040513d601f19601f82011682018060405250810190610b1691906116d6565b6040518363ffffffff1660e01b8152600401610b33929190611734565b602060405180830381865af4158015610b50573d6000803e3d6000fd5b505050506040513d601f19601f82011682018060405250810190610b7491906113fd565b905092915050565b600073__OptionLibrary_________________________63bde840ed848473ffffffffffffffffffffffffffffffffffffffff1663313ce5676040518163ffffffff1660e01b8152600401602060405180830381865afa158015610be4573d6000803e3d6000fd5b505050506040513d601f19601f82011682018060405250810190610c0891906116d6565b6040518363ffffffff1660e01b8152600401610c25929190611734565b602060405180830381865af4158015610c42573d6000803e3d6000fd5b505050506040513d601f19601f82011682018060405250810190610c6691906113fd565b905092915050565b600080600080198587098587029250828110838203039150506000811415610ca95760008411610c9d57600080fd5b83820492505050610d63565b808411610cb557600080fd5b60008486880990508281118203915080830392506000856001877fffffffffffffffffffffffffffffffffffffffffffffffffffffffffffffffff0301169050808604955080840493506001818260000304019050808302841793506000600287600302189050808702600203810290508087026002038102905080870260020381029050808702600203810290508087026002038102905080870260020381029050808502955050505050505b9392505050565b600080fd5b600073ffffffffffffffffffffffffffffffffffffffff82169050919050565b6000610d9a82610d6f565b9050919050565b610daa81610d8f565b8114610db557600080fd5b50565b600081359050610dc781610da1565b92915050565b600080600060608486031215610de657610de5610d6a565b5b6000610df486828701610db8565b9350506020610e0586828701610db8565b9250506040610e1686828701610db8565b9150509250925092565b6000819050919050565b610e3381610e20565b82525050565b6000606082019050610e4e6000830186610e2a565b610e5b6020830185610e2a565b610e686040830184610e2a565b949350505050565b610e7981610e20565b8114610e8457600080fd5b50565b600081359050610e9681610e70565b92915050565b600080600080600080600060e0888a031215610ebb57610eba610d6a565b5b6000610ec98a828b01610db8565b9750506020610eda8a828b01610db8565b9650506040610eeb8a828b01610e87565b9550506060610efc8a828b01610e87565b9450506080610f0d8a828b01610db8565b93505060a0610f1e8a828b01610db8565b92505060c0610f2f8a828b01610e87565b91505092959891949750929550565b6000819050919050565b610f5181610f3e565b82525050565b610f6081610d8f565b82525050565b6000604082019050610f7b6000830185610f48565b610f886020830184610f57565b9392505050565b60008060408385031215610fa657610fa5610d6a565b5b6000610fb485828601610db8565b9250506020610fc585828601610db8565b9150509250929050565b6000602082019050610fe46000830184610e2a565b92915050565b6000806040838503121561100157611000610d6a565b5b600061100f85828601610e87565b925050602061102085828601610db8565b9150509250929050565b61103381610f3e565b811461103e57600080fd5b50565b6000813590506110508161102a565b92915050565b600080600080608085870312156110705761106f610d6a565b5b600061107e87828801611041565b945050602061108f87828801611041565b93505060406110a087828801610db8565b92505060606110b187828801610db8565b91505092959194509250565b60006080820190506110d26000830187610e2a565b6110df6020830186610e2a565b6110ec6040830185610f57565b6110f96060830184610f57565b95945050505050565b60006060820190506111176000830186610f57565b6111246020830185610f57565b6111316040830184610f57565b949350505050565b600080604083850312156111505761114f610d6a565b5b600061115e85828601611041565b925050602061116f85828601610db8565b9150509250929050565b600060208201905061118e6000830184610f48565b92915050565b60008115159050919050565b6111a981611194565b81146111b457600080fd5b50565b6000813590506111c6816111a0565b92915050565b600080600080600060a086880312156111e8576111e7610d6a565b5b60006111f688828901610db8565b955050602061120788828901610db8565b945050604061121888828901611041565b935050606061122988828901610db8565b925050608061123a888289016111b7565b9150509295509295909350565b600060608201905061125c6000830186610f48565b6112696020830185610e2a565b6112766040830184610f57565b949350505050565b60008060006060848603121561129757611296610d6a565b5b60006112a586828701610db8565b93505060206112b686828701611041565b92505060406112c786828701610db8565b9150509250925092565b7f4e487b7100000000000000000000000000000000000000000000000000000000600052601160045260246000fd5b600061130b82610e20565b915061131683610e20565b9250827fffffffffffffffffffffffffffffffffffffffffffffffffffffffffffffffff0382111561134b5761134a6112d1565b5b828201905092915050565b61135f81610d8f565b82525050565b600060208201905061137a6000830184611356565b92915050565b60008151905061138f81610da1565b92915050565b6000806000606084860312156113ae576113ad610d6a565b5b60006113bc86828701611380565b93505060206113cd86828701611380565b92505060406113de86828701611380565b9150509250925092565b6000815190506113f781610e70565b92915050565b60006020828403121561141357611412610d6a565b5b6000611421848285016113e8565b91505092915050565b600082825260208201905092915050565b7f496e73756666696369656e7420636f6c6c61746572616c3b0000000000000000600082015250565b600061147160188361142a565b915061147c8261143b565b602082019050919050565b600060208201905081810360008301526114a081611464565b9050919050565b60006114b282610f3e565b91506114bd83610f3e565b9250827f8000000000000000000000000000000000000000000000000000000000000000018212600084121516156114f8576114f76112d1565b5b827f7fffffffffffffffffffffffffffffffffffffffffffffffffffffffffffffff0182136000841216156115305761152f6112d1565b5b828203905092915050565b60008151905061154a816111a0565b92915050565b6000806000806000806000806000806101408b8d03121561157457611573610d6a565b5b60006115828d828e016113e8565b9a505060206115938d828e016113e8565b99505060406115a48d828e016113e8565b98505060606115b58d828e016113e8565b97505060806115c68d828e016113e8565b96505060a06115d78d828e0161153b565b95505060c06115e88d828e0161153b565b94505060e06115f98d828e0161153b565b93505061010061160b8d828e0161153b565b92505061012061161d8d828e0161153b565b9150509295989b9194979a5092959850565b6000819050919050565b6000819050919050565b600061165e6116596116548461162f565b611639565b610e20565b9050919050565b61166e81611643565b82525050565b60006040820190506116896000830185610e2a565b6116966020830184611665565b9392505050565b600060ff82169050919050565b6116b38161169d565b81146116be57600080fd5b50565b6000815190506116d0816116aa565b92915050565b6000602082840312156116ec576116eb610d6a565b5b60006116fa848285016116c1565b91505092915050565b600061171e6117196117148461169d565b611639565b610e20565b9050919050565b61172e81611703565b82525050565b60006040820190506117496000830185610e2a565b6117566020830184611725565b9392505050565b600061176882610f3e565b91507f800000000000000000000000000000000000000000000000000000000000000082141561179b5761179a6112d1565b5b81600003905091905056fea264697066735822122083ed26c16a22a3b5a3c855d4ec6710f90fe6c4a747907f88c43893b1b4d369eb64736f6c634300080a0033",
  "immutableReferences": {},
  "source": "// SPDX-License-Identifier: MIT\npragma solidity 0.8.10;\n\nimport \"./MoretInterfaces.sol\";\nimport \"@openzeppelin/contracts/utils/math/Math.sol\";\nimport \"@openzeppelin/contracts/token/ERC20/ERC20.sol\";\nimport \"./FullMath.sol\";\nimport \"./OptionLibrary.sol\";\n\nlibrary MarketLibrary {\n  \n  function getLendingTokenAddresses(address _protocolDataProviderAddress, address _tokenAddress)\n  public view returns (address, address, address){\n    IProtocolDataProvider _protocolDataProvider = IProtocolDataProvider(_protocolDataProviderAddress);\n    return  _protocolDataProvider.getReserveTokensAddresses(_tokenAddress);}\n\n  function getTokenBalances(address _contractAddress, address _protocolDataProviderAddress, address _tokenAddress) public view returns(uint256, uint256, uint256) {\n    (address _aToken, address _stableLoan, address _variableLoan) = getLendingTokenAddresses(_protocolDataProviderAddress, _tokenAddress);\n    return (balanceDef(_tokenAddress, _contractAddress), balanceDef(_aToken, _contractAddress),balanceDef(_stableLoan, _contractAddress) + balanceDef(_variableLoan, _contractAddress)); }\n\n  function getLTV(address _protocolDataProviderAddress, address _tokenAddress) public view returns (uint256) {\n    IProtocolDataProvider _protocolDataProvider = IProtocolDataProvider(_protocolDataProviderAddress);\n    (, uint256 _ltv, ,,,,,,, ) = _protocolDataProvider.getReserveConfigurationData(_tokenAddress);\n    return OptionLibrary.ToDefaultDecimals(_ltv, 4); } \n    \n  function getLoanTrade(address _contractAddress, address _protocolDataProviderAddress, int256 _aggregateDelta, address _underlyingAddress, bool _useVariableRate) public view returns(int256 _loanChange, uint256 _targetLoan, address _loanAddress){\n    ( , address _stableLoanAddress,  address _variableLoanAddress) = IProtocolDataProvider(_protocolDataProviderAddress).getReserveTokensAddresses(_underlyingAddress);\n    _loanAddress = _useVariableRate? _variableLoanAddress: _stableLoanAddress;\n    uint256 _debtBalance = balanceDef(_loanAddress, _contractAddress);\n    _targetLoan = _aggregateDelta >=0 ? 0: uint256(-_aggregateDelta);\n    _loanChange = int256(_targetLoan) - int256(_debtBalance);}\n  \n  function getCollateralTrade(address _contractAddress, address _protocolDataProviderAddress, uint256 _targetLoan, uint256 _price, address _fundingAddress, address _underlyingAddress, uint256 _overCollateral) public view returns(int256 _collateralChange, address _collateralAddress) {\n    (_collateralAddress, , ) = IProtocolDataProvider(_protocolDataProviderAddress).getReserveTokensAddresses(_fundingAddress);\n    uint256 _ltv = getLTV(_protocolDataProviderAddress, _underlyingAddress);\n    uint256 _collateralBalance = balanceDef(_collateralAddress, _contractAddress);\n    uint256 _requiredCollateral = MulDiv(MulDiv(_targetLoan, _price , _ltv), _overCollateral + OptionLibrary.Multiplier(), OptionLibrary.Multiplier());\n    uint256 _fundingBalance = balanceDef(_fundingAddress, _contractAddress);\n    require(_requiredCollateral<= (_fundingBalance + _collateralBalance), \"Insufficient collateral;\");\n    _collateralChange =  int256(_requiredCollateral) - int256(_collateralBalance);}\n\n  function getSwapTrade(address _contractAddress, int256 _aggregateDelta, address _underlyingAddress) public view returns (int256 _underlyingChange){\n    _underlyingChange = (_aggregateDelta >=0 ? _aggregateDelta: int256(0)) - int256(IERC20(_underlyingAddress).balanceOf(_contractAddress));}\n\n  function balanceDef(address _tokenAddress, address _accountAddress) public view returns(uint256){\n    return OptionLibrary.ToDefaultDecimals(ERC20(_tokenAddress).balanceOf(_accountAddress), ERC20(_tokenAddress).decimals());}\n\n  function cvtDef(uint256 _amount, address _tokenAddress) public view returns(uint256){\n    return OptionLibrary.ToDefaultDecimals(_amount, ERC20(_tokenAddress).decimals());}\n\n  function cvtDecimals(uint256 _amount, address _tokenAddress) public view returns(uint256){\n    return OptionLibrary.ToCustomDecimals(_amount, ERC20(_tokenAddress).decimals());}\n\n  function cvtDecimalsInt(int256 _amount, address _tokenAddress) public view returns(int256 _newAmount){\n    _newAmount = _amount;\n    if(_amount > 0) _newAmount = int256(cvtDecimals(uint256(_amount), _tokenAddress));\n    if(_amount < 0) _newAmount = -int256(cvtDecimals(uint256(-_amount), _tokenAddress));}\n  \n  function cleanTradeAmounts(int256 _underlyingAmt, int256 _fundingAmt, address _underlyingAddress, address _fundingAddress) public pure returns(uint256 _fromAmount, uint256 _toAmount, address _fromAddress, address _toAddress){\n    _fromAmount = 0;\n    _toAmount = 0;\n    _fromAddress = _fundingAddress;\n    _toAddress = _underlyingAddress;\n    if(_underlyingAmt > 0 && _fundingAmt < 0){\n      _fromAmount = uint256(-_fundingAmt);\n      _toAmount = uint256(_underlyingAmt);}\n    if(_underlyingAmt < 0 && _fundingAmt> 0){\n      _fromAmount = uint256(-_underlyingAmt);\n      _fromAddress = _underlyingAddress;\n      _toAmount = uint256(_fundingAmt);\n      _toAddress = _fundingAddress;}}\n}\n",
  "sourcePath": "/Users/apple/Documents/GitHub/moret/contracts/MarketLibrary.sol",
  "compiler": {
    "name": "solc",
    "version": "0.8.10+commit.fc410830.Emscripten.clang"
  },
  "schemaVersion": "3.4.3",
  "updatedAt": "2021-12-14T21:43:55.474Z",
  "networkType": "ethereum",
  "devdoc": {
    "kind": "dev",
    "methods": {},
    "version": 1
  },
  "userdoc": {
    "kind": "user",
    "methods": {},
    "version": 1
  }
}