{
  "contractName": "MarketLibrary",
  "abi": [
    {
      "inputs": [
        {
          "internalType": "address",
          "name": "_protocolDataProviderAddress",
          "type": "address"
        },
        {
          "internalType": "address",
          "name": "_tokenAddress",
          "type": "address"
        }
      ],
      "name": "getLendingTokenAddresses",
      "outputs": [
        {
          "internalType": "address",
          "name": "",
          "type": "address"
        },
        {
          "internalType": "address",
          "name": "",
          "type": "address"
        },
        {
          "internalType": "address",
          "name": "",
          "type": "address"
        }
      ],
      "stateMutability": "view",
      "type": "function"
    },
    {
      "inputs": [
        {
          "internalType": "address",
          "name": "_contractAddress",
          "type": "address"
        },
        {
          "internalType": "address",
          "name": "_protocolDataProviderAddress",
          "type": "address"
        },
        {
          "internalType": "address",
          "name": "_tokenAddress",
          "type": "address"
        }
      ],
      "name": "getTokenBalances",
      "outputs": [
        {
          "internalType": "uint256",
          "name": "",
          "type": "uint256"
        },
        {
          "internalType": "uint256",
          "name": "",
          "type": "uint256"
        },
        {
          "internalType": "uint256",
          "name": "",
          "type": "uint256"
        }
      ],
      "stateMutability": "view",
      "type": "function"
    },
    {
      "inputs": [
        {
          "internalType": "address",
          "name": "_protocolDataProviderAddress",
          "type": "address"
        },
        {
          "internalType": "address",
          "name": "_tokenAddress",
          "type": "address"
        }
      ],
      "name": "getLTV",
      "outputs": [
        {
          "internalType": "uint256",
          "name": "",
          "type": "uint256"
        }
      ],
      "stateMutability": "view",
      "type": "function"
    },
    {
      "inputs": [
        {
          "internalType": "address",
          "name": "_contractAddress",
          "type": "address"
        },
        {
          "internalType": "address",
          "name": "_protocolDataProviderAddress",
          "type": "address"
        },
        {
          "internalType": "int256",
          "name": "_aggregateDelta",
          "type": "int256"
        },
        {
          "internalType": "address",
          "name": "_underlyingAddress",
          "type": "address"
        },
        {
          "internalType": "bool",
          "name": "_useVariableRate",
          "type": "bool"
        }
      ],
      "name": "getLoanTrade",
      "outputs": [
        {
          "internalType": "int256",
          "name": "_loanChange",
          "type": "int256"
        },
        {
          "internalType": "uint256",
          "name": "_targetLoan",
          "type": "uint256"
        },
        {
          "internalType": "address",
          "name": "_loanAddress",
          "type": "address"
        }
      ],
      "stateMutability": "view",
      "type": "function"
    },
    {
      "inputs": [
        {
          "internalType": "address",
          "name": "_contractAddress",
          "type": "address"
        },
        {
          "internalType": "address",
          "name": "_protocolDataProviderAddress",
          "type": "address"
        },
        {
          "internalType": "uint256",
          "name": "_targetLoan",
          "type": "uint256"
        },
        {
          "internalType": "uint256",
          "name": "_price",
          "type": "uint256"
        },
        {
          "internalType": "address",
          "name": "_fundingAddress",
          "type": "address"
        },
        {
          "internalType": "address",
          "name": "_underlyingAddress",
          "type": "address"
        }
      ],
      "name": "getCollateralTrade",
      "outputs": [
        {
          "internalType": "int256",
          "name": "_collateralChange",
          "type": "int256"
        },
        {
          "internalType": "address",
          "name": "_collateralAddress",
          "type": "address"
        }
      ],
      "stateMutability": "view",
      "type": "function"
    },
    {
      "inputs": [
        {
          "internalType": "address",
          "name": "_contractAddress",
          "type": "address"
        },
        {
          "internalType": "int256",
          "name": "_aggregateDelta",
          "type": "int256"
        },
        {
          "internalType": "address",
          "name": "_underlyingAddress",
          "type": "address"
        }
      ],
      "name": "getSwapTrade",
      "outputs": [
        {
          "internalType": "int256",
          "name": "_underlyingChange",
          "type": "int256"
        }
      ],
      "stateMutability": "view",
      "type": "function"
    },
    {
      "inputs": [
        {
          "internalType": "address",
          "name": "_tokenAddress",
          "type": "address"
        },
        {
          "internalType": "address",
          "name": "_accountAddress",
          "type": "address"
        }
      ],
      "name": "balanceDef",
      "outputs": [
        {
          "internalType": "uint256",
          "name": "",
          "type": "uint256"
        }
      ],
      "stateMutability": "view",
      "type": "function"
    },
    {
      "inputs": [
        {
          "internalType": "uint256",
          "name": "_amount",
          "type": "uint256"
        },
        {
          "internalType": "address",
          "name": "_tokenAddress",
          "type": "address"
        }
      ],
      "name": "cvtDef",
      "outputs": [
        {
          "internalType": "uint256",
          "name": "",
          "type": "uint256"
        }
      ],
      "stateMutability": "view",
      "type": "function"
    },
    {
      "inputs": [
        {
          "internalType": "uint256",
          "name": "_amount",
          "type": "uint256"
        },
        {
          "internalType": "address",
          "name": "_tokenAddress",
          "type": "address"
        }
      ],
      "name": "cvtDecimals",
      "outputs": [
        {
          "internalType": "uint256",
          "name": "",
          "type": "uint256"
        }
      ],
      "stateMutability": "view",
      "type": "function"
    },
    {
      "inputs": [
        {
          "internalType": "int256",
          "name": "_amount",
          "type": "int256"
        },
        {
          "internalType": "address",
          "name": "_tokenAddress",
          "type": "address"
        }
      ],
      "name": "cvtDecimalsInt",
      "outputs": [
        {
          "internalType": "int256",
          "name": "_newAmount",
          "type": "int256"
        }
      ],
      "stateMutability": "view",
      "type": "function"
    }
  ],
  "bytecode": "0x611655610053600b82828239805160001a607314610046577f4e487b7100000000000000000000000000000000000000000000000000000000600052600060045260246000fd5b30600052607381538281f3fe73000000000000000000000000000000000000000030146080604052600436106100a85760003560e01c8063aa5c12c711610070578063aa5c12c7146101a2578063b076288a146101d2578063cfb94def14610204578063eea2526b14610234578063f0742a2514610264576100a8565b806312638d3a146100ad57806332c21e13146100de578063680f43b1146101105780638170ce80146101405780638684fd2814610170575b600080fd5b6100c760048036038101906100c29190610d3d565b610294565b6040516100d5929190610df2565b60405180910390f35b6100f860048036038101906100f39190610e1b565b6103d4565b60405161010793929190610e7d565b60405180910390f35b61012a60048036038101906101259190610eb4565b610431565b6040516101379190610ef4565b60405180910390f35b61015a60048036038101906101559190610f0f565b610562565b6040516101679190610ef4565b60405180910390f35b61018a60048036038101906101859190610eb4565b610672565b60405161019993929190610f4f565b60405180910390f35b6101bc60048036038101906101b79190610fb2565b610712565b6040516101c99190610ff2565b60405180910390f35b6101ec60048036038101906101e79190611045565b61075b565b6040516101fb939291906110c0565b60405180910390f35b61021e600480360381019061021991906110f7565b610850565b60405161022b9190610ff2565b60405180910390f35b61024e60048036038101906102499190610eb4565b610900565b60405161025b9190610ef4565b60405180910390f35b61027e60048036038101906102799190610f0f565b610a98565b60405161028b9190610ef4565b60405180910390f35b6000808673ffffffffffffffffffffffffffffffffffffffff1663d2493b6c856040518263ffffffff1660e01b81526004016102d09190611159565b60606040518083038186803b1580156102e857600080fd5b505afa1580156102fc573d6000803e3d6000fd5b505050506040513d601f19601f820116820180604052508101906103209190611189565b9050508091505060006103338885610431565b90506000610341838b610900565b90506000610350898985610ba8565b9050600061035e888d610900565b9050828161036c919061120b565b8211156103ae576040517f08c379a00000000000000000000000000000000000000000000000000000000081526004016103a5906112be565b60405180910390fd5b6103c383836103bd91906112de565b86610712565b955050505050965096945050505050565b6000806000806000806103e78888610672565b9250925092506103f7878a610900565b610401848b610900565b61040b838c610900565b610415858d610900565b61041f919061120b565b95509550955050505093509350939050565b60008083905060008173ffffffffffffffffffffffffffffffffffffffff16633e150141856040518263ffffffff1660e01b81526004016104729190611159565b6101406040518083038186803b15801561048b57600080fd5b505afa15801561049f573d6000803e3d6000fd5b505050506040513d601f19601f820116820180604052508101906104c3919061139c565b505050505050505091505073__OptionLibrary_________________________63bde840ed8260046040518363ffffffff1660e01b81526004016105089291906114c0565b60206040518083038186803b15801561052057600080fd5b505af4158015610534573d6000803e3d6000fd5b505050506040513d601f19601f8201168201806040525081019061055891906114e9565b9250505092915050565b600073__OptionLibrary_________________________63092f957a848473ffffffffffffffffffffffffffffffffffffffff1663313ce5676040518163ffffffff1660e01b815260040160206040518083038186803b1580156105c557600080fd5b505afa1580156105d9573d6000803e3d6000fd5b505050506040513d601f19601f820116820180604052508101906105fd919061154f565b6040518363ffffffff1660e01b815260040161061a9291906115ad565b60206040518083038186803b15801561063257600080fd5b505af4158015610646573d6000803e3d6000fd5b505050506040513d601f19601f8201168201806040525081019061066a91906114e9565b905092915050565b6000806000808590508073ffffffffffffffffffffffffffffffffffffffff1663d2493b6c866040518263ffffffff1660e01b81526004016106b49190611159565b60606040518083038186803b1580156106cc57600080fd5b505afa1580156106e0573d6000803e3d6000fd5b505050506040513d601f19601f820116820180604052508101906107049190611189565b935093509350509250925092565b6000829050600083131561072d5761072a8383610562565b90505b60008312156107555761074983610743906115d6565b83610562565b610752906115d6565b90505b92915050565b60008060008060008873ffffffffffffffffffffffffffffffffffffffff1663d2493b6c886040518263ffffffff1660e01b815260040161079c9190611159565b60606040518083038186803b1580156107b457600080fd5b505afa1580156107c8573d6000803e3d6000fd5b505050506040513d601f19601f820116820180604052508101906107ec9190611189565b9250925050856107fc57816107fe565b805b9250600061080c848c610900565b905060008912156108265788610821906115d6565b610829565b60005b9450610840818661083a91906112de565b85610712565b9550505050955095509592505050565b60008173ffffffffffffffffffffffffffffffffffffffff166370a08231856040518263ffffffff1660e01b815260040161088b9190611159565b60206040518083038186803b1580156108a357600080fd5b505afa1580156108b7573d6000803e3d6000fd5b505050506040513d601f19601f820116820180604052508101906108db91906114e9565b60008412156108eb5760006108ed565b835b6108f791906112de565b90509392505050565b600073__OptionLibrary_________________________63bde840ed8473ffffffffffffffffffffffffffffffffffffffff166370a08231856040518263ffffffff1660e01b81526004016109559190611159565b60206040518083038186803b15801561096d57600080fd5b505afa158015610981573d6000803e3d6000fd5b505050506040513d601f19601f820116820180604052508101906109a591906114e9565b8573ffffffffffffffffffffffffffffffffffffffff1663313ce5676040518163ffffffff1660e01b815260040160206040518083038186803b1580156109eb57600080fd5b505afa1580156109ff573d6000803e3d6000fd5b505050506040513d601f19601f82011682018060405250810190610a23919061154f565b6040518363ffffffff1660e01b8152600401610a409291906115ad565b60206040518083038186803b158015610a5857600080fd5b505af4158015610a6c573d6000803e3d6000fd5b505050506040513d601f19601f82011682018060405250810190610a9091906114e9565b905092915050565b600073__OptionLibrary_________________________63bde840ed848473ffffffffffffffffffffffffffffffffffffffff1663313ce5676040518163ffffffff1660e01b815260040160206040518083038186803b158015610afb57600080fd5b505afa158015610b0f573d6000803e3d6000fd5b505050506040513d601f19601f82011682018060405250810190610b33919061154f565b6040518363ffffffff1660e01b8152600401610b509291906115ad565b60206040518083038186803b158015610b6857600080fd5b505af4158015610b7c573d6000803e3d6000fd5b505050506040513d601f19601f82011682018060405250810190610ba091906114e9565b905092915050565b600080600080198587098587029250828110838203039150506000811415610be35760008411610bd757600080fd5b83820492505050610c9d565b808411610bef57600080fd5b60008486880990508281118203915080830392506000856001877fffffffffffffffffffffffffffffffffffffffffffffffffffffffffffffffff0301169050808604955080840493506001818260000304019050808302841793506000600287600302189050808702600203810290508087026002038102905080870260020381029050808702600203810290508087026002038102905080870260020381029050808502955050505050505b9392505050565b600080fd5b600073ffffffffffffffffffffffffffffffffffffffff82169050919050565b6000610cd482610ca9565b9050919050565b610ce481610cc9565b8114610cef57600080fd5b50565b600081359050610d0181610cdb565b92915050565b6000819050919050565b610d1a81610d07565b8114610d2557600080fd5b50565b600081359050610d3781610d11565b92915050565b60008060008060008060c08789031215610d5a57610d59610ca4565b5b6000610d6889828a01610cf2565b9650506020610d7989828a01610cf2565b9550506040610d8a89828a01610d28565b9450506060610d9b89828a01610d28565b9350506080610dac89828a01610cf2565b92505060a0610dbd89828a01610cf2565b9150509295509295509295565b6000819050919050565b610ddd81610dca565b82525050565b610dec81610cc9565b82525050565b6000604082019050610e076000830185610dd4565b610e146020830184610de3565b9392505050565b600080600060608486031215610e3457610e33610ca4565b5b6000610e4286828701610cf2565b9350506020610e5386828701610cf2565b9250506040610e6486828701610cf2565b9150509250925092565b610e7781610d07565b82525050565b6000606082019050610e926000830186610e6e565b610e9f6020830185610e6e565b610eac6040830184610e6e565b949350505050565b60008060408385031215610ecb57610eca610ca4565b5b6000610ed985828601610cf2565b9250506020610eea85828601610cf2565b9150509250929050565b6000602082019050610f096000830184610e6e565b92915050565b60008060408385031215610f2657610f25610ca4565b5b6000610f3485828601610d28565b9250506020610f4585828601610cf2565b9150509250929050565b6000606082019050610f646000830186610de3565b610f716020830185610de3565b610f7e6040830184610de3565b949350505050565b610f8f81610dca565b8114610f9a57600080fd5b50565b600081359050610fac81610f86565b92915050565b60008060408385031215610fc957610fc8610ca4565b5b6000610fd785828601610f9d565b9250506020610fe885828601610cf2565b9150509250929050565b60006020820190506110076000830184610dd4565b92915050565b60008115159050919050565b6110228161100d565b811461102d57600080fd5b50565b60008135905061103f81611019565b92915050565b600080600080600060a0868803121561106157611060610ca4565b5b600061106f88828901610cf2565b955050602061108088828901610cf2565b945050604061109188828901610f9d565b93505060606110a288828901610cf2565b92505060806110b388828901611030565b9150509295509295909350565b60006060820190506110d56000830186610dd4565b6110e26020830185610e6e565b6110ef6040830184610de3565b949350505050565b6000806000606084860312156111105761110f610ca4565b5b600061111e86828701610cf2565b935050602061112f86828701610f9d565b925050604061114086828701610cf2565b9150509250925092565b61115381610cc9565b82525050565b600060208201905061116e600083018461114a565b92915050565b60008151905061118381610cdb565b92915050565b6000806000606084860312156111a2576111a1610ca4565b5b60006111b086828701611174565b93505060206111c186828701611174565b92505060406111d286828701611174565b9150509250925092565b7f4e487b7100000000000000000000000000000000000000000000000000000000600052601160045260246000fd5b600061121682610d07565b915061122183610d07565b9250827fffffffffffffffffffffffffffffffffffffffffffffffffffffffffffffffff03821115611256576112556111dc565b5b828201905092915050565b600082825260208201905092915050565b7f496e73756666696369656e7420636f6c6c61746572616c3b0000000000000000600082015250565b60006112a8601883611261565b91506112b382611272565b602082019050919050565b600060208201905081810360008301526112d78161129b565b9050919050565b60006112e982610dca565b91506112f483610dca565b9250827f80000000000000000000000000000000000000000000000000000000000000000182126000841215161561132f5761132e6111dc565b5b827f7fffffffffffffffffffffffffffffffffffffffffffffffffffffffffffffff018213600084121615611367576113666111dc565b5b828203905092915050565b60008151905061138181610d11565b92915050565b60008151905061139681611019565b92915050565b6000806000806000806000806000806101408b8d0312156113c0576113bf610ca4565b5b60006113ce8d828e01611372565b9a505060206113df8d828e01611372565b99505060406113f08d828e01611372565b98505060606114018d828e01611372565b97505060806114128d828e01611372565b96505060a06114238d828e01611387565b95505060c06114348d828e01611387565b94505060e06114458d828e01611387565b9350506101006114578d828e01611387565b9250506101206114698d828e01611387565b9150509295989b9194979a5092959850565b6000819050919050565b6000819050919050565b60006114aa6114a56114a08461147b565b611485565b610d07565b9050919050565b6114ba8161148f565b82525050565b60006040820190506114d56000830185610e6e565b6114e260208301846114b1565b9392505050565b6000602082840312156114ff576114fe610ca4565b5b600061150d84828501611372565b91505092915050565b600060ff82169050919050565b61152c81611516565b811461153757600080fd5b50565b60008151905061154981611523565b92915050565b60006020828403121561156557611564610ca4565b5b60006115738482850161153a565b91505092915050565b600061159761159261158d84611516565b611485565b610d07565b9050919050565b6115a78161157c565b82525050565b60006040820190506115c26000830185610e6e565b6115cf602083018461159e565b9392505050565b60006115e182610dca565b91507f8000000000000000000000000000000000000000000000000000000000000000821415611614576116136111dc565b5b81600003905091905056fea264697066735822122038e83f0b1f8e47e268ba89ba097fa00789febbfda9b63b8e5efd8d71a844873264736f6c63430008090033",
  "immutableReferences": {},
  "source": "// SPDX-License-Identifier: MIT\npragma solidity 0.8.9;\n\nimport \"./MoretInterfaces.sol\";\nimport \"@openzeppelin/contracts/utils/math/Math.sol\";\nimport \"@openzeppelin/contracts/token/ERC20/ERC20.sol\";\nimport \"./FullMath.sol\";\n\nlibrary MarketLibrary {\n  \n  function getLendingTokenAddresses(address _protocolDataProviderAddress, address _tokenAddress)\n  public view returns (address, address, address){\n    IProtocolDataProvider _protocolDataProvider = IProtocolDataProvider(_protocolDataProviderAddress);\n    return  _protocolDataProvider.getReserveTokensAddresses(_tokenAddress);}\n\n  function getTokenBalances(address _contractAddress, address _protocolDataProviderAddress, address _tokenAddress) public view returns(uint256, uint256, uint256) {\n    (address _aToken, address _stableLoan, address _variableLoan) = getLendingTokenAddresses(_protocolDataProviderAddress, _tokenAddress);\n    return (balanceDef(_tokenAddress, _contractAddress), balanceDef(_aToken, _contractAddress),balanceDef(_stableLoan, _contractAddress) + balanceDef(_variableLoan, _contractAddress)); }\n\n  function getLTV(address _protocolDataProviderAddress, address _tokenAddress) public view returns (uint256) {\n    IProtocolDataProvider _protocolDataProvider = IProtocolDataProvider(_protocolDataProviderAddress);\n    (, uint256 _ltv, ,,,,,,, ) = _protocolDataProvider.getReserveConfigurationData(_tokenAddress);\n    return OptionLibrary.ToDefaultDecimals(_ltv, 4); } \n    \n  function getLoanTrade(address _contractAddress, address _protocolDataProviderAddress, int256 _aggregateDelta, address _underlyingAddress, bool _useVariableRate) public view returns(int256 _loanChange, uint256 _targetLoan, address _loanAddress){\n    ( , address _stableLoanAddress,  address _variableLoanAddress) = IProtocolDataProvider(_protocolDataProviderAddress).getReserveTokensAddresses(_underlyingAddress);\n    _loanAddress = _useVariableRate? _variableLoanAddress: _stableLoanAddress;\n    uint256 _debtBalance = balanceDef(_loanAddress, _contractAddress);\n    _targetLoan = _aggregateDelta >=0 ? 0: uint256(-_aggregateDelta);\n    _loanChange = cvtDecimalsInt(int256(_targetLoan) -int256(_debtBalance), _loanAddress);}\n  \n  function getCollateralTrade(address _contractAddress, address _protocolDataProviderAddress, uint256 _targetLoan, uint256 _price, address _fundingAddress, address _underlyingAddress) public view returns(int256 _collateralChange, address _collateralAddress) {\n    (_collateralAddress, , ) = IProtocolDataProvider(_protocolDataProviderAddress).getReserveTokensAddresses(_fundingAddress);\n    uint256 _ltv = getLTV(_protocolDataProviderAddress, _underlyingAddress);\n    uint256 _collateralBalance = balanceDef(_collateralAddress, _contractAddress);\n    uint256 _requiredCollateral = MulDiv(_targetLoan, _price , _ltv);\n    uint256 _fundingBalance = balanceDef(_fundingAddress, _contractAddress);\n    require(_requiredCollateral<= (_fundingBalance + _collateralBalance), \"Insufficient collateral;\");\n    _collateralChange =  cvtDecimalsInt(int256(_requiredCollateral) - int256(_collateralBalance), _collateralAddress) ;}\n\n  function getSwapTrade(address _contractAddress, int256 _aggregateDelta, address _underlyingAddress) public view returns (int256 _underlyingChange){\n    _underlyingChange = (_aggregateDelta >=0 ? _aggregateDelta: int256(0)) - int256(IERC20(_underlyingAddress).balanceOf(_contractAddress));}\n\n  function balanceDef(address _tokenAddress, address _accountAddress) public view returns(uint256){\n    return OptionLibrary.ToDefaultDecimals(ERC20(_tokenAddress).balanceOf(_accountAddress), ERC20(_tokenAddress).decimals());}\n\n  function cvtDef(uint256 _amount, address _tokenAddress) public view returns(uint256){\n    return OptionLibrary.ToDefaultDecimals(_amount, ERC20(_tokenAddress).decimals());}\n\n  function cvtDecimals(uint256 _amount, address _tokenAddress) public view returns(uint256){\n    return OptionLibrary.ToCustomDecimals(_amount, ERC20(_tokenAddress).decimals());}\n\n  function cvtDecimalsInt(int256 _amount, address _tokenAddress) public view returns(int256 _newAmount){\n    _newAmount = _amount;\n    if(_amount > 0) _newAmount = int256(cvtDecimals(uint256(_amount), _tokenAddress));\n    if(_amount < 0) _newAmount = -int256(cvtDecimals(uint256(-_amount), _tokenAddress));}\n  \n}\n",
  "sourcePath": "/Users/apple/Documents/GitHub/moret/contracts/MarketLibrary.sol",
  "compiler": {
    "name": "solc",
    "version": "0.8.9+commit.e5eed63a.Emscripten.clang"
  },
  "schemaVersion": "3.4.3",
  "updatedAt": "2021-11-18T23:50:02.055Z",
  "devdoc": {
    "kind": "dev",
    "methods": {},
    "version": 1
  },
  "userdoc": {
    "kind": "user",
    "methods": {},
    "version": 1
  }
}