{
  "contractName": "MarketLibrary",
  "abi": [
    {
      "inputs": [
        {
          "internalType": "address",
          "name": "_protocolDataProviderAddress",
          "type": "address"
        },
        {
          "internalType": "address",
          "name": "_tokenAddress",
          "type": "address"
        }
      ],
      "name": "getLendingTokenAddresses",
      "outputs": [
        {
          "internalType": "address",
          "name": "",
          "type": "address"
        },
        {
          "internalType": "address",
          "name": "",
          "type": "address"
        },
        {
          "internalType": "address",
          "name": "",
          "type": "address"
        }
      ],
      "stateMutability": "view",
      "type": "function"
    },
    {
      "inputs": [
        {
          "internalType": "address",
          "name": "_contractAddress",
          "type": "address"
        },
        {
          "internalType": "address",
          "name": "_protocolDataProviderAddress",
          "type": "address"
        },
        {
          "internalType": "address",
          "name": "_tokenAddress",
          "type": "address"
        }
      ],
      "name": "getTokenBalances",
      "outputs": [
        {
          "internalType": "uint256",
          "name": "",
          "type": "uint256"
        },
        {
          "internalType": "uint256",
          "name": "",
          "type": "uint256"
        },
        {
          "internalType": "uint256",
          "name": "",
          "type": "uint256"
        }
      ],
      "stateMutability": "view",
      "type": "function"
    },
    {
      "inputs": [
        {
          "internalType": "address",
          "name": "_protocolDataProviderAddress",
          "type": "address"
        },
        {
          "internalType": "address",
          "name": "_tokenAddress",
          "type": "address"
        }
      ],
      "name": "getLTV",
      "outputs": [
        {
          "internalType": "uint256",
          "name": "",
          "type": "uint256"
        }
      ],
      "stateMutability": "view",
      "type": "function"
    },
    {
      "inputs": [
        {
          "internalType": "address",
          "name": "_contractAddress",
          "type": "address"
        },
        {
          "internalType": "address",
          "name": "_protocolDataProviderAddress",
          "type": "address"
        },
        {
          "internalType": "int256",
          "name": "_aggregateDelta",
          "type": "int256"
        },
        {
          "internalType": "address",
          "name": "_underlyingAddress",
          "type": "address"
        },
        {
          "internalType": "bool",
          "name": "_useVariableRate",
          "type": "bool"
        }
      ],
      "name": "getLoanTrade",
      "outputs": [
        {
          "internalType": "int256",
          "name": "_loanChange",
          "type": "int256"
        },
        {
          "internalType": "uint256",
          "name": "_targetLoan",
          "type": "uint256"
        },
        {
          "internalType": "address",
          "name": "_loanAddress",
          "type": "address"
        }
      ],
      "stateMutability": "view",
      "type": "function"
    },
    {
      "inputs": [
        {
          "internalType": "address",
          "name": "_contractAddress",
          "type": "address"
        },
        {
          "internalType": "address",
          "name": "_protocolDataProviderAddress",
          "type": "address"
        },
        {
          "internalType": "uint256",
          "name": "_targetLoan",
          "type": "uint256"
        },
        {
          "internalType": "uint256",
          "name": "_price",
          "type": "uint256"
        },
        {
          "internalType": "address",
          "name": "_fundingAddress",
          "type": "address"
        },
        {
          "internalType": "address",
          "name": "_underlyingAddress",
          "type": "address"
        }
      ],
      "name": "getCollateralTrade",
      "outputs": [
        {
          "internalType": "int256",
          "name": "_collateralChange",
          "type": "int256"
        },
        {
          "internalType": "address",
          "name": "_collateralAddress",
          "type": "address"
        }
      ],
      "stateMutability": "view",
      "type": "function"
    },
    {
      "inputs": [
        {
          "internalType": "address",
          "name": "_contractAddress",
          "type": "address"
        },
        {
          "internalType": "int256",
          "name": "_aggregateDelta",
          "type": "int256"
        },
        {
          "internalType": "address",
          "name": "_underlyingAddress",
          "type": "address"
        }
      ],
      "name": "getSwapTrade",
      "outputs": [
        {
          "internalType": "int256",
          "name": "_underlyingChange",
          "type": "int256"
        }
      ],
      "stateMutability": "view",
      "type": "function"
    },
    {
      "inputs": [
        {
          "internalType": "address",
          "name": "_tokenAddress",
          "type": "address"
        },
        {
          "internalType": "address",
          "name": "_accountAddress",
          "type": "address"
        }
      ],
      "name": "balanceDef",
      "outputs": [
        {
          "internalType": "uint256",
          "name": "",
          "type": "uint256"
        }
      ],
      "stateMutability": "view",
      "type": "function"
    },
    {
      "inputs": [
        {
          "internalType": "uint256",
          "name": "_amount",
          "type": "uint256"
        },
        {
          "internalType": "address",
          "name": "_tokenAddress",
          "type": "address"
        }
      ],
      "name": "cvtDef",
      "outputs": [
        {
          "internalType": "uint256",
          "name": "",
          "type": "uint256"
        }
      ],
      "stateMutability": "view",
      "type": "function"
    },
    {
      "inputs": [
        {
          "internalType": "uint256",
          "name": "_amount",
          "type": "uint256"
        },
        {
          "internalType": "address",
          "name": "_tokenAddress",
          "type": "address"
        }
      ],
      "name": "cvtDecimals",
      "outputs": [
        {
          "internalType": "uint256",
          "name": "",
          "type": "uint256"
        }
      ],
      "stateMutability": "view",
      "type": "function"
    },
    {
      "inputs": [
        {
          "internalType": "int256",
          "name": "_amount",
          "type": "int256"
        },
        {
          "internalType": "address",
          "name": "_tokenAddress",
          "type": "address"
        }
      ],
      "name": "cvtDecimalsInt",
      "outputs": [
        {
          "internalType": "int256",
          "name": "_newAmount",
          "type": "int256"
        }
      ],
      "stateMutability": "view",
      "type": "function"
    },
    {
      "inputs": [
        {
          "internalType": "int256",
          "name": "_underlyingAmt",
          "type": "int256"
        },
        {
          "internalType": "int256",
          "name": "_fundingAmt",
          "type": "int256"
        },
        {
          "internalType": "address",
          "name": "_underlyingAddress",
          "type": "address"
        },
        {
          "internalType": "address",
          "name": "_fundingAddress",
          "type": "address"
        }
      ],
      "name": "cleanTradeAmounts",
      "outputs": [
        {
          "internalType": "uint256",
          "name": "_fromAmount",
          "type": "uint256"
        },
        {
          "internalType": "uint256",
          "name": "_toAmount",
          "type": "uint256"
        },
        {
          "internalType": "address",
          "name": "_fromAddress",
          "type": "address"
        },
        {
          "internalType": "address",
          "name": "_toAddress",
          "type": "address"
        }
      ],
      "stateMutability": "pure",
      "type": "function"
    }
  ],
  "bytecode": "0x61179c610053600b82828239805160001a607314610046577f4e487b7100000000000000000000000000000000000000000000000000000000600052600060045260246000fd5b30600052607381538281f3fe73000000000000000000000000000000000000000030146080604052600436106100b35760003560e01c80638684fd281161007b5780638684fd28146101ae578063aa5c12c7146101e0578063b076288a14610210578063cfb94def14610242578063eea2526b14610272578063f0742a25146102a2576100b3565b806312638d3a146100b857806332c21e13146100e9578063680f43b11461011b5780638170ce801461014b578063865c99841461017b575b600080fd5b6100d260048036038101906100cd9190610dd8565b6102d2565b6040516100e0929190610e8d565b60405180910390f35b61010360048036038101906100fe9190610eb6565b610409565b60405161011293929190610f18565b60405180910390f35b61013560048036038101906101309190610f4f565b610466565b6040516101429190610f8f565b60405180910390f35b61016560048036038101906101609190610faa565b610597565b6040516101729190610f8f565b60405180910390f35b61019560048036038101906101909190611016565b6106a7565b6040516101a5949392919061107d565b60405180910390f35b6101c860048036038101906101c39190610f4f565b610716565b6040516101d7939291906110c2565b60405180910390f35b6101fa60048036038101906101f591906110f9565b6107b6565b6040516102079190611139565b60405180910390f35b61022a6004803603810190610225919061118c565b6107ff565b60405161023993929190611207565b60405180910390f35b61025c6004803603810190610257919061123e565b6108eb565b6040516102699190611139565b60405180910390f35b61028c60048036038101906102879190610f4f565b61099b565b6040516102999190610f8f565b60405180910390f35b6102bc60048036038101906102b79190610faa565b610b33565b6040516102c99190610f8f565b60405180910390f35b6000808673ffffffffffffffffffffffffffffffffffffffff1663d2493b6c856040518263ffffffff1660e01b815260040161030e91906112a0565b60606040518083038186803b15801561032657600080fd5b505afa15801561033a573d6000803e3d6000fd5b505050506040513d601f19601f8201168201806040525081019061035e91906112d0565b9050508091505060006103718885610466565b9050600061037f838b61099b565b9050600061038e898985610c43565b9050600061039c888d61099b565b905082816103aa9190611352565b8211156103ec576040517f08c379a00000000000000000000000000000000000000000000000000000000081526004016103e390611405565b60405180910390fd5b82826103f89190611425565b955050505050965096945050505050565b60008060008060008061041c8888610716565b92509250925061042c878a61099b565b610436848b61099b565b610440838c61099b565b61044a858d61099b565b6104549190611352565b95509550955050505093509350939050565b60008083905060008173ffffffffffffffffffffffffffffffffffffffff16633e150141856040518263ffffffff1660e01b81526004016104a791906112a0565b6101406040518083038186803b1580156104c057600080fd5b505afa1580156104d4573d6000803e3d6000fd5b505050506040513d601f19601f820116820180604052508101906104f891906114e3565b505050505050505091505073__OptionLibrary_________________________63bde840ed8260046040518363ffffffff1660e01b815260040161053d929190611607565b60206040518083038186803b15801561055557600080fd5b505af4158015610569573d6000803e3d6000fd5b505050506040513d601f19601f8201168201806040525081019061058d9190611630565b9250505092915050565b600073__OptionLibrary_________________________63092f957a848473ffffffffffffffffffffffffffffffffffffffff1663313ce5676040518163ffffffff1660e01b815260040160206040518083038186803b1580156105fa57600080fd5b505afa15801561060e573d6000803e3d6000fd5b505050506040513d601f19601f820116820180604052508101906106329190611696565b6040518363ffffffff1660e01b815260040161064f9291906116f4565b60206040518083038186803b15801561066757600080fd5b505af415801561067b573d6000803e3d6000fd5b505050506040513d601f19601f8201168201806040525081019061069f9190611630565b905092915050565b60008060008060009350600092508491508590506000881380156106cb5750600087125b156106e057866106da9061171d565b93508792505b6000881280156106f05750600087135b1561070b57876106ff9061171d565b93508591508692508490505b945094509450949050565b6000806000808590508073ffffffffffffffffffffffffffffffffffffffff1663d2493b6c866040518263ffffffff1660e01b815260040161075891906112a0565b60606040518083038186803b15801561077057600080fd5b505afa158015610784573d6000803e3d6000fd5b505050506040513d601f19601f820116820180604052508101906107a891906112d0565b935093509350509250925092565b600082905060008313156107d1576107ce8383610597565b90505b60008312156107f9576107ed836107e79061171d565b83610597565b6107f69061171d565b90505b92915050565b60008060008060008873ffffffffffffffffffffffffffffffffffffffff1663d2493b6c886040518263ffffffff1660e01b815260040161084091906112a0565b60606040518083038186803b15801561085857600080fd5b505afa15801561086c573d6000803e3d6000fd5b505050506040513d601f19601f8201168201806040525081019061089091906112d0565b9250925050856108a057816108a2565b805b925060006108b0848c61099b565b905060008912156108ca57886108c59061171d565b6108cd565b60005b945080856108db9190611425565b9550505050955095509592505050565b60008173ffffffffffffffffffffffffffffffffffffffff166370a08231856040518263ffffffff1660e01b815260040161092691906112a0565b60206040518083038186803b15801561093e57600080fd5b505afa158015610952573d6000803e3d6000fd5b505050506040513d601f19601f820116820180604052508101906109769190611630565b6000841215610986576000610988565b835b6109929190611425565b90509392505050565b600073__OptionLibrary_________________________63bde840ed8473ffffffffffffffffffffffffffffffffffffffff166370a08231856040518263ffffffff1660e01b81526004016109f091906112a0565b60206040518083038186803b158015610a0857600080fd5b505afa158015610a1c573d6000803e3d6000fd5b505050506040513d601f19601f82011682018060405250810190610a409190611630565b8573ffffffffffffffffffffffffffffffffffffffff1663313ce5676040518163ffffffff1660e01b815260040160206040518083038186803b158015610a8657600080fd5b505afa158015610a9a573d6000803e3d6000fd5b505050506040513d601f19601f82011682018060405250810190610abe9190611696565b6040518363ffffffff1660e01b8152600401610adb9291906116f4565b60206040518083038186803b158015610af357600080fd5b505af4158015610b07573d6000803e3d6000fd5b505050506040513d601f19601f82011682018060405250810190610b2b9190611630565b905092915050565b600073__OptionLibrary_________________________63bde840ed848473ffffffffffffffffffffffffffffffffffffffff1663313ce5676040518163ffffffff1660e01b815260040160206040518083038186803b158015610b9657600080fd5b505afa158015610baa573d6000803e3d6000fd5b505050506040513d601f19601f82011682018060405250810190610bce9190611696565b6040518363ffffffff1660e01b8152600401610beb9291906116f4565b60206040518083038186803b158015610c0357600080fd5b505af4158015610c17573d6000803e3d6000fd5b505050506040513d601f19601f82011682018060405250810190610c3b9190611630565b905092915050565b600080600080198587098587029250828110838203039150506000811415610c7e5760008411610c7257600080fd5b83820492505050610d38565b808411610c8a57600080fd5b60008486880990508281118203915080830392506000856001877fffffffffffffffffffffffffffffffffffffffffffffffffffffffffffffffff0301169050808604955080840493506001818260000304019050808302841793506000600287600302189050808702600203810290508087026002038102905080870260020381029050808702600203810290508087026002038102905080870260020381029050808502955050505050505b9392505050565b600080fd5b600073ffffffffffffffffffffffffffffffffffffffff82169050919050565b6000610d6f82610d44565b9050919050565b610d7f81610d64565b8114610d8a57600080fd5b50565b600081359050610d9c81610d76565b92915050565b6000819050919050565b610db581610da2565b8114610dc057600080fd5b50565b600081359050610dd281610dac565b92915050565b60008060008060008060c08789031215610df557610df4610d3f565b5b6000610e0389828a01610d8d565b9650506020610e1489828a01610d8d565b9550506040610e2589828a01610dc3565b9450506060610e3689828a01610dc3565b9350506080610e4789828a01610d8d565b92505060a0610e5889828a01610d8d565b9150509295509295509295565b6000819050919050565b610e7881610e65565b82525050565b610e8781610d64565b82525050565b6000604082019050610ea26000830185610e6f565b610eaf6020830184610e7e565b9392505050565b600080600060608486031215610ecf57610ece610d3f565b5b6000610edd86828701610d8d565b9350506020610eee86828701610d8d565b9250506040610eff86828701610d8d565b9150509250925092565b610f1281610da2565b82525050565b6000606082019050610f2d6000830186610f09565b610f3a6020830185610f09565b610f476040830184610f09565b949350505050565b60008060408385031215610f6657610f65610d3f565b5b6000610f7485828601610d8d565b9250506020610f8585828601610d8d565b9150509250929050565b6000602082019050610fa46000830184610f09565b92915050565b60008060408385031215610fc157610fc0610d3f565b5b6000610fcf85828601610dc3565b9250506020610fe085828601610d8d565b9150509250929050565b610ff381610e65565b8114610ffe57600080fd5b50565b60008135905061101081610fea565b92915050565b600080600080608085870312156110305761102f610d3f565b5b600061103e87828801611001565b945050602061104f87828801611001565b935050604061106087828801610d8d565b925050606061107187828801610d8d565b91505092959194509250565b60006080820190506110926000830187610f09565b61109f6020830186610f09565b6110ac6040830185610e7e565b6110b96060830184610e7e565b95945050505050565b60006060820190506110d76000830186610e7e565b6110e46020830185610e7e565b6110f16040830184610e7e565b949350505050565b600080604083850312156111105761110f610d3f565b5b600061111e85828601611001565b925050602061112f85828601610d8d565b9150509250929050565b600060208201905061114e6000830184610e6f565b92915050565b60008115159050919050565b61116981611154565b811461117457600080fd5b50565b60008135905061118681611160565b92915050565b600080600080600060a086880312156111a8576111a7610d3f565b5b60006111b688828901610d8d565b95505060206111c788828901610d8d565b94505060406111d888828901611001565b93505060606111e988828901610d8d565b92505060806111fa88828901611177565b9150509295509295909350565b600060608201905061121c6000830186610e6f565b6112296020830185610f09565b6112366040830184610e7e565b949350505050565b60008060006060848603121561125757611256610d3f565b5b600061126586828701610d8d565b935050602061127686828701611001565b925050604061128786828701610d8d565b9150509250925092565b61129a81610d64565b82525050565b60006020820190506112b56000830184611291565b92915050565b6000815190506112ca81610d76565b92915050565b6000806000606084860312156112e9576112e8610d3f565b5b60006112f7868287016112bb565b9350506020611308868287016112bb565b9250506040611319868287016112bb565b9150509250925092565b7f4e487b7100000000000000000000000000000000000000000000000000000000600052601160045260246000fd5b600061135d82610da2565b915061136883610da2565b9250827fffffffffffffffffffffffffffffffffffffffffffffffffffffffffffffffff0382111561139d5761139c611323565b5b828201905092915050565b600082825260208201905092915050565b7f496e73756666696369656e7420636f6c6c61746572616c3b0000000000000000600082015250565b60006113ef6018836113a8565b91506113fa826113b9565b602082019050919050565b6000602082019050818103600083015261141e816113e2565b9050919050565b600061143082610e65565b915061143b83610e65565b9250827f80000000000000000000000000000000000000000000000000000000000000000182126000841215161561147657611475611323565b5b827f7fffffffffffffffffffffffffffffffffffffffffffffffffffffffffffffff0182136000841216156114ae576114ad611323565b5b828203905092915050565b6000815190506114c881610dac565b92915050565b6000815190506114dd81611160565b92915050565b6000806000806000806000806000806101408b8d03121561150757611506610d3f565b5b60006115158d828e016114b9565b9a505060206115268d828e016114b9565b99505060406115378d828e016114b9565b98505060606115488d828e016114b9565b97505060806115598d828e016114b9565b96505060a061156a8d828e016114ce565b95505060c061157b8d828e016114ce565b94505060e061158c8d828e016114ce565b93505061010061159e8d828e016114ce565b9250506101206115b08d828e016114ce565b9150509295989b9194979a5092959850565b6000819050919050565b6000819050919050565b60006115f16115ec6115e7846115c2565b6115cc565b610da2565b9050919050565b611601816115d6565b82525050565b600060408201905061161c6000830185610f09565b61162960208301846115f8565b9392505050565b60006020828403121561164657611645610d3f565b5b6000611654848285016114b9565b91505092915050565b600060ff82169050919050565b6116738161165d565b811461167e57600080fd5b50565b6000815190506116908161166a565b92915050565b6000602082840312156116ac576116ab610d3f565b5b60006116ba84828501611681565b91505092915050565b60006116de6116d96116d48461165d565b6115cc565b610da2565b9050919050565b6116ee816116c3565b82525050565b60006040820190506117096000830185610f09565b61171660208301846116e5565b9392505050565b600061172882610e65565b91507f800000000000000000000000000000000000000000000000000000000000000082141561175b5761175a611323565b5b81600003905091905056fea2646970667358221220172c5db91d2a4c0ebdefd62ec151f53c6d364c7f434a4d6da9862fabf090dba064736f6c63430008090033",
  "immutableReferences": {},
  "source": "// SPDX-License-Identifier: MIT\npragma solidity 0.8.9;\n\nimport \"./MoretInterfaces.sol\";\nimport \"@openzeppelin/contracts/utils/math/Math.sol\";\nimport \"@openzeppelin/contracts/token/ERC20/ERC20.sol\";\nimport \"./FullMath.sol\";\nimport \"./OptionLibrary.sol\";\n\nlibrary MarketLibrary {\n  \n  function getLendingTokenAddresses(address _protocolDataProviderAddress, address _tokenAddress)\n  public view returns (address, address, address){\n    IProtocolDataProvider _protocolDataProvider = IProtocolDataProvider(_protocolDataProviderAddress);\n    return  _protocolDataProvider.getReserveTokensAddresses(_tokenAddress);}\n\n  function getTokenBalances(address _contractAddress, address _protocolDataProviderAddress, address _tokenAddress) public view returns(uint256, uint256, uint256) {\n    (address _aToken, address _stableLoan, address _variableLoan) = getLendingTokenAddresses(_protocolDataProviderAddress, _tokenAddress);\n    return (balanceDef(_tokenAddress, _contractAddress), balanceDef(_aToken, _contractAddress),balanceDef(_stableLoan, _contractAddress) + balanceDef(_variableLoan, _contractAddress)); }\n\n  function getLTV(address _protocolDataProviderAddress, address _tokenAddress) public view returns (uint256) {\n    IProtocolDataProvider _protocolDataProvider = IProtocolDataProvider(_protocolDataProviderAddress);\n    (, uint256 _ltv, ,,,,,,, ) = _protocolDataProvider.getReserveConfigurationData(_tokenAddress);\n    return OptionLibrary.ToDefaultDecimals(_ltv, 4); } \n    \n  function getLoanTrade(address _contractAddress, address _protocolDataProviderAddress, int256 _aggregateDelta, address _underlyingAddress, bool _useVariableRate) public view returns(int256 _loanChange, uint256 _targetLoan, address _loanAddress){\n    ( , address _stableLoanAddress,  address _variableLoanAddress) = IProtocolDataProvider(_protocolDataProviderAddress).getReserveTokensAddresses(_underlyingAddress);\n    _loanAddress = _useVariableRate? _variableLoanAddress: _stableLoanAddress;\n    uint256 _debtBalance = balanceDef(_loanAddress, _contractAddress);\n    _targetLoan = _aggregateDelta >=0 ? 0: uint256(-_aggregateDelta);\n    _loanChange = int256(_targetLoan) - int256(_debtBalance);}\n  \n  function getCollateralTrade(address _contractAddress, address _protocolDataProviderAddress, uint256 _targetLoan, uint256 _price, address _fundingAddress, address _underlyingAddress) public view returns(int256 _collateralChange, address _collateralAddress) {\n    (_collateralAddress, , ) = IProtocolDataProvider(_protocolDataProviderAddress).getReserveTokensAddresses(_fundingAddress);\n    uint256 _ltv = getLTV(_protocolDataProviderAddress, _underlyingAddress);\n    uint256 _collateralBalance = balanceDef(_collateralAddress, _contractAddress);\n    uint256 _requiredCollateral = MulDiv(_targetLoan, _price , _ltv);\n    uint256 _fundingBalance = balanceDef(_fundingAddress, _contractAddress);\n    require(_requiredCollateral<= (_fundingBalance + _collateralBalance), \"Insufficient collateral;\");\n    _collateralChange =  int256(_requiredCollateral) - int256(_collateralBalance);}\n\n  function getSwapTrade(address _contractAddress, int256 _aggregateDelta, address _underlyingAddress) public view returns (int256 _underlyingChange){\n    _underlyingChange = (_aggregateDelta >=0 ? _aggregateDelta: int256(0)) - int256(IERC20(_underlyingAddress).balanceOf(_contractAddress));}\n\n  function balanceDef(address _tokenAddress, address _accountAddress) public view returns(uint256){\n    return OptionLibrary.ToDefaultDecimals(ERC20(_tokenAddress).balanceOf(_accountAddress), ERC20(_tokenAddress).decimals());}\n\n  function cvtDef(uint256 _amount, address _tokenAddress) public view returns(uint256){\n    return OptionLibrary.ToDefaultDecimals(_amount, ERC20(_tokenAddress).decimals());}\n\n  function cvtDecimals(uint256 _amount, address _tokenAddress) public view returns(uint256){\n    return OptionLibrary.ToCustomDecimals(_amount, ERC20(_tokenAddress).decimals());}\n\n  function cvtDecimalsInt(int256 _amount, address _tokenAddress) public view returns(int256 _newAmount){\n    _newAmount = _amount;\n    if(_amount > 0) _newAmount = int256(cvtDecimals(uint256(_amount), _tokenAddress));\n    if(_amount < 0) _newAmount = -int256(cvtDecimals(uint256(-_amount), _tokenAddress));}\n  \n  function cleanTradeAmounts(int256 _underlyingAmt, int256 _fundingAmt, address _underlyingAddress, address _fundingAddress) public pure returns(uint256 _fromAmount, uint256 _toAmount, address _fromAddress, address _toAddress){\n    _fromAmount = 0;\n    _toAmount = 0;\n    _fromAddress = _fundingAddress;\n    _toAddress = _underlyingAddress;\n    if(_underlyingAmt > 0 && _fundingAmt < 0){\n      _fromAmount = uint256(-_fundingAmt);\n      _toAmount = uint256(_underlyingAmt);}\n    if(_underlyingAmt < 0 && _fundingAmt> 0){\n      _fromAmount = uint256(-_underlyingAmt);\n      _fromAddress = _underlyingAddress;\n      _toAmount = uint256(_fundingAmt);\n      _toAddress = _fundingAddress;}}\n}\n",
  "sourcePath": "/Users/apple/Documents/GitHub/moret/contracts/MarketLibrary.sol",
  "compiler": {
    "name": "solc",
    "version": "0.8.9+commit.e5eed63a.Emscripten.clang"
  },
  "schemaVersion": "3.4.3",
  "updatedAt": "2021-11-24T19:45:48.456Z",
  "networkType": "ethereum",
  "devdoc": {
    "kind": "dev",
    "methods": {},
    "version": 1
  },
  "userdoc": {
    "kind": "user",
    "methods": {},
    "version": 1
  }
}