{
  "contractName": "MarketLibrary",
  "abi": [
    {
      "inputs": [
        {
          "internalType": "address",
          "name": "_protocolDataProviderAddress",
          "type": "address"
        },
        {
          "internalType": "address",
          "name": "_tokenAddress",
          "type": "address"
        }
      ],
      "name": "getLendingTokenAddresses",
      "outputs": [
        {
          "internalType": "address",
          "name": "",
          "type": "address"
        },
        {
          "internalType": "address",
          "name": "",
          "type": "address"
        },
        {
          "internalType": "address",
          "name": "",
          "type": "address"
        }
      ],
      "stateMutability": "view",
      "type": "function"
    },
    {
      "inputs": [
        {
          "internalType": "address",
          "name": "_contractAddress",
          "type": "address"
        },
        {
          "internalType": "address",
          "name": "_protocolDataProviderAddress",
          "type": "address"
        },
        {
          "internalType": "address",
          "name": "_tokenAddress",
          "type": "address"
        }
      ],
      "name": "getTokenBalances",
      "outputs": [
        {
          "internalType": "uint256",
          "name": "",
          "type": "uint256"
        },
        {
          "internalType": "uint256",
          "name": "",
          "type": "uint256"
        },
        {
          "internalType": "uint256",
          "name": "",
          "type": "uint256"
        }
      ],
      "stateMutability": "view",
      "type": "function"
    }
  ],
  "bytecode": "0x6106d4610053600b82828239805160001a607314610046577f4e487b7100000000000000000000000000000000000000000000000000000000600052600060045260246000fd5b30600052607381538281f3fe73000000000000000000000000000000000000000030146080604052600436106100405760003560e01c806332c21e13146100455780638684fd2814610077575b600080fd5b61005f600480360381019061005a9190610421565b6100a9565b60405161006e93929190610573565b60405180910390f35b610091600480360381019061008c91906103e1565b610302565b6040516100a09392919061053c565b60405180910390f35b6000806000806000806100bc8888610302565b9250925092508673ffffffffffffffffffffffffffffffffffffffff166370a082318a6040518263ffffffff1660e01b81526004016100fb9190610521565b60206040518083038186803b15801561011357600080fd5b505afa158015610127573d6000803e3d6000fd5b505050506040513d601f19601f8201168201806040525081019061014b91906104c7565b8373ffffffffffffffffffffffffffffffffffffffff166370a082318b6040518263ffffffff1660e01b81526004016101849190610521565b60206040518083038186803b15801561019c57600080fd5b505afa1580156101b0573d6000803e3d6000fd5b505050506040513d601f19601f820116820180604052508101906101d491906104c7565b8273ffffffffffffffffffffffffffffffffffffffff166370a082318c6040518263ffffffff1660e01b815260040161020d9190610521565b60206040518083038186803b15801561022557600080fd5b505afa158015610239573d6000803e3d6000fd5b505050506040513d601f19601f8201168201806040525081019061025d91906104c7565b8473ffffffffffffffffffffffffffffffffffffffff166370a082318d6040518263ffffffff1660e01b81526004016102969190610521565b60206040518083038186803b1580156102ae57600080fd5b505afa1580156102c2573d6000803e3d6000fd5b505050506040513d601f19601f820116820180604052508101906102e691906104c7565b6102f091906105aa565b95509550955050505093509350939050565b6000806000808590508073ffffffffffffffffffffffffffffffffffffffff1663d2493b6c866040518263ffffffff1660e01b81526004016103449190610521565b60606040518083038186803b15801561035c57600080fd5b505afa158015610370573d6000803e3d6000fd5b505050506040513d601f19601f820116820180604052508101906103949190610474565b935093509350509250925092565b6000813590506103b181610670565b92915050565b6000815190506103c681610670565b92915050565b6000815190506103db81610687565b92915050565b600080604083850312156103f8576103f761066b565b5b6000610406858286016103a2565b9250506020610417858286016103a2565b9150509250929050565b60008060006060848603121561043a5761043961066b565b5b6000610448868287016103a2565b9350506020610459868287016103a2565b925050604061046a868287016103a2565b9150509250925092565b60008060006060848603121561048d5761048c61066b565b5b600061049b868287016103b7565b93505060206104ac868287016103b7565b92505060406104bd868287016103b7565b9150509250925092565b6000602082840312156104dd576104dc61066b565b5b60006104eb848285016103cc565b91505092915050565b6104fd81610600565b82525050565b61050c81610600565b82525050565b61051b81610632565b82525050565b600060208201905061053660008301846104f4565b92915050565b60006060820190506105516000830186610503565b61055e6020830185610503565b61056b6040830184610503565b949350505050565b60006060820190506105886000830186610512565b6105956020830185610512565b6105a26040830184610512565b949350505050565b60006105b582610632565b91506105c083610632565b9250827fffffffffffffffffffffffffffffffffffffffffffffffffffffffffffffffff038211156105f5576105f461063c565b5b828201905092915050565b600061060b82610612565b9050919050565b600073ffffffffffffffffffffffffffffffffffffffff82169050919050565b6000819050919050565b7f4e487b7100000000000000000000000000000000000000000000000000000000600052601160045260246000fd5b600080fd5b61067981610600565b811461068457600080fd5b50565b61069081610632565b811461069b57600080fd5b5056fea26469706673582212200f5c408b34d05c65af8749c282b279e464dbd6822285029c76ed6673e317e61764736f6c63430008070033",
  "immutableReferences": {},
  "source": "/**\n * SPDX-License-Identifier: GPL-3.0-or-later\n * Moret\n * Copyright (C) 2021 Moret\n*/\n\npragma solidity ^0.8.4;\n\nimport \"./MarketInterfaces.sol\";\nimport \"@openzeppelin/contracts/utils/math/Math.sol\";\nimport \"./FullMath.sol\";\n\nlibrary MarketLibrary {\n  \n  function getLendingTokenAddresses(address _protocolDataProviderAddress, address _tokenAddress)\n  public view returns (address, address, address){\n    /* ILendingPoolAddressesProvider _lendingPoolAddressProvider = ILendingPoolAddressesProvider(_lendingPoolAddressProviderAddress); */\n    IProtocolDataProvider _protocolDataProvider = IProtocolDataProvider(_protocolDataProviderAddress);\n    return  _protocolDataProvider.getReserveTokensAddresses(_tokenAddress);\n  }\n\n  function getTokenBalances(address _contractAddress, address _protocolDataProviderAddress, address _tokenAddress)\n  public view returns(uint256, uint256, uint256)\n  {\n    (address _aToken, address _stableDebt, address _variableDebt) = getLendingTokenAddresses(_protocolDataProviderAddress, _tokenAddress);\n    return (IERC20(_tokenAddress).balanceOf(_contractAddress),\n        IERC20(_aToken).balanceOf(_contractAddress),\n        IERC20(_stableDebt).balanceOf(_contractAddress) + IERC20(_variableDebt).balanceOf(_contractAddress));\n  }\n/*\n  function getTokenAndCollateral(address _contractAddress, address _protocolDataProviderAddress, address _tokenAddress)\n  public view returns(uint256, uint256)\n  {\n    (address _aToken,,) = getLendingTokenAddresses(_protocolDataProviderAddress, _tokenAddress);\n    return  (IERC20(_aToken).balanceOf(_contractAddress), int256(IERC20(_tokenAddress).balanceOf(_contractAddress)));\n  }\n \n  function getLTV(address _protocolDataProviderAddress, address _tokenAddress)\n  public view returns (uint256, uint256)\n  {\n    IProtocolDataProvider _protocolDataProvider = IProtocolDataProvider(_protocolDataProviderAddress);\n    (uint256 _reserveDecimals, uint256 _ltv, ,,,,,,, ) = _protocolDataProvider.getReserveConfigurationData(_tokenAddress);\n    return (_ltv, 10**_reserveDecimals);\n  }\n\n  function calcRepay(int256 _targetBalances, address _contractAddress, address _protocolDataProviderAddress, address _tokenAddress)\n  public view returns(uint256)\n  {\n    (address _aToken, address _stableDebt, address _variableDebt) = getLendingTokenAddresses(_protocolDataProviderAddress, _tokenAddress);\n    uint256 _currentBalances = IERC20(_tokenAddress).balanceOf(_contractAddress) + IERC20(_aToken).balanceOf(_contractAddress);\n    return Math.min(uint256(int256(_currentBalances) - _targetBalances),\n      IERC20(_stableDebt).balanceOf(_contractAddress) + IERC20(_variableDebt).balanceOf(_contractAddress));\n  }\n\n  function calcBorrow(int256 _targetBalances, address _contractAddress, address _protocolDataProviderAddress, address _tokenAddress)\n  public view returns(uint256)\n  {\n    (address _aToken, ,) = getLendingTokenAddresses(_protocolDataProviderAddress, _tokenAddress);\n    (uint256 _ltv, uint256 _ltvMultiplier) = getLTV(_protocolDataProviderAddress, _tokenAddress);\n\n    uint256 _currentBalances = IERC20(_tokenAddress).balanceOf(_contractAddress) + IERC20(_aToken).balanceOf(_contractAddress);\n    return Math.min(uint256(_targetBalances) - _currentBalances,\n        MulDiv(IERC20(_tokenAddress).balanceOf(_contractAddress) - MulDiv(IERC20(_aToken).balanceOf(_contractAddress) , _ltv, _ltvMultiplier) , _ltv, _ltvMultiplier));\n  } */\n}\n",
  "sourcePath": "/Users/mac/Documents/GitHub/moret/contracts/MarketLibrary.sol",
  "compiler": {
    "name": "solc",
    "version": "0.8.7+commit.e28d00a7.Emscripten.clang"
  },
  "schemaVersion": "3.4.3",
  "updatedAt": "2021-09-15T23:24:55.171Z",
  "devdoc": {
    "kind": "dev",
    "methods": {},
    "version": 1
  },
  "userdoc": {
    "kind": "user",
    "methods": {},
    "version": 1
  }
}