{
  "contractName": "MarketLibrary",
  "abi": [
    {
      "inputs": [
        {
          "internalType": "address",
          "name": "_protocolDataProviderAddress",
          "type": "address"
        },
        {
          "internalType": "address",
          "name": "_tokenAddress",
          "type": "address"
        }
      ],
      "name": "getLendingTokenAddresses",
      "outputs": [
        {
          "internalType": "address",
          "name": "",
          "type": "address"
        },
        {
          "internalType": "address",
          "name": "",
          "type": "address"
        },
        {
          "internalType": "address",
          "name": "",
          "type": "address"
        }
      ],
      "stateMutability": "view",
      "type": "function"
    },
    {
      "inputs": [
        {
          "internalType": "address",
          "name": "_contractAddress",
          "type": "address"
        },
        {
          "internalType": "address",
          "name": "_protocolDataProviderAddress",
          "type": "address"
        },
        {
          "internalType": "address",
          "name": "_tokenAddress",
          "type": "address"
        }
      ],
      "name": "getTokenBalances",
      "outputs": [
        {
          "internalType": "uint256",
          "name": "",
          "type": "uint256"
        },
        {
          "internalType": "uint256",
          "name": "",
          "type": "uint256"
        },
        {
          "internalType": "uint256",
          "name": "",
          "type": "uint256"
        }
      ],
      "stateMutability": "view",
      "type": "function"
    },
    {
      "inputs": [
        {
          "internalType": "address",
          "name": "_protocolDataProviderAddress",
          "type": "address"
        },
        {
          "internalType": "address",
          "name": "_tokenAddress",
          "type": "address"
        }
      ],
      "name": "getLTV",
      "outputs": [
        {
          "internalType": "uint256",
          "name": "",
          "type": "uint256"
        }
      ],
      "stateMutability": "view",
      "type": "function"
    },
    {
      "inputs": [
        {
          "internalType": "address",
          "name": "_contractAddress",
          "type": "address"
        },
        {
          "internalType": "address",
          "name": "_protocolDataProviderAddress",
          "type": "address"
        },
        {
          "internalType": "int256",
          "name": "_aggregateDelta",
          "type": "int256"
        },
        {
          "internalType": "address",
          "name": "_underlyingAddress",
          "type": "address"
        },
        {
          "internalType": "bool",
          "name": "_useVariableRate",
          "type": "bool"
        }
      ],
      "name": "getLoanTrade",
      "outputs": [
        {
          "internalType": "int256",
          "name": "_loanChange",
          "type": "int256"
        },
        {
          "internalType": "uint256",
          "name": "_targetLoan",
          "type": "uint256"
        },
        {
          "internalType": "address",
          "name": "_loanAddress",
          "type": "address"
        }
      ],
      "stateMutability": "view",
      "type": "function"
    },
    {
      "inputs": [
        {
          "internalType": "address",
          "name": "_contractAddress",
          "type": "address"
        },
        {
          "internalType": "address",
          "name": "_protocolDataProviderAddress",
          "type": "address"
        },
        {
          "internalType": "uint256",
          "name": "_targetLoan",
          "type": "uint256"
        },
        {
          "internalType": "uint256",
          "name": "_price",
          "type": "uint256"
        },
        {
          "internalType": "address",
          "name": "_fundingAddress",
          "type": "address"
        },
        {
          "internalType": "address",
          "name": "_underlyingAddress",
          "type": "address"
        }
      ],
      "name": "getCollateralTrade",
      "outputs": [
        {
          "internalType": "int256",
          "name": "_collateralChange",
          "type": "int256"
        },
        {
          "internalType": "address",
          "name": "_collateralAddress",
          "type": "address"
        }
      ],
      "stateMutability": "view",
      "type": "function"
    },
    {
      "inputs": [
        {
          "internalType": "address",
          "name": "_contractAddress",
          "type": "address"
        },
        {
          "internalType": "int256",
          "name": "_aggregateDelta",
          "type": "int256"
        },
        {
          "internalType": "address",
          "name": "_underlyingAddress",
          "type": "address"
        }
      ],
      "name": "getSwapTrade",
      "outputs": [
        {
          "internalType": "int256",
          "name": "_underlyingChange",
          "type": "int256"
        }
      ],
      "stateMutability": "view",
      "type": "function"
    },
    {
      "inputs": [
        {
          "internalType": "address",
          "name": "_tokenAddress",
          "type": "address"
        },
        {
          "internalType": "address",
          "name": "_accountAddress",
          "type": "address"
        }
      ],
      "name": "balanceDef",
      "outputs": [
        {
          "internalType": "uint256",
          "name": "",
          "type": "uint256"
        }
      ],
      "stateMutability": "view",
      "type": "function"
    },
    {
      "inputs": [
        {
          "internalType": "uint256",
          "name": "_amount",
          "type": "uint256"
        },
        {
          "internalType": "address",
          "name": "_tokenAddress",
          "type": "address"
        }
      ],
      "name": "cvtDef",
      "outputs": [
        {
          "internalType": "uint256",
          "name": "",
          "type": "uint256"
        }
      ],
      "stateMutability": "view",
      "type": "function"
    },
    {
      "inputs": [
        {
          "internalType": "uint256",
          "name": "_amount",
          "type": "uint256"
        },
        {
          "internalType": "address",
          "name": "_tokenAddress",
          "type": "address"
        }
      ],
      "name": "cvtDecimals",
      "outputs": [
        {
          "internalType": "uint256",
          "name": "",
          "type": "uint256"
        }
      ],
      "stateMutability": "view",
      "type": "function"
    },
    {
      "inputs": [
        {
          "internalType": "int256",
          "name": "_amount",
          "type": "int256"
        },
        {
          "internalType": "address",
          "name": "_tokenAddress",
          "type": "address"
        }
      ],
      "name": "cvtDecimalsInt",
      "outputs": [
        {
          "internalType": "int256",
          "name": "_newAmount",
          "type": "int256"
        }
      ],
      "stateMutability": "view",
      "type": "function"
    }
  ],
  "bytecode": "0x61161c610053600b82828239805160001a607314610046577f4e487b7100000000000000000000000000000000000000000000000000000000600052600060045260246000fd5b30600052607381538281f3fe73000000000000000000000000000000000000000030146080604052600436106100a85760003560e01c8063aa5c12c711610070578063aa5c12c7146101a2578063b076288a146101d2578063cfb94def14610204578063eea2526b14610234578063f0742a2514610264576100a8565b806312638d3a146100ad57806332c21e13146100de578063680f43b1146101105780638170ce80146101405780638684fd2814610170575b600080fd5b6100c760048036038101906100c29190610d3f565b610294565b6040516100d5929190610df4565b60405180910390f35b6100f860048036038101906100f39190610e1d565b6103d4565b60405161010793929190610e7f565b60405180910390f35b61012a60048036038101906101259190610eb6565b610431565b6040516101379190610ef6565b60405180910390f35b61015a60048036038101906101559190610f11565b610564565b6040516101679190610ef6565b60405180910390f35b61018a60048036038101906101859190610eb6565b610674565b60405161019993929190610f51565b60405180910390f35b6101bc60048036038101906101b79190610fb4565b610714565b6040516101c99190610ff4565b60405180910390f35b6101ec60048036038101906101e79190611047565b61075d565b6040516101fb939291906110c2565b60405180910390f35b61021e600480360381019061021991906110f9565b610852565b60405161022b9190610ff4565b60405180910390f35b61024e60048036038101906102499190610eb6565b610902565b60405161025b9190610ef6565b60405180910390f35b61027e60048036038101906102799190610f11565b610a9a565b60405161028b9190610ef6565b60405180910390f35b6000808673ffffffffffffffffffffffffffffffffffffffff1663d2493b6c856040518263ffffffff1660e01b81526004016102d0919061115b565b60606040518083038186803b1580156102e857600080fd5b505afa1580156102fc573d6000803e3d6000fd5b505050506040513d601f19601f82011682018060405250810190610320919061118b565b9050508091505060006103338885610431565b90506000610341838b610902565b90506000610350898985610baa565b9050600061035e888d610902565b9050828161036c919061120d565b8211156103ae576040517f08c379a00000000000000000000000000000000000000000000000000000000081526004016103a5906112c0565b60405180910390fd5b6103c383836103bd91906112e0565b86610714565b955050505050965096945050505050565b6000806000806000806103e78888610674565b9250925092506103f7878a610902565b610401848b610902565b61040b838c610902565b610415858d610902565b61041f919061120d565b95509550955050505093509350939050565b6000808390506000808273ffffffffffffffffffffffffffffffffffffffff16633e150141866040518263ffffffff1660e01b8152600401610473919061115b565b6101406040518083038186803b15801561048c57600080fd5b505afa1580156104a0573d6000803e3d6000fd5b505050506040513d601f19601f820116820180604052508101906104c4919061139e565b50505050505050509150915073__OptionLibrary_________________________63bde840ed82846040518363ffffffff1660e01b815260040161050992919061147d565b60206040518083038186803b15801561052157600080fd5b505af4158015610535573d6000803e3d6000fd5b505050506040513d601f19601f8201168201806040525081019061055991906114a6565b935050505092915050565b600073__OptionLibrary_________________________63092f957a848473ffffffffffffffffffffffffffffffffffffffff1663313ce5676040518163ffffffff1660e01b815260040160206040518083038186803b1580156105c757600080fd5b505afa1580156105db573d6000803e3d6000fd5b505050506040513d601f19601f820116820180604052508101906105ff919061150c565b6040518363ffffffff1660e01b815260040161061c929190611574565b60206040518083038186803b15801561063457600080fd5b505af4158015610648573d6000803e3d6000fd5b505050506040513d601f19601f8201168201806040525081019061066c91906114a6565b905092915050565b6000806000808590508073ffffffffffffffffffffffffffffffffffffffff1663d2493b6c866040518263ffffffff1660e01b81526004016106b6919061115b565b60606040518083038186803b1580156106ce57600080fd5b505afa1580156106e2573d6000803e3d6000fd5b505050506040513d601f19601f82011682018060405250810190610706919061118b565b935093509350509250925092565b6000829050600083131561072f5761072c8383610564565b90505b60008312156107575761074b836107459061159d565b83610564565b6107549061159d565b90505b92915050565b60008060008060008873ffffffffffffffffffffffffffffffffffffffff1663d2493b6c886040518263ffffffff1660e01b815260040161079e919061115b565b60606040518083038186803b1580156107b657600080fd5b505afa1580156107ca573d6000803e3d6000fd5b505050506040513d601f19601f820116820180604052508101906107ee919061118b565b9250925050856107fe5781610800565b805b9250600061080e848c610902565b9050600089121561082857886108239061159d565b61082b565b60005b9450610842818661083c91906112e0565b85610714565b9550505050955095509592505050565b60008173ffffffffffffffffffffffffffffffffffffffff166370a08231856040518263ffffffff1660e01b815260040161088d919061115b565b60206040518083038186803b1580156108a557600080fd5b505afa1580156108b9573d6000803e3d6000fd5b505050506040513d601f19601f820116820180604052508101906108dd91906114a6565b60008412156108ed5760006108ef565b835b6108f991906112e0565b90509392505050565b600073__OptionLibrary_________________________63bde840ed8473ffffffffffffffffffffffffffffffffffffffff166370a08231856040518263ffffffff1660e01b8152600401610957919061115b565b60206040518083038186803b15801561096f57600080fd5b505afa158015610983573d6000803e3d6000fd5b505050506040513d601f19601f820116820180604052508101906109a791906114a6565b8573ffffffffffffffffffffffffffffffffffffffff1663313ce5676040518163ffffffff1660e01b815260040160206040518083038186803b1580156109ed57600080fd5b505afa158015610a01573d6000803e3d6000fd5b505050506040513d601f19601f82011682018060405250810190610a25919061150c565b6040518363ffffffff1660e01b8152600401610a42929190611574565b60206040518083038186803b158015610a5a57600080fd5b505af4158015610a6e573d6000803e3d6000fd5b505050506040513d601f19601f82011682018060405250810190610a9291906114a6565b905092915050565b600073__OptionLibrary_________________________63bde840ed848473ffffffffffffffffffffffffffffffffffffffff1663313ce5676040518163ffffffff1660e01b815260040160206040518083038186803b158015610afd57600080fd5b505afa158015610b11573d6000803e3d6000fd5b505050506040513d601f19601f82011682018060405250810190610b35919061150c565b6040518363ffffffff1660e01b8152600401610b52929190611574565b60206040518083038186803b158015610b6a57600080fd5b505af4158015610b7e573d6000803e3d6000fd5b505050506040513d601f19601f82011682018060405250810190610ba291906114a6565b905092915050565b600080600080198587098587029250828110838203039150506000811415610be55760008411610bd957600080fd5b83820492505050610c9f565b808411610bf157600080fd5b60008486880990508281118203915080830392506000856001877fffffffffffffffffffffffffffffffffffffffffffffffffffffffffffffffff0301169050808604955080840493506001818260000304019050808302841793506000600287600302189050808702600203810290508087026002038102905080870260020381029050808702600203810290508087026002038102905080870260020381029050808502955050505050505b9392505050565b600080fd5b600073ffffffffffffffffffffffffffffffffffffffff82169050919050565b6000610cd682610cab565b9050919050565b610ce681610ccb565b8114610cf157600080fd5b50565b600081359050610d0381610cdd565b92915050565b6000819050919050565b610d1c81610d09565b8114610d2757600080fd5b50565b600081359050610d3981610d13565b92915050565b60008060008060008060c08789031215610d5c57610d5b610ca6565b5b6000610d6a89828a01610cf4565b9650506020610d7b89828a01610cf4565b9550506040610d8c89828a01610d2a565b9450506060610d9d89828a01610d2a565b9350506080610dae89828a01610cf4565b92505060a0610dbf89828a01610cf4565b9150509295509295509295565b6000819050919050565b610ddf81610dcc565b82525050565b610dee81610ccb565b82525050565b6000604082019050610e096000830185610dd6565b610e166020830184610de5565b9392505050565b600080600060608486031215610e3657610e35610ca6565b5b6000610e4486828701610cf4565b9350506020610e5586828701610cf4565b9250506040610e6686828701610cf4565b9150509250925092565b610e7981610d09565b82525050565b6000606082019050610e946000830186610e70565b610ea16020830185610e70565b610eae6040830184610e70565b949350505050565b60008060408385031215610ecd57610ecc610ca6565b5b6000610edb85828601610cf4565b9250506020610eec85828601610cf4565b9150509250929050565b6000602082019050610f0b6000830184610e70565b92915050565b60008060408385031215610f2857610f27610ca6565b5b6000610f3685828601610d2a565b9250506020610f4785828601610cf4565b9150509250929050565b6000606082019050610f666000830186610de5565b610f736020830185610de5565b610f806040830184610de5565b949350505050565b610f9181610dcc565b8114610f9c57600080fd5b50565b600081359050610fae81610f88565b92915050565b60008060408385031215610fcb57610fca610ca6565b5b6000610fd985828601610f9f565b9250506020610fea85828601610cf4565b9150509250929050565b60006020820190506110096000830184610dd6565b92915050565b60008115159050919050565b6110248161100f565b811461102f57600080fd5b50565b6000813590506110418161101b565b92915050565b600080600080600060a0868803121561106357611062610ca6565b5b600061107188828901610cf4565b955050602061108288828901610cf4565b945050604061109388828901610f9f565b93505060606110a488828901610cf4565b92505060806110b588828901611032565b9150509295509295909350565b60006060820190506110d76000830186610dd6565b6110e46020830185610e70565b6110f16040830184610de5565b949350505050565b60008060006060848603121561111257611111610ca6565b5b600061112086828701610cf4565b935050602061113186828701610f9f565b925050604061114286828701610cf4565b9150509250925092565b61115581610ccb565b82525050565b6000602082019050611170600083018461114c565b92915050565b60008151905061118581610cdd565b92915050565b6000806000606084860312156111a4576111a3610ca6565b5b60006111b286828701611176565b93505060206111c386828701611176565b92505060406111d486828701611176565b9150509250925092565b7f4e487b7100000000000000000000000000000000000000000000000000000000600052601160045260246000fd5b600061121882610d09565b915061122383610d09565b9250827fffffffffffffffffffffffffffffffffffffffffffffffffffffffffffffffff03821115611258576112576111de565b5b828201905092915050565b600082825260208201905092915050565b7f496e73756666696369656e7420636f6c6c61746572616c3b0000000000000000600082015250565b60006112aa601883611263565b91506112b582611274565b602082019050919050565b600060208201905081810360008301526112d98161129d565b9050919050565b60006112eb82610dcc565b91506112f683610dcc565b9250827f800000000000000000000000000000000000000000000000000000000000000001821260008412151615611331576113306111de565b5b827f7fffffffffffffffffffffffffffffffffffffffffffffffffffffffffffffff018213600084121615611369576113686111de565b5b828203905092915050565b60008151905061138381610d13565b92915050565b6000815190506113988161101b565b92915050565b6000806000806000806000806000806101408b8d0312156113c2576113c1610ca6565b5b60006113d08d828e01611374565b9a505060206113e18d828e01611374565b99505060406113f28d828e01611374565b98505060606114038d828e01611374565b97505060806114148d828e01611374565b96505060a06114258d828e01611389565b95505060c06114368d828e01611389565b94505060e06114478d828e01611389565b9350506101006114598d828e01611389565b92505061012061146b8d828e01611389565b9150509295989b9194979a5092959850565b60006040820190506114926000830185610e70565b61149f6020830184610e70565b9392505050565b6000602082840312156114bc576114bb610ca6565b5b60006114ca84828501611374565b91505092915050565b600060ff82169050919050565b6114e9816114d3565b81146114f457600080fd5b50565b600081519050611506816114e0565b92915050565b60006020828403121561152257611521610ca6565b5b6000611530848285016114f7565b91505092915050565b6000819050919050565b600061155e611559611554846114d3565b611539565b610d09565b9050919050565b61156e81611543565b82525050565b60006040820190506115896000830185610e70565b6115966020830184611565565b9392505050565b60006115a882610dcc565b91507f80000000000000000000000000000000000000000000000000000000000000008214156115db576115da6111de565b5b81600003905091905056fea2646970667358221220b609aac8558daf4588fac4e35e0be909293fc01d53ae7816e0863a29c44217e264736f6c63430008090033",
  "immutableReferences": {},
  "source": "// SPDX-License-Identifier: MIT\npragma solidity 0.8.9;\n\nimport \"./MoretInterfaces.sol\";\nimport \"@openzeppelin/contracts/utils/math/Math.sol\";\nimport \"@openzeppelin/contracts/token/ERC20/ERC20.sol\";\nimport \"./FullMath.sol\";\n\nlibrary MarketLibrary {\n  \n  function getLendingTokenAddresses(address _protocolDataProviderAddress, address _tokenAddress)\n  public view returns (address, address, address){\n    IProtocolDataProvider _protocolDataProvider = IProtocolDataProvider(_protocolDataProviderAddress);\n    return  _protocolDataProvider.getReserveTokensAddresses(_tokenAddress);}\n\n  function getTokenBalances(address _contractAddress, address _protocolDataProviderAddress, address _tokenAddress) public view returns(uint256, uint256, uint256) {\n    (address _aToken, address _stableLoan, address _variableLoan) = getLendingTokenAddresses(_protocolDataProviderAddress, _tokenAddress);\n    return (balanceDef(_tokenAddress, _contractAddress), balanceDef(_aToken, _contractAddress),balanceDef(_stableLoan, _contractAddress) + balanceDef(_variableLoan, _contractAddress)); }\n\n  function getLTV(address _protocolDataProviderAddress, address _tokenAddress) public view returns (uint256) {\n    IProtocolDataProvider _protocolDataProvider = IProtocolDataProvider(_protocolDataProviderAddress);\n    (uint256 _reserveDecimals, uint256 _ltv, ,,,,,,, ) = _protocolDataProvider.getReserveConfigurationData(_tokenAddress);\n    return OptionLibrary.ToDefaultDecimals(_ltv, _reserveDecimals); }\n    \n  function getLoanTrade(address _contractAddress, address _protocolDataProviderAddress, int256 _aggregateDelta, address _underlyingAddress, bool _useVariableRate) public view returns(int256 _loanChange, uint256 _targetLoan, address _loanAddress){\n    ( , address _stableLoanAddress,  address _variableLoanAddress) = IProtocolDataProvider(_protocolDataProviderAddress).getReserveTokensAddresses(_underlyingAddress);\n    _loanAddress = _useVariableRate? _variableLoanAddress: _stableLoanAddress;\n    uint256 _debtBalance = balanceDef(_loanAddress, _contractAddress);\n    _targetLoan = _aggregateDelta >=0 ? 0: uint256(-_aggregateDelta);\n    _loanChange = cvtDecimalsInt(int256(_targetLoan) -int256(_debtBalance), _loanAddress);}\n  \n  function getCollateralTrade(address _contractAddress, address _protocolDataProviderAddress, uint256 _targetLoan, uint256 _price, address _fundingAddress, address _underlyingAddress) public view returns(int256 _collateralChange, address _collateralAddress) {\n    (_collateralAddress, , ) = IProtocolDataProvider(_protocolDataProviderAddress).getReserveTokensAddresses(_fundingAddress);\n    uint256 _ltv = getLTV(_protocolDataProviderAddress, _underlyingAddress);\n    uint256 _collateralBalance = balanceDef(_collateralAddress, _contractAddress);\n    uint256 _requiredCollateral = MulDiv(_targetLoan, _price , _ltv);\n    uint256 _fundingBalance = balanceDef(_fundingAddress, _contractAddress);\n    require(_requiredCollateral<= (_fundingBalance + _collateralBalance), \"Insufficient collateral;\");\n    _collateralChange =  cvtDecimalsInt(int256(_requiredCollateral) - int256(_collateralBalance), _collateralAddress) ;}\n\n  function getSwapTrade(address _contractAddress, int256 _aggregateDelta, address _underlyingAddress) public view returns (int256 _underlyingChange){\n    _underlyingChange = (_aggregateDelta >=0 ? _aggregateDelta: int256(0)) - int256(IERC20(_underlyingAddress).balanceOf(_contractAddress));}\n\n  function balanceDef(address _tokenAddress, address _accountAddress) public view returns(uint256){\n    return OptionLibrary.ToDefaultDecimals(ERC20(_tokenAddress).balanceOf(_accountAddress), ERC20(_tokenAddress).decimals());}\n\n  function cvtDef(uint256 _amount, address _tokenAddress) public view returns(uint256){\n    return OptionLibrary.ToDefaultDecimals(_amount, ERC20(_tokenAddress).decimals());}\n\n  function cvtDecimals(uint256 _amount, address _tokenAddress) public view returns(uint256){\n    return OptionLibrary.ToCustomDecimals(_amount, ERC20(_tokenAddress).decimals());}\n\n  function cvtDecimalsInt(int256 _amount, address _tokenAddress) public view returns(int256 _newAmount){\n    _newAmount = _amount;\n    if(_amount > 0) _newAmount = int256(cvtDecimals(uint256(_amount), _tokenAddress));\n    if(_amount < 0) _newAmount = -int256(cvtDecimals(uint256(-_amount), _tokenAddress));}\n  \n}\n",
  "sourcePath": "/Users/mac/Documents/GitHub/moret/contracts/MarketLibrary.sol",
  "compiler": {
    "name": "solc",
    "version": "0.8.9+commit.e5eed63a.Emscripten.clang"
  },
  "schemaVersion": "3.4.3",
  "updatedAt": "2021-11-17T07:55:04.632Z",
  "devdoc": {
    "kind": "dev",
    "methods": {},
    "version": 1
  },
  "userdoc": {
    "kind": "user",
    "methods": {},
    "version": 1
  }
}