{
  "contractName": "MarketLibrary",
  "abi": [
    {
      "inputs": [],
      "name": "DECIMALS",
      "outputs": [
        {
          "internalType": "uint256",
          "name": "",
          "type": "uint256"
        }
      ],
      "stateMutability": "view",
      "type": "function",
      "constant": true
    },
    {
      "inputs": [],
      "name": "LTV_DECIMALS",
      "outputs": [
        {
          "internalType": "uint256",
          "name": "",
          "type": "uint256"
        }
      ],
      "stateMutability": "view",
      "type": "function",
      "constant": true
    },
    {
      "inputs": [
        {
          "internalType": "address",
          "name": "_contractAddress",
          "type": "address"
        },
        {
          "internalType": "contract IProtocolDataProvider",
          "name": "_protocolDataProvider",
          "type": "IProtocolDataProvider"
        },
        {
          "internalType": "contract ERC20",
          "name": "_token",
          "type": "ERC20"
        }
      ],
      "name": "getTokenBalances",
      "outputs": [
        {
          "internalType": "uint256",
          "name": "",
          "type": "uint256"
        },
        {
          "internalType": "uint256",
          "name": "",
          "type": "uint256"
        },
        {
          "internalType": "uint256",
          "name": "",
          "type": "uint256"
        }
      ],
      "stateMutability": "view",
      "type": "function",
      "constant": true
    },
    {
      "inputs": [
        {
          "internalType": "contract IProtocolDataProvider",
          "name": "_protocolDataProvider",
          "type": "IProtocolDataProvider"
        },
        {
          "internalType": "address",
          "name": "_tokenAddress",
          "type": "address"
        }
      ],
      "name": "getLTV",
      "outputs": [
        {
          "internalType": "uint256",
          "name": "",
          "type": "uint256"
        }
      ],
      "stateMutability": "view",
      "type": "function",
      "constant": true
    },
    {
      "inputs": [
        {
          "internalType": "address",
          "name": "_contractAddress",
          "type": "address"
        },
        {
          "internalType": "contract IProtocolDataProvider",
          "name": "_protocolDataProvider",
          "type": "IProtocolDataProvider"
        },
        {
          "internalType": "int256",
          "name": "_aggregateDelta",
          "type": "int256"
        },
        {
          "internalType": "contract ERC20",
          "name": "_underlying",
          "type": "ERC20"
        },
        {
          "internalType": "bool",
          "name": "_useVariableRate",
          "type": "bool"
        }
      ],
      "name": "getLoanTrade",
      "outputs": [
        {
          "internalType": "int256",
          "name": "_loanChange",
          "type": "int256"
        },
        {
          "internalType": "uint256",
          "name": "_targetLoan",
          "type": "uint256"
        },
        {
          "internalType": "address",
          "name": "_loanAddress",
          "type": "address"
        }
      ],
      "stateMutability": "view",
      "type": "function",
      "constant": true
    },
    {
      "inputs": [
        {
          "internalType": "address",
          "name": "_contractAddress",
          "type": "address"
        },
        {
          "internalType": "contract IProtocolDataProvider",
          "name": "_protocolDataProvider",
          "type": "IProtocolDataProvider"
        },
        {
          "internalType": "uint256",
          "name": "_targetLoan",
          "type": "uint256"
        },
        {
          "internalType": "uint256",
          "name": "_price",
          "type": "uint256"
        },
        {
          "internalType": "contract ERC20",
          "name": "_funding",
          "type": "ERC20"
        },
        {
          "internalType": "contract ERC20",
          "name": "_underlying",
          "type": "ERC20"
        },
        {
          "internalType": "uint256",
          "name": "_overCollateral",
          "type": "uint256"
        }
      ],
      "name": "getCollateralTrade",
      "outputs": [
        {
          "internalType": "int256",
          "name": "_collateralChange",
          "type": "int256"
        },
        {
          "internalType": "address",
          "name": "_collateralAddress",
          "type": "address"
        }
      ],
      "stateMutability": "view",
      "type": "function",
      "constant": true
    },
    {
      "inputs": [
        {
          "internalType": "contract ERC20",
          "name": "_token",
          "type": "ERC20"
        },
        {
          "internalType": "address",
          "name": "_accountAddress",
          "type": "address"
        }
      ],
      "name": "balanceDef",
      "outputs": [
        {
          "internalType": "uint256",
          "name": "",
          "type": "uint256"
        }
      ],
      "stateMutability": "view",
      "type": "function",
      "constant": true
    },
    {
      "inputs": [
        {
          "internalType": "uint256",
          "name": "_rawData",
          "type": "uint256"
        },
        {
          "internalType": "uint256",
          "name": "_rawDataDecimals",
          "type": "uint256"
        }
      ],
      "name": "toWei",
      "outputs": [
        {
          "internalType": "uint256",
          "name": "_data",
          "type": "uint256"
        }
      ],
      "stateMutability": "pure",
      "type": "function",
      "constant": true
    },
    {
      "inputs": [
        {
          "internalType": "uint256",
          "name": "_rawData",
          "type": "uint256"
        },
        {
          "internalType": "uint256",
          "name": "_rawDataDecimals",
          "type": "uint256"
        }
      ],
      "name": "toDecimals",
      "outputs": [
        {
          "internalType": "uint256",
          "name": "_data",
          "type": "uint256"
        }
      ],
      "stateMutability": "pure",
      "type": "function",
      "constant": true
    },
    {
      "inputs": [
        {
          "internalType": "int256",
          "name": "_amount",
          "type": "int256"
        },
        {
          "internalType": "uint256",
          "name": "_tokenDecimals",
          "type": "uint256"
        }
      ],
      "name": "toDecimalsInt",
      "outputs": [
        {
          "internalType": "int256",
          "name": "_newAmount",
          "type": "int256"
        }
      ],
      "stateMutability": "pure",
      "type": "function",
      "constant": true
    },
    {
      "inputs": [
        {
          "internalType": "int256",
          "name": "_underlyingAmt",
          "type": "int256"
        },
        {
          "internalType": "int256",
          "name": "_fundingAmt",
          "type": "int256"
        },
        {
          "internalType": "address",
          "name": "_underlyingAddress",
          "type": "address"
        },
        {
          "internalType": "address",
          "name": "_fundingAddress",
          "type": "address"
        }
      ],
      "name": "cleanTradeAmounts",
      "outputs": [
        {
          "internalType": "uint256",
          "name": "_fromAmount",
          "type": "uint256"
        },
        {
          "internalType": "uint256",
          "name": "_toAmount",
          "type": "uint256"
        },
        {
          "internalType": "address",
          "name": "_fromAddress",
          "type": "address"
        },
        {
          "internalType": "address",
          "name": "_toAddress",
          "type": "address"
        }
      ],
      "stateMutability": "pure",
      "type": "function",
      "constant": true
    }
  ],
  "bytecode": "0x61174f610053600b82828239805160001a607314610046577f4e487b7100000000000000000000000000000000000000000000000000000000600052600060045260246000fd5b30600052607381538281f3fe73000000000000000000000000000000000000000030146080604052600436106100b35760003560e01c806339a823d81161007b57806339a823d814610199578063865c9984146101c9578063983d3bb8146101fc5780639d38d0641461022c5780639e9be73f1461024a578063ed1bb1991461027c576100b3565b806303507d11146100b8578063174e20e6146100e95780632697b1d6146101195780632e0f262514610149578063358e7d4014610167575b600080fd5b6100d260048036038101906100cd9190610b61565b6102ac565b6040516100e0929190610c2b565b60405180910390f35b61010360048036038101906100fe9190610c54565b6104d3565b6040516101109190610ca3565b60405180910390f35b610133600480360381019061012e9190610cbe565b610543565b6040516101409190610ca3565b60405180910390f35b6101516105e0565b60405161015e9190610ca3565b60405180910390f35b610181600480360381019061017c9190610cfe565b6105e5565b60405161019093929190610d51565b60405180910390f35b6101b360048036038101906101ae9190610db4565b6106b2565b6040516101c09190610df4565b60405180910390f35b6101e360048036038101906101de9190610e0f565b610710565b6040516101f39493929190610e76565b60405180910390f35b61021660048036038101906102119190610ebb565b610784565b6040516102239190610ca3565b60405180910390f35b610234610882565b6040516102419190610ca3565b60405180910390f35b610264600480360381019061025f9190610f33565b610887565b60405161027393929190610fae565b60405180910390f35b61029660048036038101906102919190610c54565b610974565b6040516102a39190610ca3565b60405180910390f35b6000808773ffffffffffffffffffffffffffffffffffffffff1663d2493b6c866040518263ffffffff1660e01b81526004016102e89190610ff4565b606060405180830381865afa158015610305573d6000803e3d6000fd5b505050506040513d601f19601f820116820180604052508101906103299190611024565b90505080915050600061033c8986610543565b9050600061034a838c610784565b905060008973__FullMath______________________________63b3947c1790918b866040518463ffffffff1660e01b815260040161038b93929190610d51565b602060405180830381865af41580156103a8573d6000803e3d6000fd5b505050506040513d601f19601f820116820180604052508101906103cc919061108c565b73__FullMath______________________________631c4b9a2d9091886040518363ffffffff1660e01b81526004016104069291906110b9565b602060405180830381865af4158015610423573d6000803e3d6000fd5b505050506040513d601f19601f82011682018060405250810190610447919061108c565b90506000610455898e610784565b905082816104639190611111565b8211156104a5576040517f08c379a000000000000000000000000000000000000000000000000000000000815260040161049c906111c4565b60405180910390fd5b6104ae836109df565b6104b7836109df565b6104c191906111e4565b95505050505097509795505050505050565b6000829050816012111561050c578160126104ee9190611278565b600a6104fa91906113df565b836105059190611459565b905061053d565b816012101561053c576012826105229190611278565b600a61052e91906113df565b83610539919061148a565b90505b5b92915050565b6000808373ffffffffffffffffffffffffffffffffffffffff16633e150141846040518263ffffffff1660e01b815260040161057f9190610ff4565b61014060405180830381865afa15801561059d573d6000803e3d6000fd5b505050506040513d601f19601f820116820180604052508101906105c191906114f9565b50505050505050509150506105d7816004610974565b91505092915050565b601281565b6000806000806000808773ffffffffffffffffffffffffffffffffffffffff1663d2493b6c886040518263ffffffff1660e01b81526004016106279190610ff4565b606060405180830381865afa158015610644573d6000803e3d6000fd5b505050506040513d601f19601f820116820180604052508101906106689190611024565b925092509250610678878a610784565b610682848b610784565b61068c838c610784565b610696858d610784565b6106a09190611111565b95509550955050505093509350939050565b600082905060008313156106d9576106d26106cd84846104d3565b6109df565b905061070a565b6000831215610709576106fd6106f8846106f2906115d8565b846104d3565b6109df565b610706906115d8565b90505b5b92915050565b60008060008060009350600092508491508590506000881380156107345750600087125b1561074d5786610743906115d8565b9350879250610779565b60008812801561075d5750600087135b15610778578761076c906115d8565b93508591508692508490505b5b945094509450949050565b600061087a8373ffffffffffffffffffffffffffffffffffffffff166370a08231846040518263ffffffff1660e01b81526004016107c29190610ff4565b602060405180830381865afa1580156107df573d6000803e3d6000fd5b505050506040513d601f19601f82011682018060405250810190610803919061108c565b8473ffffffffffffffffffffffffffffffffffffffff1663313ce5676040518163ffffffff1660e01b8152600401602060405180830381865afa15801561084e573d6000803e3d6000fd5b505050506040513d601f19601f82011682018060405250810190610872919061165a565b60ff16610974565b905092915050565b600481565b60008060008060008873ffffffffffffffffffffffffffffffffffffffff1663d2493b6c886040518263ffffffff1660e01b81526004016108c89190610ff4565b606060405180830381865afa1580156108e5573d6000803e3d6000fd5b505050506040513d601f19601f820116820180604052508101906109099190611024565b925092505085610919578161091b565b805b92506000610929848c610784565b90506000891215610943578861093e906115d8565b610946565b60005b9450610951816109df565b61095a866109df565b61096491906111e4565b9550505050955095509592505050565b600082905081601211156109a95781601261098f9190611278565b600a61099b91906113df565b836109a6919061148a565b90505b81601210156109d9576012826109bf9190611278565b600a6109cb91906113df565b836109d69190611459565b90505b92915050565b60007f7fffffffffffffffffffffffffffffffffffffffffffffffffffffffffffffff821115610a44576040517f08c379a0000000000000000000000000000000000000000000000000000000008152600401610a3b906116f9565b60405180910390fd5b819050919050565b600080fd5b600073ffffffffffffffffffffffffffffffffffffffff82169050919050565b6000610a7c82610a51565b9050919050565b610a8c81610a71565b8114610a9757600080fd5b50565b600081359050610aa981610a83565b92915050565b6000610aba82610a71565b9050919050565b610aca81610aaf565b8114610ad557600080fd5b50565b600081359050610ae781610ac1565b92915050565b6000819050919050565b610b0081610aed565b8114610b0b57600080fd5b50565b600081359050610b1d81610af7565b92915050565b6000610b2e82610a71565b9050919050565b610b3e81610b23565b8114610b4957600080fd5b50565b600081359050610b5b81610b35565b92915050565b600080600080600080600060e0888a031215610b8057610b7f610a4c565b5b6000610b8e8a828b01610a9a565b9750506020610b9f8a828b01610ad8565b9650506040610bb08a828b01610b0e565b9550506060610bc18a828b01610b0e565b9450506080610bd28a828b01610b4c565b93505060a0610be38a828b01610b4c565b92505060c0610bf48a828b01610b0e565b91505092959891949750929550565b6000819050919050565b610c1681610c03565b82525050565b610c2581610a71565b82525050565b6000604082019050610c406000830185610c0d565b610c4d6020830184610c1c565b9392505050565b60008060408385031215610c6b57610c6a610a4c565b5b6000610c7985828601610b0e565b9250506020610c8a85828601610b0e565b9150509250929050565b610c9d81610aed565b82525050565b6000602082019050610cb86000830184610c94565b92915050565b60008060408385031215610cd557610cd4610a4c565b5b6000610ce385828601610ad8565b9250506020610cf485828601610a9a565b9150509250929050565b600080600060608486031215610d1757610d16610a4c565b5b6000610d2586828701610a9a565b9350506020610d3686828701610ad8565b9250506040610d4786828701610b4c565b9150509250925092565b6000606082019050610d666000830186610c94565b610d736020830185610c94565b610d806040830184610c94565b949350505050565b610d9181610c03565b8114610d9c57600080fd5b50565b600081359050610dae81610d88565b92915050565b60008060408385031215610dcb57610dca610a4c565b5b6000610dd985828601610d9f565b9250506020610dea85828601610b0e565b9150509250929050565b6000602082019050610e096000830184610c0d565b92915050565b60008060008060808587031215610e2957610e28610a4c565b5b6000610e3787828801610d9f565b9450506020610e4887828801610d9f565b9350506040610e5987828801610a9a565b9250506060610e6a87828801610a9a565b91505092959194509250565b6000608082019050610e8b6000830187610c94565b610e986020830186610c94565b610ea56040830185610c1c565b610eb26060830184610c1c565b95945050505050565b60008060408385031215610ed257610ed1610a4c565b5b6000610ee085828601610b4c565b9250506020610ef185828601610a9a565b9150509250929050565b60008115159050919050565b610f1081610efb565b8114610f1b57600080fd5b50565b600081359050610f2d81610f07565b92915050565b600080600080600060a08688031215610f4f57610f4e610a4c565b5b6000610f5d88828901610a9a565b9550506020610f6e88828901610ad8565b9450506040610f7f88828901610d9f565b9350506060610f9088828901610b4c565b9250506080610fa188828901610f1e565b9150509295509295909350565b6000606082019050610fc36000830186610c0d565b610fd06020830185610c94565b610fdd6040830184610c1c565b949350505050565b610fee81610a71565b82525050565b60006020820190506110096000830184610fe5565b92915050565b60008151905061101e81610a83565b92915050565b60008060006060848603121561103d5761103c610a4c565b5b600061104b8682870161100f565b935050602061105c8682870161100f565b925050604061106d8682870161100f565b9150509250925092565b60008151905061108681610af7565b92915050565b6000602082840312156110a2576110a1610a4c565b5b60006110b084828501611077565b91505092915050565b60006040820190506110ce6000830185610c94565b6110db6020830184610c94565b9392505050565b7f4e487b7100000000000000000000000000000000000000000000000000000000600052601160045260246000fd5b600061111c82610aed565b915061112783610aed565b9250827fffffffffffffffffffffffffffffffffffffffffffffffffffffffffffffffff0382111561115c5761115b6110e2565b5b828201905092915050565b600082825260208201905092915050565b7f496e73756666696369656e7420636f6c6c61746572616c3b0000000000000000600082015250565b60006111ae601883611167565b91506111b982611178565b602082019050919050565b600060208201905081810360008301526111dd816111a1565b9050919050565b60006111ef82610c03565b91506111fa83610c03565b9250827f800000000000000000000000000000000000000000000000000000000000000001821260008412151615611235576112346110e2565b5b827f7fffffffffffffffffffffffffffffffffffffffffffffffffffffffffffffff01821360008412161561126d5761126c6110e2565b5b828203905092915050565b600061128382610aed565b915061128e83610aed565b9250828210156112a1576112a06110e2565b5b828203905092915050565b60008160011c9050919050565b6000808291508390505b6001851115611303578086048111156112df576112de6110e2565b5b60018516156112ee5780820291505b80810290506112fc856112ac565b94506112c3565b94509492505050565b60008261131c57600190506113d8565b8161132a57600090506113d8565b8160018114611340576002811461134a57611379565b60019150506113d8565b60ff84111561135c5761135b6110e2565b5b8360020a915084821115611373576113726110e2565b5b506113d8565b5060208310610133831016604e8410600b84101617156113ae5782820a9050838111156113a9576113a86110e2565b5b6113d8565b6113bb84848460016112b9565b925090508184048111156113d2576113d16110e2565b5b81810290505b9392505050565b60006113ea82610aed565b91506113f583610aed565b92506114227fffffffffffffffffffffffffffffffffffffffffffffffffffffffffffffffff848461130c565b905092915050565b7f4e487b7100000000000000000000000000000000000000000000000000000000600052601260045260246000fd5b600061146482610aed565b915061146f83610aed565b92508261147f5761147e61142a565b5b828204905092915050565b600061149582610aed565b91506114a083610aed565b9250817fffffffffffffffffffffffffffffffffffffffffffffffffffffffffffffffff04831182151516156114d9576114d86110e2565b5b828202905092915050565b6000815190506114f381610f07565b92915050565b6000806000806000806000806000806101408b8d03121561151d5761151c610a4c565b5b600061152b8d828e01611077565b9a5050602061153c8d828e01611077565b995050604061154d8d828e01611077565b985050606061155e8d828e01611077565b975050608061156f8d828e01611077565b96505060a06115808d828e016114e4565b95505060c06115918d828e016114e4565b94505060e06115a28d828e016114e4565b9350506101006115b48d828e016114e4565b9250506101206115c68d828e016114e4565b9150509295989b9194979a5092959850565b60006115e382610c03565b91507f8000000000000000000000000000000000000000000000000000000000000000821415611616576116156110e2565b5b816000039050919050565b600060ff82169050919050565b61163781611621565b811461164257600080fd5b50565b6000815190506116548161162e565b92915050565b6000602082840312156116705761166f610a4c565b5b600061167e84828501611645565b91505092915050565b7f53616665436173743a2076616c756520646f65736e27742066697420696e206160008201527f6e20696e74323536000000000000000000000000000000000000000000000000602082015250565b60006116e3602883611167565b91506116ee82611687565b604082019050919050565b60006020820190508181036000830152611712816116d6565b905091905056fea264697066735822122052380bbb15b2397300a7c5f17dbad56acabe46cb2447fb9eed8f0eb2fe87036364736f6c634300080b0033",
  "immutableReferences": {},
  "source": "// SPDX-License-Identifier: MIT\npragma solidity ^0.8.0;\n\nimport \"@openzeppelin/contracts/utils/math/Math.sol\";\nimport \"@openzeppelin/contracts/token/ERC20/ERC20.sol\";\nimport \"./interfaces/IProtocolDataProvider.sol\";\nimport \"./OptionLibrary.sol\";\n\nlibrary MarketLibrary {\n  using FullMath for uint256;\n  uint256 public constant LTV_DECIMALS = 4;\n  uint256 public constant DECIMALS = 18;\n\n  // Returns balances of ERC20 token (as for _tokenAddress), its corresponding aToken (i.e. collaterals posted), and its debt tokens (including both variable and fixed loans)\n  function getTokenBalances(address _contractAddress, IProtocolDataProvider _protocolDataProvider, ERC20 _token) public view returns(uint256, uint256, uint256) {\n    (address _aToken, address _stableLoan, address _variableLoan) = _protocolDataProvider.getReserveTokensAddresses(address(_token));\n    return (balanceDef(_token, _contractAddress), balanceDef(ERC20(_aToken), _contractAddress),balanceDef(ERC20(_stableLoan), _contractAddress) + balanceDef(ERC20(_variableLoan), _contractAddress)); }\n\n  function getLTV(IProtocolDataProvider _protocolDataProvider, address _tokenAddress) public view returns (uint256) {\n    (, uint256 _ltv, ,,,,,,, ) = _protocolDataProvider.getReserveConfigurationData(_tokenAddress);\n    return toWei(_ltv, LTV_DECIMALS); } \n    \n  function getLoanTrade(address _contractAddress, IProtocolDataProvider _protocolDataProvider, int256 _aggregateDelta, ERC20 _underlying, bool _useVariableRate) public view returns(int256 _loanChange, uint256 _targetLoan, address _loanAddress){\n    ( , address _stableLoanAddress,  address _variableLoanAddress) = _protocolDataProvider.getReserveTokensAddresses(address(_underlying));\n    _loanAddress = _useVariableRate? _variableLoanAddress: _stableLoanAddress;\n    uint256 _debtBalance = balanceDef(ERC20(_loanAddress), _contractAddress);\n    _targetLoan = _aggregateDelta >=0 ? 0: uint256(-_aggregateDelta);\n    _loanChange = SafeCast.toInt256(_targetLoan) - SafeCast.toInt256(_debtBalance);}\n  \n  function getCollateralTrade(address _contractAddress, IProtocolDataProvider _protocolDataProvider, uint256 _targetLoan, uint256 _price, ERC20 _funding, ERC20 _underlying, uint256 _overCollateral) public view returns(int256 _collateralChange, address _collateralAddress) {\n    (_collateralAddress, , ) = _protocolDataProvider.getReserveTokensAddresses(address(_funding));\n    uint256 _ltv = getLTV(_protocolDataProvider, address(_underlying));\n    uint256 _collateralBalance = balanceDef(ERC20(_collateralAddress), _contractAddress);\n    uint256 _requiredCollateral = _targetLoan.muldiv(_price , _ltv).accrue(_overCollateral);\n    uint256 _fundingBalance = balanceDef(_funding, _contractAddress);\n    require(_requiredCollateral<= (_fundingBalance + _collateralBalance), \"Insufficient collateral;\");\n    _collateralChange =  SafeCast.toInt256(_requiredCollateral) - SafeCast.toInt256(_collateralBalance);}\n\n  function balanceDef(ERC20 _token, address _accountAddress) public view returns(uint256){\n    return toWei(_token.balanceOf(_accountAddress), _token.decimals());}\n\n  function toWei(uint256 _rawData, uint256 _rawDataDecimals) public pure returns(uint256 _data){\n    _data = _rawData;\n    if(DECIMALS > _rawDataDecimals){\n      _data = _rawData * (10** (DECIMALS - _rawDataDecimals));}\n    if(DECIMALS < _rawDataDecimals){\n      _data = _rawData / (10** (_rawDataDecimals - DECIMALS));}}\n\n  function toDecimals(uint256 _rawData, uint256 _rawDataDecimals) public pure returns(uint256 _data){\n    _data = _rawData;\n    if(DECIMALS > _rawDataDecimals){\n      _data = _rawData / (10 ** (DECIMALS - _rawDataDecimals));}\n    else if(DECIMALS < _rawDataDecimals){\n      _data = _rawData * (10 ** (_rawDataDecimals - DECIMALS));}}\n\n  function toDecimalsInt(int256 _amount, uint256 _tokenDecimals) public pure returns(int256 _newAmount){\n    _newAmount = _amount;\n    if(_amount > 0) {\n      _newAmount = SafeCast.toInt256(toDecimals(uint256(_amount), _tokenDecimals));}\n    else if(_amount < 0) {\n      _newAmount = -SafeCast.toInt256(toDecimals(uint256(-_amount), _tokenDecimals));}}\n  \n  function cleanTradeAmounts(int256 _underlyingAmt, int256 _fundingAmt, address _underlyingAddress, address _fundingAddress) public pure returns(uint256 _fromAmount, uint256 _toAmount, address _fromAddress, address _toAddress){\n    _fromAmount = 0;\n    _toAmount = 0;\n    _fromAddress = _fundingAddress;\n    _toAddress = _underlyingAddress;\n    if(_underlyingAmt > 0 && _fundingAmt < 0){\n      _fromAmount = uint256(-_fundingAmt);\n      _toAmount = uint256(_underlyingAmt);}\n    else if(_underlyingAmt < 0 && _fundingAmt> 0){\n      _fromAmount = uint256(-_underlyingAmt);\n      _fromAddress = _underlyingAddress;\n      _toAmount = uint256(_fundingAmt);\n      _toAddress = _fundingAddress;}}\n}\n",
  "sourcePath": "/Users/mac/Documents/GitHub/moret/contracts/MarketLibrary.sol",
  "compiler": {
    "name": "solc",
    "version": "0.8.11+commit.d7f03943.Emscripten.clang"
  },
  "schemaVersion": "3.4.3",
  "updatedAt": "2022-01-31T19:23:57.137Z",
  "networkType": "ethereum",
  "devdoc": {
    "kind": "dev",
    "methods": {},
    "version": 1
  },
  "userdoc": {
    "kind": "user",
    "methods": {},
    "version": 1
  }
}