{
  "contractName": "MarketLibrary",
  "abi": [
    {
      "inputs": [
        {
          "internalType": "address",
          "name": "_protocolDataProviderAddress",
          "type": "address"
        },
        {
          "internalType": "address",
          "name": "_tokenAddress",
          "type": "address"
        }
      ],
      "name": "getLendingTokenAddresses",
      "outputs": [
        {
          "internalType": "address",
          "name": "",
          "type": "address"
        },
        {
          "internalType": "address",
          "name": "",
          "type": "address"
        },
        {
          "internalType": "address",
          "name": "",
          "type": "address"
        }
      ],
      "stateMutability": "view",
      "type": "function"
    },
    {
      "inputs": [
        {
          "internalType": "address",
          "name": "_contractAddress",
          "type": "address"
        },
        {
          "internalType": "address",
          "name": "_protocolDataProviderAddress",
          "type": "address"
        },
        {
          "internalType": "address",
          "name": "_tokenAddress",
          "type": "address"
        }
      ],
      "name": "getTokenBalances",
      "outputs": [
        {
          "internalType": "uint256",
          "name": "",
          "type": "uint256"
        },
        {
          "internalType": "uint256",
          "name": "",
          "type": "uint256"
        },
        {
          "internalType": "uint256",
          "name": "",
          "type": "uint256"
        }
      ],
      "stateMutability": "view",
      "type": "function"
    },
    {
      "inputs": [
        {
          "internalType": "address",
          "name": "_protocolDataProviderAddress",
          "type": "address"
        },
        {
          "internalType": "address",
          "name": "_tokenAddress",
          "type": "address"
        }
      ],
      "name": "getLTV",
      "outputs": [
        {
          "internalType": "uint256",
          "name": "",
          "type": "uint256"
        },
        {
          "internalType": "uint256",
          "name": "",
          "type": "uint256"
        }
      ],
      "stateMutability": "view",
      "type": "function"
    }
  ],
  "bytecode": "0x610a8b610053600b82828239805160001a607314610046577f4e487b7100000000000000000000000000000000000000000000000000000000600052600060045260246000fd5b30600052607381538281f3fe730000000000000000000000000000000000000000301460806040526004361061004b5760003560e01c806332c21e1314610050578063680f43b1146100825780638684fd28146100b3575b600080fd5b61006a600480360381019061006591906104fe565b6100e5565b6040516100799392919061056a565b60405180910390f35b61009c600480360381019061009791906105a1565b61033e565b6040516100aa9291906105e1565b60405180910390f35b6100cd60048036038101906100c891906105a1565b6103fb565b6040516100dc93929190610619565b60405180910390f35b6000806000806000806100f888886103fb565b9250925092508673ffffffffffffffffffffffffffffffffffffffff166370a082318a6040518263ffffffff1660e01b8152600401610137919061065f565b60206040518083038186803b15801561014f57600080fd5b505afa158015610163573d6000803e3d6000fd5b505050506040513d601f19601f8201168201806040525081019061018791906106a6565b8373ffffffffffffffffffffffffffffffffffffffff166370a082318b6040518263ffffffff1660e01b81526004016101c0919061065f565b60206040518083038186803b1580156101d857600080fd5b505afa1580156101ec573d6000803e3d6000fd5b505050506040513d601f19601f8201168201806040525081019061021091906106a6565b8273ffffffffffffffffffffffffffffffffffffffff166370a082318c6040518263ffffffff1660e01b8152600401610249919061065f565b60206040518083038186803b15801561026157600080fd5b505afa158015610275573d6000803e3d6000fd5b505050506040513d601f19601f8201168201806040525081019061029991906106a6565b8473ffffffffffffffffffffffffffffffffffffffff166370a082318d6040518263ffffffff1660e01b81526004016102d2919061065f565b60206040518083038186803b1580156102ea57600080fd5b505afa1580156102fe573d6000803e3d6000fd5b505050506040513d601f19601f8201168201806040525081019061032291906106a6565b61032c9190610702565b95509550955050505093509350939050565b60008060008490506000808273ffffffffffffffffffffffffffffffffffffffff16633e150141876040518263ffffffff1660e01b8152600401610382919061065f565b6101406040518083038186803b15801561039b57600080fd5b505afa1580156103af573d6000803e3d6000fd5b505050506040513d601f19601f820116820180604052508101906103d39190610790565b5050505050505050915091508082600a6103ed91906109a2565b945094505050509250929050565b6000806000808590508073ffffffffffffffffffffffffffffffffffffffff1663d2493b6c866040518263ffffffff1660e01b815260040161043d919061065f565b60606040518083038186803b15801561045557600080fd5b505afa158015610469573d6000803e3d6000fd5b505050506040513d601f19601f8201168201806040525081019061048d9190610a02565b935093509350509250925092565b600080fd5b600073ffffffffffffffffffffffffffffffffffffffff82169050919050565b60006104cb826104a0565b9050919050565b6104db816104c0565b81146104e657600080fd5b50565b6000813590506104f8816104d2565b92915050565b6000806000606084860312156105175761051661049b565b5b6000610525868287016104e9565b9350506020610536868287016104e9565b9250506040610547868287016104e9565b9150509250925092565b6000819050919050565b61056481610551565b82525050565b600060608201905061057f600083018661055b565b61058c602083018561055b565b610599604083018461055b565b949350505050565b600080604083850312156105b8576105b761049b565b5b60006105c6858286016104e9565b92505060206105d7858286016104e9565b9150509250929050565b60006040820190506105f6600083018561055b565b610603602083018461055b565b9392505050565b610613816104c0565b82525050565b600060608201905061062e600083018661060a565b61063b602083018561060a565b610648604083018461060a565b949350505050565b610659816104c0565b82525050565b60006020820190506106746000830184610650565b92915050565b61068381610551565b811461068e57600080fd5b50565b6000815190506106a08161067a565b92915050565b6000602082840312156106bc576106bb61049b565b5b60006106ca84828501610691565b91505092915050565b7f4e487b7100000000000000000000000000000000000000000000000000000000600052601160045260246000fd5b600061070d82610551565b915061071883610551565b9250827fffffffffffffffffffffffffffffffffffffffffffffffffffffffffffffffff0382111561074d5761074c6106d3565b5b828201905092915050565b60008115159050919050565b61076d81610758565b811461077857600080fd5b50565b60008151905061078a81610764565b92915050565b6000806000806000806000806000806101408b8d0312156107b4576107b361049b565b5b60006107c28d828e01610691565b9a505060206107d38d828e01610691565b99505060406107e48d828e01610691565b98505060606107f58d828e01610691565b97505060806108068d828e01610691565b96505060a06108178d828e0161077b565b95505060c06108288d828e0161077b565b94505060e06108398d828e0161077b565b93505061010061084b8d828e0161077b565b92505061012061085d8d828e0161077b565b9150509295989b9194979a5092959850565b60008160011c9050919050565b6000808291508390505b60018511156108c6578086048111156108a2576108a16106d3565b5b60018516156108b15780820291505b80810290506108bf8561086f565b9450610886565b94509492505050565b6000826108df576001905061099b565b816108ed576000905061099b565b8160018114610903576002811461090d5761093c565b600191505061099b565b60ff84111561091f5761091e6106d3565b5b8360020a915084821115610936576109356106d3565b5b5061099b565b5060208310610133831016604e8410600b84101617156109715782820a90508381111561096c5761096b6106d3565b5b61099b565b61097e848484600161087c565b92509050818404811115610995576109946106d3565b5b81810290505b9392505050565b60006109ad82610551565b91506109b883610551565b92506109e57fffffffffffffffffffffffffffffffffffffffffffffffffffffffffffffffff84846108cf565b905092915050565b6000815190506109fc816104d2565b92915050565b600080600060608486031215610a1b57610a1a61049b565b5b6000610a29868287016109ed565b9350506020610a3a868287016109ed565b9250506040610a4b868287016109ed565b915050925092509256fea2646970667358221220bb9df50b103661e4f73fa705ee717b615520951445dafac735b69928a4bb783664736f6c63430008090033",
  "immutableReferences": {},
  "source": "/**\n * SPDX-License-Identifier: GPL-3.0-or-later\n * Moret\n * Copyright (C) 2021 Moret\n*/\n\npragma solidity 0.8.9;\n\nimport \"./MoretInterfaces.sol\";\nimport \"@openzeppelin/contracts/utils/math/Math.sol\";\nimport \"./FullMath.sol\";\n\nlibrary MarketLibrary {\n  \n  function getLendingTokenAddresses(address _protocolDataProviderAddress, address _tokenAddress)\n  public view returns (address, address, address){\n    /* ILendingPoolAddressesProvider _lendingPoolAddressProvider = ILendingPoolAddressesProvider(_lendingPoolAddressProviderAddress); */\n    IProtocolDataProvider _protocolDataProvider = IProtocolDataProvider(_protocolDataProviderAddress);\n    return  _protocolDataProvider.getReserveTokensAddresses(_tokenAddress);}\n\n  function getTokenBalances(address _contractAddress, address _protocolDataProviderAddress, address _tokenAddress) public view returns(uint256, uint256, uint256) {\n    (address _aToken, address _stableDebt, address _variableDebt) = getLendingTokenAddresses(_protocolDataProviderAddress, _tokenAddress);\n    return (IERC20(_tokenAddress).balanceOf(_contractAddress),\n        IERC20(_aToken).balanceOf(_contractAddress),\n        IERC20(_stableDebt).balanceOf(_contractAddress) + IERC20(_variableDebt).balanceOf(_contractAddress)); }\n\n  function getLTV(address _protocolDataProviderAddress, address _tokenAddress) public view returns (uint256, uint256) {\n    IProtocolDataProvider _protocolDataProvider = IProtocolDataProvider(_protocolDataProviderAddress);\n    (uint256 _reserveDecimals, uint256 _ltv, ,,,,,,, ) = _protocolDataProvider.getReserveConfigurationData(_tokenAddress);\n    return (_ltv, 10**_reserveDecimals); }\n    \n/*\n  \n \n  function calcRepay(int256 _targetBalances, address _contractAddress, address _protocolDataProviderAddress, address _tokenAddress)\n  public view returns(uint256)\n  {\n    (address _aToken, address _stableDebt, address _variableDebt) = getLendingTokenAddresses(_protocolDataProviderAddress, _tokenAddress);\n    uint256 _currentBalances = IERC20(_tokenAddress).balanceOf(_contractAddress) + IERC20(_aToken).balanceOf(_contractAddress);\n    return Math.min(uint256(int256(_currentBalances) - _targetBalances),\n      IERC20(_stableDebt).balanceOf(_contractAddress) + IERC20(_variableDebt).balanceOf(_contractAddress));\n  }\n\n  function calcBorrow(int256 _targetBalances, address _contractAddress, address _protocolDataProviderAddress, address _tokenAddress)\n  public view returns(uint256)\n  {\n    (address _aToken, ,) = getLendingTokenAddresses(_protocolDataProviderAddress, _tokenAddress);\n    (uint256 _ltv, uint256 _ltvMultiplier) = getLTV(_protocolDataProviderAddress, _tokenAddress);\n\n    uint256 _currentBalances = IERC20(_tokenAddress).balanceOf(_contractAddress) + IERC20(_aToken).balanceOf(_contractAddress);\n    return Math.min(uint256(_targetBalances) - _currentBalances,\n        MulDiv(IERC20(_tokenAddress).balanceOf(_contractAddress) - MulDiv(IERC20(_aToken).balanceOf(_contractAddress) , _ltv, _ltvMultiplier) , _ltv, _ltvMultiplier));\n  } */\n}\n",
  "sourcePath": "/Users/mac/Documents/GitHub/moret/contracts/MarketLibrary.sol",
  "compiler": {
    "name": "solc",
    "version": "0.8.9+commit.e5eed63a.Emscripten.clang"
  },
  "schemaVersion": "3.4.3",
  "updatedAt": "2021-10-26T23:07:52.590Z",
  "devdoc": {
    "kind": "dev",
    "methods": {},
    "version": 1
  },
  "userdoc": {
    "kind": "user",
    "methods": {},
    "version": 1
  }
}