{
  "contractName": "MarketLibrary",
  "abi": [
    {
      "inputs": [
        {
          "internalType": "address",
          "name": "_protocolDataProviderAddress",
          "type": "address"
        },
        {
          "internalType": "address",
          "name": "_tokenAddress",
          "type": "address"
        }
      ],
      "name": "getLendingTokenAddresses",
      "outputs": [
        {
          "internalType": "address",
          "name": "",
          "type": "address"
        },
        {
          "internalType": "address",
          "name": "",
          "type": "address"
        },
        {
          "internalType": "address",
          "name": "",
          "type": "address"
        }
      ],
      "stateMutability": "view",
      "type": "function"
    },
    {
      "inputs": [
        {
          "internalType": "address",
          "name": "_protocolDataProviderAddress",
          "type": "address"
        },
        {
          "internalType": "address",
          "name": "_tokenAddress",
          "type": "address"
        }
      ],
      "name": "getLTV",
      "outputs": [
        {
          "internalType": "uint256",
          "name": "",
          "type": "uint256"
        },
        {
          "internalType": "uint256",
          "name": "",
          "type": "uint256"
        }
      ],
      "stateMutability": "view",
      "type": "function"
    },
    {
      "inputs": [
        {
          "internalType": "int256",
          "name": "_targetBalances",
          "type": "int256"
        },
        {
          "internalType": "address",
          "name": "_contractAddress",
          "type": "address"
        },
        {
          "internalType": "address",
          "name": "_protocolDataProviderAddress",
          "type": "address"
        },
        {
          "internalType": "address",
          "name": "_tokenAddress",
          "type": "address"
        }
      ],
      "name": "calcRepay",
      "outputs": [
        {
          "internalType": "uint256",
          "name": "",
          "type": "uint256"
        }
      ],
      "stateMutability": "view",
      "type": "function"
    },
    {
      "inputs": [
        {
          "internalType": "int256",
          "name": "_targetBalances",
          "type": "int256"
        },
        {
          "internalType": "address",
          "name": "_contractAddress",
          "type": "address"
        },
        {
          "internalType": "address",
          "name": "_protocolDataProviderAddress",
          "type": "address"
        },
        {
          "internalType": "address",
          "name": "_tokenAddress",
          "type": "address"
        }
      ],
      "name": "calcBorrow",
      "outputs": [
        {
          "internalType": "uint256",
          "name": "",
          "type": "uint256"
        }
      ],
      "stateMutability": "view",
      "type": "function"
    },
    {
      "inputs": [
        {
          "internalType": "address",
          "name": "_contractAddress",
          "type": "address"
        },
        {
          "internalType": "address",
          "name": "_protocolDataProviderAddress",
          "type": "address"
        },
        {
          "internalType": "address",
          "name": "_tokenAddress",
          "type": "address"
        }
      ],
      "name": "calcWithdrawCollateral",
      "outputs": [
        {
          "internalType": "uint256",
          "name": "",
          "type": "uint256"
        }
      ],
      "stateMutability": "view",
      "type": "function"
    },
    {
      "inputs": [
        {
          "internalType": "uint256",
          "name": "_newBorrowing",
          "type": "uint256"
        },
        {
          "internalType": "address",
          "name": "_contractAddress",
          "type": "address"
        },
        {
          "internalType": "address",
          "name": "_protocolDataProviderAddress",
          "type": "address"
        },
        {
          "internalType": "address",
          "name": "_tokenAddress",
          "type": "address"
        }
      ],
      "name": "calcDepositCollateral",
      "outputs": [
        {
          "internalType": "uint256",
          "name": "",
          "type": "uint256"
        }
      ],
      "stateMutability": "view",
      "type": "function"
    }
  ],
  "bytecode": "0x6118a8610053600b82828239805160001a607314610046577f4e487b7100000000000000000000000000000000000000000000000000000000600052600060045260246000fd5b30600052607381538281f3fe730000000000000000000000000000000000000000301460806040526004361061006c5760003560e01c80633ab0b9ce14610071578063680f43b1146100a15780638684fd28146100d25780639ee103f514610104578063b6c1728b14610134578063eb119a9514610164575b600080fd5b61008b60048036038101906100869190611257565b610194565b60405161009891906114b0565b60405180910390f35b6100bb60048036038101906100b69190611171565b610428565b6040516100c99291906114cb565b60405180910390f35b6100ec60048036038101906100e79190611171565b6104e5565b6040516100fb93929190611479565b60405180910390f35b61011e60048036038101906101199190611257565b610585565b60405161012b91906114b0565b60405180910390f35b61014e600480360381019061014991906111b1565b6107f9565b60405161015b91906114b0565b60405180910390f35b61017e600480360381019061017991906112eb565b610b9d565b60405161018b91906114b0565b60405180910390f35b6000806101a184846104e5565b505090506000806101b28686610428565b9150915060008373ffffffffffffffffffffffffffffffffffffffff166370a08231896040518263ffffffff1660e01b81526004016101f1919061145e565b60206040518083038186803b15801561020957600080fd5b505afa15801561021d573d6000803e3d6000fd5b505050506040513d601f19601f8201168201806040525081019061024191906112be565b8673ffffffffffffffffffffffffffffffffffffffff166370a082318a6040518263ffffffff1660e01b815260040161027a919061145e565b60206040518083038186803b15801561029257600080fd5b505afa1580156102a6573d6000803e3d6000fd5b505050506040513d601f19601f820116820180604052508101906102ca91906112be565b6102d491906114f4565b905061041a818a6102e5919061174f565b61041561037b8773ffffffffffffffffffffffffffffffffffffffff166370a082318d6040518263ffffffff1660e01b8152600401610324919061145e565b60206040518083038186803b15801561033c57600080fd5b505afa158015610350573d6000803e3d6000fd5b505050506040513d601f19601f8201168201806040525081019061037491906112be565b8787610fde565b8973ffffffffffffffffffffffffffffffffffffffff166370a082318d6040518263ffffffff1660e01b81526004016103b4919061145e565b60206040518083038186803b1580156103cc57600080fd5b505afa1580156103e0573d6000803e3d6000fd5b505050506040513d601f19601f8201168201806040525081019061040491906112be565b61040e919061174f565b8686610fde565b6110da565b945050505050949350505050565b60008060008490506000808273ffffffffffffffffffffffffffffffffffffffff16633e150141876040518263ffffffff1660e01b815260040161046c919061145e565b6101406040518083038186803b15801561048557600080fd5b505afa158015610499573d6000803e3d6000fd5b505050506040513d601f19601f820116820180604052508101906104bd9190611352565b5050505050505050915091508082600a6104d7919061159d565b945094505050509250929050565b6000806000808590508073ffffffffffffffffffffffffffffffffffffffff1663d2493b6c866040518263ffffffff1660e01b8152600401610527919061145e565b60606040518083038186803b15801561053f57600080fd5b505afa158015610553573d6000803e3d6000fd5b505050506040513d601f19601f820116820180604052508101906105779190611204565b935093509350509250925092565b60008060008061059586866104e5565b92509250925060008373ffffffffffffffffffffffffffffffffffffffff166370a08231896040518263ffffffff1660e01b81526004016105d6919061145e565b60206040518083038186803b1580156105ee57600080fd5b505afa158015610602573d6000803e3d6000fd5b505050506040513d601f19601f8201168201806040525081019061062691906112be565b8673ffffffffffffffffffffffffffffffffffffffff166370a082318a6040518263ffffffff1660e01b815260040161065f919061145e565b60206040518083038186803b15801561067757600080fd5b505afa15801561068b573d6000803e3d6000fd5b505050506040513d601f19601f820116820180604052508101906106af91906112be565b6106b991906114f4565b90506107eb89826106ca91906116bb565b8373ffffffffffffffffffffffffffffffffffffffff166370a082318b6040518263ffffffff1660e01b8152600401610703919061145e565b60206040518083038186803b15801561071b57600080fd5b505afa15801561072f573d6000803e3d6000fd5b505050506040513d601f19601f8201168201806040525081019061075391906112be565b8573ffffffffffffffffffffffffffffffffffffffff166370a082318c6040518263ffffffff1660e01b815260040161078c919061145e565b60206040518083038186803b1580156107a457600080fd5b505afa1580156107b8573d6000803e3d6000fd5b505050506040513d601f19601f820116820180604052508101906107dc91906112be565b6107e691906114f4565b6110da565b945050505050949350505050565b60008083905060008060008373ffffffffffffffffffffffffffffffffffffffff1663d2493b6c876040518263ffffffff1660e01b815260040161083d919061145e565b60606040518083038186803b15801561085557600080fd5b505afa158015610869573d6000803e3d6000fd5b505050506040513d601f19601f8201168201806040525081019061088d9190611204565b9250925092506000808573ffffffffffffffffffffffffffffffffffffffff16633e150141896040518263ffffffff1660e01b81526004016108cf919061145e565b6101406040518083038186803b1580156108e857600080fd5b505afa1580156108fc573d6000803e3d6000fd5b505050506040513d601f19601f820116820180604052508101906109209190611352565b5050505050505050915091506000610a608473ffffffffffffffffffffffffffffffffffffffff166370a082318d6040518263ffffffff1660e01b815260040161096a919061145e565b60206040518083038186803b15801561098257600080fd5b505afa158015610996573d6000803e3d6000fd5b505050506040513d601f19601f820116820180604052508101906109ba91906112be565b8673ffffffffffffffffffffffffffffffffffffffff166370a082318e6040518263ffffffff1660e01b81526004016109f3919061145e565b60206040518083038186803b158015610a0b57600080fd5b505afa158015610a1f573d6000803e3d6000fd5b505050506040513d601f19601f82011682018060405250810190610a4391906112be565b610a4d91906114f4565b84600a610a5a919061159d565b84610fde565b9050808673ffffffffffffffffffffffffffffffffffffffff166370a082318d6040518263ffffffff1660e01b8152600401610a9c919061145e565b60206040518083038186803b158015610ab457600080fd5b505afa158015610ac8573d6000803e3d6000fd5b505050506040513d601f19601f82011682018060405250810190610aec91906112be565b11610af8576000610b8d565b808673ffffffffffffffffffffffffffffffffffffffff166370a082318d6040518263ffffffff1660e01b8152600401610b32919061145e565b60206040518083038186803b158015610b4a57600080fd5b505afa158015610b5e573d6000803e3d6000fd5b505050506040513d601f19601f82011682018060405250810190610b8291906112be565b610b8c919061174f565b5b9750505050505050509392505050565b60008083905060008060008373ffffffffffffffffffffffffffffffffffffffff1663d2493b6c876040518263ffffffff1660e01b8152600401610be1919061145e565b60606040518083038186803b158015610bf957600080fd5b505afa158015610c0d573d6000803e3d6000fd5b505050506040513d601f19601f82011682018060405250810190610c319190611204565b9250925092506000808573ffffffffffffffffffffffffffffffffffffffff16633e150141896040518263ffffffff1660e01b8152600401610c73919061145e565b6101406040518083038186803b158015610c8c57600080fd5b505afa158015610ca0573d6000803e3d6000fd5b505050506040513d601f19601f82011682018060405250810190610cc49190611352565b5050505050505050915091506000610e0f8473ffffffffffffffffffffffffffffffffffffffff166370a082318d6040518263ffffffff1660e01b8152600401610d0e919061145e565b60206040518083038186803b158015610d2657600080fd5b505afa158015610d3a573d6000803e3d6000fd5b505050506040513d601f19601f82011682018060405250810190610d5e91906112be565b8673ffffffffffffffffffffffffffffffffffffffff166370a082318e6040518263ffffffff1660e01b8152600401610d97919061145e565b60206040518083038186803b158015610daf57600080fd5b505afa158015610dc3573d6000803e3d6000fd5b505050506040513d601f19601f82011682018060405250810190610de791906112be565b8e610df291906114f4565b610dfc91906114f4565b84600a610e09919061159d565b84610fde565b9050808673ffffffffffffffffffffffffffffffffffffffff166370a082318d6040518263ffffffff1660e01b8152600401610e4b919061145e565b60206040518083038186803b158015610e6357600080fd5b505afa158015610e77573d6000803e3d6000fd5b505050506040513d601f19601f82011682018060405250810190610e9b91906112be565b10610ea7576000610fcd565b610fcc8973ffffffffffffffffffffffffffffffffffffffff166370a082318d6040518263ffffffff1660e01b8152600401610ee3919061145e565b60206040518083038186803b158015610efb57600080fd5b505afa158015610f0f573d6000803e3d6000fd5b505050506040513d601f19601f82011682018060405250810190610f3391906112be565b8773ffffffffffffffffffffffffffffffffffffffff166370a082318e6040518263ffffffff1660e01b8152600401610f6c919061145e565b60206040518083038186803b158015610f8457600080fd5b505afa158015610f98573d6000803e3d6000fd5b505050506040513d601f19601f82011682018060405250810190610fbc91906112be565b83610fc7919061174f565b6110da565b5b975050505050505050949350505050565b600080600080198587098587029250828110838203039150506000811415611019576000841161100d57600080fd5b838204925050506110d3565b80841161102557600080fd5b60008486880990508281118203915080830392506000856001877fffffffffffffffffffffffffffffffffffffffffffffffffffffffffffffffff0301169050808604955080840493506001818260000304019050808302841793506000600287600302189050808702600203810290508087026002038102905080870260020381029050808702600203810290508087026002038102905080870260020381029050808502955050505050505b9392505050565b60008183106110e957816110eb565b825b905092915050565b60008135905061110281611816565b92915050565b60008151905061111781611816565b92915050565b60008151905061112c8161182d565b92915050565b60008135905061114181611844565b92915050565b6000813590506111568161185b565b92915050565b60008151905061116b8161185b565b92915050565b6000806040838503121561118857611187611804565b5b6000611196858286016110f3565b92505060206111a7858286016110f3565b9150509250929050565b6000806000606084860312156111ca576111c9611804565b5b60006111d8868287016110f3565b93505060206111e9868287016110f3565b92505060406111fa868287016110f3565b9150509250925092565b60008060006060848603121561121d5761121c611804565b5b600061122b86828701611108565b935050602061123c86828701611108565b925050604061124d86828701611108565b9150509250925092565b6000806000806080858703121561127157611270611804565b5b600061127f87828801611132565b9450506020611290878288016110f3565b93505060406112a1878288016110f3565b92505060606112b2878288016110f3565b91505092959194509250565b6000602082840312156112d4576112d3611804565b5b60006112e28482850161115c565b91505092915050565b6000806000806080858703121561130557611304611804565b5b600061131387828801611147565b9450506020611324878288016110f3565b9350506040611335878288016110f3565b9250506060611346878288016110f3565b91505092959194509250565b6000806000806000806000806000806101408b8d03121561137657611375611804565b5b60006113848d828e0161115c565b9a505060206113958d828e0161115c565b99505060406113a68d828e0161115c565b98505060606113b78d828e0161115c565b97505060806113c88d828e0161115c565b96505060a06113d98d828e0161111d565b95505060c06113ea8d828e0161111d565b94505060e06113fb8d828e0161111d565b93505061010061140d8d828e0161111d565b92505061012061141f8d828e0161111d565b9150509295989b9194979a5092959850565b61143a81611783565b82525050565b61144981611783565b82525050565b611458816117cb565b82525050565b60006020820190506114736000830184611431565b92915050565b600060608201905061148e6000830186611440565b61149b6020830185611440565b6114a86040830184611440565b949350505050565b60006020820190506114c5600083018461144f565b92915050565b60006040820190506114e0600083018561144f565b6114ed602083018461144f565b9392505050565b60006114ff826117cb565b915061150a836117cb565b9250827fffffffffffffffffffffffffffffffffffffffffffffffffffffffffffffffff0382111561153f5761153e6117d5565b5b828201905092915050565b6000808291508390505b6001851115611594578086048111156115705761156f6117d5565b5b600185161561157f5780820291505b808102905061158d85611809565b9450611554565b94509492505050565b60006115a8826117cb565b91506115b3836117cb565b92506115e07fffffffffffffffffffffffffffffffffffffffffffffffffffffffffffffffff84846115e8565b905092915050565b6000826115f857600190506116b4565b8161160657600090506116b4565b816001811461161c576002811461162657611655565b60019150506116b4565b60ff841115611638576116376117d5565b5b8360020a91508482111561164f5761164e6117d5565b5b506116b4565b5060208310610133831016604e8410600b841016171561168a5782820a905083811115611685576116846117d5565b5b6116b4565b611697848484600161154a565b925090508184048111156116ae576116ad6117d5565b5b81810290505b9392505050565b60006116c6826117a1565b91506116d1836117a1565b9250827f80000000000000000000000000000000000000000000000000000000000000000182126000841215161561170c5761170b6117d5565b5b827f7fffffffffffffffffffffffffffffffffffffffffffffffffffffffffffffff018213600084121615611744576117436117d5565b5b828203905092915050565b600061175a826117cb565b9150611765836117cb565b925082821015611778576117776117d5565b5b828203905092915050565b600061178e826117ab565b9050919050565b60008115159050919050565b6000819050919050565b600073ffffffffffffffffffffffffffffffffffffffff82169050919050565b6000819050919050565b7f4e487b7100000000000000000000000000000000000000000000000000000000600052601160045260246000fd5b600080fd5b60008160011c9050919050565b61181f81611783565b811461182a57600080fd5b50565b61183681611795565b811461184157600080fd5b50565b61184d816117a1565b811461185857600080fd5b50565b611864816117cb565b811461186f57600080fd5b5056fea26469706673582212205eb9ef9eb38f895ab1920d14a02b752f59de39934d91f195f14ff0554eb69da664736f6c63430008070033",
  "immutableReferences": {},
  "source": "/**\n * SPDX-License-Identifier: GPL-3.0-or-later\n * Moret\n * Copyright (C) 2021 Moret\n*/\n\npragma solidity ^0.8.4;\n\nimport \"./MarketInterfaces.sol\";\nimport \"@openzeppelin/contracts/utils/math/Math.sol\";\nimport \"./FullMath.sol\";\n\nlibrary MarketLibrary {\n  function getLendingTokenAddresses(address _protocolDataProviderAddress, address _tokenAddress)\n  public view returns (address, address, address){\n    /* ILendingPoolAddressesProvider _lendingPoolAddressProvider = ILendingPoolAddressesProvider(_lendingPoolAddressProviderAddress); */\n    IProtocolDataProvider _protocolDataProvider = IProtocolDataProvider(_protocolDataProviderAddress);\n    return  _protocolDataProvider.getReserveTokensAddresses(_tokenAddress);\n  }\n\n  function getLTV(address _protocolDataProviderAddress, address _tokenAddress)\n  public view returns (uint256, uint256)\n  {\n    IProtocolDataProvider _protocolDataProvider = IProtocolDataProvider(_protocolDataProviderAddress);\n    (uint256 _reserveDecimals, uint256 _ltv, ,,,,,,, ) = _protocolDataProvider.getReserveConfigurationData(_tokenAddress);\n    return (_ltv, 10**_reserveDecimals);\n  }\n\n  function calcRepay(int256 _targetBalances, address _contractAddress, address _protocolDataProviderAddress, address _tokenAddress)\n  public view returns(uint256)\n  {\n    (address _aToken, address _stableDebt, address _variableDebt) = getLendingTokenAddresses(_protocolDataProviderAddress, _tokenAddress);\n    uint256 _currentBalances = IERC20(_tokenAddress).balanceOf(_contractAddress) + IERC20(_aToken).balanceOf(_contractAddress);\n    return Math.min(uint256(int256(_currentBalances) - _targetBalances),\n      IERC20(_stableDebt).balanceOf(_contractAddress) + IERC20(_variableDebt).balanceOf(_contractAddress));\n  }\n\n  function calcBorrow(int256 _targetBalances, address _contractAddress, address _protocolDataProviderAddress, address _tokenAddress)\n  public view returns(uint256)\n  {\n    (address _aToken, ,) = getLendingTokenAddresses(_protocolDataProviderAddress, _tokenAddress);\n    (uint256 _ltv, uint256 _ltvMultiplier) = getLTV(_protocolDataProviderAddress, _tokenAddress);\n\n    uint256 _currentBalances = IERC20(_tokenAddress).balanceOf(_contractAddress) + IERC20(_aToken).balanceOf(_contractAddress);\n    return Math.min(uint256(_targetBalances) - _currentBalances,\n        MulDiv(IERC20(_tokenAddress).balanceOf(_contractAddress) - MulDiv(IERC20(_aToken).balanceOf(_contractAddress) , _ltv, _ltvMultiplier) , _ltv, _ltvMultiplier));\n  }\n\n  function calcWithdrawCollateral(address _contractAddress, address _protocolDataProviderAddress, address _tokenAddress)\n  public view returns(uint256)\n  {\n    IProtocolDataProvider _protocolDataProvider = IProtocolDataProvider(_protocolDataProviderAddress);\n    (address _aToken, address _stableDebt, address _variableDebt) = _protocolDataProvider.getReserveTokensAddresses(_tokenAddress);\n    (uint256 _reserveDecimals, uint256 _ltv, ,,,,,,, ) = _protocolDataProvider.getReserveConfigurationData(_tokenAddress);\n\n    uint256 _desiredCollateral = MulDiv(IERC20(_stableDebt).balanceOf(_contractAddress) + IERC20(_variableDebt).balanceOf(_contractAddress), 10 ** _reserveDecimals, _ltv);\n    return (IERC20(_aToken).balanceOf(_contractAddress) > _desiredCollateral)? (IERC20(_aToken).balanceOf(_contractAddress) - _desiredCollateral): 0;\n  }\n\n  function calcDepositCollateral(uint256 _newBorrowing, address _contractAddress, address _protocolDataProviderAddress, address _tokenAddress)\n  public view returns (uint256)\n  {\n    IProtocolDataProvider _protocolDataProvider = IProtocolDataProvider(_protocolDataProviderAddress);\n    (address _aToken, address _stableDebt, address _variableDebt) = _protocolDataProvider.getReserveTokensAddresses(_tokenAddress);\n    (uint256 _reserveDecimals, uint256 _ltv, ,,,,,,, ) = _protocolDataProvider.getReserveConfigurationData(_tokenAddress);\n\n    uint256 _desiredCollateral = MulDiv(_newBorrowing + IERC20(_stableDebt).balanceOf(_contractAddress) + IERC20(_variableDebt).balanceOf(_contractAddress), 10 ** _reserveDecimals, _ltv);\n    return (IERC20(_aToken).balanceOf(_contractAddress) < _desiredCollateral)?\n      Math.min(IERC20(_tokenAddress).balanceOf(_contractAddress) , _desiredCollateral - IERC20(_aToken).balanceOf(_contractAddress)): 0;\n  }\n\n}\n",
  "sourcePath": "/Users/mac/Documents/GitHub/moret/contracts/MarketLibrary.sol",
  "compiler": {
    "name": "solc",
    "version": "0.8.7+commit.e28d00a7.Emscripten.clang"
  },
  "schemaVersion": "3.4.1",
  "updatedAt": "2021-08-28T21:56:20.995Z",
  "devdoc": {
    "kind": "dev",
    "methods": {},
    "version": 1
  },
  "userdoc": {
    "kind": "user",
    "methods": {},
    "version": 1
  }
}