{
  "contractName": "MoretMarketMaker",
  "abi": [
    {
      "inputs": [
        {
          "internalType": "string",
          "name": "_name",
          "type": "string"
        },
        {
          "internalType": "string",
          "name": "_symbol",
          "type": "string"
        },
        {
          "internalType": "address",
          "name": "_underlyingAddress",
          "type": "address"
        },
        {
          "internalType": "address",
          "name": "_fundingAddress",
          "type": "address"
        },
        {
          "internalType": "address",
          "name": "_optionAddress",
          "type": "address"
        },
        {
          "internalType": "address",
          "name": "_swapRouterAddress",
          "type": "address"
        },
        {
          "internalType": "address",
          "name": "_lendingPoolAddressProvider",
          "type": "address"
        },
        {
          "internalType": "address",
          "name": "_protocolDataProviderAddress",
          "type": "address"
        }
      ],
      "stateMutability": "nonpayable",
      "type": "constructor"
    },
    {
      "anonymous": false,
      "inputs": [
        {
          "indexed": true,
          "internalType": "address",
          "name": "owner",
          "type": "address"
        },
        {
          "indexed": true,
          "internalType": "address",
          "name": "spender",
          "type": "address"
        },
        {
          "indexed": false,
          "internalType": "uint256",
          "name": "value",
          "type": "uint256"
        }
      ],
      "name": "Approval",
      "type": "event"
    },
    {
      "anonymous": false,
      "inputs": [
        {
          "indexed": true,
          "internalType": "bytes32",
          "name": "role",
          "type": "bytes32"
        },
        {
          "indexed": true,
          "internalType": "bytes32",
          "name": "previousAdminRole",
          "type": "bytes32"
        },
        {
          "indexed": true,
          "internalType": "bytes32",
          "name": "newAdminRole",
          "type": "bytes32"
        }
      ],
      "name": "RoleAdminChanged",
      "type": "event"
    },
    {
      "anonymous": false,
      "inputs": [
        {
          "indexed": true,
          "internalType": "bytes32",
          "name": "role",
          "type": "bytes32"
        },
        {
          "indexed": true,
          "internalType": "address",
          "name": "account",
          "type": "address"
        },
        {
          "indexed": true,
          "internalType": "address",
          "name": "sender",
          "type": "address"
        }
      ],
      "name": "RoleGranted",
      "type": "event"
    },
    {
      "anonymous": false,
      "inputs": [
        {
          "indexed": true,
          "internalType": "bytes32",
          "name": "role",
          "type": "bytes32"
        },
        {
          "indexed": true,
          "internalType": "address",
          "name": "account",
          "type": "address"
        },
        {
          "indexed": true,
          "internalType": "address",
          "name": "sender",
          "type": "address"
        }
      ],
      "name": "RoleRevoked",
      "type": "event"
    },
    {
      "anonymous": false,
      "inputs": [
        {
          "indexed": true,
          "internalType": "address",
          "name": "from",
          "type": "address"
        },
        {
          "indexed": true,
          "internalType": "address",
          "name": "to",
          "type": "address"
        },
        {
          "indexed": false,
          "internalType": "uint256",
          "name": "value",
          "type": "uint256"
        }
      ],
      "name": "Transfer",
      "type": "event"
    },
    {
      "anonymous": false,
      "inputs": [
        {
          "indexed": false,
          "internalType": "address",
          "name": "_recipient",
          "type": "address"
        },
        {
          "indexed": false,
          "internalType": "uint256",
          "name": "_mintMPTokenAmount",
          "type": "uint256"
        },
        {
          "indexed": false,
          "internalType": "uint256",
          "name": "_addedValue",
          "type": "uint256"
        }
      ],
      "name": "capitalAdded",
      "type": "event"
    },
    {
      "anonymous": false,
      "inputs": [
        {
          "indexed": false,
          "internalType": "address",
          "name": "_recipient",
          "type": "address"
        },
        {
          "indexed": false,
          "internalType": "uint256",
          "name": "_burnMPTokenAmount",
          "type": "uint256"
        },
        {
          "indexed": false,
          "internalType": "uint256",
          "name": "_withdrawValue",
          "type": "uint256"
        }
      ],
      "name": "capitalWithdrawn",
      "type": "event"
    },
    {
      "anonymous": false,
      "inputs": [
        {
          "indexed": true,
          "internalType": "address",
          "name": "_purchaser",
          "type": "address"
        },
        {
          "components": [
            {
              "internalType": "enum OptionLibrary.PayoffType",
              "name": "poType",
              "type": "uint8"
            },
            {
              "internalType": "enum OptionLibrary.OptionSide",
              "name": "side",
              "type": "uint8"
            },
            {
              "internalType": "enum OptionLibrary.OptionStatus",
              "name": "status",
              "type": "uint8"
            },
            {
              "internalType": "address",
              "name": "holder",
              "type": "address"
            },
            {
              "internalType": "uint256",
              "name": "id",
              "type": "uint256"
            },
            {
              "internalType": "uint256",
              "name": "createTime",
              "type": "uint256"
            },
            {
              "internalType": "uint256",
              "name": "effectiveTime",
              "type": "uint256"
            },
            {
              "internalType": "uint256",
              "name": "tenor",
              "type": "uint256"
            },
            {
              "internalType": "uint256",
              "name": "exerciseTime",
              "type": "uint256"
            },
            {
              "internalType": "uint256",
              "name": "amount",
              "type": "uint256"
            },
            {
              "internalType": "uint256",
              "name": "spot",
              "type": "uint256"
            },
            {
              "internalType": "uint256",
              "name": "strike",
              "type": "uint256"
            },
            {
              "internalType": "uint256",
              "name": "volatility",
              "type": "uint256"
            },
            {
              "internalType": "uint256",
              "name": "premium",
              "type": "uint256"
            },
            {
              "internalType": "uint256",
              "name": "fee",
              "type": "uint256"
            }
          ],
          "indexed": false,
          "internalType": "struct OptionLibrary.Option",
          "name": "_option",
          "type": "tuple"
        },
        {
          "indexed": false,
          "internalType": "uint256",
          "name": "_cost",
          "type": "uint256"
        },
        {
          "indexed": false,
          "internalType": "bool",
          "name": "_inVol",
          "type": "bool"
        }
      ],
      "name": "newOptionBought",
      "type": "event"
    },
    {
      "anonymous": false,
      "inputs": [
        {
          "indexed": false,
          "internalType": "address",
          "name": "_purchaser",
          "type": "address"
        },
        {
          "indexed": false,
          "internalType": "uint256",
          "name": "_time",
          "type": "uint256"
        },
        {
          "indexed": false,
          "internalType": "uint256",
          "name": "_tenor",
          "type": "uint256"
        },
        {
          "indexed": false,
          "internalType": "uint256",
          "name": "_amount",
          "type": "uint256"
        }
      ],
      "name": "newVolatilityTokenBought",
      "type": "event"
    },
    {
      "anonymous": false,
      "inputs": [
        {
          "indexed": true,
          "internalType": "address",
          "name": "_purchaser",
          "type": "address"
        },
        {
          "components": [
            {
              "internalType": "enum OptionLibrary.PayoffType",
              "name": "poType",
              "type": "uint8"
            },
            {
              "internalType": "enum OptionLibrary.OptionSide",
              "name": "side",
              "type": "uint8"
            },
            {
              "internalType": "enum OptionLibrary.OptionStatus",
              "name": "status",
              "type": "uint8"
            },
            {
              "internalType": "address",
              "name": "holder",
              "type": "address"
            },
            {
              "internalType": "uint256",
              "name": "id",
              "type": "uint256"
            },
            {
              "internalType": "uint256",
              "name": "createTime",
              "type": "uint256"
            },
            {
              "internalType": "uint256",
              "name": "effectiveTime",
              "type": "uint256"
            },
            {
              "internalType": "uint256",
              "name": "tenor",
              "type": "uint256"
            },
            {
              "internalType": "uint256",
              "name": "exerciseTime",
              "type": "uint256"
            },
            {
              "internalType": "uint256",
              "name": "amount",
              "type": "uint256"
            },
            {
              "internalType": "uint256",
              "name": "spot",
              "type": "uint256"
            },
            {
              "internalType": "uint256",
              "name": "strike",
              "type": "uint256"
            },
            {
              "internalType": "uint256",
              "name": "volatility",
              "type": "uint256"
            },
            {
              "internalType": "uint256",
              "name": "premium",
              "type": "uint256"
            },
            {
              "internalType": "uint256",
              "name": "fee",
              "type": "uint256"
            }
          ],
          "indexed": false,
          "internalType": "struct OptionLibrary.Option",
          "name": "_option",
          "type": "tuple"
        },
        {
          "indexed": false,
          "internalType": "uint256",
          "name": "_payoff",
          "type": "uint256"
        }
      ],
      "name": "optionExercised",
      "type": "event"
    },
    {
      "inputs": [],
      "name": "ADMIN_ROLE",
      "outputs": [
        {
          "internalType": "bytes32",
          "name": "",
          "type": "bytes32"
        }
      ],
      "stateMutability": "view",
      "type": "function"
    },
    {
      "inputs": [],
      "name": "DEFAULT_ADMIN_ROLE",
      "outputs": [
        {
          "internalType": "bytes32",
          "name": "",
          "type": "bytes32"
        }
      ],
      "stateMutability": "view",
      "type": "function"
    },
    {
      "inputs": [],
      "name": "EXCHANGE_ROLE",
      "outputs": [
        {
          "internalType": "bytes32",
          "name": "",
          "type": "bytes32"
        }
      ],
      "stateMutability": "view",
      "type": "function"
    },
    {
      "inputs": [
        {
          "internalType": "address",
          "name": "owner",
          "type": "address"
        },
        {
          "internalType": "address",
          "name": "spender",
          "type": "address"
        }
      ],
      "name": "allowance",
      "outputs": [
        {
          "internalType": "uint256",
          "name": "",
          "type": "uint256"
        }
      ],
      "stateMutability": "view",
      "type": "function"
    },
    {
      "inputs": [
        {
          "internalType": "address",
          "name": "spender",
          "type": "address"
        },
        {
          "internalType": "uint256",
          "name": "amount",
          "type": "uint256"
        }
      ],
      "name": "approve",
      "outputs": [
        {
          "internalType": "bool",
          "name": "",
          "type": "bool"
        }
      ],
      "stateMutability": "nonpayable",
      "type": "function"
    },
    {
      "inputs": [
        {
          "internalType": "address",
          "name": "account",
          "type": "address"
        }
      ],
      "name": "balanceOf",
      "outputs": [
        {
          "internalType": "uint256",
          "name": "",
          "type": "uint256"
        }
      ],
      "stateMutability": "view",
      "type": "function"
    },
    {
      "inputs": [],
      "name": "callExposure",
      "outputs": [
        {
          "internalType": "uint256",
          "name": "",
          "type": "uint256"
        }
      ],
      "stateMutability": "view",
      "type": "function"
    },
    {
      "inputs": [],
      "name": "decimals",
      "outputs": [
        {
          "internalType": "uint8",
          "name": "",
          "type": "uint8"
        }
      ],
      "stateMutability": "view",
      "type": "function"
    },
    {
      "inputs": [
        {
          "internalType": "address",
          "name": "spender",
          "type": "address"
        },
        {
          "internalType": "uint256",
          "name": "subtractedValue",
          "type": "uint256"
        }
      ],
      "name": "decreaseAllowance",
      "outputs": [
        {
          "internalType": "bool",
          "name": "",
          "type": "bool"
        }
      ],
      "stateMutability": "nonpayable",
      "type": "function"
    },
    {
      "inputs": [],
      "name": "fundingAddress",
      "outputs": [
        {
          "internalType": "address",
          "name": "",
          "type": "address"
        }
      ],
      "stateMutability": "view",
      "type": "function"
    },
    {
      "inputs": [
        {
          "internalType": "bytes32",
          "name": "role",
          "type": "bytes32"
        }
      ],
      "name": "getRoleAdmin",
      "outputs": [
        {
          "internalType": "bytes32",
          "name": "",
          "type": "bytes32"
        }
      ],
      "stateMutability": "view",
      "type": "function"
    },
    {
      "inputs": [
        {
          "internalType": "bytes32",
          "name": "role",
          "type": "bytes32"
        },
        {
          "internalType": "address",
          "name": "account",
          "type": "address"
        }
      ],
      "name": "grantRole",
      "outputs": [],
      "stateMutability": "nonpayable",
      "type": "function"
    },
    {
      "inputs": [
        {
          "internalType": "bytes32",
          "name": "role",
          "type": "bytes32"
        },
        {
          "internalType": "address",
          "name": "account",
          "type": "address"
        }
      ],
      "name": "hasRole",
      "outputs": [
        {
          "internalType": "bool",
          "name": "",
          "type": "bool"
        }
      ],
      "stateMutability": "view",
      "type": "function"
    },
    {
      "inputs": [
        {
          "internalType": "address",
          "name": "spender",
          "type": "address"
        },
        {
          "internalType": "uint256",
          "name": "addedValue",
          "type": "uint256"
        }
      ],
      "name": "increaseAllowance",
      "outputs": [
        {
          "internalType": "bool",
          "name": "",
          "type": "bool"
        }
      ],
      "stateMutability": "nonpayable",
      "type": "function"
    },
    {
      "inputs": [],
      "name": "lendingPoolAddressProviderAddress",
      "outputs": [
        {
          "internalType": "address",
          "name": "",
          "type": "address"
        }
      ],
      "stateMutability": "view",
      "type": "function"
    },
    {
      "inputs": [],
      "name": "lendingPoolRateMode",
      "outputs": [
        {
          "internalType": "uint256",
          "name": "",
          "type": "uint256"
        }
      ],
      "stateMutability": "view",
      "type": "function"
    },
    {
      "inputs": [],
      "name": "lockedPremium",
      "outputs": [
        {
          "internalType": "uint256",
          "name": "",
          "type": "uint256"
        }
      ],
      "stateMutability": "view",
      "type": "function"
    },
    {
      "inputs": [],
      "name": "name",
      "outputs": [
        {
          "internalType": "string",
          "name": "",
          "type": "string"
        }
      ],
      "stateMutability": "view",
      "type": "function"
    },
    {
      "inputs": [],
      "name": "protocolDataProviderAddress",
      "outputs": [
        {
          "internalType": "address",
          "name": "",
          "type": "address"
        }
      ],
      "stateMutability": "view",
      "type": "function"
    },
    {
      "inputs": [],
      "name": "putExposure",
      "outputs": [
        {
          "internalType": "uint256",
          "name": "",
          "type": "uint256"
        }
      ],
      "stateMutability": "view",
      "type": "function"
    },
    {
      "inputs": [
        {
          "internalType": "bytes32",
          "name": "role",
          "type": "bytes32"
        },
        {
          "internalType": "address",
          "name": "account",
          "type": "address"
        }
      ],
      "name": "renounceRole",
      "outputs": [],
      "stateMutability": "nonpayable",
      "type": "function"
    },
    {
      "inputs": [
        {
          "internalType": "bytes32",
          "name": "role",
          "type": "bytes32"
        },
        {
          "internalType": "address",
          "name": "account",
          "type": "address"
        }
      ],
      "name": "revokeRole",
      "outputs": [],
      "stateMutability": "nonpayable",
      "type": "function"
    },
    {
      "inputs": [],
      "name": "shortPosition",
      "outputs": [
        {
          "internalType": "uint256",
          "name": "",
          "type": "uint256"
        }
      ],
      "stateMutability": "view",
      "type": "function"
    },
    {
      "inputs": [
        {
          "internalType": "bytes4",
          "name": "interfaceId",
          "type": "bytes4"
        }
      ],
      "name": "supportsInterface",
      "outputs": [
        {
          "internalType": "bool",
          "name": "",
          "type": "bool"
        }
      ],
      "stateMutability": "view",
      "type": "function"
    },
    {
      "inputs": [],
      "name": "swapRouterAddress",
      "outputs": [
        {
          "internalType": "address",
          "name": "",
          "type": "address"
        }
      ],
      "stateMutability": "view",
      "type": "function"
    },
    {
      "inputs": [],
      "name": "swapSlp",
      "outputs": [
        {
          "internalType": "uint256",
          "name": "",
          "type": "uint256"
        }
      ],
      "stateMutability": "view",
      "type": "function"
    },
    {
      "inputs": [],
      "name": "symbol",
      "outputs": [
        {
          "internalType": "string",
          "name": "",
          "type": "string"
        }
      ],
      "stateMutability": "view",
      "type": "function"
    },
    {
      "inputs": [],
      "name": "totalSupply",
      "outputs": [
        {
          "internalType": "uint256",
          "name": "",
          "type": "uint256"
        }
      ],
      "stateMutability": "view",
      "type": "function"
    },
    {
      "inputs": [
        {
          "internalType": "address",
          "name": "recipient",
          "type": "address"
        },
        {
          "internalType": "uint256",
          "name": "amount",
          "type": "uint256"
        }
      ],
      "name": "transfer",
      "outputs": [
        {
          "internalType": "bool",
          "name": "",
          "type": "bool"
        }
      ],
      "stateMutability": "nonpayable",
      "type": "function"
    },
    {
      "inputs": [
        {
          "internalType": "address",
          "name": "sender",
          "type": "address"
        },
        {
          "internalType": "address",
          "name": "recipient",
          "type": "address"
        },
        {
          "internalType": "uint256",
          "name": "amount",
          "type": "uint256"
        }
      ],
      "name": "transferFrom",
      "outputs": [
        {
          "internalType": "bool",
          "name": "",
          "type": "bool"
        }
      ],
      "stateMutability": "nonpayable",
      "type": "function"
    },
    {
      "inputs": [],
      "name": "underlyingAddress",
      "outputs": [
        {
          "internalType": "address",
          "name": "",
          "type": "address"
        }
      ],
      "stateMutability": "view",
      "type": "function"
    },
    {
      "inputs": [
        {
          "internalType": "address",
          "name": "_purchaser",
          "type": "address"
        },
        {
          "internalType": "uint256",
          "name": "_id",
          "type": "uint256"
        },
        {
          "internalType": "bool",
          "name": "_isPuchase",
          "type": "bool"
        },
        {
          "internalType": "uint256",
          "name": "_newPremium",
          "type": "uint256"
        },
        {
          "internalType": "uint256",
          "name": "_newCallExposure",
          "type": "uint256"
        },
        {
          "internalType": "uint256",
          "name": "_newPutExposure",
          "type": "uint256"
        }
      ],
      "name": "recordOption",
      "outputs": [],
      "stateMutability": "nonpayable",
      "type": "function"
    },
    {
      "inputs": [],
      "name": "calcTotalDelta",
      "outputs": [
        {
          "internalType": "int256",
          "name": "",
          "type": "int256"
        }
      ],
      "stateMutability": "view",
      "type": "function"
    },
    {
      "inputs": [
        {
          "internalType": "uint256",
          "name": "_deadline",
          "type": "uint256"
        }
      ],
      "name": "updateHedges",
      "outputs": [],
      "stateMutability": "nonpayable",
      "type": "function"
    },
    {
      "inputs": [
        {
          "internalType": "uint256",
          "name": "_depositAmount",
          "type": "uint256"
        }
      ],
      "name": "addCapital",
      "outputs": [],
      "stateMutability": "nonpayable",
      "type": "function"
    },
    {
      "inputs": [
        {
          "internalType": "uint256",
          "name": "_burnMPTokenAmount",
          "type": "uint256"
        }
      ],
      "name": "withdrawCapital",
      "outputs": [],
      "stateMutability": "nonpayable",
      "type": "function"
    },
    {
      "inputs": [
        {
          "internalType": "bool",
          "name": "_net",
          "type": "bool"
        },
        {
          "internalType": "bool",
          "name": "_average",
          "type": "bool"
        }
      ],
      "name": "calcCapital",
      "outputs": [
        {
          "internalType": "uint256",
          "name": "",
          "type": "uint256"
        }
      ],
      "stateMutability": "view",
      "type": "function"
    },
    {
      "inputs": [
        {
          "internalType": "uint256",
          "name": "_multiplier",
          "type": "uint256"
        }
      ],
      "name": "resetSwapSlippageAllowance",
      "outputs": [],
      "stateMutability": "nonpayable",
      "type": "function"
    },
    {
      "inputs": [
        {
          "internalType": "address",
          "name": "_address",
          "type": "address"
        }
      ],
      "name": "getHoldersOptionCount",
      "outputs": [
        {
          "internalType": "uint256",
          "name": "",
          "type": "uint256"
        }
      ],
      "stateMutability": "view",
      "type": "function"
    },
    {
      "inputs": [
        {
          "internalType": "uint256",
          "name": "_index",
          "type": "uint256"
        },
        {
          "internalType": "address",
          "name": "_address",
          "type": "address"
        }
      ],
      "name": "getHoldersOption",
      "outputs": [
        {
          "components": [
            {
              "internalType": "enum OptionLibrary.PayoffType",
              "name": "poType",
              "type": "uint8"
            },
            {
              "internalType": "enum OptionLibrary.OptionSide",
              "name": "side",
              "type": "uint8"
            },
            {
              "internalType": "enum OptionLibrary.OptionStatus",
              "name": "status",
              "type": "uint8"
            },
            {
              "internalType": "address",
              "name": "holder",
              "type": "address"
            },
            {
              "internalType": "uint256",
              "name": "id",
              "type": "uint256"
            },
            {
              "internalType": "uint256",
              "name": "createTime",
              "type": "uint256"
            },
            {
              "internalType": "uint256",
              "name": "effectiveTime",
              "type": "uint256"
            },
            {
              "internalType": "uint256",
              "name": "tenor",
              "type": "uint256"
            },
            {
              "internalType": "uint256",
              "name": "exerciseTime",
              "type": "uint256"
            },
            {
              "internalType": "uint256",
              "name": "amount",
              "type": "uint256"
            },
            {
              "internalType": "uint256",
              "name": "spot",
              "type": "uint256"
            },
            {
              "internalType": "uint256",
              "name": "strike",
              "type": "uint256"
            },
            {
              "internalType": "uint256",
              "name": "volatility",
              "type": "uint256"
            },
            {
              "internalType": "uint256",
              "name": "premium",
              "type": "uint256"
            },
            {
              "internalType": "uint256",
              "name": "fee",
              "type": "uint256"
            }
          ],
          "internalType": "struct OptionLibrary.Option",
          "name": "",
          "type": "tuple"
        }
      ],
      "stateMutability": "view",
      "type": "function"
    },
    {
      "inputs": [],
      "name": "getLendingTokenAddresses",
      "outputs": [
        {
          "internalType": "address",
          "name": "",
          "type": "address"
        },
        {
          "internalType": "address",
          "name": "",
          "type": "address"
        },
        {
          "internalType": "address",
          "name": "",
          "type": "address"
        }
      ],
      "stateMutability": "view",
      "type": "function"
    }
  ],
  "bytecode": "0x60806040526000600a556000600b556000600c556000600d5566470de4df820000600e556001600f553480156200003557600080fd5b5060405162005d7838038062005d7883398181016040528101906200005b9190620006e2565b87878160039080519060200190620000759291906200059d565b5080600490805190602001906200008e9291906200059d565b505050620000a66000801b33620002b860201b60201c565b620000d87fa49807205ce4d355092ef5a8a18f56e8913cf4a201fbe287825b095693c2177533620002b860201b60201c565b6200010a7f28d62fc77014de57a1bbaa8212ff0979fa61ab00d377b4b8d9762048fb41996133620002b860201b60201c565b82601260006101000a81548173ffffffffffffffffffffffffffffffffffffffff021916908373ffffffffffffffffffffffffffffffffffffffff16021790555081601060006101000a81548173ffffffffffffffffffffffffffffffffffffffff021916908373ffffffffffffffffffffffffffffffffffffffff16021790555080601160006101000a81548173ffffffffffffffffffffffffffffffffffffffff021916908373ffffffffffffffffffffffffffffffffffffffff16021790555084601460006101000a81548173ffffffffffffffffffffffffffffffffffffffff021916908373ffffffffffffffffffffffffffffffffffffffff16021790555085601360006101000a81548173ffffffffffffffffffffffffffffffffffffffff021916908373ffffffffffffffffffffffffffffffffffffffff16021790555083600960006101000a81548173ffffffffffffffffffffffffffffffffffffffff021916908373ffffffffffffffffffffffffffffffffffffffff160217905550620002aa33670de0b6b3a7640000620002ce60201b60201c565b505050505050505062000b02565b620002ca82826200043360201b60201c565b5050565b600073ffffffffffffffffffffffffffffffffffffffff168273ffffffffffffffffffffffffffffffffffffffff16141562000341576040517f08c379a0000000000000000000000000000000000000000000000000000000008152600401620003389062000821565b60405180910390fd5b62000355600083836200052560201b60201c565b8060026000828254620003699190620008d0565b92505081905550806000808473ffffffffffffffffffffffffffffffffffffffff1673ffffffffffffffffffffffffffffffffffffffff1681526020019081526020016000206000828254620003c09190620008d0565b925050819055508173ffffffffffffffffffffffffffffffffffffffff16600073ffffffffffffffffffffffffffffffffffffffff167fddf252ad1be2c89b69c2b068fc378daa952ba7f163c4a11628f55a4df523b3ef8360405162000427919062000843565b60405180910390a35050565b6200044582826200052a60201b60201c565b620005215760016005600084815260200190815260200160002060000160008373ffffffffffffffffffffffffffffffffffffffff1673ffffffffffffffffffffffffffffffffffffffff16815260200190815260200160002060006101000a81548160ff021916908315150217905550620004c66200059560201b60201c565b73ffffffffffffffffffffffffffffffffffffffff168173ffffffffffffffffffffffffffffffffffffffff16837f2f8788117e7eff1d82e926ec794901d17c78024a50270940304540a733656f0d60405160405180910390a45b5050565b505050565b60006005600084815260200190815260200160002060000160008373ffffffffffffffffffffffffffffffffffffffff1673ffffffffffffffffffffffffffffffffffffffff16815260200190815260200160002060009054906101000a900460ff16905092915050565b600033905090565b828054620005ab90620009a1565b90600052602060002090601f016020900481019282620005cf57600085556200061b565b82601f10620005ea57805160ff19168380011785556200061b565b828001600101855582156200061b579182015b828111156200061a578251825591602001919060010190620005fd565b5b5090506200062a91906200062e565b5090565b5b80821115620006495760008160009055506001016200062f565b5090565b6000620006646200065e8462000889565b62000860565b90508281526020810184848401111562000683576200068262000a9f565b5b620006908482856200096b565b509392505050565b600081519050620006a98162000ae8565b92915050565b600082601f830112620006c757620006c662000a9a565b5b8151620006d98482602086016200064d565b91505092915050565b600080600080600080600080610100898b03121562000706576200070562000aa9565b5b600089015167ffffffffffffffff81111562000727576200072662000aa4565b5b620007358b828c01620006af565b985050602089015167ffffffffffffffff81111562000759576200075862000aa4565b5b620007678b828c01620006af565b97505060406200077a8b828c0162000698565b96505060606200078d8b828c0162000698565b9550506080620007a08b828c0162000698565b94505060a0620007b38b828c0162000698565b93505060c0620007c68b828c0162000698565b92505060e0620007d98b828c0162000698565b9150509295985092959890939650565b6000620007f8601f83620008bf565b9150620008058262000abf565b602082019050919050565b6200081b8162000961565b82525050565b600060208201905081810360008301526200083c81620007e9565b9050919050565b60006020820190506200085a600083018462000810565b92915050565b60006200086c6200087f565b90506200087a8282620009d7565b919050565b6000604051905090565b600067ffffffffffffffff821115620008a757620008a662000a6b565b5b620008b28262000aae565b9050602081019050919050565b600082825260208201905092915050565b6000620008dd8262000961565b9150620008ea8362000961565b9250827fffffffffffffffffffffffffffffffffffffffffffffffffffffffffffffffff0382111562000922576200092162000a0d565b5b828201905092915050565b60006200093a8262000941565b9050919050565b600073ffffffffffffffffffffffffffffffffffffffff82169050919050565b6000819050919050565b60005b838110156200098b5780820151818401526020810190506200096e565b838111156200099b576000848401525b50505050565b60006002820490506001821680620009ba57607f821691505b60208210811415620009d157620009d062000a3c565b5b50919050565b620009e28262000aae565b810181811067ffffffffffffffff8211171562000a045762000a0362000a6b565b5b80604052505050565b7f4e487b7100000000000000000000000000000000000000000000000000000000600052601160045260246000fd5b7f4e487b7100000000000000000000000000000000000000000000000000000000600052602260045260246000fd5b7f4e487b7100000000000000000000000000000000000000000000000000000000600052604160045260246000fd5b600080fd5b600080fd5b600080fd5b600080fd5b6000601f19601f8301169050919050565b7f45524332303a206d696e7420746f20746865207a65726f206164647265737300600082015250565b62000af3816200092d565b811462000aff57600080fd5b50565b6152668062000b126000396000f3fe608060405234801561001057600080fd5b50600436106102535760003560e01c806390fcdb3611610146578063bea10f96116100c3578063d8d1caeb11610087578063d8d1caeb14610740578063d95b0a121461075c578063dc723c6e14610778578063dd62ed3e14610796578063e9141bdb146107c6578063f8daf7d8146107e457610253565b8063bea10f96146106ac578063c20c49ec146106c8578063d3b7bfb4146106e6578063d481441d14610704578063d547741f1461072457610253565b8063a457c2d71161010a578063a457c2d7146105f4578063a86e9f3514610624578063a9059cbb14610642578063b82e106d14610672578063be7c34551461069057610253565b806390fcdb361461053a57806391d148541461055857806395d89b4114610588578063a217fddf146105a6578063a42b6626146105c457610253565b806336da4887116101d457806370a082311161019857806370a082311461048057806375b238fc146104b0578063797be55e146104ce5780638929468b146104ec5780638a0687d21461050a57610253565b806336da4887146103c857806339509351146103e65780633b734501146104165780634313869014610434578063634479021461045057610253565b806323b872dd1161021b57806323b872dd14610312578063248a9ca3146103425780632f2ff15d14610372578063313ce5671461038e57806336568abe146103ac57610253565b806301ffc9a71461025857806306fdde0314610288578063095ea7b3146102a657806318160ddd146102d65780632140ea67146102f4575b600080fd5b610272600480360381019061026d9190613c97565b610802565b60405161027f919061441b565b60405180910390f35b61029061087c565b60405161029d919061446c565b60405180910390f35b6102c060048036038101906102bb9190613aa7565b61090e565b6040516102cd919061441b565b60405180910390f35b6102de61092c565b6040516102eb919061464a565b60405180910390f35b6102fc610936565b6040516103099190614309565b60405180910390f35b61032c60048036038101906103279190613a54565b61095c565b604051610339919061441b565b60405180910390f35b61035c60048036038101906103579190613c2a565b610a5d565b6040516103699190614436565b60405180910390f35b61038c60048036038101906103879190613c57565b610a7d565b005b610396610aa6565b6040516103a391906146bf565b60405180910390f35b6103c660048036038101906103c19190613c57565b610aaf565b005b6103d0610b32565b6040516103dd919061464a565b60405180910390f35b61040060048036038101906103fb9190613aa7565b610b38565b60405161040d919061441b565b60405180910390f35b61041e610be4565b60405161042b9190614436565b60405180910390f35b61044e60048036038101906104499190613d1f565b610c08565b005b61046a60048036038101906104659190613bea565b610d2e565b604051610477919061464a565b60405180910390f35b61049a60048036038101906104959190613994565b61106a565b6040516104a7919061464a565b60405180910390f35b6104b86110b2565b6040516104c59190614436565b60405180910390f35b6104d66110d6565b6040516104e3919061464a565b60405180910390f35b6104f46110dc565b6040516105019190614309565b60405180910390f35b610524600480360381019061051f9190613d79565b611102565b604051610531919061462e565b60405180910390f35b61054261120e565b60405161054f9190614309565b60405180910390f35b610572600480360381019061056d9190613c57565b611234565b60405161057f919061441b565b60405180910390f35b61059061129f565b60405161059d919061446c565b60405180910390f35b6105ae611331565b6040516105bb9190614436565b60405180910390f35b6105de60048036038101906105d99190613994565b611338565b6040516105eb919061464a565b60405180910390f35b61060e60048036038101906106099190613aa7565b611388565b60405161061b919061441b565b60405180910390f35b61062c61147c565b604051610639919061464a565b60405180910390f35b61065c60048036038101906106579190613aa7565b611482565b604051610669919061441b565b60405180910390f35b61067a6114a0565b604051610687919061464a565b60405180910390f35b6106aa60048036038101906106a59190613d1f565b6114a6565b005b6106c660048036038101906106c19190613d1f565b6114e3565b005b6106d061161b565b6040516106dd919061464a565b60405180910390f35b6106ee611621565b6040516106fb9190614309565b60405180910390f35b61070c611647565b60405161071b9392919061434d565b60405180910390f35b61073e60048036038101906107399190613c57565b611724565b005b61075a60048036038101906107559190613ae7565b61174d565b005b61077660048036038101906107719190613d1f565b6118ea565b005b610780611a0c565b60405161078d9190614451565b60405180910390f35b6107b060048036038101906107ab91906139c1565b611b0d565b6040516107bd919061464a565b60405180910390f35b6107ce611b94565b6040516107db9190614309565b60405180910390f35b6107ec611bba565b6040516107f9919061464a565b60405180910390f35b60007f7965db0b000000000000000000000000000000000000000000000000000000007bffffffffffffffffffffffffffffffffffffffffffffffffffffffff1916827bffffffffffffffffffffffffffffffffffffffffffffffffffffffff19161480610875575061087482611bc0565b5b9050919050565b60606003805461088b90614af8565b80601f01602080910402602001604051908101604052809291908181526020018280546108b790614af8565b80156109045780601f106108d957610100808354040283529160200191610904565b820191906000526020600020905b8154815290600101906020018083116108e757829003601f168201915b5050505050905090565b600061092261091b611c2a565b8484611c32565b6001905092915050565b6000600254905090565b601360009054906101000a900473ffffffffffffffffffffffffffffffffffffffff1681565b6000610969848484611dfd565b6000600160008673ffffffffffffffffffffffffffffffffffffffff1673ffffffffffffffffffffffffffffffffffffffff16815260200190815260200160002060006109b4611c2a565b73ffffffffffffffffffffffffffffffffffffffff1673ffffffffffffffffffffffffffffffffffffffff16815260200190815260200160002054905082811015610a34576040517f08c379a0000000000000000000000000000000000000000000000000000000008152600401610a2b9061454e565b60405180910390fd5b610a5185610a40611c2a565b8584610a4c9190614963565b611c32565b60019150509392505050565b600060056000838152602001908152602001600020600101549050919050565b610a8682610a5d565b610a9781610a92611c2a565b61207c565b610aa18383612119565b505050565b60006012905090565b610ab7611c2a565b73ffffffffffffffffffffffffffffffffffffffff168173ffffffffffffffffffffffffffffffffffffffff1614610b24576040517f08c379a0000000000000000000000000000000000000000000000000000000008152600401610b1b906145ee565b60405180910390fd5b610b2e82826121fa565b5050565b600b5481565b6000610bda610b45611c2a565b848460016000610b53611c2a565b73ffffffffffffffffffffffffffffffffffffffff1673ffffffffffffffffffffffffffffffffffffffff16815260200190815260200160002060008873ffffffffffffffffffffffffffffffffffffffff1673ffffffffffffffffffffffffffffffffffffffff16815260200190815260200160002054610bd5919061481f565b611c32565b6001905092915050565b7f28d62fc77014de57a1bbaa8212ff0979fa61ab00d377b4b8d9762048fb41996181565b7fa49807205ce4d355092ef5a8a18f56e8913cf4a201fbe287825b095693c21775610c3a81610c35611c2a565b61207c565b6000610c44611a0c565b90506000600960009054906101000a900473ffffffffffffffffffffffffffffffffffffffff1673ffffffffffffffffffffffffffffffffffffffff1663b0667cf86040518163ffffffff1660e01b8152600401604080518083038186803b158015610caf57600080fd5b505afa158015610cc3573d6000803e3d6000fd5b505050506040513d601f19601f82011682018060405250810190610ce79190613db9565b509050600d54610cf690614ba4565b821215610d0957610d088282866122dc565b5b600d54610d1590614ba4565b821315610d2857610d27828286612780565b5b50505050565b600080600960009054906101000a900473ffffffffffffffffffffffffffffffffffffffff1673ffffffffffffffffffffffffffffffffffffffff1663b0667cf86040518163ffffffff1660e01b8152600401604080518083038186803b158015610d9857600080fd5b505afa158015610dac573d6000803e3d6000fd5b505050506040513d601f19601f82011682018060405250810190610dd09190613db9565b5090506000601360009054906101000a900473ffffffffffffffffffffffffffffffffffffffff1673ffffffffffffffffffffffffffffffffffffffff166370a08231306040518263ffffffff1660e01b8152600401610e309190614309565b60206040518083038186803b158015610e4857600080fd5b505afa158015610e5c573d6000803e3d6000fd5b505050506040513d601f19601f82011682018060405250810190610e809190613d4c565b610fd4601460009054906101000a900473ffffffffffffffffffffffffffffffffffffffff1673ffffffffffffffffffffffffffffffffffffffff166370a08231306040518263ffffffff1660e01b8152600401610ede9190614309565b60206040518083038186803b158015610ef657600080fd5b505afa158015610f0a573d6000803e3d6000fd5b505050506040513d601f19601f82011682018060405250810190610f2e9190613d4c565b600960009054906101000a900473ffffffffffffffffffffffffffffffffffffffff1673ffffffffffffffffffffffffffffffffffffffff1663d50cb88b6040518163ffffffff1660e01b815260040160206040518083038186803b158015610f9657600080fd5b505afa158015610faa573d6000803e3d6000fd5b505050506040513d601f19601f82011682018060405250810190610fce9190613d4c565b85612ccf565b610fde919061481f565b9050841561103c57600a54600c54600b54610ff9919061481f565b611003919061481f565b81111561102c57600a54600c54600b5461101d919061481f565b611027919061481f565b61102e565b805b816110399190614963565b90505b831561105f5761105c81670de0b6b3a764000061105761092c565b612ccf565b90505b809250505092915050565b60008060008373ffffffffffffffffffffffffffffffffffffffff1673ffffffffffffffffffffffffffffffffffffffff168152602001908152602001600020549050919050565b7fa49807205ce4d355092ef5a8a18f56e8913cf4a201fbe287825b095693c2177581565b600a5481565b601160009054906101000a900473ffffffffffffffffffffffffffffffffffffffff1681565b61110a6135d4565b600960009054906101000a900473ffffffffffffffffffffffffffffffffffffffff1673ffffffffffffffffffffffffffffffffffffffff16631ce5e9a661119985600660008773ffffffffffffffffffffffffffffffffffffffff1673ffffffffffffffffffffffffffffffffffffffff168152602001908152602001600020612dcb90919063ffffffff16565b6040518263ffffffff1660e01b81526004016111b5919061464a565b6101e06040518083038186803b1580156111ce57600080fd5b505afa1580156111e2573d6000803e3d6000fd5b505050506040513d601f19601f820116820180604052508101906112069190613cf1565b905092915050565b601260009054906101000a900473ffffffffffffffffffffffffffffffffffffffff1681565b60006005600084815260200190815260200160002060000160008373ffffffffffffffffffffffffffffffffffffffff1673ffffffffffffffffffffffffffffffffffffffff16815260200190815260200160002060009054906101000a900460ff16905092915050565b6060600480546112ae90614af8565b80601f01602080910402602001604051908101604052809291908181526020018280546112da90614af8565b80156113275780601f106112fc57610100808354040283529160200191611327565b820191906000526020600020905b81548152906001019060200180831161130a57829003601f168201915b5050505050905090565b6000801b81565b6000611381600660008473ffffffffffffffffffffffffffffffffffffffff1673ffffffffffffffffffffffffffffffffffffffff168152602001908152602001600020612de5565b9050919050565b60008060016000611397611c2a565b73ffffffffffffffffffffffffffffffffffffffff1673ffffffffffffffffffffffffffffffffffffffff16815260200190815260200160002060008573ffffffffffffffffffffffffffffffffffffffff1673ffffffffffffffffffffffffffffffffffffffff16815260200190815260200160002054905082811015611454576040517f08c379a000000000000000000000000000000000000000000000000000000000815260040161144b906145ce565b60405180910390fd5b61147161145f611c2a565b85858461146c9190614963565b611c32565b600191505092915050565b600e5481565b600061149661148f611c2a565b8484611dfd565b6001905092915050565b600f5481565b7fa49807205ce4d355092ef5a8a18f56e8913cf4a201fbe287825b095693c217756114d8816114d3611c2a565b61207c565b81600e819055505050565b60006114f160006001610d2e565b90506000811161150057600080fd5b600061151583670de0b6b3a764000084612ccf565b9050601360009054906101000a900473ffffffffffffffffffffffffffffffffffffffff1673ffffffffffffffffffffffffffffffffffffffff166323b872dd3330866040518463ffffffff1660e01b815260040161157693929190614384565b602060405180830381600087803b15801561159057600080fd5b505af11580156115a4573d6000803e3d6000fd5b505050506040513d601f19601f820116820180604052508101906115c89190613bbd565b6115d157600080fd5b6115db3382612dfa565b7fd0d5ca25112902dbbf5a70a67eed6edc7513b74f2a7ec0805ca216c99f981cc133848360405161160e939291906143e4565b60405180910390a1505050565b600d5481565b601460009054906101000a900473ffffffffffffffffffffffffffffffffffffffff1681565b600080600073__MarketLibrary_________________________638684fd28601160009054906101000a900473ffffffffffffffffffffffffffffffffffffffff16601360009054906101000a900473ffffffffffffffffffffffffffffffffffffffff166040518363ffffffff1660e01b81526004016116c9929190614324565b60606040518083038186803b1580156116e157600080fd5b505af41580156116f5573d6000803e3d6000fd5b505050506040513d601f19601f820116820180604052508101906117199190613a01565b925092509250909192565b61172d82610a5d565b61173e81611739611c2a565b61207c565b61174883836121fa565b505050565b7f28d62fc77014de57a1bbaa8212ff0979fa61ab00d377b4b8d9762048fb41996161177f8161177a611c2a565b61207c565b84156117ed576117d686600660008a73ffffffffffffffffffffffffffffffffffffffff1673ffffffffffffffffffffffffffffffffffffffff168152602001908152602001600020612f4e90919063ffffffff16565b506117eb866007612f4e90919063ffffffff16565b505b8461185a5761184386600660008a73ffffffffffffffffffffffffffffffffffffffff1673ffffffffffffffffffffffffffffffffffffffff168152602001908152602001600020612f6890919063ffffffff16565b50611858866007612f6890919063ffffffff16565b505b846118725783600a5461186d9190614963565b611881565b83600a54611880919061481f565b5b600a819055508461189f5782600b5461189a9190614963565b6118ae565b82600b546118ad919061481f565b5b600b81905550846118cc5781600c546118c79190614963565b6118db565b81600c546118da919061481f565b5b600c8190555050505050505050565b60006119096118fa600180610d2e565b83670de0b6b3a7640000612ccf565b90506119153383612f82565b601360009054906101000a900473ffffffffffffffffffffffffffffffffffffffff1673ffffffffffffffffffffffffffffffffffffffff1663a9059cbb33836040518363ffffffff1660e01b81526004016119729291906143bb565b602060405180830381600087803b15801561198c57600080fd5b505af11580156119a0573d6000803e3d6000fd5b505050506040513d601f19601f820116820180604052508101906119c49190613bbd565b6119cd57600080fd5b7f3a9e5b3b520d77dc26bf05104c863b6b654d4b96fa8031a783ad0dbd905cdf39338383604051611a00939291906143e4565b60405180910390a15050565b6000806000905060005b611a206007612de5565b811015611b0557600960009054906101000a900473ffffffffffffffffffffffffffffffffffffffff1673ffffffffffffffffffffffffffffffffffffffff1663a823c087611a79836007612dcb90919063ffffffff16565b6040518263ffffffff1660e01b8152600401611a95919061464a565b60206040518083038186803b158015611aad57600080fd5b505afa158015611ac1573d6000803e3d6000fd5b505050506040513d601f19601f82011682018060405250810190611ae59190613cc4565b82611af0919061478b565b91508080611afd90614b5b565b915050611a16565b508091505090565b6000600160008473ffffffffffffffffffffffffffffffffffffffff1673ffffffffffffffffffffffffffffffffffffffff16815260200190815260200160002060008373ffffffffffffffffffffffffffffffffffffffff1673ffffffffffffffffffffffffffffffffffffffff16815260200190815260200160002054905092915050565b601060009054906101000a900473ffffffffffffffffffffffffffffffffffffffff1681565b600c5481565b60007f01ffc9a7000000000000000000000000000000000000000000000000000000007bffffffffffffffffffffffffffffffffffffffffffffffffffffffff1916827bffffffffffffffffffffffffffffffffffffffffffffffffffffffff1916149050919050565b600033905090565b600073ffffffffffffffffffffffffffffffffffffffff168373ffffffffffffffffffffffffffffffffffffffff161415611ca2576040517f08c379a0000000000000000000000000000000000000000000000000000000008152600401611c99906145ae565b60405180910390fd5b600073ffffffffffffffffffffffffffffffffffffffff168273ffffffffffffffffffffffffffffffffffffffff161415611d12576040517f08c379a0000000000000000000000000000000000000000000000000000000008152600401611d099061450e565b60405180910390fd5b80600160008573ffffffffffffffffffffffffffffffffffffffff1673ffffffffffffffffffffffffffffffffffffffff16815260200190815260200160002060008473ffffffffffffffffffffffffffffffffffffffff1673ffffffffffffffffffffffffffffffffffffffff168152602001908152602001600020819055508173ffffffffffffffffffffffffffffffffffffffff168373ffffffffffffffffffffffffffffffffffffffff167f8c5be1e5ebec7d5bd14f71427d1e84f3dd0314c0f7b2291e5b200ac8c7c3b92583604051611df0919061464a565b60405180910390a3505050565b600073ffffffffffffffffffffffffffffffffffffffff168373ffffffffffffffffffffffffffffffffffffffff161415611e6d576040517f08c379a0000000000000000000000000000000000000000000000000000000008152600401611e649061458e565b60405180910390fd5b600073ffffffffffffffffffffffffffffffffffffffff168273ffffffffffffffffffffffffffffffffffffffff161415611edd576040517f08c379a0000000000000000000000000000000000000000000000000000000008152600401611ed4906144ce565b60405180910390fd5b611ee8838383613156565b60008060008573ffffffffffffffffffffffffffffffffffffffff1673ffffffffffffffffffffffffffffffffffffffff16815260200190815260200160002054905081811015611f6e576040517f08c379a0000000000000000000000000000000000000000000000000000000008152600401611f659061452e565b60405180910390fd5b8181611f7a9190614963565b6000808673ffffffffffffffffffffffffffffffffffffffff1673ffffffffffffffffffffffffffffffffffffffff16815260200190815260200160002081905550816000808573ffffffffffffffffffffffffffffffffffffffff1673ffffffffffffffffffffffffffffffffffffffff168152602001908152602001600020600082825461200a919061481f565b925050819055508273ffffffffffffffffffffffffffffffffffffffff168473ffffffffffffffffffffffffffffffffffffffff167fddf252ad1be2c89b69c2b068fc378daa952ba7f163c4a11628f55a4df523b3ef8460405161206e919061464a565b60405180910390a350505050565b6120868282611234565b612115576120ab8173ffffffffffffffffffffffffffffffffffffffff16601461315b565b6120b98360001c602061315b565b6040516020016120ca9291906142cf565b6040516020818303038152906040526040517f08c379a000000000000000000000000000000000000000000000000000000000815260040161210c919061446c565b60405180910390fd5b5050565b6121238282611234565b6121f65760016005600084815260200190815260200160002060000160008373ffffffffffffffffffffffffffffffffffffffff1673ffffffffffffffffffffffffffffffffffffffff16815260200190815260200160002060006101000a81548160ff02191690831515021790555061219b611c2a565b73ffffffffffffffffffffffffffffffffffffffff168173ffffffffffffffffffffffffffffffffffffffff16837f2f8788117e7eff1d82e926ec794901d17c78024a50270940304540a733656f0d60405160405180910390a45b5050565b6122048282611234565b156122d85760006005600084815260200190815260200160002060000160008373ffffffffffffffffffffffffffffffffffffffff1673ffffffffffffffffffffffffffffffffffffffff16815260200190815260200160002060006101000a81548160ff02191690831515021790555061227d611c2a565b73ffffffffffffffffffffffffffffffffffffffff168173ffffffffffffffffffffffffffffffffffffffff16837ff6391f5c32d9c69d2a47ea670b442974b53935d1edc7fd64eb21e047a839171b60405160405180910390a45b5050565b60006123a8601360009054906101000a900473ffffffffffffffffffffffffffffffffffffffff1673ffffffffffffffffffffffffffffffffffffffff166370a08231306040518263ffffffff1660e01b815260040161233c9190614309565b60206040518083038186803b15801561235457600080fd5b505afa158015612368573d6000803e3d6000fd5b505050506040513d601f19601f8201168201806040525081019061238c9190613d4c565b85600d5461239990614ba4565b6123a391906148cf565b613397565b9050600081111561277a57601360009054906101000a900473ffffffffffffffffffffffffffffffffffffffff1673ffffffffffffffffffffffffffffffffffffffff1663095ea7b3601260009054906101000a900473ffffffffffffffffffffffffffffffffffffffff16836040518363ffffffff1660e01b81526004016124329291906143bb565b602060405180830381600087803b15801561244c57600080fd5b505af1158015612460573d6000803e3d6000fd5b505050506040513d601f19601f820116820180604052508101906124849190613bbd565b506000600267ffffffffffffffff8111156124a2576124a1614cd8565b5b6040519080825280602002602001820160405280156124d05781602001602082028036833780820191505090505b509050601360009054906101000a900473ffffffffffffffffffffffffffffffffffffffff168160008151811061250a57612509614ca9565b5b602002602001019073ffffffffffffffffffffffffffffffffffffffff16908173ffffffffffffffffffffffffffffffffffffffff1681525050601460009054906101000a900473ffffffffffffffffffffffffffffffffffffffff168160018151811061257b5761257a614ca9565b5b602002602001019073ffffffffffffffffffffffffffffffffffffffff16908173ffffffffffffffffffffffffffffffffffffffff16815250506000601260009054906101000a900473ffffffffffffffffffffffffffffffffffffffff1673ffffffffffffffffffffffffffffffffffffffff166338ed1739846126c7866126228a600e54670de0b6b3a76400006126149190614963565b670de0b6b3a7640000612ccf565b600960009054906101000a900473ffffffffffffffffffffffffffffffffffffffff1673ffffffffffffffffffffffffffffffffffffffff1663d50cb88b6040518163ffffffff1660e01b815260040160206040518083038186803b15801561268a57600080fd5b505afa15801561269e573d6000803e3d6000fd5b505050506040513d601f19601f820116820180604052508101906126c29190613d4c565b612ccf565b8530896040518663ffffffff1660e01b81526004016126ea959493929190614665565b600060405180830381600087803b15801561270457600080fd5b505af1158015612718573d6000803e3d6000fd5b505050506040513d6000823e3d601f19601f820116820180604052508101906127419190613b74565b90508060008151811061275757612756614ca9565b5b6020026020010151600d6000828254612770919061481f565b9250508190555050505b50505050565b60006128f7601460009054906101000a900473ffffffffffffffffffffffffffffffffffffffff1673ffffffffffffffffffffffffffffffffffffffff166370a08231306040518263ffffffff1660e01b81526004016127e09190614309565b60206040518083038186803b1580156127f857600080fd5b505afa15801561280c573d6000803e3d6000fd5b505050506040513d601f19601f820116820180604052508101906128309190613d4c565b6128f261284c600d54600d5489612847919061478b565b613397565b86600960009054906101000a900473ffffffffffffffffffffffffffffffffffffffff1673ffffffffffffffffffffffffffffffffffffffff1663d50cb88b6040518163ffffffff1660e01b815260040160206040518083038186803b1580156128b557600080fd5b505afa1580156128c9573d6000803e3d6000fd5b505050506040513d601f19601f820116820180604052508101906128ed9190613d4c565b612ccf565b613397565b90506000811115612cc957601460009054906101000a900473ffffffffffffffffffffffffffffffffffffffff1673ffffffffffffffffffffffffffffffffffffffff1663095ea7b3601260009054906101000a900473ffffffffffffffffffffffffffffffffffffffff16836040518363ffffffff1660e01b81526004016129819291906143bb565b602060405180830381600087803b15801561299b57600080fd5b505af11580156129af573d6000803e3d6000fd5b505050506040513d601f19601f820116820180604052508101906129d39190613bbd565b506000600267ffffffffffffffff8111156129f1576129f0614cd8565b5b604051908082528060200260200182016040528015612a1f5781602001602082028036833780820191505090505b509050601460009054906101000a900473ffffffffffffffffffffffffffffffffffffffff1681600081518110612a5957612a58614ca9565b5b602002602001019073ffffffffffffffffffffffffffffffffffffffff16908173ffffffffffffffffffffffffffffffffffffffff1681525050601360009054906101000a900473ffffffffffffffffffffffffffffffffffffffff1681600181518110612aca57612ac9614ca9565b5b602002602001019073ffffffffffffffffffffffffffffffffffffffff16908173ffffffffffffffffffffffffffffffffffffffff16815250506000601260009054906101000a900473ffffffffffffffffffffffffffffffffffffffff1673ffffffffffffffffffffffffffffffffffffffff166338ed173984612c1686600960009054906101000a900473ffffffffffffffffffffffffffffffffffffffff1673ffffffffffffffffffffffffffffffffffffffff1663d50cb88b6040518163ffffffff1660e01b815260040160206040518083038186803b158015612bb157600080fd5b505afa158015612bc5573d6000803e3d6000fd5b505050506040513d601f19601f82011682018060405250810190612be99190613d4c565b612c118b600e54670de0b6b3a7640000612c03919061481f565b670de0b6b3a7640000612ccf565b612ccf565b8530896040518663ffffffff1660e01b8152600401612c39959493929190614665565b600060405180830381600087803b158015612c5357600080fd5b505af1158015612c67573d6000803e3d6000fd5b505050506040513d6000823e3d601f19601f82011682018060405250810190612c909190613b74565b905080600081518110612ca657612ca5614ca9565b5b6020026020010151600d6000828254612cbf9190614963565b9250508190555050505b50505050565b600080600080198587098587029250828110838203039150506000811415612d0a5760008411612cfe57600080fd5b83820492505050612dc4565b808411612d1657600080fd5b60008486880990508281118203915080830392506000856001877fffffffffffffffffffffffffffffffffffffffffffffffffffffffffffffffff0301169050808604955080840493506001818260000304019050808302841793506000600287600302189050808702600203810290508087026002038102905080870260020381029050808702600203810290508087026002038102905080870260020381029050808502955050505050505b9392505050565b6000612dda83600001836133b0565b60001c905092915050565b6000612df382600001613424565b9050919050565b600073ffffffffffffffffffffffffffffffffffffffff168273ffffffffffffffffffffffffffffffffffffffff161415612e6a576040517f08c379a0000000000000000000000000000000000000000000000000000000008152600401612e619061460e565b60405180910390fd5b612e7660008383613156565b8060026000828254612e88919061481f565b92505081905550806000808473ffffffffffffffffffffffffffffffffffffffff1673ffffffffffffffffffffffffffffffffffffffff1681526020019081526020016000206000828254612edd919061481f565b925050819055508173ffffffffffffffffffffffffffffffffffffffff16600073ffffffffffffffffffffffffffffffffffffffff167fddf252ad1be2c89b69c2b068fc378daa952ba7f163c4a11628f55a4df523b3ef83604051612f42919061464a565b60405180910390a35050565b6000612f60836000018360001b613435565b905092915050565b6000612f7a836000018360001b6134a5565b905092915050565b600073ffffffffffffffffffffffffffffffffffffffff168273ffffffffffffffffffffffffffffffffffffffff161415612ff2576040517f08c379a0000000000000000000000000000000000000000000000000000000008152600401612fe99061456e565b60405180910390fd5b612ffe82600083613156565b60008060008473ffffffffffffffffffffffffffffffffffffffff1673ffffffffffffffffffffffffffffffffffffffff16815260200190815260200160002054905081811015613084576040517f08c379a000000000000000000000000000000000000000000000000000000000815260040161307b906144ee565b60405180910390fd5b81816130909190614963565b6000808573ffffffffffffffffffffffffffffffffffffffff1673ffffffffffffffffffffffffffffffffffffffff1681526020019081526020016000208190555081600260008282546130e49190614963565b92505081905550600073ffffffffffffffffffffffffffffffffffffffff168373ffffffffffffffffffffffffffffffffffffffff167fddf252ad1be2c89b69c2b068fc378daa952ba7f163c4a11628f55a4df523b3ef84604051613149919061464a565b60405180910390a3505050565b505050565b60606000600283600261316e9190614875565b613178919061481f565b67ffffffffffffffff81111561319157613190614cd8565b5b6040519080825280601f01601f1916602001820160405280156131c35781602001600182028036833780820191505090505b5090507f3000000000000000000000000000000000000000000000000000000000000000816000815181106131fb576131fa614ca9565b5b60200101907effffffffffffffffffffffffffffffffffffffffffffffffffffffffffffff1916908160001a9053507f78000000000000000000000000000000000000000000000000000000000000008160018151811061325f5761325e614ca9565b5b60200101907effffffffffffffffffffffffffffffffffffffffffffffffffffffffffffff1916908160001a9053506000600184600261329f9190614875565b6132a9919061481f565b90505b6001811115613349577f3031323334353637383961626364656600000000000000000000000000000000600f8616601081106132eb576132ea614ca9565b5b1a60f81b82828151811061330257613301614ca9565b5b60200101907effffffffffffffffffffffffffffffffffffffffffffffffffffffffffffff1916908160001a905350600485901c94508061334290614ace565b90506132ac565b506000841461338d576040517f08c379a0000000000000000000000000000000000000000000000000000000008152600401613384906144ae565b60405180910390fd5b8091505092915050565b60008183106133a657816133a8565b825b905092915050565b6000818360000180549050116133fb576040517f08c379a00000000000000000000000000000000000000000000000000000000081526004016133f29061448e565b60405180910390fd5b82600001828154811061341157613410614ca9565b5b9060005260206000200154905092915050565b600081600001805490509050919050565b600061344183836135b1565b61349a57826000018290806001815401808255809150506001900390600052602060002001600090919091909150558260000180549050836001016000848152602001908152602001600020819055506001905061349f565b600090505b92915050565b600080836001016000848152602001908152602001600020549050600081146135a55760006001826134d79190614963565b90506000600186600001805490506134ef9190614963565b9050600086600001828154811061350957613508614ca9565b5b906000526020600020015490508087600001848154811061352d5761352c614ca9565b5b906000526020600020018190555083876001016000838152602001908152602001600020819055508660000180548061356957613568614c7a565b5b600190038181906000526020600020016000905590558660010160008781526020019081526020016000206000905560019450505050506135ab565b60009150505b92915050565b600080836001016000848152602001908152602001600020541415905092915050565b604051806101e00160405280600060018111156135f4576135f3614c1c565b5b81526020016000600181111561360d5761360c614c1c565b5b81526020016000600381111561362657613625614c1c565b5b8152602001600073ffffffffffffffffffffffffffffffffffffffff16815260200160008152602001600081526020016000815260200160008152602001600081526020016000815260200160008152602001600081526020016000815260200160008152602001600081525090565b60006136a96136a4846146ff565b6146da565b905080838252602082019050828560208602820111156136cc576136cb614d11565b5b60005b858110156136fc57816136e2888261397f565b8452602084019350602083019250506001810190506136cf565b5050509392505050565b60008135905061371581615176565b92915050565b60008151905061372a81615176565b92915050565b600082601f83011261374557613744614d07565b5b8151613755848260208601613696565b91505092915050565b60008135905061376d8161518d565b92915050565b6000815190506137828161518d565b92915050565b600081359050613797816151a4565b92915050565b6000813590506137ac816151bb565b92915050565b6000815190506137c1816151d2565b92915050565b6000815190506137d6816151e2565b92915050565b6000815190506137eb816151f2565b92915050565b60008151905061380081615202565b92915050565b60006101e0828403121561381d5761381c614d0c565b5b6138286101e06146da565b90506000613838848285016137dc565b600083015250602061384c848285016137b2565b6020830152506040613860848285016137c7565b60408301525060606138748482850161371b565b60608301525060806138888482850161397f565b60808301525060a061389c8482850161397f565b60a08301525060c06138b08482850161397f565b60c08301525060e06138c48482850161397f565b60e0830152506101006138d98482850161397f565b610100830152506101206138ef8482850161397f565b610120830152506101406139058482850161397f565b6101408301525061016061391b8482850161397f565b610160830152506101806139318482850161397f565b610180830152506101a06139478482850161397f565b6101a0830152506101c061395d8482850161397f565b6101c08301525092915050565b60008135905061397981615219565b92915050565b60008151905061398e81615219565b92915050565b6000602082840312156139aa576139a9614d1b565b5b60006139b884828501613706565b91505092915050565b600080604083850312156139d8576139d7614d1b565b5b60006139e685828601613706565b92505060206139f785828601613706565b9150509250929050565b600080600060608486031215613a1a57613a19614d1b565b5b6000613a288682870161371b565b9350506020613a398682870161371b565b9250506040613a4a8682870161371b565b9150509250925092565b600080600060608486031215613a6d57613a6c614d1b565b5b6000613a7b86828701613706565b9350506020613a8c86828701613706565b9250506040613a9d8682870161396a565b9150509250925092565b60008060408385031215613abe57613abd614d1b565b5b6000613acc85828601613706565b9250506020613add8582860161396a565b9150509250929050565b60008060008060008060c08789031215613b0457613b03614d1b565b5b6000613b1289828a01613706565b9650506020613b2389828a0161396a565b9550506040613b3489828a0161375e565b9450506060613b4589828a0161396a565b9350506080613b5689828a0161396a565b92505060a0613b6789828a0161396a565b9150509295509295509295565b600060208284031215613b8a57613b89614d1b565b5b600082015167ffffffffffffffff811115613ba857613ba7614d16565b5b613bb484828501613730565b91505092915050565b600060208284031215613bd357613bd2614d1b565b5b6000613be184828501613773565b91505092915050565b60008060408385031215613c0157613c00614d1b565b5b6000613c0f8582860161375e565b9250506020613c208582860161375e565b9150509250929050565b600060208284031215613c4057613c3f614d1b565b5b6000613c4e84828501613788565b91505092915050565b60008060408385031215613c6e57613c6d614d1b565b5b6000613c7c85828601613788565b9250506020613c8d85828601613706565b9150509250929050565b600060208284031215613cad57613cac614d1b565b5b6000613cbb8482850161379d565b91505092915050565b600060208284031215613cda57613cd9614d1b565b5b6000613ce8848285016137f1565b91505092915050565b60006101e08284031215613d0857613d07614d1b565b5b6000613d1684828501613806565b91505092915050565b600060208284031215613d3557613d34614d1b565b5b6000613d438482850161396a565b91505092915050565b600060208284031215613d6257613d61614d1b565b5b6000613d708482850161397f565b91505092915050565b60008060408385031215613d9057613d8f614d1b565b5b6000613d9e8582860161396a565b9250506020613daf85828601613706565b9150509250929050565b60008060408385031215613dd057613dcf614d1b565b5b6000613dde8582860161397f565b9250506020613def8582860161397f565b9150509250929050565b6000613e058383613e11565b60208301905092915050565b613e1a81614997565b82525050565b613e2981614997565b82525050565b613e3881614997565b82525050565b6000613e498261473b565b613e53818561475e565b9350613e5e8361472b565b8060005b83811015613e8f578151613e768882613df9565b9750613e8183614751565b925050600181019050613e62565b5085935050505092915050565b613ea5816149a9565b82525050565b613eb4816149b5565b82525050565b613ec381614a65565b82525050565b613ed281614a77565b82525050565b613ee181614a89565b82525050565b613ef081614a24565b82525050565b6000613f0182614746565b613f0b818561476f565b9350613f1b818560208601614a9b565b613f2481614d20565b840191505092915050565b6000613f3a82614746565b613f448185614780565b9350613f54818560208601614a9b565b80840191505092915050565b6000613f6d60228361476f565b9150613f7882614d31565b604082019050919050565b6000613f9060208361476f565b9150613f9b82614d80565b602082019050919050565b6000613fb360238361476f565b9150613fbe82614da9565b604082019050919050565b6000613fd660228361476f565b9150613fe182614df8565b604082019050919050565b6000613ff960228361476f565b915061400482614e47565b604082019050919050565b600061401c60268361476f565b915061402782614e96565b604082019050919050565b600061403f60288361476f565b915061404a82614ee5565b604082019050919050565b600061406260218361476f565b915061406d82614f34565b604082019050919050565b600061408560258361476f565b915061409082614f83565b604082019050919050565b60006140a860248361476f565b91506140b382614fd2565b604082019050919050565b60006140cb601783614780565b91506140d682615021565b601782019050919050565b60006140ee60258361476f565b91506140f98261504a565b604082019050919050565b6000614111601183614780565b915061411c82615099565b601182019050919050565b6000614134602f8361476f565b915061413f826150c2565b604082019050919050565b6000614157601f8361476f565b915061416282615111565b602082019050919050565b6101e0820160008201516141846000850182613ed8565b5060208201516141976020850182613eba565b5060408201516141aa6040850182613ec9565b5060608201516141bd6060850182613e11565b5060808201516141d060808501826142a2565b5060a08201516141e360a08501826142a2565b5060c08201516141f660c08501826142a2565b5060e082015161420960e08501826142a2565b5061010082015161421e6101008501826142a2565b506101208201516142336101208501826142a2565b506101408201516142486101408501826142a2565b5061016082015161425d6101608501826142a2565b506101808201516142726101808501826142a2565b506101a08201516142876101a08501826142a2565b506101c082015161429c6101c08501826142a2565b50505050565b6142ab81614a4e565b82525050565b6142ba81614a4e565b82525050565b6142c981614a58565b82525050565b60006142da826140be565b91506142e68285613f2f565b91506142f182614104565b91506142fd8284613f2f565b91508190509392505050565b600060208201905061431e6000830184613e20565b92915050565b60006040820190506143396000830185613e2f565b6143466020830184613e2f565b9392505050565b60006060820190506143626000830186613e20565b61436f6020830185613e20565b61437c6040830184613e20565b949350505050565b60006060820190506143996000830186613e20565b6143a66020830185613e20565b6143b360408301846142b1565b949350505050565b60006040820190506143d06000830185613e20565b6143dd60208301846142b1565b9392505050565b60006060820190506143f96000830186613e20565b61440660208301856142b1565b61441360408301846142b1565b949350505050565b60006020820190506144306000830184613e9c565b92915050565b600060208201905061444b6000830184613eab565b92915050565b60006020820190506144666000830184613ee7565b92915050565b600060208201905081810360008301526144868184613ef6565b905092915050565b600060208201905081810360008301526144a781613f60565b9050919050565b600060208201905081810360008301526144c781613f83565b9050919050565b600060208201905081810360008301526144e781613fa6565b9050919050565b6000602082019050818103600083015261450781613fc9565b9050919050565b6000602082019050818103600083015261452781613fec565b9050919050565b600060208201905081810360008301526145478161400f565b9050919050565b6000602082019050818103600083015261456781614032565b9050919050565b6000602082019050818103600083015261458781614055565b9050919050565b600060208201905081810360008301526145a781614078565b9050919050565b600060208201905081810360008301526145c78161409b565b9050919050565b600060208201905081810360008301526145e7816140e1565b9050919050565b6000602082019050818103600083015261460781614127565b9050919050565b600060208201905081810360008301526146278161414a565b9050919050565b60006101e082019050614644600083018461416d565b92915050565b600060208201905061465f60008301846142b1565b92915050565b600060a08201905061467a60008301886142b1565b61468760208301876142b1565b81810360408301526146998186613e3e565b90506146a86060830185613e20565b6146b560808301846142b1565b9695505050505050565b60006020820190506146d460008301846142c0565b92915050565b60006146e46146f5565b90506146f08282614b2a565b919050565b6000604051905090565b600067ffffffffffffffff82111561471a57614719614cd8565b5b602082029050602081019050919050565b6000819050602082019050919050565b600081519050919050565b600081519050919050565b6000602082019050919050565b600082825260208201905092915050565b600082825260208201905092915050565b600081905092915050565b600061479682614a24565b91506147a183614a24565b9250817f7fffffffffffffffffffffffffffffffffffffffffffffffffffffffffffffff038313600083121516156147dc576147db614bed565b5b817f800000000000000000000000000000000000000000000000000000000000000003831260008312161561481457614813614bed565b5b828201905092915050565b600061482a82614a4e565b915061483583614a4e565b9250827fffffffffffffffffffffffffffffffffffffffffffffffffffffffffffffffff0382111561486a57614869614bed565b5b828201905092915050565b600061488082614a4e565b915061488b83614a4e565b9250817fffffffffffffffffffffffffffffffffffffffffffffffffffffffffffffffff04831182151516156148c4576148c3614bed565b5b828202905092915050565b60006148da82614a24565b91506148e583614a24565b9250827f8000000000000000000000000000000000000000000000000000000000000000018212600084121516156149205761491f614bed565b5b827f7fffffffffffffffffffffffffffffffffffffffffffffffffffffffffffffff01821360008412161561495857614957614bed565b5b828203905092915050565b600061496e82614a4e565b915061497983614a4e565b92508282101561498c5761498b614bed565b5b828203905092915050565b60006149a282614a2e565b9050919050565b60008115159050919050565b6000819050919050565b60007fffffffff0000000000000000000000000000000000000000000000000000000082169050919050565b60008190506149f98261513a565b919050565b6000819050614a0c8261514e565b919050565b6000819050614a1f82615162565b919050565b6000819050919050565b600073ffffffffffffffffffffffffffffffffffffffff82169050919050565b6000819050919050565b600060ff82169050919050565b6000614a70826149eb565b9050919050565b6000614a82826149fe565b9050919050565b6000614a9482614a11565b9050919050565b60005b83811015614ab9578082015181840152602081019050614a9e565b83811115614ac8576000848401525b50505050565b6000614ad982614a4e565b91506000821415614aed57614aec614bed565b5b600182039050919050565b60006002820490506001821680614b1057607f821691505b60208210811415614b2457614b23614c4b565b5b50919050565b614b3382614d20565b810181811067ffffffffffffffff82111715614b5257614b51614cd8565b5b80604052505050565b6000614b6682614a4e565b91507fffffffffffffffffffffffffffffffffffffffffffffffffffffffffffffffff821415614b9957614b98614bed565b5b600182019050919050565b6000614baf82614a24565b91507f8000000000000000000000000000000000000000000000000000000000000000821415614be257614be1614bed565b5b816000039050919050565b7f4e487b7100000000000000000000000000000000000000000000000000000000600052601160045260246000fd5b7f4e487b7100000000000000000000000000000000000000000000000000000000600052602160045260246000fd5b7f4e487b7100000000000000000000000000000000000000000000000000000000600052602260045260246000fd5b7f4e487b7100000000000000000000000000000000000000000000000000000000600052603160045260246000fd5b7f4e487b7100000000000000000000000000000000000000000000000000000000600052603260045260246000fd5b7f4e487b7100000000000000000000000000000000000000000000000000000000600052604160045260246000fd5b600080fd5b600080fd5b600080fd5b600080fd5b600080fd5b6000601f19601f8301169050919050565b7f456e756d657261626c655365743a20696e646578206f7574206f6620626f756e60008201527f6473000000000000000000000000000000000000000000000000000000000000602082015250565b7f537472696e67733a20686578206c656e67746820696e73756666696369656e74600082015250565b7f45524332303a207472616e7366657220746f20746865207a65726f206164647260008201527f6573730000000000000000000000000000000000000000000000000000000000602082015250565b7f45524332303a206275726e20616d6f756e7420657863656564732062616c616e60008201527f6365000000000000000000000000000000000000000000000000000000000000602082015250565b7f45524332303a20617070726f766520746f20746865207a65726f20616464726560008201527f7373000000000000000000000000000000000000000000000000000000000000602082015250565b7f45524332303a207472616e7366657220616d6f756e742065786365656473206260008201527f616c616e63650000000000000000000000000000000000000000000000000000602082015250565b7f45524332303a207472616e7366657220616d6f756e742065786365656473206160008201527f6c6c6f77616e6365000000000000000000000000000000000000000000000000602082015250565b7f45524332303a206275726e2066726f6d20746865207a65726f2061646472657360008201527f7300000000000000000000000000000000000000000000000000000000000000602082015250565b7f45524332303a207472616e736665722066726f6d20746865207a65726f20616460008201527f6472657373000000000000000000000000000000000000000000000000000000602082015250565b7f45524332303a20617070726f76652066726f6d20746865207a65726f2061646460008201527f7265737300000000000000000000000000000000000000000000000000000000602082015250565b7f416363657373436f6e74726f6c3a206163636f756e7420000000000000000000600082015250565b7f45524332303a2064656372656173656420616c6c6f77616e63652062656c6f7760008201527f207a65726f000000000000000000000000000000000000000000000000000000602082015250565b7f206973206d697373696e6720726f6c6520000000000000000000000000000000600082015250565b7f416363657373436f6e74726f6c3a2063616e206f6e6c792072656e6f756e636560008201527f20726f6c657320666f722073656c660000000000000000000000000000000000602082015250565b7f45524332303a206d696e7420746f20746865207a65726f206164647265737300600082015250565b6002811061514b5761514a614c1c565b5b50565b6004811061515f5761515e614c1c565b5b50565b6002811061517357615172614c1c565b5b50565b61517f81614997565b811461518a57600080fd5b50565b615196816149a9565b81146151a157600080fd5b50565b6151ad816149b5565b81146151b857600080fd5b50565b6151c4816149bf565b81146151cf57600080fd5b50565b600281106151df57600080fd5b50565b600481106151ef57600080fd5b50565b600281106151ff57600080fd5b50565b61520b81614a24565b811461521657600080fd5b50565b61522281614a4e565b811461522d57600080fd5b5056fea26469706673582212201050ccb0185ca9a040bb41d3d034c41acd26176ebe5f9b38ca716d622696813464736f6c63430008060033",
  "immutableReferences": {},
  "source": "/**\n * SPDX-License-Identifier: GPL-3.0-or-later\n * Moret\n * Copyright (C) 2021 Moret\n*/\n\npragma solidity ^0.8.4;\n\nimport \"@openzeppelin/contracts/token/ERC20/ERC20.sol\";\nimport \"@openzeppelin/contracts/access/AccessControl.sol\";\nimport \"@openzeppelin/contracts/utils/structs/EnumerableSet.sol\";\nimport \"./MoretInterfaces.sol\";\nimport \"./MarketLibrary.sol\";\n\ncontract MoretMarketMaker is ERC20, AccessControl, EOption\n{\n  using EnumerableSet for EnumerableSet.UintSet;\n  using EnumerableSet for EnumerableSet.AddressSet;\n\n  bytes32 public constant ADMIN_ROLE = keccak256(\"ADMIN_ROLE\");\n  bytes32 public constant EXCHANGE_ROLE = keccak256(\"EXCHANGE_ROLE\");\n\n  uint256 private constant ethMultiplier = 10 ** 18;\n\n  mapping(address=> EnumerableSet.UintSet) internal activeOptionsPerOwner;\n  EnumerableSet.UintSet internal activeOptions;\n\n  IOptionVault internal optionVault;\n\n  uint256 public lockedPremium = 0;\n  uint256 public callExposure = 0;\n  uint256 public putExposure = 0;\n  uint256 public shortPosition = 0;\n\n  uint256 public swapSlp = 2 * 10**16;\n  uint256 public lendingPoolRateMode = 1;\n\n  address public lendingPoolAddressProviderAddress;\n  address public protocolDataProviderAddress;\n  address public swapRouterAddress;\n  address public underlyingAddress;\n  address public fundingAddress;\n\n  constructor(\n      string memory _name,\n      string memory _symbol,\n      address _underlyingAddress,\n      address _fundingAddress,\n      address _optionAddress,\n      address _swapRouterAddress,\n      address _lendingPoolAddressProvider,\n      address _protocolDataProviderAddress\n      )\n      ERC20(_name, _symbol)\n      {\n          _setupRole(DEFAULT_ADMIN_ROLE, msg.sender);\n          _setupRole(ADMIN_ROLE, msg.sender);\n          _setupRole(EXCHANGE_ROLE, msg.sender);\n\n          swapRouterAddress = _swapRouterAddress;\n          lendingPoolAddressProviderAddress = _lendingPoolAddressProvider;\n          protocolDataProviderAddress = _protocolDataProviderAddress;\n\n          fundingAddress = _fundingAddress;\n          underlyingAddress = _underlyingAddress;\n          optionVault = IOptionVault(_optionAddress);\n\n          _mint(msg.sender, ethMultiplier);\n      }\n\n\n      function recordOption(address _purchaser, uint256 _id, bool _isPuchase,\n        uint256 _newPremium, uint256 _newCallExposure, uint256 _newPutExposure)\n        external  onlyRole(EXCHANGE_ROLE)\n      {\n        if(_isPuchase)\n        {activeOptionsPerOwner[_purchaser].add(_id);\n        activeOptions.add(_id);}\n        if(!_isPuchase)\n        {activeOptionsPerOwner[_purchaser].remove(_id);\n        activeOptions.remove(_id);}\n\n        lockedPremium = _isPuchase? (lockedPremium + _newPremium): (lockedPremium - _newPremium);\n        callExposure = _isPuchase? (callExposure + _newCallExposure): (callExposure - _newCallExposure);\n        putExposure = _isPuchase? (putExposure + _newPutExposure) : (putExposure - _newPutExposure);\n      }\n\n    function calcTotalDelta() public view returns(int256)\n    {\n      int256 _totalDelta= 0;\n\n      for(uint256 i=0;i<activeOptions.length();i++)\n      {\n        _totalDelta += optionVault.calculateContractDelta(uint256(activeOptions.at(i)));\n      }\n      return _totalDelta;\n    }\n\n    function updateHedges(uint256 _deadline)\n    external onlyRole(ADMIN_ROLE)\n    {\n         int256 _targetDelta = calcTotalDelta();\n         (uint256 _price,) = optionVault.queryPrice();\n\n         if(_targetDelta<-int256(shortPosition))\n         {\n           updateHedgesDownwards( _targetDelta, _price,_deadline);//,  ILendingPoolAddressesProvider(lendingPoolAddressProviderAddress).getLendingPool());\n         }\n         if(_targetDelta>-int256(shortPosition))\n         {\n           updateHedgesUpwards( _targetDelta, _price,_deadline);//, ILendingPoolAddressesProvider(lendingPoolAddressProviderAddress).getLendingPool());\n         }\n    }\n\n    function updateHedgesDownwards(int256 _targetDelta, uint256 _price, uint256 _deadline)\n    internal{\n\n      /* uint256 _repayAmount = MarketLibrary.calcRepay(_targetDelta, address(this), protocolDataProviderAddress, underlyingAddress);\n      if(_repayAmount>0)\n      {\n        // repay all borrowing first\n        (address _aToken, address _stableDebt, address _variableDebt) = MarketLibrary.getLendingTokenAddresses (protocolDataProviderAddress, underlyingAddress );\n        ERC20(lendingPoolRateMode==0? _variableDebt: _stableDebt).approve(_lendingPoolAddress, _repayAmount);\n        ERC20(underlyingAddress).approve(_lendingPoolAddress, _repayAmount);\n        ILendingPool(_lendingPoolAddress).repay(underlyingAddress, _repayAmount, lendingPoolRateMode, address(this));\n        // withdraw collaterals\n        ERC20(_aToken).approve(_lendingPoolAddress, MarketLibrary.calcWithdrawCollateral(address(this), protocolDataProviderAddress, underlyingAddress));\n        ILendingPool(_lendingPoolAddress).withdraw(underlyingAddress,\n          MarketLibrary.calcWithdrawCollateral(address(this), protocolDataProviderAddress, underlyingAddress),\n          address(this));\n      } */\n\n      // swap to funding\n      uint256 _swapToFunding = Math.min(ERC20(underlyingAddress).balanceOf(address(this)),\n         uint256(-int256(shortPosition)-_targetDelta));\n      if(_swapToFunding>0){\n        ERC20(underlyingAddress).approve(swapRouterAddress, _swapToFunding);\n\n        address[] memory path = new address[](2);\n        path[0] = underlyingAddress;\n        path[1] = fundingAddress;\n        uint[] memory _swappedAmountsToFunding = IUniswapV2Router02(swapRouterAddress).swapExactTokensForTokens(\n          _swapToFunding,\n          MulDiv(_swapToFunding, MulDiv(_price , ethMultiplier - swapSlp, ethMultiplier),  optionVault.priceMultiplier() ),\n          path,\n          address(this),\n          _deadline\n           );\n\n        // reassign short position\n        shortPosition += _swappedAmountsToFunding[0];\n      }\n\n      /* return _repayAmount; */\n    }\n\n    function updateHedgesUpwards(int256 _targetDelta, uint256 _price, uint256 _deadline)\n    internal {\n      // swap to underlying\n      uint256 _swapFromFunding = Math.min(IERC20(fundingAddress).balanceOf(address(this)),\n       MulDiv(Math.min(shortPosition, uint256(_targetDelta + int256(shortPosition))), _price, optionVault.priceMultiplier()));\n\n      if(_swapFromFunding>0){\n        ERC20(fundingAddress).approve(swapRouterAddress, _swapFromFunding);\n\n        address[] memory path = new address[](2);\n        path[0] = fundingAddress;\n        path[1]= underlyingAddress;\n        uint[] memory _swappedAmountsToUnderlying = IUniswapV2Router02(swapRouterAddress).swapExactTokensForTokens(\n          _swapFromFunding,\n          MulDiv(_swapFromFunding, optionVault.priceMultiplier() , MulDiv(_price , ethMultiplier + swapSlp, ethMultiplier) ),\n          path,\n          address(this),\n          _deadline\n           );\n\n        // reassign short position\n        shortPosition -= _swappedAmountsToUnderlying[0];\n      }\n\n      /* uint256 _borrowAmount = MarketLibrary.calcBorrow(_targetDelta, address(this), protocolDataProviderAddress, underlyingAddress);\n      if(_borrowAmount>0)\n      {\n        // deposit collaterals\n        ERC20(underlyingAddress).approve(_lendingPoolAddress, MarketLibrary.calcDepositCollateral(_borrowAmount, address(this), protocolDataProviderAddress, underlyingAddress));\n        ILendingPool(_lendingPoolAddress).deposit(underlyingAddress,\n          MarketLibrary.calcDepositCollateral(_borrowAmount, address(this), protocolDataProviderAddress, underlyingAddress),\n          address(this), 0);\n        // borrow\n        ILendingPool(_lendingPoolAddress).borrow(underlyingAddress, _borrowAmount, lendingPoolRateMode,  0, address(this));\n      }\n\n      return _borrowAmount; */\n    }\n\n    function addCapital(uint256 _depositAmount) external {\n        uint256 _averageGrossCapital = calcCapital(false, true);\n        require(_averageGrossCapital>0);\n\n        uint256 _mintMPTokenAmount = MulDiv(_depositAmount, ethMultiplier, _averageGrossCapital);\n\n        require(ERC20(underlyingAddress).transferFrom(msg.sender, address(this), _depositAmount));\n\n        _mint(msg.sender, _mintMPTokenAmount);\n\n        emit capitalAdded(msg.sender, _depositAmount, _mintMPTokenAmount);\n    }\n\n\n    function withdrawCapital(uint256 _burnMPTokenAmount) external {\n        uint256 _withdrawValue = MulDiv(calcCapital(true, true),  _burnMPTokenAmount , ethMultiplier);\n\n        _burn(msg.sender, _burnMPTokenAmount);\n\n        require(ERC20(underlyingAddress).transfer(msg.sender, _withdrawValue));\n\n        emit capitalWithdrawn(msg.sender, _burnMPTokenAmount, _withdrawValue);\n    }\n\n    function calcCapital(bool _net, bool _average) public view returns(uint256){\n        (uint256 _price,) = optionVault.queryPrice();\n        uint256 _capital = MulDiv(IERC20(fundingAddress).balanceOf(address(this)), optionVault.priceMultiplier() , _price ) + ERC20(underlyingAddress).balanceOf(address(this)) ;\n\n        if(_net)\n        {\n          _capital -= (_capital <= (callExposure+ putExposure + lockedPremium)? _capital: (callExposure+ putExposure + lockedPremium));\n        }\n\n        if(_average)\n        {\n          _capital = MulDiv(_capital , ethMultiplier , totalSupply());\n        }\n        return _capital;\n    }\n\n    function resetSwapSlippageAllowance(uint256 _multiplier) external onlyRole(ADMIN_ROLE){\n        swapSlp = _multiplier;\n    }\n\n    function getHoldersOptionCount(address _address) external view returns(uint256){return activeOptionsPerOwner[_address].length();}\n    function getHoldersOption(uint256 _index, address _address) external view returns(OptionLibrary.Option memory) {return optionVault.getOption(activeOptionsPerOwner[_address].at(_index));}\n\n    function getLendingTokenAddresses()\n    external view returns (address, address, address){return MarketLibrary.getLendingTokenAddresses(protocolDataProviderAddress,underlyingAddress);}\n\n}\n",
  "sourcePath": "/Users/mac/Documents/GitHub/moret/contracts/MoretMarketMaker.sol",
  "compiler": {
    "name": "solc",
    "version": "0.8.6+commit.11564f7e.Emscripten.clang"
  },
  "schemaVersion": "3.4.1",
  "updatedAt": "2021-07-10T08:33:10.688Z",
  "devdoc": {
    "kind": "dev",
    "methods": {
      "allowance(address,address)": {
        "details": "See {IERC20-allowance}."
      },
      "approve(address,uint256)": {
        "details": "See {IERC20-approve}. Requirements: - `spender` cannot be the zero address."
      },
      "balanceOf(address)": {
        "details": "See {IERC20-balanceOf}."
      },
      "decimals()": {
        "details": "Returns the number of decimals used to get its user representation. For example, if `decimals` equals `2`, a balance of `505` tokens should be displayed to a user as `5,05` (`505 / 10 ** 2`). Tokens usually opt for a value of 18, imitating the relationship between Ether and Wei. This is the value {ERC20} uses, unless this function is overridden; NOTE: This information is only used for _display_ purposes: it in no way affects any of the arithmetic of the contract, including {IERC20-balanceOf} and {IERC20-transfer}."
      },
      "decreaseAllowance(address,uint256)": {
        "details": "Atomically decreases the allowance granted to `spender` by the caller. This is an alternative to {approve} that can be used as a mitigation for problems described in {IERC20-approve}. Emits an {Approval} event indicating the updated allowance. Requirements: - `spender` cannot be the zero address. - `spender` must have allowance for the caller of at least `subtractedValue`."
      },
      "getRoleAdmin(bytes32)": {
        "details": "Returns the admin role that controls `role`. See {grantRole} and {revokeRole}. To change a role's admin, use {_setRoleAdmin}."
      },
      "grantRole(bytes32,address)": {
        "details": "Grants `role` to `account`. If `account` had not been already granted `role`, emits a {RoleGranted} event. Requirements: - the caller must have ``role``'s admin role."
      },
      "hasRole(bytes32,address)": {
        "details": "Returns `true` if `account` has been granted `role`."
      },
      "increaseAllowance(address,uint256)": {
        "details": "Atomically increases the allowance granted to `spender` by the caller. This is an alternative to {approve} that can be used as a mitigation for problems described in {IERC20-approve}. Emits an {Approval} event indicating the updated allowance. Requirements: - `spender` cannot be the zero address."
      },
      "name()": {
        "details": "Returns the name of the token."
      },
      "renounceRole(bytes32,address)": {
        "details": "Revokes `role` from the calling account. Roles are often managed via {grantRole} and {revokeRole}: this function's purpose is to provide a mechanism for accounts to lose their privileges if they are compromised (such as when a trusted device is misplaced). If the calling account had been granted `role`, emits a {RoleRevoked} event. Requirements: - the caller must be `account`."
      },
      "revokeRole(bytes32,address)": {
        "details": "Revokes `role` from `account`. If `account` had been granted `role`, emits a {RoleRevoked} event. Requirements: - the caller must have ``role``'s admin role."
      },
      "supportsInterface(bytes4)": {
        "details": "See {IERC165-supportsInterface}."
      },
      "symbol()": {
        "details": "Returns the symbol of the token, usually a shorter version of the name."
      },
      "totalSupply()": {
        "details": "See {IERC20-totalSupply}."
      },
      "transfer(address,uint256)": {
        "details": "See {IERC20-transfer}. Requirements: - `recipient` cannot be the zero address. - the caller must have a balance of at least `amount`."
      },
      "transferFrom(address,address,uint256)": {
        "details": "See {IERC20-transferFrom}. Emits an {Approval} event indicating the updated allowance. This is not required by the EIP. See the note at the beginning of {ERC20}. Requirements: - `sender` and `recipient` cannot be the zero address. - `sender` must have a balance of at least `amount`. - the caller must have allowance for ``sender``'s tokens of at least `amount`."
      }
    },
    "version": 1
  },
  "userdoc": {
    "kind": "user",
    "methods": {},
    "version": 1
  }
}