{
  "contractName": "MoretMarketMaker",
  "abi": [
    {
      "inputs": [
        {
          "internalType": "string",
          "name": "_name",
          "type": "string"
        },
        {
          "internalType": "string",
          "name": "_symbol",
          "type": "string"
        },
        {
          "internalType": "address",
          "name": "_optionAddress",
          "type": "address"
        }
      ],
      "stateMutability": "nonpayable",
      "type": "constructor"
    },
    {
      "anonymous": false,
      "inputs": [
        {
          "indexed": true,
          "internalType": "address",
          "name": "owner",
          "type": "address"
        },
        {
          "indexed": true,
          "internalType": "address",
          "name": "spender",
          "type": "address"
        },
        {
          "indexed": false,
          "internalType": "uint256",
          "name": "value",
          "type": "uint256"
        }
      ],
      "name": "Approval",
      "type": "event"
    },
    {
      "anonymous": false,
      "inputs": [
        {
          "indexed": false,
          "internalType": "bool",
          "name": "success",
          "type": "bool"
        },
        {
          "indexed": false,
          "internalType": "bytes",
          "name": "data",
          "type": "bytes"
        }
      ],
      "name": "Response",
      "type": "event"
    },
    {
      "anonymous": false,
      "inputs": [
        {
          "indexed": true,
          "internalType": "bytes32",
          "name": "role",
          "type": "bytes32"
        },
        {
          "indexed": true,
          "internalType": "bytes32",
          "name": "previousAdminRole",
          "type": "bytes32"
        },
        {
          "indexed": true,
          "internalType": "bytes32",
          "name": "newAdminRole",
          "type": "bytes32"
        }
      ],
      "name": "RoleAdminChanged",
      "type": "event"
    },
    {
      "anonymous": false,
      "inputs": [
        {
          "indexed": true,
          "internalType": "bytes32",
          "name": "role",
          "type": "bytes32"
        },
        {
          "indexed": true,
          "internalType": "address",
          "name": "account",
          "type": "address"
        },
        {
          "indexed": true,
          "internalType": "address",
          "name": "sender",
          "type": "address"
        }
      ],
      "name": "RoleGranted",
      "type": "event"
    },
    {
      "anonymous": false,
      "inputs": [
        {
          "indexed": true,
          "internalType": "bytes32",
          "name": "role",
          "type": "bytes32"
        },
        {
          "indexed": true,
          "internalType": "address",
          "name": "account",
          "type": "address"
        },
        {
          "indexed": true,
          "internalType": "address",
          "name": "sender",
          "type": "address"
        }
      ],
      "name": "RoleRevoked",
      "type": "event"
    },
    {
      "anonymous": false,
      "inputs": [
        {
          "indexed": true,
          "internalType": "address",
          "name": "from",
          "type": "address"
        },
        {
          "indexed": true,
          "internalType": "address",
          "name": "to",
          "type": "address"
        },
        {
          "indexed": false,
          "internalType": "uint256",
          "name": "value",
          "type": "uint256"
        }
      ],
      "name": "Transfer",
      "type": "event"
    },
    {
      "anonymous": false,
      "inputs": [
        {
          "indexed": false,
          "internalType": "address",
          "name": "_recipient",
          "type": "address"
        },
        {
          "indexed": false,
          "internalType": "uint256",
          "name": "_mintMPTokenAmount",
          "type": "uint256"
        },
        {
          "indexed": false,
          "internalType": "uint256",
          "name": "_addedValue",
          "type": "uint256"
        }
      ],
      "name": "capitalAdded",
      "type": "event"
    },
    {
      "anonymous": false,
      "inputs": [
        {
          "indexed": false,
          "internalType": "address",
          "name": "_recipient",
          "type": "address"
        },
        {
          "indexed": false,
          "internalType": "uint256",
          "name": "_burnMPTokenAmount",
          "type": "uint256"
        },
        {
          "indexed": false,
          "internalType": "uint256",
          "name": "_withdrawValue",
          "type": "uint256"
        }
      ],
      "name": "capitalWithdrawn",
      "type": "event"
    },
    {
      "anonymous": false,
      "inputs": [
        {
          "indexed": true,
          "internalType": "address",
          "name": "_purchaser",
          "type": "address"
        },
        {
          "components": [
            {
              "internalType": "enum OptionLibrary.PayoffType",
              "name": "poType",
              "type": "uint8"
            },
            {
              "internalType": "enum OptionLibrary.OptionSide",
              "name": "side",
              "type": "uint8"
            },
            {
              "internalType": "enum OptionLibrary.OptionStatus",
              "name": "status",
              "type": "uint8"
            },
            {
              "internalType": "address",
              "name": "holder",
              "type": "address"
            },
            {
              "internalType": "uint256",
              "name": "id",
              "type": "uint256"
            },
            {
              "internalType": "uint256",
              "name": "createTime",
              "type": "uint256"
            },
            {
              "internalType": "uint256",
              "name": "effectiveTime",
              "type": "uint256"
            },
            {
              "internalType": "uint256",
              "name": "tenor",
              "type": "uint256"
            },
            {
              "internalType": "uint256",
              "name": "maturity",
              "type": "uint256"
            },
            {
              "internalType": "uint256",
              "name": "exerciseTime",
              "type": "uint256"
            },
            {
              "internalType": "uint256",
              "name": "amount",
              "type": "uint256"
            },
            {
              "internalType": "uint256",
              "name": "spot",
              "type": "uint256"
            },
            {
              "internalType": "uint256",
              "name": "strike",
              "type": "uint256"
            },
            {
              "internalType": "uint256",
              "name": "volatility",
              "type": "uint256"
            },
            {
              "internalType": "uint256",
              "name": "premium",
              "type": "uint256"
            },
            {
              "internalType": "uint256",
              "name": "cost",
              "type": "uint256"
            }
          ],
          "indexed": false,
          "internalType": "struct OptionLibrary.Option",
          "name": "_option",
          "type": "tuple"
        },
        {
          "indexed": false,
          "internalType": "uint256",
          "name": "_cost",
          "type": "uint256"
        },
        {
          "indexed": false,
          "internalType": "bool",
          "name": "_inVol",
          "type": "bool"
        }
      ],
      "name": "newOptionBought",
      "type": "event"
    },
    {
      "anonymous": false,
      "inputs": [
        {
          "indexed": true,
          "internalType": "address",
          "name": "_purchaser",
          "type": "address"
        },
        {
          "components": [
            {
              "internalType": "enum OptionLibrary.PayoffType",
              "name": "poType",
              "type": "uint8"
            },
            {
              "internalType": "enum OptionLibrary.OptionSide",
              "name": "side",
              "type": "uint8"
            },
            {
              "internalType": "enum OptionLibrary.OptionStatus",
              "name": "status",
              "type": "uint8"
            },
            {
              "internalType": "address",
              "name": "holder",
              "type": "address"
            },
            {
              "internalType": "uint256",
              "name": "id",
              "type": "uint256"
            },
            {
              "internalType": "uint256",
              "name": "createTime",
              "type": "uint256"
            },
            {
              "internalType": "uint256",
              "name": "effectiveTime",
              "type": "uint256"
            },
            {
              "internalType": "uint256",
              "name": "tenor",
              "type": "uint256"
            },
            {
              "internalType": "uint256",
              "name": "maturity",
              "type": "uint256"
            },
            {
              "internalType": "uint256",
              "name": "exerciseTime",
              "type": "uint256"
            },
            {
              "internalType": "uint256",
              "name": "amount",
              "type": "uint256"
            },
            {
              "internalType": "uint256",
              "name": "spot",
              "type": "uint256"
            },
            {
              "internalType": "uint256",
              "name": "strike",
              "type": "uint256"
            },
            {
              "internalType": "uint256",
              "name": "volatility",
              "type": "uint256"
            },
            {
              "internalType": "uint256",
              "name": "premium",
              "type": "uint256"
            },
            {
              "internalType": "uint256",
              "name": "cost",
              "type": "uint256"
            }
          ],
          "indexed": false,
          "internalType": "struct OptionLibrary.Option",
          "name": "_option",
          "type": "tuple"
        },
        {
          "indexed": false,
          "internalType": "uint256",
          "name": "_payoff",
          "type": "uint256"
        }
      ],
      "name": "optionExercised",
      "type": "event"
    },
    {
      "anonymous": false,
      "inputs": [
        {
          "indexed": false,
          "internalType": "address",
          "name": "_purchaser",
          "type": "address"
        },
        {
          "indexed": false,
          "internalType": "uint256",
          "name": "_time",
          "type": "uint256"
        },
        {
          "indexed": false,
          "internalType": "uint256",
          "name": "_tenor",
          "type": "uint256"
        },
        {
          "indexed": false,
          "internalType": "uint256",
          "name": "_amount",
          "type": "uint256"
        },
        {
          "indexed": false,
          "internalType": "uint256",
          "name": "_cost",
          "type": "uint256"
        }
      ],
      "name": "volatilityTokenBought",
      "type": "event"
    },
    {
      "anonymous": false,
      "inputs": [
        {
          "indexed": false,
          "internalType": "address",
          "name": "_seller",
          "type": "address"
        },
        {
          "indexed": false,
          "internalType": "uint256",
          "name": "_time",
          "type": "uint256"
        },
        {
          "indexed": false,
          "internalType": "uint256",
          "name": "_tenor",
          "type": "uint256"
        },
        {
          "indexed": false,
          "internalType": "uint256",
          "name": "_amount",
          "type": "uint256"
        },
        {
          "indexed": false,
          "internalType": "uint256",
          "name": "_cost",
          "type": "uint256"
        }
      ],
      "name": "volatilityTokenSold",
      "type": "event"
    },
    {
      "inputs": [],
      "name": "ADMIN_ROLE",
      "outputs": [
        {
          "internalType": "bytes32",
          "name": "",
          "type": "bytes32"
        }
      ],
      "stateMutability": "view",
      "type": "function",
      "constant": true
    },
    {
      "inputs": [],
      "name": "DEFAULT_ADMIN_ROLE",
      "outputs": [
        {
          "internalType": "bytes32",
          "name": "",
          "type": "bytes32"
        }
      ],
      "stateMutability": "view",
      "type": "function",
      "constant": true
    },
    {
      "inputs": [],
      "name": "EXCHANGE_ROLE",
      "outputs": [
        {
          "internalType": "bytes32",
          "name": "",
          "type": "bytes32"
        }
      ],
      "stateMutability": "view",
      "type": "function",
      "constant": true
    },
    {
      "inputs": [
        {
          "internalType": "address",
          "name": "owner",
          "type": "address"
        },
        {
          "internalType": "address",
          "name": "spender",
          "type": "address"
        }
      ],
      "name": "allowance",
      "outputs": [
        {
          "internalType": "uint256",
          "name": "",
          "type": "uint256"
        }
      ],
      "stateMutability": "view",
      "type": "function",
      "constant": true
    },
    {
      "inputs": [
        {
          "internalType": "address",
          "name": "spender",
          "type": "address"
        },
        {
          "internalType": "uint256",
          "name": "amount",
          "type": "uint256"
        }
      ],
      "name": "approve",
      "outputs": [
        {
          "internalType": "bool",
          "name": "",
          "type": "bool"
        }
      ],
      "stateMutability": "nonpayable",
      "type": "function"
    },
    {
      "inputs": [
        {
          "internalType": "address",
          "name": "account",
          "type": "address"
        }
      ],
      "name": "balanceOf",
      "outputs": [
        {
          "internalType": "uint256",
          "name": "",
          "type": "uint256"
        }
      ],
      "stateMutability": "view",
      "type": "function",
      "constant": true
    },
    {
      "inputs": [],
      "name": "decimals",
      "outputs": [
        {
          "internalType": "uint8",
          "name": "",
          "type": "uint8"
        }
      ],
      "stateMutability": "view",
      "type": "function",
      "constant": true
    },
    {
      "inputs": [
        {
          "internalType": "address",
          "name": "spender",
          "type": "address"
        },
        {
          "internalType": "uint256",
          "name": "subtractedValue",
          "type": "uint256"
        }
      ],
      "name": "decreaseAllowance",
      "outputs": [
        {
          "internalType": "bool",
          "name": "",
          "type": "bool"
        }
      ],
      "stateMutability": "nonpayable",
      "type": "function"
    },
    {
      "inputs": [],
      "name": "exerciseFee",
      "outputs": [
        {
          "internalType": "uint256",
          "name": "",
          "type": "uint256"
        }
      ],
      "stateMutability": "view",
      "type": "function",
      "constant": true
    },
    {
      "inputs": [
        {
          "internalType": "bytes32",
          "name": "role",
          "type": "bytes32"
        }
      ],
      "name": "getRoleAdmin",
      "outputs": [
        {
          "internalType": "bytes32",
          "name": "",
          "type": "bytes32"
        }
      ],
      "stateMutability": "view",
      "type": "function",
      "constant": true
    },
    {
      "inputs": [
        {
          "internalType": "bytes32",
          "name": "role",
          "type": "bytes32"
        },
        {
          "internalType": "address",
          "name": "account",
          "type": "address"
        }
      ],
      "name": "grantRole",
      "outputs": [],
      "stateMutability": "nonpayable",
      "type": "function"
    },
    {
      "inputs": [
        {
          "internalType": "bytes32",
          "name": "role",
          "type": "bytes32"
        },
        {
          "internalType": "address",
          "name": "account",
          "type": "address"
        }
      ],
      "name": "hasRole",
      "outputs": [
        {
          "internalType": "bool",
          "name": "",
          "type": "bool"
        }
      ],
      "stateMutability": "view",
      "type": "function",
      "constant": true
    },
    {
      "inputs": [
        {
          "internalType": "address",
          "name": "spender",
          "type": "address"
        },
        {
          "internalType": "uint256",
          "name": "addedValue",
          "type": "uint256"
        }
      ],
      "name": "increaseAllowance",
      "outputs": [
        {
          "internalType": "bool",
          "name": "",
          "type": "bool"
        }
      ],
      "stateMutability": "nonpayable",
      "type": "function"
    },
    {
      "inputs": [],
      "name": "lendingPoolRateMode",
      "outputs": [
        {
          "internalType": "uint256",
          "name": "",
          "type": "uint256"
        }
      ],
      "stateMutability": "view",
      "type": "function",
      "constant": true
    },
    {
      "inputs": [],
      "name": "maintenanceAddress",
      "outputs": [
        {
          "internalType": "address",
          "name": "",
          "type": "address"
        }
      ],
      "stateMutability": "view",
      "type": "function",
      "constant": true
    },
    {
      "inputs": [],
      "name": "name",
      "outputs": [
        {
          "internalType": "string",
          "name": "",
          "type": "string"
        }
      ],
      "stateMutability": "view",
      "type": "function",
      "constant": true
    },
    {
      "inputs": [
        {
          "internalType": "bytes32",
          "name": "role",
          "type": "bytes32"
        },
        {
          "internalType": "address",
          "name": "account",
          "type": "address"
        }
      ],
      "name": "renounceRole",
      "outputs": [],
      "stateMutability": "nonpayable",
      "type": "function"
    },
    {
      "inputs": [
        {
          "internalType": "bytes32",
          "name": "role",
          "type": "bytes32"
        },
        {
          "internalType": "address",
          "name": "account",
          "type": "address"
        }
      ],
      "name": "revokeRole",
      "outputs": [],
      "stateMutability": "nonpayable",
      "type": "function"
    },
    {
      "inputs": [],
      "name": "settlementFee",
      "outputs": [
        {
          "internalType": "uint256",
          "name": "",
          "type": "uint256"
        }
      ],
      "stateMutability": "view",
      "type": "function",
      "constant": true
    },
    {
      "inputs": [
        {
          "internalType": "bytes4",
          "name": "interfaceId",
          "type": "bytes4"
        }
      ],
      "name": "supportsInterface",
      "outputs": [
        {
          "internalType": "bool",
          "name": "",
          "type": "bool"
        }
      ],
      "stateMutability": "view",
      "type": "function",
      "constant": true
    },
    {
      "inputs": [],
      "name": "swapSlippage",
      "outputs": [
        {
          "internalType": "uint256",
          "name": "",
          "type": "uint256"
        }
      ],
      "stateMutability": "view",
      "type": "function",
      "constant": true
    },
    {
      "inputs": [],
      "name": "symbol",
      "outputs": [
        {
          "internalType": "string",
          "name": "",
          "type": "string"
        }
      ],
      "stateMutability": "view",
      "type": "function",
      "constant": true
    },
    {
      "inputs": [],
      "name": "totalSupply",
      "outputs": [
        {
          "internalType": "uint256",
          "name": "",
          "type": "uint256"
        }
      ],
      "stateMutability": "view",
      "type": "function",
      "constant": true
    },
    {
      "inputs": [
        {
          "internalType": "address",
          "name": "recipient",
          "type": "address"
        },
        {
          "internalType": "uint256",
          "name": "amount",
          "type": "uint256"
        }
      ],
      "name": "transfer",
      "outputs": [
        {
          "internalType": "bool",
          "name": "",
          "type": "bool"
        }
      ],
      "stateMutability": "nonpayable",
      "type": "function"
    },
    {
      "inputs": [
        {
          "internalType": "address",
          "name": "sender",
          "type": "address"
        },
        {
          "internalType": "address",
          "name": "recipient",
          "type": "address"
        },
        {
          "internalType": "uint256",
          "name": "amount",
          "type": "uint256"
        }
      ],
      "name": "transferFrom",
      "outputs": [
        {
          "internalType": "bool",
          "name": "",
          "type": "bool"
        }
      ],
      "stateMutability": "nonpayable",
      "type": "function"
    },
    {
      "inputs": [
        {
          "internalType": "address",
          "name": "exerciseFeeRecipient",
          "type": "address"
        }
      ],
      "name": "expireOptions",
      "outputs": [],
      "stateMutability": "nonpayable",
      "type": "function"
    },
    {
      "inputs": [
        {
          "internalType": "bool",
          "name": "_net",
          "type": "bool"
        },
        {
          "internalType": "bool",
          "name": "_average",
          "type": "bool"
        }
      ],
      "name": "calcCapital",
      "outputs": [
        {
          "internalType": "uint256",
          "name": "_capital",
          "type": "uint256"
        }
      ],
      "stateMutability": "view",
      "type": "function",
      "constant": true
    },
    {
      "inputs": [
        {
          "internalType": "uint256",
          "name": "_depositAmount",
          "type": "uint256"
        }
      ],
      "name": "addCapital",
      "outputs": [],
      "stateMutability": "nonpayable",
      "type": "function"
    },
    {
      "inputs": [
        {
          "internalType": "uint256",
          "name": "_burnMPTokenAmount",
          "type": "uint256"
        }
      ],
      "name": "withdrawCapital",
      "outputs": [],
      "stateMutability": "nonpayable",
      "type": "function"
    },
    {
      "inputs": [
        {
          "internalType": "int256",
          "name": "_underlyingAmt",
          "type": "int256"
        },
        {
          "internalType": "int256",
          "name": "_fundingAmt",
          "type": "int256"
        },
        {
          "internalType": "address payable",
          "name": "_spender",
          "type": "address"
        },
        {
          "internalType": "bytes",
          "name": "_calldata",
          "type": "bytes"
        },
        {
          "internalType": "uint256",
          "name": "_gas",
          "type": "uint256"
        }
      ],
      "name": "tradeSwapAggregate",
      "outputs": [],
      "stateMutability": "nonpayable",
      "type": "function"
    },
    {
      "inputs": [
        {
          "internalType": "int256",
          "name": "_underlyingAmt",
          "type": "int256"
        },
        {
          "internalType": "int256",
          "name": "_fundingAmt",
          "type": "int256"
        },
        {
          "internalType": "address",
          "name": "_router",
          "type": "address"
        },
        {
          "internalType": "uint256",
          "name": "_deadline",
          "type": "uint256"
        }
      ],
      "name": "tradeSwaps",
      "outputs": [],
      "stateMutability": "nonpayable",
      "type": "function"
    },
    {
      "inputs": [],
      "name": "hedgeTradesForLoans",
      "outputs": [],
      "stateMutability": "nonpayable",
      "type": "function"
    },
    {
      "inputs": [
        {
          "internalType": "uint256",
          "name": "_newFee",
          "type": "uint256"
        }
      ],
      "name": "resetSettlementFee",
      "outputs": [],
      "stateMutability": "nonpayable",
      "type": "function"
    },
    {
      "inputs": [
        {
          "internalType": "uint256",
          "name": "_newFee",
          "type": "uint256"
        }
      ],
      "name": "resetExerciseFee",
      "outputs": [],
      "stateMutability": "nonpayable",
      "type": "function"
    },
    {
      "inputs": [
        {
          "internalType": "address",
          "name": "_newAddress",
          "type": "address"
        }
      ],
      "name": "resetMaintenance",
      "outputs": [],
      "stateMutability": "nonpayable",
      "type": "function"
    },
    {
      "inputs": [
        {
          "internalType": "uint256",
          "name": "_slippage",
          "type": "uint256"
        }
      ],
      "name": "resetSlippage",
      "outputs": [],
      "stateMutability": "nonpayable",
      "type": "function"
    },
    {
      "inputs": [
        {
          "internalType": "uint256",
          "name": "_newRateMode",
          "type": "uint256"
        }
      ],
      "name": "resetLendingPoolRateMode",
      "outputs": [],
      "stateMutability": "nonpayable",
      "type": "function"
    }
  ],
  "bytecode": "0x60806040526611c37937e080006007556611c37937e080006008556002600d556601c6bf52634000600e553480156200003757600080fd5b50604051620065783803806200657883398181016040528101906200005d919062000979565b8282816003908051906020019062000077929190620006c7565b50806004908051906020019062000090929190620006c7565b505050620000a86000801b33620003c960201b60201c565b620000da7fa49807205ce4d355092ef5a8a18f56e8913cf4a201fbe287825b095693c2177533620003c960201b60201c565b6200010c7f28d62fc77014de57a1bbaa8212ff0979fa61ab00d377b4b8d9762048fb41996133620003c960201b60201c565b33600c60006101000a81548173ffffffffffffffffffffffffffffffffffffffff021916908373ffffffffffffffffffffffffffffffffffffffff16021790555080600960006101000a81548173ffffffffffffffffffffffffffffffffffffffff021916908373ffffffffffffffffffffffffffffffffffffffff16021790555073__OptionLibrary_________________________63fd9b87636040518163ffffffff1660e01b8152600401602060405180830381865af4158015620001d8573d6000803e3d6000fd5b505050506040513d601f19601f82011682018060405250810190620001fe919062000a4e565b600681905550600960009054906101000a900473ffffffffffffffffffffffffffffffffffffffff1673ffffffffffffffffffffffffffffffffffffffff16636f307dc36040518163ffffffff1660e01b8152600401602060405180830381865afa15801562000272573d6000803e3d6000fd5b505050506040513d601f19601f8201168201806040525081019062000298919062000a80565b600a60006101000a81548173ffffffffffffffffffffffffffffffffffffffff021916908373ffffffffffffffffffffffffffffffffffffffff160217905550600960009054906101000a900473ffffffffffffffffffffffffffffffffffffffff1673ffffffffffffffffffffffffffffffffffffffff1663cb4c86b76040518163ffffffff1660e01b8152600401602060405180830381865afa15801562000346573d6000803e3d6000fd5b505050506040513d601f19601f820116820180604052508101906200036c919062000a80565b600b60006101000a81548173ffffffffffffffffffffffffffffffffffffffff021916908373ffffffffffffffffffffffffffffffffffffffff160217905550620003c033600654620003df60201b60201c565b50505062000c54565b620003db82826200055860201b60201c565b5050565b600073ffffffffffffffffffffffffffffffffffffffff168273ffffffffffffffffffffffffffffffffffffffff16141562000452576040517f08c379a0000000000000000000000000000000000000000000000000000000008152600401620004499062000b13565b60405180910390fd5b62000466600083836200064a60201b60201c565b80600260008282546200047a919062000b64565b92505081905550806000808473ffffffffffffffffffffffffffffffffffffffff1673ffffffffffffffffffffffffffffffffffffffff1681526020019081526020016000206000828254620004d1919062000b64565b925050819055508173ffffffffffffffffffffffffffffffffffffffff16600073ffffffffffffffffffffffffffffffffffffffff167fddf252ad1be2c89b69c2b068fc378daa952ba7f163c4a11628f55a4df523b3ef8360405162000538919062000bd2565b60405180910390a362000554600083836200064f60201b60201c565b5050565b6200056a82826200065460201b60201c565b620006465760016005600084815260200190815260200160002060000160008373ffffffffffffffffffffffffffffffffffffffff1673ffffffffffffffffffffffffffffffffffffffff16815260200190815260200160002060006101000a81548160ff021916908315150217905550620005eb620006bf60201b60201c565b73ffffffffffffffffffffffffffffffffffffffff168173ffffffffffffffffffffffffffffffffffffffff16837f2f8788117e7eff1d82e926ec794901d17c78024a50270940304540a733656f0d60405160405180910390a45b5050565b505050565b505050565b60006005600084815260200190815260200160002060000160008373ffffffffffffffffffffffffffffffffffffffff1673ffffffffffffffffffffffffffffffffffffffff16815260200190815260200160002060009054906101000a900460ff16905092915050565b600033905090565b828054620006d59062000c1e565b90600052602060002090601f016020900481019282620006f9576000855562000745565b82601f106200071457805160ff191683800117855562000745565b8280016001018555821562000745579182015b828111156200074457825182559160200191906001019062000727565b5b50905062000754919062000758565b5090565b5b808211156200077357600081600090555060010162000759565b5090565b6000604051905090565b600080fd5b600080fd5b600080fd5b600080fd5b6000601f19601f8301169050919050565b7f4e487b7100000000000000000000000000000000000000000000000000000000600052604160045260246000fd5b620007e08262000795565b810181811067ffffffffffffffff82111715620008025762000801620007a6565b5b80604052505050565b60006200081762000777565b9050620008258282620007d5565b919050565b600067ffffffffffffffff821115620008485762000847620007a6565b5b620008538262000795565b9050602081019050919050565b60005b838110156200088057808201518184015260208101905062000863565b8381111562000890576000848401525b50505050565b6000620008ad620008a7846200082a565b6200080b565b905082815260208101848484011115620008cc57620008cb62000790565b5b620008d984828562000860565b509392505050565b600082601f830112620008f957620008f86200078b565b5b81516200090b84826020860162000896565b91505092915050565b600073ffffffffffffffffffffffffffffffffffffffff82169050919050565b6000620009418262000914565b9050919050565b620009538162000934565b81146200095f57600080fd5b50565b600081519050620009738162000948565b92915050565b60008060006060848603121562000995576200099462000781565b5b600084015167ffffffffffffffff811115620009b657620009b562000786565b5b620009c486828701620008e1565b935050602084015167ffffffffffffffff811115620009e857620009e762000786565b5b620009f686828701620008e1565b925050604062000a098682870162000962565b9150509250925092565b6000819050919050565b62000a288162000a13565b811462000a3457600080fd5b50565b60008151905062000a488162000a1d565b92915050565b60006020828403121562000a675762000a6662000781565b5b600062000a778482850162000a37565b91505092915050565b60006020828403121562000a995762000a9862000781565b5b600062000aa98482850162000962565b91505092915050565b600082825260208201905092915050565b7f45524332303a206d696e7420746f20746865207a65726f206164647265737300600082015250565b600062000afb601f8362000ab2565b915062000b088262000ac3565b602082019050919050565b6000602082019050818103600083015262000b2e8162000aec565b9050919050565b7f4e487b7100000000000000000000000000000000000000000000000000000000600052601160045260246000fd5b600062000b718262000a13565b915062000b7e8362000a13565b9250827fffffffffffffffffffffffffffffffffffffffffffffffffffffffffffffffff0382111562000bb65762000bb562000b35565b5b828201905092915050565b62000bcc8162000a13565b82525050565b600060208201905062000be9600083018462000bc1565b92915050565b7f4e487b7100000000000000000000000000000000000000000000000000000000600052602260045260246000fd5b6000600282049050600182168062000c3757607f821691505b6020821081141562000c4e5762000c4d62000bef565b5b50919050565b6159148062000c646000396000f3fe608060405234801561001057600080fd5b50600436106102275760003560e01c806346c777d811610130578063a457c2d7116100b8578063d547741f1161007c578063d547741f1461067a578063d95b0a1214610696578063dd62ed3e146106b2578063e3f828fa146106e2578063ecc513f0146106fe57610227565b8063a457c2d7146105c2578063a9059cbb146105f2578063b82e106d14610622578063bea10f9614610640578063d1c699aa1461065c57610227565b806375b238fc116100ff57806375b238fc1461051a5780637d1d7fb81461053857806391d148541461055657806395d89b4114610586578063a217fddf146105a457610227565b806346c777d814610480578063634479021461049c57806370a08231146104cc578063719d5f83146104fc57610227565b80632f2ff15d116101b3578063395093511161018257806339509351146103de5780633b7345011461040e5780633e30f6511461042c5780633e8c47c01461044857806345b2f91c1461046457610227565b80632f2ff15d1461037e578063313ce5671461039a57806336568abe146103b85780633733116d146103d457610227565b8063095ea7b3116101fa578063095ea7b3146102b257806318160ddd146102e25780631aedeabe1461030057806323b872dd1461031e578063248a9ca31461034e57610227565b806301ffc9a71461022c57806306fdde031461025c57806307ba08ce1461027a5780630837ecfd14610296575b600080fd5b61024660048036038101906102419190613d2e565b61071a565b6040516102539190613d76565b60405180910390f35b610264610794565b6040516102719190613e2a565b60405180910390f35b610294600480360381019061028f9190613eaa565b610826565b005b6102b060048036038101906102ab9190613f0d565b611108565b005b6102cc60048036038101906102c79190613f3a565b61115d565b6040516102d99190613d76565b60405180910390f35b6102ea61117b565b6040516102f79190613f89565b60405180910390f35b610308611185565b6040516103159190613f89565b60405180910390f35b61033860048036038101906103339190613fa4565b61118b565b6040516103459190613d76565b60405180910390f35b6103686004803603810190610363919061402d565b611283565b6040516103759190614069565b60405180910390f35b61039860048036038101906103939190614084565b6112a3565b005b6103a26112cc565b6040516103af91906140e0565b60405180910390f35b6103d260048036038101906103cd9190614084565b6112d5565b005b6103dc611358565b005b6103f860048036038101906103f39190613f3a565b611c2d565b6040516104059190613d76565b60405180910390f35b610416611cd9565b6040516104239190614069565b60405180910390f35b610446600480360381019061044191906141d4565b611cfd565b005b610462600480360381019061045d919061426e565b61200e565b005b61047e60048036038101906104799190613eaa565b6123f8565b005b61049a60048036038101906104959190613f0d565b61246f565b005b6104b660048036038101906104b19190614301565b6124ba565b6040516104c39190613f89565b60405180910390f35b6104e660048036038101906104e19190613eaa565b6126f9565b6040516104f39190613f89565b60405180910390f35b610504612741565b6040516105119190614350565b60405180910390f35b610522612767565b60405161052f9190614069565b60405180910390f35b61054061278b565b60405161054d9190613f89565b60405180910390f35b610570600480360381019061056b9190614084565b612791565b60405161057d9190613d76565b60405180910390f35b61058e6127fc565b60405161059b9190613e2a565b60405180910390f35b6105ac61288e565b6040516105b99190614069565b60405180910390f35b6105dc60048036038101906105d79190613f3a565b612895565b6040516105e99190613d76565b60405180910390f35b61060c60048036038101906106079190613f3a565b612980565b6040516106199190613d76565b60405180910390f35b61062a61299e565b6040516106379190613f89565b60405180910390f35b61065a60048036038101906106559190613f0d565b6129a4565b005b610664612b4f565b6040516106719190613f89565b60405180910390f35b610694600480360381019061068f9190614084565b612b55565b005b6106b060048036038101906106ab9190613f0d565b612b7e565b005b6106cc60048036038101906106c7919061436b565b612e03565b6040516106d99190613f89565b60405180910390f35b6106fc60048036038101906106f79190613f0d565b612e8a565b005b61071860048036038101906107139190613f0d565b612ec7565b005b60007f7965db0b000000000000000000000000000000000000000000000000000000007bffffffffffffffffffffffffffffffffffffffffffffffffffffffff1916827bffffffffffffffffffffffffffffffffffffffffffffffffffffffff1916148061078d575061078c82612f12565b5b9050919050565b6060600380546107a3906143da565b80601f01602080910402602001604051908101604052809291908181526020018280546107cf906143da565b801561081c5780601f106107f15761010080835404028352916020019161081c565b820191906000526020600020905b8154815290600101906020018083116107ff57829003601f168201915b5050505050905090565b6000600960009054906101000a900473ffffffffffffffffffffffffffffffffffffffff1673ffffffffffffffffffffffffffffffffffffffff16637652e7c46040518163ffffffff1660e01b8152600401602060405180830381865afa158015610895573d6000803e3d6000fd5b505050506040513d601f19601f820116820180604052508101906108b99190614421565b90505b600081111561110457600960009054906101000a900473ffffffffffffffffffffffffffffffffffffffff1673ffffffffffffffffffffffffffffffffffffffff1663637baf60826040518263ffffffff1660e01b81526004016109209190613f89565b600060405180830381600087803b15801561093a57600080fd5b505af115801561094e573d6000803e3d6000fd5b50505050600080600960009054906101000a900473ffffffffffffffffffffffffffffffffffffffff1673ffffffffffffffffffffffffffffffffffffffff166385ae10e6846040518263ffffffff1660e01b81526004016109b09190613f89565b6040805180830381865afa1580156109cc573d6000803e3d6000fd5b505050506040513d601f19601f820116820180604052508101906109f0919061444e565b9150915073__MarketLibrary_________________________63eea2526b600b60009054906101000a900473ffffffffffffffffffffffffffffffffffffffff16306040518363ffffffff1660e01b8152600401610a4f92919061449d565b602060405180830381865af4158015610a6c573d6000803e3d6000fd5b505050506040513d601f19601f82011682018060405250810190610a909190614421565b8110610ad1576040517f08c379a0000000000000000000000000000000000000000000000000000000008152600401610ac890614512565b60405180910390fd5b600081111561106a576000818314610ae95781610b13565b610b1282600854600754600654610b009190614561565b610b0a9190614561565b600654612f7c565b5b90506000610b2684600754600654612f7c565b90506000610b3985600854600654612f7c565b9050600b60009054906101000a900473ffffffffffffffffffffffffffffffffffffffff1673ffffffffffffffffffffffffffffffffffffffff1663a9059cbb600960009054906101000a900473ffffffffffffffffffffffffffffffffffffffff1673ffffffffffffffffffffffffffffffffffffffff16631a7985ba896040518263ffffffff1660e01b8152600401610bd49190613f89565b602060405180830381865afa158015610bf1573d6000803e3d6000fd5b505050506040513d601f19601f82011682018060405250810190610c1591906145aa565b73__MarketLibrary_________________________638170ce8087600b60009054906101000a900473ffffffffffffffffffffffffffffffffffffffff166040518363ffffffff1660e01b8152600401610c709291906145e6565b602060405180830381865af4158015610c8d573d6000803e3d6000fd5b505050506040513d601f19601f82011682018060405250810190610cb19190614421565b6040518363ffffffff1660e01b8152600401610cce92919061460f565b6020604051808303816000875af1158015610ced573d6000803e3d6000fd5b505050506040513d601f19601f82011682018060405250810190610d11919061464d565b610d50576040517f08c379a0000000000000000000000000000000000000000000000000000000008152600401610d47906146c6565b60405180910390fd5b600b60009054906101000a900473ffffffffffffffffffffffffffffffffffffffff1673ffffffffffffffffffffffffffffffffffffffff1663a9059cbb600c60009054906101000a900473ffffffffffffffffffffffffffffffffffffffff1673__MarketLibrary_________________________638170ce8086600b60009054906101000a900473ffffffffffffffffffffffffffffffffffffffff166040518363ffffffff1660e01b8152600401610e0c9291906145e6565b602060405180830381865af4158015610e29573d6000803e3d6000fd5b505050506040513d601f19601f82011682018060405250810190610e4d9190614421565b6040518363ffffffff1660e01b8152600401610e6a92919061460f565b6020604051808303816000875af1158015610e89573d6000803e3d6000fd5b505050506040513d601f19601f82011682018060405250810190610ead919061464d565b610eec576040517f08c379a0000000000000000000000000000000000000000000000000000000008152600401610ee390614732565b60405180910390fd5b600b60009054906101000a900473ffffffffffffffffffffffffffffffffffffffff1673ffffffffffffffffffffffffffffffffffffffff1663a9059cbb8873__MarketLibrary_________________________638170ce8085600b60009054906101000a900473ffffffffffffffffffffffffffffffffffffffff166040518363ffffffff1660e01b8152600401610f869291906145e6565b602060405180830381865af4158015610fa3573d6000803e3d6000fd5b505050506040513d601f19601f82011682018060405250810190610fc79190614421565b6040518363ffffffff1660e01b8152600401610fe492919061460f565b6020604051808303816000875af1158015611003573d6000803e3d6000fd5b505050506040513d601f19601f82011682018060405250810190611027919061464d565b611066576040517f08c379a000000000000000000000000000000000000000000000000000000000815260040161105d9061479e565b60405180910390fd5b5050505b600960009054906101000a900473ffffffffffffffffffffffffffffffffffffffff1673ffffffffffffffffffffffffffffffffffffffff16637652e7c46040518163ffffffff1660e01b8152600401602060405180830381865afa1580156110d7573d6000803e3d6000fd5b505050506040513d601f19601f820116820180604052508101906110fb9190614421565b925050506108bc565b5050565b7fa49807205ce4d355092ef5a8a18f56e8913cf4a201fbe287825b095693c2177561113a81611135613078565b613080565b60018214806111495750600282145b61115257600080fd5b81600d819055505050565b600061117161116a613078565b848461311d565b6001905092915050565b6000600254905090565b600e5481565b60006111988484846132e8565b6000600160008673ffffffffffffffffffffffffffffffffffffffff1673ffffffffffffffffffffffffffffffffffffffff16815260200190815260200160002060006111e3613078565b73ffffffffffffffffffffffffffffffffffffffff1673ffffffffffffffffffffffffffffffffffffffff16815260200190815260200160002054905082811015611263576040517f08c379a000000000000000000000000000000000000000000000000000000000815260040161125a90614830565b60405180910390fd5b6112778561126f613078565b85840361311d565b60019150509392505050565b600060056000838152602001908152602001600020600101549050919050565b6112ac82611283565b6112bd816112b8613078565b613080565b6112c78383613569565b505050565b60006012905090565b6112dd613078565b73ffffffffffffffffffffffffffffffffffffffff168173ffffffffffffffffffffffffffffffffffffffff161461134a576040517f08c379a0000000000000000000000000000000000000000000000000000000008152600401611341906148c2565b60405180910390fd5b611354828261364a565b5050565b7f28d62fc77014de57a1bbaa8212ff0979fa61ab00d377b4b8d9762048fb41996161138a81611385613078565b613080565b600080600080600960009054906101000a900473ffffffffffffffffffffffffffffffffffffffff1673ffffffffffffffffffffffffffffffffffffffff166365bf997630600d546040518363ffffffff1660e01b81526004016113ef92919061460f565b608060405180830381865afa15801561140c573d6000803e3d6000fd5b505050506040513d601f19601f8201168201806040525081019061143091906148f7565b935093509350935073__MarketLibrary_________________________63aa5c12c785846040518363ffffffff1660e01b815260040161147192919061496d565b602060405180830381865af415801561148e573d6000803e3d6000fd5b505050506040513d601f19601f820116820180604052508101906114b29190614996565b935073__MarketLibrary_________________________63aa5c12c784836040518363ffffffff1660e01b81526004016114ed92919061496d565b602060405180830381865af415801561150a573d6000803e3d6000fd5b505050506040513d601f19601f8201168201806040525081019061152e9190614996565b92506000600960009054906101000a900473ffffffffffffffffffffffffffffffffffffffff1673ffffffffffffffffffffffffffffffffffffffff1663251e1e8a6040518163ffffffff1660e01b8152600401602060405180830381865afa15801561159f573d6000803e3d6000fd5b505050506040513d601f19601f820116820180604052508101906115c391906145aa565b73ffffffffffffffffffffffffffffffffffffffff16630261bf8b6040518163ffffffff1660e01b8152600401602060405180830381865afa15801561160d573d6000803e3d6000fd5b505050506040513d601f19601f8201168201806040525081019061163191906145aa565b9050600084131561177257600b60009054906101000a900473ffffffffffffffffffffffffffffffffffffffff1673ffffffffffffffffffffffffffffffffffffffff16633950935182866040518363ffffffff1660e01b815260040161169992919061460f565b6020604051808303816000875af11580156116b8573d6000803e3d6000fd5b505050506040513d601f19601f820116820180604052508101906116dc919061464d565b508073ffffffffffffffffffffffffffffffffffffffff1663e8eda9df600b60009054906101000a900473ffffffffffffffffffffffffffffffffffffffff16863060006040518563ffffffff1660e01b815260040161173f9493929190614a16565b600060405180830381600087803b15801561175957600080fd5b505af115801561176d573d6000803e3d6000fd5b505050505b6000851315611814578073ffffffffffffffffffffffffffffffffffffffff1663a415bcad600a60009054906101000a900473ffffffffffffffffffffffffffffffffffffffff1687600d546000306040518663ffffffff1660e01b81526004016117e1959493929190614a5b565b600060405180830381600087803b1580156117fb57600080fd5b505af115801561180f573d6000803e3d6000fd5b505050505b6000851215611ae7578461182790614aae565b600a60009054906101000a900473ffffffffffffffffffffffffffffffffffffffff1673ffffffffffffffffffffffffffffffffffffffff166370a08231306040518263ffffffff1660e01b81526004016118829190614350565b602060405180830381865afa15801561189f573d6000803e3d6000fd5b505050506040513d601f19601f820116820180604052508101906118c39190614421565b1015611904576040517f08c379a00000000000000000000000000000000000000000000000000000000081526004016118fb90614b43565b60405180910390fd5b8273ffffffffffffffffffffffffffffffffffffffff1663095ea7b3828761192b90614aae565b6040518363ffffffff1660e01b815260040161194892919061460f565b6020604051808303816000875af1158015611967573d6000803e3d6000fd5b505050506040513d601f19601f8201168201806040525081019061198b919061464d565b50600a60009054906101000a900473ffffffffffffffffffffffffffffffffffffffff1673ffffffffffffffffffffffffffffffffffffffff1663095ea7b382876119d590614aae565b6040518363ffffffff1660e01b81526004016119f292919061460f565b6020604051808303816000875af1158015611a11573d6000803e3d6000fd5b505050506040513d601f19601f82011682018060405250810190611a35919061464d565b508073ffffffffffffffffffffffffffffffffffffffff1663573ade81600a60009054906101000a900473ffffffffffffffffffffffffffffffffffffffff1687611a7f90614aae565b600d54306040518563ffffffff1660e01b8152600401611aa29493929190614b63565b6020604051808303816000875af1158015611ac1573d6000803e3d6000fd5b505050506040513d601f19601f82011682018060405250810190611ae59190614421565b505b6000841215611c25578173ffffffffffffffffffffffffffffffffffffffff1663395093518286611b1790614aae565b6040518363ffffffff1660e01b8152600401611b3492919061460f565b6020604051808303816000875af1158015611b53573d6000803e3d6000fd5b505050506040513d601f19601f82011682018060405250810190611b77919061464d565b508073ffffffffffffffffffffffffffffffffffffffff166369328dec600b60009054906101000a900473ffffffffffffffffffffffffffffffffffffffff1686611bc190614aae565b306040518463ffffffff1660e01b8152600401611be093929190614ba8565b6020604051808303816000875af1158015611bff573d6000803e3d6000fd5b505050506040513d601f19601f82011682018060405250810190611c239190614421565b505b505050505050565b6000611ccf611c3a613078565b848460016000611c48613078565b73ffffffffffffffffffffffffffffffffffffffff1673ffffffffffffffffffffffffffffffffffffffff16815260200190815260200160002060008873ffffffffffffffffffffffffffffffffffffffff1673ffffffffffffffffffffffffffffffffffffffff16815260200190815260200160002054611cca9190614bdf565b61311d565b6001905092915050565b7f28d62fc77014de57a1bbaa8212ff0979fa61ab00d377b4b8d9762048fb41996181565b7f28d62fc77014de57a1bbaa8212ff0979fa61ab00d377b4b8d9762048fb419961611d2f81611d2a613078565b613080565b60008073__MarketLibrary_________________________63865c99848a8a600960009054906101000a900473ffffffffffffffffffffffffffffffffffffffff1673ffffffffffffffffffffffffffffffffffffffff16636f307dc36040518163ffffffff1660e01b8152600401602060405180830381865afa158015611dbb573d6000803e3d6000fd5b505050506040513d601f19601f82011682018060405250810190611ddf91906145aa565b600960009054906101000a900473ffffffffffffffffffffffffffffffffffffffff1673ffffffffffffffffffffffffffffffffffffffff1663cb4c86b76040518163ffffffff1660e01b8152600401602060405180830381865afa158015611e4c573d6000803e3d6000fd5b505050506040513d601f19601f82011682018060405250810190611e7091906145aa565b6040518563ffffffff1660e01b8152600401611e8f9493929190614c35565b608060405180830381865af4158015611eac573d6000803e3d6000fd5b505050506040513d601f19601f82011682018060405250810190611ed09190614c7a565b5092505091508073ffffffffffffffffffffffffffffffffffffffff1663095ea7b388846040518363ffffffff1660e01b8152600401611f11929190614d36565b6020604051808303816000875af1158015611f30573d6000803e3d6000fd5b505050506040513d601f19601f82011682018060405250810190611f54919061464d565b506000808873ffffffffffffffffffffffffffffffffffffffff16868989604051611f80929190614d9e565b60006040518083038160008787f1925050503d8060008114611fbe576040519150601f19603f3d011682016040523d82523d6000602084013e611fc3565b606091505b50915091507f13848c3e38f8886f3f5d2ad9dff80d8092c2bbb8efd5b887a99c2c6cfc09ac2a8282604051611ff9929190614e0c565b60405180910390a15050505050505050505050565b7f28d62fc77014de57a1bbaa8212ff0979fa61ab00d377b4b8d9762048fb4199616120408161203b613078565b613080565b60008060008073__MarketLibrary_________________________63865c99848a8a600960009054906101000a900473ffffffffffffffffffffffffffffffffffffffff1673ffffffffffffffffffffffffffffffffffffffff16636f307dc36040518163ffffffff1660e01b8152600401602060405180830381865afa1580156120cf573d6000803e3d6000fd5b505050506040513d601f19601f820116820180604052508101906120f391906145aa565b600960009054906101000a900473ffffffffffffffffffffffffffffffffffffffff1673ffffffffffffffffffffffffffffffffffffffff1663cb4c86b76040518163ffffffff1660e01b8152600401602060405180830381865afa158015612160573d6000803e3d6000fd5b505050506040513d601f19601f8201168201806040525081019061218491906145aa565b6040518563ffffffff1660e01b81526004016121a39493929190614c35565b608060405180830381865af41580156121c0573d6000803e3d6000fd5b505050506040513d601f19601f820116820180604052508101906121e49190614c7a565b93509350935093508173ffffffffffffffffffffffffffffffffffffffff1663095ea7b388866040518363ffffffff1660e01b815260040161222792919061460f565b6020604051808303816000875af1158015612246573d6000803e3d6000fd5b505050506040513d601f19601f8201168201806040525081019061226a919061464d565b506000600267ffffffffffffffff81111561228857612287614e3c565b5b6040519080825280602002602001820160405280156122b65781602001602082028036833780820191505090505b50905082816000815181106122ce576122cd614e6b565b5b602002602001019073ffffffffffffffffffffffffffffffffffffffff16908173ffffffffffffffffffffffffffffffffffffffff1681525050818160018151811061231d5761231c614e6b565b5b602002602001019073ffffffffffffffffffffffffffffffffffffffff16908173ffffffffffffffffffffffffffffffffffffffff16815250508773ffffffffffffffffffffffffffffffffffffffff16638803dbee858784308c426123839190614bdf565b6040518663ffffffff1660e01b81526004016123a3959493929190614f58565b6000604051808303816000875af11580156123c2573d6000803e3d6000fd5b505050506040513d6000823e3d601f19601f820116820180604052508101906123eb91906150c1565b5050505050505050505050565b7fa49807205ce4d355092ef5a8a18f56e8913cf4a201fbe287825b095693c2177561242a81612425613078565b613080565b81600c60006101000a81548173ffffffffffffffffffffffffffffffffffffffff021916908373ffffffffffffffffffffffffffffffffffffffff1602179055505050565b7fa49807205ce4d355092ef5a8a18f56e8913cf4a201fbe287825b095693c217756124a18161249c613078565b613080565b60065482106124af57600080fd5b816007819055505050565b6000600960009054906101000a900473ffffffffffffffffffffffffffffffffffffffff1673ffffffffffffffffffffffffffffffffffffffff16638b83b6b6306040518263ffffffff1660e01b81526004016125179190614350565b602060405180830381865afa158015612534573d6000803e3d6000fd5b505050506040513d601f19601f820116820180604052508101906125589190614421565b905082156126a357612695600960009054906101000a900473ffffffffffffffffffffffffffffffffffffffff1673ffffffffffffffffffffffffffffffffffffffff16634717f5b96040518163ffffffff1660e01b8152600401602060405180830381865afa1580156125d0573d6000803e3d6000fd5b505050506040513d601f19601f820116820180604052508101906125f49190614421565b600960009054906101000a900473ffffffffffffffffffffffffffffffffffffffff1673ffffffffffffffffffffffffffffffffffffffff1663448ba42f6040518163ffffffff1660e01b8152600401602060405180830381865afa158015612661573d6000803e3d6000fd5b505050506040513d601f19601f820116820180604052508101906126859190614421565b61268f9190614bdf565b8261372c565b816126a09190614561565b90505b81156126f35760006126b361117b565b11156126d0576126cd816006546126c861117b565b612f7c565b90505b60006126da61117b565b1480156126e75750600081145b156126f25760065490505b5b92915050565b60008060008373ffffffffffffffffffffffffffffffffffffffff1673ffffffffffffffffffffffffffffffffffffffff168152602001908152602001600020549050919050565b600c60009054906101000a900473ffffffffffffffffffffffffffffffffffffffff1681565b7fa49807205ce4d355092ef5a8a18f56e8913cf4a201fbe287825b095693c2177581565b60075481565b60006005600084815260200190815260200160002060000160008373ffffffffffffffffffffffffffffffffffffffff1673ffffffffffffffffffffffffffffffffffffffff16815260200190815260200160002060009054906101000a900460ff16905092915050565b60606004805461280b906143da565b80601f0160208091040260200160405190810160405280929190818152602001828054612837906143da565b80156128845780601f1061285957610100808354040283529160200191612884565b820191906000526020600020905b81548152906001019060200180831161286757829003601f168201915b5050505050905090565b6000801b81565b600080600160006128a4613078565b73ffffffffffffffffffffffffffffffffffffffff1673ffffffffffffffffffffffffffffffffffffffff16815260200190815260200160002060008573ffffffffffffffffffffffffffffffffffffffff1673ffffffffffffffffffffffffffffffffffffffff16815260200190815260200160002054905082811015612961576040517f08c379a00000000000000000000000000000000000000000000000000000000081526004016129589061517c565b60405180910390fd5b61297561296c613078565b8585840361311d565b600191505092915050565b600061299461298d613078565b84846132e8565b6001905092915050565b600d5481565b6000612a5973__MarketLibrary_________________________63f0742a2584600b60009054906101000a900473ffffffffffffffffffffffffffffffffffffffff166040518363ffffffff1660e01b8152600401612a049291906145e6565b602060405180830381865af4158015612a21573d6000803e3d6000fd5b505050506040513d601f19601f82011682018060405250810190612a459190614421565b600654612a54600060016124ba565b612f7c565b9050600b60009054906101000a900473ffffffffffffffffffffffffffffffffffffffff1673ffffffffffffffffffffffffffffffffffffffff166323b872dd3330856040518463ffffffff1660e01b8152600401612aba9392919061519c565b6020604051808303816000875af1158015612ad9573d6000803e3d6000fd5b505050506040513d601f19601f82011682018060405250810190612afd919061464d565b612b0657600080fd5b612b103382613745565b7fd0d5ca25112902dbbf5a70a67eed6edc7513b74f2a7ec0805ca216c99f981cc1338383604051612b43939291906151d3565b60405180910390a15050565b60085481565b612b5e82611283565b612b6f81612b6a613078565b613080565b612b79838361364a565b505050565b600073__MarketLibrary_________________________638170ce80612bb1612ba86001806124ba565b85600654612f7c565b600b60009054906101000a900473ffffffffffffffffffffffffffffffffffffffff166040518363ffffffff1660e01b8152600401612bf19291906145e6565b602060405180830381865af4158015612c0e573d6000803e3d6000fd5b505050506040513d601f19601f82011682018060405250810190612c329190614421565b905080600b60009054906101000a900473ffffffffffffffffffffffffffffffffffffffff1673ffffffffffffffffffffffffffffffffffffffff166370a08231306040518263ffffffff1660e01b8152600401612c909190614350565b602060405180830381865afa158015612cad573d6000803e3d6000fd5b505050506040513d601f19601f82011682018060405250810190612cd19190614421565b11612d11576040517f08c379a0000000000000000000000000000000000000000000000000000000008152600401612d0890615256565b60405180910390fd5b612d1b33836138a5565b600b60009054906101000a900473ffffffffffffffffffffffffffffffffffffffff1673ffffffffffffffffffffffffffffffffffffffff1663a9059cbb33836040518363ffffffff1660e01b8152600401612d7892919061460f565b6020604051808303816000875af1158015612d97573d6000803e3d6000fd5b505050506040513d601f19601f82011682018060405250810190612dbb919061464d565b612dc457600080fd5b7f3a9e5b3b520d77dc26bf05104c863b6b654d4b96fa8031a783ad0dbd905cdf39338383604051612df7939291906151d3565b60405180910390a15050565b6000600160008473ffffffffffffffffffffffffffffffffffffffff1673ffffffffffffffffffffffffffffffffffffffff16815260200190815260200160002060008373ffffffffffffffffffffffffffffffffffffffff1673ffffffffffffffffffffffffffffffffffffffff16815260200190815260200160002054905092915050565b7fa49807205ce4d355092ef5a8a18f56e8913cf4a201fbe287825b095693c21775612ebc81612eb7613078565b613080565b81600e819055505050565b7fa49807205ce4d355092ef5a8a18f56e8913cf4a201fbe287825b095693c21775612ef981612ef4613078565b613080565b6006548210612f0757600080fd5b816008819055505050565b60007f01ffc9a7000000000000000000000000000000000000000000000000000000007bffffffffffffffffffffffffffffffffffffffffffffffffffffffff1916827bffffffffffffffffffffffffffffffffffffffffffffffffffffffff1916149050919050565b600080600080198587098587029250828110838203039150506000811415612fb75760008411612fab57600080fd5b83820492505050613071565b808411612fc357600080fd5b60008486880990508281118203915080830392506000856001877fffffffffffffffffffffffffffffffffffffffffffffffffffffffffffffffff0301169050808604955080840493506001818260000304019050808302841793506000600287600302189050808702600203810290508087026002038102905080870260020381029050808702600203810290508087026002038102905080870260020381029050808502955050505050505b9392505050565b600033905090565b61308a8282612791565b613119576130af8173ffffffffffffffffffffffffffffffffffffffff166014613a7c565b6130bd8360001c6020613a7c565b6040516020016130ce92919061534a565b6040516020818303038152906040526040517f08c379a00000000000000000000000000000000000000000000000000000000081526004016131109190613e2a565b60405180910390fd5b5050565b600073ffffffffffffffffffffffffffffffffffffffff168373ffffffffffffffffffffffffffffffffffffffff16141561318d576040517f08c379a0000000000000000000000000000000000000000000000000000000008152600401613184906153f6565b60405180910390fd5b600073ffffffffffffffffffffffffffffffffffffffff168273ffffffffffffffffffffffffffffffffffffffff1614156131fd576040517f08c379a00000000000000000000000000000000000000000000000000000000081526004016131f490615488565b60405180910390fd5b80600160008573ffffffffffffffffffffffffffffffffffffffff1673ffffffffffffffffffffffffffffffffffffffff16815260200190815260200160002060008473ffffffffffffffffffffffffffffffffffffffff1673ffffffffffffffffffffffffffffffffffffffff168152602001908152602001600020819055508173ffffffffffffffffffffffffffffffffffffffff168373ffffffffffffffffffffffffffffffffffffffff167f8c5be1e5ebec7d5bd14f71427d1e84f3dd0314c0f7b2291e5b200ac8c7c3b925836040516132db9190613f89565b60405180910390a3505050565b600073ffffffffffffffffffffffffffffffffffffffff168373ffffffffffffffffffffffffffffffffffffffff161415613358576040517f08c379a000000000000000000000000000000000000000000000000000000000815260040161334f9061551a565b60405180910390fd5b600073ffffffffffffffffffffffffffffffffffffffff168273ffffffffffffffffffffffffffffffffffffffff1614156133c8576040517f08c379a00000000000000000000000000000000000000000000000000000000081526004016133bf906155ac565b60405180910390fd5b6133d3838383613cb8565b60008060008573ffffffffffffffffffffffffffffffffffffffff1673ffffffffffffffffffffffffffffffffffffffff16815260200190815260200160002054905081811015613459576040517f08c379a00000000000000000000000000000000000000000000000000000000081526004016134509061563e565b60405180910390fd5b8181036000808673ffffffffffffffffffffffffffffffffffffffff1673ffffffffffffffffffffffffffffffffffffffff16815260200190815260200160002081905550816000808573ffffffffffffffffffffffffffffffffffffffff1673ffffffffffffffffffffffffffffffffffffffff16815260200190815260200160002060008282546134ec9190614bdf565b925050819055508273ffffffffffffffffffffffffffffffffffffffff168473ffffffffffffffffffffffffffffffffffffffff167fddf252ad1be2c89b69c2b068fc378daa952ba7f163c4a11628f55a4df523b3ef846040516135509190613f89565b60405180910390a3613563848484613cbd565b50505050565b6135738282612791565b6136465760016005600084815260200190815260200160002060000160008373ffffffffffffffffffffffffffffffffffffffff1673ffffffffffffffffffffffffffffffffffffffff16815260200190815260200160002060006101000a81548160ff0219169083151502179055506135eb613078565b73ffffffffffffffffffffffffffffffffffffffff168173ffffffffffffffffffffffffffffffffffffffff16837f2f8788117e7eff1d82e926ec794901d17c78024a50270940304540a733656f0d60405160405180910390a45b5050565b6136548282612791565b156137285760006005600084815260200190815260200160002060000160008373ffffffffffffffffffffffffffffffffffffffff1673ffffffffffffffffffffffffffffffffffffffff16815260200190815260200160002060006101000a81548160ff0219169083151502179055506136cd613078565b73ffffffffffffffffffffffffffffffffffffffff168173ffffffffffffffffffffffffffffffffffffffff16837ff6391f5c32d9c69d2a47ea670b442974b53935d1edc7fd64eb21e047a839171b60405160405180910390a45b5050565b600081831061373b578161373d565b825b905092915050565b600073ffffffffffffffffffffffffffffffffffffffff168273ffffffffffffffffffffffffffffffffffffffff1614156137b5576040517f08c379a00000000000000000000000000000000000000000000000000000000081526004016137ac906156aa565b60405180910390fd5b6137c160008383613cb8565b80600260008282546137d39190614bdf565b92505081905550806000808473ffffffffffffffffffffffffffffffffffffffff1673ffffffffffffffffffffffffffffffffffffffff16815260200190815260200160002060008282546138289190614bdf565b925050819055508173ffffffffffffffffffffffffffffffffffffffff16600073ffffffffffffffffffffffffffffffffffffffff167fddf252ad1be2c89b69c2b068fc378daa952ba7f163c4a11628f55a4df523b3ef8360405161388d9190613f89565b60405180910390a36138a160008383613cbd565b5050565b600073ffffffffffffffffffffffffffffffffffffffff168273ffffffffffffffffffffffffffffffffffffffff161415613915576040517f08c379a000000000000000000000000000000000000000000000000000000000815260040161390c9061573c565b60405180910390fd5b61392182600083613cb8565b60008060008473ffffffffffffffffffffffffffffffffffffffff1673ffffffffffffffffffffffffffffffffffffffff168152602001908152602001600020549050818110156139a7576040517f08c379a000000000000000000000000000000000000000000000000000000000815260040161399e906157ce565b60405180910390fd5b8181036000808573ffffffffffffffffffffffffffffffffffffffff1673ffffffffffffffffffffffffffffffffffffffff1681526020019081526020016000208190555081600260008282546139fe9190614561565b92505081905550600073ffffffffffffffffffffffffffffffffffffffff168373ffffffffffffffffffffffffffffffffffffffff167fddf252ad1be2c89b69c2b068fc378daa952ba7f163c4a11628f55a4df523b3ef84604051613a639190613f89565b60405180910390a3613a7783600084613cbd565b505050565b606060006002836002613a8f91906157ee565b613a999190614bdf565b67ffffffffffffffff811115613ab257613ab1614e3c565b5b6040519080825280601f01601f191660200182016040528015613ae45781602001600182028036833780820191505090505b5090507f300000000000000000000000000000000000000000000000000000000000000081600081518110613b1c57613b1b614e6b565b5b60200101907effffffffffffffffffffffffffffffffffffffffffffffffffffffffffffff1916908160001a9053507f780000000000000000000000000000000000000000000000000000000000000081600181518110613b8057613b7f614e6b565b5b60200101907effffffffffffffffffffffffffffffffffffffffffffffffffffffffffffff1916908160001a90535060006001846002613bc091906157ee565b613bca9190614bdf565b90505b6001811115613c6a577f3031323334353637383961626364656600000000000000000000000000000000600f861660108110613c0c57613c0b614e6b565b5b1a60f81b828281518110613c2357613c22614e6b565b5b60200101907effffffffffffffffffffffffffffffffffffffffffffffffffffffffffffff1916908160001a905350600485901c945080613c6390615848565b9050613bcd565b5060008414613cae576040517f08c379a0000000000000000000000000000000000000000000000000000000008152600401613ca5906158be565b60405180910390fd5b8091505092915050565b505050565b505050565b6000604051905090565b600080fd5b600080fd5b60007fffffffff0000000000000000000000000000000000000000000000000000000082169050919050565b613d0b81613cd6565b8114613d1657600080fd5b50565b600081359050613d2881613d02565b92915050565b600060208284031215613d4457613d43613ccc565b5b6000613d5284828501613d19565b91505092915050565b60008115159050919050565b613d7081613d5b565b82525050565b6000602082019050613d8b6000830184613d67565b92915050565b600081519050919050565b600082825260208201905092915050565b60005b83811015613dcb578082015181840152602081019050613db0565b83811115613dda576000848401525b50505050565b6000601f19601f8301169050919050565b6000613dfc82613d91565b613e068185613d9c565b9350613e16818560208601613dad565b613e1f81613de0565b840191505092915050565b60006020820190508181036000830152613e448184613df1565b905092915050565b600073ffffffffffffffffffffffffffffffffffffffff82169050919050565b6000613e7782613e4c565b9050919050565b613e8781613e6c565b8114613e9257600080fd5b50565b600081359050613ea481613e7e565b92915050565b600060208284031215613ec057613ebf613ccc565b5b6000613ece84828501613e95565b91505092915050565b6000819050919050565b613eea81613ed7565b8114613ef557600080fd5b50565b600081359050613f0781613ee1565b92915050565b600060208284031215613f2357613f22613ccc565b5b6000613f3184828501613ef8565b91505092915050565b60008060408385031215613f5157613f50613ccc565b5b6000613f5f85828601613e95565b9250506020613f7085828601613ef8565b9150509250929050565b613f8381613ed7565b82525050565b6000602082019050613f9e6000830184613f7a565b92915050565b600080600060608486031215613fbd57613fbc613ccc565b5b6000613fcb86828701613e95565b9350506020613fdc86828701613e95565b9250506040613fed86828701613ef8565b9150509250925092565b6000819050919050565b61400a81613ff7565b811461401557600080fd5b50565b60008135905061402781614001565b92915050565b60006020828403121561404357614042613ccc565b5b600061405184828501614018565b91505092915050565b61406381613ff7565b82525050565b600060208201905061407e600083018461405a565b92915050565b6000806040838503121561409b5761409a613ccc565b5b60006140a985828601614018565b92505060206140ba85828601613e95565b9150509250929050565b600060ff82169050919050565b6140da816140c4565b82525050565b60006020820190506140f560008301846140d1565b92915050565b6000819050919050565b61410e816140fb565b811461411957600080fd5b50565b60008135905061412b81614105565b92915050565b600061413c82613e4c565b9050919050565b61414c81614131565b811461415757600080fd5b50565b60008135905061416981614143565b92915050565b600080fd5b600080fd5b600080fd5b60008083601f8401126141945761419361416f565b5b8235905067ffffffffffffffff8111156141b1576141b0614174565b5b6020830191508360018202830111156141cd576141cc614179565b5b9250929050565b60008060008060008060a087890312156141f1576141f0613ccc565b5b60006141ff89828a0161411c565b965050602061421089828a0161411c565b955050604061422189828a0161415a565b945050606087013567ffffffffffffffff81111561424257614241613cd1565b5b61424e89828a0161417e565b9350935050608061426189828a01613ef8565b9150509295509295509295565b6000806000806080858703121561428857614287613ccc565b5b60006142968782880161411c565b94505060206142a78782880161411c565b93505060406142b887828801613e95565b92505060606142c987828801613ef8565b91505092959194509250565b6142de81613d5b565b81146142e957600080fd5b50565b6000813590506142fb816142d5565b92915050565b6000806040838503121561431857614317613ccc565b5b6000614326858286016142ec565b9250506020614337858286016142ec565b9150509250929050565b61434a81613e6c565b82525050565b60006020820190506143656000830184614341565b92915050565b6000806040838503121561438257614381613ccc565b5b600061439085828601613e95565b92505060206143a185828601613e95565b9150509250929050565b7f4e487b7100000000000000000000000000000000000000000000000000000000600052602260045260246000fd5b600060028204905060018216806143f257607f821691505b60208210811415614406576144056143ab565b5b50919050565b60008151905061441b81613ee1565b92915050565b60006020828403121561443757614436613ccc565b5b60006144458482850161440c565b91505092915050565b6000806040838503121561446557614464613ccc565b5b60006144738582860161440c565b92505060206144848582860161440c565b9150509250929050565b61449781613e6c565b82525050565b60006040820190506144b2600083018561448e565b6144bf602083018461448e565b9392505050565b7f42616c616e636520696e73756666696369656e742e0000000000000000000000600082015250565b60006144fc601583613d9c565b9150614507826144c6565b602082019050919050565b6000602082019050818103600083015261452b816144ef565b9050919050565b7f4e487b7100000000000000000000000000000000000000000000000000000000600052601160045260246000fd5b600061456c82613ed7565b915061457783613ed7565b92508282101561458a57614589614532565b5b828203905092915050565b6000815190506145a481613e7e565b92915050565b6000602082840312156145c0576145bf613ccc565b5b60006145ce84828501614595565b91505092915050565b6145e081613ed7565b82525050565b60006040820190506145fb60008301856145d7565b614608602083018461448e565b9392505050565b60006040820190506146246000830185614341565b6146316020830184613f7a565b9392505050565b600081519050614647816142d5565b92915050565b60006020828403121561466357614662613ccc565b5b600061467184828501614638565b91505092915050565b7f4661696c6564207061796d656e7420746f20686f6c6465720000000000000000600082015250565b60006146b0601883613d9c565b91506146bb8261467a565b602082019050919050565b600060208201905081810360008301526146df816146a3565b9050919050565b7f4661696c6564207061796d656e7420746f206d61696e74656e616e6365000000600082015250565b600061471c601d83613d9c565b9150614727826146e6565b602082019050919050565b6000602082019050818103600083015261474b8161470f565b9050919050565b7f4661696c6564207061796d656e7420746f206578657263697365722e00000000600082015250565b6000614788601c83613d9c565b915061479382614752565b602082019050919050565b600060208201905081810360008301526147b78161477b565b9050919050565b7f45524332303a207472616e7366657220616d6f756e742065786365656473206160008201527f6c6c6f77616e6365000000000000000000000000000000000000000000000000602082015250565b600061481a602883613d9c565b9150614825826147be565b604082019050919050565b600060208201905081810360008301526148498161480d565b9050919050565b7f416363657373436f6e74726f6c3a2063616e206f6e6c792072656e6f756e636560008201527f20726f6c657320666f722073656c660000000000000000000000000000000000602082015250565b60006148ac602f83613d9c565b91506148b782614850565b604082019050919050565b600060208201905081810360008301526148db8161489f565b9050919050565b6000815190506148f181614105565b92915050565b6000806000806080858703121561491157614910613ccc565b5b600061491f878288016148e2565b9450506020614930878288016148e2565b935050604061494187828801614595565b925050606061495287828801614595565b91505092959194509250565b614967816140fb565b82525050565b6000604082019050614982600083018561495e565b61498f602083018461448e565b9392505050565b6000602082840312156149ac576149ab613ccc565b5b60006149ba848285016148e2565b91505092915050565b6000819050919050565b600061ffff82169050919050565b6000819050919050565b6000614a006149fb6149f6846149c3565b6149db565b6149cd565b9050919050565b614a10816149e5565b82525050565b6000608082019050614a2b6000830187614341565b614a386020830186613f7a565b614a456040830185614341565b614a526060830184614a07565b95945050505050565b600060a082019050614a706000830188614341565b614a7d6020830187613f7a565b614a8a6040830186613f7a565b614a976060830185614a07565b614aa46080830184614341565b9695505050505050565b6000614ab9826140fb565b91507f8000000000000000000000000000000000000000000000000000000000000000821415614aec57614aeb614532565b5b816000039050919050565b7f6e6f7420656e6f75676820746f6b656e20746f207265706179206c6f616e7300600082015250565b6000614b2d601f83613d9c565b9150614b3882614af7565b602082019050919050565b60006020820190508181036000830152614b5c81614b20565b9050919050565b6000608082019050614b786000830187614341565b614b856020830186613f7a565b614b926040830185613f7a565b614b9f6060830184614341565b95945050505050565b6000606082019050614bbd6000830186614341565b614bca6020830185613f7a565b614bd76040830184614341565b949350505050565b6000614bea82613ed7565b9150614bf583613ed7565b9250827fffffffffffffffffffffffffffffffffffffffffffffffffffffffffffffffff03821115614c2a57614c29614532565b5b828201905092915050565b6000608082019050614c4a600083018761495e565b614c57602083018661495e565b614c64604083018561448e565b614c71606083018461448e565b95945050505050565b60008060008060808587031215614c9457614c93613ccc565b5b6000614ca28782880161440c565b9450506020614cb38782880161440c565b9350506040614cc487828801614595565b9250506060614cd587828801614595565b91505092959194509250565b6000614cfc614cf7614cf284613e4c565b6149db565b613e4c565b9050919050565b6000614d0e82614ce1565b9050919050565b6000614d2082614d03565b9050919050565b614d3081614d15565b82525050565b6000604082019050614d4b6000830185614d27565b614d586020830184613f7a565b9392505050565b600081905092915050565b82818337600083830152505050565b6000614d858385614d5f565b9350614d92838584614d6a565b82840190509392505050565b6000614dab828486614d79565b91508190509392505050565b600081519050919050565b600082825260208201905092915050565b6000614dde82614db7565b614de88185614dc2565b9350614df8818560208601613dad565b614e0181613de0565b840191505092915050565b6000604082019050614e216000830185613d67565b8181036020830152614e338184614dd3565b90509392505050565b7f4e487b7100000000000000000000000000000000000000000000000000000000600052604160045260246000fd5b7f4e487b7100000000000000000000000000000000000000000000000000000000600052603260045260246000fd5b600081519050919050565b600082825260208201905092915050565b6000819050602082019050919050565b614ecf81613e6c565b82525050565b6000614ee18383614ec6565b60208301905092915050565b6000602082019050919050565b6000614f0582614e9a565b614f0f8185614ea5565b9350614f1a83614eb6565b8060005b83811015614f4b578151614f328882614ed5565b9750614f3d83614eed565b925050600181019050614f1e565b5085935050505092915050565b600060a082019050614f6d6000830188613f7a565b614f7a6020830187613f7a565b8181036040830152614f8c8186614efa565b9050614f9b6060830185614341565b614fa86080830184613f7a565b9695505050505050565b614fbb82613de0565b810181811067ffffffffffffffff82111715614fda57614fd9614e3c565b5b80604052505050565b6000614fed613cc2565b9050614ff98282614fb2565b919050565b600067ffffffffffffffff82111561501957615018614e3c565b5b602082029050602081019050919050565b600061503d61503884614ffe565b614fe3565b905080838252602082019050602084028301858111156150605761505f614179565b5b835b818110156150895780615075888261440c565b845260208401935050602081019050615062565b5050509392505050565b600082601f8301126150a8576150a761416f565b5b81516150b884826020860161502a565b91505092915050565b6000602082840312156150d7576150d6613ccc565b5b600082015167ffffffffffffffff8111156150f5576150f4613cd1565b5b61510184828501615093565b91505092915050565b7f45524332303a2064656372656173656420616c6c6f77616e63652062656c6f7760008201527f207a65726f000000000000000000000000000000000000000000000000000000602082015250565b6000615166602583613d9c565b91506151718261510a565b604082019050919050565b6000602082019050818103600083015261519581615159565b9050919050565b60006060820190506151b16000830186614341565b6151be6020830185614341565b6151cb6040830184613f7a565b949350505050565b60006060820190506151e86000830186614341565b6151f56020830185613f7a565b6152026040830184613f7a565b949350505050565b7f496e73756666696369656e742062616c616e6365000000000000000000000000600082015250565b6000615240601483613d9c565b915061524b8261520a565b602082019050919050565b6000602082019050818103600083015261526f81615233565b9050919050565b600081905092915050565b7f416363657373436f6e74726f6c3a206163636f756e7420000000000000000000600082015250565b60006152b7601783615276565b91506152c282615281565b601782019050919050565b60006152d882613d91565b6152e28185615276565b93506152f2818560208601613dad565b80840191505092915050565b7f206973206d697373696e6720726f6c6520000000000000000000000000000000600082015250565b6000615334601183615276565b915061533f826152fe565b601182019050919050565b6000615355826152aa565b915061536182856152cd565b915061536c82615327565b915061537882846152cd565b91508190509392505050565b7f45524332303a20617070726f76652066726f6d20746865207a65726f2061646460008201527f7265737300000000000000000000000000000000000000000000000000000000602082015250565b60006153e0602483613d9c565b91506153eb82615384565b604082019050919050565b6000602082019050818103600083015261540f816153d3565b9050919050565b7f45524332303a20617070726f766520746f20746865207a65726f20616464726560008201527f7373000000000000000000000000000000000000000000000000000000000000602082015250565b6000615472602283613d9c565b915061547d82615416565b604082019050919050565b600060208201905081810360008301526154a181615465565b9050919050565b7f45524332303a207472616e736665722066726f6d20746865207a65726f20616460008201527f6472657373000000000000000000000000000000000000000000000000000000602082015250565b6000615504602583613d9c565b915061550f826154a8565b604082019050919050565b60006020820190508181036000830152615533816154f7565b9050919050565b7f45524332303a207472616e7366657220746f20746865207a65726f206164647260008201527f6573730000000000000000000000000000000000000000000000000000000000602082015250565b6000615596602383613d9c565b91506155a18261553a565b604082019050919050565b600060208201905081810360008301526155c581615589565b9050919050565b7f45524332303a207472616e7366657220616d6f756e742065786365656473206260008201527f616c616e63650000000000000000000000000000000000000000000000000000602082015250565b6000615628602683613d9c565b9150615633826155cc565b604082019050919050565b600060208201905081810360008301526156578161561b565b9050919050565b7f45524332303a206d696e7420746f20746865207a65726f206164647265737300600082015250565b6000615694601f83613d9c565b915061569f8261565e565b602082019050919050565b600060208201905081810360008301526156c381615687565b9050919050565b7f45524332303a206275726e2066726f6d20746865207a65726f2061646472657360008201527f7300000000000000000000000000000000000000000000000000000000000000602082015250565b6000615726602183613d9c565b9150615731826156ca565b604082019050919050565b6000602082019050818103600083015261575581615719565b9050919050565b7f45524332303a206275726e20616d6f756e7420657863656564732062616c616e60008201527f6365000000000000000000000000000000000000000000000000000000000000602082015250565b60006157b8602283613d9c565b91506157c38261575c565b604082019050919050565b600060208201905081810360008301526157e7816157ab565b9050919050565b60006157f982613ed7565b915061580483613ed7565b9250817fffffffffffffffffffffffffffffffffffffffffffffffffffffffffffffffff048311821515161561583d5761583c614532565b5b828202905092915050565b600061585382613ed7565b9150600082141561586757615866614532565b5b600182039050919050565b7f537472696e67733a20686578206c656e67746820696e73756666696369656e74600082015250565b60006158a8602083613d9c565b91506158b382615872565b602082019050919050565b600060208201905081810360008301526158d78161589b565b905091905056fea2646970667358221220b43810a5ff09ec8c62ae0d97e6fd6054258bfbbabd67db30d5aaf9c826d19e0864736f6c634300080a0033",
  "immutableReferences": {},
  "source": "// SPDX-License-Identifier: MIT\npragma solidity 0.8.10;\n\nimport \"@openzeppelin/contracts/access/AccessControl.sol\";\nimport \"@openzeppelin/contracts/utils/structs/EnumerableSet.sol\";\nimport \"./MarketLibrary.sol\";\nimport \"./OptionVault.sol\";\n\ncontract MoretMarketMaker is ERC20, AccessControl, EOption\n{\n  bytes32 public constant ADMIN_ROLE = keccak256(\"ADMIN_ROLE\");\n  bytes32 public constant EXCHANGE_ROLE = keccak256(\"EXCHANGE_ROLE\");\n\n  uint256 private multiplier;\n  uint256 public settlementFee= 5 * (10 ** 15);\n  uint256 public exerciseFee= 5 * (10 ** 15);\n  OptionVault internal optionVault;\n\n  address internal underlying;\n  address internal funding;\n  address public maintenanceAddress;\n  uint256 public lendingPoolRateMode = 2;\n  uint256 public swapSlippage = 5 * (10 ** 14);\n  \n  constructor(string memory _name, string memory _symbol, address _optionAddress) ERC20(_name, _symbol){\n    _setupRole(DEFAULT_ADMIN_ROLE, msg.sender);\n    _setupRole(ADMIN_ROLE, msg.sender);\n    _setupRole(EXCHANGE_ROLE, msg.sender);\n    maintenanceAddress = msg.sender;\n    optionVault = OptionVault(_optionAddress);\n    multiplier = OptionLibrary.Multiplier();\n    underlying = optionVault.underlying();\n    funding = optionVault.funding();\n    _mint(msg.sender, multiplier);}\n\n  function expireOptions(address exerciseFeeRecipient) external {\n    uint256 _expiringId = optionVault.getExpiringOptionId();\n    while(_expiringId >0) {\n      optionVault.stampExpiredOption(_expiringId);\n      \n      ( uint256 _payoff, uint256 _payback) = optionVault.getContractPayoff(_expiringId);\n      require(_payback < MarketLibrary.balanceDef(funding, address(this)), \"Balance insufficient.\");\n      if(_payback > 0){\n        uint256 _holderPayment = _payoff == _payback? MulDiv(_payback, multiplier - settlementFee - exerciseFee, multiplier): _payback;\n        uint256 _settleFeeAmount = MulDiv(_payoff, settlementFee, multiplier);\n        uint256 _exerciseFeeAmount = MulDiv(_payoff, exerciseFee, multiplier);\n\n        require(IERC20(funding).transfer(optionVault.getOptionHolder(_expiringId), MarketLibrary.cvtDecimals(_holderPayment, funding)), \"Failed payment to holder\");\n        require(IERC20(funding).transfer(maintenanceAddress, MarketLibrary.cvtDecimals(_settleFeeAmount, funding)), \"Failed payment to maintenance\");\n        require(IERC20(funding).transfer(exerciseFeeRecipient, MarketLibrary.cvtDecimals(_exerciseFeeAmount, funding)), \"Failed payment to exerciser.\");}\n      \n      _expiringId = optionVault.getExpiringOptionId();}}\n\n  function calcCapital(bool _net, bool _average) public view returns(uint256 _capital){\n    _capital = optionVault.getGrossCapital(address(this));\n    if(_net){ _capital -= Math.min(optionVault.getMaxHedge() + optionVault.getSellPutCollateral(), _capital);}\n    if(_average){ \n      if(totalSupply() > 0) _capital = MulDiv(_capital , multiplier , totalSupply()); \n      if(totalSupply() == 0 && _capital == 0) _capital = multiplier;}}\n    \n  function addCapital(uint256 _depositAmount) external {\n      uint256 _mintMPTokenAmount = MulDiv(MarketLibrary.cvtDef(_depositAmount, funding), multiplier, calcCapital(false, true));\n      require(ERC20(funding).transferFrom(msg.sender, address(this), _depositAmount));\n      _mint(msg.sender, _mintMPTokenAmount);\n      emit capitalAdded(msg.sender, _depositAmount, _mintMPTokenAmount);}\n\n  function withdrawCapital(uint256 _burnMPTokenAmount) external {\n      uint256 _withdrawValue = MarketLibrary.cvtDecimals(MulDiv(calcCapital(true, true),  _burnMPTokenAmount , multiplier), funding); \n      require(IERC20(funding).balanceOf(address(this)) > _withdrawValue,\"Insufficient balance\");\n      _burn(msg.sender, _burnMPTokenAmount);\n      require(ERC20(funding).transfer(msg.sender, _withdrawValue));\n      emit capitalWithdrawn(msg.sender, _burnMPTokenAmount, _withdrawValue);}\n\n  function tradeSwapAggregate(int256 _underlyingAmt, int256 _fundingAmt, address payable _spender, bytes calldata _calldata, uint256 _gas) external onlyRole(EXCHANGE_ROLE){\n    (uint256 _fromAmt, , address _fromAddress, ) = MarketLibrary.cleanTradeAmounts(_underlyingAmt, _fundingAmt, optionVault.underlying(), optionVault.funding());\n    ERC20(_fromAddress).approve(_spender, _fromAmt);\n    (bool success, bytes memory data) = _spender.call{gas: _gas}(_calldata);\n    emit Response(success, data);}\n\n  function tradeSwaps(int256 _underlyingAmt, int256 _fundingAmt, address _router, uint256 _deadline) external onlyRole(EXCHANGE_ROLE) {\n    (uint256 _fromAmt, uint256 _toAmt, address _fromAddress, address _toAddress) = MarketLibrary.cleanTradeAmounts(_underlyingAmt, _fundingAmt, optionVault.underlying(), optionVault.funding());\n    ERC20(_fromAddress).approve(_router, _fromAmt);\n    address[] memory _path = new address[](2);\n    _path[0]=_fromAddress;\n    _path[1] = _toAddress;\n    IUniswapV2Router02(_router).swapTokensForExactTokens(_toAmt, _fromAmt, _path, address(this), block.timestamp + _deadline );}\n\n  function hedgeTradesForLoans() external onlyRole(EXCHANGE_ROLE) {\n    (int256 _loanTradeAmount, int256 _collateralChange, address _loanAddress, address _collateralAddress) = optionVault.calcLoanTrades(address(this), lendingPoolRateMode);\n    _loanTradeAmount = MarketLibrary.cvtDecimalsInt(_loanTradeAmount, _loanAddress);\n    _collateralChange = MarketLibrary.cvtDecimalsInt(_collateralChange, _collateralAddress);\n    address _lendingPoolAddress = ILendingPoolAddressesProvider(optionVault.aaveAddress()).getLendingPool();\n\n    if(_collateralChange > 0){\n      ERC20(funding).increaseAllowance(_lendingPoolAddress, uint256(_collateralChange));\n      ILendingPool(_lendingPoolAddress).deposit(funding, uint256(_collateralChange), address(this), 0);}\n    \n    if(_loanTradeAmount > 0){\n      ILendingPool(_lendingPoolAddress).borrow(underlying, uint256(_loanTradeAmount), lendingPoolRateMode,  0, address(this));}\n\n    if(_loanTradeAmount < 0){\n      require(ERC20(underlying).balanceOf(address(this))>= uint256(-_loanTradeAmount), \"not enough token to repay loans\");\n      ERC20(_loanAddress).approve(_lendingPoolAddress, uint256(-_loanTradeAmount));\n      ERC20(underlying).approve(_lendingPoolAddress, uint256(-_loanTradeAmount));\n      ILendingPool(_lendingPoolAddress).repay(underlying, uint256(-_loanTradeAmount), lendingPoolRateMode, address(this));}\n\n    if(_collateralChange < 0){\n      ERC20(_collateralAddress).increaseAllowance(_lendingPoolAddress, uint256(-_collateralChange));\n      ILendingPool(_lendingPoolAddress).withdraw(funding, uint256(-_collateralChange), address(this));}}\n\n  function resetSettlementFee(uint256 _newFee) external onlyRole(ADMIN_ROLE){ require(_newFee < multiplier); settlementFee = _newFee;}\n  function resetExerciseFee(uint256 _newFee) external onlyRole(ADMIN_ROLE){ require(_newFee < multiplier); exerciseFee = _newFee;}\n  function resetMaintenance(address _newAddress) external onlyRole(ADMIN_ROLE){ maintenanceAddress = _newAddress;}\n  function resetSlippage(uint256 _slippage) external onlyRole(ADMIN_ROLE){ swapSlippage = _slippage;}\n  function resetLendingPoolRateMode(uint256 _newRateMode) external onlyRole(ADMIN_ROLE) {\n    require(_newRateMode == 1 || _newRateMode == 2);\n    lendingPoolRateMode = _newRateMode;}\n}\n",
  "sourcePath": "/Users/apple/Documents/GitHub/moret/contracts/MoretMarketMaker.sol",
  "compiler": {
    "name": "solc",
    "version": "0.8.10+commit.fc410830.Emscripten.clang"
  },
  "schemaVersion": "3.4.3",
  "updatedAt": "2021-12-02T23:33:24.354Z",
  "networkType": "ethereum",
  "devdoc": {
    "kind": "dev",
    "methods": {
      "allowance(address,address)": {
        "details": "See {IERC20-allowance}."
      },
      "approve(address,uint256)": {
        "details": "See {IERC20-approve}. Requirements: - `spender` cannot be the zero address."
      },
      "balanceOf(address)": {
        "details": "See {IERC20-balanceOf}."
      },
      "decimals()": {
        "details": "Returns the number of decimals used to get its user representation. For example, if `decimals` equals `2`, a balance of `505` tokens should be displayed to a user as `5.05` (`505 / 10 ** 2`). Tokens usually opt for a value of 18, imitating the relationship between Ether and Wei. This is the value {ERC20} uses, unless this function is overridden; NOTE: This information is only used for _display_ purposes: it in no way affects any of the arithmetic of the contract, including {IERC20-balanceOf} and {IERC20-transfer}."
      },
      "decreaseAllowance(address,uint256)": {
        "details": "Atomically decreases the allowance granted to `spender` by the caller. This is an alternative to {approve} that can be used as a mitigation for problems described in {IERC20-approve}. Emits an {Approval} event indicating the updated allowance. Requirements: - `spender` cannot be the zero address. - `spender` must have allowance for the caller of at least `subtractedValue`."
      },
      "getRoleAdmin(bytes32)": {
        "details": "Returns the admin role that controls `role`. See {grantRole} and {revokeRole}. To change a role's admin, use {_setRoleAdmin}."
      },
      "grantRole(bytes32,address)": {
        "details": "Grants `role` to `account`. If `account` had not been already granted `role`, emits a {RoleGranted} event. Requirements: - the caller must have ``role``'s admin role."
      },
      "hasRole(bytes32,address)": {
        "details": "Returns `true` if `account` has been granted `role`."
      },
      "increaseAllowance(address,uint256)": {
        "details": "Atomically increases the allowance granted to `spender` by the caller. This is an alternative to {approve} that can be used as a mitigation for problems described in {IERC20-approve}. Emits an {Approval} event indicating the updated allowance. Requirements: - `spender` cannot be the zero address."
      },
      "name()": {
        "details": "Returns the name of the token."
      },
      "renounceRole(bytes32,address)": {
        "details": "Revokes `role` from the calling account. Roles are often managed via {grantRole} and {revokeRole}: this function's purpose is to provide a mechanism for accounts to lose their privileges if they are compromised (such as when a trusted device is misplaced). If the calling account had been revoked `role`, emits a {RoleRevoked} event. Requirements: - the caller must be `account`."
      },
      "revokeRole(bytes32,address)": {
        "details": "Revokes `role` from `account`. If `account` had been granted `role`, emits a {RoleRevoked} event. Requirements: - the caller must have ``role``'s admin role."
      },
      "supportsInterface(bytes4)": {
        "details": "See {IERC165-supportsInterface}."
      },
      "symbol()": {
        "details": "Returns the symbol of the token, usually a shorter version of the name."
      },
      "totalSupply()": {
        "details": "See {IERC20-totalSupply}."
      },
      "transfer(address,uint256)": {
        "details": "See {IERC20-transfer}. Requirements: - `recipient` cannot be the zero address. - the caller must have a balance of at least `amount`."
      },
      "transferFrom(address,address,uint256)": {
        "details": "See {IERC20-transferFrom}. Emits an {Approval} event indicating the updated allowance. This is not required by the EIP. See the note at the beginning of {ERC20}. Requirements: - `sender` and `recipient` cannot be the zero address. - `sender` must have a balance of at least `amount`. - the caller must have allowance for ``sender``'s tokens of at least `amount`."
      }
    },
    "version": 1
  },
  "userdoc": {
    "kind": "user",
    "methods": {},
    "version": 1
  }
}