{
  "contractName": "MoretMarketMaker",
  "abi": [
    {
      "inputs": [
        {
          "internalType": "string",
          "name": "_name",
          "type": "string"
        },
        {
          "internalType": "string",
          "name": "_symbol",
          "type": "string"
        },
        {
          "internalType": "address",
          "name": "_underlyingAddress",
          "type": "address"
        },
        {
          "internalType": "address",
          "name": "_fundingAddress",
          "type": "address"
        },
        {
          "internalType": "address",
          "name": "_optionAddress",
          "type": "address"
        },
        {
          "internalType": "address",
          "name": "_protocolDataProviderAddress",
          "type": "address"
        }
      ],
      "stateMutability": "nonpayable",
      "type": "constructor"
    },
    {
      "anonymous": false,
      "inputs": [
        {
          "indexed": true,
          "internalType": "address",
          "name": "owner",
          "type": "address"
        },
        {
          "indexed": true,
          "internalType": "address",
          "name": "spender",
          "type": "address"
        },
        {
          "indexed": false,
          "internalType": "uint256",
          "name": "value",
          "type": "uint256"
        }
      ],
      "name": "Approval",
      "type": "event"
    },
    {
      "anonymous": false,
      "inputs": [
        {
          "indexed": true,
          "internalType": "bytes32",
          "name": "role",
          "type": "bytes32"
        },
        {
          "indexed": true,
          "internalType": "bytes32",
          "name": "previousAdminRole",
          "type": "bytes32"
        },
        {
          "indexed": true,
          "internalType": "bytes32",
          "name": "newAdminRole",
          "type": "bytes32"
        }
      ],
      "name": "RoleAdminChanged",
      "type": "event"
    },
    {
      "anonymous": false,
      "inputs": [
        {
          "indexed": true,
          "internalType": "bytes32",
          "name": "role",
          "type": "bytes32"
        },
        {
          "indexed": true,
          "internalType": "address",
          "name": "account",
          "type": "address"
        },
        {
          "indexed": true,
          "internalType": "address",
          "name": "sender",
          "type": "address"
        }
      ],
      "name": "RoleGranted",
      "type": "event"
    },
    {
      "anonymous": false,
      "inputs": [
        {
          "indexed": true,
          "internalType": "bytes32",
          "name": "role",
          "type": "bytes32"
        },
        {
          "indexed": true,
          "internalType": "address",
          "name": "account",
          "type": "address"
        },
        {
          "indexed": true,
          "internalType": "address",
          "name": "sender",
          "type": "address"
        }
      ],
      "name": "RoleRevoked",
      "type": "event"
    },
    {
      "anonymous": false,
      "inputs": [
        {
          "indexed": true,
          "internalType": "address",
          "name": "from",
          "type": "address"
        },
        {
          "indexed": true,
          "internalType": "address",
          "name": "to",
          "type": "address"
        },
        {
          "indexed": false,
          "internalType": "uint256",
          "name": "value",
          "type": "uint256"
        }
      ],
      "name": "Transfer",
      "type": "event"
    },
    {
      "anonymous": false,
      "inputs": [
        {
          "indexed": false,
          "internalType": "address",
          "name": "_recipient",
          "type": "address"
        },
        {
          "indexed": false,
          "internalType": "uint256",
          "name": "_mintMPTokenAmount",
          "type": "uint256"
        },
        {
          "indexed": false,
          "internalType": "uint256",
          "name": "_addedValue",
          "type": "uint256"
        }
      ],
      "name": "capitalAdded",
      "type": "event"
    },
    {
      "anonymous": false,
      "inputs": [
        {
          "indexed": false,
          "internalType": "address",
          "name": "_recipient",
          "type": "address"
        },
        {
          "indexed": false,
          "internalType": "uint256",
          "name": "_burnMPTokenAmount",
          "type": "uint256"
        },
        {
          "indexed": false,
          "internalType": "uint256",
          "name": "_withdrawValue",
          "type": "uint256"
        }
      ],
      "name": "capitalWithdrawn",
      "type": "event"
    },
    {
      "anonymous": false,
      "inputs": [
        {
          "indexed": true,
          "internalType": "address",
          "name": "_purchaser",
          "type": "address"
        },
        {
          "components": [
            {
              "internalType": "enum OptionLibrary.PayoffType",
              "name": "poType",
              "type": "uint8"
            },
            {
              "internalType": "enum OptionLibrary.OptionSide",
              "name": "side",
              "type": "uint8"
            },
            {
              "internalType": "enum OptionLibrary.OptionStatus",
              "name": "status",
              "type": "uint8"
            },
            {
              "internalType": "address",
              "name": "holder",
              "type": "address"
            },
            {
              "internalType": "uint256",
              "name": "id",
              "type": "uint256"
            },
            {
              "internalType": "uint256",
              "name": "createTime",
              "type": "uint256"
            },
            {
              "internalType": "uint256",
              "name": "effectiveTime",
              "type": "uint256"
            },
            {
              "internalType": "uint256",
              "name": "tenor",
              "type": "uint256"
            },
            {
              "internalType": "uint256",
              "name": "maturity",
              "type": "uint256"
            },
            {
              "internalType": "uint256",
              "name": "exerciseTime",
              "type": "uint256"
            },
            {
              "internalType": "uint256",
              "name": "amount",
              "type": "uint256"
            },
            {
              "internalType": "uint256",
              "name": "spot",
              "type": "uint256"
            },
            {
              "internalType": "uint256",
              "name": "strike",
              "type": "uint256"
            },
            {
              "internalType": "uint256",
              "name": "volatility",
              "type": "uint256"
            },
            {
              "internalType": "uint256",
              "name": "premium",
              "type": "uint256"
            },
            {
              "internalType": "uint256",
              "name": "cost",
              "type": "uint256"
            }
          ],
          "indexed": false,
          "internalType": "struct OptionLibrary.Option",
          "name": "_option",
          "type": "tuple"
        },
        {
          "indexed": false,
          "internalType": "uint256",
          "name": "_cost",
          "type": "uint256"
        },
        {
          "indexed": false,
          "internalType": "bool",
          "name": "_inVol",
          "type": "bool"
        }
      ],
      "name": "newOptionBought",
      "type": "event"
    },
    {
      "anonymous": false,
      "inputs": [
        {
          "indexed": false,
          "internalType": "address",
          "name": "_purchaser",
          "type": "address"
        },
        {
          "indexed": false,
          "internalType": "uint256",
          "name": "_time",
          "type": "uint256"
        },
        {
          "indexed": false,
          "internalType": "uint256",
          "name": "_tenor",
          "type": "uint256"
        },
        {
          "indexed": false,
          "internalType": "uint256",
          "name": "_amount",
          "type": "uint256"
        }
      ],
      "name": "newVolatilityTokenBought",
      "type": "event"
    },
    {
      "anonymous": false,
      "inputs": [
        {
          "indexed": true,
          "internalType": "address",
          "name": "_purchaser",
          "type": "address"
        },
        {
          "components": [
            {
              "internalType": "enum OptionLibrary.PayoffType",
              "name": "poType",
              "type": "uint8"
            },
            {
              "internalType": "enum OptionLibrary.OptionSide",
              "name": "side",
              "type": "uint8"
            },
            {
              "internalType": "enum OptionLibrary.OptionStatus",
              "name": "status",
              "type": "uint8"
            },
            {
              "internalType": "address",
              "name": "holder",
              "type": "address"
            },
            {
              "internalType": "uint256",
              "name": "id",
              "type": "uint256"
            },
            {
              "internalType": "uint256",
              "name": "createTime",
              "type": "uint256"
            },
            {
              "internalType": "uint256",
              "name": "effectiveTime",
              "type": "uint256"
            },
            {
              "internalType": "uint256",
              "name": "tenor",
              "type": "uint256"
            },
            {
              "internalType": "uint256",
              "name": "maturity",
              "type": "uint256"
            },
            {
              "internalType": "uint256",
              "name": "exerciseTime",
              "type": "uint256"
            },
            {
              "internalType": "uint256",
              "name": "amount",
              "type": "uint256"
            },
            {
              "internalType": "uint256",
              "name": "spot",
              "type": "uint256"
            },
            {
              "internalType": "uint256",
              "name": "strike",
              "type": "uint256"
            },
            {
              "internalType": "uint256",
              "name": "volatility",
              "type": "uint256"
            },
            {
              "internalType": "uint256",
              "name": "premium",
              "type": "uint256"
            },
            {
              "internalType": "uint256",
              "name": "cost",
              "type": "uint256"
            }
          ],
          "indexed": false,
          "internalType": "struct OptionLibrary.Option",
          "name": "_option",
          "type": "tuple"
        },
        {
          "indexed": false,
          "internalType": "uint256",
          "name": "_payoff",
          "type": "uint256"
        }
      ],
      "name": "optionExercised",
      "type": "event"
    },
    {
      "inputs": [],
      "name": "ADMIN_ROLE",
      "outputs": [
        {
          "internalType": "bytes32",
          "name": "",
          "type": "bytes32"
        }
      ],
      "stateMutability": "view",
      "type": "function"
    },
    {
      "inputs": [],
      "name": "DEFAULT_ADMIN_ROLE",
      "outputs": [
        {
          "internalType": "bytes32",
          "name": "",
          "type": "bytes32"
        }
      ],
      "stateMutability": "view",
      "type": "function"
    },
    {
      "inputs": [],
      "name": "EXCHANGE_ROLE",
      "outputs": [
        {
          "internalType": "bytes32",
          "name": "",
          "type": "bytes32"
        }
      ],
      "stateMutability": "view",
      "type": "function"
    },
    {
      "inputs": [
        {
          "internalType": "address",
          "name": "owner",
          "type": "address"
        },
        {
          "internalType": "address",
          "name": "spender",
          "type": "address"
        }
      ],
      "name": "allowance",
      "outputs": [
        {
          "internalType": "uint256",
          "name": "",
          "type": "uint256"
        }
      ],
      "stateMutability": "view",
      "type": "function"
    },
    {
      "inputs": [
        {
          "internalType": "address",
          "name": "spender",
          "type": "address"
        },
        {
          "internalType": "uint256",
          "name": "amount",
          "type": "uint256"
        }
      ],
      "name": "approve",
      "outputs": [
        {
          "internalType": "bool",
          "name": "",
          "type": "bool"
        }
      ],
      "stateMutability": "nonpayable",
      "type": "function"
    },
    {
      "inputs": [
        {
          "internalType": "address",
          "name": "account",
          "type": "address"
        }
      ],
      "name": "balanceOf",
      "outputs": [
        {
          "internalType": "uint256",
          "name": "",
          "type": "uint256"
        }
      ],
      "stateMutability": "view",
      "type": "function"
    },
    {
      "inputs": [],
      "name": "decimals",
      "outputs": [
        {
          "internalType": "uint8",
          "name": "",
          "type": "uint8"
        }
      ],
      "stateMutability": "view",
      "type": "function"
    },
    {
      "inputs": [
        {
          "internalType": "address",
          "name": "spender",
          "type": "address"
        },
        {
          "internalType": "uint256",
          "name": "subtractedValue",
          "type": "uint256"
        }
      ],
      "name": "decreaseAllowance",
      "outputs": [
        {
          "internalType": "bool",
          "name": "",
          "type": "bool"
        }
      ],
      "stateMutability": "nonpayable",
      "type": "function"
    },
    {
      "inputs": [],
      "name": "exerciseFee",
      "outputs": [
        {
          "internalType": "uint256",
          "name": "",
          "type": "uint256"
        }
      ],
      "stateMutability": "view",
      "type": "function"
    },
    {
      "inputs": [],
      "name": "extraCollateral",
      "outputs": [
        {
          "internalType": "uint256",
          "name": "",
          "type": "uint256"
        }
      ],
      "stateMutability": "view",
      "type": "function"
    },
    {
      "inputs": [],
      "name": "fundingAddress",
      "outputs": [
        {
          "internalType": "address",
          "name": "",
          "type": "address"
        }
      ],
      "stateMutability": "view",
      "type": "function"
    },
    {
      "inputs": [
        {
          "internalType": "bytes32",
          "name": "role",
          "type": "bytes32"
        }
      ],
      "name": "getRoleAdmin",
      "outputs": [
        {
          "internalType": "bytes32",
          "name": "",
          "type": "bytes32"
        }
      ],
      "stateMutability": "view",
      "type": "function"
    },
    {
      "inputs": [
        {
          "internalType": "bytes32",
          "name": "role",
          "type": "bytes32"
        },
        {
          "internalType": "address",
          "name": "account",
          "type": "address"
        }
      ],
      "name": "grantRole",
      "outputs": [],
      "stateMutability": "nonpayable",
      "type": "function"
    },
    {
      "inputs": [
        {
          "internalType": "bytes32",
          "name": "role",
          "type": "bytes32"
        },
        {
          "internalType": "address",
          "name": "account",
          "type": "address"
        }
      ],
      "name": "hasRole",
      "outputs": [
        {
          "internalType": "bool",
          "name": "",
          "type": "bool"
        }
      ],
      "stateMutability": "view",
      "type": "function"
    },
    {
      "inputs": [
        {
          "internalType": "address",
          "name": "spender",
          "type": "address"
        },
        {
          "internalType": "uint256",
          "name": "addedValue",
          "type": "uint256"
        }
      ],
      "name": "increaseAllowance",
      "outputs": [
        {
          "internalType": "bool",
          "name": "",
          "type": "bool"
        }
      ],
      "stateMutability": "nonpayable",
      "type": "function"
    },
    {
      "inputs": [],
      "name": "name",
      "outputs": [
        {
          "internalType": "string",
          "name": "",
          "type": "string"
        }
      ],
      "stateMutability": "view",
      "type": "function"
    },
    {
      "inputs": [
        {
          "internalType": "bytes32",
          "name": "role",
          "type": "bytes32"
        },
        {
          "internalType": "address",
          "name": "account",
          "type": "address"
        }
      ],
      "name": "renounceRole",
      "outputs": [],
      "stateMutability": "nonpayable",
      "type": "function"
    },
    {
      "inputs": [
        {
          "internalType": "bytes32",
          "name": "role",
          "type": "bytes32"
        },
        {
          "internalType": "address",
          "name": "account",
          "type": "address"
        }
      ],
      "name": "revokeRole",
      "outputs": [],
      "stateMutability": "nonpayable",
      "type": "function"
    },
    {
      "inputs": [],
      "name": "settlementFee",
      "outputs": [
        {
          "internalType": "uint256",
          "name": "",
          "type": "uint256"
        }
      ],
      "stateMutability": "view",
      "type": "function"
    },
    {
      "inputs": [
        {
          "internalType": "bytes4",
          "name": "interfaceId",
          "type": "bytes4"
        }
      ],
      "name": "supportsInterface",
      "outputs": [
        {
          "internalType": "bool",
          "name": "",
          "type": "bool"
        }
      ],
      "stateMutability": "view",
      "type": "function"
    },
    {
      "inputs": [],
      "name": "symbol",
      "outputs": [
        {
          "internalType": "string",
          "name": "",
          "type": "string"
        }
      ],
      "stateMutability": "view",
      "type": "function"
    },
    {
      "inputs": [],
      "name": "totalSupply",
      "outputs": [
        {
          "internalType": "uint256",
          "name": "",
          "type": "uint256"
        }
      ],
      "stateMutability": "view",
      "type": "function"
    },
    {
      "inputs": [
        {
          "internalType": "address",
          "name": "recipient",
          "type": "address"
        },
        {
          "internalType": "uint256",
          "name": "amount",
          "type": "uint256"
        }
      ],
      "name": "transfer",
      "outputs": [
        {
          "internalType": "bool",
          "name": "",
          "type": "bool"
        }
      ],
      "stateMutability": "nonpayable",
      "type": "function"
    },
    {
      "inputs": [
        {
          "internalType": "address",
          "name": "sender",
          "type": "address"
        },
        {
          "internalType": "address",
          "name": "recipient",
          "type": "address"
        },
        {
          "internalType": "uint256",
          "name": "amount",
          "type": "uint256"
        }
      ],
      "name": "transferFrom",
      "outputs": [
        {
          "internalType": "bool",
          "name": "",
          "type": "bool"
        }
      ],
      "stateMutability": "nonpayable",
      "type": "function"
    },
    {
      "inputs": [],
      "name": "underlyingAddress",
      "outputs": [
        {
          "internalType": "address",
          "name": "",
          "type": "address"
        }
      ],
      "stateMutability": "view",
      "type": "function"
    },
    {
      "inputs": [
        {
          "internalType": "address",
          "name": "_purchaser",
          "type": "address"
        },
        {
          "internalType": "uint256",
          "name": "_id",
          "type": "uint256"
        }
      ],
      "name": "recordOptionPurchase",
      "outputs": [],
      "stateMutability": "nonpayable",
      "type": "function"
    },
    {
      "inputs": [
        {
          "internalType": "bool",
          "name": "_ignoreSells",
          "type": "bool"
        }
      ],
      "name": "getAggregateGamma",
      "outputs": [
        {
          "internalType": "int256",
          "name": "_gamma",
          "type": "int256"
        }
      ],
      "stateMutability": "view",
      "type": "function"
    },
    {
      "inputs": [],
      "name": "getBalances",
      "outputs": [
        {
          "internalType": "uint256",
          "name": "_underlyingBalance",
          "type": "uint256"
        },
        {
          "internalType": "uint256",
          "name": "_fundingBalance",
          "type": "uint256"
        },
        {
          "internalType": "uint256",
          "name": "_collateralBalance",
          "type": "uint256"
        },
        {
          "internalType": "uint256",
          "name": "_debtBalance",
          "type": "uint256"
        }
      ],
      "stateMutability": "view",
      "type": "function"
    },
    {
      "inputs": [],
      "name": "anyOptionExpiring",
      "outputs": [
        {
          "internalType": "bool",
          "name": "_isExpiring",
          "type": "bool"
        }
      ],
      "stateMutability": "view",
      "type": "function"
    },
    {
      "inputs": [],
      "name": "expireOptions",
      "outputs": [
        {
          "internalType": "uint256",
          "name": "_expiringId",
          "type": "uint256"
        }
      ],
      "stateMutability": "nonpayable",
      "type": "function"
    },
    {
      "inputs": [
        {
          "internalType": "bool",
          "name": "_net",
          "type": "bool"
        },
        {
          "internalType": "bool",
          "name": "_average",
          "type": "bool"
        }
      ],
      "name": "calcCapital",
      "outputs": [
        {
          "internalType": "uint256",
          "name": "_capital",
          "type": "uint256"
        }
      ],
      "stateMutability": "view",
      "type": "function"
    },
    {
      "inputs": [
        {
          "internalType": "uint256",
          "name": "_depositAmount",
          "type": "uint256"
        }
      ],
      "name": "addCapital",
      "outputs": [],
      "stateMutability": "nonpayable",
      "type": "function"
    },
    {
      "inputs": [
        {
          "internalType": "uint256",
          "name": "_burnMPTokenAmount",
          "type": "uint256"
        }
      ],
      "name": "withdrawCapital",
      "outputs": [],
      "stateMutability": "nonpayable",
      "type": "function"
    },
    {
      "inputs": [],
      "name": "calcHedgeTrade",
      "outputs": [
        {
          "internalType": "uint256",
          "name": "_targetUnderlying",
          "type": "uint256"
        },
        {
          "internalType": "int256",
          "name": "_chgDebt",
          "type": "int256"
        },
        {
          "internalType": "int256",
          "name": "_chgCollateral",
          "type": "int256"
        }
      ],
      "stateMutability": "view",
      "type": "function"
    },
    {
      "inputs": [
        {
          "internalType": "address",
          "name": "_tokenAddress",
          "type": "address"
        },
        {
          "internalType": "address",
          "name": "_exchangeAddress",
          "type": "address"
        },
        {
          "internalType": "uint256",
          "name": "_amount",
          "type": "uint256"
        }
      ],
      "name": "approveSpending",
      "outputs": [],
      "stateMutability": "nonpayable",
      "type": "function"
    },
    {
      "inputs": [
        {
          "internalType": "uint256",
          "name": "_addCollateral",
          "type": "uint256"
        },
        {
          "internalType": "address",
          "name": "_lendingPoolAddress",
          "type": "address"
        }
      ],
      "name": "depositCollateral",
      "outputs": [],
      "stateMutability": "nonpayable",
      "type": "function"
    },
    {
      "inputs": [
        {
          "internalType": "uint256",
          "name": "_removeCollateral",
          "type": "uint256"
        },
        {
          "internalType": "address",
          "name": "_lendingPoolAddress",
          "type": "address"
        }
      ],
      "name": "withdrawCollateral",
      "outputs": [],
      "stateMutability": "nonpayable",
      "type": "function"
    },
    {
      "inputs": [
        {
          "internalType": "uint256",
          "name": "_borrowAmount",
          "type": "uint256"
        },
        {
          "internalType": "address",
          "name": "_lendingPoolAddress",
          "type": "address"
        },
        {
          "internalType": "uint256",
          "name": "_lendingPoolRateMode",
          "type": "uint256"
        }
      ],
      "name": "borrowLoans",
      "outputs": [],
      "stateMutability": "nonpayable",
      "type": "function"
    },
    {
      "inputs": [
        {
          "internalType": "uint256",
          "name": "_repayAmount",
          "type": "uint256"
        },
        {
          "internalType": "address",
          "name": "_lendingPoolAddress",
          "type": "address"
        },
        {
          "internalType": "uint256",
          "name": "_lendingPoolRateMode",
          "type": "uint256"
        }
      ],
      "name": "repayLoans",
      "outputs": [],
      "stateMutability": "nonpayable",
      "type": "function"
    },
    {
      "inputs": [
        {
          "internalType": "uint256",
          "name": "_underlyingAmount",
          "type": "uint256"
        },
        {
          "internalType": "address",
          "name": "_exchangeAddress",
          "type": "address"
        },
        {
          "internalType": "uint256",
          "name": "_maxSlippage",
          "type": "uint256"
        },
        {
          "internalType": "uint256",
          "name": "_deadlineLag",
          "type": "uint256"
        }
      ],
      "name": "swapToUnderlyingAtVenue",
      "outputs": [
        {
          "internalType": "uint256[]",
          "name": "_swappedAmounts",
          "type": "uint256[]"
        }
      ],
      "stateMutability": "nonpayable",
      "type": "function"
    },
    {
      "inputs": [
        {
          "internalType": "uint256",
          "name": "_underlyingAmount",
          "type": "uint256"
        },
        {
          "internalType": "address",
          "name": "_exchangeAddress",
          "type": "address"
        },
        {
          "internalType": "uint256",
          "name": "_maxSlippage",
          "type": "uint256"
        },
        {
          "internalType": "uint256",
          "name": "_deadlineLag",
          "type": "uint256"
        }
      ],
      "name": "swapToFundingAtVenue",
      "outputs": [
        {
          "internalType": "uint256[]",
          "name": "_swappedAmounts",
          "type": "uint256[]"
        }
      ],
      "stateMutability": "nonpayable",
      "type": "function"
    },
    {
      "inputs": [
        {
          "internalType": "uint256",
          "name": "_underlyingAmount",
          "type": "uint256"
        },
        {
          "internalType": "address",
          "name": "_exchangeAddress",
          "type": "address"
        },
        {
          "internalType": "uint256",
          "name": "_maxSlippage",
          "type": "uint256"
        }
      ],
      "name": "swapToUnderlyingAtAggregator",
      "outputs": [
        {
          "internalType": "uint256",
          "name": "_swappedAmounts",
          "type": "uint256"
        },
        {
          "internalType": "uint256",
          "name": "_swappedUnderlying",
          "type": "uint256"
        }
      ],
      "stateMutability": "nonpayable",
      "type": "function"
    },
    {
      "inputs": [
        {
          "internalType": "uint256",
          "name": "_underlyingAmount",
          "type": "uint256"
        },
        {
          "internalType": "address",
          "name": "_exchangeAddress",
          "type": "address"
        },
        {
          "internalType": "uint256",
          "name": "_maxSlippage",
          "type": "uint256"
        }
      ],
      "name": "swapToFundingAtAggregator",
      "outputs": [
        {
          "internalType": "uint256",
          "name": "_swappedAmounts",
          "type": "uint256"
        }
      ],
      "stateMutability": "nonpayable",
      "type": "function"
    },
    {
      "inputs": [
        {
          "internalType": "uint256",
          "name": "_newFee",
          "type": "uint256"
        }
      ],
      "name": "resetSettlementFee",
      "outputs": [],
      "stateMutability": "nonpayable",
      "type": "function"
    },
    {
      "inputs": [
        {
          "internalType": "uint256",
          "name": "_newFee",
          "type": "uint256"
        }
      ],
      "name": "resetExerciseFee",
      "outputs": [],
      "stateMutability": "nonpayable",
      "type": "function"
    },
    {
      "inputs": [
        {
          "internalType": "address",
          "name": "_newAddress",
          "type": "address"
        }
      ],
      "name": "resetMaintenance",
      "outputs": [],
      "stateMutability": "nonpayable",
      "type": "function"
    },
    {
      "inputs": [
        {
          "internalType": "address",
          "name": "_address",
          "type": "address"
        }
      ],
      "name": "getHoldersOptionCount",
      "outputs": [
        {
          "internalType": "uint256",
          "name": "",
          "type": "uint256"
        }
      ],
      "stateMutability": "view",
      "type": "function"
    },
    {
      "inputs": [
        {
          "internalType": "uint256",
          "name": "_index",
          "type": "uint256"
        },
        {
          "internalType": "address",
          "name": "_address",
          "type": "address"
        }
      ],
      "name": "getHoldersOption",
      "outputs": [
        {
          "components": [
            {
              "internalType": "enum OptionLibrary.PayoffType",
              "name": "poType",
              "type": "uint8"
            },
            {
              "internalType": "enum OptionLibrary.OptionSide",
              "name": "side",
              "type": "uint8"
            },
            {
              "internalType": "enum OptionLibrary.OptionStatus",
              "name": "status",
              "type": "uint8"
            },
            {
              "internalType": "address",
              "name": "holder",
              "type": "address"
            },
            {
              "internalType": "uint256",
              "name": "id",
              "type": "uint256"
            },
            {
              "internalType": "uint256",
              "name": "createTime",
              "type": "uint256"
            },
            {
              "internalType": "uint256",
              "name": "effectiveTime",
              "type": "uint256"
            },
            {
              "internalType": "uint256",
              "name": "tenor",
              "type": "uint256"
            },
            {
              "internalType": "uint256",
              "name": "maturity",
              "type": "uint256"
            },
            {
              "internalType": "uint256",
              "name": "exerciseTime",
              "type": "uint256"
            },
            {
              "internalType": "uint256",
              "name": "amount",
              "type": "uint256"
            },
            {
              "internalType": "uint256",
              "name": "spot",
              "type": "uint256"
            },
            {
              "internalType": "uint256",
              "name": "strike",
              "type": "uint256"
            },
            {
              "internalType": "uint256",
              "name": "volatility",
              "type": "uint256"
            },
            {
              "internalType": "uint256",
              "name": "premium",
              "type": "uint256"
            },
            {
              "internalType": "uint256",
              "name": "cost",
              "type": "uint256"
            }
          ],
          "internalType": "struct OptionLibrary.Option",
          "name": "",
          "type": "tuple"
        }
      ],
      "stateMutability": "view",
      "type": "function"
    }
  ],
  "bytecode": "0x60806040526611c37937e080006009556611c37937e08000600a556710a741a462780000600b553480156200003357600080fd5b506040516200804f3803806200804f83398181016040528101906200005991906200080a565b858581600390805190602001906200007392919062000558565b5080600490805190602001906200008c92919062000558565b505050620000a46000801b336200027360201b60201c565b620000d67fa49807205ce4d355092ef5a8a18f56e8913cf4a201fbe287825b095693c21775336200027360201b60201c565b620001087f28d62fc77014de57a1bbaa8212ff0979fa61ab00d377b4b8d9762048fb419961336200027360201b60201c565b33600f60006101000a81548173ffffffffffffffffffffffffffffffffffffffff021916908373ffffffffffffffffffffffffffffffffffffffff16021790555082600e60006101000a81548173ffffffffffffffffffffffffffffffffffffffff021916908373ffffffffffffffffffffffffffffffffffffffff16021790555083600d60006101000a81548173ffffffffffffffffffffffffffffffffffffffff021916908373ffffffffffffffffffffffffffffffffffffffff16021790555081600c60006101000a81548173ffffffffffffffffffffffffffffffffffffffff021916908373ffffffffffffffffffffffffffffffffffffffff16021790555080601060006101000a81548173ffffffffffffffffffffffffffffffffffffffff021916908373ffffffffffffffffffffffffffffffffffffffff1602179055506200026733670de0b6b3a76400006200028960201b60201c565b50505050505062000a90565b620002858282620003ee60201b60201c565b5050565b600073ffffffffffffffffffffffffffffffffffffffff168273ffffffffffffffffffffffffffffffffffffffff161415620002fc576040517f08c379a0000000000000000000000000000000000000000000000000000000008152600401620002f39062000945565b60405180910390fd5b6200031060008383620004e060201b60201c565b8060026000828254620003249190620009a0565b92505081905550806000808473ffffffffffffffffffffffffffffffffffffffff1673ffffffffffffffffffffffffffffffffffffffff16815260200190815260200160002060008282546200037b9190620009a0565b925050819055508173ffffffffffffffffffffffffffffffffffffffff16600073ffffffffffffffffffffffffffffffffffffffff167fddf252ad1be2c89b69c2b068fc378daa952ba7f163c4a11628f55a4df523b3ef83604051620003e2919062000a0e565b60405180910390a35050565b620004008282620004e560201b60201c565b620004dc5760016005600084815260200190815260200160002060000160008373ffffffffffffffffffffffffffffffffffffffff1673ffffffffffffffffffffffffffffffffffffffff16815260200190815260200160002060006101000a81548160ff021916908315150217905550620004816200055060201b60201c565b73ffffffffffffffffffffffffffffffffffffffff168173ffffffffffffffffffffffffffffffffffffffff16837f2f8788117e7eff1d82e926ec794901d17c78024a50270940304540a733656f0d60405160405180910390a45b5050565b505050565b60006005600084815260200190815260200160002060000160008373ffffffffffffffffffffffffffffffffffffffff1673ffffffffffffffffffffffffffffffffffffffff16815260200190815260200160002060009054906101000a900460ff16905092915050565b600033905090565b828054620005669062000a5a565b90600052602060002090601f0160209004810192826200058a5760008555620005d6565b82601f10620005a557805160ff1916838001178555620005d6565b82800160010185558215620005d6579182015b82811115620005d5578251825591602001919060010190620005b8565b5b509050620005e59190620005e9565b5090565b5b8082111562000604576000816000905550600101620005ea565b5090565b6000604051905090565b600080fd5b600080fd5b600080fd5b600080fd5b6000601f19601f8301169050919050565b7f4e487b7100000000000000000000000000000000000000000000000000000000600052604160045260246000fd5b620006718262000626565b810181811067ffffffffffffffff8211171562000693576200069262000637565b5b80604052505050565b6000620006a862000608565b9050620006b6828262000666565b919050565b600067ffffffffffffffff821115620006d957620006d862000637565b5b620006e48262000626565b9050602081019050919050565b60005b8381101562000711578082015181840152602081019050620006f4565b8381111562000721576000848401525b50505050565b60006200073e6200073884620006bb565b6200069c565b9050828152602081018484840111156200075d576200075c62000621565b5b6200076a848285620006f1565b509392505050565b600082601f8301126200078a57620007896200061c565b5b81516200079c84826020860162000727565b91505092915050565b600073ffffffffffffffffffffffffffffffffffffffff82169050919050565b6000620007d282620007a5565b9050919050565b620007e481620007c5565b8114620007f057600080fd5b50565b6000815190506200080481620007d9565b92915050565b60008060008060008060c087890312156200082a576200082962000612565b5b600087015167ffffffffffffffff8111156200084b576200084a62000617565b5b6200085989828a0162000772565b965050602087015167ffffffffffffffff8111156200087d576200087c62000617565b5b6200088b89828a0162000772565b95505060406200089e89828a01620007f3565b9450506060620008b189828a01620007f3565b9350506080620008c489828a01620007f3565b92505060a0620008d789828a01620007f3565b9150509295509295509295565b600082825260208201905092915050565b7f45524332303a206d696e7420746f20746865207a65726f206164647265737300600082015250565b60006200092d601f83620008e4565b91506200093a82620008f5565b602082019050919050565b6000602082019050818103600083015262000960816200091e565b9050919050565b6000819050919050565b7f4e487b7100000000000000000000000000000000000000000000000000000000600052601160045260246000fd5b6000620009ad8262000967565b9150620009ba8362000967565b9250827fffffffffffffffffffffffffffffffffffffffffffffffffffffffffffffffff03821115620009f257620009f162000971565b5b828201905092915050565b62000a088162000967565b82525050565b600060208201905062000a256000830184620009fd565b92915050565b7f4e487b7100000000000000000000000000000000000000000000000000000000600052602260045260246000fd5b6000600282049050600182168062000a7357607f821691505b6020821081141562000a8a5762000a8962000a2b565b5b50919050565b6175af8062000aa06000396000f3fe608060405234801561001057600080fd5b506004361061029f5760003560e01c80637d1d7fb811610167578063bea10f96116100ce578063d8a14cbe11610087578063d8a14cbe146108a0578063d95b0a12146108bc578063dd62ed3e146108d8578063e084d96214610908578063eaa2b0b514610938578063ecc513f0146109565761029f565b8063bea10f96146107df578063bf546331146107fb578063c6e685c014610817578063d1c699aa14610848578063d3b7bfb414610866578063d547741f146108845761029f565b80639462ad65116101205780639462ad65146106e357806395d89b4114610713578063a217fddf14610731578063a42b66261461074f578063a457c2d71461077f578063a9059cbb146107af5761029f565b80637d1d7fb81461060f57806380110e991461062d5780638a0687d2146106495780638a9450fe1461067957806390618ed91461069557806391d14854146106b35761029f565b8063313ce5671161020b578063481fef8a116101c4578063481fef8a146105275780635502cf241461054357806363447902146105615780637029c35a1461059157806370a08231146105c157806375b238fc146105f15761029f565b8063313ce5671461046757806336568abe1461048557806339509351146104a15780633b734501146104d157806345b2f91c146104ef57806346c777d81461050b5761029f565b806318160ddd1161025d57806318160ddd1461038f5780632140ea67146103ad57806321fccce9146103cb57806323b872dd146103eb578063248a9ca31461041b5780632f2ff15d1461044b5761029f565b8062113e08146102a457806301ffc9a7146102c557806306fdde03146102f5578063095ea7b3146103135780630af504cc1461034357806317e8e22b1461035f575b600080fd5b6102ac610972565b6040516102bc94939291906151bb565b60405180910390f35b6102df60048036038101906102da919061526c565b610b2f565b6040516102ec91906152b4565b60405180910390f35b6102fd610ba9565b60405161030a9190615368565b60405180910390f35b61032d60048036038101906103289190615414565b610c3b565b60405161033a91906152b4565b60405180910390f35b61035d60048036038101906103589190615454565b610c59565b005b61037960048036038101906103749190615494565b610ea4565b60405161038691906155b9565b60405180910390f35b610397611246565b6040516103a491906155db565b60405180910390f35b6103b5611250565b6040516103c29190615605565b60405180910390f35b6103d3611276565b6040516103e293929190615639565b60405180910390f35b61040560048036038101906104009190615670565b611492565b60405161041291906152b4565b60405180910390f35b610435600480360381019061043091906156f9565b611593565b6040516104429190615735565b60405180910390f35b61046560048036038101906104609190615750565b6115b3565b005b61046f6115dc565b60405161047c91906157ac565b60405180910390f35b61049f600480360381019061049a9190615750565b6115e5565b005b6104bb60048036038101906104b69190615414565b611668565b6040516104c891906152b4565b60405180910390f35b6104d9611714565b6040516104e69190615735565b60405180910390f35b610509600480360381019061050491906157c7565b611738565b005b610525600480360381019061052091906157f4565b6117af565b005b610541600480360381019061053c9190615454565b611800565b005b61054b61197b565b60405161055891906155db565b60405180910390f35b61057b6004803603810190610576919061584d565b611981565b60405161058891906155db565b60405180910390f35b6105ab60048036038101906105a6919061588d565b611b1c565b6040516105b891906155db565b60405180910390f35b6105db60048036038101906105d691906157c7565b611ee5565b6040516105e891906155db565b60405180910390f35b6105f9611f2d565b6040516106069190615735565b60405180910390f35b610617611f51565b60405161062491906155db565b60405180910390f35b6106476004803603810190610642919061588d565b611f57565b005b610663600480360381019061065e9190615454565b612265565b6040516106709190615b40565b60405180910390f35b610693600480360381019061068e9190615414565b612371565b005b61069d61240f565b6040516106aa91906152b4565b60405180910390f35b6106cd60048036038101906106c89190615750565b612507565b6040516106da91906152b4565b60405180910390f35b6106fd60048036038101906106f89190615b5c565b612572565b60405161070a9190615b89565b60405180910390f35b61071b612753565b6040516107289190615368565b60405180910390f35b6107396127e5565b6040516107469190615735565b60405180910390f35b610769600480360381019061076491906157c7565b6127ec565b60405161077691906155db565b60405180910390f35b61079960048036038101906107949190615414565b61283c565b6040516107a691906152b4565b60405180910390f35b6107c960048036038101906107c49190615414565b612930565b6040516107d691906152b4565b60405180910390f35b6107f960048036038101906107f491906157f4565b61294e565b005b6108156004803603810190610810919061588d565b612a79565b005b610831600480360381019061082c919061588d565b612b47565b60405161083f929190615ba4565b60405180910390f35b610850612ed2565b60405161085d91906155db565b60405180910390f35b61086e612ed8565b60405161087b9190615605565b60405180910390f35b61089e60048036038101906108999190615750565b612efe565b005b6108ba60048036038101906108b59190615670565b612f27565b005b6108d660048036038101906108d191906157f4565b612fed565b005b6108f260048036038101906108ed9190615bcd565b6131fb565b6040516108ff91906155db565b60405180910390f35b610922600480360381019061091d9190615494565b613282565b60405161092f91906155b9565b60405180910390f35b610940613624565b60405161094d91906155db565b60405180910390f35b610970600480360381019061096b91906157f4565b613dba565b005b60008060008073__MarketLibrary_________________________6332c21e1330601060009054906101000a900473ffffffffffffffffffffffffffffffffffffffff16600d60009054906101000a900473ffffffffffffffffffffffffffffffffffffffff166040518463ffffffff1660e01b81526004016109f793929190615c1c565b60606040518083038186803b158015610a0f57600080fd5b505af4158015610a23573d6000803e3d6000fd5b505050506040513d601f19601f82011682018060405250810190610a479190615c68565b9050809250819550505073__MarketLibrary_________________________6332c21e1330601060009054906101000a900473ffffffffffffffffffffffffffffffffffffffff16600e60009054906101000a900473ffffffffffffffffffffffffffffffffffffffff166040518463ffffffff1660e01b8152600401610ad093929190615c1c565b60606040518083038186803b158015610ae857600080fd5b505af4158015610afc573d6000803e3d6000fd5b505050506040513d601f19601f82011682018060405250810190610b209190615c68565b50809350819450505090919293565b60007f7965db0b000000000000000000000000000000000000000000000000000000007bffffffffffffffffffffffffffffffffffffffffffffffffffffffff1916827bffffffffffffffffffffffffffffffffffffffffffffffffffffffff19161480610ba25750610ba182613e0b565b5b9050919050565b606060038054610bb890615cea565b80601f0160208091040260200160405190810160405280929190818152602001828054610be490615cea565b8015610c315780601f10610c0657610100808354040283529160200191610c31565b820191906000526020600020905b815481529060010190602001808311610c1457829003601f168201915b5050505050905090565b6000610c4f610c48613e75565b8484613e7d565b6001905092915050565b7f28d62fc77014de57a1bbaa8212ff0979fa61ab00d377b4b8d9762048fb419961610c8b81610c86613e75565b614048565b600073__MarketLibrary_________________________638684fd28601060009054906101000a900473ffffffffffffffffffffffffffffffffffffffff16600e60009054906101000a900473ffffffffffffffffffffffffffffffffffffffff166040518363ffffffff1660e01b8152600401610d0a929190615d1c565b60606040518083038186803b158015610d2257600080fd5b505af4158015610d36573d6000803e3d6000fd5b505050506040513d601f19601f82011682018060405250810190610d5a9190615d5a565b505090508073ffffffffffffffffffffffffffffffffffffffff16633950935184866040518363ffffffff1660e01b8152600401610d99929190615dad565b602060405180830381600087803b158015610db357600080fd5b505af1158015610dc7573d6000803e3d6000fd5b505050506040513d601f19601f82011682018060405250810190610deb9190615deb565b508273ffffffffffffffffffffffffffffffffffffffff166369328dec600e60009054906101000a900473ffffffffffffffffffffffffffffffffffffffff1686306040518463ffffffff1660e01b8152600401610e4b93929190615e18565b602060405180830381600087803b158015610e6557600080fd5b505af1158015610e79573d6000803e3d6000fd5b505050506040513d601f19601f82011682018060405250810190610e9d9190615e4f565b5050505050565b60607f28d62fc77014de57a1bbaa8212ff0979fa61ab00d377b4b8d9762048fb419961610ed881610ed3613e75565b614048565b6000600267ffffffffffffffff811115610ef557610ef4615e7c565b5b604051908082528060200260200182016040528015610f235781602001602082028036833780820191505090505b509050600e60009054906101000a900473ffffffffffffffffffffffffffffffffffffffff1681600081518110610f5d57610f5c615eab565b5b602002602001019073ffffffffffffffffffffffffffffffffffffffff16908173ffffffffffffffffffffffffffffffffffffffff1681525050600d60009054906101000a900473ffffffffffffffffffffffffffffffffffffffff1681600181518110610fce57610fcd615eab565b5b602002602001019073ffffffffffffffffffffffffffffffffffffffff16908173ffffffffffffffffffffffffffffffffffffffff1681525050600080600c60009054906101000a900473ffffffffffffffffffffffffffffffffffffffff1673ffffffffffffffffffffffffffffffffffffffff1663b0667cf86040518163ffffffff1660e01b815260040160606040518083038186803b15801561107357600080fd5b505afa158015611087573d6000803e3d6000fd5b505050506040513d601f19601f820116820180604052508101906110ab9190615c68565b925050915060006110e26110c08b85856140e5565b89670de0b6b3a76400006110d49190615f09565b670de0b6b3a76400006140e5565b9050600e60009054906101000a900473ffffffffffffffffffffffffffffffffffffffff1673ffffffffffffffffffffffffffffffffffffffff1663395093518a836040518363ffffffff1660e01b8152600401611141929190615dad565b602060405180830381600087803b15801561115b57600080fd5b505af115801561116f573d6000803e3d6000fd5b505050506040513d601f19601f820116820180604052508101906111939190615deb565b508873ffffffffffffffffffffffffffffffffffffffff16638803dbee8b8387308c426111c09190615f09565b6040518663ffffffff1660e01b81526004016111e095949392919061600e565b600060405180830381600087803b1580156111fa57600080fd5b505af115801561120e573d6000803e3d6000fd5b505050506040513d6000823e3d601f19601f820116820180604052508101906112379190616181565b95505050505050949350505050565b6000600254905090565b600d60009054906101000a900473ffffffffffffffffffffffffffffffffffffffff1681565b60008060007f28d62fc77014de57a1bbaa8212ff0979fa61ab00d377b4b8d9762048fb4199616112ad816112a8613e75565b614048565b60008060006112bc60006141e1565b925092509250600096506000955060008060006112d7610972565b935093509350506000861261130257806112f0906161ca565b9850816112fc906161ca565b97508599505b60008612156114865760009950858161131b9190616213565b985060008073__MarketLibrary_________________________63680f43b1601060009054906101000a900473ffffffffffffffffffffffffffffffffffffffff16600d60009054906101000a900473ffffffffffffffffffffffffffffffffffffffff166040518363ffffffff1660e01b815260040161139d929190615d1c565b604080518083038186803b1580156113b457600080fd5b505af41580156113c8573d6000803e3d6000fd5b505050506040513d601f19601f820116820180604052508101906113ec91906162a7565b91509150600061142461141361140c8b611405906161ca565b8b8b6140e5565b84866140e5565b600b54670de0b6b3a76400006140e5565b905084866114329190615f09565b811115611474576040517f08c379a000000000000000000000000000000000000000000000000000000000815260040161146b90616333565b60405180910390fd5b84816114809190616353565b9a505050505b50505050505050909192565b600061149f848484614394565b6000600160008673ffffffffffffffffffffffffffffffffffffffff1673ffffffffffffffffffffffffffffffffffffffff16815260200190815260200160002060006114ea613e75565b73ffffffffffffffffffffffffffffffffffffffff1673ffffffffffffffffffffffffffffffffffffffff1681526020019081526020016000205490508281101561156a576040517f08c379a000000000000000000000000000000000000000000000000000000000815260040161156190616459565b60405180910390fd5b61158785611576613e75565b85846115829190616479565b613e7d565b60019150509392505050565b600060056000838152602001908152602001600020600101549050919050565b6115bc82611593565b6115cd816115c8613e75565b614048565b6115d78383614613565b505050565b60006012905090565b6115ed613e75565b73ffffffffffffffffffffffffffffffffffffffff168173ffffffffffffffffffffffffffffffffffffffff161461165a576040517f08c379a00000000000000000000000000000000000000000000000000000000081526004016116519061651f565b60405180910390fd5b61166482826146f4565b5050565b600061170a611675613e75565b848460016000611683613e75565b73ffffffffffffffffffffffffffffffffffffffff1673ffffffffffffffffffffffffffffffffffffffff16815260200190815260200160002060008873ffffffffffffffffffffffffffffffffffffffff1673ffffffffffffffffffffffffffffffffffffffff168152602001908152602001600020546117059190615f09565b613e7d565b6001905092915050565b7f28d62fc77014de57a1bbaa8212ff0979fa61ab00d377b4b8d9762048fb41996181565b7fa49807205ce4d355092ef5a8a18f56e8913cf4a201fbe287825b095693c2177561176a81611765613e75565b614048565b81600f60006101000a81548173ffffffffffffffffffffffffffffffffffffffff021916908373ffffffffffffffffffffffffffffffffffffffff1602179055505050565b7fa49807205ce4d355092ef5a8a18f56e8913cf4a201fbe287825b095693c217756117e1816117dc613e75565b614048565b670de0b6b3a764000082106117f557600080fd5b816009819055505050565b7f28d62fc77014de57a1bbaa8212ff0979fa61ab00d377b4b8d9762048fb4199616118328161182d613e75565b614048565b600e60009054906101000a900473ffffffffffffffffffffffffffffffffffffffff1673ffffffffffffffffffffffffffffffffffffffff16633950935183856040518363ffffffff1660e01b815260040161188f929190615dad565b602060405180830381600087803b1580156118a957600080fd5b505af11580156118bd573d6000803e3d6000fd5b505050506040513d601f19601f820116820180604052508101906118e19190615deb565b508173ffffffffffffffffffffffffffffffffffffffff1663e8eda9df600e60009054906101000a900473ffffffffffffffffffffffffffffffffffffffff16853060006040518563ffffffff1660e01b81526004016119449493929190616592565b600060405180830381600087803b15801561195e57600080fd5b505af1158015611972573d6000803e3d6000fd5b50505050505050565b600b5481565b6000806000600c60009054906101000a900473ffffffffffffffffffffffffffffffffffffffff1673ffffffffffffffffffffffffffffffffffffffff1663b0667cf86040518163ffffffff1660e01b815260040160606040518083038186803b1580156119ee57600080fd5b505afa158015611a02573d6000803e3d6000fd5b505050506040513d601f19601f82011682018060405250810190611a269190615c68565b9250509150600080600080611a39610972565b9350935093509350611a4c8487876140e5565b8284611a589190615f09565b611a629190615f09565b9650611a6f8187876140e5565b8711611ab0576040517f08c379a0000000000000000000000000000000000000000000000000000000008152600401611aa790616623565b60405180910390fd5b611abb8187876140e5565b87611ac69190616479565b96508815611aed57611adf611ad96147d6565b886148d0565b87611aea9190616479565b96505b8715611b1057611b0d87670de0b6b3a7640000611b08611246565b6140e5565b96505b50505050505092915050565b60007f28d62fc77014de57a1bbaa8212ff0979fa61ab00d377b4b8d9762048fb419961611b5081611b4b613e75565b614048565b600080600c60009054906101000a900473ffffffffffffffffffffffffffffffffffffffff1673ffffffffffffffffffffffffffffffffffffffff1663b0667cf86040518163ffffffff1660e01b815260040160606040518083038186803b158015611bbb57600080fd5b505afa158015611bcf573d6000803e3d6000fd5b505050506040513d601f19601f82011682018060405250810190611bf39190615c68565b92505091506000808773ffffffffffffffffffffffffffffffffffffffff1663085e2c5b600d60009054906101000a900473ffffffffffffffffffffffffffffffffffffffff16600e60009054906101000a900473ffffffffffffffffffffffffffffffffffffffff168c600160006040518663ffffffff1660e01b8152600401611c82959493929190616704565b60006040518083038186803b158015611c9a57600080fd5b505afa158015611cae573d6000803e3d6000fd5b505050506040513d6000823e3d601f19601f82011682018060405250810190611cd79190616757565b91509150611d0b611ce98a86866140e5565b88670de0b6b3a7640000611cfd9190616479565b670de0b6b3a76400006140e5565b821015611d4d576040517f08c379a0000000000000000000000000000000000000000000000000000000008152600401611d44906167ff565b60405180910390fd5b600d60009054906101000a900473ffffffffffffffffffffffffffffffffffffffff1673ffffffffffffffffffffffffffffffffffffffff166339509351898b6040518363ffffffff1660e01b8152600401611daa929190615dad565b602060405180830381600087803b158015611dc457600080fd5b505af1158015611dd8573d6000803e3d6000fd5b505050506040513d601f19601f82011682018060405250810190611dfc9190615deb565b508773ffffffffffffffffffffffffffffffffffffffff1663e2a7515e600d60009054906101000a900473ffffffffffffffffffffffffffffffffffffffff16600e60009054906101000a900473ffffffffffffffffffffffffffffffffffffffff168c868660006040518763ffffffff1660e01b8152600401611e859695949392919061681f565b602060405180830381600087803b158015611e9f57600080fd5b505af1158015611eb3573d6000803e3d6000fd5b505050506040513d601f19601f82011682018060405250810190611ed79190615e4f565b955050505050509392505050565b60008060008373ffffffffffffffffffffffffffffffffffffffff1673ffffffffffffffffffffffffffffffffffffffff168152602001908152602001600020549050919050565b7fa49807205ce4d355092ef5a8a18f56e8913cf4a201fbe287825b095693c2177581565b60095481565b7f28d62fc77014de57a1bbaa8212ff0979fa61ab00d377b4b8d9762048fb419961611f8981611f84613e75565b614048565b60008073__MarketLibrary_________________________638684fd28601060009054906101000a900473ffffffffffffffffffffffffffffffffffffffff16600d60009054906101000a900473ffffffffffffffffffffffffffffffffffffffff166040518363ffffffff1660e01b8152600401612009929190615d1c565b60606040518083038186803b15801561202157600080fd5b505af4158015612035573d6000803e3d6000fd5b505050506040513d601f19601f820116820180604052508101906120599190615d5a565b9250925050600184141561206b578190505b8073ffffffffffffffffffffffffffffffffffffffff1663095ea7b386886040518363ffffffff1660e01b81526004016120a6929190615dad565b602060405180830381600087803b1580156120c057600080fd5b505af11580156120d4573d6000803e3d6000fd5b505050506040513d601f19601f820116820180604052508101906120f89190615deb565b50600d60009054906101000a900473ffffffffffffffffffffffffffffffffffffffff1673ffffffffffffffffffffffffffffffffffffffff1663095ea7b386886040518363ffffffff1660e01b8152600401612156929190615dad565b602060405180830381600087803b15801561217057600080fd5b505af1158015612184573d6000803e3d6000fd5b505050506040513d601f19601f820116820180604052508101906121a89190615deb565b508473ffffffffffffffffffffffffffffffffffffffff1663573ade81600d60009054906101000a900473ffffffffffffffffffffffffffffffffffffffff168887306040518563ffffffff1660e01b815260040161220a9493929190616887565b602060405180830381600087803b15801561222457600080fd5b505af1158015612238573d6000803e3d6000fd5b505050506040513d601f19601f8201168201806040525081019061225c9190615e4f565b50505050505050565b61226d6150d9565b600c60009054906101000a900473ffffffffffffffffffffffffffffffffffffffff1673ffffffffffffffffffffffffffffffffffffffff16631ce5e9a66122fc85600660008773ffffffffffffffffffffffffffffffffffffffff1673ffffffffffffffffffffffffffffffffffffffff1681526020019081526020016000206148e990919063ffffffff16565b6040518263ffffffff1660e01b815260040161231891906155db565b6102006040518083038186803b15801561233157600080fd5b505afa158015612345573d6000803e3d6000fd5b505050506040513d601f19601f820116820180604052508101906123699190616aba565b905092915050565b7f28d62fc77014de57a1bbaa8212ff0979fa61ab00d377b4b8d9762048fb4199616123a38161239e613e75565b614048565b6123f482600660008673ffffffffffffffffffffffffffffffffffffffff1673ffffffffffffffffffffffffffffffffffffffff16815260200190815260200160002061490390919063ffffffff16565b5061240982600761490390919063ffffffff16565b50505050565b6000805b61241d600761491d565b81101561250357600c60009054906101000a900473ffffffffffffffffffffffffffffffffffffffff1673ffffffffffffffffffffffffffffffffffffffff166369369ab56124768360076148e990919063ffffffff16565b6040518263ffffffff1660e01b815260040161249291906155db565b60206040518083038186803b1580156124aa57600080fd5b505afa1580156124be573d6000803e3d6000fd5b505050506040513d601f19601f820116820180604052508101906124e29190615deb565b156124f05760019150612503565b80806124fb90616ae8565b915050612413565b5090565b60006005600084815260200190815260200160002060000160008373ffffffffffffffffffffffffffffffffffffffff1673ffffffffffffffffffffffffffffffffffffffff16815260200190815260200160002060009054906101000a900460ff16905092915050565b60007f28d62fc77014de57a1bbaa8212ff0979fa61ab00d377b4b8d9762048fb4199616125a6816125a1613e75565b614048565b600080600c60009054906101000a900473ffffffffffffffffffffffffffffffffffffffff1673ffffffffffffffffffffffffffffffffffffffff1663b0667cf86040518163ffffffff1660e01b815260040160606040518083038186803b15801561261157600080fd5b505afa158015612625573d6000803e3d6000fd5b505050506040513d601f19601f820116820180604052508101906126499190615c68565b92505091506000935060005b61265f600761491d565b81101561274a57600c60009054906101000a900473ffffffffffffffffffffffffffffffffffffffff1673ffffffffffffffffffffffffffffffffffffffff16630aad16ac6126b88360076148e990919063ffffffff16565b85858a6040518563ffffffff1660e01b81526004016126da9493929190616b31565b60206040518083038186803b1580156126f257600080fd5b505afa158015612706573d6000803e3d6000fd5b505050506040513d601f19601f8201168201806040525081019061272a9190616ba2565b856127359190616213565b9450808061274290616ae8565b915050612655565b50505050919050565b60606004805461276290615cea565b80601f016020809104026020016040519081016040528092919081815260200182805461278e90615cea565b80156127db5780601f106127b0576101008083540402835291602001916127db565b820191906000526020600020905b8154815290600101906020018083116127be57829003601f168201915b5050505050905090565b6000801b81565b6000612835600660008473ffffffffffffffffffffffffffffffffffffffff1673ffffffffffffffffffffffffffffffffffffffff16815260200190815260200160002061491d565b9050919050565b6000806001600061284b613e75565b73ffffffffffffffffffffffffffffffffffffffff1673ffffffffffffffffffffffffffffffffffffffff16815260200190815260200160002060008573ffffffffffffffffffffffffffffffffffffffff1673ffffffffffffffffffffffffffffffffffffffff16815260200190815260200160002054905082811015612908576040517f08c379a00000000000000000000000000000000000000000000000000000000081526004016128ff90616c41565b60405180910390fd5b612925612913613e75565b8585846129209190616479565b613e7d565b600191505092915050565b600061294461293d613e75565b8484614394565b6001905092915050565b600061295c60006001611981565b9050600061297383670de0b6b3a7640000846140e5565b9050600e60009054906101000a900473ffffffffffffffffffffffffffffffffffffffff1673ffffffffffffffffffffffffffffffffffffffff166323b872dd3330866040518463ffffffff1660e01b81526004016129d493929190616c61565b602060405180830381600087803b1580156129ee57600080fd5b505af1158015612a02573d6000803e3d6000fd5b505050506040513d601f19601f82011682018060405250810190612a269190615deb565b612a2f57600080fd5b612a393382614932565b7fd0d5ca25112902dbbf5a70a67eed6edc7513b74f2a7ec0805ca216c99f981cc1338483604051612a6c93929190616c98565b60405180910390a1505050565b7f28d62fc77014de57a1bbaa8212ff0979fa61ab00d377b4b8d9762048fb419961612aab81612aa6613e75565b614048565b8273ffffffffffffffffffffffffffffffffffffffff1663a415bcad600d60009054906101000a900473ffffffffffffffffffffffffffffffffffffffff1686856000306040518663ffffffff1660e01b8152600401612b0f959493929190616ccf565b600060405180830381600087803b158015612b2957600080fd5b505af1158015612b3d573d6000803e3d6000fd5b5050505050505050565b6000807f28d62fc77014de57a1bbaa8212ff0979fa61ab00d377b4b8d9762048fb419961612b7c81612b77613e75565b614048565b600080600c60009054906101000a900473ffffffffffffffffffffffffffffffffffffffff1673ffffffffffffffffffffffffffffffffffffffff1663b0667cf86040518163ffffffff1660e01b815260040160606040518083038186803b158015612be757600080fd5b505afa158015612bfb573d6000803e3d6000fd5b505050506040513d601f19601f82011682018060405250810190612c1f9190615c68565b9250509150612c54612c328984846140e5565b87670de0b6b3a7640000612c469190615f09565b670de0b6b3a76400006140e5565b94506000808873ffffffffffffffffffffffffffffffffffffffff1663085e2c5b600e60009054906101000a900473ffffffffffffffffffffffffffffffffffffffff16600d60009054906101000a900473ffffffffffffffffffffffffffffffffffffffff168a600160006040518663ffffffff1660e01b8152600401612ce0959493929190616704565b60006040518083038186803b158015612cf857600080fd5b505afa158015612d0c573d6000803e3d6000fd5b505050506040513d6000823e3d601f19601f82011682018060405250810190612d359190616757565b91509150600e60009054906101000a900473ffffffffffffffffffffffffffffffffffffffff1673ffffffffffffffffffffffffffffffffffffffff1663395093518a896040518363ffffffff1660e01b8152600401612d96929190615dad565b602060405180830381600087803b158015612db057600080fd5b505af1158015612dc4573d6000803e3d6000fd5b505050506040513d601f19601f82011682018060405250810190612de89190615deb565b508873ffffffffffffffffffffffffffffffffffffffff1663e2a7515e600e60009054906101000a900473ffffffffffffffffffffffffffffffffffffffff16600d60009054906101000a900473ffffffffffffffffffffffffffffffffffffffff168a868660006040518763ffffffff1660e01b8152600401612e719695949392919061681f565b602060405180830381600087803b158015612e8b57600080fd5b505af1158015612e9f573d6000803e3d6000fd5b505050506040513d601f19601f82011682018060405250810190612ec39190615e4f565b95505050505050935093915050565b600a5481565b600e60009054906101000a900473ffffffffffffffffffffffffffffffffffffffff1681565b612f0782611593565b612f1881612f13613e75565b614048565b612f2283836146f4565b505050565b7f28d62fc77014de57a1bbaa8212ff0979fa61ab00d377b4b8d9762048fb419961612f5981612f54613e75565b614048565b8373ffffffffffffffffffffffffffffffffffffffff16633950935184846040518363ffffffff1660e01b8152600401612f94929190615dad565b602060405180830381600087803b158015612fae57600080fd5b505af1158015612fc2573d6000803e3d6000fd5b505050506040513d601f19601f82011682018060405250810190612fe69190615deb565b5050505050565b600061300c612ffd600180611981565b83670de0b6b3a76400006140e5565b905080600e60009054906101000a900473ffffffffffffffffffffffffffffffffffffffff1673ffffffffffffffffffffffffffffffffffffffff166370a08231306040518263ffffffff1660e01b815260040161306a9190615605565b60206040518083038186803b15801561308257600080fd5b505afa158015613096573d6000803e3d6000fd5b505050506040513d601f19601f820116820180604052508101906130ba9190615e4f565b116130fa576040517f08c379a00000000000000000000000000000000000000000000000000000000081526004016130f190616d6e565b60405180910390fd5b6131043383614a86565b600e60009054906101000a900473ffffffffffffffffffffffffffffffffffffffff1673ffffffffffffffffffffffffffffffffffffffff1663a9059cbb33836040518363ffffffff1660e01b8152600401613161929190615dad565b602060405180830381600087803b15801561317b57600080fd5b505af115801561318f573d6000803e3d6000fd5b505050506040513d601f19601f820116820180604052508101906131b39190615deb565b6131bc57600080fd5b7f3a9e5b3b520d77dc26bf05104c863b6b654d4b96fa8031a783ad0dbd905cdf393383836040516131ef93929190616c98565b60405180910390a15050565b6000600160008473ffffffffffffffffffffffffffffffffffffffff1673ffffffffffffffffffffffffffffffffffffffff16815260200190815260200160002060008373ffffffffffffffffffffffffffffffffffffffff1673ffffffffffffffffffffffffffffffffffffffff16815260200190815260200160002054905092915050565b60607f28d62fc77014de57a1bbaa8212ff0979fa61ab00d377b4b8d9762048fb4199616132b6816132b1613e75565b614048565b600d60009054906101000a900473ffffffffffffffffffffffffffffffffffffffff1673ffffffffffffffffffffffffffffffffffffffff16633950935186886040518363ffffffff1660e01b8152600401613313929190615dad565b602060405180830381600087803b15801561332d57600080fd5b505af1158015613341573d6000803e3d6000fd5b505050506040513d601f19601f820116820180604052508101906133659190615deb565b506000600267ffffffffffffffff81111561338357613382615e7c565b5b6040519080825280602002602001820160405280156133b15781602001602082028036833780820191505090505b509050600d60009054906101000a900473ffffffffffffffffffffffffffffffffffffffff16816000815181106133eb576133ea615eab565b5b602002602001019073ffffffffffffffffffffffffffffffffffffffff16908173ffffffffffffffffffffffffffffffffffffffff1681525050600e60009054906101000a900473ffffffffffffffffffffffffffffffffffffffff168160018151811061345c5761345b615eab565b5b602002602001019073ffffffffffffffffffffffffffffffffffffffff16908173ffffffffffffffffffffffffffffffffffffffff1681525050600080600c60009054906101000a900473ffffffffffffffffffffffffffffffffffffffff1673ffffffffffffffffffffffffffffffffffffffff1663b0667cf86040518163ffffffff1660e01b815260040160606040518083038186803b15801561350157600080fd5b505afa158015613515573d6000803e3d6000fd5b505050506040513d601f19601f820116820180604052508101906135399190615c68565b9250509150600061357061354e8b85856140e5565b89670de0b6b3a76400006135629190616479565b670de0b6b3a76400006140e5565b90508873ffffffffffffffffffffffffffffffffffffffff166338ed17398b8387308c4261359e9190615f09565b6040518663ffffffff1660e01b81526004016135be95949392919061600e565b600060405180830381600087803b1580156135d857600080fd5b505af11580156135ec573d6000803e3d6000fd5b505050506040513d6000823e3d601f19601f820116820180604052508101906136159190616181565b95505050505050949350505050565b6000805b613632600761491d565b81101561372a57600c60009054906101000a900473ffffffffffffffffffffffffffffffffffffffff1673ffffffffffffffffffffffffffffffffffffffff166369369ab561368b8360076148e990919063ffffffff16565b6040518263ffffffff1660e01b81526004016136a791906155db565b60206040518083038186803b1580156136bf57600080fd5b505afa1580156136d3573d6000803e3d6000fd5b505050506040513d601f19601f820116820180604052508101906136f79190615deb565b15613717576137108160076148e990919063ffffffff16565b915061372a565b808061372290616ae8565b915050613628565b506000811115613db7576000600c60009054906101000a900473ffffffffffffffffffffffffffffffffffffffff1673ffffffffffffffffffffffffffffffffffffffff166385ae10e6836040518263ffffffff1660e01b815260040161379191906155db565b604080518083038186803b1580156137a857600080fd5b505afa1580156137bc573d6000803e3d6000fd5b505050506040513d601f19601f820116820180604052508101906137e091906162a7565b915050600d60009054906101000a900473ffffffffffffffffffffffffffffffffffffffff1673ffffffffffffffffffffffffffffffffffffffff166370a08231306040518263ffffffff1660e01b815260040161383e9190615605565b60206040518083038186803b15801561385657600080fd5b505afa15801561386a573d6000803e3d6000fd5b505050506040513d601f19601f8201168201806040525081019061388e9190615e4f565b81106138cf576040517f08c379a00000000000000000000000000000000000000000000000000000000081526004016138c690616dda565b60405180910390fd5b6000811115613db557600c60009054906101000a900473ffffffffffffffffffffffffffffffffffffffff1673ffffffffffffffffffffffffffffffffffffffff1663637baf60836040518263ffffffff1660e01b815260040161393391906155db565b600060405180830381600087803b15801561394d57600080fd5b505af1158015613961573d6000803e3d6000fd5b50505050613a608260066000600c60009054906101000a900473ffffffffffffffffffffffffffffffffffffffff1673ffffffffffffffffffffffffffffffffffffffff16631a7985ba876040518263ffffffff1660e01b81526004016139c891906155db565b60206040518083038186803b1580156139e057600080fd5b505afa1580156139f4573d6000803e3d6000fd5b505050506040513d601f19601f82011682018060405250810190613a189190616dfa565b73ffffffffffffffffffffffffffffffffffffffff1673ffffffffffffffffffffffffffffffffffffffff168152602001908152602001600020614c5a90919063ffffffff16565b50613a75826007614c5a90919063ffffffff16565b506000613a8d82600954670de0b6b3a76400006140e5565b90506000613aa683600a54670de0b6b3a76400006140e5565b9050600d60009054906101000a900473ffffffffffffffffffffffffffffffffffffffff1673ffffffffffffffffffffffffffffffffffffffff1663a9059cbb600c60009054906101000a900473ffffffffffffffffffffffffffffffffffffffff1673ffffffffffffffffffffffffffffffffffffffff16631a7985ba876040518263ffffffff1660e01b8152600401613b4191906155db565b60206040518083038186803b158015613b5957600080fd5b505afa158015613b6d573d6000803e3d6000fd5b505050506040513d601f19601f82011682018060405250810190613b919190616dfa565b838587613b9e9190616479565b613ba89190616479565b6040518363ffffffff1660e01b8152600401613bc5929190615dad565b602060405180830381600087803b158015613bdf57600080fd5b505af1158015613bf3573d6000803e3d6000fd5b505050506040513d601f19601f82011682018060405250810190613c179190615deb565b613c2057600080fd5b600d60009054906101000a900473ffffffffffffffffffffffffffffffffffffffff1673ffffffffffffffffffffffffffffffffffffffff1663a9059cbb600f60009054906101000a900473ffffffffffffffffffffffffffffffffffffffff16846040518363ffffffff1660e01b8152600401613c9f929190615dad565b602060405180830381600087803b158015613cb957600080fd5b505af1158015613ccd573d6000803e3d6000fd5b505050506040513d601f19601f82011682018060405250810190613cf19190615deb565b613cfa57600080fd5b600d60009054906101000a900473ffffffffffffffffffffffffffffffffffffffff1673ffffffffffffffffffffffffffffffffffffffff1663a9059cbb33836040518363ffffffff1660e01b8152600401613d57929190615dad565b602060405180830381600087803b158015613d7157600080fd5b505af1158015613d85573d6000803e3d6000fd5b505050506040513d601f19601f82011682018060405250810190613da99190615deb565b613db257600080fd5b50505b505b90565b7fa49807205ce4d355092ef5a8a18f56e8913cf4a201fbe287825b095693c21775613dec81613de7613e75565b614048565b670de0b6b3a76400008210613e0057600080fd5b81600a819055505050565b60007f01ffc9a7000000000000000000000000000000000000000000000000000000007bffffffffffffffffffffffffffffffffffffffffffffffffffffffff1916827bffffffffffffffffffffffffffffffffffffffffffffffffffffffff1916149050919050565b600033905090565b600073ffffffffffffffffffffffffffffffffffffffff168373ffffffffffffffffffffffffffffffffffffffff161415613eed576040517f08c379a0000000000000000000000000000000000000000000000000000000008152600401613ee490616e99565b60405180910390fd5b600073ffffffffffffffffffffffffffffffffffffffff168273ffffffffffffffffffffffffffffffffffffffff161415613f5d576040517f08c379a0000000000000000000000000000000000000000000000000000000008152600401613f5490616f2b565b60405180910390fd5b80600160008573ffffffffffffffffffffffffffffffffffffffff1673ffffffffffffffffffffffffffffffffffffffff16815260200190815260200160002060008473ffffffffffffffffffffffffffffffffffffffff1673ffffffffffffffffffffffffffffffffffffffff168152602001908152602001600020819055508173ffffffffffffffffffffffffffffffffffffffff168373ffffffffffffffffffffffffffffffffffffffff167f8c5be1e5ebec7d5bd14f71427d1e84f3dd0314c0f7b2291e5b200ac8c7c3b9258360405161403b91906155db565b60405180910390a3505050565b6140528282612507565b6140e1576140778173ffffffffffffffffffffffffffffffffffffffff166014614c74565b6140858360001c6020614c74565b60405160200161409692919061701f565b6040516020818303038152906040526040517f08c379a00000000000000000000000000000000000000000000000000000000081526004016140d89190615368565b60405180910390fd5b5050565b600080600080198587098587029250828110838203039150506000811415614120576000841161411457600080fd5b838204925050506141da565b80841161412c57600080fd5b60008486880990508281118203915080830392506000856001877fffffffffffffffffffffffffffffffffffffffffffffffffffffffffffffffff0301169050808604955080840493506001818260000304019050808302841793506000600287600302189050808702600203810290508087026002038102905080870260020381029050808702600203810290508087026002038102905080870260020381029050808502955050505050505b9392505050565b6000806000600c60009054906101000a900473ffffffffffffffffffffffffffffffffffffffff1673ffffffffffffffffffffffffffffffffffffffff1663b0667cf86040518163ffffffff1660e01b815260040160606040518083038186803b15801561424e57600080fd5b505afa158015614262573d6000803e3d6000fd5b505050506040513d601f19601f820116820180604052508101906142869190615c68565b905080925081935050506000925060005b6142a1600761491d565b81101561438c57600c60009054906101000a900473ffffffffffffffffffffffffffffffffffffffff1673ffffffffffffffffffffffffffffffffffffffff1663b9c6600f6142fa8360076148e990919063ffffffff16565b8585896040518563ffffffff1660e01b815260040161431c9493929190616b31565b60206040518083038186803b15801561433457600080fd5b505afa158015614348573d6000803e3d6000fd5b505050506040513d601f19601f8201168201806040525081019061436c9190616ba2565b846143779190616213565b9350808061438490616ae8565b915050614297565b509193909250565b600073ffffffffffffffffffffffffffffffffffffffff168373ffffffffffffffffffffffffffffffffffffffff161415614404576040517f08c379a00000000000000000000000000000000000000000000000000000000081526004016143fb906170cb565b60405180910390fd5b600073ffffffffffffffffffffffffffffffffffffffff168273ffffffffffffffffffffffffffffffffffffffff161415614474576040517f08c379a000000000000000000000000000000000000000000000000000000000815260040161446b9061715d565b60405180910390fd5b61447f838383614eb0565b60008060008573ffffffffffffffffffffffffffffffffffffffff1673ffffffffffffffffffffffffffffffffffffffff16815260200190815260200160002054905081811015614505576040517f08c379a00000000000000000000000000000000000000000000000000000000081526004016144fc906171ef565b60405180910390fd5b81816145119190616479565b6000808673ffffffffffffffffffffffffffffffffffffffff1673ffffffffffffffffffffffffffffffffffffffff16815260200190815260200160002081905550816000808573ffffffffffffffffffffffffffffffffffffffff1673ffffffffffffffffffffffffffffffffffffffff16815260200190815260200160002060008282546145a19190615f09565b925050819055508273ffffffffffffffffffffffffffffffffffffffff168473ffffffffffffffffffffffffffffffffffffffff167fddf252ad1be2c89b69c2b068fc378daa952ba7f163c4a11628f55a4df523b3ef8460405161460591906155db565b60405180910390a350505050565b61461d8282612507565b6146f05760016005600084815260200190815260200160002060000160008373ffffffffffffffffffffffffffffffffffffffff1673ffffffffffffffffffffffffffffffffffffffff16815260200190815260200160002060006101000a81548160ff021916908315150217905550614695613e75565b73ffffffffffffffffffffffffffffffffffffffff168173ffffffffffffffffffffffffffffffffffffffff16837f2f8788117e7eff1d82e926ec794901d17c78024a50270940304540a733656f0d60405160405180910390a45b5050565b6146fe8282612507565b156147d25760006005600084815260200190815260200160002060000160008373ffffffffffffffffffffffffffffffffffffffff1673ffffffffffffffffffffffffffffffffffffffff16815260200190815260200160002060006101000a81548160ff021916908315150217905550614777613e75565b73ffffffffffffffffffffffffffffffffffffffff168173ffffffffffffffffffffffffffffffffffffffff16837ff6391f5c32d9c69d2a47ea670b442974b53935d1edc7fd64eb21e047a839171b60405160405180910390a45b5050565b6000805b6147e4600761491d565b8110156148cc57600c60009054906101000a900473ffffffffffffffffffffffffffffffffffffffff1673ffffffffffffffffffffffffffffffffffffffff1663105df85661483d8360076148e990919063ffffffff16565b60006040518363ffffffff1660e01b815260040161485c92919061720f565b60206040518083038186803b15801561487457600080fd5b505afa158015614888573d6000803e3d6000fd5b505050506040513d601f19601f820116820180604052508101906148ac9190615e4f565b826148b79190615f09565b915080806148c490616ae8565b9150506147da565b5090565b60008183106148df57816148e1565b825b905092915050565b60006148f88360000183614eb5565b60001c905092915050565b6000614915836000018360001b614f29565b905092915050565b600061492b82600001614f99565b9050919050565b600073ffffffffffffffffffffffffffffffffffffffff168273ffffffffffffffffffffffffffffffffffffffff1614156149a2576040517f08c379a000000000000000000000000000000000000000000000000000000000815260040161499990617284565b60405180910390fd5b6149ae60008383614eb0565b80600260008282546149c09190615f09565b92505081905550806000808473ffffffffffffffffffffffffffffffffffffffff1673ffffffffffffffffffffffffffffffffffffffff1681526020019081526020016000206000828254614a159190615f09565b925050819055508173ffffffffffffffffffffffffffffffffffffffff16600073ffffffffffffffffffffffffffffffffffffffff167fddf252ad1be2c89b69c2b068fc378daa952ba7f163c4a11628f55a4df523b3ef83604051614a7a91906155db565b60405180910390a35050565b600073ffffffffffffffffffffffffffffffffffffffff168273ffffffffffffffffffffffffffffffffffffffff161415614af6576040517f08c379a0000000000000000000000000000000000000000000000000000000008152600401614aed90617316565b60405180910390fd5b614b0282600083614eb0565b60008060008473ffffffffffffffffffffffffffffffffffffffff1673ffffffffffffffffffffffffffffffffffffffff16815260200190815260200160002054905081811015614b88576040517f08c379a0000000000000000000000000000000000000000000000000000000008152600401614b7f906173a8565b60405180910390fd5b8181614b949190616479565b6000808573ffffffffffffffffffffffffffffffffffffffff1673ffffffffffffffffffffffffffffffffffffffff168152602001908152602001600020819055508160026000828254614be89190616479565b92505081905550600073ffffffffffffffffffffffffffffffffffffffff168373ffffffffffffffffffffffffffffffffffffffff167fddf252ad1be2c89b69c2b068fc378daa952ba7f163c4a11628f55a4df523b3ef84604051614c4d91906155db565b60405180910390a3505050565b6000614c6c836000018360001b614faa565b905092915050565b606060006002836002614c8791906173c8565b614c919190615f09565b67ffffffffffffffff811115614caa57614ca9615e7c565b5b6040519080825280601f01601f191660200182016040528015614cdc5781602001600182028036833780820191505090505b5090507f300000000000000000000000000000000000000000000000000000000000000081600081518110614d1457614d13615eab565b5b60200101907effffffffffffffffffffffffffffffffffffffffffffffffffffffffffffff1916908160001a9053507f780000000000000000000000000000000000000000000000000000000000000081600181518110614d7857614d77615eab565b5b60200101907effffffffffffffffffffffffffffffffffffffffffffffffffffffffffffff1916908160001a90535060006001846002614db891906173c8565b614dc29190615f09565b90505b6001811115614e62577f3031323334353637383961626364656600000000000000000000000000000000600f861660108110614e0457614e03615eab565b5b1a60f81b828281518110614e1b57614e1a615eab565b5b60200101907effffffffffffffffffffffffffffffffffffffffffffffffffffffffffffff1916908160001a905350600485901c945080614e5b90617422565b9050614dc5565b5060008414614ea6576040517f08c379a0000000000000000000000000000000000000000000000000000000008152600401614e9d90617498565b60405180910390fd5b8091505092915050565b505050565b600081836000018054905011614f00576040517f08c379a0000000000000000000000000000000000000000000000000000000008152600401614ef79061752a565b60405180910390fd5b826000018281548110614f1657614f15615eab565b5b9060005260206000200154905092915050565b6000614f3583836150b6565b614f8e578260000182908060018154018082558091505060019003906000526020600020016000909190919091505582600001805490508360010160008481526020019081526020016000208190555060019050614f93565b600090505b92915050565b600081600001805490509050919050565b600080836001016000848152602001908152602001600020549050600081146150aa576000600182614fdc9190616479565b9050600060018660000180549050614ff49190616479565b9050600086600001828154811061500e5761500d615eab565b5b906000526020600020015490508087600001848154811061503257615031615eab565b5b906000526020600020018190555083876001016000838152602001908152602001600020819055508660000180548061506e5761506d61754a565b5b600190038181906000526020600020016000905590558660010160008781526020019081526020016000206000905560019450505050506150b0565b60009150505b92915050565b600080836001016000848152602001908152602001600020541415905092915050565b604051806102000160405280600060018111156150f9576150f86158e0565b5b815260200160006001811115615112576151116158e0565b5b81526020016000600381111561512b5761512a6158e0565b5b8152602001600073ffffffffffffffffffffffffffffffffffffffff1681526020016000815260200160008152602001600081526020016000815260200160008152602001600081526020016000815260200160008152602001600081526020016000815260200160008152602001600081525090565b6000819050919050565b6151b5816151a2565b82525050565b60006080820190506151d060008301876151ac565b6151dd60208301866151ac565b6151ea60408301856151ac565b6151f760608301846151ac565b95945050505050565b6000604051905090565b600080fd5b600080fd5b60007fffffffff0000000000000000000000000000000000000000000000000000000082169050919050565b61524981615214565b811461525457600080fd5b50565b60008135905061526681615240565b92915050565b6000602082840312156152825761528161520a565b5b600061529084828501615257565b91505092915050565b60008115159050919050565b6152ae81615299565b82525050565b60006020820190506152c960008301846152a5565b92915050565b600081519050919050565b600082825260208201905092915050565b60005b838110156153095780820151818401526020810190506152ee565b83811115615318576000848401525b50505050565b6000601f19601f8301169050919050565b600061533a826152cf565b61534481856152da565b93506153548185602086016152eb565b61535d8161531e565b840191505092915050565b60006020820190508181036000830152615382818461532f565b905092915050565b600073ffffffffffffffffffffffffffffffffffffffff82169050919050565b60006153b58261538a565b9050919050565b6153c5816153aa565b81146153d057600080fd5b50565b6000813590506153e2816153bc565b92915050565b6153f1816151a2565b81146153fc57600080fd5b50565b60008135905061540e816153e8565b92915050565b6000806040838503121561542b5761542a61520a565b5b6000615439858286016153d3565b925050602061544a858286016153ff565b9150509250929050565b6000806040838503121561546b5761546a61520a565b5b6000615479858286016153ff565b925050602061548a858286016153d3565b9150509250929050565b600080600080608085870312156154ae576154ad61520a565b5b60006154bc878288016153ff565b94505060206154cd878288016153d3565b93505060406154de878288016153ff565b92505060606154ef878288016153ff565b91505092959194509250565b600081519050919050565b600082825260208201905092915050565b6000819050602082019050919050565b615530816151a2565b82525050565b60006155428383615527565b60208301905092915050565b6000602082019050919050565b6000615566826154fb565b6155708185615506565b935061557b83615517565b8060005b838110156155ac5781516155938882615536565b975061559e8361554e565b92505060018101905061557f565b5085935050505092915050565b600060208201905081810360008301526155d3818461555b565b905092915050565b60006020820190506155f060008301846151ac565b92915050565b6155ff816153aa565b82525050565b600060208201905061561a60008301846155f6565b92915050565b6000819050919050565b61563381615620565b82525050565b600060608201905061564e60008301866151ac565b61565b602083018561562a565b615668604083018461562a565b949350505050565b6000806000606084860312156156895761568861520a565b5b6000615697868287016153d3565b93505060206156a8868287016153d3565b92505060406156b9868287016153ff565b9150509250925092565b6000819050919050565b6156d6816156c3565b81146156e157600080fd5b50565b6000813590506156f3816156cd565b92915050565b60006020828403121561570f5761570e61520a565b5b600061571d848285016156e4565b91505092915050565b61572f816156c3565b82525050565b600060208201905061574a6000830184615726565b92915050565b600080604083850312156157675761576661520a565b5b6000615775858286016156e4565b9250506020615786858286016153d3565b9150509250929050565b600060ff82169050919050565b6157a681615790565b82525050565b60006020820190506157c1600083018461579d565b92915050565b6000602082840312156157dd576157dc61520a565b5b60006157eb848285016153d3565b91505092915050565b60006020828403121561580a5761580961520a565b5b6000615818848285016153ff565b91505092915050565b61582a81615299565b811461583557600080fd5b50565b60008135905061584781615821565b92915050565b600080604083850312156158645761586361520a565b5b600061587285828601615838565b925050602061588385828601615838565b9150509250929050565b6000806000606084860312156158a6576158a561520a565b5b60006158b4868287016153ff565b93505060206158c5868287016153d3565b92505060406158d6868287016153ff565b9150509250925092565b7f4e487b7100000000000000000000000000000000000000000000000000000000600052602160045260246000fd5b600281106159205761591f6158e0565b5b50565b60008190506159318261590f565b919050565b600061594182615923565b9050919050565b61595181615936565b82525050565b60028110615968576159676158e0565b5b50565b600081905061597982615957565b919050565b60006159898261596b565b9050919050565b6159998161597e565b82525050565b600481106159b0576159af6158e0565b5b50565b60008190506159c18261599f565b919050565b60006159d1826159b3565b9050919050565b6159e1816159c6565b82525050565b6159f0816153aa565b82525050565b61020082016000820151615a0d6000850182615948565b506020820151615a206020850182615990565b506040820151615a3360408501826159d8565b506060820151615a4660608501826159e7565b506080820151615a596080850182615527565b5060a0820151615a6c60a0850182615527565b5060c0820151615a7f60c0850182615527565b5060e0820151615a9260e0850182615527565b50610100820151615aa7610100850182615527565b50610120820151615abc610120850182615527565b50610140820151615ad1610140850182615527565b50610160820151615ae6610160850182615527565b50610180820151615afb610180850182615527565b506101a0820151615b106101a0850182615527565b506101c0820151615b256101c0850182615527565b506101e0820151615b3a6101e0850182615527565b50505050565b600061020082019050615b5660008301846159f6565b92915050565b600060208284031215615b7257615b7161520a565b5b6000615b8084828501615838565b91505092915050565b6000602082019050615b9e600083018461562a565b92915050565b6000604082019050615bb960008301856151ac565b615bc660208301846151ac565b9392505050565b60008060408385031215615be457615be361520a565b5b6000615bf2858286016153d3565b9250506020615c03858286016153d3565b9150509250929050565b615c16816153aa565b82525050565b6000606082019050615c316000830186615c0d565b615c3e6020830185615c0d565b615c4b6040830184615c0d565b949350505050565b600081519050615c62816153e8565b92915050565b600080600060608486031215615c8157615c8061520a565b5b6000615c8f86828701615c53565b9350506020615ca086828701615c53565b9250506040615cb186828701615c53565b9150509250925092565b7f4e487b7100000000000000000000000000000000000000000000000000000000600052602260045260246000fd5b60006002820490506001821680615d0257607f821691505b60208210811415615d1657615d15615cbb565b5b50919050565b6000604082019050615d316000830185615c0d565b615d3e6020830184615c0d565b9392505050565b600081519050615d54816153bc565b92915050565b600080600060608486031215615d7357615d7261520a565b5b6000615d8186828701615d45565b9350506020615d9286828701615d45565b9250506040615da386828701615d45565b9150509250925092565b6000604082019050615dc260008301856155f6565b615dcf60208301846151ac565b9392505050565b600081519050615de581615821565b92915050565b600060208284031215615e0157615e0061520a565b5b6000615e0f84828501615dd6565b91505092915050565b6000606082019050615e2d60008301866155f6565b615e3a60208301856151ac565b615e4760408301846155f6565b949350505050565b600060208284031215615e6557615e6461520a565b5b6000615e7384828501615c53565b91505092915050565b7f4e487b7100000000000000000000000000000000000000000000000000000000600052604160045260246000fd5b7f4e487b7100000000000000000000000000000000000000000000000000000000600052603260045260246000fd5b7f4e487b7100000000000000000000000000000000000000000000000000000000600052601160045260246000fd5b6000615f14826151a2565b9150615f1f836151a2565b9250827fffffffffffffffffffffffffffffffffffffffffffffffffffffffffffffffff03821115615f5457615f53615eda565b5b828201905092915050565b600081519050919050565b600082825260208201905092915050565b6000819050602082019050919050565b6000615f9783836159e7565b60208301905092915050565b6000602082019050919050565b6000615fbb82615f5f565b615fc58185615f6a565b9350615fd083615f7b565b8060005b83811015616001578151615fe88882615f8b565b9750615ff383615fa3565b925050600181019050615fd4565b5085935050505092915050565b600060a08201905061602360008301886151ac565b61603060208301876151ac565b81810360408301526160428186615fb0565b905061605160608301856155f6565b61605e60808301846151ac565b9695505050505050565b600080fd5b6160768261531e565b810181811067ffffffffffffffff8211171561609557616094615e7c565b5b80604052505050565b60006160a8615200565b90506160b4828261606d565b919050565b600067ffffffffffffffff8211156160d4576160d3615e7c565b5b602082029050602081019050919050565b600080fd5b60006160fd6160f8846160b9565b61609e565b905080838252602082019050602084028301858111156161205761611f6160e5565b5b835b8181101561614957806161358882615c53565b845260208401935050602081019050616122565b5050509392505050565b600082601f83011261616857616167616068565b5b81516161788482602086016160ea565b91505092915050565b6000602082840312156161975761619661520a565b5b600082015167ffffffffffffffff8111156161b5576161b461520f565b5b6161c184828501616153565b91505092915050565b60006161d582615620565b91507f800000000000000000000000000000000000000000000000000000000000000082141561620857616207615eda565b5b816000039050919050565b600061621e82615620565b915061622983615620565b9250817f7fffffffffffffffffffffffffffffffffffffffffffffffffffffffffffffff0383136000831215161561626457616263615eda565b5b817f800000000000000000000000000000000000000000000000000000000000000003831260008312161561629c5761629b615eda565b5b828201905092915050565b600080604083850312156162be576162bd61520a565b5b60006162cc85828601615c53565b92505060206162dd85828601615c53565b9150509250929050565b7f496e73756666696369656e7420636f6c6c61746572616c3b0000000000000000600082015250565b600061631d6018836152da565b9150616328826162e7565b602082019050919050565b6000602082019050818103600083015261634c81616310565b9050919050565b600061635e82615620565b915061636983615620565b9250827f8000000000000000000000000000000000000000000000000000000000000000018212600084121516156163a4576163a3615eda565b5b827f7fffffffffffffffffffffffffffffffffffffffffffffffffffffffffffffff0182136000841216156163dc576163db615eda565b5b828203905092915050565b7f45524332303a207472616e7366657220616d6f756e742065786365656473206160008201527f6c6c6f77616e6365000000000000000000000000000000000000000000000000602082015250565b60006164436028836152da565b915061644e826163e7565b604082019050919050565b6000602082019050818103600083015261647281616436565b9050919050565b6000616484826151a2565b915061648f836151a2565b9250828210156164a2576164a1615eda565b5b828203905092915050565b7f416363657373436f6e74726f6c3a2063616e206f6e6c792072656e6f756e636560008201527f20726f6c657320666f722073656c660000000000000000000000000000000000602082015250565b6000616509602f836152da565b9150616514826164ad565b604082019050919050565b60006020820190508181036000830152616538816164fc565b9050919050565b6000819050919050565b600061ffff82169050919050565b6000819050919050565b600061657c6165776165728461653f565b616557565b616549565b9050919050565b61658c81616561565b82525050565b60006080820190506165a760008301876155f6565b6165b460208301866151ac565b6165c160408301856155f6565b6165ce6060830184616583565b95945050505050565b7f4e65676174697665206571756974792e00000000000000000000000000000000600082015250565b600061660d6010836152da565b9150616618826165d7565b602082019050919050565b6000602082019050818103600083015261663c81616600565b9050919050565b600061665e6166596166548461538a565b616557565b61538a565b9050919050565b600061667082616643565b9050919050565b600061668282616665565b9050919050565b61669281616677565b82525050565b6000819050919050565b60006166bd6166b86166b384616698565b616557565b6151a2565b9050919050565b6166cd816166a2565b82525050565b60006166ee6166e96166e48461653f565b616557565b6151a2565b9050919050565b6166fe816166d3565b82525050565b600060a0820190506167196000830188616689565b6167266020830187616689565b61673360408301866151ac565b61674060608301856166c4565b61674d60808301846166f5565b9695505050505050565b6000806040838503121561676e5761676d61520a565b5b600061677c85828601615c53565b925050602083015167ffffffffffffffff81111561679d5761679c61520f565b5b6167a985828601616153565b9150509250929050565b7f45786365737369766520736c6970706167652e00000000000000000000000000600082015250565b60006167e96013836152da565b91506167f4826167b3565b602082019050919050565b60006020820190508181036000830152616818816167dc565b9050919050565b600060c0820190506168346000830189616689565b6168416020830188616689565b61684e60408301876151ac565b61685b60608301866151ac565b818103608083015261686d818561555b565b905061687c60a08301846166f5565b979650505050505050565b600060808201905061689c60008301876155f6565b6168a960208301866151ac565b6168b660408301856151ac565b6168c360608301846155f6565b95945050505050565b600080fd5b600281106168de57600080fd5b50565b6000815190506168f0816168d1565b92915050565b6002811061690357600080fd5b50565b600081519050616915816168f6565b92915050565b6004811061692857600080fd5b50565b60008151905061693a8161691b565b92915050565b60006102008284031215616957576169566168cc565b5b61696261020061609e565b90506000616972848285016168e1565b600083015250602061698684828501616906565b602083015250604061699a8482850161692b565b60408301525060606169ae84828501615d45565b60608301525060806169c284828501615c53565b60808301525060a06169d684828501615c53565b60a08301525060c06169ea84828501615c53565b60c08301525060e06169fe84828501615c53565b60e083015250610100616a1384828501615c53565b61010083015250610120616a2984828501615c53565b61012083015250610140616a3f84828501615c53565b61014083015250610160616a5584828501615c53565b61016083015250610180616a6b84828501615c53565b610180830152506101a0616a8184828501615c53565b6101a0830152506101c0616a9784828501615c53565b6101c0830152506101e0616aad84828501615c53565b6101e08301525092915050565b60006102008284031215616ad157616ad061520a565b5b6000616adf84828501616940565b91505092915050565b6000616af3826151a2565b91507fffffffffffffffffffffffffffffffffffffffffffffffffffffffffffffffff821415616b2657616b25615eda565b5b600182019050919050565b6000608082019050616b4660008301876151ac565b616b5360208301866151ac565b616b6060408301856151ac565b616b6d60608301846152a5565b95945050505050565b616b7f81615620565b8114616b8a57600080fd5b50565b600081519050616b9c81616b76565b92915050565b600060208284031215616bb857616bb761520a565b5b6000616bc684828501616b8d565b91505092915050565b7f45524332303a2064656372656173656420616c6c6f77616e63652062656c6f7760008201527f207a65726f000000000000000000000000000000000000000000000000000000602082015250565b6000616c2b6025836152da565b9150616c3682616bcf565b604082019050919050565b60006020820190508181036000830152616c5a81616c1e565b9050919050565b6000606082019050616c7660008301866155f6565b616c8360208301856155f6565b616c9060408301846151ac565b949350505050565b6000606082019050616cad60008301866155f6565b616cba60208301856151ac565b616cc760408301846151ac565b949350505050565b600060a082019050616ce460008301886155f6565b616cf160208301876151ac565b616cfe60408301866151ac565b616d0b6060830185616583565b616d1860808301846155f6565b9695505050505050565b7f496e73756666696369656e742062616c616e6365000000000000000000000000600082015250565b6000616d586014836152da565b9150616d6382616d22565b602082019050919050565b60006020820190508181036000830152616d8781616d4b565b9050919050565b7f42616c616e636520696e73756666696369656e742e0000000000000000000000600082015250565b6000616dc46015836152da565b9150616dcf82616d8e565b602082019050919050565b60006020820190508181036000830152616df381616db7565b9050919050565b600060208284031215616e1057616e0f61520a565b5b6000616e1e84828501615d45565b91505092915050565b7f45524332303a20617070726f76652066726f6d20746865207a65726f2061646460008201527f7265737300000000000000000000000000000000000000000000000000000000602082015250565b6000616e836024836152da565b9150616e8e82616e27565b604082019050919050565b60006020820190508181036000830152616eb281616e76565b9050919050565b7f45524332303a20617070726f766520746f20746865207a65726f20616464726560008201527f7373000000000000000000000000000000000000000000000000000000000000602082015250565b6000616f156022836152da565b9150616f2082616eb9565b604082019050919050565b60006020820190508181036000830152616f4481616f08565b9050919050565b600081905092915050565b7f416363657373436f6e74726f6c3a206163636f756e7420000000000000000000600082015250565b6000616f8c601783616f4b565b9150616f9782616f56565b601782019050919050565b6000616fad826152cf565b616fb78185616f4b565b9350616fc78185602086016152eb565b80840191505092915050565b7f206973206d697373696e6720726f6c6520000000000000000000000000000000600082015250565b6000617009601183616f4b565b915061701482616fd3565b601182019050919050565b600061702a82616f7f565b91506170368285616fa2565b915061704182616ffc565b915061704d8284616fa2565b91508190509392505050565b7f45524332303a207472616e736665722066726f6d20746865207a65726f20616460008201527f6472657373000000000000000000000000000000000000000000000000000000602082015250565b60006170b56025836152da565b91506170c082617059565b604082019050919050565b600060208201905081810360008301526170e4816170a8565b9050919050565b7f45524332303a207472616e7366657220746f20746865207a65726f206164647260008201527f6573730000000000000000000000000000000000000000000000000000000000602082015250565b60006171476023836152da565b9150617152826170eb565b604082019050919050565b600060208201905081810360008301526171768161713a565b9050919050565b7f45524332303a207472616e7366657220616d6f756e742065786365656473206260008201527f616c616e63650000000000000000000000000000000000000000000000000000602082015250565b60006171d96026836152da565b91506171e48261717d565b604082019050919050565b60006020820190508181036000830152617208816171cc565b9050919050565b600060408201905061722460008301856151ac565b61723160208301846152a5565b9392505050565b7f45524332303a206d696e7420746f20746865207a65726f206164647265737300600082015250565b600061726e601f836152da565b915061727982617238565b602082019050919050565b6000602082019050818103600083015261729d81617261565b9050919050565b7f45524332303a206275726e2066726f6d20746865207a65726f2061646472657360008201527f7300000000000000000000000000000000000000000000000000000000000000602082015250565b60006173006021836152da565b915061730b826172a4565b604082019050919050565b6000602082019050818103600083015261732f816172f3565b9050919050565b7f45524332303a206275726e20616d6f756e7420657863656564732062616c616e60008201527f6365000000000000000000000000000000000000000000000000000000000000602082015250565b60006173926022836152da565b915061739d82617336565b604082019050919050565b600060208201905081810360008301526173c181617385565b9050919050565b60006173d3826151a2565b91506173de836151a2565b9250817fffffffffffffffffffffffffffffffffffffffffffffffffffffffffffffffff048311821515161561741757617416615eda565b5b828202905092915050565b600061742d826151a2565b9150600082141561744157617440615eda565b5b600182039050919050565b7f537472696e67733a20686578206c656e67746820696e73756666696369656e74600082015250565b60006174826020836152da565b915061748d8261744c565b602082019050919050565b600060208201905081810360008301526174b181617475565b9050919050565b7f456e756d657261626c655365743a20696e646578206f7574206f6620626f756e60008201527f6473000000000000000000000000000000000000000000000000000000000000602082015250565b60006175146022836152da565b915061751f826174b8565b604082019050919050565b6000602082019050818103600083015261754381617507565b9050919050565b7f4e487b7100000000000000000000000000000000000000000000000000000000600052603160045260246000fdfea2646970667358221220f9ecf8ab944244ee6860852d827342e2a1480e9f4e60e2f270b09077b0de699364736f6c63430008090033",
  "immutableReferences": {},
  "source": "// SPDX-License-Identifier: MIT\npragma solidity 0.8.9;\n\nimport \"@openzeppelin/contracts/token/ERC20/ERC20.sol\";\nimport \"@openzeppelin/contracts/access/AccessControl.sol\";\nimport \"@openzeppelin/contracts/utils/structs/EnumerableSet.sol\";\nimport \"@openzeppelin/contracts/utils/math/Math.sol\";\nimport \"./MoretInterfaces.sol\";\nimport \"./FullMath.sol\";\nimport \"./MarketLibrary.sol\";\n\ncontract MoretMarketMaker is ERC20, AccessControl, EOption\n{\n  using EnumerableSet for EnumerableSet.UintSet;\n  using EnumerableSet for EnumerableSet.AddressSet;\n\n  bytes32 public constant ADMIN_ROLE = keccak256(\"ADMIN_ROLE\");\n  bytes32 public constant EXCHANGE_ROLE = keccak256(\"EXCHANGE_ROLE\");\n  mapping(address=> EnumerableSet.UintSet) internal activeOptionsPerOwner;\n  EnumerableSet.UintSet internal activeOptions;\n\n  uint256 private constant ethMultiplier = 10 ** 18;\n  uint256 public settlementFee = 5 * (10 ** 15); // 0.5% for settlement fee\n  uint256 public exerciseFee = 5 * (10 ** 15); // 0.5% to compensate for the exercise bot.\n  uint256 public extraCollateral = 12 * (10**17); // 20% extra collateral to post\n  IOptionVault internal optionVault;\n\n  address public underlyingAddress;\n  address public fundingAddress;\n  address internal maintenanceAddress;\n  address internal protocolDataProviderAddress;\n  \n  constructor(string memory _name, string memory _symbol, address _underlyingAddress, address _fundingAddress, address _optionAddress, address _protocolDataProviderAddress) ERC20(_name, _symbol){\n    _setupRole(DEFAULT_ADMIN_ROLE, msg.sender);\n    _setupRole(ADMIN_ROLE, msg.sender);\n    _setupRole(EXCHANGE_ROLE, msg.sender);\n    maintenanceAddress = msg.sender;\n    fundingAddress = _fundingAddress;\n    underlyingAddress = _underlyingAddress;\n    optionVault = IOptionVault(_optionAddress);\n    protocolDataProviderAddress = _protocolDataProviderAddress;\n    _mint(msg.sender, ethMultiplier);}\n\n  function recordOptionPurchase(address _purchaser, uint256 _id) external  onlyRole(EXCHANGE_ROLE){\n    activeOptionsPerOwner[_purchaser].add(_id);\n    activeOptions.add(_id);}\n\n  function getAggregateGamma(bool _ignoreSells) public onlyRole(EXCHANGE_ROLE) view returns(int256 _gamma){\n    (uint256 _price,, uint256 _priceMultiplier) = optionVault.queryPrice();\n    _gamma= 0;\n    for(uint256 i=0;i<activeOptions.length();i++){\n      _gamma += optionVault.calculateContractGamma(uint256(activeOptions.at(i)),_price, _priceMultiplier, _ignoreSells);}}\n\n  function getAggregateDelta(bool _ignoreSells) internal view returns(int256 _delta,uint256 _price, uint256 _priceMultiplier){\n    (_price,, _priceMultiplier) = optionVault.queryPrice();\n    _delta= 0;\n    for(uint256 i=0;i<activeOptions.length();i++){\n      _delta += optionVault.calculateContractDelta(uint256(activeOptions.at(i)),_price, _priceMultiplier, _ignoreSells);}}\n\n  function getBalances() public view returns(uint256 _underlyingBalance, uint256 _fundingBalance, uint256 _collateralBalance, uint256 _debtBalance){\n    ( _underlyingBalance, ,  _debtBalance) = MarketLibrary.getTokenBalances(address(this), protocolDataProviderAddress, underlyingAddress);\n    ( _fundingBalance,  _collateralBalance,) = MarketLibrary.getTokenBalances(address(this), protocolDataProviderAddress, fundingAddress); }\n\n  function anyOptionExpiring() external view returns(bool _isExpiring) {\n    _isExpiring = false;\n    for(uint256 i=0;i<activeOptions.length();i++){\n      if(optionVault.isOptionExpiring(uint256(activeOptions.at(i)))){\n        _isExpiring = true;\n        break;}}}\n\n  function expireOptions() external   returns(uint256 _expiringId){\n    _expiringId = 0;\n    for(uint256 i=0;i<activeOptions.length();i++){\n      if(optionVault.isOptionExpiring(uint256(activeOptions.at(i)))){\n        _expiringId = uint256(activeOptions.at(i));\n        break;}}\n    if(_expiringId >0) {\n      ( , uint256 _payback) = optionVault.getContractPayoff(_expiringId);\n      require(_payback < IERC20(underlyingAddress).balanceOf(address(this)), \"Balance insufficient.\");\n      if(_payback > 0){\n        optionVault.stampExpiredOption(_expiringId);\n        activeOptionsPerOwner[optionVault.getOptionHolder(_expiringId)].remove(_expiringId);\n        activeOptions.remove(_expiringId);\n        uint256 _settleFeeAmount = MulDiv(_payback, settlementFee, ethMultiplier);\n        uint256 _exerciseFeeAmount = MulDiv(_payback, exerciseFee, ethMultiplier);\n        require(IERC20(underlyingAddress).transfer(optionVault.getOptionHolder(_expiringId), _payback - _settleFeeAmount - _exerciseFeeAmount));\n        require(IERC20(underlyingAddress).transfer(maintenanceAddress, _settleFeeAmount));\n        require(IERC20(underlyingAddress).transfer(msg.sender, _exerciseFeeAmount));}}}\n\n  function getAggregateNotional() internal view returns(uint256 _notional) {\n    _notional= 0;\n    for(uint256 i=0;i<activeOptions.length();i++){\n      _notional += optionVault.queryOptionNotional(uint256(activeOptions.at(i)), false);} }\n\n  function calcCapital(bool _net, bool _average) public view returns(uint256 _capital){\n      (uint256 _price,, uint256 _priceMultiplier) = optionVault.queryPrice();\n      (uint256 _underlying_balance, uint256 _funding_balance, uint256 _collateral_balance, uint256 _debt_balance) = getBalances();\n      _capital = _funding_balance + _collateral_balance + MulDiv(_underlying_balance, _price, _priceMultiplier);\n      require(_capital > MulDiv(_debt_balance, _price, _priceMultiplier), \"Negative equity.\");\n      _capital -= MulDiv(_debt_balance, _price, _priceMultiplier);\n\n      if(_net){ _capital -= Math.min(getAggregateNotional(), _capital);}\n      if(_average){ _capital = MulDiv(_capital , ethMultiplier , totalSupply()); }}\n    \n  function addCapital(uint256 _depositAmount) external {\n      uint256 _averageGrossCapital = calcCapital(false, true);\n      uint256 _mintMPTokenAmount = MulDiv(_depositAmount, ethMultiplier, _averageGrossCapital);\n      require(ERC20(fundingAddress).transferFrom(msg.sender, address(this), _depositAmount));\n      _mint(msg.sender, _mintMPTokenAmount);\n      emit capitalAdded(msg.sender, _depositAmount, _mintMPTokenAmount);}\n\n  function withdrawCapital(uint256 _burnMPTokenAmount) external {\n      uint256 _withdrawValue = MulDiv(calcCapital(true, true),  _burnMPTokenAmount , ethMultiplier);\n      require(IERC20(fundingAddress).balanceOf(address(this)) > _withdrawValue,\"Insufficient balance\");\n      _burn(msg.sender, _burnMPTokenAmount);\n      require(ERC20(fundingAddress).transfer(msg.sender, _withdrawValue));\n      emit capitalWithdrawn(msg.sender, _burnMPTokenAmount, _withdrawValue);}\n  \n  function calcHedgeTrade() external onlyRole(EXCHANGE_ROLE) view returns(uint256 _targetUnderlying, int256 _chgDebt, int256 _chgCollateral){\n    (int256 _aggregateDelta, uint256 _price, uint256 _priceMultiplier) = getAggregateDelta(false);\n    _targetUnderlying = 0;\n    _chgDebt = 0;\n    ( , uint256 _fundingBalance, uint256 _collateralBalance, uint256 _debtBalance) = getBalances();\n    if(_aggregateDelta >= 0){_chgDebt = -int256(_debtBalance); \n      _chgCollateral = -int256(_collateralBalance);\n      _targetUnderlying = uint256(_aggregateDelta) ;}\n    if(_aggregateDelta < 0){_targetUnderlying = 0; \n      _chgDebt = int256(_debtBalance) + _aggregateDelta;\n      (uint256 _ltv, uint256 _reserveMultiplier) = MarketLibrary.getLTV(protocolDataProviderAddress, underlyingAddress);\n      uint256 _requiredCollateral = MulDiv(MulDiv(MulDiv(uint256(-_aggregateDelta), _price, _priceMultiplier), _reserveMultiplier, _ltv), extraCollateral, ethMultiplier);\n      require(_requiredCollateral<= (_fundingBalance + _collateralBalance), \"Insufficient collateral;\");\n      _chgCollateral =  int256(_requiredCollateral) - int256(_collateralBalance) ;}}\n\n  function approveSpending(address _tokenAddress, address _exchangeAddress, uint256 _amount) external onlyRole(EXCHANGE_ROLE){\n    ERC20(_tokenAddress).increaseAllowance(_exchangeAddress, _amount);}\n\n  function depositCollateral(uint256 _addCollateral, address _lendingPoolAddress) external onlyRole(EXCHANGE_ROLE){\n    ERC20(fundingAddress).increaseAllowance(_lendingPoolAddress, _addCollateral);\n    ILendingPool(_lendingPoolAddress).deposit(fundingAddress, _addCollateral, address(this), 0);}\n\n  function withdrawCollateral(uint256 _removeCollateral, address _lendingPoolAddress) external onlyRole(EXCHANGE_ROLE){\n    (address _collateralAddress,,) = MarketLibrary.getLendingTokenAddresses(protocolDataProviderAddress, fundingAddress);\n    ERC20(_collateralAddress).increaseAllowance(_lendingPoolAddress, _removeCollateral);\n    ILendingPool(_lendingPoolAddress).withdraw(fundingAddress, _removeCollateral, address(this));}\n\n  function borrowLoans(uint256 _borrowAmount , address _lendingPoolAddress, uint256 _lendingPoolRateMode)  external onlyRole(EXCHANGE_ROLE) {\n    ILendingPool(_lendingPoolAddress).borrow(underlyingAddress, _borrowAmount, _lendingPoolRateMode,  0, address(this));}\n\n  function repayLoans(uint256 _repayAmount, address _lendingPoolAddress, uint256 _lendingPoolRateMode)  external onlyRole(EXCHANGE_ROLE) {\n    (,address _stableDebt, address _debtToken) = MarketLibrary.getLendingTokenAddresses(protocolDataProviderAddress, underlyingAddress);\n    if(_lendingPoolRateMode==1) _debtToken = _stableDebt;\n    ERC20(_debtToken).approve(_lendingPoolAddress, _repayAmount);\n    ERC20(underlyingAddress).approve(_lendingPoolAddress, _repayAmount);\n    ILendingPool(_lendingPoolAddress).repay(underlyingAddress, _repayAmount, _lendingPoolRateMode, address(this));}\n\n  function swapToUnderlyingAtVenue(uint256 _underlyingAmount, address _exchangeAddress, uint256 _maxSlippage, uint256 _deadlineLag) external onlyRole(EXCHANGE_ROLE)  returns(uint256[] memory _swappedAmounts){\n    address[] memory _path = new address[](2);\n    _path[0] = fundingAddress;\n    _path[1] = underlyingAddress; \n    (uint256 _price,, uint256 _priceMultiplier) = optionVault.queryPrice();\n    uint256 _maxCost = MulDiv(MulDiv(_underlyingAmount, _price, _priceMultiplier), ethMultiplier + _maxSlippage, ethMultiplier);\n    ERC20(fundingAddress).increaseAllowance(_exchangeAddress, _maxCost);\n    _swappedAmounts = IUniswapV2Router02(_exchangeAddress).swapTokensForExactTokens(_underlyingAmount, _maxCost, _path, address(this), block.timestamp + _deadlineLag); }\n\n  function swapToFundingAtVenue(uint256 _underlyingAmount,  address _exchangeAddress, uint256 _maxSlippage, uint256 _deadlineLag) external onlyRole(EXCHANGE_ROLE)   returns(uint256[] memory _swappedAmounts) {\n    ERC20(underlyingAddress).increaseAllowance(_exchangeAddress, _underlyingAmount);\n    address[] memory _path = new address[](2);\n    _path[0] = underlyingAddress;\n    _path[1] = fundingAddress;\n    (uint256 _price,, uint256 _priceMultiplier) = optionVault.queryPrice();\n    uint256 _minReturn = MulDiv(MulDiv(_underlyingAmount, _price, _priceMultiplier), ethMultiplier - _maxSlippage, ethMultiplier);\n    _swappedAmounts = IUniswapV2Router02(_exchangeAddress).swapExactTokensForTokens(_underlyingAmount, _minReturn, _path, address(this), block.timestamp + _deadlineLag);}\n\n  function swapToUnderlyingAtAggregator(uint256 _underlyingAmount, address _exchangeAddress, uint256 _maxSlippage ) external onlyRole(EXCHANGE_ROLE)  returns(uint256 _swappedAmounts, uint256 _swappedUnderlying){\n    (uint256 _price,, uint256 _priceMultiplier) = optionVault.queryPrice();\n    _swappedAmounts = MulDiv(MulDiv(_underlyingAmount, _price, _priceMultiplier), ethMultiplier + _maxSlippage, ethMultiplier);\n    (uint256 _returnAmount, uint256[] memory _distribution) = I1InchProtocol(_exchangeAddress).getExpectedReturn( IERC20(fundingAddress) , IERC20(underlyingAddress) , _swappedAmounts, 1, 0);\n    ERC20(fundingAddress).increaseAllowance(_exchangeAddress, _swappedAmounts);\n    _swappedUnderlying = I1InchProtocol(_exchangeAddress).swap( IERC20(fundingAddress), IERC20(underlyingAddress), _swappedAmounts, _returnAmount, _distribution, 0);}\n\n  function swapToFundingAtAggregator(uint256 _underlyingAmount,  address _exchangeAddress, uint256 _maxSlippage ) external onlyRole(EXCHANGE_ROLE)  returns(uint256 _swappedAmounts) {\n    (uint256 _price,, uint256 _priceMultiplier) = optionVault.queryPrice();\n    (uint256 _returnAmount, uint256[] memory _distribution) = I1InchProtocol(_exchangeAddress).getExpectedReturn( IERC20(underlyingAddress), IERC20(fundingAddress), _underlyingAmount, 1, 0);\n    require(_returnAmount >= MulDiv(MulDiv(_underlyingAmount, _price, _priceMultiplier), ethMultiplier - _maxSlippage, ethMultiplier),\"Excessive slippage.\");\n    ERC20(underlyingAddress).increaseAllowance(_exchangeAddress, _underlyingAmount);\n    _swappedAmounts = I1InchProtocol(_exchangeAddress).swap(IERC20(underlyingAddress), IERC20(fundingAddress), _underlyingAmount, _returnAmount, _distribution, 0);}\n\n  function resetSettlementFee(uint256 _newFee) external onlyRole(ADMIN_ROLE){ require(_newFee < ethMultiplier); settlementFee = _newFee;}\n  function resetExerciseFee(uint256 _newFee) external onlyRole(ADMIN_ROLE){ require(_newFee < ethMultiplier); exerciseFee = _newFee;}\n  function resetMaintenance(address _newAddress) external onlyRole(ADMIN_ROLE){ maintenanceAddress = _newAddress;}\n\n  function getHoldersOptionCount(address _address) external view returns(uint256){return activeOptionsPerOwner[_address].length();}\n  function getHoldersOption(uint256 _index, address _address) external view returns(OptionLibrary.Option memory) {return optionVault.getOption(activeOptionsPerOwner[_address].at(_index));}\n\n}\n",
  "sourcePath": "/Users/mac/Documents/GitHub/moret/contracts/MoretMarketMaker.sol",
  "compiler": {
    "name": "solc",
    "version": "0.8.9+commit.e5eed63a.Emscripten.clang"
  },
  "schemaVersion": "3.4.3",
  "updatedAt": "2021-10-26T23:07:52.707Z",
  "devdoc": {
    "kind": "dev",
    "methods": {
      "allowance(address,address)": {
        "details": "See {IERC20-allowance}."
      },
      "approve(address,uint256)": {
        "details": "See {IERC20-approve}. Requirements: - `spender` cannot be the zero address."
      },
      "balanceOf(address)": {
        "details": "See {IERC20-balanceOf}."
      },
      "decimals()": {
        "details": "Returns the number of decimals used to get its user representation. For example, if `decimals` equals `2`, a balance of `505` tokens should be displayed to a user as `5,05` (`505 / 10 ** 2`). Tokens usually opt for a value of 18, imitating the relationship between Ether and Wei. This is the value {ERC20} uses, unless this function is overridden; NOTE: This information is only used for _display_ purposes: it in no way affects any of the arithmetic of the contract, including {IERC20-balanceOf} and {IERC20-transfer}."
      },
      "decreaseAllowance(address,uint256)": {
        "details": "Atomically decreases the allowance granted to `spender` by the caller. This is an alternative to {approve} that can be used as a mitigation for problems described in {IERC20-approve}. Emits an {Approval} event indicating the updated allowance. Requirements: - `spender` cannot be the zero address. - `spender` must have allowance for the caller of at least `subtractedValue`."
      },
      "getRoleAdmin(bytes32)": {
        "details": "Returns the admin role that controls `role`. See {grantRole} and {revokeRole}. To change a role's admin, use {_setRoleAdmin}."
      },
      "grantRole(bytes32,address)": {
        "details": "Grants `role` to `account`. If `account` had not been already granted `role`, emits a {RoleGranted} event. Requirements: - the caller must have ``role``'s admin role."
      },
      "hasRole(bytes32,address)": {
        "details": "Returns `true` if `account` has been granted `role`."
      },
      "increaseAllowance(address,uint256)": {
        "details": "Atomically increases the allowance granted to `spender` by the caller. This is an alternative to {approve} that can be used as a mitigation for problems described in {IERC20-approve}. Emits an {Approval} event indicating the updated allowance. Requirements: - `spender` cannot be the zero address."
      },
      "name()": {
        "details": "Returns the name of the token."
      },
      "renounceRole(bytes32,address)": {
        "details": "Revokes `role` from the calling account. Roles are often managed via {grantRole} and {revokeRole}: this function's purpose is to provide a mechanism for accounts to lose their privileges if they are compromised (such as when a trusted device is misplaced). If the calling account had been granted `role`, emits a {RoleRevoked} event. Requirements: - the caller must be `account`."
      },
      "revokeRole(bytes32,address)": {
        "details": "Revokes `role` from `account`. If `account` had been granted `role`, emits a {RoleRevoked} event. Requirements: - the caller must have ``role``'s admin role."
      },
      "supportsInterface(bytes4)": {
        "details": "See {IERC165-supportsInterface}."
      },
      "symbol()": {
        "details": "Returns the symbol of the token, usually a shorter version of the name."
      },
      "totalSupply()": {
        "details": "See {IERC20-totalSupply}."
      },
      "transfer(address,uint256)": {
        "details": "See {IERC20-transfer}. Requirements: - `recipient` cannot be the zero address. - the caller must have a balance of at least `amount`."
      },
      "transferFrom(address,address,uint256)": {
        "details": "See {IERC20-transferFrom}. Emits an {Approval} event indicating the updated allowance. This is not required by the EIP. See the note at the beginning of {ERC20}. Requirements: - `sender` and `recipient` cannot be the zero address. - `sender` must have a balance of at least `amount`. - the caller must have allowance for ``sender``'s tokens of at least `amount`."
      }
    },
    "version": 1
  },
  "userdoc": {
    "kind": "user",
    "methods": {},
    "version": 1
  }
}