{
  "contractName": "MoretMarketMaker",
  "abi": [
    {
      "inputs": [
        {
          "internalType": "string",
          "name": "_name",
          "type": "string"
        },
        {
          "internalType": "string",
          "name": "_symbol",
          "type": "string"
        },
        {
          "internalType": "contract OptionVault",
          "name": "_optionVault",
          "type": "address"
        }
      ],
      "stateMutability": "nonpayable",
      "type": "constructor"
    },
    {
      "anonymous": false,
      "inputs": [
        {
          "indexed": true,
          "internalType": "address",
          "name": "owner",
          "type": "address"
        },
        {
          "indexed": true,
          "internalType": "address",
          "name": "spender",
          "type": "address"
        },
        {
          "indexed": false,
          "internalType": "uint256",
          "name": "value",
          "type": "uint256"
        }
      ],
      "name": "Approval",
      "type": "event"
    },
    {
      "anonymous": false,
      "inputs": [
        {
          "indexed": true,
          "internalType": "address",
          "name": "_purchaser",
          "type": "address"
        },
        {
          "components": [
            {
              "internalType": "enum OptionLibrary.PayoffType",
              "name": "poType",
              "type": "uint8"
            },
            {
              "internalType": "enum OptionLibrary.OptionSide",
              "name": "side",
              "type": "uint8"
            },
            {
              "internalType": "enum OptionLibrary.OptionStatus",
              "name": "status",
              "type": "uint8"
            },
            {
              "internalType": "address",
              "name": "holder",
              "type": "address"
            },
            {
              "internalType": "uint256",
              "name": "id",
              "type": "uint256"
            },
            {
              "internalType": "uint256",
              "name": "createTime",
              "type": "uint256"
            },
            {
              "internalType": "uint256",
              "name": "effectiveTime",
              "type": "uint256"
            },
            {
              "internalType": "uint256",
              "name": "tenor",
              "type": "uint256"
            },
            {
              "internalType": "uint256",
              "name": "maturity",
              "type": "uint256"
            },
            {
              "internalType": "uint256",
              "name": "exerciseTime",
              "type": "uint256"
            },
            {
              "internalType": "uint256",
              "name": "amount",
              "type": "uint256"
            },
            {
              "internalType": "uint256",
              "name": "spot",
              "type": "uint256"
            },
            {
              "internalType": "uint256",
              "name": "strike",
              "type": "uint256"
            },
            {
              "internalType": "uint256",
              "name": "volatility",
              "type": "uint256"
            },
            {
              "internalType": "uint256",
              "name": "premium",
              "type": "uint256"
            },
            {
              "internalType": "uint256",
              "name": "cost",
              "type": "uint256"
            }
          ],
          "indexed": false,
          "internalType": "struct OptionLibrary.Option",
          "name": "_option",
          "type": "tuple"
        },
        {
          "indexed": false,
          "internalType": "uint256",
          "name": "_payoff",
          "type": "uint256"
        }
      ],
      "name": "Expire",
      "type": "event"
    },
    {
      "anonymous": false,
      "inputs": [
        {
          "indexed": true,
          "internalType": "address",
          "name": "_purchaser",
          "type": "address"
        },
        {
          "components": [
            {
              "internalType": "enum OptionLibrary.PayoffType",
              "name": "poType",
              "type": "uint8"
            },
            {
              "internalType": "enum OptionLibrary.OptionSide",
              "name": "side",
              "type": "uint8"
            },
            {
              "internalType": "enum OptionLibrary.OptionStatus",
              "name": "status",
              "type": "uint8"
            },
            {
              "internalType": "address",
              "name": "holder",
              "type": "address"
            },
            {
              "internalType": "uint256",
              "name": "id",
              "type": "uint256"
            },
            {
              "internalType": "uint256",
              "name": "createTime",
              "type": "uint256"
            },
            {
              "internalType": "uint256",
              "name": "effectiveTime",
              "type": "uint256"
            },
            {
              "internalType": "uint256",
              "name": "tenor",
              "type": "uint256"
            },
            {
              "internalType": "uint256",
              "name": "maturity",
              "type": "uint256"
            },
            {
              "internalType": "uint256",
              "name": "exerciseTime",
              "type": "uint256"
            },
            {
              "internalType": "uint256",
              "name": "amount",
              "type": "uint256"
            },
            {
              "internalType": "uint256",
              "name": "spot",
              "type": "uint256"
            },
            {
              "internalType": "uint256",
              "name": "strike",
              "type": "uint256"
            },
            {
              "internalType": "uint256",
              "name": "volatility",
              "type": "uint256"
            },
            {
              "internalType": "uint256",
              "name": "premium",
              "type": "uint256"
            },
            {
              "internalType": "uint256",
              "name": "cost",
              "type": "uint256"
            }
          ],
          "indexed": false,
          "internalType": "struct OptionLibrary.Option",
          "name": "_option",
          "type": "tuple"
        },
        {
          "indexed": false,
          "internalType": "uint256",
          "name": "_cost",
          "type": "uint256"
        },
        {
          "indexed": false,
          "internalType": "bool",
          "name": "_inVol",
          "type": "bool"
        }
      ],
      "name": "NewOption",
      "type": "event"
    },
    {
      "anonymous": false,
      "inputs": [
        {
          "indexed": true,
          "internalType": "uint256",
          "name": "_addressId",
          "type": "uint256"
        },
        {
          "indexed": false,
          "internalType": "address",
          "name": "_address",
          "type": "address"
        }
      ],
      "name": "ResetAddress",
      "type": "event"
    },
    {
      "anonymous": false,
      "inputs": [
        {
          "indexed": true,
          "internalType": "uint256",
          "name": "_parameterId",
          "type": "uint256"
        },
        {
          "indexed": false,
          "internalType": "uint256",
          "name": "_parameter",
          "type": "uint256"
        }
      ],
      "name": "ResetParameter",
      "type": "event"
    },
    {
      "anonymous": false,
      "inputs": [
        {
          "indexed": false,
          "internalType": "bool",
          "name": "success",
          "type": "bool"
        },
        {
          "indexed": false,
          "internalType": "bytes",
          "name": "data",
          "type": "bytes"
        }
      ],
      "name": "Response",
      "type": "event"
    },
    {
      "anonymous": false,
      "inputs": [
        {
          "indexed": true,
          "internalType": "bytes32",
          "name": "role",
          "type": "bytes32"
        },
        {
          "indexed": true,
          "internalType": "bytes32",
          "name": "previousAdminRole",
          "type": "bytes32"
        },
        {
          "indexed": true,
          "internalType": "bytes32",
          "name": "newAdminRole",
          "type": "bytes32"
        }
      ],
      "name": "RoleAdminChanged",
      "type": "event"
    },
    {
      "anonymous": false,
      "inputs": [
        {
          "indexed": true,
          "internalType": "bytes32",
          "name": "role",
          "type": "bytes32"
        },
        {
          "indexed": true,
          "internalType": "address",
          "name": "account",
          "type": "address"
        },
        {
          "indexed": true,
          "internalType": "address",
          "name": "sender",
          "type": "address"
        }
      ],
      "name": "RoleGranted",
      "type": "event"
    },
    {
      "anonymous": false,
      "inputs": [
        {
          "indexed": true,
          "internalType": "bytes32",
          "name": "role",
          "type": "bytes32"
        },
        {
          "indexed": true,
          "internalType": "address",
          "name": "account",
          "type": "address"
        },
        {
          "indexed": true,
          "internalType": "address",
          "name": "sender",
          "type": "address"
        }
      ],
      "name": "RoleRevoked",
      "type": "event"
    },
    {
      "anonymous": false,
      "inputs": [
        {
          "indexed": true,
          "internalType": "uint256",
          "name": "_id",
          "type": "uint256"
        },
        {
          "indexed": false,
          "internalType": "uint256",
          "name": "_timestamp",
          "type": "uint256"
        }
      ],
      "name": "StampExpire",
      "type": "event"
    },
    {
      "anonymous": false,
      "inputs": [
        {
          "indexed": true,
          "internalType": "uint256",
          "name": "_id",
          "type": "uint256"
        },
        {
          "indexed": false,
          "internalType": "uint256",
          "name": "_timestamp",
          "type": "uint256"
        }
      ],
      "name": "StampNewOption",
      "type": "event"
    },
    {
      "anonymous": false,
      "inputs": [
        {
          "indexed": true,
          "internalType": "address",
          "name": "from",
          "type": "address"
        },
        {
          "indexed": true,
          "internalType": "address",
          "name": "to",
          "type": "address"
        },
        {
          "indexed": false,
          "internalType": "uint256",
          "name": "value",
          "type": "uint256"
        }
      ],
      "name": "Transfer",
      "type": "event"
    },
    {
      "anonymous": false,
      "inputs": [
        {
          "indexed": true,
          "internalType": "uint256",
          "name": "_tenor",
          "type": "uint256"
        },
        {
          "indexed": false,
          "internalType": "address",
          "name": "_tokenAddress",
          "type": "address"
        }
      ],
      "name": "VolTokenAddition",
      "type": "event"
    },
    {
      "anonymous": false,
      "inputs": [
        {
          "indexed": true,
          "internalType": "uint256",
          "name": "_tenor",
          "type": "uint256"
        }
      ],
      "name": "VolTokenRemoved",
      "type": "event"
    },
    {
      "inputs": [],
      "name": "ADMIN_ROLE",
      "outputs": [
        {
          "internalType": "bytes32",
          "name": "",
          "type": "bytes32"
        }
      ],
      "stateMutability": "view",
      "type": "function"
    },
    {
      "inputs": [],
      "name": "DEFAULT_ADMIN_ROLE",
      "outputs": [
        {
          "internalType": "bytes32",
          "name": "",
          "type": "bytes32"
        }
      ],
      "stateMutability": "view",
      "type": "function"
    },
    {
      "inputs": [],
      "name": "EXCHANGE_ROLE",
      "outputs": [
        {
          "internalType": "bytes32",
          "name": "",
          "type": "bytes32"
        }
      ],
      "stateMutability": "view",
      "type": "function"
    },
    {
      "inputs": [
        {
          "internalType": "address",
          "name": "owner",
          "type": "address"
        },
        {
          "internalType": "address",
          "name": "spender",
          "type": "address"
        }
      ],
      "name": "allowance",
      "outputs": [
        {
          "internalType": "uint256",
          "name": "",
          "type": "uint256"
        }
      ],
      "stateMutability": "view",
      "type": "function"
    },
    {
      "inputs": [
        {
          "internalType": "address",
          "name": "spender",
          "type": "address"
        },
        {
          "internalType": "uint256",
          "name": "amount",
          "type": "uint256"
        }
      ],
      "name": "approve",
      "outputs": [
        {
          "internalType": "bool",
          "name": "",
          "type": "bool"
        }
      ],
      "stateMutability": "nonpayable",
      "type": "function"
    },
    {
      "inputs": [
        {
          "internalType": "address",
          "name": "account",
          "type": "address"
        }
      ],
      "name": "balanceOf",
      "outputs": [
        {
          "internalType": "uint256",
          "name": "",
          "type": "uint256"
        }
      ],
      "stateMutability": "view",
      "type": "function"
    },
    {
      "inputs": [],
      "name": "decimals",
      "outputs": [
        {
          "internalType": "uint8",
          "name": "",
          "type": "uint8"
        }
      ],
      "stateMutability": "view",
      "type": "function"
    },
    {
      "inputs": [
        {
          "internalType": "address",
          "name": "spender",
          "type": "address"
        },
        {
          "internalType": "uint256",
          "name": "subtractedValue",
          "type": "uint256"
        }
      ],
      "name": "decreaseAllowance",
      "outputs": [
        {
          "internalType": "bool",
          "name": "",
          "type": "bool"
        }
      ],
      "stateMutability": "nonpayable",
      "type": "function"
    },
    {
      "inputs": [],
      "name": "exerciseFee",
      "outputs": [
        {
          "internalType": "uint256",
          "name": "",
          "type": "uint256"
        }
      ],
      "stateMutability": "view",
      "type": "function"
    },
    {
      "inputs": [
        {
          "internalType": "bytes32",
          "name": "role",
          "type": "bytes32"
        }
      ],
      "name": "getRoleAdmin",
      "outputs": [
        {
          "internalType": "bytes32",
          "name": "",
          "type": "bytes32"
        }
      ],
      "stateMutability": "view",
      "type": "function"
    },
    {
      "inputs": [
        {
          "internalType": "bytes32",
          "name": "role",
          "type": "bytes32"
        },
        {
          "internalType": "address",
          "name": "account",
          "type": "address"
        }
      ],
      "name": "grantRole",
      "outputs": [],
      "stateMutability": "nonpayable",
      "type": "function"
    },
    {
      "inputs": [
        {
          "internalType": "bytes32",
          "name": "role",
          "type": "bytes32"
        },
        {
          "internalType": "address",
          "name": "account",
          "type": "address"
        }
      ],
      "name": "hasRole",
      "outputs": [
        {
          "internalType": "bool",
          "name": "",
          "type": "bool"
        }
      ],
      "stateMutability": "view",
      "type": "function"
    },
    {
      "inputs": [
        {
          "internalType": "address",
          "name": "spender",
          "type": "address"
        },
        {
          "internalType": "uint256",
          "name": "addedValue",
          "type": "uint256"
        }
      ],
      "name": "increaseAllowance",
      "outputs": [
        {
          "internalType": "bool",
          "name": "",
          "type": "bool"
        }
      ],
      "stateMutability": "nonpayable",
      "type": "function"
    },
    {
      "inputs": [],
      "name": "lendingPoolRateMode",
      "outputs": [
        {
          "internalType": "uint256",
          "name": "",
          "type": "uint256"
        }
      ],
      "stateMutability": "view",
      "type": "function"
    },
    {
      "inputs": [],
      "name": "maintenanceAddress",
      "outputs": [
        {
          "internalType": "address",
          "name": "",
          "type": "address"
        }
      ],
      "stateMutability": "view",
      "type": "function"
    },
    {
      "inputs": [],
      "name": "name",
      "outputs": [
        {
          "internalType": "string",
          "name": "",
          "type": "string"
        }
      ],
      "stateMutability": "view",
      "type": "function"
    },
    {
      "inputs": [
        {
          "internalType": "bytes32",
          "name": "role",
          "type": "bytes32"
        },
        {
          "internalType": "address",
          "name": "account",
          "type": "address"
        }
      ],
      "name": "renounceRole",
      "outputs": [],
      "stateMutability": "nonpayable",
      "type": "function"
    },
    {
      "inputs": [
        {
          "internalType": "bytes32",
          "name": "role",
          "type": "bytes32"
        },
        {
          "internalType": "address",
          "name": "account",
          "type": "address"
        }
      ],
      "name": "revokeRole",
      "outputs": [],
      "stateMutability": "nonpayable",
      "type": "function"
    },
    {
      "inputs": [],
      "name": "settlementFee",
      "outputs": [
        {
          "internalType": "uint256",
          "name": "",
          "type": "uint256"
        }
      ],
      "stateMutability": "view",
      "type": "function"
    },
    {
      "inputs": [
        {
          "internalType": "bytes4",
          "name": "interfaceId",
          "type": "bytes4"
        }
      ],
      "name": "supportsInterface",
      "outputs": [
        {
          "internalType": "bool",
          "name": "",
          "type": "bool"
        }
      ],
      "stateMutability": "view",
      "type": "function"
    },
    {
      "inputs": [],
      "name": "swapSlippage",
      "outputs": [
        {
          "internalType": "uint256",
          "name": "",
          "type": "uint256"
        }
      ],
      "stateMutability": "view",
      "type": "function"
    },
    {
      "inputs": [],
      "name": "symbol",
      "outputs": [
        {
          "internalType": "string",
          "name": "",
          "type": "string"
        }
      ],
      "stateMutability": "view",
      "type": "function"
    },
    {
      "inputs": [],
      "name": "totalSupply",
      "outputs": [
        {
          "internalType": "uint256",
          "name": "",
          "type": "uint256"
        }
      ],
      "stateMutability": "view",
      "type": "function"
    },
    {
      "inputs": [
        {
          "internalType": "address",
          "name": "recipient",
          "type": "address"
        },
        {
          "internalType": "uint256",
          "name": "amount",
          "type": "uint256"
        }
      ],
      "name": "transfer",
      "outputs": [
        {
          "internalType": "bool",
          "name": "",
          "type": "bool"
        }
      ],
      "stateMutability": "nonpayable",
      "type": "function"
    },
    {
      "inputs": [
        {
          "internalType": "address",
          "name": "sender",
          "type": "address"
        },
        {
          "internalType": "address",
          "name": "recipient",
          "type": "address"
        },
        {
          "internalType": "uint256",
          "name": "amount",
          "type": "uint256"
        }
      ],
      "name": "transferFrom",
      "outputs": [
        {
          "internalType": "bool",
          "name": "",
          "type": "bool"
        }
      ],
      "stateMutability": "nonpayable",
      "type": "function"
    },
    {
      "inputs": [
        {
          "internalType": "address",
          "name": "_exerciseFeeRecipient",
          "type": "address"
        },
        {
          "internalType": "uint256",
          "name": "_maxContracts",
          "type": "uint256"
        }
      ],
      "name": "expireOptions",
      "outputs": [],
      "stateMutability": "nonpayable",
      "type": "function"
    },
    {
      "inputs": [
        {
          "internalType": "bool",
          "name": "_net",
          "type": "bool"
        },
        {
          "internalType": "bool",
          "name": "_average",
          "type": "bool"
        }
      ],
      "name": "calcCapital",
      "outputs": [
        {
          "internalType": "uint256",
          "name": "_capital",
          "type": "uint256"
        }
      ],
      "stateMutability": "view",
      "type": "function"
    },
    {
      "inputs": [
        {
          "internalType": "uint256",
          "name": "_depositAmount",
          "type": "uint256"
        }
      ],
      "name": "addCapital",
      "outputs": [],
      "stateMutability": "nonpayable",
      "type": "function"
    },
    {
      "inputs": [
        {
          "internalType": "uint256",
          "name": "_burnMPTokenAmount",
          "type": "uint256"
        }
      ],
      "name": "withdrawCapital",
      "outputs": [],
      "stateMutability": "nonpayable",
      "type": "function"
    },
    {
      "inputs": [
        {
          "internalType": "int256",
          "name": "_underlyingAmt",
          "type": "int256"
        },
        {
          "internalType": "int256",
          "name": "_fundingAmt",
          "type": "int256"
        },
        {
          "internalType": "address payable",
          "name": "_spender",
          "type": "address"
        },
        {
          "internalType": "bytes",
          "name": "_calldata",
          "type": "bytes"
        },
        {
          "internalType": "uint256",
          "name": "_gas",
          "type": "uint256"
        }
      ],
      "name": "tradeSwapAggregate",
      "outputs": [],
      "stateMutability": "nonpayable",
      "type": "function"
    },
    {
      "inputs": [
        {
          "internalType": "int256",
          "name": "_underlyingAmt",
          "type": "int256"
        },
        {
          "internalType": "int256",
          "name": "_fundingAmt",
          "type": "int256"
        },
        {
          "internalType": "contract IUniswapV2Router02",
          "name": "_router",
          "type": "address"
        },
        {
          "internalType": "uint256",
          "name": "_deadline",
          "type": "uint256"
        }
      ],
      "name": "tradeSwaps",
      "outputs": [],
      "stateMutability": "nonpayable",
      "type": "function"
    },
    {
      "inputs": [],
      "name": "hedgeTradesForLoans",
      "outputs": [],
      "stateMutability": "nonpayable",
      "type": "function"
    },
    {
      "inputs": [
        {
          "internalType": "uint256",
          "name": "_newFee",
          "type": "uint256"
        }
      ],
      "name": "resetSettlementFee",
      "outputs": [],
      "stateMutability": "nonpayable",
      "type": "function"
    },
    {
      "inputs": [
        {
          "internalType": "uint256",
          "name": "_newFee",
          "type": "uint256"
        }
      ],
      "name": "resetExerciseFee",
      "outputs": [],
      "stateMutability": "nonpayable",
      "type": "function"
    },
    {
      "inputs": [
        {
          "internalType": "uint256",
          "name": "_slippage",
          "type": "uint256"
        }
      ],
      "name": "resetSlippage",
      "outputs": [],
      "stateMutability": "nonpayable",
      "type": "function"
    },
    {
      "inputs": [
        {
          "internalType": "uint256",
          "name": "_newRateMode",
          "type": "uint256"
        }
      ],
      "name": "resetLendingPoolRateMode",
      "outputs": [],
      "stateMutability": "nonpayable",
      "type": "function"
    },
    {
      "inputs": [
        {
          "internalType": "address",
          "name": "_newAddress",
          "type": "address"
        }
      ],
      "name": "resetMaintenance",
      "outputs": [],
      "stateMutability": "nonpayable",
      "type": "function"
    }
  ],
  "bytecode": "0x6101006040526611c37937e080006006556611c37937e080006007556601c6bf5263400060085560026009553480156200003857600080fd5b5060405162006d9c38038062006d9c83398181016040528101906200005e9190620009a0565b8282816003908051906020019062000078929190620006da565b50806004908051906020019062000091929190620006da565b505050620000a96000801b33620003dc60201b60201c565b620000db7fa49807205ce4d355092ef5a8a18f56e8913cf4a201fbe287825b095693c2177533620003dc60201b60201c565b6200010d7f28d62fc77014de57a1bbaa8212ff0979fa61ab00d377b4b8d9762048fb41996133620003dc60201b60201c565b33600a60006101000a81548173ffffffffffffffffffffffffffffffffffffffff021916908373ffffffffffffffffffffffffffffffffffffffff1602179055508073ffffffffffffffffffffffffffffffffffffffff1660a08173ffffffffffffffffffffffffffffffffffffffff16815250508073ffffffffffffffffffffffffffffffffffffffff16636f307dc36040518163ffffffff1660e01b8152600401602060405180830381865afa158015620001ce573d6000803e3d6000fd5b505050506040513d601f19601f82011682018060405250810190620001f4919062000a7f565b73ffffffffffffffffffffffffffffffffffffffff1660c08173ffffffffffffffffffffffffffffffffffffffff16815250508073ffffffffffffffffffffffffffffffffffffffff1663cb4c86b76040518163ffffffff1660e01b8152600401602060405180830381865afa15801562000273573d6000803e3d6000fd5b505050506040513d601f19601f8201168201806040525081019062000299919062000a7f565b73ffffffffffffffffffffffffffffffffffffffff1660e08173ffffffffffffffffffffffffffffffffffffffff16815250508073ffffffffffffffffffffffffffffffffffffffff1663cb4c86b76040518163ffffffff1660e01b8152600401602060405180830381865afa15801562000318573d6000803e3d6000fd5b505050506040513d601f19601f820116820180604052508101906200033e919062000a7f565b73ffffffffffffffffffffffffffffffffffffffff1663313ce5676040518163ffffffff1660e01b8152600401602060405180830381865afa15801562000389573d6000803e3d6000fd5b505050506040513d601f19601f82011682018060405250810190620003af919062000aef565b60ff1660808181525050620003d333670de0b6b3a7640000620003f260201b60201c565b50505062000ccd565b620003ee82826200056b60201b60201c565b5050565b600073ffffffffffffffffffffffffffffffffffffffff168273ffffffffffffffffffffffffffffffffffffffff16141562000465576040517f08c379a00000000000000000000000000000000000000000000000000000000081526004016200045c9062000b82565b60405180910390fd5b62000479600083836200065d60201b60201c565b80600260008282546200048d919062000bdd565b92505081905550806000808473ffffffffffffffffffffffffffffffffffffffff1673ffffffffffffffffffffffffffffffffffffffff1681526020019081526020016000206000828254620004e4919062000bdd565b925050819055508173ffffffffffffffffffffffffffffffffffffffff16600073ffffffffffffffffffffffffffffffffffffffff167fddf252ad1be2c89b69c2b068fc378daa952ba7f163c4a11628f55a4df523b3ef836040516200054b919062000c4b565b60405180910390a362000567600083836200066260201b60201c565b5050565b6200057d82826200066760201b60201c565b620006595760016005600084815260200190815260200160002060000160008373ffffffffffffffffffffffffffffffffffffffff1673ffffffffffffffffffffffffffffffffffffffff16815260200190815260200160002060006101000a81548160ff021916908315150217905550620005fe620006d260201b60201c565b73ffffffffffffffffffffffffffffffffffffffff168173ffffffffffffffffffffffffffffffffffffffff16837f2f8788117e7eff1d82e926ec794901d17c78024a50270940304540a733656f0d60405160405180910390a45b5050565b505050565b505050565b60006005600084815260200190815260200160002060000160008373ffffffffffffffffffffffffffffffffffffffff1673ffffffffffffffffffffffffffffffffffffffff16815260200190815260200160002060009054906101000a900460ff16905092915050565b600033905090565b828054620006e89062000c97565b90600052602060002090601f0160209004810192826200070c576000855562000758565b82601f106200072757805160ff191683800117855562000758565b8280016001018555821562000758579182015b82811115620007575782518255916020019190600101906200073a565b5b5090506200076791906200076b565b5090565b5b80821115620007865760008160009055506001016200076c565b5090565b6000604051905090565b600080fd5b600080fd5b600080fd5b600080fd5b6000601f19601f8301169050919050565b7f4e487b7100000000000000000000000000000000000000000000000000000000600052604160045260246000fd5b620007f382620007a8565b810181811067ffffffffffffffff82111715620008155762000814620007b9565b5b80604052505050565b60006200082a6200078a565b9050620008388282620007e8565b919050565b600067ffffffffffffffff8211156200085b576200085a620007b9565b5b6200086682620007a8565b9050602081019050919050565b60005b838110156200089357808201518184015260208101905062000876565b83811115620008a3576000848401525b50505050565b6000620008c0620008ba846200083d565b6200081e565b905082815260208101848484011115620008df57620008de620007a3565b5b620008ec84828562000873565b509392505050565b600082601f8301126200090c576200090b6200079e565b5b81516200091e848260208601620008a9565b91505092915050565b600073ffffffffffffffffffffffffffffffffffffffff82169050919050565b6000620009548262000927565b9050919050565b6000620009688262000947565b9050919050565b6200097a816200095b565b81146200098657600080fd5b50565b6000815190506200099a816200096f565b92915050565b600080600060608486031215620009bc57620009bb62000794565b5b600084015167ffffffffffffffff811115620009dd57620009dc62000799565b5b620009eb86828701620008f4565b935050602084015167ffffffffffffffff81111562000a0f5762000a0e62000799565b5b62000a1d86828701620008f4565b925050604062000a308682870162000989565b9150509250925092565b600062000a478262000947565b9050919050565b62000a598162000a3a565b811462000a6557600080fd5b50565b60008151905062000a798162000a4e565b92915050565b60006020828403121562000a985762000a9762000794565b5b600062000aa88482850162000a68565b91505092915050565b600060ff82169050919050565b62000ac98162000ab1565b811462000ad557600080fd5b50565b60008151905062000ae98162000abe565b92915050565b60006020828403121562000b085762000b0762000794565b5b600062000b188482850162000ad8565b91505092915050565b600082825260208201905092915050565b7f45524332303a206d696e7420746f20746865207a65726f206164647265737300600082015250565b600062000b6a601f8362000b21565b915062000b778262000b32565b602082019050919050565b6000602082019050818103600083015262000b9d8162000b5b565b9050919050565b6000819050919050565b7f4e487b7100000000000000000000000000000000000000000000000000000000600052601160045260246000fd5b600062000bea8262000ba4565b915062000bf78362000ba4565b9250827fffffffffffffffffffffffffffffffffffffffffffffffffffffffffffffffff0382111562000c2f5762000c2e62000bae565b5b828201905092915050565b62000c458162000ba4565b82525050565b600060208201905062000c62600083018462000c3a565b92915050565b7f4e487b7100000000000000000000000000000000000000000000000000000000600052602260045260246000fd5b6000600282049050600182168062000cb057607f821691505b6020821081141562000cc75762000cc662000c68565b5b50919050565b60805160a05160c05160e051615fbc62000de060003960008181610c9901528181610d920152818161114a0152818161132201528181611594015281816123170152818161256b0152818161278c0152818161293001528181612cc90152612ede015260008181610e2e01528181610ec501528181610fa001528181611099015281816113010152611573015260008181610ae601528181610b8c015281816119d901528181611a7e01528181611b0d01528181611f3101528181611fe8015281816120760152818161221901528181612353015281816125a70152612afd01526000818161240f01528181612663015281816128080152818161298a01528181612bc20152612e530152615fbc6000f3fe608060405234801561001057600080fd5b50600436106102275760003560e01c80636344790211610130578063a9059cbb116100b8578063d547741f1161007c578063d547741f1461067a578063d95b0a1214610696578063dd62ed3e146106b2578063e3f828fa146106e2578063ecc513f0146106fe57610227565b8063a9059cbb146105d6578063b2193d0114610606578063b82e106d14610622578063bea10f9614610640578063d1c699aa1461065c57610227565b80637d1d7fb8116100ff5780637d1d7fb81461051c57806391d148541461053a57806395d89b411461056a578063a217fddf14610588578063a457c2d7146105a657610227565b8063634479021461048057806370a08231146104b0578063719d5f83146104e057806375b238fc146104fe57610227565b8063313ce567116101b35780633b734501116101825780633b734501146103f25780633e30f651146104105780633e8c47c01461042c57806345b2f91c1461044857806346c777d81461046457610227565b8063313ce5671461037e57806336568abe1461039c5780633733116d146103b857806339509351146103c257610227565b806318160ddd116101fa57806318160ddd146102c65780631aedeabe146102e457806323b872dd14610302578063248a9ca3146103325780632f2ff15d1461036257610227565b806301ffc9a71461022c57806306fdde031461025c5780630837ecfd1461027a578063095ea7b314610296575b600080fd5b61024660048036038101906102419190613e64565b61071a565b6040516102539190613eac565b60405180910390f35b610264610794565b6040516102719190613f60565b60405180910390f35b610294600480360381019061028f9190613fb8565b610826565b005b6102b060048036038101906102ab9190614043565b6108b4565b6040516102bd9190613eac565b60405180910390f35b6102ce6108d2565b6040516102db9190614092565b60405180910390f35b6102ec6108dc565b6040516102f99190614092565b60405180910390f35b61031c600480360381019061031791906140ad565b6108e2565b6040516103299190613eac565b60405180910390f35b61034c60048036038101906103479190614136565b6109da565b6040516103599190614172565b60405180910390f35b61037c6004803603810190610377919061418d565b6109fa565b005b610386610a23565b60405161039391906141e9565b60405180910390f35b6103b660048036038101906103b1919061418d565b610a2c565b005b6103c0610aaf565b005b6103dc60048036038101906103d79190614043565b6111de565b6040516103e99190613eac565b60405180910390f35b6103fa61128a565b6040516104079190614172565b60405180910390f35b61042a600480360381019061042591906142dd565b6112ae565b005b610446600480360381019061044191906143b5565b61151d565b005b610462600480360381019061045d919061441c565b611865565b005b61047e60048036038101906104799190613fb8565b611915565b005b61049a60048036038101906104959190614475565b6119d5565b6040516104a79190614092565b60405180910390f35b6104ca60048036038101906104c5919061441c565b611c88565b6040516104d79190614092565b60405180910390f35b6104e8611cd0565b6040516104f591906144c4565b60405180910390f35b610506611cf6565b6040516105139190614172565b60405180910390f35b610524611d1a565b6040516105319190614092565b60405180910390f35b610554600480360381019061054f919061418d565b611d20565b6040516105619190613eac565b60405180910390f35b610572611d8b565b60405161057f9190613f60565b60405180910390f35b610590611e1d565b60405161059d9190614172565b60405180910390f35b6105c060048036038101906105bb9190614043565b611e24565b6040516105cd9190613eac565b60405180910390f35b6105f060048036038101906105eb9190614043565b611f0f565b6040516105fd9190613eac565b60405180910390f35b610620600480360381019061061b9190614043565b611f2d565b005b61062a612b9d565b6040516106379190614092565b60405180910390f35b61065a60048036038101906106559190613fb8565b612ba3565b005b610664612d7e565b6040516106719190614092565b60405180910390f35b610694600480360381019061068f919061418d565b612d84565b005b6106b060048036038101906106ab9190613fb8565b612dad565b005b6106cc60048036038101906106c791906144df565b612f87565b6040516106d99190614092565b60405180910390f35b6106fc60048036038101906106f79190613fb8565b61300e565b005b61071860048036038101906107139190613fb8565b613084565b005b60007f7965db0b000000000000000000000000000000000000000000000000000000007bffffffffffffffffffffffffffffffffffffffffffffffffffffffff1916827bffffffffffffffffffffffffffffffffffffffffffffffffffffffff1916148061078d575061078c82613144565b5b9050919050565b6060600380546107a39061454e565b80601f01602080910402602001604051908101604052809291908181526020018280546107cf9061454e565b801561081c5780601f106107f15761010080835404028352916020019161081c565b820191906000526020600020905b8154815290600101906020018083116107ff57829003601f168201915b5050505050905090565b7fa49807205ce4d355092ef5a8a18f56e8913cf4a201fbe287825b095693c21775610858816108536131ae565b6131b6565b60018214806108675750600282145b61087057600080fd5b8160098190555060037f1f77a5f1218c5e380f0425a2e88a823d831b5f8906f5ab4db8b1565a36f780d7836040516108a89190614092565b60405180910390a25050565b60006108c86108c16131ae565b8484613253565b6001905092915050565b6000600254905090565b60085481565b60006108ef84848461341e565b6000600160008673ffffffffffffffffffffffffffffffffffffffff1673ffffffffffffffffffffffffffffffffffffffff168152602001908152602001600020600061093a6131ae565b73ffffffffffffffffffffffffffffffffffffffff1673ffffffffffffffffffffffffffffffffffffffff168152602001908152602001600020549050828110156109ba576040517f08c379a00000000000000000000000000000000000000000000000000000000081526004016109b1906145f2565b60405180910390fd5b6109ce856109c66131ae565b858403613253565b60019150509392505050565b600060056000838152602001908152602001600020600101549050919050565b610a03826109da565b610a1481610a0f6131ae565b6131b6565b610a1e838361369f565b505050565b60006012905090565b610a346131ae565b73ffffffffffffffffffffffffffffffffffffffff168173ffffffffffffffffffffffffffffffffffffffff1614610aa1576040517f08c379a0000000000000000000000000000000000000000000000000000000008152600401610a9890614684565b60405180910390fd5b610aab8282613780565b5050565b7f28d62fc77014de57a1bbaa8212ff0979fa61ab00d377b4b8d9762048fb419961610ae181610adc6131ae565b6131b6565b6000807f000000000000000000000000000000000000000000000000000000000000000073ffffffffffffffffffffffffffffffffffffffff1663305868da306009546040518363ffffffff1660e01b8152600401610b419291906146a4565b608060405180830381865afa158015610b5e573d6000803e3d6000fd5b505050506040513d601f19601f82011682018060405250810190610b8291906146f7565b50509150915060007f000000000000000000000000000000000000000000000000000000000000000073ffffffffffffffffffffffffffffffffffffffff1663251e1e8a6040518163ffffffff1660e01b8152600401602060405180830381865afa158015610bf5573d6000803e3d6000fd5b505050506040513d601f19601f82011682018060405250810190610c19919061479c565b73ffffffffffffffffffffffffffffffffffffffff16630261bf8b6040518163ffffffff1660e01b8152600401602060405180830381865afa158015610c63573d6000803e3d6000fd5b505050506040513d601f19601f82011682018060405250810190610c8791906147c9565b905060008190506000831315610e07577f000000000000000000000000000000000000000000000000000000000000000073ffffffffffffffffffffffffffffffffffffffff1663095ea7b383856040518363ffffffff1660e01b8152600401610cf29291906146a4565b6020604051808303816000875af1158015610d11573d6000803e3d6000fd5b505050506040513d601f19601f82011682018060405250810190610d35919061480b565b610d74576040517f08c379a0000000000000000000000000000000000000000000000000000000008152600401610d6b90614884565b60405180910390fd5b8073ffffffffffffffffffffffffffffffffffffffff1663e8eda9df7f0000000000000000000000000000000000000000000000000000000000000000853060006040518563ffffffff1660e01b8152600401610dd494939291906148f7565b600060405180830381600087803b158015610dee57600080fd5b505af1158015610e02573d6000803e3d6000fd5b505050505b6000841315610eab578073ffffffffffffffffffffffffffffffffffffffff1663a415bcad7f0000000000000000000000000000000000000000000000000000000000000000866009546000306040518663ffffffff1660e01b8152600401610e7495949392919061493c565b600060405180830381600087803b158015610e8e57600080fd5b505af1158015610ea2573d6000803e3d6000fd5b50505050611123565b600084121561112257600084610ec0906149be565b9050807f000000000000000000000000000000000000000000000000000000000000000073ffffffffffffffffffffffffffffffffffffffff166370a08231306040518263ffffffff1660e01b8152600401610f1c91906144c4565b602060405180830381865afa158015610f39573d6000803e3d6000fd5b505050506040513d601f19601f82011682018060405250810190610f5d9190614a1c565b1015610f9e576040517f08c379a0000000000000000000000000000000000000000000000000000000008152600401610f9590614a95565b60405180910390fd5b7f000000000000000000000000000000000000000000000000000000000000000073ffffffffffffffffffffffffffffffffffffffff1663095ea7b384836040518363ffffffff1660e01b8152600401610ff99291906146a4565b6020604051808303816000875af1158015611018573d6000803e3d6000fd5b505050506040513d601f19601f8201168201806040525081019061103c919061480b565b61107b576040517f08c379a000000000000000000000000000000000000000000000000000000000815260040161107290614b01565b60405180910390fd5b8173ffffffffffffffffffffffffffffffffffffffff1663573ade817f000000000000000000000000000000000000000000000000000000000000000083600954306040518563ffffffff1660e01b81526004016110dc9493929190614b21565b6020604051808303816000875af11580156110fb573d6000803e3d6000fd5b505050506040513d601f19601f8201168201806040525081019061111f9190614a1c565b50505b5b60008312156111d7578073ffffffffffffffffffffffffffffffffffffffff166369328dec7f000000000000000000000000000000000000000000000000000000000000000085611173906149be565b306040518463ffffffff1660e01b815260040161119293929190614b66565b6020604051808303816000875af11580156111b1573d6000803e3d6000fd5b505050506040513d601f19601f820116820180604052508101906111d59190614a1c565b505b5050505050565b60006112806111eb6131ae565b8484600160006111f96131ae565b73ffffffffffffffffffffffffffffffffffffffff1673ffffffffffffffffffffffffffffffffffffffff16815260200190815260200160002060008873ffffffffffffffffffffffffffffffffffffffff1673ffffffffffffffffffffffffffffffffffffffff1681526020019081526020016000205461127b9190614b9d565b613253565b6001905092915050565b7f28d62fc77014de57a1bbaa8212ff0979fa61ab00d377b4b8d9762048fb41996181565b7f28d62fc77014de57a1bbaa8212ff0979fa61ab00d377b4b8d9762048fb4199616112e0816112db6131ae565b6131b6565b60008073__MarketLibrary_________________________63865c99848a8a7f00000000000000000000000000000000000000000000000000000000000000007f00000000000000000000000000000000000000000000000000000000000000006040518563ffffffff1660e01b81526004016113609493929190614c11565b608060405180830381865af415801561137d573d6000803e3d6000fd5b505050506040513d601f19601f820116820180604052508101906113a19190614c56565b5092505091508073ffffffffffffffffffffffffffffffffffffffff1663095ea7b388846040518363ffffffff1660e01b81526004016113e2929190614d12565b6020604051808303816000875af1158015611401573d6000803e3d6000fd5b505050506040513d601f19601f82011682018060405250810190611425919061480b565b611464576040517f08c379a000000000000000000000000000000000000000000000000000000000815260040161145b90614d87565b60405180910390fd5b6000808873ffffffffffffffffffffffffffffffffffffffff1686898960405161148f929190614de6565b60006040518083038160008787f1925050503d80600081146114cd576040519150601f19603f3d011682016040523d82523d6000602084013e6114d2565b606091505b50915091507f13848c3e38f8886f3f5d2ad9dff80d8092c2bbb8efd5b887a99c2c6cfc09ac2a8282604051611508929190614e54565b60405180910390a15050505050505050505050565b7f28d62fc77014de57a1bbaa8212ff0979fa61ab00d377b4b8d9762048fb41996161154f8161154a6131ae565b6131b6565b60008060008073__MarketLibrary_________________________63865c99848a8a7f00000000000000000000000000000000000000000000000000000000000000007f00000000000000000000000000000000000000000000000000000000000000006040518563ffffffff1660e01b81526004016115d29493929190614c11565b608060405180830381865af41580156115ef573d6000803e3d6000fd5b505050506040513d601f19601f820116820180604052508101906116139190614c56565b93509350935093508173ffffffffffffffffffffffffffffffffffffffff1663095ea7b388866040518363ffffffff1660e01b81526004016116569291906146a4565b6020604051808303816000875af1158015611675573d6000803e3d6000fd5b505050506040513d601f19601f82011682018060405250810190611699919061480b565b6116d8576040517f08c379a00000000000000000000000000000000000000000000000000000000081526004016116cf90614d87565b60405180910390fd5b6000600267ffffffffffffffff8111156116f5576116f4614e84565b5b6040519080825280602002602001820160405280156117235781602001602082028036833780820191505090505b509050828160008151811061173b5761173a614eb3565b5b602002602001019073ffffffffffffffffffffffffffffffffffffffff16908173ffffffffffffffffffffffffffffffffffffffff1681525050818160018151811061178a57611789614eb3565b5b602002602001019073ffffffffffffffffffffffffffffffffffffffff16908173ffffffffffffffffffffffffffffffffffffffff16815250508773ffffffffffffffffffffffffffffffffffffffff16638803dbee858784308c426117f09190614b9d565b6040518663ffffffff1660e01b8152600401611810959493929190614fa0565b6000604051808303816000875af115801561182f573d6000803e3d6000fd5b505050506040513d6000823e3d601f19601f820116820180604052508101906118589190615109565b5050505050505050505050565b7fa49807205ce4d355092ef5a8a18f56e8913cf4a201fbe287825b095693c21775611897816118926131ae565b6131b6565b81600a60006101000a81548173ffffffffffffffffffffffffffffffffffffffff021916908373ffffffffffffffffffffffffffffffffffffffff16021790555060007f24d6288eaa984b5d82c86fa2319ac360582ee0f3b6e5d20731355f6f00250f168360405161190991906144c4565b60405180910390a25050565b7fa49807205ce4d355092ef5a8a18f56e8913cf4a201fbe287825b095693c21775611947816119426131ae565b6131b6565b670de0b6b3a76400008210611991576040517f08c379a00000000000000000000000000000000000000000000000000000000081526004016119889061519e565b60405180910390fd5b8160068190555060007f1f77a5f1218c5e380f0425a2e88a823d831b5f8906f5ab4db8b1565a36f780d7836040516119c99190614092565b60405180910390a25050565b60007f000000000000000000000000000000000000000000000000000000000000000073ffffffffffffffffffffffffffffffffffffffff16638b83b6b6306040518263ffffffff1660e01b8152600401611a3091906144c4565b602060405180830381865afa158015611a4d573d6000803e3d6000fd5b505050506040513d601f19601f82011682018060405250810190611a719190614a1c565b90508215611bb857611baa7f000000000000000000000000000000000000000000000000000000000000000073ffffffffffffffffffffffffffffffffffffffff1663d19f50326040518163ffffffff1660e01b8152600401602060405180830381865afa158015611ae7573d6000803e3d6000fd5b505050506040513d601f19601f82011682018060405250810190611b0b9190614a1c565b7f000000000000000000000000000000000000000000000000000000000000000073ffffffffffffffffffffffffffffffffffffffff1663448ba42f6040518163ffffffff1660e01b8152600401602060405180830381865afa158015611b76573d6000803e3d6000fd5b505050506040513d601f19601f82011682018060405250810190611b9a9190614a1c565b611ba49190614b9d565b82613862565b81611bb591906151be565b90505b8115611c82576000611bc86108d2565b1115611c58578073__FullMath______________________________63de7f61709091611bf36108d2565b6040518363ffffffff1660e01b8152600401611c10929190615201565b602060405180830381865af4158015611c2d573d6000803e3d6000fd5b505050506040513d601f19601f82011682018060405250810190611c519190614a1c565b9050611c81565b6000611c626108d2565b148015611c6f5750600081145b15611c8057670de0b6b3a764000090505b5b5b92915050565b60008060008373ffffffffffffffffffffffffffffffffffffffff1673ffffffffffffffffffffffffffffffffffffffff168152602001908152602001600020549050919050565b600a60009054906101000a900473ffffffffffffffffffffffffffffffffffffffff1681565b7fa49807205ce4d355092ef5a8a18f56e8913cf4a201fbe287825b095693c2177581565b60065481565b60006005600084815260200190815260200160002060000160008373ffffffffffffffffffffffffffffffffffffffff1673ffffffffffffffffffffffffffffffffffffffff16815260200190815260200160002060009054906101000a900460ff16905092915050565b606060048054611d9a9061454e565b80601f0160208091040260200160405190810160405280929190818152602001828054611dc69061454e565b8015611e135780601f10611de857610100808354040283529160200191611e13565b820191906000526020600020905b815481529060010190602001808311611df657829003601f168201915b5050505050905090565b6000801b81565b60008060016000611e336131ae565b73ffffffffffffffffffffffffffffffffffffffff1673ffffffffffffffffffffffffffffffffffffffff16815260200190815260200160002060008573ffffffffffffffffffffffffffffffffffffffff1673ffffffffffffffffffffffffffffffffffffffff16815260200190815260200160002054905082811015611ef0576040517f08c379a0000000000000000000000000000000000000000000000000000000008152600401611ee79061529c565b60405180910390fd5b611f04611efb6131ae565b85858403613253565b600191505092915050565b6000611f23611f1c6131ae565b848461341e565b6001905092915050565b60007f000000000000000000000000000000000000000000000000000000000000000073ffffffffffffffffffffffffffffffffffffffff16637652e7c46040518163ffffffff1660e01b8152600401602060405180830381865afa158015611f9a573d6000803e3d6000fd5b505050506040513d601f19601f82011682018060405250810190611fbe9190614a1c565b905060005b600082118015611fd257508281105b15612b9757600181611fe49190614b9d565b90507f000000000000000000000000000000000000000000000000000000000000000073ffffffffffffffffffffffffffffffffffffffff1663637baf60836040518263ffffffff1660e01b815260040161203f9190614092565b600060405180830381600087803b15801561205957600080fd5b505af115801561206d573d6000803e3d6000fd5b505050506000807f000000000000000000000000000000000000000000000000000000000000000073ffffffffffffffffffffffffffffffffffffffff166385ae10e6856040518263ffffffff1660e01b81526004016120cd9190614092565b6040805180830381865afa1580156120e9573d6000803e3d6000fd5b505050506040513d601f19601f8201168201806040525081019061210d91906152bc565b9150915060008273__FullMath______________________________63fed4a0f390916006546040518363ffffffff1660e01b8152600401612150929190615201565b602060405180830381865af415801561216d573d6000803e3d6000fd5b505050506040513d601f19601f820116820180604052508101906121919190614a1c565b905060008373__FullMath______________________________63fed4a0f390916007546040518363ffffffff1660e01b81526004016121d2929190615201565b602060405180830381865af41580156121ef573d6000803e3d6000fd5b505050506040513d601f19601f820116820180604052508101906122139190614a1c565b905060007f000000000000000000000000000000000000000000000000000000000000000073ffffffffffffffffffffffffffffffffffffffff16631ce5e9a6886040518263ffffffff1660e01b81526004016122709190614092565b61020060405180830381865afa15801561228e573d6000803e3d6000fd5b505050506040513d601f19601f820116820180604052508101906122b291906154ea565b9050600081602001519050600060018111156122d1576122d0615518565b5b8160018111156122e4576122e3615518565b5b1415612531576122ff8584866122fa9190614b9d565b613862565b8561230a91906151be565b9450600085111561252c577f000000000000000000000000000000000000000000000000000000000000000073ffffffffffffffffffffffffffffffffffffffff1663a9059cbb7f000000000000000000000000000000000000000000000000000000000000000073ffffffffffffffffffffffffffffffffffffffff16631ce5e9a68b6040518263ffffffff1660e01b81526004016123aa9190614092565b61020060405180830381865afa1580156123c8573d6000803e3d6000fd5b505050506040513d601f19601f820116820180604052508101906123ec91906154ea565b606001518773__MarketLibrary_________________________63174e20e690917f00000000000000000000000000000000000000000000000000000000000000006040518363ffffffff1660e01b815260040161244b929190615201565b602060405180830381865af4158015612468573d6000803e3d6000fd5b505050506040513d601f19601f8201168201806040525081019061248c9190614a1c565b6040518363ffffffff1660e01b81526004016124a99291906146a4565b6020604051808303816000875af11580156124c8573d6000803e3d6000fd5b505050506040513d601f19601f820116820180604052508101906124ec919061480b565b61252b576040517f08c379a000000000000000000000000000000000000000000000000000000000815260040161252290615593565b60405180910390fd5b5b612781565b60018081111561254457612543615518565b5b81600181111561255757612556615518565b5b1480156125645750600085115b15612780577f000000000000000000000000000000000000000000000000000000000000000073ffffffffffffffffffffffffffffffffffffffff1663a9059cbb7f000000000000000000000000000000000000000000000000000000000000000073ffffffffffffffffffffffffffffffffffffffff16631ce5e9a68b6040518263ffffffff1660e01b81526004016125fe9190614092565b61020060405180830381865afa15801561261c573d6000803e3d6000fd5b505050506040513d601f19601f8201168201806040525081019061264091906154ea565b606001518773__MarketLibrary_________________________63174e20e690917f00000000000000000000000000000000000000000000000000000000000000006040518363ffffffff1660e01b815260040161269f929190615201565b602060405180830381865af41580156126bc573d6000803e3d6000fd5b505050506040513d601f19601f820116820180604052508101906126e09190614a1c565b6040518363ffffffff1660e01b81526004016126fd9291906146a4565b6020604051808303816000875af115801561271c573d6000803e3d6000fd5b505050506040513d601f19601f82011682018060405250810190612740919061480b565b61277f576040517f08c379a000000000000000000000000000000000000000000000000000000000815260040161277690615593565b60405180910390fd5b5b5b6000841115612925577f000000000000000000000000000000000000000000000000000000000000000073ffffffffffffffffffffffffffffffffffffffff1663a9059cbb600a60009054906101000a900473ffffffffffffffffffffffffffffffffffffffff168673__MarketLibrary_________________________63174e20e690917f00000000000000000000000000000000000000000000000000000000000000006040518363ffffffff1660e01b8152600401612844929190615201565b602060405180830381865af4158015612861573d6000803e3d6000fd5b505050506040513d601f19601f820116820180604052508101906128859190614a1c565b6040518363ffffffff1660e01b81526004016128a29291906146a4565b6020604051808303816000875af11580156128c1573d6000803e3d6000fd5b505050506040513d601f19601f820116820180604052508101906128e5919061480b565b612924576040517f08c379a000000000000000000000000000000000000000000000000000000000815260040161291b906155ff565b60405180910390fd5b5b6000831115612aa7577f000000000000000000000000000000000000000000000000000000000000000073ffffffffffffffffffffffffffffffffffffffff1663a9059cbb8b8573__MarketLibrary_________________________63174e20e690917f00000000000000000000000000000000000000000000000000000000000000006040518363ffffffff1660e01b81526004016129c6929190615201565b602060405180830381865af41580156129e3573d6000803e3d6000fd5b505050506040513d601f19601f82011682018060405250810190612a079190614a1c565b6040518363ffffffff1660e01b8152600401612a249291906146a4565b6020604051808303816000875af1158015612a43573d6000803e3d6000fd5b505050506040513d601f19601f82011682018060405250810190612a67919061480b565b612aa6576040517f08c379a0000000000000000000000000000000000000000000000000000000008152600401612a9d9061566b565b60405180910390fd5b5b816060015173ffffffffffffffffffffffffffffffffffffffff167fe12237cf6b49de0ce802659bc13dca020d3c1456b6a375bdc2c806b1b43eca538387604051612af39291906158bc565b60405180910390a27f000000000000000000000000000000000000000000000000000000000000000073ffffffffffffffffffffffffffffffffffffffff16637652e7c46040518163ffffffff1660e01b8152600401602060405180830381865afa158015612b66573d6000803e3d6000fd5b505050506040513d601f19601f82011682018060405250810190612b8a9190614a1c565b9750505050505050611fc3565b50505050565b60095481565b600073__MarketLibrary_________________________63ed1bb199837f00000000000000000000000000000000000000000000000000000000000000006040518363ffffffff1660e01b8152600401612bfe929190615201565b602060405180830381865af4158015612c1b573d6000803e3d6000fd5b505050506040513d601f19601f82011682018060405250810190612c3f9190614a1c565b73__FullMath______________________________63de7f61709091612c67600060016119d5565b6040518363ffffffff1660e01b8152600401612c84929190615201565b602060405180830381865af4158015612ca1573d6000803e3d6000fd5b505050506040513d601f19601f82011682018060405250810190612cc59190614a1c565b90507f000000000000000000000000000000000000000000000000000000000000000073ffffffffffffffffffffffffffffffffffffffff166323b872dd3330856040518463ffffffff1660e01b8152600401612d24939291906158e7565b6020604051808303816000875af1158015612d43573d6000803e3d6000fd5b505050506040513d601f19601f82011682018060405250810190612d67919061480b565b612d7057600080fd5b612d7a338261387b565b5050565b60075481565b612d8d826109da565b612d9e81612d996131ae565b6131b6565b612da88383613780565b505050565b6000612dba6001806119d5565b73__FullMath______________________________63fed4a0f39091846040518363ffffffff1660e01b8152600401612df4929190615201565b602060405180830381865af4158015612e11573d6000803e3d6000fd5b505050506040513d601f19601f82011682018060405250810190612e359190614a1c565b73__MarketLibrary_________________________63174e20e690917f00000000000000000000000000000000000000000000000000000000000000006040518363ffffffff1660e01b8152600401612e8f929190615201565b602060405180830381865af4158015612eac573d6000803e3d6000fd5b505050506040513d601f19601f82011682018060405250810190612ed09190614a1c565b9050612edc33836139db565b7f000000000000000000000000000000000000000000000000000000000000000073ffffffffffffffffffffffffffffffffffffffff1663a9059cbb33836040518363ffffffff1660e01b8152600401612f379291906146a4565b6020604051808303816000875af1158015612f56573d6000803e3d6000fd5b505050506040513d601f19601f82011682018060405250810190612f7a919061480b565b612f8357600080fd5b5050565b6000600160008473ffffffffffffffffffffffffffffffffffffffff1673ffffffffffffffffffffffffffffffffffffffff16815260200190815260200160002060008373ffffffffffffffffffffffffffffffffffffffff1673ffffffffffffffffffffffffffffffffffffffff16815260200190815260200160002054905092915050565b7fa49807205ce4d355092ef5a8a18f56e8913cf4a201fbe287825b095693c217756130408161303b6131ae565b6131b6565b8160088190555060027f1f77a5f1218c5e380f0425a2e88a823d831b5f8906f5ab4db8b1565a36f780d7836040516130789190614092565b60405180910390a25050565b7fa49807205ce4d355092ef5a8a18f56e8913cf4a201fbe287825b095693c217756130b6816130b16131ae565b6131b6565b670de0b6b3a76400008210613100576040517f08c379a00000000000000000000000000000000000000000000000000000000081526004016130f79061519e565b60405180910390fd5b8160078190555060017f1f77a5f1218c5e380f0425a2e88a823d831b5f8906f5ab4db8b1565a36f780d7836040516131389190614092565b60405180910390a25050565b60007f01ffc9a7000000000000000000000000000000000000000000000000000000007bffffffffffffffffffffffffffffffffffffffffffffffffffffffff1916827bffffffffffffffffffffffffffffffffffffffffffffffffffffffff1916149050919050565b600033905090565b6131c08282611d20565b61324f576131e58173ffffffffffffffffffffffffffffffffffffffff166014613bb2565b6131f38360001c6020613bb2565b6040516020016132049291906159f2565b6040516020818303038152906040526040517f08c379a00000000000000000000000000000000000000000000000000000000081526004016132469190613f60565b60405180910390fd5b5050565b600073ffffffffffffffffffffffffffffffffffffffff168373ffffffffffffffffffffffffffffffffffffffff1614156132c3576040517f08c379a00000000000000000000000000000000000000000000000000000000081526004016132ba90615a9e565b60405180910390fd5b600073ffffffffffffffffffffffffffffffffffffffff168273ffffffffffffffffffffffffffffffffffffffff161415613333576040517f08c379a000000000000000000000000000000000000000000000000000000000815260040161332a90615b30565b60405180910390fd5b80600160008573ffffffffffffffffffffffffffffffffffffffff1673ffffffffffffffffffffffffffffffffffffffff16815260200190815260200160002060008473ffffffffffffffffffffffffffffffffffffffff1673ffffffffffffffffffffffffffffffffffffffff168152602001908152602001600020819055508173ffffffffffffffffffffffffffffffffffffffff168373ffffffffffffffffffffffffffffffffffffffff167f8c5be1e5ebec7d5bd14f71427d1e84f3dd0314c0f7b2291e5b200ac8c7c3b925836040516134119190614092565b60405180910390a3505050565b600073ffffffffffffffffffffffffffffffffffffffff168373ffffffffffffffffffffffffffffffffffffffff16141561348e576040517f08c379a000000000000000000000000000000000000000000000000000000000815260040161348590615bc2565b60405180910390fd5b600073ffffffffffffffffffffffffffffffffffffffff168273ffffffffffffffffffffffffffffffffffffffff1614156134fe576040517f08c379a00000000000000000000000000000000000000000000000000000000081526004016134f590615c54565b60405180910390fd5b613509838383613dee565b60008060008573ffffffffffffffffffffffffffffffffffffffff1673ffffffffffffffffffffffffffffffffffffffff1681526020019081526020016000205490508181101561358f576040517f08c379a000000000000000000000000000000000000000000000000000000000815260040161358690615ce6565b60405180910390fd5b8181036000808673ffffffffffffffffffffffffffffffffffffffff1673ffffffffffffffffffffffffffffffffffffffff16815260200190815260200160002081905550816000808573ffffffffffffffffffffffffffffffffffffffff1673ffffffffffffffffffffffffffffffffffffffff16815260200190815260200160002060008282546136229190614b9d565b925050819055508273ffffffffffffffffffffffffffffffffffffffff168473ffffffffffffffffffffffffffffffffffffffff167fddf252ad1be2c89b69c2b068fc378daa952ba7f163c4a11628f55a4df523b3ef846040516136869190614092565b60405180910390a3613699848484613df3565b50505050565b6136a98282611d20565b61377c5760016005600084815260200190815260200160002060000160008373ffffffffffffffffffffffffffffffffffffffff1673ffffffffffffffffffffffffffffffffffffffff16815260200190815260200160002060006101000a81548160ff0219169083151502179055506137216131ae565b73ffffffffffffffffffffffffffffffffffffffff168173ffffffffffffffffffffffffffffffffffffffff16837f2f8788117e7eff1d82e926ec794901d17c78024a50270940304540a733656f0d60405160405180910390a45b5050565b61378a8282611d20565b1561385e5760006005600084815260200190815260200160002060000160008373ffffffffffffffffffffffffffffffffffffffff1673ffffffffffffffffffffffffffffffffffffffff16815260200190815260200160002060006101000a81548160ff0219169083151502179055506138036131ae565b73ffffffffffffffffffffffffffffffffffffffff168173ffffffffffffffffffffffffffffffffffffffff16837ff6391f5c32d9c69d2a47ea670b442974b53935d1edc7fd64eb21e047a839171b60405160405180910390a45b5050565b60008183106138715781613873565b825b905092915050565b600073ffffffffffffffffffffffffffffffffffffffff168273ffffffffffffffffffffffffffffffffffffffff1614156138eb576040517f08c379a00000000000000000000000000000000000000000000000000000000081526004016138e290615d52565b60405180910390fd5b6138f760008383613dee565b80600260008282546139099190614b9d565b92505081905550806000808473ffffffffffffffffffffffffffffffffffffffff1673ffffffffffffffffffffffffffffffffffffffff168152602001908152602001600020600082825461395e9190614b9d565b925050819055508173ffffffffffffffffffffffffffffffffffffffff16600073ffffffffffffffffffffffffffffffffffffffff167fddf252ad1be2c89b69c2b068fc378daa952ba7f163c4a11628f55a4df523b3ef836040516139c39190614092565b60405180910390a36139d760008383613df3565b5050565b600073ffffffffffffffffffffffffffffffffffffffff168273ffffffffffffffffffffffffffffffffffffffff161415613a4b576040517f08c379a0000000000000000000000000000000000000000000000000000000008152600401613a4290615de4565b60405180910390fd5b613a5782600083613dee565b60008060008473ffffffffffffffffffffffffffffffffffffffff1673ffffffffffffffffffffffffffffffffffffffff16815260200190815260200160002054905081811015613add576040517f08c379a0000000000000000000000000000000000000000000000000000000008152600401613ad490615e76565b60405180910390fd5b8181036000808573ffffffffffffffffffffffffffffffffffffffff1673ffffffffffffffffffffffffffffffffffffffff168152602001908152602001600020819055508160026000828254613b3491906151be565b92505081905550600073ffffffffffffffffffffffffffffffffffffffff168373ffffffffffffffffffffffffffffffffffffffff167fddf252ad1be2c89b69c2b068fc378daa952ba7f163c4a11628f55a4df523b3ef84604051613b999190614092565b60405180910390a3613bad83600084613df3565b505050565b606060006002836002613bc59190615e96565b613bcf9190614b9d565b67ffffffffffffffff811115613be857613be7614e84565b5b6040519080825280601f01601f191660200182016040528015613c1a5781602001600182028036833780820191505090505b5090507f300000000000000000000000000000000000000000000000000000000000000081600081518110613c5257613c51614eb3565b5b60200101907effffffffffffffffffffffffffffffffffffffffffffffffffffffffffffff1916908160001a9053507f780000000000000000000000000000000000000000000000000000000000000081600181518110613cb657613cb5614eb3565b5b60200101907effffffffffffffffffffffffffffffffffffffffffffffffffffffffffffff1916908160001a90535060006001846002613cf69190615e96565b613d009190614b9d565b90505b6001811115613da0577f3031323334353637383961626364656600000000000000000000000000000000600f861660108110613d4257613d41614eb3565b5b1a60f81b828281518110613d5957613d58614eb3565b5b60200101907effffffffffffffffffffffffffffffffffffffffffffffffffffffffffffff1916908160001a905350600485901c945080613d9990615ef0565b9050613d03565b5060008414613de4576040517f08c379a0000000000000000000000000000000000000000000000000000000008152600401613ddb90615f66565b60405180910390fd5b8091505092915050565b505050565b505050565b6000604051905090565b600080fd5b600080fd5b60007fffffffff0000000000000000000000000000000000000000000000000000000082169050919050565b613e4181613e0c565b8114613e4c57600080fd5b50565b600081359050613e5e81613e38565b92915050565b600060208284031215613e7a57613e79613e02565b5b6000613e8884828501613e4f565b91505092915050565b60008115159050919050565b613ea681613e91565b82525050565b6000602082019050613ec16000830184613e9d565b92915050565b600081519050919050565b600082825260208201905092915050565b60005b83811015613f01578082015181840152602081019050613ee6565b83811115613f10576000848401525b50505050565b6000601f19601f8301169050919050565b6000613f3282613ec7565b613f3c8185613ed2565b9350613f4c818560208601613ee3565b613f5581613f16565b840191505092915050565b60006020820190508181036000830152613f7a8184613f27565b905092915050565b6000819050919050565b613f9581613f82565b8114613fa057600080fd5b50565b600081359050613fb281613f8c565b92915050565b600060208284031215613fce57613fcd613e02565b5b6000613fdc84828501613fa3565b91505092915050565b600073ffffffffffffffffffffffffffffffffffffffff82169050919050565b600061401082613fe5565b9050919050565b61402081614005565b811461402b57600080fd5b50565b60008135905061403d81614017565b92915050565b6000806040838503121561405a57614059613e02565b5b60006140688582860161402e565b925050602061407985828601613fa3565b9150509250929050565b61408c81613f82565b82525050565b60006020820190506140a76000830184614083565b92915050565b6000806000606084860312156140c6576140c5613e02565b5b60006140d48682870161402e565b93505060206140e58682870161402e565b92505060406140f686828701613fa3565b9150509250925092565b6000819050919050565b61411381614100565b811461411e57600080fd5b50565b6000813590506141308161410a565b92915050565b60006020828403121561414c5761414b613e02565b5b600061415a84828501614121565b91505092915050565b61416c81614100565b82525050565b60006020820190506141876000830184614163565b92915050565b600080604083850312156141a4576141a3613e02565b5b60006141b285828601614121565b92505060206141c38582860161402e565b9150509250929050565b600060ff82169050919050565b6141e3816141cd565b82525050565b60006020820190506141fe60008301846141da565b92915050565b6000819050919050565b61421781614204565b811461422257600080fd5b50565b6000813590506142348161420e565b92915050565b600061424582613fe5565b9050919050565b6142558161423a565b811461426057600080fd5b50565b6000813590506142728161424c565b92915050565b600080fd5b600080fd5b600080fd5b60008083601f84011261429d5761429c614278565b5b8235905067ffffffffffffffff8111156142ba576142b961427d565b5b6020830191508360018202830111156142d6576142d5614282565b5b9250929050565b60008060008060008060a087890312156142fa576142f9613e02565b5b600061430889828a01614225565b965050602061431989828a01614225565b955050604061432a89828a01614263565b945050606087013567ffffffffffffffff81111561434b5761434a613e07565b5b61435789828a01614287565b9350935050608061436a89828a01613fa3565b9150509295509295509295565b600061438282614005565b9050919050565b61439281614377565b811461439d57600080fd5b50565b6000813590506143af81614389565b92915050565b600080600080608085870312156143cf576143ce613e02565b5b60006143dd87828801614225565b94505060206143ee87828801614225565b93505060406143ff878288016143a0565b925050606061441087828801613fa3565b91505092959194509250565b60006020828403121561443257614431613e02565b5b60006144408482850161402e565b91505092915050565b61445281613e91565b811461445d57600080fd5b50565b60008135905061446f81614449565b92915050565b6000806040838503121561448c5761448b613e02565b5b600061449a85828601614460565b92505060206144ab85828601614460565b9150509250929050565b6144be81614005565b82525050565b60006020820190506144d960008301846144b5565b92915050565b600080604083850312156144f6576144f5613e02565b5b60006145048582860161402e565b92505060206145158582860161402e565b9150509250929050565b7f4e487b7100000000000000000000000000000000000000000000000000000000600052602260045260246000fd5b6000600282049050600182168061456657607f821691505b6020821081141561457a5761457961451f565b5b50919050565b7f45524332303a207472616e7366657220616d6f756e742065786365656473206160008201527f6c6c6f77616e6365000000000000000000000000000000000000000000000000602082015250565b60006145dc602883613ed2565b91506145e782614580565b604082019050919050565b6000602082019050818103600083015261460b816145cf565b9050919050565b7f416363657373436f6e74726f6c3a2063616e206f6e6c792072656e6f756e636560008201527f20726f6c657320666f722073656c660000000000000000000000000000000000602082015250565b600061466e602f83613ed2565b915061467982614612565b604082019050919050565b6000602082019050818103600083015261469d81614661565b9050919050565b60006040820190506146b960008301856144b5565b6146c66020830184614083565b9392505050565b6000815190506146dc8161420e565b92915050565b6000815190506146f181614017565b92915050565b6000806000806080858703121561471157614710613e02565b5b600061471f878288016146cd565b9450506020614730878288016146cd565b9350506040614741878288016146e2565b9250506060614752878288016146e2565b91505092959194509250565b600061476982614005565b9050919050565b6147798161475e565b811461478457600080fd5b50565b60008151905061479681614770565b92915050565b6000602082840312156147b2576147b1613e02565b5b60006147c084828501614787565b91505092915050565b6000602082840312156147df576147de613e02565b5b60006147ed848285016146e2565b91505092915050565b60008151905061480581614449565b92915050565b60006020828403121561482157614820613e02565b5b600061482f848285016147f6565b91505092915050565b7f436f6c6c61746572616c20617070726f76616c206661696c65642e0000000000600082015250565b600061486e601b83613ed2565b915061487982614838565b602082019050919050565b6000602082019050818103600083015261489d81614861565b9050919050565b6000819050919050565b600061ffff82169050919050565b6000819050919050565b60006148e16148dc6148d7846148a4565b6148bc565b6148ae565b9050919050565b6148f1816148c6565b82525050565b600060808201905061490c60008301876144b5565b6149196020830186614083565b61492660408301856144b5565b61493360608301846148e8565b95945050505050565b600060a08201905061495160008301886144b5565b61495e6020830187614083565b61496b6040830186614083565b61497860608301856148e8565b61498560808301846144b5565b9695505050505050565b7f4e487b7100000000000000000000000000000000000000000000000000000000600052601160045260246000fd5b60006149c982614204565b91507f80000000000000000000000000000000000000000000000000000000000000008214156149fc576149fb61498f565b5b816000039050919050565b600081519050614a1681613f8c565b92915050565b600060208284031215614a3257614a31613e02565b5b6000614a4084828501614a07565b91505092915050565b7f6e6f7420656e6f75676820746f6b656e20746f207265706179206c6f616e7300600082015250565b6000614a7f601f83613ed2565b9150614a8a82614a49565b602082019050919050565b60006020820190508181036000830152614aae81614a72565b9050919050565b7f4c6f616e20617070726f76616c206661696c6564000000000000000000000000600082015250565b6000614aeb601483613ed2565b9150614af682614ab5565b602082019050919050565b60006020820190508181036000830152614b1a81614ade565b9050919050565b6000608082019050614b3660008301876144b5565b614b436020830186614083565b614b506040830185614083565b614b5d60608301846144b5565b95945050505050565b6000606082019050614b7b60008301866144b5565b614b886020830185614083565b614b9560408301846144b5565b949350505050565b6000614ba882613f82565b9150614bb383613f82565b9250827fffffffffffffffffffffffffffffffffffffffffffffffffffffffffffffffff03821115614be857614be761498f565b5b828201905092915050565b614bfc81614204565b82525050565b614c0b81614005565b82525050565b6000608082019050614c266000830187614bf3565b614c336020830186614bf3565b614c406040830185614c02565b614c4d6060830184614c02565b95945050505050565b60008060008060808587031215614c7057614c6f613e02565b5b6000614c7e87828801614a07565b9450506020614c8f87828801614a07565b9350506040614ca0878288016146e2565b9250506060614cb1878288016146e2565b91505092959194509250565b6000614cd8614cd3614cce84613fe5565b6148bc565b613fe5565b9050919050565b6000614cea82614cbd565b9050919050565b6000614cfc82614cdf565b9050919050565b614d0c81614cf1565b82525050565b6000604082019050614d276000830185614d03565b614d346020830184614083565b9392505050565b7f5377617020617070726f76616c206661696c6564000000000000000000000000600082015250565b6000614d71601483613ed2565b9150614d7c82614d3b565b602082019050919050565b60006020820190508181036000830152614da081614d64565b9050919050565b600081905092915050565b82818337600083830152505050565b6000614dcd8385614da7565b9350614dda838584614db2565b82840190509392505050565b6000614df3828486614dc1565b91508190509392505050565b600081519050919050565b600082825260208201905092915050565b6000614e2682614dff565b614e308185614e0a565b9350614e40818560208601613ee3565b614e4981613f16565b840191505092915050565b6000604082019050614e696000830185613e9d565b8181036020830152614e7b8184614e1b565b90509392505050565b7f4e487b7100000000000000000000000000000000000000000000000000000000600052604160045260246000fd5b7f4e487b7100000000000000000000000000000000000000000000000000000000600052603260045260246000fd5b600081519050919050565b600082825260208201905092915050565b6000819050602082019050919050565b614f1781614005565b82525050565b6000614f298383614f0e565b60208301905092915050565b6000602082019050919050565b6000614f4d82614ee2565b614f578185614eed565b9350614f6283614efe565b8060005b83811015614f93578151614f7a8882614f1d565b9750614f8583614f35565b925050600181019050614f66565b5085935050505092915050565b600060a082019050614fb56000830188614083565b614fc26020830187614083565b8181036040830152614fd48186614f42565b9050614fe360608301856144b5565b614ff06080830184614083565b9695505050505050565b61500382613f16565b810181811067ffffffffffffffff8211171561502257615021614e84565b5b80604052505050565b6000615035613df8565b90506150418282614ffa565b919050565b600067ffffffffffffffff82111561506157615060614e84565b5b602082029050602081019050919050565b600061508561508084615046565b61502b565b905080838252602082019050602084028301858111156150a8576150a7614282565b5b835b818110156150d157806150bd8882614a07565b8452602084019350506020810190506150aa565b5050509392505050565b600082601f8301126150f0576150ef614278565b5b8151615100848260208601615072565b91505092915050565b60006020828403121561511f5761511e613e02565b5b600082015167ffffffffffffffff81111561513d5761513c613e07565b5b615149848285016150db565b91505092915050565b7f506172616d20746f6f2062696700000000000000000000000000000000000000600082015250565b6000615188600d83613ed2565b915061519382615152565b602082019050919050565b600060208201905081810360008301526151b78161517b565b9050919050565b60006151c982613f82565b91506151d483613f82565b9250828210156151e7576151e661498f565b5b828203905092915050565b6151fb81613f82565b82525050565b600060408201905061521660008301856151f2565b61522360208301846151f2565b9392505050565b7f45524332303a2064656372656173656420616c6c6f77616e63652062656c6f7760008201527f207a65726f000000000000000000000000000000000000000000000000000000602082015250565b6000615286602583613ed2565b91506152918261522a565b604082019050919050565b600060208201905081810360008301526152b581615279565b9050919050565b600080604083850312156152d3576152d2613e02565b5b60006152e185828601614a07565b92505060206152f285828601614a07565b9150509250929050565b600080fd5b6002811061530e57600080fd5b50565b60008151905061532081615301565b92915050565b6002811061533357600080fd5b50565b60008151905061534581615326565b92915050565b6004811061535857600080fd5b50565b60008151905061536a8161534b565b92915050565b60006102008284031215615387576153866152fc565b5b61539261020061502b565b905060006153a284828501615311565b60008301525060206153b684828501615336565b60208301525060406153ca8482850161535b565b60408301525060606153de848285016146e2565b60608301525060806153f284828501614a07565b60808301525060a061540684828501614a07565b60a08301525060c061541a84828501614a07565b60c08301525060e061542e84828501614a07565b60e08301525061010061544384828501614a07565b6101008301525061012061545984828501614a07565b6101208301525061014061546f84828501614a07565b6101408301525061016061548584828501614a07565b6101608301525061018061549b84828501614a07565b610180830152506101a06154b184828501614a07565b6101a0830152506101c06154c784828501614a07565b6101c0830152506101e06154dd84828501614a07565b6101e08301525092915050565b6000610200828403121561550157615500613e02565b5b600061550f84828501615370565b91505092915050565b7f4e487b7100000000000000000000000000000000000000000000000000000000600052602160045260246000fd5b7f4661696c6564207061796d656e7420746f20686f6c6465720000000000000000600082015250565b600061557d601883613ed2565b915061558882615547565b602082019050919050565b600060208201905081810360008301526155ac81615570565b9050919050565b7f4661696c6564207061796d656e7420746f206d61696e74656e616e6365000000600082015250565b60006155e9601d83613ed2565b91506155f4826155b3565b602082019050919050565b60006020820190508181036000830152615618816155dc565b9050919050565b7f4661696c6564207061796d656e7420746f206578657263697365722e00000000600082015250565b6000615655601c83613ed2565b91506156608261561f565b602082019050919050565b6000602082019050818103600083015261568481615648565b9050919050565b6002811061569c5761569b615518565b5b50565b60008190506156ad8261568b565b919050565b60006156bd8261569f565b9050919050565b6156cd816156b2565b82525050565b600281106156e4576156e3615518565b5b50565b60008190506156f5826156d3565b919050565b6000615705826156e7565b9050919050565b615715816156fa565b82525050565b6004811061572c5761572b615518565b5b50565b600081905061573d8261571b565b919050565b600061574d8261572f565b9050919050565b61575d81615742565b82525050565b61576c81613f82565b82525050565b6102008201600082015161578960008501826156c4565b50602082015161579c602085018261570c565b5060408201516157af6040850182615754565b5060608201516157c26060850182614f0e565b5060808201516157d56080850182615763565b5060a08201516157e860a0850182615763565b5060c08201516157fb60c0850182615763565b5060e082015161580e60e0850182615763565b50610100820151615823610100850182615763565b50610120820151615838610120850182615763565b5061014082015161584d610140850182615763565b50610160820151615862610160850182615763565b50610180820151615877610180850182615763565b506101a082015161588c6101a0850182615763565b506101c08201516158a16101c0850182615763565b506101e08201516158b66101e0850182615763565b50505050565b6000610220820190506158d26000830185615772565b6158e0610200830184614083565b9392505050565b60006060820190506158fc60008301866144b5565b61590960208301856144b5565b6159166040830184614083565b949350505050565b600081905092915050565b7f416363657373436f6e74726f6c3a206163636f756e7420000000000000000000600082015250565b600061595f60178361591e565b915061596a82615929565b601782019050919050565b600061598082613ec7565b61598a818561591e565b935061599a818560208601613ee3565b80840191505092915050565b7f206973206d697373696e6720726f6c6520000000000000000000000000000000600082015250565b60006159dc60118361591e565b91506159e7826159a6565b601182019050919050565b60006159fd82615952565b9150615a098285615975565b9150615a14826159cf565b9150615a208284615975565b91508190509392505050565b7f45524332303a20617070726f76652066726f6d20746865207a65726f2061646460008201527f7265737300000000000000000000000000000000000000000000000000000000602082015250565b6000615a88602483613ed2565b9150615a9382615a2c565b604082019050919050565b60006020820190508181036000830152615ab781615a7b565b9050919050565b7f45524332303a20617070726f766520746f20746865207a65726f20616464726560008201527f7373000000000000000000000000000000000000000000000000000000000000602082015250565b6000615b1a602283613ed2565b9150615b2582615abe565b604082019050919050565b60006020820190508181036000830152615b4981615b0d565b9050919050565b7f45524332303a207472616e736665722066726f6d20746865207a65726f20616460008201527f6472657373000000000000000000000000000000000000000000000000000000602082015250565b6000615bac602583613ed2565b9150615bb782615b50565b604082019050919050565b60006020820190508181036000830152615bdb81615b9f565b9050919050565b7f45524332303a207472616e7366657220746f20746865207a65726f206164647260008201527f6573730000000000000000000000000000000000000000000000000000000000602082015250565b6000615c3e602383613ed2565b9150615c4982615be2565b604082019050919050565b60006020820190508181036000830152615c6d81615c31565b9050919050565b7f45524332303a207472616e7366657220616d6f756e742065786365656473206260008201527f616c616e63650000000000000000000000000000000000000000000000000000602082015250565b6000615cd0602683613ed2565b9150615cdb82615c74565b604082019050919050565b60006020820190508181036000830152615cff81615cc3565b9050919050565b7f45524332303a206d696e7420746f20746865207a65726f206164647265737300600082015250565b6000615d3c601f83613ed2565b9150615d4782615d06565b602082019050919050565b60006020820190508181036000830152615d6b81615d2f565b9050919050565b7f45524332303a206275726e2066726f6d20746865207a65726f2061646472657360008201527f7300000000000000000000000000000000000000000000000000000000000000602082015250565b6000615dce602183613ed2565b9150615dd982615d72565b604082019050919050565b60006020820190508181036000830152615dfd81615dc1565b9050919050565b7f45524332303a206275726e20616d6f756e7420657863656564732062616c616e60008201527f6365000000000000000000000000000000000000000000000000000000000000602082015250565b6000615e60602283613ed2565b9150615e6b82615e04565b604082019050919050565b60006020820190508181036000830152615e8f81615e53565b9050919050565b6000615ea182613f82565b9150615eac83613f82565b9250817fffffffffffffffffffffffffffffffffffffffffffffffffffffffffffffffff0483118215151615615ee557615ee461498f565b5b828202905092915050565b6000615efb82613f82565b91506000821415615f0f57615f0e61498f565b5b600182039050919050565b7f537472696e67733a20686578206c656e67746820696e73756666696369656e74600082015250565b6000615f50602083613ed2565b9150615f5b82615f1a565b602082019050919050565b60006020820190508181036000830152615f7f81615f43565b905091905056fea264697066735822122091b27e83b796f37cb55f5c0c1c116818fb8649922b324404d8b8aacb2b8073e064736f6c634300080b0033",
  "immutableReferences": {
    "5286": [
      {
        "length": 32,
        "start": 9231
      },
      {
        "length": 32,
        "start": 9827
      },
      {
        "length": 32,
        "start": 10248
      },
      {
        "length": 32,
        "start": 10634
      },
      {
        "length": 32,
        "start": 11202
      },
      {
        "length": 32,
        "start": 11859
      }
    ],
    "5289": [
      {
        "length": 32,
        "start": 2790
      },
      {
        "length": 32,
        "start": 2956
      },
      {
        "length": 32,
        "start": 6617
      },
      {
        "length": 32,
        "start": 6782
      },
      {
        "length": 32,
        "start": 6925
      },
      {
        "length": 32,
        "start": 7985
      },
      {
        "length": 32,
        "start": 8168
      },
      {
        "length": 32,
        "start": 8310
      },
      {
        "length": 32,
        "start": 8729
      },
      {
        "length": 32,
        "start": 9043
      },
      {
        "length": 32,
        "start": 9639
      },
      {
        "length": 32,
        "start": 11005
      }
    ],
    "5292": [
      {
        "length": 32,
        "start": 3630
      },
      {
        "length": 32,
        "start": 3781
      },
      {
        "length": 32,
        "start": 4000
      },
      {
        "length": 32,
        "start": 4249
      },
      {
        "length": 32,
        "start": 4865
      },
      {
        "length": 32,
        "start": 5491
      }
    ],
    "5295": [
      {
        "length": 32,
        "start": 3225
      },
      {
        "length": 32,
        "start": 3474
      },
      {
        "length": 32,
        "start": 4426
      },
      {
        "length": 32,
        "start": 4898
      },
      {
        "length": 32,
        "start": 5524
      },
      {
        "length": 32,
        "start": 8983
      },
      {
        "length": 32,
        "start": 9579
      },
      {
        "length": 32,
        "start": 10124
      },
      {
        "length": 32,
        "start": 10544
      },
      {
        "length": 32,
        "start": 11465
      },
      {
        "length": 32,
        "start": 11998
      }
    ]
  },
  "source": "// SPDX-License-Identifier: MIT\npragma solidity ^0.8.0;\n\nimport \"@openzeppelin/contracts/access/AccessControl.sol\";\nimport \"@openzeppelin/contracts/utils/structs/EnumerableSet.sol\";\nimport \"./MarketLibrary.sol\";\nimport \"./OptionVault.sol\";\nimport \"./interfaces/EOption.sol\";\nimport \"./interfaces/IUniswapV2Router02.sol\";\nimport \"./interfaces/ILendingPoolAddressesProvider.sol\";\nimport \"./interfaces/ILendingPool.sol\";\n\ncontract MoretMarketMaker is ERC20, AccessControl, EOption{\n  using FullMath for uint256;\n  using MarketLibrary for uint256;\n  \n  bytes32 public constant ADMIN_ROLE = keccak256(\"ADMIN_ROLE\");\n  bytes32 public constant EXCHANGE_ROLE = keccak256(\"EXCHANGE_ROLE\");\n  uint256 internal constant BASE = 1e18;\n\n  uint256 internal immutable fundingDecimals;\n  OptionVault internal immutable optionVault;\n  ERC20 internal immutable underlying;\n  ERC20 internal immutable funding;\n\n  uint256 public settlementFee= 0.005e18;\n  uint256 public exerciseFee= 0.005e18;\n  uint256 public swapSlippage = 0.0005e18;\n  uint256 public lendingPoolRateMode = 2;\n  address public maintenanceAddress;\n  \n  constructor(string memory _name, string memory _symbol, OptionVault _optionVault) ERC20(_name, _symbol){\n    _setupRole(DEFAULT_ADMIN_ROLE, msg.sender);\n    _setupRole(ADMIN_ROLE, msg.sender);\n    _setupRole(EXCHANGE_ROLE, msg.sender);\n    maintenanceAddress = msg.sender;\n    optionVault = _optionVault;\n    underlying = _optionVault.underlying();\n    funding = _optionVault.funding();\n    fundingDecimals = _optionVault.funding().decimals();\n    _mint(msg.sender, BASE);}\n\n  function expireOptions(address _exerciseFeeRecipient, uint256 _maxContracts) external {\n    uint256 _expiringId = optionVault.getExpiringOptionId();\n    uint256 _count = 0;\n    while(_expiringId > 0 && _count < _maxContracts) {\n      _count = _count + 1;\n      optionVault.stampExpiredOption(_expiringId);\n      \n      (uint256 _payoff, uint256 _payback) = optionVault.getContractPayoff(_expiringId);\n      \n      uint256 _settleFeeAmount = _payoff.ethmul(settlementFee);\n      uint256 _exerciseFeeAmount = _payoff.ethmul(exerciseFee);\n      \n      OptionLibrary.Option memory _option = optionVault.getOption(_expiringId);\n      OptionLibrary.OptionSide _optionSide = _option.side;\n      if(_optionSide == OptionLibrary.OptionSide.Buy){\n        _payback = _payback - Math.min(_payback, _settleFeeAmount + _exerciseFeeAmount);\n        if(_payback > 0){\n          require(funding.transfer(optionVault.getOption(_expiringId).holder, _payback.toDecimals(fundingDecimals)), \"Failed payment to holder\");}}\n      else if(_optionSide == OptionLibrary.OptionSide.Sell && _payback > 0){\n        require(funding.transfer(optionVault.getOption(_expiringId).holder, _payback.toDecimals(fundingDecimals)), \"Failed payment to holder\");}\n\n      if(_settleFeeAmount > 0){\n        require(funding.transfer(maintenanceAddress, _settleFeeAmount.toDecimals(fundingDecimals)), \"Failed payment to maintenance\");}\n\n      if(_exerciseFeeAmount > 0){\n        require(funding.transfer(_exerciseFeeRecipient, _exerciseFeeAmount.toDecimals(fundingDecimals)), \"Failed payment to exerciser.\");}\n      \n      emit Expire(_option.holder, _option, _payback);\n      _expiringId = optionVault.getExpiringOptionId();}}\n\n  function calcCapital(bool _net, bool _average) public view returns(uint256 _capital){\n    _capital = optionVault.getGrossCapital(address(this));\n    if(_net){ _capital -= Math.min(optionVault.getMaxHedge() + optionVault.sellPutCollaterals(), _capital);}\n    if(_average){ \n      if(totalSupply() > 0) {\n        _capital = _capital.ethdiv(totalSupply()); }\n      else if(totalSupply() == 0 && _capital == 0) {\n        _capital = BASE;}}}\n    \n  function addCapital(uint256 _depositAmount) external {\n      uint256 _mintMPTokenAmount = MarketLibrary.toWei(_depositAmount, fundingDecimals).ethdiv(calcCapital(false, true));\n      require(funding.transferFrom(msg.sender, address(this), _depositAmount));\n      _mint(msg.sender, _mintMPTokenAmount);}\n\n  function withdrawCapital(uint256 _burnMPTokenAmount) external {\n      uint256 _withdrawValue = calcCapital(true, true).ethmul(_burnMPTokenAmount).toDecimals(fundingDecimals); \n      _burn(msg.sender, _burnMPTokenAmount);\n      require(funding.transfer(msg.sender, _withdrawValue));}\n\n  function tradeSwapAggregate(int256 _underlyingAmt, int256 _fundingAmt, address payable _spender, bytes calldata _calldata, uint256 _gas) external onlyRole(EXCHANGE_ROLE){\n    (uint256 _fromAmt, , address _fromAddress, ) = MarketLibrary.cleanTradeAmounts(_underlyingAmt, _fundingAmt, address(underlying), address(funding));\n    require(ERC20(_fromAddress).approve(_spender, _fromAmt), \"Swap approval failed\");\n    (bool success, bytes memory data) = _spender.call{gas: _gas}(_calldata);\n    emit Response(success, data);}\n\n  function tradeSwaps(int256 _underlyingAmt, int256 _fundingAmt, IUniswapV2Router02 _router, uint256 _deadline) external onlyRole(EXCHANGE_ROLE) {\n    (uint256 _fromAmt, uint256 _toAmt, address _fromAddress, address _toAddress) = MarketLibrary.cleanTradeAmounts(_underlyingAmt, _fundingAmt, address(underlying), address(funding));\n    require(ERC20(_fromAddress).approve(address(_router), _fromAmt), \"Swap approval failed\");\n    address[] memory _path = new address[](2);\n    _path[0]=_fromAddress;\n    _path[1] = _toAddress;\n    _router.swapTokensForExactTokens(_toAmt, _fromAmt, _path, address(this), block.timestamp + _deadline );}\n\n  function hedgeTradesForLoans() external onlyRole(EXCHANGE_ROLE) {\n    (int256 _loanTradeAmount, int256 _collateralChange,,) = optionVault.calcLoanTradesInTok(address(this), lendingPoolRateMode);\n    address _lendingPoolAddress = ILendingPoolAddressesProvider(optionVault.aaveAddress()).getLendingPool();\n    ILendingPool _lendingPool = ILendingPool(_lendingPoolAddress);\n\n    if(_collateralChange > 0){\n      require(funding.approve(_lendingPoolAddress, uint256(_collateralChange)), \"Collateral approval failed.\");\n      _lendingPool.deposit(address(funding), uint256(_collateralChange), address(this), 0);}\n    \n    if(_loanTradeAmount > 0){\n      _lendingPool.borrow(address(underlying), uint256(_loanTradeAmount), lendingPoolRateMode,  0, address(this));}\n    else if(_loanTradeAmount < 0){\n      uint256 _loan = uint256(-_loanTradeAmount);\n      require(underlying.balanceOf(address(this))>= _loan, \"not enough token to repay loans\");\n      require(underlying.approve(_lendingPoolAddress, _loan), \"Loan approval failed\");\n      _lendingPool.repay(address(underlying), _loan, lendingPoolRateMode, address(this));}\n\n    if(_collateralChange < 0){\n      _lendingPool.withdraw(address(funding), uint256(-_collateralChange), address(this));}}\n\n  function resetSettlementFee(uint256 _newFee) external onlyRole(ADMIN_ROLE){ \n    require(_newFee < BASE, \"Param too big\"); \n    settlementFee = _newFee;\n    emit ResetParameter(0, _newFee);}\n\n  function resetExerciseFee(uint256 _newFee) external onlyRole(ADMIN_ROLE){ \n    require(_newFee < BASE, \"Param too big\"); \n    exerciseFee = _newFee;\n    emit ResetParameter(1, _newFee);}\n\n  function resetSlippage(uint256 _slippage) external onlyRole(ADMIN_ROLE){ \n    swapSlippage = _slippage;\n    emit ResetParameter(2, _slippage);}\n  \n  function resetLendingPoolRateMode(uint256 _newRateMode) external onlyRole(ADMIN_ROLE) {\n    require(_newRateMode == 1 || _newRateMode == 2);\n    lendingPoolRateMode = _newRateMode;\n    emit ResetParameter(3, _newRateMode);}\n\n  function resetMaintenance(address _newAddress) external onlyRole(ADMIN_ROLE){ \n    maintenanceAddress = _newAddress;\n    emit ResetAddress(0, _newAddress);}\n}\n",
  "sourcePath": "/Users/mac/Documents/GitHub/moret/contracts/MoretMarketMaker.sol",
  "compiler": {
    "name": "solc",
    "version": "0.8.11+commit.d7f03943.Emscripten.clang"
  },
  "schemaVersion": "3.4.3",
  "updatedAt": "2022-01-03T11:21:18.501Z",
  "devdoc": {
    "kind": "dev",
    "methods": {
      "allowance(address,address)": {
        "details": "See {IERC20-allowance}."
      },
      "approve(address,uint256)": {
        "details": "See {IERC20-approve}. Requirements: - `spender` cannot be the zero address."
      },
      "balanceOf(address)": {
        "details": "See {IERC20-balanceOf}."
      },
      "decimals()": {
        "details": "Returns the number of decimals used to get its user representation. For example, if `decimals` equals `2`, a balance of `505` tokens should be displayed to a user as `5.05` (`505 / 10 ** 2`). Tokens usually opt for a value of 18, imitating the relationship between Ether and Wei. This is the value {ERC20} uses, unless this function is overridden; NOTE: This information is only used for _display_ purposes: it in no way affects any of the arithmetic of the contract, including {IERC20-balanceOf} and {IERC20-transfer}."
      },
      "decreaseAllowance(address,uint256)": {
        "details": "Atomically decreases the allowance granted to `spender` by the caller. This is an alternative to {approve} that can be used as a mitigation for problems described in {IERC20-approve}. Emits an {Approval} event indicating the updated allowance. Requirements: - `spender` cannot be the zero address. - `spender` must have allowance for the caller of at least `subtractedValue`."
      },
      "getRoleAdmin(bytes32)": {
        "details": "Returns the admin role that controls `role`. See {grantRole} and {revokeRole}. To change a role's admin, use {_setRoleAdmin}."
      },
      "grantRole(bytes32,address)": {
        "details": "Grants `role` to `account`. If `account` had not been already granted `role`, emits a {RoleGranted} event. Requirements: - the caller must have ``role``'s admin role."
      },
      "hasRole(bytes32,address)": {
        "details": "Returns `true` if `account` has been granted `role`."
      },
      "increaseAllowance(address,uint256)": {
        "details": "Atomically increases the allowance granted to `spender` by the caller. This is an alternative to {approve} that can be used as a mitigation for problems described in {IERC20-approve}. Emits an {Approval} event indicating the updated allowance. Requirements: - `spender` cannot be the zero address."
      },
      "name()": {
        "details": "Returns the name of the token."
      },
      "renounceRole(bytes32,address)": {
        "details": "Revokes `role` from the calling account. Roles are often managed via {grantRole} and {revokeRole}: this function's purpose is to provide a mechanism for accounts to lose their privileges if they are compromised (such as when a trusted device is misplaced). If the calling account had been revoked `role`, emits a {RoleRevoked} event. Requirements: - the caller must be `account`."
      },
      "revokeRole(bytes32,address)": {
        "details": "Revokes `role` from `account`. If `account` had been granted `role`, emits a {RoleRevoked} event. Requirements: - the caller must have ``role``'s admin role."
      },
      "supportsInterface(bytes4)": {
        "details": "See {IERC165-supportsInterface}."
      },
      "symbol()": {
        "details": "Returns the symbol of the token, usually a shorter version of the name."
      },
      "totalSupply()": {
        "details": "See {IERC20-totalSupply}."
      },
      "transfer(address,uint256)": {
        "details": "See {IERC20-transfer}. Requirements: - `recipient` cannot be the zero address. - the caller must have a balance of at least `amount`."
      },
      "transferFrom(address,address,uint256)": {
        "details": "See {IERC20-transferFrom}. Emits an {Approval} event indicating the updated allowance. This is not required by the EIP. See the note at the beginning of {ERC20}. Requirements: - `sender` and `recipient` cannot be the zero address. - `sender` must have a balance of at least `amount`. - the caller must have allowance for ``sender``'s tokens of at least `amount`."
      }
    },
    "version": 1
  },
  "userdoc": {
    "kind": "user",
    "methods": {},
    "version": 1
  }
}