{
  "contractName": "MoretExchange",
  "abi": [
    {
      "inputs": [
        {
          "internalType": "address payable",
          "name": "_marketMakerAddress",
          "type": "address"
        },
        {
          "internalType": "address",
          "name": "_optionAddress",
          "type": "address"
        },
        {
          "internalType": "address payable",
          "name": "_volTokenAddress",
          "type": "address"
        }
      ],
      "stateMutability": "nonpayable",
      "type": "constructor"
    },
    {
      "anonymous": false,
      "inputs": [
        {
          "indexed": true,
          "internalType": "bytes32",
          "name": "role",
          "type": "bytes32"
        },
        {
          "indexed": true,
          "internalType": "bytes32",
          "name": "previousAdminRole",
          "type": "bytes32"
        },
        {
          "indexed": true,
          "internalType": "bytes32",
          "name": "newAdminRole",
          "type": "bytes32"
        }
      ],
      "name": "RoleAdminChanged",
      "type": "event"
    },
    {
      "anonymous": false,
      "inputs": [
        {
          "indexed": true,
          "internalType": "bytes32",
          "name": "role",
          "type": "bytes32"
        },
        {
          "indexed": true,
          "internalType": "address",
          "name": "account",
          "type": "address"
        },
        {
          "indexed": true,
          "internalType": "address",
          "name": "sender",
          "type": "address"
        }
      ],
      "name": "RoleGranted",
      "type": "event"
    },
    {
      "anonymous": false,
      "inputs": [
        {
          "indexed": true,
          "internalType": "bytes32",
          "name": "role",
          "type": "bytes32"
        },
        {
          "indexed": true,
          "internalType": "address",
          "name": "account",
          "type": "address"
        },
        {
          "indexed": true,
          "internalType": "address",
          "name": "sender",
          "type": "address"
        }
      ],
      "name": "RoleRevoked",
      "type": "event"
    },
    {
      "anonymous": false,
      "inputs": [
        {
          "indexed": false,
          "internalType": "address",
          "name": "_recipient",
          "type": "address"
        },
        {
          "indexed": false,
          "internalType": "uint256",
          "name": "_mintMPTokenAmount",
          "type": "uint256"
        },
        {
          "indexed": false,
          "internalType": "uint256",
          "name": "_addedValue",
          "type": "uint256"
        }
      ],
      "name": "capitalAdded",
      "type": "event"
    },
    {
      "anonymous": false,
      "inputs": [
        {
          "indexed": false,
          "internalType": "address",
          "name": "_recipient",
          "type": "address"
        },
        {
          "indexed": false,
          "internalType": "uint256",
          "name": "_burnMPTokenAmount",
          "type": "uint256"
        },
        {
          "indexed": false,
          "internalType": "uint256",
          "name": "_withdrawValue",
          "type": "uint256"
        }
      ],
      "name": "capitalWithdrawn",
      "type": "event"
    },
    {
      "anonymous": false,
      "inputs": [
        {
          "indexed": false,
          "internalType": "address",
          "name": "_purchaser",
          "type": "address"
        },
        {
          "indexed": false,
          "internalType": "uint256",
          "name": "_time",
          "type": "uint256"
        },
        {
          "indexed": false,
          "internalType": "uint256",
          "name": "_id",
          "type": "uint256"
        },
        {
          "indexed": false,
          "internalType": "uint256",
          "name": "_cost",
          "type": "uint256"
        }
      ],
      "name": "newOptionBought",
      "type": "event"
    },
    {
      "anonymous": false,
      "inputs": [
        {
          "indexed": false,
          "internalType": "uint256",
          "name": "_time",
          "type": "uint256"
        },
        {
          "indexed": false,
          "internalType": "uint256",
          "name": "_id",
          "type": "uint256"
        }
      ],
      "name": "optionExercised",
      "type": "event"
    },
    {
      "inputs": [],
      "name": "ADMIN_ROLE",
      "outputs": [
        {
          "internalType": "bytes32",
          "name": "",
          "type": "bytes32"
        }
      ],
      "stateMutability": "view",
      "type": "function"
    },
    {
      "inputs": [],
      "name": "DEFAULT_ADMIN_ROLE",
      "outputs": [
        {
          "internalType": "bytes32",
          "name": "",
          "type": "bytes32"
        }
      ],
      "stateMutability": "view",
      "type": "function"
    },
    {
      "inputs": [
        {
          "internalType": "bytes32",
          "name": "role",
          "type": "bytes32"
        }
      ],
      "name": "getRoleAdmin",
      "outputs": [
        {
          "internalType": "bytes32",
          "name": "",
          "type": "bytes32"
        }
      ],
      "stateMutability": "view",
      "type": "function"
    },
    {
      "inputs": [
        {
          "internalType": "bytes32",
          "name": "role",
          "type": "bytes32"
        },
        {
          "internalType": "address",
          "name": "account",
          "type": "address"
        }
      ],
      "name": "grantRole",
      "outputs": [],
      "stateMutability": "nonpayable",
      "type": "function"
    },
    {
      "inputs": [
        {
          "internalType": "bytes32",
          "name": "role",
          "type": "bytes32"
        },
        {
          "internalType": "address",
          "name": "account",
          "type": "address"
        }
      ],
      "name": "hasRole",
      "outputs": [
        {
          "internalType": "bool",
          "name": "",
          "type": "bool"
        }
      ],
      "stateMutability": "view",
      "type": "function"
    },
    {
      "inputs": [],
      "name": "isUnderlyingNative",
      "outputs": [
        {
          "internalType": "bool",
          "name": "",
          "type": "bool"
        }
      ],
      "stateMutability": "view",
      "type": "function"
    },
    {
      "inputs": [
        {
          "internalType": "bytes32",
          "name": "role",
          "type": "bytes32"
        },
        {
          "internalType": "address",
          "name": "account",
          "type": "address"
        }
      ],
      "name": "renounceRole",
      "outputs": [],
      "stateMutability": "nonpayable",
      "type": "function"
    },
    {
      "inputs": [
        {
          "internalType": "bytes32",
          "name": "role",
          "type": "bytes32"
        },
        {
          "internalType": "address",
          "name": "account",
          "type": "address"
        }
      ],
      "name": "revokeRole",
      "outputs": [],
      "stateMutability": "nonpayable",
      "type": "function"
    },
    {
      "inputs": [],
      "name": "settlementFee",
      "outputs": [
        {
          "internalType": "uint256",
          "name": "numerator",
          "type": "uint256"
        },
        {
          "internalType": "uint256",
          "name": "denominator",
          "type": "uint256"
        }
      ],
      "stateMutability": "view",
      "type": "function"
    },
    {
      "inputs": [
        {
          "internalType": "bytes4",
          "name": "interfaceId",
          "type": "bytes4"
        }
      ],
      "name": "supportsInterface",
      "outputs": [
        {
          "internalType": "bool",
          "name": "",
          "type": "bool"
        }
      ],
      "stateMutability": "view",
      "type": "function"
    },
    {
      "stateMutability": "payable",
      "type": "receive"
    },
    {
      "inputs": [
        {
          "internalType": "uint256",
          "name": "_tenor",
          "type": "uint256"
        },
        {
          "internalType": "uint256",
          "name": "_strike",
          "type": "uint256"
        },
        {
          "internalType": "enum OptionLibrary.PayoffType",
          "name": "_poType",
          "type": "uint8"
        },
        {
          "internalType": "uint256",
          "name": "_amount",
          "type": "uint256"
        }
      ],
      "name": "queryOptionCost",
      "outputs": [
        {
          "internalType": "uint256",
          "name": "",
          "type": "uint256"
        }
      ],
      "stateMutability": "view",
      "type": "function"
    },
    {
      "inputs": [
        {
          "internalType": "uint256",
          "name": "_tenor",
          "type": "uint256"
        },
        {
          "internalType": "uint256",
          "name": "_strike",
          "type": "uint256"
        },
        {
          "internalType": "enum OptionLibrary.PayoffType",
          "name": "_poType",
          "type": "uint8"
        },
        {
          "internalType": "uint256",
          "name": "_amount",
          "type": "uint256"
        },
        {
          "internalType": "uint256",
          "name": "_payInCost",
          "type": "uint256"
        },
        {
          "internalType": "bool",
          "name": "_inVolToken",
          "type": "bool"
        }
      ],
      "name": "purchaseOption",
      "outputs": [],
      "stateMutability": "payable",
      "type": "function"
    },
    {
      "inputs": [
        {
          "internalType": "uint256",
          "name": "_id",
          "type": "uint256"
        }
      ],
      "name": "exerciseOption",
      "outputs": [],
      "stateMutability": "nonpayable",
      "type": "function"
    },
    {
      "inputs": [
        {
          "internalType": "address payable",
          "name": "_tokenAddress",
          "type": "address"
        }
      ],
      "name": "addVolToken",
      "outputs": [],
      "stateMutability": "nonpayable",
      "type": "function"
    },
    {
      "inputs": [],
      "name": "sweepBalance",
      "outputs": [],
      "stateMutability": "nonpayable",
      "type": "function"
    },
    {
      "inputs": [
        {
          "internalType": "uint256",
          "name": "_fee",
          "type": "uint256"
        },
        {
          "internalType": "uint256",
          "name": "_denominator",
          "type": "uint256"
        }
      ],
      "name": "resetSettlementFees",
      "outputs": [],
      "stateMutability": "nonpayable",
      "type": "function"
    }
  ],
  "bytecode": "0x608060405260405180604001604052806113888152602001620f42408152506002600082015181600001556020820151816001015550503480156200004357600080fd5b5060405162004a9238038062004a928339818101604052810190620000699190620005e8565b6200009b7fa49807205ce4d355092ef5a8a18f56e8913cf4a201fbe287825b095693c2177533620003e160201b60201c565b81600660006101000a81548173ffffffffffffffffffffffffffffffffffffffff021916908373ffffffffffffffffffffffffffffffffffffffff16021790555082600560006101000a81548173ffffffffffffffffffffffffffffffffffffffff021916908373ffffffffffffffffffffffffffffffffffffffff160217905550600081905080600860008373ffffffffffffffffffffffffffffffffffffffff1663a15612d16040518163ffffffff1660e01b815260040160206040518083038186803b1580156200016e57600080fd5b505afa15801562000183573d6000803e3d6000fd5b505050506040513d601f19601f82011682018060405250810190620001a9919062000676565b815260200190815260200160002060006101000a81548173ffffffffffffffffffffffffffffffffffffffff021916908373ffffffffffffffffffffffffffffffffffffffff16021790555030600460006101000a81548173ffffffffffffffffffffffffffffffffffffffff021916908373ffffffffffffffffffffffffffffffffffffffff160217905550600560009054906101000a900473ffffffffffffffffffffffffffffffffffffffff1673ffffffffffffffffffffffffffffffffffffffff1663df648dc46040518163ffffffff1660e01b815260040160206040518083038186803b1580156200029f57600080fd5b505afa158015620002b4573d6000803e3d6000fd5b505050506040513d601f19601f82011682018060405250810190620002da919062000644565b600160006101000a81548160ff021916908315150217905550600560009054906101000a900473ffffffffffffffffffffffffffffffffffffffff1673ffffffffffffffffffffffffffffffffffffffff16632140ea676040518163ffffffff1660e01b815260040160206040518083038186803b1580156200035c57600080fd5b505afa15801562000371573d6000803e3d6000fd5b505050506040513d601f19601f82011682018060405250810190620003979190620005b6565b600760006101000a81548173ffffffffffffffffffffffffffffffffffffffff021916908373ffffffffffffffffffffffffffffffffffffffff1602179055505050505062000773565b620003f38282620003f760201b60201c565b5050565b620004098282620004e860201b60201c565b620004e457600160008084815260200190815260200160002060000160008373ffffffffffffffffffffffffffffffffffffffff1673ffffffffffffffffffffffffffffffffffffffff16815260200190815260200160002060006101000a81548160ff021916908315150217905550620004896200055260201b60201c565b73ffffffffffffffffffffffffffffffffffffffff168173ffffffffffffffffffffffffffffffffffffffff16837f2f8788117e7eff1d82e926ec794901d17c78024a50270940304540a733656f0d60405160405180910390a45b5050565b600080600084815260200190815260200160002060000160008373ffffffffffffffffffffffffffffffffffffffff1673ffffffffffffffffffffffffffffffffffffffff16815260200190815260200160002060009054906101000a900460ff16905092915050565b600033905090565b6000815190506200056b816200070b565b92915050565b600081519050620005828162000725565b92915050565b60008151905062000599816200073f565b92915050565b600081519050620005b08162000759565b92915050565b600060208284031215620005cf57620005ce62000706565b5b6000620005df848285016200055a565b91505092915050565b60008060006060848603121562000604576200060362000706565b5b6000620006148682870162000571565b935050602062000627868287016200055a565b92505060406200063a8682870162000571565b9150509250925092565b6000602082840312156200065d576200065c62000706565b5b60006200066d8482850162000588565b91505092915050565b6000602082840312156200068f576200068e62000706565b5b60006200069f848285016200059f565b91505092915050565b6000620006b582620006dc565b9050919050565b6000620006c982620006dc565b9050919050565b60008115159050919050565b600073ffffffffffffffffffffffffffffffffffffffff82169050919050565b6000819050919050565b600080fd5b6200071681620006a8565b81146200072257600080fd5b50565b6200073081620006bc565b81146200073c57600080fd5b50565b6200074a81620006d0565b81146200075657600080fd5b50565b6200076481620006fc565b81146200077057600080fd5b50565b61430f80620007836000396000f3fe6080604052600436106100f75760003560e01c806391d148541161008a578063c3513f6d11610059578063c3513f6d14610339578063d547741f14610350578063df648dc414610379578063f52f2526146103a4576100fe565b806391d148541461027f5780639320d4ce146102bc578063a217fddf146102e5578063b7ab813714610310576100fe565b80634ac1a2f7116100c65780634ac1a2f7146101cf5780634b70084f146101eb57806375b238fc146102285780637d1d7fb814610253576100fe565b806301ffc9a714610103578063248a9ca3146101405780632f2ff15d1461017d57806336568abe146101a6576100fe565b366100fe57005b600080fd5b34801561010f57600080fd5b5061012a60048036038101906101259190613255565b6103cd565b604051610137919061395e565b60405180910390f35b34801561014c57600080fd5b50610167600480360381019061016291906131bb565b610447565b6040516101749190613979565b60405180910390f35b34801561018957600080fd5b506101a4600480360381019061019f9190613215565b610466565b005b3480156101b257600080fd5b506101cd60048036038101906101c89190613215565b61048f565b005b6101e960048036038101906101e491906133f0565b610512565b005b3480156101f757600080fd5b50610212600480360381019061020d9190613389565b610e43565b60405161021f9190613af6565b60405180910390f35b34801561023457600080fd5b5061023d610fc4565b60405161024a9190613979565b60405180910390f35b34801561025f57600080fd5b50610268610fe8565b604051610276929190613b8c565b60405180910390f35b34801561028b57600080fd5b506102a660048036038101906102a19190613215565b610ffa565b6040516102b3919061395e565b60405180910390f35b3480156102c857600080fd5b506102e360048036038101906102de9190613309565b611064565b005b3480156102f157600080fd5b506102fa6110c9565b6040516103079190613979565b60405180910390f35b34801561031c57600080fd5b5061033760048036038101906103329190613134565b6110d0565b005b34801561034557600080fd5b5061034e611434565b005b34801561035c57600080fd5b5061037760048036038101906103729190613215565b6116ce565b005b34801561038557600080fd5b5061038e6116f7565b60405161039b919061395e565b60405180910390f35b3480156103b057600080fd5b506103cb60048036038101906103c691906132af565b61170a565b005b60007f7965db0b000000000000000000000000000000000000000000000000000000007bffffffffffffffffffffffffffffffffffffffffffffffffffffffff1916827bffffffffffffffffffffffffffffffffffffffffffffffffffffffff19161480610440575061043f82611d09565b5b9050919050565b6000806000838152602001908152602001600020600101549050919050565b61046f82610447565b6104808161047b611d73565b611d7b565b61048a8383611e18565b505050565b610497611d73565b73ffffffffffffffffffffffffffffffffffffffff168173ffffffffffffffffffffffffffffffffffffffff1614610504576040517f08c379a00000000000000000000000000000000000000000000000000000000081526004016104fb90613ad6565b60405180910390fd5b61050e8282611ef8565b5050565b600660009054906101000a900473ffffffffffffffffffffffffffffffffffffffff1673ffffffffffffffffffffffffffffffffffffffff16634d38cad9876040518263ffffffff1660e01b815260040161056d9190613af6565b60206040518083038186803b15801561058557600080fd5b505afa158015610599573d6000803e3d6000fd5b505050506040513d601f19601f820116820180604052508101906105bd919061318e565b6105fc576040517f08c379a00000000000000000000000000000000000000000000000000000000081526004016105f390613ab6565b60405180910390fd5b600060018111156106105761060f613f64565b5b84600181111561062357610622613f64565b5b1480610652575060018081111561063d5761063c613f64565b5b8460018111156106505761064f613f64565b5b145b610691576040517f08c379a0000000000000000000000000000000000000000000000000000000008152600401610688906139d6565b60405180910390fd5b600080600660009054906101000a900473ffffffffffffffffffffffffffffffffffffffff1673ffffffffffffffffffffffffffffffffffffffff1663fa66dcd4898989896002600560009054906101000a900473ffffffffffffffffffffffffffffffffffffffff1673ffffffffffffffffffffffffffffffffffffffff1663c679dc798d8f6040518363ffffffff1660e01b8152600401610735929190613b63565b604080518083038186803b15801561074c57600080fd5b505afa158015610760573d6000803e3d6000fd5b505050506040513d601f19601f820116820180604052508101906107849190613282565b6040518763ffffffff1660e01b81526004016107a596959493929190613bb5565b604080518083038186803b1580156107bc57600080fd5b505afa1580156107d0573d6000803e3d6000fd5b505050506040513d601f19601f820116820180604052508101906107f49190613349565b915091506000600660009054906101000a900473ffffffffffffffffffffffffffffffffffffffff1673ffffffffffffffffffffffffffffffffffffffff1663867536778a8a8a8a88886040518763ffffffff1660e01b815260040161085f96959493929190613c17565b602060405180830381600087803b15801561087957600080fd5b505af115801561088d573d6000803e3d6000fd5b505050506040513d601f19601f820116820180604052508101906108b191906132dc565b9050600660009054906101000a900473ffffffffffffffffffffffffffffffffffffffff1673ffffffffffffffffffffffffffffffffffffffff16636abae9b382866040518363ffffffff1660e01b8152600401610910929190613b3a565b60206040518083038186803b15801561092857600080fd5b505afa15801561093c573d6000803e3d6000fd5b505050506040513d601f19601f8201168201806040525081019061096091906132dc565b8510156109a2576040517f08c379a000000000000000000000000000000000000000000000000000000000815260040161099990613a76565b60405180910390fd5b831580156109bc5750600160009054906101000a900460ff165b15610ab157600660009054906101000a900473ffffffffffffffffffffffffffffffffffffffff1673ffffffffffffffffffffffffffffffffffffffff16636abae9b382866040518363ffffffff1660e01b8152600401610a1e929190613b3a565b60206040518083038186803b158015610a3657600080fd5b505afa158015610a4a573d6000803e3d6000fd5b505050506040513d601f19601f82011682018060405250810190610a6e91906132dc565b341015610ab0576040517f08c379a0000000000000000000000000000000000000000000000000000000008152600401610aa790613a76565b60405180910390fd5b5b83610ac257610ac1813387611fd9565b5b8315610ad557610ad4818a33886124d4565b5b600660009054906101000a900473ffffffffffffffffffffffffffffffffffffffff1673ffffffffffffffffffffffffffffffffffffffff166328e493c1826040518263ffffffff1660e01b8152600401610b309190613af6565b600060405180830381600087803b158015610b4a57600080fd5b505af1158015610b5e573d6000803e3d6000fd5b50505050600560009054906101000a900473ffffffffffffffffffffffffffffffffffffffff1673ffffffffffffffffffffffffffffffffffffffff1663cbe42a183383600660009054906101000a900473ffffffffffffffffffffffffffffffffffffffff1673ffffffffffffffffffffffffffffffffffffffff166346047a66866040518263ffffffff1660e01b8152600401610bfd9190613af6565b60206040518083038186803b158015610c1557600080fd5b505afa158015610c29573d6000803e3d6000fd5b505050506040513d601f19601f82011682018060405250810190610c4d91906132dc565b600660009054906101000a900473ffffffffffffffffffffffffffffffffffffffff1673ffffffffffffffffffffffffffffffffffffffff1663128734c58760006040518363ffffffff1660e01b8152600401610cab929190613b63565b60206040518083038186803b158015610cc357600080fd5b505afa158015610cd7573d6000803e3d6000fd5b505050506040513d601f19601f82011682018060405250810190610cfb91906132dc565b600660009054906101000a900473ffffffffffffffffffffffffffffffffffffffff1673ffffffffffffffffffffffffffffffffffffffff1663128734c58860016040518363ffffffff1660e01b8152600401610d59929190613b63565b60206040518083038186803b158015610d7157600080fd5b505afa158015610d85573d6000803e3d6000fd5b505050506040513d601f19601f82011682018060405250810190610da991906132dc565b6040518663ffffffff1660e01b8152600401610dc995949392919061390b565b600060405180830381600087803b158015610de357600080fd5b505af1158015610df7573d6000803e3d6000fd5b505050507f04cd77f453fbed4cb6d142f647b8fb9b409922e1d7c853a06b11772a038971bb33428388604051610e3094939291906138c6565b60405180910390a1505050505050505050565b6000806000600660009054906101000a900473ffffffffffffffffffffffffffffffffffffffff1673ffffffffffffffffffffffffffffffffffffffff1663fa66dcd4888888886002600560009054906101000a900473ffffffffffffffffffffffffffffffffffffffff1673ffffffffffffffffffffffffffffffffffffffff1663c679dc798c8e6040518363ffffffff1660e01b8152600401610ee9929190613b63565b604080518083038186803b158015610f0057600080fd5b505afa158015610f14573d6000803e3d6000fd5b505050506040513d601f19601f82011682018060405250810190610f389190613282565b6040518763ffffffff1660e01b8152600401610f5996959493929190613bb5565b604080518083038186803b158015610f7057600080fd5b505afa158015610f84573d6000803e3d6000fd5b505050506040513d601f19601f82011682018060405250810190610fa89190613349565b915091508082610fb89190613cc4565b92505050949350505050565b7fa49807205ce4d355092ef5a8a18f56e8913cf4a201fbe287825b095693c2177581565b60028060000154908060010154905082565b600080600084815260200190815260200160002060000160008373ffffffffffffffffffffffffffffffffffffffff1673ffffffffffffffffffffffffffffffffffffffff16815260200190815260200160002060009054906101000a900460ff16905092915050565b7fa49807205ce4d355092ef5a8a18f56e8913cf4a201fbe287825b095693c2177561109681611091611d73565b611d7b565b60405180604001604052808481526020018381525060026000820151816000015560208201518160010155905050505050565b6000801b81565b7fa49807205ce4d355092ef5a8a18f56e8913cf4a201fbe287825b095693c21775611102816110fd611d73565b611d7b565b6000829050600660009054906101000a900473ffffffffffffffffffffffffffffffffffffffff1673ffffffffffffffffffffffffffffffffffffffff166385dcee936040518163ffffffff1660e01b815260040160206040518083038186803b15801561116f57600080fd5b505afa158015611183573d6000803e3d6000fd5b505050506040513d601f19601f820116820180604052508101906111a791906131e8565b8173ffffffffffffffffffffffffffffffffffffffff166385dcee936040518163ffffffff1660e01b815260040160206040518083038186803b1580156111ed57600080fd5b505afa158015611201573d6000803e3d6000fd5b505050506040513d601f19601f8201168201806040525081019061122591906131e8565b1461122f57600080fd5b600660009054906101000a900473ffffffffffffffffffffffffffffffffffffffff1673ffffffffffffffffffffffffffffffffffffffff16634d38cad98273ffffffffffffffffffffffffffffffffffffffff1663a15612d16040518163ffffffff1660e01b815260040160206040518083038186803b1580156112b357600080fd5b505afa1580156112c7573d6000803e3d6000fd5b505050506040513d601f19601f820116820180604052508101906112eb91906132dc565b6040518263ffffffff1660e01b81526004016113079190613af6565b60206040518083038186803b15801561131f57600080fd5b505afa158015611333573d6000803e3d6000fd5b505050506040513d601f19601f82011682018060405250810190611357919061318e565b61136057600080fd5b80600860008373ffffffffffffffffffffffffffffffffffffffff1663a15612d16040518163ffffffff1660e01b815260040160206040518083038186803b1580156113ab57600080fd5b505afa1580156113bf573d6000803e3d6000fd5b505050506040513d601f19601f820116820180604052508101906113e391906132dc565b815260200190815260200160002060006101000a81548173ffffffffffffffffffffffffffffffffffffffff021916908373ffffffffffffffffffffffffffffffffffffffff160217905550505050565b7fa49807205ce4d355092ef5a8a18f56e8913cf4a201fbe287825b095693c2177561146681611461611d73565b611d7b565b600160009054906101000a900460ff16156114fc573373ffffffffffffffffffffffffffffffffffffffff166108fc600460009054906101000a900473ffffffffffffffffffffffffffffffffffffffff1673ffffffffffffffffffffffffffffffffffffffff16319081150290604051600060405180830381858888f193505050501580156114fa573d6000803e3d6000fd5b505b600160009054906101000a900460ff166116cb57600760009054906101000a900473ffffffffffffffffffffffffffffffffffffffff1673ffffffffffffffffffffffffffffffffffffffff1663a9059cbb33600760009054906101000a900473ffffffffffffffffffffffffffffffffffffffff1673ffffffffffffffffffffffffffffffffffffffff166370a08231600460009054906101000a900473ffffffffffffffffffffffffffffffffffffffff166040518263ffffffff1660e01b81526004016115cc91906137c2565b60206040518083038186803b1580156115e457600080fd5b505afa1580156115f8573d6000803e3d6000fd5b505050506040513d601f19601f8201168201806040525081019061161c91906132dc565b6040518363ffffffff1660e01b815260040161163992919061389d565b602060405180830381600087803b15801561165357600080fd5b505af1158015611667573d6000803e3d6000fd5b505050506040513d601f19601f8201168201806040525081019061168b919061318e565b6116ca576040517f08c379a00000000000000000000000000000000000000000000000000000000081526004016116c1906139f6565b60405180910390fd5b5b50565b6116d782610447565b6116e8816116e3611d73565b611d7b565b6116f28383611ef8565b505050565b600160009054906101000a900460ff1681565b600660009054906101000a900473ffffffffffffffffffffffffffffffffffffffff1673ffffffffffffffffffffffffffffffffffffffff1663a556feec82336040518363ffffffff1660e01b8152600401611767929190613b11565b60006040518083038186803b15801561177f57600080fd5b505afa158015611793573d6000803e3d6000fd5b505050506000600660009054906101000a900473ffffffffffffffffffffffffffffffffffffffff1673ffffffffffffffffffffffffffffffffffffffff166340d6eaab836040518263ffffffff1660e01b81526004016117f49190613af6565b60206040518083038186803b15801561180c57600080fd5b505afa158015611820573d6000803e3d6000fd5b505050506040513d601f19601f8201168201806040525081019061184491906132dc565b9050600660009054906101000a900473ffffffffffffffffffffffffffffffffffffffff1673ffffffffffffffffffffffffffffffffffffffff16636c1f7b93836040518263ffffffff1660e01b81526004016118a19190613af6565b600060405180830381600087803b1580156118bb57600080fd5b505af11580156118cf573d6000803e3d6000fd5b50505050600160009054906101000a900460ff1615611930573373ffffffffffffffffffffffffffffffffffffffff166108fc829081150290604051600060405180830381858888f1935050505015801561192e573d6000803e3d6000fd5b505b600160009054906101000a900460ff16611a3357600760009054906101000a900473ffffffffffffffffffffffffffffffffffffffff1673ffffffffffffffffffffffffffffffffffffffff1663a9059cbb33836040518363ffffffff1660e01b81526004016119a192919061389d565b602060405180830381600087803b1580156119bb57600080fd5b505af11580156119cf573d6000803e3d6000fd5b505050506040513d601f19601f820116820180604052508101906119f3919061318e565b611a32576040517f08c379a0000000000000000000000000000000000000000000000000000000008152600401611a2990613a96565b60405180910390fd5b5b600560009054906101000a900473ffffffffffffffffffffffffffffffffffffffff1673ffffffffffffffffffffffffffffffffffffffff1663d5093b0b3384600660009054906101000a900473ffffffffffffffffffffffffffffffffffffffff1673ffffffffffffffffffffffffffffffffffffffff166346047a66876040518263ffffffff1660e01b8152600401611ace9190613af6565b60206040518083038186803b158015611ae657600080fd5b505afa158015611afa573d6000803e3d6000fd5b505050506040513d601f19601f82011682018060405250810190611b1e91906132dc565b600660009054906101000a900473ffffffffffffffffffffffffffffffffffffffff1673ffffffffffffffffffffffffffffffffffffffff1663128734c58860006040518363ffffffff1660e01b8152600401611b7c929190613b63565b60206040518083038186803b158015611b9457600080fd5b505afa158015611ba8573d6000803e3d6000fd5b505050506040513d601f19601f82011682018060405250810190611bcc91906132dc565b600660009054906101000a900473ffffffffffffffffffffffffffffffffffffffff1673ffffffffffffffffffffffffffffffffffffffff1663128734c58960016040518363ffffffff1660e01b8152600401611c2a929190613b63565b60206040518083038186803b158015611c4257600080fd5b505afa158015611c56573d6000803e3d6000fd5b505050506040513d601f19601f82011682018060405250810190611c7a91906132dc565b6040518663ffffffff1660e01b8152600401611c9a95949392919061390b565b600060405180830381600087803b158015611cb457600080fd5b505af1158015611cc8573d6000803e3d6000fd5b505050507f0bb99e129e5fcf8767a2ede7e52d7f33f9c773cd484cc97a36467772da52c3b48242604051611cfd929190613b8c565b60405180910390a15050565b60007f01ffc9a7000000000000000000000000000000000000000000000000000000007bffffffffffffffffffffffffffffffffffffffffffffffffffffffff1916827bffffffffffffffffffffffffffffffffffffffffffffffffffffffff1916149050919050565b600033905090565b611d858282610ffa565b611e1457611daa8173ffffffffffffffffffffffffffffffffffffffff166014612dc1565b611db88360001c6020612dc1565b604051602001611dc9929190613788565b6040516020818303038152906040526040517f08c379a0000000000000000000000000000000000000000000000000000000008152600401611e0b9190613994565b60405180910390fd5b5050565b611e228282610ffa565b611ef457600160008084815260200190815260200160002060000160008373ffffffffffffffffffffffffffffffffffffffff1673ffffffffffffffffffffffffffffffffffffffff16815260200190815260200160002060006101000a81548160ff021916908315150217905550611e99611d73565b73ffffffffffffffffffffffffffffffffffffffff168173ffffffffffffffffffffffffffffffffffffffff16837f2f8788117e7eff1d82e926ec794901d17c78024a50270940304540a733656f0d60405160405180910390a45b5050565b611f028282610ffa565b15611fd557600080600084815260200190815260200160002060000160008373ffffffffffffffffffffffffffffffffffffffff1673ffffffffffffffffffffffffffffffffffffffff16815260200190815260200160002060006101000a81548160ff021916908315150217905550611f7a611d73565b73ffffffffffffffffffffffffffffffffffffffff168173ffffffffffffffffffffffffffffffffffffffff16837ff6391f5c32d9c69d2a47ea670b442974b53935d1edc7fd64eb21e047a839171b60405160405180910390a45b5050565b600660009054906101000a900473ffffffffffffffffffffffffffffffffffffffff1673ffffffffffffffffffffffffffffffffffffffff166346047a66846040518263ffffffff1660e01b81526004016120349190613af6565b60206040518083038186803b15801561204c57600080fd5b505afa158015612060573d6000803e3d6000fd5b505050506040513d601f19601f8201168201806040525081019061208491906132dc565b81116120c5576040517f08c379a00000000000000000000000000000000000000000000000000000000081526004016120bc90613a36565b60405180910390fd5b600160009054906101000a900460ff16156121ee57600560009054906101000a900473ffffffffffffffffffffffffffffffffffffffff1673ffffffffffffffffffffffffffffffffffffffff166108fc600660009054906101000a900473ffffffffffffffffffffffffffffffffffffffff1673ffffffffffffffffffffffffffffffffffffffff166346047a66866040518263ffffffff1660e01b81526004016121719190613af6565b60206040518083038186803b15801561218957600080fd5b505afa15801561219d573d6000803e3d6000fd5b505050506040513d601f19601f820116820180604052508101906121c191906132dc565b9081150290604051600060405180830381858888f193505050501580156121ec573d6000803e3d6000fd5b505b600160009054906101000a900460ff166124cf57600760009054906101000a900473ffffffffffffffffffffffffffffffffffffffff1673ffffffffffffffffffffffffffffffffffffffff166323b872dd83600460009054906101000a900473ffffffffffffffffffffffffffffffffffffffff16846040518463ffffffff1660e01b815260040161228393929190613866565b602060405180830381600087803b15801561229d57600080fd5b505af11580156122b1573d6000803e3d6000fd5b505050506040513d601f19601f820116820180604052508101906122d5919061318e565b612314576040517f08c379a000000000000000000000000000000000000000000000000000000000815260040161230b90613a16565b60405180910390fd5b600760009054906101000a900473ffffffffffffffffffffffffffffffffffffffff1673ffffffffffffffffffffffffffffffffffffffff1663a9059cbb600560009054906101000a900473ffffffffffffffffffffffffffffffffffffffff16600660009054906101000a900473ffffffffffffffffffffffffffffffffffffffff1673ffffffffffffffffffffffffffffffffffffffff166346047a66876040518263ffffffff1660e01b81526004016123d09190613af6565b60206040518083038186803b1580156123e857600080fd5b505afa1580156123fc573d6000803e3d6000fd5b505050506040513d601f19601f8201168201806040525081019061242091906132dc565b6040518363ffffffff1660e01b815260040161243d92919061389d565b602060405180830381600087803b15801561245757600080fd5b505af115801561246b573d6000803e3d6000fd5b505050506040513d601f19601f8201168201806040525081019061248f919061318e565b6124ce576040517f08c379a00000000000000000000000000000000000000000000000000000000081526004016124c590613a56565b60405180910390fd5b5b505050565b6008600084815260200190815260200160002060009054906101000a900473ffffffffffffffffffffffffffffffffffffffff1673ffffffffffffffffffffffffffffffffffffffff166323b872dd83600460009054906101000a900473ffffffffffffffffffffffffffffffffffffffff16846040518463ffffffff1660e01b815260040161256693929190613866565b602060405180830381600087803b15801561258057600080fd5b505af1158015612594573d6000803e3d6000fd5b505050506040513d601f19601f820116820180604052508101906125b8919061318e565b6125f7576040517f08c379a00000000000000000000000000000000000000000000000000000000081526004016125ee90613a16565b60405180910390fd5b600160009054906101000a900460ff1615612974576008600084815260200190815260200160002060009054906101000a900473ffffffffffffffffffffffffffffffffffffffff1673ffffffffffffffffffffffffffffffffffffffff1663095ea7b36008600086815260200190815260200160002060009054906101000a900473ffffffffffffffffffffffffffffffffffffffff1673ffffffffffffffffffffffffffffffffffffffff1663f6b4dfb46040518163ffffffff1660e01b815260040160206040518083038186803b1580156126d457600080fd5b505afa1580156126e8573d6000803e3d6000fd5b505050506040513d601f19601f8201168201806040525081019061270c9190613161565b836040518363ffffffff1660e01b815260040161272a929190613806565b602060405180830381600087803b15801561274457600080fd5b505af1158015612758573d6000803e3d6000fd5b505050506040513d601f19601f8201168201806040525081019061277c919061318e565b506008600084815260200190815260200160002060009054906101000a900473ffffffffffffffffffffffffffffffffffffffff1673ffffffffffffffffffffffffffffffffffffffff16635d36d182600460009054906101000a900473ffffffffffffffffffffffffffffffffffffffff16836040518363ffffffff1660e01b815260040161280d9291906137dd565b602060405180830381600087803b15801561282757600080fd5b505af115801561283b573d6000803e3d6000fd5b505050506040513d601f19601f8201168201806040525081019061285f91906132dc565b50600560009054906101000a900473ffffffffffffffffffffffffffffffffffffffff1673ffffffffffffffffffffffffffffffffffffffff166108fc600660009054906101000a900473ffffffffffffffffffffffffffffffffffffffff1673ffffffffffffffffffffffffffffffffffffffff166346047a66876040518263ffffffff1660e01b81526004016128f79190613af6565b60206040518083038186803b15801561290f57600080fd5b505afa158015612923573d6000803e3d6000fd5b505050506040513d601f19601f8201168201806040525081019061294791906132dc565b9081150290604051600060405180830381858888f19350505050158015612972573d6000803e3d6000fd5b505b600160009054906101000a900460ff16612dbb576008600084815260200190815260200160002060009054906101000a900473ffffffffffffffffffffffffffffffffffffffff1673ffffffffffffffffffffffffffffffffffffffff1663095ea7b36008600086815260200190815260200160002060009054906101000a900473ffffffffffffffffffffffffffffffffffffffff1673ffffffffffffffffffffffffffffffffffffffff1663f6b4dfb46040518163ffffffff1660e01b815260040160206040518083038186803b158015612a5057600080fd5b505afa158015612a64573d6000803e3d6000fd5b505050506040513d601f19601f82011682018060405250810190612a889190613161565b836040518363ffffffff1660e01b8152600401612aa6929190613806565b602060405180830381600087803b158015612ac057600080fd5b505af1158015612ad4573d6000803e3d6000fd5b505050506040513d601f19601f82011682018060405250810190612af8919061318e565b506008600084815260200190815260200160002060009054906101000a900473ffffffffffffffffffffffffffffffffffffffff1673ffffffffffffffffffffffffffffffffffffffff1663d2f714c5600460009054906101000a900473ffffffffffffffffffffffffffffffffffffffff1683600760009054906101000a900473ffffffffffffffffffffffffffffffffffffffff166040518463ffffffff1660e01b8152600401612bad9392919061382f565b602060405180830381600087803b158015612bc757600080fd5b505af1158015612bdb573d6000803e3d6000fd5b505050506040513d601f19601f82011682018060405250810190612bff91906132dc565b50600760009054906101000a900473ffffffffffffffffffffffffffffffffffffffff1673ffffffffffffffffffffffffffffffffffffffff1663a9059cbb600560009054906101000a900473ffffffffffffffffffffffffffffffffffffffff16600660009054906101000a900473ffffffffffffffffffffffffffffffffffffffff1673ffffffffffffffffffffffffffffffffffffffff166346047a66886040518263ffffffff1660e01b8152600401612cbc9190613af6565b60206040518083038186803b158015612cd457600080fd5b505afa158015612ce8573d6000803e3d6000fd5b505050506040513d601f19601f82011682018060405250810190612d0c91906132dc565b6040518363ffffffff1660e01b8152600401612d2992919061389d565b602060405180830381600087803b158015612d4357600080fd5b505af1158015612d57573d6000803e3d6000fd5b505050506040513d601f19601f82011682018060405250810190612d7b919061318e565b612dba576040517f08c379a0000000000000000000000000000000000000000000000000000000008152600401612db190613a56565b60405180910390fd5b5b50505050565b606060006002836002612dd49190613d1a565b612dde9190613cc4565b67ffffffffffffffff811115612df757612df6613fc2565b5b6040519080825280601f01601f191660200182016040528015612e295781602001600182028036833780820191505090505b5090507f300000000000000000000000000000000000000000000000000000000000000081600081518110612e6157612e60613f93565b5b60200101907effffffffffffffffffffffffffffffffffffffffffffffffffffffffffffff1916908160001a9053507f780000000000000000000000000000000000000000000000000000000000000081600181518110612ec557612ec4613f93565b5b60200101907effffffffffffffffffffffffffffffffffffffffffffffffffffffffffffff1916908160001a90535060006001846002612f059190613d1a565b612f0f9190613cc4565b90505b6001811115612faf577f3031323334353637383961626364656600000000000000000000000000000000600f861660108110612f5157612f50613f93565b5b1a60f81b828281518110612f6857612f67613f93565b5b60200101907effffffffffffffffffffffffffffffffffffffffffffffffffffffffffffff1916908160001a905350600485901c945080612fa890613ec0565b9050612f12565b5060008414612ff3576040517f08c379a0000000000000000000000000000000000000000000000000000000008152600401612fea906139b6565b60405180910390fd5b8091505092915050565b60008135905061300c8161423f565b92915050565b60008135905061302181614256565b92915050565b60008151905061303681614256565b92915050565b60008135905061304b8161426d565b92915050565b6000815190506130608161426d565b92915050565b60008135905061307581614284565b92915050565b60008151905061308a81614284565b92915050565b60008135905061309f8161429b565b92915050565b6000813590506130b4816142b2565b92915050565b6000604082840312156130d0576130cf613ff1565b5b6130da6040613c78565b905060006130ea8482850161311f565b60008301525060206130fe8482850161311f565b60208301525092915050565b600081359050613119816142c2565b92915050565b60008151905061312e816142c2565b92915050565b60006020828403121561314a57613149613ff6565b5b600061315884828501613012565b91505092915050565b60006020828403121561317757613176613ff6565b5b600061318584828501613027565b91505092915050565b6000602082840312156131a4576131a3613ff6565b5b60006131b284828501613051565b91505092915050565b6000602082840312156131d1576131d0613ff6565b5b60006131df84828501613066565b91505092915050565b6000602082840312156131fe576131fd613ff6565b5b600061320c8482850161307b565b91505092915050565b6000806040838503121561322c5761322b613ff6565b5b600061323a85828601613066565b925050602061324b85828601612ffd565b9150509250929050565b60006020828403121561326b5761326a613ff6565b5b600061327984828501613090565b91505092915050565b60006040828403121561329857613297613ff6565b5b60006132a6848285016130ba565b91505092915050565b6000602082840312156132c5576132c4613ff6565b5b60006132d38482850161310a565b91505092915050565b6000602082840312156132f2576132f1613ff6565b5b60006133008482850161311f565b91505092915050565b600080604083850312156133205761331f613ff6565b5b600061332e8582860161310a565b925050602061333f8582860161310a565b9150509250929050565b600080604083850312156133605761335f613ff6565b5b600061336e8582860161311f565b925050602061337f8582860161311f565b9150509250929050565b600080600080608085870312156133a3576133a2613ff6565b5b60006133b18782880161310a565b94505060206133c28782880161310a565b93505060406133d3878288016130a5565b92505060606133e48782880161310a565b91505092959194509250565b60008060008060008060c0878903121561340d5761340c613ff6565b5b600061341b89828a0161310a565b965050602061342c89828a0161310a565b955050604061343d89828a016130a5565b945050606061344e89828a0161310a565b935050608061345f89828a0161310a565b92505060a061347089828a0161303c565b9150509295509295509295565b61348681613e21565b82525050565b61349581613d90565b82525050565b6134a481613d7e565b82525050565b6134b381613da2565b82525050565b6134c281613dae565b82525050565b6134d181613e33565b82525050565b6134e081613e57565b82525050565b60006134f182613c9d565b6134fb8185613ca8565b935061350b818560208601613e8d565b61351481613ffb565b840191505092915050565b600061352a82613c9d565b6135348185613cb9565b9350613544818560208601613e8d565b80840191505092915050565b600061355d602083613ca8565b915061356882614019565b602082019050919050565b6000613580601883613ca8565b915061358b82614042565b602082019050919050565b60006135a3601283613ca8565b91506135ae8261406b565b602082019050919050565b60006135c6600f83613ca8565b91506135d182614094565b602082019050919050565b60006135e9601483613ca8565b91506135f4826140bd565b602082019050919050565b600061360c601783613ca8565b9150613617826140e6565b602082019050919050565b600061362f601a83613ca8565b915061363a8261410f565b602082019050919050565b6000613652601083613ca8565b915061365d82614138565b602082019050919050565b6000613675601983613ca8565b915061368082614161565b602082019050919050565b6000613698601783613cb9565b91506136a38261418a565b601782019050919050565b60006136bb601183613cb9565b91506136c6826141b3565b601182019050919050565b60006136de602f83613ca8565b91506136e9826141dc565b604082019050919050565b60408201600082015161370a600085018261376a565b50602082015161371d602085018261376a565b50505050565b60408201600080830154905061373881613eea565b613745600086018261376a565b506001830154905061375681613eea565b613763602086018261376a565b5050505050565b61377381613e17565b82525050565b61378281613e17565b82525050565b60006137938261368b565b915061379f828561351f565b91506137aa826136ae565b91506137b6828461351f565b91508190509392505050565b60006020820190506137d7600083018461347d565b92915050565b60006040820190506137f2600083018561348c565b6137ff6020830184613779565b9392505050565b600060408201905061381b600083018561347d565b6138286020830184613779565b9392505050565b6000606082019050613844600083018661348c565b6138516020830185613779565b61385e60408301846134c8565b949350505050565b600060608201905061387b600083018661349b565b613888602083018561347d565b6138956040830184613779565b949350505050565b60006040820190506138b2600083018561349b565b6138bf6020830184613779565b9392505050565b60006080820190506138db600083018761349b565b6138e86020830186613779565b6138f56040830185613779565b6139026060830184613779565b95945050505050565b600060a082019050613920600083018861349b565b61392d6020830187613779565b61393a6040830186613779565b6139476060830185613779565b6139546080830184613779565b9695505050505050565b600060208201905061397360008301846134aa565b92915050565b600060208201905061398e60008301846134b9565b92915050565b600060208201905081810360008301526139ae81846134e6565b905092915050565b600060208201905081810360008301526139cf81613550565b9050919050565b600060208201905081810360008301526139ef81613573565b9050919050565b60006020820190508181036000830152613a0f81613596565b9050919050565b60006020820190508181036000830152613a2f816135b9565b9050919050565b60006020820190508181036000830152613a4f816135dc565b9050919050565b60006020820190508181036000830152613a6f816135ff565b9050919050565b60006020820190508181036000830152613a8f81613622565b9050919050565b60006020820190508181036000830152613aaf81613645565b9050919050565b60006020820190508181036000830152613acf81613668565b9050919050565b60006020820190508181036000830152613aef816136d1565b9050919050565b6000602082019050613b0b6000830184613779565b92915050565b6000604082019050613b266000830185613779565b613b33602083018461349b565b9392505050565b6000604082019050613b4f6000830185613779565b613b5c60208301846134aa565b9392505050565b6000604082019050613b786000830185613779565b613b8560208301846134d7565b9392505050565b6000604082019050613ba16000830185613779565b613bae6020830184613779565b9392505050565b600061010082019050613bcb6000830189613779565b613bd86020830188613779565b613be560408301876134d7565b613bf26060830186613779565b613bff6080830185613723565b613c0c60c08301846136f4565b979650505050505050565b600060c082019050613c2c6000830189613779565b613c396020830188613779565b613c4660408301876134d7565b613c536060830186613779565b613c606080830185613779565b613c6d60a0830184613779565b979650505050505050565b6000613c82613c93565b9050613c8e8282613f04565b919050565b6000604051905090565b600081519050919050565b600082825260208201905092915050565b600081905092915050565b6000613ccf82613e17565b9150613cda83613e17565b9250827fffffffffffffffffffffffffffffffffffffffffffffffffffffffffffffffff03821115613d0f57613d0e613f35565b5b828201905092915050565b6000613d2582613e17565b9150613d3083613e17565b9250817fffffffffffffffffffffffffffffffffffffffffffffffffffffffffffffffff0483118215151615613d6957613d68613f35565b5b828202905092915050565b6000819050919050565b6000613d8982613df7565b9050919050565b6000613d9b82613df7565b9050919050565b60008115159050919050565b6000819050919050565b60007fffffffff0000000000000000000000000000000000000000000000000000000082169050919050565b6000819050613df28261422b565b919050565b600073ffffffffffffffffffffffffffffffffffffffff82169050919050565b6000819050919050565b6000613e2c82613e69565b9050919050565b6000613e3e82613e45565b9050919050565b6000613e5082613df7565b9050919050565b6000613e6282613de4565b9050919050565b6000613e7482613e7b565b9050919050565b6000613e8682613df7565b9050919050565b60005b83811015613eab578082015181840152602081019050613e90565b83811115613eba576000848401525b50505050565b6000613ecb82613e17565b91506000821415613edf57613ede613f35565b5b600182039050919050565b6000613efd613ef88361400c565b613d74565b9050919050565b613f0d82613ffb565b810181811067ffffffffffffffff82111715613f2c57613f2b613fc2565b5b80604052505050565b7f4e487b7100000000000000000000000000000000000000000000000000000000600052601160045260246000fd5b7f4e487b7100000000000000000000000000000000000000000000000000000000600052602160045260246000fd5b7f4e487b7100000000000000000000000000000000000000000000000000000000600052603260045260246000fd5b7f4e487b7100000000000000000000000000000000000000000000000000000000600052604160045260246000fd5b600080fd5b600080fd5b6000601f19601f8301169050919050565b60008160001c9050919050565b7f537472696e67733a20686578206c656e67746820696e73756666696369656e74600082015250565b7f556e737570706f72746564206f7074696f6e20747970652e0000000000000000600082015250565b7f5769746864726177616c206661696c65642e0000000000000000000000000000600082015250565b7f4661696c6564207061796d656e742e0000000000000000000000000000000000600082015250565b7f4e6f7420656e6f75676820666f7220666565732e000000000000000000000000600082015250565b7f4661696c6564207072656d69756d207061796d656e742e000000000000000000600082015250565b7f456e7465726564207072656d69756d20696e636f72726563742e000000000000600082015250565b7f5472616e73666572206661696c65642e00000000000000000000000000000000600082015250565b7f556e737570706f72746564206f7074696f6e2074656e6f722e00000000000000600082015250565b7f416363657373436f6e74726f6c3a206163636f756e7420000000000000000000600082015250565b7f206973206d697373696e6720726f6c6520000000000000000000000000000000600082015250565b7f416363657373436f6e74726f6c3a2063616e206f6e6c792072656e6f756e636560008201527f20726f6c657320666f722073656c660000000000000000000000000000000000602082015250565b6002811061423c5761423b613f64565b5b50565b61424881613d7e565b811461425357600080fd5b50565b61425f81613d90565b811461426a57600080fd5b50565b61427681613da2565b811461428157600080fd5b50565b61428d81613dae565b811461429857600080fd5b50565b6142a481613db8565b81146142af57600080fd5b50565b600281106142bf57600080fd5b50565b6142cb81613e17565b81146142d657600080fd5b5056fea26469706673582212206d3d2eb8668e10ea3c387cf79f39103044fce4a9b2e23f6d53c01d81c361aa4664736f6c63430008060033",
  "immutableReferences": {},
  "source": "/**\n * SPDX-License-Identifier: GPL-3.0-or-later\n * Moret\n * Copyright (C) 2021 Moret\n*/\n\npragma solidity ^0.8.4;\n\nimport \"@openzeppelin/contracts/token/ERC20/ERC20.sol\";\nimport \"@openzeppelin/contracts/access/AccessControl.sol\";\nimport \"./MoretInterfaces.sol\";\nimport \"./OptionVault.sol\";\nimport \"./VolatilityToken.sol\";\nimport \"./MoretMarketMaker.sol\";\n\ncontract MoretExchange is AccessControl, IOption\n{\nbytes32 public constant ADMIN_ROLE = keccak256(\"ADMIN_ROLE\");\n    bool public isUnderlyingNative;\n    OptionLibrary.Percent public settlementFee = OptionLibrary.Percent(5 * 10 ** 3, 10 ** 6);\n      address payable contractAddr;\n\n    MoretMarketMaker internal marketMaker;\n    OptionVault internal optionVault;\n      ERC20 internal underlyingToken;\n    mapping(uint256=>VolatilityToken) volTokensList;\n\n    constructor(\n      address payable _marketMakerAddress,\n      address _optionAddress,\n      address payable _volTokenAddress\n      )\n    {\n        _setupRole(ADMIN_ROLE, msg.sender);\n\n      optionVault = OptionVault(_optionAddress);\n      marketMaker = MoretMarketMaker(_marketMakerAddress);\n      VolatilityToken _volToken = VolatilityToken(_volTokenAddress);\n      volTokensList[_volToken.tenor()] = _volToken;\n      contractAddr = payable(address(this));\n      isUnderlyingNative = marketMaker.isUnderlyingNative();\n      underlyingToken = ERC20(marketMaker.underlyingAddress());\n    }\n\n    function queryOptionCost(uint256 _tenor, uint256 _strike, OptionLibrary.PayoffType _poType, uint256 _amount) external view returns(uint256)\n    {\n        (uint256 _premium, uint256 _fee) = optionVault.queryOptionCost(_tenor, _strike, _poType, _amount,\n          settlementFee, marketMaker.calcUtilityAddon(_amount, _poType) );\n        return _premium + _fee;\n    }\n\n    function purchaseOption(uint256 _tenor, uint256 _strike, OptionLibrary.PayoffType _poType, uint256 _amount, uint256 _payInCost, bool _inVolToken) external payable{\n      require(optionVault.containsTenor(_tenor), \"Unsupported option tenor.\");\n      require((_poType == OptionLibrary.PayoffType.Call) || (_poType==OptionLibrary.PayoffType.Put), \"Unsupported option type.\");\n\n      (uint256 _premium, uint256 _fee) = optionVault.queryOptionCost(_tenor, _strike, _poType, _amount, settlementFee, marketMaker.calcUtilityAddon(_amount, _poType) );\n\n      uint256 _id = optionVault.addOption(_tenor, _strike, _poType, _amount, _premium, _fee );\n      require(_payInCost >= optionVault.queryDraftOptionCost(_id, _inVolToken), \"Entered premium incorrect.\");\n      if(!_inVolToken && isUnderlyingNative)\n      {\n        require(msg.value >= optionVault.queryDraftOptionCost(_id, _inVolToken), \"Entered premium incorrect.\");\n      }\n\n      if(!_inVolToken)\n      {\n        purchaseOptionInNative(_id, msg.sender, _payInCost);\n      }\n      if(_inVolToken)\n      {\n        purchaseOptionInVolToken(_id, _tenor, msg.sender, _payInCost);\n      }\n\n        optionVault.stampActiveOption(_id);\n\n        marketMaker.recordOptionPurhcase(msg.sender, _id, optionVault.queryOptionPremium(_id),\n          optionVault.queryOptionExposure(_id, OptionLibrary.PayoffType.Call),\n          optionVault.queryOptionExposure(_id, OptionLibrary.PayoffType.Put));\n\n\n        emit newOptionBought(msg.sender, block.timestamp, _id, _payInCost);\n    }\n\n    function purchaseOptionInNative(uint256 _id, address _purchaser, uint256 _payInCost) internal{\n      require(_payInCost > optionVault.queryOptionPremium(_id), \"Not enough for fees.\");\n\n      if(isUnderlyingNative)\n      {\n         payable(address(marketMaker)).transfer(optionVault.queryOptionPremium(_id));\n      }\n      if (!isUnderlyingNative)\n      {\n         require(underlyingToken.transferFrom(_purchaser, contractAddr, _payInCost), 'Failed payment.');\n         require(underlyingToken.transfer(address(marketMaker), optionVault.queryOptionPremium(_id)), 'Failed premium payment.');\n      }\n    }\n\n    function purchaseOptionInVolToken(uint256 _id , uint256 _tenor, address _purchaser, uint256 _payInCost) internal{\n      require(volTokensList[_tenor].transferFrom(_purchaser, contractAddr, _payInCost), 'Failed payment.');\n\n      if(isUnderlyingNative)\n      {\n          volTokensList[_tenor].approve(volTokensList[_tenor].contractAddress(), _payInCost);\n          volTokensList[_tenor].recycle(contractAddr, _payInCost);\n          payable(address(marketMaker)).transfer(optionVault.queryOptionPremium(_id));\n      }\n      if (!isUnderlyingNative)\n      {\n          volTokensList[_tenor].approve(volTokensList[_tenor].contractAddress(), _payInCost);\n          volTokensList[_tenor].recycleInToken(contractAddr, _payInCost, underlyingToken);\n          require(underlyingToken.transfer(address(marketMaker), optionVault.queryOptionPremium(_id)), 'Failed premium payment.');\n      }\n    }\n\n\n    function exerciseOption(uint256 _id) external  {\n        optionVault.validateOption(_id, msg.sender);\n\n        uint256 _payoffValue = optionVault.getOptionPayoffValue(_id);\n\n        optionVault.stampExercisedOption(_id);\n\n\n        if(isUnderlyingNative){\n          payable(msg.sender).transfer(_payoffValue);\n        }\n        if(!isUnderlyingNative)\n        {\n          require(underlyingToken.transfer(msg.sender, _payoffValue), \"Transfer failed.\");\n        }\n\n        marketMaker.recordOptionRemoval(msg.sender, _id, optionVault.queryOptionPremium(_id),\n          optionVault.queryOptionExposure(_id, OptionLibrary.PayoffType.Call),\n          optionVault.queryOptionExposure(_id, OptionLibrary.PayoffType.Put));\n\n        emit optionExercised(_id, block.timestamp);\n    }\n\n    function expireOption(uint256 _id) internal {\n        if(optionVault.isOptionExpiring(_id))\n        {\n            uint256 _payoffValue = optionVault.getOptionPayoffValue(_id);\n            optionVault.stampExercisedOption(_id);\n\n            address payable _optionHolder = optionVault.getOptionHolder(_id);\n\n            if(isUnderlyingNative){\n              payable(_optionHolder).transfer(_payoffValue);\n            }\n            if(!isUnderlyingNative)\n            {\n              require(underlyingToken.transfer(_optionHolder, _payoffValue), \"Transfer failed.\");\n            }\n\n            marketMaker.recordOptionRemoval(msg.sender, _id, optionVault.queryOptionPremium(_id),\n              optionVault.queryOptionExposure(_id, OptionLibrary.PayoffType.Call),\n              optionVault.queryOptionExposure(_id, OptionLibrary.PayoffType.Put));\n        }\n    }\n\n\n      function addVolToken(address payable _tokenAddress) external onlyRole(ADMIN_ROLE)\n      {\n          VolatilityToken _volToken = VolatilityToken(_tokenAddress);\n          require(_volToken.descriptionHash() == optionVault.descriptionHash());\n          require(optionVault.containsTenor(_volToken.tenor()));\n\n          volTokensList[_volToken.tenor()] = _volToken;\n\n      }\n\n      function sweepBalance() external onlyRole(ADMIN_ROLE){\n\n        if(isUnderlyingNative)\n        {\n            payable(msg.sender).transfer(contractAddr.balance);\n          }\n\n          if(!isUnderlyingNative)\n          {\n            require(underlyingToken.transfer(msg.sender, underlyingToken.balanceOf(contractAddr)), \"Withdrawal failed.\");\n          }\n\n      }\n\n      function resetSettlementFees(uint256 _fee, uint256 _denominator) external onlyRole(ADMIN_ROLE){\n          settlementFee = OptionLibrary.Percent(_fee, _denominator);\n      }\n\n          receive() external payable{}\n\n}\n",
  "sourcePath": "/Users/mac/Documents/GitHub/moret/contracts/MoretExchange.sol",
  "compiler": {
    "name": "solc",
    "version": "0.8.6+commit.11564f7e.Emscripten.clang"
  },
  "schemaVersion": "3.4.1",
  "updatedAt": "2021-06-26T21:51:50.373Z",
  "devdoc": {
    "kind": "dev",
    "methods": {
      "getRoleAdmin(bytes32)": {
        "details": "Returns the admin role that controls `role`. See {grantRole} and {revokeRole}. To change a role's admin, use {_setRoleAdmin}."
      },
      "grantRole(bytes32,address)": {
        "details": "Grants `role` to `account`. If `account` had not been already granted `role`, emits a {RoleGranted} event. Requirements: - the caller must have ``role``'s admin role."
      },
      "hasRole(bytes32,address)": {
        "details": "Returns `true` if `account` has been granted `role`."
      },
      "renounceRole(bytes32,address)": {
        "details": "Revokes `role` from the calling account. Roles are often managed via {grantRole} and {revokeRole}: this function's purpose is to provide a mechanism for accounts to lose their privileges if they are compromised (such as when a trusted device is misplaced). If the calling account had been granted `role`, emits a {RoleRevoked} event. Requirements: - the caller must be `account`."
      },
      "revokeRole(bytes32,address)": {
        "details": "Revokes `role` from `account`. If `account` had been granted `role`, emits a {RoleRevoked} event. Requirements: - the caller must have ``role``'s admin role."
      },
      "supportsInterface(bytes4)": {
        "details": "See {IERC165-supportsInterface}."
      }
    },
    "version": 1
  },
  "userdoc": {
    "kind": "user",
    "methods": {},
    "version": 1
  }
}