{
  "contractName": "MoretMarketMaker",
  "abi": [
    {
      "inputs": [
        {
          "internalType": "string",
          "name": "_name",
          "type": "string"
        },
        {
          "internalType": "string",
          "name": "_symbol",
          "type": "string"
        },
        {
          "internalType": "address",
          "name": "_underlyingAddress",
          "type": "address"
        },
        {
          "internalType": "address",
          "name": "_fundingAddress",
          "type": "address"
        },
        {
          "internalType": "address",
          "name": "_optionAddress",
          "type": "address"
        },
        {
          "internalType": "address",
          "name": "_aaveAddressProviderAddress",
          "type": "address"
        }
      ],
      "stateMutability": "nonpayable",
      "type": "constructor"
    },
    {
      "anonymous": false,
      "inputs": [
        {
          "indexed": true,
          "internalType": "address",
          "name": "owner",
          "type": "address"
        },
        {
          "indexed": true,
          "internalType": "address",
          "name": "spender",
          "type": "address"
        },
        {
          "indexed": false,
          "internalType": "uint256",
          "name": "value",
          "type": "uint256"
        }
      ],
      "name": "Approval",
      "type": "event"
    },
    {
      "anonymous": false,
      "inputs": [
        {
          "indexed": true,
          "internalType": "bytes32",
          "name": "role",
          "type": "bytes32"
        },
        {
          "indexed": true,
          "internalType": "bytes32",
          "name": "previousAdminRole",
          "type": "bytes32"
        },
        {
          "indexed": true,
          "internalType": "bytes32",
          "name": "newAdminRole",
          "type": "bytes32"
        }
      ],
      "name": "RoleAdminChanged",
      "type": "event"
    },
    {
      "anonymous": false,
      "inputs": [
        {
          "indexed": true,
          "internalType": "bytes32",
          "name": "role",
          "type": "bytes32"
        },
        {
          "indexed": true,
          "internalType": "address",
          "name": "account",
          "type": "address"
        },
        {
          "indexed": true,
          "internalType": "address",
          "name": "sender",
          "type": "address"
        }
      ],
      "name": "RoleGranted",
      "type": "event"
    },
    {
      "anonymous": false,
      "inputs": [
        {
          "indexed": true,
          "internalType": "bytes32",
          "name": "role",
          "type": "bytes32"
        },
        {
          "indexed": true,
          "internalType": "address",
          "name": "account",
          "type": "address"
        },
        {
          "indexed": true,
          "internalType": "address",
          "name": "sender",
          "type": "address"
        }
      ],
      "name": "RoleRevoked",
      "type": "event"
    },
    {
      "anonymous": false,
      "inputs": [
        {
          "indexed": true,
          "internalType": "address",
          "name": "from",
          "type": "address"
        },
        {
          "indexed": true,
          "internalType": "address",
          "name": "to",
          "type": "address"
        },
        {
          "indexed": false,
          "internalType": "uint256",
          "name": "value",
          "type": "uint256"
        }
      ],
      "name": "Transfer",
      "type": "event"
    },
    {
      "anonymous": false,
      "inputs": [
        {
          "indexed": false,
          "internalType": "address",
          "name": "_recipient",
          "type": "address"
        },
        {
          "indexed": false,
          "internalType": "uint256",
          "name": "_mintMPTokenAmount",
          "type": "uint256"
        },
        {
          "indexed": false,
          "internalType": "uint256",
          "name": "_addedValue",
          "type": "uint256"
        }
      ],
      "name": "capitalAdded",
      "type": "event"
    },
    {
      "anonymous": false,
      "inputs": [
        {
          "indexed": false,
          "internalType": "address",
          "name": "_recipient",
          "type": "address"
        },
        {
          "indexed": false,
          "internalType": "uint256",
          "name": "_burnMPTokenAmount",
          "type": "uint256"
        },
        {
          "indexed": false,
          "internalType": "uint256",
          "name": "_withdrawValue",
          "type": "uint256"
        }
      ],
      "name": "capitalWithdrawn",
      "type": "event"
    },
    {
      "anonymous": false,
      "inputs": [
        {
          "indexed": true,
          "internalType": "address",
          "name": "_purchaser",
          "type": "address"
        },
        {
          "components": [
            {
              "internalType": "enum OptionLibrary.PayoffType",
              "name": "poType",
              "type": "uint8"
            },
            {
              "internalType": "enum OptionLibrary.OptionSide",
              "name": "side",
              "type": "uint8"
            },
            {
              "internalType": "enum OptionLibrary.OptionStatus",
              "name": "status",
              "type": "uint8"
            },
            {
              "internalType": "address",
              "name": "holder",
              "type": "address"
            },
            {
              "internalType": "uint256",
              "name": "id",
              "type": "uint256"
            },
            {
              "internalType": "uint256",
              "name": "createTime",
              "type": "uint256"
            },
            {
              "internalType": "uint256",
              "name": "effectiveTime",
              "type": "uint256"
            },
            {
              "internalType": "uint256",
              "name": "tenor",
              "type": "uint256"
            },
            {
              "internalType": "uint256",
              "name": "maturity",
              "type": "uint256"
            },
            {
              "internalType": "uint256",
              "name": "exerciseTime",
              "type": "uint256"
            },
            {
              "internalType": "uint256",
              "name": "amount",
              "type": "uint256"
            },
            {
              "internalType": "uint256",
              "name": "spot",
              "type": "uint256"
            },
            {
              "internalType": "uint256",
              "name": "strike",
              "type": "uint256"
            },
            {
              "internalType": "uint256",
              "name": "volatility",
              "type": "uint256"
            },
            {
              "internalType": "uint256",
              "name": "premium",
              "type": "uint256"
            },
            {
              "internalType": "uint256",
              "name": "cost",
              "type": "uint256"
            }
          ],
          "indexed": false,
          "internalType": "struct OptionLibrary.Option",
          "name": "_option",
          "type": "tuple"
        },
        {
          "indexed": false,
          "internalType": "uint256",
          "name": "_cost",
          "type": "uint256"
        },
        {
          "indexed": false,
          "internalType": "bool",
          "name": "_inVol",
          "type": "bool"
        }
      ],
      "name": "newOptionBought",
      "type": "event"
    },
    {
      "anonymous": false,
      "inputs": [
        {
          "indexed": false,
          "internalType": "address",
          "name": "_purchaser",
          "type": "address"
        },
        {
          "indexed": false,
          "internalType": "uint256",
          "name": "_time",
          "type": "uint256"
        },
        {
          "indexed": false,
          "internalType": "uint256",
          "name": "_tenor",
          "type": "uint256"
        },
        {
          "indexed": false,
          "internalType": "uint256",
          "name": "_amount",
          "type": "uint256"
        }
      ],
      "name": "newVolatilityTokenBought",
      "type": "event"
    },
    {
      "anonymous": false,
      "inputs": [
        {
          "indexed": true,
          "internalType": "address",
          "name": "_purchaser",
          "type": "address"
        },
        {
          "components": [
            {
              "internalType": "enum OptionLibrary.PayoffType",
              "name": "poType",
              "type": "uint8"
            },
            {
              "internalType": "enum OptionLibrary.OptionSide",
              "name": "side",
              "type": "uint8"
            },
            {
              "internalType": "enum OptionLibrary.OptionStatus",
              "name": "status",
              "type": "uint8"
            },
            {
              "internalType": "address",
              "name": "holder",
              "type": "address"
            },
            {
              "internalType": "uint256",
              "name": "id",
              "type": "uint256"
            },
            {
              "internalType": "uint256",
              "name": "createTime",
              "type": "uint256"
            },
            {
              "internalType": "uint256",
              "name": "effectiveTime",
              "type": "uint256"
            },
            {
              "internalType": "uint256",
              "name": "tenor",
              "type": "uint256"
            },
            {
              "internalType": "uint256",
              "name": "maturity",
              "type": "uint256"
            },
            {
              "internalType": "uint256",
              "name": "exerciseTime",
              "type": "uint256"
            },
            {
              "internalType": "uint256",
              "name": "amount",
              "type": "uint256"
            },
            {
              "internalType": "uint256",
              "name": "spot",
              "type": "uint256"
            },
            {
              "internalType": "uint256",
              "name": "strike",
              "type": "uint256"
            },
            {
              "internalType": "uint256",
              "name": "volatility",
              "type": "uint256"
            },
            {
              "internalType": "uint256",
              "name": "premium",
              "type": "uint256"
            },
            {
              "internalType": "uint256",
              "name": "cost",
              "type": "uint256"
            }
          ],
          "indexed": false,
          "internalType": "struct OptionLibrary.Option",
          "name": "_option",
          "type": "tuple"
        },
        {
          "indexed": false,
          "internalType": "uint256",
          "name": "_payoff",
          "type": "uint256"
        }
      ],
      "name": "optionExercised",
      "type": "event"
    },
    {
      "inputs": [],
      "name": "ADMIN_ROLE",
      "outputs": [
        {
          "internalType": "bytes32",
          "name": "",
          "type": "bytes32"
        }
      ],
      "stateMutability": "view",
      "type": "function"
    },
    {
      "inputs": [],
      "name": "DEFAULT_ADMIN_ROLE",
      "outputs": [
        {
          "internalType": "bytes32",
          "name": "",
          "type": "bytes32"
        }
      ],
      "stateMutability": "view",
      "type": "function"
    },
    {
      "inputs": [],
      "name": "EXCHANGE_ROLE",
      "outputs": [
        {
          "internalType": "bytes32",
          "name": "",
          "type": "bytes32"
        }
      ],
      "stateMutability": "view",
      "type": "function"
    },
    {
      "inputs": [],
      "name": "MINER_ROLE",
      "outputs": [
        {
          "internalType": "bytes32",
          "name": "",
          "type": "bytes32"
        }
      ],
      "stateMutability": "view",
      "type": "function"
    },
    {
      "inputs": [],
      "name": "aaveAddressProviderAddress",
      "outputs": [
        {
          "internalType": "address",
          "name": "",
          "type": "address"
        }
      ],
      "stateMutability": "view",
      "type": "function"
    },
    {
      "inputs": [
        {
          "internalType": "address",
          "name": "owner",
          "type": "address"
        },
        {
          "internalType": "address",
          "name": "spender",
          "type": "address"
        }
      ],
      "name": "allowance",
      "outputs": [
        {
          "internalType": "uint256",
          "name": "",
          "type": "uint256"
        }
      ],
      "stateMutability": "view",
      "type": "function"
    },
    {
      "inputs": [
        {
          "internalType": "address",
          "name": "spender",
          "type": "address"
        },
        {
          "internalType": "uint256",
          "name": "amount",
          "type": "uint256"
        }
      ],
      "name": "approve",
      "outputs": [
        {
          "internalType": "bool",
          "name": "",
          "type": "bool"
        }
      ],
      "stateMutability": "nonpayable",
      "type": "function"
    },
    {
      "inputs": [
        {
          "internalType": "address",
          "name": "account",
          "type": "address"
        }
      ],
      "name": "balanceOf",
      "outputs": [
        {
          "internalType": "uint256",
          "name": "",
          "type": "uint256"
        }
      ],
      "stateMutability": "view",
      "type": "function"
    },
    {
      "inputs": [],
      "name": "decimals",
      "outputs": [
        {
          "internalType": "uint8",
          "name": "",
          "type": "uint8"
        }
      ],
      "stateMutability": "view",
      "type": "function"
    },
    {
      "inputs": [
        {
          "internalType": "address",
          "name": "spender",
          "type": "address"
        },
        {
          "internalType": "uint256",
          "name": "subtractedValue",
          "type": "uint256"
        }
      ],
      "name": "decreaseAllowance",
      "outputs": [
        {
          "internalType": "bool",
          "name": "",
          "type": "bool"
        }
      ],
      "stateMutability": "nonpayable",
      "type": "function"
    },
    {
      "inputs": [],
      "name": "exerciseFee",
      "outputs": [
        {
          "internalType": "uint256",
          "name": "",
          "type": "uint256"
        }
      ],
      "stateMutability": "view",
      "type": "function"
    },
    {
      "inputs": [],
      "name": "fundingAddress",
      "outputs": [
        {
          "internalType": "address",
          "name": "",
          "type": "address"
        }
      ],
      "stateMutability": "view",
      "type": "function"
    },
    {
      "inputs": [
        {
          "internalType": "bytes32",
          "name": "role",
          "type": "bytes32"
        }
      ],
      "name": "getRoleAdmin",
      "outputs": [
        {
          "internalType": "bytes32",
          "name": "",
          "type": "bytes32"
        }
      ],
      "stateMutability": "view",
      "type": "function"
    },
    {
      "inputs": [
        {
          "internalType": "bytes32",
          "name": "role",
          "type": "bytes32"
        },
        {
          "internalType": "address",
          "name": "account",
          "type": "address"
        }
      ],
      "name": "grantRole",
      "outputs": [],
      "stateMutability": "nonpayable",
      "type": "function"
    },
    {
      "inputs": [
        {
          "internalType": "bytes32",
          "name": "role",
          "type": "bytes32"
        },
        {
          "internalType": "address",
          "name": "account",
          "type": "address"
        }
      ],
      "name": "hasRole",
      "outputs": [
        {
          "internalType": "bool",
          "name": "",
          "type": "bool"
        }
      ],
      "stateMutability": "view",
      "type": "function"
    },
    {
      "inputs": [
        {
          "internalType": "address",
          "name": "spender",
          "type": "address"
        },
        {
          "internalType": "uint256",
          "name": "addedValue",
          "type": "uint256"
        }
      ],
      "name": "increaseAllowance",
      "outputs": [
        {
          "internalType": "bool",
          "name": "",
          "type": "bool"
        }
      ],
      "stateMutability": "nonpayable",
      "type": "function"
    },
    {
      "inputs": [],
      "name": "lendingPoolRateMode",
      "outputs": [
        {
          "internalType": "uint256",
          "name": "",
          "type": "uint256"
        }
      ],
      "stateMutability": "view",
      "type": "function"
    },
    {
      "inputs": [],
      "name": "name",
      "outputs": [
        {
          "internalType": "string",
          "name": "",
          "type": "string"
        }
      ],
      "stateMutability": "view",
      "type": "function"
    },
    {
      "inputs": [
        {
          "internalType": "bytes32",
          "name": "role",
          "type": "bytes32"
        },
        {
          "internalType": "address",
          "name": "account",
          "type": "address"
        }
      ],
      "name": "renounceRole",
      "outputs": [],
      "stateMutability": "nonpayable",
      "type": "function"
    },
    {
      "inputs": [
        {
          "internalType": "bytes32",
          "name": "role",
          "type": "bytes32"
        },
        {
          "internalType": "address",
          "name": "account",
          "type": "address"
        }
      ],
      "name": "revokeRole",
      "outputs": [],
      "stateMutability": "nonpayable",
      "type": "function"
    },
    {
      "inputs": [],
      "name": "settlementFee",
      "outputs": [
        {
          "internalType": "uint256",
          "name": "",
          "type": "uint256"
        }
      ],
      "stateMutability": "view",
      "type": "function"
    },
    {
      "inputs": [
        {
          "internalType": "bytes4",
          "name": "interfaceId",
          "type": "bytes4"
        }
      ],
      "name": "supportsInterface",
      "outputs": [
        {
          "internalType": "bool",
          "name": "",
          "type": "bool"
        }
      ],
      "stateMutability": "view",
      "type": "function"
    },
    {
      "inputs": [],
      "name": "swapSlippage",
      "outputs": [
        {
          "internalType": "uint256",
          "name": "",
          "type": "uint256"
        }
      ],
      "stateMutability": "view",
      "type": "function"
    },
    {
      "inputs": [],
      "name": "symbol",
      "outputs": [
        {
          "internalType": "string",
          "name": "",
          "type": "string"
        }
      ],
      "stateMutability": "view",
      "type": "function"
    },
    {
      "inputs": [],
      "name": "totalSupply",
      "outputs": [
        {
          "internalType": "uint256",
          "name": "",
          "type": "uint256"
        }
      ],
      "stateMutability": "view",
      "type": "function"
    },
    {
      "inputs": [
        {
          "internalType": "address",
          "name": "recipient",
          "type": "address"
        },
        {
          "internalType": "uint256",
          "name": "amount",
          "type": "uint256"
        }
      ],
      "name": "transfer",
      "outputs": [
        {
          "internalType": "bool",
          "name": "",
          "type": "bool"
        }
      ],
      "stateMutability": "nonpayable",
      "type": "function"
    },
    {
      "inputs": [
        {
          "internalType": "address",
          "name": "sender",
          "type": "address"
        },
        {
          "internalType": "address",
          "name": "recipient",
          "type": "address"
        },
        {
          "internalType": "uint256",
          "name": "amount",
          "type": "uint256"
        }
      ],
      "name": "transferFrom",
      "outputs": [
        {
          "internalType": "bool",
          "name": "",
          "type": "bool"
        }
      ],
      "stateMutability": "nonpayable",
      "type": "function"
    },
    {
      "inputs": [],
      "name": "underlyingAddress",
      "outputs": [
        {
          "internalType": "address",
          "name": "",
          "type": "address"
        }
      ],
      "stateMutability": "view",
      "type": "function"
    },
    {
      "inputs": [
        {
          "internalType": "address",
          "name": "_purchaser",
          "type": "address"
        },
        {
          "internalType": "uint256",
          "name": "_id",
          "type": "uint256"
        }
      ],
      "name": "recordOptionPurchase",
      "outputs": [],
      "stateMutability": "nonpayable",
      "type": "function"
    },
    {
      "inputs": [
        {
          "internalType": "bool",
          "name": "_ignoreSells",
          "type": "bool"
        }
      ],
      "name": "getAggregateGamma",
      "outputs": [
        {
          "internalType": "int256",
          "name": "_gamma",
          "type": "int256"
        }
      ],
      "stateMutability": "view",
      "type": "function"
    },
    {
      "inputs": [],
      "name": "getBalances",
      "outputs": [
        {
          "internalType": "uint256",
          "name": "_underlyingBalance",
          "type": "uint256"
        },
        {
          "internalType": "uint256",
          "name": "_fundingBalance",
          "type": "uint256"
        },
        {
          "internalType": "uint256",
          "name": "_collateralBalance",
          "type": "uint256"
        },
        {
          "internalType": "uint256",
          "name": "_debtBalance",
          "type": "uint256"
        }
      ],
      "stateMutability": "view",
      "type": "function"
    },
    {
      "inputs": [],
      "name": "anyOptionExpiring",
      "outputs": [
        {
          "internalType": "bool",
          "name": "_isExpiring",
          "type": "bool"
        }
      ],
      "stateMutability": "view",
      "type": "function"
    },
    {
      "inputs": [],
      "name": "expireOptions",
      "outputs": [
        {
          "internalType": "uint256",
          "name": "_expiringId",
          "type": "uint256"
        }
      ],
      "stateMutability": "nonpayable",
      "type": "function"
    },
    {
      "inputs": [
        {
          "internalType": "bool",
          "name": "_net",
          "type": "bool"
        },
        {
          "internalType": "bool",
          "name": "_average",
          "type": "bool"
        }
      ],
      "name": "calcCapital",
      "outputs": [
        {
          "internalType": "uint256",
          "name": "_capital",
          "type": "uint256"
        }
      ],
      "stateMutability": "view",
      "type": "function"
    },
    {
      "inputs": [
        {
          "internalType": "uint256",
          "name": "_depositAmount",
          "type": "uint256"
        }
      ],
      "name": "addCapital",
      "outputs": [],
      "stateMutability": "nonpayable",
      "type": "function"
    },
    {
      "inputs": [
        {
          "internalType": "uint256",
          "name": "_burnMPTokenAmount",
          "type": "uint256"
        }
      ],
      "name": "withdrawCapital",
      "outputs": [],
      "stateMutability": "nonpayable",
      "type": "function"
    },
    {
      "inputs": [
        {
          "internalType": "address",
          "name": "_tokenAddress",
          "type": "address"
        },
        {
          "internalType": "address",
          "name": "_spenderAddress",
          "type": "address"
        },
        {
          "internalType": "uint256",
          "name": "_amount",
          "type": "uint256"
        }
      ],
      "name": "approveSpending",
      "outputs": [],
      "stateMutability": "nonpayable",
      "type": "function"
    },
    {
      "inputs": [],
      "name": "calcHedgeTradesForSwaps",
      "outputs": [
        {
          "internalType": "int256",
          "name": "_tradeUnderlyingAmount",
          "type": "int256"
        },
        {
          "internalType": "int256",
          "name": "_tradeFundingAmount",
          "type": "int256"
        }
      ],
      "stateMutability": "view",
      "type": "function"
    },
    {
      "inputs": [],
      "name": "calcHedgeTradesForLoans",
      "outputs": [
        {
          "internalType": "int256",
          "name": "_loanTradeAmount",
          "type": "int256"
        },
        {
          "internalType": "int256",
          "name": "_collateralChange",
          "type": "int256"
        },
        {
          "internalType": "address",
          "name": "_loanAddress",
          "type": "address"
        },
        {
          "internalType": "address",
          "name": "_collateralAddress",
          "type": "address"
        }
      ],
      "stateMutability": "view",
      "type": "function"
    },
    {
      "inputs": [
        {
          "internalType": "uint256",
          "name": "_newFee",
          "type": "uint256"
        }
      ],
      "name": "resetSettlementFee",
      "outputs": [],
      "stateMutability": "nonpayable",
      "type": "function"
    },
    {
      "inputs": [
        {
          "internalType": "uint256",
          "name": "_newFee",
          "type": "uint256"
        }
      ],
      "name": "resetExerciseFee",
      "outputs": [],
      "stateMutability": "nonpayable",
      "type": "function"
    },
    {
      "inputs": [
        {
          "internalType": "uint256",
          "name": "_slippage",
          "type": "uint256"
        }
      ],
      "name": "resetSlippage",
      "outputs": [],
      "stateMutability": "nonpayable",
      "type": "function"
    },
    {
      "inputs": [
        {
          "internalType": "uint256",
          "name": "_newRateMode",
          "type": "uint256"
        }
      ],
      "name": "resetLendingPoolRateMode",
      "outputs": [],
      "stateMutability": "nonpayable",
      "type": "function"
    },
    {
      "inputs": [
        {
          "internalType": "address",
          "name": "_address",
          "type": "address"
        }
      ],
      "name": "getHoldersOptionCount",
      "outputs": [
        {
          "internalType": "uint256",
          "name": "",
          "type": "uint256"
        }
      ],
      "stateMutability": "view",
      "type": "function"
    },
    {
      "inputs": [
        {
          "internalType": "uint256",
          "name": "_index",
          "type": "uint256"
        },
        {
          "internalType": "address",
          "name": "_address",
          "type": "address"
        }
      ],
      "name": "getHoldersOption",
      "outputs": [
        {
          "components": [
            {
              "internalType": "enum OptionLibrary.PayoffType",
              "name": "poType",
              "type": "uint8"
            },
            {
              "internalType": "enum OptionLibrary.OptionSide",
              "name": "side",
              "type": "uint8"
            },
            {
              "internalType": "enum OptionLibrary.OptionStatus",
              "name": "status",
              "type": "uint8"
            },
            {
              "internalType": "address",
              "name": "holder",
              "type": "address"
            },
            {
              "internalType": "uint256",
              "name": "id",
              "type": "uint256"
            },
            {
              "internalType": "uint256",
              "name": "createTime",
              "type": "uint256"
            },
            {
              "internalType": "uint256",
              "name": "effectiveTime",
              "type": "uint256"
            },
            {
              "internalType": "uint256",
              "name": "tenor",
              "type": "uint256"
            },
            {
              "internalType": "uint256",
              "name": "maturity",
              "type": "uint256"
            },
            {
              "internalType": "uint256",
              "name": "exerciseTime",
              "type": "uint256"
            },
            {
              "internalType": "uint256",
              "name": "amount",
              "type": "uint256"
            },
            {
              "internalType": "uint256",
              "name": "spot",
              "type": "uint256"
            },
            {
              "internalType": "uint256",
              "name": "strike",
              "type": "uint256"
            },
            {
              "internalType": "uint256",
              "name": "volatility",
              "type": "uint256"
            },
            {
              "internalType": "uint256",
              "name": "premium",
              "type": "uint256"
            },
            {
              "internalType": "uint256",
              "name": "cost",
              "type": "uint256"
            }
          ],
          "internalType": "struct OptionLibrary.Option",
          "name": "",
          "type": "tuple"
        }
      ],
      "stateMutability": "view",
      "type": "function"
    }
  ],
  "bytecode": "0x6080604052670de0b6b3a76400006009556611c37937e08000600a556611c37937e08000600b5560026011556611c37937e080006012553480156200004357600080fd5b50604051620069e7380380620069e783398181016040528101906200006991906200085f565b8585816003908051906020019062000083929190620005ad565b5080600490805190602001906200009c929190620005ad565b505050620000b46000801b33620002af60201b60201c565b620000e67fa49807205ce4d355092ef5a8a18f56e8913cf4a201fbe287825b095693c2177533620002af60201b60201c565b620001187f28d62fc77014de57a1bbaa8212ff0979fa61ab00d377b4b8d9762048fb41996133620002af60201b60201c565b6200014a7fa952726ef2588ad078edf35b066f7c7406e207cb0003bbaba8cb53eba9553e7233620002af60201b60201c565b33600f60006101000a81548173ffffffffffffffffffffffffffffffffffffffff021916908373ffffffffffffffffffffffffffffffffffffffff16021790555082600e60006101000a81548173ffffffffffffffffffffffffffffffffffffffff021916908373ffffffffffffffffffffffffffffffffffffffff16021790555083600d60006101000a81548173ffffffffffffffffffffffffffffffffffffffff021916908373ffffffffffffffffffffffffffffffffffffffff16021790555081600c60006101000a81548173ffffffffffffffffffffffffffffffffffffffff021916908373ffffffffffffffffffffffffffffffffffffffff16021790555080601060006101000a81548173ffffffffffffffffffffffffffffffffffffffff021916908373ffffffffffffffffffffffffffffffffffffffff160217905550620002a333600954620002c560201b60201c565b50505050505062000ae5565b620002c182826200043e60201b60201c565b5050565b600073ffffffffffffffffffffffffffffffffffffffff168273ffffffffffffffffffffffffffffffffffffffff16141562000338576040517f08c379a00000000000000000000000000000000000000000000000000000000081526004016200032f906200099a565b60405180910390fd5b6200034c600083836200053060201b60201c565b8060026000828254620003609190620009f5565b92505081905550806000808473ffffffffffffffffffffffffffffffffffffffff1673ffffffffffffffffffffffffffffffffffffffff1681526020019081526020016000206000828254620003b79190620009f5565b925050819055508173ffffffffffffffffffffffffffffffffffffffff16600073ffffffffffffffffffffffffffffffffffffffff167fddf252ad1be2c89b69c2b068fc378daa952ba7f163c4a11628f55a4df523b3ef836040516200041e919062000a63565b60405180910390a36200043a600083836200053560201b60201c565b5050565b6200045082826200053a60201b60201c565b6200052c5760016005600084815260200190815260200160002060000160008373ffffffffffffffffffffffffffffffffffffffff1673ffffffffffffffffffffffffffffffffffffffff16815260200190815260200160002060006101000a81548160ff021916908315150217905550620004d1620005a560201b60201c565b73ffffffffffffffffffffffffffffffffffffffff168173ffffffffffffffffffffffffffffffffffffffff16837f2f8788117e7eff1d82e926ec794901d17c78024a50270940304540a733656f0d60405160405180910390a45b5050565b505050565b505050565b60006005600084815260200190815260200160002060000160008373ffffffffffffffffffffffffffffffffffffffff1673ffffffffffffffffffffffffffffffffffffffff16815260200190815260200160002060009054906101000a900460ff16905092915050565b600033905090565b828054620005bb9062000aaf565b90600052602060002090601f016020900481019282620005df57600085556200062b565b82601f10620005fa57805160ff19168380011785556200062b565b828001600101855582156200062b579182015b828111156200062a5782518255916020019190600101906200060d565b5b5090506200063a91906200063e565b5090565b5b80821115620006595760008160009055506001016200063f565b5090565b6000604051905090565b600080fd5b600080fd5b600080fd5b600080fd5b6000601f19601f8301169050919050565b7f4e487b7100000000000000000000000000000000000000000000000000000000600052604160045260246000fd5b620006c6826200067b565b810181811067ffffffffffffffff82111715620006e857620006e76200068c565b5b80604052505050565b6000620006fd6200065d565b90506200070b8282620006bb565b919050565b600067ffffffffffffffff8211156200072e576200072d6200068c565b5b62000739826200067b565b9050602081019050919050565b60005b838110156200076657808201518184015260208101905062000749565b8381111562000776576000848401525b50505050565b6000620007936200078d8462000710565b620006f1565b905082815260208101848484011115620007b257620007b162000676565b5b620007bf84828562000746565b509392505050565b600082601f830112620007df57620007de62000671565b5b8151620007f18482602086016200077c565b91505092915050565b600073ffffffffffffffffffffffffffffffffffffffff82169050919050565b60006200082782620007fa565b9050919050565b62000839816200081a565b81146200084557600080fd5b50565b60008151905062000859816200082e565b92915050565b60008060008060008060c087890312156200087f576200087e62000667565b5b600087015167ffffffffffffffff811115620008a0576200089f6200066c565b5b620008ae89828a01620007c7565b965050602087015167ffffffffffffffff811115620008d257620008d16200066c565b5b620008e089828a01620007c7565b9550506040620008f389828a0162000848565b94505060606200090689828a0162000848565b93505060806200091989828a0162000848565b92505060a06200092c89828a0162000848565b9150509295509295509295565b600082825260208201905092915050565b7f45524332303a206d696e7420746f20746865207a65726f206164647265737300600082015250565b600062000982601f8362000939565b91506200098f826200094a565b602082019050919050565b60006020820190508181036000830152620009b58162000973565b9050919050565b6000819050919050565b7f4e487b7100000000000000000000000000000000000000000000000000000000600052601160045260246000fd5b600062000a0282620009bc565b915062000a0f83620009bc565b9250827fffffffffffffffffffffffffffffffffffffffffffffffffffffffffffffffff0382111562000a475762000a46620009c6565b5b828201905092915050565b62000a5d81620009bc565b82525050565b600060208201905062000a7a600083018462000a52565b92915050565b7f4e487b7100000000000000000000000000000000000000000000000000000000600052602260045260246000fd5b6000600282049050600182168062000ac857607f821691505b6020821081141562000adf5762000ade62000a80565b5b50919050565b615ef28062000af56000396000f3fe608060405234801561001057600080fd5b506004361061027e5760003560e01c80638a0687d21161015c578063b82e106d116100ce578063d95b0a1211610087578063d95b0a12146107f3578063dd62ed3e1461080f578063e3f828fa1461083f578063eaa2b0b51461085b578063ecc513f014610879578063ed7dfbdf146108955761027e565b8063b82e106d14610745578063bea10f9614610763578063d1c699aa1461077f578063d3b7bfb41461079d578063d547741f146107bb578063d8a14cbe146107d75761027e565b806395d89b411161012057806395d89b411461065b578063967ad68b14610679578063a217fddf14610697578063a42b6626146106b5578063a457c2d7146106e5578063a9059cbb146107155761027e565b80638a0687d2146105915780638a9450fe146105c157806390618ed9146105dd57806391d14854146105fb5780639462ad651461062b5761027e565b8063313ce567116101f55780635fb1b1a6116101b95780635fb1b1a6146104b857806363447902146104d75780636394f6e61461050757806370a082311461052557806375b238fc146105555780637d1d7fb8146105735761027e565b8063313ce5671461041457806336568abe14610432578063395093511461044e5780633b7345011461047e57806346c777d81461049c5761027e565b806318160ddd1161024757806318160ddd1461033e5780631aedeabe1461035c5780632140ea671461037a57806323b872dd14610398578063248a9ca3146103c85780632f2ff15d146103f85761027e565b8062113e081461028357806301ffc9a7146102a457806306fdde03146102d45780630837ecfd146102f2578063095ea7b31461030e575b600080fd5b61028b6108b6565b60405161029b94939291906141b6565b60405180910390f35b6102be60048036038101906102b99190614262565b610add565b6040516102cb91906142aa565b60405180910390f35b6102dc610b57565b6040516102e9919061435e565b60405180910390f35b61030c600480360381019061030791906143ac565b610be9565b005b61032860048036038101906103239190614437565b610c3e565b60405161033591906142aa565b60405180910390f35b610346610c5c565b6040516103539190614477565b60405180910390f35b610364610c66565b6040516103719190614477565b60405180910390f35b610382610c6c565b60405161038f91906144a1565b60405180910390f35b6103b260048036038101906103ad91906144bc565b610c92565b6040516103bf91906142aa565b60405180910390f35b6103e260048036038101906103dd9190614545565b610d8a565b6040516103ef9190614581565b60405180910390f35b610412600480360381019061040d919061459c565b610daa565b005b61041c610dd3565b60405161042991906145f8565b60405180910390f35b61044c6004803603810190610447919061459c565b610ddc565b005b61046860048036038101906104639190614437565b610e5f565b60405161047591906142aa565b60405180910390f35b610486610f0b565b6040516104939190614581565b60405180910390f35b6104b660048036038101906104b191906143ac565b610f2f565b005b6104c0610f7a565b6040516104ce92919061462c565b60405180910390f35b6104f160048036038101906104ec9190614681565b611276565b6040516104fe9190614477565b60405180910390f35b61050f61143e565b60405161051c9190614581565b60405180910390f35b61053f600480360381019061053a91906146c1565b611462565b60405161054c9190614477565b60405180910390f35b61055d6114aa565b60405161056a9190614581565b60405180910390f35b61057b6114ce565b6040516105889190614477565b60405180910390f35b6105ab60048036038101906105a691906146ee565b6114d4565b6040516105b8919061499d565b60405180910390f35b6105db60048036038101906105d69190614437565b6115e0565b005b6105e561167e565b6040516105f291906142aa565b60405180910390f35b6106156004803603810190610610919061459c565b611776565b60405161062291906142aa565b60405180910390f35b610645600480360381019061064091906149b9565b6117e1565b60405161065291906149e6565b60405180910390f35b6106636119bb565b604051610670919061435e565b60405180910390f35b610681611a4d565b60405161068e91906144a1565b60405180910390f35b61069f611a73565b6040516106ac9190614581565b60405180910390f35b6106cf60048036038101906106ca91906146c1565b611a7a565b6040516106dc9190614477565b60405180910390f35b6106ff60048036038101906106fa9190614437565b611aca565b60405161070c91906142aa565b60405180910390f35b61072f600480360381019061072a9190614437565b611bb5565b60405161073c91906142aa565b60405180910390f35b61074d611bd3565b60405161075a9190614477565b60405180910390f35b61077d600480360381019061077891906143ac565b611bd9565b005b610787611da2565b6040516107949190614477565b60405180910390f35b6107a5611da8565b6040516107b291906144a1565b60405180910390f35b6107d560048036038101906107d0919061459c565b611dce565b005b6107f160048036038101906107ec91906144bc565b611df7565b005b61080d600480360381019061080891906143ac565b611ebd565b005b61082960048036038101906108249190614a01565b61216f565b6040516108369190614477565b60405180910390f35b610859600480360381019061085491906143ac565b6121f6565b005b610863612233565b6040516108709190614477565b60405180910390f35b610893600480360381019061088e91906143ac565b612b37565b005b61089d612b82565b6040516108ad9493929190614a41565b60405180910390f35b6000806000806000601060009054906101000a900473ffffffffffffffffffffffffffffffffffffffff1673ffffffffffffffffffffffffffffffffffffffff166321f8a7216040518163ffffffff1660e01b815260040161091790614aac565b60206040518083038186803b15801561092f57600080fd5b505afa158015610943573d6000803e3d6000fd5b505050506040513d601f19601f820116820180604052508101906109679190614ada565b905073__MarketLibrary_________________________6332c21e133083600d60009054906101000a900473ffffffffffffffffffffffffffffffffffffffff166040518463ffffffff1660e01b81526004016109c693929190614b16565b60606040518083038186803b1580156109de57600080fd5b505af41580156109f2573d6000803e3d6000fd5b505050506040513d601f19601f82011682018060405250810190610a169190614b62565b9050809350819650505073__MarketLibrary_________________________6332c21e133083600e60009054906101000a900473ffffffffffffffffffffffffffffffffffffffff166040518463ffffffff1660e01b8152600401610a7d93929190614b16565b60606040518083038186803b158015610a9557600080fd5b505af4158015610aa9573d6000803e3d6000fd5b505050506040513d601f19601f82011682018060405250810190610acd9190614b62565b5080945081955050505090919293565b60007f7965db0b000000000000000000000000000000000000000000000000000000007bffffffffffffffffffffffffffffffffffffffffffffffffffffffff1916827bffffffffffffffffffffffffffffffffffffffffffffffffffffffff19161480610b505750610b4f82612e23565b5b9050919050565b606060038054610b6690614be4565b80601f0160208091040260200160405190810160405280929190818152602001828054610b9290614be4565b8015610bdf5780601f10610bb457610100808354040283529160200191610bdf565b820191906000526020600020905b815481529060010190602001808311610bc257829003601f168201915b5050505050905090565b7fa49807205ce4d355092ef5a8a18f56e8913cf4a201fbe287825b095693c21775610c1b81610c16612e8d565b612e95565b6001821480610c2a5750600282145b610c3357600080fd5b816011819055505050565b6000610c52610c4b612e8d565b8484612f32565b6001905092915050565b6000600254905090565b60125481565b600d60009054906101000a900473ffffffffffffffffffffffffffffffffffffffff1681565b6000610c9f8484846130fd565b6000600160008673ffffffffffffffffffffffffffffffffffffffff1673ffffffffffffffffffffffffffffffffffffffff1681526020019081526020016000206000610cea612e8d565b73ffffffffffffffffffffffffffffffffffffffff1673ffffffffffffffffffffffffffffffffffffffff16815260200190815260200160002054905082811015610d6a576040517f08c379a0000000000000000000000000000000000000000000000000000000008152600401610d6190614c88565b60405180910390fd5b610d7e85610d76612e8d565b858403612f32565b60019150509392505050565b600060056000838152602001908152602001600020600101549050919050565b610db382610d8a565b610dc481610dbf612e8d565b612e95565b610dce838361337e565b505050565b60006012905090565b610de4612e8d565b73ffffffffffffffffffffffffffffffffffffffff168173ffffffffffffffffffffffffffffffffffffffff1614610e51576040517f08c379a0000000000000000000000000000000000000000000000000000000008152600401610e4890614d1a565b60405180910390fd5b610e5b828261345f565b5050565b6000610f01610e6c612e8d565b848460016000610e7a612e8d565b73ffffffffffffffffffffffffffffffffffffffff1673ffffffffffffffffffffffffffffffffffffffff16815260200190815260200160002060008873ffffffffffffffffffffffffffffffffffffffff1673ffffffffffffffffffffffffffffffffffffffff16815260200190815260200160002054610efc9190614d69565b612f32565b6001905092915050565b7f28d62fc77014de57a1bbaa8212ff0979fa61ab00d377b4b8d9762048fb41996181565b7fa49807205ce4d355092ef5a8a18f56e8913cf4a201fbe287825b095693c21775610f6181610f5c612e8d565b612e95565b6009548210610f6f57600080fd5b81600a819055505050565b6000807fa952726ef2588ad078edf35b066f7c7406e207cb0003bbaba8cb53eba9553e72610faf81610faa612e8d565b612e95565b600080610fbc6000613541565b9150915073__MarketLibrary_________________________63eea2526b600d60009054906101000a900473ffffffffffffffffffffffffffffffffffffffff16306040518363ffffffff1660e01b815260040161101b929190614dbf565b60206040518083038186803b15801561103357600080fd5b505af4158015611047573d6000803e3d6000fd5b505050506040513d601f19601f8201168201806040525081019061106b9190614de8565b600083121561107b57600061107d565b825b6110879190614e15565b945073__MarketLibrary_________________________63aa5c12c773__OptionLibrary_________________________63ca0cc13d88856012546040518463ffffffff1660e01b81526004016110e093929190614ec7565b60206040518083038186803b1580156110f857600080fd5b505af415801561110c573d6000803e3d6000fd5b505050506040513d601f19601f820116820180604052508101906111309190614f2a565b600e60009054906101000a900473ffffffffffffffffffffffffffffffffffffffff166040518363ffffffff1660e01b8152600401611170929190614f57565b60206040518083038186803b15801561118857600080fd5b505af415801561119c573d6000803e3d6000fd5b505050506040513d601f19601f820116820180604052508101906111c09190614f2a565b935073__MarketLibrary_________________________63aa5c12c786600d60009054906101000a900473ffffffffffffffffffffffffffffffffffffffff166040518363ffffffff1660e01b815260040161121d929190614f57565b60206040518083038186803b15801561123557600080fd5b505af4158015611249573d6000803e3d6000fd5b505050506040513d601f19601f8201168201806040525081019061126d9190614f2a565b94505050509091565b600080600c60009054906101000a900473ffffffffffffffffffffffffffffffffffffffff1673ffffffffffffffffffffffffffffffffffffffff1663b0667cf86040518163ffffffff1660e01b8152600401604080518083038186803b1580156112e057600080fd5b505afa1580156112f4573d6000803e3d6000fd5b505050506040513d601f19601f820116820180604052508101906113189190614f80565b5090506000806000806113296108b6565b935093509350935061133e84866009546136e8565b828461134a9190614d69565b6113549190614d69565b955061136381866009546136e8565b86116113a4576040517f08c379a000000000000000000000000000000000000000000000000000000000815260040161139b9061500c565b60405180910390fd5b6113b181866009546136e8565b866113bc919061502c565b955087156113e3576113d56113cf6137e4565b876138de565b866113e0919061502c565b95505b86156114335760006113f3610c5c565b11156114105761140d86600954611408610c5c565b6136e8565b95505b600061141a610c5c565b1480156114275750600086145b156114325760095495505b5b505050505092915050565b7fa952726ef2588ad078edf35b066f7c7406e207cb0003bbaba8cb53eba9553e7281565b60008060008373ffffffffffffffffffffffffffffffffffffffff1673ffffffffffffffffffffffffffffffffffffffff168152602001908152602001600020549050919050565b7fa49807205ce4d355092ef5a8a18f56e8913cf4a201fbe287825b095693c2177581565b600a5481565b6114dc6140d4565b600c60009054906101000a900473ffffffffffffffffffffffffffffffffffffffff1673ffffffffffffffffffffffffffffffffffffffff16631ce5e9a661156b85600660008773ffffffffffffffffffffffffffffffffffffffff1673ffffffffffffffffffffffffffffffffffffffff1681526020019081526020016000206138f790919063ffffffff16565b6040518263ffffffff1660e01b81526004016115879190614477565b6102006040518083038186803b1580156115a057600080fd5b505afa1580156115b4573d6000803e3d6000fd5b505050506040513d601f19601f820116820180604052508101906115d891906152c9565b905092915050565b7f28d62fc77014de57a1bbaa8212ff0979fa61ab00d377b4b8d9762048fb4199616116128161160d612e8d565b612e95565b61166382600660008673ffffffffffffffffffffffffffffffffffffffff1673ffffffffffffffffffffffffffffffffffffffff16815260200190815260200160002061391190919063ffffffff16565b5061167882600761391190919063ffffffff16565b50505050565b6000805b61168c600761392b565b81101561177257600c60009054906101000a900473ffffffffffffffffffffffffffffffffffffffff1673ffffffffffffffffffffffffffffffffffffffff166369369ab56116e58360076138f790919063ffffffff16565b6040518263ffffffff1660e01b81526004016117019190614477565b60206040518083038186803b15801561171957600080fd5b505afa15801561172d573d6000803e3d6000fd5b505050506040513d601f19601f82011682018060405250810190611751919061530c565b1561175f5760019150611772565b808061176a90615339565b915050611682565b5090565b60006005600084815260200190815260200160002060000160008373ffffffffffffffffffffffffffffffffffffffff1673ffffffffffffffffffffffffffffffffffffffff16815260200190815260200160002060009054906101000a900460ff16905092915050565b60007f28d62fc77014de57a1bbaa8212ff0979fa61ab00d377b4b8d9762048fb41996161181581611810612e8d565b612e95565b6000600c60009054906101000a900473ffffffffffffffffffffffffffffffffffffffff1673ffffffffffffffffffffffffffffffffffffffff1663b0667cf86040518163ffffffff1660e01b8152600401604080518083038186803b15801561187e57600080fd5b505afa158015611892573d6000803e3d6000fd5b505050506040513d601f19601f820116820180604052508101906118b69190614f80565b5090506000925060005b6118ca600761392b565b8110156119b357600c60009054906101000a900473ffffffffffffffffffffffffffffffffffffffff1673ffffffffffffffffffffffffffffffffffffffff1663b1cbbfb76119238360076138f790919063ffffffff16565b84886040518463ffffffff1660e01b815260040161194393929190615382565b60206040518083038186803b15801561195b57600080fd5b505afa15801561196f573d6000803e3d6000fd5b505050506040513d601f19601f820116820180604052508101906119939190614f2a565b8461199e91906153b9565b935080806119ab90615339565b9150506118c0565b505050919050565b6060600480546119ca90614be4565b80601f01602080910402602001604051908101604052809291908181526020018280546119f690614be4565b8015611a435780601f10611a1857610100808354040283529160200191611a43565b820191906000526020600020905b815481529060010190602001808311611a2657829003601f168201915b5050505050905090565b601060009054906101000a900473ffffffffffffffffffffffffffffffffffffffff1681565b6000801b81565b6000611ac3600660008473ffffffffffffffffffffffffffffffffffffffff1673ffffffffffffffffffffffffffffffffffffffff16815260200190815260200160002061392b565b9050919050565b60008060016000611ad9612e8d565b73ffffffffffffffffffffffffffffffffffffffff1673ffffffffffffffffffffffffffffffffffffffff16815260200190815260200160002060008573ffffffffffffffffffffffffffffffffffffffff1673ffffffffffffffffffffffffffffffffffffffff16815260200190815260200160002054905082811015611b96576040517f08c379a0000000000000000000000000000000000000000000000000000000008152600401611b8d906154bf565b60405180910390fd5b611baa611ba1612e8d565b85858403612f32565b600191505092915050565b6000611bc9611bc2612e8d565b84846130fd565b6001905092915050565b60115481565b6000611c9d73__MarketLibrary_________________________63f0742a2584600e60009054906101000a900473ffffffffffffffffffffffffffffffffffffffff166040518363ffffffff1660e01b8152600401611c399291906154df565b60206040518083038186803b158015611c5157600080fd5b505af4158015611c65573d6000803e3d6000fd5b505050506040513d601f19601f82011682018060405250810190611c899190614de8565b600954611c9860006001611276565b6136e8565b9050600e60009054906101000a900473ffffffffffffffffffffffffffffffffffffffff1673ffffffffffffffffffffffffffffffffffffffff166323b872dd3330856040518463ffffffff1660e01b8152600401611cfe93929190615508565b602060405180830381600087803b158015611d1857600080fd5b505af1158015611d2c573d6000803e3d6000fd5b505050506040513d601f19601f82011682018060405250810190611d50919061530c565b611d5957600080fd5b611d633382613940565b7fd0d5ca25112902dbbf5a70a67eed6edc7513b74f2a7ec0805ca216c99f981cc1338383604051611d969392919061553f565b60405180910390a15050565b600b5481565b600e60009054906101000a900473ffffffffffffffffffffffffffffffffffffffff1681565b611dd782610d8a565b611de881611de3612e8d565b612e95565b611df2838361345f565b505050565b7fa952726ef2588ad078edf35b066f7c7406e207cb0003bbaba8cb53eba9553e72611e2981611e24612e8d565b612e95565b8373ffffffffffffffffffffffffffffffffffffffff1663095ea7b384846040518363ffffffff1660e01b8152600401611e64929190615576565b602060405180830381600087803b158015611e7e57600080fd5b505af1158015611e92573d6000803e3d6000fd5b505050506040513d601f19601f82011682018060405250810190611eb6919061530c565b5050505050565b600073__MarketLibrary_________________________638170ce80611ef0611ee7600180611276565b856009546136e8565b600e60009054906101000a900473ffffffffffffffffffffffffffffffffffffffff166040518363ffffffff1660e01b8152600401611f309291906154df565b60206040518083038186803b158015611f4857600080fd5b505af4158015611f5c573d6000803e3d6000fd5b505050506040513d601f19601f82011682018060405250810190611f809190614de8565b905080600e60009054906101000a900473ffffffffffffffffffffffffffffffffffffffff1673ffffffffffffffffffffffffffffffffffffffff166370a08231306040518263ffffffff1660e01b8152600401611fde91906144a1565b60206040518083038186803b158015611ff657600080fd5b505afa15801561200a573d6000803e3d6000fd5b505050506040513d601f19601f8201168201806040525081019061202e9190614de8565b1161206e576040517f08c379a0000000000000000000000000000000000000000000000000000000008152600401612065906155eb565b60405180910390fd5b6120783383613aa0565b600e60009054906101000a900473ffffffffffffffffffffffffffffffffffffffff1673ffffffffffffffffffffffffffffffffffffffff1663a9059cbb33836040518363ffffffff1660e01b81526004016120d5929190615576565b602060405180830381600087803b1580156120ef57600080fd5b505af1158015612103573d6000803e3d6000fd5b505050506040513d601f19601f82011682018060405250810190612127919061530c565b61213057600080fd5b7f3a9e5b3b520d77dc26bf05104c863b6b654d4b96fa8031a783ad0dbd905cdf393383836040516121639392919061553f565b60405180910390a15050565b6000600160008473ffffffffffffffffffffffffffffffffffffffff1673ffffffffffffffffffffffffffffffffffffffff16815260200190815260200160002060008373ffffffffffffffffffffffffffffffffffffffff1673ffffffffffffffffffffffffffffffffffffffff16815260200190815260200160002054905092915050565b7fa49807205ce4d355092ef5a8a18f56e8913cf4a201fbe287825b095693c2177561222881612223612e8d565b612e95565b816012819055505050565b6000805b612241600761392b565b81101561233957600c60009054906101000a900473ffffffffffffffffffffffffffffffffffffffff1673ffffffffffffffffffffffffffffffffffffffff166369369ab561229a8360076138f790919063ffffffff16565b6040518263ffffffff1660e01b81526004016122b69190614477565b60206040518083038186803b1580156122ce57600080fd5b505afa1580156122e2573d6000803e3d6000fd5b505050506040513d601f19601f82011682018060405250810190612306919061530c565b156123265761231f8160076138f790919063ffffffff16565b9150612339565b808061233190615339565b915050612237565b506000811115612b3457600080600c60009054906101000a900473ffffffffffffffffffffffffffffffffffffffff1673ffffffffffffffffffffffffffffffffffffffff166385ae10e6846040518263ffffffff1660e01b81526004016123a19190614477565b604080518083038186803b1580156123b857600080fd5b505afa1580156123cc573d6000803e3d6000fd5b505050506040513d601f19601f820116820180604052508101906123f09190614f80565b9150915073__MarketLibrary_________________________63eea2526b600e60009054906101000a900473ffffffffffffffffffffffffffffffffffffffff16306040518363ffffffff1660e01b815260040161244f929190614dbf565b60206040518083038186803b15801561246757600080fd5b505af415801561247b573d6000803e3d6000fd5b505050506040513d601f19601f8201168201806040525081019061249f9190614de8565b81106124e0576040517f08c379a00000000000000000000000000000000000000000000000000000000081526004016124d790615657565b60405180910390fd5b6000811115612b3157600c60009054906101000a900473ffffffffffffffffffffffffffffffffffffffff1673ffffffffffffffffffffffffffffffffffffffff1663637baf60846040518263ffffffff1660e01b81526004016125449190614477565b600060405180830381600087803b15801561255e57600080fd5b505af1158015612572573d6000803e3d6000fd5b505050506126718360066000600c60009054906101000a900473ffffffffffffffffffffffffffffffffffffffff1673ffffffffffffffffffffffffffffffffffffffff16631a7985ba886040518263ffffffff1660e01b81526004016125d99190614477565b60206040518083038186803b1580156125f157600080fd5b505afa158015612605573d6000803e3d6000fd5b505050506040513d601f19601f820116820180604052508101906126299190614ada565b73ffffffffffffffffffffffffffffffffffffffff1673ffffffffffffffffffffffffffffffffffffffff168152602001908152602001600020613c7790919063ffffffff16565b50612686836007613c7790919063ffffffff16565b5073__MarketLibrary_________________________638170ce8083600e60009054906101000a900473ffffffffffffffffffffffffffffffffffffffff166040518363ffffffff1660e01b81526004016126e29291906154df565b60206040518083038186803b1580156126fa57600080fd5b505af415801561270e573d6000803e3d6000fd5b505050506040513d601f19601f820116820180604052508101906127329190614de8565b915073__MarketLibrary_________________________638170ce8082600e60009054906101000a900473ffffffffffffffffffffffffffffffffffffffff166040518363ffffffff1660e01b815260040161278f9291906154df565b60206040518083038186803b1580156127a757600080fd5b505af41580156127bb573d6000803e3d6000fd5b505050506040513d601f19601f820116820180604052508101906127df9190614de8565b905060006127fb6127f584600a546009546136e8565b83613c91565b9050600061282261281185600b546009546136e8565b838561281d919061502c565b613c91565b9050600e60009054906101000a900473ffffffffffffffffffffffffffffffffffffffff1673ffffffffffffffffffffffffffffffffffffffff1663a9059cbb600c60009054906101000a900473ffffffffffffffffffffffffffffffffffffffff1673ffffffffffffffffffffffffffffffffffffffff16631a7985ba886040518263ffffffff1660e01b81526004016128bd9190614477565b60206040518083038186803b1580156128d557600080fd5b505afa1580156128e9573d6000803e3d6000fd5b505050506040513d601f19601f8201168201806040525081019061290d9190614ada565b83858761291a919061502c565b612924919061502c565b6040518363ffffffff1660e01b8152600401612941929190615576565b602060405180830381600087803b15801561295b57600080fd5b505af115801561296f573d6000803e3d6000fd5b505050506040513d601f19601f82011682018060405250810190612993919061530c565b61299c57600080fd5b600e60009054906101000a900473ffffffffffffffffffffffffffffffffffffffff1673ffffffffffffffffffffffffffffffffffffffff1663a9059cbb600f60009054906101000a900473ffffffffffffffffffffffffffffffffffffffff16836040518363ffffffff1660e01b8152600401612a1b929190615576565b602060405180830381600087803b158015612a3557600080fd5b505af1158015612a49573d6000803e3d6000fd5b505050506040513d601f19601f82011682018060405250810190612a6d919061530c565b612a7657600080fd5b600e60009054906101000a900473ffffffffffffffffffffffffffffffffffffffff1673ffffffffffffffffffffffffffffffffffffffff1663a9059cbb33846040518363ffffffff1660e01b8152600401612ad3929190615576565b602060405180830381600087803b158015612aed57600080fd5b505af1158015612b01573d6000803e3d6000fd5b505050506040513d601f19601f82011682018060405250810190612b25919061530c565b612b2e57600080fd5b50505b50505b90565b7fa49807205ce4d355092ef5a8a18f56e8913cf4a201fbe287825b095693c21775612b6981612b64612e8d565b612e95565b6009548210612b7757600080fd5b81600b819055505050565b6000806000807fa952726ef2588ad078edf35b066f7c7406e207cb0003bbaba8cb53eba9553e72612bba81612bb5612e8d565b612e95565b600080612bc76000613541565b915091506000601060009054906101000a900473ffffffffffffffffffffffffffffffffffffffff1673ffffffffffffffffffffffffffffffffffffffff166321f8a7216040518163ffffffff1660e01b8152600401612c2690614aac565b60206040518083038186803b158015612c3e57600080fd5b505afa158015612c52573d6000803e3d6000fd5b505050506040513d601f19601f82011682018060405250810190612c769190614ada565b9050600073__MarketLibrary_________________________63b076288a308487600d60009054906101000a900473ffffffffffffffffffffffffffffffffffffffff166002601154146040518663ffffffff1660e01b8152600401612ce0959493929190615686565b60606040518083038186803b158015612cf857600080fd5b505af4158015612d0c573d6000803e3d6000fd5b505050506040513d601f19601f82011682018060405250810190612d3091906156d9565b809950819350829b5050505073__MarketLibrary_________________________6312638d3a30848487600e60009054906101000a900473ffffffffffffffffffffffffffffffffffffffff16600d60009054906101000a900473ffffffffffffffffffffffffffffffffffffffff166040518763ffffffff1660e01b8152600401612dc19695949392919061572c565b604080518083038186803b158015612dd857600080fd5b505af4158015612dec573d6000803e3d6000fd5b505050506040513d601f19601f82011682018060405250810190612e10919061578d565b8097508199505050505050505090919293565b60007f01ffc9a7000000000000000000000000000000000000000000000000000000007bffffffffffffffffffffffffffffffffffffffffffffffffffffffff1916827bffffffffffffffffffffffffffffffffffffffffffffffffffffffff1916149050919050565b600033905090565b612e9f8282611776565b612f2e57612ec48173ffffffffffffffffffffffffffffffffffffffff166014613cab565b612ed28360001c6020613cab565b604051602001612ee39291906158a1565b6040516020818303038152906040526040517f08c379a0000000000000000000000000000000000000000000000000000000008152600401612f25919061435e565b60405180910390fd5b5050565b600073ffffffffffffffffffffffffffffffffffffffff168373ffffffffffffffffffffffffffffffffffffffff161415612fa2576040517f08c379a0000000000000000000000000000000000000000000000000000000008152600401612f999061594d565b60405180910390fd5b600073ffffffffffffffffffffffffffffffffffffffff168273ffffffffffffffffffffffffffffffffffffffff161415613012576040517f08c379a0000000000000000000000000000000000000000000000000000000008152600401613009906159df565b60405180910390fd5b80600160008573ffffffffffffffffffffffffffffffffffffffff1673ffffffffffffffffffffffffffffffffffffffff16815260200190815260200160002060008473ffffffffffffffffffffffffffffffffffffffff1673ffffffffffffffffffffffffffffffffffffffff168152602001908152602001600020819055508173ffffffffffffffffffffffffffffffffffffffff168373ffffffffffffffffffffffffffffffffffffffff167f8c5be1e5ebec7d5bd14f71427d1e84f3dd0314c0f7b2291e5b200ac8c7c3b925836040516130f09190614477565b60405180910390a3505050565b600073ffffffffffffffffffffffffffffffffffffffff168373ffffffffffffffffffffffffffffffffffffffff16141561316d576040517f08c379a000000000000000000000000000000000000000000000000000000000815260040161316490615a71565b60405180910390fd5b600073ffffffffffffffffffffffffffffffffffffffff168273ffffffffffffffffffffffffffffffffffffffff1614156131dd576040517f08c379a00000000000000000000000000000000000000000000000000000000081526004016131d490615b03565b60405180910390fd5b6131e8838383613ee7565b60008060008573ffffffffffffffffffffffffffffffffffffffff1673ffffffffffffffffffffffffffffffffffffffff1681526020019081526020016000205490508181101561326e576040517f08c379a000000000000000000000000000000000000000000000000000000000815260040161326590615b95565b60405180910390fd5b8181036000808673ffffffffffffffffffffffffffffffffffffffff1673ffffffffffffffffffffffffffffffffffffffff16815260200190815260200160002081905550816000808573ffffffffffffffffffffffffffffffffffffffff1673ffffffffffffffffffffffffffffffffffffffff16815260200190815260200160002060008282546133019190614d69565b925050819055508273ffffffffffffffffffffffffffffffffffffffff168473ffffffffffffffffffffffffffffffffffffffff167fddf252ad1be2c89b69c2b068fc378daa952ba7f163c4a11628f55a4df523b3ef846040516133659190614477565b60405180910390a3613378848484613eec565b50505050565b6133888282611776565b61345b5760016005600084815260200190815260200160002060000160008373ffffffffffffffffffffffffffffffffffffffff1673ffffffffffffffffffffffffffffffffffffffff16815260200190815260200160002060006101000a81548160ff021916908315150217905550613400612e8d565b73ffffffffffffffffffffffffffffffffffffffff168173ffffffffffffffffffffffffffffffffffffffff16837f2f8788117e7eff1d82e926ec794901d17c78024a50270940304540a733656f0d60405160405180910390a45b5050565b6134698282611776565b1561353d5760006005600084815260200190815260200160002060000160008373ffffffffffffffffffffffffffffffffffffffff1673ffffffffffffffffffffffffffffffffffffffff16815260200190815260200160002060006101000a81548160ff0219169083151502179055506134e2612e8d565b73ffffffffffffffffffffffffffffffffffffffff168173ffffffffffffffffffffffffffffffffffffffff16837ff6391f5c32d9c69d2a47ea670b442974b53935d1edc7fd64eb21e047a839171b60405160405180910390a45b5050565b600080600c60009054906101000a900473ffffffffffffffffffffffffffffffffffffffff1673ffffffffffffffffffffffffffffffffffffffff1663b0667cf86040518163ffffffff1660e01b8152600401604080518083038186803b1580156135ab57600080fd5b505afa1580156135bf573d6000803e3d6000fd5b505050506040513d601f19601f820116820180604052508101906135e39190614f80565b50809150506000915060005b6135f9600761392b565b8110156136e257600c60009054906101000a900473ffffffffffffffffffffffffffffffffffffffff1673ffffffffffffffffffffffffffffffffffffffff16638cbb0cd06136528360076138f790919063ffffffff16565b84876040518463ffffffff1660e01b815260040161367293929190615382565b60206040518083038186803b15801561368a57600080fd5b505afa15801561369e573d6000803e3d6000fd5b505050506040513d601f19601f820116820180604052508101906136c29190614f2a565b836136cd91906153b9565b925080806136da90615339565b9150506135ef565b50915091565b600080600080198587098587029250828110838203039150506000811415613723576000841161371757600080fd5b838204925050506137dd565b80841161372f57600080fd5b60008486880990508281118203915080830392506000856001877fffffffffffffffffffffffffffffffffffffffffffffffffffffffffffffffff0301169050808604955080840493506001818260000304019050808302841793506000600287600302189050808702600203810290508087026002038102905080870260020381029050808702600203810290508087026002038102905080870260020381029050808502955050505050505b9392505050565b6000805b6137f2600761392b565b8110156138da57600c60009054906101000a900473ffffffffffffffffffffffffffffffffffffffff1673ffffffffffffffffffffffffffffffffffffffff1663105df85661384b8360076138f790919063ffffffff16565b60006040518363ffffffff1660e01b815260040161386a929190615bb5565b60206040518083038186803b15801561388257600080fd5b505afa158015613896573d6000803e3d6000fd5b505050506040513d601f19601f820116820180604052508101906138ba9190614de8565b826138c59190614d69565b915080806138d290615339565b9150506137e8565b5090565b60008183106138ed57816138ef565b825b905092915050565b60006139068360000183613ef1565b60001c905092915050565b6000613923836000018360001b613f1c565b905092915050565b600061393982600001613f8c565b9050919050565b600073ffffffffffffffffffffffffffffffffffffffff168273ffffffffffffffffffffffffffffffffffffffff1614156139b0576040517f08c379a00000000000000000000000000000000000000000000000000000000081526004016139a790615c2a565b60405180910390fd5b6139bc60008383613ee7565b80600260008282546139ce9190614d69565b92505081905550806000808473ffffffffffffffffffffffffffffffffffffffff1673ffffffffffffffffffffffffffffffffffffffff1681526020019081526020016000206000828254613a239190614d69565b925050819055508173ffffffffffffffffffffffffffffffffffffffff16600073ffffffffffffffffffffffffffffffffffffffff167fddf252ad1be2c89b69c2b068fc378daa952ba7f163c4a11628f55a4df523b3ef83604051613a889190614477565b60405180910390a3613a9c60008383613eec565b5050565b600073ffffffffffffffffffffffffffffffffffffffff168273ffffffffffffffffffffffffffffffffffffffff161415613b10576040517f08c379a0000000000000000000000000000000000000000000000000000000008152600401613b0790615cbc565b60405180910390fd5b613b1c82600083613ee7565b60008060008473ffffffffffffffffffffffffffffffffffffffff1673ffffffffffffffffffffffffffffffffffffffff16815260200190815260200160002054905081811015613ba2576040517f08c379a0000000000000000000000000000000000000000000000000000000008152600401613b9990615d4e565b60405180910390fd5b8181036000808573ffffffffffffffffffffffffffffffffffffffff1673ffffffffffffffffffffffffffffffffffffffff168152602001908152602001600020819055508160026000828254613bf9919061502c565b92505081905550600073ffffffffffffffffffffffffffffffffffffffff168373ffffffffffffffffffffffffffffffffffffffff167fddf252ad1be2c89b69c2b068fc378daa952ba7f163c4a11628f55a4df523b3ef84604051613c5e9190614477565b60405180910390a3613c7283600084613eec565b505050565b6000613c89836000018360001b613f9d565b905092915050565b600081831015613ca15781613ca3565b825b905092915050565b606060006002836002613cbe9190615d6e565b613cc89190614d69565b67ffffffffffffffff811115613ce157613ce0615065565b5b6040519080825280601f01601f191660200182016040528015613d135781602001600182028036833780820191505090505b5090507f300000000000000000000000000000000000000000000000000000000000000081600081518110613d4b57613d4a615dc8565b5b60200101907effffffffffffffffffffffffffffffffffffffffffffffffffffffffffffff1916908160001a9053507f780000000000000000000000000000000000000000000000000000000000000081600181518110613daf57613dae615dc8565b5b60200101907effffffffffffffffffffffffffffffffffffffffffffffffffffffffffffff1916908160001a90535060006001846002613def9190615d6e565b613df99190614d69565b90505b6001811115613e99577f3031323334353637383961626364656600000000000000000000000000000000600f861660108110613e3b57613e3a615dc8565b5b1a60f81b828281518110613e5257613e51615dc8565b5b60200101907effffffffffffffffffffffffffffffffffffffffffffffffffffffffffffff1916908160001a905350600485901c945080613e9290615df7565b9050613dfc565b5060008414613edd576040517f08c379a0000000000000000000000000000000000000000000000000000000008152600401613ed490615e6d565b60405180910390fd5b8091505092915050565b505050565b505050565b6000826000018281548110613f0957613f08615dc8565b5b9060005260206000200154905092915050565b6000613f2883836140b1565b613f81578260000182908060018154018082558091505060019003906000526020600020016000909190919091505582600001805490508360010160008481526020019081526020016000208190555060019050613f86565b600090505b92915050565b600081600001805490509050919050565b600080836001016000848152602001908152602001600020549050600081146140a5576000600182613fcf919061502c565b9050600060018660000180549050613fe7919061502c565b905081811461405657600086600001828154811061400857614007615dc8565b5b906000526020600020015490508087600001848154811061402c5761402b615dc8565b5b90600052602060002001819055508387600101600083815260200190815260200160002081905550505b8560000180548061406a57614069615e8d565b5b6001900381819060005260206000200160009055905585600101600086815260200190815260200160002060009055600193505050506140ab565b60009150505b92915050565b600080836001016000848152602001908152602001600020541415905092915050565b604051806102000160405280600060018111156140f4576140f361472e565b5b81526020016000600181111561410d5761410c61472e565b5b8152602001600060038111156141265761412561472e565b5b8152602001600073ffffffffffffffffffffffffffffffffffffffff1681526020016000815260200160008152602001600081526020016000815260200160008152602001600081526020016000815260200160008152602001600081526020016000815260200160008152602001600081525090565b6000819050919050565b6141b08161419d565b82525050565b60006080820190506141cb60008301876141a7565b6141d860208301866141a7565b6141e560408301856141a7565b6141f260608301846141a7565b95945050505050565b6000604051905090565b600080fd5b60007fffffffff0000000000000000000000000000000000000000000000000000000082169050919050565b61423f8161420a565b811461424a57600080fd5b50565b60008135905061425c81614236565b92915050565b60006020828403121561427857614277614205565b5b60006142868482850161424d565b91505092915050565b60008115159050919050565b6142a48161428f565b82525050565b60006020820190506142bf600083018461429b565b92915050565b600081519050919050565b600082825260208201905092915050565b60005b838110156142ff5780820151818401526020810190506142e4565b8381111561430e576000848401525b50505050565b6000601f19601f8301169050919050565b6000614330826142c5565b61433a81856142d0565b935061434a8185602086016142e1565b61435381614314565b840191505092915050565b600060208201905081810360008301526143788184614325565b905092915050565b6143898161419d565b811461439457600080fd5b50565b6000813590506143a681614380565b92915050565b6000602082840312156143c2576143c1614205565b5b60006143d084828501614397565b91505092915050565b600073ffffffffffffffffffffffffffffffffffffffff82169050919050565b6000614404826143d9565b9050919050565b614414816143f9565b811461441f57600080fd5b50565b6000813590506144318161440b565b92915050565b6000806040838503121561444e5761444d614205565b5b600061445c85828601614422565b925050602061446d85828601614397565b9150509250929050565b600060208201905061448c60008301846141a7565b92915050565b61449b816143f9565b82525050565b60006020820190506144b66000830184614492565b92915050565b6000806000606084860312156144d5576144d4614205565b5b60006144e386828701614422565b93505060206144f486828701614422565b925050604061450586828701614397565b9150509250925092565b6000819050919050565b6145228161450f565b811461452d57600080fd5b50565b60008135905061453f81614519565b92915050565b60006020828403121561455b5761455a614205565b5b600061456984828501614530565b91505092915050565b61457b8161450f565b82525050565b60006020820190506145966000830184614572565b92915050565b600080604083850312156145b3576145b2614205565b5b60006145c185828601614530565b92505060206145d285828601614422565b9150509250929050565b600060ff82169050919050565b6145f2816145dc565b82525050565b600060208201905061460d60008301846145e9565b92915050565b6000819050919050565b61462681614613565b82525050565b6000604082019050614641600083018561461d565b61464e602083018461461d565b9392505050565b61465e8161428f565b811461466957600080fd5b50565b60008135905061467b81614655565b92915050565b6000806040838503121561469857614697614205565b5b60006146a68582860161466c565b92505060206146b78582860161466c565b9150509250929050565b6000602082840312156146d7576146d6614205565b5b60006146e584828501614422565b91505092915050565b6000806040838503121561470557614704614205565b5b600061471385828601614397565b925050602061472485828601614422565b9150509250929050565b7f4e487b7100000000000000000000000000000000000000000000000000000000600052602160045260246000fd5b6002811061476e5761476d61472e565b5b50565b600081905061477f8261475d565b919050565b600061478f82614771565b9050919050565b61479f81614784565b82525050565b600281106147b6576147b561472e565b5b50565b60008190506147c7826147a5565b919050565b60006147d7826147b9565b9050919050565b6147e7816147cc565b82525050565b600481106147fe576147fd61472e565b5b50565b600081905061480f826147ed565b919050565b600061481f82614801565b9050919050565b61482f81614814565b82525050565b61483e816143f9565b82525050565b61484d8161419d565b82525050565b6102008201600082015161486a6000850182614796565b50602082015161487d60208501826147de565b5060408201516148906040850182614826565b5060608201516148a36060850182614835565b5060808201516148b66080850182614844565b5060a08201516148c960a0850182614844565b5060c08201516148dc60c0850182614844565b5060e08201516148ef60e0850182614844565b50610100820151614904610100850182614844565b50610120820151614919610120850182614844565b5061014082015161492e610140850182614844565b50610160820151614943610160850182614844565b50610180820151614958610180850182614844565b506101a082015161496d6101a0850182614844565b506101c08201516149826101c0850182614844565b506101e08201516149976101e0850182614844565b50505050565b6000610200820190506149b36000830184614853565b92915050565b6000602082840312156149cf576149ce614205565b5b60006149dd8482850161466c565b91505092915050565b60006020820190506149fb600083018461461d565b92915050565b60008060408385031215614a1857614a17614205565b5b6000614a2685828601614422565b9250506020614a3785828601614422565b9150509250929050565b6000608082019050614a56600083018761461d565b614a63602083018661461d565b614a706040830185614492565b614a7d6060830184614492565b95945050505050565b7f3078310000000000000000000000000000000000000000000000000000000000815250565b6000602082019050614ac060008301614a86565b919050565b600081519050614ad48161440b565b92915050565b600060208284031215614af057614aef614205565b5b6000614afe84828501614ac5565b91505092915050565b614b10816143f9565b82525050565b6000606082019050614b2b6000830186614b07565b614b386020830185614b07565b614b456040830184614b07565b949350505050565b600081519050614b5c81614380565b92915050565b600080600060608486031215614b7b57614b7a614205565b5b6000614b8986828701614b4d565b9350506020614b9a86828701614b4d565b9250506040614bab86828701614b4d565b9150509250925092565b7f4e487b7100000000000000000000000000000000000000000000000000000000600052602260045260246000fd5b60006002820490506001821680614bfc57607f821691505b60208210811415614c1057614c0f614bb5565b5b50919050565b7f45524332303a207472616e7366657220616d6f756e742065786365656473206160008201527f6c6c6f77616e6365000000000000000000000000000000000000000000000000602082015250565b6000614c726028836142d0565b9150614c7d82614c16565b604082019050919050565b60006020820190508181036000830152614ca181614c65565b9050919050565b7f416363657373436f6e74726f6c3a2063616e206f6e6c792072656e6f756e636560008201527f20726f6c657320666f722073656c660000000000000000000000000000000000602082015250565b6000614d04602f836142d0565b9150614d0f82614ca8565b604082019050919050565b60006020820190508181036000830152614d3381614cf7565b9050919050565b7f4e487b7100000000000000000000000000000000000000000000000000000000600052601160045260246000fd5b6000614d748261419d565b9150614d7f8361419d565b9250827fffffffffffffffffffffffffffffffffffffffffffffffffffffffffffffffff03821115614db457614db3614d3a565b5b828201905092915050565b6000604082019050614dd46000830185614b07565b614de16020830184614b07565b9392505050565b600060208284031215614dfe57614dfd614205565b5b6000614e0c84828501614b4d565b91505092915050565b6000614e2082614613565b9150614e2b83614613565b9250827f800000000000000000000000000000000000000000000000000000000000000001821260008412151615614e6657614e65614d3a565b5b827f7fffffffffffffffffffffffffffffffffffffffffffffffffffffffffffffff018213600084121615614e9e57614e9d614d3a565b5b828203905092915050565b614eb281614613565b82525050565b614ec18161419d565b82525050565b6000606082019050614edc6000830186614ea9565b614ee96020830185614eb8565b614ef66040830184614eb8565b949350505050565b614f0781614613565b8114614f1257600080fd5b50565b600081519050614f2481614efe565b92915050565b600060208284031215614f4057614f3f614205565b5b6000614f4e84828501614f15565b91505092915050565b6000604082019050614f6c6000830185614ea9565b614f796020830184614b07565b9392505050565b60008060408385031215614f9757614f96614205565b5b6000614fa585828601614b4d565b9250506020614fb685828601614b4d565b9150509250929050565b7f4e65676174697665206571756974792e00000000000000000000000000000000600082015250565b6000614ff66010836142d0565b915061500182614fc0565b602082019050919050565b6000602082019050818103600083015261502581614fe9565b9050919050565b60006150378261419d565b91506150428361419d565b92508282101561505557615054614d3a565b5b828203905092915050565b600080fd5b7f4e487b7100000000000000000000000000000000000000000000000000000000600052604160045260246000fd5b61509d82614314565b810181811067ffffffffffffffff821117156150bc576150bb615065565b5b80604052505050565b60006150cf6141fb565b90506150db8282615094565b919050565b600281106150ed57600080fd5b50565b6000815190506150ff816150e0565b92915050565b6002811061511257600080fd5b50565b60008151905061512481615105565b92915050565b6004811061513757600080fd5b50565b6000815190506151498161512a565b92915050565b6000610200828403121561516657615165615060565b5b6151716102006150c5565b90506000615181848285016150f0565b600083015250602061519584828501615115565b60208301525060406151a98482850161513a565b60408301525060606151bd84828501614ac5565b60608301525060806151d184828501614b4d565b60808301525060a06151e584828501614b4d565b60a08301525060c06151f984828501614b4d565b60c08301525060e061520d84828501614b4d565b60e08301525061010061522284828501614b4d565b6101008301525061012061523884828501614b4d565b6101208301525061014061524e84828501614b4d565b6101408301525061016061526484828501614b4d565b6101608301525061018061527a84828501614b4d565b610180830152506101a061529084828501614b4d565b6101a0830152506101c06152a684828501614b4d565b6101c0830152506101e06152bc84828501614b4d565b6101e08301525092915050565b600061020082840312156152e0576152df614205565b5b60006152ee8482850161514f565b91505092915050565b60008151905061530681614655565b92915050565b60006020828403121561532257615321614205565b5b6000615330848285016152f7565b91505092915050565b60006153448261419d565b91507fffffffffffffffffffffffffffffffffffffffffffffffffffffffffffffffff82141561537757615376614d3a565b5b600182019050919050565b600060608201905061539760008301866141a7565b6153a460208301856141a7565b6153b1604083018461429b565b949350505050565b60006153c482614613565b91506153cf83614613565b9250817f7fffffffffffffffffffffffffffffffffffffffffffffffffffffffffffffff0383136000831215161561540a57615409614d3a565b5b817f800000000000000000000000000000000000000000000000000000000000000003831260008312161561544257615441614d3a565b5b828201905092915050565b7f45524332303a2064656372656173656420616c6c6f77616e63652062656c6f7760008201527f207a65726f000000000000000000000000000000000000000000000000000000602082015250565b60006154a96025836142d0565b91506154b48261544d565b604082019050919050565b600060208201905081810360008301526154d88161549c565b9050919050565b60006040820190506154f46000830185614eb8565b6155016020830184614b07565b9392505050565b600060608201905061551d6000830186614492565b61552a6020830185614492565b61553760408301846141a7565b949350505050565b60006060820190506155546000830186614492565b61556160208301856141a7565b61556e60408301846141a7565b949350505050565b600060408201905061558b6000830185614492565b61559860208301846141a7565b9392505050565b7f496e73756666696369656e742062616c616e6365000000000000000000000000600082015250565b60006155d56014836142d0565b91506155e08261559f565b602082019050919050565b60006020820190508181036000830152615604816155c8565b9050919050565b7f42616c616e636520696e73756666696369656e742e0000000000000000000000600082015250565b60006156416015836142d0565b915061564c8261560b565b602082019050919050565b6000602082019050818103600083015261567081615634565b9050919050565b6156808161428f565b82525050565b600060a08201905061569b6000830188614b07565b6156a86020830187614b07565b6156b56040830186614ea9565b6156c26060830185614b07565b6156cf6080830184615677565b9695505050505050565b6000806000606084860312156156f2576156f1614205565b5b600061570086828701614f15565b935050602061571186828701614b4d565b925050604061572286828701614ac5565b9150509250925092565b600060c0820190506157416000830189614b07565b61574e6020830188614b07565b61575b6040830187614eb8565b6157686060830186614eb8565b6157756080830185614b07565b61578260a0830184614b07565b979650505050505050565b600080604083850312156157a4576157a3614205565b5b60006157b285828601614f15565b92505060206157c385828601614ac5565b9150509250929050565b600081905092915050565b7f416363657373436f6e74726f6c3a206163636f756e7420000000000000000000600082015250565b600061580e6017836157cd565b9150615819826157d8565b601782019050919050565b600061582f826142c5565b61583981856157cd565b93506158498185602086016142e1565b80840191505092915050565b7f206973206d697373696e6720726f6c6520000000000000000000000000000000600082015250565b600061588b6011836157cd565b915061589682615855565b601182019050919050565b60006158ac82615801565b91506158b88285615824565b91506158c38261587e565b91506158cf8284615824565b91508190509392505050565b7f45524332303a20617070726f76652066726f6d20746865207a65726f2061646460008201527f7265737300000000000000000000000000000000000000000000000000000000602082015250565b60006159376024836142d0565b9150615942826158db565b604082019050919050565b600060208201905081810360008301526159668161592a565b9050919050565b7f45524332303a20617070726f766520746f20746865207a65726f20616464726560008201527f7373000000000000000000000000000000000000000000000000000000000000602082015250565b60006159c96022836142d0565b91506159d48261596d565b604082019050919050565b600060208201905081810360008301526159f8816159bc565b9050919050565b7f45524332303a207472616e736665722066726f6d20746865207a65726f20616460008201527f6472657373000000000000000000000000000000000000000000000000000000602082015250565b6000615a5b6025836142d0565b9150615a66826159ff565b604082019050919050565b60006020820190508181036000830152615a8a81615a4e565b9050919050565b7f45524332303a207472616e7366657220746f20746865207a65726f206164647260008201527f6573730000000000000000000000000000000000000000000000000000000000602082015250565b6000615aed6023836142d0565b9150615af882615a91565b604082019050919050565b60006020820190508181036000830152615b1c81615ae0565b9050919050565b7f45524332303a207472616e7366657220616d6f756e742065786365656473206260008201527f616c616e63650000000000000000000000000000000000000000000000000000602082015250565b6000615b7f6026836142d0565b9150615b8a82615b23565b604082019050919050565b60006020820190508181036000830152615bae81615b72565b9050919050565b6000604082019050615bca60008301856141a7565b615bd7602083018461429b565b9392505050565b7f45524332303a206d696e7420746f20746865207a65726f206164647265737300600082015250565b6000615c14601f836142d0565b9150615c1f82615bde565b602082019050919050565b60006020820190508181036000830152615c4381615c07565b9050919050565b7f45524332303a206275726e2066726f6d20746865207a65726f2061646472657360008201527f7300000000000000000000000000000000000000000000000000000000000000602082015250565b6000615ca66021836142d0565b9150615cb182615c4a565b604082019050919050565b60006020820190508181036000830152615cd581615c99565b9050919050565b7f45524332303a206275726e20616d6f756e7420657863656564732062616c616e60008201527f6365000000000000000000000000000000000000000000000000000000000000602082015250565b6000615d386022836142d0565b9150615d4382615cdc565b604082019050919050565b60006020820190508181036000830152615d6781615d2b565b9050919050565b6000615d798261419d565b9150615d848361419d565b9250817fffffffffffffffffffffffffffffffffffffffffffffffffffffffffffffffff0483118215151615615dbd57615dbc614d3a565b5b828202905092915050565b7f4e487b7100000000000000000000000000000000000000000000000000000000600052603260045260246000fd5b6000615e028261419d565b91506000821415615e1657615e15614d3a565b5b600182039050919050565b7f537472696e67733a20686578206c656e67746820696e73756666696369656e74600082015250565b6000615e576020836142d0565b9150615e6282615e21565b602082019050919050565b60006020820190508181036000830152615e8681615e4a565b9050919050565b7f4e487b7100000000000000000000000000000000000000000000000000000000600052603160045260246000fdfea2646970667358221220bee6bbd24b8ed763777a2fe5bae5674f9ef01ad6e349b7a37efdadda315401c764736f6c63430008090033",
  "immutableReferences": {},
  "source": "// SPDX-License-Identifier: MIT\npragma solidity 0.8.9;\n\n// import \"@openzeppelin/contracts/token/ERC20/ERC20.sol\";\nimport \"@openzeppelin/contracts/access/AccessControl.sol\";\nimport \"@openzeppelin/contracts/utils/structs/EnumerableSet.sol\";\nimport \"@openzeppelin/contracts/utils/math/Math.sol\";\nimport \"./MoretInterfaces.sol\";\nimport \"./MarketLibrary.sol\";\n\ncontract MoretMarketMaker is ERC20, AccessControl, EOption\n{\n  using EnumerableSet for EnumerableSet.UintSet;\n  using EnumerableSet for EnumerableSet.AddressSet;\n\n  bytes32 public constant ADMIN_ROLE = keccak256(\"ADMIN_ROLE\");\n  bytes32 public constant EXCHANGE_ROLE = keccak256(\"EXCHANGE_ROLE\");\n  bytes32 public constant MINER_ROLE = keccak256(\"MINER_ROLE\");\n  mapping(address=> EnumerableSet.UintSet) internal activeOptionsPerOwner;\n  EnumerableSet.UintSet internal activeOptions;\n\n  uint256 private multiplier = 10 ** 18;\n  uint256 public settlementFee= 5 * (10 ** 15);\n  uint256 public exerciseFee= 5 * (10 ** 15);\n  IOptionVault internal optionVault;\n\n  address public underlyingAddress;\n  address public fundingAddress;\n  address internal maintenanceAddress;\n  address public aaveAddressProviderAddress;\n  uint256 public lendingPoolRateMode = 2;\n  uint256 public swapSlippage = 5 * (10 ** 15);\n  \n  constructor(string memory _name, string memory _symbol, address _underlyingAddress, address _fundingAddress, address _optionAddress, address _aaveAddressProviderAddress) ERC20(_name, _symbol){\n    _setupRole(DEFAULT_ADMIN_ROLE, msg.sender);\n    _setupRole(ADMIN_ROLE, msg.sender);\n    _setupRole(EXCHANGE_ROLE, msg.sender);\n    _setupRole(MINER_ROLE, msg.sender);\n    maintenanceAddress = msg.sender;\n    fundingAddress = _fundingAddress;\n    underlyingAddress = _underlyingAddress;\n    optionVault = IOptionVault(_optionAddress);\n    aaveAddressProviderAddress = _aaveAddressProviderAddress;\n    _mint(msg.sender, multiplier);}\n\n  function recordOptionPurchase(address _purchaser, uint256 _id) external  onlyRole(EXCHANGE_ROLE){\n    activeOptionsPerOwner[_purchaser].add(_id);\n    activeOptions.add(_id);}\n\n  function getAggregateGamma(bool _ignoreSells) public onlyRole(EXCHANGE_ROLE) view returns(int256 _gamma){\n    (uint256 _price,) = optionVault.queryPrice();\n    _gamma= 0;\n    for(uint256 i=0;i<activeOptions.length();i++){\n      _gamma += optionVault.calculateContractGamma(uint256(activeOptions.at(i)),_price, _ignoreSells);}}\n\n  function getAggregateDelta(bool _ignoreSells) internal view returns(int256 _delta,uint256 _price){\n    (_price,) = optionVault.queryPrice();\n    _delta= 0;\n    for(uint256 i=0;i<activeOptions.length();i++){\n      _delta += optionVault.calculateContractDelta(uint256(activeOptions.at(i)),_price, _ignoreSells);}}\n\n  function getBalances() public view returns(uint256 _underlyingBalance, uint256 _fundingBalance, uint256 _collateralBalance, uint256 _debtBalance){\n    address _protocolDataProviderAddress = ILendingPoolAddressesProvider(aaveAddressProviderAddress).getAddress(\"0x1\");//bytes32(uint256(1)));\n    ( _underlyingBalance, ,  _debtBalance) = MarketLibrary.getTokenBalances(address(this), _protocolDataProviderAddress, underlyingAddress);\n    ( _fundingBalance,  _collateralBalance,) = MarketLibrary.getTokenBalances(address(this), _protocolDataProviderAddress, fundingAddress); }\n\n  function anyOptionExpiring() external view returns(bool _isExpiring) {\n    _isExpiring = false;\n    for(uint256 i=0;i<activeOptions.length();i++){\n      if(optionVault.isOptionExpiring(uint256(activeOptions.at(i)))){\n        _isExpiring = true;\n        break;}}}\n\n  function expireOptions() external  returns(uint256 _expiringId){\n    _expiringId = 0;\n    for(uint256 i=0;i<activeOptions.length();i++){\n      if(optionVault.isOptionExpiring(uint256(activeOptions.at(i)))){\n        _expiringId = uint256(activeOptions.at(i));\n        break;}}\n    if(_expiringId >0) {\n      ( uint256 _payoff, uint256 _payback) = optionVault.getContractPayoff(_expiringId);\n      require(_payback < MarketLibrary.balanceDef(fundingAddress, address(this)), \"Balance insufficient.\");\n      if(_payback > 0){\n        optionVault.stampExpiredOption(_expiringId);\n        activeOptionsPerOwner[optionVault.getOptionHolder(_expiringId)].remove(_expiringId);\n        activeOptions.remove(_expiringId);\n\n        _payoff = MarketLibrary.cvtDecimals(_payoff, fundingAddress);\n        _payback = MarketLibrary.cvtDecimals(_payback, fundingAddress);\n        uint256 _settleFeeAmount = Math.max(MulDiv(_payoff, settlementFee, multiplier), _payback);\n        uint256 _exerciseFeeAmount = Math.max(MulDiv(_payoff, exerciseFee, multiplier), _payback - _settleFeeAmount);\n\n        require(IERC20(fundingAddress).transfer(optionVault.getOptionHolder(_expiringId), _payback - _settleFeeAmount - _exerciseFeeAmount));\n        require(IERC20(fundingAddress).transfer(maintenanceAddress, _exerciseFeeAmount));\n        require(IERC20(fundingAddress).transfer(msg.sender, _settleFeeAmount));}}}\n\n  function getAggregateNotional() internal view returns(uint256 _notional) {\n    _notional= 0;\n    for(uint256 i=0;i<activeOptions.length();i++){\n      _notional += optionVault.queryOptionNotional(uint256(activeOptions.at(i)), false);} }\n\n  function calcCapital(bool _net, bool _average) public view returns(uint256 _capital){\n      (uint256 _price, ) = optionVault.queryPrice();\n      (uint256 _underlying_balance, uint256 _funding_balance, uint256 _collateral_balance, uint256 _debt_balance) = getBalances();\n      _capital = _funding_balance + _collateral_balance + MulDiv(_underlying_balance, _price, multiplier);\n      require(_capital > MulDiv(_debt_balance, _price, multiplier), \"Negative equity.\");\n      _capital -= MulDiv(_debt_balance, _price, multiplier);\n\n      if(_net){ _capital -= Math.min(getAggregateNotional(), _capital);}\n      if(_average){ \n        if(totalSupply() > 0) _capital = MulDiv(_capital , multiplier , totalSupply()); \n        if(totalSupply() == 0 && _capital == 0) _capital = multiplier;}}\n    \n  function addCapital(uint256 _depositAmount) external {\n      uint256 _mintMPTokenAmount = MulDiv(MarketLibrary.cvtDef(_depositAmount, fundingAddress), multiplier, calcCapital(false, true));\n      require(ERC20(fundingAddress).transferFrom(msg.sender, address(this), _depositAmount));\n      _mint(msg.sender, _mintMPTokenAmount);\n      emit capitalAdded(msg.sender, _depositAmount, _mintMPTokenAmount);}\n\n  function withdrawCapital(uint256 _burnMPTokenAmount) external {\n      uint256 _withdrawValue = MarketLibrary.cvtDecimals(MulDiv(calcCapital(true, true),  _burnMPTokenAmount , multiplier), fundingAddress); \n      require(IERC20(fundingAddress).balanceOf(address(this)) > _withdrawValue,\"Insufficient balance\");\n      _burn(msg.sender, _burnMPTokenAmount);\n      require(ERC20(fundingAddress).transfer(msg.sender, _withdrawValue));\n      emit capitalWithdrawn(msg.sender, _burnMPTokenAmount, _withdrawValue);}\n  \n  function approveSpending(address _tokenAddress, address _spenderAddress, uint256 _amount) external onlyRole(MINER_ROLE){\n    ERC20(_tokenAddress).approve(_spenderAddress, _amount);}\n\n  function calcHedgeTradesForSwaps() external onlyRole(MINER_ROLE) view returns(int256 _tradeUnderlyingAmount, int256 _tradeFundingAmount){\n    (int256 _aggregateDelta, uint256 _price) = getAggregateDelta(false);\n    _tradeUnderlyingAmount = (_aggregateDelta >= 0? _aggregateDelta: int256(0)) - int256(MarketLibrary.balanceDef(underlyingAddress, address(this)));\n    _tradeFundingAmount = MarketLibrary.cvtDecimalsInt(OptionLibrary.getOpposeTrade(_tradeUnderlyingAmount, _price, swapSlippage), fundingAddress);\n    _tradeUnderlyingAmount = MarketLibrary.cvtDecimalsInt(_tradeUnderlyingAmount, underlyingAddress);}\n\n  function calcHedgeTradesForLoans() external onlyRole(MINER_ROLE) view returns(int256 _loanTradeAmount, int256 _collateralChange, address _loanAddress, address _collateralAddress){\n    (int256 _aggregateDelta, uint256 _price) = getAggregateDelta(false);\n    address _protocolDataProviderAddress = ILendingPoolAddressesProvider(aaveAddressProviderAddress).getAddress(\"0x1\");//bytes32(uint256(1)));\n    uint256 _targetLoan = 0;\n    (_loanTradeAmount, _targetLoan, _loanAddress) = MarketLibrary.getLoanTrade(address(this), _protocolDataProviderAddress, _aggregateDelta, underlyingAddress, lendingPoolRateMode == 2);\n    (_collateralChange, _collateralAddress) = MarketLibrary.getCollateralTrade(address(this), _protocolDataProviderAddress, _targetLoan, _price, fundingAddress, underlyingAddress);}\n\n  // function depositCollateral(uint256 _addCollateral, address _lendingPoolAddress) external onlyRole(EXCHANGE_ROLE){\n  //   ERC20(fundingAddress).increaseAllowance(_lendingPoolAddress, _addCollateral);\n  //   ILendingPool(_lendingPoolAddress).deposit(fundingAddress, _addCollateral, address(this), 0);}\n\n  // function withdrawCollateral(uint256 _removeCollateral, address _lendingPoolAddress) external onlyRole(EXCHANGE_ROLE){\n  //   (address _collateralAddress,,) = MarketLibrary.getLendingTokenAddresses(protocolDataProviderAddress, fundingAddress);\n  //   ERC20(_collateralAddress).increaseAllowance(_lendingPoolAddress, _removeCollateral);\n  //   ILendingPool(_lendingPoolAddress).withdraw(fundingAddress, _removeCollateral, address(this));}\n\n  // function borrowLoans(uint256 _borrowAmount , address _lendingPoolAddress, uint256 _lendingPoolRateMode)  external onlyRole(EXCHANGE_ROLE) {\n  //   ILendingPool(_lendingPoolAddress).borrow(underlyingAddress, _borrowAmount, _lendingPoolRateMode,  0, address(this));}\n\n  // function repayLoans(uint256 _repayAmount, address _lendingPoolAddress, uint256 _lendingPoolRateMode)  external onlyRole(EXCHANGE_ROLE) {\n  //   (,address _stableDebt, address _debtToken) = MarketLibrary.getLendingTokenAddresses(protocolDataProviderAddress, underlyingAddress);\n  //   if(_lendingPoolRateMode==1) _debtToken = _stableDebt;\n  //   ERC20(_debtToken).approve(_lendingPoolAddress, _repayAmount);\n  //   ERC20(underlyingAddress).approve(_lendingPoolAddress, _repayAmount);\n  //   ILendingPool(_lendingPoolAddress).repay(underlyingAddress, _repayAmount, _lendingPoolRateMode, address(this));}\n\n  function resetSettlementFee(uint256 _newFee) external onlyRole(ADMIN_ROLE){ require(_newFee < multiplier); settlementFee = _newFee;}\n  function resetExerciseFee(uint256 _newFee) external onlyRole(ADMIN_ROLE){ require(_newFee < multiplier); exerciseFee = _newFee;}\n  // function resetMaintenance(address _newAddress) external onlyRole(ADMIN_ROLE){ maintenanceAddress = _newAddress;}\n  function resetSlippage(uint256 _slippage) external onlyRole(ADMIN_ROLE){ swapSlippage = _slippage;}\n  function resetLendingPoolRateMode(uint256 _newRateMode) external onlyRole(ADMIN_ROLE) {\n    require(_newRateMode == 1 || _newRateMode == 2);\n    lendingPoolRateMode = _newRateMode;}\n  function getHoldersOptionCount(address _address) external view returns(uint256){return activeOptionsPerOwner[_address].length();}\n  function getHoldersOption(uint256 _index, address _address) external view returns(OptionLibrary.Option memory) {return optionVault.getOption(activeOptionsPerOwner[_address].at(_index));}\n\n}\n",
  "sourcePath": "/Users/apple/Documents/GitHub/moret/contracts/MoretMarketMaker.sol",
  "compiler": {
    "name": "solc",
    "version": "0.8.9+commit.e5eed63a.Emscripten.clang"
  },
  "schemaVersion": "3.4.3",
  "updatedAt": "2021-11-10T20:12:01.404Z",
  "devdoc": {
    "kind": "dev",
    "methods": {
      "allowance(address,address)": {
        "details": "See {IERC20-allowance}."
      },
      "approve(address,uint256)": {
        "details": "See {IERC20-approve}. Requirements: - `spender` cannot be the zero address."
      },
      "balanceOf(address)": {
        "details": "See {IERC20-balanceOf}."
      },
      "decimals()": {
        "details": "Returns the number of decimals used to get its user representation. For example, if `decimals` equals `2`, a balance of `505` tokens should be displayed to a user as `5.05` (`505 / 10 ** 2`). Tokens usually opt for a value of 18, imitating the relationship between Ether and Wei. This is the value {ERC20} uses, unless this function is overridden; NOTE: This information is only used for _display_ purposes: it in no way affects any of the arithmetic of the contract, including {IERC20-balanceOf} and {IERC20-transfer}."
      },
      "decreaseAllowance(address,uint256)": {
        "details": "Atomically decreases the allowance granted to `spender` by the caller. This is an alternative to {approve} that can be used as a mitigation for problems described in {IERC20-approve}. Emits an {Approval} event indicating the updated allowance. Requirements: - `spender` cannot be the zero address. - `spender` must have allowance for the caller of at least `subtractedValue`."
      },
      "getRoleAdmin(bytes32)": {
        "details": "Returns the admin role that controls `role`. See {grantRole} and {revokeRole}. To change a role's admin, use {_setRoleAdmin}."
      },
      "grantRole(bytes32,address)": {
        "details": "Grants `role` to `account`. If `account` had not been already granted `role`, emits a {RoleGranted} event. Requirements: - the caller must have ``role``'s admin role."
      },
      "hasRole(bytes32,address)": {
        "details": "Returns `true` if `account` has been granted `role`."
      },
      "increaseAllowance(address,uint256)": {
        "details": "Atomically increases the allowance granted to `spender` by the caller. This is an alternative to {approve} that can be used as a mitigation for problems described in {IERC20-approve}. Emits an {Approval} event indicating the updated allowance. Requirements: - `spender` cannot be the zero address."
      },
      "name()": {
        "details": "Returns the name of the token."
      },
      "renounceRole(bytes32,address)": {
        "details": "Revokes `role` from the calling account. Roles are often managed via {grantRole} and {revokeRole}: this function's purpose is to provide a mechanism for accounts to lose their privileges if they are compromised (such as when a trusted device is misplaced). If the calling account had been granted `role`, emits a {RoleRevoked} event. Requirements: - the caller must be `account`."
      },
      "revokeRole(bytes32,address)": {
        "details": "Revokes `role` from `account`. If `account` had been granted `role`, emits a {RoleRevoked} event. Requirements: - the caller must have ``role``'s admin role."
      },
      "supportsInterface(bytes4)": {
        "details": "See {IERC165-supportsInterface}."
      },
      "symbol()": {
        "details": "Returns the symbol of the token, usually a shorter version of the name."
      },
      "totalSupply()": {
        "details": "See {IERC20-totalSupply}."
      },
      "transfer(address,uint256)": {
        "details": "See {IERC20-transfer}. Requirements: - `recipient` cannot be the zero address. - the caller must have a balance of at least `amount`."
      },
      "transferFrom(address,address,uint256)": {
        "details": "See {IERC20-transferFrom}. Emits an {Approval} event indicating the updated allowance. This is not required by the EIP. See the note at the beginning of {ERC20}. Requirements: - `sender` and `recipient` cannot be the zero address. - `sender` must have a balance of at least `amount`. - the caller must have allowance for ``sender``'s tokens of at least `amount`."
      }
    },
    "version": 1
  },
  "userdoc": {
    "kind": "user",
    "methods": {},
    "version": 1
  }
}