{
  "contractName": "MoretMarketMaker",
  "abi": [
    {
      "inputs": [
        {
          "internalType": "string",
          "name": "_name",
          "type": "string"
        },
        {
          "internalType": "string",
          "name": "_symbol",
          "type": "string"
        },
        {
          "internalType": "address",
          "name": "_underlyingAddress",
          "type": "address"
        },
        {
          "internalType": "address",
          "name": "_fundingAddress",
          "type": "address"
        },
        {
          "internalType": "address",
          "name": "_optionAddress",
          "type": "address"
        },
        {
          "internalType": "address",
          "name": "_swapRouterAddress",
          "type": "address"
        },
        {
          "internalType": "address",
          "name": "_lendingPoolAddressProvider",
          "type": "address"
        }
      ],
      "stateMutability": "nonpayable",
      "type": "constructor"
    },
    {
      "anonymous": false,
      "inputs": [
        {
          "indexed": true,
          "internalType": "address",
          "name": "owner",
          "type": "address"
        },
        {
          "indexed": true,
          "internalType": "address",
          "name": "spender",
          "type": "address"
        },
        {
          "indexed": false,
          "internalType": "uint256",
          "name": "value",
          "type": "uint256"
        }
      ],
      "name": "Approval",
      "type": "event"
    },
    {
      "anonymous": false,
      "inputs": [
        {
          "indexed": true,
          "internalType": "bytes32",
          "name": "role",
          "type": "bytes32"
        },
        {
          "indexed": true,
          "internalType": "bytes32",
          "name": "previousAdminRole",
          "type": "bytes32"
        },
        {
          "indexed": true,
          "internalType": "bytes32",
          "name": "newAdminRole",
          "type": "bytes32"
        }
      ],
      "name": "RoleAdminChanged",
      "type": "event"
    },
    {
      "anonymous": false,
      "inputs": [
        {
          "indexed": true,
          "internalType": "bytes32",
          "name": "role",
          "type": "bytes32"
        },
        {
          "indexed": true,
          "internalType": "address",
          "name": "account",
          "type": "address"
        },
        {
          "indexed": true,
          "internalType": "address",
          "name": "sender",
          "type": "address"
        }
      ],
      "name": "RoleGranted",
      "type": "event"
    },
    {
      "anonymous": false,
      "inputs": [
        {
          "indexed": true,
          "internalType": "bytes32",
          "name": "role",
          "type": "bytes32"
        },
        {
          "indexed": true,
          "internalType": "address",
          "name": "account",
          "type": "address"
        },
        {
          "indexed": true,
          "internalType": "address",
          "name": "sender",
          "type": "address"
        }
      ],
      "name": "RoleRevoked",
      "type": "event"
    },
    {
      "anonymous": false,
      "inputs": [
        {
          "indexed": true,
          "internalType": "address",
          "name": "from",
          "type": "address"
        },
        {
          "indexed": true,
          "internalType": "address",
          "name": "to",
          "type": "address"
        },
        {
          "indexed": false,
          "internalType": "uint256",
          "name": "value",
          "type": "uint256"
        }
      ],
      "name": "Transfer",
      "type": "event"
    },
    {
      "anonymous": false,
      "inputs": [
        {
          "indexed": false,
          "internalType": "address",
          "name": "_recipient",
          "type": "address"
        },
        {
          "indexed": false,
          "internalType": "uint256",
          "name": "_mintMPTokenAmount",
          "type": "uint256"
        },
        {
          "indexed": false,
          "internalType": "uint256",
          "name": "_addedValue",
          "type": "uint256"
        }
      ],
      "name": "capitalAdded",
      "type": "event"
    },
    {
      "anonymous": false,
      "inputs": [
        {
          "indexed": false,
          "internalType": "address",
          "name": "_recipient",
          "type": "address"
        },
        {
          "indexed": false,
          "internalType": "uint256",
          "name": "_burnMPTokenAmount",
          "type": "uint256"
        },
        {
          "indexed": false,
          "internalType": "uint256",
          "name": "_withdrawValue",
          "type": "uint256"
        }
      ],
      "name": "capitalWithdrawn",
      "type": "event"
    },
    {
      "anonymous": false,
      "inputs": [
        {
          "indexed": true,
          "internalType": "address",
          "name": "_purchaser",
          "type": "address"
        },
        {
          "components": [
            {
              "internalType": "enum OptionLibrary.PayoffType",
              "name": "poType",
              "type": "uint8"
            },
            {
              "internalType": "enum OptionLibrary.OptionSide",
              "name": "side",
              "type": "uint8"
            },
            {
              "internalType": "enum OptionLibrary.OptionStatus",
              "name": "status",
              "type": "uint8"
            },
            {
              "internalType": "address",
              "name": "holder",
              "type": "address"
            },
            {
              "internalType": "uint256",
              "name": "id",
              "type": "uint256"
            },
            {
              "internalType": "uint256",
              "name": "createTime",
              "type": "uint256"
            },
            {
              "internalType": "uint256",
              "name": "effectiveTime",
              "type": "uint256"
            },
            {
              "internalType": "uint256",
              "name": "tenor",
              "type": "uint256"
            },
            {
              "internalType": "uint256",
              "name": "exerciseTime",
              "type": "uint256"
            },
            {
              "internalType": "uint256",
              "name": "amount",
              "type": "uint256"
            },
            {
              "internalType": "uint256",
              "name": "spot",
              "type": "uint256"
            },
            {
              "internalType": "uint256",
              "name": "strike",
              "type": "uint256"
            },
            {
              "internalType": "uint256",
              "name": "volatility",
              "type": "uint256"
            },
            {
              "internalType": "uint256",
              "name": "premium",
              "type": "uint256"
            },
            {
              "internalType": "uint256",
              "name": "fee",
              "type": "uint256"
            }
          ],
          "indexed": false,
          "internalType": "struct OptionLibrary.Option",
          "name": "_option",
          "type": "tuple"
        },
        {
          "indexed": false,
          "internalType": "uint256",
          "name": "_cost",
          "type": "uint256"
        },
        {
          "indexed": false,
          "internalType": "bool",
          "name": "_inVol",
          "type": "bool"
        }
      ],
      "name": "newOptionBought",
      "type": "event"
    },
    {
      "anonymous": false,
      "inputs": [
        {
          "indexed": false,
          "internalType": "address",
          "name": "_purchaser",
          "type": "address"
        },
        {
          "indexed": false,
          "internalType": "uint256",
          "name": "_time",
          "type": "uint256"
        },
        {
          "indexed": false,
          "internalType": "uint256",
          "name": "_tenor",
          "type": "uint256"
        },
        {
          "indexed": false,
          "internalType": "uint256",
          "name": "_amount",
          "type": "uint256"
        }
      ],
      "name": "newVolatilityTokenBought",
      "type": "event"
    },
    {
      "anonymous": false,
      "inputs": [
        {
          "indexed": true,
          "internalType": "address",
          "name": "_purchaser",
          "type": "address"
        },
        {
          "components": [
            {
              "internalType": "enum OptionLibrary.PayoffType",
              "name": "poType",
              "type": "uint8"
            },
            {
              "internalType": "enum OptionLibrary.OptionSide",
              "name": "side",
              "type": "uint8"
            },
            {
              "internalType": "enum OptionLibrary.OptionStatus",
              "name": "status",
              "type": "uint8"
            },
            {
              "internalType": "address",
              "name": "holder",
              "type": "address"
            },
            {
              "internalType": "uint256",
              "name": "id",
              "type": "uint256"
            },
            {
              "internalType": "uint256",
              "name": "createTime",
              "type": "uint256"
            },
            {
              "internalType": "uint256",
              "name": "effectiveTime",
              "type": "uint256"
            },
            {
              "internalType": "uint256",
              "name": "tenor",
              "type": "uint256"
            },
            {
              "internalType": "uint256",
              "name": "exerciseTime",
              "type": "uint256"
            },
            {
              "internalType": "uint256",
              "name": "amount",
              "type": "uint256"
            },
            {
              "internalType": "uint256",
              "name": "spot",
              "type": "uint256"
            },
            {
              "internalType": "uint256",
              "name": "strike",
              "type": "uint256"
            },
            {
              "internalType": "uint256",
              "name": "volatility",
              "type": "uint256"
            },
            {
              "internalType": "uint256",
              "name": "premium",
              "type": "uint256"
            },
            {
              "internalType": "uint256",
              "name": "fee",
              "type": "uint256"
            }
          ],
          "indexed": false,
          "internalType": "struct OptionLibrary.Option",
          "name": "_option",
          "type": "tuple"
        },
        {
          "indexed": false,
          "internalType": "uint256",
          "name": "_payoff",
          "type": "uint256"
        }
      ],
      "name": "optionExercised",
      "type": "event"
    },
    {
      "inputs": [],
      "name": "ADMIN_ROLE",
      "outputs": [
        {
          "internalType": "bytes32",
          "name": "",
          "type": "bytes32"
        }
      ],
      "stateMutability": "view",
      "type": "function"
    },
    {
      "inputs": [],
      "name": "DEFAULT_ADMIN_ROLE",
      "outputs": [
        {
          "internalType": "bytes32",
          "name": "",
          "type": "bytes32"
        }
      ],
      "stateMutability": "view",
      "type": "function"
    },
    {
      "inputs": [
        {
          "internalType": "address",
          "name": "owner",
          "type": "address"
        },
        {
          "internalType": "address",
          "name": "spender",
          "type": "address"
        }
      ],
      "name": "allowance",
      "outputs": [
        {
          "internalType": "uint256",
          "name": "",
          "type": "uint256"
        }
      ],
      "stateMutability": "view",
      "type": "function"
    },
    {
      "inputs": [
        {
          "internalType": "address",
          "name": "spender",
          "type": "address"
        },
        {
          "internalType": "uint256",
          "name": "amount",
          "type": "uint256"
        }
      ],
      "name": "approve",
      "outputs": [
        {
          "internalType": "bool",
          "name": "",
          "type": "bool"
        }
      ],
      "stateMutability": "nonpayable",
      "type": "function"
    },
    {
      "inputs": [
        {
          "internalType": "address",
          "name": "account",
          "type": "address"
        }
      ],
      "name": "balanceOf",
      "outputs": [
        {
          "internalType": "uint256",
          "name": "",
          "type": "uint256"
        }
      ],
      "stateMutability": "view",
      "type": "function"
    },
    {
      "inputs": [],
      "name": "callExposure",
      "outputs": [
        {
          "internalType": "uint256",
          "name": "",
          "type": "uint256"
        }
      ],
      "stateMutability": "view",
      "type": "function"
    },
    {
      "inputs": [],
      "name": "decimals",
      "outputs": [
        {
          "internalType": "uint8",
          "name": "",
          "type": "uint8"
        }
      ],
      "stateMutability": "view",
      "type": "function"
    },
    {
      "inputs": [
        {
          "internalType": "address",
          "name": "spender",
          "type": "address"
        },
        {
          "internalType": "uint256",
          "name": "subtractedValue",
          "type": "uint256"
        }
      ],
      "name": "decreaseAllowance",
      "outputs": [
        {
          "internalType": "bool",
          "name": "",
          "type": "bool"
        }
      ],
      "stateMutability": "nonpayable",
      "type": "function"
    },
    {
      "inputs": [],
      "name": "fundingAddress",
      "outputs": [
        {
          "internalType": "address",
          "name": "",
          "type": "address"
        }
      ],
      "stateMutability": "view",
      "type": "function"
    },
    {
      "inputs": [
        {
          "internalType": "bytes32",
          "name": "role",
          "type": "bytes32"
        }
      ],
      "name": "getRoleAdmin",
      "outputs": [
        {
          "internalType": "bytes32",
          "name": "",
          "type": "bytes32"
        }
      ],
      "stateMutability": "view",
      "type": "function"
    },
    {
      "inputs": [
        {
          "internalType": "bytes32",
          "name": "role",
          "type": "bytes32"
        },
        {
          "internalType": "address",
          "name": "account",
          "type": "address"
        }
      ],
      "name": "grantRole",
      "outputs": [],
      "stateMutability": "nonpayable",
      "type": "function"
    },
    {
      "inputs": [
        {
          "internalType": "bytes32",
          "name": "role",
          "type": "bytes32"
        },
        {
          "internalType": "address",
          "name": "account",
          "type": "address"
        }
      ],
      "name": "hasRole",
      "outputs": [
        {
          "internalType": "bool",
          "name": "",
          "type": "bool"
        }
      ],
      "stateMutability": "view",
      "type": "function"
    },
    {
      "inputs": [
        {
          "internalType": "address",
          "name": "spender",
          "type": "address"
        },
        {
          "internalType": "uint256",
          "name": "addedValue",
          "type": "uint256"
        }
      ],
      "name": "increaseAllowance",
      "outputs": [
        {
          "internalType": "bool",
          "name": "",
          "type": "bool"
        }
      ],
      "stateMutability": "nonpayable",
      "type": "function"
    },
    {
      "inputs": [],
      "name": "lendingPoolRateMode",
      "outputs": [
        {
          "internalType": "uint256",
          "name": "",
          "type": "uint256"
        }
      ],
      "stateMutability": "view",
      "type": "function"
    },
    {
      "inputs": [],
      "name": "lockedPremium",
      "outputs": [
        {
          "internalType": "uint256",
          "name": "",
          "type": "uint256"
        }
      ],
      "stateMutability": "view",
      "type": "function"
    },
    {
      "inputs": [],
      "name": "name",
      "outputs": [
        {
          "internalType": "string",
          "name": "",
          "type": "string"
        }
      ],
      "stateMutability": "view",
      "type": "function"
    },
    {
      "inputs": [],
      "name": "putExposure",
      "outputs": [
        {
          "internalType": "uint256",
          "name": "",
          "type": "uint256"
        }
      ],
      "stateMutability": "view",
      "type": "function"
    },
    {
      "inputs": [
        {
          "internalType": "bytes32",
          "name": "role",
          "type": "bytes32"
        },
        {
          "internalType": "address",
          "name": "account",
          "type": "address"
        }
      ],
      "name": "renounceRole",
      "outputs": [],
      "stateMutability": "nonpayable",
      "type": "function"
    },
    {
      "inputs": [
        {
          "internalType": "bytes32",
          "name": "role",
          "type": "bytes32"
        },
        {
          "internalType": "address",
          "name": "account",
          "type": "address"
        }
      ],
      "name": "revokeRole",
      "outputs": [],
      "stateMutability": "nonpayable",
      "type": "function"
    },
    {
      "inputs": [],
      "name": "shortPosition",
      "outputs": [
        {
          "internalType": "uint256",
          "name": "",
          "type": "uint256"
        }
      ],
      "stateMutability": "view",
      "type": "function"
    },
    {
      "inputs": [
        {
          "internalType": "bytes4",
          "name": "interfaceId",
          "type": "bytes4"
        }
      ],
      "name": "supportsInterface",
      "outputs": [
        {
          "internalType": "bool",
          "name": "",
          "type": "bool"
        }
      ],
      "stateMutability": "view",
      "type": "function"
    },
    {
      "inputs": [],
      "name": "swapSlp",
      "outputs": [
        {
          "internalType": "uint256",
          "name": "",
          "type": "uint256"
        }
      ],
      "stateMutability": "view",
      "type": "function"
    },
    {
      "inputs": [],
      "name": "symbol",
      "outputs": [
        {
          "internalType": "string",
          "name": "",
          "type": "string"
        }
      ],
      "stateMutability": "view",
      "type": "function"
    },
    {
      "inputs": [],
      "name": "totalSupply",
      "outputs": [
        {
          "internalType": "uint256",
          "name": "",
          "type": "uint256"
        }
      ],
      "stateMutability": "view",
      "type": "function"
    },
    {
      "inputs": [
        {
          "internalType": "address",
          "name": "recipient",
          "type": "address"
        },
        {
          "internalType": "uint256",
          "name": "amount",
          "type": "uint256"
        }
      ],
      "name": "transfer",
      "outputs": [
        {
          "internalType": "bool",
          "name": "",
          "type": "bool"
        }
      ],
      "stateMutability": "nonpayable",
      "type": "function"
    },
    {
      "inputs": [
        {
          "internalType": "address",
          "name": "sender",
          "type": "address"
        },
        {
          "internalType": "address",
          "name": "recipient",
          "type": "address"
        },
        {
          "internalType": "uint256",
          "name": "amount",
          "type": "uint256"
        }
      ],
      "name": "transferFrom",
      "outputs": [
        {
          "internalType": "bool",
          "name": "",
          "type": "bool"
        }
      ],
      "stateMutability": "nonpayable",
      "type": "function"
    },
    {
      "inputs": [],
      "name": "underlyingAddress",
      "outputs": [
        {
          "internalType": "address",
          "name": "",
          "type": "address"
        }
      ],
      "stateMutability": "view",
      "type": "function"
    },
    {
      "stateMutability": "payable",
      "type": "receive"
    },
    {
      "inputs": [
        {
          "internalType": "address",
          "name": "_purchaser",
          "type": "address"
        },
        {
          "internalType": "uint256",
          "name": "_id",
          "type": "uint256"
        },
        {
          "internalType": "uint256",
          "name": "_newPremium",
          "type": "uint256"
        },
        {
          "internalType": "uint256",
          "name": "_newCallExposure",
          "type": "uint256"
        },
        {
          "internalType": "uint256",
          "name": "_newPutExposure",
          "type": "uint256"
        }
      ],
      "name": "recordOptionPurhcase",
      "outputs": [],
      "stateMutability": "nonpayable",
      "type": "function"
    },
    {
      "inputs": [
        {
          "internalType": "address",
          "name": "_purchaser",
          "type": "address"
        },
        {
          "internalType": "uint256",
          "name": "_id",
          "type": "uint256"
        },
        {
          "internalType": "uint256",
          "name": "_removePremium",
          "type": "uint256"
        },
        {
          "internalType": "uint256",
          "name": "_removeCallExposure",
          "type": "uint256"
        },
        {
          "internalType": "uint256",
          "name": "_removePutExposure",
          "type": "uint256"
        }
      ],
      "name": "recordOptionRemoval",
      "outputs": [],
      "stateMutability": "nonpayable",
      "type": "function"
    },
    {
      "inputs": [],
      "name": "calcTotalDelta",
      "outputs": [
        {
          "internalType": "int256",
          "name": "",
          "type": "int256"
        }
      ],
      "stateMutability": "view",
      "type": "function"
    },
    {
      "inputs": [
        {
          "internalType": "uint256",
          "name": "_deadline",
          "type": "uint256"
        }
      ],
      "name": "updateHedges",
      "outputs": [],
      "stateMutability": "payable",
      "type": "function"
    },
    {
      "inputs": [
        {
          "internalType": "uint256",
          "name": "_depositAmount",
          "type": "uint256"
        }
      ],
      "name": "addCapital",
      "outputs": [],
      "stateMutability": "payable",
      "type": "function"
    },
    {
      "inputs": [
        {
          "internalType": "uint256",
          "name": "_burnMPTokenAmount",
          "type": "uint256"
        }
      ],
      "name": "withdrawCapital",
      "outputs": [],
      "stateMutability": "nonpayable",
      "type": "function"
    },
    {
      "inputs": [
        {
          "internalType": "bool",
          "name": "_net",
          "type": "bool"
        },
        {
          "internalType": "bool",
          "name": "_average",
          "type": "bool"
        }
      ],
      "name": "calcCapital",
      "outputs": [
        {
          "internalType": "uint256",
          "name": "",
          "type": "uint256"
        }
      ],
      "stateMutability": "view",
      "type": "function"
    },
    {
      "inputs": [
        {
          "internalType": "uint256",
          "name": "_amount",
          "type": "uint256"
        },
        {
          "internalType": "enum OptionLibrary.PayoffType",
          "name": "_poType",
          "type": "uint8"
        },
        {
          "internalType": "enum OptionLibrary.OptionSide",
          "name": "_side",
          "type": "uint8"
        }
      ],
      "name": "calcUtilisation",
      "outputs": [
        {
          "internalType": "uint256",
          "name": "",
          "type": "uint256"
        },
        {
          "internalType": "uint256",
          "name": "",
          "type": "uint256"
        }
      ],
      "stateMutability": "view",
      "type": "function"
    },
    {
      "inputs": [
        {
          "internalType": "uint256",
          "name": "_multiplier",
          "type": "uint256"
        }
      ],
      "name": "resetSwapSlippageAllowance",
      "outputs": [],
      "stateMutability": "nonpayable",
      "type": "function"
    },
    {
      "inputs": [
        {
          "internalType": "address",
          "name": "_address",
          "type": "address"
        }
      ],
      "name": "getHoldersOptionCount",
      "outputs": [
        {
          "internalType": "uint256",
          "name": "",
          "type": "uint256"
        }
      ],
      "stateMutability": "view",
      "type": "function"
    },
    {
      "inputs": [
        {
          "internalType": "uint256",
          "name": "_index",
          "type": "uint256"
        },
        {
          "internalType": "address",
          "name": "_address",
          "type": "address"
        }
      ],
      "name": "getHoldersOption",
      "outputs": [
        {
          "components": [
            {
              "internalType": "enum OptionLibrary.PayoffType",
              "name": "poType",
              "type": "uint8"
            },
            {
              "internalType": "enum OptionLibrary.OptionSide",
              "name": "side",
              "type": "uint8"
            },
            {
              "internalType": "enum OptionLibrary.OptionStatus",
              "name": "status",
              "type": "uint8"
            },
            {
              "internalType": "address",
              "name": "holder",
              "type": "address"
            },
            {
              "internalType": "uint256",
              "name": "id",
              "type": "uint256"
            },
            {
              "internalType": "uint256",
              "name": "createTime",
              "type": "uint256"
            },
            {
              "internalType": "uint256",
              "name": "effectiveTime",
              "type": "uint256"
            },
            {
              "internalType": "uint256",
              "name": "tenor",
              "type": "uint256"
            },
            {
              "internalType": "uint256",
              "name": "exerciseTime",
              "type": "uint256"
            },
            {
              "internalType": "uint256",
              "name": "amount",
              "type": "uint256"
            },
            {
              "internalType": "uint256",
              "name": "spot",
              "type": "uint256"
            },
            {
              "internalType": "uint256",
              "name": "strike",
              "type": "uint256"
            },
            {
              "internalType": "uint256",
              "name": "volatility",
              "type": "uint256"
            },
            {
              "internalType": "uint256",
              "name": "premium",
              "type": "uint256"
            },
            {
              "internalType": "uint256",
              "name": "fee",
              "type": "uint256"
            }
          ],
          "internalType": "struct OptionLibrary.Option",
          "name": "",
          "type": "tuple"
        }
      ],
      "stateMutability": "view",
      "type": "function"
    }
  ],
  "bytecode": "0x60806040526000600d556000600e556000600f55600060105566470de4df82000060115560016012553480156200003557600080fd5b50604051620063c2380380620063c283398181016040528101906200005b9190620006d1565b86868160039080519060200190620000759291906200058c565b5080600490805190602001906200008e9291906200058c565b505050620000a66000801b33620002a760201b60201c565b620000d87fa49807205ce4d355092ef5a8a18f56e8913cf4a201fbe287825b095693c2177533620002a760201b60201c565b81600960006101000a81548173ffffffffffffffffffffffffffffffffffffffff021916908373ffffffffffffffffffffffffffffffffffffffff16021790555080600a60006101000a81548173ffffffffffffffffffffffffffffffffffffffff021916908373ffffffffffffffffffffffffffffffffffffffff16021790555083601460006101000a81548173ffffffffffffffffffffffffffffffffffffffff021916908373ffffffffffffffffffffffffffffffffffffffff16021790555084601360006101000a81548173ffffffffffffffffffffffffffffffffffffffff021916908373ffffffffffffffffffffffffffffffffffffffff160217905550601360009054906101000a900473ffffffffffffffffffffffffffffffffffffffff16600b60006101000a81548173ffffffffffffffffffffffffffffffffffffffff021916908373ffffffffffffffffffffffffffffffffffffffff16021790555082600c60006101000a81548173ffffffffffffffffffffffffffffffffffffffff021916908373ffffffffffffffffffffffffffffffffffffffff1602179055506200029a33670de0b6b3a7640000620002bd60201b60201c565b5050505050505062000adb565b620002b982826200042260201b60201c565b5050565b600073ffffffffffffffffffffffffffffffffffffffff168273ffffffffffffffffffffffffffffffffffffffff16141562000330576040517f08c379a00000000000000000000000000000000000000000000000000000000081526004016200032790620007fa565b60405180910390fd5b62000344600083836200051460201b60201c565b8060026000828254620003589190620008a9565b92505081905550806000808473ffffffffffffffffffffffffffffffffffffffff1673ffffffffffffffffffffffffffffffffffffffff1681526020019081526020016000206000828254620003af9190620008a9565b925050819055508173ffffffffffffffffffffffffffffffffffffffff16600073ffffffffffffffffffffffffffffffffffffffff167fddf252ad1be2c89b69c2b068fc378daa952ba7f163c4a11628f55a4df523b3ef836040516200041691906200081c565b60405180910390a35050565b6200043482826200051960201b60201c565b620005105760016005600084815260200190815260200160002060000160008373ffffffffffffffffffffffffffffffffffffffff1673ffffffffffffffffffffffffffffffffffffffff16815260200190815260200160002060006101000a81548160ff021916908315150217905550620004b56200058460201b60201c565b73ffffffffffffffffffffffffffffffffffffffff168173ffffffffffffffffffffffffffffffffffffffff16837f2f8788117e7eff1d82e926ec794901d17c78024a50270940304540a733656f0d60405160405180910390a45b5050565b505050565b60006005600084815260200190815260200160002060000160008373ffffffffffffffffffffffffffffffffffffffff1673ffffffffffffffffffffffffffffffffffffffff16815260200190815260200160002060009054906101000a900460ff16905092915050565b600033905090565b8280546200059a906200097a565b90600052602060002090601f016020900481019282620005be57600085556200060a565b82601f10620005d957805160ff19168380011785556200060a565b828001600101855582156200060a579182015b8281111562000609578251825591602001919060010190620005ec565b5b5090506200061991906200061d565b5090565b5b80821115620006385760008160009055506001016200061e565b5090565b6000620006536200064d8462000862565b62000839565b90508281526020810184848401111562000672576200067162000a78565b5b6200067f84828562000944565b509392505050565b600081519050620006988162000ac1565b92915050565b600082601f830112620006b657620006b562000a73565b5b8151620006c88482602086016200063c565b91505092915050565b600080600080600080600060e0888a031215620006f357620006f262000a82565b5b600088015167ffffffffffffffff81111562000714576200071362000a7d565b5b620007228a828b016200069e565b975050602088015167ffffffffffffffff81111562000746576200074562000a7d565b5b620007548a828b016200069e565b9650506040620007678a828b0162000687565b95505060606200077a8a828b0162000687565b94505060806200078d8a828b0162000687565b93505060a0620007a08a828b0162000687565b92505060c0620007b38a828b0162000687565b91505092959891949750929550565b6000620007d1601f8362000898565b9150620007de8262000a98565b602082019050919050565b620007f4816200093a565b82525050565b600060208201905081810360008301526200081581620007c2565b9050919050565b6000602082019050620008336000830184620007e9565b92915050565b60006200084562000858565b9050620008538282620009b0565b919050565b6000604051905090565b600067ffffffffffffffff82111562000880576200087f62000a44565b5b6200088b8262000a87565b9050602081019050919050565b600082825260208201905092915050565b6000620008b6826200093a565b9150620008c3836200093a565b9250827fffffffffffffffffffffffffffffffffffffffffffffffffffffffffffffffff03821115620008fb57620008fa620009e6565b5b828201905092915050565b600062000913826200091a565b9050919050565b600073ffffffffffffffffffffffffffffffffffffffff82169050919050565b6000819050919050565b60005b838110156200096457808201518184015260208101905062000947565b8381111562000974576000848401525b50505050565b600060028204905060018216806200099357607f821691505b60208210811415620009aa57620009a962000a15565b5b50919050565b620009bb8262000a87565b810181811067ffffffffffffffff82111715620009dd57620009dc62000a44565b5b80604052505050565b7f4e487b7100000000000000000000000000000000000000000000000000000000600052601160045260246000fd5b7f4e487b7100000000000000000000000000000000000000000000000000000000600052602260045260246000fd5b7f4e487b7100000000000000000000000000000000000000000000000000000000600052604160045260246000fd5b600080fd5b600080fd5b600080fd5b600080fd5b6000601f19601f8301169050919050565b7f45524332303a206d696e7420746f20746865207a65726f206164647265737300600082015250565b62000acc8162000906565b811462000ad857600080fd5b50565b6158d78062000aeb6000396000f3fe6080604052600436106102295760003560e01c806395d89b4111610123578063bea10f96116100ab578063d547741f1161006f578063d547741f14610883578063d95b0a12146108ac578063dc723c6e146108d5578063dd62ed3e14610900578063f8daf7d81461093d57610230565b8063bea10f96146107bf578063c20c49ec146107db578063cbe42a1814610806578063d3b7bfb41461082f578063d5093b0b1461085a57610230565b8063a86e9f35116100f2578063a86e9f35146106c5578063a9059cbb146106f0578063b82e106d1461072d578063bd069b4114610758578063be7c34551461079657610230565b806395d89b41146105f5578063a217fddf14610620578063a42b66261461064b578063a457c2d71461068857610230565b806336568abe116101b157806370a082311161017557806370a08231146104e857806375b238fc14610525578063797be55e146105505780638a0687d21461057b57806391d14854146105b857610230565b806336568abe146103fe57806336da4887146104275780633950935114610452578063431386901461048f57806363447902146104ab57610230565b80632140ea67116101f85780632140ea671461030557806323b872dd14610330578063248a9ca31461036d5780632f2ff15d146103aa578063313ce567146103d357610230565b806301ffc9a71461023557806306fdde0314610272578063095ea7b31461029d57806318160ddd146102da57610230565b3661023057005b600080fd5b34801561024157600080fd5b5061025c6004803603810190610257919061406a565b610968565b6040516102699190614959565b60405180910390f35b34801561027e57600080fd5b506102876109e2565b60405161029491906149ef565b60405180910390f35b3480156102a957600080fd5b506102c460048036038101906102bf9190613e8c565b610a74565b6040516102d19190614959565b60405180910390f35b3480156102e657600080fd5b506102ef610a92565b6040516102fc9190614bcd565b60405180910390f35b34801561031157600080fd5b5061031a610a9c565b604051610327919061475c565b60405180910390f35b34801561033c57600080fd5b5061035760048036038101906103529190613e39565b610ac2565b6040516103649190614959565b60405180910390f35b34801561037957600080fd5b50610394600480360381019061038f9190613ffd565b610bc3565b6040516103a19190614974565b60405180910390f35b3480156103b657600080fd5b506103d160048036038101906103cc919061402a565b610be3565b005b3480156103df57600080fd5b506103e8610c0c565b6040516103f59190614cb0565b60405180910390f35b34801561040a57600080fd5b506104256004803603810190610420919061402a565b610c15565b005b34801561043357600080fd5b5061043c610c98565b6040516104499190614bcd565b60405180910390f35b34801561045e57600080fd5b5061047960048036038101906104749190613e8c565b610c9e565b6040516104869190614959565b60405180910390f35b6104a960048036038101906104a491906140f2565b610d4a565b005b3480156104b757600080fd5b506104d260048036038101906104cd9190613fbd565b6112e2565b6040516104df9190614bcd565b60405180910390f35b3480156104f457600080fd5b5061050f600480360381019061050a9190613d9f565b611631565b60405161051c9190614bcd565b60405180910390f35b34801561053157600080fd5b5061053a611679565b6040516105479190614974565b60405180910390f35b34801561055c57600080fd5b5061056561169d565b6040516105729190614bcd565b60405180910390f35b34801561058757600080fd5b506105a2600480360381019061059d919061414c565b6116a3565b6040516105af9190614bb1565b60405180910390f35b3480156105c457600080fd5b506105df60048036038101906105da919061402a565b6117af565b6040516105ec9190614959565b60405180910390f35b34801561060157600080fd5b5061060a61181a565b60405161061791906149ef565b60405180910390f35b34801561062c57600080fd5b506106356118ac565b6040516106429190614974565b60405180910390f35b34801561065757600080fd5b50610672600480360381019061066d9190613d9f565b6118b3565b60405161067f9190614bcd565b60405180910390f35b34801561069457600080fd5b506106af60048036038101906106aa9190613e8c565b611903565b6040516106bc9190614959565b60405180910390f35b3480156106d157600080fd5b506106da6119f7565b6040516106e79190614bcd565b60405180910390f35b3480156106fc57600080fd5b5061071760048036038101906107129190613e8c565b6119fd565b6040516107249190614959565b60405180910390f35b34801561073957600080fd5b50610742611a1b565b60405161074f9190614bcd565b60405180910390f35b34801561076457600080fd5b5061077f600480360381019061077a919061418c565b611a21565b60405161078d929190614c2d565b60405180910390f35b3480156107a257600080fd5b506107bd60048036038101906107b891906140f2565b611ba0565b005b6107d960048036038101906107d491906140f2565b611bdd565b005b3480156107e757600080fd5b506107f0611d15565b6040516107fd9190614bcd565b60405180910390f35b34801561081257600080fd5b5061082d60048036038101906108289190613ecc565b611d1b565b005b34801561083b57600080fd5b50610844611dd4565b604051610851919061475c565b60405180910390f35b34801561086657600080fd5b50610881600480360381019061087c9190613ecc565b611dfa565b005b34801561088f57600080fd5b506108aa60048036038101906108a5919061402a565b611eb3565b005b3480156108b857600080fd5b506108d360048036038101906108ce91906140f2565b611edc565b005b3480156108e157600080fd5b506108ea611ffe565b6040516108f7919061498f565b60405180910390f35b34801561090c57600080fd5b5061092760048036038101906109229190613df9565b612106565b6040516109349190614bcd565b60405180910390f35b34801561094957600080fd5b5061095261218d565b60405161095f9190614bcd565b60405180910390f35b60007f7965db0b000000000000000000000000000000000000000000000000000000007bffffffffffffffffffffffffffffffffffffffffffffffffffffffff1916827bffffffffffffffffffffffffffffffffffffffffffffffffffffffff191614806109db57506109da82612193565b5b9050919050565b6060600380546109f19061513a565b80601f0160208091040260200160405190810160405280929190818152602001828054610a1d9061513a565b8015610a6a5780601f10610a3f57610100808354040283529160200191610a6a565b820191906000526020600020905b815481529060010190602001808311610a4d57829003601f168201915b5050505050905090565b6000610a88610a816121fd565b8484612205565b6001905092915050565b6000600254905090565b601360009054906101000a900473ffffffffffffffffffffffffffffffffffffffff1681565b6000610acf8484846123d0565b6000600160008673ffffffffffffffffffffffffffffffffffffffff1673ffffffffffffffffffffffffffffffffffffffff1681526020019081526020016000206000610b1a6121fd565b73ffffffffffffffffffffffffffffffffffffffff1673ffffffffffffffffffffffffffffffffffffffff16815260200190815260200160002054905082811015610b9a576040517f08c379a0000000000000000000000000000000000000000000000000000000008152600401610b9190614ad1565b60405180910390fd5b610bb785610ba66121fd565b8584610bb29190614f85565b612205565b60019150509392505050565b600060056000838152602001908152602001600020600101549050919050565b610bec82610bc3565b610bfd81610bf86121fd565b61264f565b610c0783836126ec565b505050565b60006012905090565b610c1d6121fd565b73ffffffffffffffffffffffffffffffffffffffff168173ffffffffffffffffffffffffffffffffffffffff1614610c8a576040517f08c379a0000000000000000000000000000000000000000000000000000000008152600401610c8190614b71565b60405180910390fd5b610c9482826127cd565b5050565b600e5481565b6000610d40610cab6121fd565b848460016000610cb96121fd565b73ffffffffffffffffffffffffffffffffffffffff1673ffffffffffffffffffffffffffffffffffffffff16815260200190815260200160002060008873ffffffffffffffffffffffffffffffffffffffff1673ffffffffffffffffffffffffffffffffffffffff16815260200190815260200160002054610d3b9190614e10565b612205565b6001905092915050565b7fa49807205ce4d355092ef5a8a18f56e8913cf4a201fbe287825b095693c21775610d7c81610d776121fd565b61264f565b6000610d86611ffe565b9050600060105490506000600c60009054906101000a900473ffffffffffffffffffffffffffffffffffffffff1673ffffffffffffffffffffffffffffffffffffffff1663b0667cf86040518163ffffffff1660e01b8152600401604080518083038186803b158015610df857600080fd5b505afa158015610e0c573d6000803e3d6000fd5b505050506040513d601f19601f82011682018060405250810190610e3091906141df565b509050601054610e3f906151e6565b83121561107857610e4f836128af565b6000610f1b600b60009054906101000a900473ffffffffffffffffffffffffffffffffffffffff1673ffffffffffffffffffffffffffffffffffffffff166370a08231306040518263ffffffff1660e01b8152600401610eaf919061475c565b60206040518083038186803b158015610ec757600080fd5b505afa158015610edb573d6000803e3d6000fd5b505050506040513d601f19601f82011682018060405250810190610eff919061411f565b85601054610f0c906151e6565b610f169190614ef1565b612eaf565b9050600081111561107657600061104982610ffd84610f5887601154670de0b6b3a7640000610f4a9190614f85565b670de0b6b3a7640000612ec8565b600c60009054906101000a900473ffffffffffffffffffffffffffffffffffffffff1673ffffffffffffffffffffffffffffffffffffffff1663d50cb88b6040518163ffffffff1660e01b815260040160206040518083038186803b158015610fc057600080fd5b505afa158015610fd4573d6000803e3d6000fd5b505050506040513d601f19601f82011682018060405250810190610ff8919061411f565b612ec8565b601360009054906101000a900473ffffffffffffffffffffffffffffffffffffffff16601460009054906101000a900473ffffffffffffffffffffffffffffffffffffffff168b612fc4565b90508060008151811061105f5761105e61531a565b5b6020026020010151846110729190614e10565b9350505b505b601054611084906151e6565b8313156112d4576000601460009054906101000a900473ffffffffffffffffffffffffffffffffffffffff1673ffffffffffffffffffffffffffffffffffffffff166370a08231306040518263ffffffff1660e01b81526004016110e8919061475c565b60206040518083038186803b15801561110057600080fd5b505afa158015611114573d6000803e3d6000fd5b505050506040513d601f19601f82011682018060405250810190611138919061411f565b9050600061116182611159601054601054896111549190614d7c565b612eaf565b601054612ec8565b905060008111156112c857600061128f8261124384600c60009054906101000a900473ffffffffffffffffffffffffffffffffffffffff1673ffffffffffffffffffffffffffffffffffffffff1663d50cb88b6040518163ffffffff1660e01b815260040160206040518083038186803b1580156111de57600080fd5b505afa1580156111f2573d6000803e3d6000fd5b505050506040513d601f19601f82011682018060405250810190611216919061411f565b61123e89601154670de0b6b3a76400006112309190614e10565b670de0b6b3a7640000612ec8565b612ec8565b601460009054906101000a900473ffffffffffffffffffffffffffffffffffffffff16601360009054906101000a900473ffffffffffffffffffffffffffffffffffffffff168c612fc4565b90506112b9601054826000815181106112ab576112aa61531a565b5b602002602001015185612ec8565b856112c49190614f85565b9450505b6112d1856128af565b50505b816010819055505050505050565b600080600c60009054906101000a900473ffffffffffffffffffffffffffffffffffffffff1673ffffffffffffffffffffffffffffffffffffffff1663b0667cf86040518163ffffffff1660e01b8152600401604080518083038186803b15801561134c57600080fd5b505afa158015611360573d6000803e3d6000fd5b505050506040513d601f19601f8201168201806040525081019061138491906141df565b5090506000600b60009054906101000a900473ffffffffffffffffffffffffffffffffffffffff1673ffffffffffffffffffffffffffffffffffffffff166370a08231306040518263ffffffff1660e01b81526004016113e4919061475c565b60206040518083038186803b1580156113fc57600080fd5b505afa158015611410573d6000803e3d6000fd5b505050506040513d601f19601f82011682018060405250810190611434919061411f565b611588601460009054906101000a900473ffffffffffffffffffffffffffffffffffffffff1673ffffffffffffffffffffffffffffffffffffffff166370a08231306040518263ffffffff1660e01b8152600401611492919061475c565b60206040518083038186803b1580156114aa57600080fd5b505afa1580156114be573d6000803e3d6000fd5b505050506040513d601f19601f820116820180604052508101906114e2919061411f565b600c60009054906101000a900473ffffffffffffffffffffffffffffffffffffffff1673ffffffffffffffffffffffffffffffffffffffff1663d50cb88b6040518163ffffffff1660e01b815260040160206040518083038186803b15801561154a57600080fd5b505afa15801561155e573d6000803e3d6000fd5b505050506040513d601f19601f82011682018060405250810190611582919061411f565b85612ec8565b6115929190614e10565b905084156115f757600f54600e546115aa9190614e10565b8111156115c657600f54600e546115c19190614e10565b6115c8565b805b816115d39190614f85565b9050600d548111156115e757600d546115e9565b805b816115f49190614f85565b90505b831561162657611605610a92565b670de0b6b3a7640000826116199190614e97565b6116239190614e66565b90505b809250505092915050565b60008060008373ffffffffffffffffffffffffffffffffffffffff1673ffffffffffffffffffffffffffffffffffffffff168152602001908152602001600020549050919050565b7fa49807205ce4d355092ef5a8a18f56e8913cf4a201fbe287825b095693c2177581565b600d5481565b6116ab6139b5565b600c60009054906101000a900473ffffffffffffffffffffffffffffffffffffffff1673ffffffffffffffffffffffffffffffffffffffff16631ce5e9a661173a85600660008773ffffffffffffffffffffffffffffffffffffffff1673ffffffffffffffffffffffffffffffffffffffff1681526020019081526020016000206131ab90919063ffffffff16565b6040518263ffffffff1660e01b81526004016117569190614bcd565b6101e06040518083038186803b15801561176f57600080fd5b505afa158015611783573d6000803e3d6000fd5b505050506040513d601f19601f820116820180604052508101906117a791906140c4565b905092915050565b60006005600084815260200190815260200160002060000160008373ffffffffffffffffffffffffffffffffffffffff1673ffffffffffffffffffffffffffffffffffffffff16815260200190815260200160002060009054906101000a900460ff16905092915050565b6060600480546118299061513a565b80601f01602080910402602001604051908101604052809291908181526020018280546118559061513a565b80156118a25780601f10611877576101008083540402835291602001916118a2565b820191906000526020600020905b81548152906001019060200180831161188557829003601f168201915b5050505050905090565b6000801b81565b60006118fc600660008473ffffffffffffffffffffffffffffffffffffffff1673ffffffffffffffffffffffffffffffffffffffff1681526020019081526020016000206131c5565b9050919050565b600080600160006119126121fd565b73ffffffffffffffffffffffffffffffffffffffff1673ffffffffffffffffffffffffffffffffffffffff16815260200190815260200160002060008573ffffffffffffffffffffffffffffffffffffffff1673ffffffffffffffffffffffffffffffffffffffff168152602001908152602001600020549050828110156119cf576040517f08c379a00000000000000000000000000000000000000000000000000000000081526004016119c690614b51565b60405180910390fd5b6119ec6119da6121fd565b8585846119e79190614f85565b612205565b600191505092915050565b60115481565b6000611a11611a0a6121fd565b84846123d0565b6001905092915050565b60125481565b6000806000611a316000806112e2565b90506000806001811115611a4857611a4761528d565b5b866001811115611a5b57611a5a61528d565b5b14611a6857600e54611ac2565b60006001811115611a7c57611a7b61528d565b5b856001811115611a8f57611a8e61528d565b5b14611ab257611aa0600e5488612eaf565b600e54611aad9190614f85565b611ac1565b86600e54611ac09190614e10565b5b5b90506000600180811115611ad957611ad861528d565b5b876001811115611aec57611aeb61528d565b5b14611af957600f54611b53565b60006001811115611b0d57611b0c61528d565b5b866001811115611b2057611b1f61528d565b5b14611b4357611b31600f5489612eaf565b600f54611b3e9190614f85565b611b52565b87600f54611b519190614e10565b5b5b9050611b75611b66600e54600f546131da565b670de0b6b3a764000085612ec8565b611b91611b8284846131da565b670de0b6b3a764000086612ec8565b94509450505050935093915050565b7fa49807205ce4d355092ef5a8a18f56e8913cf4a201fbe287825b095693c21775611bd281611bcd6121fd565b61264f565b816011819055505050565b6000611beb600060016112e2565b905060008111611bfa57600080fd5b6000611c0f83670de0b6b3a764000084612ec8565b9050600b60009054906101000a900473ffffffffffffffffffffffffffffffffffffffff1673ffffffffffffffffffffffffffffffffffffffff166323b872dd3330866040518463ffffffff1660e01b8152600401611c70939291906147ae565b602060405180830381600087803b158015611c8a57600080fd5b505af1158015611c9e573d6000803e3d6000fd5b505050506040513d601f19601f82011682018060405250810190611cc29190613f90565b611ccb57600080fd5b611cd533826131f4565b7fd0d5ca25112902dbbf5a70a67eed6edc7513b74f2a7ec0805ca216c99f981cc1338483604051611d089392919061488a565b60405180910390a1505050565b60105481565b611d6c84600660008873ffffffffffffffffffffffffffffffffffffffff1673ffffffffffffffffffffffffffffffffffffffff16815260200190815260200160002061334890919063ffffffff16565b50611d8184600761334890919063ffffffff16565b5082600d6000828254611d949190614e10565b9250508190555081600e6000828254611dad9190614e10565b9250508190555080600f6000828254611dc69190614e10565b925050819055505050505050565b601460009054906101000a900473ffffffffffffffffffffffffffffffffffffffff1681565b611e4b84600660008873ffffffffffffffffffffffffffffffffffffffff1673ffffffffffffffffffffffffffffffffffffffff16815260200190815260200160002061336290919063ffffffff16565b50611e6084600761336290919063ffffffff16565b5082600d6000828254611e739190614f85565b9250508190555081600e6000828254611e8c9190614f85565b9250508190555080600f6000828254611ea59190614f85565b925050819055505050505050565b611ebc82610bc3565b611ecd81611ec86121fd565b61264f565b611ed783836127cd565b505050565b6000611efb611eec6001806112e2565b83670de0b6b3a7640000612ec8565b9050611f07338361337c565b600b60009054906101000a900473ffffffffffffffffffffffffffffffffffffffff1673ffffffffffffffffffffffffffffffffffffffff1663a9059cbb33836040518363ffffffff1660e01b8152600401611f649291906147e5565b602060405180830381600087803b158015611f7e57600080fd5b505af1158015611f92573d6000803e3d6000fd5b505050506040513d601f19601f82011682018060405250810190611fb69190613f90565b611fbf57600080fd5b7f3a9e5b3b520d77dc26bf05104c863b6b654d4b96fa8031a783ad0dbd905cdf39338383604051611ff29392919061488a565b60405180910390a15050565b60008061200b60076131c5565b90506000805b828110156120fd57600061202f8260076131ab90919063ffffffff16565b9050600c60009054906101000a900473ffffffffffffffffffffffffffffffffffffffff1673ffffffffffffffffffffffffffffffffffffffff1663a823c087826040518263ffffffff1660e01b815260040161208c9190614bcd565b60206040518083038186803b1580156120a457600080fd5b505afa1580156120b8573d6000803e3d6000fd5b505050506040513d601f19601f820116820180604052508101906120dc9190614097565b836120e79190614d7c565b92505080806120f59061519d565b915050612011565b50809250505090565b6000600160008473ffffffffffffffffffffffffffffffffffffffff1673ffffffffffffffffffffffffffffffffffffffff16815260200190815260200160002060008373ffffffffffffffffffffffffffffffffffffffff1673ffffffffffffffffffffffffffffffffffffffff16815260200190815260200160002054905092915050565b600f5481565b60007f01ffc9a7000000000000000000000000000000000000000000000000000000007bffffffffffffffffffffffffffffffffffffffffffffffffffffffff1916827bffffffffffffffffffffffffffffffffffffffffffffffffffffffff1916149050919050565b600033905090565b600073ffffffffffffffffffffffffffffffffffffffff168373ffffffffffffffffffffffffffffffffffffffff161415612275576040517f08c379a000000000000000000000000000000000000000000000000000000000815260040161226c90614b31565b60405180910390fd5b600073ffffffffffffffffffffffffffffffffffffffff168273ffffffffffffffffffffffffffffffffffffffff1614156122e5576040517f08c379a00000000000000000000000000000000000000000000000000000000081526004016122dc90614a91565b60405180910390fd5b80600160008573ffffffffffffffffffffffffffffffffffffffff1673ffffffffffffffffffffffffffffffffffffffff16815260200190815260200160002060008473ffffffffffffffffffffffffffffffffffffffff1673ffffffffffffffffffffffffffffffffffffffff168152602001908152602001600020819055508173ffffffffffffffffffffffffffffffffffffffff168373ffffffffffffffffffffffffffffffffffffffff167f8c5be1e5ebec7d5bd14f71427d1e84f3dd0314c0f7b2291e5b200ac8c7c3b925836040516123c39190614bcd565b60405180910390a3505050565b600073ffffffffffffffffffffffffffffffffffffffff168373ffffffffffffffffffffffffffffffffffffffff161415612440576040517f08c379a000000000000000000000000000000000000000000000000000000000815260040161243790614b11565b60405180910390fd5b600073ffffffffffffffffffffffffffffffffffffffff168273ffffffffffffffffffffffffffffffffffffffff1614156124b0576040517f08c379a00000000000000000000000000000000000000000000000000000000081526004016124a790614a51565b60405180910390fd5b6124bb838383613550565b60008060008573ffffffffffffffffffffffffffffffffffffffff1673ffffffffffffffffffffffffffffffffffffffff16815260200190815260200160002054905081811015612541576040517f08c379a000000000000000000000000000000000000000000000000000000000815260040161253890614ab1565b60405180910390fd5b818161254d9190614f85565b6000808673ffffffffffffffffffffffffffffffffffffffff1673ffffffffffffffffffffffffffffffffffffffff16815260200190815260200160002081905550816000808573ffffffffffffffffffffffffffffffffffffffff1673ffffffffffffffffffffffffffffffffffffffff16815260200190815260200160002060008282546125dd9190614e10565b925050819055508273ffffffffffffffffffffffffffffffffffffffff168473ffffffffffffffffffffffffffffffffffffffff167fddf252ad1be2c89b69c2b068fc378daa952ba7f163c4a11628f55a4df523b3ef846040516126419190614bcd565b60405180910390a350505050565b61265982826117af565b6126e85761267e8173ffffffffffffffffffffffffffffffffffffffff166014613555565b61268c8360001c6020613555565b60405160200161269d929190614722565b6040516020818303038152906040526040517f08c379a00000000000000000000000000000000000000000000000000000000081526004016126df91906149ef565b60405180910390fd5b5050565b6126f682826117af565b6127c95760016005600084815260200190815260200160002060000160008373ffffffffffffffffffffffffffffffffffffffff1673ffffffffffffffffffffffffffffffffffffffff16815260200190815260200160002060006101000a81548160ff02191690831515021790555061276e6121fd565b73ffffffffffffffffffffffffffffffffffffffff168173ffffffffffffffffffffffffffffffffffffffff16837f2f8788117e7eff1d82e926ec794901d17c78024a50270940304540a733656f0d60405160405180910390a45b5050565b6127d782826117af565b156128ab5760006005600084815260200190815260200160002060000160008373ffffffffffffffffffffffffffffffffffffffff1673ffffffffffffffffffffffffffffffffffffffff16815260200190815260200160002060006101000a81548160ff0219169083151502179055506128506121fd565b73ffffffffffffffffffffffffffffffffffffffff168173ffffffffffffffffffffffffffffffffffffffff16837ff6391f5c32d9c69d2a47ea670b442974b53935d1edc7fd64eb21e047a839171b60405160405180910390a45b5050565b7fa49807205ce4d355092ef5a8a18f56e8913cf4a201fbe287825b095693c217756128e1816128dc6121fd565b61264f565b600073__MarketLibrary_________________________632eda16d48430600a60009054906101000a900473ffffffffffffffffffffffffffffffffffffffff16601360009054906101000a900473ffffffffffffffffffffffffffffffffffffffff166040518563ffffffff1660e01b815260040161296494939291906149aa565b60206040518083038186803b15801561297c57600080fd5b505af4158015612990573d6000803e3d6000fd5b505050506040513d601f19601f820116820180604052508101906129b49190614097565b90506000600a60009054906101000a900473ffffffffffffffffffffffffffffffffffffffff1673ffffffffffffffffffffffffffffffffffffffff16630261bf8b6040518163ffffffff1660e01b815260040160206040518083038186803b158015612a2057600080fd5b505afa158015612a34573d6000803e3d6000fd5b505050506040513d601f19601f82011682018060405250810190612a589190613dcc565b90506000821215612ca3578073ffffffffffffffffffffffffffffffffffffffff1663573ade81601360009054906101000a900473ffffffffffffffffffffffffffffffffffffffff1684612aac906151e6565b601254306040518563ffffffff1660e01b8152600401612acf94939291906148c1565b602060405180830381600087803b158015612ae957600080fd5b505af1158015612afd573d6000803e3d6000fd5b505050506040513d601f19601f82011682018060405250810190612b21919061411f565b508073ffffffffffffffffffffffffffffffffffffffff166369328dec601360009054906101000a900473ffffffffffffffffffffffffffffffffffffffff1673__MarketLibrary_________________________63b6c1728b30600a60009054906101000a900473ffffffffffffffffffffffffffffffffffffffff16601360009054906101000a900473ffffffffffffffffffffffffffffffffffffffff166040518463ffffffff1660e01b8152600401612be093929190614777565b60206040518083038186803b158015612bf857600080fd5b505af4158015612c0c573d6000803e3d6000fd5b505050506040513d601f19601f82011682018060405250810190612c30919061411f565b306040518463ffffffff1660e01b8152600401612c4f9392919061480e565b602060405180830381600087803b158015612c6957600080fd5b505af1158015612c7d573d6000803e3d6000fd5b505050506040513d601f19601f82011682018060405250810190612ca1919061411f565b505b6000821315612ea9578073ffffffffffffffffffffffffffffffffffffffff1663e8eda9df601360009054906101000a900473ffffffffffffffffffffffffffffffffffffffff1673__MarketLibrary_________________________63eb119a958630600a60009054906101000a900473ffffffffffffffffffffffffffffffffffffffff16601360009054906101000a900473ffffffffffffffffffffffffffffffffffffffff166040518563ffffffff1660e01b8152600401612d6c9493929190614be8565b60206040518083038186803b158015612d8457600080fd5b505af4158015612d98573d6000803e3d6000fd5b505050506040513d601f19601f82011682018060405250810190612dbc919061411f565b3060006040518563ffffffff1660e01b8152600401612dde9493929190614845565b600060405180830381600087803b158015612df857600080fd5b505af1158015612e0c573d6000803e3d6000fd5b505050508073ffffffffffffffffffffffffffffffffffffffff1663a415bcad601360009054906101000a900473ffffffffffffffffffffffffffffffffffffffff16846012546000306040518663ffffffff1660e01b8152600401612e76959493929190614906565b600060405180830381600087803b158015612e9057600080fd5b505af1158015612ea4573d6000803e3d6000fd5b505050505b50505050565b6000818310612ebe5781612ec0565b825b905092915050565b600080600080198587098587029250828110838203039150506000811415612f035760008411612ef757600080fd5b83820492505050612fbd565b808411612f0f57600080fd5b60008486880990508281118203915080830392506000856001877fffffffffffffffffffffffffffffffffffffffffffffffffffffffffffffffff0301169050808604955080840493506001818260000304019050808302841793506000600287600302189050808702600203810290508087026002038102905080870260020381029050808702600203810290508087026002038102905080870260020381029050808502955050505050505b9392505050565b60607fa49807205ce4d355092ef5a8a18f56e8913cf4a201fbe287825b095693c21775612ff881612ff36121fd565b61264f565b6000600267ffffffffffffffff81111561301557613014615349565b5b6040519080825280602002602001820160405280156130435781602001602082028036833780820191505090505b509050858160008151811061305b5761305a61531a565b5b602002602001019073ffffffffffffffffffffffffffffffffffffffff16908173ffffffffffffffffffffffffffffffffffffffff168152505084816001815181106130aa576130a961531a565b5b602002602001019073ffffffffffffffffffffffffffffffffffffffff16908173ffffffffffffffffffffffffffffffffffffffff1681525050600960009054906101000a900473ffffffffffffffffffffffffffffffffffffffff1673ffffffffffffffffffffffffffffffffffffffff166338ed173989898430896040518663ffffffff1660e01b8152600401613147959493929190614c56565b600060405180830381600087803b15801561316157600080fd5b505af1158015613175573d6000803e3d6000fd5b505050506040513d6000823e3d601f19601f8201168201806040525081019061319e9190613f47565b9250505095945050505050565b60006131ba8360000183613791565b60001c905092915050565b60006131d382600001613805565b9050919050565b6000818310156131ea57816131ec565b825b905092915050565b600073ffffffffffffffffffffffffffffffffffffffff168273ffffffffffffffffffffffffffffffffffffffff161415613264576040517f08c379a000000000000000000000000000000000000000000000000000000000815260040161325b90614b91565b60405180910390fd5b61327060008383613550565b80600260008282546132829190614e10565b92505081905550806000808473ffffffffffffffffffffffffffffffffffffffff1673ffffffffffffffffffffffffffffffffffffffff16815260200190815260200160002060008282546132d79190614e10565b925050819055508173ffffffffffffffffffffffffffffffffffffffff16600073ffffffffffffffffffffffffffffffffffffffff167fddf252ad1be2c89b69c2b068fc378daa952ba7f163c4a11628f55a4df523b3ef8360405161333c9190614bcd565b60405180910390a35050565b600061335a836000018360001b613816565b905092915050565b6000613374836000018360001b613886565b905092915050565b600073ffffffffffffffffffffffffffffffffffffffff168273ffffffffffffffffffffffffffffffffffffffff1614156133ec576040517f08c379a00000000000000000000000000000000000000000000000000000000081526004016133e390614af1565b60405180910390fd5b6133f882600083613550565b60008060008473ffffffffffffffffffffffffffffffffffffffff1673ffffffffffffffffffffffffffffffffffffffff1681526020019081526020016000205490508181101561347e576040517f08c379a000000000000000000000000000000000000000000000000000000000815260040161347590614a71565b60405180910390fd5b818161348a9190614f85565b6000808573ffffffffffffffffffffffffffffffffffffffff1673ffffffffffffffffffffffffffffffffffffffff1681526020019081526020016000208190555081600260008282546134de9190614f85565b92505081905550600073ffffffffffffffffffffffffffffffffffffffff168373ffffffffffffffffffffffffffffffffffffffff167fddf252ad1be2c89b69c2b068fc378daa952ba7f163c4a11628f55a4df523b3ef846040516135439190614bcd565b60405180910390a3505050565b505050565b6060600060028360026135689190614e97565b6135729190614e10565b67ffffffffffffffff81111561358b5761358a615349565b5b6040519080825280601f01601f1916602001820160405280156135bd5781602001600182028036833780820191505090505b5090507f3000000000000000000000000000000000000000000000000000000000000000816000815181106135f5576135f461531a565b5b60200101907effffffffffffffffffffffffffffffffffffffffffffffffffffffffffffff1916908160001a9053507f7800000000000000000000000000000000000000000000000000000000000000816001815181106136595761365861531a565b5b60200101907effffffffffffffffffffffffffffffffffffffffffffffffffffffffffffff1916908160001a905350600060018460026136999190614e97565b6136a39190614e10565b90505b6001811115613743577f3031323334353637383961626364656600000000000000000000000000000000600f8616601081106136e5576136e461531a565b5b1a60f81b8282815181106136fc576136fb61531a565b5b60200101907effffffffffffffffffffffffffffffffffffffffffffffffffffffffffffff1916908160001a905350600485901c94508061373c90615110565b90506136a6565b5060008414613787576040517f08c379a000000000000000000000000000000000000000000000000000000000815260040161377e90614a31565b60405180910390fd5b8091505092915050565b6000818360000180549050116137dc576040517f08c379a00000000000000000000000000000000000000000000000000000000081526004016137d390614a11565b60405180910390fd5b8260000182815481106137f2576137f161531a565b5b9060005260206000200154905092915050565b600081600001805490509050919050565b60006138228383613992565b61387b578260000182908060018154018082558091505060019003906000526020600020016000909190919091505582600001805490508360010160008481526020019081526020016000208190555060019050613880565b600090505b92915050565b600080836001016000848152602001908152602001600020549050600081146139865760006001826138b89190614f85565b90506000600186600001805490506138d09190614f85565b905060008660000182815481106138ea576138e961531a565b5b906000526020600020015490508087600001848154811061390e5761390d61531a565b5b906000526020600020018190555083876001016000838152602001908152602001600020819055508660000180548061394a576139496152eb565b5b6001900381819060005260206000200160009055905586600101600087815260200190815260200160002060009055600194505050505061398c565b60009150505b92915050565b600080836001016000848152602001908152602001600020541415905092915050565b604051806101e00160405280600060018111156139d5576139d461528d565b5b8152602001600060018111156139ee576139ed61528d565b5b815260200160006003811115613a0757613a0661528d565b5b8152602001600073ffffffffffffffffffffffffffffffffffffffff16815260200160008152602001600081526020016000815260200160008152602001600081526020016000815260200160008152602001600081526020016000815260200160008152602001600081525090565b6000613a8a613a8584614cf0565b614ccb565b90508083825260208201905082856020860282011115613aad57613aac615382565b5b60005b85811015613add5781613ac38882613d8a565b845260208401935060208301925050600181019050613ab0565b5050509392505050565b600081359050613af6816157e7565b92915050565b600081519050613b0b816157e7565b92915050565b600082601f830112613b2657613b25615378565b5b8151613b36848260208601613a77565b91505092915050565b600081359050613b4e816157fe565b92915050565b600081519050613b63816157fe565b92915050565b600081359050613b7881615815565b92915050565b600081359050613b8d8161582c565b92915050565b600081359050613ba281615843565b92915050565b600081519050613bb781615843565b92915050565b600081519050613bcc81615853565b92915050565b600081359050613be181615863565b92915050565b600081519050613bf681615863565b92915050565b600081519050613c0b81615873565b92915050565b60006101e08284031215613c2857613c2761537d565b5b613c336101e0614ccb565b90506000613c4384828501613be7565b6000830152506020613c5784828501613ba8565b6020830152506040613c6b84828501613bbd565b6040830152506060613c7f84828501613afc565b6060830152506080613c9384828501613d8a565b60808301525060a0613ca784828501613d8a565b60a08301525060c0613cbb84828501613d8a565b60c08301525060e0613ccf84828501613d8a565b60e083015250610100613ce484828501613d8a565b61010083015250610120613cfa84828501613d8a565b61012083015250610140613d1084828501613d8a565b61014083015250610160613d2684828501613d8a565b61016083015250610180613d3c84828501613d8a565b610180830152506101a0613d5284828501613d8a565b6101a0830152506101c0613d6884828501613d8a565b6101c08301525092915050565b600081359050613d848161588a565b92915050565b600081519050613d998161588a565b92915050565b600060208284031215613db557613db461538c565b5b6000613dc384828501613ae7565b91505092915050565b600060208284031215613de257613de161538c565b5b6000613df084828501613afc565b91505092915050565b60008060408385031215613e1057613e0f61538c565b5b6000613e1e85828601613ae7565b9250506020613e2f85828601613ae7565b9150509250929050565b600080600060608486031215613e5257613e5161538c565b5b6000613e6086828701613ae7565b9350506020613e7186828701613ae7565b9250506040613e8286828701613d75565b9150509250925092565b60008060408385031215613ea357613ea261538c565b5b6000613eb185828601613ae7565b9250506020613ec285828601613d75565b9150509250929050565b600080600080600060a08688031215613ee857613ee761538c565b5b6000613ef688828901613ae7565b9550506020613f0788828901613d75565b9450506040613f1888828901613d75565b9350506060613f2988828901613d75565b9250506080613f3a88828901613d75565b9150509295509295909350565b600060208284031215613f5d57613f5c61538c565b5b600082015167ffffffffffffffff811115613f7b57613f7a615387565b5b613f8784828501613b11565b91505092915050565b600060208284031215613fa657613fa561538c565b5b6000613fb484828501613b54565b91505092915050565b60008060408385031215613fd457613fd361538c565b5b6000613fe285828601613b3f565b9250506020613ff385828601613b3f565b9150509250929050565b6000602082840312156140135761401261538c565b5b600061402184828501613b69565b91505092915050565b600080604083850312156140415761404061538c565b5b600061404f85828601613b69565b925050602061406085828601613ae7565b9150509250929050565b6000602082840312156140805761407f61538c565b5b600061408e84828501613b7e565b91505092915050565b6000602082840312156140ad576140ac61538c565b5b60006140bb84828501613bfc565b91505092915050565b60006101e082840312156140db576140da61538c565b5b60006140e984828501613c11565b91505092915050565b6000602082840312156141085761410761538c565b5b600061411684828501613d75565b91505092915050565b6000602082840312156141355761413461538c565b5b600061414384828501613d8a565b91505092915050565b600080604083850312156141635761416261538c565b5b600061417185828601613d75565b925050602061418285828601613ae7565b9150509250929050565b6000806000606084860312156141a5576141a461538c565b5b60006141b386828701613d75565b93505060206141c486828701613bd2565b92505060406141d586828701613b93565b9150509250925092565b600080604083850312156141f6576141f561538c565b5b600061420485828601613d8a565b925050602061421585828601613d8a565b9150509250929050565b600061422b8383614237565b60208301905092915050565b61424081614fb9565b82525050565b61424f81614fb9565b82525050565b61425e81614fb9565b82525050565b600061426f82614d2c565b6142798185614d4f565b935061428483614d1c565b8060005b838110156142b557815161429c888261421f565b97506142a783614d42565b925050600181019050614288565b5085935050505092915050565b6142cb81614fcb565b82525050565b6142da81614fd7565b82525050565b6142e981615095565b82525050565b6142f8816150a7565b82525050565b614307816150b9565b82525050565b61431681615046565b82525050565b61432581615046565b82525050565b614334816150cb565b82525050565b600061434582614d37565b61434f8185614d60565b935061435f8185602086016150dd565b61436881615391565b840191505092915050565b600061437e82614d37565b6143888185614d71565b93506143988185602086016150dd565b80840191505092915050565b60006143b1602283614d60565b91506143bc826153a2565b604082019050919050565b60006143d4602083614d60565b91506143df826153f1565b602082019050919050565b60006143f7602383614d60565b91506144028261541a565b604082019050919050565b600061441a602283614d60565b915061442582615469565b604082019050919050565b600061443d602283614d60565b9150614448826154b8565b604082019050919050565b6000614460602683614d60565b915061446b82615507565b604082019050919050565b6000614483602883614d60565b915061448e82615556565b604082019050919050565b60006144a6602183614d60565b91506144b1826155a5565b604082019050919050565b60006144c9602583614d60565b91506144d4826155f4565b604082019050919050565b60006144ec602483614d60565b91506144f782615643565b604082019050919050565b600061450f601783614d71565b915061451a82615692565b601782019050919050565b6000614532602583614d60565b915061453d826156bb565b604082019050919050565b6000614555601183614d71565b91506145608261570a565b601182019050919050565b6000614578602f83614d60565b915061458382615733565b604082019050919050565b600061459b601f83614d60565b91506145a682615782565b602082019050919050565b6101e0820160008201516145c860008501826142fe565b5060208201516145db60208501826142e0565b5060408201516145ee60408501826142ef565b5060608201516146016060850182614237565b50608082015161461460808501826146e6565b5060a082015161462760a08501826146e6565b5060c082015161463a60c08501826146e6565b5060e082015161464d60e08501826146e6565b506101008201516146626101008501826146e6565b506101208201516146776101208501826146e6565b5061014082015161468c6101408501826146e6565b506101608201516146a16101608501826146e6565b506101808201516146b66101808501826146e6565b506101a08201516146cb6101a08501826146e6565b506101c08201516146e06101c08501826146e6565b50505050565b6146ef8161507e565b82525050565b6146fe8161507e565b82525050565b61470d8161507e565b82525050565b61471c81615088565b82525050565b600061472d82614502565b91506147398285614373565b915061474482614548565b91506147508284614373565b91508190509392505050565b60006020820190506147716000830184614246565b92915050565b600060608201905061478c6000830186614255565b6147996020830185614255565b6147a66040830184614255565b949350505050565b60006060820190506147c36000830186614246565b6147d06020830185614246565b6147dd60408301846146f5565b949350505050565b60006040820190506147fa6000830185614246565b61480760208301846146f5565b9392505050565b60006060820190506148236000830186614246565b61483060208301856146f5565b61483d6040830184614246565b949350505050565b600060808201905061485a6000830187614246565b61486760208301866146f5565b6148746040830185614246565b614881606083018461432b565b95945050505050565b600060608201905061489f6000830186614246565b6148ac60208301856146f5565b6148b960408301846146f5565b949350505050565b60006080820190506148d66000830187614246565b6148e360208301866146f5565b6148f060408301856146f5565b6148fd6060830184614246565b95945050505050565b600060a08201905061491b6000830188614246565b61492860208301876146f5565b61493560408301866146f5565b614942606083018561432b565b61494f6080830184614246565b9695505050505050565b600060208201905061496e60008301846142c2565b92915050565b600060208201905061498960008301846142d1565b92915050565b60006020820190506149a4600083018461430d565b92915050565b60006080820190506149bf600083018761431c565b6149cc6020830186614255565b6149d96040830185614255565b6149e66060830184614255565b95945050505050565b60006020820190508181036000830152614a09818461433a565b905092915050565b60006020820190508181036000830152614a2a816143a4565b9050919050565b60006020820190508181036000830152614a4a816143c7565b9050919050565b60006020820190508181036000830152614a6a816143ea565b9050919050565b60006020820190508181036000830152614a8a8161440d565b9050919050565b60006020820190508181036000830152614aaa81614430565b9050919050565b60006020820190508181036000830152614aca81614453565b9050919050565b60006020820190508181036000830152614aea81614476565b9050919050565b60006020820190508181036000830152614b0a81614499565b9050919050565b60006020820190508181036000830152614b2a816144bc565b9050919050565b60006020820190508181036000830152614b4a816144df565b9050919050565b60006020820190508181036000830152614b6a81614525565b9050919050565b60006020820190508181036000830152614b8a8161456b565b9050919050565b60006020820190508181036000830152614baa8161458e565b9050919050565b60006101e082019050614bc760008301846145b1565b92915050565b6000602082019050614be260008301846146f5565b92915050565b6000608082019050614bfd6000830187614704565b614c0a6020830186614255565b614c176040830185614255565b614c246060830184614255565b95945050505050565b6000604082019050614c4260008301856146f5565b614c4f60208301846146f5565b9392505050565b600060a082019050614c6b60008301886146f5565b614c7860208301876146f5565b8181036040830152614c8a8186614264565b9050614c996060830185614246565b614ca660808301846146f5565b9695505050505050565b6000602082019050614cc56000830184614713565b92915050565b6000614cd5614ce6565b9050614ce1828261516c565b919050565b6000604051905090565b600067ffffffffffffffff821115614d0b57614d0a615349565b5b602082029050602081019050919050565b6000819050602082019050919050565b600081519050919050565b600081519050919050565b6000602082019050919050565b600082825260208201905092915050565b600082825260208201905092915050565b600081905092915050565b6000614d8782615046565b9150614d9283615046565b9250817f7fffffffffffffffffffffffffffffffffffffffffffffffffffffffffffffff03831360008312151615614dcd57614dcc61522f565b5b817f8000000000000000000000000000000000000000000000000000000000000000038312600083121615614e0557614e0461522f565b5b828201905092915050565b6000614e1b8261507e565b9150614e268361507e565b9250827fffffffffffffffffffffffffffffffffffffffffffffffffffffffffffffffff03821115614e5b57614e5a61522f565b5b828201905092915050565b6000614e718261507e565b9150614e7c8361507e565b925082614e8c57614e8b61525e565b5b828204905092915050565b6000614ea28261507e565b9150614ead8361507e565b9250817fffffffffffffffffffffffffffffffffffffffffffffffffffffffffffffffff0483118215151615614ee657614ee561522f565b5b828202905092915050565b6000614efc82615046565b9150614f0783615046565b9250827f800000000000000000000000000000000000000000000000000000000000000001821260008412151615614f4257614f4161522f565b5b827f7fffffffffffffffffffffffffffffffffffffffffffffffffffffffffffffff018213600084121615614f7a57614f7961522f565b5b828203905092915050565b6000614f908261507e565b9150614f9b8361507e565b925082821015614fae57614fad61522f565b5b828203905092915050565b6000614fc48261505e565b9050919050565b60008115159050919050565b6000819050919050565b60007fffffffff0000000000000000000000000000000000000000000000000000000082169050919050565b600081905061501b826157ab565b919050565b600081905061502e826157bf565b919050565b6000819050615041826157d3565b919050565b6000819050919050565b600061ffff82169050919050565b600073ffffffffffffffffffffffffffffffffffffffff82169050919050565b6000819050919050565b600060ff82169050919050565b60006150a08261500d565b9050919050565b60006150b282615020565b9050919050565b60006150c482615033565b9050919050565b60006150d682615050565b9050919050565b60005b838110156150fb5780820151818401526020810190506150e0565b8381111561510a576000848401525b50505050565b600061511b8261507e565b9150600082141561512f5761512e61522f565b5b600182039050919050565b6000600282049050600182168061515257607f821691505b60208210811415615166576151656152bc565b5b50919050565b61517582615391565b810181811067ffffffffffffffff8211171561519457615193615349565b5b80604052505050565b60006151a88261507e565b91507fffffffffffffffffffffffffffffffffffffffffffffffffffffffffffffffff8214156151db576151da61522f565b5b600182019050919050565b60006151f182615046565b91507f80000000000000000000000000000000000000000000000000000000000000008214156152245761522361522f565b5b816000039050919050565b7f4e487b7100000000000000000000000000000000000000000000000000000000600052601160045260246000fd5b7f4e487b7100000000000000000000000000000000000000000000000000000000600052601260045260246000fd5b7f4e487b7100000000000000000000000000000000000000000000000000000000600052602160045260246000fd5b7f4e487b7100000000000000000000000000000000000000000000000000000000600052602260045260246000fd5b7f4e487b7100000000000000000000000000000000000000000000000000000000600052603160045260246000fd5b7f4e487b7100000000000000000000000000000000000000000000000000000000600052603260045260246000fd5b7f4e487b7100000000000000000000000000000000000000000000000000000000600052604160045260246000fd5b600080fd5b600080fd5b600080fd5b600080fd5b600080fd5b6000601f19601f8301169050919050565b7f456e756d657261626c655365743a20696e646578206f7574206f6620626f756e60008201527f6473000000000000000000000000000000000000000000000000000000000000602082015250565b7f537472696e67733a20686578206c656e67746820696e73756666696369656e74600082015250565b7f45524332303a207472616e7366657220746f20746865207a65726f206164647260008201527f6573730000000000000000000000000000000000000000000000000000000000602082015250565b7f45524332303a206275726e20616d6f756e7420657863656564732062616c616e60008201527f6365000000000000000000000000000000000000000000000000000000000000602082015250565b7f45524332303a20617070726f766520746f20746865207a65726f20616464726560008201527f7373000000000000000000000000000000000000000000000000000000000000602082015250565b7f45524332303a207472616e7366657220616d6f756e742065786365656473206260008201527f616c616e63650000000000000000000000000000000000000000000000000000602082015250565b7f45524332303a207472616e7366657220616d6f756e742065786365656473206160008201527f6c6c6f77616e6365000000000000000000000000000000000000000000000000602082015250565b7f45524332303a206275726e2066726f6d20746865207a65726f2061646472657360008201527f7300000000000000000000000000000000000000000000000000000000000000602082015250565b7f45524332303a207472616e736665722066726f6d20746865207a65726f20616460008201527f6472657373000000000000000000000000000000000000000000000000000000602082015250565b7f45524332303a20617070726f76652066726f6d20746865207a65726f2061646460008201527f7265737300000000000000000000000000000000000000000000000000000000602082015250565b7f416363657373436f6e74726f6c3a206163636f756e7420000000000000000000600082015250565b7f45524332303a2064656372656173656420616c6c6f77616e63652062656c6f7760008201527f207a65726f000000000000000000000000000000000000000000000000000000602082015250565b7f206973206d697373696e6720726f6c6520000000000000000000000000000000600082015250565b7f416363657373436f6e74726f6c3a2063616e206f6e6c792072656e6f756e636560008201527f20726f6c657320666f722073656c660000000000000000000000000000000000602082015250565b7f45524332303a206d696e7420746f20746865207a65726f206164647265737300600082015250565b600281106157bc576157bb61528d565b5b50565b600481106157d0576157cf61528d565b5b50565b600281106157e4576157e361528d565b5b50565b6157f081614fb9565b81146157fb57600080fd5b50565b61580781614fcb565b811461581257600080fd5b50565b61581e81614fd7565b811461582957600080fd5b50565b61583581614fe1565b811461584057600080fd5b50565b6002811061585057600080fd5b50565b6004811061586057600080fd5b50565b6002811061587057600080fd5b50565b61587c81615046565b811461588757600080fd5b50565b6158938161507e565b811461589e57600080fd5b5056fea2646970667358221220f2dcfef71b2ab2cdce78f8ef33669bfe6f3a1d3decb307f370bdde5057a9e6d864736f6c63430008060033",
  "immutableReferences": {},
  "source": "/**\n * SPDX-License-Identifier: GPL-3.0-or-later\n * Moret\n * Copyright (C) 2021 Moret\n*/\n\npragma solidity ^0.8.4;\n\nimport \"@openzeppelin/contracts/token/ERC20/ERC20.sol\";\nimport \"@openzeppelin/contracts/access/AccessControl.sol\";\nimport \"@openzeppelin/contracts/utils/structs/EnumerableSet.sol\";\nimport \"./MoretInterfaces.sol\";\nimport \"./MarketLibrary.sol\";\n\ncontract MoretMarketMaker is ERC20, AccessControl, EOption\n{\n  using EnumerableSet for EnumerableSet.UintSet;\n  using EnumerableSet for EnumerableSet.AddressSet;\n\n  bytes32 public constant ADMIN_ROLE = keccak256(\"ADMIN_ROLE\");\n  uint256 private constant ethMultiplier = 10 ** 18;\n\n  mapping(address=> EnumerableSet.UintSet) internal activeOptionsPerOwner;\n  EnumerableSet.UintSet internal activeOptions;\n\n  IUniswapV2Router02 internal uniswapRouter;\n  address internal lendingPoolAddressProvider;\n  ERC20 internal underlyingToken;\n\n  IOptionVault internal optionVault;\n\n  uint256 public lockedPremium = 0;\n  uint256 public callExposure = 0;\n  uint256 public putExposure = 0;\n  uint256 public shortPosition = 0;\n\n  uint256 public swapSlp = 2 * 10**16;\n  uint256 public lendingPoolRateMode = 1;\n\n  address public underlyingAddress;\n  address public fundingAddress;\n\n  constructor(\n      string memory _name,\n      string memory _symbol,\n      address _underlyingAddress,\n      address _fundingAddress,\n      address _optionAddress,\n      address _swapRouterAddress,\n      address _lendingPoolAddressProvider\n      )\n      ERC20(_name, _symbol)\n      {\n          _setupRole(DEFAULT_ADMIN_ROLE, msg.sender);\n          _setupRole(ADMIN_ROLE, msg.sender);\n\n          uniswapRouter = IUniswapV2Router02(_swapRouterAddress);\n          lendingPoolAddressProvider = _lendingPoolAddressProvider;\n\n          fundingAddress = _fundingAddress;\n          underlyingAddress = _underlyingAddress;\n          underlyingToken = ERC20(underlyingAddress);\n          optionVault = IOptionVault(_optionAddress);\n\n          _mint(msg.sender, ethMultiplier);\n      }\n\n\n      function recordOptionPurhcase(address _purchaser, uint256 _id,\n        uint256 _newPremium, uint256 _newCallExposure, uint256 _newPutExposure)\n        external\n      {\n        activeOptionsPerOwner[_purchaser].add(_id);\n        activeOptions.add(_id);\n        lockedPremium += _newPremium;\n        callExposure += _newCallExposure;\n        putExposure += _newPutExposure;\n      }\n\n      function recordOptionRemoval(address _purchaser, uint256 _id,\n        uint256 _removePremium, uint256 _removeCallExposure, uint256 _removePutExposure)\n        external\n      {\n        activeOptionsPerOwner[_purchaser].remove(_id);\n        activeOptions.remove(_id);\n\n        lockedPremium -= _removePremium;\n        callExposure -= _removeCallExposure;\n        putExposure -= _removePutExposure;\n      }\n\n    function calcTotalDelta() public view returns(int256)\n    {\n      uint256 _totalContracts = activeOptions.length();\n      int256 _totalDelta= 0;\n\n      for(uint256 i=0;i<_totalContracts;i++)\n      {\n          uint256 _id = uint256(activeOptions.at(i));\n\n        _totalDelta += optionVault.calculateContractDelta(_id);\n      }\n      return _totalDelta;\n    }\n\n    function updateHedges(uint256 _deadline) external payable onlyRole(ADMIN_ROLE)\n    {\n         int256 _targetDelta = calcTotalDelta();\n         uint256 _newShortPosition = shortPosition;\n         (uint256 _price,) = optionVault.queryPrice();\n\n         if(_targetDelta<-int256(shortPosition))\n         {\n           // repay all borrowing first\n           adjustBorrowing(_targetDelta);\n           // swap to funding\n           uint256 _swapToFunding = Math.min(underlyingToken.balanceOf(address(this)), uint256(-int256(shortPosition)-_targetDelta));\n           if(_swapToFunding>0){\n             uint[] memory _swappedAmountsToFunding = swapToken(_swapToFunding,\n               MulDiv(_swapToFunding, MulDiv(_price , ethMultiplier - swapSlp, ethMultiplier),  optionVault.priceMultiplier() ),\n               underlyingAddress,\n               fundingAddress,\n                _deadline);\n             _newShortPosition += _swappedAmountsToFunding[0];\n           }\n         }\n         if(_targetDelta>-int256(shortPosition))\n         {\n           // swap to underlying\n           uint256 _currentFunding = IERC20(fundingAddress).balanceOf(address(this));\n           uint256 _swapFunding = MulDiv(_currentFunding, Math.min(shortPosition, uint256(_targetDelta+int256(shortPosition))), shortPosition);\n\n           if(_swapFunding>0){\n             uint[] memory _swappedAmountsToUnderlying = swapToken(_swapFunding,\n               MulDiv(_swapFunding, optionVault.priceMultiplier() , MulDiv(_price , ethMultiplier + swapSlp, ethMultiplier) ),\n               fundingAddress,\n               underlyingAddress,\n                _deadline);\n             _newShortPosition -= MulDiv(shortPosition, _swappedAmountsToUnderlying[0], _currentFunding);\n           }\n           // borrow\n           adjustBorrowing(_targetDelta);\n         }\n\n         shortPosition = _newShortPosition;\n    }\n\n    function adjustBorrowing(int256 _targetDelta) internal onlyRole(ADMIN_ROLE){\n      int256 _repayOrBorrow = MarketLibrary.calcRepayOrBorrow(_targetDelta, address(this), lendingPoolAddressProvider, underlyingAddress);\n      address _lendingPoolAddress = ILendingPoolAddressesProvider(lendingPoolAddressProvider).getLendingPool();\n\n      if(_repayOrBorrow < 0) // repay\n      {\n          ILendingPool(_lendingPoolAddress).repay(underlyingAddress, uint256(-_repayOrBorrow), lendingPoolRateMode, address(this));\n          ILendingPool(_lendingPoolAddress).withdraw(underlyingAddress,\n            MarketLibrary.calcWithdrawCollateral(address(this), lendingPoolAddressProvider, underlyingAddress),\n            address(this));\n      }\n      if(_repayOrBorrow > 0) // borrow\n      {\n          ILendingPool(_lendingPoolAddress).deposit(underlyingAddress,\n            MarketLibrary.calcDepositCollateral(uint256(_repayOrBorrow), address(this), lendingPoolAddressProvider, underlyingAddress),\n            address(this), 0);\n          ILendingPool(_lendingPoolAddress).borrow(underlyingAddress, uint256(_repayOrBorrow), lendingPoolRateMode,  0, address(this));\n      }\n    }\n\n    function swapToken(uint256 _amountIn, uint256 _amountOutMinimum, address _tokenIn, address _tokenOut,  uint256 _deadline)\n    internal onlyRole(ADMIN_ROLE) returns(uint256[] memory _swappedAmounts)\n    {\n        address[] memory path = new address[](2);\n        path[0] = _tokenIn;\n        path[1] = _tokenOut;\n\n        return uniswapRouter.swapExactTokensForTokens(\n          _amountIn,\n          _amountOutMinimum,\n          path,\n          address(this),\n          _deadline\n           );\n    }\n\n    function addCapital(uint256 _depositAmount) external payable{\n        uint256 _averageGrossCapital = calcCapital(false, true);\n        require(_averageGrossCapital>0);\n\n        uint256 _mintMPTokenAmount = MulDiv(_depositAmount, ethMultiplier, _averageGrossCapital);\n\n        require(underlyingToken.transferFrom(msg.sender, address(this), _depositAmount));\n\n        _mint(msg.sender, _mintMPTokenAmount);\n\n        emit capitalAdded(msg.sender, _depositAmount, _mintMPTokenAmount);\n    }\n\n\n    function withdrawCapital(uint256 _burnMPTokenAmount) external {\n        uint256 _withdrawValue = MulDiv(calcCapital(true, true),  _burnMPTokenAmount , ethMultiplier);\n\n        _burn(msg.sender, _burnMPTokenAmount);\n\n        require(underlyingToken.transfer(msg.sender, _withdrawValue));\n\n        emit capitalWithdrawn(msg.sender, _burnMPTokenAmount, _withdrawValue);\n    }\n\n    function calcCapital(bool _net, bool _average) public view returns(uint256){\n        (uint256 _price,) = optionVault.queryPrice();\n        uint256 _capital = MulDiv(IERC20(fundingAddress).balanceOf(address(this)), optionVault.priceMultiplier() , _price ) + underlyingToken.balanceOf(address(this)) ;\n\n        if(_net)\n        {\n          _capital -= (_capital <= (callExposure+ putExposure)? _capital: (callExposure+ putExposure));\n          _capital -= (_capital <= lockedPremium? _capital: lockedPremium)  ;\n        }\n\n        if(_average)\n        {\n          _capital = _capital * ethMultiplier / totalSupply();\n        }\n        return _capital;\n    }\n\n    function calcUtilisation(uint256 _amount, OptionLibrary.PayoffType _poType, OptionLibrary.OptionSide _side)\n    external view returns(uint256, uint256){\n        uint256 _grossCapital = calcCapital(false, false);\n\n        uint256 _newCallExposure = (_poType==OptionLibrary.PayoffType.Call)?\n          ((_side==OptionLibrary.OptionSide.Buy)? (callExposure+_amount): (callExposure - Math.min(callExposure, _amount)) )\n          : callExposure;\n        uint256 _newPutExposure = (_poType==OptionLibrary.PayoffType.Put)?\n          ((_side==OptionLibrary.OptionSide.Buy)? (putExposure+_amount): (putExposure - Math.min(putExposure, _amount)) )\n          : putExposure;\n\n        return (MulDiv(Math.max(callExposure, putExposure), ethMultiplier, _grossCapital ),\n          MulDiv(Math.max(_newCallExposure, _newPutExposure) , ethMultiplier, _grossCapital ));\n    }\n\n    function resetSwapSlippageAllowance(uint256 _multiplier) external onlyRole(ADMIN_ROLE){\n        swapSlp = _multiplier;\n    }\n\n    function getHoldersOptionCount(address _address) external view returns(uint256){return activeOptionsPerOwner[_address].length();}\n    function getHoldersOption(uint256 _index, address _address) external view returns(OptionLibrary.Option memory) {return optionVault.getOption(activeOptionsPerOwner[_address].at(_index));}\n\n    receive() external payable{}\n\n}\n",
  "sourcePath": "/Users/mac/Documents/GitHub/moret/contracts/MoretMarketMaker.sol",
  "compiler": {
    "name": "solc",
    "version": "0.8.6+commit.11564f7e.Emscripten.clang"
  },
  "schemaVersion": "3.4.1",
  "updatedAt": "2021-07-07T22:16:49.559Z",
  "devdoc": {
    "kind": "dev",
    "methods": {
      "allowance(address,address)": {
        "details": "See {IERC20-allowance}."
      },
      "approve(address,uint256)": {
        "details": "See {IERC20-approve}. Requirements: - `spender` cannot be the zero address."
      },
      "balanceOf(address)": {
        "details": "See {IERC20-balanceOf}."
      },
      "decimals()": {
        "details": "Returns the number of decimals used to get its user representation. For example, if `decimals` equals `2`, a balance of `505` tokens should be displayed to a user as `5,05` (`505 / 10 ** 2`). Tokens usually opt for a value of 18, imitating the relationship between Ether and Wei. This is the value {ERC20} uses, unless this function is overridden; NOTE: This information is only used for _display_ purposes: it in no way affects any of the arithmetic of the contract, including {IERC20-balanceOf} and {IERC20-transfer}."
      },
      "decreaseAllowance(address,uint256)": {
        "details": "Atomically decreases the allowance granted to `spender` by the caller. This is an alternative to {approve} that can be used as a mitigation for problems described in {IERC20-approve}. Emits an {Approval} event indicating the updated allowance. Requirements: - `spender` cannot be the zero address. - `spender` must have allowance for the caller of at least `subtractedValue`."
      },
      "getRoleAdmin(bytes32)": {
        "details": "Returns the admin role that controls `role`. See {grantRole} and {revokeRole}. To change a role's admin, use {_setRoleAdmin}."
      },
      "grantRole(bytes32,address)": {
        "details": "Grants `role` to `account`. If `account` had not been already granted `role`, emits a {RoleGranted} event. Requirements: - the caller must have ``role``'s admin role."
      },
      "hasRole(bytes32,address)": {
        "details": "Returns `true` if `account` has been granted `role`."
      },
      "increaseAllowance(address,uint256)": {
        "details": "Atomically increases the allowance granted to `spender` by the caller. This is an alternative to {approve} that can be used as a mitigation for problems described in {IERC20-approve}. Emits an {Approval} event indicating the updated allowance. Requirements: - `spender` cannot be the zero address."
      },
      "name()": {
        "details": "Returns the name of the token."
      },
      "renounceRole(bytes32,address)": {
        "details": "Revokes `role` from the calling account. Roles are often managed via {grantRole} and {revokeRole}: this function's purpose is to provide a mechanism for accounts to lose their privileges if they are compromised (such as when a trusted device is misplaced). If the calling account had been granted `role`, emits a {RoleRevoked} event. Requirements: - the caller must be `account`."
      },
      "revokeRole(bytes32,address)": {
        "details": "Revokes `role` from `account`. If `account` had been granted `role`, emits a {RoleRevoked} event. Requirements: - the caller must have ``role``'s admin role."
      },
      "supportsInterface(bytes4)": {
        "details": "See {IERC165-supportsInterface}."
      },
      "symbol()": {
        "details": "Returns the symbol of the token, usually a shorter version of the name."
      },
      "totalSupply()": {
        "details": "See {IERC20-totalSupply}."
      },
      "transfer(address,uint256)": {
        "details": "See {IERC20-transfer}. Requirements: - `recipient` cannot be the zero address. - the caller must have a balance of at least `amount`."
      },
      "transferFrom(address,address,uint256)": {
        "details": "See {IERC20-transferFrom}. Emits an {Approval} event indicating the updated allowance. This is not required by the EIP. See the note at the beginning of {ERC20}. Requirements: - `sender` and `recipient` cannot be the zero address. - `sender` must have a balance of at least `amount`. - the caller must have allowance for ``sender``'s tokens of at least `amount`."
      }
    },
    "version": 1
  },
  "userdoc": {
    "kind": "user",
    "methods": {},
    "version": 1
  }
}