{
  "contractName": "MoretMarketMaker",
  "abi": [
    {
      "inputs": [
        {
          "internalType": "string",
          "name": "_name",
          "type": "string"
        },
        {
          "internalType": "string",
          "name": "_symbol",
          "type": "string"
        },
        {
          "internalType": "address",
          "name": "_underlyingAddress",
          "type": "address"
        },
        {
          "internalType": "address",
          "name": "_fundingAddress",
          "type": "address"
        },
        {
          "internalType": "address",
          "name": "_optionAddress",
          "type": "address"
        },
        {
          "internalType": "address",
          "name": "_swapRouterAddress",
          "type": "address"
        }
      ],
      "stateMutability": "nonpayable",
      "type": "constructor"
    },
    {
      "anonymous": false,
      "inputs": [
        {
          "indexed": true,
          "internalType": "address",
          "name": "owner",
          "type": "address"
        },
        {
          "indexed": true,
          "internalType": "address",
          "name": "spender",
          "type": "address"
        },
        {
          "indexed": false,
          "internalType": "uint256",
          "name": "value",
          "type": "uint256"
        }
      ],
      "name": "Approval",
      "type": "event"
    },
    {
      "anonymous": false,
      "inputs": [
        {
          "indexed": true,
          "internalType": "bytes32",
          "name": "role",
          "type": "bytes32"
        },
        {
          "indexed": true,
          "internalType": "bytes32",
          "name": "previousAdminRole",
          "type": "bytes32"
        },
        {
          "indexed": true,
          "internalType": "bytes32",
          "name": "newAdminRole",
          "type": "bytes32"
        }
      ],
      "name": "RoleAdminChanged",
      "type": "event"
    },
    {
      "anonymous": false,
      "inputs": [
        {
          "indexed": true,
          "internalType": "bytes32",
          "name": "role",
          "type": "bytes32"
        },
        {
          "indexed": true,
          "internalType": "address",
          "name": "account",
          "type": "address"
        },
        {
          "indexed": true,
          "internalType": "address",
          "name": "sender",
          "type": "address"
        }
      ],
      "name": "RoleGranted",
      "type": "event"
    },
    {
      "anonymous": false,
      "inputs": [
        {
          "indexed": true,
          "internalType": "bytes32",
          "name": "role",
          "type": "bytes32"
        },
        {
          "indexed": true,
          "internalType": "address",
          "name": "account",
          "type": "address"
        },
        {
          "indexed": true,
          "internalType": "address",
          "name": "sender",
          "type": "address"
        }
      ],
      "name": "RoleRevoked",
      "type": "event"
    },
    {
      "anonymous": false,
      "inputs": [
        {
          "indexed": true,
          "internalType": "address",
          "name": "from",
          "type": "address"
        },
        {
          "indexed": true,
          "internalType": "address",
          "name": "to",
          "type": "address"
        },
        {
          "indexed": false,
          "internalType": "uint256",
          "name": "value",
          "type": "uint256"
        }
      ],
      "name": "Transfer",
      "type": "event"
    },
    {
      "anonymous": false,
      "inputs": [
        {
          "indexed": false,
          "internalType": "address",
          "name": "_recipient",
          "type": "address"
        },
        {
          "indexed": false,
          "internalType": "uint256",
          "name": "_mintMPTokenAmount",
          "type": "uint256"
        },
        {
          "indexed": false,
          "internalType": "uint256",
          "name": "_addedValue",
          "type": "uint256"
        }
      ],
      "name": "capitalAdded",
      "type": "event"
    },
    {
      "anonymous": false,
      "inputs": [
        {
          "indexed": false,
          "internalType": "address",
          "name": "_recipient",
          "type": "address"
        },
        {
          "indexed": false,
          "internalType": "uint256",
          "name": "_burnMPTokenAmount",
          "type": "uint256"
        },
        {
          "indexed": false,
          "internalType": "uint256",
          "name": "_withdrawValue",
          "type": "uint256"
        }
      ],
      "name": "capitalWithdrawn",
      "type": "event"
    },
    {
      "anonymous": false,
      "inputs": [
        {
          "indexed": true,
          "internalType": "address",
          "name": "_purchaser",
          "type": "address"
        },
        {
          "components": [
            {
              "internalType": "enum OptionLibrary.PayoffType",
              "name": "poType",
              "type": "uint8"
            },
            {
              "internalType": "enum OptionLibrary.OptionSide",
              "name": "side",
              "type": "uint8"
            },
            {
              "internalType": "enum OptionLibrary.OptionStatus",
              "name": "status",
              "type": "uint8"
            },
            {
              "internalType": "address",
              "name": "holder",
              "type": "address"
            },
            {
              "internalType": "uint256",
              "name": "id",
              "type": "uint256"
            },
            {
              "internalType": "uint256",
              "name": "createTime",
              "type": "uint256"
            },
            {
              "internalType": "uint256",
              "name": "effectiveTime",
              "type": "uint256"
            },
            {
              "internalType": "uint256",
              "name": "tenor",
              "type": "uint256"
            },
            {
              "internalType": "uint256",
              "name": "exerciseTime",
              "type": "uint256"
            },
            {
              "internalType": "uint256",
              "name": "amount",
              "type": "uint256"
            },
            {
              "internalType": "uint256",
              "name": "spot",
              "type": "uint256"
            },
            {
              "internalType": "uint256",
              "name": "strike",
              "type": "uint256"
            },
            {
              "internalType": "uint256",
              "name": "volatility",
              "type": "uint256"
            },
            {
              "internalType": "uint256",
              "name": "premium",
              "type": "uint256"
            },
            {
              "internalType": "uint256",
              "name": "fee",
              "type": "uint256"
            }
          ],
          "indexed": false,
          "internalType": "struct OptionLibrary.Option",
          "name": "_option",
          "type": "tuple"
        },
        {
          "indexed": false,
          "internalType": "uint256",
          "name": "_cost",
          "type": "uint256"
        },
        {
          "indexed": false,
          "internalType": "bool",
          "name": "_inVol",
          "type": "bool"
        }
      ],
      "name": "newOptionBought",
      "type": "event"
    },
    {
      "anonymous": false,
      "inputs": [
        {
          "indexed": false,
          "internalType": "address",
          "name": "_purchaser",
          "type": "address"
        },
        {
          "indexed": false,
          "internalType": "uint256",
          "name": "_time",
          "type": "uint256"
        },
        {
          "indexed": false,
          "internalType": "uint256",
          "name": "_tenor",
          "type": "uint256"
        },
        {
          "indexed": false,
          "internalType": "uint256",
          "name": "_amount",
          "type": "uint256"
        }
      ],
      "name": "newVolatilityTokenBought",
      "type": "event"
    },
    {
      "anonymous": false,
      "inputs": [
        {
          "indexed": true,
          "internalType": "address",
          "name": "_purchaser",
          "type": "address"
        },
        {
          "components": [
            {
              "internalType": "enum OptionLibrary.PayoffType",
              "name": "poType",
              "type": "uint8"
            },
            {
              "internalType": "enum OptionLibrary.OptionSide",
              "name": "side",
              "type": "uint8"
            },
            {
              "internalType": "enum OptionLibrary.OptionStatus",
              "name": "status",
              "type": "uint8"
            },
            {
              "internalType": "address",
              "name": "holder",
              "type": "address"
            },
            {
              "internalType": "uint256",
              "name": "id",
              "type": "uint256"
            },
            {
              "internalType": "uint256",
              "name": "createTime",
              "type": "uint256"
            },
            {
              "internalType": "uint256",
              "name": "effectiveTime",
              "type": "uint256"
            },
            {
              "internalType": "uint256",
              "name": "tenor",
              "type": "uint256"
            },
            {
              "internalType": "uint256",
              "name": "exerciseTime",
              "type": "uint256"
            },
            {
              "internalType": "uint256",
              "name": "amount",
              "type": "uint256"
            },
            {
              "internalType": "uint256",
              "name": "spot",
              "type": "uint256"
            },
            {
              "internalType": "uint256",
              "name": "strike",
              "type": "uint256"
            },
            {
              "internalType": "uint256",
              "name": "volatility",
              "type": "uint256"
            },
            {
              "internalType": "uint256",
              "name": "premium",
              "type": "uint256"
            },
            {
              "internalType": "uint256",
              "name": "fee",
              "type": "uint256"
            }
          ],
          "indexed": false,
          "internalType": "struct OptionLibrary.Option",
          "name": "_option",
          "type": "tuple"
        },
        {
          "indexed": false,
          "internalType": "uint256",
          "name": "_payoff",
          "type": "uint256"
        }
      ],
      "name": "optionExercised",
      "type": "event"
    },
    {
      "inputs": [],
      "name": "ADMIN_ROLE",
      "outputs": [
        {
          "internalType": "bytes32",
          "name": "",
          "type": "bytes32"
        }
      ],
      "stateMutability": "view",
      "type": "function"
    },
    {
      "inputs": [],
      "name": "DEFAULT_ADMIN_ROLE",
      "outputs": [
        {
          "internalType": "bytes32",
          "name": "",
          "type": "bytes32"
        }
      ],
      "stateMutability": "view",
      "type": "function"
    },
    {
      "inputs": [
        {
          "internalType": "address",
          "name": "owner",
          "type": "address"
        },
        {
          "internalType": "address",
          "name": "spender",
          "type": "address"
        }
      ],
      "name": "allowance",
      "outputs": [
        {
          "internalType": "uint256",
          "name": "",
          "type": "uint256"
        }
      ],
      "stateMutability": "view",
      "type": "function"
    },
    {
      "inputs": [
        {
          "internalType": "address",
          "name": "spender",
          "type": "address"
        },
        {
          "internalType": "uint256",
          "name": "amount",
          "type": "uint256"
        }
      ],
      "name": "approve",
      "outputs": [
        {
          "internalType": "bool",
          "name": "",
          "type": "bool"
        }
      ],
      "stateMutability": "nonpayable",
      "type": "function"
    },
    {
      "inputs": [
        {
          "internalType": "address",
          "name": "account",
          "type": "address"
        }
      ],
      "name": "balanceOf",
      "outputs": [
        {
          "internalType": "uint256",
          "name": "",
          "type": "uint256"
        }
      ],
      "stateMutability": "view",
      "type": "function"
    },
    {
      "inputs": [],
      "name": "callExposure",
      "outputs": [
        {
          "internalType": "uint256",
          "name": "",
          "type": "uint256"
        }
      ],
      "stateMutability": "view",
      "type": "function"
    },
    {
      "inputs": [],
      "name": "decimals",
      "outputs": [
        {
          "internalType": "uint8",
          "name": "",
          "type": "uint8"
        }
      ],
      "stateMutability": "view",
      "type": "function"
    },
    {
      "inputs": [
        {
          "internalType": "address",
          "name": "spender",
          "type": "address"
        },
        {
          "internalType": "uint256",
          "name": "subtractedValue",
          "type": "uint256"
        }
      ],
      "name": "decreaseAllowance",
      "outputs": [
        {
          "internalType": "bool",
          "name": "",
          "type": "bool"
        }
      ],
      "stateMutability": "nonpayable",
      "type": "function"
    },
    {
      "inputs": [],
      "name": "fundingAddress",
      "outputs": [
        {
          "internalType": "address",
          "name": "",
          "type": "address"
        }
      ],
      "stateMutability": "view",
      "type": "function"
    },
    {
      "inputs": [
        {
          "internalType": "bytes32",
          "name": "role",
          "type": "bytes32"
        }
      ],
      "name": "getRoleAdmin",
      "outputs": [
        {
          "internalType": "bytes32",
          "name": "",
          "type": "bytes32"
        }
      ],
      "stateMutability": "view",
      "type": "function"
    },
    {
      "inputs": [
        {
          "internalType": "bytes32",
          "name": "role",
          "type": "bytes32"
        },
        {
          "internalType": "address",
          "name": "account",
          "type": "address"
        }
      ],
      "name": "grantRole",
      "outputs": [],
      "stateMutability": "nonpayable",
      "type": "function"
    },
    {
      "inputs": [
        {
          "internalType": "bytes32",
          "name": "role",
          "type": "bytes32"
        },
        {
          "internalType": "address",
          "name": "account",
          "type": "address"
        }
      ],
      "name": "hasRole",
      "outputs": [
        {
          "internalType": "bool",
          "name": "",
          "type": "bool"
        }
      ],
      "stateMutability": "view",
      "type": "function"
    },
    {
      "inputs": [],
      "name": "hedgePositionAmount",
      "outputs": [
        {
          "internalType": "int256",
          "name": "",
          "type": "int256"
        }
      ],
      "stateMutability": "view",
      "type": "function"
    },
    {
      "inputs": [
        {
          "internalType": "address",
          "name": "spender",
          "type": "address"
        },
        {
          "internalType": "uint256",
          "name": "addedValue",
          "type": "uint256"
        }
      ],
      "name": "increaseAllowance",
      "outputs": [
        {
          "internalType": "bool",
          "name": "",
          "type": "bool"
        }
      ],
      "stateMutability": "nonpayable",
      "type": "function"
    },
    {
      "inputs": [],
      "name": "lockedPremium",
      "outputs": [
        {
          "internalType": "uint256",
          "name": "",
          "type": "uint256"
        }
      ],
      "stateMutability": "view",
      "type": "function"
    },
    {
      "inputs": [],
      "name": "name",
      "outputs": [
        {
          "internalType": "string",
          "name": "",
          "type": "string"
        }
      ],
      "stateMutability": "view",
      "type": "function"
    },
    {
      "inputs": [],
      "name": "putExposure",
      "outputs": [
        {
          "internalType": "uint256",
          "name": "",
          "type": "uint256"
        }
      ],
      "stateMutability": "view",
      "type": "function"
    },
    {
      "inputs": [
        {
          "internalType": "bytes32",
          "name": "role",
          "type": "bytes32"
        },
        {
          "internalType": "address",
          "name": "account",
          "type": "address"
        }
      ],
      "name": "renounceRole",
      "outputs": [],
      "stateMutability": "nonpayable",
      "type": "function"
    },
    {
      "inputs": [
        {
          "internalType": "bytes32",
          "name": "role",
          "type": "bytes32"
        },
        {
          "internalType": "address",
          "name": "account",
          "type": "address"
        }
      ],
      "name": "revokeRole",
      "outputs": [],
      "stateMutability": "nonpayable",
      "type": "function"
    },
    {
      "inputs": [
        {
          "internalType": "bytes4",
          "name": "interfaceId",
          "type": "bytes4"
        }
      ],
      "name": "supportsInterface",
      "outputs": [
        {
          "internalType": "bool",
          "name": "",
          "type": "bool"
        }
      ],
      "stateMutability": "view",
      "type": "function"
    },
    {
      "inputs": [],
      "name": "swapSlippageAllowance",
      "outputs": [
        {
          "internalType": "uint256",
          "name": "numerator",
          "type": "uint256"
        },
        {
          "internalType": "uint256",
          "name": "denominator",
          "type": "uint256"
        }
      ],
      "stateMutability": "view",
      "type": "function"
    },
    {
      "inputs": [],
      "name": "symbol",
      "outputs": [
        {
          "internalType": "string",
          "name": "",
          "type": "string"
        }
      ],
      "stateMutability": "view",
      "type": "function"
    },
    {
      "inputs": [],
      "name": "totalSupply",
      "outputs": [
        {
          "internalType": "uint256",
          "name": "",
          "type": "uint256"
        }
      ],
      "stateMutability": "view",
      "type": "function"
    },
    {
      "inputs": [
        {
          "internalType": "address",
          "name": "recipient",
          "type": "address"
        },
        {
          "internalType": "uint256",
          "name": "amount",
          "type": "uint256"
        }
      ],
      "name": "transfer",
      "outputs": [
        {
          "internalType": "bool",
          "name": "",
          "type": "bool"
        }
      ],
      "stateMutability": "nonpayable",
      "type": "function"
    },
    {
      "inputs": [
        {
          "internalType": "address",
          "name": "sender",
          "type": "address"
        },
        {
          "internalType": "address",
          "name": "recipient",
          "type": "address"
        },
        {
          "internalType": "uint256",
          "name": "amount",
          "type": "uint256"
        }
      ],
      "name": "transferFrom",
      "outputs": [
        {
          "internalType": "bool",
          "name": "",
          "type": "bool"
        }
      ],
      "stateMutability": "nonpayable",
      "type": "function"
    },
    {
      "inputs": [],
      "name": "underlyingAddress",
      "outputs": [
        {
          "internalType": "address",
          "name": "",
          "type": "address"
        }
      ],
      "stateMutability": "view",
      "type": "function"
    },
    {
      "stateMutability": "payable",
      "type": "receive"
    },
    {
      "inputs": [
        {
          "internalType": "address",
          "name": "_purchaser",
          "type": "address"
        },
        {
          "internalType": "uint256",
          "name": "_id",
          "type": "uint256"
        },
        {
          "internalType": "uint256",
          "name": "_newPremium",
          "type": "uint256"
        },
        {
          "internalType": "uint256",
          "name": "_newCallExposure",
          "type": "uint256"
        },
        {
          "internalType": "uint256",
          "name": "_newPutExposure",
          "type": "uint256"
        }
      ],
      "name": "recordOptionPurhcase",
      "outputs": [],
      "stateMutability": "nonpayable",
      "type": "function"
    },
    {
      "inputs": [
        {
          "internalType": "address",
          "name": "_purchaser",
          "type": "address"
        },
        {
          "internalType": "uint256",
          "name": "_id",
          "type": "uint256"
        },
        {
          "internalType": "uint256",
          "name": "_removePremium",
          "type": "uint256"
        },
        {
          "internalType": "uint256",
          "name": "_removeCallExposure",
          "type": "uint256"
        },
        {
          "internalType": "uint256",
          "name": "_removePutExposure",
          "type": "uint256"
        }
      ],
      "name": "recordOptionRemoval",
      "outputs": [],
      "stateMutability": "nonpayable",
      "type": "function"
    },
    {
      "inputs": [],
      "name": "calcTotalDelta",
      "outputs": [
        {
          "internalType": "int256",
          "name": "",
          "type": "int256"
        }
      ],
      "stateMutability": "view",
      "type": "function"
    },
    {
      "inputs": [
        {
          "internalType": "uint256",
          "name": "_deadline",
          "type": "uint256"
        }
      ],
      "name": "updateHedges",
      "outputs": [],
      "stateMutability": "payable",
      "type": "function"
    },
    {
      "inputs": [
        {
          "internalType": "uint256",
          "name": "_newStable",
          "type": "uint256"
        },
        {
          "internalType": "uint256",
          "name": "_deadline",
          "type": "uint256"
        }
      ],
      "name": "swapToStable",
      "outputs": [
        {
          "internalType": "uint256[]",
          "name": "_swappedAmounts",
          "type": "uint256[]"
        }
      ],
      "stateMutability": "nonpayable",
      "type": "function"
    },
    {
      "inputs": [
        {
          "internalType": "uint256",
          "name": "_unwindStable",
          "type": "uint256"
        },
        {
          "internalType": "uint256",
          "name": "_deadline",
          "type": "uint256"
        }
      ],
      "name": "swapToUnderlying",
      "outputs": [
        {
          "internalType": "uint256[]",
          "name": "_swappedAmounts",
          "type": "uint256[]"
        }
      ],
      "stateMutability": "nonpayable",
      "type": "function"
    },
    {
      "inputs": [
        {
          "internalType": "uint256",
          "name": "_mpAmount",
          "type": "uint256"
        }
      ],
      "name": "quoteCapitalCost",
      "outputs": [
        {
          "internalType": "uint256",
          "name": "",
          "type": "uint256"
        }
      ],
      "stateMutability": "view",
      "type": "function"
    },
    {
      "inputs": [
        {
          "internalType": "uint256",
          "name": "_depositAmount",
          "type": "uint256"
        }
      ],
      "name": "addCapital",
      "outputs": [],
      "stateMutability": "payable",
      "type": "function"
    },
    {
      "inputs": [
        {
          "internalType": "uint256",
          "name": "_burnMPTokenAmount",
          "type": "uint256"
        }
      ],
      "name": "withdrawCapital",
      "outputs": [],
      "stateMutability": "nonpayable",
      "type": "function"
    },
    {
      "inputs": [
        {
          "internalType": "bool",
          "name": "_net",
          "type": "bool"
        },
        {
          "internalType": "bool",
          "name": "_average",
          "type": "bool"
        }
      ],
      "name": "calcCapital",
      "outputs": [
        {
          "internalType": "uint256",
          "name": "",
          "type": "uint256"
        }
      ],
      "stateMutability": "view",
      "type": "function"
    },
    {
      "inputs": [
        {
          "internalType": "uint256",
          "name": "_amount",
          "type": "uint256"
        },
        {
          "internalType": "enum OptionLibrary.PayoffType",
          "name": "_poType",
          "type": "uint8"
        },
        {
          "internalType": "enum OptionLibrary.OptionSide",
          "name": "_side",
          "type": "uint8"
        }
      ],
      "name": "calcUtilisation",
      "outputs": [
        {
          "internalType": "uint256",
          "name": "",
          "type": "uint256"
        },
        {
          "internalType": "uint256",
          "name": "",
          "type": "uint256"
        }
      ],
      "stateMutability": "view",
      "type": "function"
    },
    {
      "inputs": [],
      "name": "sweepBalance",
      "outputs": [],
      "stateMutability": "nonpayable",
      "type": "function"
    },
    {
      "inputs": [
        {
          "internalType": "uint256",
          "name": "_multiplier",
          "type": "uint256"
        },
        {
          "internalType": "uint256",
          "name": "_denominator",
          "type": "uint256"
        }
      ],
      "name": "resetSwapSlippageAllowance",
      "outputs": [],
      "stateMutability": "nonpayable",
      "type": "function"
    },
    {
      "inputs": [
        {
          "internalType": "address",
          "name": "_address",
          "type": "address"
        }
      ],
      "name": "getHoldersOptionCount",
      "outputs": [
        {
          "internalType": "uint256",
          "name": "",
          "type": "uint256"
        }
      ],
      "stateMutability": "view",
      "type": "function"
    },
    {
      "inputs": [
        {
          "internalType": "uint256",
          "name": "_index",
          "type": "uint256"
        },
        {
          "internalType": "address",
          "name": "_address",
          "type": "address"
        }
      ],
      "name": "getHoldersOption",
      "outputs": [
        {
          "components": [
            {
              "internalType": "enum OptionLibrary.PayoffType",
              "name": "poType",
              "type": "uint8"
            },
            {
              "internalType": "enum OptionLibrary.OptionSide",
              "name": "side",
              "type": "uint8"
            },
            {
              "internalType": "enum OptionLibrary.OptionStatus",
              "name": "status",
              "type": "uint8"
            },
            {
              "internalType": "address",
              "name": "holder",
              "type": "address"
            },
            {
              "internalType": "uint256",
              "name": "id",
              "type": "uint256"
            },
            {
              "internalType": "uint256",
              "name": "createTime",
              "type": "uint256"
            },
            {
              "internalType": "uint256",
              "name": "effectiveTime",
              "type": "uint256"
            },
            {
              "internalType": "uint256",
              "name": "tenor",
              "type": "uint256"
            },
            {
              "internalType": "uint256",
              "name": "exerciseTime",
              "type": "uint256"
            },
            {
              "internalType": "uint256",
              "name": "amount",
              "type": "uint256"
            },
            {
              "internalType": "uint256",
              "name": "spot",
              "type": "uint256"
            },
            {
              "internalType": "uint256",
              "name": "strike",
              "type": "uint256"
            },
            {
              "internalType": "uint256",
              "name": "volatility",
              "type": "uint256"
            },
            {
              "internalType": "uint256",
              "name": "premium",
              "type": "uint256"
            },
            {
              "internalType": "uint256",
              "name": "fee",
              "type": "uint256"
            }
          ],
          "internalType": "struct OptionLibrary.Option",
          "name": "",
          "type": "tuple"
        }
      ],
      "stateMutability": "view",
      "type": "function"
    },
    {
      "inputs": [],
      "name": "priceDecimals",
      "outputs": [
        {
          "internalType": "uint256",
          "name": "",
          "type": "uint256"
        }
      ],
      "stateMutability": "view",
      "type": "function"
    }
  ],
  "bytecode": "0x60806040526000600e556000600f55600060105560006011556040518060400160405280614e208152602001620f42408152506012600082015181600001556020820151816001015550503480156200005757600080fd5b50604051620063af380380620063af83398181016040528101906200007d9190620006b1565b85858160039080519060200190620000979291906200056c565b508060049080519060200190620000b09291906200056c565b505050620000c86000801b336200028760201b60201c565b620000fa7fa49807205ce4d355092ef5a8a18f56e8913cf4a201fbe287825b095693c21775336200028760201b60201c565b80600b60006101000a81548173ffffffffffffffffffffffffffffffffffffffff021916908373ffffffffffffffffffffffffffffffffffffffff16021790555082601560006101000a81548173ffffffffffffffffffffffffffffffffffffffff021916908373ffffffffffffffffffffffffffffffffffffffff16021790555083601460006101000a81548173ffffffffffffffffffffffffffffffffffffffff021916908373ffffffffffffffffffffffffffffffffffffffff160217905550601460009054906101000a900473ffffffffffffffffffffffffffffffffffffffff16600c60006101000a81548173ffffffffffffffffffffffffffffffffffffffff021916908373ffffffffffffffffffffffffffffffffffffffff16021790555081600d60006101000a81548173ffffffffffffffffffffffffffffffffffffffff021916908373ffffffffffffffffffffffffffffffffffffffff1602179055506200027b33670de0b6b3a76400006200029d60201b60201c565b50505050505062000aa4565b6200029982826200040260201b60201c565b5050565b600073ffffffffffffffffffffffffffffffffffffffff168273ffffffffffffffffffffffffffffffffffffffff16141562000310576040517f08c379a00000000000000000000000000000000000000000000000000000000081526004016200030790620007c3565b60405180910390fd5b6200032460008383620004f460201b60201c565b806002600082825462000338919062000872565b92505081905550806000808473ffffffffffffffffffffffffffffffffffffffff1673ffffffffffffffffffffffffffffffffffffffff16815260200190815260200160002060008282546200038f919062000872565b925050819055508173ffffffffffffffffffffffffffffffffffffffff16600073ffffffffffffffffffffffffffffffffffffffff167fddf252ad1be2c89b69c2b068fc378daa952ba7f163c4a11628f55a4df523b3ef83604051620003f69190620007e5565b60405180910390a35050565b620004148282620004f960201b60201c565b620004f05760016005600084815260200190815260200160002060000160008373ffffffffffffffffffffffffffffffffffffffff1673ffffffffffffffffffffffffffffffffffffffff16815260200190815260200160002060006101000a81548160ff021916908315150217905550620004956200056460201b60201c565b73ffffffffffffffffffffffffffffffffffffffff168173ffffffffffffffffffffffffffffffffffffffff16837f2f8788117e7eff1d82e926ec794901d17c78024a50270940304540a733656f0d60405160405180910390a45b5050565b505050565b60006005600084815260200190815260200160002060000160008373ffffffffffffffffffffffffffffffffffffffff1673ffffffffffffffffffffffffffffffffffffffff16815260200190815260200160002060009054906101000a900460ff16905092915050565b600033905090565b8280546200057a9062000943565b90600052602060002090601f0160209004810192826200059e5760008555620005ea565b82601f10620005b957805160ff1916838001178555620005ea565b82800160010185558215620005ea579182015b82811115620005e9578251825591602001919060010190620005cc565b5b509050620005f99190620005fd565b5090565b5b8082111562000618576000816000905550600101620005fe565b5090565b6000620006336200062d846200082b565b62000802565b90508281526020810184848401111562000652576200065162000a41565b5b6200065f8482856200090d565b509392505050565b600081519050620006788162000a8a565b92915050565b600082601f83011262000696576200069562000a3c565b5b8151620006a88482602086016200061c565b91505092915050565b60008060008060008060c08789031215620006d157620006d062000a4b565b5b600087015167ffffffffffffffff811115620006f257620006f162000a46565b5b6200070089828a016200067e565b965050602087015167ffffffffffffffff81111562000724576200072362000a46565b5b6200073289828a016200067e565b95505060406200074589828a0162000667565b94505060606200075889828a0162000667565b93505060806200076b89828a0162000667565b92505060a06200077e89828a0162000667565b9150509295509295509295565b60006200079a601f8362000861565b9150620007a78262000a61565b602082019050919050565b620007bd8162000903565b82525050565b60006020820190508181036000830152620007de816200078b565b9050919050565b6000602082019050620007fc6000830184620007b2565b92915050565b60006200080e62000821565b90506200081c828262000979565b919050565b6000604051905090565b600067ffffffffffffffff82111562000849576200084862000a0d565b5b620008548262000a50565b9050602081019050919050565b600082825260208201905092915050565b60006200087f8262000903565b91506200088c8362000903565b9250827fffffffffffffffffffffffffffffffffffffffffffffffffffffffffffffffff03821115620008c457620008c3620009af565b5b828201905092915050565b6000620008dc82620008e3565b9050919050565b600073ffffffffffffffffffffffffffffffffffffffff82169050919050565b6000819050919050565b60005b838110156200092d57808201518184015260208101905062000910565b838111156200093d576000848401525b50505050565b600060028204905060018216806200095c57607f821691505b60208210811415620009735762000972620009de565b5b50919050565b620009848262000a50565b810181811067ffffffffffffffff82111715620009a657620009a562000a0d565b5b80604052505050565b7f4e487b7100000000000000000000000000000000000000000000000000000000600052601160045260246000fd5b7f4e487b7100000000000000000000000000000000000000000000000000000000600052602260045260246000fd5b7f4e487b7100000000000000000000000000000000000000000000000000000000600052604160045260246000fd5b600080fd5b600080fd5b600080fd5b600080fd5b6000601f19601f8301169050919050565b7f45524332303a206d696e7420746f20746865207a65726f206164647265737300600082015250565b62000a9581620008cf565b811462000aa157600080fd5b50565b6158fb8062000ab46000396000f3fe6080604052600436106102555760003560e01c80638e16a8a611610139578063c3513f6d116100b6578063d5093b0b1161007a578063d5093b0b14610955578063d547741f1461097e578063d95b0a12146109a7578063dc723c6e146109d0578063dd62ed3e146109fb578063f8daf7d814610a385761025c565b8063c3513f6d14610884578063cbe42a181461089b578063cc8156ce146108c4578063d3b7bfb4146108ed578063d4427b91146109185761025c565b8063a457c2d7116100fd578063a457c2d714610773578063a9059cbb146107b0578063ad760032146107ed578063bd069b411461082a578063bea10f96146108685761025c565b80638e16a8a61461066657806391d14854146106a357806395d89b41146106e0578063a217fddf1461070b578063a42b6626146107365761025c565b8063313ce567116101d25780634d3e8863116101965780634d3e88631461052d578063634479021461055957806370a082311461059657806375b238fc146105d3578063797be55e146105fe5780638a0687d2146106295761025c565b8063313ce5671461045557806336568abe1461048057806336da4887146104a957806339509351146104d457806343138690146105115761025c565b80631dca1553116102195780631dca15531461035c5780632140ea671461038757806323b872dd146103b2578063248a9ca3146103ef5780632f2ff15d1461042c5761025c565b806301ffc9a71461026157806305300b281461029e57806306fdde03146102c9578063095ea7b3146102f457806318160ddd146103315761025c565b3661025c57005b600080fd5b34801561026d57600080fd5b506102886004803603810190610283919061406a565b610a63565b6040516102959190614913565b60405180910390f35b3480156102aa57600080fd5b506102b3610add565b6040516102c09190614ba2565b60405180910390f35b3480156102d557600080fd5b506102de610b84565b6040516102eb9190614964565b60405180910390f35b34801561030057600080fd5b5061031b60048036038101906103169190613e8c565b610c16565b6040516103289190614913565b60405180910390f35b34801561033d57600080fd5b50610346610c34565b6040516103539190614ba2565b60405180910390f35b34801561036857600080fd5b50610371610c3e565b60405161037e9190614949565b60405180910390f35b34801561039357600080fd5b5061039c610c44565b6040516103a9919061483f565b60405180910390f35b3480156103be57600080fd5b506103d960048036038101906103d49190613e39565b610c6a565b6040516103e69190614913565b60405180910390f35b3480156103fb57600080fd5b5061041660048036038101906104119190613ffd565b610d6b565b604051610423919061492e565b60405180910390f35b34801561043857600080fd5b50610453600480360381019061044e919061402a565b610d8b565b005b34801561046157600080fd5b5061046a610db4565b6040516104779190614c40565b60405180910390f35b34801561048c57600080fd5b506104a760048036038101906104a2919061402a565b610dbd565b005b3480156104b557600080fd5b506104be610e40565b6040516104cb9190614ba2565b60405180910390f35b3480156104e057600080fd5b506104fb60048036038101906104f69190613e8c565b610e46565b6040516105089190614913565b60405180910390f35b61052b600480360381019061052691906140f2565b610ef2565b005b34801561053957600080fd5b5061054261101f565b604051610550929190614bbd565b60405180910390f35b34801561056557600080fd5b50610580600480360381019061057b9190613fbd565b611031565b60405161058d9190614ba2565b60405180910390f35b3480156105a257600080fd5b506105bd60048036038101906105b89190613dcc565b61138f565b6040516105ca9190614ba2565b60405180910390f35b3480156105df57600080fd5b506105e86113d7565b6040516105f5919061492e565b60405180910390f35b34801561060a57600080fd5b506106136113fb565b6040516106209190614ba2565b60405180910390f35b34801561063557600080fd5b50610650600480360381019061064b919061414c565b611401565b60405161065d9190614b86565b60405180910390f35b34801561067257600080fd5b5061068d600480360381019061068891906141df565b61150d565b60405161069a91906148f1565b60405180910390f35b3480156106af57600080fd5b506106ca60048036038101906106c5919061402a565b6118cb565b6040516106d79190614913565b60405180910390f35b3480156106ec57600080fd5b506106f5611936565b6040516107029190614964565b60405180910390f35b34801561071757600080fd5b506107206119c8565b60405161072d919061492e565b60405180910390f35b34801561074257600080fd5b5061075d60048036038101906107589190613dcc565b6119cf565b60405161076a9190614ba2565b60405180910390f35b34801561077f57600080fd5b5061079a60048036038101906107959190613e8c565b611a1f565b6040516107a79190614913565b60405180910390f35b3480156107bc57600080fd5b506107d760048036038101906107d29190613e8c565b611b13565b6040516107e49190614913565b60405180910390f35b3480156107f957600080fd5b50610814600480360381019061080f91906141df565b611b31565b60405161082191906148f1565b60405180910390f35b34801561083657600080fd5b50610851600480360381019061084c919061418c565b611eef565b60405161085f929190614bbd565b60405180910390f35b610882600480360381019061087d91906140f2565b61206e565b005b34801561089057600080fd5b50610899612212565b005b3480156108a757600080fd5b506108c260048036038101906108bd9190613ecc565b6123df565b005b3480156108d057600080fd5b506108eb60048036038101906108e691906141df565b6124c6565b005b3480156108f957600080fd5b5061090261252b565b60405161090f919061483f565b60405180910390f35b34801561092457600080fd5b5061093f600480360381019061093a91906140f2565b612551565b60405161094c9190614ba2565b60405180910390f35b34801561096157600080fd5b5061097c60048036038101906109779190613ecc565b612578565b005b34801561098a57600080fd5b506109a560048036038101906109a0919061402a565b612631565b005b3480156109b357600080fd5b506109ce60048036038101906109c991906140f2565b61265a565b005b3480156109dc57600080fd5b506109e56127b2565b6040516109f29190614949565b60405180910390f35b348015610a0757600080fd5b50610a226004803603810190610a1d9190613df9565b6128ba565b604051610a2f9190614ba2565b60405180910390f35b348015610a4457600080fd5b50610a4d612941565b604051610a5a9190614ba2565b60405180910390f35b60007f7965db0b000000000000000000000000000000000000000000000000000000007bffffffffffffffffffffffffffffffffffffffffffffffffffffffff1916827bffffffffffffffffffffffffffffffffffffffffffffffffffffffff19161480610ad65750610ad582612947565b5b9050919050565b6000600d60009054906101000a900473ffffffffffffffffffffffffffffffffffffffff1673ffffffffffffffffffffffffffffffffffffffff166305300b286040518163ffffffff1660e01b815260040160206040518083038186803b158015610b4757600080fd5b505afa158015610b5b573d6000803e3d6000fd5b505050506040513d601f19601f82011682018060405250810190610b7f919061411f565b905090565b606060038054610b93906150e3565b80601f0160208091040260200160405190810160405280929190818152602001828054610bbf906150e3565b8015610c0c5780601f10610be157610100808354040283529160200191610c0c565b820191906000526020600020905b815481529060010190602001808311610bef57829003601f168201915b5050505050905090565b6000610c2a610c236129b1565b84846129b9565b6001905092915050565b6000600254905090565b60115481565b601460009054906101000a900473ffffffffffffffffffffffffffffffffffffffff1681565b6000610c77848484612b84565b6000600160008673ffffffffffffffffffffffffffffffffffffffff1673ffffffffffffffffffffffffffffffffffffffff1681526020019081526020016000206000610cc26129b1565b73ffffffffffffffffffffffffffffffffffffffff1673ffffffffffffffffffffffffffffffffffffffff16815260200190815260200160002054905082811015610d42576040517f08c379a0000000000000000000000000000000000000000000000000000000008152600401610d3990614a66565b60405180910390fd5b610d5f85610d4e6129b1565b8584610d5a9190614f4e565b6129b9565b60019150509392505050565b600060056000838152602001908152602001600020600101549050919050565b610d9482610d6b565b610da581610da06129b1565b612e03565b610daf8383612ea0565b505050565b60006012905090565b610dc56129b1565b73ffffffffffffffffffffffffffffffffffffffff168173ffffffffffffffffffffffffffffffffffffffff1614610e32576040517f08c379a0000000000000000000000000000000000000000000000000000000008152600401610e2990614b46565b60405180910390fd5b610e3c8282612f81565b5050565b600f5481565b6000610ee8610e536129b1565b848460016000610e616129b1565b73ffffffffffffffffffffffffffffffffffffffff1673ffffffffffffffffffffffffffffffffffffffff16815260200190815260200160002060008873ffffffffffffffffffffffffffffffffffffffff1673ffffffffffffffffffffffffffffffffffffffff16815260200190815260200160002054610ee39190614dd9565b6129b9565b6001905092915050565b7fa49807205ce4d355092ef5a8a18f56e8913cf4a201fbe287825b095693c21775610f2481610f1f6129b1565b612e03565b6000610f2e6127b2565b9050600080821215610f49578181610f469190614d45565b90505b60006011541215610f655760115481610f629190614eba565b90505b600080821215610fb757600082610f7b9061518f565b90506000610f898288611b31565b905080600081518110610f9f57610f9e6152c3565b5b602002602001015183610fb29190614eba565b925050505b6000821315610fff5760008290506000610fd1828861150d565b905080600181518110610fe757610fe66152c3565b5b602002602001015183610ffa9190614d45565b925050505b80601160008282546110119190614d45565b925050819055505050505050565b60128060000154908060010154905082565b600080600d60009054906101000a900473ffffffffffffffffffffffffffffffffffffffff1673ffffffffffffffffffffffffffffffffffffffff1663b0667cf86040518163ffffffff1660e01b8152600401604080518083038186803b15801561109b57600080fd5b505afa1580156110af573d6000803e3d6000fd5b505050506040513d601f19601f820116820180604052508101906110d3919061421f565b509050600081600d60009054906101000a900473ffffffffffffffffffffffffffffffffffffffff1673ffffffffffffffffffffffffffffffffffffffff1663d50cb88b6040518163ffffffff1660e01b815260040160206040518083038186803b15801561114157600080fd5b505afa158015611155573d6000803e3d6000fd5b505050506040513d601f19601f82011682018060405250810190611179919061411f565b601560009054906101000a900473ffffffffffffffffffffffffffffffffffffffff1673ffffffffffffffffffffffffffffffffffffffff166370a08231306040518263ffffffff1660e01b81526004016111d4919061483f565b60206040518083038186803b1580156111ec57600080fd5b505afa158015611200573d6000803e3d6000fd5b505050506040513d601f19601f82011682018060405250810190611224919061411f565b61122e9190614e60565b6112389190614e2f565b9050600c60009054906101000a900473ffffffffffffffffffffffffffffffffffffffff1673ffffffffffffffffffffffffffffffffffffffff166370a08231306040518263ffffffff1660e01b8152600401611295919061483f565b60206040518083038186803b1580156112ad57600080fd5b505afa1580156112c1573d6000803e3d6000fd5b505050506040513d601f19601f820116820180604052508101906112e5919061411f565b816112f09190614dd9565b9050841561135557601054600f546113089190614dd9565b81111561132457601054600f5461131f9190614dd9565b611326565b805b816113319190614f4e565b9050600e5481111561134557600e54611347565b805b816113529190614f4e565b90505b831561138457611363610c34565b670de0b6b3a7640000826113779190614e60565b6113819190614e2f565b90505b809250505092915050565b60008060008373ffffffffffffffffffffffffffffffffffffffff1673ffffffffffffffffffffffffffffffffffffffff168152602001908152602001600020549050919050565b7fa49807205ce4d355092ef5a8a18f56e8913cf4a201fbe287825b095693c2177581565b600e5481565b6114096139e2565b600d60009054906101000a900473ffffffffffffffffffffffffffffffffffffffff1673ffffffffffffffffffffffffffffffffffffffff16631ce5e9a661149885600660008773ffffffffffffffffffffffffffffffffffffffff1673ffffffffffffffffffffffffffffffffffffffff16815260200190815260200160002061306390919063ffffffff16565b6040518263ffffffff1660e01b81526004016114b49190614ba2565b6101e06040518083038186803b1580156114cd57600080fd5b505afa1580156114e1573d6000803e3d6000fd5b505050506040513d601f19601f8201168201806040525081019061150591906140c4565b905092915050565b60607fa49807205ce4d355092ef5a8a18f56e8913cf4a201fbe287825b095693c217756115418161153c6129b1565b612e03565b6000600d60009054906101000a900473ffffffffffffffffffffffffffffffffffffffff1673ffffffffffffffffffffffffffffffffffffffff1663b0667cf86040518163ffffffff1660e01b8152600401604080518083038186803b1580156115aa57600080fd5b505afa1580156115be573d6000803e3d6000fd5b505050506040513d601f19601f820116820180604052508101906115e2919061421f565b50905060006012600101546012600001546012600101546116039190614dd9565b8361160e9190614e60565b6116189190614e2f565b9050600081600d60009054906101000a900473ffffffffffffffffffffffffffffffffffffffff1673ffffffffffffffffffffffffffffffffffffffff1663d50cb88b6040518163ffffffff1660e01b815260040160206040518083038186803b15801561168557600080fd5b505afa158015611699573d6000803e3d6000fd5b505050506040513d601f19601f820116820180604052508101906116bd919061411f565b886116c89190614e60565b6116d29190614e2f565b90506000600267ffffffffffffffff8111156116f1576116f06152f2565b5b60405190808252806020026020018201604052801561171f5781602001602082028036833780820191505090505b509050601560009054906101000a900473ffffffffffffffffffffffffffffffffffffffff1681600081518110611759576117586152c3565b5b602002602001019073ffffffffffffffffffffffffffffffffffffffff16908173ffffffffffffffffffffffffffffffffffffffff1681525050601460009054906101000a900473ffffffffffffffffffffffffffffffffffffffff16816001815181106117ca576117c96152c3565b5b602002602001019073ffffffffffffffffffffffffffffffffffffffff16908173ffffffffffffffffffffffffffffffffffffffff1681525050600b60009054906101000a900473ffffffffffffffffffffffffffffffffffffffff1673ffffffffffffffffffffffffffffffffffffffff166338ed1739898484308c6040518663ffffffff1660e01b8152600401611867959493929190614be6565b600060405180830381600087803b15801561188157600080fd5b505af1158015611895573d6000803e3d6000fd5b505050506040513d6000823e3d601f19601f820116820180604052508101906118be9190613f47565b9550505050505092915050565b60006005600084815260200190815260200160002060000160008373ffffffffffffffffffffffffffffffffffffffff1673ffffffffffffffffffffffffffffffffffffffff16815260200190815260200160002060009054906101000a900460ff16905092915050565b606060048054611945906150e3565b80601f0160208091040260200160405190810160405280929190818152602001828054611971906150e3565b80156119be5780601f10611993576101008083540402835291602001916119be565b820191906000526020600020905b8154815290600101906020018083116119a157829003601f168201915b5050505050905090565b6000801b81565b6000611a18600660008473ffffffffffffffffffffffffffffffffffffffff1673ffffffffffffffffffffffffffffffffffffffff16815260200190815260200160002061307d565b9050919050565b60008060016000611a2e6129b1565b73ffffffffffffffffffffffffffffffffffffffff1673ffffffffffffffffffffffffffffffffffffffff16815260200190815260200160002060008573ffffffffffffffffffffffffffffffffffffffff1673ffffffffffffffffffffffffffffffffffffffff16815260200190815260200160002054905082811015611aeb576040517f08c379a0000000000000000000000000000000000000000000000000000000008152600401611ae290614b26565b60405180910390fd5b611b08611af66129b1565b858584611b039190614f4e565b6129b9565b600191505092915050565b6000611b27611b206129b1565b8484612b84565b6001905092915050565b60607fa49807205ce4d355092ef5a8a18f56e8913cf4a201fbe287825b095693c21775611b6581611b606129b1565b612e03565b6000600d60009054906101000a900473ffffffffffffffffffffffffffffffffffffffff1673ffffffffffffffffffffffffffffffffffffffff1663b0667cf86040518163ffffffff1660e01b8152600401604080518083038186803b158015611bce57600080fd5b505afa158015611be2573d6000803e3d6000fd5b505050506040513d601f19601f82011682018060405250810190611c06919061421f565b5090506000601260010154601260000154601260010154611c279190614dd9565b83611c329190614e60565b611c3c9190614e2f565b9050600081600d60009054906101000a900473ffffffffffffffffffffffffffffffffffffffff1673ffffffffffffffffffffffffffffffffffffffff1663d50cb88b6040518163ffffffff1660e01b815260040160206040518083038186803b158015611ca957600080fd5b505afa158015611cbd573d6000803e3d6000fd5b505050506040513d601f19601f82011682018060405250810190611ce1919061411f565b88611cec9190614e60565b611cf69190614e2f565b90506000600267ffffffffffffffff811115611d1557611d146152f2565b5b604051908082528060200260200182016040528015611d435781602001602082028036833780820191505090505b509050601560009054906101000a900473ffffffffffffffffffffffffffffffffffffffff1681600181518110611d7d57611d7c6152c3565b5b602002602001019073ffffffffffffffffffffffffffffffffffffffff16908173ffffffffffffffffffffffffffffffffffffffff1681525050601460009054906101000a900473ffffffffffffffffffffffffffffffffffffffff1681600081518110611dee57611ded6152c3565b5b602002602001019073ffffffffffffffffffffffffffffffffffffffff16908173ffffffffffffffffffffffffffffffffffffffff1681525050600b60009054906101000a900473ffffffffffffffffffffffffffffffffffffffff1673ffffffffffffffffffffffffffffffffffffffff16638803dbee898484308c6040518663ffffffff1660e01b8152600401611e8b959493929190614be6565b600060405180830381600087803b158015611ea557600080fd5b505af1158015611eb9573d6000803e3d6000fd5b505050506040513d6000823e3d601f19601f82011682018060405250810190611ee29190613f47565b9550505050505092915050565b6000806000611eff600080611031565b90506000806001811115611f1657611f15615236565b5b866001811115611f2957611f28615236565b5b14611f3657600f54611f90565b60006001811115611f4a57611f49615236565b5b856001811115611f5d57611f5c615236565b5b14611f8057611f6e600f5488613092565b600f54611f7b9190614f4e565b611f8f565b86600f54611f8e9190614dd9565b5b5b90506000600180811115611fa757611fa6615236565b5b876001811115611fba57611fb9615236565b5b14611fc757601054612021565b60006001811115611fdb57611fda615236565b5b866001811115611fee57611fed615236565b5b1461201157611fff60105489613092565b60105461200c9190614f4e565b612020565b8760105461201f9190614dd9565b5b5b9050612043612034600f546010546130ab565b670de0b6b3a7640000856130c5565b61205f61205084846130ab565b670de0b6b3a7640000866130c5565b94509450505050935093915050565b600061207c60006001611031565b9050600081116120c1576040517f08c379a00000000000000000000000000000000000000000000000000000000081526004016120b890614a86565b60405180910390fd5b60006120d683670de0b6b3a7640000846130c5565b9050600c60009054906101000a900473ffffffffffffffffffffffffffffffffffffffff1673ffffffffffffffffffffffffffffffffffffffff166323b872dd3330866040518463ffffffff1660e01b81526004016121379392919061485a565b602060405180830381600087803b15801561215157600080fd5b505af1158015612165573d6000803e3d6000fd5b505050506040513d601f19601f820116820180604052508101906121899190613f90565b6121c8576040517f08c379a00000000000000000000000000000000000000000000000000000000081526004016121bf90614ae6565b60405180910390fd5b6121d233826131c1565b7fd0d5ca25112902dbbf5a70a67eed6edc7513b74f2a7ec0805ca216c99f981cc1338483604051612205939291906148ba565b60405180910390a1505050565b7fa49807205ce4d355092ef5a8a18f56e8913cf4a201fbe287825b095693c217756122448161223f6129b1565b612e03565b600c60009054906101000a900473ffffffffffffffffffffffffffffffffffffffff1673ffffffffffffffffffffffffffffffffffffffff1663a9059cbb33600c60009054906101000a900473ffffffffffffffffffffffffffffffffffffffff1673ffffffffffffffffffffffffffffffffffffffff166370a08231306040518263ffffffff1660e01b81526004016122de919061483f565b60206040518083038186803b1580156122f657600080fd5b505afa15801561230a573d6000803e3d6000fd5b505050506040513d601f19601f8201168201806040525081019061232e919061411f565b6040518363ffffffff1660e01b815260040161234b929190614891565b602060405180830381600087803b15801561236557600080fd5b505af1158015612379573d6000803e3d6000fd5b505050506040513d601f19601f8201168201806040525081019061239d9190613f90565b6123dc576040517f08c379a00000000000000000000000000000000000000000000000000000000081526004016123d390614a46565b60405180910390fd5b50565b6123f385600961331590919063ffffffff16565b61240d5761240b85600961334590919063ffffffff16565b505b61245e84600660008873ffffffffffffffffffffffffffffffffffffffff1673ffffffffffffffffffffffffffffffffffffffff16815260200190815260200160002061337590919063ffffffff16565b5061247384600761337590919063ffffffff16565b5082600e60008282546124869190614dd9565b9250508190555081600f600082825461249f9190614dd9565b9250508190555080601060008282546124b89190614dd9565b925050819055505050505050565b7fa49807205ce4d355092ef5a8a18f56e8913cf4a201fbe287825b095693c217756124f8816124f36129b1565b612e03565b60405180604001604052808481526020018381525060126000820151816000015560208201518160010155905050505050565b601560009054906101000a900473ffffffffffffffffffffffffffffffffffffffff1681565b60006125718261256360006001611031565b670de0b6b3a76400006130c5565b9050919050565b6125c984600660008873ffffffffffffffffffffffffffffffffffffffff1673ffffffffffffffffffffffffffffffffffffffff16815260200190815260200160002061338f90919063ffffffff16565b506125de84600761338f90919063ffffffff16565b5082600e60008282546125f19190614f4e565b9250508190555081600f600082825461260a9190614f4e565b9250508190555080601060008282546126239190614f4e565b925050819055505050505050565b61263a82610d6b565b61264b816126466129b1565b612e03565b6126558383612f81565b505050565b600061267961266a600180611031565b83670de0b6b3a76400006130c5565b905061268533836133a9565b600c60009054906101000a900473ffffffffffffffffffffffffffffffffffffffff1673ffffffffffffffffffffffffffffffffffffffff1663a9059cbb33836040518363ffffffff1660e01b81526004016126e2929190614891565b602060405180830381600087803b1580156126fc57600080fd5b505af1158015612710573d6000803e3d6000fd5b505050506040513d601f19601f820116820180604052508101906127349190613f90565b612773576040517f08c379a000000000000000000000000000000000000000000000000000000000815260040161276a90614a46565b60405180910390fd5b7f3a9e5b3b520d77dc26bf05104c863b6b654d4b96fa8031a783ad0dbd905cdf393383836040516127a6939291906148ba565b60405180910390a15050565b6000806127bf600761307d565b90506000805b828110156128b15760006127e382600761306390919063ffffffff16565b9050600d60009054906101000a900473ffffffffffffffffffffffffffffffffffffffff1673ffffffffffffffffffffffffffffffffffffffff1663a823c087826040518263ffffffff1660e01b81526004016128409190614ba2565b60206040518083038186803b15801561285857600080fd5b505afa15801561286c573d6000803e3d6000fd5b505050506040513d601f19601f820116820180604052508101906128909190614097565b8361289b9190614d45565b92505080806128a990615146565b9150506127c5565b50809250505090565b6000600160008473ffffffffffffffffffffffffffffffffffffffff1673ffffffffffffffffffffffffffffffffffffffff16815260200190815260200160002060008373ffffffffffffffffffffffffffffffffffffffff1673ffffffffffffffffffffffffffffffffffffffff16815260200190815260200160002054905092915050565b60105481565b60007f01ffc9a7000000000000000000000000000000000000000000000000000000007bffffffffffffffffffffffffffffffffffffffffffffffffffffffff1916827bffffffffffffffffffffffffffffffffffffffffffffffffffffffff1916149050919050565b600033905090565b600073ffffffffffffffffffffffffffffffffffffffff168373ffffffffffffffffffffffffffffffffffffffff161415612a29576040517f08c379a0000000000000000000000000000000000000000000000000000000008152600401612a2090614b06565b60405180910390fd5b600073ffffffffffffffffffffffffffffffffffffffff168273ffffffffffffffffffffffffffffffffffffffff161415612a99576040517f08c379a0000000000000000000000000000000000000000000000000000000008152600401612a9090614a06565b60405180910390fd5b80600160008573ffffffffffffffffffffffffffffffffffffffff1673ffffffffffffffffffffffffffffffffffffffff16815260200190815260200160002060008473ffffffffffffffffffffffffffffffffffffffff1673ffffffffffffffffffffffffffffffffffffffff168152602001908152602001600020819055508173ffffffffffffffffffffffffffffffffffffffff168373ffffffffffffffffffffffffffffffffffffffff167f8c5be1e5ebec7d5bd14f71427d1e84f3dd0314c0f7b2291e5b200ac8c7c3b92583604051612b779190614ba2565b60405180910390a3505050565b600073ffffffffffffffffffffffffffffffffffffffff168373ffffffffffffffffffffffffffffffffffffffff161415612bf4576040517f08c379a0000000000000000000000000000000000000000000000000000000008152600401612beb90614ac6565b60405180910390fd5b600073ffffffffffffffffffffffffffffffffffffffff168273ffffffffffffffffffffffffffffffffffffffff161415612c64576040517f08c379a0000000000000000000000000000000000000000000000000000000008152600401612c5b906149c6565b60405180910390fd5b612c6f83838361357d565b60008060008573ffffffffffffffffffffffffffffffffffffffff1673ffffffffffffffffffffffffffffffffffffffff16815260200190815260200160002054905081811015612cf5576040517f08c379a0000000000000000000000000000000000000000000000000000000008152600401612cec90614a26565b60405180910390fd5b8181612d019190614f4e565b6000808673ffffffffffffffffffffffffffffffffffffffff1673ffffffffffffffffffffffffffffffffffffffff16815260200190815260200160002081905550816000808573ffffffffffffffffffffffffffffffffffffffff1673ffffffffffffffffffffffffffffffffffffffff1681526020019081526020016000206000828254612d919190614dd9565b925050819055508273ffffffffffffffffffffffffffffffffffffffff168473ffffffffffffffffffffffffffffffffffffffff167fddf252ad1be2c89b69c2b068fc378daa952ba7f163c4a11628f55a4df523b3ef84604051612df59190614ba2565b60405180910390a350505050565b612e0d82826118cb565b612e9c57612e328173ffffffffffffffffffffffffffffffffffffffff166014613582565b612e408360001c6020613582565b604051602001612e51929190614805565b6040516020818303038152906040526040517f08c379a0000000000000000000000000000000000000000000000000000000008152600401612e939190614964565b60405180910390fd5b5050565b612eaa82826118cb565b612f7d5760016005600084815260200190815260200160002060000160008373ffffffffffffffffffffffffffffffffffffffff1673ffffffffffffffffffffffffffffffffffffffff16815260200190815260200160002060006101000a81548160ff021916908315150217905550612f226129b1565b73ffffffffffffffffffffffffffffffffffffffff168173ffffffffffffffffffffffffffffffffffffffff16837f2f8788117e7eff1d82e926ec794901d17c78024a50270940304540a733656f0d60405160405180910390a45b5050565b612f8b82826118cb565b1561305f5760006005600084815260200190815260200160002060000160008373ffffffffffffffffffffffffffffffffffffffff1673ffffffffffffffffffffffffffffffffffffffff16815260200190815260200160002060006101000a81548160ff0219169083151502179055506130046129b1565b73ffffffffffffffffffffffffffffffffffffffff168173ffffffffffffffffffffffffffffffffffffffff16837ff6391f5c32d9c69d2a47ea670b442974b53935d1edc7fd64eb21e047a839171b60405160405180910390a45b5050565b600061307283600001836137be565b60001c905092915050565b600061308b82600001613832565b9050919050565b60008183106130a157816130a3565b825b905092915050565b6000818310156130bb57816130bd565b825b905092915050565b60008060008019858709858702925082811083820303915050600081141561310057600084116130f457600080fd5b838204925050506131ba565b80841161310c57600080fd5b60008486880990508281118203915080830392506000856001877fffffffffffffffffffffffffffffffffffffffffffffffffffffffffffffffff0301169050808604955080840493506001818260000304019050808302841793506000600287600302189050808702600203810290508087026002038102905080870260020381029050808702600203810290508087026002038102905080870260020381029050808502955050505050505b9392505050565b600073ffffffffffffffffffffffffffffffffffffffff168273ffffffffffffffffffffffffffffffffffffffff161415613231576040517f08c379a000000000000000000000000000000000000000000000000000000000815260040161322890614b66565b60405180910390fd5b61323d6000838361357d565b806002600082825461324f9190614dd9565b92505081905550806000808473ffffffffffffffffffffffffffffffffffffffff1673ffffffffffffffffffffffffffffffffffffffff16815260200190815260200160002060008282546132a49190614dd9565b925050819055508173ffffffffffffffffffffffffffffffffffffffff16600073ffffffffffffffffffffffffffffffffffffffff167fddf252ad1be2c89b69c2b068fc378daa952ba7f163c4a11628f55a4df523b3ef836040516133099190614ba2565b60405180910390a35050565b600061333d836000018373ffffffffffffffffffffffffffffffffffffffff1660001b613843565b905092915050565b600061336d836000018373ffffffffffffffffffffffffffffffffffffffff1660001b613866565b905092915050565b6000613387836000018360001b613866565b905092915050565b60006133a1836000018360001b6138d6565b905092915050565b600073ffffffffffffffffffffffffffffffffffffffff168273ffffffffffffffffffffffffffffffffffffffff161415613419576040517f08c379a000000000000000000000000000000000000000000000000000000000815260040161341090614aa6565b60405180910390fd5b6134258260008361357d565b60008060008473ffffffffffffffffffffffffffffffffffffffff1673ffffffffffffffffffffffffffffffffffffffff168152602001908152602001600020549050818110156134ab576040517f08c379a00000000000000000000000000000000000000000000000000000000081526004016134a2906149e6565b60405180910390fd5b81816134b79190614f4e565b6000808573ffffffffffffffffffffffffffffffffffffffff1673ffffffffffffffffffffffffffffffffffffffff16815260200190815260200160002081905550816002600082825461350b9190614f4e565b92505081905550600073ffffffffffffffffffffffffffffffffffffffff168373ffffffffffffffffffffffffffffffffffffffff167fddf252ad1be2c89b69c2b068fc378daa952ba7f163c4a11628f55a4df523b3ef846040516135709190614ba2565b60405180910390a3505050565b505050565b6060600060028360026135959190614e60565b61359f9190614dd9565b67ffffffffffffffff8111156135b8576135b76152f2565b5b6040519080825280601f01601f1916602001820160405280156135ea5781602001600182028036833780820191505090505b5090507f300000000000000000000000000000000000000000000000000000000000000081600081518110613622576136216152c3565b5b60200101907effffffffffffffffffffffffffffffffffffffffffffffffffffffffffffff1916908160001a9053507f780000000000000000000000000000000000000000000000000000000000000081600181518110613686576136856152c3565b5b60200101907effffffffffffffffffffffffffffffffffffffffffffffffffffffffffffff1916908160001a905350600060018460026136c69190614e60565b6136d09190614dd9565b90505b6001811115613770577f3031323334353637383961626364656600000000000000000000000000000000600f861660108110613712576137116152c3565b5b1a60f81b828281518110613729576137286152c3565b5b60200101907effffffffffffffffffffffffffffffffffffffffffffffffffffffffffffff1916908160001a905350600485901c945080613769906150b9565b90506136d3565b50600084146137b4576040517f08c379a00000000000000000000000000000000000000000000000000000000081526004016137ab906149a6565b60405180910390fd5b8091505092915050565b600081836000018054905011613809576040517f08c379a000000000000000000000000000000000000000000000000000000000815260040161380090614986565b60405180910390fd5b82600001828154811061381f5761381e6152c3565b5b9060005260206000200154905092915050565b600081600001805490509050919050565b600080836001016000848152602001908152602001600020541415905092915050565b60006138728383613843565b6138cb5782600001829080600181540180825580915050600190039060005260206000200160009091909190915055826000018054905083600101600084815260200190815260200160002081905550600190506138d0565b600090505b92915050565b600080836001016000848152602001908152602001600020549050600081146139d65760006001826139089190614f4e565b90506000600186600001805490506139209190614f4e565b9050600086600001828154811061393a576139396152c3565b5b906000526020600020015490508087600001848154811061395e5761395d6152c3565b5b906000526020600020018190555083876001016000838152602001908152602001600020819055508660000180548061399a57613999615294565b5b600190038181906000526020600020016000905590558660010160008781526020019081526020016000206000905560019450505050506139dc565b60009150505b92915050565b604051806101e0016040528060006001811115613a0257613a01615236565b5b815260200160006001811115613a1b57613a1a615236565b5b815260200160006003811115613a3457613a33615236565b5b8152602001600073ffffffffffffffffffffffffffffffffffffffff16815260200160008152602001600081526020016000815260200160008152602001600081526020016000815260200160008152602001600081526020016000815260200160008152602001600081525090565b6000613ab7613ab284614c80565b614c5b565b90508083825260208201905082856020860282011115613ada57613ad961532b565b5b60005b85811015613b0a5781613af08882613db7565b845260208401935060208301925050600181019050613add565b5050509392505050565b600081359050613b238161580b565b92915050565b600081519050613b388161580b565b92915050565b600082601f830112613b5357613b52615321565b5b8151613b63848260208601613aa4565b91505092915050565b600081359050613b7b81615822565b92915050565b600081519050613b9081615822565b92915050565b600081359050613ba581615839565b92915050565b600081359050613bba81615850565b92915050565b600081359050613bcf81615867565b92915050565b600081519050613be481615867565b92915050565b600081519050613bf981615877565b92915050565b600081359050613c0e81615887565b92915050565b600081519050613c2381615887565b92915050565b600081519050613c3881615897565b92915050565b60006101e08284031215613c5557613c54615326565b5b613c606101e0614c5b565b90506000613c7084828501613c14565b6000830152506020613c8484828501613bd5565b6020830152506040613c9884828501613bea565b6040830152506060613cac84828501613b29565b6060830152506080613cc084828501613db7565b60808301525060a0613cd484828501613db7565b60a08301525060c0613ce884828501613db7565b60c08301525060e0613cfc84828501613db7565b60e083015250610100613d1184828501613db7565b61010083015250610120613d2784828501613db7565b61012083015250610140613d3d84828501613db7565b61014083015250610160613d5384828501613db7565b61016083015250610180613d6984828501613db7565b610180830152506101a0613d7f84828501613db7565b6101a0830152506101c0613d9584828501613db7565b6101c08301525092915050565b600081359050613db1816158ae565b92915050565b600081519050613dc6816158ae565b92915050565b600060208284031215613de257613de1615335565b5b6000613df084828501613b14565b91505092915050565b60008060408385031215613e1057613e0f615335565b5b6000613e1e85828601613b14565b9250506020613e2f85828601613b14565b9150509250929050565b600080600060608486031215613e5257613e51615335565b5b6000613e6086828701613b14565b9350506020613e7186828701613b14565b9250506040613e8286828701613da2565b9150509250925092565b60008060408385031215613ea357613ea2615335565b5b6000613eb185828601613b14565b9250506020613ec285828601613da2565b9150509250929050565b600080600080600060a08688031215613ee857613ee7615335565b5b6000613ef688828901613b14565b9550506020613f0788828901613da2565b9450506040613f1888828901613da2565b9350506060613f2988828901613da2565b9250506080613f3a88828901613da2565b9150509295509295909350565b600060208284031215613f5d57613f5c615335565b5b600082015167ffffffffffffffff811115613f7b57613f7a615330565b5b613f8784828501613b3e565b91505092915050565b600060208284031215613fa657613fa5615335565b5b6000613fb484828501613b81565b91505092915050565b60008060408385031215613fd457613fd3615335565b5b6000613fe285828601613b6c565b9250506020613ff385828601613b6c565b9150509250929050565b60006020828403121561401357614012615335565b5b600061402184828501613b96565b91505092915050565b6000806040838503121561404157614040615335565b5b600061404f85828601613b96565b925050602061406085828601613b14565b9150509250929050565b6000602082840312156140805761407f615335565b5b600061408e84828501613bab565b91505092915050565b6000602082840312156140ad576140ac615335565b5b60006140bb84828501613c29565b91505092915050565b60006101e082840312156140db576140da615335565b5b60006140e984828501613c3e565b91505092915050565b60006020828403121561410857614107615335565b5b600061411684828501613da2565b91505092915050565b60006020828403121561413557614134615335565b5b600061414384828501613db7565b91505092915050565b6000806040838503121561416357614162615335565b5b600061417185828601613da2565b925050602061418285828601613b14565b9150509250929050565b6000806000606084860312156141a5576141a4615335565b5b60006141b386828701613da2565b93505060206141c486828701613bff565b92505060406141d586828701613bc0565b9150509250925092565b600080604083850312156141f6576141f5615335565b5b600061420485828601613da2565b925050602061421585828601613da2565b9150509250929050565b6000806040838503121561423657614235615335565b5b600061424485828601613db7565b925050602061425585828601613db7565b9150509250929050565b600061426b838361428f565b60208301905092915050565b600061428383836147d8565b60208301905092915050565b61429881614f82565b82525050565b6142a781614f82565b82525050565b60006142b882614ccc565b6142c28185614d07565b93506142cd83614cac565b8060005b838110156142fe5781516142e5888261425f565b97506142f083614ced565b9250506001810190506142d1565b5085935050505092915050565b600061431682614cd7565b6143208185614d18565b935061432b83614cbc565b8060005b8381101561435c5781516143438882614277565b975061434e83614cfa565b92505060018101905061432f565b5085935050505092915050565b61437281614f94565b82525050565b61438181614fa0565b82525050565b61439081615050565b82525050565b61439f81615062565b82525050565b6143ae81615074565b82525050565b6143bd8161500f565b82525050565b60006143ce82614ce2565b6143d88185614d29565b93506143e8818560208601615086565b6143f18161533a565b840191505092915050565b600061440782614ce2565b6144118185614d3a565b9350614421818560208601615086565b80840191505092915050565b600061443a602283614d29565b91506144458261534b565b604082019050919050565b600061445d602083614d29565b91506144688261539a565b602082019050919050565b6000614480602383614d29565b915061448b826153c3565b604082019050919050565b60006144a3602283614d29565b91506144ae82615412565b604082019050919050565b60006144c6602283614d29565b91506144d182615461565b604082019050919050565b60006144e9602683614d29565b91506144f4826154b0565b604082019050919050565b600061450c601283614d29565b9150614517826154ff565b602082019050919050565b600061452f602883614d29565b915061453a82615528565b604082019050919050565b6000614552601383614d29565b915061455d82615577565b602082019050919050565b6000614575602183614d29565b9150614580826155a0565b604082019050919050565b6000614598602583614d29565b91506145a3826155ef565b604082019050919050565b60006145bb601083614d29565b91506145c68261563e565b602082019050919050565b60006145de602483614d29565b91506145e982615667565b604082019050919050565b6000614601601783614d3a565b915061460c826156b6565b601782019050919050565b6000614624602583614d29565b915061462f826156df565b604082019050919050565b6000614647601183614d3a565b91506146528261572e565b601182019050919050565b600061466a602f83614d29565b915061467582615757565b604082019050919050565b600061468d601f83614d29565b9150614698826157a6565b602082019050919050565b6101e0820160008201516146ba60008501826143a5565b5060208201516146cd6020850182614387565b5060408201516146e06040850182614396565b5060608201516146f3606085018261428f565b50608082015161470660808501826147d8565b5060a082015161471960a08501826147d8565b5060c082015161472c60c08501826147d8565b5060e082015161473f60e08501826147d8565b506101008201516147546101008501826147d8565b506101208201516147696101208501826147d8565b5061014082015161477e6101408501826147d8565b506101608201516147936101608501826147d8565b506101808201516147a86101808501826147d8565b506101a08201516147bd6101a08501826147d8565b506101c08201516147d26101c08501826147d8565b50505050565b6147e181615039565b82525050565b6147f081615039565b82525050565b6147ff81615043565b82525050565b6000614810826145f4565b915061481c82856143fc565b91506148278261463a565b915061483382846143fc565b91508190509392505050565b6000602082019050614854600083018461429e565b92915050565b600060608201905061486f600083018661429e565b61487c602083018561429e565b61488960408301846147e7565b949350505050565b60006040820190506148a6600083018561429e565b6148b360208301846147e7565b9392505050565b60006060820190506148cf600083018661429e565b6148dc60208301856147e7565b6148e960408301846147e7565b949350505050565b6000602082019050818103600083015261490b818461430b565b905092915050565b60006020820190506149286000830184614369565b92915050565b60006020820190506149436000830184614378565b92915050565b600060208201905061495e60008301846143b4565b92915050565b6000602082019050818103600083015261497e81846143c3565b905092915050565b6000602082019050818103600083015261499f8161442d565b9050919050565b600060208201905081810360008301526149bf81614450565b9050919050565b600060208201905081810360008301526149df81614473565b9050919050565b600060208201905081810360008301526149ff81614496565b9050919050565b60006020820190508181036000830152614a1f816144b9565b9050919050565b60006020820190508181036000830152614a3f816144dc565b9050919050565b60006020820190508181036000830152614a5f816144ff565b9050919050565b60006020820190508181036000830152614a7f81614522565b9050919050565b60006020820190508181036000830152614a9f81614545565b9050919050565b60006020820190508181036000830152614abf81614568565b9050919050565b60006020820190508181036000830152614adf8161458b565b9050919050565b60006020820190508181036000830152614aff816145ae565b9050919050565b60006020820190508181036000830152614b1f816145d1565b9050919050565b60006020820190508181036000830152614b3f81614617565b9050919050565b60006020820190508181036000830152614b5f8161465d565b9050919050565b60006020820190508181036000830152614b7f81614680565b9050919050565b60006101e082019050614b9c60008301846146a3565b92915050565b6000602082019050614bb760008301846147e7565b92915050565b6000604082019050614bd260008301856147e7565b614bdf60208301846147e7565b9392505050565b600060a082019050614bfb60008301886147e7565b614c0860208301876147e7565b8181036040830152614c1a81866142ad565b9050614c29606083018561429e565b614c3660808301846147e7565b9695505050505050565b6000602082019050614c5560008301846147f6565b92915050565b6000614c65614c76565b9050614c718282615115565b919050565b6000604051905090565b600067ffffffffffffffff821115614c9b57614c9a6152f2565b5b602082029050602081019050919050565b6000819050602082019050919050565b6000819050602082019050919050565b600081519050919050565b600081519050919050565b600081519050919050565b6000602082019050919050565b6000602082019050919050565b600082825260208201905092915050565b600082825260208201905092915050565b600082825260208201905092915050565b600081905092915050565b6000614d508261500f565b9150614d5b8361500f565b9250817f7fffffffffffffffffffffffffffffffffffffffffffffffffffffffffffffff03831360008312151615614d9657614d956151d8565b5b817f8000000000000000000000000000000000000000000000000000000000000000038312600083121615614dce57614dcd6151d8565b5b828201905092915050565b6000614de482615039565b9150614def83615039565b9250827fffffffffffffffffffffffffffffffffffffffffffffffffffffffffffffffff03821115614e2457614e236151d8565b5b828201905092915050565b6000614e3a82615039565b9150614e4583615039565b925082614e5557614e54615207565b5b828204905092915050565b6000614e6b82615039565b9150614e7683615039565b9250817fffffffffffffffffffffffffffffffffffffffffffffffffffffffffffffffff0483118215151615614eaf57614eae6151d8565b5b828202905092915050565b6000614ec58261500f565b9150614ed08361500f565b9250827f800000000000000000000000000000000000000000000000000000000000000001821260008412151615614f0b57614f0a6151d8565b5b827f7fffffffffffffffffffffffffffffffffffffffffffffffffffffffffffffff018213600084121615614f4357614f426151d8565b5b828203905092915050565b6000614f5982615039565b9150614f6483615039565b925082821015614f7757614f766151d8565b5b828203905092915050565b6000614f8d82615019565b9050919050565b60008115159050919050565b6000819050919050565b60007fffffffff0000000000000000000000000000000000000000000000000000000082169050919050565b6000819050614fe4826157cf565b919050565b6000819050614ff7826157e3565b919050565b600081905061500a826157f7565b919050565b6000819050919050565b600073ffffffffffffffffffffffffffffffffffffffff82169050919050565b6000819050919050565b600060ff82169050919050565b600061505b82614fd6565b9050919050565b600061506d82614fe9565b9050919050565b600061507f82614ffc565b9050919050565b60005b838110156150a4578082015181840152602081019050615089565b838111156150b3576000848401525b50505050565b60006150c482615039565b915060008214156150d8576150d76151d8565b5b600182039050919050565b600060028204905060018216806150fb57607f821691505b6020821081141561510f5761510e615265565b5b50919050565b61511e8261533a565b810181811067ffffffffffffffff8211171561513d5761513c6152f2565b5b80604052505050565b600061515182615039565b91507fffffffffffffffffffffffffffffffffffffffffffffffffffffffffffffffff821415615184576151836151d8565b5b600182019050919050565b600061519a8261500f565b91507f80000000000000000000000000000000000000000000000000000000000000008214156151cd576151cc6151d8565b5b816000039050919050565b7f4e487b7100000000000000000000000000000000000000000000000000000000600052601160045260246000fd5b7f4e487b7100000000000000000000000000000000000000000000000000000000600052601260045260246000fd5b7f4e487b7100000000000000000000000000000000000000000000000000000000600052602160045260246000fd5b7f4e487b7100000000000000000000000000000000000000000000000000000000600052602260045260246000fd5b7f4e487b7100000000000000000000000000000000000000000000000000000000600052603160045260246000fd5b7f4e487b7100000000000000000000000000000000000000000000000000000000600052603260045260246000fd5b7f4e487b7100000000000000000000000000000000000000000000000000000000600052604160045260246000fd5b600080fd5b600080fd5b600080fd5b600080fd5b600080fd5b6000601f19601f8301169050919050565b7f456e756d657261626c655365743a20696e646578206f7574206f6620626f756e60008201527f6473000000000000000000000000000000000000000000000000000000000000602082015250565b7f537472696e67733a20686578206c656e67746820696e73756666696369656e74600082015250565b7f45524332303a207472616e7366657220746f20746865207a65726f206164647260008201527f6573730000000000000000000000000000000000000000000000000000000000602082015250565b7f45524332303a206275726e20616d6f756e7420657863656564732062616c616e60008201527f6365000000000000000000000000000000000000000000000000000000000000602082015250565b7f45524332303a20617070726f766520746f20746865207a65726f20616464726560008201527f7373000000000000000000000000000000000000000000000000000000000000602082015250565b7f45524332303a207472616e7366657220616d6f756e742065786365656473206260008201527f616c616e63650000000000000000000000000000000000000000000000000000602082015250565b7f5769746864726177616c206661696c65642e0000000000000000000000000000600082015250565b7f45524332303a207472616e7366657220616d6f756e742065786365656473206160008201527f6c6c6f77616e6365000000000000000000000000000000000000000000000000602082015250565b7f5a65726f2047726f7373204361706974616c2e00000000000000000000000000600082015250565b7f45524332303a206275726e2066726f6d20746865207a65726f2061646472657360008201527f7300000000000000000000000000000000000000000000000000000000000000602082015250565b7f45524332303a207472616e736665722066726f6d20746865207a65726f20616460008201527f6472657373000000000000000000000000000000000000000000000000000000602082015250565b7f5472616e73666572206661696c65642e00000000000000000000000000000000600082015250565b7f45524332303a20617070726f76652066726f6d20746865207a65726f2061646460008201527f7265737300000000000000000000000000000000000000000000000000000000602082015250565b7f416363657373436f6e74726f6c3a206163636f756e7420000000000000000000600082015250565b7f45524332303a2064656372656173656420616c6c6f77616e63652062656c6f7760008201527f207a65726f000000000000000000000000000000000000000000000000000000602082015250565b7f206973206d697373696e6720726f6c6520000000000000000000000000000000600082015250565b7f416363657373436f6e74726f6c3a2063616e206f6e6c792072656e6f756e636560008201527f20726f6c657320666f722073656c660000000000000000000000000000000000602082015250565b7f45524332303a206d696e7420746f20746865207a65726f206164647265737300600082015250565b600281106157e0576157df615236565b5b50565b600481106157f4576157f3615236565b5b50565b6002811061580857615807615236565b5b50565b61581481614f82565b811461581f57600080fd5b50565b61582b81614f94565b811461583657600080fd5b50565b61584281614fa0565b811461584d57600080fd5b50565b61585981614faa565b811461586457600080fd5b50565b6002811061587457600080fd5b50565b6004811061588457600080fd5b50565b6002811061589457600080fd5b50565b6158a08161500f565b81146158ab57600080fd5b50565b6158b781615039565b81146158c257600080fd5b5056fea2646970667358221220422f2e33d32355e6a233436249435777ea90c7c0114516dbf43bc0512e2ee88e64736f6c63430008060033",
  "immutableReferences": {},
  "source": "/**\n * SPDX-License-Identifier: GPL-3.0-or-later\n * Moret\n * Copyright (C) 2021 Moret\n*/\n\npragma solidity ^0.8.4;\n\nimport \"@openzeppelin/contracts/token/ERC20/ERC20.sol\";\nimport \"@openzeppelin/contracts/access/AccessControl.sol\";\nimport \"@openzeppelin/contracts/utils/structs/EnumerableSet.sol\";\nimport \"@openzeppelin/contracts/utils/math/Math.sol\";\nimport '@uniswap/v2-periphery/contracts/interfaces/IUniswapV2Router02.sol';\nimport \"./MoretInterfaces.sol\";\nimport \"./FullMath.sol\";\n\ncontract MoretMarketMaker is ERC20, AccessControl, EOption\n{\n  using EnumerableSet for EnumerableSet.UintSet;\n  using EnumerableSet for EnumerableSet.AddressSet;\n\n  bytes32 public constant ADMIN_ROLE = keccak256(\"ADMIN_ROLE\");\n  uint256 private constant ethMultiplier = 10 ** 18;\n\n  mapping(address=> EnumerableSet.UintSet) internal activeOptionsPerOwner;\n  EnumerableSet.UintSet internal activeOptions;\n  EnumerableSet.AddressSet holderList;\n\n  IUniswapV2Router02 internal uniswapRouter;\n  ERC20 internal underlyingToken;\n\n  IOptionVault internal optionVault;\n\n  uint256 public lockedPremium = 0;\n  uint256 public callExposure = 0;\n  uint256 public putExposure = 0;\n  int256 public hedgePositionAmount = 0;\n\n  /* OptionLibrary.Percent public volPremiumMultiplier = OptionLibrary.Percent(10 ** 5 , 10 ** 6) ;\n  OptionLibrary.Percent public volPremiumPenalty = OptionLibrary.Percent(5 * 10 ** 5, 10 ** 6) ; */\n  OptionLibrary.Percent public swapSlippageAllowance = OptionLibrary.Percent (2 * 10**4, 10**6);\n\n  address public underlyingAddress;\n  address public fundingAddress;\n\n  constructor(\n      string memory _name,\n      string memory _symbol,\n      address _underlyingAddress,\n      address _fundingAddress,\n      address _optionAddress,\n      address _swapRouterAddress\n      )\n      ERC20(_name, _symbol)\n      {\n          _setupRole(DEFAULT_ADMIN_ROLE, msg.sender);\n          _setupRole(ADMIN_ROLE, msg.sender);\n\n          uniswapRouter = IUniswapV2Router02(_swapRouterAddress);\n\n          fundingAddress = _fundingAddress;\n          underlyingAddress = _underlyingAddress;\n          underlyingToken = ERC20(underlyingAddress);\n          optionVault = IOptionVault(_optionAddress);\n\n          _mint(msg.sender, ethMultiplier);\n      }\n\n\n      function recordOptionPurhcase(address _purchaser, uint256 _id,\n        uint256 _newPremium, uint256 _newCallExposure, uint256 _newPutExposure)\n        external\n      {\n        if(!holderList.contains(_purchaser))\n        {\n            holderList.add(_purchaser);\n        }\n\n        activeOptionsPerOwner[_purchaser].add(_id);\n        activeOptions.add(_id);\n        lockedPremium += _newPremium;\n        callExposure += _newCallExposure;\n        putExposure += _newPutExposure;\n      }\n\n      function recordOptionRemoval(address _purchaser, uint256 _id,\n        uint256 _removePremium, uint256 _removeCallExposure, uint256 _removePutExposure)\n        external\n      {\n        activeOptionsPerOwner[_purchaser].remove(_id);\n        activeOptions.remove(_id);\n\n        lockedPremium -= _removePremium;\n        callExposure -= _removeCallExposure;\n        putExposure -= _removePutExposure;\n      }\n\n    function calcTotalDelta() public view returns(int256)\n    {\n      uint256 _totalContracts = activeOptions.length();\n      int256 _totalDelta= 0;\n\n      for(uint256 i=0;i<_totalContracts;i++)\n      {\n          uint256 _id = uint256(activeOptions.at(i));\n\n        _totalDelta += optionVault.calculateContractDelta(_id);\n      }\n      return _totalDelta;\n    }\n\n    function updateHedges(uint256 _deadline) external payable onlyRole(ADMIN_ROLE)\n    {\n        int256 _targetDelta = calcTotalDelta();\n        int256 _changesInDelta_m1_0 = 0;\n\n        if(_targetDelta<0){_changesInDelta_m1_0+= _targetDelta;}\n        if(hedgePositionAmount<0){_changesInDelta_m1_0-= hedgePositionAmount;}\n\n        int _swappedUnderlying = 0;\n\n        if(_changesInDelta_m1_0<0)\n        {\n            uint256 _newStable = uint256(-_changesInDelta_m1_0);\n            uint256[] memory _swappedAmounts = swapToStable(_newStable,  _deadline);\n            _swappedUnderlying -= int256(_swappedAmounts[0]);\n        }\n        if(_changesInDelta_m1_0>0)\n        {\n            uint256 _unwindStable = uint256(_changesInDelta_m1_0);\n            uint256[] memory _swappedAmounts = swapToUnderlying( _unwindStable,  _deadline);\n            _swappedUnderlying += int256(_swappedAmounts[1]);\n        }\n\n        hedgePositionAmount += _swappedUnderlying;\n    }\n\n    function swapToStable(uint256 _newStable, uint256 _deadline) public onlyRole(ADMIN_ROLE) returns(uint256[] memory _swappedAmounts)\n    {\n        (uint256 _price,) = optionVault.queryPrice();\n\n        uint256 _priceLimit = _price * (swapSlippageAllowance.denominator + swapSlippageAllowance.numerator)/ swapSlippageAllowance.denominator;\n        uint256 _amountInMaximum = (_newStable * optionVault.priceMultiplier() / _priceLimit );\n\n        address[] memory path = new address[](2);\n        path[1] = fundingAddress;\n        path[0] = underlyingAddress;\n\n          return uniswapRouter.swapTokensForExactTokens(\n            _newStable,\n            _amountInMaximum,\n            path,\n            address(this),\n            _deadline\n             );\n    }\n\n    function swapToUnderlying(uint256 _unwindStable, uint256 _deadline) public onlyRole(ADMIN_ROLE) returns(uint256[] memory _swappedAmounts)\n    {\n      (uint256 _price,) = optionVault.queryPrice();\n\n      uint256 _priceLimit = _price *(swapSlippageAllowance.denominator + swapSlippageAllowance.numerator)/ swapSlippageAllowance.denominator;\n      uint256 _amountOutMinimum = (_unwindStable * optionVault.priceMultiplier() / _priceLimit);\n\n      address[] memory path = new address[](2);\n      path[0] = fundingAddress;\n      path[1] = underlyingAddress;\n\n      return uniswapRouter.swapExactTokensForTokens(\n        _unwindStable,\n        _amountOutMinimum,\n        path,\n        address(this),\n        _deadline\n         );\n\n    }\n\n    function quoteCapitalCost(uint256 _mpAmount) external view returns(uint256){\n        return MulDiv(_mpAmount, calcCapital(false, true), ethMultiplier);\n    }\n\n    function addCapital(uint256 _depositAmount) external payable{\n        uint256 _averageGrossCapital = calcCapital(false, true);\n        require(_averageGrossCapital>0, \"Zero Gross Capital.\");\n\n        uint256 _mintMPTokenAmount = MulDiv(_depositAmount, ethMultiplier, _averageGrossCapital);\n\n        require(underlyingToken.transferFrom(msg.sender, address(this), _depositAmount), \"Transfer failed.\");\n\n        _mint(msg.sender, _mintMPTokenAmount);\n\n        emit capitalAdded(msg.sender, _depositAmount, _mintMPTokenAmount);\n    }\n\n\n    function withdrawCapital(uint256 _burnMPTokenAmount) external {\n        uint256 _withdrawValue = MulDiv(calcCapital(true, true),  _burnMPTokenAmount , ethMultiplier);\n\n        _burn(msg.sender, _burnMPTokenAmount);\n\n        require(underlyingToken.transfer(msg.sender, _withdrawValue), \"Withdrawal failed.\");\n\n        emit capitalWithdrawn(msg.sender, _burnMPTokenAmount, _withdrawValue);\n    }\n\n    function calcCapital(bool _net, bool _average) public view returns(uint256){\n        (uint256 _price,) = optionVault.queryPrice();\n        uint256 _capital = ERC20(fundingAddress).balanceOf(address(this)) * optionVault.priceMultiplier() / _price;\n\n        _capital += underlyingToken.balanceOf(address(this));\n\n        if(_net)\n        {\n          _capital -= (_capital <= (callExposure+ putExposure)? _capital: (callExposure+ putExposure));\n          _capital -= (_capital <= lockedPremium? _capital: lockedPremium)  ;\n        }\n\n        if(_average)\n        {\n          _capital = _capital * ethMultiplier / totalSupply();\n        }\n        return _capital;\n    }\n\n    function calcUtilisation(uint256 _amount, OptionLibrary.PayoffType _poType, OptionLibrary.OptionSide _side)\n    external view returns(uint256, uint256){\n        uint256 _grossCapital = calcCapital(false, false);\n\n        uint256 _newCallExposure = (_poType==OptionLibrary.PayoffType.Call)?\n          ((_side==OptionLibrary.OptionSide.Buy)? (callExposure+_amount): (callExposure - Math.min(callExposure, _amount)) )\n          : callExposure;\n        uint256 _newPutExposure = (_poType==OptionLibrary.PayoffType.Put)?\n          ((_side==OptionLibrary.OptionSide.Buy)? (putExposure+_amount): (putExposure - Math.min(putExposure, _amount)) )\n          : putExposure;\n\n        return (MulDiv(Math.max(callExposure, putExposure), ethMultiplier, _grossCapital ),\n          MulDiv(Math.max(_newCallExposure, _newPutExposure) , ethMultiplier, _grossCapital ));\n    }\n\n    /* function calcUtilityAddon(uint256 _amount, OptionLibrary.PayoffType  _poType) external view returns(OptionLibrary.Percent memory){\n        (uint256 _utilityBefore, uint256 _utilityAfter, uint256 _denominator) = calcUtilityRatios(_amount, _poType);\n        require(_utilityBefore < maxCollateralisation.numerator, \"Max collateralisation breached.\");\n        require(_utilityAfter < maxCollateralisation.numerator, \"Max collateralisation breached.\");\n\n        uint256 _addonBefore = volPremiumMultiplier.numerator * _utilityBefore / volPremiumMultiplier.denominator;\n        if(_utilityBefore> _denominator)\n        {\n            _addonBefore += volPremiumPenalty.numerator *( _utilityBefore - _denominator)/ volPremiumPenalty.denominator;\n        }\n\n        uint256 _addonAfter = (volPremiumMultiplier.numerator * _utilityAfter/ volPremiumPenalty.denominator);\n        if(_utilityAfter> _denominator)\n        {\n            _addonAfter += (volPremiumPenalty.numerator* ( _utilityAfter - _denominator) / volPremiumPenalty.denominator);\n        }\n\n        return OptionLibrary.Percent((_addonBefore + _addonAfter) / 2, _denominator);\n    } */\n\n    function sweepBalance() external onlyRole(ADMIN_ROLE){\n        require(underlyingToken.transfer(msg.sender, underlyingToken.balanceOf(address(this))), \"Withdrawal failed.\");\n    }\n\n    /* function resetVolPremiumMultiplier(uint256 _multiplier, uint256 _denominator) external onlyRole(ADMIN_ROLE){\n        volPremiumMultiplier = OptionLibrary.Percent(_multiplier, _denominator);\n    }\n\n    function resetVolPremiumPenalty(uint256 _multiplier, uint256 _denominator) external onlyRole(ADMIN_ROLE){\n        volPremiumPenalty = OptionLibrary.Percent(_multiplier, _denominator);\n    } */\n\n    function resetSwapSlippageAllowance(uint256 _multiplier, uint256 _denominator) external onlyRole(ADMIN_ROLE){\n        swapSlippageAllowance = OptionLibrary.Percent(_multiplier, _denominator);\n    }\n\n    function getHoldersOptionCount(address _address) external view returns(uint256){return activeOptionsPerOwner[_address].length();}\n    function getHoldersOption(uint256 _index, address _address) external view returns(OptionLibrary.Option memory) {return optionVault.getOption(activeOptionsPerOwner[_address].at(_index));}\n    function priceDecimals() external view returns(uint256){ return optionVault.priceDecimals();}\n\n    receive() external payable{}\n\n}\n",
  "sourcePath": "/Users/mac/Documents/GitHub/moret/contracts/MoretMarketMaker.sol",
  "compiler": {
    "name": "solc",
    "version": "0.8.6+commit.11564f7e.Emscripten.clang"
  },
  "schemaVersion": "3.4.1",
  "updatedAt": "2021-07-04T15:00:07.972Z",
  "devdoc": {
    "kind": "dev",
    "methods": {
      "allowance(address,address)": {
        "details": "See {IERC20-allowance}."
      },
      "approve(address,uint256)": {
        "details": "See {IERC20-approve}. Requirements: - `spender` cannot be the zero address."
      },
      "balanceOf(address)": {
        "details": "See {IERC20-balanceOf}."
      },
      "decimals()": {
        "details": "Returns the number of decimals used to get its user representation. For example, if `decimals` equals `2`, a balance of `505` tokens should be displayed to a user as `5,05` (`505 / 10 ** 2`). Tokens usually opt for a value of 18, imitating the relationship between Ether and Wei. This is the value {ERC20} uses, unless this function is overridden; NOTE: This information is only used for _display_ purposes: it in no way affects any of the arithmetic of the contract, including {IERC20-balanceOf} and {IERC20-transfer}."
      },
      "decreaseAllowance(address,uint256)": {
        "details": "Atomically decreases the allowance granted to `spender` by the caller. This is an alternative to {approve} that can be used as a mitigation for problems described in {IERC20-approve}. Emits an {Approval} event indicating the updated allowance. Requirements: - `spender` cannot be the zero address. - `spender` must have allowance for the caller of at least `subtractedValue`."
      },
      "getRoleAdmin(bytes32)": {
        "details": "Returns the admin role that controls `role`. See {grantRole} and {revokeRole}. To change a role's admin, use {_setRoleAdmin}."
      },
      "grantRole(bytes32,address)": {
        "details": "Grants `role` to `account`. If `account` had not been already granted `role`, emits a {RoleGranted} event. Requirements: - the caller must have ``role``'s admin role."
      },
      "hasRole(bytes32,address)": {
        "details": "Returns `true` if `account` has been granted `role`."
      },
      "increaseAllowance(address,uint256)": {
        "details": "Atomically increases the allowance granted to `spender` by the caller. This is an alternative to {approve} that can be used as a mitigation for problems described in {IERC20-approve}. Emits an {Approval} event indicating the updated allowance. Requirements: - `spender` cannot be the zero address."
      },
      "name()": {
        "details": "Returns the name of the token."
      },
      "renounceRole(bytes32,address)": {
        "details": "Revokes `role` from the calling account. Roles are often managed via {grantRole} and {revokeRole}: this function's purpose is to provide a mechanism for accounts to lose their privileges if they are compromised (such as when a trusted device is misplaced). If the calling account had been granted `role`, emits a {RoleRevoked} event. Requirements: - the caller must be `account`."
      },
      "revokeRole(bytes32,address)": {
        "details": "Revokes `role` from `account`. If `account` had been granted `role`, emits a {RoleRevoked} event. Requirements: - the caller must have ``role``'s admin role."
      },
      "supportsInterface(bytes4)": {
        "details": "See {IERC165-supportsInterface}."
      },
      "symbol()": {
        "details": "Returns the symbol of the token, usually a shorter version of the name."
      },
      "totalSupply()": {
        "details": "See {IERC20-totalSupply}."
      },
      "transfer(address,uint256)": {
        "details": "See {IERC20-transfer}. Requirements: - `recipient` cannot be the zero address. - the caller must have a balance of at least `amount`."
      },
      "transferFrom(address,address,uint256)": {
        "details": "See {IERC20-transferFrom}. Emits an {Approval} event indicating the updated allowance. This is not required by the EIP. See the note at the beginning of {ERC20}. Requirements: - `sender` and `recipient` cannot be the zero address. - `sender` must have a balance of at least `amount`. - the caller must have allowance for ``sender``'s tokens of at least `amount`."
      }
    },
    "version": 1
  },
  "userdoc": {
    "kind": "user",
    "methods": {},
    "version": 1
  }
}