{
  "contractName": "MoretMarketMaker",
  "abi": [
    {
      "inputs": [
        {
          "internalType": "string",
          "name": "_name",
          "type": "string"
        },
        {
          "internalType": "string",
          "name": "_symbol",
          "type": "string"
        },
        {
          "internalType": "address",
          "name": "_optionAddress",
          "type": "address"
        }
      ],
      "stateMutability": "nonpayable",
      "type": "constructor"
    },
    {
      "anonymous": false,
      "inputs": [
        {
          "indexed": true,
          "internalType": "address",
          "name": "owner",
          "type": "address"
        },
        {
          "indexed": true,
          "internalType": "address",
          "name": "spender",
          "type": "address"
        },
        {
          "indexed": false,
          "internalType": "uint256",
          "name": "value",
          "type": "uint256"
        }
      ],
      "name": "Approval",
      "type": "event"
    },
    {
      "anonymous": false,
      "inputs": [
        {
          "indexed": false,
          "internalType": "bool",
          "name": "success",
          "type": "bool"
        },
        {
          "indexed": false,
          "internalType": "bytes",
          "name": "data",
          "type": "bytes"
        }
      ],
      "name": "Response",
      "type": "event"
    },
    {
      "anonymous": false,
      "inputs": [
        {
          "indexed": true,
          "internalType": "bytes32",
          "name": "role",
          "type": "bytes32"
        },
        {
          "indexed": true,
          "internalType": "bytes32",
          "name": "previousAdminRole",
          "type": "bytes32"
        },
        {
          "indexed": true,
          "internalType": "bytes32",
          "name": "newAdminRole",
          "type": "bytes32"
        }
      ],
      "name": "RoleAdminChanged",
      "type": "event"
    },
    {
      "anonymous": false,
      "inputs": [
        {
          "indexed": true,
          "internalType": "bytes32",
          "name": "role",
          "type": "bytes32"
        },
        {
          "indexed": true,
          "internalType": "address",
          "name": "account",
          "type": "address"
        },
        {
          "indexed": true,
          "internalType": "address",
          "name": "sender",
          "type": "address"
        }
      ],
      "name": "RoleGranted",
      "type": "event"
    },
    {
      "anonymous": false,
      "inputs": [
        {
          "indexed": true,
          "internalType": "bytes32",
          "name": "role",
          "type": "bytes32"
        },
        {
          "indexed": true,
          "internalType": "address",
          "name": "account",
          "type": "address"
        },
        {
          "indexed": true,
          "internalType": "address",
          "name": "sender",
          "type": "address"
        }
      ],
      "name": "RoleRevoked",
      "type": "event"
    },
    {
      "anonymous": false,
      "inputs": [
        {
          "indexed": true,
          "internalType": "address",
          "name": "from",
          "type": "address"
        },
        {
          "indexed": true,
          "internalType": "address",
          "name": "to",
          "type": "address"
        },
        {
          "indexed": false,
          "internalType": "uint256",
          "name": "value",
          "type": "uint256"
        }
      ],
      "name": "Transfer",
      "type": "event"
    },
    {
      "anonymous": false,
      "inputs": [
        {
          "indexed": false,
          "internalType": "address",
          "name": "_recipient",
          "type": "address"
        },
        {
          "indexed": false,
          "internalType": "uint256",
          "name": "_mintMPTokenAmount",
          "type": "uint256"
        },
        {
          "indexed": false,
          "internalType": "uint256",
          "name": "_addedValue",
          "type": "uint256"
        }
      ],
      "name": "capitalAdded",
      "type": "event"
    },
    {
      "anonymous": false,
      "inputs": [
        {
          "indexed": false,
          "internalType": "address",
          "name": "_recipient",
          "type": "address"
        },
        {
          "indexed": false,
          "internalType": "uint256",
          "name": "_burnMPTokenAmount",
          "type": "uint256"
        },
        {
          "indexed": false,
          "internalType": "uint256",
          "name": "_withdrawValue",
          "type": "uint256"
        }
      ],
      "name": "capitalWithdrawn",
      "type": "event"
    },
    {
      "anonymous": false,
      "inputs": [
        {
          "indexed": true,
          "internalType": "address",
          "name": "_purchaser",
          "type": "address"
        },
        {
          "components": [
            {
              "internalType": "enum OptionLibrary.PayoffType",
              "name": "poType",
              "type": "uint8"
            },
            {
              "internalType": "enum OptionLibrary.OptionSide",
              "name": "side",
              "type": "uint8"
            },
            {
              "internalType": "enum OptionLibrary.OptionStatus",
              "name": "status",
              "type": "uint8"
            },
            {
              "internalType": "address",
              "name": "holder",
              "type": "address"
            },
            {
              "internalType": "uint256",
              "name": "id",
              "type": "uint256"
            },
            {
              "internalType": "uint256",
              "name": "createTime",
              "type": "uint256"
            },
            {
              "internalType": "uint256",
              "name": "effectiveTime",
              "type": "uint256"
            },
            {
              "internalType": "uint256",
              "name": "tenor",
              "type": "uint256"
            },
            {
              "internalType": "uint256",
              "name": "maturity",
              "type": "uint256"
            },
            {
              "internalType": "uint256",
              "name": "exerciseTime",
              "type": "uint256"
            },
            {
              "internalType": "uint256",
              "name": "amount",
              "type": "uint256"
            },
            {
              "internalType": "uint256",
              "name": "spot",
              "type": "uint256"
            },
            {
              "internalType": "uint256",
              "name": "strike",
              "type": "uint256"
            },
            {
              "internalType": "uint256",
              "name": "volatility",
              "type": "uint256"
            },
            {
              "internalType": "uint256",
              "name": "premium",
              "type": "uint256"
            },
            {
              "internalType": "uint256",
              "name": "cost",
              "type": "uint256"
            }
          ],
          "indexed": false,
          "internalType": "struct OptionLibrary.Option",
          "name": "_option",
          "type": "tuple"
        },
        {
          "indexed": false,
          "internalType": "uint256",
          "name": "_cost",
          "type": "uint256"
        },
        {
          "indexed": false,
          "internalType": "bool",
          "name": "_inVol",
          "type": "bool"
        }
      ],
      "name": "newOptionBought",
      "type": "event"
    },
    {
      "anonymous": false,
      "inputs": [
        {
          "indexed": true,
          "internalType": "address",
          "name": "_purchaser",
          "type": "address"
        },
        {
          "components": [
            {
              "internalType": "enum OptionLibrary.PayoffType",
              "name": "poType",
              "type": "uint8"
            },
            {
              "internalType": "enum OptionLibrary.OptionSide",
              "name": "side",
              "type": "uint8"
            },
            {
              "internalType": "enum OptionLibrary.OptionStatus",
              "name": "status",
              "type": "uint8"
            },
            {
              "internalType": "address",
              "name": "holder",
              "type": "address"
            },
            {
              "internalType": "uint256",
              "name": "id",
              "type": "uint256"
            },
            {
              "internalType": "uint256",
              "name": "createTime",
              "type": "uint256"
            },
            {
              "internalType": "uint256",
              "name": "effectiveTime",
              "type": "uint256"
            },
            {
              "internalType": "uint256",
              "name": "tenor",
              "type": "uint256"
            },
            {
              "internalType": "uint256",
              "name": "maturity",
              "type": "uint256"
            },
            {
              "internalType": "uint256",
              "name": "exerciseTime",
              "type": "uint256"
            },
            {
              "internalType": "uint256",
              "name": "amount",
              "type": "uint256"
            },
            {
              "internalType": "uint256",
              "name": "spot",
              "type": "uint256"
            },
            {
              "internalType": "uint256",
              "name": "strike",
              "type": "uint256"
            },
            {
              "internalType": "uint256",
              "name": "volatility",
              "type": "uint256"
            },
            {
              "internalType": "uint256",
              "name": "premium",
              "type": "uint256"
            },
            {
              "internalType": "uint256",
              "name": "cost",
              "type": "uint256"
            }
          ],
          "indexed": false,
          "internalType": "struct OptionLibrary.Option",
          "name": "_option",
          "type": "tuple"
        },
        {
          "indexed": false,
          "internalType": "uint256",
          "name": "_payoff",
          "type": "uint256"
        }
      ],
      "name": "optionExercised",
      "type": "event"
    },
    {
      "anonymous": false,
      "inputs": [
        {
          "indexed": false,
          "internalType": "address",
          "name": "_purchaser",
          "type": "address"
        },
        {
          "indexed": false,
          "internalType": "uint256",
          "name": "_time",
          "type": "uint256"
        },
        {
          "indexed": false,
          "internalType": "uint256",
          "name": "_tenor",
          "type": "uint256"
        },
        {
          "indexed": false,
          "internalType": "uint256",
          "name": "_amount",
          "type": "uint256"
        },
        {
          "indexed": false,
          "internalType": "uint256",
          "name": "_cost",
          "type": "uint256"
        }
      ],
      "name": "volatilityTokenBought",
      "type": "event"
    },
    {
      "anonymous": false,
      "inputs": [
        {
          "indexed": false,
          "internalType": "address",
          "name": "_seller",
          "type": "address"
        },
        {
          "indexed": false,
          "internalType": "uint256",
          "name": "_time",
          "type": "uint256"
        },
        {
          "indexed": false,
          "internalType": "uint256",
          "name": "_tenor",
          "type": "uint256"
        },
        {
          "indexed": false,
          "internalType": "uint256",
          "name": "_amount",
          "type": "uint256"
        },
        {
          "indexed": false,
          "internalType": "uint256",
          "name": "_cost",
          "type": "uint256"
        }
      ],
      "name": "volatilityTokenSold",
      "type": "event"
    },
    {
      "inputs": [],
      "name": "ADMIN_ROLE",
      "outputs": [
        {
          "internalType": "bytes32",
          "name": "",
          "type": "bytes32"
        }
      ],
      "stateMutability": "view",
      "type": "function"
    },
    {
      "inputs": [],
      "name": "DEFAULT_ADMIN_ROLE",
      "outputs": [
        {
          "internalType": "bytes32",
          "name": "",
          "type": "bytes32"
        }
      ],
      "stateMutability": "view",
      "type": "function"
    },
    {
      "inputs": [],
      "name": "EXCHANGE_ROLE",
      "outputs": [
        {
          "internalType": "bytes32",
          "name": "",
          "type": "bytes32"
        }
      ],
      "stateMutability": "view",
      "type": "function"
    },
    {
      "inputs": [
        {
          "internalType": "address",
          "name": "owner",
          "type": "address"
        },
        {
          "internalType": "address",
          "name": "spender",
          "type": "address"
        }
      ],
      "name": "allowance",
      "outputs": [
        {
          "internalType": "uint256",
          "name": "",
          "type": "uint256"
        }
      ],
      "stateMutability": "view",
      "type": "function"
    },
    {
      "inputs": [
        {
          "internalType": "address",
          "name": "spender",
          "type": "address"
        },
        {
          "internalType": "uint256",
          "name": "amount",
          "type": "uint256"
        }
      ],
      "name": "approve",
      "outputs": [
        {
          "internalType": "bool",
          "name": "",
          "type": "bool"
        }
      ],
      "stateMutability": "nonpayable",
      "type": "function"
    },
    {
      "inputs": [
        {
          "internalType": "address",
          "name": "account",
          "type": "address"
        }
      ],
      "name": "balanceOf",
      "outputs": [
        {
          "internalType": "uint256",
          "name": "",
          "type": "uint256"
        }
      ],
      "stateMutability": "view",
      "type": "function"
    },
    {
      "inputs": [],
      "name": "decimals",
      "outputs": [
        {
          "internalType": "uint8",
          "name": "",
          "type": "uint8"
        }
      ],
      "stateMutability": "view",
      "type": "function"
    },
    {
      "inputs": [
        {
          "internalType": "address",
          "name": "spender",
          "type": "address"
        },
        {
          "internalType": "uint256",
          "name": "subtractedValue",
          "type": "uint256"
        }
      ],
      "name": "decreaseAllowance",
      "outputs": [
        {
          "internalType": "bool",
          "name": "",
          "type": "bool"
        }
      ],
      "stateMutability": "nonpayable",
      "type": "function"
    },
    {
      "inputs": [],
      "name": "exerciseFee",
      "outputs": [
        {
          "internalType": "uint256",
          "name": "",
          "type": "uint256"
        }
      ],
      "stateMutability": "view",
      "type": "function"
    },
    {
      "inputs": [
        {
          "internalType": "bytes32",
          "name": "role",
          "type": "bytes32"
        }
      ],
      "name": "getRoleAdmin",
      "outputs": [
        {
          "internalType": "bytes32",
          "name": "",
          "type": "bytes32"
        }
      ],
      "stateMutability": "view",
      "type": "function"
    },
    {
      "inputs": [
        {
          "internalType": "bytes32",
          "name": "role",
          "type": "bytes32"
        },
        {
          "internalType": "address",
          "name": "account",
          "type": "address"
        }
      ],
      "name": "grantRole",
      "outputs": [],
      "stateMutability": "nonpayable",
      "type": "function"
    },
    {
      "inputs": [
        {
          "internalType": "bytes32",
          "name": "role",
          "type": "bytes32"
        },
        {
          "internalType": "address",
          "name": "account",
          "type": "address"
        }
      ],
      "name": "hasRole",
      "outputs": [
        {
          "internalType": "bool",
          "name": "",
          "type": "bool"
        }
      ],
      "stateMutability": "view",
      "type": "function"
    },
    {
      "inputs": [
        {
          "internalType": "address",
          "name": "spender",
          "type": "address"
        },
        {
          "internalType": "uint256",
          "name": "addedValue",
          "type": "uint256"
        }
      ],
      "name": "increaseAllowance",
      "outputs": [
        {
          "internalType": "bool",
          "name": "",
          "type": "bool"
        }
      ],
      "stateMutability": "nonpayable",
      "type": "function"
    },
    {
      "inputs": [],
      "name": "lendingPoolRateMode",
      "outputs": [
        {
          "internalType": "uint256",
          "name": "",
          "type": "uint256"
        }
      ],
      "stateMutability": "view",
      "type": "function"
    },
    {
      "inputs": [],
      "name": "maintenanceAddress",
      "outputs": [
        {
          "internalType": "address",
          "name": "",
          "type": "address"
        }
      ],
      "stateMutability": "view",
      "type": "function"
    },
    {
      "inputs": [],
      "name": "name",
      "outputs": [
        {
          "internalType": "string",
          "name": "",
          "type": "string"
        }
      ],
      "stateMutability": "view",
      "type": "function"
    },
    {
      "inputs": [
        {
          "internalType": "bytes32",
          "name": "role",
          "type": "bytes32"
        },
        {
          "internalType": "address",
          "name": "account",
          "type": "address"
        }
      ],
      "name": "renounceRole",
      "outputs": [],
      "stateMutability": "nonpayable",
      "type": "function"
    },
    {
      "inputs": [
        {
          "internalType": "bytes32",
          "name": "role",
          "type": "bytes32"
        },
        {
          "internalType": "address",
          "name": "account",
          "type": "address"
        }
      ],
      "name": "revokeRole",
      "outputs": [],
      "stateMutability": "nonpayable",
      "type": "function"
    },
    {
      "inputs": [],
      "name": "settlementFee",
      "outputs": [
        {
          "internalType": "uint256",
          "name": "",
          "type": "uint256"
        }
      ],
      "stateMutability": "view",
      "type": "function"
    },
    {
      "inputs": [
        {
          "internalType": "bytes4",
          "name": "interfaceId",
          "type": "bytes4"
        }
      ],
      "name": "supportsInterface",
      "outputs": [
        {
          "internalType": "bool",
          "name": "",
          "type": "bool"
        }
      ],
      "stateMutability": "view",
      "type": "function"
    },
    {
      "inputs": [],
      "name": "swapSlippage",
      "outputs": [
        {
          "internalType": "uint256",
          "name": "",
          "type": "uint256"
        }
      ],
      "stateMutability": "view",
      "type": "function"
    },
    {
      "inputs": [],
      "name": "symbol",
      "outputs": [
        {
          "internalType": "string",
          "name": "",
          "type": "string"
        }
      ],
      "stateMutability": "view",
      "type": "function"
    },
    {
      "inputs": [],
      "name": "totalSupply",
      "outputs": [
        {
          "internalType": "uint256",
          "name": "",
          "type": "uint256"
        }
      ],
      "stateMutability": "view",
      "type": "function"
    },
    {
      "inputs": [
        {
          "internalType": "address",
          "name": "recipient",
          "type": "address"
        },
        {
          "internalType": "uint256",
          "name": "amount",
          "type": "uint256"
        }
      ],
      "name": "transfer",
      "outputs": [
        {
          "internalType": "bool",
          "name": "",
          "type": "bool"
        }
      ],
      "stateMutability": "nonpayable",
      "type": "function"
    },
    {
      "inputs": [
        {
          "internalType": "address",
          "name": "sender",
          "type": "address"
        },
        {
          "internalType": "address",
          "name": "recipient",
          "type": "address"
        },
        {
          "internalType": "uint256",
          "name": "amount",
          "type": "uint256"
        }
      ],
      "name": "transferFrom",
      "outputs": [
        {
          "internalType": "bool",
          "name": "",
          "type": "bool"
        }
      ],
      "stateMutability": "nonpayable",
      "type": "function"
    },
    {
      "inputs": [
        {
          "internalType": "address",
          "name": "exerciseFeeRecipient",
          "type": "address"
        }
      ],
      "name": "expireOptions",
      "outputs": [],
      "stateMutability": "nonpayable",
      "type": "function"
    },
    {
      "inputs": [
        {
          "internalType": "bool",
          "name": "_net",
          "type": "bool"
        },
        {
          "internalType": "bool",
          "name": "_average",
          "type": "bool"
        }
      ],
      "name": "calcCapital",
      "outputs": [
        {
          "internalType": "uint256",
          "name": "_capital",
          "type": "uint256"
        }
      ],
      "stateMutability": "view",
      "type": "function"
    },
    {
      "inputs": [
        {
          "internalType": "uint256",
          "name": "_depositAmount",
          "type": "uint256"
        }
      ],
      "name": "addCapital",
      "outputs": [],
      "stateMutability": "nonpayable",
      "type": "function"
    },
    {
      "inputs": [
        {
          "internalType": "uint256",
          "name": "_burnMPTokenAmount",
          "type": "uint256"
        }
      ],
      "name": "withdrawCapital",
      "outputs": [],
      "stateMutability": "nonpayable",
      "type": "function"
    },
    {
      "inputs": [
        {
          "internalType": "int256",
          "name": "_underlyingAmt",
          "type": "int256"
        },
        {
          "internalType": "int256",
          "name": "_fundingAmt",
          "type": "int256"
        },
        {
          "internalType": "address",
          "name": "_spender",
          "type": "address"
        },
        {
          "internalType": "bytes",
          "name": "_calldata",
          "type": "bytes"
        }
      ],
      "name": "tradeSwapAggregate",
      "outputs": [],
      "stateMutability": "nonpayable",
      "type": "function"
    },
    {
      "inputs": [
        {
          "internalType": "int256",
          "name": "_underlyingAmt",
          "type": "int256"
        },
        {
          "internalType": "int256",
          "name": "_fundingAmt",
          "type": "int256"
        },
        {
          "internalType": "address",
          "name": "_router",
          "type": "address"
        },
        {
          "internalType": "uint256",
          "name": "_deadline",
          "type": "uint256"
        }
      ],
      "name": "tradeSwaps",
      "outputs": [],
      "stateMutability": "nonpayable",
      "type": "function"
    },
    {
      "inputs": [],
      "name": "hedgeTradesForLoans",
      "outputs": [],
      "stateMutability": "nonpayable",
      "type": "function"
    },
    {
      "inputs": [
        {
          "internalType": "uint256",
          "name": "_newFee",
          "type": "uint256"
        }
      ],
      "name": "resetSettlementFee",
      "outputs": [],
      "stateMutability": "nonpayable",
      "type": "function"
    },
    {
      "inputs": [
        {
          "internalType": "uint256",
          "name": "_newFee",
          "type": "uint256"
        }
      ],
      "name": "resetExerciseFee",
      "outputs": [],
      "stateMutability": "nonpayable",
      "type": "function"
    },
    {
      "inputs": [
        {
          "internalType": "address",
          "name": "_newAddress",
          "type": "address"
        }
      ],
      "name": "resetMaintenance",
      "outputs": [],
      "stateMutability": "nonpayable",
      "type": "function"
    },
    {
      "inputs": [
        {
          "internalType": "uint256",
          "name": "_slippage",
          "type": "uint256"
        }
      ],
      "name": "resetSlippage",
      "outputs": [],
      "stateMutability": "nonpayable",
      "type": "function"
    },
    {
      "inputs": [
        {
          "internalType": "uint256",
          "name": "_newRateMode",
          "type": "uint256"
        }
      ],
      "name": "resetLendingPoolRateMode",
      "outputs": [],
      "stateMutability": "nonpayable",
      "type": "function"
    }
  ],
  "bytecode": "0x60806040526611c37937e080006007556611c37937e080006008556002600d556601c6bf52634000600e553480156200003757600080fd5b50604051620064a7380380620064a783398181016040528101906200005d919062000979565b8282816003908051906020019062000077929190620006c7565b50806004908051906020019062000090929190620006c7565b505050620000a86000801b33620003c960201b60201c565b620000da7fa49807205ce4d355092ef5a8a18f56e8913cf4a201fbe287825b095693c2177533620003c960201b60201c565b6200010c7f28d62fc77014de57a1bbaa8212ff0979fa61ab00d377b4b8d9762048fb41996133620003c960201b60201c565b33600c60006101000a81548173ffffffffffffffffffffffffffffffffffffffff021916908373ffffffffffffffffffffffffffffffffffffffff16021790555080600960006101000a81548173ffffffffffffffffffffffffffffffffffffffff021916908373ffffffffffffffffffffffffffffffffffffffff16021790555073__OptionLibrary_________________________63fd9b87636040518163ffffffff1660e01b8152600401602060405180830381865af4158015620001d8573d6000803e3d6000fd5b505050506040513d601f19601f82011682018060405250810190620001fe919062000a4e565b600681905550600960009054906101000a900473ffffffffffffffffffffffffffffffffffffffff1673ffffffffffffffffffffffffffffffffffffffff16636f307dc36040518163ffffffff1660e01b8152600401602060405180830381865afa15801562000272573d6000803e3d6000fd5b505050506040513d601f19601f8201168201806040525081019062000298919062000a80565b600a60006101000a81548173ffffffffffffffffffffffffffffffffffffffff021916908373ffffffffffffffffffffffffffffffffffffffff160217905550600960009054906101000a900473ffffffffffffffffffffffffffffffffffffffff1673ffffffffffffffffffffffffffffffffffffffff1663cb4c86b76040518163ffffffff1660e01b8152600401602060405180830381865afa15801562000346573d6000803e3d6000fd5b505050506040513d601f19601f820116820180604052508101906200036c919062000a80565b600b60006101000a81548173ffffffffffffffffffffffffffffffffffffffff021916908373ffffffffffffffffffffffffffffffffffffffff160217905550620003c033600654620003df60201b60201c565b50505062000c54565b620003db82826200055860201b60201c565b5050565b600073ffffffffffffffffffffffffffffffffffffffff168273ffffffffffffffffffffffffffffffffffffffff16141562000452576040517f08c379a0000000000000000000000000000000000000000000000000000000008152600401620004499062000b13565b60405180910390fd5b62000466600083836200064a60201b60201c565b80600260008282546200047a919062000b64565b92505081905550806000808473ffffffffffffffffffffffffffffffffffffffff1673ffffffffffffffffffffffffffffffffffffffff1681526020019081526020016000206000828254620004d1919062000b64565b925050819055508173ffffffffffffffffffffffffffffffffffffffff16600073ffffffffffffffffffffffffffffffffffffffff167fddf252ad1be2c89b69c2b068fc378daa952ba7f163c4a11628f55a4df523b3ef8360405162000538919062000bd2565b60405180910390a362000554600083836200064f60201b60201c565b5050565b6200056a82826200065460201b60201c565b620006465760016005600084815260200190815260200160002060000160008373ffffffffffffffffffffffffffffffffffffffff1673ffffffffffffffffffffffffffffffffffffffff16815260200190815260200160002060006101000a81548160ff021916908315150217905550620005eb620006bf60201b60201c565b73ffffffffffffffffffffffffffffffffffffffff168173ffffffffffffffffffffffffffffffffffffffff16837f2f8788117e7eff1d82e926ec794901d17c78024a50270940304540a733656f0d60405160405180910390a45b5050565b505050565b505050565b60006005600084815260200190815260200160002060000160008373ffffffffffffffffffffffffffffffffffffffff1673ffffffffffffffffffffffffffffffffffffffff16815260200190815260200160002060009054906101000a900460ff16905092915050565b600033905090565b828054620006d59062000c1e565b90600052602060002090601f016020900481019282620006f9576000855562000745565b82601f106200071457805160ff191683800117855562000745565b8280016001018555821562000745579182015b828111156200074457825182559160200191906001019062000727565b5b50905062000754919062000758565b5090565b5b808211156200077357600081600090555060010162000759565b5090565b6000604051905090565b600080fd5b600080fd5b600080fd5b600080fd5b6000601f19601f8301169050919050565b7f4e487b7100000000000000000000000000000000000000000000000000000000600052604160045260246000fd5b620007e08262000795565b810181811067ffffffffffffffff82111715620008025762000801620007a6565b5b80604052505050565b60006200081762000777565b9050620008258282620007d5565b919050565b600067ffffffffffffffff821115620008485762000847620007a6565b5b620008538262000795565b9050602081019050919050565b60005b838110156200088057808201518184015260208101905062000863565b8381111562000890576000848401525b50505050565b6000620008ad620008a7846200082a565b6200080b565b905082815260208101848484011115620008cc57620008cb62000790565b5b620008d984828562000860565b509392505050565b600082601f830112620008f957620008f86200078b565b5b81516200090b84826020860162000896565b91505092915050565b600073ffffffffffffffffffffffffffffffffffffffff82169050919050565b6000620009418262000914565b9050919050565b620009538162000934565b81146200095f57600080fd5b50565b600081519050620009738162000948565b92915050565b60008060006060848603121562000995576200099462000781565b5b600084015167ffffffffffffffff811115620009b657620009b562000786565b5b620009c486828701620008e1565b935050602084015167ffffffffffffffff811115620009e857620009e762000786565b5b620009f686828701620008e1565b925050604062000a098682870162000962565b9150509250925092565b6000819050919050565b62000a288162000a13565b811462000a3457600080fd5b50565b60008151905062000a488162000a1d565b92915050565b60006020828403121562000a675762000a6662000781565b5b600062000a778482850162000a37565b91505092915050565b60006020828403121562000a995762000a9862000781565b5b600062000aa98482850162000962565b91505092915050565b600082825260208201905092915050565b7f45524332303a206d696e7420746f20746865207a65726f206164647265737300600082015250565b600062000afb601f8362000ab2565b915062000b088262000ac3565b602082019050919050565b6000602082019050818103600083015262000b2e8162000aec565b9050919050565b7f4e487b7100000000000000000000000000000000000000000000000000000000600052601160045260246000fd5b600062000b718262000a13565b915062000b7e8362000a13565b9250827fffffffffffffffffffffffffffffffffffffffffffffffffffffffffffffffff0382111562000bb65762000bb562000b35565b5b828201905092915050565b62000bcc8162000a13565b82525050565b600060208201905062000be9600083018462000bc1565b92915050565b7f4e487b7100000000000000000000000000000000000000000000000000000000600052602260045260246000fd5b6000600282049050600182168062000c3757607f821691505b6020821081141562000c4e5762000c4d62000bef565b5b50919050565b6158438062000c646000396000f3fe608060405234801561001057600080fd5b50600436106102275760003560e01c806346c777d811610130578063a457c2d7116100b8578063d547741f1161007c578063d547741f1461067a578063d95b0a1214610696578063dd62ed3e146106b2578063e3f828fa146106e2578063ecc513f0146106fe57610227565b8063a457c2d7146105c2578063a9059cbb146105f2578063b82e106d14610622578063bea10f9614610640578063d1c699aa1461065c57610227565b806375b238fc116100ff57806375b238fc1461051a5780637d1d7fb81461053857806391d148541461055657806395d89b4114610586578063a217fddf146105a457610227565b806346c777d814610480578063634479021461049c57806370a08231146104cc578063719d5f83146104fc57610227565b8063248a9ca3116101b35780633733116d116101825780633733116d146103f057806339509351146103fa5780633b7345011461042a5780633e8c47c01461044857806345b2f91c1461046457610227565b8063248a9ca31461036a5780632f2ff15d1461039a578063313ce567146103b657806336568abe146103d457610227565b8063095ea7b3116101fa578063095ea7b3146102b257806318160ddd146102e25780631aedeabe1461030057806320571f351461031e57806323b872dd1461033a57610227565b806301ffc9a71461022c57806306fdde031461025c57806307ba08ce1461027a5780630837ecfd14610296575b600080fd5b61024660048036038101906102419190613d2b565b61071a565b6040516102539190613d73565b60405180910390f35b610264610794565b6040516102719190613e27565b60405180910390f35b610294600480360381019061028f9190613ea7565b610826565b005b6102b060048036038101906102ab9190613f0a565b611108565b005b6102cc60048036038101906102c79190613f37565b61115d565b6040516102d99190613d73565b60405180910390f35b6102ea61117b565b6040516102f79190613f86565b60405180910390f35b610308611185565b6040516103159190613f86565b60405180910390f35b6103386004803603810190610333919061403c565b61118b565b005b610354600480360381019061034f91906140c4565b611499565b6040516103619190613d73565b60405180910390f35b610384600480360381019061037f919061414d565b611591565b6040516103919190614189565b60405180910390f35b6103b460048036038101906103af91906141a4565b6115b1565b005b6103be6115da565b6040516103cb9190614200565b60405180910390f35b6103ee60048036038101906103e991906141a4565b6115e3565b005b6103f8611666565b005b610414600480360381019061040f9190613f37565b611f3b565b6040516104219190613d73565b60405180910390f35b610432611fe7565b60405161043f9190614189565b60405180910390f35b610462600480360381019061045d919061421b565b61200b565b005b61047e60048036038101906104799190613ea7565b6123f5565b005b61049a60048036038101906104959190613f0a565b61246c565b005b6104b660048036038101906104b191906142ae565b6124b7565b6040516104c39190613f86565b60405180910390f35b6104e660048036038101906104e19190613ea7565b6126f6565b6040516104f39190613f86565b60405180910390f35b61050461273e565b60405161051191906142fd565b60405180910390f35b610522612764565b60405161052f9190614189565b60405180910390f35b610540612788565b60405161054d9190613f86565b60405180910390f35b610570600480360381019061056b91906141a4565b61278e565b60405161057d9190613d73565b60405180910390f35b61058e6127f9565b60405161059b9190613e27565b60405180910390f35b6105ac61288b565b6040516105b99190614189565b60405180910390f35b6105dc60048036038101906105d79190613f37565b612892565b6040516105e99190613d73565b60405180910390f35b61060c60048036038101906106079190613f37565b61297d565b6040516106199190613d73565b60405180910390f35b61062a61299b565b6040516106379190613f86565b60405180910390f35b61065a60048036038101906106559190613f0a565b6129a1565b005b610664612b4c565b6040516106719190613f86565b60405180910390f35b610694600480360381019061068f91906141a4565b612b52565b005b6106b060048036038101906106ab9190613f0a565b612b7b565b005b6106cc60048036038101906106c79190614318565b612e00565b6040516106d99190613f86565b60405180910390f35b6106fc60048036038101906106f79190613f0a565b612e87565b005b61071860048036038101906107139190613f0a565b612ec4565b005b60007f7965db0b000000000000000000000000000000000000000000000000000000007bffffffffffffffffffffffffffffffffffffffffffffffffffffffff1916827bffffffffffffffffffffffffffffffffffffffffffffffffffffffff1916148061078d575061078c82612f0f565b5b9050919050565b6060600380546107a390614387565b80601f01602080910402602001604051908101604052809291908181526020018280546107cf90614387565b801561081c5780601f106107f15761010080835404028352916020019161081c565b820191906000526020600020905b8154815290600101906020018083116107ff57829003601f168201915b5050505050905090565b6000600960009054906101000a900473ffffffffffffffffffffffffffffffffffffffff1673ffffffffffffffffffffffffffffffffffffffff16637652e7c46040518163ffffffff1660e01b8152600401602060405180830381865afa158015610895573d6000803e3d6000fd5b505050506040513d601f19601f820116820180604052508101906108b991906143ce565b90505b600081111561110457600960009054906101000a900473ffffffffffffffffffffffffffffffffffffffff1673ffffffffffffffffffffffffffffffffffffffff1663637baf60826040518263ffffffff1660e01b81526004016109209190613f86565b600060405180830381600087803b15801561093a57600080fd5b505af115801561094e573d6000803e3d6000fd5b50505050600080600960009054906101000a900473ffffffffffffffffffffffffffffffffffffffff1673ffffffffffffffffffffffffffffffffffffffff166385ae10e6846040518263ffffffff1660e01b81526004016109b09190613f86565b6040805180830381865afa1580156109cc573d6000803e3d6000fd5b505050506040513d601f19601f820116820180604052508101906109f091906143fb565b9150915073__MarketLibrary_________________________63eea2526b600b60009054906101000a900473ffffffffffffffffffffffffffffffffffffffff16306040518363ffffffff1660e01b8152600401610a4f92919061444a565b602060405180830381865af4158015610a6c573d6000803e3d6000fd5b505050506040513d601f19601f82011682018060405250810190610a9091906143ce565b8110610ad1576040517f08c379a0000000000000000000000000000000000000000000000000000000008152600401610ac8906144bf565b60405180910390fd5b600081111561106a576000818314610ae95781610b13565b610b1282600854600754600654610b00919061450e565b610b0a919061450e565b600654612f79565b5b90506000610b2684600754600654612f79565b90506000610b3985600854600654612f79565b9050600b60009054906101000a900473ffffffffffffffffffffffffffffffffffffffff1673ffffffffffffffffffffffffffffffffffffffff1663a9059cbb600960009054906101000a900473ffffffffffffffffffffffffffffffffffffffff1673ffffffffffffffffffffffffffffffffffffffff16631a7985ba896040518263ffffffff1660e01b8152600401610bd49190613f86565b602060405180830381865afa158015610bf1573d6000803e3d6000fd5b505050506040513d601f19601f82011682018060405250810190610c159190614557565b73__MarketLibrary_________________________638170ce8087600b60009054906101000a900473ffffffffffffffffffffffffffffffffffffffff166040518363ffffffff1660e01b8152600401610c70929190614593565b602060405180830381865af4158015610c8d573d6000803e3d6000fd5b505050506040513d601f19601f82011682018060405250810190610cb191906143ce565b6040518363ffffffff1660e01b8152600401610cce9291906145bc565b6020604051808303816000875af1158015610ced573d6000803e3d6000fd5b505050506040513d601f19601f82011682018060405250810190610d1191906145fa565b610d50576040517f08c379a0000000000000000000000000000000000000000000000000000000008152600401610d4790614673565b60405180910390fd5b600b60009054906101000a900473ffffffffffffffffffffffffffffffffffffffff1673ffffffffffffffffffffffffffffffffffffffff1663a9059cbb600c60009054906101000a900473ffffffffffffffffffffffffffffffffffffffff1673__MarketLibrary_________________________638170ce8086600b60009054906101000a900473ffffffffffffffffffffffffffffffffffffffff166040518363ffffffff1660e01b8152600401610e0c929190614593565b602060405180830381865af4158015610e29573d6000803e3d6000fd5b505050506040513d601f19601f82011682018060405250810190610e4d91906143ce565b6040518363ffffffff1660e01b8152600401610e6a9291906145bc565b6020604051808303816000875af1158015610e89573d6000803e3d6000fd5b505050506040513d601f19601f82011682018060405250810190610ead91906145fa565b610eec576040517f08c379a0000000000000000000000000000000000000000000000000000000008152600401610ee3906146df565b60405180910390fd5b600b60009054906101000a900473ffffffffffffffffffffffffffffffffffffffff1673ffffffffffffffffffffffffffffffffffffffff1663a9059cbb8873__MarketLibrary_________________________638170ce8085600b60009054906101000a900473ffffffffffffffffffffffffffffffffffffffff166040518363ffffffff1660e01b8152600401610f86929190614593565b602060405180830381865af4158015610fa3573d6000803e3d6000fd5b505050506040513d601f19601f82011682018060405250810190610fc791906143ce565b6040518363ffffffff1660e01b8152600401610fe49291906145bc565b6020604051808303816000875af1158015611003573d6000803e3d6000fd5b505050506040513d601f19601f8201168201806040525081019061102791906145fa565b611066576040517f08c379a000000000000000000000000000000000000000000000000000000000815260040161105d9061474b565b60405180910390fd5b5050505b600960009054906101000a900473ffffffffffffffffffffffffffffffffffffffff1673ffffffffffffffffffffffffffffffffffffffff16637652e7c46040518163ffffffff1660e01b8152600401602060405180830381865afa1580156110d7573d6000803e3d6000fd5b505050506040513d601f19601f820116820180604052508101906110fb91906143ce565b925050506108bc565b5050565b7fa49807205ce4d355092ef5a8a18f56e8913cf4a201fbe287825b095693c2177561113a81611135613075565b61307d565b60018214806111495750600282145b61115257600080fd5b81600d819055505050565b600061117161116a613075565b848461311a565b6001905092915050565b6000600254905090565b600e5481565b7f28d62fc77014de57a1bbaa8212ff0979fa61ab00d377b4b8d9762048fb4199616111bd816111b8613075565b61307d565b60008073__MarketLibrary_________________________63865c99848989600960009054906101000a900473ffffffffffffffffffffffffffffffffffffffff1673ffffffffffffffffffffffffffffffffffffffff16636f307dc36040518163ffffffff1660e01b8152600401602060405180830381865afa158015611249573d6000803e3d6000fd5b505050506040513d601f19601f8201168201806040525081019061126d9190614557565b600960009054906101000a900473ffffffffffffffffffffffffffffffffffffffff1673ffffffffffffffffffffffffffffffffffffffff1663cb4c86b76040518163ffffffff1660e01b8152600401602060405180830381865afa1580156112da573d6000803e3d6000fd5b505050506040513d601f19601f820116820180604052508101906112fe9190614557565b6040518563ffffffff1660e01b815260040161131d949392919061477a565b608060405180830381865af415801561133a573d6000803e3d6000fd5b505050506040513d601f19601f8201168201806040525081019061135e91906147bf565b5092505091508073ffffffffffffffffffffffffffffffffffffffff1663095ea7b387846040518363ffffffff1660e01b815260040161139f9291906145bc565b6020604051808303816000875af11580156113be573d6000803e3d6000fd5b505050506040513d601f19601f820116820180604052508101906113e291906145fa565b506000808773ffffffffffffffffffffffffffffffffffffffff16878760405161140d929190614865565b6000604051808303816000865af19150503d806000811461144a576040519150601f19603f3d011682016040523d82523d6000602084013e61144f565b606091505b50915091507f13848c3e38f8886f3f5d2ad9dff80d8092c2bbb8efd5b887a99c2c6cfc09ac2a82826040516114859291906148d3565b60405180910390a150505050505050505050565b60006114a68484846132e5565b6000600160008673ffffffffffffffffffffffffffffffffffffffff1673ffffffffffffffffffffffffffffffffffffffff16815260200190815260200160002060006114f1613075565b73ffffffffffffffffffffffffffffffffffffffff1673ffffffffffffffffffffffffffffffffffffffff16815260200190815260200160002054905082811015611571576040517f08c379a000000000000000000000000000000000000000000000000000000000815260040161156890614975565b60405180910390fd5b6115858561157d613075565b85840361311a565b60019150509392505050565b600060056000838152602001908152602001600020600101549050919050565b6115ba82611591565b6115cb816115c6613075565b61307d565b6115d58383613566565b505050565b60006012905090565b6115eb613075565b73ffffffffffffffffffffffffffffffffffffffff168173ffffffffffffffffffffffffffffffffffffffff1614611658576040517f08c379a000000000000000000000000000000000000000000000000000000000815260040161164f90614a07565b60405180910390fd5b6116628282613647565b5050565b7f28d62fc77014de57a1bbaa8212ff0979fa61ab00d377b4b8d9762048fb41996161169881611693613075565b61307d565b600080600080600960009054906101000a900473ffffffffffffffffffffffffffffffffffffffff1673ffffffffffffffffffffffffffffffffffffffff166365bf997630600d546040518363ffffffff1660e01b81526004016116fd9291906145bc565b608060405180830381865afa15801561171a573d6000803e3d6000fd5b505050506040513d601f19601f8201168201806040525081019061173e9190614a3c565b935093509350935073__MarketLibrary_________________________63aa5c12c785846040518363ffffffff1660e01b815260040161177f929190614aa3565b602060405180830381865af415801561179c573d6000803e3d6000fd5b505050506040513d601f19601f820116820180604052508101906117c09190614acc565b935073__MarketLibrary_________________________63aa5c12c784836040518363ffffffff1660e01b81526004016117fb929190614aa3565b602060405180830381865af4158015611818573d6000803e3d6000fd5b505050506040513d601f19601f8201168201806040525081019061183c9190614acc565b92506000600960009054906101000a900473ffffffffffffffffffffffffffffffffffffffff1673ffffffffffffffffffffffffffffffffffffffff1663251e1e8a6040518163ffffffff1660e01b8152600401602060405180830381865afa1580156118ad573d6000803e3d6000fd5b505050506040513d601f19601f820116820180604052508101906118d19190614557565b73ffffffffffffffffffffffffffffffffffffffff16630261bf8b6040518163ffffffff1660e01b8152600401602060405180830381865afa15801561191b573d6000803e3d6000fd5b505050506040513d601f19601f8201168201806040525081019061193f9190614557565b90506000841315611a8057600b60009054906101000a900473ffffffffffffffffffffffffffffffffffffffff1673ffffffffffffffffffffffffffffffffffffffff16633950935182866040518363ffffffff1660e01b81526004016119a79291906145bc565b6020604051808303816000875af11580156119c6573d6000803e3d6000fd5b505050506040513d601f19601f820116820180604052508101906119ea91906145fa565b508073ffffffffffffffffffffffffffffffffffffffff1663e8eda9df600b60009054906101000a900473ffffffffffffffffffffffffffffffffffffffff16863060006040518563ffffffff1660e01b8152600401611a4d9493929190614b4c565b600060405180830381600087803b158015611a6757600080fd5b505af1158015611a7b573d6000803e3d6000fd5b505050505b6000851315611b22578073ffffffffffffffffffffffffffffffffffffffff1663a415bcad600a60009054906101000a900473ffffffffffffffffffffffffffffffffffffffff1687600d546000306040518663ffffffff1660e01b8152600401611aef959493929190614b91565b600060405180830381600087803b158015611b0957600080fd5b505af1158015611b1d573d6000803e3d6000fd5b505050505b6000851215611df55784611b3590614be4565b600a60009054906101000a900473ffffffffffffffffffffffffffffffffffffffff1673ffffffffffffffffffffffffffffffffffffffff166370a08231306040518263ffffffff1660e01b8152600401611b9091906142fd565b602060405180830381865afa158015611bad573d6000803e3d6000fd5b505050506040513d601f19601f82011682018060405250810190611bd191906143ce565b1015611c12576040517f08c379a0000000000000000000000000000000000000000000000000000000008152600401611c0990614c79565b60405180910390fd5b8273ffffffffffffffffffffffffffffffffffffffff1663095ea7b38287611c3990614be4565b6040518363ffffffff1660e01b8152600401611c569291906145bc565b6020604051808303816000875af1158015611c75573d6000803e3d6000fd5b505050506040513d601f19601f82011682018060405250810190611c9991906145fa565b50600a60009054906101000a900473ffffffffffffffffffffffffffffffffffffffff1673ffffffffffffffffffffffffffffffffffffffff1663095ea7b38287611ce390614be4565b6040518363ffffffff1660e01b8152600401611d009291906145bc565b6020604051808303816000875af1158015611d1f573d6000803e3d6000fd5b505050506040513d601f19601f82011682018060405250810190611d4391906145fa565b508073ffffffffffffffffffffffffffffffffffffffff1663573ade81600a60009054906101000a900473ffffffffffffffffffffffffffffffffffffffff1687611d8d90614be4565b600d54306040518563ffffffff1660e01b8152600401611db09493929190614c99565b6020604051808303816000875af1158015611dcf573d6000803e3d6000fd5b505050506040513d601f19601f82011682018060405250810190611df391906143ce565b505b6000841215611f33578173ffffffffffffffffffffffffffffffffffffffff1663395093518286611e2590614be4565b6040518363ffffffff1660e01b8152600401611e429291906145bc565b6020604051808303816000875af1158015611e61573d6000803e3d6000fd5b505050506040513d601f19601f82011682018060405250810190611e8591906145fa565b508073ffffffffffffffffffffffffffffffffffffffff166369328dec600b60009054906101000a900473ffffffffffffffffffffffffffffffffffffffff1686611ecf90614be4565b306040518463ffffffff1660e01b8152600401611eee93929190614cde565b6020604051808303816000875af1158015611f0d573d6000803e3d6000fd5b505050506040513d601f19601f82011682018060405250810190611f3191906143ce565b505b505050505050565b6000611fdd611f48613075565b848460016000611f56613075565b73ffffffffffffffffffffffffffffffffffffffff1673ffffffffffffffffffffffffffffffffffffffff16815260200190815260200160002060008873ffffffffffffffffffffffffffffffffffffffff1673ffffffffffffffffffffffffffffffffffffffff16815260200190815260200160002054611fd89190614d15565b61311a565b6001905092915050565b7f28d62fc77014de57a1bbaa8212ff0979fa61ab00d377b4b8d9762048fb41996181565b7f28d62fc77014de57a1bbaa8212ff0979fa61ab00d377b4b8d9762048fb41996161203d81612038613075565b61307d565b60008060008073__MarketLibrary_________________________63865c99848a8a600960009054906101000a900473ffffffffffffffffffffffffffffffffffffffff1673ffffffffffffffffffffffffffffffffffffffff16636f307dc36040518163ffffffff1660e01b8152600401602060405180830381865afa1580156120cc573d6000803e3d6000fd5b505050506040513d601f19601f820116820180604052508101906120f09190614557565b600960009054906101000a900473ffffffffffffffffffffffffffffffffffffffff1673ffffffffffffffffffffffffffffffffffffffff1663cb4c86b76040518163ffffffff1660e01b8152600401602060405180830381865afa15801561215d573d6000803e3d6000fd5b505050506040513d601f19601f820116820180604052508101906121819190614557565b6040518563ffffffff1660e01b81526004016121a0949392919061477a565b608060405180830381865af41580156121bd573d6000803e3d6000fd5b505050506040513d601f19601f820116820180604052508101906121e191906147bf565b93509350935093508173ffffffffffffffffffffffffffffffffffffffff1663095ea7b388866040518363ffffffff1660e01b81526004016122249291906145bc565b6020604051808303816000875af1158015612243573d6000803e3d6000fd5b505050506040513d601f19601f8201168201806040525081019061226791906145fa565b506000600267ffffffffffffffff81111561228557612284614d6b565b5b6040519080825280602002602001820160405280156122b35781602001602082028036833780820191505090505b50905082816000815181106122cb576122ca614d9a565b5b602002602001019073ffffffffffffffffffffffffffffffffffffffff16908173ffffffffffffffffffffffffffffffffffffffff1681525050818160018151811061231a57612319614d9a565b5b602002602001019073ffffffffffffffffffffffffffffffffffffffff16908173ffffffffffffffffffffffffffffffffffffffff16815250508773ffffffffffffffffffffffffffffffffffffffff16638803dbee858784308c426123809190614d15565b6040518663ffffffff1660e01b81526004016123a0959493929190614e87565b6000604051808303816000875af11580156123bf573d6000803e3d6000fd5b505050506040513d6000823e3d601f19601f820116820180604052508101906123e89190614ff0565b5050505050505050505050565b7fa49807205ce4d355092ef5a8a18f56e8913cf4a201fbe287825b095693c2177561242781612422613075565b61307d565b81600c60006101000a81548173ffffffffffffffffffffffffffffffffffffffff021916908373ffffffffffffffffffffffffffffffffffffffff1602179055505050565b7fa49807205ce4d355092ef5a8a18f56e8913cf4a201fbe287825b095693c2177561249e81612499613075565b61307d565b60065482106124ac57600080fd5b816007819055505050565b6000600960009054906101000a900473ffffffffffffffffffffffffffffffffffffffff1673ffffffffffffffffffffffffffffffffffffffff16638b83b6b6306040518263ffffffff1660e01b815260040161251491906142fd565b602060405180830381865afa158015612531573d6000803e3d6000fd5b505050506040513d601f19601f8201168201806040525081019061255591906143ce565b905082156126a057612692600960009054906101000a900473ffffffffffffffffffffffffffffffffffffffff1673ffffffffffffffffffffffffffffffffffffffff16634717f5b96040518163ffffffff1660e01b8152600401602060405180830381865afa1580156125cd573d6000803e3d6000fd5b505050506040513d601f19601f820116820180604052508101906125f191906143ce565b600960009054906101000a900473ffffffffffffffffffffffffffffffffffffffff1673ffffffffffffffffffffffffffffffffffffffff1663448ba42f6040518163ffffffff1660e01b8152600401602060405180830381865afa15801561265e573d6000803e3d6000fd5b505050506040513d601f19601f8201168201806040525081019061268291906143ce565b61268c9190614d15565b82613729565b8161269d919061450e565b90505b81156126f05760006126b061117b565b11156126cd576126ca816006546126c561117b565b612f79565b90505b60006126d761117b565b1480156126e45750600081145b156126ef5760065490505b5b92915050565b60008060008373ffffffffffffffffffffffffffffffffffffffff1673ffffffffffffffffffffffffffffffffffffffff168152602001908152602001600020549050919050565b600c60009054906101000a900473ffffffffffffffffffffffffffffffffffffffff1681565b7fa49807205ce4d355092ef5a8a18f56e8913cf4a201fbe287825b095693c2177581565b60075481565b60006005600084815260200190815260200160002060000160008373ffffffffffffffffffffffffffffffffffffffff1673ffffffffffffffffffffffffffffffffffffffff16815260200190815260200160002060009054906101000a900460ff16905092915050565b60606004805461280890614387565b80601f016020809104026020016040519081016040528092919081815260200182805461283490614387565b80156128815780601f1061285657610100808354040283529160200191612881565b820191906000526020600020905b81548152906001019060200180831161286457829003601f168201915b5050505050905090565b6000801b81565b600080600160006128a1613075565b73ffffffffffffffffffffffffffffffffffffffff1673ffffffffffffffffffffffffffffffffffffffff16815260200190815260200160002060008573ffffffffffffffffffffffffffffffffffffffff1673ffffffffffffffffffffffffffffffffffffffff1681526020019081526020016000205490508281101561295e576040517f08c379a0000000000000000000000000000000000000000000000000000000008152600401612955906150ab565b60405180910390fd5b612972612969613075565b8585840361311a565b600191505092915050565b600061299161298a613075565b84846132e5565b6001905092915050565b600d5481565b6000612a5673__MarketLibrary_________________________63f0742a2584600b60009054906101000a900473ffffffffffffffffffffffffffffffffffffffff166040518363ffffffff1660e01b8152600401612a01929190614593565b602060405180830381865af4158015612a1e573d6000803e3d6000fd5b505050506040513d601f19601f82011682018060405250810190612a4291906143ce565b600654612a51600060016124b7565b612f79565b9050600b60009054906101000a900473ffffffffffffffffffffffffffffffffffffffff1673ffffffffffffffffffffffffffffffffffffffff166323b872dd3330856040518463ffffffff1660e01b8152600401612ab7939291906150cb565b6020604051808303816000875af1158015612ad6573d6000803e3d6000fd5b505050506040513d601f19601f82011682018060405250810190612afa91906145fa565b612b0357600080fd5b612b0d3382613742565b7fd0d5ca25112902dbbf5a70a67eed6edc7513b74f2a7ec0805ca216c99f981cc1338383604051612b4093929190615102565b60405180910390a15050565b60085481565b612b5b82611591565b612b6c81612b67613075565b61307d565b612b768383613647565b505050565b600073__MarketLibrary_________________________638170ce80612bae612ba56001806124b7565b85600654612f79565b600b60009054906101000a900473ffffffffffffffffffffffffffffffffffffffff166040518363ffffffff1660e01b8152600401612bee929190614593565b602060405180830381865af4158015612c0b573d6000803e3d6000fd5b505050506040513d601f19601f82011682018060405250810190612c2f91906143ce565b905080600b60009054906101000a900473ffffffffffffffffffffffffffffffffffffffff1673ffffffffffffffffffffffffffffffffffffffff166370a08231306040518263ffffffff1660e01b8152600401612c8d91906142fd565b602060405180830381865afa158015612caa573d6000803e3d6000fd5b505050506040513d601f19601f82011682018060405250810190612cce91906143ce565b11612d0e576040517f08c379a0000000000000000000000000000000000000000000000000000000008152600401612d0590615185565b60405180910390fd5b612d1833836138a2565b600b60009054906101000a900473ffffffffffffffffffffffffffffffffffffffff1673ffffffffffffffffffffffffffffffffffffffff1663a9059cbb33836040518363ffffffff1660e01b8152600401612d759291906145bc565b6020604051808303816000875af1158015612d94573d6000803e3d6000fd5b505050506040513d601f19601f82011682018060405250810190612db891906145fa565b612dc157600080fd5b7f3a9e5b3b520d77dc26bf05104c863b6b654d4b96fa8031a783ad0dbd905cdf39338383604051612df493929190615102565b60405180910390a15050565b6000600160008473ffffffffffffffffffffffffffffffffffffffff1673ffffffffffffffffffffffffffffffffffffffff16815260200190815260200160002060008373ffffffffffffffffffffffffffffffffffffffff1673ffffffffffffffffffffffffffffffffffffffff16815260200190815260200160002054905092915050565b7fa49807205ce4d355092ef5a8a18f56e8913cf4a201fbe287825b095693c21775612eb981612eb4613075565b61307d565b81600e819055505050565b7fa49807205ce4d355092ef5a8a18f56e8913cf4a201fbe287825b095693c21775612ef681612ef1613075565b61307d565b6006548210612f0457600080fd5b816008819055505050565b60007f01ffc9a7000000000000000000000000000000000000000000000000000000007bffffffffffffffffffffffffffffffffffffffffffffffffffffffff1916827bffffffffffffffffffffffffffffffffffffffffffffffffffffffff1916149050919050565b600080600080198587098587029250828110838203039150506000811415612fb45760008411612fa857600080fd5b8382049250505061306e565b808411612fc057600080fd5b60008486880990508281118203915080830392506000856001877fffffffffffffffffffffffffffffffffffffffffffffffffffffffffffffffff0301169050808604955080840493506001818260000304019050808302841793506000600287600302189050808702600203810290508087026002038102905080870260020381029050808702600203810290508087026002038102905080870260020381029050808502955050505050505b9392505050565b600033905090565b613087828261278e565b613116576130ac8173ffffffffffffffffffffffffffffffffffffffff166014613a79565b6130ba8360001c6020613a79565b6040516020016130cb929190615279565b6040516020818303038152906040526040517f08c379a000000000000000000000000000000000000000000000000000000000815260040161310d9190613e27565b60405180910390fd5b5050565b600073ffffffffffffffffffffffffffffffffffffffff168373ffffffffffffffffffffffffffffffffffffffff16141561318a576040517f08c379a000000000000000000000000000000000000000000000000000000000815260040161318190615325565b60405180910390fd5b600073ffffffffffffffffffffffffffffffffffffffff168273ffffffffffffffffffffffffffffffffffffffff1614156131fa576040517f08c379a00000000000000000000000000000000000000000000000000000000081526004016131f1906153b7565b60405180910390fd5b80600160008573ffffffffffffffffffffffffffffffffffffffff1673ffffffffffffffffffffffffffffffffffffffff16815260200190815260200160002060008473ffffffffffffffffffffffffffffffffffffffff1673ffffffffffffffffffffffffffffffffffffffff168152602001908152602001600020819055508173ffffffffffffffffffffffffffffffffffffffff168373ffffffffffffffffffffffffffffffffffffffff167f8c5be1e5ebec7d5bd14f71427d1e84f3dd0314c0f7b2291e5b200ac8c7c3b925836040516132d89190613f86565b60405180910390a3505050565b600073ffffffffffffffffffffffffffffffffffffffff168373ffffffffffffffffffffffffffffffffffffffff161415613355576040517f08c379a000000000000000000000000000000000000000000000000000000000815260040161334c90615449565b60405180910390fd5b600073ffffffffffffffffffffffffffffffffffffffff168273ffffffffffffffffffffffffffffffffffffffff1614156133c5576040517f08c379a00000000000000000000000000000000000000000000000000000000081526004016133bc906154db565b60405180910390fd5b6133d0838383613cb5565b60008060008573ffffffffffffffffffffffffffffffffffffffff1673ffffffffffffffffffffffffffffffffffffffff16815260200190815260200160002054905081811015613456576040517f08c379a000000000000000000000000000000000000000000000000000000000815260040161344d9061556d565b60405180910390fd5b8181036000808673ffffffffffffffffffffffffffffffffffffffff1673ffffffffffffffffffffffffffffffffffffffff16815260200190815260200160002081905550816000808573ffffffffffffffffffffffffffffffffffffffff1673ffffffffffffffffffffffffffffffffffffffff16815260200190815260200160002060008282546134e99190614d15565b925050819055508273ffffffffffffffffffffffffffffffffffffffff168473ffffffffffffffffffffffffffffffffffffffff167fddf252ad1be2c89b69c2b068fc378daa952ba7f163c4a11628f55a4df523b3ef8460405161354d9190613f86565b60405180910390a3613560848484613cba565b50505050565b613570828261278e565b6136435760016005600084815260200190815260200160002060000160008373ffffffffffffffffffffffffffffffffffffffff1673ffffffffffffffffffffffffffffffffffffffff16815260200190815260200160002060006101000a81548160ff0219169083151502179055506135e8613075565b73ffffffffffffffffffffffffffffffffffffffff168173ffffffffffffffffffffffffffffffffffffffff16837f2f8788117e7eff1d82e926ec794901d17c78024a50270940304540a733656f0d60405160405180910390a45b5050565b613651828261278e565b156137255760006005600084815260200190815260200160002060000160008373ffffffffffffffffffffffffffffffffffffffff1673ffffffffffffffffffffffffffffffffffffffff16815260200190815260200160002060006101000a81548160ff0219169083151502179055506136ca613075565b73ffffffffffffffffffffffffffffffffffffffff168173ffffffffffffffffffffffffffffffffffffffff16837ff6391f5c32d9c69d2a47ea670b442974b53935d1edc7fd64eb21e047a839171b60405160405180910390a45b5050565b6000818310613738578161373a565b825b905092915050565b600073ffffffffffffffffffffffffffffffffffffffff168273ffffffffffffffffffffffffffffffffffffffff1614156137b2576040517f08c379a00000000000000000000000000000000000000000000000000000000081526004016137a9906155d9565b60405180910390fd5b6137be60008383613cb5565b80600260008282546137d09190614d15565b92505081905550806000808473ffffffffffffffffffffffffffffffffffffffff1673ffffffffffffffffffffffffffffffffffffffff16815260200190815260200160002060008282546138259190614d15565b925050819055508173ffffffffffffffffffffffffffffffffffffffff16600073ffffffffffffffffffffffffffffffffffffffff167fddf252ad1be2c89b69c2b068fc378daa952ba7f163c4a11628f55a4df523b3ef8360405161388a9190613f86565b60405180910390a361389e60008383613cba565b5050565b600073ffffffffffffffffffffffffffffffffffffffff168273ffffffffffffffffffffffffffffffffffffffff161415613912576040517f08c379a00000000000000000000000000000000000000000000000000000000081526004016139099061566b565b60405180910390fd5b61391e82600083613cb5565b60008060008473ffffffffffffffffffffffffffffffffffffffff1673ffffffffffffffffffffffffffffffffffffffff168152602001908152602001600020549050818110156139a4576040517f08c379a000000000000000000000000000000000000000000000000000000000815260040161399b906156fd565b60405180910390fd5b8181036000808573ffffffffffffffffffffffffffffffffffffffff1673ffffffffffffffffffffffffffffffffffffffff1681526020019081526020016000208190555081600260008282546139fb919061450e565b92505081905550600073ffffffffffffffffffffffffffffffffffffffff168373ffffffffffffffffffffffffffffffffffffffff167fddf252ad1be2c89b69c2b068fc378daa952ba7f163c4a11628f55a4df523b3ef84604051613a609190613f86565b60405180910390a3613a7483600084613cba565b505050565b606060006002836002613a8c919061571d565b613a969190614d15565b67ffffffffffffffff811115613aaf57613aae614d6b565b5b6040519080825280601f01601f191660200182016040528015613ae15781602001600182028036833780820191505090505b5090507f300000000000000000000000000000000000000000000000000000000000000081600081518110613b1957613b18614d9a565b5b60200101907effffffffffffffffffffffffffffffffffffffffffffffffffffffffffffff1916908160001a9053507f780000000000000000000000000000000000000000000000000000000000000081600181518110613b7d57613b7c614d9a565b5b60200101907effffffffffffffffffffffffffffffffffffffffffffffffffffffffffffff1916908160001a90535060006001846002613bbd919061571d565b613bc79190614d15565b90505b6001811115613c67577f3031323334353637383961626364656600000000000000000000000000000000600f861660108110613c0957613c08614d9a565b5b1a60f81b828281518110613c2057613c1f614d9a565b5b60200101907effffffffffffffffffffffffffffffffffffffffffffffffffffffffffffff1916908160001a905350600485901c945080613c6090615777565b9050613bca565b5060008414613cab576040517f08c379a0000000000000000000000000000000000000000000000000000000008152600401613ca2906157ed565b60405180910390fd5b8091505092915050565b505050565b505050565b6000604051905090565b600080fd5b600080fd5b60007fffffffff0000000000000000000000000000000000000000000000000000000082169050919050565b613d0881613cd3565b8114613d1357600080fd5b50565b600081359050613d2581613cff565b92915050565b600060208284031215613d4157613d40613cc9565b5b6000613d4f84828501613d16565b91505092915050565b60008115159050919050565b613d6d81613d58565b82525050565b6000602082019050613d886000830184613d64565b92915050565b600081519050919050565b600082825260208201905092915050565b60005b83811015613dc8578082015181840152602081019050613dad565b83811115613dd7576000848401525b50505050565b6000601f19601f8301169050919050565b6000613df982613d8e565b613e038185613d99565b9350613e13818560208601613daa565b613e1c81613ddd565b840191505092915050565b60006020820190508181036000830152613e418184613dee565b905092915050565b600073ffffffffffffffffffffffffffffffffffffffff82169050919050565b6000613e7482613e49565b9050919050565b613e8481613e69565b8114613e8f57600080fd5b50565b600081359050613ea181613e7b565b92915050565b600060208284031215613ebd57613ebc613cc9565b5b6000613ecb84828501613e92565b91505092915050565b6000819050919050565b613ee781613ed4565b8114613ef257600080fd5b50565b600081359050613f0481613ede565b92915050565b600060208284031215613f2057613f1f613cc9565b5b6000613f2e84828501613ef5565b91505092915050565b60008060408385031215613f4e57613f4d613cc9565b5b6000613f5c85828601613e92565b9250506020613f6d85828601613ef5565b9150509250929050565b613f8081613ed4565b82525050565b6000602082019050613f9b6000830184613f77565b92915050565b6000819050919050565b613fb481613fa1565b8114613fbf57600080fd5b50565b600081359050613fd181613fab565b92915050565b600080fd5b600080fd5b600080fd5b60008083601f840112613ffc57613ffb613fd7565b5b8235905067ffffffffffffffff81111561401957614018613fdc565b5b60208301915083600182028301111561403557614034613fe1565b5b9250929050565b60008060008060006080868803121561405857614057613cc9565b5b600061406688828901613fc2565b955050602061407788828901613fc2565b945050604061408888828901613e92565b935050606086013567ffffffffffffffff8111156140a9576140a8613cce565b5b6140b588828901613fe6565b92509250509295509295909350565b6000806000606084860312156140dd576140dc613cc9565b5b60006140eb86828701613e92565b93505060206140fc86828701613e92565b925050604061410d86828701613ef5565b9150509250925092565b6000819050919050565b61412a81614117565b811461413557600080fd5b50565b60008135905061414781614121565b92915050565b60006020828403121561416357614162613cc9565b5b600061417184828501614138565b91505092915050565b61418381614117565b82525050565b600060208201905061419e600083018461417a565b92915050565b600080604083850312156141bb576141ba613cc9565b5b60006141c985828601614138565b92505060206141da85828601613e92565b9150509250929050565b600060ff82169050919050565b6141fa816141e4565b82525050565b600060208201905061421560008301846141f1565b92915050565b6000806000806080858703121561423557614234613cc9565b5b600061424387828801613fc2565b945050602061425487828801613fc2565b935050604061426587828801613e92565b925050606061427687828801613ef5565b91505092959194509250565b61428b81613d58565b811461429657600080fd5b50565b6000813590506142a881614282565b92915050565b600080604083850312156142c5576142c4613cc9565b5b60006142d385828601614299565b92505060206142e485828601614299565b9150509250929050565b6142f781613e69565b82525050565b600060208201905061431260008301846142ee565b92915050565b6000806040838503121561432f5761432e613cc9565b5b600061433d85828601613e92565b925050602061434e85828601613e92565b9150509250929050565b7f4e487b7100000000000000000000000000000000000000000000000000000000600052602260045260246000fd5b6000600282049050600182168061439f57607f821691505b602082108114156143b3576143b2614358565b5b50919050565b6000815190506143c881613ede565b92915050565b6000602082840312156143e4576143e3613cc9565b5b60006143f2848285016143b9565b91505092915050565b6000806040838503121561441257614411613cc9565b5b6000614420858286016143b9565b9250506020614431858286016143b9565b9150509250929050565b61444481613e69565b82525050565b600060408201905061445f600083018561443b565b61446c602083018461443b565b9392505050565b7f42616c616e636520696e73756666696369656e742e0000000000000000000000600082015250565b60006144a9601583613d99565b91506144b482614473565b602082019050919050565b600060208201905081810360008301526144d88161449c565b9050919050565b7f4e487b7100000000000000000000000000000000000000000000000000000000600052601160045260246000fd5b600061451982613ed4565b915061452483613ed4565b925082821015614537576145366144df565b5b828203905092915050565b60008151905061455181613e7b565b92915050565b60006020828403121561456d5761456c613cc9565b5b600061457b84828501614542565b91505092915050565b61458d81613ed4565b82525050565b60006040820190506145a86000830185614584565b6145b5602083018461443b565b9392505050565b60006040820190506145d160008301856142ee565b6145de6020830184613f77565b9392505050565b6000815190506145f481614282565b92915050565b6000602082840312156146105761460f613cc9565b5b600061461e848285016145e5565b91505092915050565b7f4661696c6564207061796d656e7420746f20686f6c6465720000000000000000600082015250565b600061465d601883613d99565b915061466882614627565b602082019050919050565b6000602082019050818103600083015261468c81614650565b9050919050565b7f4661696c6564207061796d656e7420746f206d61696e74656e616e6365000000600082015250565b60006146c9601d83613d99565b91506146d482614693565b602082019050919050565b600060208201905081810360008301526146f8816146bc565b9050919050565b7f4661696c6564207061796d656e7420746f206578657263697365722e00000000600082015250565b6000614735601c83613d99565b9150614740826146ff565b602082019050919050565b6000602082019050818103600083015261476481614728565b9050919050565b61477481613fa1565b82525050565b600060808201905061478f600083018761476b565b61479c602083018661476b565b6147a9604083018561443b565b6147b6606083018461443b565b95945050505050565b600080600080608085870312156147d9576147d8613cc9565b5b60006147e7878288016143b9565b94505060206147f8878288016143b9565b935050604061480987828801614542565b925050606061481a87828801614542565b91505092959194509250565b600081905092915050565b82818337600083830152505050565b600061484c8385614826565b9350614859838584614831565b82840190509392505050565b6000614872828486614840565b91508190509392505050565b600081519050919050565b600082825260208201905092915050565b60006148a58261487e565b6148af8185614889565b93506148bf818560208601613daa565b6148c881613ddd565b840191505092915050565b60006040820190506148e86000830185613d64565b81810360208301526148fa818461489a565b90509392505050565b7f45524332303a207472616e7366657220616d6f756e742065786365656473206160008201527f6c6c6f77616e6365000000000000000000000000000000000000000000000000602082015250565b600061495f602883613d99565b915061496a82614903565b604082019050919050565b6000602082019050818103600083015261498e81614952565b9050919050565b7f416363657373436f6e74726f6c3a2063616e206f6e6c792072656e6f756e636560008201527f20726f6c657320666f722073656c660000000000000000000000000000000000602082015250565b60006149f1602f83613d99565b91506149fc82614995565b604082019050919050565b60006020820190508181036000830152614a20816149e4565b9050919050565b600081519050614a3681613fab565b92915050565b60008060008060808587031215614a5657614a55613cc9565b5b6000614a6487828801614a27565b9450506020614a7587828801614a27565b9350506040614a8687828801614542565b9250506060614a9787828801614542565b91505092959194509250565b6000604082019050614ab8600083018561476b565b614ac5602083018461443b565b9392505050565b600060208284031215614ae257614ae1613cc9565b5b6000614af084828501614a27565b91505092915050565b6000819050919050565b600061ffff82169050919050565b6000819050919050565b6000614b36614b31614b2c84614af9565b614b11565b614b03565b9050919050565b614b4681614b1b565b82525050565b6000608082019050614b6160008301876142ee565b614b6e6020830186613f77565b614b7b60408301856142ee565b614b886060830184614b3d565b95945050505050565b600060a082019050614ba660008301886142ee565b614bb36020830187613f77565b614bc06040830186613f77565b614bcd6060830185614b3d565b614bda60808301846142ee565b9695505050505050565b6000614bef82613fa1565b91507f8000000000000000000000000000000000000000000000000000000000000000821415614c2257614c216144df565b5b816000039050919050565b7f6e6f7420656e6f75676820746f6b656e20746f207265706179206c6f616e7300600082015250565b6000614c63601f83613d99565b9150614c6e82614c2d565b602082019050919050565b60006020820190508181036000830152614c9281614c56565b9050919050565b6000608082019050614cae60008301876142ee565b614cbb6020830186613f77565b614cc86040830185613f77565b614cd560608301846142ee565b95945050505050565b6000606082019050614cf360008301866142ee565b614d006020830185613f77565b614d0d60408301846142ee565b949350505050565b6000614d2082613ed4565b9150614d2b83613ed4565b9250827fffffffffffffffffffffffffffffffffffffffffffffffffffffffffffffffff03821115614d6057614d5f6144df565b5b828201905092915050565b7f4e487b7100000000000000000000000000000000000000000000000000000000600052604160045260246000fd5b7f4e487b7100000000000000000000000000000000000000000000000000000000600052603260045260246000fd5b600081519050919050565b600082825260208201905092915050565b6000819050602082019050919050565b614dfe81613e69565b82525050565b6000614e108383614df5565b60208301905092915050565b6000602082019050919050565b6000614e3482614dc9565b614e3e8185614dd4565b9350614e4983614de5565b8060005b83811015614e7a578151614e618882614e04565b9750614e6c83614e1c565b925050600181019050614e4d565b5085935050505092915050565b600060a082019050614e9c6000830188613f77565b614ea96020830187613f77565b8181036040830152614ebb8186614e29565b9050614eca60608301856142ee565b614ed76080830184613f77565b9695505050505050565b614eea82613ddd565b810181811067ffffffffffffffff82111715614f0957614f08614d6b565b5b80604052505050565b6000614f1c613cbf565b9050614f288282614ee1565b919050565b600067ffffffffffffffff821115614f4857614f47614d6b565b5b602082029050602081019050919050565b6000614f6c614f6784614f2d565b614f12565b90508083825260208201905060208402830185811115614f8f57614f8e613fe1565b5b835b81811015614fb85780614fa488826143b9565b845260208401935050602081019050614f91565b5050509392505050565b600082601f830112614fd757614fd6613fd7565b5b8151614fe7848260208601614f59565b91505092915050565b60006020828403121561500657615005613cc9565b5b600082015167ffffffffffffffff81111561502457615023613cce565b5b61503084828501614fc2565b91505092915050565b7f45524332303a2064656372656173656420616c6c6f77616e63652062656c6f7760008201527f207a65726f000000000000000000000000000000000000000000000000000000602082015250565b6000615095602583613d99565b91506150a082615039565b604082019050919050565b600060208201905081810360008301526150c481615088565b9050919050565b60006060820190506150e060008301866142ee565b6150ed60208301856142ee565b6150fa6040830184613f77565b949350505050565b600060608201905061511760008301866142ee565b6151246020830185613f77565b6151316040830184613f77565b949350505050565b7f496e73756666696369656e742062616c616e6365000000000000000000000000600082015250565b600061516f601483613d99565b915061517a82615139565b602082019050919050565b6000602082019050818103600083015261519e81615162565b9050919050565b600081905092915050565b7f416363657373436f6e74726f6c3a206163636f756e7420000000000000000000600082015250565b60006151e66017836151a5565b91506151f1826151b0565b601782019050919050565b600061520782613d8e565b61521181856151a5565b9350615221818560208601613daa565b80840191505092915050565b7f206973206d697373696e6720726f6c6520000000000000000000000000000000600082015250565b60006152636011836151a5565b915061526e8261522d565b601182019050919050565b6000615284826151d9565b915061529082856151fc565b915061529b82615256565b91506152a782846151fc565b91508190509392505050565b7f45524332303a20617070726f76652066726f6d20746865207a65726f2061646460008201527f7265737300000000000000000000000000000000000000000000000000000000602082015250565b600061530f602483613d99565b915061531a826152b3565b604082019050919050565b6000602082019050818103600083015261533e81615302565b9050919050565b7f45524332303a20617070726f766520746f20746865207a65726f20616464726560008201527f7373000000000000000000000000000000000000000000000000000000000000602082015250565b60006153a1602283613d99565b91506153ac82615345565b604082019050919050565b600060208201905081810360008301526153d081615394565b9050919050565b7f45524332303a207472616e736665722066726f6d20746865207a65726f20616460008201527f6472657373000000000000000000000000000000000000000000000000000000602082015250565b6000615433602583613d99565b915061543e826153d7565b604082019050919050565b6000602082019050818103600083015261546281615426565b9050919050565b7f45524332303a207472616e7366657220746f20746865207a65726f206164647260008201527f6573730000000000000000000000000000000000000000000000000000000000602082015250565b60006154c5602383613d99565b91506154d082615469565b604082019050919050565b600060208201905081810360008301526154f4816154b8565b9050919050565b7f45524332303a207472616e7366657220616d6f756e742065786365656473206260008201527f616c616e63650000000000000000000000000000000000000000000000000000602082015250565b6000615557602683613d99565b9150615562826154fb565b604082019050919050565b600060208201905081810360008301526155868161554a565b9050919050565b7f45524332303a206d696e7420746f20746865207a65726f206164647265737300600082015250565b60006155c3601f83613d99565b91506155ce8261558d565b602082019050919050565b600060208201905081810360008301526155f2816155b6565b9050919050565b7f45524332303a206275726e2066726f6d20746865207a65726f2061646472657360008201527f7300000000000000000000000000000000000000000000000000000000000000602082015250565b6000615655602183613d99565b9150615660826155f9565b604082019050919050565b6000602082019050818103600083015261568481615648565b9050919050565b7f45524332303a206275726e20616d6f756e7420657863656564732062616c616e60008201527f6365000000000000000000000000000000000000000000000000000000000000602082015250565b60006156e7602283613d99565b91506156f28261568b565b604082019050919050565b60006020820190508181036000830152615716816156da565b9050919050565b600061572882613ed4565b915061573383613ed4565b9250817fffffffffffffffffffffffffffffffffffffffffffffffffffffffffffffffff048311821515161561576c5761576b6144df565b5b828202905092915050565b600061578282613ed4565b91506000821415615796576157956144df565b5b600182039050919050565b7f537472696e67733a20686578206c656e67746820696e73756666696369656e74600082015250565b60006157d7602083613d99565b91506157e2826157a1565b602082019050919050565b60006020820190508181036000830152615806816157ca565b905091905056fea2646970667358221220103904a60853708a9346dc1821985b35f518e0db5f97d94d6fa4c3c6f623ee0364736f6c634300080a0033",
  "immutableReferences": {},
  "source": "// SPDX-License-Identifier: MIT\npragma solidity 0.8.10;\n\nimport \"@openzeppelin/contracts/access/AccessControl.sol\";\nimport \"@openzeppelin/contracts/utils/structs/EnumerableSet.sol\";\nimport \"./MarketLibrary.sol\";\nimport \"./OptionVault.sol\";\n\ncontract MoretMarketMaker is ERC20, AccessControl, EOption\n{\n  bytes32 public constant ADMIN_ROLE = keccak256(\"ADMIN_ROLE\");\n  bytes32 public constant EXCHANGE_ROLE = keccak256(\"EXCHANGE_ROLE\");\n\n  uint256 private multiplier;\n  uint256 public settlementFee= 5 * (10 ** 15);\n  uint256 public exerciseFee= 5 * (10 ** 15);\n  OptionVault internal optionVault;\n\n  address internal underlying;\n  address internal funding;\n  address public maintenanceAddress;\n  uint256 public lendingPoolRateMode = 2;\n  uint256 public swapSlippage = 5 * (10 ** 14);\n  \n  constructor(string memory _name, string memory _symbol, address _optionAddress) ERC20(_name, _symbol){\n    _setupRole(DEFAULT_ADMIN_ROLE, msg.sender);\n    _setupRole(ADMIN_ROLE, msg.sender);\n    _setupRole(EXCHANGE_ROLE, msg.sender);\n    maintenanceAddress = msg.sender;\n    optionVault = OptionVault(_optionAddress);\n    multiplier = OptionLibrary.Multiplier();\n    underlying = optionVault.underlying();\n    funding = optionVault.funding();\n    _mint(msg.sender, multiplier);}\n\n  function expireOptions(address exerciseFeeRecipient) external {\n    uint256 _expiringId = optionVault.getExpiringOptionId();\n    while(_expiringId >0) {\n      optionVault.stampExpiredOption(_expiringId);\n      \n      ( uint256 _payoff, uint256 _payback) = optionVault.getContractPayoff(_expiringId);\n      require(_payback < MarketLibrary.balanceDef(funding, address(this)), \"Balance insufficient.\");\n      if(_payback > 0){\n        uint256 _holderPayment = _payoff == _payback? MulDiv(_payback, multiplier - settlementFee - exerciseFee, multiplier): _payback;\n        uint256 _settleFeeAmount = MulDiv(_payoff, settlementFee, multiplier);\n        uint256 _exerciseFeeAmount = MulDiv(_payoff, exerciseFee, multiplier);\n\n        require(IERC20(funding).transfer(optionVault.getOptionHolder(_expiringId), MarketLibrary.cvtDecimals(_holderPayment, funding)), \"Failed payment to holder\");\n        require(IERC20(funding).transfer(maintenanceAddress, MarketLibrary.cvtDecimals(_settleFeeAmount, funding)), \"Failed payment to maintenance\");\n        require(IERC20(funding).transfer(exerciseFeeRecipient, MarketLibrary.cvtDecimals(_exerciseFeeAmount, funding)), \"Failed payment to exerciser.\");}\n      \n      _expiringId = optionVault.getExpiringOptionId();}}\n\n  function calcCapital(bool _net, bool _average) public view returns(uint256 _capital){\n    _capital = optionVault.getGrossCapital(address(this));\n    if(_net){ _capital -= Math.min(optionVault.getMaxHedge() + optionVault.getSellPutCollateral(), _capital);}\n    if(_average){ \n      if(totalSupply() > 0) _capital = MulDiv(_capital , multiplier , totalSupply()); \n      if(totalSupply() == 0 && _capital == 0) _capital = multiplier;}}\n    \n  function addCapital(uint256 _depositAmount) external {\n      uint256 _mintMPTokenAmount = MulDiv(MarketLibrary.cvtDef(_depositAmount, funding), multiplier, calcCapital(false, true));\n      require(ERC20(funding).transferFrom(msg.sender, address(this), _depositAmount));\n      _mint(msg.sender, _mintMPTokenAmount);\n      emit capitalAdded(msg.sender, _depositAmount, _mintMPTokenAmount);}\n\n  function withdrawCapital(uint256 _burnMPTokenAmount) external {\n      uint256 _withdrawValue = MarketLibrary.cvtDecimals(MulDiv(calcCapital(true, true),  _burnMPTokenAmount , multiplier), funding); \n      require(IERC20(funding).balanceOf(address(this)) > _withdrawValue,\"Insufficient balance\");\n      _burn(msg.sender, _burnMPTokenAmount);\n      require(ERC20(funding).transfer(msg.sender, _withdrawValue));\n      emit capitalWithdrawn(msg.sender, _burnMPTokenAmount, _withdrawValue);}\n\n  function tradeSwapAggregate(int256 _underlyingAmt, int256 _fundingAmt, address _spender, bytes calldata _calldata) external onlyRole(EXCHANGE_ROLE){\n    (uint256 _fromAmt, , address _fromAddress, ) = MarketLibrary.cleanTradeAmounts(_underlyingAmt, _fundingAmt, optionVault.underlying(), optionVault.funding());\n    ERC20(_fromAddress).approve(_spender, _fromAmt);\n    (bool success, bytes memory data) = _spender.call(_calldata);\n    emit Response(success, data);}\n\n  function tradeSwaps(int256 _underlyingAmt, int256 _fundingAmt, address _router, uint256 _deadline) external onlyRole(EXCHANGE_ROLE) {\n    (uint256 _fromAmt, uint256 _toAmt, address _fromAddress, address _toAddress) = MarketLibrary.cleanTradeAmounts(_underlyingAmt, _fundingAmt, optionVault.underlying(), optionVault.funding());\n    ERC20(_fromAddress).approve(_router, _fromAmt);\n    address[] memory _path = new address[](2);\n    _path[0]=_fromAddress;\n    _path[1] = _toAddress;\n    IUniswapV2Router02(_router).swapTokensForExactTokens(_toAmt, _fromAmt, _path, address(this), block.timestamp + _deadline );}\n\n  function hedgeTradesForLoans() external onlyRole(EXCHANGE_ROLE) {\n    (int256 _loanTradeAmount, int256 _collateralChange, address _loanAddress, address _collateralAddress) = optionVault.calcLoanTrades(address(this), lendingPoolRateMode);\n    _loanTradeAmount = MarketLibrary.cvtDecimalsInt(_loanTradeAmount, _loanAddress);\n    _collateralChange = MarketLibrary.cvtDecimalsInt(_collateralChange, _collateralAddress);\n    address _lendingPoolAddress = ILendingPoolAddressesProvider(optionVault.aaveAddress()).getLendingPool();\n\n    if(_collateralChange > 0){\n      ERC20(funding).increaseAllowance(_lendingPoolAddress, uint256(_collateralChange));\n      ILendingPool(_lendingPoolAddress).deposit(funding, uint256(_collateralChange), address(this), 0);}\n    \n    if(_loanTradeAmount > 0){\n      ILendingPool(_lendingPoolAddress).borrow(underlying, uint256(_loanTradeAmount), lendingPoolRateMode,  0, address(this));}\n\n    if(_loanTradeAmount < 0){\n      require(ERC20(underlying).balanceOf(address(this))>= uint256(-_loanTradeAmount), \"not enough token to repay loans\");\n      ERC20(_loanAddress).approve(_lendingPoolAddress, uint256(-_loanTradeAmount));\n      ERC20(underlying).approve(_lendingPoolAddress, uint256(-_loanTradeAmount));\n      ILendingPool(_lendingPoolAddress).repay(underlying, uint256(-_loanTradeAmount), lendingPoolRateMode, address(this));}\n\n    if(_collateralChange < 0){\n      ERC20(_collateralAddress).increaseAllowance(_lendingPoolAddress, uint256(-_collateralChange));\n      ILendingPool(_lendingPoolAddress).withdraw(funding, uint256(-_collateralChange), address(this));}}\n\n  function resetSettlementFee(uint256 _newFee) external onlyRole(ADMIN_ROLE){ require(_newFee < multiplier); settlementFee = _newFee;}\n  function resetExerciseFee(uint256 _newFee) external onlyRole(ADMIN_ROLE){ require(_newFee < multiplier); exerciseFee = _newFee;}\n  function resetMaintenance(address _newAddress) external onlyRole(ADMIN_ROLE){ maintenanceAddress = _newAddress;}\n  function resetSlippage(uint256 _slippage) external onlyRole(ADMIN_ROLE){ swapSlippage = _slippage;}\n  function resetLendingPoolRateMode(uint256 _newRateMode) external onlyRole(ADMIN_ROLE) {\n    require(_newRateMode == 1 || _newRateMode == 2);\n    lendingPoolRateMode = _newRateMode;}\n}\n",
  "sourcePath": "/Users/apple/Documents/GitHub/moret/contracts/MoretMarketMaker.sol",
  "compiler": {
    "name": "solc",
    "version": "0.8.10+commit.fc410830.Emscripten.clang"
  },
  "schemaVersion": "3.4.3",
  "updatedAt": "2021-12-02T21:24:46.801Z",
  "devdoc": {
    "kind": "dev",
    "methods": {
      "allowance(address,address)": {
        "details": "See {IERC20-allowance}."
      },
      "approve(address,uint256)": {
        "details": "See {IERC20-approve}. Requirements: - `spender` cannot be the zero address."
      },
      "balanceOf(address)": {
        "details": "See {IERC20-balanceOf}."
      },
      "decimals()": {
        "details": "Returns the number of decimals used to get its user representation. For example, if `decimals` equals `2`, a balance of `505` tokens should be displayed to a user as `5.05` (`505 / 10 ** 2`). Tokens usually opt for a value of 18, imitating the relationship between Ether and Wei. This is the value {ERC20} uses, unless this function is overridden; NOTE: This information is only used for _display_ purposes: it in no way affects any of the arithmetic of the contract, including {IERC20-balanceOf} and {IERC20-transfer}."
      },
      "decreaseAllowance(address,uint256)": {
        "details": "Atomically decreases the allowance granted to `spender` by the caller. This is an alternative to {approve} that can be used as a mitigation for problems described in {IERC20-approve}. Emits an {Approval} event indicating the updated allowance. Requirements: - `spender` cannot be the zero address. - `spender` must have allowance for the caller of at least `subtractedValue`."
      },
      "getRoleAdmin(bytes32)": {
        "details": "Returns the admin role that controls `role`. See {grantRole} and {revokeRole}. To change a role's admin, use {_setRoleAdmin}."
      },
      "grantRole(bytes32,address)": {
        "details": "Grants `role` to `account`. If `account` had not been already granted `role`, emits a {RoleGranted} event. Requirements: - the caller must have ``role``'s admin role."
      },
      "hasRole(bytes32,address)": {
        "details": "Returns `true` if `account` has been granted `role`."
      },
      "increaseAllowance(address,uint256)": {
        "details": "Atomically increases the allowance granted to `spender` by the caller. This is an alternative to {approve} that can be used as a mitigation for problems described in {IERC20-approve}. Emits an {Approval} event indicating the updated allowance. Requirements: - `spender` cannot be the zero address."
      },
      "name()": {
        "details": "Returns the name of the token."
      },
      "renounceRole(bytes32,address)": {
        "details": "Revokes `role` from the calling account. Roles are often managed via {grantRole} and {revokeRole}: this function's purpose is to provide a mechanism for accounts to lose their privileges if they are compromised (such as when a trusted device is misplaced). If the calling account had been revoked `role`, emits a {RoleRevoked} event. Requirements: - the caller must be `account`."
      },
      "revokeRole(bytes32,address)": {
        "details": "Revokes `role` from `account`. If `account` had been granted `role`, emits a {RoleRevoked} event. Requirements: - the caller must have ``role``'s admin role."
      },
      "supportsInterface(bytes4)": {
        "details": "See {IERC165-supportsInterface}."
      },
      "symbol()": {
        "details": "Returns the symbol of the token, usually a shorter version of the name."
      },
      "totalSupply()": {
        "details": "See {IERC20-totalSupply}."
      },
      "transfer(address,uint256)": {
        "details": "See {IERC20-transfer}. Requirements: - `recipient` cannot be the zero address. - the caller must have a balance of at least `amount`."
      },
      "transferFrom(address,address,uint256)": {
        "details": "See {IERC20-transferFrom}. Emits an {Approval} event indicating the updated allowance. This is not required by the EIP. See the note at the beginning of {ERC20}. Requirements: - `sender` and `recipient` cannot be the zero address. - `sender` must have a balance of at least `amount`. - the caller must have allowance for ``sender``'s tokens of at least `amount`."
      }
    },
    "version": 1
  },
  "userdoc": {
    "kind": "user",
    "methods": {},
    "version": 1
  }
}