{
  "contractName": "MoretMarketMaker",
  "abi": [
    {
      "inputs": [
        {
          "internalType": "string",
          "name": "_name",
          "type": "string"
        },
        {
          "internalType": "string",
          "name": "_symbol",
          "type": "string"
        },
        {
          "internalType": "address",
          "name": "_underlyingAddress",
          "type": "address"
        },
        {
          "internalType": "address",
          "name": "_fundingAddress",
          "type": "address"
        },
        {
          "internalType": "address",
          "name": "_optionAddress",
          "type": "address"
        },
        {
          "internalType": "address",
          "name": "_swapRouterAddress",
          "type": "address"
        },
        {
          "internalType": "address",
          "name": "_lendingPoolAddressProvider",
          "type": "address"
        },
        {
          "internalType": "address",
          "name": "_protocolDataProviderAddress",
          "type": "address"
        }
      ],
      "stateMutability": "nonpayable",
      "type": "constructor"
    },
    {
      "anonymous": false,
      "inputs": [
        {
          "indexed": true,
          "internalType": "address",
          "name": "owner",
          "type": "address"
        },
        {
          "indexed": true,
          "internalType": "address",
          "name": "spender",
          "type": "address"
        },
        {
          "indexed": false,
          "internalType": "uint256",
          "name": "value",
          "type": "uint256"
        }
      ],
      "name": "Approval",
      "type": "event"
    },
    {
      "anonymous": false,
      "inputs": [
        {
          "indexed": true,
          "internalType": "bytes32",
          "name": "role",
          "type": "bytes32"
        },
        {
          "indexed": true,
          "internalType": "bytes32",
          "name": "previousAdminRole",
          "type": "bytes32"
        },
        {
          "indexed": true,
          "internalType": "bytes32",
          "name": "newAdminRole",
          "type": "bytes32"
        }
      ],
      "name": "RoleAdminChanged",
      "type": "event"
    },
    {
      "anonymous": false,
      "inputs": [
        {
          "indexed": true,
          "internalType": "bytes32",
          "name": "role",
          "type": "bytes32"
        },
        {
          "indexed": true,
          "internalType": "address",
          "name": "account",
          "type": "address"
        },
        {
          "indexed": true,
          "internalType": "address",
          "name": "sender",
          "type": "address"
        }
      ],
      "name": "RoleGranted",
      "type": "event"
    },
    {
      "anonymous": false,
      "inputs": [
        {
          "indexed": true,
          "internalType": "bytes32",
          "name": "role",
          "type": "bytes32"
        },
        {
          "indexed": true,
          "internalType": "address",
          "name": "account",
          "type": "address"
        },
        {
          "indexed": true,
          "internalType": "address",
          "name": "sender",
          "type": "address"
        }
      ],
      "name": "RoleRevoked",
      "type": "event"
    },
    {
      "anonymous": false,
      "inputs": [
        {
          "indexed": true,
          "internalType": "address",
          "name": "from",
          "type": "address"
        },
        {
          "indexed": true,
          "internalType": "address",
          "name": "to",
          "type": "address"
        },
        {
          "indexed": false,
          "internalType": "uint256",
          "name": "value",
          "type": "uint256"
        }
      ],
      "name": "Transfer",
      "type": "event"
    },
    {
      "anonymous": false,
      "inputs": [
        {
          "indexed": false,
          "internalType": "address",
          "name": "_recipient",
          "type": "address"
        },
        {
          "indexed": false,
          "internalType": "uint256",
          "name": "_mintMPTokenAmount",
          "type": "uint256"
        },
        {
          "indexed": false,
          "internalType": "uint256",
          "name": "_addedValue",
          "type": "uint256"
        }
      ],
      "name": "capitalAdded",
      "type": "event"
    },
    {
      "anonymous": false,
      "inputs": [
        {
          "indexed": false,
          "internalType": "address",
          "name": "_recipient",
          "type": "address"
        },
        {
          "indexed": false,
          "internalType": "uint256",
          "name": "_burnMPTokenAmount",
          "type": "uint256"
        },
        {
          "indexed": false,
          "internalType": "uint256",
          "name": "_withdrawValue",
          "type": "uint256"
        }
      ],
      "name": "capitalWithdrawn",
      "type": "event"
    },
    {
      "anonymous": false,
      "inputs": [
        {
          "indexed": true,
          "internalType": "address",
          "name": "_purchaser",
          "type": "address"
        },
        {
          "components": [
            {
              "internalType": "enum OptionLibrary.PayoffType",
              "name": "poType",
              "type": "uint8"
            },
            {
              "internalType": "enum OptionLibrary.OptionSide",
              "name": "side",
              "type": "uint8"
            },
            {
              "internalType": "enum OptionLibrary.OptionStatus",
              "name": "status",
              "type": "uint8"
            },
            {
              "internalType": "address",
              "name": "holder",
              "type": "address"
            },
            {
              "internalType": "uint256",
              "name": "id",
              "type": "uint256"
            },
            {
              "internalType": "uint256",
              "name": "createTime",
              "type": "uint256"
            },
            {
              "internalType": "uint256",
              "name": "effectiveTime",
              "type": "uint256"
            },
            {
              "internalType": "uint256",
              "name": "tenor",
              "type": "uint256"
            },
            {
              "internalType": "uint256",
              "name": "maturity",
              "type": "uint256"
            },
            {
              "internalType": "uint256",
              "name": "exerciseTime",
              "type": "uint256"
            },
            {
              "internalType": "uint256",
              "name": "amount",
              "type": "uint256"
            },
            {
              "internalType": "uint256",
              "name": "spot",
              "type": "uint256"
            },
            {
              "internalType": "uint256",
              "name": "strike",
              "type": "uint256"
            },
            {
              "internalType": "uint256",
              "name": "volatility",
              "type": "uint256"
            },
            {
              "internalType": "uint256",
              "name": "premium",
              "type": "uint256"
            },
            {
              "internalType": "uint256",
              "name": "fee",
              "type": "uint256"
            }
          ],
          "indexed": false,
          "internalType": "struct OptionLibrary.Option",
          "name": "_option",
          "type": "tuple"
        },
        {
          "indexed": false,
          "internalType": "uint256",
          "name": "_cost",
          "type": "uint256"
        },
        {
          "indexed": false,
          "internalType": "bool",
          "name": "_inVol",
          "type": "bool"
        }
      ],
      "name": "newOptionBought",
      "type": "event"
    },
    {
      "anonymous": false,
      "inputs": [
        {
          "indexed": false,
          "internalType": "address",
          "name": "_purchaser",
          "type": "address"
        },
        {
          "indexed": false,
          "internalType": "uint256",
          "name": "_time",
          "type": "uint256"
        },
        {
          "indexed": false,
          "internalType": "uint256",
          "name": "_tenor",
          "type": "uint256"
        },
        {
          "indexed": false,
          "internalType": "uint256",
          "name": "_amount",
          "type": "uint256"
        }
      ],
      "name": "newVolatilityTokenBought",
      "type": "event"
    },
    {
      "anonymous": false,
      "inputs": [
        {
          "indexed": true,
          "internalType": "address",
          "name": "_purchaser",
          "type": "address"
        },
        {
          "components": [
            {
              "internalType": "enum OptionLibrary.PayoffType",
              "name": "poType",
              "type": "uint8"
            },
            {
              "internalType": "enum OptionLibrary.OptionSide",
              "name": "side",
              "type": "uint8"
            },
            {
              "internalType": "enum OptionLibrary.OptionStatus",
              "name": "status",
              "type": "uint8"
            },
            {
              "internalType": "address",
              "name": "holder",
              "type": "address"
            },
            {
              "internalType": "uint256",
              "name": "id",
              "type": "uint256"
            },
            {
              "internalType": "uint256",
              "name": "createTime",
              "type": "uint256"
            },
            {
              "internalType": "uint256",
              "name": "effectiveTime",
              "type": "uint256"
            },
            {
              "internalType": "uint256",
              "name": "tenor",
              "type": "uint256"
            },
            {
              "internalType": "uint256",
              "name": "maturity",
              "type": "uint256"
            },
            {
              "internalType": "uint256",
              "name": "exerciseTime",
              "type": "uint256"
            },
            {
              "internalType": "uint256",
              "name": "amount",
              "type": "uint256"
            },
            {
              "internalType": "uint256",
              "name": "spot",
              "type": "uint256"
            },
            {
              "internalType": "uint256",
              "name": "strike",
              "type": "uint256"
            },
            {
              "internalType": "uint256",
              "name": "volatility",
              "type": "uint256"
            },
            {
              "internalType": "uint256",
              "name": "premium",
              "type": "uint256"
            },
            {
              "internalType": "uint256",
              "name": "fee",
              "type": "uint256"
            }
          ],
          "indexed": false,
          "internalType": "struct OptionLibrary.Option",
          "name": "_option",
          "type": "tuple"
        },
        {
          "indexed": false,
          "internalType": "uint256",
          "name": "_payoff",
          "type": "uint256"
        }
      ],
      "name": "optionExercised",
      "type": "event"
    },
    {
      "inputs": [],
      "name": "ADMIN_ROLE",
      "outputs": [
        {
          "internalType": "bytes32",
          "name": "",
          "type": "bytes32"
        }
      ],
      "stateMutability": "view",
      "type": "function",
      "constant": true
    },
    {
      "inputs": [],
      "name": "DEFAULT_ADMIN_ROLE",
      "outputs": [
        {
          "internalType": "bytes32",
          "name": "",
          "type": "bytes32"
        }
      ],
      "stateMutability": "view",
      "type": "function",
      "constant": true
    },
    {
      "inputs": [],
      "name": "EXCHANGE_ROLE",
      "outputs": [
        {
          "internalType": "bytes32",
          "name": "",
          "type": "bytes32"
        }
      ],
      "stateMutability": "view",
      "type": "function",
      "constant": true
    },
    {
      "inputs": [
        {
          "internalType": "address",
          "name": "owner",
          "type": "address"
        },
        {
          "internalType": "address",
          "name": "spender",
          "type": "address"
        }
      ],
      "name": "allowance",
      "outputs": [
        {
          "internalType": "uint256",
          "name": "",
          "type": "uint256"
        }
      ],
      "stateMutability": "view",
      "type": "function",
      "constant": true
    },
    {
      "inputs": [
        {
          "internalType": "address",
          "name": "spender",
          "type": "address"
        },
        {
          "internalType": "uint256",
          "name": "amount",
          "type": "uint256"
        }
      ],
      "name": "approve",
      "outputs": [
        {
          "internalType": "bool",
          "name": "",
          "type": "bool"
        }
      ],
      "stateMutability": "nonpayable",
      "type": "function"
    },
    {
      "inputs": [
        {
          "internalType": "address",
          "name": "account",
          "type": "address"
        }
      ],
      "name": "balanceOf",
      "outputs": [
        {
          "internalType": "uint256",
          "name": "",
          "type": "uint256"
        }
      ],
      "stateMutability": "view",
      "type": "function",
      "constant": true
    },
    {
      "inputs": [],
      "name": "capitalRatio",
      "outputs": [
        {
          "internalType": "uint256",
          "name": "",
          "type": "uint256"
        }
      ],
      "stateMutability": "view",
      "type": "function",
      "constant": true
    },
    {
      "inputs": [],
      "name": "decimals",
      "outputs": [
        {
          "internalType": "uint8",
          "name": "",
          "type": "uint8"
        }
      ],
      "stateMutability": "view",
      "type": "function",
      "constant": true
    },
    {
      "inputs": [
        {
          "internalType": "address",
          "name": "spender",
          "type": "address"
        },
        {
          "internalType": "uint256",
          "name": "subtractedValue",
          "type": "uint256"
        }
      ],
      "name": "decreaseAllowance",
      "outputs": [
        {
          "internalType": "bool",
          "name": "",
          "type": "bool"
        }
      ],
      "stateMutability": "nonpayable",
      "type": "function"
    },
    {
      "inputs": [],
      "name": "fundingAddress",
      "outputs": [
        {
          "internalType": "address",
          "name": "",
          "type": "address"
        }
      ],
      "stateMutability": "view",
      "type": "function",
      "constant": true
    },
    {
      "inputs": [
        {
          "internalType": "bytes32",
          "name": "role",
          "type": "bytes32"
        }
      ],
      "name": "getRoleAdmin",
      "outputs": [
        {
          "internalType": "bytes32",
          "name": "",
          "type": "bytes32"
        }
      ],
      "stateMutability": "view",
      "type": "function",
      "constant": true
    },
    {
      "inputs": [
        {
          "internalType": "bytes32",
          "name": "role",
          "type": "bytes32"
        },
        {
          "internalType": "address",
          "name": "account",
          "type": "address"
        }
      ],
      "name": "grantRole",
      "outputs": [],
      "stateMutability": "nonpayable",
      "type": "function"
    },
    {
      "inputs": [
        {
          "internalType": "bytes32",
          "name": "role",
          "type": "bytes32"
        },
        {
          "internalType": "address",
          "name": "account",
          "type": "address"
        }
      ],
      "name": "hasRole",
      "outputs": [
        {
          "internalType": "bool",
          "name": "",
          "type": "bool"
        }
      ],
      "stateMutability": "view",
      "type": "function",
      "constant": true
    },
    {
      "inputs": [
        {
          "internalType": "address",
          "name": "spender",
          "type": "address"
        },
        {
          "internalType": "uint256",
          "name": "addedValue",
          "type": "uint256"
        }
      ],
      "name": "increaseAllowance",
      "outputs": [
        {
          "internalType": "bool",
          "name": "",
          "type": "bool"
        }
      ],
      "stateMutability": "nonpayable",
      "type": "function"
    },
    {
      "inputs": [],
      "name": "lendingPoolAddressProviderAddress",
      "outputs": [
        {
          "internalType": "address",
          "name": "",
          "type": "address"
        }
      ],
      "stateMutability": "view",
      "type": "function",
      "constant": true
    },
    {
      "inputs": [],
      "name": "name",
      "outputs": [
        {
          "internalType": "string",
          "name": "",
          "type": "string"
        }
      ],
      "stateMutability": "view",
      "type": "function",
      "constant": true
    },
    {
      "inputs": [],
      "name": "protocolDataProviderAddress",
      "outputs": [
        {
          "internalType": "address",
          "name": "",
          "type": "address"
        }
      ],
      "stateMutability": "view",
      "type": "function",
      "constant": true
    },
    {
      "inputs": [
        {
          "internalType": "bytes32",
          "name": "role",
          "type": "bytes32"
        },
        {
          "internalType": "address",
          "name": "account",
          "type": "address"
        }
      ],
      "name": "renounceRole",
      "outputs": [],
      "stateMutability": "nonpayable",
      "type": "function"
    },
    {
      "inputs": [
        {
          "internalType": "bytes32",
          "name": "role",
          "type": "bytes32"
        },
        {
          "internalType": "address",
          "name": "account",
          "type": "address"
        }
      ],
      "name": "revokeRole",
      "outputs": [],
      "stateMutability": "nonpayable",
      "type": "function"
    },
    {
      "inputs": [
        {
          "internalType": "bytes4",
          "name": "interfaceId",
          "type": "bytes4"
        }
      ],
      "name": "supportsInterface",
      "outputs": [
        {
          "internalType": "bool",
          "name": "",
          "type": "bool"
        }
      ],
      "stateMutability": "view",
      "type": "function",
      "constant": true
    },
    {
      "inputs": [],
      "name": "swapRouterAddress",
      "outputs": [
        {
          "internalType": "address",
          "name": "",
          "type": "address"
        }
      ],
      "stateMutability": "view",
      "type": "function",
      "constant": true
    },
    {
      "inputs": [],
      "name": "symbol",
      "outputs": [
        {
          "internalType": "string",
          "name": "",
          "type": "string"
        }
      ],
      "stateMutability": "view",
      "type": "function",
      "constant": true
    },
    {
      "inputs": [],
      "name": "totalSupply",
      "outputs": [
        {
          "internalType": "uint256",
          "name": "",
          "type": "uint256"
        }
      ],
      "stateMutability": "view",
      "type": "function",
      "constant": true
    },
    {
      "inputs": [
        {
          "internalType": "address",
          "name": "recipient",
          "type": "address"
        },
        {
          "internalType": "uint256",
          "name": "amount",
          "type": "uint256"
        }
      ],
      "name": "transfer",
      "outputs": [
        {
          "internalType": "bool",
          "name": "",
          "type": "bool"
        }
      ],
      "stateMutability": "nonpayable",
      "type": "function"
    },
    {
      "inputs": [
        {
          "internalType": "address",
          "name": "sender",
          "type": "address"
        },
        {
          "internalType": "address",
          "name": "recipient",
          "type": "address"
        },
        {
          "internalType": "uint256",
          "name": "amount",
          "type": "uint256"
        }
      ],
      "name": "transferFrom",
      "outputs": [
        {
          "internalType": "bool",
          "name": "",
          "type": "bool"
        }
      ],
      "stateMutability": "nonpayable",
      "type": "function"
    },
    {
      "inputs": [],
      "name": "underlyingAddress",
      "outputs": [
        {
          "internalType": "address",
          "name": "",
          "type": "address"
        }
      ],
      "stateMutability": "view",
      "type": "function",
      "constant": true
    },
    {
      "inputs": [],
      "name": "updateInterval",
      "outputs": [
        {
          "internalType": "uint256",
          "name": "",
          "type": "uint256"
        }
      ],
      "stateMutability": "view",
      "type": "function",
      "constant": true
    },
    {
      "inputs": [
        {
          "internalType": "address",
          "name": "_purchaser",
          "type": "address"
        },
        {
          "internalType": "uint256",
          "name": "_id",
          "type": "uint256"
        },
        {
          "internalType": "bool",
          "name": "_isNew",
          "type": "bool"
        }
      ],
      "name": "recordOption",
      "outputs": [],
      "stateMutability": "nonpayable",
      "type": "function"
    },
    {
      "inputs": [
        {
          "internalType": "bool",
          "name": "_ignoreSells",
          "type": "bool"
        }
      ],
      "name": "getAggregateDelta",
      "outputs": [
        {
          "internalType": "int256",
          "name": "",
          "type": "int256"
        },
        {
          "internalType": "uint256",
          "name": "",
          "type": "uint256"
        }
      ],
      "stateMutability": "view",
      "type": "function",
      "constant": true
    },
    {
      "inputs": [],
      "name": "getBalances",
      "outputs": [
        {
          "internalType": "uint256",
          "name": "",
          "type": "uint256"
        },
        {
          "internalType": "uint256",
          "name": "",
          "type": "uint256"
        },
        {
          "internalType": "uint256",
          "name": "",
          "type": "uint256"
        },
        {
          "internalType": "uint256",
          "name": "",
          "type": "uint256"
        }
      ],
      "stateMutability": "view",
      "type": "function",
      "constant": true
    },
    {
      "inputs": [
        {
          "internalType": "uint256",
          "name": "_swapAmount",
          "type": "uint256"
        },
        {
          "internalType": "uint256",
          "name": "_maxCost",
          "type": "uint256"
        },
        {
          "internalType": "uint256",
          "name": "_deadline",
          "type": "uint256"
        }
      ],
      "name": "swapToUnderlying",
      "outputs": [],
      "stateMutability": "nonpayable",
      "type": "function"
    },
    {
      "inputs": [
        {
          "internalType": "uint256",
          "name": "_swapAmount",
          "type": "uint256"
        },
        {
          "internalType": "uint256",
          "name": "_minReturn",
          "type": "uint256"
        },
        {
          "internalType": "uint256",
          "name": "_deadline",
          "type": "uint256"
        }
      ],
      "name": "swapToFunding",
      "outputs": [],
      "stateMutability": "nonpayable",
      "type": "function"
    },
    {
      "inputs": [
        {
          "internalType": "uint256",
          "name": "_borrowAmount",
          "type": "uint256"
        },
        {
          "internalType": "uint256",
          "name": "_collateralAdjust",
          "type": "uint256"
        },
        {
          "internalType": "address",
          "name": "_lendingPoolAddress",
          "type": "address"
        },
        {
          "internalType": "uint256",
          "name": "_lendingPoolRateMode",
          "type": "uint256"
        }
      ],
      "name": "borrowHedge",
      "outputs": [],
      "stateMutability": "nonpayable",
      "type": "function"
    },
    {
      "inputs": [
        {
          "internalType": "uint256",
          "name": "_repayAmount",
          "type": "uint256"
        },
        {
          "internalType": "uint256",
          "name": "_collateralAdjust",
          "type": "uint256"
        },
        {
          "internalType": "address",
          "name": "_lendingPoolAddress",
          "type": "address"
        },
        {
          "internalType": "address",
          "name": "_aToken",
          "type": "address"
        },
        {
          "internalType": "address",
          "name": "_debtToken",
          "type": "address"
        },
        {
          "internalType": "uint256",
          "name": "_lendingPoolRateMode",
          "type": "uint256"
        }
      ],
      "name": "repayHedge",
      "outputs": [],
      "stateMutability": "nonpayable",
      "type": "function"
    },
    {
      "inputs": [
        {
          "internalType": "uint256",
          "name": "_depositAmount",
          "type": "uint256"
        }
      ],
      "name": "addCapital",
      "outputs": [],
      "stateMutability": "nonpayable",
      "type": "function"
    },
    {
      "inputs": [
        {
          "internalType": "uint256",
          "name": "_burnMPTokenAmount",
          "type": "uint256"
        }
      ],
      "name": "withdrawCapital",
      "outputs": [],
      "stateMutability": "nonpayable",
      "type": "function"
    },
    {
      "inputs": [
        {
          "internalType": "bool",
          "name": "_net",
          "type": "bool"
        },
        {
          "internalType": "bool",
          "name": "_average",
          "type": "bool"
        }
      ],
      "name": "calcCapital",
      "outputs": [
        {
          "internalType": "uint256",
          "name": "",
          "type": "uint256"
        }
      ],
      "stateMutability": "view",
      "type": "function",
      "constant": true
    },
    {
      "inputs": [
        {
          "internalType": "uint256",
          "name": "_newCapitalRatio",
          "type": "uint256"
        }
      ],
      "name": "resetCapitalRatio",
      "outputs": [],
      "stateMutability": "nonpayable",
      "type": "function"
    },
    {
      "inputs": [
        {
          "internalType": "uint256",
          "name": "_newUpdateInterval",
          "type": "uint256"
        }
      ],
      "name": "resetUpdateInterval",
      "outputs": [],
      "stateMutability": "nonpayable",
      "type": "function"
    },
    {
      "inputs": [
        {
          "internalType": "uint256",
          "name": "_payment",
          "type": "uint256"
        },
        {
          "internalType": "address",
          "name": "_exchangeAddress",
          "type": "address"
        }
      ],
      "name": "payExchange",
      "outputs": [],
      "stateMutability": "nonpayable",
      "type": "function"
    },
    {
      "inputs": [],
      "name": "getPriceMultiplier",
      "outputs": [
        {
          "internalType": "uint256",
          "name": "",
          "type": "uint256"
        }
      ],
      "stateMutability": "view",
      "type": "function",
      "constant": true
    },
    {
      "inputs": [
        {
          "internalType": "address",
          "name": "_address",
          "type": "address"
        }
      ],
      "name": "getHoldersOptionCount",
      "outputs": [
        {
          "internalType": "uint256",
          "name": "",
          "type": "uint256"
        }
      ],
      "stateMutability": "view",
      "type": "function",
      "constant": true
    },
    {
      "inputs": [
        {
          "internalType": "uint256",
          "name": "_index",
          "type": "uint256"
        },
        {
          "internalType": "address",
          "name": "_address",
          "type": "address"
        }
      ],
      "name": "getHoldersOption",
      "outputs": [
        {
          "components": [
            {
              "internalType": "enum OptionLibrary.PayoffType",
              "name": "poType",
              "type": "uint8"
            },
            {
              "internalType": "enum OptionLibrary.OptionSide",
              "name": "side",
              "type": "uint8"
            },
            {
              "internalType": "enum OptionLibrary.OptionStatus",
              "name": "status",
              "type": "uint8"
            },
            {
              "internalType": "address",
              "name": "holder",
              "type": "address"
            },
            {
              "internalType": "uint256",
              "name": "id",
              "type": "uint256"
            },
            {
              "internalType": "uint256",
              "name": "createTime",
              "type": "uint256"
            },
            {
              "internalType": "uint256",
              "name": "effectiveTime",
              "type": "uint256"
            },
            {
              "internalType": "uint256",
              "name": "tenor",
              "type": "uint256"
            },
            {
              "internalType": "uint256",
              "name": "maturity",
              "type": "uint256"
            },
            {
              "internalType": "uint256",
              "name": "exerciseTime",
              "type": "uint256"
            },
            {
              "internalType": "uint256",
              "name": "amount",
              "type": "uint256"
            },
            {
              "internalType": "uint256",
              "name": "spot",
              "type": "uint256"
            },
            {
              "internalType": "uint256",
              "name": "strike",
              "type": "uint256"
            },
            {
              "internalType": "uint256",
              "name": "volatility",
              "type": "uint256"
            },
            {
              "internalType": "uint256",
              "name": "premium",
              "type": "uint256"
            },
            {
              "internalType": "uint256",
              "name": "fee",
              "type": "uint256"
            }
          ],
          "internalType": "struct OptionLibrary.Option",
          "name": "",
          "type": "tuple"
        }
      ],
      "stateMutability": "view",
      "type": "function",
      "constant": true
    }
  ],
  "bytecode": "0x6080604052670de0b6b3a7640000600a55610708600b553480156200002357600080fd5b506040516200648e3803806200648e8339818101604052810190620000499190620006d0565b87878160039080519060200190620000639291906200058b565b5080600490805190602001906200007c9291906200058b565b505050620000946000801b33620002a660201b60201c565b620000c67fa49807205ce4d355092ef5a8a18f56e8913cf4a201fbe287825b095693c2177533620002a660201b60201c565b620000f87f28d62fc77014de57a1bbaa8212ff0979fa61ab00d377b4b8d9762048fb41996133620002a660201b60201c565b82600e60006101000a81548173ffffffffffffffffffffffffffffffffffffffff021916908373ffffffffffffffffffffffffffffffffffffffff16021790555081600c60006101000a81548173ffffffffffffffffffffffffffffffffffffffff021916908373ffffffffffffffffffffffffffffffffffffffff16021790555080600d60006101000a81548173ffffffffffffffffffffffffffffffffffffffff021916908373ffffffffffffffffffffffffffffffffffffffff16021790555084601060006101000a81548173ffffffffffffffffffffffffffffffffffffffff021916908373ffffffffffffffffffffffffffffffffffffffff16021790555085600f60006101000a81548173ffffffffffffffffffffffffffffffffffffffff021916908373ffffffffffffffffffffffffffffffffffffffff16021790555083600960006101000a81548173ffffffffffffffffffffffffffffffffffffffff021916908373ffffffffffffffffffffffffffffffffffffffff1602179055506200029833670de0b6b3a7640000620002bc60201b60201c565b505050505050505062000af0565b620002b882826200042160201b60201c565b5050565b600073ffffffffffffffffffffffffffffffffffffffff168273ffffffffffffffffffffffffffffffffffffffff1614156200032f576040517f08c379a000000000000000000000000000000000000000000000000000000000815260040162000326906200080f565b60405180910390fd5b62000343600083836200051360201b60201c565b8060026000828254620003579190620008be565b92505081905550806000808473ffffffffffffffffffffffffffffffffffffffff1673ffffffffffffffffffffffffffffffffffffffff1681526020019081526020016000206000828254620003ae9190620008be565b925050819055508173ffffffffffffffffffffffffffffffffffffffff16600073ffffffffffffffffffffffffffffffffffffffff167fddf252ad1be2c89b69c2b068fc378daa952ba7f163c4a11628f55a4df523b3ef8360405162000415919062000831565b60405180910390a35050565b6200043382826200051860201b60201c565b6200050f5760016005600084815260200190815260200160002060000160008373ffffffffffffffffffffffffffffffffffffffff1673ffffffffffffffffffffffffffffffffffffffff16815260200190815260200160002060006101000a81548160ff021916908315150217905550620004b46200058360201b60201c565b73ffffffffffffffffffffffffffffffffffffffff168173ffffffffffffffffffffffffffffffffffffffff16837f2f8788117e7eff1d82e926ec794901d17c78024a50270940304540a733656f0d60405160405180910390a45b5050565b505050565b60006005600084815260200190815260200160002060000160008373ffffffffffffffffffffffffffffffffffffffff1673ffffffffffffffffffffffffffffffffffffffff16815260200190815260200160002060009054906101000a900460ff16905092915050565b600033905090565b82805462000599906200098f565b90600052602060002090601f016020900481019282620005bd576000855562000609565b82601f10620005d857805160ff191683800117855562000609565b8280016001018555821562000609579182015b8281111562000608578251825591602001919060010190620005eb565b5b5090506200061891906200061c565b5090565b5b80821115620006375760008160009055506001016200061d565b5090565b6000620006526200064c8462000877565b6200084e565b90508281526020810184848401111562000671576200067062000a8d565b5b6200067e84828562000959565b509392505050565b600081519050620006978162000ad6565b92915050565b600082601f830112620006b557620006b462000a88565b5b8151620006c78482602086016200063b565b91505092915050565b600080600080600080600080610100898b031215620006f457620006f362000a97565b5b600089015167ffffffffffffffff81111562000715576200071462000a92565b5b620007238b828c016200069d565b985050602089015167ffffffffffffffff81111562000747576200074662000a92565b5b620007558b828c016200069d565b9750506040620007688b828c0162000686565b96505060606200077b8b828c0162000686565b95505060806200078e8b828c0162000686565b94505060a0620007a18b828c0162000686565b93505060c0620007b48b828c0162000686565b92505060e0620007c78b828c0162000686565b9150509295985092959890939650565b6000620007e6601f83620008ad565b9150620007f38262000aad565b602082019050919050565b62000809816200094f565b82525050565b600060208201905081810360008301526200082a81620007d7565b9050919050565b6000602082019050620008486000830184620007fe565b92915050565b60006200085a6200086d565b9050620008688282620009c5565b919050565b6000604051905090565b600067ffffffffffffffff82111562000895576200089462000a59565b5b620008a08262000a9c565b9050602081019050919050565b600082825260208201905092915050565b6000620008cb826200094f565b9150620008d8836200094f565b9250827fffffffffffffffffffffffffffffffffffffffffffffffffffffffffffffffff0382111562000910576200090f620009fb565b5b828201905092915050565b600062000928826200092f565b9050919050565b600073ffffffffffffffffffffffffffffffffffffffff82169050919050565b6000819050919050565b60005b83811015620009795780820151818401526020810190506200095c565b8381111562000989576000848401525b50505050565b60006002820490506001821680620009a857607f821691505b60208210811415620009bf57620009be62000a2a565b5b50919050565b620009d08262000a9c565b810181811067ffffffffffffffff82111715620009f257620009f162000a59565b5b80604052505050565b7f4e487b7100000000000000000000000000000000000000000000000000000000600052601160045260246000fd5b7f4e487b7100000000000000000000000000000000000000000000000000000000600052602260045260246000fd5b7f4e487b7100000000000000000000000000000000000000000000000000000000600052604160045260246000fd5b600080fd5b600080fd5b600080fd5b600080fd5b6000601f19601f8301169050919050565b7f45524332303a206d696e7420746f20746865207a65726f206164647265737300600082015250565b62000ae1816200091b565b811462000aed57600080fd5b50565b61598e8062000b006000396000f3fe608060405234801561001057600080fd5b50600436106102685760003560e01c80638929468b11610151578063bf0a03ca116100c3578063d95b0a1211610087578063d95b0a121461079d578063dd62ed3e146107b9578063e5345f61146107e9578063e9141bdb14610805578063fc73bce914610823578063fd2c80ae1461083f57610268565b8063bf0a03ca146106f8578063c6eefa9914610716578063ca8cfd1a14610732578063d3b7bfb414610763578063d547741f1461078157610268565b80639b69544b116101155780639b69544b14610612578063a217fddf1461062e578063a42b66261461064c578063a457c2d71461067c578063a9059cbb146106ac578063bea10f96146106dc57610268565b80638929468b146105585780638a0687d21461057657806390fcdb36146105a657806391d14854146105c457806395d89b41146105f457610268565b8063313ce567116101ea57806339509351116101ae57806339509351146104705780633b734501146104a057806363447902146104be57806370a08231146104ee57806375b238fc1461051e5780637a8b34e81461053c57610268565b8063313ce567146103e057806333e46411146103fe57806336568abe1461041c5780633676d3131461043857806337aab5be1461045457610268565b806318160ddd1161023157806318160ddd146103285780632140ea671461034657806323b872dd14610364578063248a9ca3146103945780632f2ff15d146103c457610268565b8062113e081461026d57806301ffc9a71461028e57806304bb7ba4146102be57806306fdde03146102da578063095ea7b3146102f8575b600080fd5b61027561085d565b6040516102859493929190614e36565b60405180910390f35b6102a860048036038101906102a391906140b4565b610a27565b6040516102b59190614b04565b60405180910390f35b6102d860048036038101906102d3919061413c565b610aa1565b005b6102e2610b29565b6040516102ef9190614b63565b60405180910390f35b610312600480360381019061030d9190613ed1565b610bbb565b60405161031f9190614b04565b60405180910390f35b610330610bd9565b60405161033d9190614d61565b60405180910390f35b61034e610be3565b60405161035b9190614907565b60405180910390f35b61037e60048036038101906103799190613e7e565b610c09565b60405161038b9190614b04565b60405180910390f35b6103ae60048036038101906103a99190614047565b610d0a565b6040516103bb9190614b1f565b60405180910390f35b6103de60048036038101906103d99190614074565b610d2a565b005b6103e8610d53565b6040516103f59190614e7b565b60405180910390f35b610406610d5c565b6040516104139190614d61565b60405180910390f35b61043660048036038101906104319190614074565b610d62565b005b610452600480360381019061044d91906142a3565b610de5565b005b61046e6004803603810190610469919061430a565b610ff8565b005b61048a60048036038101906104859190613ed1565b6112ee565b6040516104979190614b04565b60405180910390f35b6104a861139a565b6040516104b59190614b1f565b60405180910390f35b6104d860048036038101906104d39190614007565b6113be565b6040516104e59190614d61565b60405180910390f35b61050860048036038101906105039190613e11565b6116ac565b6040516105159190614d61565b60405180910390f35b6105266116f4565b6040516105339190614b1f565b60405180910390f35b61055660048036038101906105519190613f11565b611718565b005b61056061182b565b60405161056d9190614907565b60405180910390f35b610590600480360381019061058b9190614196565b611851565b60405161059d9190614d45565b60405180910390f35b6105ae61195d565b6040516105bb9190614907565b60405180910390f35b6105de60048036038101906105d99190614074565b611983565b6040516105eb9190614b04565b60405180910390f35b6105fc6119ee565b6040516106099190614b63565b60405180910390f35b61062c60048036038101906106279190614196565b611a80565b005b610636611b6f565b6040516106439190614b1f565b60405180910390f35b61066660048036038101906106619190613e11565b611b76565b6040516106739190614d61565b60405180910390f35b61069660048036038101906106919190613ed1565b611bc6565b6040516106a39190614b04565b60405180910390f35b6106c660048036038101906106c19190613ed1565b611cba565b6040516106d39190614b04565b60405180910390f35b6106f660048036038101906106f1919061413c565b611cd8565b005b610700611e10565b60405161070d9190614d61565b60405180910390f35b610730600480360381019061072b919061413c565b611eb7565b005b61074c60048036038101906107479190613fad565b611ef4565b60405161075a929190614b3a565b60405180910390f35b61076b6120a0565b6040516107789190614907565b60405180910390f35b61079b60048036038101906107969190614074565b6120c6565b005b6107b760048036038101906107b2919061413c565b6120ef565b005b6107d360048036038101906107ce9190613e3e565b612211565b6040516107e09190614d61565b60405180910390f35b61080360048036038101906107fe9190614216565b612298565b005b61080d612605565b60405161081a9190614907565b60405180910390f35b61083d6004803603810190610838919061430a565b61262b565b005b610847612921565b6040516108549190614d61565b60405180910390f35b60008060008060008073__MarketLibrary_________________________6332c21e1330600d60009054906101000a900473ffffffffffffffffffffffffffffffffffffffff16600f60009054906101000a900473ffffffffffffffffffffffffffffffffffffffff166040518463ffffffff1660e01b81526004016108e593929190614922565b60606040518083038186803b1580156108fd57600080fd5b505af4158015610911573d6000803e3d6000fd5b505050506040513d601f19601f82011682018060405250810190610935919061435d565b925050915060008073__MarketLibrary_________________________6332c21e1330600d60009054906101000a900473ffffffffffffffffffffffffffffffffffffffff16601060009054906101000a900473ffffffffffffffffffffffffffffffffffffffff166040518463ffffffff1660e01b81526004016109bc93929190614922565b60606040518083038186803b1580156109d457600080fd5b505af41580156109e8573d6000803e3d6000fd5b505050506040513d601f19601f82011682018060405250810190610a0c919061435d565b50915091508382828597509750975097505050505090919293565b60007f7965db0b000000000000000000000000000000000000000000000000000000007bffffffffffffffffffffffffffffffffffffffffffffffffffffffff1916827bffffffffffffffffffffffffffffffffffffffffffffffffffffffff19161480610a9a5750610a9982612927565b5b9050919050565b7fa49807205ce4d355092ef5a8a18f56e8913cf4a201fbe287825b095693c21775610ad381610ace612991565b612999565b670de0b6b3a7640000821115610b1e576040517f08c379a0000000000000000000000000000000000000000000000000000000008152600401610b1590614c65565b60405180910390fd5b81600a819055505050565b606060038054610b3890615240565b80601f0160208091040260200160405190810160405280929190818152602001828054610b6490615240565b8015610bb15780601f10610b8657610100808354040283529160200191610bb1565b820191906000526020600020905b815481529060010190602001808311610b9457829003601f168201915b5050505050905090565b6000610bcf610bc8612991565b8484612a36565b6001905092915050565b6000600254905090565b600f60009054906101000a900473ffffffffffffffffffffffffffffffffffffffff1681565b6000610c16848484612c01565b6000600160008673ffffffffffffffffffffffffffffffffffffffff1673ffffffffffffffffffffffffffffffffffffffff1681526020019081526020016000206000610c61612991565b73ffffffffffffffffffffffffffffffffffffffff1673ffffffffffffffffffffffffffffffffffffffff16815260200190815260200160002054905082811015610ce1576040517f08c379a0000000000000000000000000000000000000000000000000000000008152600401610cd890614c45565b60405180910390fd5b610cfe85610ced612991565b8584610cf9919061508b565b612a36565b60019150509392505050565b600060056000838152602001908152602001600020600101549050919050565b610d3382610d0a565b610d4481610d3f612991565b612999565b610d4e8383612e80565b505050565b60006012905090565b600a5481565b610d6a612991565b73ffffffffffffffffffffffffffffffffffffffff168173ffffffffffffffffffffffffffffffffffffffff1614610dd7576040517f08c379a0000000000000000000000000000000000000000000000000000000008152600401610dce90614d05565b60405180910390fd5b610de18282612f61565b5050565b7fa49807205ce4d355092ef5a8a18f56e8913cf4a201fbe287825b095693c21775610e1781610e12612991565b612999565b600f60009054906101000a900473ffffffffffffffffffffffffffffffffffffffff1673ffffffffffffffffffffffffffffffffffffffff1663095ea7b384866040518363ffffffff1660e01b8152600401610e74929190614990565b602060405180830381600087803b158015610e8e57600080fd5b505af1158015610ea2573d6000803e3d6000fd5b505050506040513d601f19601f82011682018060405250810190610ec69190613fda565b508273ffffffffffffffffffffffffffffffffffffffff1663e8eda9df600f60009054906101000a900473ffffffffffffffffffffffffffffffffffffffff16863060006040518563ffffffff1660e01b8152600401610f2994939291906149f0565b600060405180830381600087803b158015610f4357600080fd5b505af1158015610f57573d6000803e3d6000fd5b505050508273ffffffffffffffffffffffffffffffffffffffff1663a415bcad600f60009054906101000a900473ffffffffffffffffffffffffffffffffffffffff1687856000306040518663ffffffff1660e01b8152600401610fbf959493929190614ab1565b600060405180830381600087803b158015610fd957600080fd5b505af1158015610fed573d6000803e3d6000fd5b505050505050505050565b7fa49807205ce4d355092ef5a8a18f56e8913cf4a201fbe287825b095693c2177561102a81611025612991565b612999565b601060009054906101000a900473ffffffffffffffffffffffffffffffffffffffff1673ffffffffffffffffffffffffffffffffffffffff166339509351600e60009054906101000a900473ffffffffffffffffffffffffffffffffffffffff16856040518363ffffffff1660e01b81526004016110a9929190614990565b602060405180830381600087803b1580156110c357600080fd5b505af11580156110d7573d6000803e3d6000fd5b505050506040513d601f19601f820116820180604052508101906110fb9190613fda565b506000600267ffffffffffffffff811115611119576111186153d7565b5b6040519080825280602002602001820160405280156111475781602001602082028036833780820191505090505b509050601060009054906101000a900473ffffffffffffffffffffffffffffffffffffffff1681600081518110611181576111806153a8565b5b602002602001019073ffffffffffffffffffffffffffffffffffffffff16908173ffffffffffffffffffffffffffffffffffffffff1681525050600f60009054906101000a900473ffffffffffffffffffffffffffffffffffffffff16816001815181106111f2576111f16153a8565b5b602002602001019073ffffffffffffffffffffffffffffffffffffffff16908173ffffffffffffffffffffffffffffffffffffffff1681525050600e60009054906101000a900473ffffffffffffffffffffffffffffffffffffffff1673ffffffffffffffffffffffffffffffffffffffff16638803dbee86868430886040518663ffffffff1660e01b815260040161128f959493929190614da5565b600060405180830381600087803b1580156112a957600080fd5b505af11580156112bd573d6000803e3d6000fd5b505050506040513d6000823e3d601f19601f820116820180604052508101906112e69190613f64565b505050505050565b60006113906112fb612991565b848460016000611309612991565b73ffffffffffffffffffffffffffffffffffffffff1673ffffffffffffffffffffffffffffffffffffffff16815260200190815260200160002060008873ffffffffffffffffffffffffffffffffffffffff1673ffffffffffffffffffffffffffffffffffffffff1681526020019081526020016000205461138b9190614fdb565b612a36565b6001905092915050565b7f28d62fc77014de57a1bbaa8212ff0979fa61ab00d377b4b8d9762048fb41996181565b600080600960009054906101000a900473ffffffffffffffffffffffffffffffffffffffff1673ffffffffffffffffffffffffffffffffffffffff1663b0667cf86040518163ffffffff1660e01b8152600401604080518083038186803b15801561142857600080fd5b505afa15801561143c573d6000803e3d6000fd5b505050506040513d601f19601f8201168201806040525081019061146091906141d6565b50905060008060008061147161085d565b935093509350935060006115258287600960009054906101000a900473ffffffffffffffffffffffffffffffffffffffff1673ffffffffffffffffffffffffffffffffffffffff1663d50cb88b6040518163ffffffff1660e01b815260040160206040518083038186803b1580156114e857600080fd5b505afa1580156114fc573d6000803e3d6000fd5b505050506040513d601f19601f820116820180604052508101906115209190614169565b613043565b6115cf8688600960009054906101000a900473ffffffffffffffffffffffffffffffffffffffff1673ffffffffffffffffffffffffffffffffffffffff1663d50cb88b6040518163ffffffff1660e01b815260040160206040518083038186803b15801561159257600080fd5b505afa1580156115a6573d6000803e3d6000fd5b505050506040513d601f19601f820116820180604052508101906115ca9190614169565b613043565b84866115db9190614fdb565b6115e59190614fdb565b6115ef919061508b565b9050881561167a5760006116036001611ef4565b5090506000611626611615600161313f565b600a54670de0b6b3a7640000613043565b61164e83600a54670de0b6b3a7640000611640919061508b565b670de0b6b3a7640000613043565b6116589190614fdb565b905080831115611668578061166a565b825b83611675919061508b565b925050505b871561169d5761169a81670de0b6b3a7640000611695610bd9565b613043565b90505b80965050505050505092915050565b60008060008373ffffffffffffffffffffffffffffffffffffffff1673ffffffffffffffffffffffffffffffffffffffff168152602001908152602001600020549050919050565b7fa49807205ce4d355092ef5a8a18f56e8913cf4a201fbe287825b095693c2177581565b7f28d62fc77014de57a1bbaa8212ff0979fa61ab00d377b4b8d9762048fb41996161174a81611745612991565b612999565b81156117b8576117a183600660008773ffffffffffffffffffffffffffffffffffffffff1673ffffffffffffffffffffffffffffffffffffffff16815260200190815260200160002061324490919063ffffffff16565b506117b683600761324490919063ffffffff16565b505b816118255761180e83600660008773ffffffffffffffffffffffffffffffffffffffff1673ffffffffffffffffffffffffffffffffffffffff16815260200190815260200160002061325e90919063ffffffff16565b5061182383600761325e90919063ffffffff16565b505b50505050565b600d60009054906101000a900473ffffffffffffffffffffffffffffffffffffffff1681565b611859613a34565b600960009054906101000a900473ffffffffffffffffffffffffffffffffffffffff1673ffffffffffffffffffffffffffffffffffffffff16631ce5e9a66118e885600660008773ffffffffffffffffffffffffffffffffffffffff1673ffffffffffffffffffffffffffffffffffffffff16815260200190815260200160002061327890919063ffffffff16565b6040518263ffffffff1660e01b81526004016119049190614d61565b6102006040518083038186803b15801561191d57600080fd5b505afa158015611931573d6000803e3d6000fd5b505050506040513d601f19601f82011682018060405250810190611955919061410e565b905092915050565b600e60009054906101000a900473ffffffffffffffffffffffffffffffffffffffff1681565b60006005600084815260200190815260200160002060000160008373ffffffffffffffffffffffffffffffffffffffff1673ffffffffffffffffffffffffffffffffffffffff16815260200190815260200160002060009054906101000a900460ff16905092915050565b6060600480546119fd90615240565b80601f0160208091040260200160405190810160405280929190818152602001828054611a2990615240565b8015611a765780601f10611a4b57610100808354040283529160200191611a76565b820191906000526020600020905b815481529060010190602001808311611a5957829003601f168201915b5050505050905090565b7f28d62fc77014de57a1bbaa8212ff0979fa61ab00d377b4b8d9762048fb419961611ab281611aad612991565b612999565b600f60009054906101000a900473ffffffffffffffffffffffffffffffffffffffff1673ffffffffffffffffffffffffffffffffffffffff1663a9059cbb83856040518363ffffffff1660e01b8152600401611b0f929190614990565b602060405180830381600087803b158015611b2957600080fd5b505af1158015611b3d573d6000803e3d6000fd5b505050506040513d601f19601f82011682018060405250810190611b619190613fda565b611b6a57600080fd5b505050565b6000801b81565b6000611bbf600660008473ffffffffffffffffffffffffffffffffffffffff1673ffffffffffffffffffffffffffffffffffffffff168152602001908152602001600020613292565b9050919050565b60008060016000611bd5612991565b73ffffffffffffffffffffffffffffffffffffffff1673ffffffffffffffffffffffffffffffffffffffff16815260200190815260200160002060008573ffffffffffffffffffffffffffffffffffffffff1673ffffffffffffffffffffffffffffffffffffffff16815260200190815260200160002054905082811015611c92576040517f08c379a0000000000000000000000000000000000000000000000000000000008152600401611c8990614ce5565b60405180910390fd5b611caf611c9d612991565b858584611caa919061508b565b612a36565b600191505092915050565b6000611cce611cc7612991565b8484612c01565b6001905092915050565b6000611ce6600060016113be565b905060008111611cf557600080fd5b6000611d0a83670de0b6b3a764000084613043565b9050601060009054906101000a900473ffffffffffffffffffffffffffffffffffffffff1673ffffffffffffffffffffffffffffffffffffffff166323b872dd3330866040518463ffffffff1660e01b8152600401611d6b93929190614959565b602060405180830381600087803b158015611d8557600080fd5b505af1158015611d99573d6000803e3d6000fd5b505050506040513d601f19601f82011682018060405250810190611dbd9190613fda565b611dc657600080fd5b611dd033826132a7565b7fd0d5ca25112902dbbf5a70a67eed6edc7513b74f2a7ec0805ca216c99f981cc1338483604051611e0393929190614a35565b60405180910390a1505050565b6000600960009054906101000a900473ffffffffffffffffffffffffffffffffffffffff1673ffffffffffffffffffffffffffffffffffffffff1663d50cb88b6040518163ffffffff1660e01b815260040160206040518083038186803b158015611e7a57600080fd5b505afa158015611e8e573d6000803e3d6000fd5b505050506040513d601f19601f82011682018060405250810190611eb29190614169565b905090565b7fa49807205ce4d355092ef5a8a18f56e8913cf4a201fbe287825b095693c21775611ee981611ee4612991565b612999565b81600b819055505050565b6000806000600960009054906101000a900473ffffffffffffffffffffffffffffffffffffffff1673ffffffffffffffffffffffffffffffffffffffff1663b0667cf86040518163ffffffff1660e01b8152600401604080518083038186803b158015611f6057600080fd5b505afa158015611f74573d6000803e3d6000fd5b505050506040513d601f19601f82011682018060405250810190611f9891906141d6565b5090506000805b611fa96007613292565b81101561209257600960009054906101000a900473ffffffffffffffffffffffffffffffffffffffff1673ffffffffffffffffffffffffffffffffffffffff16638cbb0cd061200283600761327890919063ffffffff16565b85896040518463ffffffff1660e01b815260040161202293929190614dff565b60206040518083038186803b15801561203a57600080fd5b505afa15801561204e573d6000803e3d6000fd5b505050506040513d601f19601f8201168201806040525081019061207291906140e1565b8261207d9190614f47565b9150808061208a906152a3565b915050611f9f565b508082935093505050915091565b601060009054906101000a900473ffffffffffffffffffffffffffffffffffffffff1681565b6120cf82610d0a565b6120e0816120db612991565b612999565b6120ea8383612f61565b505050565b600061210e6120ff6001806113be565b83670de0b6b3a7640000613043565b905061211a33836133fb565b601060009054906101000a900473ffffffffffffffffffffffffffffffffffffffff1673ffffffffffffffffffffffffffffffffffffffff1663a9059cbb33836040518363ffffffff1660e01b8152600401612177929190614990565b602060405180830381600087803b15801561219157600080fd5b505af11580156121a5573d6000803e3d6000fd5b505050506040513d601f19601f820116820180604052508101906121c99190613fda565b6121d257600080fd5b7f3a9e5b3b520d77dc26bf05104c863b6b654d4b96fa8031a783ad0dbd905cdf3933838360405161220593929190614a35565b60405180910390a15050565b6000600160008473ffffffffffffffffffffffffffffffffffffffff1673ffffffffffffffffffffffffffffffffffffffff16815260200190815260200160002060008373ffffffffffffffffffffffffffffffffffffffff1673ffffffffffffffffffffffffffffffffffffffff16815260200190815260200160002054905092915050565b7fa49807205ce4d355092ef5a8a18f56e8913cf4a201fbe287825b095693c217756122ca816122c5612991565b612999565b8273ffffffffffffffffffffffffffffffffffffffff1663095ea7b386896040518363ffffffff1660e01b8152600401612305929190614990565b602060405180830381600087803b15801561231f57600080fd5b505af1158015612333573d6000803e3d6000fd5b505050506040513d601f19601f820116820180604052508101906123579190613fda565b50600f60009054906101000a900473ffffffffffffffffffffffffffffffffffffffff1673ffffffffffffffffffffffffffffffffffffffff1663095ea7b386896040518363ffffffff1660e01b81526004016123b5929190614990565b602060405180830381600087803b1580156123cf57600080fd5b505af11580156123e3573d6000803e3d6000fd5b505050506040513d601f19601f820116820180604052508101906124079190613fda565b508473ffffffffffffffffffffffffffffffffffffffff1663573ade81600f60009054906101000a900473ffffffffffffffffffffffffffffffffffffffff168985306040518563ffffffff1660e01b81526004016124699493929190614a6c565b602060405180830381600087803b15801561248357600080fd5b505af1158015612497573d6000803e3d6000fd5b505050506040513d601f19601f820116820180604052508101906124bb9190614169565b508373ffffffffffffffffffffffffffffffffffffffff1663095ea7b386886040518363ffffffff1660e01b81526004016124f7929190614990565b602060405180830381600087803b15801561251157600080fd5b505af1158015612525573d6000803e3d6000fd5b505050506040513d601f19601f820116820180604052508101906125499190613fda565b508473ffffffffffffffffffffffffffffffffffffffff166369328dec600f60009054906101000a900473ffffffffffffffffffffffffffffffffffffffff1688306040518463ffffffff1660e01b81526004016125a9939291906149b9565b602060405180830381600087803b1580156125c357600080fd5b505af11580156125d7573d6000803e3d6000fd5b505050506040513d601f19601f820116820180604052508101906125fb9190614169565b5050505050505050565b600c60009054906101000a900473ffffffffffffffffffffffffffffffffffffffff1681565b7fa49807205ce4d355092ef5a8a18f56e8913cf4a201fbe287825b095693c2177561265d81612658612991565b612999565b600f60009054906101000a900473ffffffffffffffffffffffffffffffffffffffff1673ffffffffffffffffffffffffffffffffffffffff166339509351600e60009054906101000a900473ffffffffffffffffffffffffffffffffffffffff16866040518363ffffffff1660e01b81526004016126dc929190614990565b602060405180830381600087803b1580156126f657600080fd5b505af115801561270a573d6000803e3d6000fd5b505050506040513d601f19601f8201168201806040525081019061272e9190613fda565b506000600267ffffffffffffffff81111561274c5761274b6153d7565b5b60405190808252806020026020018201604052801561277a5781602001602082028036833780820191505090505b509050600f60009054906101000a900473ffffffffffffffffffffffffffffffffffffffff16816000815181106127b4576127b36153a8565b5b602002602001019073ffffffffffffffffffffffffffffffffffffffff16908173ffffffffffffffffffffffffffffffffffffffff1681525050601060009054906101000a900473ffffffffffffffffffffffffffffffffffffffff1681600181518110612825576128246153a8565b5b602002602001019073ffffffffffffffffffffffffffffffffffffffff16908173ffffffffffffffffffffffffffffffffffffffff1681525050600e60009054906101000a900473ffffffffffffffffffffffffffffffffffffffff1673ffffffffffffffffffffffffffffffffffffffff166338ed173986868430886040518663ffffffff1660e01b81526004016128c2959493929190614da5565b600060405180830381600087803b1580156128dc57600080fd5b505af11580156128f0573d6000803e3d6000fd5b505050506040513d6000823e3d601f19601f820116820180604052508101906129199190613f64565b505050505050565b600b5481565b60007f01ffc9a7000000000000000000000000000000000000000000000000000000007bffffffffffffffffffffffffffffffffffffffffffffffffffffffff1916827bffffffffffffffffffffffffffffffffffffffffffffffffffffffff1916149050919050565b600033905090565b6129a38282611983565b612a32576129c88173ffffffffffffffffffffffffffffffffffffffff1660146135cf565b6129d68360001c60206135cf565b6040516020016129e79291906148cd565b6040516020818303038152906040526040517f08c379a0000000000000000000000000000000000000000000000000000000008152600401612a299190614b63565b60405180910390fd5b5050565b600073ffffffffffffffffffffffffffffffffffffffff168373ffffffffffffffffffffffffffffffffffffffff161415612aa6576040517f08c379a0000000000000000000000000000000000000000000000000000000008152600401612a9d90614cc5565b60405180910390fd5b600073ffffffffffffffffffffffffffffffffffffffff168273ffffffffffffffffffffffffffffffffffffffff161415612b16576040517f08c379a0000000000000000000000000000000000000000000000000000000008152600401612b0d90614c05565b60405180910390fd5b80600160008573ffffffffffffffffffffffffffffffffffffffff1673ffffffffffffffffffffffffffffffffffffffff16815260200190815260200160002060008473ffffffffffffffffffffffffffffffffffffffff1673ffffffffffffffffffffffffffffffffffffffff168152602001908152602001600020819055508173ffffffffffffffffffffffffffffffffffffffff168373ffffffffffffffffffffffffffffffffffffffff167f8c5be1e5ebec7d5bd14f71427d1e84f3dd0314c0f7b2291e5b200ac8c7c3b92583604051612bf49190614d61565b60405180910390a3505050565b600073ffffffffffffffffffffffffffffffffffffffff168373ffffffffffffffffffffffffffffffffffffffff161415612c71576040517f08c379a0000000000000000000000000000000000000000000000000000000008152600401612c6890614ca5565b60405180910390fd5b600073ffffffffffffffffffffffffffffffffffffffff168273ffffffffffffffffffffffffffffffffffffffff161415612ce1576040517f08c379a0000000000000000000000000000000000000000000000000000000008152600401612cd890614bc5565b60405180910390fd5b612cec83838361380b565b60008060008573ffffffffffffffffffffffffffffffffffffffff1673ffffffffffffffffffffffffffffffffffffffff16815260200190815260200160002054905081811015612d72576040517f08c379a0000000000000000000000000000000000000000000000000000000008152600401612d6990614c25565b60405180910390fd5b8181612d7e919061508b565b6000808673ffffffffffffffffffffffffffffffffffffffff1673ffffffffffffffffffffffffffffffffffffffff16815260200190815260200160002081905550816000808573ffffffffffffffffffffffffffffffffffffffff1673ffffffffffffffffffffffffffffffffffffffff1681526020019081526020016000206000828254612e0e9190614fdb565b925050819055508273ffffffffffffffffffffffffffffffffffffffff168473ffffffffffffffffffffffffffffffffffffffff167fddf252ad1be2c89b69c2b068fc378daa952ba7f163c4a11628f55a4df523b3ef84604051612e729190614d61565b60405180910390a350505050565b612e8a8282611983565b612f5d5760016005600084815260200190815260200160002060000160008373ffffffffffffffffffffffffffffffffffffffff1673ffffffffffffffffffffffffffffffffffffffff16815260200190815260200160002060006101000a81548160ff021916908315150217905550612f02612991565b73ffffffffffffffffffffffffffffffffffffffff168173ffffffffffffffffffffffffffffffffffffffff16837f2f8788117e7eff1d82e926ec794901d17c78024a50270940304540a733656f0d60405160405180910390a45b5050565b612f6b8282611983565b1561303f5760006005600084815260200190815260200160002060000160008373ffffffffffffffffffffffffffffffffffffffff1673ffffffffffffffffffffffffffffffffffffffff16815260200190815260200160002060006101000a81548160ff021916908315150217905550612fe4612991565b73ffffffffffffffffffffffffffffffffffffffff168173ffffffffffffffffffffffffffffffffffffffff16837ff6391f5c32d9c69d2a47ea670b442974b53935d1edc7fd64eb21e047a839171b60405160405180910390a45b5050565b60008060008019858709858702925082811083820303915050600081141561307e576000841161307257600080fd5b83820492505050613138565b80841161308a57600080fd5b60008486880990508281118203915080830392506000856001877fffffffffffffffffffffffffffffffffffffffffffffffffffffffffffffffff0301169050808604955080840493506001818260000304019050808302841793506000600287600302189050808702600203810290508087026002038102905080870260020381029050808702600203810290508087026002038102905080870260020381029050808502955050505050505b9392505050565b6000806000905060005b6131536007613292565b81101561323a57600960009054906101000a900473ffffffffffffffffffffffffffffffffffffffff1673ffffffffffffffffffffffffffffffffffffffff1663105df8566131ac83600761327890919063ffffffff16565b866040518363ffffffff1660e01b81526004016131ca929190614d7c565b60206040518083038186803b1580156131e257600080fd5b505afa1580156131f6573d6000803e3d6000fd5b505050506040513d601f19601f8201168201806040525081019061321a9190614169565b826132259190614fdb565b91508080613232906152a3565b915050613149565b5080915050919050565b6000613256836000018360001b613810565b905092915050565b6000613270836000018360001b613880565b905092915050565b6000613287836000018361398c565b60001c905092915050565b60006132a082600001613a00565b9050919050565b600073ffffffffffffffffffffffffffffffffffffffff168273ffffffffffffffffffffffffffffffffffffffff161415613317576040517f08c379a000000000000000000000000000000000000000000000000000000000815260040161330e90614d25565b60405180910390fd5b6133236000838361380b565b80600260008282546133359190614fdb565b92505081905550806000808473ffffffffffffffffffffffffffffffffffffffff1673ffffffffffffffffffffffffffffffffffffffff168152602001908152602001600020600082825461338a9190614fdb565b925050819055508173ffffffffffffffffffffffffffffffffffffffff16600073ffffffffffffffffffffffffffffffffffffffff167fddf252ad1be2c89b69c2b068fc378daa952ba7f163c4a11628f55a4df523b3ef836040516133ef9190614d61565b60405180910390a35050565b600073ffffffffffffffffffffffffffffffffffffffff168273ffffffffffffffffffffffffffffffffffffffff16141561346b576040517f08c379a000000000000000000000000000000000000000000000000000000000815260040161346290614c85565b60405180910390fd5b6134778260008361380b565b60008060008473ffffffffffffffffffffffffffffffffffffffff1673ffffffffffffffffffffffffffffffffffffffff168152602001908152602001600020549050818110156134fd576040517f08c379a00000000000000000000000000000000000000000000000000000000081526004016134f490614be5565b60405180910390fd5b8181613509919061508b565b6000808573ffffffffffffffffffffffffffffffffffffffff1673ffffffffffffffffffffffffffffffffffffffff16815260200190815260200160002081905550816002600082825461355d919061508b565b92505081905550600073ffffffffffffffffffffffffffffffffffffffff168373ffffffffffffffffffffffffffffffffffffffff167fddf252ad1be2c89b69c2b068fc378daa952ba7f163c4a11628f55a4df523b3ef846040516135c29190614d61565b60405180910390a3505050565b6060600060028360026135e29190615031565b6135ec9190614fdb565b67ffffffffffffffff811115613605576136046153d7565b5b6040519080825280601f01601f1916602001820160405280156136375781602001600182028036833780820191505090505b5090507f30000000000000000000000000000000000000000000000000000000000000008160008151811061366f5761366e6153a8565b5b60200101907effffffffffffffffffffffffffffffffffffffffffffffffffffffffffffff1916908160001a9053507f7800000000000000000000000000000000000000000000000000000000000000816001815181106136d3576136d26153a8565b5b60200101907effffffffffffffffffffffffffffffffffffffffffffffffffffffffffffff1916908160001a905350600060018460026137139190615031565b61371d9190614fdb565b90505b60018111156137bd577f3031323334353637383961626364656600000000000000000000000000000000600f86166010811061375f5761375e6153a8565b5b1a60f81b828281518110613776576137756153a8565b5b60200101907effffffffffffffffffffffffffffffffffffffffffffffffffffffffffffff1916908160001a905350600485901c9450806137b690615216565b9050613720565b5060008414613801576040517f08c379a00000000000000000000000000000000000000000000000000000000081526004016137f890614ba5565b60405180910390fd5b8091505092915050565b505050565b600061381c8383613a11565b61387557826000018290806001815401808255809150506001900390600052602060002001600090919091909150558260000180549050836001016000848152602001908152602001600020819055506001905061387a565b600090505b92915050565b600080836001016000848152602001908152602001600020549050600081146139805760006001826138b2919061508b565b90506000600186600001805490506138ca919061508b565b905060008660000182815481106138e4576138e36153a8565b5b9060005260206000200154905080876000018481548110613908576139076153a8565b5b906000526020600020018190555083876001016000838152602001908152602001600020819055508660000180548061394457613943615379565b5b60019003818190600052602060002001600090559055866001016000878152602001908152602001600020600090556001945050505050613986565b60009150505b92915050565b6000818360000180549050116139d7576040517f08c379a00000000000000000000000000000000000000000000000000000000081526004016139ce90614b85565b60405180910390fd5b8260000182815481106139ed576139ec6153a8565b5b9060005260206000200154905092915050565b600081600001805490509050919050565b600080836001016000848152602001908152602001600020541415905092915050565b60405180610200016040528060006001811115613a5457613a5361531b565b5b815260200160006001811115613a6d57613a6c61531b565b5b815260200160006003811115613a8657613a8561531b565b5b8152602001600073ffffffffffffffffffffffffffffffffffffffff1681526020016000815260200160008152602001600081526020016000815260200160008152602001600081526020016000815260200160008152602001600081526020016000815260200160008152602001600081525090565b6000613b10613b0b84614ebb565b614e96565b90508083825260208201905082856020860282011115613b3357613b32615410565b5b60005b85811015613b635781613b498882613dfc565b845260208401935060208301925050600181019050613b36565b5050509392505050565b600081359050613b7c8161589e565b92915050565b600081519050613b918161589e565b92915050565b600082601f830112613bac57613bab615406565b5b8151613bbc848260208601613afd565b91505092915050565b600081359050613bd4816158b5565b92915050565b600081519050613be9816158b5565b92915050565b600081359050613bfe816158cc565b92915050565b600081359050613c13816158e3565b92915050565b600081519050613c28816158fa565b92915050565b600081519050613c3d8161590a565b92915050565b600081519050613c528161591a565b92915050565b600081519050613c678161592a565b92915050565b60006102008284031215613c8457613c8361540b565b5b613c8f610200614e96565b90506000613c9f84828501613c43565b6000830152506020613cb384828501613c19565b6020830152506040613cc784828501613c2e565b6040830152506060613cdb84828501613b82565b6060830152506080613cef84828501613dfc565b60808301525060a0613d0384828501613dfc565b60a08301525060c0613d1784828501613dfc565b60c08301525060e0613d2b84828501613dfc565b60e083015250610100613d4084828501613dfc565b61010083015250610120613d5684828501613dfc565b61012083015250610140613d6c84828501613dfc565b61014083015250610160613d8284828501613dfc565b61016083015250610180613d9884828501613dfc565b610180830152506101a0613dae84828501613dfc565b6101a0830152506101c0613dc484828501613dfc565b6101c0830152506101e0613dda84828501613dfc565b6101e08301525092915050565b600081359050613df681615941565b92915050565b600081519050613e0b81615941565b92915050565b600060208284031215613e2757613e2661541a565b5b6000613e3584828501613b6d565b91505092915050565b60008060408385031215613e5557613e5461541a565b5b6000613e6385828601613b6d565b9250506020613e7485828601613b6d565b9150509250929050565b600080600060608486031215613e9757613e9661541a565b5b6000613ea586828701613b6d565b9350506020613eb686828701613b6d565b9250506040613ec786828701613de7565b9150509250925092565b60008060408385031215613ee857613ee761541a565b5b6000613ef685828601613b6d565b9250506020613f0785828601613de7565b9150509250929050565b600080600060608486031215613f2a57613f2961541a565b5b6000613f3886828701613b6d565b9350506020613f4986828701613de7565b9250506040613f5a86828701613bc5565b9150509250925092565b600060208284031215613f7a57613f7961541a565b5b600082015167ffffffffffffffff811115613f9857613f97615415565b5b613fa484828501613b97565b91505092915050565b600060208284031215613fc357613fc261541a565b5b6000613fd184828501613bc5565b91505092915050565b600060208284031215613ff057613fef61541a565b5b6000613ffe84828501613bda565b91505092915050565b6000806040838503121561401e5761401d61541a565b5b600061402c85828601613bc5565b925050602061403d85828601613bc5565b9150509250929050565b60006020828403121561405d5761405c61541a565b5b600061406b84828501613bef565b91505092915050565b6000806040838503121561408b5761408a61541a565b5b600061409985828601613bef565b92505060206140aa85828601613b6d565b9150509250929050565b6000602082840312156140ca576140c961541a565b5b60006140d884828501613c04565b91505092915050565b6000602082840312156140f7576140f661541a565b5b600061410584828501613c58565b91505092915050565b600061020082840312156141255761412461541a565b5b600061413384828501613c6d565b91505092915050565b6000602082840312156141525761415161541a565b5b600061416084828501613de7565b91505092915050565b60006020828403121561417f5761417e61541a565b5b600061418d84828501613dfc565b91505092915050565b600080604083850312156141ad576141ac61541a565b5b60006141bb85828601613de7565b92505060206141cc85828601613b6d565b9150509250929050565b600080604083850312156141ed576141ec61541a565b5b60006141fb85828601613dfc565b925050602061420c85828601613dfc565b9150509250929050565b60008060008060008060c087890312156142335761423261541a565b5b600061424189828a01613de7565b965050602061425289828a01613de7565b955050604061426389828a01613b6d565b945050606061427489828a01613b6d565b935050608061428589828a01613b6d565b92505060a061429689828a01613de7565b9150509295509295509295565b600080600080608085870312156142bd576142bc61541a565b5b60006142cb87828801613de7565b94505060206142dc87828801613de7565b93505060406142ed87828801613b6d565b92505060606142fe87828801613de7565b91505092959194509250565b6000806000606084860312156143235761432261541a565b5b600061433186828701613de7565b935050602061434286828701613de7565b925050604061435386828701613de7565b9150509250925092565b6000806000606084860312156143765761437561541a565b5b600061438486828701613dfc565b935050602061439586828701613dfc565b92505060406143a686828701613dfc565b9150509250925092565b60006143bc83836143c8565b60208301905092915050565b6143d1816150bf565b82525050565b6143e0816150bf565b82525050565b6143ef816150bf565b82525050565b600061440082614ef7565b61440a8185614f1a565b935061441583614ee7565b8060005b8381101561444657815161442d88826143b0565b975061443883614f0d565b925050600181019050614419565b5085935050505092915050565b61445c816150d1565b82525050565b61446b816150dd565b82525050565b61447a8161519b565b82525050565b614489816151ad565b82525050565b614498816151bf565b82525050565b6144a78161514c565b82525050565b6144b6816151d1565b82525050565b60006144c782614f02565b6144d18185614f2b565b93506144e18185602086016151e3565b6144ea8161541f565b840191505092915050565b600061450082614f02565b61450a8185614f3c565b935061451a8185602086016151e3565b80840191505092915050565b6000614533602283614f2b565b915061453e82615430565b604082019050919050565b6000614556602083614f2b565b91506145618261547f565b602082019050919050565b6000614579602383614f2b565b9150614584826154a8565b604082019050919050565b600061459c602283614f2b565b91506145a7826154f7565b604082019050919050565b60006145bf602283614f2b565b91506145ca82615546565b604082019050919050565b60006145e2602683614f2b565b91506145ed82615595565b604082019050919050565b6000614605602883614f2b565b9150614610826155e4565b604082019050919050565b6000614628601683614f2b565b915061463382615633565b602082019050919050565b600061464b602183614f2b565b91506146568261565c565b604082019050919050565b600061466e602583614f2b565b9150614679826156ab565b604082019050919050565b6000614691602483614f2b565b915061469c826156fa565b604082019050919050565b60006146b4601783614f3c565b91506146bf82615749565b601782019050919050565b60006146d7602583614f2b565b91506146e282615772565b604082019050919050565b60006146fa601183614f3c565b9150614705826157c1565b601182019050919050565b600061471d602f83614f2b565b9150614728826157ea565b604082019050919050565b6000614740601f83614f2b565b915061474b82615839565b602082019050919050565b6102008201600082015161476d600085018261448f565b5060208201516147806020850182614471565b5060408201516147936040850182614480565b5060608201516147a660608501826143c8565b5060808201516147b960808501826148a0565b5060a08201516147cc60a08501826148a0565b5060c08201516147df60c08501826148a0565b5060e08201516147f260e08501826148a0565b506101008201516148076101008501826148a0565b5061012082015161481c6101208501826148a0565b506101408201516148316101408501826148a0565b506101608201516148466101608501826148a0565b5061018082015161485b6101808501826148a0565b506101a08201516148706101a08501826148a0565b506101c08201516148856101c08501826148a0565b506101e082015161489a6101e08501826148a0565b50505050565b6148a981615184565b82525050565b6148b881615184565b82525050565b6148c78161518e565b82525050565b60006148d8826146a7565b91506148e482856144f5565b91506148ef826146ed565b91506148fb82846144f5565b91508190509392505050565b600060208201905061491c60008301846143d7565b92915050565b600060608201905061493760008301866143e6565b61494460208301856143e6565b61495160408301846143e6565b949350505050565b600060608201905061496e60008301866143d7565b61497b60208301856143d7565b61498860408301846148af565b949350505050565b60006040820190506149a560008301856143d7565b6149b260208301846148af565b9392505050565b60006060820190506149ce60008301866143d7565b6149db60208301856148af565b6149e860408301846143d7565b949350505050565b6000608082019050614a0560008301876143d7565b614a1260208301866148af565b614a1f60408301856143d7565b614a2c60608301846144ad565b95945050505050565b6000606082019050614a4a60008301866143d7565b614a5760208301856148af565b614a6460408301846148af565b949350505050565b6000608082019050614a8160008301876143d7565b614a8e60208301866148af565b614a9b60408301856148af565b614aa860608301846143d7565b95945050505050565b600060a082019050614ac660008301886143d7565b614ad360208301876148af565b614ae060408301866148af565b614aed60608301856144ad565b614afa60808301846143d7565b9695505050505050565b6000602082019050614b196000830184614453565b92915050565b6000602082019050614b346000830184614462565b92915050565b6000604082019050614b4f600083018561449e565b614b5c60208301846148af565b9392505050565b60006020820190508181036000830152614b7d81846144bc565b905092915050565b60006020820190508181036000830152614b9e81614526565b9050919050565b60006020820190508181036000830152614bbe81614549565b9050919050565b60006020820190508181036000830152614bde8161456c565b9050919050565b60006020820190508181036000830152614bfe8161458f565b9050919050565b60006020820190508181036000830152614c1e816145b2565b9050919050565b60006020820190508181036000830152614c3e816145d5565b9050919050565b60006020820190508181036000830152614c5e816145f8565b9050919050565b60006020820190508181036000830152614c7e8161461b565b9050919050565b60006020820190508181036000830152614c9e8161463e565b9050919050565b60006020820190508181036000830152614cbe81614661565b9050919050565b60006020820190508181036000830152614cde81614684565b9050919050565b60006020820190508181036000830152614cfe816146ca565b9050919050565b60006020820190508181036000830152614d1e81614710565b9050919050565b60006020820190508181036000830152614d3e81614733565b9050919050565b600061020082019050614d5b6000830184614756565b92915050565b6000602082019050614d7660008301846148af565b92915050565b6000604082019050614d9160008301856148af565b614d9e6020830184614453565b9392505050565b600060a082019050614dba60008301886148af565b614dc760208301876148af565b8181036040830152614dd981866143f5565b9050614de860608301856143d7565b614df560808301846148af565b9695505050505050565b6000606082019050614e1460008301866148af565b614e2160208301856148af565b614e2e6040830184614453565b949350505050565b6000608082019050614e4b60008301876148af565b614e5860208301866148af565b614e6560408301856148af565b614e7260608301846148af565b95945050505050565b6000602082019050614e9060008301846148be565b92915050565b6000614ea0614eb1565b9050614eac8282615272565b919050565b6000604051905090565b600067ffffffffffffffff821115614ed657614ed56153d7565b5b602082029050602081019050919050565b6000819050602082019050919050565b600081519050919050565b600081519050919050565b6000602082019050919050565b600082825260208201905092915050565b600082825260208201905092915050565b600081905092915050565b6000614f528261514c565b9150614f5d8361514c565b9250817f7fffffffffffffffffffffffffffffffffffffffffffffffffffffffffffffff03831360008312151615614f9857614f976152ec565b5b817f8000000000000000000000000000000000000000000000000000000000000000038312600083121615614fd057614fcf6152ec565b5b828201905092915050565b6000614fe682615184565b9150614ff183615184565b9250827fffffffffffffffffffffffffffffffffffffffffffffffffffffffffffffffff03821115615026576150256152ec565b5b828201905092915050565b600061503c82615184565b915061504783615184565b9250817fffffffffffffffffffffffffffffffffffffffffffffffffffffffffffffffff04831182151516156150805761507f6152ec565b5b828202905092915050565b600061509682615184565b91506150a183615184565b9250828210156150b4576150b36152ec565b5b828203905092915050565b60006150ca82615164565b9050919050565b60008115159050919050565b6000819050919050565b60007fffffffff0000000000000000000000000000000000000000000000000000000082169050919050565b600081905061512182615862565b919050565b600081905061513482615876565b919050565b60008190506151478261588a565b919050565b6000819050919050565b600061ffff82169050919050565b600073ffffffffffffffffffffffffffffffffffffffff82169050919050565b6000819050919050565b600060ff82169050919050565b60006151a682615113565b9050919050565b60006151b882615126565b9050919050565b60006151ca82615139565b9050919050565b60006151dc82615156565b9050919050565b60005b838110156152015780820151818401526020810190506151e6565b83811115615210576000848401525b50505050565b600061522182615184565b91506000821415615235576152346152ec565b5b600182039050919050565b6000600282049050600182168061525857607f821691505b6020821081141561526c5761526b61534a565b5b50919050565b61527b8261541f565b810181811067ffffffffffffffff8211171561529a576152996153d7565b5b80604052505050565b60006152ae82615184565b91507fffffffffffffffffffffffffffffffffffffffffffffffffffffffffffffffff8214156152e1576152e06152ec565b5b600182019050919050565b7f4e487b7100000000000000000000000000000000000000000000000000000000600052601160045260246000fd5b7f4e487b7100000000000000000000000000000000000000000000000000000000600052602160045260246000fd5b7f4e487b7100000000000000000000000000000000000000000000000000000000600052602260045260246000fd5b7f4e487b7100000000000000000000000000000000000000000000000000000000600052603160045260246000fd5b7f4e487b7100000000000000000000000000000000000000000000000000000000600052603260045260246000fd5b7f4e487b7100000000000000000000000000000000000000000000000000000000600052604160045260246000fd5b600080fd5b600080fd5b600080fd5b600080fd5b600080fd5b6000601f19601f8301169050919050565b7f456e756d657261626c655365743a20696e646578206f7574206f6620626f756e60008201527f6473000000000000000000000000000000000000000000000000000000000000602082015250565b7f537472696e67733a20686578206c656e67746820696e73756666696369656e74600082015250565b7f45524332303a207472616e7366657220746f20746865207a65726f206164647260008201527f6573730000000000000000000000000000000000000000000000000000000000602082015250565b7f45524332303a206275726e20616d6f756e7420657863656564732062616c616e60008201527f6365000000000000000000000000000000000000000000000000000000000000602082015250565b7f45524332303a20617070726f766520746f20746865207a65726f20616464726560008201527f7373000000000000000000000000000000000000000000000000000000000000602082015250565b7f45524332303a207472616e7366657220616d6f756e742065786365656473206260008201527f616c616e63650000000000000000000000000000000000000000000000000000602082015250565b7f45524332303a207472616e7366657220616d6f756e742065786365656473206160008201527f6c6c6f77616e6365000000000000000000000000000000000000000000000000602082015250565b7f4361706974616c20526174696f20746f6f206269672e00000000000000000000600082015250565b7f45524332303a206275726e2066726f6d20746865207a65726f2061646472657360008201527f7300000000000000000000000000000000000000000000000000000000000000602082015250565b7f45524332303a207472616e736665722066726f6d20746865207a65726f20616460008201527f6472657373000000000000000000000000000000000000000000000000000000602082015250565b7f45524332303a20617070726f76652066726f6d20746865207a65726f2061646460008201527f7265737300000000000000000000000000000000000000000000000000000000602082015250565b7f416363657373436f6e74726f6c3a206163636f756e7420000000000000000000600082015250565b7f45524332303a2064656372656173656420616c6c6f77616e63652062656c6f7760008201527f207a65726f000000000000000000000000000000000000000000000000000000602082015250565b7f206973206d697373696e6720726f6c6520000000000000000000000000000000600082015250565b7f416363657373436f6e74726f6c3a2063616e206f6e6c792072656e6f756e636560008201527f20726f6c657320666f722073656c660000000000000000000000000000000000602082015250565b7f45524332303a206d696e7420746f20746865207a65726f206164647265737300600082015250565b600281106158735761587261531b565b5b50565b600481106158875761588661531b565b5b50565b6002811061589b5761589a61531b565b5b50565b6158a7816150bf565b81146158b257600080fd5b50565b6158be816150d1565b81146158c957600080fd5b50565b6158d5816150dd565b81146158e057600080fd5b50565b6158ec816150e7565b81146158f757600080fd5b50565b6002811061590757600080fd5b50565b6004811061591757600080fd5b50565b6002811061592757600080fd5b50565b6159338161514c565b811461593e57600080fd5b50565b61594a81615184565b811461595557600080fd5b5056fea2646970667358221220435726301a7d6720839689dcfb38c4e2bad8fadc3688c02cec5bdedffbe42f2564736f6c63430008070033",
  "immutableReferences": {},
  "source": "/**\n * SPDX-License-Identifier: GPL-3.0-or-later\n * Moret\n * Copyright (C) 2021 Moret\n*/\n\npragma solidity 0.8.7;\n\nimport \"@openzeppelin/contracts/token/ERC20/ERC20.sol\";\nimport \"@openzeppelin/contracts/access/AccessControl.sol\";\nimport \"@openzeppelin/contracts/utils/structs/EnumerableSet.sol\";\nimport \"./MoretInterfaces.sol\";\nimport \"./MarketInterfaces.sol\";\nimport \"./FullMath.sol\";\nimport \"./MarketLibrary.sol\";\n\ncontract MoretMarketMaker is ERC20, AccessControl, EOption\n{\n  using EnumerableSet for EnumerableSet.UintSet;\n  using EnumerableSet for EnumerableSet.AddressSet;\n\n  bytes32 public constant ADMIN_ROLE = keccak256(\"ADMIN_ROLE\");\n  bytes32 public constant EXCHANGE_ROLE = keccak256(\"EXCHANGE_ROLE\");\n\n  uint256 private constant ethMultiplier = 10 ** 18;\n\n  mapping(address=> EnumerableSet.UintSet) internal activeOptionsPerOwner;\n  EnumerableSet.UintSet internal activeOptions;\n\n  IOptionVault internal optionVault;\n\n  uint256 public capitalRatio = 10 ** 18;\n  uint256 public updateInterval = 1800;\n\n  address public lendingPoolAddressProviderAddress;\n  address public protocolDataProviderAddress;\n  address public swapRouterAddress;\n  address public underlyingAddress;\n  address public fundingAddress;\n\n  constructor(\n    string memory _name,\n    string memory _symbol,\n    address _underlyingAddress,\n    address _fundingAddress,\n    address _optionAddress,\n    address _swapRouterAddress,\n    address _lendingPoolAddressProvider,\n    address _protocolDataProviderAddress\n    )\n    ERC20(_name, _symbol)\n    {\n        _setupRole(DEFAULT_ADMIN_ROLE, msg.sender);\n        _setupRole(ADMIN_ROLE, msg.sender);\n        _setupRole(EXCHANGE_ROLE, msg.sender);\n\n        swapRouterAddress = _swapRouterAddress;\n        lendingPoolAddressProviderAddress = _lendingPoolAddressProvider;\n        protocolDataProviderAddress = _protocolDataProviderAddress;\n\n        fundingAddress = _fundingAddress;\n        underlyingAddress = _underlyingAddress;\n        optionVault = IOptionVault(_optionAddress);\n\n        _mint(msg.sender, ethMultiplier);\n    }\n\n    function recordOption(address _purchaser, uint256 _id, bool _isNew)\n      external  onlyRole(EXCHANGE_ROLE)\n    {\n      if(_isNew)\n      {\n        activeOptionsPerOwner[_purchaser].add(_id);\n        activeOptions.add(_id);\n      }\n\n      if(!_isNew)\n      {\n        activeOptionsPerOwner[_purchaser].remove(_id);\n        activeOptions.remove(_id);\n      }\n    }\n\n    function getAggregateDelta(bool _ignoreSells) public view returns(int256, uint256){\n      (uint256 _price,) = optionVault.queryPrice();\n\n      int256 _delta= 0;\n      for(uint256 i=0;i<activeOptions.length();i++)\n      {\n        _delta += optionVault.calculateContractDelta(uint256(activeOptions.at(i)),_price, _ignoreSells);\n      }\n      return (_delta, _price);\n    }\n\n    function getAggregateNotional(bool _ignoreSells) internal view returns(uint256)\n    {\n      uint256 _notional= 0;\n      for(uint256 i=0;i<activeOptions.length();i++)\n      {\n        _notional += optionVault.queryOptionNotional(uint256(activeOptions.at(i)), _ignoreSells);\n      }\n      return _notional;\n    }\n\n    function getBalances() public view returns(uint256, uint256, uint256, uint256)\n    {\n      (uint256 _underlyingBalance, , uint256 _debtBalance) = MarketLibrary.getTokenBalances(address(this), protocolDataProviderAddress, underlyingAddress);\n      (uint256 _fundingBalance, uint256 _collateralBalance,) = MarketLibrary.getTokenBalances(address(this), protocolDataProviderAddress, fundingAddress);\n      return (_underlyingBalance, _fundingBalance, _collateralBalance, _debtBalance);\n    }\n\n    function swapToUnderlying(uint256 _swapAmount, uint256 _maxCost, uint256 _deadline) external onlyRole(ADMIN_ROLE)\n    {\n      ERC20(fundingAddress).increaseAllowance(swapRouterAddress, _maxCost);\n\n      address[] memory path = new address[](2);\n      path[0] = fundingAddress;\n      path[1]= underlyingAddress;\n\n      //uint[] memory _swapped = I\n      IUniswapV2Router02(swapRouterAddress).swapTokensForExactTokens(_swapAmount, _maxCost, path, address(this), _deadline);\n    }\n\n    function swapToFunding(uint256 _swapAmount, uint256 _minReturn, uint256 _deadline) external onlyRole(ADMIN_ROLE)\n    {\n      ERC20(underlyingAddress).increaseAllowance(swapRouterAddress, _swapAmount);\n\n      address[] memory path = new address[](2);\n      path[0] = underlyingAddress;\n      path[1] = fundingAddress;\n\n      //uint[] memory _swapped = \n      IUniswapV2Router02(swapRouterAddress).swapExactTokensForTokens(_swapAmount, _minReturn, path, address(this), _deadline);\n    }\n\n    function borrowHedge(uint256 _borrowAmount, uint256 _collateralAdjust, \n    address _lendingPoolAddress, \n    uint256 _lendingPoolRateMode) \n    external onlyRole(ADMIN_ROLE)\n    {\n      // deposit collaterals\n      ERC20(underlyingAddress).approve(_lendingPoolAddress, _collateralAdjust);\n      ILendingPool(_lendingPoolAddress).deposit(underlyingAddress,_collateralAdjust, address(this), 0);\n      // borrow\n      ILendingPool(_lendingPoolAddress).borrow(underlyingAddress, _borrowAmount, _lendingPoolRateMode,  0, address(this));\n    }\n\n    function repayHedge(uint256 _repayAmount, uint256 _collateralAdjust, \n    address _lendingPoolAddress, address _aToken, address _debtToken, \n    uint256 _lendingPoolRateMode) \n    external onlyRole(ADMIN_ROLE)\n    {\n      // repay all borrowing first\n      ERC20(_debtToken).approve(_lendingPoolAddress, _repayAmount);\n      ERC20(underlyingAddress).approve(_lendingPoolAddress, _repayAmount);\n      ILendingPool(_lendingPoolAddress).repay(underlyingAddress, _repayAmount, _lendingPoolRateMode, address(this));\n      // withdraw collaterals\n      ERC20(_aToken).approve(_lendingPoolAddress, _collateralAdjust);\n      ILendingPool(_lendingPoolAddress).withdraw(underlyingAddress, _collateralAdjust, address(this));\n    }\n\n    function addCapital(uint256 _depositAmount) external {\n        uint256 _averageGrossCapital = calcCapital(false, true);\n        require(_averageGrossCapital>0);\n\n        uint256 _mintMPTokenAmount = MulDiv(_depositAmount, ethMultiplier, _averageGrossCapital);\n\n        require(ERC20(fundingAddress).transferFrom(msg.sender, address(this), _depositAmount));\n\n        _mint(msg.sender, _mintMPTokenAmount);\n\n        emit capitalAdded(msg.sender, _depositAmount, _mintMPTokenAmount);\n    }\n\n\n    function withdrawCapital(uint256 _burnMPTokenAmount) external {\n        uint256 _withdrawValue = MulDiv(calcCapital(true, true),  _burnMPTokenAmount , ethMultiplier);\n\n        _burn(msg.sender, _burnMPTokenAmount);\n\n        require(ERC20(fundingAddress).transfer(msg.sender, _withdrawValue));\n\n        emit capitalWithdrawn(msg.sender, _burnMPTokenAmount, _withdrawValue);\n    }\n\n    function calcCapital(bool _net, bool _average) public view returns(uint256){\n        (uint256 _price,) = optionVault.queryPrice();\n\n        (uint256 _underlying_balance, uint256 _funding_balance, uint256 _collateral_balance, uint256 _debt_balance) = getBalances();\n        \n        uint256 _capital = _funding_balance + _collateral_balance\n          + MulDiv(_underlying_balance, _price, optionVault.priceMultiplier()) \n          - MulDiv(_debt_balance, _price, optionVault.priceMultiplier()) ;\n\n        if(_net)\n        {\n          (int256 _delta, ) = getAggregateDelta(true);\n          uint256 _utilisedCapital = MulDiv(uint256(_delta), ethMultiplier - capitalRatio, ethMultiplier) + MulDiv(getAggregateNotional(true), capitalRatio, ethMultiplier); \n          _capital -= (_capital <= _utilisedCapital? _capital: _utilisedCapital);\n        }\n\n        if(_average)\n        {\n          _capital = MulDiv(_capital , ethMultiplier , totalSupply());\n        }\n        return _capital;\n    }\n    \n    function resetCapitalRatio(uint256 _newCapitalRatio) external onlyRole(ADMIN_ROLE){ \n      require(_newCapitalRatio<=ethMultiplier, \"Capital Ratio too big.\");\n      capitalRatio=_newCapitalRatio;\n    }\n    \n    function resetUpdateInterval(uint256 _newUpdateInterval) external onlyRole(ADMIN_ROLE){ updateInterval=_newUpdateInterval;}\n\n    function payExchange(uint256 _payment, address _exchangeAddress) public onlyRole(EXCHANGE_ROLE){\n      require(ERC20(underlyingAddress).transfer(_exchangeAddress, _payment));\n    }\n\n    function getPriceMultiplier() external view returns(uint256) {return optionVault.priceMultiplier();}\n    function getHoldersOptionCount(address _address) external view returns(uint256){return activeOptionsPerOwner[_address].length();}\n    function getHoldersOption(uint256 _index, address _address) external view returns(OptionLibrary.Option memory) {return optionVault.getOption(activeOptionsPerOwner[_address].at(_index));}\n\n}\n",
  "sourcePath": "/Users/mac/Documents/GitHub/moret/contracts/MoretMarketMaker.sol",
  "compiler": {
    "name": "solc",
    "version": "0.8.7+commit.e28d00a7.Emscripten.clang"
  },
  "schemaVersion": "3.4.3",
  "updatedAt": "2021-09-15T23:25:58.412Z",
  "networkType": "ethereum",
  "devdoc": {
    "kind": "dev",
    "methods": {
      "allowance(address,address)": {
        "details": "See {IERC20-allowance}."
      },
      "approve(address,uint256)": {
        "details": "See {IERC20-approve}. Requirements: - `spender` cannot be the zero address."
      },
      "balanceOf(address)": {
        "details": "See {IERC20-balanceOf}."
      },
      "decimals()": {
        "details": "Returns the number of decimals used to get its user representation. For example, if `decimals` equals `2`, a balance of `505` tokens should be displayed to a user as `5,05` (`505 / 10 ** 2`). Tokens usually opt for a value of 18, imitating the relationship between Ether and Wei. This is the value {ERC20} uses, unless this function is overridden; NOTE: This information is only used for _display_ purposes: it in no way affects any of the arithmetic of the contract, including {IERC20-balanceOf} and {IERC20-transfer}."
      },
      "decreaseAllowance(address,uint256)": {
        "details": "Atomically decreases the allowance granted to `spender` by the caller. This is an alternative to {approve} that can be used as a mitigation for problems described in {IERC20-approve}. Emits an {Approval} event indicating the updated allowance. Requirements: - `spender` cannot be the zero address. - `spender` must have allowance for the caller of at least `subtractedValue`."
      },
      "getRoleAdmin(bytes32)": {
        "details": "Returns the admin role that controls `role`. See {grantRole} and {revokeRole}. To change a role's admin, use {_setRoleAdmin}."
      },
      "grantRole(bytes32,address)": {
        "details": "Grants `role` to `account`. If `account` had not been already granted `role`, emits a {RoleGranted} event. Requirements: - the caller must have ``role``'s admin role."
      },
      "hasRole(bytes32,address)": {
        "details": "Returns `true` if `account` has been granted `role`."
      },
      "increaseAllowance(address,uint256)": {
        "details": "Atomically increases the allowance granted to `spender` by the caller. This is an alternative to {approve} that can be used as a mitigation for problems described in {IERC20-approve}. Emits an {Approval} event indicating the updated allowance. Requirements: - `spender` cannot be the zero address."
      },
      "name()": {
        "details": "Returns the name of the token."
      },
      "renounceRole(bytes32,address)": {
        "details": "Revokes `role` from the calling account. Roles are often managed via {grantRole} and {revokeRole}: this function's purpose is to provide a mechanism for accounts to lose their privileges if they are compromised (such as when a trusted device is misplaced). If the calling account had been granted `role`, emits a {RoleRevoked} event. Requirements: - the caller must be `account`."
      },
      "revokeRole(bytes32,address)": {
        "details": "Revokes `role` from `account`. If `account` had been granted `role`, emits a {RoleRevoked} event. Requirements: - the caller must have ``role``'s admin role."
      },
      "supportsInterface(bytes4)": {
        "details": "See {IERC165-supportsInterface}."
      },
      "symbol()": {
        "details": "Returns the symbol of the token, usually a shorter version of the name."
      },
      "totalSupply()": {
        "details": "See {IERC20-totalSupply}."
      },
      "transfer(address,uint256)": {
        "details": "See {IERC20-transfer}. Requirements: - `recipient` cannot be the zero address. - the caller must have a balance of at least `amount`."
      },
      "transferFrom(address,address,uint256)": {
        "details": "See {IERC20-transferFrom}. Emits an {Approval} event indicating the updated allowance. This is not required by the EIP. See the note at the beginning of {ERC20}. Requirements: - `sender` and `recipient` cannot be the zero address. - `sender` must have a balance of at least `amount`. - the caller must have allowance for ``sender``'s tokens of at least `amount`."
      }
    },
    "version": 1
  },
  "userdoc": {
    "kind": "user",
    "methods": {},
    "version": 1
  }
}