{
  "contractName": "OptionVault",
  "abi": [
    {
      "inputs": [
        {
          "internalType": "address",
          "name": "_volChainAddress",
          "type": "address"
        },
        {
          "internalType": "address",
          "name": "_underlying",
          "type": "address"
        },
        {
          "internalType": "address",
          "name": "_funding",
          "type": "address"
        },
        {
          "internalType": "address",
          "name": "_aaveAddress",
          "type": "address"
        }
      ],
      "stateMutability": "nonpayable",
      "type": "constructor"
    },
    {
      "anonymous": false,
      "inputs": [
        {
          "indexed": true,
          "internalType": "bytes32",
          "name": "role",
          "type": "bytes32"
        },
        {
          "indexed": true,
          "internalType": "bytes32",
          "name": "previousAdminRole",
          "type": "bytes32"
        },
        {
          "indexed": true,
          "internalType": "bytes32",
          "name": "newAdminRole",
          "type": "bytes32"
        }
      ],
      "name": "RoleAdminChanged",
      "type": "event"
    },
    {
      "anonymous": false,
      "inputs": [
        {
          "indexed": true,
          "internalType": "bytes32",
          "name": "role",
          "type": "bytes32"
        },
        {
          "indexed": true,
          "internalType": "address",
          "name": "account",
          "type": "address"
        },
        {
          "indexed": true,
          "internalType": "address",
          "name": "sender",
          "type": "address"
        }
      ],
      "name": "RoleGranted",
      "type": "event"
    },
    {
      "anonymous": false,
      "inputs": [
        {
          "indexed": true,
          "internalType": "bytes32",
          "name": "role",
          "type": "bytes32"
        },
        {
          "indexed": true,
          "internalType": "address",
          "name": "account",
          "type": "address"
        },
        {
          "indexed": true,
          "internalType": "address",
          "name": "sender",
          "type": "address"
        }
      ],
      "name": "RoleRevoked",
      "type": "event"
    },
    {
      "inputs": [],
      "name": "DEFAULT_ADMIN_ROLE",
      "outputs": [
        {
          "internalType": "bytes32",
          "name": "",
          "type": "bytes32"
        }
      ],
      "stateMutability": "view",
      "type": "function"
    },
    {
      "inputs": [],
      "name": "EXCHANGE_ROLE",
      "outputs": [
        {
          "internalType": "bytes32",
          "name": "",
          "type": "bytes32"
        }
      ],
      "stateMutability": "view",
      "type": "function"
    },
    {
      "inputs": [],
      "name": "aaveAddress",
      "outputs": [
        {
          "internalType": "address",
          "name": "",
          "type": "address"
        }
      ],
      "stateMutability": "view",
      "type": "function"
    },
    {
      "inputs": [],
      "name": "funding",
      "outputs": [
        {
          "internalType": "address",
          "name": "",
          "type": "address"
        }
      ],
      "stateMutability": "view",
      "type": "function"
    },
    {
      "inputs": [
        {
          "internalType": "bytes32",
          "name": "role",
          "type": "bytes32"
        }
      ],
      "name": "getRoleAdmin",
      "outputs": [
        {
          "internalType": "bytes32",
          "name": "",
          "type": "bytes32"
        }
      ],
      "stateMutability": "view",
      "type": "function"
    },
    {
      "inputs": [
        {
          "internalType": "bytes32",
          "name": "role",
          "type": "bytes32"
        },
        {
          "internalType": "address",
          "name": "account",
          "type": "address"
        }
      ],
      "name": "grantRole",
      "outputs": [],
      "stateMutability": "nonpayable",
      "type": "function"
    },
    {
      "inputs": [
        {
          "internalType": "bytes32",
          "name": "role",
          "type": "bytes32"
        },
        {
          "internalType": "address",
          "name": "account",
          "type": "address"
        }
      ],
      "name": "hasRole",
      "outputs": [
        {
          "internalType": "bool",
          "name": "",
          "type": "bool"
        }
      ],
      "stateMutability": "view",
      "type": "function"
    },
    {
      "inputs": [],
      "name": "optionCounter",
      "outputs": [
        {
          "internalType": "uint256",
          "name": "",
          "type": "uint256"
        }
      ],
      "stateMutability": "view",
      "type": "function"
    },
    {
      "inputs": [
        {
          "internalType": "bytes32",
          "name": "role",
          "type": "bytes32"
        },
        {
          "internalType": "address",
          "name": "account",
          "type": "address"
        }
      ],
      "name": "renounceRole",
      "outputs": [],
      "stateMutability": "nonpayable",
      "type": "function"
    },
    {
      "inputs": [
        {
          "internalType": "bytes32",
          "name": "role",
          "type": "bytes32"
        },
        {
          "internalType": "address",
          "name": "account",
          "type": "address"
        }
      ],
      "name": "revokeRole",
      "outputs": [],
      "stateMutability": "nonpayable",
      "type": "function"
    },
    {
      "inputs": [
        {
          "internalType": "bytes4",
          "name": "interfaceId",
          "type": "bytes4"
        }
      ],
      "name": "supportsInterface",
      "outputs": [
        {
          "internalType": "bool",
          "name": "",
          "type": "bool"
        }
      ],
      "stateMutability": "view",
      "type": "function"
    },
    {
      "inputs": [],
      "name": "underlying",
      "outputs": [
        {
          "internalType": "address",
          "name": "",
          "type": "address"
        }
      ],
      "stateMutability": "view",
      "type": "function"
    },
    {
      "inputs": [],
      "name": "volChainAddress",
      "outputs": [
        {
          "internalType": "address",
          "name": "",
          "type": "address"
        }
      ],
      "stateMutability": "view",
      "type": "function"
    },
    {
      "inputs": [],
      "name": "descriptionHash",
      "outputs": [
        {
          "internalType": "bytes32",
          "name": "",
          "type": "bytes32"
        }
      ],
      "stateMutability": "view",
      "type": "function"
    },
    {
      "inputs": [
        {
          "internalType": "uint256",
          "name": "_tenor",
          "type": "uint256"
        },
        {
          "internalType": "uint256",
          "name": "_strike",
          "type": "uint256"
        },
        {
          "internalType": "uint256",
          "name": "_amount",
          "type": "uint256"
        },
        {
          "internalType": "enum OptionLibrary.PayoffType",
          "name": "_poType",
          "type": "uint8"
        },
        {
          "internalType": "enum OptionLibrary.OptionSide",
          "name": "_side",
          "type": "uint8"
        },
        {
          "internalType": "uint256",
          "name": "_premium",
          "type": "uint256"
        },
        {
          "internalType": "uint256",
          "name": "_cost",
          "type": "uint256"
        },
        {
          "internalType": "uint256",
          "name": "_price",
          "type": "uint256"
        },
        {
          "internalType": "uint256",
          "name": "_volatility",
          "type": "uint256"
        },
        {
          "internalType": "address",
          "name": "_holder",
          "type": "address"
        }
      ],
      "name": "addOption",
      "outputs": [
        {
          "internalType": "uint256",
          "name": "_id",
          "type": "uint256"
        }
      ],
      "stateMutability": "nonpayable",
      "type": "function"
    },
    {
      "inputs": [
        {
          "internalType": "uint256",
          "name": "_id",
          "type": "uint256"
        }
      ],
      "name": "getOptionHolder",
      "outputs": [
        {
          "internalType": "address",
          "name": "",
          "type": "address"
        }
      ],
      "stateMutability": "view",
      "type": "function"
    },
    {
      "inputs": [
        {
          "internalType": "address",
          "name": "_address",
          "type": "address"
        }
      ],
      "name": "getHoldersOptionCount",
      "outputs": [
        {
          "internalType": "uint256",
          "name": "",
          "type": "uint256"
        }
      ],
      "stateMutability": "view",
      "type": "function"
    },
    {
      "inputs": [
        {
          "internalType": "uint256",
          "name": "_index",
          "type": "uint256"
        },
        {
          "internalType": "address",
          "name": "_address",
          "type": "address"
        }
      ],
      "name": "getHoldersOption",
      "outputs": [
        {
          "components": [
            {
              "internalType": "enum OptionLibrary.PayoffType",
              "name": "poType",
              "type": "uint8"
            },
            {
              "internalType": "enum OptionLibrary.OptionSide",
              "name": "side",
              "type": "uint8"
            },
            {
              "internalType": "enum OptionLibrary.OptionStatus",
              "name": "status",
              "type": "uint8"
            },
            {
              "internalType": "address",
              "name": "holder",
              "type": "address"
            },
            {
              "internalType": "uint256",
              "name": "id",
              "type": "uint256"
            },
            {
              "internalType": "uint256",
              "name": "createTime",
              "type": "uint256"
            },
            {
              "internalType": "uint256",
              "name": "effectiveTime",
              "type": "uint256"
            },
            {
              "internalType": "uint256",
              "name": "tenor",
              "type": "uint256"
            },
            {
              "internalType": "uint256",
              "name": "maturity",
              "type": "uint256"
            },
            {
              "internalType": "uint256",
              "name": "exerciseTime",
              "type": "uint256"
            },
            {
              "internalType": "uint256",
              "name": "amount",
              "type": "uint256"
            },
            {
              "internalType": "uint256",
              "name": "spot",
              "type": "uint256"
            },
            {
              "internalType": "uint256",
              "name": "strike",
              "type": "uint256"
            },
            {
              "internalType": "uint256",
              "name": "volatility",
              "type": "uint256"
            },
            {
              "internalType": "uint256",
              "name": "premium",
              "type": "uint256"
            },
            {
              "internalType": "uint256",
              "name": "cost",
              "type": "uint256"
            }
          ],
          "internalType": "struct OptionLibrary.Option",
          "name": "",
          "type": "tuple"
        }
      ],
      "stateMutability": "view",
      "type": "function"
    },
    {
      "inputs": [
        {
          "internalType": "uint256",
          "name": "_id",
          "type": "uint256"
        }
      ],
      "name": "getOption",
      "outputs": [
        {
          "components": [
            {
              "internalType": "enum OptionLibrary.PayoffType",
              "name": "poType",
              "type": "uint8"
            },
            {
              "internalType": "enum OptionLibrary.OptionSide",
              "name": "side",
              "type": "uint8"
            },
            {
              "internalType": "enum OptionLibrary.OptionStatus",
              "name": "status",
              "type": "uint8"
            },
            {
              "internalType": "address",
              "name": "holder",
              "type": "address"
            },
            {
              "internalType": "uint256",
              "name": "id",
              "type": "uint256"
            },
            {
              "internalType": "uint256",
              "name": "createTime",
              "type": "uint256"
            },
            {
              "internalType": "uint256",
              "name": "effectiveTime",
              "type": "uint256"
            },
            {
              "internalType": "uint256",
              "name": "tenor",
              "type": "uint256"
            },
            {
              "internalType": "uint256",
              "name": "maturity",
              "type": "uint256"
            },
            {
              "internalType": "uint256",
              "name": "exerciseTime",
              "type": "uint256"
            },
            {
              "internalType": "uint256",
              "name": "amount",
              "type": "uint256"
            },
            {
              "internalType": "uint256",
              "name": "spot",
              "type": "uint256"
            },
            {
              "internalType": "uint256",
              "name": "strike",
              "type": "uint256"
            },
            {
              "internalType": "uint256",
              "name": "volatility",
              "type": "uint256"
            },
            {
              "internalType": "uint256",
              "name": "premium",
              "type": "uint256"
            },
            {
              "internalType": "uint256",
              "name": "cost",
              "type": "uint256"
            }
          ],
          "internalType": "struct OptionLibrary.Option",
          "name": "",
          "type": "tuple"
        }
      ],
      "stateMutability": "view",
      "type": "function"
    },
    {
      "inputs": [],
      "name": "getAggregateNotional",
      "outputs": [
        {
          "internalType": "uint256",
          "name": "_notional",
          "type": "uint256"
        }
      ],
      "stateMutability": "view",
      "type": "function"
    },
    {
      "inputs": [
        {
          "internalType": "address",
          "name": "_address",
          "type": "address"
        }
      ],
      "name": "getGrossCapital",
      "outputs": [
        {
          "internalType": "uint256",
          "name": "_capital",
          "type": "uint256"
        }
      ],
      "stateMutability": "view",
      "type": "function"
    },
    {
      "inputs": [],
      "name": "getMaxHedge",
      "outputs": [
        {
          "internalType": "uint256",
          "name": "",
          "type": "uint256"
        }
      ],
      "stateMutability": "view",
      "type": "function"
    },
    {
      "inputs": [],
      "name": "getSellPutCollateral",
      "outputs": [
        {
          "internalType": "uint256",
          "name": "_collateral",
          "type": "uint256"
        }
      ],
      "stateMutability": "view",
      "type": "function"
    },
    {
      "inputs": [
        {
          "internalType": "uint256",
          "name": "_id",
          "type": "uint256"
        }
      ],
      "name": "getContractPayoff",
      "outputs": [
        {
          "internalType": "uint256",
          "name": "_payoff",
          "type": "uint256"
        },
        {
          "internalType": "uint256",
          "name": "_payback",
          "type": "uint256"
        }
      ],
      "stateMutability": "view",
      "type": "function"
    },
    {
      "inputs": [
        {
          "internalType": "uint256",
          "name": "_id",
          "type": "uint256"
        },
        {
          "internalType": "uint256",
          "name": "_price",
          "type": "uint256"
        },
        {
          "internalType": "bool",
          "name": "_includeExpiring",
          "type": "bool"
        }
      ],
      "name": "calculateContractDelta",
      "outputs": [
        {
          "internalType": "int256",
          "name": "_delta",
          "type": "int256"
        }
      ],
      "stateMutability": "view",
      "type": "function"
    },
    {
      "inputs": [
        {
          "internalType": "uint256",
          "name": "_price",
          "type": "uint256"
        },
        {
          "internalType": "bool",
          "name": "_includeExpiring",
          "type": "bool"
        }
      ],
      "name": "calculateAggregateDelta",
      "outputs": [
        {
          "internalType": "int256",
          "name": "_delta",
          "type": "int256"
        }
      ],
      "stateMutability": "view",
      "type": "function"
    },
    {
      "inputs": [
        {
          "internalType": "uint256",
          "name": "_id",
          "type": "uint256"
        },
        {
          "internalType": "uint256",
          "name": "_price",
          "type": "uint256"
        }
      ],
      "name": "calculateContractGamma",
      "outputs": [
        {
          "internalType": "int256",
          "name": "_gamma",
          "type": "int256"
        }
      ],
      "stateMutability": "view",
      "type": "function"
    },
    {
      "inputs": [],
      "name": "calculateAggregateGamma",
      "outputs": [
        {
          "internalType": "int256",
          "name": "_gamma",
          "type": "int256"
        }
      ],
      "stateMutability": "view",
      "type": "function"
    },
    {
      "inputs": [],
      "name": "calculateSpotGamma",
      "outputs": [
        {
          "internalType": "int256",
          "name": "_gamma",
          "type": "int256"
        }
      ],
      "stateMutability": "view",
      "type": "function"
    },
    {
      "inputs": [],
      "name": "anyOptionExpiring",
      "outputs": [
        {
          "internalType": "bool",
          "name": "_isExpiring",
          "type": "bool"
        }
      ],
      "stateMutability": "view",
      "type": "function"
    },
    {
      "inputs": [
        {
          "internalType": "uint256",
          "name": "_id",
          "type": "uint256"
        }
      ],
      "name": "isExpiring",
      "outputs": [
        {
          "internalType": "bool",
          "name": "",
          "type": "bool"
        }
      ],
      "stateMutability": "view",
      "type": "function"
    },
    {
      "inputs": [],
      "name": "getExpiringOptionId",
      "outputs": [
        {
          "internalType": "uint256",
          "name": "_id",
          "type": "uint256"
        }
      ],
      "stateMutability": "view",
      "type": "function"
    },
    {
      "inputs": [
        {
          "internalType": "uint256",
          "name": "_id",
          "type": "uint256"
        },
        {
          "internalType": "address",
          "name": "_holder",
          "type": "address"
        }
      ],
      "name": "stampActiveOption",
      "outputs": [],
      "stateMutability": "nonpayable",
      "type": "function"
    },
    {
      "inputs": [
        {
          "internalType": "uint256",
          "name": "_id",
          "type": "uint256"
        }
      ],
      "name": "stampExercisedOption",
      "outputs": [],
      "stateMutability": "nonpayable",
      "type": "function"
    },
    {
      "inputs": [
        {
          "internalType": "uint256",
          "name": "_id",
          "type": "uint256"
        }
      ],
      "name": "stampExpiredOption",
      "outputs": [],
      "stateMutability": "nonpayable",
      "type": "function"
    },
    {
      "inputs": [
        {
          "internalType": "address",
          "name": "_address",
          "type": "address"
        },
        {
          "internalType": "uint256",
          "name": "_swapSlippage",
          "type": "uint256"
        }
      ],
      "name": "calcSwapTradesInTok",
      "outputs": [
        {
          "internalType": "int256",
          "name": "_tradeUnderlyingAmount",
          "type": "int256"
        },
        {
          "internalType": "int256",
          "name": "_tradeFundingAmount",
          "type": "int256"
        }
      ],
      "stateMutability": "view",
      "type": "function"
    },
    {
      "inputs": [
        {
          "internalType": "address",
          "name": "_address",
          "type": "address"
        }
      ],
      "name": "getBalances",
      "outputs": [
        {
          "internalType": "uint256",
          "name": "_underlyingBalance",
          "type": "uint256"
        },
        {
          "internalType": "uint256",
          "name": "_fundingBalance",
          "type": "uint256"
        },
        {
          "internalType": "uint256",
          "name": "_collateralBalance",
          "type": "uint256"
        },
        {
          "internalType": "uint256",
          "name": "_debtBalance",
          "type": "uint256"
        }
      ],
      "stateMutability": "view",
      "type": "function"
    },
    {
      "inputs": [
        {
          "internalType": "address",
          "name": "_address",
          "type": "address"
        },
        {
          "internalType": "uint256",
          "name": "_lendingPoolRateMode",
          "type": "uint256"
        }
      ],
      "name": "calcLoanRepaymentInTok",
      "outputs": [
        {
          "internalType": "uint256",
          "name": "_repayAmount",
          "type": "uint256"
        },
        {
          "internalType": "uint256",
          "name": "_repaySwapValue",
          "type": "uint256"
        }
      ],
      "stateMutability": "view",
      "type": "function"
    },
    {
      "inputs": [
        {
          "internalType": "address",
          "name": "_address",
          "type": "address"
        },
        {
          "internalType": "uint256",
          "name": "_lendingPoolRateMode",
          "type": "uint256"
        }
      ],
      "name": "calcLoanTrades",
      "outputs": [
        {
          "internalType": "int256",
          "name": "_loanTradeAmount",
          "type": "int256"
        },
        {
          "internalType": "int256",
          "name": "_collateralChange",
          "type": "int256"
        },
        {
          "internalType": "address",
          "name": "_loanAddress",
          "type": "address"
        },
        {
          "internalType": "address",
          "name": "_collateralAddress",
          "type": "address"
        }
      ],
      "stateMutability": "view",
      "type": "function"
    },
    {
      "inputs": [
        {
          "internalType": "uint256",
          "name": "_tenor",
          "type": "uint256"
        }
      ],
      "name": "queryVol",
      "outputs": [
        {
          "internalType": "uint256",
          "name": "",
          "type": "uint256"
        }
      ],
      "stateMutability": "view",
      "type": "function"
    },
    {
      "inputs": [],
      "name": "queryPrice",
      "outputs": [
        {
          "internalType": "uint256",
          "name": "",
          "type": "uint256"
        },
        {
          "internalType": "uint256",
          "name": "",
          "type": "uint256"
        }
      ],
      "stateMutability": "view",
      "type": "function"
    },
    {
      "inputs": [],
      "name": "tokenHash",
      "outputs": [
        {
          "internalType": "bytes32",
          "name": "",
          "type": "bytes32"
        }
      ],
      "stateMutability": "view",
      "type": "function"
    }
  ],
  "bytecode": "0x608060405260006002553480156200001657600080fd5b5060405162005e7a38038062005e7a83398181016040528101906200003c9190620003b5565b620000516000801b33620001d260201b60201c565b620000837f28d62fc77014de57a1bbaa8212ff0979fa61ab00d377b4b8d9762048fb41996133620001d260201b60201c565b83600760006101000a81548173ffffffffffffffffffffffffffffffffffffffff021916908373ffffffffffffffffffffffffffffffffffffffff16021790555083600660006101000a81548173ffffffffffffffffffffffffffffffffffffffff021916908373ffffffffffffffffffffffffffffffffffffffff16021790555081600a60006101000a81548173ffffffffffffffffffffffffffffffffffffffff021916908373ffffffffffffffffffffffffffffffffffffffff16021790555082600960006101000a81548173ffffffffffffffffffffffffffffffffffffffff021916908373ffffffffffffffffffffffffffffffffffffffff16021790555080600860006101000a81548173ffffffffffffffffffffffffffffffffffffffff021916908373ffffffffffffffffffffffffffffffffffffffff1602179055505050505062000427565b620001e48282620001e860201b60201c565b5050565b620001fa8282620002d960201b60201c565b620002d557600160008084815260200190815260200160002060000160008373ffffffffffffffffffffffffffffffffffffffff1673ffffffffffffffffffffffffffffffffffffffff16815260200190815260200160002060006101000a81548160ff0219169083151502179055506200027a6200034360201b60201c565b73ffffffffffffffffffffffffffffffffffffffff168173ffffffffffffffffffffffffffffffffffffffff16837f2f8788117e7eff1d82e926ec794901d17c78024a50270940304540a733656f0d60405160405180910390a45b5050565b600080600084815260200190815260200160002060000160008373ffffffffffffffffffffffffffffffffffffffff1673ffffffffffffffffffffffffffffffffffffffff16815260200190815260200160002060009054906101000a900460ff16905092915050565b600033905090565b600080fd5b600073ffffffffffffffffffffffffffffffffffffffff82169050919050565b60006200037d8262000350565b9050919050565b6200038f8162000370565b81146200039b57600080fd5b50565b600081519050620003af8162000384565b92915050565b60008060008060808587031215620003d257620003d16200034b565b5b6000620003e2878288016200039e565b9450506020620003f5878288016200039e565b935050604062000408878288016200039e565b92505060606200041b878288016200039e565b91505092959194509250565b615a4380620004376000396000f3fe608060405234801561001057600080fd5b506004361061025e5760003560e01c806385dcee9311610146578063b0667cf8116100c3578063cb4c86b711610087578063cb4c86b7146107cc578063cca49473146107ea578063cfc2dc2014610808578063d547741f14610838578063ec53982814610854578063f8a35181146108855761025e565b8063b0667cf8146106e9578063b4f8fe4914610708578063b5310ff914610739578063c7da750514610769578063c84aae17146107995761025e565b806390618ed91161010a57806390618ed91461062f57806391d148541461064d5780639bc67cd21461067d578063a217fddf1461069b578063a42b6626146106b95761025e565b806385dcee93146105515780638a0687d21461056f5780638b83b6b61461059f5780638cbb0cd0146105cf5780638e82c9f1146105ff5761025e565b8063448ba42f116101df5780636c1f7b93116101a35780636c1f7b931461048c5780636f307dc3146104a85780636fe44031146104c657806371eaf9c6146104e45780637652e7c41461050257806385ae10e6146105205761025e565b8063448ba42f146103d15780634717f5b9146103ef5780634b3ba3401461040d578063637baf601461043d57806365bf9976146104595761025e565b806324b4110e1161022657806324b4110e14610341578063251e1e8a1461035d5780632f2ff15d1461037b57806336568abe146103975780633b734501146103b35761025e565b806301ffc9a7146102635780630eb5cbfe146102935780631a7985ba146102b15780631ce5e9a6146102e1578063248a9ca314610311575b600080fd5b61027d600480360381019061027891906143c6565b6108a3565b60405161028a919061440e565b60405180910390f35b61029b61091d565b6040516102a89190614442565b60405180910390f35b6102cb60048036038101906102c69190614489565b610980565b6040516102d891906144f7565b60405180910390f35b6102fb60048036038101906102f69190614489565b6109c0565b6040516103089190614781565b60405180910390f35b61032b600480360381019061032691906147d3565b610b6d565b604051610338919061480f565b60405180910390f35b61035b60048036038101906103569190614856565b610b8c565b005b610365610cd5565b60405161037291906144f7565b60405180910390f35b61039560048036038101906103909190614896565b610cfb565b005b6103b160048036038101906103ac9190614896565b610d24565b005b6103bb610da7565b6040516103c8919061480f565b60405180910390f35b6103d9610dcb565b6040516103e69190614442565b60405180910390f35b6103f7610f55565b6040516104049190614442565b60405180910390f35b610427600480360381019061042291906148d6565b611140565b604051610434919061492f565b60405180910390f35b61045760048036038101906104529190614489565b6113f8565b005b610473600480360381019061046e919061494a565b611525565b604051610483949392919061498a565b60405180910390f35b6104a660048036038101906104a19190614489565b6117fa565b005b6104b0611927565b6040516104bd91906144f7565b60405180910390f35b6104ce61194d565b6040516104db919061492f565b60405180910390f35b6104ec611a3d565b6040516104f991906144f7565b60405180910390f35b61050a611a63565b6040516105179190614442565b60405180910390f35b61053a60048036038101906105359190614489565b611acb565b6040516105489291906149cf565b60405180910390f35b610559611e8d565b604051610566919061480f565b60405180910390f35b61058960048036038101906105849190614856565b611f50565b6040516105969190614781565b60405180910390f35b6105b960048036038101906105b491906149f8565b61214e565b6040516105c69190614442565b60405180910390f35b6105e960048036038101906105e49190614a51565b6123d0565b6040516105f6919061492f565b60405180910390f35b61061960048036038101906106149190614aa4565b6127de565b604051610626919061492f565b60405180910390f35b610637612838565b604051610644919061440e565b60405180910390f35b61066760048036038101906106629190614896565b61288e565b604051610674919061440e565b60405180910390f35b6106856128f8565b604051610692919061492f565b60405180910390f35b6106a3612af6565b6040516106b0919061480f565b60405180910390f35b6106d360048036038101906106ce91906149f8565b612afd565b6040516106e09190614442565b60405180910390f35b6106f1612b4d565b6040516106ff9291906149cf565b60405180910390f35b610722600480360381019061071d919061494a565b612be8565b6040516107309291906149cf565b60405180910390f35b610753600480360381019061074e9190614b2e565b613065565b6040516107609190614442565b60405180910390f35b610783600480360381019061077e9190614489565b6132ec565b604051610790919061440e565b60405180910390f35b6107b360048036038101906107ae91906149f8565b613362565b6040516107c39493929190614c0d565b60405180910390f35b6107d461355d565b6040516107e191906144f7565b60405180910390f35b6107f2613583565b6040516107ff919061480f565b60405180910390f35b610822600480360381019061081d9190614489565b61361b565b60405161082f9190614442565b60405180910390f35b610852600480360381019061084d9190614896565b6136c0565b005b61086e6004803603810190610869919061494a565b6136e9565b60405161087c929190614c52565b60405180910390f35b61088d613a0a565b60405161089a9190614442565b60405180910390f35b60007f7965db0b000000000000000000000000000000000000000000000000000000007bffffffffffffffffffffffffffffffffffffffffffffffffffffffff1916827bffffffffffffffffffffffffffffffffffffffffffffffffffffffff19161480610916575061091582613a10565b5b9050919050565b6000805b61092b6004613a7a565b81101561097c576001600061094a836004613a8f90919063ffffffff16565b815260200190815260200160002060070154826109679190614caa565b9150808061097490614d00565b915050610921565b5090565b60006001600083815260200190815260200160002060000160039054906101000a900473ffffffffffffffffffffffffffffffffffffffff169050919050565b6109c8614291565b60016000838152602001908152602001600020604051806102000160405290816000820160009054906101000a900460ff166001811115610a0c57610a0b614512565b5b6001811115610a1e57610a1d614512565b5b81526020016000820160019054906101000a900460ff166001811115610a4757610a46614512565b5b6001811115610a5957610a58614512565b5b81526020016000820160029054906101000a900460ff166003811115610a8257610a81614512565b5b6003811115610a9457610a93614512565b5b81526020016000820160039054906101000a900473ffffffffffffffffffffffffffffffffffffffff1673ffffffffffffffffffffffffffffffffffffffff1673ffffffffffffffffffffffffffffffffffffffff168152602001600182015481526020016002820154815260200160038201548152602001600482015481526020016005820154815260200160068201548152602001600782015481526020016008820154815260200160098201548152602001600a8201548152602001600b8201548152602001600c820154815250509050919050565b6000806000838152602001908152602001600020600101549050919050565b7f28d62fc77014de57a1bbaa8212ff0979fa61ab00d377b4b8d9762048fb419961610bbe81610bb9613aa9565b613ab1565b42600160008581526020019081526020016000206003018190555060016000848152602001908152602001600020600401546001600085815260200190815260200160002060030154610c119190614caa565b6001600085815260200190815260200160002060050181905550600180600085815260200190815260200160002060000160026101000a81548160ff02191690836003811115610c6457610c63614512565b5b0217905550610cba83600360008573ffffffffffffffffffffffffffffffffffffffff1673ffffffffffffffffffffffffffffffffffffffff168152602001908152602001600020613b4e90919063ffffffff16565b50610ccf836004613b4e90919063ffffffff16565b50505050565b600860009054906101000a900473ffffffffffffffffffffffffffffffffffffffff1681565b610d0482610b6d565b610d1581610d10613aa9565b613ab1565b610d1f8383613b68565b505050565b610d2c613aa9565b73ffffffffffffffffffffffffffffffffffffffff168173ffffffffffffffffffffffffffffffffffffffff1614610d99576040517f08c379a0000000000000000000000000000000000000000000000000000000008152600401610d9090614dcc565b60405180910390fd5b610da38282613c48565b5050565b7f28d62fc77014de57a1bbaa8212ff0979fa61ab00d377b4b8d9762048fb41996181565b600080600660009054906101000a900473ffffffffffffffffffffffffffffffffffffffff1673ffffffffffffffffffffffffffffffffffffffff1663b0667cf86040518163ffffffff1660e01b81526004016040805180830381865afa158015610e3a573d6000803e3d6000fd5b505050506040513d601f19601f82011682018060405250810190610e5e9190614e01565b5090506000610e7c620186a083610e759190614e70565b60016127de565b90506000610e99620186a084610e929190614ea1565b60016127de565b9050610f4d610eda6000841215610eb95783610eb490614efb565b610ebb565b835b6000841215610ed35783610ece90614efb565b610ed5565b835b613d29565b8473__OptionLibrary_________________________63fd9b87636040518163ffffffff1660e01b8152600401602060405180830381865af4158015610f24573d6000803e3d6000fd5b505050506040513d601f19601f82011682018060405250810190610f489190614f44565b613d43565b935050505090565b6000805b610f636004613a7a565b81101561113c576000610f80826004613a8f90919063ffffffff16565b905060016003811115610f9657610f95614512565b5b6001600083815260200190815260200160002060000160029054906101000a900460ff166003811115610fcc57610fcb614512565b5b14801561101f5750600180811115610fe757610fe6614512565b5b6001600083815260200190815260200160002060000160019054906101000a900460ff16600181111561101d5761101c614512565b5b145b8015611071575060018081111561103957611038614512565b5b6001600083815260200190815260200160002060000160009054906101000a900460ff16600181111561106f5761106e614512565b5b145b15611128576001600082815260200190815260200160002073__OptionLibrary_________________________630862958b909160016000858152602001908152602001600020600901546040518363ffffffff1660e01b81526004016110d9929190614f87565b602060405180830381865af41580156110f6573d6000803e3d6000fd5b505050506040513d601f19601f8201168201806040525081019061111a9190614f44565b836111259190614caa565b92505b50808061113490614d00565b915050610f59565b5090565b60006001600381111561115657611155614512565b5b6001600085815260200190815260200160002060000160029054906101000a900460ff16600381111561118c5761118b614512565b5b1480156111ae5750426001600085815260200190815260200160002060050154115b156113f2576000600660009054906101000a900473ffffffffffffffffffffffffffffffffffffffff1673ffffffffffffffffffffffffffffffffffffffff1663040b030f4260016000888152602001908152602001600020600501546112159190614fb0565b6040518263ffffffff1660e01b81526004016112319190614442565b602060405180830381865afa15801561124e573d6000803e3d6000fd5b505050506040513d601f19601f820116820180604052508101906112729190614f44565b905061139273__OptionLibrary_________________________639932b2be856001600089815260200190815260200160002060090154856040518463ffffffff1660e01b81526004016112c893929190614fe4565b602060405180830381865af41580156112e5573d6000803e3d6000fd5b505050506040513d601f19601f820116820180604052508101906113099190614f44565b600160008781526020019081526020016000206007015473__OptionLibrary_________________________63fd9b87636040518163ffffffff1660e01b8152600401602060405180830381865af4158015611369573d6000803e3d6000fd5b505050506040513d601f19601f8201168201806040525081019061138d9190614f44565b613d43565b91506001808111156113a7576113a6614512565b5b6001600086815260200190815260200160002060000160019054906101000a900460ff1660018111156113dd576113dc614512565b5b14156113f057816113ed90614efb565b91505b505b92915050565b7f28d62fc77014de57a1bbaa8212ff0979fa61ab00d377b4b8d9762048fb41996161142a81611425613aa9565b613ab1565b6114b182600360006001600087815260200190815260200160002060000160039054906101000a900473ffffffffffffffffffffffffffffffffffffffff1673ffffffffffffffffffffffffffffffffffffffff1673ffffffffffffffffffffffffffffffffffffffff168152602001908152602001600020613e3f90919063ffffffff16565b506114c6826004613e3f90919063ffffffff16565b5060036001600084815260200190815260200160002060000160026101000a81548160ff0219169083600381111561150157611500614512565b5b02179055504260016000848152602001908152602001600020600601819055505050565b6000806000806000600660009054906101000a900473ffffffffffffffffffffffffffffffffffffffff1673ffffffffffffffffffffffffffffffffffffffff1663b0667cf86040518163ffffffff1660e01b81526004016040805180830381865afa158015611599573d6000803e3d6000fd5b505050506040513d601f19601f820116820180604052508101906115bd9190614e01565b50905060006115cd8260006127de565b90506000600860009054906101000a900473ffffffffffffffffffffffffffffffffffffffff1673ffffffffffffffffffffffffffffffffffffffff166321f8a7216040518163ffffffff1660e01b815260040161162a90615041565b602060405180830381865afa158015611647573d6000803e3d6000fd5b505050506040513d601f19601f8201168201806040525081019061166b919061506f565b9050600073__MarketLibrary_________________________63b076288a8b8486600960009054906101000a900473ffffffffffffffffffffffffffffffffffffffff1660028f146040518663ffffffff1660e01b81526004016116d39594939291906150c9565b606060405180830381865af41580156116f0573d6000803e3d6000fd5b505050506040513d601f19601f820116820180604052508101906117149190615148565b809850819350829a5050505073__MarketLibrary_________________________6312638d3a8b848488600a60009054906101000a900473ffffffffffffffffffffffffffffffffffffffff16600960009054906101000a900473ffffffffffffffffffffffffffffffffffffffff166040518763ffffffff1660e01b81526004016117a59695949392919061519b565b6040805180830381865af41580156117c1573d6000803e3d6000fd5b505050506040513d601f19601f820116820180604052508101906117e591906151fc565b80965081985050505050505092959194509250565b7f28d62fc77014de57a1bbaa8212ff0979fa61ab00d377b4b8d9762048fb41996161182c81611827613aa9565b613ab1565b6118b382600360006001600087815260200190815260200160002060000160039054906101000a900473ffffffffffffffffffffffffffffffffffffffff1673ffffffffffffffffffffffffffffffffffffffff1673ffffffffffffffffffffffffffffffffffffffff168152602001908152602001600020613e3f90919063ffffffff16565b506118c8826004613e3f90919063ffffffff16565b5060026001600084815260200190815260200160002060000160026101000a81548160ff0219169083600381111561190357611902614512565b5b02179055504260016000848152602001908152602001600020600601819055505050565b600960009054906101000a900473ffffffffffffffffffffffffffffffffffffffff1681565b600080600660009054906101000a900473ffffffffffffffffffffffffffffffffffffffff1673ffffffffffffffffffffffffffffffffffffffff1663b0667cf86040518163ffffffff1660e01b81526004016040805180830381865afa1580156119bc573d6000803e3d6000fd5b505050506040513d601f19601f820116820180604052508101906119e09190614e01565b5090506000915060005b6119f46004613a7a565b811015611a3857611a18611a12826004613a8f90919063ffffffff16565b83611140565b83611a23919061523c565b92508080611a3090614d00565b9150506119ea565b505090565b600760009054906101000a900473ffffffffffffffffffffffffffffffffffffffff1681565b6000805b611a716004613a7a565b811015611ac757611a94611a8f826004613a8f90919063ffffffff16565b6132ec565b15611ab457611aad816004613a8f90919063ffffffff16565b9150611ac7565b8080611abf90614d00565b915050611a67565b5090565b6000806000600660009054906101000a900473ffffffffffffffffffffffffffffffffffffffff1673ffffffffffffffffffffffffffffffffffffffff1663b0667cf86040518163ffffffff1660e01b81526004016040805180830381865afa158015611b3c573d6000803e3d6000fd5b505050506040513d601f19601f82011682018060405250810190611b609190614e01565b5090506001600085815260200190815260200160002073__OptionLibrary_________________________63a69d3ae09091836040518363ffffffff1660e01b8152600401611bb0929190614f87565b602060405180830381865af4158015611bcd573d6000803e3d6000fd5b505050506040513d601f19601f82011682018060405250810190611bf19190614f44565b9250829150600180811115611c0957611c08614512565b5b6001600086815260200190815260200160002060000160019054906101000a900460ff166001811115611c3f57611c3e614512565b5b148015611c93575060006001811115611c5b57611c5a614512565b5b6001600086815260200190815260200160002060000160009054906101000a900460ff166001811115611c9157611c90614512565b5b145b15611d3457826001600086815260200190815260200160002073__OptionLibrary_________________________630862958b9091846040518363ffffffff1660e01b8152600401611ce6929190614f87565b602060405180830381865af4158015611d03573d6000803e3d6000fd5b505050506040513d601f19601f82011682018060405250810190611d279190614f44565b611d319190614fb0565b91505b600180811115611d4757611d46614512565b5b6001600086815260200190815260200160002060000160019054906101000a900460ff166001811115611d7d57611d7c614512565b5b148015611dd05750600180811115611d9857611d97614512565b5b6001600086815260200190815260200160002060000160009054906101000a900460ff166001811115611dce57611dcd614512565b5b145b15611e8757826001600086815260200190815260200160002073__OptionLibrary_________________________630862958b909160016000898152602001908152602001600020600901546040518363ffffffff1660e01b8152600401611e39929190614f87565b602060405180830381865af4158015611e56573d6000803e3d6000fd5b505050506040513d601f19601f82011682018060405250810190611e7a9190614f44565b611e849190614fb0565b91505b50915091565b6000600660009054906101000a900473ffffffffffffffffffffffffffffffffffffffff1673ffffffffffffffffffffffffffffffffffffffff166398de78976040518163ffffffff1660e01b8152600401600060405180830381865afa158015611efc573d6000803e3d6000fd5b505050506040513d6000823e3d601f19601f82011682018060405250810190611f25919061543a565b604051602001611f3591906154ca565b60405160208183030381529060405280519060200120905090565b611f58614291565b60016000611fad85600360008773ffffffffffffffffffffffffffffffffffffffff1673ffffffffffffffffffffffffffffffffffffffff168152602001908152602001600020613a8f90919063ffffffff16565b8152602001908152602001600020604051806102000160405290816000820160009054906101000a900460ff166001811115611fec57611feb614512565b5b6001811115611ffe57611ffd614512565b5b81526020016000820160019054906101000a900460ff16600181111561202757612026614512565b5b600181111561203957612038614512565b5b81526020016000820160029054906101000a900460ff16600381111561206257612061614512565b5b600381111561207457612073614512565b5b81526020016000820160039054906101000a900473ffffffffffffffffffffffffffffffffffffffff1673ffffffffffffffffffffffffffffffffffffffff1673ffffffffffffffffffffffffffffffffffffffff168152602001600182015481526020016002820154815260200160038201548152602001600482015481526020016005820154815260200160068201548152602001600782015481526020016008820154815260200160098201548152602001600a8201548152602001600b8201548152602001600c82015481525050905092915050565b600080600660009054906101000a900473ffffffffffffffffffffffffffffffffffffffff1673ffffffffffffffffffffffffffffffffffffffff1663b0667cf86040518163ffffffff1660e01b81526004016040805180830381865afa1580156121bd573d6000803e3d6000fd5b505050506040513d601f19601f820116820180604052508101906121e19190614e01565b5090506000806000806121f387613362565b9350935093509350612272848673__OptionLibrary_________________________63fd9b87636040518163ffffffff1660e01b8152600401602060405180830381865af4158015612249573d6000803e3d6000fd5b505050506040513d601f19601f8201168201806040525081019061226d9190614f44565b613d43565b828461227e9190614caa565b6122889190614caa565b9550612301818673__OptionLibrary_________________________63fd9b87636040518163ffffffff1660e01b8152600401602060405180830381865af41580156122d8573d6000803e3d6000fd5b505050506040513d601f19601f820116820180604052508101906122fc9190614f44565b613d43565b8611612342576040517f08c379a00000000000000000000000000000000000000000000000000000000081526004016123399061552d565b60405180910390fd5b6123b9818673__OptionLibrary_________________________63fd9b87636040518163ffffffff1660e01b8152600401602060405180830381865af4158015612390573d6000803e3d6000fd5b505050506040513d601f19601f820116820180604052508101906123b49190614f44565b613d43565b866123c49190614fb0565b95505050505050919050565b6000600160038111156123e6576123e5614512565b5b6001600086815260200190815260200160002060000160029054906101000a900460ff16600381111561241c5761241b614512565b5b148015612446575081806124455750426001600086815260200190815260200160002060050154115b5b156127d7576000600181111561245f5761245e614512565b5b6001600086815260200190815260200160002060000160019054906101000a900460ff16600181111561249557612494614512565b5b141561271a576000600660009054906101000a900473ffffffffffffffffffffffffffffffffffffffff1673ffffffffffffffffffffffffffffffffffffffff1663040b030f6124fb600160008981526020019081526020016000206005015442613e59565b600160008981526020019081526020016000206005015461251c9190614fb0565b6040518263ffffffff1660e01b81526004016125389190614442565b602060405180830381865afa158015612555573d6000803e3d6000fd5b505050506040513d601f19601f820116820180604052508101906125799190614f44565b905061269973__OptionLibrary_________________________6323a00f6586600160008a815260200190815260200160002060090154856040518463ffffffff1660e01b81526004016125cf93929190614fe4565b602060405180830381865af41580156125ec573d6000803e3d6000fd5b505050506040513d601f19601f820116820180604052508101906126109190614f44565b600160008881526020019081526020016000206007015473__OptionLibrary_________________________63fd9b87636040518163ffffffff1660e01b8152600401602060405180830381865af4158015612670573d6000803e3d6000fd5b505050506040513d601f19601f820116820180604052508101906126949190614f44565b613d43565b91506001808111156126ae576126ad614512565b5b6001600087815260200190815260200160002060000160009054906101000a900460ff1660018111156126e4576126e3614512565b5b14156127185781600160008781526020019081526020016000206007015461270b90614efb565b612715919061523c565b91505b505b60018081111561272d5761272c614512565b5b6001600086815260200190815260200160002060000160019054906101000a900460ff16600181111561276357612762614512565b5b1480156127b757506000600181111561277f5761277e614512565b5b6001600086815260200190815260200160002060000160009054906101000a900460ff1660018111156127b5576127b4614512565b5b145b156127d657600160008581526020019081526020016000206007015490505b5b9392505050565b6000805b6127ec6004613a7a565b8110156128315761281161280a826004613a8f90919063ffffffff16565b85856123d0565b8261281c919061523c565b9150808061282990614d00565b9150506127e2565b5092915050565b6000805b6128466004613a7a565b81101561288a57612869612864826004613a8f90919063ffffffff16565b6132ec565b15612877576001915061288a565b808061288290614d00565b91505061283c565b5090565b600080600084815260200190815260200160002060000160008373ffffffffffffffffffffffffffffffffffffffff1673ffffffffffffffffffffffffffffffffffffffff16815260200190815260200160002060009054906101000a900460ff16905092915050565b600080600660009054906101000a900473ffffffffffffffffffffffffffffffffffffffff1673ffffffffffffffffffffffffffffffffffffffff1663040b030f620151806040518263ffffffff1660e01b81526004016129599190615592565b602060405180830381865afa158015612976573d6000803e3d6000fd5b505050506040513d601f19601f8201168201806040525081019061299a9190614f44565b905073__OptionLibrary_________________________639932b2be73__OptionLibrary_________________________63fd9b87636040518163ffffffff1660e01b8152600401602060405180830381865af41580156129ff573d6000803e3d6000fd5b505050506040513d601f19601f82011682018060405250810190612a239190614f44565b73__OptionLibrary_________________________63fd9b87636040518163ffffffff1660e01b8152600401602060405180830381865af4158015612a6c573d6000803e3d6000fd5b505050506040513d601f19601f82011682018060405250810190612a909190614f44565b846040518463ffffffff1660e01b8152600401612aaf93929190614fe4565b602060405180830381865af4158015612acc573d6000803e3d6000fd5b505050506040513d601f19601f82011682018060405250810190612af09190614f44565b91505090565b6000801b81565b6000612b46600360008473ffffffffffffffffffffffffffffffffffffffff1673ffffffffffffffffffffffffffffffffffffffff168152602001908152602001600020613a7a565b9050919050565b600080600660009054906101000a900473ffffffffffffffffffffffffffffffffffffffff1673ffffffffffffffffffffffffffffffffffffffff1663b0667cf86040518163ffffffff1660e01b81526004016040805180830381865afa158015612bbc573d6000803e3d6000fd5b505050506040513d601f19601f82011682018060405250810190612be09190614e01565b915091509091565b6000806000600660009054906101000a900473ffffffffffffffffffffffffffffffffffffffff1673ffffffffffffffffffffffffffffffffffffffff1663b0667cf86040518163ffffffff1660e01b81526004016040805180830381865afa158015612c59573d6000803e3d6000fd5b505050506040513d601f19601f82011682018060405250810190612c7d9190614e01565b5090506000612c8d8260006127de565b9050600073__MarketLibrary_________________________63b076288a88600860009054906101000a900473ffffffffffffffffffffffffffffffffffffffff1673ffffffffffffffffffffffffffffffffffffffff166321f8a7216040518163ffffffff1660e01b8152600401612d0590615041565b602060405180830381865afa158015612d22573d6000803e3d6000fd5b505050506040513d601f19601f82011682018060405250810190612d46919061506f565b85600960009054906101000a900473ffffffffffffffffffffffffffffffffffffffff1660028c146040518663ffffffff1660e01b8152600401612d8e9594939291906150c9565b606060405180830381865af4158015612dab573d6000803e3d6000fd5b505050506040513d601f19601f82011682018060405250810190612dcf9190615148565b505090506000945060009350600081121561305b57612e9281612df190614efb565b600960009054906101000a900473ffffffffffffffffffffffffffffffffffffffff1673ffffffffffffffffffffffffffffffffffffffff166370a08231306040518263ffffffff1660e01b8152600401612e4c91906144f7565b602060405180830381865afa158015612e69573d6000803e3d6000fd5b505050506040513d601f19601f82011682018060405250810190612e8d9190614f44565b613e59565b81612e9c90614efb565b612ea69190614fb0565b945073__MarketLibrary_________________________638170ce80612f39878673__OptionLibrary_________________________63fd9b87636040518163ffffffff1660e01b8152600401602060405180830381865af4158015612f10573d6000803e3d6000fd5b505050506040513d601f19601f82011682018060405250810190612f349190614f44565b613d43565b600a60009054906101000a900473ffffffffffffffffffffffffffffffffffffffff166040518363ffffffff1660e01b8152600401612f799291906155ad565b602060405180830381865af4158015612f96573d6000803e3d6000fd5b505050506040513d601f19601f82011682018060405250810190612fba9190614f44565b935073__MarketLibrary_________________________638170ce8086600960009054906101000a900473ffffffffffffffffffffffffffffffffffffffff166040518363ffffffff1660e01b81526004016130179291906155ad565b602060405180830381865af4158015613034573d6000803e3d6000fd5b505050506040513d601f19601f820116820180604052508101906130589190614f44565b94505b5050509250929050565b60007f28d62fc77014de57a1bbaa8212ff0979fa61ab00d377b4b8d9762048fb41996161309981613094613aa9565b613ab1565b600260008154809291906130ac90614d00565b919050555060025491506040518061020001604052808a60018111156130d5576130d4614512565b5b81526020018960018111156130ed576130ec614512565b5b81526020016000600381111561310657613105614512565b5b81526020018473ffffffffffffffffffffffffffffffffffffffff168152602001838152602001428152602001600081526020018d815260200160008152602001600081526020018b81526020018681526020018c8152602001858152602001888152602001878152506001600084815260200190815260200160002060008201518160000160006101000a81548160ff021916908360018111156131ae576131ad614512565b5b021790555060208201518160000160016101000a81548160ff021916908360018111156131de576131dd614512565b5b021790555060408201518160000160026101000a81548160ff0219169083600381111561320e5761320d614512565b5b021790555060608201518160000160036101000a81548173ffffffffffffffffffffffffffffffffffffffff021916908373ffffffffffffffffffffffffffffffffffffffff1602179055506080820151816001015560a0820151816002015560c0820151816003015560e08201518160040155610100820151816005015561012082015181600601556101408201518160070155610160820151816008015561018082015181600901556101a082015181600a01556101c082015181600b01556101e082015181600c0155905050509a9950505050505050505050565b60006001600381111561330257613301614512565b5b6001600084815260200190815260200160002060000160029054906101000a900460ff16600381111561333857613337614512565b5b14801561335b575042600160008481526020019081526020016000206005015411155b9050919050565b6000806000806000600860009054906101000a900473ffffffffffffffffffffffffffffffffffffffff1673ffffffffffffffffffffffffffffffffffffffff166321f8a7216040518163ffffffff1660e01b81526004016133c390615041565b602060405180830381865afa1580156133e0573d6000803e3d6000fd5b505050506040513d601f19601f82011682018060405250810190613404919061506f565b905073__MarketLibrary_________________________6332c21e138783600960009054906101000a900473ffffffffffffffffffffffffffffffffffffffff166040518463ffffffff1660e01b8152600401613463939291906155d6565b606060405180830381865af4158015613480573d6000803e3d6000fd5b505050506040513d601f19601f820116820180604052508101906134a4919061560d565b9050809350819650505073__MarketLibrary_________________________6332c21e138783600a60009054906101000a900473ffffffffffffffffffffffffffffffffffffffff166040518463ffffffff1660e01b815260040161350b939291906155d6565b606060405180830381865af4158015613528573d6000803e3d6000fd5b505050506040513d601f19601f8201168201806040525081019061354c919061560d565b508094508195505050509193509193565b600a60009054906101000a900473ffffffffffffffffffffffffffffffffffffffff1681565b6000600660009054906101000a900473ffffffffffffffffffffffffffffffffffffffff1673ffffffffffffffffffffffffffffffffffffffff1663def215446040518163ffffffff1660e01b8152600401602060405180830381865afa1580156135f2573d6000803e3d6000fd5b505050506040513d601f19601f820116820180604052508101906136169190615675565b905090565b6000600660009054906101000a900473ffffffffffffffffffffffffffffffffffffffff1673ffffffffffffffffffffffffffffffffffffffff1663040b030f836040518263ffffffff1660e01b81526004016136789190614442565b602060405180830381865afa158015613695573d6000803e3d6000fd5b505050506040513d601f19601f820116820180604052508101906136b99190614f44565b9050919050565b6136c982610b6d565b6136da816136d5613aa9565b613ab1565b6136e48383613c48565b505050565b6000806000600660009054906101000a900473ffffffffffffffffffffffffffffffffffffffff1673ffffffffffffffffffffffffffffffffffffffff1663b0667cf86040518163ffffffff1660e01b81526004016040805180830381865afa15801561375a573d6000803e3d6000fd5b505050506040513d601f19601f8201168201806040525081019061377e9190614e01565b509050600061378e8260006127de565b905073__MarketLibrary_________________________63eea2526b600960009054906101000a900473ffffffffffffffffffffffffffffffffffffffff16886040518363ffffffff1660e01b81526004016137eb9291906156a2565b602060405180830381865af4158015613808573d6000803e3d6000fd5b505050506040513d601f19601f8201168201806040525081019061382c9190614f44565b600082121561383c57600061383e565b815b61384891906156cb565b935073__MarketLibrary_________________________63aa5c12c773__OptionLibrary_________________________63ca0cc13d87868a6040518463ffffffff1660e01b815260040161389f9392919061575f565b602060405180830381865af41580156138bc573d6000803e3d6000fd5b505050506040513d601f19601f820116820180604052508101906138e09190615796565b600a60009054906101000a900473ffffffffffffffffffffffffffffffffffffffff166040518363ffffffff1660e01b81526004016139209291906157c3565b602060405180830381865af415801561393d573d6000803e3d6000fd5b505050506040513d601f19601f820116820180604052508101906139619190615796565b925073__MarketLibrary_________________________63aa5c12c785600960009054906101000a900473ffffffffffffffffffffffffffffffffffffffff166040518363ffffffff1660e01b81526004016139be9291906157c3565b602060405180830381865af41580156139db573d6000803e3d6000fd5b505050506040513d601f19601f820116820180604052508101906139ff9190615796565b935050509250929050565b60025481565b60007f01ffc9a7000000000000000000000000000000000000000000000000000000007bffffffffffffffffffffffffffffffffffffffffffffffffffffffff1916827bffffffffffffffffffffffffffffffffffffffffffffffffffffffff1916149050919050565b6000613a8882600001613e72565b9050919050565b6000613a9e8360000183613e83565b60001c905092915050565b600033905090565b613abb828261288e565b613b4a57613ae08173ffffffffffffffffffffffffffffffffffffffff166014613eae565b613aee8360001c6020613eae565b604051602001613aff929190615884565b6040516020818303038152906040526040517f08c379a0000000000000000000000000000000000000000000000000000000008152600401613b4191906158f7565b60405180910390fd5b5050565b6000613b60836000018360001b6140ea565b905092915050565b613b72828261288e565b613c4457600160008084815260200190815260200160002060000160008373ffffffffffffffffffffffffffffffffffffffff1673ffffffffffffffffffffffffffffffffffffffff16815260200190815260200160002060006101000a81548160ff021916908315150217905550613be9613aa9565b73ffffffffffffffffffffffffffffffffffffffff168173ffffffffffffffffffffffffffffffffffffffff16837f2f8788117e7eff1d82e926ec794901d17c78024a50270940304540a733656f0d60405160405180910390a45b5050565b613c52828261288e565b15613d2557600080600084815260200190815260200160002060000160008373ffffffffffffffffffffffffffffffffffffffff1673ffffffffffffffffffffffffffffffffffffffff16815260200190815260200160002060006101000a81548160ff021916908315150217905550613cca613aa9565b73ffffffffffffffffffffffffffffffffffffffff168173ffffffffffffffffffffffffffffffffffffffff16837ff6391f5c32d9c69d2a47ea670b442974b53935d1edc7fd64eb21e047a839171b60405160405180910390a45b5050565b600081831015613d395781613d3b565b825b905092915050565b600080600080198587098587029250828110838203039150506000811415613d7e5760008411613d7257600080fd5b83820492505050613e38565b808411613d8a57600080fd5b60008486880990508281118203915080830392506000856001877fffffffffffffffffffffffffffffffffffffffffffffffffffffffffffffffff0301169050808604955080840493506001818260000304019050808302841793506000600287600302189050808702600203810290508087026002038102905080870260020381029050808702600203810290508087026002038102905080870260020381029050808502955050505050505b9392505050565b6000613e51836000018360001b61415a565b905092915050565b6000818310613e685781613e6a565b825b905092915050565b600081600001805490509050919050565b6000826000018281548110613e9b57613e9a615919565b5b9060005260206000200154905092915050565b606060006002836002613ec19190614ea1565b613ecb9190614caa565b67ffffffffffffffff811115613ee457613ee36152eb565b5b6040519080825280601f01601f191660200182016040528015613f165781602001600182028036833780820191505090505b5090507f300000000000000000000000000000000000000000000000000000000000000081600081518110613f4e57613f4d615919565b5b60200101907effffffffffffffffffffffffffffffffffffffffffffffffffffffffffffff1916908160001a9053507f780000000000000000000000000000000000000000000000000000000000000081600181518110613fb257613fb1615919565b5b60200101907effffffffffffffffffffffffffffffffffffffffffffffffffffffffffffff1916908160001a90535060006001846002613ff29190614ea1565b613ffc9190614caa565b90505b600181111561409c577f3031323334353637383961626364656600000000000000000000000000000000600f86166010811061403e5761403d615919565b5b1a60f81b82828151811061405557614054615919565b5b60200101907effffffffffffffffffffffffffffffffffffffffffffffffffffffffffffff1916908160001a905350600485901c94508061409590615948565b9050613fff565b50600084146140e0576040517f08c379a00000000000000000000000000000000000000000000000000000000081526004016140d7906159be565b60405180910390fd5b8091505092915050565b60006140f6838361426e565b61414f578260000182908060018154018082558091505060019003906000526020600020016000909190919091505582600001805490508360010160008481526020019081526020016000208190555060019050614154565b600090505b92915050565b6000808360010160008481526020019081526020016000205490506000811461426257600060018261418c9190614fb0565b90506000600186600001805490506141a49190614fb0565b90508181146142135760008660000182815481106141c5576141c4615919565b5b90600052602060002001549050808760000184815481106141e9576141e8615919565b5b90600052602060002001819055508387600101600083815260200190815260200160002081905550505b85600001805480614227576142266159de565b5b600190038181906000526020600020016000905590558560010160008681526020019081526020016000206000905560019350505050614268565b60009150505b92915050565b600080836001016000848152602001908152602001600020541415905092915050565b604051806102000160405280600060018111156142b1576142b0614512565b5b8152602001600060018111156142ca576142c9614512565b5b8152602001600060038111156142e3576142e2614512565b5b8152602001600073ffffffffffffffffffffffffffffffffffffffff1681526020016000815260200160008152602001600081526020016000815260200160008152602001600081526020016000815260200160008152602001600081526020016000815260200160008152602001600081525090565b6000604051905090565b600080fd5b600080fd5b60007fffffffff0000000000000000000000000000000000000000000000000000000082169050919050565b6143a38161436e565b81146143ae57600080fd5b50565b6000813590506143c08161439a565b92915050565b6000602082840312156143dc576143db614364565b5b60006143ea848285016143b1565b91505092915050565b60008115159050919050565b614408816143f3565b82525050565b600060208201905061442360008301846143ff565b92915050565b6000819050919050565b61443c81614429565b82525050565b60006020820190506144576000830184614433565b92915050565b61446681614429565b811461447157600080fd5b50565b6000813590506144838161445d565b92915050565b60006020828403121561449f5761449e614364565b5b60006144ad84828501614474565b91505092915050565b600073ffffffffffffffffffffffffffffffffffffffff82169050919050565b60006144e1826144b6565b9050919050565b6144f1816144d6565b82525050565b600060208201905061450c60008301846144e8565b92915050565b7f4e487b7100000000000000000000000000000000000000000000000000000000600052602160045260246000fd5b6002811061455257614551614512565b5b50565b600081905061456382614541565b919050565b600061457382614555565b9050919050565b61458381614568565b82525050565b6002811061459a57614599614512565b5b50565b60008190506145ab82614589565b919050565b60006145bb8261459d565b9050919050565b6145cb816145b0565b82525050565b600481106145e2576145e1614512565b5b50565b60008190506145f3826145d1565b919050565b6000614603826145e5565b9050919050565b614613816145f8565b82525050565b614622816144d6565b82525050565b61463181614429565b82525050565b6102008201600082015161464e600085018261457a565b50602082015161466160208501826145c2565b506040820151614674604085018261460a565b5060608201516146876060850182614619565b50608082015161469a6080850182614628565b5060a08201516146ad60a0850182614628565b5060c08201516146c060c0850182614628565b5060e08201516146d360e0850182614628565b506101008201516146e8610100850182614628565b506101208201516146fd610120850182614628565b50610140820151614712610140850182614628565b50610160820151614727610160850182614628565b5061018082015161473c610180850182614628565b506101a08201516147516101a0850182614628565b506101c08201516147666101c0850182614628565b506101e082015161477b6101e0850182614628565b50505050565b6000610200820190506147976000830184614637565b92915050565b6000819050919050565b6147b08161479d565b81146147bb57600080fd5b50565b6000813590506147cd816147a7565b92915050565b6000602082840312156147e9576147e8614364565b5b60006147f7848285016147be565b91505092915050565b6148098161479d565b82525050565b60006020820190506148246000830184614800565b92915050565b614833816144d6565b811461483e57600080fd5b50565b6000813590506148508161482a565b92915050565b6000806040838503121561486d5761486c614364565b5b600061487b85828601614474565b925050602061488c85828601614841565b9150509250929050565b600080604083850312156148ad576148ac614364565b5b60006148bb858286016147be565b92505060206148cc85828601614841565b9150509250929050565b600080604083850312156148ed576148ec614364565b5b60006148fb85828601614474565b925050602061490c85828601614474565b9150509250929050565b6000819050919050565b61492981614916565b82525050565b60006020820190506149446000830184614920565b92915050565b6000806040838503121561496157614960614364565b5b600061496f85828601614841565b925050602061498085828601614474565b9150509250929050565b600060808201905061499f6000830187614920565b6149ac6020830186614920565b6149b960408301856144e8565b6149c660608301846144e8565b95945050505050565b60006040820190506149e46000830185614433565b6149f16020830184614433565b9392505050565b600060208284031215614a0e57614a0d614364565b5b6000614a1c84828501614841565b91505092915050565b614a2e816143f3565b8114614a3957600080fd5b50565b600081359050614a4b81614a25565b92915050565b600080600060608486031215614a6a57614a69614364565b5b6000614a7886828701614474565b9350506020614a8986828701614474565b9250506040614a9a86828701614a3c565b9150509250925092565b60008060408385031215614abb57614aba614364565b5b6000614ac985828601614474565b9250506020614ada85828601614a3c565b9150509250929050565b60028110614af157600080fd5b50565b600081359050614b0381614ae4565b92915050565b60028110614b1657600080fd5b50565b600081359050614b2881614b09565b92915050565b6000806000806000806000806000806101408b8d031215614b5257614b51614364565b5b6000614b608d828e01614474565b9a50506020614b718d828e01614474565b9950506040614b828d828e01614474565b9850506060614b938d828e01614af4565b9750506080614ba48d828e01614b19565b96505060a0614bb58d828e01614474565b95505060c0614bc68d828e01614474565b94505060e0614bd78d828e01614474565b935050610100614be98d828e01614474565b925050610120614bfb8d828e01614841565b9150509295989b9194979a5092959850565b6000608082019050614c226000830187614433565b614c2f6020830186614433565b614c3c6040830185614433565b614c496060830184614433565b95945050505050565b6000604082019050614c676000830185614920565b614c746020830184614920565b9392505050565b7f4e487b7100000000000000000000000000000000000000000000000000000000600052601160045260246000fd5b6000614cb582614429565b9150614cc083614429565b9250827fffffffffffffffffffffffffffffffffffffffffffffffffffffffffffffffff03821115614cf557614cf4614c7b565b5b828201905092915050565b6000614d0b82614429565b91507fffffffffffffffffffffffffffffffffffffffffffffffffffffffffffffffff821415614d3e57614d3d614c7b565b5b600182019050919050565b600082825260208201905092915050565b7f416363657373436f6e74726f6c3a2063616e206f6e6c792072656e6f756e636560008201527f20726f6c657320666f722073656c660000000000000000000000000000000000602082015250565b6000614db6602f83614d49565b9150614dc182614d5a565b604082019050919050565b60006020820190508181036000830152614de581614da9565b9050919050565b600081519050614dfb8161445d565b92915050565b60008060408385031215614e1857614e17614364565b5b6000614e2685828601614dec565b9250506020614e3785828601614dec565b9150509250929050565b7f4e487b7100000000000000000000000000000000000000000000000000000000600052601260045260246000fd5b6000614e7b82614429565b9150614e8683614429565b925082614e9657614e95614e41565b5b828204905092915050565b6000614eac82614429565b9150614eb783614429565b9250817fffffffffffffffffffffffffffffffffffffffffffffffffffffffffffffffff0483118215151615614ef057614eef614c7b565b5b828202905092915050565b6000614f0682614916565b91507f8000000000000000000000000000000000000000000000000000000000000000821415614f3957614f38614c7b565b5b816000039050919050565b600060208284031215614f5a57614f59614364565b5b6000614f6884828501614dec565b91505092915050565b8082525050565b614f8181614429565b82525050565b6000604082019050614f9c6000830185614f71565b614fa96020830184614f78565b9392505050565b6000614fbb82614429565b9150614fc683614429565b925082821015614fd957614fd8614c7b565b5b828203905092915050565b6000606082019050614ff96000830186614f78565b6150066020830185614f78565b6150136040830184614f78565b949350505050565b7f3078310000000000000000000000000000000000000000000000000000000000815250565b60006020820190506150556000830161501b565b919050565b6000815190506150698161482a565b92915050565b60006020828403121561508557615084614364565b5b60006150938482850161505a565b91505092915050565b6150a5816144d6565b82525050565b6150b481614916565b82525050565b6150c3816143f3565b82525050565b600060a0820190506150de600083018861509c565b6150eb602083018761509c565b6150f860408301866150ab565b615105606083018561509c565b61511260808301846150ba565b9695505050505050565b61512581614916565b811461513057600080fd5b50565b6000815190506151428161511c565b92915050565b60008060006060848603121561516157615160614364565b5b600061516f86828701615133565b935050602061518086828701614dec565b92505060406151918682870161505a565b9150509250925092565b600060c0820190506151b0600083018961509c565b6151bd602083018861509c565b6151ca6040830187614f78565b6151d76060830186614f78565b6151e4608083018561509c565b6151f160a083018461509c565b979650505050505050565b6000806040838503121561521357615212614364565b5b600061522185828601615133565b92505060206152328582860161505a565b9150509250929050565b600061524782614916565b915061525283614916565b9250817f7fffffffffffffffffffffffffffffffffffffffffffffffffffffffffffffff0383136000831215161561528d5761528c614c7b565b5b817f80000000000000000000000000000000000000000000000000000000000000000383126000831216156152c5576152c4614c7b565b5b828201905092915050565b600080fd5b600080fd5b6000601f19601f8301169050919050565b7f4e487b7100000000000000000000000000000000000000000000000000000000600052604160045260246000fd5b615323826152da565b810181811067ffffffffffffffff82111715615342576153416152eb565b5b80604052505050565b600061535561435a565b9050615361828261531a565b919050565b600067ffffffffffffffff821115615381576153806152eb565b5b61538a826152da565b9050602081019050919050565b60005b838110156153b557808201518184015260208101905061539a565b838111156153c4576000848401525b50505050565b60006153dd6153d884615366565b61534b565b9050828152602081018484840111156153f9576153f86152d5565b5b615404848285615397565b509392505050565b600082601f830112615421576154206152d0565b5b81516154318482602086016153ca565b91505092915050565b6000602082840312156154505761544f614364565b5b600082015167ffffffffffffffff81111561546e5761546d614369565b5b61547a8482850161540c565b91505092915050565b600081519050919050565b600081905092915050565b60006154a482615483565b6154ae818561548e565b93506154be818560208601615397565b80840191505092915050565b60006154d68284615499565b915081905092915050565b7f4e65676174697665206571756974792e00000000000000000000000000000000600082015250565b6000615517601083614d49565b9150615522826154e1565b602082019050919050565b600060208201905081810360008301526155468161550a565b9050919050565b6000819050919050565b6000819050919050565b600061557c6155776155728461554d565b615557565b614429565b9050919050565b61558c81615561565b82525050565b60006020820190506155a76000830184615583565b92915050565b60006040820190506155c26000830185614f78565b6155cf602083018461509c565b9392505050565b60006060820190506155eb600083018661509c565b6155f8602083018561509c565b615605604083018461509c565b949350505050565b60008060006060848603121561562657615625614364565b5b600061563486828701614dec565b935050602061564586828701614dec565b925050604061565686828701614dec565b9150509250925092565b60008151905061566f816147a7565b92915050565b60006020828403121561568b5761568a614364565b5b600061569984828501615660565b91505092915050565b60006040820190506156b7600083018561509c565b6156c4602083018461509c565b9392505050565b60006156d682614916565b91506156e183614916565b9250827f80000000000000000000000000000000000000000000000000000000000000000182126000841215161561571c5761571b614c7b565b5b827f7fffffffffffffffffffffffffffffffffffffffffffffffffffffffffffffff01821360008412161561575457615753614c7b565b5b828203905092915050565b600060608201905061577460008301866150ab565b6157816020830185614f78565b61578e6040830184614f78565b949350505050565b6000602082840312156157ac576157ab614364565b5b60006157ba84828501615133565b91505092915050565b60006040820190506157d860008301856150ab565b6157e5602083018461509c565b9392505050565b7f416363657373436f6e74726f6c3a206163636f756e7420000000000000000000600082015250565b600061582260178361548e565b915061582d826157ec565b601782019050919050565b7f206973206d697373696e6720726f6c6520000000000000000000000000000000600082015250565b600061586e60118361548e565b915061587982615838565b601182019050919050565b600061588f82615815565b915061589b8285615499565b91506158a682615861565b91506158b28284615499565b91508190509392505050565b60006158c982615483565b6158d38185614d49565b93506158e3818560208601615397565b6158ec816152da565b840191505092915050565b6000602082019050818103600083015261591181846158be565b905092915050565b7f4e487b7100000000000000000000000000000000000000000000000000000000600052603260045260246000fd5b600061595382614429565b9150600082141561596757615966614c7b565b5b600182039050919050565b7f537472696e67733a20686578206c656e67746820696e73756666696369656e74600082015250565b60006159a8602083614d49565b91506159b382615972565b602082019050919050565b600060208201905081810360008301526159d78161599b565b9050919050565b7f4e487b7100000000000000000000000000000000000000000000000000000000600052603160045260246000fdfea2646970667358221220bb7ccf7b46f45334b2dcfdacc5a69063e7f3c15037c0fe204582dbb590146db964736f6c634300080a0033",
  "immutableReferences": {},
  "source": "/**\n * SPDX-License-Identifier: GPL-3.0-or-later\n * Moret\n * Copyright (C) 2021 Moret\n*/\n\npragma solidity 0.8.10;\nimport \"@openzeppelin/contracts/access/AccessControl.sol\";\nimport \"@openzeppelin/contracts/utils/structs/EnumerableSet.sol\";\nimport \"./MarketLibrary.sol\";\n\ncontract OptionVault is AccessControl{\n  using OptionLibrary for OptionLibrary.Option;\n  using EnumerableSet for EnumerableSet.UintSet;\n  // using EnumerableSet for EnumerableSet.AddressSet;\n\n  bytes32 public constant EXCHANGE_ROLE = keccak256(\"EXCHANGE_ROLE\");\n  mapping(uint256=> OptionLibrary.Option) internal optionsList;\n  uint256 public optionCounter = 0;\n  mapping(address=> EnumerableSet.UintSet) internal activeOptionsPerOwner;\n  EnumerableSet.UintSet internal activeOptions;\n  IVolatilityChain internal volatilityChain;\n\n  address public volChainAddress;\n  address public aaveAddress;\n  address public underlying;\n  address public funding;\n\n  constructor( address _volChainAddress, address _underlying, address _funding, address _aaveAddress){\n    _setupRole(DEFAULT_ADMIN_ROLE, msg.sender);\n    _setupRole(EXCHANGE_ROLE, msg.sender);\n    volChainAddress = _volChainAddress;\n    volatilityChain = IVolatilityChain(_volChainAddress); \n    funding = _funding;\n    underlying = _underlying;\n    aaveAddress = _aaveAddress;}\n  \n  function descriptionHash() external view returns (bytes32)  { return keccak256(abi.encodePacked(volatilityChain.getDecription()));}\n\n  function addOption(uint256 _tenor, uint256 _strike, uint256 _amount, OptionLibrary.PayoffType _poType, OptionLibrary.OptionSide _side, uint256 _premium, uint256 _cost, uint256 _price, uint256 _volatility, address _holder) external onlyRole(EXCHANGE_ROLE) returns(uint256 _id) {\n    optionCounter++;\n    _id = optionCounter;\n    optionsList[_id] = OptionLibrary.Option(_poType, _side, OptionLibrary.OptionStatus.Draft, _holder, _id, block.timestamp,  0, _tenor, 0,  0, _amount, _price, _strike, _volatility, _premium, _cost);}\n\n  function getOptionHolder(uint256 _id) external view returns(address) { return optionsList[_id].holder;}\n  function getHoldersOptionCount(address _address) external view returns(uint256){return activeOptionsPerOwner[_address].length();}\n  function getHoldersOption(uint256 _index, address _address) external view returns(OptionLibrary.Option memory) {return optionsList[activeOptionsPerOwner[_address].at(_index)];}\n  function getOption(uint256 _id) external view returns(OptionLibrary.Option memory) {return optionsList[_id];}\n\n  function getAggregateNotional() external view returns(uint256 _notional) {\n    _notional= 0;\n    for(uint256 i=0;i<activeOptions.length();i++){\n      _notional += optionsList[uint256(activeOptions.at(i))].amount;} }\n\n  function getGrossCapital(address _address) external view returns(uint256 _capital){\n    (uint256 _price, ) = volatilityChain.queryPrice();\n    (uint256 _underlying_balance, uint256 _funding_balance, uint256 _collateral_balance, uint256 _debt_balance) = getBalances(_address);\n    _capital = _funding_balance + _collateral_balance + MulDiv(_underlying_balance, _price, OptionLibrary.Multiplier());\n    require(_capital > MulDiv(_debt_balance, _price, OptionLibrary.Multiplier()), \"Negative equity.\");\n    _capital -= MulDiv(_debt_balance, _price, OptionLibrary.Multiplier());}\n\n  function getMaxHedge() external view returns (uint256){\n    (uint256 _price,) = volatilityChain.queryPrice();\n    int256 _deltaZero = calculateAggregateDelta(_price / 1e5, true);\n    int256 _deltaMax = calculateAggregateDelta(_price * 1e5, true);\n    return MulDiv(Math.max(_deltaZero>=0?uint256(_deltaZero):uint256(-_deltaZero), _deltaMax>=0?uint256(_deltaMax):uint256(-_deltaMax) ), _price, OptionLibrary.Multiplier());}\n\n  function getSellPutCollateral() external view returns (uint256 _collateral){\n    _collateral= 0;\n    for(uint256 i=0;i<activeOptions.length();i++){\n      uint256 _id = uint256(activeOptions.at(i));\n      if(optionsList[_id].status== OptionLibrary.OptionStatus.Active && optionsList[_id].side == OptionLibrary.OptionSide.Sell && optionsList[_id].poType==OptionLibrary.PayoffType.Put){\n      _collateral +=  optionsList[_id].calcNotionalExposure(optionsList[_id].strike);}}}\n\n  function getContractPayoff(uint256 _id) external view returns(uint256 _payoff, uint256 _payback){\n    (uint256 _price,) = volatilityChain.queryPrice();\n    _payoff = optionsList[_id].calcPayoff(_price);\n    _payback = _payoff;\n    if(optionsList[_id].side == OptionLibrary.OptionSide.Sell && optionsList[_id].poType==OptionLibrary.PayoffType.Call){\n      _payback =  optionsList[_id].calcNotionalExposure(_price) - _payoff;}\n    if(optionsList[_id].side == OptionLibrary.OptionSide.Sell && optionsList[_id].poType==OptionLibrary.PayoffType.Put){\n      _payback =  optionsList[_id].calcNotionalExposure(optionsList[_id].strike) - _payoff;}}\n\n  function calculateContractDelta(uint256 _id, uint256 _price, bool _includeExpiring) public view returns(int256 _delta){\n    _delta = 0;\n    if(optionsList[_id].status== OptionLibrary.OptionStatus.Active && (_includeExpiring || (optionsList[_id].maturity > block.timestamp))){\n      if(optionsList[_id].side==OptionLibrary.OptionSide.Buy){\n        uint256 _vol = volatilityChain.getVol(optionsList[_id].maturity - Math.min(optionsList[_id].maturity, block.timestamp));\n        _delta = int256(MulDiv(OptionLibrary.calcDelta(_price, optionsList[_id].strike, _vol), optionsList[_id].amount, OptionLibrary.Multiplier() ));\n        if(optionsList[_id].poType==OptionLibrary.PayoffType.Put) {_delta = -int256(optionsList[_id].amount) + _delta; }}\n      if(optionsList[_id].side==OptionLibrary.OptionSide.Sell && optionsList[_id].poType==OptionLibrary.PayoffType.Call){ \n        _delta = int256(optionsList[_id].amount);}}} // collateral for sell call options. zero for sell put options\n    \n  function calculateAggregateDelta(uint256 _price, bool _includeExpiring) public view returns(int256 _delta){\n    _delta= 0;\n    for(uint256 i=0;i<activeOptions.length();i++){\n      _delta += calculateContractDelta(uint256(activeOptions.at(i)),_price, _includeExpiring);}}\n\n  function calculateContractGamma(uint256 _id, uint256 _price) public view returns(int256 _gamma){\n    _gamma = 0;\n    if(optionsList[_id].status== OptionLibrary.OptionStatus.Active  && (optionsList[_id].maturity > block.timestamp)){\n      uint256 _vol = volatilityChain.getVol(optionsList[_id].maturity - block.timestamp);\n      _gamma = int256(MulDiv(OptionLibrary.calcGamma(_price, optionsList[_id].strike, _vol), optionsList[_id].amount, OptionLibrary.Multiplier() ));\n      if(optionsList[_id].side==OptionLibrary.OptionSide.Sell){ _gamma = -_gamma;}}}\n      \n  function calculateAggregateGamma() external view returns(int256 _gamma){\n    (uint256 _price,) = volatilityChain.queryPrice();\n    _gamma= 0;\n    for(uint256 i=0;i<activeOptions.length();i++){\n      _gamma += calculateContractGamma(uint256(activeOptions.at(i)),_price);}}\n\n  function calculateSpotGamma() external view returns(int256 _gamma){\n    uint256 _vol = volatilityChain.getVol(86400);\n    _gamma = int256(OptionLibrary.calcGamma(OptionLibrary.Multiplier(), OptionLibrary.Multiplier(), _vol));}\n    \n  // function validateOption(uint256 _id, address _holder) external view {\n  //   require(optionsList[_id].holder== _holder, \"Not the owner.\");\n  //   require(optionsList[_id].maturity >= block.timestamp, \"Option has expired.\");\n  //   require(optionsList[_id].status==OptionLibrary.OptionStatus.Active, \"Not active option.\");}\n\n  function anyOptionExpiring() external view returns(bool _isExpiring) {\n    _isExpiring = false;\n    for(uint256 i=0;i<activeOptions.length();i++){\n      if(isExpiring(uint256(activeOptions.at(i)))){\n        _isExpiring = true;\n        break;}}}\n\n  function isExpiring(uint256 _id) public view returns (bool){ return (optionsList[_id].status== OptionLibrary.OptionStatus.Active) && (optionsList[_id].maturity <= block.timestamp);}\n\n  function getExpiringOptionId() external view returns(uint256 _id){\n    _id = 0;\n    for(uint256 i=0;i<activeOptions.length();i++){\n      if(isExpiring(uint256(activeOptions.at(i)))){\n        _id = uint256(activeOptions.at(i));\n        break;}}\n  }\n\n  function stampActiveOption(uint256 _id, address _holder) external onlyRole(EXCHANGE_ROLE) {\n    optionsList[_id].effectiveTime = block.timestamp;\n    optionsList[_id].maturity = optionsList[_id].effectiveTime + optionsList[_id].tenor;\n    optionsList[_id].status = OptionLibrary.OptionStatus.Active;\n    activeOptionsPerOwner[_holder].add(_id);\n    activeOptions.add(_id);}\n\n  function stampExercisedOption(uint256 _id) external onlyRole(EXCHANGE_ROLE){\n    activeOptionsPerOwner[optionsList[_id].holder].remove(_id);\n    activeOptions.remove(_id);\n    optionsList[_id].status = OptionLibrary.OptionStatus.Exercised;\n    optionsList[_id].exerciseTime = block.timestamp;}\n\n  function stampExpiredOption(uint256 _id)  external onlyRole(EXCHANGE_ROLE){\n    activeOptionsPerOwner[optionsList[_id].holder].remove(_id);\n    activeOptions.remove(_id);\n    optionsList[_id].status = OptionLibrary.OptionStatus.Expired;\n    optionsList[_id].exerciseTime = block.timestamp;}\n\n  // this function emits values in token decimals.\n  function calcSwapTradesInTok(address _address, uint256 _swapSlippage) external view returns(int256 _tradeUnderlyingAmount, int256 _tradeFundingAmount){\n    (uint256 _price,) = volatilityChain.queryPrice();\n    int256 _aggregateDelta = calculateAggregateDelta(_price, false);\n    _tradeUnderlyingAmount = (_aggregateDelta >= 0? _aggregateDelta: int256(0)) - int256(MarketLibrary.balanceDef(underlying, _address));\n    _tradeFundingAmount = MarketLibrary.cvtDecimalsInt(OptionLibrary.getOpposeTrade(_tradeUnderlyingAmount, _price, _swapSlippage), funding);\n    _tradeUnderlyingAmount = MarketLibrary.cvtDecimalsInt(_tradeUnderlyingAmount, underlying);}\n  \n  // this function emits values in DEFAULT decimals.\n  function getBalances(address _address) public view returns(uint256 _underlyingBalance, uint256 _fundingBalance, uint256 _collateralBalance, uint256 _debtBalance){\n    address _protocolAds = ILendingPoolAddressesProvider(aaveAddress).getAddress(\"0x1\");//bytes32(uint256(1)));\n    ( _underlyingBalance, ,  _debtBalance) = MarketLibrary.getTokenBalances(_address, _protocolAds, underlying);\n    ( _fundingBalance,  _collateralBalance,) = MarketLibrary.getTokenBalances(_address, _protocolAds, funding); }\n\n  // this function emits values in token decimals.\n  function calcLoanRepaymentInTok(address _address, uint256 _lendingPoolRateMode) external view returns(uint256 _repayAmount, uint256 _repaySwapValue){\n    (uint256 _price,) = volatilityChain.queryPrice();\n    int256 _aggregateDelta = calculateAggregateDelta(_price, false);\n    (int256 _loanTradeAmount, , ) = MarketLibrary.getLoanTrade(_address, ILendingPoolAddressesProvider(aaveAddress).getAddress(\"0x1\"), _aggregateDelta, underlying, _lendingPoolRateMode == 2);\n    _repayAmount = 0;\n    _repaySwapValue = 0;\n    if(_loanTradeAmount < 0){\n      _repayAmount = uint256(-_loanTradeAmount) - Math.min(uint256(-_loanTradeAmount), ERC20(underlying).balanceOf(address(this)));\n      _repaySwapValue = MarketLibrary.cvtDecimals(MulDiv(_repayAmount, _price, OptionLibrary.Multiplier()), funding);\n      _repayAmount = MarketLibrary.cvtDecimals(_repayAmount, underlying);}}\n\n  // this function emits values in DEFAULT decimals.\n  function calcLoanTrades(address _address, uint256 _lendingPoolRateMode) external view returns(int256 _loanTradeAmount, int256 _collateralChange, address _loanAddress, address _collateralAddress){\n    (uint256 _price,) = volatilityChain.queryPrice();\n    int256 _aggregateDelta = calculateAggregateDelta(_price, false);\n    address _protocolAds = ILendingPoolAddressesProvider(aaveAddress).getAddress(\"0x1\");\n    uint256 _targetLoan = 0;\n    (_loanTradeAmount, _targetLoan, _loanAddress) = MarketLibrary.getLoanTrade(_address, _protocolAds, _aggregateDelta, underlying, _lendingPoolRateMode == 2);\n    (_collateralChange, _collateralAddress) = MarketLibrary.getCollateralTrade(_address, _protocolAds, _targetLoan, _price, funding, underlying);}\n\n  function queryVol(uint256 _tenor) external view returns(uint256){return volatilityChain.getVol(_tenor);}\n  function queryPrice() external view returns(uint256, uint256){return volatilityChain.queryPrice();}\n  function tokenHash() external view returns (bytes32) {return volatilityChain.getTokenHash();}\n}\n",
  "sourcePath": "/Users/mac/Documents/GitHub/moret/contracts/OptionVault.sol",
  "compiler": {
    "name": "solc",
    "version": "0.8.10+commit.fc410830.Emscripten.clang"
  },
  "schemaVersion": "3.4.3",
  "updatedAt": "2021-12-02T07:29:48.194Z",
  "devdoc": {
    "kind": "dev",
    "methods": {
      "getRoleAdmin(bytes32)": {
        "details": "Returns the admin role that controls `role`. See {grantRole} and {revokeRole}. To change a role's admin, use {_setRoleAdmin}."
      },
      "grantRole(bytes32,address)": {
        "details": "Grants `role` to `account`. If `account` had not been already granted `role`, emits a {RoleGranted} event. Requirements: - the caller must have ``role``'s admin role."
      },
      "hasRole(bytes32,address)": {
        "details": "Returns `true` if `account` has been granted `role`."
      },
      "renounceRole(bytes32,address)": {
        "details": "Revokes `role` from the calling account. Roles are often managed via {grantRole} and {revokeRole}: this function's purpose is to provide a mechanism for accounts to lose their privileges if they are compromised (such as when a trusted device is misplaced). If the calling account had been revoked `role`, emits a {RoleRevoked} event. Requirements: - the caller must be `account`."
      },
      "revokeRole(bytes32,address)": {
        "details": "Revokes `role` from `account`. If `account` had been granted `role`, emits a {RoleRevoked} event. Requirements: - the caller must have ``role``'s admin role."
      },
      "supportsInterface(bytes4)": {
        "details": "See {IERC165-supportsInterface}."
      }
    },
    "version": 1
  },
  "userdoc": {
    "kind": "user",
    "methods": {},
    "version": 1
  }
}