{
  "contractName": "OptionLibrary",
  "abi": [
    {
      "inputs": [
        {
          "internalType": "uint256",
          "name": "_strike",
          "type": "uint256"
        },
        {
          "internalType": "uint256",
          "name": "_price",
          "type": "uint256"
        },
        {
          "internalType": "uint256",
          "name": "_amount",
          "type": "uint256"
        },
        {
          "internalType": "enum OptionLibrary.PayoffType",
          "name": "_poType",
          "type": "OptionLibrary.PayoffType"
        }
      ],
      "name": "calcIntrinsicValue",
      "outputs": [
        {
          "internalType": "uint256",
          "name": "",
          "type": "uint256"
        }
      ],
      "stateMutability": "pure",
      "type": "function",
      "constant": true
    },
    {
      "inputs": [
        {
          "internalType": "uint256",
          "name": "_strike",
          "type": "uint256"
        },
        {
          "internalType": "uint256",
          "name": "_price",
          "type": "uint256"
        },
        {
          "internalType": "uint256",
          "name": "_volatility",
          "type": "uint256"
        },
        {
          "internalType": "uint256",
          "name": "_priceMultiplier",
          "type": "uint256"
        }
      ],
      "name": "calcVolSkew",
      "outputs": [
        {
          "internalType": "uint256",
          "name": "",
          "type": "uint256"
        }
      ],
      "stateMutability": "pure",
      "type": "function",
      "constant": true
    },
    {
      "inputs": [
        {
          "internalType": "uint256",
          "name": "_volatility",
          "type": "uint256"
        },
        {
          "internalType": "uint256",
          "name": "_amount",
          "type": "uint256"
        },
        {
          "internalType": "uint256",
          "name": "_priceMultiplier",
          "type": "uint256"
        }
      ],
      "name": "calcTimeValue",
      "outputs": [
        {
          "internalType": "uint256",
          "name": "",
          "type": "uint256"
        }
      ],
      "stateMutability": "pure",
      "type": "function",
      "constant": true
    },
    {
      "inputs": [
        {
          "internalType": "uint256",
          "name": "_price",
          "type": "uint256"
        },
        {
          "internalType": "uint256",
          "name": "_volatility",
          "type": "uint256"
        },
        {
          "internalType": "uint256",
          "name": "_strike",
          "type": "uint256"
        },
        {
          "internalType": "enum OptionLibrary.PayoffType",
          "name": "_poType",
          "type": "OptionLibrary.PayoffType"
        },
        {
          "internalType": "uint256",
          "name": "_amount",
          "type": "uint256"
        },
        {
          "internalType": "uint256",
          "name": "_priceMultiplier",
          "type": "uint256"
        }
      ],
      "name": "calcPremium",
      "outputs": [
        {
          "internalType": "uint256",
          "name": "",
          "type": "uint256"
        }
      ],
      "stateMutability": "pure",
      "type": "function",
      "constant": true
    },
    {
      "inputs": [
        {
          "internalType": "uint256",
          "name": "_amount",
          "type": "uint256"
        },
        {
          "components": [
            {
              "internalType": "uint256",
              "name": "numerator",
              "type": "uint256"
            },
            {
              "internalType": "uint256",
              "name": "denominator",
              "type": "uint256"
            }
          ],
          "internalType": "struct OptionLibrary.Percent",
          "name": "_feeAddon",
          "type": "tuple"
        }
      ],
      "name": "calcFee",
      "outputs": [
        {
          "internalType": "uint256",
          "name": "",
          "type": "uint256"
        }
      ],
      "stateMutability": "pure",
      "type": "function",
      "constant": true
    }
  ],
  "bytecode": "0x610b83610053600b82828239805160001a607314610046577f4e487b7100000000000000000000000000000000000000000000000000000000600052600060045260246000fd5b30600052607381538281f3fe73000000000000000000000000000000000000000030146080604052600436106100875760003560e01c806399b011391161006557806399b011391461011c578063ab3901971461014c578063ae10d55d1461017c578063d2687085146101ac57610087565b8063369995791461008c5780635783dddd146100bc5780639931896a146100ec575b600080fd5b6100a660048036038101906100a1919061067e565b6101dc565b6040516100b3919061087b565b60405180910390f35b6100d660048036038101906100d191906106be565b610205565b6040516100e3919061087b565b60405180910390f35b610106600480360381019061010191906105fe565b61023f565b604051610113919061087b565b60405180910390f35b61013660048036038101906101319190610778565b61029d565b604051610143919061087b565b60405180910390f35b61016660048036038101906101619190610805565b6102e2565b604051610173919061087b565b60405180910390f35b61019660048036038101906101919190610711565b6103ba565b6040516101a3919061087b565b60405180910390f35b6101c660048036038101906101c1919061063e565b610470565b6040516101d3919061087b565b60405180910390f35b600081602001518260000151846101f39190610942565b6101fd9190610911565b905092915050565b6000600a60048386866102189190610942565b6102229190610911565b61022c9190610942565b6102369190610911565b90509392505050565b60008115610280578260090154836007015484600b015485600a015461026591906108bb565b61026f9190610942565b6102799190610911565b9050610297565b82600b015483600a015461029491906108bb565b90505b92915050565b6000806102ac868986886103ba565b905060006102c66102bf888b8b886102e2565b8686610205565b905080826102d491906108bb565b925050509695505050505050565b6000808314156102f4578290506103b2565b60008486116103195784838761030a9190610942565b6103149190610911565b610331565b8583866103269190610942565b6103309190610911565b5b9050600060028486116103445785610346565b845b6103509190610911565b8461035b919061099c565b905060008185600261036d9190610942565b610377919061099c565b905060008286610387919061099c565b90508382610395919061099c565b87826103a19190610942565b6103ab9190610911565b9450505050505b949350505050565b60008060009050600060018111156103d5576103d4610a7f565b5b8360018111156103e8576103e7610a7f565b5b1480156103f457508585115b15610408578585610405919061099c565b90505b60018081111561041b5761041a610a7f565b5b83600181111561042e5761042d610a7f565b5b14801561043a57508585105b1561044e57848661044b919061099c565b90505b84848261045b9190610942565b6104659190610911565b915050949350505050565b600080600090506000600181111561048b5761048a610a7f565b5b8460000160009054906101000a900460ff1660018111156104af576104ae610a7f565b5b1480156104bf5750836008015483115b156104d7578360080154836104d4919061099c565b90505b6001808111156104ea576104e9610a7f565b5b8460000160009054906101000a900460ff16600181111561050e5761050d610a7f565b5b14801561051e5750836008015483105b1561053657828460080154610533919061099c565b90505b828460060154826105479190610942565b6105519190610911565b91505092915050565b60008135905061056981610af8565b92915050565b60008135905061057e81610b0f565b92915050565b60008135905061059381610b1f565b92915050565b6000604082840312156105af576105ae610add565b5b6105b96040610896565b905060006105c9848285016105e9565b60008301525060206105dd848285016105e9565b60208301525092915050565b6000813590506105f881610b36565b92915050565b6000806040838503121561061557610614610ae2565b5b600061062385828601610584565b92505060206106348582860161055a565b9150509250929050565b6000806040838503121561065557610654610ae2565b5b600061066385828601610584565b9250506020610674858286016105e9565b9150509250929050565b6000806060838503121561069557610694610ae2565b5b60006106a3858286016105e9565b92505060206106b485828601610599565b9150509250929050565b6000806000606084860312156106d7576106d6610ae2565b5b60006106e5868287016105e9565b93505060206106f6868287016105e9565b9250506040610707868287016105e9565b9150509250925092565b6000806000806080858703121561072b5761072a610ae2565b5b6000610739878288016105e9565b945050602061074a878288016105e9565b935050604061075b878288016105e9565b925050606061076c8782880161056f565b91505092959194509250565b60008060008060008060c0878903121561079557610794610ae2565b5b60006107a389828a016105e9565b96505060206107b489828a016105e9565b95505060406107c589828a016105e9565b94505060606107d689828a0161056f565b93505060806107e789828a016105e9565b92505060a06107f889828a016105e9565b9150509295509295509295565b6000806000806080858703121561081f5761081e610ae2565b5b600061082d878288016105e9565b945050602061083e878288016105e9565b935050604061084f878288016105e9565b9250506060610860878288016105e9565b91505092959194509250565b610875816109e6565b82525050565b6000602082019050610890600083018461086c565b92915050565b60006108a06108b1565b90506108ac82826109f0565b919050565b6000604051905090565b60006108c6826109e6565b91506108d1836109e6565b9250827fffffffffffffffffffffffffffffffffffffffffffffffffffffffffffffffff0382111561090657610905610a21565b5b828201905092915050565b600061091c826109e6565b9150610927836109e6565b92508261093757610936610a50565b5b828204905092915050565b600061094d826109e6565b9150610958836109e6565b9250817fffffffffffffffffffffffffffffffffffffffffffffffffffffffffffffffff048311821515161561099157610990610a21565b5b828202905092915050565b60006109a7826109e6565b91506109b2836109e6565b9250828210156109c5576109c4610a21565b5b828203905092915050565b60008115159050919050565b6000819050919050565b6000819050919050565b6109f982610ae7565b810181811067ffffffffffffffff82111715610a1857610a17610aae565b5b80604052505050565b7f4e487b7100000000000000000000000000000000000000000000000000000000600052601160045260246000fd5b7f4e487b7100000000000000000000000000000000000000000000000000000000600052601260045260246000fd5b7f4e487b7100000000000000000000000000000000000000000000000000000000600052602160045260246000fd5b7f4e487b7100000000000000000000000000000000000000000000000000000000600052604160045260246000fd5b600080fd5b600080fd5b6000601f19601f8301169050919050565b610b01816109d0565b8114610b0c57600080fd5b50565b60028110610b1c57600080fd5b50565b610b28816109dc565b8114610b3357600080fd5b50565b610b3f816109e6565b8114610b4a57600080fd5b5056fea26469706673582212207fd6f6c59b3ce9c962ce4097a0ca8532dc966bb2a37f6568ce8d6781aed70f1064736f6c63430008070033",
  "immutableReferences": {},
  "source": "/**\n * SPDX-License-Identifier: GPL-3.0-or-later\n * Moret\n * Copyright (C) 2021 Moret\n*/\n\npragma solidity ^0.8.4;\n\n\nlibrary OptionLibrary {\n  enum PayoffType { Call, Put}\n  enum OptionSide{ Buy, Sell}\n  enum OptionStatus { Draft, Active, Exercised, Expired}\n\n  struct Option {\n      PayoffType poType;\n      OptionSide side;\n      OptionStatus status;\n      address holder;\n      uint256 id;\n      uint256 createTime;\n      uint256 effectiveTime;\n      uint256 tenor;\n      uint256 exerciseTime;\n\n      uint256 amount;\n      uint256 spot;\n      uint256 strike;\n      uint256 volatility;\n      uint256 premium;\n      uint256 fee;\n  }\n\n  struct Percent{\n    uint256 numerator;\n    uint256 denominator;\n  }\n\n  function calcIntrinsicValue(uint256 _strike, uint256 _price, uint256 _amount, PayoffType _poType) public pure returns(uint256)\n  {\n      uint256 _intrinsicValue = 0;\n\n      if((_poType == PayoffType.Call) && (_price > _strike)){\n        _intrinsicValue = _price - _strike;\n      }\n      if((_poType == PayoffType.Put) && (_price<_strike)){\n        _intrinsicValue = _strike - _price;\n      }\n      return _intrinsicValue * _amount / _price;\n  }\n\n  function calcVolSkew(uint256 _strike, uint256 _price, uint256 _volatility, uint256 _priceMultiplier) public pure returns (uint256)\n  {\n    if(_volatility == 0)\n       return _volatility;\n\n    uint256 _moneyness = _strike > _price? (_price * _priceMultiplier / _strike) : (_strike * _priceMultiplier / _price); // always in (0,1]\n\n    uint256 _midPoint = _priceMultiplier - (_volatility > _priceMultiplier? _priceMultiplier: _volatility) / 2 ; // always in [0.5, 1]\n    uint256 _a = 2 * _priceMultiplier - _midPoint; // always in [1, 1.5]\n    uint256 _b = _priceMultiplier - _midPoint; // always in [0, 0.5]\n\n    return _b * _volatility / (_a - _moneyness);\n  }\n\n  function calcTimeValue(uint _volatility, uint256 _amount, uint256 _priceMultiplier) public pure returns(uint256)\n  {\n      return _amount * _volatility / _priceMultiplier * 4 / 10;\n  }\n\n  function calcPremium(uint256 _price, uint256 _volatility, uint256 _strike, PayoffType _poType, uint256 _amount, uint256 _priceMultiplier)\n    public pure returns(uint256){\n      uint256 _intrinsicValue = calcIntrinsicValue(_strike, _price, _amount, _poType);\n      uint256 _timeValue = calcTimeValue(calcVolSkew(_strike, _price, _volatility, _priceMultiplier), _amount, _priceMultiplier);\n\n      return _intrinsicValue + _timeValue;\n  }\n\n  function calcFee(uint256 _amount, Percent memory _feeAddon) public pure returns(uint256)\n  {\n      return _amount * _feeAddon.numerator / _feeAddon.denominator;\n  }\n\n  function getCost(Option storage _option, bool _inVol) public view returns(uint256){\n    if(_inVol)\n    {\n      return (_option.premium + _option.fee)  * _option.spot / _option.volatility;\n    }\n    return _option.premium + _option.fee;\n  }\n\n  function calcPayoffValue(Option storage _option, uint256 _price) public view returns(uint256)\n  {\n      uint256 _intrinsicValue = 0;\n\n      if((_option.poType == PayoffType.Call) && (_price > _option.strike)){\n        _intrinsicValue = _price - _option.strike;\n      }\n      if((_option.poType == PayoffType.Put) && (_price<_option.strike)){\n        _intrinsicValue = _option.strike - _price;\n      }\n      return _intrinsicValue * _option.amount / _price;\n  }\n\n}\n",
  "sourcePath": "/Users/mac/Documents/GitHub/moret/contracts/OptionLibrary.sol",
  "compiler": {
    "name": "solc",
    "version": "0.8.7+commit.e28d00a7.Emscripten.clang"
  },
  "schemaVersion": "3.4.1",
  "updatedAt": "2021-08-28T21:21:48.853Z",
  "networkType": "ethereum",
  "devdoc": {
    "kind": "dev",
    "methods": {},
    "version": 1
  },
  "userdoc": {
    "kind": "user",
    "methods": {},
    "version": 1
  }
}