{
  "contractName": "OptionLibrary",
  "abi": [
    {
      "inputs": [],
      "name": "AnnualSeconds",
      "outputs": [
        {
          "internalType": "uint256",
          "name": "",
          "type": "uint256"
        }
      ],
      "stateMutability": "view",
      "type": "function",
      "constant": true
    },
    {
      "inputs": [],
      "name": "DefaultDecimals",
      "outputs": [
        {
          "internalType": "uint256",
          "name": "",
          "type": "uint256"
        }
      ],
      "stateMutability": "view",
      "type": "function",
      "constant": true
    },
    {
      "inputs": [],
      "name": "DefaultMultiplier",
      "outputs": [
        {
          "internalType": "uint256",
          "name": "",
          "type": "uint256"
        }
      ],
      "stateMutability": "view",
      "type": "function",
      "constant": true
    },
    {
      "inputs": [],
      "name": "Multiplier",
      "outputs": [
        {
          "internalType": "uint256",
          "name": "",
          "type": "uint256"
        }
      ],
      "stateMutability": "pure",
      "type": "function",
      "constant": true
    },
    {
      "inputs": [],
      "name": "Decimals",
      "outputs": [
        {
          "internalType": "uint256",
          "name": "",
          "type": "uint256"
        }
      ],
      "stateMutability": "pure",
      "type": "function",
      "constant": true
    },
    {
      "inputs": [
        {
          "internalType": "uint256",
          "name": "_rawData",
          "type": "uint256"
        },
        {
          "internalType": "uint256",
          "name": "_rawDataDecimals",
          "type": "uint256"
        }
      ],
      "name": "ToDefaultDecimals",
      "outputs": [
        {
          "internalType": "uint256",
          "name": "",
          "type": "uint256"
        }
      ],
      "stateMutability": "pure",
      "type": "function",
      "constant": true
    },
    {
      "inputs": [
        {
          "internalType": "uint256",
          "name": "_rawData",
          "type": "uint256"
        },
        {
          "internalType": "uint256",
          "name": "_rawDataDecimals",
          "type": "uint256"
        }
      ],
      "name": "ToCustomDecimals",
      "outputs": [
        {
          "internalType": "uint256",
          "name": "",
          "type": "uint256"
        }
      ],
      "stateMutability": "pure",
      "type": "function",
      "constant": true
    },
    {
      "inputs": [
        {
          "internalType": "uint256",
          "name": "_price",
          "type": "uint256"
        },
        {
          "internalType": "uint256",
          "name": "_vol",
          "type": "uint256"
        },
        {
          "internalType": "uint256",
          "name": "_strike",
          "type": "uint256"
        },
        {
          "internalType": "enum OptionLibrary.PayoffType",
          "name": "_poType",
          "type": "OptionLibrary.PayoffType"
        },
        {
          "internalType": "uint256",
          "name": "_amount",
          "type": "uint256"
        },
        {
          "internalType": "uint256",
          "name": "_interest",
          "type": "uint256"
        }
      ],
      "name": "calcPremium",
      "outputs": [
        {
          "internalType": "uint256",
          "name": "",
          "type": "uint256"
        }
      ],
      "stateMutability": "pure",
      "type": "function",
      "constant": true
    },
    {
      "inputs": [
        {
          "internalType": "uint256",
          "name": "_price",
          "type": "uint256"
        },
        {
          "internalType": "uint256",
          "name": "_strike",
          "type": "uint256"
        },
        {
          "internalType": "uint256",
          "name": "_amount",
          "type": "uint256"
        },
        {
          "internalType": "uint256",
          "name": "_vol",
          "type": "uint256"
        },
        {
          "internalType": "enum OptionLibrary.PayoffType",
          "name": "_poType",
          "type": "OptionLibrary.PayoffType"
        },
        {
          "internalType": "enum OptionLibrary.OptionSide",
          "name": "_side",
          "type": "OptionLibrary.OptionSide"
        },
        {
          "internalType": "uint256",
          "name": "_interest",
          "type": "uint256"
        }
      ],
      "name": "calcOptionCost",
      "outputs": [
        {
          "internalType": "uint256",
          "name": "_premium",
          "type": "uint256"
        },
        {
          "internalType": "uint256",
          "name": "_cost",
          "type": "uint256"
        }
      ],
      "stateMutability": "pure",
      "type": "function",
      "constant": true
    },
    {
      "inputs": [
        {
          "internalType": "uint256",
          "name": "_price",
          "type": "uint256"
        },
        {
          "internalType": "uint256",
          "name": "_strike",
          "type": "uint256"
        },
        {
          "internalType": "uint256",
          "name": "_vol",
          "type": "uint256"
        }
      ],
      "name": "calcGamma",
      "outputs": [
        {
          "internalType": "uint256",
          "name": "_gamma",
          "type": "uint256"
        }
      ],
      "stateMutability": "pure",
      "type": "function",
      "constant": true
    },
    {
      "inputs": [
        {
          "internalType": "uint256",
          "name": "_strike",
          "type": "uint256"
        },
        {
          "internalType": "enum OptionLibrary.PayoffType",
          "name": "_poType",
          "type": "OptionLibrary.PayoffType"
        },
        {
          "internalType": "enum OptionLibrary.OptionSide",
          "name": "_side",
          "type": "OptionLibrary.OptionSide"
        },
        {
          "internalType": "uint256",
          "name": "_slippage",
          "type": "uint256"
        },
        {
          "internalType": "uint256",
          "name": "_loanInterest",
          "type": "uint256"
        }
      ],
      "name": "adjustStrike",
      "outputs": [
        {
          "internalType": "uint256",
          "name": "_adjustedStrike",
          "type": "uint256"
        }
      ],
      "stateMutability": "pure",
      "type": "function",
      "constant": true
    },
    {
      "inputs": [
        {
          "internalType": "uint256",
          "name": "_amount",
          "type": "uint256"
        },
        {
          "internalType": "bool",
          "name": "_adjustUpward",
          "type": "bool"
        },
        {
          "internalType": "uint256",
          "name": "_slippage",
          "type": "uint256"
        },
        {
          "internalType": "uint256",
          "name": "_loanInterest",
          "type": "uint256"
        }
      ],
      "name": "adjustSlippage",
      "outputs": [
        {
          "internalType": "uint256",
          "name": "_adjustedAmount",
          "type": "uint256"
        }
      ],
      "stateMutability": "pure",
      "type": "function",
      "constant": true
    },
    {
      "inputs": [
        {
          "internalType": "int256",
          "name": "_amount",
          "type": "int256"
        },
        {
          "internalType": "uint256",
          "name": "_price",
          "type": "uint256"
        },
        {
          "internalType": "uint256",
          "name": "_slippage",
          "type": "uint256"
        }
      ],
      "name": "getOpposeTrade",
      "outputs": [
        {
          "internalType": "int256",
          "name": "_oppositeAmount",
          "type": "int256"
        }
      ],
      "stateMutability": "pure",
      "type": "function",
      "constant": true
    },
    {
      "inputs": [
        {
          "internalType": "uint256",
          "name": "_max",
          "type": "uint256"
        },
        {
          "internalType": "int256",
          "name": "_input",
          "type": "int256"
        },
        {
          "internalType": "uint256",
          "name": "_constant",
          "type": "uint256"
        },
        {
          "internalType": "uint256",
          "name": "_volCapacityFactor",
          "type": "uint256"
        }
      ],
      "name": "calcRiskPremiumAMM",
      "outputs": [
        {
          "internalType": "int256",
          "name": "",
          "type": "int256"
        }
      ],
      "stateMutability": "pure",
      "type": "function",
      "constant": true
    }
  ],
  "bytecode": "0x6142da610053600b82828239805160001a607314610046577f4e487b7100000000000000000000000000000000000000000000000000000000600052600060045260246000fd5b30600052607381538281f3fe73000000000000000000000000000000000000000030146080604052600436106101155760003560e01c806399b01139116100ac578063ca0cc13d1161007b578063ca0cc13d14610324578063cf15ea2914610354578063e9ef55ca14610385578063fcc14dfd146103a3578063fd9b8763146103d357610115565b806399b0113914610276578063a69d3ae0146102a6578063bde840ed146102d6578063c6ceb50b1461030657610115565b8063508cd14e116100e8578063508cd14e146101c8578063865a0e00146101f85780638d2c3b34146102285780639932b2be1461024657610115565b80630862958b1461011a578063092f957a1461014a5780631e1d645c1461017a5780634ea26ca414610198575b600080fd5b610134600480360381019061012f91906136e1565b6103f1565b6040516101419190613730565b60405180910390f35b610164600480360381019061015f919061374b565b610412565b6040516101719190613730565b60405180910390f35b61018261044e565b60405161018f9190613730565b60405180910390f35b6101b260048036038101906101ad91906137d5565b610456565b6040516101bf9190613730565b60405180910390f35b6101e260048036038101906101dd9190613888565b61053b565b6040516101ef9190613730565b60405180910390f35b610212600480360381019061020d91906138ef565b6105bb565b60405161021f9190613730565b60405180910390f35b610230610687565b60405161023d9190613730565b60405180910390f35b610260600480360381019061025b9190613942565b610693565b60405161026d9190613730565b60405180910390f35b610290600480360381019061028b9190613995565b610769565b60405161029d9190613730565b60405180910390f35b6102c060048036038101906102bb91906136e1565b610893565b6040516102cd9190613730565b60405180910390f35b6102f060048036038101906102eb919061374b565b6108c2565b6040516102fd9190613730565b60405180910390f35b61030e6108fe565b60405161031b9190613730565b60405180910390f35b61033e60048036038101906103399190613a58565b610907565b60405161034b9190613aba565b60405180910390f35b61036e60048036038101906103699190613ad5565b610988565b60405161037c929190613b77565b60405180910390f35b61038d610aa3565b60405161039a9190613730565b60405180910390f35b6103bd60048036038101906103b89190613ba0565b610aa8565b6040516103ca9190613aba565b60405180910390f35b6103db610b70565b6040516103e89190613730565b60405180910390f35b600061040a836007015483670de0b6b3a7640000610b80565b905092915050565b6000816012101561042257600080fd5b81601261042f9190613c36565b600a61043b9190613d9d565b836104469190613e17565b905092915050565b6301e1338081565b600061046686600085600061053b565b905060018081111561047b5761047a613e48565b5b85600181111561048e5761048d613e48565b5b1480156104bf5750600060018111156104aa576104a9613e48565b5b8460018111156104bd576104bc613e48565b5b145b8061051d5750600060018111156104d9576104d8613e48565b5b8560018111156104ec576104eb613e48565b5b14801561051c575060018081111561050757610506613e48565b5b84600181111561051a57610519613e48565b5b145b5b156105325761052f866001858561053b565b90505b95945050505050565b6000849050831561057a57610577858385670de0b6b3a764000061055f9190613e77565b6105699190613e77565b670de0b6b3a7640000610b80565b90505b836105b3576105b085670de0b6b3a76400008486670de0b6b3a76400006105a19190613e77565b6105ab9190613e77565b610b80565b90505b949350505050565b6000806105d584670de0b6b3a76400008760090154610b80565b905060006002846105e69190613e17565b61060d670de0b6b3a764000060026105fe9190613ecd565b670de0b6b3a764000087610b80565b610647670de0b6b3a764000060026106259190613ecd565b610641670de0b6b3a76400008761063c9190613ecd565b610c7c565b88610b80565b6106519190613f27565b61065b9190613fbb565b905061067c61066982610e2f565b8760070154670de0b6b3a7640000610b80565b925050509392505050565b670de0b6b3a764000081565b6000806106a985670de0b6b3a764000086610b80565b905060006002846106ba9190613e17565b6106e1670de0b6b3a764000060026106d29190613ecd565b670de0b6b3a764000087610b80565b61071b670de0b6b3a764000060026106f99190613ecd565b610715670de0b6b3a7640000876107109190613ecd565b610c7c565b88610b80565b6107259190613f27565b61072f9190613fbb565b905061075e61074f6107408361229b565b670de0b6b3a764000089610b80565b670de0b6b3a764000086610b80565b925050509392505050565b6000806002876107799190613e17565b6107a0670de0b6b3a764000060026107919190613ecd565b670de0b6b3a76400008a610b80565b6107c7670de0b6b3a764000060026107b89190613ecd565b670de0b6b3a76400008b610b80565b6107d19190613f27565b6107db9190613fbb565b905060006108186107f689846107f19190613f27565b610e2f565b670de0b6b3a764000086670de0b6b3a76400006108139190613e77565b610b80565b905060006108428a8361082a86610e2f565b6108349190613c36565b670de0b6b3a7640000610b80565b90506000610864876108568d8d8d876134ba565b670de0b6b3a7640000610b80565b905060006108748a8d8a8c6135be565b905081816108829190613e77565b955050505050509695505050505050565b60006108ba83600901548385600701548660000160009054906101000a900460ff166135be565b905092915050565b600081601210156108d257600080fd5b8160126108df9190613c36565b600a6108eb9190613d9d565b836108f69190613ecd565b905092915050565b60006012905090565b60008084121561091857600161093a565b7fffffffffffffffffffffffffffffffffffffffffffffffffffffffffffffffff5b610975610966600087121561095857866109539061404f565b61095a565b865b6000881386600061053b565b85670de0b6b3a7640000610b80565b61097f9190614098565b90509392505050565b60008061099989878a888b88610769565b91508190506001808111156109b1576109b0613e48565b5b8460018111156109c4576109c3613e48565b5b1480156109f457506001808111156109df576109de613e48565b5b8560018111156109f2576109f1613e48565b5b145b15610a1a5780610a0d888a670de0b6b3a7640000610b80565b610a179190613c36565b90505b600180811115610a2d57610a2c613e48565b5b846001811115610a4057610a3f613e48565b5b148015610a71575060006001811115610a5c57610a5b613e48565b5b856001811115610a6f57610a6e613e48565b5b145b15610a975780610a8a888b670de0b6b3a7640000610b80565b610a949190613c36565b90505b97509795505050505050565b601281565b600080670de0b6b3a764000090506000851215610ae157610ad385610acc9061404f565b8488610b80565b81610ade9190613fbb565b90505b6000851315610b0357610af5858488610b80565b81610b009190613f27565b90505b6000811215610b47576040517f08c379a0000000000000000000000000000000000000000000000000000000008152600401610b3e9061420c565b60405180910390fd5b83610b5b85670de0b6b3a764000084610b80565b610b659190613f27565b915050949350505050565b6000670de0b6b3a7640000905090565b600080600080198587098587029250828110838203039150506000811415610bbb5760008411610baf57600080fd5b83820492505050610c75565b808411610bc757600080fd5b60008486880990508281118203915080830392506000856001877fffffffffffffffffffffffffffffffffffffffffffffffffffffffffffffffff0301169050808604955080840493506001818260000304019050808302841793506000600287600302189050808702600203810290508087026002038102905080870260020381029050808702600203810290508087026002038102905080870260020381029050808502955050505050505b9392505050565b600080821415610c8f5760009050610e2a565b6000829050600191507001000000000000000000000000000000008110610cbf57608081901c9050604082901b91505b680100000000000000008110610cde57604081901c9050602082901b91505b6401000000008110610cf957602081901c9050601082901b91505b620100008110610d1257601081901c9050600882901b91505b6101008110610d2a57600881901c9050600482901b91505b60108110610d4157600481901c9050600282901b91505b60088110610d5157600182901b91505b6001828481610d6357610d62613de8565b5b048301901c91506001828481610d7c57610d7b613de8565b5b048301901c91506001828481610d9557610d94613de8565b5b048301901c91506001828481610dae57610dad613de8565b5b048301901c91506001828481610dc757610dc6613de8565b5b048301901c91506001828481610de057610ddf613de8565b5b048301901c91506001828481610df957610df8613de8565b5b048301901c91506000828481610e1257610e11613de8565b5b04905080831015610e235782610e25565b805b925050505b919050565b60008060405180610b2001604052807fffffffffffffffffffffffffffffffffffffffffffffffff2fd54b793124000060080b81526020017fffffffffffffffffffffffffffffffffffffffffffffffff3db6022cd888000060080b81526020017fffffffffffffffffffffffffffffffffffffffffffffffff4b96b8e07fec000060080b81526020017fffffffffffffffffffffffffffffffffffffffffffffffff59776f942750000060080b81526020017fffffffffffffffffffffffffffffffffffffffffffffffff67582647ceb4000060080b81526020017fffffffffffffffffffffffffffffffffffffffffffffffff7538dcfb7618000060080b81526020017fffffffffffffffffffffffffffffffffffffffffffffffff831993af1d7c000060080b81526020017fffffffffffffffffffffffffffffffffffffffffffffffff90fa4a62c4e0000060080b81526020017fffffffffffffffffffffffffffffffffffffffffffffffff9edb01166c44000060080b81526020017fffffffffffffffffffffffffffffffffffffffffffffffffacbbb7ca13a8000060080b81526020017fffffffffffffffffffffffffffffffffffffffffffffffffba9c6e7dbb0c000060080b81526020017fffffffffffffffffffffffffffffffffffffffffffffffffc18cc9d78ebe000060080b81526020017fffffffffffffffffffffffffffffffffffffffffffffffffc87d25316270000060080b81526020017fffffffffffffffffffffffffffffffffffffffffffffffffcf6d808b3622000060080b81526020017fffffffffffffffffffffffffffffffffffffffffffffffffd65ddbe509d4000060080b81526020017fffffffffffffffffffffffffffffffffffffffffffffffffd7c1215d675e000060080b81526020017fffffffffffffffffffffffffffffffffffffffffffffffffd92466d5c4e8000060080b81526020017fffffffffffffffffffffffffffffffffffffffffffffffffda87ac4e2272000060080b81526020017fffffffffffffffffffffffffffffffffffffffffffffffffdbeaf1c67ffc000060080b81526020017fffffffffffffffffffffffffffffffffffffffffffffffffdd4e373edd86000060080b81526020017fffffffffffffffffffffffffffffffffffffffffffffffffdeb17cb73b10000060080b81526020017fffffffffffffffffffffffffffffffffffffffffffffffffe014c22f989a000060080b81526020017fffffffffffffffffffffffffffffffffffffffffffffffffe17807a7f624000060080b81526020017fffffffffffffffffffffffffffffffffffffffffffffffffe2db4d2053ae000060080b81526020017fffffffffffffffffffffffffffffffffffffffffffffffffe43e9298b138000060080b81526020017fffffffffffffffffffffffffffffffffffffffffffffffffe5a1d8110ec2000060080b81526020017fffffffffffffffffffffffffffffffffffffffffffffffffe7051d896c4c000060080b81526020017fffffffffffffffffffffffffffffffffffffffffffffffffe8686301c9d6000060080b81526020017fffffffffffffffffffffffffffffffffffffffffffffffffe9cba87a2760000060080b81526020017fffffffffffffffffffffffffffffffffffffffffffffffffeb2eedf284ea000060080b81526020017fffffffffffffffffffffffffffffffffffffffffffffffffec92336ae274000060080b81526020017fffffffffffffffffffffffffffffffffffffffffffffffffedf578e33ffe000060080b81526020017fffffffffffffffffffffffffffffffffffffffffffffffffef58be5b9d88000060080b81526020017ffffffffffffffffffffffffffffffffffffffffffffffffff0bc03d3fb12000060080b81526020017ffffffffffffffffffffffffffffffffffffffffffffffffff21f494c589c000060080b81526020017ffffffffffffffffffffffffffffffffffffffffffffffffff3828ec4b626000060080b81526020017ffffffffffffffffffffffffffffffffffffffffffffffffff4e5d43d13b0000060080b81526020017ffffffffffffffffffffffffffffffffffffffffffffffffff64919b5713a000060080b81526020017ffffffffffffffffffffffffffffffffffffffffffffffffff7ac5f2dcec4000060080b81526020017ffffffffffffffffffffffffffffffffffffffffffffffffff90fa4a62c4e000060080b81526020017ffffffffffffffffffffffffffffffffffffffffffffffffffa72ea1e89d8000060080b81526020017ffffffffffffffffffffffffffffffffffffffffffffffffffbd62f96e762000060080b81526020017ffffffffffffffffffffffffffffffffffffffffffffffffffd39750f44ec000060080b81526020017ffffffffffffffffffffffffffffffffffffffffffffffffffe9cba87a276000060080b8152602001600060080b815260200167016345785d8a000060080b81526020016702c68af0bb14000060080b8152602001670429d069189e000060080b815260200167058d15e17628000060080b81526020016706f05b59d3b2000060080b8152602001670853a0d2313c000060080b81526020016709b6e64a8ec6000060080b8152602001670b1a2bc2ec50000060080b8152602001670c7d713b49da000060080b8152602001670de0b6b3a764000060080b8152602001670f43fc2c04ee000060080b81526020016710a741a46278000060080b815260200167120a871cc002000060080b815260200167136dcc951d8c000060080b81526020016714d1120d7b16000060080b81526020016716345785d8a0000060080b81526020016717979cfe362a000060080b81526020016718fae27693b4000060080b8152602001671a5e27eef13e000060080b8152602001671bc16d674ec8000060080b8152602001671d24b2dfac52000060080b8152602001671e87f85809dc000060080b8152602001671feb3dd06766000060080b815260200167214e8348c4f0000060080b81526020016722b1c8c1227a000060080b81526020016724150e398004000060080b815260200167257853b1dd8e000060080b81526020016726db992a3b18000060080b815260200167283edea298a2000060080b81526020016729a2241af62c000060080b81526020016730927f74c9de000060080b8152602001673782dace9d90000060080b8152602001673e7336287142000060080b8152602001674563918244f4000060080b81526020016753444835ec58000060080b8152602001676124fee993bc000060080b8152602001676f05b59d3b20000060080b8152602001677ce66c50e284000060080b8152602001678ac7230489e8000060080b81526020016798a7d9b8314c000060080b815260200167a688906bd8b0000060080b815260200167b469471f8014000060080b815260200167c249fdd32778000060080b815260200167d02ab486cedc000060080b8152509050600060405180610b200160405280600067ffffffffffffffff1681526020016302ac265467ffffffffffffffff168152602001630ea87f4067ffffffffffffffff168152602001635066183867ffffffffffffffff1681526020016401b8fadbca67ffffffffffffffff168152602001640972bbc11467ffffffffffffffff1681526020016433d28609ff67ffffffffffffffff16815260200165011c3d90be9867ffffffffffffffff168152602001650617061e622b67ffffffffffffffff168152602001652166d7d7e58067ffffffffffffffff16815260200165b72cd961350a67ffffffffffffffff1681526020016601ace0ccb0ffd267ffffffffffffffff1681526020016603ebcac407bfa667ffffffffffffffff16815260200166092b644ed8971c67ffffffffffffffff168152602001661566963940bcf867ffffffffffffffff168152602001661957d7dbe793c467ffffffffffffffff168152602001661e0171808fc27467ffffffffffffffff1681526020016623846cc5efa3ce67ffffffffffffffff168152602001662a077e40df04f467ffffffffffffffff1681526020016631b7e487e8c6a067ffffffffffffffff168152602001663aca5f1113221467ffffffffffffffff16815260200166457c3aeabd4c2867ffffffffffffffff16815260200166521470d9790d5067ffffffffffffffff1681526020016660e4ccd85770fc67ffffffffffffffff16815260200166724b1217ecac5c67ffffffffffffffff1681526020016686b20819b6c83067ffffffffffffffff168152602001669e92552cde3d5467ffffffffffffffff16815260200166ba730044d8b20c67ffffffffffffffff16815260200166dae96810784be067ffffffffffffffff16815260200167010098700b8a077c67ffffffffffffffff16815260200167012c2e976c17d5e067ffffffffffffffff16815260200167015e62a3c6761e6c67ffffffffffffffff168152602001670197ee85e83622c067ffffffffffffffff1681526020016701d98828005076f867ffffffffffffffff168152602001670223d7ef126f75f867ffffffffffffffff1681526020016702776ced5782cd9867ffffffffffffffff1681526020016702d4af13f69d342067ffffffffffffffff16815260200167033bd01fb85ed9e067ffffffffffffffff1681526020016703acbc7c7ede19a067ffffffffffffffff1681526020016704270dd934bc304067ffffffffffffffff1681526020016704aa0180a81000d067ffffffffffffffff168152602001670534749bef40ff6867ffffffffffffffff1681526020016705c4e8260172086067ffffffffffffffff1681526020016706598d804261481067ffffffffffffffff1681526020016706f05b59d3b2000067ffffffffffffffff16815260200167078729336502b7f067ffffffffffffffff16815260200167081bce8da5f1f7a067ffffffffffffffff1681526020016708ac4217b823009867ffffffffffffffff168152602001670936b532ff53ff3067ffffffffffffffff1681526020016709b9a8da72a7cfc067ffffffffffffffff168152602001670a33fa372885e66067ffffffffffffffff168152602001670aa4e693ef05262067ffffffffffffffff168152602001670b0c079fb0c6cbe067ffffffffffffffff168152602001670b6949c64fe1326867ffffffffffffffff168152602001670bbcdec494f48a0867ffffffffffffffff168152602001670c072e8ba713890867ffffffffffffffff168152602001670c48c82dbf2ddd4067ffffffffffffffff168152602001670c82540fe0ede06867ffffffffffffffff168152602001670cb4881c3b4c289067ffffffffffffffff168152602001670ce01e439bd9f9b067ffffffffffffffff168152602001670d05cd4b96ebb35867ffffffffffffffff168152602001670d2643b3628b4f2067ffffffffffffffff168152602001670d42245e7a85c3d867ffffffffffffffff168152602001670d5a04ab8dad364067ffffffffffffffff168152602001670d6e6ba18f77534067ffffffffffffffff168152602001670d7fd1e6cf0c90f867ffffffffffffffff168152602001670d8ea242cdeaf12067ffffffffffffffff168152602001670d9b3a78bca6b3d867ffffffffffffffff168152602001670da5ec549650dbf867ffffffffffffffff168152602001670daefecf1f7b396067ffffffffffffffff168152602001670db6af356684faa867ffffffffffffffff168152602001670dbd3246e1745c0067ffffffffffffffff168152602001670dc2b54226d43d7867ffffffffffffffff168152602001670dc75edbcb7c6e3067ffffffffffffffff168152602001670dcb501d6e23444867ffffffffffffffff168152602001670dd78b4f588b699867ffffffffffffffff168152602001670ddccae8e35c416867ffffffffffffffff168152602001670ddf09d2dab3017067ffffffffffffffff168152602001670ddfff86ce02ccd067ffffffffffffffff168152602001670de0954ccf8c1b6867ffffffffffffffff168152602001670de0b09ca1459db867ffffffffffffffff168152602001670de0b59769d3424067ffffffffffffffff168152602001670de0b67fd4ddf56067ffffffffffffffff168152602001670de0b6aa34a83eb867ffffffffffffffff168152602001670de0b6b1ee69256867ffffffffffffffff168152602001670de0b6b356fde86067ffffffffffffffff168152602001670de0b6b398bb7f6067ffffffffffffffff168152602001670de0b6b3a4b7db6067ffffffffffffffff168152602001670de0b6b3a764000067ffffffffffffffff16815250905060005b848382605981106120875761208661422c565b5b602002015160080b12156120b55780806120a09061425b565b915050605981106120b0576120b5565b612073565b816000605981106120c9576120c861422c565b5b602002015167ffffffffffffffff169350605981141561210957816058605981106120f7576120f661422c565b5b602002015167ffffffffffffffff1693505b6000811180156121195750605981105b15612293578260018261212c9190613c36565b6059811061213d5761213c61422c565b5b602002015160080b8382605981106121585761215761422c565b5b602002015160080b61216a9190613f27565b836001836121789190613c36565b605981106121895761218861422c565b5b602002015160080b8661219c9190613f27565b8383605981106121af576121ae61422c565b5b602002015167ffffffffffffffff166121c89190613ecd565b6121d29190613e17565b836001836121e09190613c36565b605981106121f1576121f061422c565b5b602002015160080b84836059811061220c5761220b61422c565b5b602002015160080b61221e9190613f27565b868584605981106122325761223161422c565b5b602002015160080b6122449190613f27565b846001856122529190613c36565b605981106122635761226261422c565b5b602002015167ffffffffffffffff1661227c9190613ecd565b6122869190613e17565b6122909190613e77565b93505b505050919050565b600080604051806109e001604052807fffffffffffffffffffffffffffffffffffffffffffffffff7538dcfb7618000060080b81526020017fffffffffffffffffffffffffffffffffffffffffffffffff831993af1d7c000060080b81526020017fffffffffffffffffffffffffffffffffffffffffffffffff90fa4a62c4e0000060080b81526020017fffffffffffffffffffffffffffffffffffffffffffffffff9edb01166c44000060080b81526020017fffffffffffffffffffffffffffffffffffffffffffffffffacbbb7ca13a8000060080b81526020017fffffffffffffffffffffffffffffffffffffffffffffffffba9c6e7dbb0c000060080b81526020017fffffffffffffffffffffffffffffffffffffffffffffffffc18cc9d78ebe000060080b81526020017fffffffffffffffffffffffffffffffffffffffffffffffffc87d25316270000060080b81526020017fffffffffffffffffffffffffffffffffffffffffffffffffcf6d808b3622000060080b81526020017fffffffffffffffffffffffffffffffffffffffffffffffffd65ddbe509d4000060080b81526020017fffffffffffffffffffffffffffffffffffffffffffffffffd7c1215d675e000060080b81526020017fffffffffffffffffffffffffffffffffffffffffffffffffd92466d5c4e8000060080b81526020017fffffffffffffffffffffffffffffffffffffffffffffffffda87ac4e2272000060080b81526020017fffffffffffffffffffffffffffffffffffffffffffffffffdbeaf1c67ffc000060080b81526020017fffffffffffffffffffffffffffffffffffffffffffffffffdd4e373edd86000060080b81526020017fffffffffffffffffffffffffffffffffffffffffffffffffdeb17cb73b10000060080b81526020017fffffffffffffffffffffffffffffffffffffffffffffffffe014c22f989a000060080b81526020017fffffffffffffffffffffffffffffffffffffffffffffffffe17807a7f624000060080b81526020017fffffffffffffffffffffffffffffffffffffffffffffffffe2db4d2053ae000060080b81526020017fffffffffffffffffffffffffffffffffffffffffffffffffe43e9298b138000060080b81526020017fffffffffffffffffffffffffffffffffffffffffffffffffe5a1d8110ec2000060080b81526020017fffffffffffffffffffffffffffffffffffffffffffffffffe7051d896c4c000060080b81526020017fffffffffffffffffffffffffffffffffffffffffffffffffe8686301c9d6000060080b81526020017fffffffffffffffffffffffffffffffffffffffffffffffffe9cba87a2760000060080b81526020017fffffffffffffffffffffffffffffffffffffffffffffffffeb2eedf284ea000060080b81526020017fffffffffffffffffffffffffffffffffffffffffffffffffec92336ae274000060080b81526020017fffffffffffffffffffffffffffffffffffffffffffffffffedf578e33ffe000060080b81526020017fffffffffffffffffffffffffffffffffffffffffffffffffef58be5b9d88000060080b81526020017ffffffffffffffffffffffffffffffffffffffffffffffffff0bc03d3fb12000060080b81526020017ffffffffffffffffffffffffffffffffffffffffffffffffff21f494c589c000060080b81526020017ffffffffffffffffffffffffffffffffffffffffffffffffff3828ec4b626000060080b81526020017ffffffffffffffffffffffffffffffffffffffffffffffffff4e5d43d13b0000060080b81526020017ffffffffffffffffffffffffffffffffffffffffffffffffff64919b5713a000060080b81526020017ffffffffffffffffffffffffffffffffffffffffffffffffff7ac5f2dcec4000060080b81526020017ffffffffffffffffffffffffffffffffffffffffffffffffff90fa4a62c4e000060080b81526020017ffffffffffffffffffffffffffffffffffffffffffffffffffa72ea1e89d8000060080b81526020017ffffffffffffffffffffffffffffffffffffffffffffffffffbd62f96e762000060080b81526020017ffffffffffffffffffffffffffffffffffffffffffffffffffd39750f44ec000060080b81526020017ffffffffffffffffffffffffffffffffffffffffffffffffffe9cba87a276000060080b8152602001600060080b815260200167016345785d8a000060080b81526020016702c68af0bb14000060080b8152602001670429d069189e000060080b815260200167058d15e17628000060080b81526020016706f05b59d3b2000060080b8152602001670853a0d2313c000060080b81526020016709b6e64a8ec6000060080b8152602001670b1a2bc2ec50000060080b8152602001670c7d713b49da000060080b8152602001670de0b6b3a764000060080b8152602001670f43fc2c04ee000060080b81526020016710a741a46278000060080b815260200167120a871cc002000060080b815260200167136dcc951d8c000060080b81526020016714d1120d7b16000060080b81526020016716345785d8a0000060080b81526020016717979cfe362a000060080b81526020016718fae27693b4000060080b8152602001671a5e27eef13e000060080b8152602001671bc16d674ec8000060080b8152602001671d24b2dfac52000060080b8152602001671e87f85809dc000060080b8152602001671feb3dd06766000060080b815260200167214e8348c4f0000060080b81526020016722b1c8c1227a000060080b81526020016724150e398004000060080b815260200167257853b1dd8e000060080b81526020016726db992a3b18000060080b815260200167283edea298a2000060080b81526020016729a2241af62c000060080b81526020016730927f74c9de000060080b8152602001673782dace9d90000060080b8152602001673e7336287142000060080b8152602001674563918244f4000060080b81526020016753444835ec58000060080b8152602001676124fee993bc000060080b8152602001676f05b59d3b20000060080b8152602001677ce66c50e284000060080b8152602001678ac7230489e8000060080b81525090506000604051806109e00160405280600067ffffffffffffffff168152602001600167ffffffffffffffff1681526020016113bc67ffffffffffffffff168152602001628b628067ffffffffffffffff16815260200164016a269d6167ffffffffffffffff16815260200165015a2763786e67ffffffffffffffff168152602001650e898135fad967ffffffffffffffff1681526020016579b7c711221567ffffffffffffffff168152602001660319b3460a328067ffffffffffffffff168152602001660fbebe1e4abcda67ffffffffffffffff168152602001661525cbf4650d6a67ffffffffffffffff168152602001661c1f0fafd71f8267ffffffffffffffff168152602001662505c8f5d7564867ffffffffffffffff168152602001663041a3782b3c6067ffffffffffffffff168152602001663e45e57c6f79f467ffffffffffffffff168152602001664f8fb4e722c61467ffffffffffffffff1681526020016664a34a6e2091b067ffffffffffffffff168152602001667e07f44926b76867ffffffffffffffff168152602001669c42d8f65b8fc067ffffffffffffffff16815260200166bfd07f7c193d0467ffffffffffffffff16815260200166e91d3c634adc7867ffffffffffffffff1681526020016701187cc02c7c53f867ffffffffffffffff16815260200167014e21233880a8d867ffffffffffffffff16815260200167018a11e95542410067ffffffffffffffff1681526020016701cc239129d402a067ffffffffffffffff168152602001670213f05632568ce867ffffffffffffffff168152602001670260d2d396ab1a1867ffffffffffffffff1681526020016702b1e3302b9bdfc867ffffffffffffffff168152602001670305f76699921a5867ffffffffffffffff16815260200167035ba7178901e65867ffffffffffffffff1681526020016703b15320002fb3b867ffffffffffffffff16815260200167040530eeb0c78ef867ffffffffffffffff168152602001670455594c4a0b562867ffffffffffffffff16815260200167049fda02c5c94dc067ffffffffffffffff1681526020016704e2c98ca38496e067ffffffffffffffff16815260200167051c5bbdce29af7867ffffffffffffffff16815260200167054af6328e2fcfe067ffffffffffffffff16815260200167056d4342226b390067ffffffffffffffff168152602001670582423d210dbe2067ffffffffffffffff16815260200167058953e3ed3631a867ffffffffffffffff168152602001670582423d210dbe2067ffffffffffffffff16815260200167056d4342226b390067ffffffffffffffff16815260200167054af6328e2fcfe067ffffffffffffffff16815260200167051c5bbdce29af7867ffffffffffffffff1681526020016704e2c98ca38496e067ffffffffffffffff16815260200167049fda02c5c94dc067ffffffffffffffff168152602001670455594c4a0b562867ffffffffffffffff16815260200167040530eeb0c78ef867ffffffffffffffff1681526020016703b15320002fb3b867ffffffffffffffff16815260200167035ba7178901e65867ffffffffffffffff168152602001670305f76699921a5867ffffffffffffffff1681526020016702b1e3302b9bdfc867ffffffffffffffff168152602001670260d2d396ab1a1867ffffffffffffffff168152602001670213f05632568ce867ffffffffffffffff1681526020016701cc239129d402a067ffffffffffffffff16815260200167018a11e95542410067ffffffffffffffff16815260200167014e21233880a8d867ffffffffffffffff1681526020016701187cc02c7c53f867ffffffffffffffff16815260200166e91d3c634adc7867ffffffffffffffff16815260200166bfd07f7c193d0467ffffffffffffffff168152602001669c42d8f65b8fc067ffffffffffffffff168152602001667e07f44926b76867ffffffffffffffff1681526020016664a34a6e2091b067ffffffffffffffff168152602001664f8fb4e722c61467ffffffffffffffff168152602001663e45e57c6f79f467ffffffffffffffff168152602001663041a3782b3c6067ffffffffffffffff168152602001662505c8f5d7564867ffffffffffffffff168152602001661c1f0fafd71f8267ffffffffffffffff168152602001661525cbf4650d6a67ffffffffffffffff168152602001660fbebe1e4abcda67ffffffffffffffff168152602001660319b3460a328067ffffffffffffffff1681526020016579b7c711221567ffffffffffffffff168152602001650e898135fad967ffffffffffffffff16815260200165015a2763786e67ffffffffffffffff16815260200164016a269d6167ffffffffffffffff168152602001628b628067ffffffffffffffff1681526020016113bc67ffffffffffffffff168152602001600167ffffffffffffffff168152602001600067ffffffffffffffff168152509050600080604f9050600094505b858483604f81106132c2576132c161422c565b5b602002015160080b12156132ef5781806132db9061425b565b9250508082106132ea576132ef565b6132ae565b8082141561332857826001836133059190613c36565b604f81106133165761331561422c565b5b602002015167ffffffffffffffff1694505b60008211801561333757508082105b156134b1578360018361334a9190613c36565b604f811061335b5761335a61422c565b5b602002015160080b8483604f81106133765761337561422c565b5b602002015160080b6133889190613f27565b846001846133969190613c36565b604f81106133a7576133a661422c565b5b602002015160080b876133ba9190613f27565b8484604f81106133cd576133cc61422c565b5b602002015167ffffffffffffffff166133e69190613ecd565b6133f09190613e17565b846001846133fe9190613c36565b604f811061340f5761340e61422c565b5b602002015160080b8584604f811061342a5761342961422c565b5b602002015160080b61343c9190613f27565b878685604f81106134505761344f61422c565b5b602002015160080b6134629190613f27565b856001866134709190613c36565b604f81106134815761348061422c565b5b602002015167ffffffffffffffff1661349a9190613ecd565b6134a49190613e17565b6134ae9190613e77565b94505b50505050919050565b6000808414156134cc578390506135b6565b60008584116134f95785670de0b6b3a7640000856134ea9190613ecd565b6134f49190613e17565b613519565b83670de0b6b3a76400008761350e9190613ecd565b6135189190613e17565b5b905060006002670de0b6b3a76400008711613534578661353e565b670de0b6b3a76400005b6135489190613e17565b670de0b6b3a764000061355b9190613c36565b9050600081670de0b6b3a764000060026135759190613ecd565b61357f9190613c36565b9050600082670de0b6b3a76400006135979190613c36565b90506135af868286856135aa9190613c36565b610b80565b9450505050505b949350505050565b60008060009050600060018111156135d9576135d8613e48565b5b8360018111156135ec576135eb613e48565b5b1480156135f857508585115b1561360c5785856136099190613c36565b90505b60018081111561361f5761361e613e48565b5b83600181111561363257613631613e48565b5b14801561363e57508585105b1561365257848661364f9190613c36565b90505b6136658185670de0b6b3a7640000610b80565b915050949350505050565b600080fd5b6000819050919050565b61368881613675565b811461369357600080fd5b50565b6000813590506136a58161367f565b92915050565b6000819050919050565b6136be816136ab565b81146136c957600080fd5b50565b6000813590506136db816136b5565b92915050565b600080604083850312156136f8576136f7613670565b5b600061370685828601613696565b9250506020613717858286016136cc565b9150509250929050565b61372a816136ab565b82525050565b60006020820190506137456000830184613721565b92915050565b6000806040838503121561376257613761613670565b5b6000613770858286016136cc565b9250506020613781858286016136cc565b9150509250929050565b6002811061379857600080fd5b50565b6000813590506137aa8161378b565b92915050565b600281106137bd57600080fd5b50565b6000813590506137cf816137b0565b92915050565b600080600080600060a086880312156137f1576137f0613670565b5b60006137ff888289016136cc565b95505060206138108882890161379b565b9450506040613821888289016137c0565b9350506060613832888289016136cc565b9250506080613843888289016136cc565b9150509295509295909350565b60008115159050919050565b61386581613850565b811461387057600080fd5b50565b6000813590506138828161385c565b92915050565b600080600080608085870312156138a2576138a1613670565b5b60006138b0878288016136cc565b94505060206138c187828801613873565b93505060406138d2878288016136cc565b92505060606138e3878288016136cc565b91505092959194509250565b60008060006060848603121561390857613907613670565b5b600061391686828701613696565b9350506020613927868287016136cc565b9250506040613938868287016136cc565b9150509250925092565b60008060006060848603121561395b5761395a613670565b5b6000613969868287016136cc565b935050602061397a868287016136cc565b925050604061398b868287016136cc565b9150509250925092565b60008060008060008060c087890312156139b2576139b1613670565b5b60006139c089828a016136cc565b96505060206139d189828a016136cc565b95505060406139e289828a016136cc565b94505060606139f389828a0161379b565b9350506080613a0489828a016136cc565b92505060a0613a1589828a016136cc565b9150509295509295509295565b6000819050919050565b613a3581613a22565b8114613a4057600080fd5b50565b600081359050613a5281613a2c565b92915050565b600080600060608486031215613a7157613a70613670565b5b6000613a7f86828701613a43565b9350506020613a90868287016136cc565b9250506040613aa1868287016136cc565b9150509250925092565b613ab481613a22565b82525050565b6000602082019050613acf6000830184613aab565b92915050565b600080600080600080600060e0888a031215613af457613af3613670565b5b6000613b028a828b016136cc565b9750506020613b138a828b016136cc565b9650506040613b248a828b016136cc565b9550506060613b358a828b016136cc565b9450506080613b468a828b0161379b565b93505060a0613b578a828b016137c0565b92505060c0613b688a828b016136cc565b91505092959891949750929550565b6000604082019050613b8c6000830185613721565b613b996020830184613721565b9392505050565b60008060008060808587031215613bba57613bb9613670565b5b6000613bc8878288016136cc565b9450506020613bd987828801613a43565b9350506040613bea878288016136cc565b9250506060613bfb878288016136cc565b91505092959194509250565b7f4e487b7100000000000000000000000000000000000000000000000000000000600052601160045260246000fd5b6000613c41826136ab565b9150613c4c836136ab565b925082821015613c5f57613c5e613c07565b5b828203905092915050565b60008160011c9050919050565b6000808291508390505b6001851115613cc157808604811115613c9d57613c9c613c07565b5b6001851615613cac5780820291505b8081029050613cba85613c6a565b9450613c81565b94509492505050565b600082613cda5760019050613d96565b81613ce85760009050613d96565b8160018114613cfe5760028114613d0857613d37565b6001915050613d96565b60ff841115613d1a57613d19613c07565b5b8360020a915084821115613d3157613d30613c07565b5b50613d96565b5060208310610133831016604e8410600b8410161715613d6c5782820a905083811115613d6757613d66613c07565b5b613d96565b613d798484846001613c77565b92509050818404811115613d9057613d8f613c07565b5b81810290505b9392505050565b6000613da8826136ab565b9150613db3836136ab565b9250613de07fffffffffffffffffffffffffffffffffffffffffffffffffffffffffffffffff8484613cca565b905092915050565b7f4e487b7100000000000000000000000000000000000000000000000000000000600052601260045260246000fd5b6000613e22826136ab565b9150613e2d836136ab565b925082613e3d57613e3c613de8565b5b828204905092915050565b7f4e487b7100000000000000000000000000000000000000000000000000000000600052602160045260246000fd5b6000613e82826136ab565b9150613e8d836136ab565b9250827fffffffffffffffffffffffffffffffffffffffffffffffffffffffffffffffff03821115613ec257613ec1613c07565b5b828201905092915050565b6000613ed8826136ab565b9150613ee3836136ab565b9250817fffffffffffffffffffffffffffffffffffffffffffffffffffffffffffffffff0483118215151615613f1c57613f1b613c07565b5b828202905092915050565b6000613f3282613a22565b9150613f3d83613a22565b9250827f800000000000000000000000000000000000000000000000000000000000000001821260008412151615613f7857613f77613c07565b5b827f7fffffffffffffffffffffffffffffffffffffffffffffffffffffffffffffff018213600084121615613fb057613faf613c07565b5b828203905092915050565b6000613fc682613a22565b9150613fd183613a22565b9250817f7fffffffffffffffffffffffffffffffffffffffffffffffffffffffffffffff0383136000831215161561400c5761400b613c07565b5b817f800000000000000000000000000000000000000000000000000000000000000003831260008312161561404457614043613c07565b5b828201905092915050565b600061405a82613a22565b91507f800000000000000000000000000000000000000000000000000000000000000082141561408d5761408c613c07565b5b816000039050919050565b60006140a382613a22565b91506140ae83613a22565b9250827f7fffffffffffffffffffffffffffffffffffffffffffffffffffffffffffffff04821160008413600084131616156140ed576140ec613c07565b5b817f8000000000000000000000000000000000000000000000000000000000000000058312600084126000841316161561412a57614129613c07565b5b827f8000000000000000000000000000000000000000000000000000000000000000058212600084136000841216161561416757614166613c07565b5b827f7fffffffffffffffffffffffffffffffffffffffffffffffffffffffffffffff05821260008412600084121616156141a4576141a3613c07565b5b828202905092915050565b600082825260208201905092915050565b7f43617061636974792062726561636865642e0000000000000000000000000000600082015250565b60006141f66012836141af565b9150614201826141c0565b602082019050919050565b60006020820190508181036000830152614225816141e9565b9050919050565b7f4e487b7100000000000000000000000000000000000000000000000000000000600052603260045260246000fd5b6000614266826136ab565b91507fffffffffffffffffffffffffffffffffffffffffffffffffffffffffffffffff82141561429957614298613c07565b5b60018201905091905056fea2646970667358221220be51194d55c41258e7b540a7f7eb5fad51cbe66b73ab1b7aaa5604c638cce94164736f6c634300080a0033",
  "immutableReferences": {},
  "source": "/**\n * SPDX-License-Identifier: GPL-3.0-or-later\n * Moret\n * Copyright (C) 2021 Moret\n*/\n\npragma solidity 0.8.10;\n\nimport \"./FullMath.sol\";\nimport \"prb-math/contracts/PRBMath.sol\";\n\nlibrary OptionLibrary {\n  using PRBMath for uint256;\n  enum PayoffType { Call, Put}\n  enum OptionSide{ Buy, Sell}\n  enum OptionStatus { Draft, Active, Exercised, Expired}\n  struct Option { PayoffType poType; OptionSide side; OptionStatus status; address holder; uint256 id; uint256 createTime; uint256 effectiveTime; uint256 tenor; uint256 maturity; uint256 exerciseTime; uint256 amount;uint256 spot;uint256 strike;uint256 volatility;uint256 premium;uint256 cost;}\n  struct Percent{ uint256 numerator; uint256 denominator;}\n  uint256 public constant DefaultMultiplier  = 10 ** 18;\n  uint256 public constant DefaultDecimals = 18;\n  uint256 public constant AnnualSeconds = 31536000; // 365 * 24 * 60 * 60\n\n  function Multiplier() public pure returns (uint256){return DefaultMultiplier;}\n  function Decimals() public pure returns (uint256) {return DefaultDecimals;}\n  function ToDefaultDecimals(uint256 _rawData, uint256 _rawDataDecimals) public pure returns(uint256){\n    require(DefaultDecimals >= _rawDataDecimals);\n    return _rawData * (10** (DefaultDecimals - _rawDataDecimals));}\n  function ToCustomDecimals(uint256 _rawData, uint256 _rawDataDecimals) public pure returns(uint256){\n    require(DefaultDecimals >= _rawDataDecimals);\n    return _rawData / (10** (DefaultDecimals - _rawDataDecimals));}\n\n  function calcIntrinsicValue(uint256 _strike, uint256 _price, uint256 _amount, PayoffType _poType) private pure returns(uint256){\n      uint256 _intrinsicValue = 0;\n      if((_poType == PayoffType.Call) && (_price > _strike)){ _intrinsicValue = _price - _strike; }\n      if((_poType == PayoffType.Put) && (_price<_strike)){ _intrinsicValue = _strike - _price;}\n      return MulDiv(_intrinsicValue, _amount, DefaultMultiplier); }\n\n  function calcTimeValue(uint256 _price, uint256 _vol, uint256 _strike, uint256 _atmPremium) private pure returns (uint256){\n    if(_vol == 0) return _vol;\n    uint256 _moneyness = _strike > _price? (_price * DefaultMultiplier / _strike) : (_strike * DefaultMultiplier / _price); // always in (0,1]\n    uint256 _midPoint = DefaultMultiplier - (_vol > DefaultMultiplier? DefaultMultiplier: _vol) / 2 ; // always in [0.5, 1]\n    uint256 _a = 2 * DefaultMultiplier - _midPoint; // always in [1, 1.5]\n    uint256 _b = DefaultMultiplier - _midPoint; // always in [0, 0.5]\n    // return MulDiv(_amount * 4, MulDiv(_b,  _vol, _a - _moneyness), 10 * DefaultMultiplier);}\n    return MulDiv(_atmPremium, _b, _a - _moneyness);}\n\n  function calcPremium(uint256 _price, uint256 _vol, uint256 _strike, PayoffType _poType, uint256 _amount, uint256 _interest) public pure returns(uint256){\n    int256 _d = int256(MulDiv(2 * DefaultMultiplier, DefaultMultiplier, _vol)) - int256(MulDiv(2 * DefaultMultiplier,  DefaultMultiplier, _vol)) + int256(_vol/ 2);\n    uint256 _discount = MulDiv(Logistic(_d - int256(_vol)), DefaultMultiplier, DefaultMultiplier + _interest);\n    uint256 _atmPremium = MulDiv(_price, Logistic(_d) - _discount, DefaultMultiplier);\n    uint256 _timeValue = MulDiv(_amount, calcTimeValue(_price, _vol, _strike, _atmPremium), DefaultMultiplier);\n    uint256 _intrinsicValue = calcIntrinsicValue(_strike, _price, _amount, _poType);\n    return _intrinsicValue + _timeValue;}\n\n  function calcOptionCost(uint256 _price, uint256 _strike, uint256 _amount, uint256 _vol, PayoffType _poType, OptionSide _side, uint256 _interest) external pure returns(uint256 _premium, uint256 _cost) {\n    _premium = calcPremium(_price, _vol, _strike, _poType, _amount, _interest);\n    _cost = _premium;\n    if(_side == OptionSide.Sell && _poType == PayoffType.Put){ _cost = MulDiv(_amount, _strike, DefaultMultiplier) - _cost;}\n    if(_side == OptionSide.Sell && _poType == PayoffType.Call){ _cost = MulDiv(_amount, _price, DefaultMultiplier) - _cost;}}\n\n  function calcPayoff(Option storage _option, uint256 _price) public view returns(uint256){\n    return calcIntrinsicValue(_option.strike, _price, _option.amount, _option.poType);}\n\n  function calcNotionalExposure(Option storage _option, uint256 _price) public view returns(uint256){ \n    return MulDiv(_option.amount, _price, DefaultMultiplier);}\n\n  function calcDelta(Option storage _option, uint256 _price, uint256 _vol) public view returns(uint256 _delta){\n    uint256 _moneyness = MulDiv(_price, DefaultMultiplier, _option.strike);\n    int256 _d = int256(MulDiv(2 * DefaultMultiplier,  (_moneyness * DefaultMultiplier).sqrt(), _vol)) - int256(MulDiv(2 * DefaultMultiplier,  DefaultMultiplier, _vol)) + int256(_vol/ 2);\n    _delta = MulDiv(Logistic(_d), _option.amount, DefaultMultiplier);}\n  \n  function calcGamma(uint256 _price, uint256 _strike, uint256 _vol) public pure returns(uint256 _gamma){\n    uint256 _moneyness = MulDiv(_price, DefaultMultiplier, _strike);\n    int256 _d = int256(MulDiv(2 * DefaultMultiplier,  (_moneyness * DefaultMultiplier).sqrt(), _vol)) - int256(MulDiv(2 * DefaultMultiplier,  DefaultMultiplier, _vol)) + int256(_vol/ 2);\n    _gamma = MulDiv(MulDiv(NormalDensity(_d), DefaultMultiplier, _price), DefaultMultiplier, _vol);}\n\n  function adjustStrike(uint256 _strike, PayoffType _poType, OptionSide _side, uint256 _slippage, uint256 _loanInterest) external pure returns(uint256 _adjustedStrike){\n    _adjustedStrike = adjustSlippage(_strike, false, _slippage, 0); // downward\n    if((_poType==PayoffType.Put && _side == OptionSide.Buy) || (_poType==PayoffType.Call && _side == OptionSide.Sell)){ \n      _adjustedStrike = adjustSlippage(_strike,true, _slippage, _loanInterest);} //upward\n  }\n\n  function adjustSlippage(uint256 _amount, bool _adjustUpward, uint256 _slippage, uint256 _loanInterest) public pure returns (uint256 _adjustedAmount){\n    _adjustedAmount = _amount;\n    if(_adjustUpward) _adjustedAmount = MulDiv(_amount, DefaultMultiplier + _slippage + _loanInterest, DefaultMultiplier);\n    if(!_adjustUpward) _adjustedAmount = MulDiv(_amount, DefaultMultiplier, DefaultMultiplier + _slippage+ _loanInterest);}\n\n  function getOpposeTrade(int256 _amount, uint256 _price, uint256 _slippage) external pure returns (int256 _oppositeAmount){\n    _oppositeAmount = int256(MulDiv(adjustSlippage(_amount >=0 ? uint256(_amount): uint256(-_amount), _amount>0, _slippage, 0), _price, DefaultMultiplier)) * (_amount >=0? int256(-1): int256(1));}\n\n  function calcRiskPremiumAMM(uint256 _max, int256 _input, uint256 _constant, uint256 _volCapacityFactor) external pure returns(int256) {\n    int256 _capacity = int256(DefaultMultiplier); // capacity should be in (0,2)\n    if(_input < 0){_capacity +=  int256(MulDiv(uint256(-_input), _volCapacityFactor, _max));}\n    if(_input > 0){ _capacity -= int256(MulDiv(uint256(_input) , _volCapacityFactor, _max));}\n    require(_capacity>=0,\"Capacity breached.\");\n    return int256(MulDiv(_constant, DefaultMultiplier, uint256(_capacity))) - int256(_constant);}\n\n}\n",
  "sourcePath": "/Users/apple/Documents/GitHub/moret/contracts/OptionLibrary.sol",
  "compiler": {
    "name": "solc",
    "version": "0.8.10+commit.fc410830.Emscripten.clang"
  },
  "schemaVersion": "3.4.3",
  "updatedAt": "2021-12-14T21:43:55.548Z",
  "networkType": "ethereum",
  "devdoc": {
    "kind": "dev",
    "methods": {},
    "version": 1
  },
  "userdoc": {
    "kind": "user",
    "methods": {},
    "version": 1
  }
}