{
  "contractName": "OptionLibrary",
  "abi": [
    {
      "inputs": [
        {
          "internalType": "uint256",
          "name": "_price",
          "type": "uint256"
        },
        {
          "internalType": "uint256",
          "name": "_vol",
          "type": "uint256"
        },
        {
          "internalType": "uint256",
          "name": "_strike",
          "type": "uint256"
        },
        {
          "internalType": "enum OptionLibrary.PayoffType",
          "name": "_poType",
          "type": "OptionLibrary.PayoffType"
        },
        {
          "internalType": "uint256",
          "name": "_amount",
          "type": "uint256"
        },
        {
          "internalType": "uint256",
          "name": "_interest",
          "type": "uint256"
        },
        {
          "internalType": "uint256",
          "name": "_hedgeCost",
          "type": "uint256"
        }
      ],
      "name": "calcPremium",
      "outputs": [
        {
          "internalType": "uint256",
          "name": "",
          "type": "uint256"
        }
      ],
      "stateMutability": "pure",
      "type": "function",
      "constant": true
    },
    {
      "inputs": [
        {
          "internalType": "uint256",
          "name": "_price",
          "type": "uint256"
        },
        {
          "internalType": "uint256",
          "name": "_strike",
          "type": "uint256"
        },
        {
          "internalType": "uint256",
          "name": "_amount",
          "type": "uint256"
        },
        {
          "internalType": "enum OptionLibrary.PayoffType",
          "name": "_poType",
          "type": "OptionLibrary.PayoffType"
        },
        {
          "internalType": "enum OptionLibrary.OptionSide",
          "name": "_side",
          "type": "OptionLibrary.OptionSide"
        },
        {
          "internalType": "uint256",
          "name": "_premium",
          "type": "uint256"
        }
      ],
      "name": "calcCost",
      "outputs": [
        {
          "internalType": "uint256",
          "name": "_cost",
          "type": "uint256"
        }
      ],
      "stateMutability": "pure",
      "type": "function",
      "constant": true
    },
    {
      "inputs": [
        {
          "internalType": "uint256",
          "name": "_price",
          "type": "uint256"
        },
        {
          "internalType": "uint256",
          "name": "_strike",
          "type": "uint256"
        },
        {
          "internalType": "uint256",
          "name": "_vol",
          "type": "uint256"
        }
      ],
      "name": "calcGamma",
      "outputs": [
        {
          "internalType": "uint256",
          "name": "_gamma",
          "type": "uint256"
        }
      ],
      "stateMutability": "pure",
      "type": "function",
      "constant": true
    },
    {
      "inputs": [
        {
          "internalType": "uint256",
          "name": "_amount",
          "type": "uint256"
        },
        {
          "internalType": "bool",
          "name": "_adjustUpward",
          "type": "bool"
        },
        {
          "internalType": "uint256",
          "name": "_slippage",
          "type": "uint256"
        },
        {
          "internalType": "uint256",
          "name": "_loanInterest",
          "type": "uint256"
        }
      ],
      "name": "adjustSlippage",
      "outputs": [
        {
          "internalType": "uint256",
          "name": "_adjustedAmount",
          "type": "uint256"
        }
      ],
      "stateMutability": "pure",
      "type": "function",
      "constant": true
    },
    {
      "inputs": [
        {
          "internalType": "int256",
          "name": "_amount",
          "type": "int256"
        },
        {
          "internalType": "uint256",
          "name": "_price",
          "type": "uint256"
        },
        {
          "internalType": "uint256",
          "name": "_slippage",
          "type": "uint256"
        }
      ],
      "name": "getOpposeTrade",
      "outputs": [
        {
          "internalType": "int256",
          "name": "_oppositeAmount",
          "type": "int256"
        }
      ],
      "stateMutability": "pure",
      "type": "function",
      "constant": true
    },
    {
      "inputs": [
        {
          "internalType": "uint256",
          "name": "_max",
          "type": "uint256"
        },
        {
          "internalType": "int256",
          "name": "_input",
          "type": "int256"
        },
        {
          "internalType": "uint256",
          "name": "_constant",
          "type": "uint256"
        },
        {
          "internalType": "uint256",
          "name": "_volCapacityFactor",
          "type": "uint256"
        }
      ],
      "name": "calcRiskPremiumAMM",
      "outputs": [
        {
          "internalType": "int256",
          "name": "",
          "type": "int256"
        }
      ],
      "stateMutability": "pure",
      "type": "function",
      "constant": true
    }
  ],
  "bytecode": "0x6128df610053600b82828239805160001a607314610046577f4e487b7100000000000000000000000000000000000000000000000000000000600052600060045260246000fd5b30600052607381538281f3fe73000000000000000000000000000000000000000030146080604052600436106100d95760003560e01c80638d98b89e11610096578063ca0cc13d11610070578063ca0cc13d1461028f578063de920307146102bf578063e7c9d3f5146102ef578063fcc14dfd1461031f576100d9565b80638d98b89e146101fe5780639932b2be1461022e578063a69d3ae01461025e576100d9565b80631059c90e146100de5780632634764d1461010e578063508cd14e1461013e5780636ae2bcc21461016e5780638234348f1461019e57806387711e2f146101ce575b600080fd5b6100f860048036038101906100f39190611deb565b61034f565b6040516101059190611e31565b60405180910390f35b61012860048036038101906101239190611e9d565b61045a565b6040516101359190611e31565b60405180910390f35b61015860048036038101906101539190611f77565b6106c4565b6040516101659190611e31565b60405180910390f35b61018860048036038101906101839190611deb565b6107ef565b6040516101959190611e31565b60405180910390f35b6101b860048036038101906101b39190612003565b610815565b6040516101c59190611e31565b60405180910390f35b6101e860048036038101906101e39190612090565b6109c3565b6040516101f59190612110565b60405180910390f35b61021860048036038101906102139190611deb565b610ec0565b6040516102259190611e31565b60405180910390f35b6102486004803603810190610243919061212b565b610f12565b6040516102559190611e31565b60405180910390f35b6102786004803603810190610273919061217e565b6112ef565b6040516102869291906121be565b60405180910390f35b6102a960048036038101906102a49190612213565b611501565b6040516102b69190612110565b60405180910390f35b6102d960048036038101906102d49190611deb565b6115f3565b6040516102e69190612275565b60405180910390f35b61030960048036038101906103049190611deb565b611645565b6040516103169190611e31565b60405180910390f35b61033960048036038101906103349190612290565b6116d8565b6040516103469190612110565b60405180910390f35b6000600180811115610364576103636122f7565b5b8260000160019054906101000a900460ff166001811115610388576103876122f7565b5b1480156103c957506001808111156103a3576103a26122f7565b5b8260000160009054906101000a900460ff1660018111156103c7576103c66122f7565b5b145b1561045557816007015473__FullMath______________________________63fed4a0f3909184600901546040518363ffffffff1660e01b81526004016104119291906121be565b602060405180830381865af415801561042e573d6000803e3d6000fd5b505050506040513d601f19601f82011682018060405250810190610452919061233b565b90505b919050565b60008061047260028961046d91906123c6565b611917565b9050600061047f89611917565b8261048a91906123f7565b73__FullMath______________________________635543160e90916040518263ffffffff1660e01b81526004016104c29190612110565b602060405180830381865af41580156104df573d6000803e3d6000fd5b505050506040513d601f19601f82011682018060405250810190610503919061233b565b73__FullMath______________________________638d4f64ac9091876040518363ffffffff1660e01b815260040161053d9291906121be565b602060405180830381865af415801561055a573d6000803e3d6000fd5b505050506040513d601f19601f8201168201806040525081019061057e919061233b565b905060008a73__FullMath______________________________63fed4a0f39091848673__FullMath______________________________635543160e90916040518263ffffffff1660e01b81526004016105d99190612110565b602060405180830381865af41580156105f6573d6000803e3d6000fd5b505050506040513d601f19601f8201168201806040525081019061061a919061233b565b610624919061248b565b6040518363ffffffff1660e01b81526004016106419291906121be565b602060405180830381865af415801561065e573d6000803e3d6000fd5b505050506040513d601f19601f82011682018060405250810190610682919061233b565b905060006106948c8c8c858c8b611984565b905060006106a48b8e8b8d611c7c565b905081816106b291906124bf565b95505050505050979650505050505050565b6000849050831561075d578473__FullMath______________________________631c4b9a2d909184866106f891906124bf565b6040518363ffffffff1660e01b81526004016107159291906121be565b602060405180830381865af4158015610732573d6000803e3d6000fd5b505050506040513d601f19601f82011682018060405250810190610756919061233b565b90506107e7565b8473__FullMath______________________________638d4f64ac9091848661078691906124bf565b6040518363ffffffff1660e01b81526004016107a39291906121be565b602060405180830381865af41580156107c0573d6000803e3d6000fd5b505050506040513d601f19601f820116820180604052508101906107e4919061233b565b90505b949350505050565b60006107ff826005015442611d97565b826005015461080e919061248b565b9050919050565b600081905060018081111561082d5761082c6122f7565b5b8360018111156108405761083f6122f7565b5b14156109b957600180811115610859576108586122f7565b5b84600181111561086c5761086b6122f7565b5b141561090057818573__FullMath______________________________63fed4a0f39091896040518363ffffffff1660e01b81526004016108ae9291906121be565b602060405180830381865af41580156108cb573d6000803e3d6000fd5b505050506040513d601f19601f820116820180604052508101906108ef919061233b565b6108f9919061248b565b90506109b8565b60006001811115610914576109136122f7565b5b846001811115610927576109266122f7565b5b14156109b757818573__FullMath______________________________63fed4a0f390918a6040518363ffffffff1660e01b81526004016109699291906121be565b602060405180830381865af4158015610986573d6000803e3d6000fd5b505050506040513d601f19601f820116820180604052508101906109aa919061233b565b6109b4919061248b565b90505b5b5b9695505050505050565b6000600160038111156109d9576109d86122f7565b5b8560000160029054906101000a900460ff1660038111156109fd576109fc6122f7565b5b148015610a1557508180610a145750428560050154115b5b15610eb85760006001811115610a2e57610a2d6122f7565b5b8560000160019054906101000a900460ff166001811115610a5257610a516122f7565b5b1415610e285760008473__FullMath______________________________63de7f6170909188600901546040518363ffffffff1660e01b8152600401610a999291906121be565b602060405180830381865af4158015610ab6573d6000803e3d6000fd5b505050506040513d601f19601f82011682018060405250810190610ada919061233b565b90506000610af3600286610aee91906123c6565b611917565b610b8b670de0b6b3a764000073__FullMath______________________________63de7f61709091896040518363ffffffff1660e01b8152600401610b399291906121be565b602060405180830381865af4158015610b56573d6000803e3d6000fd5b505050506040513d601f19601f82011682018060405250810190610b7a919061233b565b6002610b869190612515565b611917565b610ca7670de0b6b3a764000085610ba29190612515565b73__FullMath______________________________63677342ce90916040518263ffffffff1660e01b8152600401610bda9190611e31565b602060405180830381865af4158015610bf7573d6000803e3d6000fd5b505050506040513d601f19601f82011682018060405250810190610c1b919061233b565b73__FullMath______________________________63de7f617090918a6040518363ffffffff1660e01b8152600401610c559291906121be565b602060405180830381865af4158015610c72573d6000803e3d6000fd5b505050506040513d601f19601f82011682018060405250810190610c96919061233b565b6002610ca29190612515565b611917565b610cb191906123f7565b610cbb919061256f565b9050610dbe8173__FullMath______________________________635543160e90916040518263ffffffff1660e01b8152600401610cf99190612110565b602060405180830381865af4158015610d16573d6000803e3d6000fd5b505050506040513d601f19601f82011682018060405250810190610d3a919061233b565b73__FullMath______________________________63fed4a0f390918a600701546040518363ffffffff1660e01b8152600401610d789291906121be565b602060405180830381865af4158015610d95573d6000803e3d6000fd5b505050506040513d601f19601f82011682018060405250810190610db9919061233b565b611917565b9250600180811115610dd357610dd26122f7565b5b8760000160009054906101000a900460ff166001811115610df757610df66122f7565b5b1415610e215782610e0b8860070154611917565b610e1490612603565b610e1e919061256f565b92505b5050610eb7565b600180811115610e3b57610e3a6122f7565b5b8560000160019054906101000a900460ff166001811115610e5f57610e5e6122f7565b5b148015610ea1575060006001811115610e7b57610e7a6122f7565b5b8560000160009054906101000a900460ff166001811115610e9f57610e9e6122f7565b5b145b15610eb657610eb38560070154611917565b90505b5b5b949350505050565b6000806001811115610ed557610ed46122f7565b5b8260000160009054906101000a900460ff166001811115610ef957610ef86122f7565b5b14610f05576000610f0b565b81600701545b9050919050565b6000808473__FullMath______________________________63de7f61709091866040518363ffffffff1660e01b8152600401610f509291906121be565b602060405180830381865af4158015610f6d573d6000803e3d6000fd5b505050506040513d601f19601f82011682018060405250810190610f91919061233b565b90506000610faa600285610fa591906123c6565b611917565b611042670de0b6b3a764000073__FullMath______________________________63de7f61709091886040518363ffffffff1660e01b8152600401610ff09291906121be565b602060405180830381865af415801561100d573d6000803e3d6000fd5b505050506040513d601f19601f82011682018060405250810190611031919061233b565b600261103d9190612515565b611917565b61115e670de0b6b3a7640000856110599190612515565b73__FullMath______________________________63677342ce90916040518263ffffffff1660e01b81526004016110919190611e31565b602060405180830381865af41580156110ae573d6000803e3d6000fd5b505050506040513d601f19601f820116820180604052508101906110d2919061233b565b73__FullMath______________________________63de7f61709091896040518363ffffffff1660e01b815260040161110c9291906121be565b602060405180830381865af4158015611129573d6000803e3d6000fd5b505050506040513d601f19601f8201168201806040525081019061114d919061233b565b60026111599190612515565b611917565b61116891906123f7565b611172919061256f565b90508073__FullMath______________________________633f8ac65c90916040518263ffffffff1660e01b81526004016111ad9190612110565b602060405180830381865af41580156111ca573d6000803e3d6000fd5b505050506040513d601f19601f820116820180604052508101906111ee919061233b565b73__FullMath______________________________63de7f61709091886040518363ffffffff1660e01b81526004016112289291906121be565b602060405180830381865af4158015611245573d6000803e3d6000fd5b505050506040513d601f19601f82011682018060405250810190611269919061233b565b73__FullMath______________________________63de7f61709091866040518363ffffffff1660e01b81526004016112a39291906121be565b602060405180830381865af41580156112c0573d6000803e3d6000fd5b505050506040513d601f19601f820116820180604052508101906112e4919061233b565b925050509392505050565b60008061131784600901548486600701548760000160009054906101000a900460ff16611c7c565b915081905060018081111561132f5761132e6122f7565b5b8460000160019054906101000a900460ff166001811115611353576113526122f7565b5b14156114fa576000600181111561136d5761136c6122f7565b5b8460000160009054906101000a900460ff166001811115611391576113906122f7565b5b14156114295781846007015473__FullMath______________________________63fed4a0f39091866040518363ffffffff1660e01b81526004016113d79291906121be565b602060405180830381865af41580156113f4573d6000803e3d6000fd5b505050506040513d601f19601f82011682018060405250810190611418919061233b565b611422919061248b565b90506114f9565b60018081111561143c5761143b6122f7565b5b8460000160009054906101000a900460ff1660018111156114605761145f6122f7565b5b14156114f85781846007015473__FullMath______________________________63fed4a0f3909187600901546040518363ffffffff1660e01b81526004016114aa9291906121be565b602060405180830381865af41580156114c7573d6000803e3d6000fd5b505050506040513d601f19601f820116820180604052508101906114eb919061233b565b6114f5919061248b565b90505b5b5b9250929050565b600080841215611512576001611534565b7fffffffffffffffffffffffffffffffffffffffffffffffffffffffffffffffff5b6115e06115606000871215611552578661154d90612603565b611554565b865b600088138660006106c4565b73__FullMath______________________________63fed4a0f39091876040518363ffffffff1660e01b815260040161159a9291906121be565b602060405180830381865af41580156115b7573d6000803e3d6000fd5b505050506040513d601f19601f820116820180604052508101906115db919061233b565b611917565b6115ea919061264c565b90509392505050565b600060016003811115611609576116086122f7565b5b8260000160029054906101000a900460ff16600381111561162d5761162c6122f7565b5b14801561163e575042826005015411155b9050919050565b600060018081111561165a576116596122f7565b5b8260000160009054906101000a900460ff16600181111561167e5761167d6122f7565b5b1480156116c057506000600181111561169a576116996122f7565b5b8260000160019054906101000a900460ff1660018111156116be576116bd6122f7565b5b145b6116cb5760006116d1565b81600701545b9050919050565b6000806116ec670de0b6b3a7640000611917565b90506000851215611794576117868561170490612603565b73__FullMath______________________________63b3947c179091868a6040518463ffffffff1660e01b815260040161174093929190612763565b602060405180830381865af415801561175d573d6000803e3d6000fd5b505050506040513d601f19601f82011682018060405250810190611781919061233b565b611917565b81611791919061256f565b90505b6000851315611831576118238573__FullMath______________________________63b3947c179091868a6040518463ffffffff1660e01b81526004016117dd93929190612763565b602060405180830381865af41580156117fa573d6000803e3d6000fd5b505050506040513d601f19601f8201168201806040525081019061181e919061233b565b611917565b8161182e91906123f7565b90505b6000811215611875576040517f08c379a000000000000000000000000000000000000000000000000000000000815260040161186c906127f7565b60405180910390fd5b61187e84611917565b6119028573__FullMath______________________________63de7f61709091856040518363ffffffff1660e01b81526004016118bc9291906121be565b602060405180830381865af41580156118d9573d6000803e3d6000fd5b505050506040513d601f19601f820116820180604052508101906118fd919061233b565b611917565b61190c91906123f7565b915050949350505050565b60007f7fffffffffffffffffffffffffffffffffffffffffffffffffffffffffffffff82111561197c576040517f08c379a000000000000000000000000000000000000000000000000000000000815260040161197390612889565b60405180910390fd5b819050919050565b6000808614156119975760009050611c72565b6000878611611a21578573__FullMath______________________________63de7f617090918a6040518363ffffffff1660e01b81526004016119db9291906121be565b602060405180830381865af41580156119f8573d6000803e3d6000fd5b505050506040513d601f19601f82011682018060405250810190611a1c919061233b565b611a9e565b8773__FullMath______________________________63de7f61709091886040518363ffffffff1660e01b8152600401611a5c9291906121be565b602060405180830381865af4158015611a79573d6000803e3d6000fd5b505050506040513d601f19601f82011682018060405250810190611a9d919061233b565b5b90506000670de0b6b3a76400008811611ab75787611ac1565b670de0b6b3a76400005b90508573__FullMath______________________________63b3947c179091600284611aed91906123c6565b85600286611afb91906123c6565b670de0b6b3a7640000611b0e91906124bf565b611b18919061248b565b6040518463ffffffff1660e01b8152600401611b3693929190612763565b602060405180830381865af4158015611b53573d6000803e3d6000fd5b505050506040513d601f19601f82011682018060405250810190611b77919061233b565b73__FullMath______________________________63fed4a0f39091876040518363ffffffff1660e01b8152600401611bb19291906121be565b602060405180830381865af4158015611bce573d6000803e3d6000fd5b505050506040513d601f19601f82011682018060405250810190611bf2919061233b565b73__FullMath______________________________631c4b9a2d9091866040518363ffffffff1660e01b8152600401611c2c9291906121be565b602060405180830381865af4158015611c49573d6000803e3d6000fd5b505050506040513d601f19601f82011682018060405250810190611c6d919061233b565b925050505b9695505050505050565b6000806000905060006001811115611c9757611c966122f7565b5b836001811115611caa57611ca96122f7565b5b148015611cb657508585115b15611cca578585611cc7919061248b565b90505b600180811115611cdd57611cdc6122f7565b5b836001811115611cf057611cef6122f7565b5b148015611cfc57508585105b15611d10578486611d0d919061248b565b90505b8073__FullMath______________________________63fed4a0f39091866040518363ffffffff1660e01b8152600401611d4b9291906121be565b602060405180830381865af4158015611d68573d6000803e3d6000fd5b505050506040513d601f19601f82011682018060405250810190611d8c919061233b565b915050949350505050565b6000818310611da65781611da8565b825b905092915050565b600080fd5b6000819050919050565b611dc881611db5565b8114611dd357600080fd5b50565b600081359050611de581611dbf565b92915050565b600060208284031215611e0157611e00611db0565b5b6000611e0f84828501611dd6565b91505092915050565b6000819050919050565b611e2b81611e18565b82525050565b6000602082019050611e466000830184611e22565b92915050565b611e5581611e18565b8114611e6057600080fd5b50565b600081359050611e7281611e4c565b92915050565b60028110611e8557600080fd5b50565b600081359050611e9781611e78565b92915050565b600080600080600080600060e0888a031215611ebc57611ebb611db0565b5b6000611eca8a828b01611e63565b9750506020611edb8a828b01611e63565b9650506040611eec8a828b01611e63565b9550506060611efd8a828b01611e88565b9450506080611f0e8a828b01611e63565b93505060a0611f1f8a828b01611e63565b92505060c0611f308a828b01611e63565b91505092959891949750929550565b60008115159050919050565b611f5481611f3f565b8114611f5f57600080fd5b50565b600081359050611f7181611f4b565b92915050565b60008060008060808587031215611f9157611f90611db0565b5b6000611f9f87828801611e63565b9450506020611fb087828801611f62565b9350506040611fc187828801611e63565b9250506060611fd287828801611e63565b91505092959194509250565b60028110611feb57600080fd5b50565b600081359050611ffd81611fde565b92915050565b60008060008060008060c087890312156120205761201f611db0565b5b600061202e89828a01611e63565b965050602061203f89828a01611e63565b955050604061205089828a01611e63565b945050606061206189828a01611e88565b935050608061207289828a01611fee565b92505060a061208389828a01611e63565b9150509295509295509295565b600080600080608085870312156120aa576120a9611db0565b5b60006120b887828801611dd6565b94505060206120c987828801611e63565b93505060406120da87828801611e63565b92505060606120eb87828801611f62565b91505092959194509250565b6000819050919050565b61210a816120f7565b82525050565b60006020820190506121256000830184612101565b92915050565b60008060006060848603121561214457612143611db0565b5b600061215286828701611e63565b935050602061216386828701611e63565b925050604061217486828701611e63565b9150509250925092565b6000806040838503121561219557612194611db0565b5b60006121a385828601611dd6565b92505060206121b485828601611e63565b9150509250929050565b60006040820190506121d36000830185611e22565b6121e06020830184611e22565b9392505050565b6121f0816120f7565b81146121fb57600080fd5b50565b60008135905061220d816121e7565b92915050565b60008060006060848603121561222c5761222b611db0565b5b600061223a868287016121fe565b935050602061224b86828701611e63565b925050604061225c86828701611e63565b9150509250925092565b61226f81611f3f565b82525050565b600060208201905061228a6000830184612266565b92915050565b600080600080608085870312156122aa576122a9611db0565b5b60006122b887828801611e63565b94505060206122c9878288016121fe565b93505060406122da87828801611e63565b92505060606122eb87828801611e63565b91505092959194509250565b7f4e487b7100000000000000000000000000000000000000000000000000000000600052602160045260246000fd5b60008151905061233581611e4c565b92915050565b60006020828403121561235157612350611db0565b5b600061235f84828501612326565b91505092915050565b7f4e487b7100000000000000000000000000000000000000000000000000000000600052601260045260246000fd5b7f4e487b7100000000000000000000000000000000000000000000000000000000600052601160045260246000fd5b60006123d182611e18565b91506123dc83611e18565b9250826123ec576123eb612368565b5b828204905092915050565b6000612402826120f7565b915061240d836120f7565b9250827f80000000000000000000000000000000000000000000000000000000000000000182126000841215161561244857612447612397565b5b827f7fffffffffffffffffffffffffffffffffffffffffffffffffffffffffffffff0182136000841216156124805761247f612397565b5b828203905092915050565b600061249682611e18565b91506124a183611e18565b9250828210156124b4576124b3612397565b5b828203905092915050565b60006124ca82611e18565b91506124d583611e18565b9250827fffffffffffffffffffffffffffffffffffffffffffffffffffffffffffffffff0382111561250a57612509612397565b5b828201905092915050565b600061252082611e18565b915061252b83611e18565b9250817fffffffffffffffffffffffffffffffffffffffffffffffffffffffffffffffff048311821515161561256457612563612397565b5b828202905092915050565b600061257a826120f7565b9150612585836120f7565b9250817f7fffffffffffffffffffffffffffffffffffffffffffffffffffffffffffffff038313600083121516156125c0576125bf612397565b5b817f80000000000000000000000000000000000000000000000000000000000000000383126000831216156125f8576125f7612397565b5b828201905092915050565b600061260e826120f7565b91507f800000000000000000000000000000000000000000000000000000000000000082141561264157612640612397565b5b816000039050919050565b6000612657826120f7565b9150612662836120f7565b9250827f7fffffffffffffffffffffffffffffffffffffffffffffffffffffffffffffff04821160008413600084131616156126a1576126a0612397565b5b817f800000000000000000000000000000000000000000000000000000000000000005831260008412600084131616156126de576126dd612397565b5b827f8000000000000000000000000000000000000000000000000000000000000000058212600084136000841216161561271b5761271a612397565b5b827f7fffffffffffffffffffffffffffffffffffffffffffffffffffffffffffffff058212600084126000841216161561275857612757612397565b5b828202905092915050565b60006060820190506127786000830186611e22565b6127856020830185611e22565b6127926040830184611e22565b949350505050565b600082825260208201905092915050565b7f43617061636974792062726561636865642e0000000000000000000000000000600082015250565b60006127e160128361279a565b91506127ec826127ab565b602082019050919050565b60006020820190508181036000830152612810816127d4565b9050919050565b7f53616665436173743a2076616c756520646f65736e27742066697420696e206160008201527f6e20696e74323536000000000000000000000000000000000000000000000000602082015250565b600061287360288361279a565b915061287e82612817565b604082019050919050565b600060208201905081810360008301526128a281612866565b905091905056fea26469706673582212205553fc02d193147d2459278d02c2a715a28a6827d344b647dceba18210586c4c64736f6c634300080b0033",
  "immutableReferences": {},
  "source": "// SPDX-License-Identifier: MIT\n\npragma solidity ^0.8.0;\n\nimport \"./FullMath.sol\";\nimport \"@openzeppelin/contracts/utils/math/SafeCast.sol\";\nimport \"@openzeppelin/contracts/utils/math/Math.sol\";\n\nlibrary OptionLibrary {\n  using FullMath for uint256;\n  using FullMath for int256;\n\n  enum PayoffType { Call, Put}\n  enum OptionSide{ Buy, Sell}\n  enum OptionStatus { Draft, Active, Exercised, Expired}\n  \n  // Arguments: option type, option side, contract status, contract holder address, contract id, creation timestamp, effective timestamp, tenor in seconds, maturity timestamp, excersie timestamp, amount or size of contract, current spot price, option strike, implied volatility, calculated premium and total cost including collaterals.\n  struct Option { \n    PayoffType poType; OptionSide side; OptionStatus status; \n    address holder; uint256 id; \n    uint256 createTime; uint256 effectiveTime; \n    uint256 tenor; uint256 maturity; uint256 exerciseTime; \n    uint256 amount;\n    uint256 spot; uint256 strike;\n    uint256 volatility;\n    uint256 premium;uint256 cost;}\n  \n  uint256 internal constant BASE  = 1e18;\n\n  function calcIntrinsicValue(uint256 _strike, uint256 _price, uint256 _amount, PayoffType _poType) private pure returns(uint256){\n      uint256 _intrinsicValue = 0;\n      if((_poType == PayoffType.Call) && (_price > _strike)){ _intrinsicValue = _price - _strike; }\n      if((_poType == PayoffType.Put) && (_price<_strike)){ _intrinsicValue = _strike - _price;}\n      return _intrinsicValue.ethmul(_amount); }\n\n  function calcTimeValue(uint256 _price, uint256 _vol, uint256 _strike, uint256 _atmPremium, uint256 _amount, uint256 _hedgeCost) private pure returns (uint256){\n    if(_vol == 0) return 0;\n    uint256 _m = _strike > _price? _price.ethdiv(_strike) : _strike.ethdiv(_price); // always in (0,1]\n    uint256 _v = _vol > BASE? BASE: _vol; // always in (0, 1]\n    return _atmPremium.muldiv(_v / 2, BASE + _v / 2 - _m).ethmul(_amount).accrue(_hedgeCost);}\n\n  function calcPremium(uint256 _price, uint256 _vol, uint256 _strike, PayoffType _poType, uint256 _amount, uint256 _interest, uint256 _hedgeCost) external pure returns(uint256){\n    int256 _atm_d = SafeCast.toInt256(_vol/ 2); // d value when at the money\n    uint256 _discount = (_atm_d - SafeCast.toInt256(_vol)).logistic().discount(_interest);\n    uint256 _atmPremium = _price.ethmul(_atm_d.logistic() - _discount);\n    uint256 _timeValue = calcTimeValue(_price, _vol, _strike, _atmPremium, _amount, _hedgeCost);\n    uint256 _intrinsicValue = calcIntrinsicValue(_strike, _price, _amount, _poType);\n    return _intrinsicValue + _timeValue;}\n\n  function calcCost(uint256 _price, uint256 _strike, uint256 _amount, PayoffType _poType, OptionSide _side, uint256 _premium) external pure returns (uint256 _cost) {\n    _cost = _premium;\n    if(_side == OptionSide.Sell){\n      if(_poType == PayoffType.Put){ \n        _cost =  _amount.ethmul(_strike) - _premium;}\n      else if(_poType == PayoffType.Call){ \n        _cost = _amount.ethmul(_price) - _premium;}}}\n\n  // payoff is the premium of options, payback is the amount owned to the option holder including both the signed amount of payoff and paid collaterals.\n  function calcPayoff(Option storage _option, uint256 _price) public view returns(uint256 _payoff, uint256 _payback){\n    _payoff = calcIntrinsicValue(_option.strike, _price, _option.amount, _option.poType);\n    _payback = _payoff;\n    if(_option.side == OptionSide.Sell){\n      if (_option.poType == PayoffType.Call){\n        _payback = _option.amount.ethmul(_price) - _payoff;}\n      else if(_option.poType == PayoffType.Put){\n        _payback = _option.amount.ethmul(_option.strike) - _payoff;}}}\n\n  function sellPutCollateral(Option storage _option) public view returns (uint256 _collateral){\n    if(_option.side == OptionSide.Sell && _option.poType == PayoffType.Put) _collateral = _option.amount.ethmul(_option.strike);}\n\n  function calcRemainingMaturity(Option storage _option) public view returns(uint256 _maturityLeft){\n    _maturityLeft = _option.maturity - Math.min(_option.maturity, block.timestamp);}\n\n  function calcDelta(Option storage _option, uint256 _price, uint256 _vol, bool _includeExpiring) public view returns(int256 _delta){\n    _delta = 0;\n    if(_option.status== OptionStatus.Active && (_includeExpiring || (_option.maturity > block.timestamp))){\n      if(_option.side== OptionSide.Buy){\n        uint256 _moneyness = _price.ethdiv(_option.strike);\n        int256 _d = SafeCast.toInt256(2 *  (_moneyness * BASE).sqrt().ethdiv(_vol)) - SafeCast.toInt256(2 * BASE.ethdiv(_vol)) + SafeCast.toInt256(_vol/ 2);\n        _delta = SafeCast.toInt256(_d.logistic().ethmul(_option.amount));\n        if(_option.poType == PayoffType.Put) {\n          _delta = -SafeCast.toInt256(_option.amount) + _delta; }}\n      else if(_option.side== OptionSide.Sell && _option.poType== PayoffType.Call){ \n        _delta = SafeCast.toInt256(_option.amount);}}} // collateral for sell call options. zero for sell put options  \n\n  function calcDeltaAtZero(Option storage _option) public view returns(uint256 _delta){\n    _delta = _option.poType == PayoffType.Call? _option.amount: 0;}\n\n  function calcDeltaAtMax(Option storage _option) public view returns(uint256 _delta){\n    _delta = (_option.poType == PayoffType.Put && _option.side== OptionSide.Buy)? _option.amount: 0;}\n  \n  function calcGamma(uint256 _price, uint256 _strike, uint256 _vol) public pure returns(uint256 _gamma){\n    uint256 _moneyness = _price.ethdiv(_strike);\n    int256 _d = SafeCast.toInt256(2 * (_moneyness * BASE).sqrt().ethdiv(_vol)) - SafeCast.toInt256(2 * BASE.ethdiv(_vol)) + SafeCast.toInt256(_vol/ 2);\n    _gamma = _d.normalDensity().ethdiv(_price).ethdiv(_vol);}\n\n  function adjustSlippage(uint256 _amount, bool _adjustUpward, uint256 _slippage, uint256 _loanInterest) public pure returns (uint256 _adjustedAmount){\n    _adjustedAmount = _amount;\n    if(_adjustUpward) {\n      _adjustedAmount = _amount.accrue(_slippage + _loanInterest);}\n    else {\n      _adjustedAmount = _amount.discount(_slippage+ _loanInterest);}}\n\n  function getOpposeTrade(int256 _amount, uint256 _price, uint256 _slippage) external pure returns (int256 _oppositeAmount){\n    _oppositeAmount = SafeCast.toInt256(adjustSlippage(_amount >=0 ? uint256(_amount): uint256(-_amount), _amount>0, _slippage, 0).ethmul(_price)) * (_amount >=0? int256(-1): int256(1));}\n\n  function calcRiskPremiumAMM(uint256 _max, int256 _input, uint256 _constant, uint256 _volCapacityFactor) external pure returns(int256) {\n    int256 _capacity = SafeCast.toInt256(BASE); // capacity should be in (0,2)\n    if(_input < 0){_capacity +=  SafeCast.toInt256(uint256(-_input).muldiv(_volCapacityFactor, _max));}\n    if(_input > 0){ _capacity -= SafeCast.toInt256(uint256(_input).muldiv(_volCapacityFactor, _max));}\n    require(_capacity>=0,\"Capacity breached.\");\n    return SafeCast.toInt256(_constant.ethdiv(uint256(_capacity))) - SafeCast.toInt256(_constant);}\n\n  function isExpiring(Option storage _option) public view returns (bool){ \n    return (_option.status== OptionLibrary.OptionStatus.Active) && (_option.maturity <= block.timestamp);}\n\n}\n",
  "sourcePath": "/Users/mac/Documents/GitHub/moret/contracts/OptionLibrary.sol",
  "compiler": {
    "name": "solc",
    "version": "0.8.11+commit.d7f03943.Emscripten.clang"
  },
  "schemaVersion": "3.4.3",
  "updatedAt": "2022-02-14T23:46:19.839Z",
  "networkType": "ethereum",
  "devdoc": {
    "kind": "dev",
    "methods": {},
    "version": 1
  },
  "userdoc": {
    "kind": "user",
    "methods": {},
    "version": 1
  }
}