{
  "contractName": "OptionLibrary",
  "abi": [
    {
      "inputs": [],
      "name": "DefaultDecimals",
      "outputs": [
        {
          "internalType": "uint256",
          "name": "",
          "type": "uint256"
        }
      ],
      "stateMutability": "view",
      "type": "function"
    },
    {
      "inputs": [],
      "name": "DefaultMultiplier",
      "outputs": [
        {
          "internalType": "uint256",
          "name": "",
          "type": "uint256"
        }
      ],
      "stateMutability": "view",
      "type": "function"
    },
    {
      "inputs": [],
      "name": "Multiplier",
      "outputs": [
        {
          "internalType": "uint256",
          "name": "",
          "type": "uint256"
        }
      ],
      "stateMutability": "pure",
      "type": "function"
    },
    {
      "inputs": [],
      "name": "Decimals",
      "outputs": [
        {
          "internalType": "uint256",
          "name": "",
          "type": "uint256"
        }
      ],
      "stateMutability": "pure",
      "type": "function"
    },
    {
      "inputs": [
        {
          "internalType": "uint256",
          "name": "_rawData",
          "type": "uint256"
        },
        {
          "internalType": "uint256",
          "name": "_rawDataDecimals",
          "type": "uint256"
        }
      ],
      "name": "ToDefaultDecimals",
      "outputs": [
        {
          "internalType": "uint256",
          "name": "",
          "type": "uint256"
        }
      ],
      "stateMutability": "pure",
      "type": "function"
    },
    {
      "inputs": [
        {
          "internalType": "uint256",
          "name": "_rawData",
          "type": "uint256"
        },
        {
          "internalType": "uint256",
          "name": "_rawDataDecimals",
          "type": "uint256"
        }
      ],
      "name": "ToCustomDecimals",
      "outputs": [
        {
          "internalType": "uint256",
          "name": "",
          "type": "uint256"
        }
      ],
      "stateMutability": "pure",
      "type": "function"
    },
    {
      "inputs": [
        {
          "internalType": "uint256",
          "name": "_price",
          "type": "uint256"
        },
        {
          "internalType": "uint256",
          "name": "_volatility",
          "type": "uint256"
        },
        {
          "internalType": "uint256",
          "name": "_strike",
          "type": "uint256"
        },
        {
          "internalType": "enum OptionLibrary.PayoffType",
          "name": "_poType",
          "type": "OptionLibrary.PayoffType"
        },
        {
          "internalType": "uint256",
          "name": "_amount",
          "type": "uint256"
        }
      ],
      "name": "calcPremium",
      "outputs": [
        {
          "internalType": "uint256",
          "name": "",
          "type": "uint256"
        }
      ],
      "stateMutability": "pure",
      "type": "function"
    },
    {
      "inputs": [
        {
          "internalType": "uint256",
          "name": "_price",
          "type": "uint256"
        },
        {
          "internalType": "uint256",
          "name": "_strike",
          "type": "uint256"
        },
        {
          "internalType": "uint256",
          "name": "_amount",
          "type": "uint256"
        },
        {
          "internalType": "uint256",
          "name": "_vol",
          "type": "uint256"
        },
        {
          "internalType": "enum OptionLibrary.PayoffType",
          "name": "_poType",
          "type": "OptionLibrary.PayoffType"
        },
        {
          "internalType": "enum OptionLibrary.OptionSide",
          "name": "_side",
          "type": "OptionLibrary.OptionSide"
        }
      ],
      "name": "calcOptionCost",
      "outputs": [
        {
          "internalType": "uint256",
          "name": "_premium",
          "type": "uint256"
        },
        {
          "internalType": "uint256",
          "name": "_cost",
          "type": "uint256"
        }
      ],
      "stateMutability": "pure",
      "type": "function"
    },
    {
      "inputs": [
        {
          "internalType": "uint256",
          "name": "_price",
          "type": "uint256"
        },
        {
          "internalType": "uint256",
          "name": "_strike",
          "type": "uint256"
        },
        {
          "internalType": "uint256",
          "name": "_vol",
          "type": "uint256"
        }
      ],
      "name": "calcDelta",
      "outputs": [
        {
          "internalType": "uint256",
          "name": "_delta",
          "type": "uint256"
        }
      ],
      "stateMutability": "pure",
      "type": "function"
    },
    {
      "inputs": [
        {
          "internalType": "uint256",
          "name": "_price",
          "type": "uint256"
        },
        {
          "internalType": "uint256",
          "name": "_strike",
          "type": "uint256"
        },
        {
          "internalType": "uint256",
          "name": "_vol",
          "type": "uint256"
        }
      ],
      "name": "calcGamma",
      "outputs": [
        {
          "internalType": "uint256",
          "name": "_gamma",
          "type": "uint256"
        }
      ],
      "stateMutability": "pure",
      "type": "function"
    },
    {
      "inputs": [
        {
          "internalType": "uint256",
          "name": "_strike",
          "type": "uint256"
        },
        {
          "internalType": "enum OptionLibrary.PayoffType",
          "name": "_poType",
          "type": "OptionLibrary.PayoffType"
        },
        {
          "internalType": "enum OptionLibrary.OptionSide",
          "name": "_side",
          "type": "OptionLibrary.OptionSide"
        },
        {
          "internalType": "uint256",
          "name": "_slippage",
          "type": "uint256"
        },
        {
          "internalType": "uint256",
          "name": "_loanInterest",
          "type": "uint256"
        }
      ],
      "name": "adjustStrike",
      "outputs": [
        {
          "internalType": "uint256",
          "name": "_adjustedStrike",
          "type": "uint256"
        }
      ],
      "stateMutability": "pure",
      "type": "function"
    },
    {
      "inputs": [
        {
          "internalType": "uint256",
          "name": "_amount",
          "type": "uint256"
        },
        {
          "internalType": "bool",
          "name": "_adjustUpward",
          "type": "bool"
        },
        {
          "internalType": "uint256",
          "name": "_slippage",
          "type": "uint256"
        },
        {
          "internalType": "uint256",
          "name": "_loanInterest",
          "type": "uint256"
        }
      ],
      "name": "adjustSlippage",
      "outputs": [
        {
          "internalType": "uint256",
          "name": "_adjustedAmount",
          "type": "uint256"
        }
      ],
      "stateMutability": "pure",
      "type": "function"
    },
    {
      "inputs": [
        {
          "internalType": "int256",
          "name": "_amount",
          "type": "int256"
        },
        {
          "internalType": "uint256",
          "name": "_price",
          "type": "uint256"
        },
        {
          "internalType": "uint256",
          "name": "_slippage",
          "type": "uint256"
        }
      ],
      "name": "getOpposeTrade",
      "outputs": [
        {
          "internalType": "int256",
          "name": "_oppositeAmount",
          "type": "int256"
        }
      ],
      "stateMutability": "pure",
      "type": "function"
    },
    {
      "inputs": [
        {
          "internalType": "uint256",
          "name": "_max",
          "type": "uint256"
        },
        {
          "internalType": "int256",
          "name": "_input",
          "type": "int256"
        },
        {
          "internalType": "uint256",
          "name": "_constant",
          "type": "uint256"
        },
        {
          "internalType": "uint256",
          "name": "_volCapacityFactor",
          "type": "uint256"
        }
      ],
      "name": "calcRiskPremiumAMM",
      "outputs": [
        {
          "internalType": "int256",
          "name": "",
          "type": "int256"
        }
      ],
      "stateMutability": "pure",
      "type": "function"
    }
  ],
  "bytecode": "0x61415f610053600b82828239805160001a607314610046577f4e487b7100000000000000000000000000000000000000000000000000000000600052600060045260246000fd5b30600052607381538281f3fe730000000000000000000000000000000000000000301460806040526004361061010a5760003560e01c80639932b2be116100a1578063ca0cc13d11610070578063ca0cc13d1461032c578063e9ef55ca1461035c578063fcc14dfd1461037a578063fd9b8763146103aa5761010a565b80639932b2be1461027e578063a69d3ae0146102ae578063bde840ed146102de578063c6ceb50b1461030e5761010a565b80634ea26ca4116100dd5780634ea26ca4146101cf578063508cd14e146101ff5780638d2c3b341461022f57806390829f911461024d5761010a565b80630862958b1461010f578063092f957a1461013f57806323a00f651461016f57806324f643451461019f575b600080fd5b610129600480360381019061012491906135e0565b6103c8565b604051610136919061362f565b60405180910390f35b6101596004803603810190610154919061364a565b6103e9565b604051610166919061362f565b60405180910390f35b6101896004803603810190610184919061368a565b610425565b604051610196919061362f565b60405180910390f35b6101b960048036038101906101b49190613702565b6104d7565b6040516101c6919061362f565b60405180910390f35b6101e960048036038101906101e491906137a2565b610523565b6040516101f6919061362f565b60405180910390f35b61021960048036038101906102149190613855565b610608565b604051610226919061362f565b60405180910390f35b610237610688565b604051610244919061362f565b60405180910390f35b610267600480360381019061026291906138bc565b610694565b604051610275929190613949565b60405180910390f35b6102986004803603810190610293919061368a565b6107ad565b6040516102a5919061362f565b60405180910390f35b6102c860048036038101906102c391906135e0565b610883565b6040516102d5919061362f565b60405180910390f35b6102f860048036038101906102f3919061364a565b6108b2565b604051610305919061362f565b60405180910390f35b6103166108ee565b604051610323919061362f565b60405180910390f35b610346600480360381019061034191906139a8565b6108f7565b6040516103539190613a0a565b60405180910390f35b610364610978565b604051610371919061362f565b60405180910390f35b610394600480360381019061038f9190613a25565b61097d565b6040516103a19190613a0a565b60405180910390f35b6103b2610a45565b6040516103bf919061362f565b60405180910390f35b60006103e1836007015483670de0b6b3a7640000610a55565b905092915050565b600081601210156103f957600080fd5b8160126104069190613abb565b600a6104129190613c22565b8361041d9190613c9c565b905092915050565b60008061043b85670de0b6b3a764000086610a55565b9050600060028461044c9190613c9c565b610473670de0b6b3a764000060026104649190613ccd565b670de0b6b3a764000087610a55565b6104ad670de0b6b3a7640000600261048b9190613ccd565b6104a7670de0b6b3a7640000876104a29190613ccd565b610b51565b88610a55565b6104b79190613d27565b6104c19190613dbb565b90506104cc81610d04565b925050509392505050565b6000806104e685888587612170565b905060006105086104f9878a8a88612222565b89670de0b6b3a7640000610a55565b905080826105169190613e4f565b9250505095945050505050565b6000610533866000856000610608565b905060018081111561054857610547613ea5565b5b85600181111561055b5761055a613ea5565b5b14801561058c57506000600181111561057757610576613ea5565b5b84600181111561058a57610589613ea5565b5b145b806105ea5750600060018111156105a6576105a5613ea5565b5b8560018111156105b9576105b8613ea5565b5b1480156105e957506001808111156105d4576105d3613ea5565b5b8460018111156105e7576105e6613ea5565b5b145b5b156105ff576105fc8660018585610608565b90505b95945050505050565b6000849050831561064757610644858385670de0b6b3a764000061062c9190613e4f565b6106369190613e4f565b670de0b6b3a7640000610a55565b90505b836106805761067d85670de0b6b3a76400008486670de0b6b3a764000061066e9190613e4f565b6106789190613e4f565b610a55565b90505b949350505050565b670de0b6b3a764000081565b6000806106a4888689878a6104d7565b91508190506001808111156106bc576106bb613ea5565b5b8360018111156106cf576106ce613ea5565b5b1480156106ff57506001808111156106ea576106e9613ea5565b5b8460018111156106fd576106fc613ea5565b5b145b1561072557806107188789670de0b6b3a7640000610a55565b6107229190613abb565b90505b60018081111561073857610737613ea5565b5b83600181111561074b5761074a613ea5565b5b14801561077c57506000600181111561076757610766613ea5565b5b84600181111561077a57610779613ea5565b5b145b156107a25780610795878a670de0b6b3a7640000610a55565b61079f9190613abb565b90505b965096945050505050565b6000806107c385670de0b6b3a764000086610a55565b905060006002846107d49190613c9c565b6107fb670de0b6b3a764000060026107ec9190613ccd565b670de0b6b3a764000087610a55565b610835670de0b6b3a764000060026108139190613ccd565b61082f670de0b6b3a76400008761082a9190613ccd565b610b51565b88610a55565b61083f9190613d27565b6108499190613dbb565b905061087861086961085a83612350565b670de0b6b3a764000089610a55565b670de0b6b3a764000086610a55565b925050509392505050565b60006108aa83600901548385600701548660000160009054906101000a900460ff16612170565b905092915050565b600081601210156108c257600080fd5b8160126108cf9190613abb565b600a6108db9190613c22565b836108e69190613ccd565b905092915050565b60006012905090565b60008084121561090857600161092a565b7fffffffffffffffffffffffffffffffffffffffffffffffffffffffffffffffff5b6109656109566000871215610948578661094390613ed4565b61094a565b865b60008813866000610608565b85670de0b6b3a7640000610a55565b61096f9190613f1d565b90509392505050565b601281565b600080670de0b6b3a7640000905060008512156109b6576109a8856109a190613ed4565b8488610a55565b816109b39190613dbb565b90505b60008513156109d8576109ca858488610a55565b816109d59190613d27565b90505b6000811215610a1c576040517f08c379a0000000000000000000000000000000000000000000000000000000008152600401610a1390614091565b60405180910390fd5b83610a3085670de0b6b3a764000084610a55565b610a3a9190613d27565b915050949350505050565b6000670de0b6b3a7640000905090565b600080600080198587098587029250828110838203039150506000811415610a905760008411610a8457600080fd5b83820492505050610b4a565b808411610a9c57600080fd5b60008486880990508281118203915080830392506000856001877fffffffffffffffffffffffffffffffffffffffffffffffffffffffffffffffff0301169050808604955080840493506001818260000304019050808302841793506000600287600302189050808702600203810290508087026002038102905080870260020381029050808702600203810290508087026002038102905080870260020381029050808502955050505050505b9392505050565b600080821415610b645760009050610cff565b6000829050600191507001000000000000000000000000000000008110610b9457608081901c9050604082901b91505b680100000000000000008110610bb357604081901c9050602082901b91505b6401000000008110610bce57602081901c9050601082901b91505b620100008110610be757601081901c9050600882901b91505b6101008110610bff57600881901c9050600482901b91505b60108110610c1657600481901c9050600282901b91505b60088110610c2657600182901b91505b6001828481610c3857610c37613c6d565b5b048301901c91506001828481610c5157610c50613c6d565b5b048301901c91506001828481610c6a57610c69613c6d565b5b048301901c91506001828481610c8357610c82613c6d565b5b048301901c91506001828481610c9c57610c9b613c6d565b5b048301901c91506001828481610cb557610cb4613c6d565b5b048301901c91506001828481610cce57610ccd613c6d565b5b048301901c91506000828481610ce757610ce6613c6d565b5b04905080831015610cf85782610cfa565b805b925050505b919050565b60008060405180610b2001604052807fffffffffffffffffffffffffffffffffffffffffffffffff2fd54b793124000060080b81526020017fffffffffffffffffffffffffffffffffffffffffffffffff3db6022cd888000060080b81526020017fffffffffffffffffffffffffffffffffffffffffffffffff4b96b8e07fec000060080b81526020017fffffffffffffffffffffffffffffffffffffffffffffffff59776f942750000060080b81526020017fffffffffffffffffffffffffffffffffffffffffffffffff67582647ceb4000060080b81526020017fffffffffffffffffffffffffffffffffffffffffffffffff7538dcfb7618000060080b81526020017fffffffffffffffffffffffffffffffffffffffffffffffff831993af1d7c000060080b81526020017fffffffffffffffffffffffffffffffffffffffffffffffff90fa4a62c4e0000060080b81526020017fffffffffffffffffffffffffffffffffffffffffffffffff9edb01166c44000060080b81526020017fffffffffffffffffffffffffffffffffffffffffffffffffacbbb7ca13a8000060080b81526020017fffffffffffffffffffffffffffffffffffffffffffffffffba9c6e7dbb0c000060080b81526020017fffffffffffffffffffffffffffffffffffffffffffffffffc18cc9d78ebe000060080b81526020017fffffffffffffffffffffffffffffffffffffffffffffffffc87d25316270000060080b81526020017fffffffffffffffffffffffffffffffffffffffffffffffffcf6d808b3622000060080b81526020017fffffffffffffffffffffffffffffffffffffffffffffffffd65ddbe509d4000060080b81526020017fffffffffffffffffffffffffffffffffffffffffffffffffd7c1215d675e000060080b81526020017fffffffffffffffffffffffffffffffffffffffffffffffffd92466d5c4e8000060080b81526020017fffffffffffffffffffffffffffffffffffffffffffffffffda87ac4e2272000060080b81526020017fffffffffffffffffffffffffffffffffffffffffffffffffdbeaf1c67ffc000060080b81526020017fffffffffffffffffffffffffffffffffffffffffffffffffdd4e373edd86000060080b81526020017fffffffffffffffffffffffffffffffffffffffffffffffffdeb17cb73b10000060080b81526020017fffffffffffffffffffffffffffffffffffffffffffffffffe014c22f989a000060080b81526020017fffffffffffffffffffffffffffffffffffffffffffffffffe17807a7f624000060080b81526020017fffffffffffffffffffffffffffffffffffffffffffffffffe2db4d2053ae000060080b81526020017fffffffffffffffffffffffffffffffffffffffffffffffffe43e9298b138000060080b81526020017fffffffffffffffffffffffffffffffffffffffffffffffffe5a1d8110ec2000060080b81526020017fffffffffffffffffffffffffffffffffffffffffffffffffe7051d896c4c000060080b81526020017fffffffffffffffffffffffffffffffffffffffffffffffffe8686301c9d6000060080b81526020017fffffffffffffffffffffffffffffffffffffffffffffffffe9cba87a2760000060080b81526020017fffffffffffffffffffffffffffffffffffffffffffffffffeb2eedf284ea000060080b81526020017fffffffffffffffffffffffffffffffffffffffffffffffffec92336ae274000060080b81526020017fffffffffffffffffffffffffffffffffffffffffffffffffedf578e33ffe000060080b81526020017fffffffffffffffffffffffffffffffffffffffffffffffffef58be5b9d88000060080b81526020017ffffffffffffffffffffffffffffffffffffffffffffffffff0bc03d3fb12000060080b81526020017ffffffffffffffffffffffffffffffffffffffffffffffffff21f494c589c000060080b81526020017ffffffffffffffffffffffffffffffffffffffffffffffffff3828ec4b626000060080b81526020017ffffffffffffffffffffffffffffffffffffffffffffffffff4e5d43d13b0000060080b81526020017ffffffffffffffffffffffffffffffffffffffffffffffffff64919b5713a000060080b81526020017ffffffffffffffffffffffffffffffffffffffffffffffffff7ac5f2dcec4000060080b81526020017ffffffffffffffffffffffffffffffffffffffffffffffffff90fa4a62c4e000060080b81526020017ffffffffffffffffffffffffffffffffffffffffffffffffffa72ea1e89d8000060080b81526020017ffffffffffffffffffffffffffffffffffffffffffffffffffbd62f96e762000060080b81526020017ffffffffffffffffffffffffffffffffffffffffffffffffffd39750f44ec000060080b81526020017ffffffffffffffffffffffffffffffffffffffffffffffffffe9cba87a276000060080b8152602001600060080b815260200167016345785d8a000060080b81526020016702c68af0bb14000060080b8152602001670429d069189e000060080b815260200167058d15e17628000060080b81526020016706f05b59d3b2000060080b8152602001670853a0d2313c000060080b81526020016709b6e64a8ec6000060080b8152602001670b1a2bc2ec50000060080b8152602001670c7d713b49da000060080b8152602001670de0b6b3a764000060080b8152602001670f43fc2c04ee000060080b81526020016710a741a46278000060080b815260200167120a871cc002000060080b815260200167136dcc951d8c000060080b81526020016714d1120d7b16000060080b81526020016716345785d8a0000060080b81526020016717979cfe362a000060080b81526020016718fae27693b4000060080b8152602001671a5e27eef13e000060080b8152602001671bc16d674ec8000060080b8152602001671d24b2dfac52000060080b8152602001671e87f85809dc000060080b8152602001671feb3dd06766000060080b815260200167214e8348c4f0000060080b81526020016722b1c8c1227a000060080b81526020016724150e398004000060080b815260200167257853b1dd8e000060080b81526020016726db992a3b18000060080b815260200167283edea298a2000060080b81526020016729a2241af62c000060080b81526020016730927f74c9de000060080b8152602001673782dace9d90000060080b8152602001673e7336287142000060080b8152602001674563918244f4000060080b81526020016753444835ec58000060080b8152602001676124fee993bc000060080b8152602001676f05b59d3b20000060080b8152602001677ce66c50e284000060080b8152602001678ac7230489e8000060080b81526020016798a7d9b8314c000060080b815260200167a688906bd8b0000060080b815260200167b469471f8014000060080b815260200167c249fdd32778000060080b815260200167d02ab486cedc000060080b8152509050600060405180610b200160405280600067ffffffffffffffff1681526020016302ac265467ffffffffffffffff168152602001630ea87f4067ffffffffffffffff168152602001635066183867ffffffffffffffff1681526020016401b8fadbca67ffffffffffffffff168152602001640972bbc11467ffffffffffffffff1681526020016433d28609ff67ffffffffffffffff16815260200165011c3d90be9867ffffffffffffffff168152602001650617061e622b67ffffffffffffffff168152602001652166d7d7e58067ffffffffffffffff16815260200165b72cd961350a67ffffffffffffffff1681526020016601ace0ccb0ffd267ffffffffffffffff1681526020016603ebcac407bfa667ffffffffffffffff16815260200166092b644ed8971c67ffffffffffffffff168152602001661566963940bcf867ffffffffffffffff168152602001661957d7dbe793c467ffffffffffffffff168152602001661e0171808fc27467ffffffffffffffff1681526020016623846cc5efa3ce67ffffffffffffffff168152602001662a077e40df04f467ffffffffffffffff1681526020016631b7e487e8c6a067ffffffffffffffff168152602001663aca5f1113221467ffffffffffffffff16815260200166457c3aeabd4c2867ffffffffffffffff16815260200166521470d9790d5067ffffffffffffffff1681526020016660e4ccd85770fc67ffffffffffffffff16815260200166724b1217ecac5c67ffffffffffffffff1681526020016686b20819b6c83067ffffffffffffffff168152602001669e92552cde3d5467ffffffffffffffff16815260200166ba730044d8b20c67ffffffffffffffff16815260200166dae96810784be067ffffffffffffffff16815260200167010098700b8a077c67ffffffffffffffff16815260200167012c2e976c17d5e067ffffffffffffffff16815260200167015e62a3c6761e6c67ffffffffffffffff168152602001670197ee85e83622c067ffffffffffffffff1681526020016701d98828005076f867ffffffffffffffff168152602001670223d7ef126f75f867ffffffffffffffff1681526020016702776ced5782cd9867ffffffffffffffff1681526020016702d4af13f69d342067ffffffffffffffff16815260200167033bd01fb85ed9e067ffffffffffffffff1681526020016703acbc7c7ede19a067ffffffffffffffff1681526020016704270dd934bc304067ffffffffffffffff1681526020016704aa0180a81000d067ffffffffffffffff168152602001670534749bef40ff6867ffffffffffffffff1681526020016705c4e8260172086067ffffffffffffffff1681526020016706598d804261481067ffffffffffffffff1681526020016706f05b59d3b2000067ffffffffffffffff16815260200167078729336502b7f067ffffffffffffffff16815260200167081bce8da5f1f7a067ffffffffffffffff1681526020016708ac4217b823009867ffffffffffffffff168152602001670936b532ff53ff3067ffffffffffffffff1681526020016709b9a8da72a7cfc067ffffffffffffffff168152602001670a33fa372885e66067ffffffffffffffff168152602001670aa4e693ef05262067ffffffffffffffff168152602001670b0c079fb0c6cbe067ffffffffffffffff168152602001670b6949c64fe1326867ffffffffffffffff168152602001670bbcdec494f48a0867ffffffffffffffff168152602001670c072e8ba713890867ffffffffffffffff168152602001670c48c82dbf2ddd4067ffffffffffffffff168152602001670c82540fe0ede06867ffffffffffffffff168152602001670cb4881c3b4c289067ffffffffffffffff168152602001670ce01e439bd9f9b067ffffffffffffffff168152602001670d05cd4b96ebb35867ffffffffffffffff168152602001670d2643b3628b4f2067ffffffffffffffff168152602001670d42245e7a85c3d867ffffffffffffffff168152602001670d5a04ab8dad364067ffffffffffffffff168152602001670d6e6ba18f77534067ffffffffffffffff168152602001670d7fd1e6cf0c90f867ffffffffffffffff168152602001670d8ea242cdeaf12067ffffffffffffffff168152602001670d9b3a78bca6b3d867ffffffffffffffff168152602001670da5ec549650dbf867ffffffffffffffff168152602001670daefecf1f7b396067ffffffffffffffff168152602001670db6af356684faa867ffffffffffffffff168152602001670dbd3246e1745c0067ffffffffffffffff168152602001670dc2b54226d43d7867ffffffffffffffff168152602001670dc75edbcb7c6e3067ffffffffffffffff168152602001670dcb501d6e23444867ffffffffffffffff168152602001670dd78b4f588b699867ffffffffffffffff168152602001670ddccae8e35c416867ffffffffffffffff168152602001670ddf09d2dab3017067ffffffffffffffff168152602001670ddfff86ce02ccd067ffffffffffffffff168152602001670de0954ccf8c1b6867ffffffffffffffff168152602001670de0b09ca1459db867ffffffffffffffff168152602001670de0b59769d3424067ffffffffffffffff168152602001670de0b67fd4ddf56067ffffffffffffffff168152602001670de0b6aa34a83eb867ffffffffffffffff168152602001670de0b6b1ee69256867ffffffffffffffff168152602001670de0b6b356fde86067ffffffffffffffff168152602001670de0b6b398bb7f6067ffffffffffffffff168152602001670de0b6b3a4b7db6067ffffffffffffffff168152602001670de0b6b3a764000067ffffffffffffffff16815250905060005b84838260598110611f5c57611f5b6140b1565b5b602002015160080b1215611f8a578080611f75906140e0565b91505060598110611f8557611f8a565b611f48565b81600060598110611f9e57611f9d6140b1565b5b602002015167ffffffffffffffff1693506059811415611fde5781605860598110611fcc57611fcb6140b1565b5b602002015167ffffffffffffffff1693505b600081118015611fee5750605981105b1561216857826001826120019190613abb565b60598110612012576120116140b1565b5b602002015160080b83826059811061202d5761202c6140b1565b5b602002015160080b61203f9190613d27565b8360018361204d9190613abb565b6059811061205e5761205d6140b1565b5b602002015160080b866120719190613d27565b838360598110612084576120836140b1565b5b602002015167ffffffffffffffff1661209d9190613ccd565b6120a79190613c9c565b836001836120b59190613abb565b605981106120c6576120c56140b1565b5b602002015160080b8483605981106120e1576120e06140b1565b5b602002015160080b6120f39190613d27565b86858460598110612107576121066140b1565b5b602002015160080b6121199190613d27565b846001856121279190613abb565b60598110612138576121376140b1565b5b602002015167ffffffffffffffff166121519190613ccd565b61215b9190613c9c565b6121659190613e4f565b93505b505050919050565b600080600090506000600181111561218b5761218a613ea5565b5b83600181111561219e5761219d613ea5565b5b1480156121aa57508585115b156121be5785856121bb9190613abb565b90505b6001808111156121d1576121d0613ea5565b5b8360018111156121e4576121e3613ea5565b5b1480156121f057508585105b156122045784866122019190613abb565b90505b6122178185670de0b6b3a7640000610a55565b915050949350505050565b60008083141561223457829050612348565b60008486116122615784670de0b6b3a7640000876122529190613ccd565b61225c9190613c9c565b612281565b85670de0b6b3a7640000866122769190613ccd565b6122809190613c9c565b5b905060006002670de0b6b3a7640000861161229c57856122a6565b670de0b6b3a76400005b6122b09190613c9c565b670de0b6b3a76400006122c39190613abb565b9050600081670de0b6b3a764000060026122dd9190613ccd565b6122e79190613abb565b9050600082670de0b6b3a76400006122ff9190613abb565b90506123416004876123119190613ccd565b612327838a88876123229190613abb565b610a55565b670de0b6b3a7640000600a61233c9190613ccd565b610a55565b9450505050505b949350505050565b600080604051806109e001604052807fffffffffffffffffffffffffffffffffffffffffffffffff7538dcfb7618000060080b81526020017fffffffffffffffffffffffffffffffffffffffffffffffff831993af1d7c000060080b81526020017fffffffffffffffffffffffffffffffffffffffffffffffff90fa4a62c4e0000060080b81526020017fffffffffffffffffffffffffffffffffffffffffffffffff9edb01166c44000060080b81526020017fffffffffffffffffffffffffffffffffffffffffffffffffacbbb7ca13a8000060080b81526020017fffffffffffffffffffffffffffffffffffffffffffffffffba9c6e7dbb0c000060080b81526020017fffffffffffffffffffffffffffffffffffffffffffffffffc18cc9d78ebe000060080b81526020017fffffffffffffffffffffffffffffffffffffffffffffffffc87d25316270000060080b81526020017fffffffffffffffffffffffffffffffffffffffffffffffffcf6d808b3622000060080b81526020017fffffffffffffffffffffffffffffffffffffffffffffffffd65ddbe509d4000060080b81526020017fffffffffffffffffffffffffffffffffffffffffffffffffd7c1215d675e000060080b81526020017fffffffffffffffffffffffffffffffffffffffffffffffffd92466d5c4e8000060080b81526020017fffffffffffffffffffffffffffffffffffffffffffffffffda87ac4e2272000060080b81526020017fffffffffffffffffffffffffffffffffffffffffffffffffdbeaf1c67ffc000060080b81526020017fffffffffffffffffffffffffffffffffffffffffffffffffdd4e373edd86000060080b81526020017fffffffffffffffffffffffffffffffffffffffffffffffffdeb17cb73b10000060080b81526020017fffffffffffffffffffffffffffffffffffffffffffffffffe014c22f989a000060080b81526020017fffffffffffffffffffffffffffffffffffffffffffffffffe17807a7f624000060080b81526020017fffffffffffffffffffffffffffffffffffffffffffffffffe2db4d2053ae000060080b81526020017fffffffffffffffffffffffffffffffffffffffffffffffffe43e9298b138000060080b81526020017fffffffffffffffffffffffffffffffffffffffffffffffffe5a1d8110ec2000060080b81526020017fffffffffffffffffffffffffffffffffffffffffffffffffe7051d896c4c000060080b81526020017fffffffffffffffffffffffffffffffffffffffffffffffffe8686301c9d6000060080b81526020017fffffffffffffffffffffffffffffffffffffffffffffffffe9cba87a2760000060080b81526020017fffffffffffffffffffffffffffffffffffffffffffffffffeb2eedf284ea000060080b81526020017fffffffffffffffffffffffffffffffffffffffffffffffffec92336ae274000060080b81526020017fffffffffffffffffffffffffffffffffffffffffffffffffedf578e33ffe000060080b81526020017fffffffffffffffffffffffffffffffffffffffffffffffffef58be5b9d88000060080b81526020017ffffffffffffffffffffffffffffffffffffffffffffffffff0bc03d3fb12000060080b81526020017ffffffffffffffffffffffffffffffffffffffffffffffffff21f494c589c000060080b81526020017ffffffffffffffffffffffffffffffffffffffffffffffffff3828ec4b626000060080b81526020017ffffffffffffffffffffffffffffffffffffffffffffffffff4e5d43d13b0000060080b81526020017ffffffffffffffffffffffffffffffffffffffffffffffffff64919b5713a000060080b81526020017ffffffffffffffffffffffffffffffffffffffffffffffffff7ac5f2dcec4000060080b81526020017ffffffffffffffffffffffffffffffffffffffffffffffffff90fa4a62c4e000060080b81526020017ffffffffffffffffffffffffffffffffffffffffffffffffffa72ea1e89d8000060080b81526020017ffffffffffffffffffffffffffffffffffffffffffffffffffbd62f96e762000060080b81526020017ffffffffffffffffffffffffffffffffffffffffffffffffffd39750f44ec000060080b81526020017ffffffffffffffffffffffffffffffffffffffffffffffffffe9cba87a276000060080b8152602001600060080b815260200167016345785d8a000060080b81526020016702c68af0bb14000060080b8152602001670429d069189e000060080b815260200167058d15e17628000060080b81526020016706f05b59d3b2000060080b8152602001670853a0d2313c000060080b81526020016709b6e64a8ec6000060080b8152602001670b1a2bc2ec50000060080b8152602001670c7d713b49da000060080b8152602001670de0b6b3a764000060080b8152602001670f43fc2c04ee000060080b81526020016710a741a46278000060080b815260200167120a871cc002000060080b815260200167136dcc951d8c000060080b81526020016714d1120d7b16000060080b81526020016716345785d8a0000060080b81526020016717979cfe362a000060080b81526020016718fae27693b4000060080b8152602001671a5e27eef13e000060080b8152602001671bc16d674ec8000060080b8152602001671d24b2dfac52000060080b8152602001671e87f85809dc000060080b8152602001671feb3dd06766000060080b815260200167214e8348c4f0000060080b81526020016722b1c8c1227a000060080b81526020016724150e398004000060080b815260200167257853b1dd8e000060080b81526020016726db992a3b18000060080b815260200167283edea298a2000060080b81526020016729a2241af62c000060080b81526020016730927f74c9de000060080b8152602001673782dace9d90000060080b8152602001673e7336287142000060080b8152602001674563918244f4000060080b81526020016753444835ec58000060080b8152602001676124fee993bc000060080b8152602001676f05b59d3b20000060080b8152602001677ce66c50e284000060080b8152602001678ac7230489e8000060080b81525090506000604051806109e00160405280600067ffffffffffffffff168152602001600167ffffffffffffffff1681526020016113bc67ffffffffffffffff168152602001628b628067ffffffffffffffff16815260200164016a269d6167ffffffffffffffff16815260200165015a2763786e67ffffffffffffffff168152602001650e898135fad967ffffffffffffffff1681526020016579b7c711221567ffffffffffffffff168152602001660319b3460a328067ffffffffffffffff168152602001660fbebe1e4abcda67ffffffffffffffff168152602001661525cbf4650d6a67ffffffffffffffff168152602001661c1f0fafd71f8267ffffffffffffffff168152602001662505c8f5d7564867ffffffffffffffff168152602001663041a3782b3c6067ffffffffffffffff168152602001663e45e57c6f79f467ffffffffffffffff168152602001664f8fb4e722c61467ffffffffffffffff1681526020016664a34a6e2091b067ffffffffffffffff168152602001667e07f44926b76867ffffffffffffffff168152602001669c42d8f65b8fc067ffffffffffffffff16815260200166bfd07f7c193d0467ffffffffffffffff16815260200166e91d3c634adc7867ffffffffffffffff1681526020016701187cc02c7c53f867ffffffffffffffff16815260200167014e21233880a8d867ffffffffffffffff16815260200167018a11e95542410067ffffffffffffffff1681526020016701cc239129d402a067ffffffffffffffff168152602001670213f05632568ce867ffffffffffffffff168152602001670260d2d396ab1a1867ffffffffffffffff1681526020016702b1e3302b9bdfc867ffffffffffffffff168152602001670305f76699921a5867ffffffffffffffff16815260200167035ba7178901e65867ffffffffffffffff1681526020016703b15320002fb3b867ffffffffffffffff16815260200167040530eeb0c78ef867ffffffffffffffff168152602001670455594c4a0b562867ffffffffffffffff16815260200167049fda02c5c94dc067ffffffffffffffff1681526020016704e2c98ca38496e067ffffffffffffffff16815260200167051c5bbdce29af7867ffffffffffffffff16815260200167054af6328e2fcfe067ffffffffffffffff16815260200167056d4342226b390067ffffffffffffffff168152602001670582423d210dbe2067ffffffffffffffff16815260200167058953e3ed3631a867ffffffffffffffff168152602001670582423d210dbe2067ffffffffffffffff16815260200167056d4342226b390067ffffffffffffffff16815260200167054af6328e2fcfe067ffffffffffffffff16815260200167051c5bbdce29af7867ffffffffffffffff1681526020016704e2c98ca38496e067ffffffffffffffff16815260200167049fda02c5c94dc067ffffffffffffffff168152602001670455594c4a0b562867ffffffffffffffff16815260200167040530eeb0c78ef867ffffffffffffffff1681526020016703b15320002fb3b867ffffffffffffffff16815260200167035ba7178901e65867ffffffffffffffff168152602001670305f76699921a5867ffffffffffffffff1681526020016702b1e3302b9bdfc867ffffffffffffffff168152602001670260d2d396ab1a1867ffffffffffffffff168152602001670213f05632568ce867ffffffffffffffff1681526020016701cc239129d402a067ffffffffffffffff16815260200167018a11e95542410067ffffffffffffffff16815260200167014e21233880a8d867ffffffffffffffff1681526020016701187cc02c7c53f867ffffffffffffffff16815260200166e91d3c634adc7867ffffffffffffffff16815260200166bfd07f7c193d0467ffffffffffffffff168152602001669c42d8f65b8fc067ffffffffffffffff168152602001667e07f44926b76867ffffffffffffffff1681526020016664a34a6e2091b067ffffffffffffffff168152602001664f8fb4e722c61467ffffffffffffffff168152602001663e45e57c6f79f467ffffffffffffffff168152602001663041a3782b3c6067ffffffffffffffff168152602001662505c8f5d7564867ffffffffffffffff168152602001661c1f0fafd71f8267ffffffffffffffff168152602001661525cbf4650d6a67ffffffffffffffff168152602001660fbebe1e4abcda67ffffffffffffffff168152602001660319b3460a328067ffffffffffffffff1681526020016579b7c711221567ffffffffffffffff168152602001650e898135fad967ffffffffffffffff16815260200165015a2763786e67ffffffffffffffff16815260200164016a269d6167ffffffffffffffff168152602001628b628067ffffffffffffffff1681526020016113bc67ffffffffffffffff168152602001600167ffffffffffffffff168152602001600067ffffffffffffffff168152509050600080604f9050600094505b858483604f8110613377576133766140b1565b5b602002015160080b12156133a4578180613390906140e0565b92505080821061339f576133a4565b613363565b808214156133dd57826001836133ba9190613abb565b604f81106133cb576133ca6140b1565b5b602002015167ffffffffffffffff1694505b6000821180156133ec57508082105b1561356657836001836133ff9190613abb565b604f81106134105761340f6140b1565b5b602002015160080b8483604f811061342b5761342a6140b1565b5b602002015160080b61343d9190613d27565b8460018461344b9190613abb565b604f811061345c5761345b6140b1565b5b602002015160080b8761346f9190613d27565b8484604f8110613482576134816140b1565b5b602002015167ffffffffffffffff1661349b9190613ccd565b6134a59190613c9c565b846001846134b39190613abb565b604f81106134c4576134c36140b1565b5b602002015160080b8584604f81106134df576134de6140b1565b5b602002015160080b6134f19190613d27565b878685604f8110613505576135046140b1565b5b602002015160080b6135179190613d27565b856001866135259190613abb565b604f8110613536576135356140b1565b5b602002015167ffffffffffffffff1661354f9190613ccd565b6135599190613c9c565b6135639190613e4f565b94505b50505050919050565b600080fd5b6000819050919050565b61358781613574565b811461359257600080fd5b50565b6000813590506135a48161357e565b92915050565b6000819050919050565b6135bd816135aa565b81146135c857600080fd5b50565b6000813590506135da816135b4565b92915050565b600080604083850312156135f7576135f661356f565b5b600061360585828601613595565b9250506020613616858286016135cb565b9150509250929050565b613629816135aa565b82525050565b60006020820190506136446000830184613620565b92915050565b600080604083850312156136615761366061356f565b5b600061366f858286016135cb565b9250506020613680858286016135cb565b9150509250929050565b6000806000606084860312156136a3576136a261356f565b5b60006136b1868287016135cb565b93505060206136c2868287016135cb565b92505060406136d3868287016135cb565b9150509250925092565b600281106136ea57600080fd5b50565b6000813590506136fc816136dd565b92915050565b600080600080600060a0868803121561371e5761371d61356f565b5b600061372c888289016135cb565b955050602061373d888289016135cb565b945050604061374e888289016135cb565b935050606061375f888289016136ed565b9250506080613770888289016135cb565b9150509295509295909350565b6002811061378a57600080fd5b50565b60008135905061379c8161377d565b92915050565b600080600080600060a086880312156137be576137bd61356f565b5b60006137cc888289016135cb565b95505060206137dd888289016136ed565b94505060406137ee8882890161378d565b93505060606137ff888289016135cb565b9250506080613810888289016135cb565b9150509295509295909350565b60008115159050919050565b6138328161381d565b811461383d57600080fd5b50565b60008135905061384f81613829565b92915050565b6000806000806080858703121561386f5761386e61356f565b5b600061387d878288016135cb565b945050602061388e87828801613840565b935050604061389f878288016135cb565b92505060606138b0878288016135cb565b91505092959194509250565b60008060008060008060c087890312156138d9576138d861356f565b5b60006138e789828a016135cb565b96505060206138f889828a016135cb565b955050604061390989828a016135cb565b945050606061391a89828a016135cb565b935050608061392b89828a016136ed565b92505060a061393c89828a0161378d565b9150509295509295509295565b600060408201905061395e6000830185613620565b61396b6020830184613620565b9392505050565b6000819050919050565b61398581613972565b811461399057600080fd5b50565b6000813590506139a28161397c565b92915050565b6000806000606084860312156139c1576139c061356f565b5b60006139cf86828701613993565b93505060206139e0868287016135cb565b92505060406139f1868287016135cb565b9150509250925092565b613a0481613972565b82525050565b6000602082019050613a1f60008301846139fb565b92915050565b60008060008060808587031215613a3f57613a3e61356f565b5b6000613a4d878288016135cb565b9450506020613a5e87828801613993565b9350506040613a6f878288016135cb565b9250506060613a80878288016135cb565b91505092959194509250565b7f4e487b7100000000000000000000000000000000000000000000000000000000600052601160045260246000fd5b6000613ac6826135aa565b9150613ad1836135aa565b925082821015613ae457613ae3613a8c565b5b828203905092915050565b60008160011c9050919050565b6000808291508390505b6001851115613b4657808604811115613b2257613b21613a8c565b5b6001851615613b315780820291505b8081029050613b3f85613aef565b9450613b06565b94509492505050565b600082613b5f5760019050613c1b565b81613b6d5760009050613c1b565b8160018114613b835760028114613b8d57613bbc565b6001915050613c1b565b60ff841115613b9f57613b9e613a8c565b5b8360020a915084821115613bb657613bb5613a8c565b5b50613c1b565b5060208310610133831016604e8410600b8410161715613bf15782820a905083811115613bec57613beb613a8c565b5b613c1b565b613bfe8484846001613afc565b92509050818404811115613c1557613c14613a8c565b5b81810290505b9392505050565b6000613c2d826135aa565b9150613c38836135aa565b9250613c657fffffffffffffffffffffffffffffffffffffffffffffffffffffffffffffffff8484613b4f565b905092915050565b7f4e487b7100000000000000000000000000000000000000000000000000000000600052601260045260246000fd5b6000613ca7826135aa565b9150613cb2836135aa565b925082613cc257613cc1613c6d565b5b828204905092915050565b6000613cd8826135aa565b9150613ce3836135aa565b9250817fffffffffffffffffffffffffffffffffffffffffffffffffffffffffffffffff0483118215151615613d1c57613d1b613a8c565b5b828202905092915050565b6000613d3282613972565b9150613d3d83613972565b9250827f800000000000000000000000000000000000000000000000000000000000000001821260008412151615613d7857613d77613a8c565b5b827f7fffffffffffffffffffffffffffffffffffffffffffffffffffffffffffffff018213600084121615613db057613daf613a8c565b5b828203905092915050565b6000613dc682613972565b9150613dd183613972565b9250817f7fffffffffffffffffffffffffffffffffffffffffffffffffffffffffffffff03831360008312151615613e0c57613e0b613a8c565b5b817f8000000000000000000000000000000000000000000000000000000000000000038312600083121615613e4457613e43613a8c565b5b828201905092915050565b6000613e5a826135aa565b9150613e65836135aa565b9250827fffffffffffffffffffffffffffffffffffffffffffffffffffffffffffffffff03821115613e9a57613e99613a8c565b5b828201905092915050565b7f4e487b7100000000000000000000000000000000000000000000000000000000600052602160045260246000fd5b6000613edf82613972565b91507f8000000000000000000000000000000000000000000000000000000000000000821415613f1257613f11613a8c565b5b816000039050919050565b6000613f2882613972565b9150613f3383613972565b9250827f7fffffffffffffffffffffffffffffffffffffffffffffffffffffffffffffff0482116000841360008413161615613f7257613f71613a8c565b5b817f80000000000000000000000000000000000000000000000000000000000000000583126000841260008413161615613faf57613fae613a8c565b5b827f80000000000000000000000000000000000000000000000000000000000000000582126000841360008412161615613fec57613feb613a8c565b5b827f7fffffffffffffffffffffffffffffffffffffffffffffffffffffffffffffff058212600084126000841216161561402957614028613a8c565b5b828202905092915050565b600082825260208201905092915050565b7f43617061636974792062726561636865642e0000000000000000000000000000600082015250565b600061407b601283614034565b915061408682614045565b602082019050919050565b600060208201905081810360008301526140aa8161406e565b9050919050565b7f4e487b7100000000000000000000000000000000000000000000000000000000600052603260045260246000fd5b60006140eb826135aa565b91507fffffffffffffffffffffffffffffffffffffffffffffffffffffffffffffffff82141561411e5761411d613a8c565b5b60018201905091905056fea2646970667358221220bf9d7d12046cbfe51ec52aadb3189b15ba53952741c44dca2932aff655f3be7f64736f6c634300080a0033",
  "immutableReferences": {},
  "source": "/**\n * SPDX-License-Identifier: GPL-3.0-or-later\n * Moret\n * Copyright (C) 2021 Moret\n*/\n\npragma solidity 0.8.10;\n\nimport \"./FullMath.sol\";\nimport \"prb-math/contracts/PRBMath.sol\";\n\nlibrary OptionLibrary {\n  using PRBMath for uint256;\n  enum PayoffType { Call, Put}\n  enum OptionSide{ Buy, Sell}\n  enum OptionStatus { Draft, Active, Exercised, Expired}\n  struct Option { PayoffType poType; OptionSide side; OptionStatus status; address holder; uint256 id; uint256 createTime; uint256 effectiveTime; uint256 tenor; uint256 maturity; uint256 exerciseTime; uint256 amount;uint256 spot;uint256 strike;uint256 volatility;uint256 premium;uint256 cost;}\n  struct Percent{ uint256 numerator; uint256 denominator;}\n  uint256 public constant DefaultMultiplier  = 10 ** 18;\n  uint256 public constant DefaultDecimals = 18;\n\n  function Multiplier() public pure returns (uint256){return DefaultMultiplier;}\n  function Decimals() public pure returns (uint256) {return DefaultDecimals;}\n  function ToDefaultDecimals(uint256 _rawData, uint256 _rawDataDecimals) public pure returns(uint256){\n    require(DefaultDecimals >= _rawDataDecimals);\n    return _rawData * (10** (DefaultDecimals - _rawDataDecimals));}\n  function ToCustomDecimals(uint256 _rawData, uint256 _rawDataDecimals) public pure returns(uint256){\n    require(DefaultDecimals >= _rawDataDecimals);\n    return _rawData / (10** (DefaultDecimals - _rawDataDecimals));}\n\n  function calcIntrinsicValue(uint256 _strike, uint256 _price, uint256 _amount, PayoffType _poType) private pure returns(uint256){\n      uint256 _intrinsicValue = 0;\n      if((_poType == PayoffType.Call) && (_price > _strike)){ _intrinsicValue = _price - _strike; }\n      if((_poType == PayoffType.Put) && (_price<_strike)){ _intrinsicValue = _strike - _price;}\n      return MulDiv(_intrinsicValue, _amount, DefaultMultiplier); }\n\n  function calcTimeValue(uint256 _strike, uint256 _price, uint256 _volatility, uint256 _amount) private pure returns (uint256){\n    if(_volatility == 0) return _volatility;\n    uint256 _moneyness = _strike > _price? (_price * DefaultMultiplier / _strike) : (_strike * DefaultMultiplier / _price); // always in (0,1]\n    uint256 _midPoint = DefaultMultiplier - (_volatility > DefaultMultiplier? DefaultMultiplier: _volatility) / 2 ; // always in [0.5, 1]\n    uint256 _a = 2 * DefaultMultiplier - _midPoint; // always in [1, 1.5]\n    uint256 _b = DefaultMultiplier - _midPoint; // always in [0, 0.5]\n    return MulDiv(_amount * 4, MulDiv(_b,  _volatility, _a - _moneyness), 10 * DefaultMultiplier);}\n\n  function calcPremium(uint256 _price, uint256 _volatility, uint256 _strike, PayoffType _poType, uint256 _amount) public pure returns(uint256){\n      uint256 _intrinsicValue = calcIntrinsicValue(_strike, _price, _amount, _poType);\n      uint256 _timeValue = MulDiv(calcTimeValue(_strike, _price, _volatility, _amount), _price, DefaultMultiplier);\n      return _intrinsicValue + _timeValue;}\n\n  function calcOptionCost(uint256 _price, uint256 _strike, uint256 _amount, uint256 _vol, PayoffType _poType, OptionSide _side) external pure returns(uint256 _premium, uint256 _cost) {\n    _premium = calcPremium(_price, _vol, _strike, _poType, _amount);\n    _cost = _premium;\n    if(_side == OptionSide.Sell && _poType == PayoffType.Put){ _cost = MulDiv(_amount, _strike, DefaultMultiplier) - _cost;}\n    if(_side == OptionSide.Sell && _poType == PayoffType.Call){ _cost = MulDiv(_amount, _price, DefaultMultiplier) - _cost;}}\n\n  function calcPayoff(Option storage _option, uint256 _price) public view returns(uint256){\n    return calcIntrinsicValue(_option.strike, _price, _option.amount, _option.poType);}\n\n  function calcNotionalExposure(Option storage _option, uint256 _price) public view returns(uint256){ \n    return MulDiv(_option.amount, _price, DefaultMultiplier);}\n\n  function calcDelta(uint256 _price, uint256 _strike, uint256 _vol) public pure returns(uint256 _delta){\n    uint256 _moneyness = MulDiv(_price, DefaultMultiplier, _strike);\n    int256 _d = int256(MulDiv(2 * DefaultMultiplier,  (_moneyness * DefaultMultiplier).sqrt(), _vol)) - int256(MulDiv(2 * DefaultMultiplier,  DefaultMultiplier, _vol)) + int256(_vol/ 2);\n    _delta = Logistic(_d);}\n  \n  function calcGamma(uint256 _price, uint256 _strike, uint256 _vol) public pure returns(uint256 _gamma){\n    uint256 _moneyness = MulDiv(_price, DefaultMultiplier, _strike);\n    int256 _d = int256(MulDiv(2 * DefaultMultiplier,  (_moneyness * DefaultMultiplier).sqrt(), _vol)) - int256(MulDiv(2 * DefaultMultiplier,  DefaultMultiplier, _vol)) + int256(_vol/ 2);\n    _gamma = MulDiv(MulDiv(NormalDensity(_d), DefaultMultiplier, _price), DefaultMultiplier, _vol);}\n\n  function adjustStrike(uint256 _strike, PayoffType _poType, OptionSide _side, uint256 _slippage, uint256 _loanInterest) external pure returns(uint256 _adjustedStrike){\n    _adjustedStrike = adjustSlippage(_strike, false, _slippage, 0); // downward\n    if((_poType==PayoffType.Put && _side == OptionSide.Buy) || (_poType==PayoffType.Call && _side == OptionSide.Sell)){ \n      _adjustedStrike = adjustSlippage(_strike,true, _slippage, _loanInterest);} //upward\n  }\n\n  function adjustSlippage(uint256 _amount, bool _adjustUpward, uint256 _slippage, uint256 _loanInterest) public pure returns (uint256 _adjustedAmount){\n    _adjustedAmount = _amount;\n    if(_adjustUpward) _adjustedAmount = MulDiv(_amount, DefaultMultiplier + _slippage + _loanInterest, DefaultMultiplier);\n    if(!_adjustUpward) _adjustedAmount = MulDiv(_amount, DefaultMultiplier, DefaultMultiplier + _slippage+ _loanInterest);}\n\n  function getOpposeTrade(int256 _amount, uint256 _price, uint256 _slippage) external pure returns (int256 _oppositeAmount){\n    _oppositeAmount = int256(MulDiv(adjustSlippage(_amount >=0 ? uint256(_amount): uint256(-_amount), _amount>0, _slippage, 0), _price, DefaultMultiplier)) * (_amount >=0? int256(-1): int256(1));}\n\n  function calcRiskPremiumAMM(uint256 _max, int256 _input, uint256 _constant, uint256 _volCapacityFactor) external pure returns(int256) {\n    int256 _capacity = int256(DefaultMultiplier); // capacity should be in (0,2)\n    if(_input < 0){_capacity +=  int256(MulDiv(uint256(-_input), _volCapacityFactor, _max));}\n    if(_input > 0){ _capacity -= int256(MulDiv(uint256(_input) , _volCapacityFactor, _max));}\n    require(_capacity>=0,\"Capacity breached.\");\n    return int256(MulDiv(_constant, DefaultMultiplier, uint256(_capacity))) - int256(_constant);}\n\n}\n",
  "sourcePath": "/Users/apple/Documents/GitHub/moret/contracts/OptionLibrary.sol",
  "compiler": {
    "name": "solc",
    "version": "0.8.10+commit.fc410830.Emscripten.clang"
  },
  "schemaVersion": "3.4.3",
  "updatedAt": "2021-12-08T23:52:57.658Z",
  "networkType": "ethereum",
  "devdoc": {
    "kind": "dev",
    "methods": {},
    "version": 1
  },
  "userdoc": {
    "kind": "user",
    "methods": {},
    "version": 1
  }
}