{
  "contractName": "OptionVault",
  "abi": [
    {
      "inputs": [
        {
          "internalType": "contract VolatilityChain",
          "name": "_volChain",
          "type": "address"
        },
        {
          "internalType": "contract ERC20",
          "name": "_underlying",
          "type": "address"
        },
        {
          "internalType": "contract ERC20",
          "name": "_funding",
          "type": "address"
        },
        {
          "internalType": "contract ILendingPoolAddressesProvider",
          "name": "_aaveAddress",
          "type": "address"
        }
      ],
      "stateMutability": "nonpayable",
      "type": "constructor"
    },
    {
      "anonymous": false,
      "inputs": [
        {
          "indexed": true,
          "internalType": "address",
          "name": "_purchaser",
          "type": "address"
        },
        {
          "components": [
            {
              "internalType": "enum OptionLibrary.PayoffType",
              "name": "poType",
              "type": "uint8"
            },
            {
              "internalType": "enum OptionLibrary.OptionSide",
              "name": "side",
              "type": "uint8"
            },
            {
              "internalType": "enum OptionLibrary.OptionStatus",
              "name": "status",
              "type": "uint8"
            },
            {
              "internalType": "address",
              "name": "holder",
              "type": "address"
            },
            {
              "internalType": "uint256",
              "name": "id",
              "type": "uint256"
            },
            {
              "internalType": "uint256",
              "name": "createTime",
              "type": "uint256"
            },
            {
              "internalType": "uint256",
              "name": "effectiveTime",
              "type": "uint256"
            },
            {
              "internalType": "uint256",
              "name": "tenor",
              "type": "uint256"
            },
            {
              "internalType": "uint256",
              "name": "maturity",
              "type": "uint256"
            },
            {
              "internalType": "uint256",
              "name": "exerciseTime",
              "type": "uint256"
            },
            {
              "internalType": "uint256",
              "name": "amount",
              "type": "uint256"
            },
            {
              "internalType": "uint256",
              "name": "spot",
              "type": "uint256"
            },
            {
              "internalType": "uint256",
              "name": "strike",
              "type": "uint256"
            },
            {
              "internalType": "uint256",
              "name": "volatility",
              "type": "uint256"
            },
            {
              "internalType": "uint256",
              "name": "premium",
              "type": "uint256"
            },
            {
              "internalType": "uint256",
              "name": "cost",
              "type": "uint256"
            }
          ],
          "indexed": false,
          "internalType": "struct OptionLibrary.Option",
          "name": "_option",
          "type": "tuple"
        },
        {
          "indexed": false,
          "internalType": "uint256",
          "name": "_payoff",
          "type": "uint256"
        }
      ],
      "name": "Expire",
      "type": "event"
    },
    {
      "anonymous": false,
      "inputs": [
        {
          "indexed": true,
          "internalType": "address",
          "name": "_purchaser",
          "type": "address"
        },
        {
          "components": [
            {
              "internalType": "enum OptionLibrary.PayoffType",
              "name": "poType",
              "type": "uint8"
            },
            {
              "internalType": "enum OptionLibrary.OptionSide",
              "name": "side",
              "type": "uint8"
            },
            {
              "internalType": "enum OptionLibrary.OptionStatus",
              "name": "status",
              "type": "uint8"
            },
            {
              "internalType": "address",
              "name": "holder",
              "type": "address"
            },
            {
              "internalType": "uint256",
              "name": "id",
              "type": "uint256"
            },
            {
              "internalType": "uint256",
              "name": "createTime",
              "type": "uint256"
            },
            {
              "internalType": "uint256",
              "name": "effectiveTime",
              "type": "uint256"
            },
            {
              "internalType": "uint256",
              "name": "tenor",
              "type": "uint256"
            },
            {
              "internalType": "uint256",
              "name": "maturity",
              "type": "uint256"
            },
            {
              "internalType": "uint256",
              "name": "exerciseTime",
              "type": "uint256"
            },
            {
              "internalType": "uint256",
              "name": "amount",
              "type": "uint256"
            },
            {
              "internalType": "uint256",
              "name": "spot",
              "type": "uint256"
            },
            {
              "internalType": "uint256",
              "name": "strike",
              "type": "uint256"
            },
            {
              "internalType": "uint256",
              "name": "volatility",
              "type": "uint256"
            },
            {
              "internalType": "uint256",
              "name": "premium",
              "type": "uint256"
            },
            {
              "internalType": "uint256",
              "name": "cost",
              "type": "uint256"
            }
          ],
          "indexed": false,
          "internalType": "struct OptionLibrary.Option",
          "name": "_option",
          "type": "tuple"
        },
        {
          "indexed": false,
          "internalType": "uint256",
          "name": "_cost",
          "type": "uint256"
        },
        {
          "indexed": false,
          "internalType": "bool",
          "name": "_inVol",
          "type": "bool"
        }
      ],
      "name": "NewOption",
      "type": "event"
    },
    {
      "anonymous": false,
      "inputs": [
        {
          "indexed": true,
          "internalType": "uint256",
          "name": "_addressId",
          "type": "uint256"
        },
        {
          "indexed": false,
          "internalType": "address",
          "name": "_address",
          "type": "address"
        }
      ],
      "name": "ResetAddress",
      "type": "event"
    },
    {
      "anonymous": false,
      "inputs": [
        {
          "indexed": true,
          "internalType": "uint256",
          "name": "_parameterId",
          "type": "uint256"
        },
        {
          "indexed": false,
          "internalType": "uint256",
          "name": "_parameter",
          "type": "uint256"
        }
      ],
      "name": "ResetParameter",
      "type": "event"
    },
    {
      "anonymous": false,
      "inputs": [
        {
          "indexed": false,
          "internalType": "bool",
          "name": "success",
          "type": "bool"
        },
        {
          "indexed": false,
          "internalType": "bytes",
          "name": "data",
          "type": "bytes"
        }
      ],
      "name": "Response",
      "type": "event"
    },
    {
      "anonymous": false,
      "inputs": [
        {
          "indexed": true,
          "internalType": "bytes32",
          "name": "role",
          "type": "bytes32"
        },
        {
          "indexed": true,
          "internalType": "bytes32",
          "name": "previousAdminRole",
          "type": "bytes32"
        },
        {
          "indexed": true,
          "internalType": "bytes32",
          "name": "newAdminRole",
          "type": "bytes32"
        }
      ],
      "name": "RoleAdminChanged",
      "type": "event"
    },
    {
      "anonymous": false,
      "inputs": [
        {
          "indexed": true,
          "internalType": "bytes32",
          "name": "role",
          "type": "bytes32"
        },
        {
          "indexed": true,
          "internalType": "address",
          "name": "account",
          "type": "address"
        },
        {
          "indexed": true,
          "internalType": "address",
          "name": "sender",
          "type": "address"
        }
      ],
      "name": "RoleGranted",
      "type": "event"
    },
    {
      "anonymous": false,
      "inputs": [
        {
          "indexed": true,
          "internalType": "bytes32",
          "name": "role",
          "type": "bytes32"
        },
        {
          "indexed": true,
          "internalType": "address",
          "name": "account",
          "type": "address"
        },
        {
          "indexed": true,
          "internalType": "address",
          "name": "sender",
          "type": "address"
        }
      ],
      "name": "RoleRevoked",
      "type": "event"
    },
    {
      "anonymous": false,
      "inputs": [
        {
          "indexed": true,
          "internalType": "uint256",
          "name": "_id",
          "type": "uint256"
        },
        {
          "indexed": false,
          "internalType": "uint256",
          "name": "_timestamp",
          "type": "uint256"
        }
      ],
      "name": "StampExpire",
      "type": "event"
    },
    {
      "anonymous": false,
      "inputs": [
        {
          "indexed": true,
          "internalType": "uint256",
          "name": "_id",
          "type": "uint256"
        },
        {
          "indexed": false,
          "internalType": "uint256",
          "name": "_timestamp",
          "type": "uint256"
        }
      ],
      "name": "StampNewOption",
      "type": "event"
    },
    {
      "anonymous": false,
      "inputs": [
        {
          "indexed": true,
          "internalType": "uint256",
          "name": "_tenor",
          "type": "uint256"
        },
        {
          "indexed": false,
          "internalType": "address",
          "name": "_tokenAddress",
          "type": "address"
        }
      ],
      "name": "VolTokenAddition",
      "type": "event"
    },
    {
      "anonymous": false,
      "inputs": [
        {
          "indexed": true,
          "internalType": "uint256",
          "name": "_tenor",
          "type": "uint256"
        }
      ],
      "name": "VolTokenRemoved",
      "type": "event"
    },
    {
      "inputs": [],
      "name": "DEFAULT_ADMIN_ROLE",
      "outputs": [
        {
          "internalType": "bytes32",
          "name": "",
          "type": "bytes32"
        }
      ],
      "stateMutability": "view",
      "type": "function",
      "constant": true
    },
    {
      "inputs": [],
      "name": "EXCHANGE_ROLE",
      "outputs": [
        {
          "internalType": "bytes32",
          "name": "",
          "type": "bytes32"
        }
      ],
      "stateMutability": "view",
      "type": "function",
      "constant": true
    },
    {
      "inputs": [],
      "name": "aaveAddress",
      "outputs": [
        {
          "internalType": "contract ILendingPoolAddressesProvider",
          "name": "",
          "type": "address"
        }
      ],
      "stateMutability": "view",
      "type": "function",
      "constant": true
    },
    {
      "inputs": [],
      "name": "activeContractCount",
      "outputs": [
        {
          "internalType": "uint256",
          "name": "",
          "type": "uint256"
        }
      ],
      "stateMutability": "view",
      "type": "function",
      "constant": true
    },
    {
      "inputs": [],
      "name": "deltaAtMax",
      "outputs": [
        {
          "internalType": "uint256",
          "name": "",
          "type": "uint256"
        }
      ],
      "stateMutability": "view",
      "type": "function",
      "constant": true
    },
    {
      "inputs": [],
      "name": "deltaAtZero",
      "outputs": [
        {
          "internalType": "uint256",
          "name": "",
          "type": "uint256"
        }
      ],
      "stateMutability": "view",
      "type": "function",
      "constant": true
    },
    {
      "inputs": [],
      "name": "funding",
      "outputs": [
        {
          "internalType": "contract ERC20",
          "name": "",
          "type": "address"
        }
      ],
      "stateMutability": "view",
      "type": "function",
      "constant": true
    },
    {
      "inputs": [
        {
          "internalType": "bytes32",
          "name": "role",
          "type": "bytes32"
        }
      ],
      "name": "getRoleAdmin",
      "outputs": [
        {
          "internalType": "bytes32",
          "name": "",
          "type": "bytes32"
        }
      ],
      "stateMutability": "view",
      "type": "function",
      "constant": true
    },
    {
      "inputs": [
        {
          "internalType": "bytes32",
          "name": "role",
          "type": "bytes32"
        },
        {
          "internalType": "address",
          "name": "account",
          "type": "address"
        }
      ],
      "name": "grantRole",
      "outputs": [],
      "stateMutability": "nonpayable",
      "type": "function"
    },
    {
      "inputs": [
        {
          "internalType": "bytes32",
          "name": "role",
          "type": "bytes32"
        },
        {
          "internalType": "address",
          "name": "account",
          "type": "address"
        }
      ],
      "name": "hasRole",
      "outputs": [
        {
          "internalType": "bool",
          "name": "",
          "type": "bool"
        }
      ],
      "stateMutability": "view",
      "type": "function",
      "constant": true
    },
    {
      "inputs": [],
      "name": "overCollateral",
      "outputs": [
        {
          "internalType": "uint256",
          "name": "",
          "type": "uint256"
        }
      ],
      "stateMutability": "view",
      "type": "function",
      "constant": true
    },
    {
      "inputs": [
        {
          "internalType": "bytes32",
          "name": "role",
          "type": "bytes32"
        },
        {
          "internalType": "address",
          "name": "account",
          "type": "address"
        }
      ],
      "name": "renounceRole",
      "outputs": [],
      "stateMutability": "nonpayable",
      "type": "function"
    },
    {
      "inputs": [
        {
          "internalType": "bytes32",
          "name": "role",
          "type": "bytes32"
        },
        {
          "internalType": "address",
          "name": "account",
          "type": "address"
        }
      ],
      "name": "revokeRole",
      "outputs": [],
      "stateMutability": "nonpayable",
      "type": "function"
    },
    {
      "inputs": [],
      "name": "sellPutCollaterals",
      "outputs": [
        {
          "internalType": "uint256",
          "name": "",
          "type": "uint256"
        }
      ],
      "stateMutability": "view",
      "type": "function",
      "constant": true
    },
    {
      "inputs": [
        {
          "internalType": "bytes4",
          "name": "interfaceId",
          "type": "bytes4"
        }
      ],
      "name": "supportsInterface",
      "outputs": [
        {
          "internalType": "bool",
          "name": "",
          "type": "bool"
        }
      ],
      "stateMutability": "view",
      "type": "function",
      "constant": true
    },
    {
      "inputs": [],
      "name": "underlying",
      "outputs": [
        {
          "internalType": "contract ERC20",
          "name": "",
          "type": "address"
        }
      ],
      "stateMutability": "view",
      "type": "function",
      "constant": true
    },
    {
      "inputs": [
        {
          "internalType": "uint256",
          "name": "_tenor",
          "type": "uint256"
        },
        {
          "internalType": "uint256",
          "name": "_strike",
          "type": "uint256"
        },
        {
          "internalType": "uint256",
          "name": "_amount",
          "type": "uint256"
        },
        {
          "internalType": "enum OptionLibrary.PayoffType",
          "name": "_poType",
          "type": "uint8"
        },
        {
          "internalType": "enum OptionLibrary.OptionSide",
          "name": "_side",
          "type": "uint8"
        },
        {
          "internalType": "uint256",
          "name": "_premium",
          "type": "uint256"
        },
        {
          "internalType": "uint256",
          "name": "_cost",
          "type": "uint256"
        },
        {
          "internalType": "uint256",
          "name": "_price",
          "type": "uint256"
        },
        {
          "internalType": "uint256",
          "name": "_volatility",
          "type": "uint256"
        },
        {
          "internalType": "address",
          "name": "_holder",
          "type": "address"
        }
      ],
      "name": "addOption",
      "outputs": [
        {
          "internalType": "uint256",
          "name": "_id",
          "type": "uint256"
        }
      ],
      "stateMutability": "nonpayable",
      "type": "function"
    },
    {
      "inputs": [
        {
          "internalType": "address",
          "name": "_address",
          "type": "address"
        }
      ],
      "name": "getHoldersOptionCount",
      "outputs": [
        {
          "internalType": "uint256",
          "name": "",
          "type": "uint256"
        }
      ],
      "stateMutability": "view",
      "type": "function",
      "constant": true
    },
    {
      "inputs": [
        {
          "internalType": "uint256",
          "name": "_index",
          "type": "uint256"
        },
        {
          "internalType": "address",
          "name": "_address",
          "type": "address"
        }
      ],
      "name": "getHoldersOption",
      "outputs": [
        {
          "components": [
            {
              "internalType": "enum OptionLibrary.PayoffType",
              "name": "poType",
              "type": "uint8"
            },
            {
              "internalType": "enum OptionLibrary.OptionSide",
              "name": "side",
              "type": "uint8"
            },
            {
              "internalType": "enum OptionLibrary.OptionStatus",
              "name": "status",
              "type": "uint8"
            },
            {
              "internalType": "address",
              "name": "holder",
              "type": "address"
            },
            {
              "internalType": "uint256",
              "name": "id",
              "type": "uint256"
            },
            {
              "internalType": "uint256",
              "name": "createTime",
              "type": "uint256"
            },
            {
              "internalType": "uint256",
              "name": "effectiveTime",
              "type": "uint256"
            },
            {
              "internalType": "uint256",
              "name": "tenor",
              "type": "uint256"
            },
            {
              "internalType": "uint256",
              "name": "maturity",
              "type": "uint256"
            },
            {
              "internalType": "uint256",
              "name": "exerciseTime",
              "type": "uint256"
            },
            {
              "internalType": "uint256",
              "name": "amount",
              "type": "uint256"
            },
            {
              "internalType": "uint256",
              "name": "spot",
              "type": "uint256"
            },
            {
              "internalType": "uint256",
              "name": "strike",
              "type": "uint256"
            },
            {
              "internalType": "uint256",
              "name": "volatility",
              "type": "uint256"
            },
            {
              "internalType": "uint256",
              "name": "premium",
              "type": "uint256"
            },
            {
              "internalType": "uint256",
              "name": "cost",
              "type": "uint256"
            }
          ],
          "internalType": "struct OptionLibrary.Option",
          "name": "",
          "type": "tuple"
        }
      ],
      "stateMutability": "view",
      "type": "function",
      "constant": true
    },
    {
      "inputs": [
        {
          "internalType": "uint256",
          "name": "_id",
          "type": "uint256"
        }
      ],
      "name": "getOption",
      "outputs": [
        {
          "components": [
            {
              "internalType": "enum OptionLibrary.PayoffType",
              "name": "poType",
              "type": "uint8"
            },
            {
              "internalType": "enum OptionLibrary.OptionSide",
              "name": "side",
              "type": "uint8"
            },
            {
              "internalType": "enum OptionLibrary.OptionStatus",
              "name": "status",
              "type": "uint8"
            },
            {
              "internalType": "address",
              "name": "holder",
              "type": "address"
            },
            {
              "internalType": "uint256",
              "name": "id",
              "type": "uint256"
            },
            {
              "internalType": "uint256",
              "name": "createTime",
              "type": "uint256"
            },
            {
              "internalType": "uint256",
              "name": "effectiveTime",
              "type": "uint256"
            },
            {
              "internalType": "uint256",
              "name": "tenor",
              "type": "uint256"
            },
            {
              "internalType": "uint256",
              "name": "maturity",
              "type": "uint256"
            },
            {
              "internalType": "uint256",
              "name": "exerciseTime",
              "type": "uint256"
            },
            {
              "internalType": "uint256",
              "name": "amount",
              "type": "uint256"
            },
            {
              "internalType": "uint256",
              "name": "spot",
              "type": "uint256"
            },
            {
              "internalType": "uint256",
              "name": "strike",
              "type": "uint256"
            },
            {
              "internalType": "uint256",
              "name": "volatility",
              "type": "uint256"
            },
            {
              "internalType": "uint256",
              "name": "premium",
              "type": "uint256"
            },
            {
              "internalType": "uint256",
              "name": "cost",
              "type": "uint256"
            }
          ],
          "internalType": "struct OptionLibrary.Option",
          "name": "",
          "type": "tuple"
        }
      ],
      "stateMutability": "view",
      "type": "function",
      "constant": true
    },
    {
      "inputs": [
        {
          "internalType": "address",
          "name": "_address",
          "type": "address"
        }
      ],
      "name": "getGrossCapital",
      "outputs": [
        {
          "internalType": "uint256",
          "name": "_capital",
          "type": "uint256"
        }
      ],
      "stateMutability": "view",
      "type": "function",
      "constant": true
    },
    {
      "inputs": [],
      "name": "getMaxHedge",
      "outputs": [
        {
          "internalType": "uint256",
          "name": "",
          "type": "uint256"
        }
      ],
      "stateMutability": "view",
      "type": "function",
      "constant": true
    },
    {
      "inputs": [
        {
          "internalType": "uint256",
          "name": "_id",
          "type": "uint256"
        }
      ],
      "name": "getContractPayoff",
      "outputs": [
        {
          "internalType": "uint256",
          "name": "_payoff",
          "type": "uint256"
        },
        {
          "internalType": "uint256",
          "name": "_payback",
          "type": "uint256"
        }
      ],
      "stateMutability": "view",
      "type": "function",
      "constant": true
    },
    {
      "inputs": [
        {
          "internalType": "uint256",
          "name": "_price",
          "type": "uint256"
        },
        {
          "internalType": "bool",
          "name": "_includeExpiring",
          "type": "bool"
        }
      ],
      "name": "calculateAggregateDelta",
      "outputs": [
        {
          "internalType": "int256",
          "name": "_delta",
          "type": "int256"
        }
      ],
      "stateMutability": "view",
      "type": "function",
      "constant": true
    },
    {
      "inputs": [
        {
          "internalType": "uint256",
          "name": "_id",
          "type": "uint256"
        },
        {
          "internalType": "uint256",
          "name": "_price",
          "type": "uint256"
        }
      ],
      "name": "calculateContractGamma",
      "outputs": [
        {
          "internalType": "int256",
          "name": "_gamma",
          "type": "int256"
        }
      ],
      "stateMutability": "view",
      "type": "function",
      "constant": true
    },
    {
      "inputs": [],
      "name": "calculateAggregateGamma",
      "outputs": [
        {
          "internalType": "int256",
          "name": "_gamma",
          "type": "int256"
        }
      ],
      "stateMutability": "view",
      "type": "function",
      "constant": true
    },
    {
      "inputs": [],
      "name": "calculateSpotGamma",
      "outputs": [
        {
          "internalType": "int256",
          "name": "_gamma",
          "type": "int256"
        }
      ],
      "stateMutability": "view",
      "type": "function",
      "constant": true
    },
    {
      "inputs": [],
      "name": "anyOptionExpiring",
      "outputs": [
        {
          "internalType": "bool",
          "name": "_isExpiring",
          "type": "bool"
        }
      ],
      "stateMutability": "view",
      "type": "function",
      "constant": true
    },
    {
      "inputs": [],
      "name": "getExpiringOptionId",
      "outputs": [
        {
          "internalType": "uint256",
          "name": "_id",
          "type": "uint256"
        }
      ],
      "stateMutability": "view",
      "type": "function",
      "constant": true
    },
    {
      "inputs": [
        {
          "internalType": "uint256",
          "name": "_id",
          "type": "uint256"
        },
        {
          "internalType": "address",
          "name": "_holder",
          "type": "address"
        }
      ],
      "name": "stampActiveOption",
      "outputs": [],
      "stateMutability": "nonpayable",
      "type": "function"
    },
    {
      "inputs": [
        {
          "internalType": "uint256",
          "name": "_id",
          "type": "uint256"
        }
      ],
      "name": "stampExpiredOption",
      "outputs": [],
      "stateMutability": "nonpayable",
      "type": "function"
    },
    {
      "inputs": [
        {
          "internalType": "address",
          "name": "_address",
          "type": "address"
        },
        {
          "internalType": "uint256",
          "name": "_swapSlippage",
          "type": "uint256"
        }
      ],
      "name": "calcSwapTradesInTok",
      "outputs": [
        {
          "internalType": "int256",
          "name": "_tradeUnderlyingAmount",
          "type": "int256"
        },
        {
          "internalType": "int256",
          "name": "_tradeFundingAmount",
          "type": "int256"
        }
      ],
      "stateMutability": "view",
      "type": "function",
      "constant": true
    },
    {
      "inputs": [
        {
          "internalType": "address",
          "name": "_address",
          "type": "address"
        }
      ],
      "name": "getBalances",
      "outputs": [
        {
          "internalType": "uint256",
          "name": "_underlyingBalance",
          "type": "uint256"
        },
        {
          "internalType": "uint256",
          "name": "_fundingBalance",
          "type": "uint256"
        },
        {
          "internalType": "uint256",
          "name": "_collateralBalance",
          "type": "uint256"
        },
        {
          "internalType": "uint256",
          "name": "_debtBalance",
          "type": "uint256"
        }
      ],
      "stateMutability": "view",
      "type": "function",
      "constant": true
    },
    {
      "inputs": [
        {
          "internalType": "address",
          "name": "_address",
          "type": "address"
        },
        {
          "internalType": "uint256",
          "name": "_lendingPoolRateMode",
          "type": "uint256"
        }
      ],
      "name": "calcLoanRepaymentInTok",
      "outputs": [
        {
          "internalType": "uint256",
          "name": "_repayAmount",
          "type": "uint256"
        },
        {
          "internalType": "uint256",
          "name": "_repaySwapValue",
          "type": "uint256"
        }
      ],
      "stateMutability": "view",
      "type": "function",
      "constant": true
    },
    {
      "inputs": [
        {
          "internalType": "address",
          "name": "_address",
          "type": "address"
        },
        {
          "internalType": "uint256",
          "name": "_lendingPoolRateMode",
          "type": "uint256"
        }
      ],
      "name": "calcLoanTradesInTok",
      "outputs": [
        {
          "internalType": "int256",
          "name": "_loanTradeAmount",
          "type": "int256"
        },
        {
          "internalType": "int256",
          "name": "_collateralChange",
          "type": "int256"
        },
        {
          "internalType": "address",
          "name": "_loanAddress",
          "type": "address"
        },
        {
          "internalType": "address",
          "name": "_collateralAddress",
          "type": "address"
        }
      ],
      "stateMutability": "view",
      "type": "function",
      "constant": true
    },
    {
      "inputs": [
        {
          "internalType": "uint256",
          "name": "_tenor",
          "type": "uint256"
        }
      ],
      "name": "queryVol",
      "outputs": [
        {
          "internalType": "uint256",
          "name": "",
          "type": "uint256"
        }
      ],
      "stateMutability": "view",
      "type": "function",
      "constant": true
    },
    {
      "inputs": [],
      "name": "queryPrice",
      "outputs": [
        {
          "internalType": "uint256",
          "name": "",
          "type": "uint256"
        },
        {
          "internalType": "uint256",
          "name": "",
          "type": "uint256"
        }
      ],
      "stateMutability": "view",
      "type": "function",
      "constant": true
    },
    {
      "inputs": [],
      "name": "tokenHash",
      "outputs": [
        {
          "internalType": "bytes32",
          "name": "",
          "type": "bytes32"
        }
      ],
      "stateMutability": "view",
      "type": "function",
      "constant": true
    },
    {
      "inputs": [
        {
          "internalType": "uint256",
          "name": "_overCollateral",
          "type": "uint256"
        }
      ],
      "name": "resetOverCollateral",
      "outputs": [],
      "stateMutability": "nonpayable",
      "type": "function"
    }
  ],
  "bytecode": "0x61014060405267016345785d8a000060055560006006556000600755600060085560006009553480156200003257600080fd5b5060405162005dae38038062005dae8339818101604052810190620000589190620004f4565b6200006d6000801b336200027360201b60201c565b6200009f7f28d62fc77014de57a1bbaa8212ff0979fa61ab00d377b4b8d9762048fb419961336200027360201b60201c565b8373ffffffffffffffffffffffffffffffffffffffff1660808173ffffffffffffffffffffffffffffffffffffffff16815250508173ffffffffffffffffffffffffffffffffffffffff1660e08173ffffffffffffffffffffffffffffffffffffffff16815250508273ffffffffffffffffffffffffffffffffffffffff1660c08173ffffffffffffffffffffffffffffffffffffffff16815250508073ffffffffffffffffffffffffffffffffffffffff1660a08173ffffffffffffffffffffffffffffffffffffffff16815250508173ffffffffffffffffffffffffffffffffffffffff1663313ce5676040518163ffffffff1660e01b8152600401602060405180830381865afa158015620001bb573d6000803e3d6000fd5b505050506040513d601f19601f82011682018060405250810190620001e19190620005a4565b60ff1661010081815250508273ffffffffffffffffffffffffffffffffffffffff1663313ce5676040518163ffffffff1660e01b8152600401602060405180830381865afa15801562000238573d6000803e3d6000fd5b505050506040513d601f19601f820116820180604052508101906200025e9190620005a4565b60ff16610120818152505050505050620005d6565b6200028582826200028960201b60201c565b5050565b6200029b82826200037a60201b60201c565b6200037657600160008084815260200190815260200160002060000160008373ffffffffffffffffffffffffffffffffffffffff1673ffffffffffffffffffffffffffffffffffffffff16815260200190815260200160002060006101000a81548160ff0219169083151502179055506200031b620003e460201b60201c565b73ffffffffffffffffffffffffffffffffffffffff168173ffffffffffffffffffffffffffffffffffffffff16837f2f8788117e7eff1d82e926ec794901d17c78024a50270940304540a733656f0d60405160405180910390a45b5050565b600080600084815260200190815260200160002060000160008373ffffffffffffffffffffffffffffffffffffffff1673ffffffffffffffffffffffffffffffffffffffff16815260200190815260200160002060009054906101000a900460ff16905092915050565b600033905090565b600080fd5b600073ffffffffffffffffffffffffffffffffffffffff82169050919050565b60006200041e82620003f1565b9050919050565b6000620004328262000411565b9050919050565b620004448162000425565b81146200045057600080fd5b50565b600081519050620004648162000439565b92915050565b6000620004778262000411565b9050919050565b62000489816200046a565b81146200049557600080fd5b50565b600081519050620004a9816200047e565b92915050565b6000620004bc8262000411565b9050919050565b620004ce81620004af565b8114620004da57600080fd5b50565b600081519050620004ee81620004c3565b92915050565b60008060008060808587031215620005115762000510620003ec565b5b6000620005218782880162000453565b9450506020620005348782880162000498565b9350506040620005478782880162000498565b92505060606200055a87828801620004dd565b91505092959194509250565b600060ff82169050919050565b6200057e8162000566565b81146200058a57600080fd5b50565b6000815190506200059e8162000573565b92915050565b600060208284031215620005bd57620005bc620003ec565b5b6000620005cd848285016200058d565b91505092915050565b60805160a05160c05160e05161010051610120516156d2620006dc60003960008181612b86015281816133c2015261359e015260008181612aea0152613502015260008181610fd40152818161304901526130da015260008181610f2401528181610ff501528181611ac9015281816128fb015281816129a801528181612fa30152613328015260008181610d7501528181610e6d015281816128620152612eed015260008181610dca0152818161130e015281816114e101528181611af001528181611cc60152818161200d015281816122eb0152818161257f0152818161270a015281816127a50152818161310001528181613196015261326b01526156d26000f3fe608060405234801561001057600080fd5b506004361061023d5760003560e01c806385ae10e61161013b578063b4f8fe49116100b8578063cca494731161007c578063cca4947314610739578063cfc2dc2014610757578063d19f503214610787578063d547741f146107a5578063ec539828146107c15761023d565b8063b4f8fe4914610669578063b5310ff91461069a578063c45b1d85146106ca578063c84aae17146106e8578063cb4c86b71461071b5761023d565b806391d14854116100ff57806391d14854146105ae5780639bc67cd2146105de578063a217fddf146105fc578063a42b66261461061a578063b0667cf81461064a5761023d565b806385ae10e6146104cf5780638a0687d2146105005780638b83b6b6146105305780638e82c9f11461056057806390618ed9146105905761023d565b8063448ba42f116101c95780636940c8171161018d5780636940c817146104395780636f307dc3146104575780636fe44031146104755780637652e7c41461049357806380d600b5146104b15761023d565b8063448ba42f146103955780634aa2913e146103b35780634b3ba340146103cf5780634d1dc7d8146103ff578063637baf601461041d5761023d565b8063251e1e8a11610210578063251e1e8a146102ee5780632f2ff15d1461030c578063305868da1461032857806336568abe1461035b5780633b734501146103775761023d565b806301ffc9a7146102425780631ce5e9a614610272578063248a9ca3146102a257806324b4110e146102d2575b600080fd5b61025c60048036038101906102579190613f3e565b6107f2565b6040516102699190613f86565b60405180910390f35b61028c60048036038101906102879190613fd7565b61086c565b60405161029991906142a5565b60405180910390f35b6102bc60048036038101906102b791906142f7565b610a39565b6040516102c99190614333565b60405180910390f35b6102ec60048036038101906102e7919061437a565b610a58565b005b6102f6610d73565b6040516103039190614419565b60405180910390f35b61032660048036038101906103219190614434565b610d97565b005b610342600480360381019061033d9190614474565b610dc0565b60405161035294939291906144dc565b60405180910390f35b61037560048036038101906103709190614434565b611262565b005b61037f6112e5565b60405161038c9190614333565b60405180910390f35b61039d611309565b6040516103aa9190614530565b60405180910390f35b6103cd60048036038101906103c89190613fd7565b61142c565b005b6103e960048036038101906103e4919061454b565b61144c565b6040516103f6919061458b565b60405180910390f35b610407611769565b6040516104149190614530565b60405180910390f35b61043760048036038101906104329190613fd7565b61176f565b005b610441611ac1565b60405161044e9190614530565b60405180910390f35b61045f611ac7565b60405161046c91906145c7565b60405180910390f35b61047d611aeb565b60405161048a919061458b565b60405180910390f35b61049b611bd2565b6040516104a89190614530565b60405180910390f35b6104b9611cb9565b6040516104c69190614530565b60405180910390f35b6104e960048036038101906104e49190613fd7565b611cbf565b6040516104f79291906145e2565b60405180910390f35b61051a6004803603810190610515919061437a565b611dfb565b60405161052791906142a5565b60405180910390f35b61054a6004803603810190610545919061460b565b612008565b6040516105579190614530565b60405180910390f35b61057a60048036038101906105759190614664565b612222565b604051610587919061458b565b60405180910390f35b61059861242f565b6040516105a59190613f86565b60405180910390f35b6105c860048036038101906105c39190614434565b612510565b6040516105d59190613f86565b60405180910390f35b6105e661257a565b6040516105f3919061458b565b60405180910390f35b6106046126ae565b6040516106119190614333565b60405180910390f35b610634600480360381019061062f919061460b565b6126b5565b6040516106419190614530565b60405180910390f35b610652612705565b6040516106609291906145e2565b60405180910390f35b610683600480360381019061067e9190614474565b61279e565b6040516106919291906145e2565b60405180910390f35b6106b460048036038101906106af91906146ee565b612c11565b6040516106c19190614530565b60405180910390f35b6106d2612edd565b6040516106df9190614530565b60405180910390f35b61070260048036038101906106fd919061460b565b612ee3565b60405161071294939291906147cd565b60405180910390f35b6107236130d8565b60405161073091906145c7565b60405180910390f35b6107416130fc565b60405161074e9190614333565b60405180910390f35b610771600480360381019061076c9190613fd7565b613192565b60405161077e9190614530565b60405180910390f35b61078f613235565b60405161079c9190614530565b60405180910390f35b6107bf60048036038101906107ba9190614434565b61323b565b005b6107db60048036038101906107d69190614474565b613264565b6040516107e9929190614812565b60405180910390f35b60007f7965db0b000000000000000000000000000000000000000000000000000000007bffffffffffffffffffffffffffffffffffffffffffffffffffffffff1916827bffffffffffffffffffffffffffffffffffffffffffffffffffffffff19161480610865575061086482613626565b5b9050919050565b610874613e18565b600180549050821061088557600080fd5b600182815481106108995761089861483b565b5b90600052602060002090600d0201604051806102000160405290816000820160009054906101000a900460ff1660018111156108d8576108d7614004565b5b60018111156108ea576108e9614004565b5b81526020016000820160019054906101000a900460ff16600181111561091357610912614004565b5b600181111561092557610924614004565b5b81526020016000820160029054906101000a900460ff16600381111561094e5761094d614004565b5b60038111156109605761095f614004565b5b81526020016000820160039054906101000a900473ffffffffffffffffffffffffffffffffffffffff1673ffffffffffffffffffffffffffffffffffffffff1673ffffffffffffffffffffffffffffffffffffffff168152602001600182015481526020016002820154815260200160038201548152602001600482015481526020016005820154815260200160068201548152602001600782015481526020016008820154815260200160098201548152602001600a8201548152602001600b8201548152602001600c820154815250509050919050565b6000806000838152602001908152602001600020600101549050919050565b7f28d62fc77014de57a1bbaa8212ff0979fa61ab00d377b4b8d9762048fb419961610a8a81610a85613690565b613698565b600060018481548110610aa057610a9f61483b565b5b90600052602060002090600d02019050428160030181905550806004015442610ac99190614899565b816005018190555060018160000160026101000a81548160ff02191690836003811115610af957610af8614004565b5b02179055508073__OptionLibrary_________________________631059c90e90916040518263ffffffff1660e01b8152600401610b3791906148f6565b602060405180830381865af4158015610b54573d6000803e3d6000fd5b505050506040513d601f19601f82011682018060405250810190610b789190614926565b60076000828254610b899190614899565b925050819055508073__OptionLibrary_________________________638d98b89e90916040518263ffffffff1660e01b8152600401610bc991906148f6565b602060405180830381865af4158015610be6573d6000803e3d6000fd5b505050506040513d601f19601f82011682018060405250810190610c0a9190614926565b60086000828254610c1b9190614899565b925050819055508073__OptionLibrary_________________________63e7c9d3f590916040518263ffffffff1660e01b8152600401610c5b91906148f6565b602060405180830381865af4158015610c78573d6000803e3d6000fd5b505050506040513d601f19601f82011682018060405250810190610c9c9190614926565b60096000828254610cad9190614899565b92505081905550610d0584600260008673ffffffffffffffffffffffffffffffffffffffff1673ffffffffffffffffffffffffffffffffffffffff16815260200190815260200160002061373590919063ffffffff16565b50610d1a84600361373590919063ffffffff16565b50600160066000828254610d2e9190614899565b92505081905550837fa2e18ffcc8c9fde6dd551ec707e34469fa0e354eedaa83378b2bebb21b1d67de42604051610d659190614530565b60405180910390a250505050565b7f000000000000000000000000000000000000000000000000000000000000000081565b610da082610a39565b610db181610dac613690565b613698565b610dbb838361374f565b505050565b60008060008060007f000000000000000000000000000000000000000000000000000000000000000073ffffffffffffffffffffffffffffffffffffffff1663b0667cf86040518163ffffffff1660e01b81526004016040805180830381865afa158015610e32573d6000803e3d6000fd5b505050506040513d601f19601f82011682018060405250810190610e569190614953565b5090506000610e66826000612222565b90506000807f000000000000000000000000000000000000000000000000000000000000000073ffffffffffffffffffffffffffffffffffffffff166321f8a7216040518163ffffffff1660e01b8152600401610ec2906149b9565b602060405180830381865afa158015610edf573d6000803e3d6000fd5b505050506040513d601f19601f82011682018060405250810190610f0391906149e7565b905073__MarketLibrary_________________________639e9be73f8b83867f000000000000000000000000000000000000000000000000000000000000000060028f146040518663ffffffff1660e01b8152600401610f67959493929190614a71565b606060405180830381865af4158015610f84573d6000803e3d6000fd5b505050506040513d601f19601f82011682018060405250810190610fa89190614af0565b809850819450829a5050505073__MarketLibrary_________________________6303507d118b8385887f00000000000000000000000000000000000000000000000000000000000000007f00000000000000000000000000000000000000000000000000000000000000006005546040518863ffffffff1660e01b81526004016110399796959493929190614b52565b6040805180830381865af4158015611055573d6000803e3d6000fd5b505050506040513d601f19601f820116820180604052508101906110799190614bc1565b809650819850505073__MarketLibrary_________________________6339a823d8898873ffffffffffffffffffffffffffffffffffffffff1663313ce5676040518163ffffffff1660e01b8152600401602060405180830381865afa1580156110e7573d6000803e3d6000fd5b505050506040513d601f19601f8201168201806040525081019061110b9190614c3a565b6040518363ffffffff1660e01b8152600401611128929190614c98565b602060405180830381865af4158015611145573d6000803e3d6000fd5b505050506040513d601f19601f820116820180604052508101906111699190614cc1565b975073__MarketLibrary_________________________6339a823d8888773ffffffffffffffffffffffffffffffffffffffff1663313ce5676040518163ffffffff1660e01b8152600401602060405180830381865afa1580156111d1573d6000803e3d6000fd5b505050506040513d601f19601f820116820180604052508101906111f59190614c3a565b6040518363ffffffff1660e01b8152600401611212929190614c98565b602060405180830381865af415801561122f573d6000803e3d6000fd5b505050506040513d601f19601f820116820180604052508101906112539190614cc1565b96505050505092959194509250565b61126a613690565b73ffffffffffffffffffffffffffffffffffffffff168173ffffffffffffffffffffffffffffffffffffffff16146112d7576040517f08c379a00000000000000000000000000000000000000000000000000000000081526004016112ce90614d71565b60405180910390fd5b6112e1828261382f565b5050565b7f28d62fc77014de57a1bbaa8212ff0979fa61ab00d377b4b8d9762048fb41996181565b6000807f000000000000000000000000000000000000000000000000000000000000000073ffffffffffffffffffffffffffffffffffffffff1663b0667cf86040518163ffffffff1660e01b81526004016040805180830381865afa158015611376573d6000803e3d6000fd5b505050506040513d601f19601f8201168201806040525081019061139a9190614953565b5090506113ab600854600954613910565b73__FullMath______________________________63fed4a0f39091836040518363ffffffff1660e01b81526004016113e5929190614d91565b602060405180830381865af4158015611402573d6000803e3d6000fd5b505050506040513d601f19601f820116820180604052508101906114269190614926565b91505090565b6000801b6114418161143c613690565b613698565b816005819055505050565b60006001600381111561146257611461614004565b5b600184815481106114765761147561483b565b5b90600052602060002090600d020160000160029054906101000a900460ff1660038111156114a7576114a6614004565b5b1480156114d8575042600184815481106114c4576114c361483b565b5b90600052602060002090600d020160050154115b156117635760007f000000000000000000000000000000000000000000000000000000000000000073ffffffffffffffffffffffffffffffffffffffff1663040b030f42600187815481106115305761152f61483b565b5b90600052602060002090600d02016005015461154c9190614dba565b6040518263ffffffff1660e01b81526004016115689190614530565b602060405180830381865afa158015611585573d6000803e3d6000fd5b505050506040513d601f19601f820116820180604052508101906115a99190614926565b90506116f473__OptionLibrary_________________________639932b2be85600188815481106115dd576115dc61483b565b5b90600052602060002090600d020160090154856040518463ffffffff1660e01b815260040161160e93929190614dee565b602060405180830381865af415801561162b573d6000803e3d6000fd5b505050506040513d601f19601f8201168201806040525081019061164f9190614926565b73__FullMath______________________________63fed4a0f390916001888154811061167f5761167e61483b565b5b90600052602060002090600d0201600701546040518363ffffffff1660e01b81526004016116ae929190614d91565b602060405180830381865af41580156116cb573d6000803e3d6000fd5b505050506040513d601f19601f820116820180604052508101906116ef9190614926565b61392a565b915060018081111561170957611708614004565b5b6001858154811061171d5761171c61483b565b5b90600052602060002090600d020160000160019054906101000a900460ff16600181111561174e5761174d614004565b5b1415611761578161175e90614e25565b91505b505b92915050565b60085481565b7f28d62fc77014de57a1bbaa8212ff0979fa61ab00d377b4b8d9762048fb4199616117a18161179c613690565b613698565b6000600183815481106117b7576117b661483b565b5b90600052602060002090600d0201905061183c83600260008460000160039054906101000a900473ffffffffffffffffffffffffffffffffffffffff1673ffffffffffffffffffffffffffffffffffffffff1673ffffffffffffffffffffffffffffffffffffffff16815260200190815260200160002061399790919063ffffffff16565b5061185183600361399790919063ffffffff16565b5061185f60065460016139b1565b600660008282546118709190614dba565b925050819055506118fc6008548273__OptionLibrary_________________________638d98b89e90916040518263ffffffff1660e01b81526004016118b691906148f6565b602060405180830381865af41580156118d3573d6000803e3d6000fd5b505050506040513d601f19601f820116820180604052508101906118f79190614926565b6139b1565b6008600082825461190d9190614dba565b925050819055506119996009548273__OptionLibrary_________________________63e7c9d3f590916040518263ffffffff1660e01b815260040161195391906148f6565b602060405180830381865af4158015611970573d6000803e3d6000fd5b505050506040513d601f19601f820116820180604052508101906119949190614926565b6139b1565b600960008282546119aa9190614dba565b92505081905550611a366007548273__OptionLibrary_________________________631059c90e90916040518263ffffffff1660e01b81526004016119f091906148f6565b602060405180830381865af4158015611a0d573d6000803e3d6000fd5b505050506040513d601f19601f82011682018060405250810190611a319190614926565b6139b1565b60076000828254611a479190614dba565b9250508190555060038160000160026101000a81548160ff02191690836003811115611a7657611a75614004565b5b0217905550428160060181905550827f24c6712fdcfe6745b15553f78d0c1bb66bbdb5dd43711dac2c23c54b3ed49c5b42604051611ab49190614530565b60405180910390a2505050565b60065481565b7f000000000000000000000000000000000000000000000000000000000000000081565b6000807f000000000000000000000000000000000000000000000000000000000000000073ffffffffffffffffffffffffffffffffffffffff1663b0667cf86040518163ffffffff1660e01b81526004016040805180830381865afa158015611b58573d6000803e3d6000fd5b505050506040513d601f19601f82011682018060405250810190611b7c9190614953565b5090506000915060005b600654811015611bcd57611bad611ba78260036139ca90919063ffffffff16565b8361144c565b83611bb89190614e6e565b92508080611bc590614f02565b915050611b86565b505090565b6000805b600654811015611cb5576000611bf68260036139ca90919063ffffffff16565b905060018181548110611c0c57611c0b61483b565b5b90600052602060002090600d020173__OptionLibrary_________________________63de92030790916040518263ffffffff1660e01b8152600401611c5291906148f6565b602060405180830381865af4158015611c6f573d6000803e3d6000fd5b505050506040513d601f19601f82011682018060405250810190611c939190614f60565b15611ca15780925050611cb5565b508080611cad90614f02565b915050611bd6565b5090565b60095481565b60008060007f000000000000000000000000000000000000000000000000000000000000000073ffffffffffffffffffffffffffffffffffffffff1663b0667cf86040518163ffffffff1660e01b81526004016040805180830381865afa158015611d2e573d6000803e3d6000fd5b505050506040513d601f19601f82011682018060405250810190611d529190614953565b50905060018481548110611d6957611d6861483b565b5b90600052602060002090600d020173__OptionLibrary_________________________63a69d3ae09091836040518363ffffffff1660e01b8152600401611db1929190614f8d565b6040805180830381865af4158015611dcd573d6000803e3d6000fd5b505050506040513d601f19601f82011682018060405250810190611df19190614953565b9250925050915091565b611e03613e18565b6001611e5684600260008673ffffffffffffffffffffffffffffffffffffffff1673ffffffffffffffffffffffffffffffffffffffff1681526020019081526020016000206139ca90919063ffffffff16565b81548110611e6757611e6661483b565b5b90600052602060002090600d0201604051806102000160405290816000820160009054906101000a900460ff166001811115611ea657611ea5614004565b5b6001811115611eb857611eb7614004565b5b81526020016000820160019054906101000a900460ff166001811115611ee157611ee0614004565b5b6001811115611ef357611ef2614004565b5b81526020016000820160029054906101000a900460ff166003811115611f1c57611f1b614004565b5b6003811115611f2e57611f2d614004565b5b81526020016000820160039054906101000a900473ffffffffffffffffffffffffffffffffffffffff1673ffffffffffffffffffffffffffffffffffffffff1673ffffffffffffffffffffffffffffffffffffffff168152602001600182015481526020016002820154815260200160038201548152602001600482015481526020016005820154815260200160068201548152602001600782015481526020016008820154815260200160098201548152602001600a8201548152602001600b8201548152602001600c82015481525050905092915050565b6000807f000000000000000000000000000000000000000000000000000000000000000073ffffffffffffffffffffffffffffffffffffffff1663b0667cf86040518163ffffffff1660e01b81526004016040805180830381865afa158015612075573d6000803e3d6000fd5b505050506040513d601f19601f820116820180604052508101906120999190614953565b5090506000806000806120ab87612ee3565b93509350935093508373__FullMath______________________________63fed4a0f39091876040518363ffffffff1660e01b81526004016120ee929190614d91565b602060405180830381865af415801561210b573d6000803e3d6000fd5b505050506040513d601f19601f8201168201806040525081019061212f9190614926565b828461213b9190614899565b6121459190614899565b955060008173__FullMath______________________________63fed4a0f39091886040518363ffffffff1660e01b8152600401612184929190614d91565b602060405180830381865af41580156121a1573d6000803e3d6000fd5b505050506040513d601f19601f820116820180604052508101906121c59190614926565b9050808711612209576040517f08c379a000000000000000000000000000000000000000000000000000000000815260040161220090615002565b60405180910390fd5b80876122159190614dba565b9650505050505050919050565b6000805b60065481101561242857600060016122488360036139ca90919063ffffffff16565b815481106122595761225861483b565b5b90600052602060002090600d0201905060008173__OptionLibrary_________________________636ae2bcc290916040518263ffffffff1660e01b81526004016122a491906148f6565b602060405180830381865af41580156122c1573d6000803e3d6000fd5b505050506040513d601f19601f820116820180604052508101906122e59190614926565b905060007f000000000000000000000000000000000000000000000000000000000000000073ffffffffffffffffffffffffffffffffffffffff1663040b030f836040518263ffffffff1660e01b81526004016123429190614530565b602060405180830381865afa15801561235f573d6000803e3d6000fd5b505050506040513d601f19601f820116820180604052508101906123839190614926565b90508273__OptionLibrary_________________________6387711e2f909189848a6040518563ffffffff1660e01b81526004016123c49493929190615022565b602060405180830381865af41580156123e1573d6000803e3d6000fd5b505050506040513d601f19601f820116820180604052508101906124059190614cc1565b856124109190614e6e565b9450505050808061242090614f02565b915050612226565b5092915050565b6000805b60065481101561250c5760016124538260036139ca90919063ffffffff16565b815481106124645761246361483b565b5b90600052602060002090600d020173__OptionLibrary_________________________63de92030790916040518263ffffffff1660e01b81526004016124aa91906148f6565b602060405180830381865af41580156124c7573d6000803e3d6000fd5b505050506040513d601f19601f820116820180604052508101906124eb9190614f60565b156124f9576001915061250c565b808061250490614f02565b915050612433565b5090565b600080600084815260200190815260200160002060000160008373ffffffffffffffffffffffffffffffffffffffff1673ffffffffffffffffffffffffffffffffffffffff16815260200190815260200160002060009054906101000a900460ff16905092915050565b6000807f000000000000000000000000000000000000000000000000000000000000000073ffffffffffffffffffffffffffffffffffffffff1663040b030f620151806040518263ffffffff1660e01b81526004016125d991906150a2565b602060405180830381865afa1580156125f6573d6000803e3d6000fd5b505050506040513d601f19601f8201168201806040525081019061261a9190614926565b90506126a873__OptionLibrary_________________________639932b2be670de0b6b3a764000080856040518463ffffffff1660e01b815260040161266293929190614dee565b602060405180830381865af415801561267f573d6000803e3d6000fd5b505050506040513d601f19601f820116820180604052508101906126a39190614926565b61392a565b91505090565b6000801b81565b60006126fe600260008473ffffffffffffffffffffffffffffffffffffffff1673ffffffffffffffffffffffffffffffffffffffff1681526020019081526020016000206139e4565b9050919050565b6000807f000000000000000000000000000000000000000000000000000000000000000073ffffffffffffffffffffffffffffffffffffffff1663b0667cf86040518163ffffffff1660e01b81526004016040805180830381865afa158015612772573d6000803e3d6000fd5b505050506040513d601f19601f820116820180604052508101906127969190614953565b915091509091565b60008060007f000000000000000000000000000000000000000000000000000000000000000073ffffffffffffffffffffffffffffffffffffffff1663b0667cf86040518163ffffffff1660e01b81526004016040805180830381865afa15801561280d573d6000803e3d6000fd5b505050506040513d601f19601f820116820180604052508101906128319190614953565b5090506000612841826000612222565b9050600073__MarketLibrary_________________________639e9be73f887f000000000000000000000000000000000000000000000000000000000000000073ffffffffffffffffffffffffffffffffffffffff166321f8a7216040518163ffffffff1660e01b81526004016128b7906149b9565b602060405180830381865afa1580156128d4573d6000803e3d6000fd5b505050506040513d601f19601f820116820180604052508101906128f891906149e7565b857f000000000000000000000000000000000000000000000000000000000000000060028c146040518663ffffffff1660e01b815260040161293e959493929190614a71565b606060405180830381865af415801561295b573d6000803e3d6000fd5b505050506040513d601f19601f8201168201806040525081019061297f9190614af0565b5050905060009450600093506000811215612c07576000816129a090614e25565b9050612a45817f000000000000000000000000000000000000000000000000000000000000000073ffffffffffffffffffffffffffffffffffffffff166370a08231306040518263ffffffff1660e01b81526004016129ff91906150bd565b602060405180830381865afa158015612a1c573d6000803e3d6000fd5b505050506040513d601f19601f82011682018060405250810190612a409190614926565b6139b1565b81612a509190614dba565b955073__MarketLibrary_________________________63174e20e68773__FullMath______________________________63fed4a0f39091886040518363ffffffff1660e01b8152600401612aa7929190614d91565b602060405180830381865af4158015612ac4573d6000803e3d6000fd5b505050506040513d601f19601f82011682018060405250810190612ae89190614926565b7f00000000000000000000000000000000000000000000000000000000000000006040518363ffffffff1660e01b8152600401612b26929190614d91565b602060405180830381865af4158015612b43573d6000803e3d6000fd5b505050506040513d601f19601f82011682018060405250810190612b679190614926565b945073__MarketLibrary_________________________63174e20e6877f00000000000000000000000000000000000000000000000000000000000000006040518363ffffffff1660e01b8152600401612bc2929190614d91565b602060405180830381865af4158015612bdf573d6000803e3d6000fd5b505050506040513d601f19601f82011682018060405250810190612c039190614926565b9550505b5050509250929050565b60007f28d62fc77014de57a1bbaa8212ff0979fa61ab00d377b4b8d9762048fb419961612c4581612c40613690565b613698565b60008c11612c88576040517f08c379a0000000000000000000000000000000000000000000000000000000008152600401612c7f90615124565b60405180910390fd5b600180549050915060016040518061020001604052808b6001811115612cb157612cb0614004565b5b81526020018a6001811115612cc957612cc8614004565b5b815260200160006003811115612ce257612ce1614004565b5b81526020018573ffffffffffffffffffffffffffffffffffffffff168152602001848152602001428152602001600081526020018e815260200160008152602001600081526020018c81526020018781526020018d81526020018681526020018981526020018881525090806001815401808255809150506001900390600052602060002090600d020160009091909190915060008201518160000160006101000a81548160ff02191690836001811115612da057612d9f614004565b5b021790555060208201518160000160016101000a81548160ff02191690836001811115612dd057612dcf614004565b5b021790555060408201518160000160026101000a81548160ff02191690836003811115612e0057612dff614004565b5b021790555060608201518160000160036101000a81548173ffffffffffffffffffffffffffffffffffffffff021916908373ffffffffffffffffffffffffffffffffffffffff1602179055506080820151816001015560a0820151816002015560c0820151816003015560e08201518160040155610100820151816005015561012082015181600601556101408201518160070155610160820151816008015561018082015181600901556101a082015181600a01556101c082015181600b01556101e082015181600c01555050509a9950505050505050505050565b60055481565b60008060008060007f000000000000000000000000000000000000000000000000000000000000000073ffffffffffffffffffffffffffffffffffffffff166321f8a7216040518163ffffffff1660e01b8152600401612f42906149b9565b602060405180830381865afa158015612f5f573d6000803e3d6000fd5b505050506040513d601f19601f82011682018060405250810190612f8391906149e7565b905073__MarketLibrary_________________________63358e7d4087837f00000000000000000000000000000000000000000000000000000000000000006040518463ffffffff1660e01b8152600401612fe093929190615144565b606060405180830381865af4158015612ffd573d6000803e3d6000fd5b505050506040513d601f19601f82011682018060405250810190613021919061517b565b9050809350819650505073__MarketLibrary_________________________63358e7d4087837f00000000000000000000000000000000000000000000000000000000000000006040518463ffffffff1660e01b815260040161308693929190615144565b606060405180830381865af41580156130a3573d6000803e3d6000fd5b505050506040513d601f19601f820116820180604052508101906130c7919061517b565b508094508195505050509193509193565b7f000000000000000000000000000000000000000000000000000000000000000081565b60007f000000000000000000000000000000000000000000000000000000000000000073ffffffffffffffffffffffffffffffffffffffff1663cca494736040518163ffffffff1660e01b8152600401602060405180830381865afa158015613169573d6000803e3d6000fd5b505050506040513d601f19601f8201168201806040525081019061318d91906151e3565b905090565b60007f000000000000000000000000000000000000000000000000000000000000000073ffffffffffffffffffffffffffffffffffffffff1663040b030f836040518263ffffffff1660e01b81526004016131ed9190614530565b602060405180830381865afa15801561320a573d6000803e3d6000fd5b505050506040513d601f19601f8201168201806040525081019061322e9190614926565b9050919050565b60075481565b61324482610a39565b61325581613250613690565b613698565b61325f838361382f565b505050565b60008060007f000000000000000000000000000000000000000000000000000000000000000073ffffffffffffffffffffffffffffffffffffffff1663b0667cf86040518163ffffffff1660e01b81526004016040805180830381865afa1580156132d3573d6000803e3d6000fd5b505050506040513d601f19601f820116820180604052508101906132f79190614953565b5090506000613307826000612222565b905061344473__MarketLibrary_________________________63ed1bb1997f000000000000000000000000000000000000000000000000000000000000000073ffffffffffffffffffffffffffffffffffffffff166370a082318a6040518263ffffffff1660e01b815260040161337f91906150bd565b602060405180830381865afa15801561339c573d6000803e3d6000fd5b505050506040513d601f19601f820116820180604052508101906133c09190614926565b7f00000000000000000000000000000000000000000000000000000000000000006040518363ffffffff1660e01b81526004016133fe929190614d91565b602060405180830381865af415801561341b573d6000803e3d6000fd5b505050506040513d601f19601f8201168201806040525081019061343f9190614926565b61392a565b600082121561345c57613457600061392a565b61345e565b815b6134689190615210565b935073__MarketLibrary_________________________6339a823d873__OptionLibrary_________________________63ca0cc13d87868a6040518463ffffffff1660e01b81526004016134bf939291906152a4565b602060405180830381865af41580156134dc573d6000803e3d6000fd5b505050506040513d601f19601f820116820180604052508101906135009190614cc1565b7f00000000000000000000000000000000000000000000000000000000000000006040518363ffffffff1660e01b815260040161353e9291906152db565b602060405180830381865af415801561355b573d6000803e3d6000fd5b505050506040513d601f19601f8201168201806040525081019061357f9190614cc1565b925073__MarketLibrary_________________________6339a823d8857f00000000000000000000000000000000000000000000000000000000000000006040518363ffffffff1660e01b81526004016135da9291906152db565b602060405180830381865af41580156135f7573d6000803e3d6000fd5b505050506040513d601f19601f8201168201806040525081019061361b9190614cc1565b935050509250929050565b60007f01ffc9a7000000000000000000000000000000000000000000000000000000007bffffffffffffffffffffffffffffffffffffffffffffffffffffffff1916827bffffffffffffffffffffffffffffffffffffffffffffffffffffffff1916149050919050565b600033905090565b6136a28282612510565b613731576136c78173ffffffffffffffffffffffffffffffffffffffff1660146139f9565b6136d58360001c60206139f9565b6040516020016136e6929190615416565b6040516020818303038152906040526040517f08c379a0000000000000000000000000000000000000000000000000000000008152600401613728919061549a565b60405180910390fd5b5050565b6000613747836000018360001b613c35565b905092915050565b6137598282612510565b61382b57600160008084815260200190815260200160002060000160008373ffffffffffffffffffffffffffffffffffffffff1673ffffffffffffffffffffffffffffffffffffffff16815260200190815260200160002060006101000a81548160ff0219169083151502179055506137d0613690565b73ffffffffffffffffffffffffffffffffffffffff168173ffffffffffffffffffffffffffffffffffffffff16837f2f8788117e7eff1d82e926ec794901d17c78024a50270940304540a733656f0d60405160405180910390a45b5050565b6138398282612510565b1561390c57600080600084815260200190815260200160002060000160008373ffffffffffffffffffffffffffffffffffffffff1673ffffffffffffffffffffffffffffffffffffffff16815260200190815260200160002060006101000a81548160ff0219169083151502179055506138b1613690565b73ffffffffffffffffffffffffffffffffffffffff168173ffffffffffffffffffffffffffffffffffffffff16837ff6391f5c32d9c69d2a47ea670b442974b53935d1edc7fd64eb21e047a839171b60405160405180910390a45b5050565b6000818310156139205781613922565b825b905092915050565b60007f7fffffffffffffffffffffffffffffffffffffffffffffffffffffffffffffff82111561398f576040517f08c379a00000000000000000000000000000000000000000000000000000000081526004016139869061552e565b60405180910390fd5b819050919050565b60006139a9836000018360001b613ca5565b905092915050565b60008183106139c057816139c2565b825b905092915050565b60006139d98360000183613db9565b60001c905092915050565b60006139f282600001613de4565b9050919050565b606060006002836002613a0c919061554e565b613a169190614899565b67ffffffffffffffff811115613a2f57613a2e6155a8565b5b6040519080825280601f01601f191660200182016040528015613a615781602001600182028036833780820191505090505b5090507f300000000000000000000000000000000000000000000000000000000000000081600081518110613a9957613a9861483b565b5b60200101907effffffffffffffffffffffffffffffffffffffffffffffffffffffffffffff1916908160001a9053507f780000000000000000000000000000000000000000000000000000000000000081600181518110613afd57613afc61483b565b5b60200101907effffffffffffffffffffffffffffffffffffffffffffffffffffffffffffff1916908160001a90535060006001846002613b3d919061554e565b613b479190614899565b90505b6001811115613be7577f3031323334353637383961626364656600000000000000000000000000000000600f861660108110613b8957613b8861483b565b5b1a60f81b828281518110613ba057613b9f61483b565b5b60200101907effffffffffffffffffffffffffffffffffffffffffffffffffffffffffffff1916908160001a905350600485901c945080613be0906155d7565b9050613b4a565b5060008414613c2b576040517f08c379a0000000000000000000000000000000000000000000000000000000008152600401613c229061564d565b60405180910390fd5b8091505092915050565b6000613c418383613df5565b613c9a578260000182908060018154018082558091505060019003906000526020600020016000909190919091505582600001805490508360010160008481526020019081526020016000208190555060019050613c9f565b600090505b92915050565b60008083600101600084815260200190815260200160002054905060008114613dad576000600182613cd79190614dba565b9050600060018660000180549050613cef9190614dba565b9050818114613d5e576000866000018281548110613d1057613d0f61483b565b5b9060005260206000200154905080876000018481548110613d3457613d3361483b565b5b90600052602060002001819055508387600101600083815260200190815260200160002081905550505b85600001805480613d7257613d7161566d565b5b600190038181906000526020600020016000905590558560010160008681526020019081526020016000206000905560019350505050613db3565b60009150505b92915050565b6000826000018281548110613dd157613dd061483b565b5b9060005260206000200154905092915050565b600081600001805490509050919050565b600080836001016000848152602001908152602001600020541415905092915050565b60405180610200016040528060006001811115613e3857613e37614004565b5b815260200160006001811115613e5157613e50614004565b5b815260200160006003811115613e6a57613e69614004565b5b8152602001600073ffffffffffffffffffffffffffffffffffffffff1681526020016000815260200160008152602001600081526020016000815260200160008152602001600081526020016000815260200160008152602001600081526020016000815260200160008152602001600081525090565b600080fd5b60007fffffffff0000000000000000000000000000000000000000000000000000000082169050919050565b613f1b81613ee6565b8114613f2657600080fd5b50565b600081359050613f3881613f12565b92915050565b600060208284031215613f5457613f53613ee1565b5b6000613f6284828501613f29565b91505092915050565b60008115159050919050565b613f8081613f6b565b82525050565b6000602082019050613f9b6000830184613f77565b92915050565b6000819050919050565b613fb481613fa1565b8114613fbf57600080fd5b50565b600081359050613fd181613fab565b92915050565b600060208284031215613fed57613fec613ee1565b5b6000613ffb84828501613fc2565b91505092915050565b7f4e487b7100000000000000000000000000000000000000000000000000000000600052602160045260246000fd5b6002811061404457614043614004565b5b50565b600081905061405582614033565b919050565b600061406582614047565b9050919050565b6140758161405a565b82525050565b6002811061408c5761408b614004565b5b50565b600081905061409d8261407b565b919050565b60006140ad8261408f565b9050919050565b6140bd816140a2565b82525050565b600481106140d4576140d3614004565b5b50565b60008190506140e5826140c3565b919050565b60006140f5826140d7565b9050919050565b614105816140ea565b82525050565b600073ffffffffffffffffffffffffffffffffffffffff82169050919050565b60006141368261410b565b9050919050565b6141468161412b565b82525050565b61415581613fa1565b82525050565b61020082016000820151614172600085018261406c565b50602082015161418560208501826140b4565b50604082015161419860408501826140fc565b5060608201516141ab606085018261413d565b5060808201516141be608085018261414c565b5060a08201516141d160a085018261414c565b5060c08201516141e460c085018261414c565b5060e08201516141f760e085018261414c565b5061010082015161420c61010085018261414c565b5061012082015161422161012085018261414c565b5061014082015161423661014085018261414c565b5061016082015161424b61016085018261414c565b5061018082015161426061018085018261414c565b506101a08201516142756101a085018261414c565b506101c082015161428a6101c085018261414c565b506101e082015161429f6101e085018261414c565b50505050565b6000610200820190506142bb600083018461415b565b92915050565b6000819050919050565b6142d4816142c1565b81146142df57600080fd5b50565b6000813590506142f1816142cb565b92915050565b60006020828403121561430d5761430c613ee1565b5b600061431b848285016142e2565b91505092915050565b61432d816142c1565b82525050565b60006020820190506143486000830184614324565b92915050565b6143578161412b565b811461436257600080fd5b50565b6000813590506143748161434e565b92915050565b6000806040838503121561439157614390613ee1565b5b600061439f85828601613fc2565b92505060206143b085828601614365565b9150509250929050565b6000819050919050565b60006143df6143da6143d58461410b565b6143ba565b61410b565b9050919050565b60006143f1826143c4565b9050919050565b6000614403826143e6565b9050919050565b614413816143f8565b82525050565b600060208201905061442e600083018461440a565b92915050565b6000806040838503121561444b5761444a613ee1565b5b6000614459858286016142e2565b925050602061446a85828601614365565b9150509250929050565b6000806040838503121561448b5761448a613ee1565b5b600061449985828601614365565b92505060206144aa85828601613fc2565b9150509250929050565b6000819050919050565b6144c7816144b4565b82525050565b6144d68161412b565b82525050565b60006080820190506144f160008301876144be565b6144fe60208301866144be565b61450b60408301856144cd565b61451860608301846144cd565b95945050505050565b61452a81613fa1565b82525050565b60006020820190506145456000830184614521565b92915050565b6000806040838503121561456257614561613ee1565b5b600061457085828601613fc2565b925050602061458185828601613fc2565b9150509250929050565b60006020820190506145a060008301846144be565b92915050565b60006145b1826143e6565b9050919050565b6145c1816145a6565b82525050565b60006020820190506145dc60008301846145b8565b92915050565b60006040820190506145f76000830185614521565b6146046020830184614521565b9392505050565b60006020828403121561462157614620613ee1565b5b600061462f84828501614365565b91505092915050565b61464181613f6b565b811461464c57600080fd5b50565b60008135905061465e81614638565b92915050565b6000806040838503121561467b5761467a613ee1565b5b600061468985828601613fc2565b925050602061469a8582860161464f565b9150509250929050565b600281106146b157600080fd5b50565b6000813590506146c3816146a4565b92915050565b600281106146d657600080fd5b50565b6000813590506146e8816146c9565b92915050565b6000806000806000806000806000806101408b8d03121561471257614711613ee1565b5b60006147208d828e01613fc2565b9a505060206147318d828e01613fc2565b99505060406147428d828e01613fc2565b98505060606147538d828e016146b4565b97505060806147648d828e016146d9565b96505060a06147758d828e01613fc2565b95505060c06147868d828e01613fc2565b94505060e06147978d828e01613fc2565b9350506101006147a98d828e01613fc2565b9250506101206147bb8d828e01614365565b9150509295989b9194979a5092959850565b60006080820190506147e26000830187614521565b6147ef6020830186614521565b6147fc6040830185614521565b6148096060830184614521565b95945050505050565b600060408201905061482760008301856144be565b61483460208301846144be565b9392505050565b7f4e487b7100000000000000000000000000000000000000000000000000000000600052603260045260246000fd5b7f4e487b7100000000000000000000000000000000000000000000000000000000600052601160045260246000fd5b60006148a482613fa1565b91506148af83613fa1565b9250827fffffffffffffffffffffffffffffffffffffffffffffffffffffffffffffffff038211156148e4576148e361486a565b5b828201905092915050565b8082525050565b600060208201905061490b60008301846148ef565b92915050565b60008151905061492081613fab565b92915050565b60006020828403121561493c5761493b613ee1565b5b600061494a84828501614911565b91505092915050565b6000806040838503121561496a57614969613ee1565b5b600061497885828601614911565b925050602061498985828601614911565b9150509250929050565b7f3078310000000000000000000000000000000000000000000000000000000000815250565b60006020820190506149cd60008301614993565b919050565b6000815190506149e18161434e565b92915050565b6000602082840312156149fd576149fc613ee1565b5b6000614a0b848285016149d2565b91505092915050565b614a1d8161412b565b82525050565b6000614a2e826143e6565b9050919050565b614a3e81614a23565b82525050565b614a4d816144b4565b82525050565b614a5c816145a6565b82525050565b614a6b81613f6b565b82525050565b600060a082019050614a866000830188614a14565b614a936020830187614a35565b614aa06040830186614a44565b614aad6060830185614a53565b614aba6080830184614a62565b9695505050505050565b614acd816144b4565b8114614ad857600080fd5b50565b600081519050614aea81614ac4565b92915050565b600080600060608486031215614b0957614b08613ee1565b5b6000614b1786828701614adb565b9350506020614b2886828701614911565b9250506040614b39868287016149d2565b9150509250925092565b614b4c81613fa1565b82525050565b600060e082019050614b67600083018a614a14565b614b746020830189614a35565b614b816040830188614b43565b614b8e6060830187614b43565b614b9b6080830186614a53565b614ba860a0830185614a53565b614bb560c0830184614b43565b98975050505050505050565b60008060408385031215614bd857614bd7613ee1565b5b6000614be685828601614adb565b9250506020614bf7858286016149d2565b9150509250929050565b600060ff82169050919050565b614c1781614c01565b8114614c2257600080fd5b50565b600081519050614c3481614c0e565b92915050565b600060208284031215614c5057614c4f613ee1565b5b6000614c5e84828501614c25565b91505092915050565b6000614c82614c7d614c7884614c01565b6143ba565b613fa1565b9050919050565b614c9281614c67565b82525050565b6000604082019050614cad6000830185614a44565b614cba6020830184614c89565b9392505050565b600060208284031215614cd757614cd6613ee1565b5b6000614ce584828501614adb565b91505092915050565b600082825260208201905092915050565b7f416363657373436f6e74726f6c3a2063616e206f6e6c792072656e6f756e636560008201527f20726f6c657320666f722073656c660000000000000000000000000000000000602082015250565b6000614d5b602f83614cee565b9150614d6682614cff565b604082019050919050565b60006020820190508181036000830152614d8a81614d4e565b9050919050565b6000604082019050614da66000830185614b43565b614db36020830184614b43565b9392505050565b6000614dc582613fa1565b9150614dd083613fa1565b925082821015614de357614de261486a565b5b828203905092915050565b6000606082019050614e036000830186614b43565b614e106020830185614b43565b614e1d6040830184614b43565b949350505050565b6000614e30826144b4565b91507f8000000000000000000000000000000000000000000000000000000000000000821415614e6357614e6261486a565b5b816000039050919050565b6000614e79826144b4565b9150614e84836144b4565b9250817f7fffffffffffffffffffffffffffffffffffffffffffffffffffffffffffffff03831360008312151615614ebf57614ebe61486a565b5b817f8000000000000000000000000000000000000000000000000000000000000000038312600083121615614ef757614ef661486a565b5b828201905092915050565b6000614f0d82613fa1565b91507fffffffffffffffffffffffffffffffffffffffffffffffffffffffffffffffff821415614f4057614f3f61486a565b5b600182019050919050565b600081519050614f5a81614638565b92915050565b600060208284031215614f7657614f75613ee1565b5b6000614f8484828501614f4b565b91505092915050565b6000604082019050614fa260008301856148ef565b614faf6020830184614b43565b9392505050565b7f4e65676174697665206571756974792e00000000000000000000000000000000600082015250565b6000614fec601083614cee565b9150614ff782614fb6565b602082019050919050565b6000602082019050818103600083015261501b81614fdf565b9050919050565b600060808201905061503760008301876148ef565b6150446020830186614b43565b6150516040830185614b43565b61505e6060830184614a62565b95945050505050565b6000819050919050565b600061508c61508761508284615067565b6143ba565b613fa1565b9050919050565b61509c81615071565b82525050565b60006020820190506150b76000830184615093565b92915050565b60006020820190506150d260008301846144cd565b92915050565b7f5a65726f2074656e6f7200000000000000000000000000000000000000000000600082015250565b600061510e600a83614cee565b9150615119826150d8565b602082019050919050565b6000602082019050818103600083015261513d81615101565b9050919050565b60006060820190506151596000830186614a14565b6151666020830185614a35565b6151736040830184614a53565b949350505050565b60008060006060848603121561519457615193613ee1565b5b60006151a286828701614911565b93505060206151b386828701614911565b92505060406151c486828701614911565b9150509250925092565b6000815190506151dd816142cb565b92915050565b6000602082840312156151f9576151f8613ee1565b5b6000615207848285016151ce565b91505092915050565b600061521b826144b4565b9150615226836144b4565b9250827f8000000000000000000000000000000000000000000000000000000000000000018212600084121516156152615761526061486a565b5b827f7fffffffffffffffffffffffffffffffffffffffffffffffffffffffffffffff0182136000841216156152995761529861486a565b5b828203905092915050565b60006060820190506152b96000830186614a44565b6152c66020830185614b43565b6152d36040830184614b43565b949350505050565b60006040820190506152f06000830185614a44565b6152fd6020830184614b43565b9392505050565b600081905092915050565b7f416363657373436f6e74726f6c3a206163636f756e7420000000000000000000600082015250565b6000615345601783615304565b91506153508261530f565b601782019050919050565b600081519050919050565b60005b83811015615384578082015181840152602081019050615369565b83811115615393576000848401525b50505050565b60006153a48261535b565b6153ae8185615304565b93506153be818560208601615366565b80840191505092915050565b7f206973206d697373696e6720726f6c6520000000000000000000000000000000600082015250565b6000615400601183615304565b915061540b826153ca565b601182019050919050565b600061542182615338565b915061542d8285615399565b9150615438826153f3565b91506154448284615399565b91508190509392505050565b6000601f19601f8301169050919050565b600061546c8261535b565b6154768185614cee565b9350615486818560208601615366565b61548f81615450565b840191505092915050565b600060208201905081810360008301526154b48184615461565b905092915050565b7f53616665436173743a2076616c756520646f65736e27742066697420696e206160008201527f6e20696e74323536000000000000000000000000000000000000000000000000602082015250565b6000615518602883614cee565b9150615523826154bc565b604082019050919050565b600060208201905081810360008301526155478161550b565b9050919050565b600061555982613fa1565b915061556483613fa1565b9250817fffffffffffffffffffffffffffffffffffffffffffffffffffffffffffffffff048311821515161561559d5761559c61486a565b5b828202905092915050565b7f4e487b7100000000000000000000000000000000000000000000000000000000600052604160045260246000fd5b60006155e282613fa1565b915060008214156155f6576155f561486a565b5b600182039050919050565b7f537472696e67733a20686578206c656e67746820696e73756666696369656e74600082015250565b6000615637602083614cee565b915061564282615601565b602082019050919050565b600060208201905081810360008301526156668161562a565b9050919050565b7f4e487b7100000000000000000000000000000000000000000000000000000000600052603160045260246000fdfea2646970667358221220d37d23cf674630dffc0a7cdbbb23f917b6d264d6f755ea8c8ca79a517a4760e364736f6c634300080b0033",
  "immutableReferences": {
    "7100": [
      {
        "length": 32,
        "start": 3530
      },
      {
        "length": 32,
        "start": 4878
      },
      {
        "length": 32,
        "start": 5345
      },
      {
        "length": 32,
        "start": 6896
      },
      {
        "length": 32,
        "start": 7366
      },
      {
        "length": 32,
        "start": 8205
      },
      {
        "length": 32,
        "start": 8939
      },
      {
        "length": 32,
        "start": 9599
      },
      {
        "length": 32,
        "start": 9994
      },
      {
        "length": 32,
        "start": 10149
      },
      {
        "length": 32,
        "start": 12544
      },
      {
        "length": 32,
        "start": 12694
      },
      {
        "length": 32,
        "start": 12907
      }
    ],
    "7103": [
      {
        "length": 32,
        "start": 3445
      },
      {
        "length": 32,
        "start": 3693
      },
      {
        "length": 32,
        "start": 10338
      },
      {
        "length": 32,
        "start": 12013
      }
    ],
    "7106": [
      {
        "length": 32,
        "start": 3876
      },
      {
        "length": 32,
        "start": 4085
      },
      {
        "length": 32,
        "start": 6857
      },
      {
        "length": 32,
        "start": 10491
      },
      {
        "length": 32,
        "start": 10664
      },
      {
        "length": 32,
        "start": 12195
      },
      {
        "length": 32,
        "start": 13096
      }
    ],
    "7109": [
      {
        "length": 32,
        "start": 4052
      },
      {
        "length": 32,
        "start": 12361
      },
      {
        "length": 32,
        "start": 12506
      }
    ],
    "7111": [
      {
        "length": 32,
        "start": 10986
      },
      {
        "length": 32,
        "start": 13570
      }
    ],
    "7113": [
      {
        "length": 32,
        "start": 11142
      },
      {
        "length": 32,
        "start": 13250
      },
      {
        "length": 32,
        "start": 13726
      }
    ]
  },
  "source": "/**\n * SPDX-License-Identifier: GPL-3.0-or-later\n * Moret\n * Copyright (C) 2021 Moret\n*/\n\npragma solidity ^0.8.0;\nimport \"@openzeppelin/contracts/access/AccessControl.sol\";\nimport \"@openzeppelin/contracts/utils/structs/EnumerableSet.sol\";\nimport \"./MarketLibrary.sol\";\nimport \"./VolatilityChain.sol\";\nimport \"./interfaces/EOption.sol\";\nimport \"./interfaces/IProtocolDataProvider.sol\";\nimport \"./interfaces/ILendingPoolAddressesProvider.sol\";\n\ncontract OptionVault is AccessControl, EOption{\n  using FullMath for uint256;\n  using OptionLibrary for OptionLibrary.Option;\n  using EnumerableSet for EnumerableSet.UintSet;\n\n  bytes32 public constant EXCHANGE_ROLE = keccak256(\"EXCHANGE_ROLE\");\n\n  OptionLibrary.Option[] internal optionsList;\n  mapping(address=> EnumerableSet.UintSet) internal activeOptionsPerOwner;\n  EnumerableSet.UintSet internal activeOptions;\n\n  VolatilityChain internal immutable volatilityChain;\n  ILendingPoolAddressesProvider public immutable aaveAddress;\n  ERC20 public immutable underlying;\n  ERC20 public immutable funding;\n  uint256 internal immutable fundingDecimals;\n  uint256 internal immutable underlyingDecimals;\n\n  uint256 internal constant BASE  = 1e18;\n  uint256 internal constant SCALING = 1e5;\n  uint256 public overCollateral = 1e17;\n\n  uint256 public activeContractCount = 0;\n  uint256 public sellPutCollaterals = 0;\n  uint256 public deltaAtZero = 0;\n  uint256 public deltaAtMax = 0;\n\n  constructor(VolatilityChain _volChain, ERC20 _underlying, ERC20 _funding, ILendingPoolAddressesProvider _aaveAddress){\n    _setupRole(DEFAULT_ADMIN_ROLE, msg.sender);\n    _setupRole(EXCHANGE_ROLE, msg.sender);\n    volatilityChain = _volChain; \n    funding = _funding;\n    underlying = _underlying;\n    aaveAddress = _aaveAddress;\n    fundingDecimals = _funding.decimals();\n    underlyingDecimals = _underlying.decimals();}\n\n  function addOption(uint256 _tenor, uint256 _strike, uint256 _amount, OptionLibrary.PayoffType _poType, OptionLibrary.OptionSide _side, uint256 _premium, uint256 _cost, uint256 _price, uint256 _volatility, address _holder) external onlyRole(EXCHANGE_ROLE) returns(uint256 _id) {\n    require(_tenor > 0, \"Zero tenor\");\n    _id = optionsList.length;\n    // Arguments: option type, option side, contract status (default to draft), contract holder address, contract id, creation timestamp, effective timestamp (default to 0), tenor in seconds, maturity timestamp (default to 0), excersie timestamp (default to 0), amount or size of contract, current spot price, option strike, implied volatility, calculated premium and total cost including collaterals.\n    optionsList.push(OptionLibrary.Option(_poType, _side, OptionLibrary.OptionStatus.Draft, _holder, _id, block.timestamp,  0, _tenor, 0,  0, _amount, _price, _strike, _volatility, _premium, _cost));}\n\n  function getHoldersOptionCount(address _address) external view returns(uint256){return activeOptionsPerOwner[_address].length();}\n  function getHoldersOption(uint256 _index, address _address) external view returns(OptionLibrary.Option memory) {return optionsList[activeOptionsPerOwner[_address].at(_index)];}\n\n  function getOption(uint256 _id) external view returns(OptionLibrary.Option memory) {\n    require(_id< optionsList.length);\n    return optionsList[_id];}\n\n  function getGrossCapital(address _address) external view returns(uint256 _capital){\n    (uint256 _price, ) = volatilityChain.queryPrice();\n    (uint256 _underlying_balance, uint256 _funding_balance, uint256 _collateral_balance, uint256 _debt_balance) = getBalances(_address);\n    _capital = _funding_balance + _collateral_balance + _underlying_balance.ethmul(_price);\n    uint256 _debt_amount = _debt_balance.ethmul(_price);\n    require(_capital > _debt_amount, \"Negative equity.\");\n    _capital -= _debt_amount;}\n\n  function getMaxHedge() external view returns (uint256){\n    (uint256 _price,) = volatilityChain.queryPrice();\n    return Math.max(deltaAtZero, deltaAtMax).ethmul(_price);}\n\n  function getContractPayoff(uint256 _id) external view returns(uint256 _payoff, uint256 _payback){\n    (uint256 _price,) = volatilityChain.queryPrice();\n    return optionsList[_id].calcPayoff(_price);}\n\n  function calculateAggregateDelta(uint256 _price, bool _includeExpiring) public view returns(int256 _delta){\n    _delta= 0;\n    for(uint256 i=0;i<activeContractCount;i++){\n      OptionLibrary.Option storage _option = optionsList[uint256(activeOptions.at(i))];\n      uint256 _maturityLeft = _option.calcRemainingMaturity();\n      uint256 _vol = volatilityChain.getVol(_maturityLeft);\n      _delta += _option.calcDelta(_price, _vol, _includeExpiring);}}\n\n  function calculateContractGamma(uint256 _id, uint256 _price) public view returns(int256 _gamma){\n    _gamma = 0;\n    if(optionsList[_id].status== OptionLibrary.OptionStatus.Active  && (optionsList[_id].maturity > block.timestamp)){\n      uint256 _vol = volatilityChain.getVol(optionsList[_id].maturity - block.timestamp);\n      _gamma = SafeCast.toInt256(OptionLibrary.calcGamma(_price, optionsList[_id].strike, _vol).ethmul(optionsList[_id].amount));\n      if(optionsList[_id].side==OptionLibrary.OptionSide.Sell){ _gamma = -_gamma;}}}\n      \n  function calculateAggregateGamma() external view returns(int256 _gamma){\n    (uint256 _price,) = volatilityChain.queryPrice();\n    _gamma= 0;\n    for(uint256 i=0;i<activeContractCount;i++){\n      _gamma += calculateContractGamma(uint256(activeOptions.at(i)),_price);}}\n\n  function calculateSpotGamma() external view returns(int256 _gamma){\n    uint256 _vol = volatilityChain.getVol(86400);\n    _gamma = SafeCast.toInt256(OptionLibrary.calcGamma(BASE, BASE, _vol));}\n\n  function anyOptionExpiring() external view returns(bool _isExpiring) {\n    _isExpiring = false;\n    for(uint256 i=0;i<activeContractCount;i++){\n      if(optionsList[uint256(activeOptions.at(i))].isExpiring()){\n        _isExpiring = true;\n        break;}}}\n\n  function getExpiringOptionId() external view returns(uint256 _id){\n    _id = 0;\n    for(uint256 i=0;i<activeContractCount;i++){\n      uint256 _id_i = uint256(activeOptions.at(i));\n      if(optionsList[_id_i].isExpiring()){\n        _id = _id_i;\n        break;}}}\n\n  function stampActiveOption(uint256 _id, address _holder) external onlyRole(EXCHANGE_ROLE) {\n    OptionLibrary.Option storage _option = optionsList[_id];\n    _option.effectiveTime = block.timestamp;\n    _option.maturity = block.timestamp + _option.tenor;\n    _option.status = OptionLibrary.OptionStatus.Active;\n    \n    sellPutCollaterals += _option.sellPutCollateral();\n    deltaAtZero += _option.calcDeltaAtZero();\n    deltaAtMax += _option.calcDeltaAtMax();\n\n    activeOptionsPerOwner[_holder].add(_id);\n    activeOptions.add(_id);\n    activeContractCount += 1;\n    \n    emit StampNewOption(_id, block.timestamp);}\n\n  function stampExpiredOption(uint256 _id)  external onlyRole(EXCHANGE_ROLE){\n    OptionLibrary.Option storage _option = optionsList[_id];\n    activeOptionsPerOwner[_option.holder].remove(_id);\n    activeOptions.remove(_id);\n    activeContractCount -= Math.min(activeContractCount, 1);\n\n    deltaAtZero -= Math.min(deltaAtZero, _option.calcDeltaAtZero());\n    deltaAtMax -= Math.min(deltaAtMax, _option.calcDeltaAtMax());\n    sellPutCollaterals -= Math.min(sellPutCollaterals, _option.sellPutCollateral());\n    \n    _option.status = OptionLibrary.OptionStatus.Expired;\n    _option.exerciseTime = block.timestamp;\n    \n    emit StampExpire(_id, block.timestamp);}\n\n  // this function emits values in token decimals.\n  function calcSwapTradesInTok(address _address, uint256 _swapSlippage) external view returns(int256 _tradeUnderlyingAmount, int256 _tradeFundingAmount){\n    (uint256 _price,) = volatilityChain.queryPrice();\n    int256 _aggregateDelta = calculateAggregateDelta(_price, false);\n    _tradeUnderlyingAmount = (_aggregateDelta >= 0? _aggregateDelta: SafeCast.toInt256(0)) - SafeCast.toInt256(MarketLibrary.toWei(underlying.balanceOf(_address), underlyingDecimals));\n    _tradeFundingAmount = MarketLibrary.toDecimalsInt(OptionLibrary.getOpposeTrade(_tradeUnderlyingAmount, _price, _swapSlippage), fundingDecimals);\n    _tradeUnderlyingAmount = MarketLibrary.toDecimalsInt(_tradeUnderlyingAmount, underlyingDecimals);}\n  \n  // this function emits values in DEFAULT decimals.\n  function getBalances(address _address) public view returns(uint256 _underlyingBalance, uint256 _fundingBalance, uint256 _collateralBalance, uint256 _debtBalance){ \n    IProtocolDataProvider _protocolDataProvider = IProtocolDataProvider(aaveAddress.getAddress(\"0x1\"));\n    ( _underlyingBalance, ,  _debtBalance) = MarketLibrary.getTokenBalances(_address, _protocolDataProvider, underlying);\n    ( _fundingBalance,  _collateralBalance,) = MarketLibrary.getTokenBalances(_address, _protocolDataProvider, funding); }\n\n  // this function emits values in token decimals.\n  function calcLoanRepaymentInTok(address _address, uint256 _lendingPoolRateMode) external view returns(uint256 _repayAmount, uint256 _repaySwapValue){\n    (uint256 _price,) = volatilityChain.queryPrice();\n    int256 _aggregateDelta = calculateAggregateDelta(_price, false);\n    (int256 _loanTradeAmount, , ) = MarketLibrary.getLoanTrade(_address, IProtocolDataProvider(aaveAddress.getAddress(\"0x1\")), _aggregateDelta, underlying, _lendingPoolRateMode == 2);\n    _repayAmount = 0;\n    _repaySwapValue = 0;\n    if(_loanTradeAmount < 0){\n      uint256 _loanAmountU = uint256(-_loanTradeAmount);\n      _repayAmount = _loanAmountU - Math.min(_loanAmountU, ERC20(underlying).balanceOf(address(this)));\n      _repaySwapValue = MarketLibrary.toDecimals(_repayAmount.ethmul(_price), fundingDecimals);\n      _repayAmount = MarketLibrary.toDecimals(_repayAmount, underlyingDecimals);}}\n\n  // this function emits values in token decimals.\n  function calcLoanTradesInTok(address _address, uint256 _lendingPoolRateMode) external view returns(int256 _loanTradeAmount, int256 _collateralChange, address _loanAddress, address _collateralAddress){\n    (uint256 _price,) = volatilityChain.queryPrice();\n    int256 _aggregateDelta = calculateAggregateDelta(_price, false); \n    uint256 _targetLoan = 0;\n    IProtocolDataProvider _protocolProvider = IProtocolDataProvider(aaveAddress.getAddress(\"0x1\"));\n    (_loanTradeAmount, _targetLoan, _loanAddress) = MarketLibrary.getLoanTrade(_address, _protocolProvider , _aggregateDelta, underlying, _lendingPoolRateMode == 2);\n    (_collateralChange, _collateralAddress) = MarketLibrary.getCollateralTrade(_address, _protocolProvider, _targetLoan, _price, funding, underlying, overCollateral);\n    _loanTradeAmount = MarketLibrary.toDecimalsInt(_loanTradeAmount, ERC20(_loanAddress).decimals());\n    _collateralChange =MarketLibrary.toDecimalsInt(_collateralChange, ERC20(_collateralAddress).decimals());}\n\n  function queryVol(uint256 _tenor) external view returns(uint256){return volatilityChain.getVol(_tenor);}\n  function queryPrice() external view returns(uint256, uint256){return volatilityChain.queryPrice();}\n  function tokenHash() external view returns (bytes32) {return volatilityChain.tokenHash();}\n  function resetOverCollateral(uint256 _overCollateral) external onlyRole(DEFAULT_ADMIN_ROLE) { overCollateral= _overCollateral;}\n}\n",
  "sourcePath": "/Users/mac/Documents/GitHub/moret/contracts/OptionVault.sol",
  "compiler": {
    "name": "solc",
    "version": "0.8.11+commit.d7f03943.Emscripten.clang"
  },
  "schemaVersion": "3.4.3",
  "updatedAt": "2022-01-03T13:19:37.687Z",
  "networkType": "ethereum",
  "devdoc": {
    "kind": "dev",
    "methods": {
      "getRoleAdmin(bytes32)": {
        "details": "Returns the admin role that controls `role`. See {grantRole} and {revokeRole}. To change a role's admin, use {_setRoleAdmin}."
      },
      "grantRole(bytes32,address)": {
        "details": "Grants `role` to `account`. If `account` had not been already granted `role`, emits a {RoleGranted} event. Requirements: - the caller must have ``role``'s admin role."
      },
      "hasRole(bytes32,address)": {
        "details": "Returns `true` if `account` has been granted `role`."
      },
      "renounceRole(bytes32,address)": {
        "details": "Revokes `role` from the calling account. Roles are often managed via {grantRole} and {revokeRole}: this function's purpose is to provide a mechanism for accounts to lose their privileges if they are compromised (such as when a trusted device is misplaced). If the calling account had been revoked `role`, emits a {RoleRevoked} event. Requirements: - the caller must be `account`."
      },
      "revokeRole(bytes32,address)": {
        "details": "Revokes `role` from `account`. If `account` had been granted `role`, emits a {RoleRevoked} event. Requirements: - the caller must have ``role``'s admin role."
      },
      "supportsInterface(bytes4)": {
        "details": "See {IERC165-supportsInterface}."
      }
    },
    "version": 1
  },
  "userdoc": {
    "kind": "user",
    "methods": {},
    "version": 1
  }
}