{
  "contractName": "OptionVault",
  "abi": [
    {
      "inputs": [
        {
          "internalType": "address",
          "name": "_volChainAddress",
          "type": "address"
        }
      ],
      "stateMutability": "nonpayable",
      "type": "constructor"
    },
    {
      "anonymous": false,
      "inputs": [
        {
          "indexed": true,
          "internalType": "bytes32",
          "name": "role",
          "type": "bytes32"
        },
        {
          "indexed": true,
          "internalType": "bytes32",
          "name": "previousAdminRole",
          "type": "bytes32"
        },
        {
          "indexed": true,
          "internalType": "bytes32",
          "name": "newAdminRole",
          "type": "bytes32"
        }
      ],
      "name": "RoleAdminChanged",
      "type": "event"
    },
    {
      "anonymous": false,
      "inputs": [
        {
          "indexed": true,
          "internalType": "bytes32",
          "name": "role",
          "type": "bytes32"
        },
        {
          "indexed": true,
          "internalType": "address",
          "name": "account",
          "type": "address"
        },
        {
          "indexed": true,
          "internalType": "address",
          "name": "sender",
          "type": "address"
        }
      ],
      "name": "RoleGranted",
      "type": "event"
    },
    {
      "anonymous": false,
      "inputs": [
        {
          "indexed": true,
          "internalType": "bytes32",
          "name": "role",
          "type": "bytes32"
        },
        {
          "indexed": true,
          "internalType": "address",
          "name": "account",
          "type": "address"
        },
        {
          "indexed": true,
          "internalType": "address",
          "name": "sender",
          "type": "address"
        }
      ],
      "name": "RoleRevoked",
      "type": "event"
    },
    {
      "inputs": [],
      "name": "ADMIN_ROLE",
      "outputs": [
        {
          "internalType": "bytes32",
          "name": "",
          "type": "bytes32"
        }
      ],
      "stateMutability": "view",
      "type": "function"
    },
    {
      "inputs": [],
      "name": "DEFAULT_ADMIN_ROLE",
      "outputs": [
        {
          "internalType": "bytes32",
          "name": "",
          "type": "bytes32"
        }
      ],
      "stateMutability": "view",
      "type": "function"
    },
    {
      "inputs": [],
      "name": "EXCHANGE_ROLE",
      "outputs": [
        {
          "internalType": "bytes32",
          "name": "",
          "type": "bytes32"
        }
      ],
      "stateMutability": "view",
      "type": "function"
    },
    {
      "inputs": [],
      "name": "deltaRange",
      "outputs": [
        {
          "internalType": "uint256",
          "name": "numerator",
          "type": "uint256"
        },
        {
          "internalType": "uint256",
          "name": "denominator",
          "type": "uint256"
        }
      ],
      "stateMutability": "view",
      "type": "function"
    },
    {
      "inputs": [
        {
          "internalType": "bytes32",
          "name": "role",
          "type": "bytes32"
        }
      ],
      "name": "getRoleAdmin",
      "outputs": [
        {
          "internalType": "bytes32",
          "name": "",
          "type": "bytes32"
        }
      ],
      "stateMutability": "view",
      "type": "function"
    },
    {
      "inputs": [
        {
          "internalType": "bytes32",
          "name": "role",
          "type": "bytes32"
        },
        {
          "internalType": "address",
          "name": "account",
          "type": "address"
        }
      ],
      "name": "grantRole",
      "outputs": [],
      "stateMutability": "nonpayable",
      "type": "function"
    },
    {
      "inputs": [
        {
          "internalType": "bytes32",
          "name": "role",
          "type": "bytes32"
        },
        {
          "internalType": "address",
          "name": "account",
          "type": "address"
        }
      ],
      "name": "hasRole",
      "outputs": [
        {
          "internalType": "bool",
          "name": "",
          "type": "bool"
        }
      ],
      "stateMutability": "view",
      "type": "function"
    },
    {
      "inputs": [],
      "name": "optionCounter",
      "outputs": [
        {
          "internalType": "uint256",
          "name": "",
          "type": "uint256"
        }
      ],
      "stateMutability": "view",
      "type": "function"
    },
    {
      "inputs": [
        {
          "internalType": "bytes32",
          "name": "role",
          "type": "bytes32"
        },
        {
          "internalType": "address",
          "name": "account",
          "type": "address"
        }
      ],
      "name": "renounceRole",
      "outputs": [],
      "stateMutability": "nonpayable",
      "type": "function"
    },
    {
      "inputs": [
        {
          "internalType": "bytes32",
          "name": "role",
          "type": "bytes32"
        },
        {
          "internalType": "address",
          "name": "account",
          "type": "address"
        }
      ],
      "name": "revokeRole",
      "outputs": [],
      "stateMutability": "nonpayable",
      "type": "function"
    },
    {
      "inputs": [
        {
          "internalType": "bytes4",
          "name": "interfaceId",
          "type": "bytes4"
        }
      ],
      "name": "supportsInterface",
      "outputs": [
        {
          "internalType": "bool",
          "name": "",
          "type": "bool"
        }
      ],
      "stateMutability": "view",
      "type": "function"
    },
    {
      "inputs": [],
      "name": "volPremiumFixedAddon",
      "outputs": [
        {
          "internalType": "uint256",
          "name": "numerator",
          "type": "uint256"
        },
        {
          "internalType": "uint256",
          "name": "denominator",
          "type": "uint256"
        }
      ],
      "stateMutability": "view",
      "type": "function"
    },
    {
      "inputs": [],
      "name": "descriptionHash",
      "outputs": [
        {
          "internalType": "bytes32",
          "name": "",
          "type": "bytes32"
        }
      ],
      "stateMutability": "view",
      "type": "function"
    },
    {
      "inputs": [
        {
          "internalType": "uint256",
          "name": "_tenor",
          "type": "uint256"
        },
        {
          "internalType": "uint256",
          "name": "_strike",
          "type": "uint256"
        },
        {
          "internalType": "uint256",
          "name": "_amount",
          "type": "uint256"
        },
        {
          "internalType": "uint256",
          "name": "_vol",
          "type": "uint256"
        },
        {
          "internalType": "enum OptionLibrary.PayoffType",
          "name": "_poType",
          "type": "uint8"
        },
        {
          "internalType": "enum OptionLibrary.OptionSide",
          "name": "_side",
          "type": "uint8"
        }
      ],
      "name": "queryOptionCost",
      "outputs": [
        {
          "internalType": "uint256",
          "name": "_premium",
          "type": "uint256"
        },
        {
          "internalType": "uint256",
          "name": "_cost",
          "type": "uint256"
        }
      ],
      "stateMutability": "view",
      "type": "function"
    },
    {
      "inputs": [
        {
          "internalType": "uint256",
          "name": "_tenor",
          "type": "uint256"
        },
        {
          "internalType": "uint256",
          "name": "_strike",
          "type": "uint256"
        },
        {
          "internalType": "uint256",
          "name": "_amount",
          "type": "uint256"
        },
        {
          "internalType": "enum OptionLibrary.PayoffType",
          "name": "_poType",
          "type": "uint8"
        },
        {
          "internalType": "enum OptionLibrary.OptionSide",
          "name": "_side",
          "type": "uint8"
        },
        {
          "internalType": "uint256",
          "name": "_premium",
          "type": "uint256"
        },
        {
          "internalType": "uint256",
          "name": "_cost",
          "type": "uint256"
        },
        {
          "internalType": "uint256",
          "name": "_price",
          "type": "uint256"
        },
        {
          "internalType": "uint256",
          "name": "_volatility",
          "type": "uint256"
        }
      ],
      "name": "addOption",
      "outputs": [
        {
          "internalType": "uint256",
          "name": "_id",
          "type": "uint256"
        }
      ],
      "stateMutability": "nonpayable",
      "type": "function"
    },
    {
      "inputs": [
        {
          "internalType": "uint256",
          "name": "_id",
          "type": "uint256"
        }
      ],
      "name": "getOptionHolder",
      "outputs": [
        {
          "internalType": "address",
          "name": "",
          "type": "address"
        }
      ],
      "stateMutability": "view",
      "type": "function"
    },
    {
      "inputs": [
        {
          "internalType": "uint256",
          "name": "_id",
          "type": "uint256"
        }
      ],
      "name": "queryOptionPremium",
      "outputs": [
        {
          "internalType": "uint256",
          "name": "",
          "type": "uint256"
        }
      ],
      "stateMutability": "view",
      "type": "function"
    },
    {
      "inputs": [
        {
          "internalType": "uint256",
          "name": "_id",
          "type": "uint256"
        },
        {
          "internalType": "bool",
          "name": "_ignoreSells",
          "type": "bool"
        }
      ],
      "name": "queryOptionNotional",
      "outputs": [
        {
          "internalType": "uint256",
          "name": "_notional",
          "type": "uint256"
        }
      ],
      "stateMutability": "view",
      "type": "function"
    },
    {
      "inputs": [
        {
          "internalType": "uint256",
          "name": "_id",
          "type": "uint256"
        },
        {
          "internalType": "enum OptionLibrary.PayoffType",
          "name": "_poType",
          "type": "uint8"
        }
      ],
      "name": "queryOptionExposure",
      "outputs": [
        {
          "internalType": "uint256",
          "name": "_exposure",
          "type": "uint256"
        }
      ],
      "stateMutability": "view",
      "type": "function"
    },
    {
      "inputs": [
        {
          "internalType": "uint256",
          "name": "_id",
          "type": "uint256"
        }
      ],
      "name": "getContractPayoff",
      "outputs": [
        {
          "internalType": "uint256",
          "name": "_payoff",
          "type": "uint256"
        },
        {
          "internalType": "uint256",
          "name": "_payback",
          "type": "uint256"
        }
      ],
      "stateMutability": "view",
      "type": "function"
    },
    {
      "inputs": [
        {
          "internalType": "uint256",
          "name": "_id",
          "type": "uint256"
        },
        {
          "internalType": "uint256",
          "name": "_price",
          "type": "uint256"
        },
        {
          "internalType": "uint256",
          "name": "_priceMultiplier",
          "type": "uint256"
        },
        {
          "internalType": "bool",
          "name": "_ignoreSells",
          "type": "bool"
        }
      ],
      "name": "calculateContractDelta",
      "outputs": [
        {
          "internalType": "int256",
          "name": "_delta",
          "type": "int256"
        }
      ],
      "stateMutability": "view",
      "type": "function"
    },
    {
      "inputs": [
        {
          "internalType": "uint256",
          "name": "_id",
          "type": "uint256"
        },
        {
          "internalType": "uint256",
          "name": "_price",
          "type": "uint256"
        },
        {
          "internalType": "uint256",
          "name": "_priceMultiplier",
          "type": "uint256"
        },
        {
          "internalType": "bool",
          "name": "_ignoreSells",
          "type": "bool"
        }
      ],
      "name": "calculateContractGamma",
      "outputs": [
        {
          "internalType": "int256",
          "name": "_gamma",
          "type": "int256"
        }
      ],
      "stateMutability": "view",
      "type": "function"
    },
    {
      "inputs": [],
      "name": "calculateSpotGamma",
      "outputs": [
        {
          "internalType": "int256",
          "name": "_gamma",
          "type": "int256"
        }
      ],
      "stateMutability": "view",
      "type": "function"
    },
    {
      "inputs": [
        {
          "internalType": "uint256",
          "name": "_id",
          "type": "uint256"
        }
      ],
      "name": "isOptionExpiring",
      "outputs": [
        {
          "internalType": "bool",
          "name": "",
          "type": "bool"
        }
      ],
      "stateMutability": "view",
      "type": "function"
    },
    {
      "inputs": [
        {
          "internalType": "uint256",
          "name": "_id",
          "type": "uint256"
        }
      ],
      "name": "stampActiveOption",
      "outputs": [],
      "stateMutability": "nonpayable",
      "type": "function"
    },
    {
      "inputs": [
        {
          "internalType": "uint256",
          "name": "_id",
          "type": "uint256"
        }
      ],
      "name": "stampExpiredOption",
      "outputs": [],
      "stateMutability": "nonpayable",
      "type": "function"
    },
    {
      "inputs": [
        {
          "internalType": "uint256",
          "name": "_id",
          "type": "uint256"
        }
      ],
      "name": "getOption",
      "outputs": [
        {
          "components": [
            {
              "internalType": "enum OptionLibrary.PayoffType",
              "name": "poType",
              "type": "uint8"
            },
            {
              "internalType": "enum OptionLibrary.OptionSide",
              "name": "side",
              "type": "uint8"
            },
            {
              "internalType": "enum OptionLibrary.OptionStatus",
              "name": "status",
              "type": "uint8"
            },
            {
              "internalType": "address",
              "name": "holder",
              "type": "address"
            },
            {
              "internalType": "uint256",
              "name": "id",
              "type": "uint256"
            },
            {
              "internalType": "uint256",
              "name": "createTime",
              "type": "uint256"
            },
            {
              "internalType": "uint256",
              "name": "effectiveTime",
              "type": "uint256"
            },
            {
              "internalType": "uint256",
              "name": "tenor",
              "type": "uint256"
            },
            {
              "internalType": "uint256",
              "name": "maturity",
              "type": "uint256"
            },
            {
              "internalType": "uint256",
              "name": "exerciseTime",
              "type": "uint256"
            },
            {
              "internalType": "uint256",
              "name": "amount",
              "type": "uint256"
            },
            {
              "internalType": "uint256",
              "name": "spot",
              "type": "uint256"
            },
            {
              "internalType": "uint256",
              "name": "strike",
              "type": "uint256"
            },
            {
              "internalType": "uint256",
              "name": "volatility",
              "type": "uint256"
            },
            {
              "internalType": "uint256",
              "name": "premium",
              "type": "uint256"
            },
            {
              "internalType": "uint256",
              "name": "cost",
              "type": "uint256"
            }
          ],
          "internalType": "struct OptionLibrary.Option",
          "name": "",
          "type": "tuple"
        }
      ],
      "stateMutability": "view",
      "type": "function"
    },
    {
      "inputs": [
        {
          "internalType": "uint256",
          "name": "_tenor",
          "type": "uint256"
        }
      ],
      "name": "queryVol",
      "outputs": [
        {
          "internalType": "uint256",
          "name": "",
          "type": "uint256"
        }
      ],
      "stateMutability": "view",
      "type": "function"
    },
    {
      "inputs": [],
      "name": "queryPrice",
      "outputs": [
        {
          "internalType": "uint256",
          "name": "",
          "type": "uint256"
        },
        {
          "internalType": "uint256",
          "name": "",
          "type": "uint256"
        },
        {
          "internalType": "uint256",
          "name": "",
          "type": "uint256"
        }
      ],
      "stateMutability": "view",
      "type": "function"
    },
    {
      "inputs": [],
      "name": "priceDecimals",
      "outputs": [
        {
          "internalType": "uint256",
          "name": "",
          "type": "uint256"
        }
      ],
      "stateMutability": "view",
      "type": "function"
    }
  ],
  "bytecode": "0x60806040526000600255670de0b6b3a764000060045560405180604001604052806113888152602001620f42408152506005600082015181600001556020820151816001015550506040518060400160405280620c35008152602001620f42408152506007600082015181600001556020820151816001015550503480156200008757600080fd5b5060405162003b9c38038062003b9c8339818101604052810190620000ad919062000351565b620000c26000801b336200016e60201b60201c565b620000f47fa49807205ce4d355092ef5a8a18f56e8913cf4a201fbe287825b095693c21775336200016e60201b60201c565b620001267f28d62fc77014de57a1bbaa8212ff0979fa61ab00d377b4b8d9762048fb419961336200016e60201b60201c565b80600360006101000a81548173ffffffffffffffffffffffffffffffffffffffff021916908373ffffffffffffffffffffffffffffffffffffffff1602179055505062000383565b6200018082826200018460201b60201c565b5050565b6200019682826200027560201b60201c565b6200027157600160008084815260200190815260200160002060000160008373ffffffffffffffffffffffffffffffffffffffff1673ffffffffffffffffffffffffffffffffffffffff16815260200190815260200160002060006101000a81548160ff02191690831515021790555062000216620002df60201b60201c565b73ffffffffffffffffffffffffffffffffffffffff168173ffffffffffffffffffffffffffffffffffffffff16837f2f8788117e7eff1d82e926ec794901d17c78024a50270940304540a733656f0d60405160405180910390a45b5050565b600080600084815260200190815260200160002060000160008373ffffffffffffffffffffffffffffffffffffffff1673ffffffffffffffffffffffffffffffffffffffff16815260200190815260200160002060009054906101000a900460ff16905092915050565b600033905090565b600080fd5b600073ffffffffffffffffffffffffffffffffffffffff82169050919050565b60006200031982620002ec565b9050919050565b6200032b816200030c565b81146200033757600080fd5b50565b6000815190506200034b8162000320565b92915050565b6000602082840312156200036a5762000369620002e7565b5b60006200037a848285016200033a565b91505092915050565b61380980620003936000396000f3fe608060405234801561001057600080fd5b50600436106101da5760003560e01c8063637baf6011610104578063a217fddf116100a2578063cfc2dc2011610071578063cfc2dc20146105d3578063d547741f14610603578063f7327abd1461061f578063f8a351811461064f576101da565b8063a217fddf14610546578063b0667cf814610564578063b446994414610584578063b9c6600f146105a3576101da565b806385ae10e6116100de57806385ae10e6146104a957806385dcee93146104da57806391d14854146104f85780639bc67cd214610528576101da565b8063637baf601461043f57806369369ab51461045b57806375b238fc1461048b576101da565b8063248a9ca31161017c57806336568abe1161014b57806336568abe146103a45780633b734501146103c057806346047a66146103de578063472d2a4a1461040e576101da565b8063248a9ca31461031d57806328e493c11461034d5780632bd81a0f146103695780632f2ff15d14610388576101da565b8063105df856116101b8578063105df8561461025d578063128734c51461028d5780631a7985ba146102bd5780631ce5e9a6146102ed576101da565b806301ffc9a7146101df57806305300b281461020f5780630aad16ac1461022d575b600080fd5b6101f960048036038101906101f491906125f9565b61066d565b6040516102069190612641565b60405180910390f35b6102176106e7565b6040516102249190612675565b60405180910390f35b610247600480360381019061024291906126e8565b61078e565b6040516102549190612768565b60405180910390f35b61027760048036038101906102729190612783565b610a58565b6040516102849190612675565b60405180910390f35b6102a760048036038101906102a291906127e8565b610ad6565b6040516102b49190612675565b60405180910390f35b6102d760048036038101906102d29190612828565b610b4c565b6040516102e49190612896565b60405180910390f35b61030760048036038101906103029190612828565b610b8c565b6040516103149190612b20565b60405180910390f35b61033760048036038101906103329190612b72565b610d39565b6040516103449190612bae565b60405180910390f35b61036760048036038101906103629190612828565b610d58565b005b610371610e39565b60405161037f929190612bc9565b60405180910390f35b6103a2600480360381019061039d9190612c1e565b610e4b565b005b6103be60048036038101906103b99190612c1e565b610e74565b005b6103c8610ef7565b6040516103d59190612bae565b60405180910390f35b6103f860048036038101906103f39190612828565b610f1b565b6040516104059190612675565b60405180910390f35b61042860048036038101906104239190612c83565b610f3b565b604051610436929190612bc9565b60405180910390f35b61045960048036038101906104549190612828565b6110e1565b005b61047560048036038101906104709190612828565b611171565b6040516104829190612641565b60405180910390f35b6104936111e7565b6040516104a09190612bae565b60405180910390f35b6104c360048036038101906104be9190612828565b61120b565b6040516104d1929190612bc9565b60405180910390f35b6104e26114a6565b6040516104ef9190612bae565b60405180910390f35b610512600480360381019061050d9190612c1e565b611578565b60405161051f9190612641565b60405180910390f35b6105306115e2565b60405161053d9190612768565b60405180910390f35b61054e61172a565b60405161055b9190612bae565b60405180910390f35b61056c611731565b60405161057b93929190612d10565b60405180910390f35b61058c6117e1565b60405161059a929190612bc9565b60405180910390f35b6105bd60048036038101906105b891906126e8565b6117f3565b6040516105ca9190612768565b60405180910390f35b6105ed60048036038101906105e89190612828565b611b3a565b6040516105fa9190612675565b60405180910390f35b61061d60048036038101906106189190612c1e565b611bee565b005b61063960048036038101906106349190612d47565b611c17565b6040516106469190612675565b60405180910390f35b610657611e9d565b6040516106649190612675565b60405180910390f35b60007f7965db0b000000000000000000000000000000000000000000000000000000007bffffffffffffffffffffffffffffffffffffffffffffffffffffffff1916827bffffffffffffffffffffffffffffffffffffffffffffffffffffffff191614806106e057506106df82611ea3565b5b9050919050565b6000600360009054906101000a900473ffffffffffffffffffffffffffffffffffffffff1673ffffffffffffffffffffffffffffffffffffffff16631b30aafc6040518163ffffffff1660e01b815260040160206040518083038186803b15801561075157600080fd5b505afa158015610765573d6000803e3d6000fd5b505050506040513d601f19601f820116820180604052508101906107899190612e26565b905090565b6000600160038111156107a4576107a36128b1565b5b6001600087815260200190815260200160002060000160029054906101000a900460ff1660038111156107da576107d96128b1565b5b148015610837575081801561083557506001808111156107fd576107fc6128b1565b5b6001600087815260200190815260200160002060000160019054906101000a900460ff166001811115610833576108326128b1565b5b145b155b15610a50576000600360009054906101000a900473ffffffffffffffffffffffffffffffffffffffff1673ffffffffffffffffffffffffffffffffffffffff1663040b030f61089c600160008a81526020019081526020016000206005015442611f0d565b600160008a8152602001908152602001600020600501546108bd9190612e82565b6040518263ffffffff1660e01b81526004016108d99190612675565b60206040518083038186803b1580156108f157600080fd5b505afa158015610905573d6000803e3d6000fd5b505050506040513d601f19601f820116820180604052508101906109299190612e26565b90506109f073__OptionLibrary_________________________6350c5e95e87600160008b81526020019081526020016000206009015488866040518563ffffffff1660e01b81526004016109819493929190612ec5565b60206040518083038186803b15801561099957600080fd5b505af41580156109ad573d6000803e3d6000fd5b505050506040513d601f19601f820116820180604052508101906109d19190612e26565b6001600089815260200190815260200160002060070154600454611f26565b9150600180811115610a0557610a046128b1565b5b6001600088815260200190815260200160002060000160019054906101000a900460ff166001811115610a3b57610a3a6128b1565b5b1415610a4e5781610a4b90612f0a565b91505b505b949350505050565b600060016000848152602001908152602001600020600701549050600180811115610a8657610a856128b1565b5b6001600085815260200190815260200160002060000160019054906101000a900460ff166001811115610abc57610abb6128b1565b5b1480610ac6575081155b15610ad057600090505b92915050565b6000816001811115610aeb57610aea6128b1565b5b6001600085815260200190815260200160002060000160009054906101000a900460ff166001811115610b2157610b206128b1565b5b1415610b455760016000848152602001908152602001600020600701549050610b46565b5b92915050565b60006001600083815260200190815260200160002060000160039054906101000a900473ffffffffffffffffffffffffffffffffffffffff169050919050565b610b946124c4565b60016000838152602001908152602001600020604051806102000160405290816000820160009054906101000a900460ff166001811115610bd857610bd76128b1565b5b6001811115610bea57610be96128b1565b5b81526020016000820160019054906101000a900460ff166001811115610c1357610c126128b1565b5b6001811115610c2557610c246128b1565b5b81526020016000820160029054906101000a900460ff166003811115610c4e57610c4d6128b1565b5b6003811115610c6057610c5f6128b1565b5b81526020016000820160039054906101000a900473ffffffffffffffffffffffffffffffffffffffff1673ffffffffffffffffffffffffffffffffffffffff1673ffffffffffffffffffffffffffffffffffffffff168152602001600182015481526020016002820154815260200160038201548152602001600482015481526020016005820154815260200160068201548152602001600782015481526020016008820154815260200160098201548152602001600a8201548152602001600b8201548152602001600c820154815250509050919050565b6000806000838152602001908152602001600020600101549050919050565b7f28d62fc77014de57a1bbaa8212ff0979fa61ab00d377b4b8d9762048fb419961610d8a81610d85612022565b61202a565b42600160008481526020019081526020016000206003018190555060016000838152602001908152602001600020600401546001600084815260200190815260200160002060030154610ddd9190612f53565b6001600084815260200190815260200160002060050181905550600180600084815260200190815260200160002060000160026101000a81548160ff02191690836003811115610e3057610e2f6128b1565b5b02179055505050565b60078060000154908060010154905082565b610e5482610d39565b610e6581610e60612022565b61202a565b610e6f83836120c7565b505050565b610e7c612022565b73ffffffffffffffffffffffffffffffffffffffff168173ffffffffffffffffffffffffffffffffffffffff1614610ee9576040517f08c379a0000000000000000000000000000000000000000000000000000000008152600401610ee09061302c565b60405180910390fd5b610ef382826121a7565b5050565b7f28d62fc77014de57a1bbaa8212ff0979fa61ab00d377b4b8d9762048fb41996181565b600060016000838152602001908152602001600020600b01549050919050565b600080600080600360009054906101000a900473ffffffffffffffffffffffffffffffffffffffff1673ffffffffffffffffffffffffffffffffffffffff1663b0667cf86040518163ffffffff1660e01b815260040160606040518083038186803b158015610fa957600080fd5b505afa158015610fbd573d6000803e3d6000fd5b505050506040513d601f19601f82011682018060405250810190610fe1919061304c565b925050915073__OptionLibrary_________________________6399b0113983898c8a8d876040518763ffffffff1660e01b8152600401611027969594939291906130ae565b60206040518083038186803b15801561103f57600080fd5b505af4158015611053573d6000803e3d6000fd5b505050506040513d601f19601f820116820180604052508101906110779190612e26565b935083925060018081111561108f5761108e6128b1565b5b8560018111156110a2576110a16128b1565b5b14156110d45760006110b5898484611f26565b9050848110156110c457600080fd5b84816110d09190612e82565b9350505b5050965096945050505050565b7f28d62fc77014de57a1bbaa8212ff0979fa61ab00d377b4b8d9762048fb4199616111138161110e612022565b61202a565b42600160008481526020019081526020016000206006018190555060036001600084815260200190815260200160002060000160026101000a81548160ff02191690836003811115611168576111676128b1565b5b02179055505050565b600060016003811115611187576111866128b1565b5b6001600084815260200190815260200160002060000160029054906101000a900460ff1660038111156111bd576111bc6128b1565b5b1480156111e0575042600160008481526020019081526020016000206005015411155b9050919050565b7fa49807205ce4d355092ef5a8a18f56e8913cf4a201fbe287825b095693c2177581565b600080600080600360009054906101000a900473ffffffffffffffffffffffffffffffffffffffff1673ffffffffffffffffffffffffffffffffffffffff1663b0667cf86040518163ffffffff1660e01b815260040160606040518083038186803b15801561127957600080fd5b505afa15801561128d573d6000803e3d6000fd5b505050506040513d601f19601f820116820180604052508101906112b1919061304c565b92505091506001600086815260200190815260200160002073__OptionLibrary_________________________6376150a51909184846040518463ffffffff1660e01b815260040161130593929190613116565b60206040518083038186803b15801561131d57600080fd5b505af4158015611331573d6000803e3d6000fd5b505050506040513d601f19601f820116820180604052508101906113559190612e26565b935083925060018081111561136d5761136c6128b1565b5b6001600087815260200190815260200160002060000160019054906101000a900460ff1660018111156113a3576113a26128b1565b5b141561149f5760006001600087815260200190815260200160002073__OptionLibrary_________________________635bdec428909185856040518463ffffffff1660e01b81526004016113fa93929190613116565b60206040518083038186803b15801561141257600080fd5b505af4158015611426573d6000803e3d6000fd5b505050506040513d601f19601f8201168201806040525081019061144a9190612e26565b90508481101561148f576040517f08c379a000000000000000000000000000000000000000000000000000000000815260040161148690613199565b60405180910390fd5b848161149b9190612e82565b9350505b5050915091565b6000600360009054906101000a900473ffffffffffffffffffffffffffffffffffffffff1673ffffffffffffffffffffffffffffffffffffffff166398de78976040518163ffffffff1660e01b815260040160006040518083038186803b15801561151057600080fd5b505afa158015611524573d6000803e3d6000fd5b505050506040513d6000823e3d601f19601f8201168201806040525081019061154d9190613323565b60405160200161155d91906133b3565b60405160208183030381529060405280519060200120905090565b600080600084815260200190815260200160002060000160008373ffffffffffffffffffffffffffffffffffffffff1673ffffffffffffffffffffffffffffffffffffffff16815260200190815260200160002060009054906101000a900460ff16905092915050565b600080600360009054906101000a900473ffffffffffffffffffffffffffffffffffffffff1673ffffffffffffffffffffffffffffffffffffffff1663040b030f620151806040518263ffffffff1660e01b8152600401611643919061340f565b60206040518083038186803b15801561165b57600080fd5b505afa15801561166f573d6000803e3d6000fd5b505050506040513d601f19601f820116820180604052508101906116939190612e26565b905073__OptionLibrary_________________________6350c5e95e6001806001856040518563ffffffff1660e01b81526004016116d49493929190613465565b60206040518083038186803b1580156116ec57600080fd5b505af4158015611700573d6000803e3d6000fd5b505050506040513d601f19601f820116820180604052508101906117249190612e26565b91505090565b6000801b81565b6000806000600360009054906101000a900473ffffffffffffffffffffffffffffffffffffffff1673ffffffffffffffffffffffffffffffffffffffff1663b0667cf86040518163ffffffff1660e01b815260040160606040518083038186803b15801561179e57600080fd5b505afa1580156117b2573d6000803e3d6000fd5b505050506040513d601f19601f820116820180604052508101906117d6919061304c565b925092509250909192565b60058060000154908060010154905082565b600060016003811115611809576118086128b1565b5b6001600087815260200190815260200160002060000160029054906101000a900460ff16600381111561183f5761183e6128b1565b5b14801561189c575081801561189a5750600180811115611862576118616128b1565b5b6001600087815260200190815260200160002060000160019054906101000a900460ff166001811115611898576118976128b1565b5b145b155b15611b32576000600360009054906101000a900473ffffffffffffffffffffffffffffffffffffffff1673ffffffffffffffffffffffffffffffffffffffff1663040b030f611901600160008a81526020019081526020016000206005015442611f0d565b600160008a8152602001908152602001600020600501546119229190612e82565b6040518263ffffffff1660e01b815260040161193e9190612675565b60206040518083038186803b15801561195657600080fd5b505afa15801561196a573d6000803e3d6000fd5b505050506040513d601f19601f8201168201806040525081019061198e9190612e26565b9050611a5573__OptionLibrary_________________________630cf55f7787600160008b81526020019081526020016000206009015488866040518563ffffffff1660e01b81526004016119e69493929190612ec5565b60206040518083038186803b1580156119fe57600080fd5b505af4158015611a12573d6000803e3d6000fd5b505050506040513d601f19601f82011682018060405250810190611a369190612e26565b6001600089815260200190815260200160002060070154600454611f26565b9150600180811115611a6a57611a696128b1565b5b6001600088815260200190815260200160002060000160009054906101000a900460ff166001811115611aa057611a9f6128b1565b5b1415611ad457816001600088815260200190815260200160002060070154611ac790612f0a565b611ad191906134aa565b91505b600180811115611ae757611ae66128b1565b5b6001600088815260200190815260200160002060000160019054906101000a900460ff166001811115611b1d57611b1c6128b1565b5b1415611b305781611b2d90612f0a565b91505b505b949350505050565b6000600360009054906101000a900473ffffffffffffffffffffffffffffffffffffffff1673ffffffffffffffffffffffffffffffffffffffff1663040b030f836040518263ffffffff1660e01b8152600401611b979190612675565b60206040518083038186803b158015611baf57600080fd5b505afa158015611bc3573d6000803e3d6000fd5b505050506040513d601f19601f82011682018060405250810190611be79190612e26565b9050919050565b611bf782610d39565b611c0881611c03612022565b61202a565b611c1283836121a7565b505050565b60007f28d62fc77014de57a1bbaa8212ff0979fa61ab00d377b4b8d9762048fb419961611c4b81611c46612022565b61202a565b60026000815480929190611c5e9061353e565b91905055506002549150604051806102000160405280896001811115611c8757611c866128b1565b5b8152602001886001811115611c9f57611c9e6128b1565b5b815260200160006003811115611cb857611cb76128b1565b5b81526020013373ffffffffffffffffffffffffffffffffffffffff168152602001838152602001428152602001600081526020018c815260200160008152602001600081526020018a81526020018581526020018b8152602001848152602001878152602001868152506001600084815260200190815260200160002060008201518160000160006101000a81548160ff02191690836001811115611d6057611d5f6128b1565b5b021790555060208201518160000160016101000a81548160ff02191690836001811115611d9057611d8f6128b1565b5b021790555060408201518160000160026101000a81548160ff02191690836003811115611dc057611dbf6128b1565b5b021790555060608201518160000160036101000a81548173ffffffffffffffffffffffffffffffffffffffff021916908373ffffffffffffffffffffffffffffffffffffffff1602179055506080820151816001015560a0820151816002015560c0820151816003015560e08201518160040155610100820151816005015561012082015181600601556101408201518160070155610160820151816008015561018082015181600901556101a082015181600a01556101c082015181600b01556101e082015181600c0155905050509998505050505050505050565b60025481565b60007f01ffc9a7000000000000000000000000000000000000000000000000000000007bffffffffffffffffffffffffffffffffffffffffffffffffffffffff1916827bffffffffffffffffffffffffffffffffffffffffffffffffffffffff1916149050919050565b6000818310611f1c5781611f1e565b825b905092915050565b600080600080198587098587029250828110838203039150506000811415611f615760008411611f5557600080fd5b8382049250505061201b565b808411611f6d57600080fd5b60008486880990508281118203915080830392506000856001877fffffffffffffffffffffffffffffffffffffffffffffffffffffffffffffffff0301169050808604955080840493506001818260000304019050808302841793506000600287600302189050808702600203810290508087026002038102905080870260020381029050808702600203810290508087026002038102905080870260020381029050808502955050505050505b9392505050565b600033905090565b6120348282611578565b6120c3576120598173ffffffffffffffffffffffffffffffffffffffff166014612288565b6120678360001c6020612288565b60405160200161207892919061361f565b6040516020818303038152906040526040517f08c379a00000000000000000000000000000000000000000000000000000000081526004016120ba9190613692565b60405180910390fd5b5050565b6120d18282611578565b6121a357600160008084815260200190815260200160002060000160008373ffffffffffffffffffffffffffffffffffffffff1673ffffffffffffffffffffffffffffffffffffffff16815260200190815260200160002060006101000a81548160ff021916908315150217905550612148612022565b73ffffffffffffffffffffffffffffffffffffffff168173ffffffffffffffffffffffffffffffffffffffff16837f2f8788117e7eff1d82e926ec794901d17c78024a50270940304540a733656f0d60405160405180910390a45b5050565b6121b18282611578565b1561228457600080600084815260200190815260200160002060000160008373ffffffffffffffffffffffffffffffffffffffff1673ffffffffffffffffffffffffffffffffffffffff16815260200190815260200160002060006101000a81548160ff021916908315150217905550612229612022565b73ffffffffffffffffffffffffffffffffffffffff168173ffffffffffffffffffffffffffffffffffffffff16837ff6391f5c32d9c69d2a47ea670b442974b53935d1edc7fd64eb21e047a839171b60405160405180910390a45b5050565b60606000600283600261229b91906136b4565b6122a59190612f53565b67ffffffffffffffff8111156122be576122bd6131d4565b5b6040519080825280601f01601f1916602001820160405280156122f05781602001600182028036833780820191505090505b5090507f3000000000000000000000000000000000000000000000000000000000000000816000815181106123285761232761370e565b5b60200101907effffffffffffffffffffffffffffffffffffffffffffffffffffffffffffff1916908160001a9053507f78000000000000000000000000000000000000000000000000000000000000008160018151811061238c5761238b61370e565b5b60200101907effffffffffffffffffffffffffffffffffffffffffffffffffffffffffffff1916908160001a905350600060018460026123cc91906136b4565b6123d69190612f53565b90505b6001811115612476577f3031323334353637383961626364656600000000000000000000000000000000600f8616601081106124185761241761370e565b5b1a60f81b82828151811061242f5761242e61370e565b5b60200101907effffffffffffffffffffffffffffffffffffffffffffffffffffffffffffff1916908160001a905350600485901c94508061246f9061373d565b90506123d9565b50600084146124ba576040517f08c379a00000000000000000000000000000000000000000000000000000000081526004016124b1906137b3565b60405180910390fd5b8091505092915050565b604051806102000160405280600060018111156124e4576124e36128b1565b5b8152602001600060018111156124fd576124fc6128b1565b5b815260200160006003811115612516576125156128b1565b5b8152602001600073ffffffffffffffffffffffffffffffffffffffff1681526020016000815260200160008152602001600081526020016000815260200160008152602001600081526020016000815260200160008152602001600081526020016000815260200160008152602001600081525090565b6000604051905090565b600080fd5b600080fd5b60007fffffffff0000000000000000000000000000000000000000000000000000000082169050919050565b6125d6816125a1565b81146125e157600080fd5b50565b6000813590506125f3816125cd565b92915050565b60006020828403121561260f5761260e612597565b5b600061261d848285016125e4565b91505092915050565b60008115159050919050565b61263b81612626565b82525050565b60006020820190506126566000830184612632565b92915050565b6000819050919050565b61266f8161265c565b82525050565b600060208201905061268a6000830184612666565b92915050565b6126998161265c565b81146126a457600080fd5b50565b6000813590506126b681612690565b92915050565b6126c581612626565b81146126d057600080fd5b50565b6000813590506126e2816126bc565b92915050565b6000806000806080858703121561270257612701612597565b5b6000612710878288016126a7565b9450506020612721878288016126a7565b9350506040612732878288016126a7565b9250506060612743878288016126d3565b91505092959194509250565b6000819050919050565b6127628161274f565b82525050565b600060208201905061277d6000830184612759565b92915050565b6000806040838503121561279a57612799612597565b5b60006127a8858286016126a7565b92505060206127b9858286016126d3565b9150509250929050565b600281106127d057600080fd5b50565b6000813590506127e2816127c3565b92915050565b600080604083850312156127ff576127fe612597565b5b600061280d858286016126a7565b925050602061281e858286016127d3565b9150509250929050565b60006020828403121561283e5761283d612597565b5b600061284c848285016126a7565b91505092915050565b600073ffffffffffffffffffffffffffffffffffffffff82169050919050565b600061288082612855565b9050919050565b61289081612875565b82525050565b60006020820190506128ab6000830184612887565b92915050565b7f4e487b7100000000000000000000000000000000000000000000000000000000600052602160045260246000fd5b600281106128f1576128f06128b1565b5b50565b6000819050612902826128e0565b919050565b6000612912826128f4565b9050919050565b61292281612907565b82525050565b60028110612939576129386128b1565b5b50565b600081905061294a82612928565b919050565b600061295a8261293c565b9050919050565b61296a8161294f565b82525050565b60048110612981576129806128b1565b5b50565b600081905061299282612970565b919050565b60006129a282612984565b9050919050565b6129b281612997565b82525050565b6129c181612875565b82525050565b6129d08161265c565b82525050565b610200820160008201516129ed6000850182612919565b506020820151612a006020850182612961565b506040820151612a1360408501826129a9565b506060820151612a2660608501826129b8565b506080820151612a3960808501826129c7565b5060a0820151612a4c60a08501826129c7565b5060c0820151612a5f60c08501826129c7565b5060e0820151612a7260e08501826129c7565b50610100820151612a876101008501826129c7565b50610120820151612a9c6101208501826129c7565b50610140820151612ab16101408501826129c7565b50610160820151612ac66101608501826129c7565b50610180820151612adb6101808501826129c7565b506101a0820151612af06101a08501826129c7565b506101c0820151612b056101c08501826129c7565b506101e0820151612b1a6101e08501826129c7565b50505050565b600061020082019050612b3660008301846129d6565b92915050565b6000819050919050565b612b4f81612b3c565b8114612b5a57600080fd5b50565b600081359050612b6c81612b46565b92915050565b600060208284031215612b8857612b87612597565b5b6000612b9684828501612b5d565b91505092915050565b612ba881612b3c565b82525050565b6000602082019050612bc36000830184612b9f565b92915050565b6000604082019050612bde6000830185612666565b612beb6020830184612666565b9392505050565b612bfb81612875565b8114612c0657600080fd5b50565b600081359050612c1881612bf2565b92915050565b60008060408385031215612c3557612c34612597565b5b6000612c4385828601612b5d565b9250506020612c5485828601612c09565b9150509250929050565b60028110612c6b57600080fd5b50565b600081359050612c7d81612c5e565b92915050565b60008060008060008060c08789031215612ca057612c9f612597565b5b6000612cae89828a016126a7565b9650506020612cbf89828a016126a7565b9550506040612cd089828a016126a7565b9450506060612ce189828a016126a7565b9350506080612cf289828a016127d3565b92505060a0612d0389828a01612c6e565b9150509295509295509295565b6000606082019050612d256000830186612666565b612d326020830185612666565b612d3f6040830184612666565b949350505050565b60008060008060008060008060006101208a8c031215612d6a57612d69612597565b5b6000612d788c828d016126a7565b9950506020612d898c828d016126a7565b9850506040612d9a8c828d016126a7565b9750506060612dab8c828d016127d3565b9650506080612dbc8c828d01612c6e565b95505060a0612dcd8c828d016126a7565b94505060c0612dde8c828d016126a7565b93505060e0612def8c828d016126a7565b925050610100612e018c828d016126a7565b9150509295985092959850929598565b600081519050612e2081612690565b92915050565b600060208284031215612e3c57612e3b612597565b5b6000612e4a84828501612e11565b91505092915050565b7f4e487b7100000000000000000000000000000000000000000000000000000000600052601160045260246000fd5b6000612e8d8261265c565b9150612e988361265c565b925082821015612eab57612eaa612e53565b5b828203905092915050565b612ebf8161265c565b82525050565b6000608082019050612eda6000830187612eb6565b612ee76020830186612eb6565b612ef46040830185612eb6565b612f016060830184612eb6565b95945050505050565b6000612f158261274f565b91507f8000000000000000000000000000000000000000000000000000000000000000821415612f4857612f47612e53565b5b816000039050919050565b6000612f5e8261265c565b9150612f698361265c565b9250827fffffffffffffffffffffffffffffffffffffffffffffffffffffffffffffffff03821115612f9e57612f9d612e53565b5b828201905092915050565b600082825260208201905092915050565b7f416363657373436f6e74726f6c3a2063616e206f6e6c792072656e6f756e636560008201527f20726f6c657320666f722073656c660000000000000000000000000000000000602082015250565b6000613016602f83612fa9565b915061302182612fba565b604082019050919050565b6000602082019050818103600083015261304581613009565b9050919050565b60008060006060848603121561306557613064612597565b5b600061307386828701612e11565b935050602061308486828701612e11565b925050604061309586828701612e11565b9150509250925092565b6130a881612907565b82525050565b600060c0820190506130c36000830189612eb6565b6130d06020830188612eb6565b6130dd6040830187612eb6565b6130ea606083018661309f565b6130f76080830185612eb6565b61310460a0830184612eb6565b979650505050505050565b8082525050565b600060608201905061312b600083018661310f565b6131386020830185612eb6565b6131456040830184612eb6565b949350505050565b7f5061796f666620696e636f72726563742e000000000000000000000000000000600082015250565b6000613183601183612fa9565b915061318e8261314d565b602082019050919050565b600060208201905081810360008301526131b281613176565b9050919050565b600080fd5b600080fd5b6000601f19601f8301169050919050565b7f4e487b7100000000000000000000000000000000000000000000000000000000600052604160045260246000fd5b61320c826131c3565b810181811067ffffffffffffffff8211171561322b5761322a6131d4565b5b80604052505050565b600061323e61258d565b905061324a8282613203565b919050565b600067ffffffffffffffff82111561326a576132696131d4565b5b613273826131c3565b9050602081019050919050565b60005b8381101561329e578082015181840152602081019050613283565b838111156132ad576000848401525b50505050565b60006132c66132c18461324f565b613234565b9050828152602081018484840111156132e2576132e16131be565b5b6132ed848285613280565b509392505050565b600082601f83011261330a576133096131b9565b5b815161331a8482602086016132b3565b91505092915050565b60006020828403121561333957613338612597565b5b600082015167ffffffffffffffff8111156133575761335661259c565b5b613363848285016132f5565b91505092915050565b600081519050919050565b600081905092915050565b600061338d8261336c565b6133978185613377565b93506133a7818560208601613280565b80840191505092915050565b60006133bf8284613382565b915081905092915050565b6000819050919050565b6000819050919050565b60006133f96133f46133ef846133ca565b6133d4565b61265c565b9050919050565b613409816133de565b82525050565b60006020820190506134246000830184613400565b92915050565b6000819050919050565b600061344f61344a6134458461342a565b6133d4565b61265c565b9050919050565b61345f81613434565b82525050565b600060808201905061347a6000830187613456565b6134876020830186613456565b6134946040830185613456565b6134a16060830184612eb6565b95945050505050565b60006134b58261274f565b91506134c08361274f565b9250817f7fffffffffffffffffffffffffffffffffffffffffffffffffffffffffffffff038313600083121516156134fb576134fa612e53565b5b817f800000000000000000000000000000000000000000000000000000000000000003831260008312161561353357613532612e53565b5b828201905092915050565b60006135498261265c565b91507fffffffffffffffffffffffffffffffffffffffffffffffffffffffffffffffff82141561357c5761357b612e53565b5b600182019050919050565b7f416363657373436f6e74726f6c3a206163636f756e7420000000000000000000600082015250565b60006135bd601783613377565b91506135c882613587565b601782019050919050565b7f206973206d697373696e6720726f6c6520000000000000000000000000000000600082015250565b6000613609601183613377565b9150613614826135d3565b601182019050919050565b600061362a826135b0565b91506136368285613382565b9150613641826135fc565b915061364d8284613382565b91508190509392505050565b60006136648261336c565b61366e8185612fa9565b935061367e818560208601613280565b613687816131c3565b840191505092915050565b600060208201905081810360008301526136ac8184613659565b905092915050565b60006136bf8261265c565b91506136ca8361265c565b9250817fffffffffffffffffffffffffffffffffffffffffffffffffffffffffffffffff048311821515161561370357613702612e53565b5b828202905092915050565b7f4e487b7100000000000000000000000000000000000000000000000000000000600052603260045260246000fd5b60006137488261265c565b9150600082141561375c5761375b612e53565b5b600182039050919050565b7f537472696e67733a20686578206c656e67746820696e73756666696369656e74600082015250565b600061379d602083612fa9565b91506137a882613767565b602082019050919050565b600060208201905081810360008301526137cc81613790565b905091905056fea26469706673582212204aedf0b4833c48d618b322172ab65d725129340f049cf06e853e335630415e0d64736f6c63430008090033",
  "immutableReferences": {},
  "source": "/**\n * SPDX-License-Identifier: GPL-3.0-or-later\n * Moret\n * Copyright (C) 2021 Moret\n*/\n\npragma solidity 0.8.9;\nimport \"@openzeppelin/contracts/access/AccessControl.sol\";\nimport \"@openzeppelin/contracts/utils/math/Math.sol\";\nimport \"./MoretInterfaces.sol\";\nimport \"./FullMath.sol\";\n\ncontract OptionVault is AccessControl{\n  using OptionLibrary for OptionLibrary.Option;\n\n  bytes32 public constant ADMIN_ROLE = keccak256(\"ADMIN_ROLE\");\n  bytes32 public constant EXCHANGE_ROLE = keccak256(\"EXCHANGE_ROLE\");\n  mapping(uint256=> OptionLibrary.Option) internal optionsList;\n  uint256 public optionCounter = 0;\n\n  IVolatilityChain internal volatilityChain;\n  uint256 internal ethMultiplier = 10 ** 18;\n\n  OptionLibrary.Percent public volPremiumFixedAddon = OptionLibrary.Percent(5 * 10 ** 3, 10 ** 6) ;\n  OptionLibrary.Percent public deltaRange = OptionLibrary.Percent(8 * 10 ** 5, 10 ** 6) ;\n\n  constructor( address _volChainAddress ){\n          _setupRole(DEFAULT_ADMIN_ROLE, msg.sender);\n          _setupRole(ADMIN_ROLE, msg.sender);\n          _setupRole(EXCHANGE_ROLE, msg.sender);\n          volatilityChain = IVolatilityChain(_volChainAddress); }\n  \n  function descriptionHash() external view returns (bytes32)  { return keccak256(abi.encodePacked(volatilityChain.getDecription()));}\n\n  function queryOptionCost(uint256 _tenor, uint256 _strike,uint256 _amount, uint256 _vol, OptionLibrary.PayoffType _poType, OptionLibrary.OptionSide _side) external view returns(uint256 _premium, uint256 _cost) {\n      (uint256 _price,, uint256 _priceMultiplier) = volatilityChain.queryPrice();\n      _premium = OptionLibrary.calcPremium(_price, _vol, _strike, _poType, _amount, _priceMultiplier);\n      _cost = _premium;\n      if(_side == OptionLibrary.OptionSide.Sell){\n        uint256 _notional = MulDiv(_amount, _price,_priceMultiplier);\n        require(_notional>= _premium);\n        _cost = _notional - _premium;}}\n\n    // function calcVolCurve(uint256 _util, uint256 _histoVol, uint256 _accentus) internal view returns (uint256)\n    // {\n    //   if(_accentus < _histoVol)\n    //   {\n    //     return _histoVol;\n    //   }\n    //   return (_util <= ethMultiplier)? (_histoVol + MulDiv(_accentus - _histoVol, _util, ethMultiplier))\n    //     : (_accentus + MulDiv(_accentus - _histoVol, 2 * (_util - ethMultiplier), ethMultiplier));\n    // }\n\n    // function checkVolSkew(uint256 _tenor, uint256 _strike) external view returns (uint256, uint256, uint256)\n    // {\n    //     (uint256 _price,) = volatilityChain.queryPrice();\n    //     (uint256 _volatility, ) = volatilityChain.getVol(_tenor);\n    //     return (_price, _volatility, OptionLibrary.calcVolSkew(_strike, _price, _volatility, volatilityChain.getPriceMultiplier()));\n    // }\n\n  function addOption(uint256 _tenor, uint256 _strike, uint256 _amount, OptionLibrary.PayoffType _poType, OptionLibrary.OptionSide _side, uint256 _premium, uint256 _cost, uint256 _price, uint256 _volatility) external onlyRole(EXCHANGE_ROLE) returns(uint256 _id) {\n    // (uint256 _price,, uint256 _priceMultiplier) = volatilityChain.queryPrice();\n    // (uint256 _volatility, ) = volatilityChain.getVol(_tenor);\n    optionCounter++;\n    _id = optionCounter;\n    optionsList[_id] = OptionLibrary.Option(_poType, _side, OptionLibrary.OptionStatus.Draft, msg.sender, _id, block.timestamp,  0, _tenor, 0,  0, _amount, _price, _strike, _volatility, _premium, _cost);}\n\n    // function queryDraftOptionCost(uint256 _id, bool _inVol) external view returns(uint256)\n    // {\n    //     require(optionsList[_id].status== OptionLibrary.OptionStatus.Draft);\n    //     uint256 _cost = optionsList[_id].getCost(_inVol);\n    //     if(optionsList[_id].side == OptionLibrary.OptionSide.Sell){\n    //       require(_cost<optionsList[_id].amount, \"Sell option premium incorrect.\");\n    //       _cost = optionsList[_id].amount - _cost;\n    //     }\n    //     return _cost;\n    // }\n\n    // function queryDraftOptionFee(uint256 _id) external view returns(uint256)\n    // {\n    //     require(optionsList[_id].status== OptionLibrary.OptionStatus.Draft);\n    //     return optionsList[_id].fee;\n    // }\n\n  function getOptionHolder(uint256 _id) external view returns(address) { return optionsList[_id].holder;}\n  function queryOptionPremium(uint256 _id) external view returns(uint256) {return optionsList[_id].premium;}\n    \n    // function queryOptionCapital(uint256 _id, uint256 _capitalRatio) external view returns(uint256)\n    // {\n    //   require(_capitalRatio<=ethMultiplier, \"CapitalRatio is too big.\");\n    //   uint256 _capital = 0;\n    //   if(optionsList[_id].side==OptionLibrary.OptionSide.Buy)\n    //   {\n    //     _capital=MulDiv(optionsList[_id].amount, _capitalRatio, ethMultiplier) + MulDiv(optionsList[_id].premium, ethMultiplier-_capitalRatio, ethMultiplier);\n    //   }\n    //   return _capital;\n    // }\n\n  function queryOptionNotional(uint256 _id, bool _ignoreSells) external view returns(uint256 _notional){\n    _notional=optionsList[_id].amount;\n    if(optionsList[_id].side==OptionLibrary.OptionSide.Sell || !_ignoreSells){_notional=0;}}\n\n    // function queryOptionCapitalV2(uint256 _amount, uint256 _strike, OptionLibrary.PayoffType _poType, OptionLibrary.OptionSide _side, uint256 _capitalRatio) external view returns(uint256)\n    // {\n    //   require(_capitalRatio<=ethMultiplier, \"CapitalRatio is too big.\");\n    //   uint256 _capital = 0;\n    //   if(_side==OptionLibrary.OptionSide.Buy)\n    //   {\n        \n    //     _capital=MulDiv(_amount, _capitalRatio, ethMultiplier) + MulDiv(calcPayoffValue(_amount, _strike, _poType), ethMultiplier-_capitalRatio, ethMultiplier);\n    //   }\n    //   return _capital;\n    // }\n\n  // function calcPayoffValue(uint256 _amount, uint256 _strike, OptionLibrary.PayoffType _poType) public view returns(uint256) {\n  //   (uint256 _price,,) = volatilityChain.queryPrice();\n  //   uint256 _intrinsicValue = 0;\n  //   if((_poType == OptionLibrary.PayoffType.Call) && (_price > _strike)){ _intrinsicValue = _price - _strike; }\n  //   if((_poType == OptionLibrary.PayoffType.Put) && (_price<_strike)){ _intrinsicValue = _strike - _price;}\n  //   return MulDiv(_intrinsicValue ,  _amount , _price);}\n    \n  function queryOptionExposure(uint256 _id, OptionLibrary.PayoffType _poType) external view returns(uint256 _exposure){\n    _exposure = 0;\n    if(optionsList[_id].poType==_poType){return optionsList[_id].amount;}}\n\n  function getContractPayoff(uint256 _id) external view returns(uint256 _payoff, uint256 _payback){\n    (uint256 _price,, uint256 _priceMultiplier) = volatilityChain.queryPrice();\n    _payoff = optionsList[_id].calcPayoff(_price, _priceMultiplier);\n    _payback = _payoff;\n    if(optionsList[_id].side == OptionLibrary.OptionSide.Sell){ \n      uint256 _notional = optionsList[_id].calcNotionalExposure(_price,_priceMultiplier);\n      require(_notional >= _payoff, \"Payoff incorrect.\");\n      _payback = _notional - _payoff;}}\n\n  function calculateContractDelta(uint256 _id, uint256 _price, uint256 _priceMultiplier, bool _ignoreSells) external view returns(int256 _delta){\n    _delta = 0;\n    if(optionsList[_id].status== OptionLibrary.OptionStatus.Active && !(_ignoreSells && optionsList[_id].side==OptionLibrary.OptionSide.Sell)){\n      uint256 _vol = volatilityChain.getVol(optionsList[_id].maturity - Math.min(optionsList[_id].maturity, block.timestamp));\n      _delta = int256(MulDiv(OptionLibrary.calcDelta(_price, optionsList[_id].strike, _priceMultiplier, _vol), optionsList[_id].amount, ethMultiplier ));\n      if(optionsList[_id].poType==OptionLibrary.PayoffType.Put) {_delta = -int256(optionsList[_id].amount) + _delta; }\n      if(optionsList[_id].side==OptionLibrary.OptionSide.Sell){ _delta = -_delta;}}}\n    \n  function calculateContractGamma(uint256 _id, uint256 _price, uint256 _priceMultiplier, bool _ignoreSells) external view returns(int256 _gamma){\n    _gamma = 0;\n    if(optionsList[_id].status== OptionLibrary.OptionStatus.Active && !(_ignoreSells && optionsList[_id].side==OptionLibrary.OptionSide.Sell)){\n      uint256 _vol = volatilityChain.getVol(optionsList[_id].maturity - Math.min(optionsList[_id].maturity, block.timestamp));\n      _gamma = int256(MulDiv(OptionLibrary.calcGamma(_price, optionsList[_id].strike, _priceMultiplier, _vol), optionsList[_id].amount, ethMultiplier ));\n      if(optionsList[_id].side==OptionLibrary.OptionSide.Sell){ _gamma = -_gamma;}}}\n      \n  function calculateSpotGamma() external view returns(int256 _gamma){\n    uint256 _vol = volatilityChain.getVol(86400);\n    _gamma = int256(OptionLibrary.calcGamma(1, 1, 1, _vol));}\n    \n  // function validateOption(uint256 _id, address _holder) external view {\n  //   require(optionsList[_id].holder== _holder, \"Not the owner.\");\n  //   require(optionsList[_id].maturity >= block.timestamp, \"Option has expired.\");\n  //   require(optionsList[_id].status==OptionLibrary.OptionStatus.Active, \"Not active option.\");}\n\n  function isOptionExpiring(uint256 _id) external view returns (bool){ return (optionsList[_id].status== OptionLibrary.OptionStatus.Active) && (optionsList[_id].maturity <= block.timestamp);}\n\n  function stampActiveOption(uint256 _id) external onlyRole(EXCHANGE_ROLE) {\n    optionsList[_id].effectiveTime = block.timestamp;\n    optionsList[_id].maturity = optionsList[_id].effectiveTime + optionsList[_id].tenor;\n    optionsList[_id].status = OptionLibrary.OptionStatus.Active;}\n\n  // function stampExercisedOption(uint256 _id) external onlyRole(EXCHANGE_ROLE){\n  //     optionsList[_id].exerciseTime = block.timestamp;\n  //     optionsList[_id].status = OptionLibrary.OptionStatus.Exercised;}\n\n  function stampExpiredOption(uint256 _id)  external onlyRole(EXCHANGE_ROLE){\n    optionsList[_id].exerciseTime = block.timestamp;\n    optionsList[_id].status = OptionLibrary.OptionStatus.Expired;}\n\n    function getOption(uint256 _id) external view returns(OptionLibrary.Option memory) {\n        return optionsList[_id];\n    }\n\n    function queryVol(uint256 _tenor) external view returns(uint256){return volatilityChain.getVol(_tenor);}\n    function queryPrice() external view returns(uint256, uint256, uint256){return volatilityChain.queryPrice();}\n    // function priceMultiplier() external view returns (uint256){return volatilityChain.getPriceMultiplier();}\n    function priceDecimals() external view returns(uint256) {return volatilityChain.getPriceDecimals();}\n}\n",
  "sourcePath": "/Users/mac/Documents/GitHub/moret/contracts/OptionVault.sol",
  "compiler": {
    "name": "solc",
    "version": "0.8.9+commit.e5eed63a.Emscripten.clang"
  },
  "schemaVersion": "3.4.3",
  "updatedAt": "2021-10-26T23:07:52.764Z",
  "devdoc": {
    "kind": "dev",
    "methods": {
      "getRoleAdmin(bytes32)": {
        "details": "Returns the admin role that controls `role`. See {grantRole} and {revokeRole}. To change a role's admin, use {_setRoleAdmin}."
      },
      "grantRole(bytes32,address)": {
        "details": "Grants `role` to `account`. If `account` had not been already granted `role`, emits a {RoleGranted} event. Requirements: - the caller must have ``role``'s admin role."
      },
      "hasRole(bytes32,address)": {
        "details": "Returns `true` if `account` has been granted `role`."
      },
      "renounceRole(bytes32,address)": {
        "details": "Revokes `role` from the calling account. Roles are often managed via {grantRole} and {revokeRole}: this function's purpose is to provide a mechanism for accounts to lose their privileges if they are compromised (such as when a trusted device is misplaced). If the calling account had been granted `role`, emits a {RoleRevoked} event. Requirements: - the caller must be `account`."
      },
      "revokeRole(bytes32,address)": {
        "details": "Revokes `role` from `account`. If `account` had been granted `role`, emits a {RoleRevoked} event. Requirements: - the caller must have ``role``'s admin role."
      },
      "supportsInterface(bytes4)": {
        "details": "See {IERC165-supportsInterface}."
      }
    },
    "version": 1
  },
  "userdoc": {
    "kind": "user",
    "methods": {},
    "version": 1
  }
}