{
  "contractName": "OptionLibrary",
  "abi": [
    {
      "inputs": [
        {
          "internalType": "uint256",
          "name": "_strike",
          "type": "uint256"
        },
        {
          "internalType": "uint256",
          "name": "_price",
          "type": "uint256"
        },
        {
          "internalType": "uint256",
          "name": "_amount",
          "type": "uint256"
        },
        {
          "internalType": "enum OptionLibrary.PayoffType",
          "name": "_poType",
          "type": "OptionLibrary.PayoffType"
        }
      ],
      "name": "calcIntrinsicValue",
      "outputs": [
        {
          "internalType": "uint256",
          "name": "",
          "type": "uint256"
        }
      ],
      "stateMutability": "pure",
      "type": "function",
      "constant": true
    },
    {
      "inputs": [
        {
          "internalType": "uint256",
          "name": "_strike",
          "type": "uint256"
        },
        {
          "internalType": "uint256",
          "name": "_price",
          "type": "uint256"
        },
        {
          "internalType": "uint256",
          "name": "_volatility",
          "type": "uint256"
        },
        {
          "internalType": "uint256",
          "name": "_priceMultiplier",
          "type": "uint256"
        }
      ],
      "name": "calcVolSkew",
      "outputs": [
        {
          "internalType": "uint256",
          "name": "",
          "type": "uint256"
        }
      ],
      "stateMutability": "pure",
      "type": "function",
      "constant": true
    },
    {
      "inputs": [
        {
          "internalType": "uint256",
          "name": "_volatility",
          "type": "uint256"
        },
        {
          "internalType": "uint256",
          "name": "_amount",
          "type": "uint256"
        },
        {
          "internalType": "uint256",
          "name": "_priceMultiplier",
          "type": "uint256"
        }
      ],
      "name": "calcTimeValue",
      "outputs": [
        {
          "internalType": "uint256",
          "name": "",
          "type": "uint256"
        }
      ],
      "stateMutability": "pure",
      "type": "function",
      "constant": true
    },
    {
      "inputs": [
        {
          "internalType": "uint256",
          "name": "_price",
          "type": "uint256"
        },
        {
          "internalType": "uint256",
          "name": "_volatility",
          "type": "uint256"
        },
        {
          "internalType": "uint256",
          "name": "_strike",
          "type": "uint256"
        },
        {
          "internalType": "enum OptionLibrary.PayoffType",
          "name": "_poType",
          "type": "OptionLibrary.PayoffType"
        },
        {
          "internalType": "enum OptionLibrary.OptionSide",
          "name": "_side",
          "type": "OptionLibrary.OptionSide"
        },
        {
          "internalType": "uint256",
          "name": "_amount",
          "type": "uint256"
        },
        {
          "internalType": "uint256",
          "name": "_priceMultiplier",
          "type": "uint256"
        }
      ],
      "name": "calcPremium",
      "outputs": [
        {
          "internalType": "uint256",
          "name": "",
          "type": "uint256"
        }
      ],
      "stateMutability": "pure",
      "type": "function",
      "constant": true
    },
    {
      "inputs": [
        {
          "internalType": "uint256",
          "name": "_amount",
          "type": "uint256"
        },
        {
          "components": [
            {
              "internalType": "uint256",
              "name": "numerator",
              "type": "uint256"
            },
            {
              "internalType": "uint256",
              "name": "denominator",
              "type": "uint256"
            }
          ],
          "internalType": "struct OptionLibrary.Percent",
          "name": "_feeAddon",
          "type": "tuple"
        }
      ],
      "name": "calcFee",
      "outputs": [
        {
          "internalType": "uint256",
          "name": "",
          "type": "uint256"
        }
      ],
      "stateMutability": "pure",
      "type": "function",
      "constant": true
    }
  ],
  "bytecode": "0x610c06610053600b82828239805160001a607314610046577f4e487b7100000000000000000000000000000000000000000000000000000000600052600060045260246000fd5b30600052607381538281f3fe73000000000000000000000000000000000000000030146080604052600436106100875760003560e01c80639931896a116100655780639931896a1461011c578063ab3901971461014c578063ae10d55d1461017c578063d2687085146101ac57610087565b8063369995791461008c5780634586fb49146100bc5780635783dddd146100ec575b600080fd5b6100a660048036038101906100a191906106dc565b6101dc565b6040516100b391906108ee565b60405180910390f35b6100d660048036038101906100d191906107d6565b610205565b6040516100e391906108ee565b60405180910390f35b6101066004803603810190610101919061071c565b610293565b60405161011391906108ee565b60405180910390f35b6101366004803603810190610131919061065c565b6102cd565b60405161014391906108ee565b60405180910390f35b61016660048036038101906101619190610878565b61032b565b60405161017391906108ee565b60405180910390f35b6101966004803603810190610191919061076f565b610403565b6040516101a391906108ee565b60405180910390f35b6101c660048036038101906101c1919061069c565b6104b9565b6040516101d391906108ee565b60405180910390f35b600081602001518260000151846101f391906109b5565b6101fd9190610984565b905092915050565b600080610214878a8689610403565b9050600061022e610227898c8c8861032b565b8686610293565b905060018081111561024357610242610af2565b5b86600181111561025657610255610af2565b5b1461026c578082610267919061092e565b610284565b8082866102799190610a0f565b6102839190610a0f565b5b92505050979650505050505050565b6000600a82600486866102a691906109b5565b6102b091906109b5565b6102ba9190610984565b6102c49190610984565b90509392505050565b6000811561030e5782600a0154836008015484600c015485600b01546102f3919061092e565b6102fd91906109b5565b6103079190610984565b9050610325565b82600c015483600b0154610322919061092e565b90505b92915050565b60008083141561033d578290506103fb565b60008486116103625784838761035391906109b5565b61035d9190610984565b61037a565b85838661036f91906109b5565b6103799190610984565b5b90506000600284861161038d578561038f565b845b6103999190610984565b846103a49190610a0f565b90506000818560026103b691906109b5565b6103c09190610a0f565b9050600082866103d09190610a0f565b905083826103de9190610a0f565b87826103ea91906109b5565b6103f49190610984565b9450505050505b949350505050565b600080600090506000600181111561041e5761041d610af2565b5b83600181111561043157610430610af2565b5b14801561043d57508585115b1561045157858561044e9190610a0f565b90505b60018081111561046457610463610af2565b5b83600181111561047757610476610af2565b5b14801561048357508585105b156104975784866104949190610a0f565b90505b8484826104a491906109b5565b6104ae9190610984565b915050949350505050565b60008060009050600060018111156104d4576104d3610af2565b5b8460000160009054906101000a900460ff1660018111156104f8576104f7610af2565b5b1480156105085750836009015483115b156105205783600901548361051d9190610a0f565b90505b60018081111561053357610532610af2565b5b8460000160009054906101000a900460ff16600181111561055757610556610af2565b5b1480156105675750836009015483105b1561057f5782846009015461057c9190610a0f565b90505b8284600701548261059091906109b5565b61059a9190610984565b91505092915050565b6000813590506105b281610b6b565b92915050565b6000813590506105c781610b82565b92915050565b6000813590506105dc81610b92565b92915050565b6000813590506105f181610ba2565b92915050565b60006040828403121561060d5761060c610b50565b5b6106176040610909565b9050600061062784828501610647565b600083015250602061063b84828501610647565b60208301525092915050565b60008135905061065681610bb9565b92915050565b6000806040838503121561067357610672610b55565b5b6000610681858286016105e2565b9250506020610692858286016105a3565b9150509250929050565b600080604083850312156106b3576106b2610b55565b5b60006106c1858286016105e2565b92505060206106d285828601610647565b9150509250929050565b600080606083850312156106f3576106f2610b55565b5b600061070185828601610647565b9250506020610712858286016105f7565b9150509250929050565b60008060006060848603121561073557610734610b55565b5b600061074386828701610647565b935050602061075486828701610647565b925050604061076586828701610647565b9150509250925092565b6000806000806080858703121561078957610788610b55565b5b600061079787828801610647565b94505060206107a887828801610647565b93505060406107b987828801610647565b92505060606107ca878288016105cd565b91505092959194509250565b600080600080600080600060e0888a0312156107f5576107f4610b55565b5b60006108038a828b01610647565b97505060206108148a828b01610647565b96505060406108258a828b01610647565b95505060606108368a828b016105cd565b94505060806108478a828b016105b8565b93505060a06108588a828b01610647565b92505060c06108698a828b01610647565b91505092959891949750929550565b6000806000806080858703121561089257610891610b55565b5b60006108a087828801610647565b94505060206108b187828801610647565b93505060406108c287828801610647565b92505060606108d387828801610647565b91505092959194509250565b6108e881610a59565b82525050565b600060208201905061090360008301846108df565b92915050565b6000610913610924565b905061091f8282610a63565b919050565b6000604051905090565b600061093982610a59565b915061094483610a59565b9250827fffffffffffffffffffffffffffffffffffffffffffffffffffffffffffffffff0382111561097957610978610a94565b5b828201905092915050565b600061098f82610a59565b915061099a83610a59565b9250826109aa576109a9610ac3565b5b828204905092915050565b60006109c082610a59565b91506109cb83610a59565b9250817fffffffffffffffffffffffffffffffffffffffffffffffffffffffffffffffff0483118215151615610a0457610a03610a94565b5b828202905092915050565b6000610a1a82610a59565b9150610a2583610a59565b925082821015610a3857610a37610a94565b5b828203905092915050565b60008115159050919050565b6000819050919050565b6000819050919050565b610a6c82610b5a565b810181811067ffffffffffffffff82111715610a8b57610a8a610b21565b5b80604052505050565b7f4e487b7100000000000000000000000000000000000000000000000000000000600052601160045260246000fd5b7f4e487b7100000000000000000000000000000000000000000000000000000000600052601260045260246000fd5b7f4e487b7100000000000000000000000000000000000000000000000000000000600052602160045260246000fd5b7f4e487b7100000000000000000000000000000000000000000000000000000000600052604160045260246000fd5b600080fd5b600080fd5b6000601f19601f8301169050919050565b610b7481610a43565b8114610b7f57600080fd5b50565b60028110610b8f57600080fd5b50565b60028110610b9f57600080fd5b50565b610bab81610a4f565b8114610bb657600080fd5b50565b610bc281610a59565b8114610bcd57600080fd5b5056fea264697066735822122098afade061bb7ebdc274ec4d843bb25455c2841dc6e3d46c664657525b49920264736f6c63430008070033",
  "immutableReferences": {},
  "source": "/**\n * SPDX-License-Identifier: GPL-3.0-or-later\n * Moret\n * Copyright (C) 2021 Moret\n*/\n\npragma solidity ^0.8.4;\n\n\nlibrary OptionLibrary {\n  enum PayoffType { Call, Put}\n  enum OptionSide{ Buy, Sell}\n  enum OptionStatus { Draft, Active, Exercised, Expired}\n\n  struct Option {\n      PayoffType poType;\n      OptionSide side;\n      OptionStatus status;\n      address holder;\n      uint256 id;\n      uint256 createTime;\n      uint256 effectiveTime;\n      uint256 tenor;\n      uint256 maturity;\n      uint256 exerciseTime;\n\n      uint256 amount;\n      uint256 spot;\n      uint256 strike;\n      uint256 volatility;\n      uint256 premium;\n      uint256 fee;\n  }\n\n  struct Percent{\n    uint256 numerator;\n    uint256 denominator;\n  }\n\n  function calcIntrinsicValue(uint256 _strike, uint256 _price, uint256 _amount, PayoffType _poType) public pure returns(uint256)\n  {\n      uint256 _intrinsicValue = 0;\n\n      if((_poType == PayoffType.Call) && (_price > _strike)){\n        _intrinsicValue = _price - _strike;\n      }\n      if((_poType == PayoffType.Put) && (_price<_strike)){\n        _intrinsicValue = _strike - _price;\n      }\n      return _intrinsicValue * _amount / _price;\n  }\n\n  function calcVolSkew(uint256 _strike, uint256 _price, uint256 _volatility, uint256 _priceMultiplier) public pure returns (uint256)\n  {\n    if(_volatility == 0)\n       return _volatility;\n\n    uint256 _moneyness = _strike > _price? (_price * _priceMultiplier / _strike) : (_strike * _priceMultiplier / _price); // always in (0,1]\n\n    uint256 _midPoint = _priceMultiplier - (_volatility > _priceMultiplier? _priceMultiplier: _volatility) / 2 ; // always in [0.5, 1]\n    uint256 _a = 2 * _priceMultiplier - _midPoint; // always in [1, 1.5]\n    uint256 _b = _priceMultiplier - _midPoint; // always in [0, 0.5]\n\n    return _b * _volatility / (_a - _moneyness);\n  }\n\n  function calcTimeValue(uint _volatility, uint256 _amount, uint256 _priceMultiplier) public pure returns(uint256)\n  {\n      return _amount * _volatility * 4 / _priceMultiplier / 10;\n  }\n\n  function calcPremium(uint256 _price, uint256 _volatility, uint256 _strike, PayoffType _poType, OptionSide _side, uint256 _amount, uint256 _priceMultiplier)\n    public pure returns(uint256){\n      uint256 _intrinsicValue = calcIntrinsicValue(_strike, _price, _amount, _poType);\n      uint256 _timeValue = calcTimeValue(calcVolSkew(_strike, _price, _volatility, _priceMultiplier), _amount, _priceMultiplier);\n\n      return (_side == OptionSide.Sell ? (_amount - _intrinsicValue - _timeValue)  :  (_intrinsicValue + _timeValue ) );\n    }\n\n  function calcFee(uint256 _amount, Percent memory _feeAddon) public pure returns(uint256)\n  {\n      return _amount * _feeAddon.numerator / _feeAddon.denominator;\n  }\n\n  function getCost(Option storage _option, bool _inVol) public view returns(uint256){\n    if(_inVol)\n    {\n      return (_option.premium + _option.fee)  * _option.spot / _option.volatility;\n    }\n    return _option.premium + _option.fee;\n  }\n\n  function calcPayoffValue(Option storage _option, uint256 _price) public view returns(uint256)\n  {\n      uint256 _intrinsicValue = 0;\n\n      if((_option.poType == PayoffType.Call) && (_price > _option.strike)){\n        _intrinsicValue = _price - _option.strike;\n      }\n      if((_option.poType == PayoffType.Put) && (_price<_option.strike)){\n        _intrinsicValue = _option.strike - _price;\n      }\n      return _intrinsicValue * _option.amount / _price;\n  }\n\n}\n",
  "sourcePath": "/Users/mac/Documents/GitHub/moret/contracts/OptionLibrary.sol",
  "compiler": {
    "name": "solc",
    "version": "0.8.7+commit.e28d00a7.Emscripten.clang"
  },
  "schemaVersion": "3.4.3",
  "updatedAt": "2021-09-15T23:09:28.207Z",
  "networkType": "ethereum",
  "devdoc": {
    "kind": "dev",
    "methods": {},
    "version": 1
  },
  "userdoc": {
    "kind": "user",
    "methods": {},
    "version": 1
  }
}