{
  "contractName": "OptionContract",
  "abi": [
    {
      "inputs": [
        {
          "internalType": "address",
          "name": "_chainlinkAddress",
          "type": "address"
        },
        {
          "internalType": "address",
          "name": "_volChainAddress",
          "type": "address"
        }
      ],
      "stateMutability": "nonpayable",
      "type": "constructor"
    },
    {
      "anonymous": false,
      "inputs": [
        {
          "indexed": true,
          "internalType": "bytes32",
          "name": "role",
          "type": "bytes32"
        },
        {
          "indexed": true,
          "internalType": "bytes32",
          "name": "previousAdminRole",
          "type": "bytes32"
        },
        {
          "indexed": true,
          "internalType": "bytes32",
          "name": "newAdminRole",
          "type": "bytes32"
        }
      ],
      "name": "RoleAdminChanged",
      "type": "event"
    },
    {
      "anonymous": false,
      "inputs": [
        {
          "indexed": true,
          "internalType": "bytes32",
          "name": "role",
          "type": "bytes32"
        },
        {
          "indexed": true,
          "internalType": "address",
          "name": "account",
          "type": "address"
        },
        {
          "indexed": true,
          "internalType": "address",
          "name": "sender",
          "type": "address"
        }
      ],
      "name": "RoleGranted",
      "type": "event"
    },
    {
      "anonymous": false,
      "inputs": [
        {
          "indexed": true,
          "internalType": "bytes32",
          "name": "role",
          "type": "bytes32"
        },
        {
          "indexed": true,
          "internalType": "address",
          "name": "account",
          "type": "address"
        },
        {
          "indexed": true,
          "internalType": "address",
          "name": "sender",
          "type": "address"
        }
      ],
      "name": "RoleRevoked",
      "type": "event"
    },
    {
      "anonymous": false,
      "inputs": [
        {
          "indexed": false,
          "internalType": "address",
          "name": "_recipient",
          "type": "address"
        },
        {
          "indexed": false,
          "internalType": "uint256",
          "name": "_mintMPTokenAmount",
          "type": "uint256"
        },
        {
          "indexed": false,
          "internalType": "uint256",
          "name": "_addedValue",
          "type": "uint256"
        }
      ],
      "name": "capitalAdded",
      "type": "event"
    },
    {
      "anonymous": false,
      "inputs": [
        {
          "indexed": false,
          "internalType": "address",
          "name": "_recipient",
          "type": "address"
        },
        {
          "indexed": false,
          "internalType": "uint256",
          "name": "_burnMPTokenAmount",
          "type": "uint256"
        },
        {
          "indexed": false,
          "internalType": "uint256",
          "name": "_withdrawValue",
          "type": "uint256"
        }
      ],
      "name": "capitalWithdrawn",
      "type": "event"
    },
    {
      "anonymous": false,
      "inputs": [],
      "name": "cashSweep",
      "type": "event"
    },
    {
      "anonymous": false,
      "inputs": [
        {
          "indexed": false,
          "internalType": "int256",
          "name": "_underlyingAmount",
          "type": "int256"
        },
        {
          "indexed": false,
          "internalType": "int256",
          "name": "_stableAmount",
          "type": "int256"
        },
        {
          "indexed": false,
          "internalType": "uint256",
          "name": "_transactedPrice",
          "type": "uint256"
        }
      ],
      "name": "hedgePositionUpdated",
      "type": "event"
    },
    {
      "anonymous": false,
      "inputs": [
        {
          "indexed": false,
          "internalType": "uint256",
          "name": "_range",
          "type": "uint256"
        }
      ],
      "name": "newDeltaRange",
      "type": "event"
    },
    {
      "anonymous": false,
      "inputs": [
        {
          "indexed": false,
          "internalType": "uint256",
          "name": "_fee",
          "type": "uint256"
        }
      ],
      "name": "newGovernanceFees",
      "type": "event"
    },
    {
      "anonymous": false,
      "inputs": [
        {
          "components": [
            {
              "internalType": "enum IOption.PayoffType",
              "name": "poType",
              "type": "uint8"
            },
            {
              "internalType": "address",
              "name": "holder",
              "type": "address"
            },
            {
              "internalType": "enum IOption.OptionStatus",
              "name": "status",
              "type": "uint8"
            },
            {
              "internalType": "uint256",
              "name": "id",
              "type": "uint256"
            },
            {
              "internalType": "uint256",
              "name": "createTime",
              "type": "uint256"
            },
            {
              "internalType": "uint256",
              "name": "effectiveTime",
              "type": "uint256"
            },
            {
              "internalType": "uint256",
              "name": "tenor",
              "type": "uint256"
            },
            {
              "internalType": "uint256",
              "name": "exerciseTime",
              "type": "uint256"
            },
            {
              "internalType": "uint256",
              "name": "amount",
              "type": "uint256"
            },
            {
              "internalType": "uint256",
              "name": "spot",
              "type": "uint256"
            },
            {
              "internalType": "uint256",
              "name": "strike",
              "type": "uint256"
            },
            {
              "internalType": "uint256",
              "name": "volatility",
              "type": "uint256"
            },
            {
              "internalType": "uint256",
              "name": "premium",
              "type": "uint256"
            },
            {
              "internalType": "uint256",
              "name": "fee",
              "type": "uint256"
            }
          ],
          "indexed": false,
          "internalType": "struct IOption.Option",
          "name": "_newOption",
          "type": "tuple"
        }
      ],
      "name": "newOptionBought",
      "type": "event"
    },
    {
      "anonymous": false,
      "inputs": [
        {
          "components": [
            {
              "internalType": "enum IOption.PayoffType",
              "name": "poType",
              "type": "uint8"
            },
            {
              "internalType": "address",
              "name": "holder",
              "type": "address"
            },
            {
              "internalType": "enum IOption.OptionStatus",
              "name": "status",
              "type": "uint8"
            },
            {
              "internalType": "uint256",
              "name": "id",
              "type": "uint256"
            },
            {
              "internalType": "uint256",
              "name": "createTime",
              "type": "uint256"
            },
            {
              "internalType": "uint256",
              "name": "effectiveTime",
              "type": "uint256"
            },
            {
              "internalType": "uint256",
              "name": "tenor",
              "type": "uint256"
            },
            {
              "internalType": "uint256",
              "name": "exerciseTime",
              "type": "uint256"
            },
            {
              "internalType": "uint256",
              "name": "amount",
              "type": "uint256"
            },
            {
              "internalType": "uint256",
              "name": "spot",
              "type": "uint256"
            },
            {
              "internalType": "uint256",
              "name": "strike",
              "type": "uint256"
            },
            {
              "internalType": "uint256",
              "name": "volatility",
              "type": "uint256"
            },
            {
              "internalType": "uint256",
              "name": "premium",
              "type": "uint256"
            },
            {
              "internalType": "uint256",
              "name": "fee",
              "type": "uint256"
            }
          ],
          "indexed": false,
          "internalType": "struct IOption.Option",
          "name": "_newOption",
          "type": "tuple"
        }
      ],
      "name": "newOptionCreated",
      "type": "event"
    },
    {
      "anonymous": false,
      "inputs": [
        {
          "indexed": false,
          "internalType": "uint256",
          "name": "_tenor",
          "type": "uint256"
        }
      ],
      "name": "newTenor",
      "type": "event"
    },
    {
      "anonymous": false,
      "inputs": [
        {
          "indexed": false,
          "internalType": "uint24",
          "name": "_fee",
          "type": "uint24"
        }
      ],
      "name": "newUniswapFees",
      "type": "event"
    },
    {
      "anonymous": false,
      "inputs": [
        {
          "indexed": false,
          "internalType": "address",
          "name": "_tokenAddress",
          "type": "address"
        }
      ],
      "name": "newVolatilityToken",
      "type": "event"
    },
    {
      "anonymous": false,
      "inputs": [
        {
          "components": [
            {
              "internalType": "enum IOption.PayoffType",
              "name": "poType",
              "type": "uint8"
            },
            {
              "internalType": "address",
              "name": "holder",
              "type": "address"
            },
            {
              "internalType": "enum IOption.OptionStatus",
              "name": "status",
              "type": "uint8"
            },
            {
              "internalType": "uint256",
              "name": "id",
              "type": "uint256"
            },
            {
              "internalType": "uint256",
              "name": "createTime",
              "type": "uint256"
            },
            {
              "internalType": "uint256",
              "name": "effectiveTime",
              "type": "uint256"
            },
            {
              "internalType": "uint256",
              "name": "tenor",
              "type": "uint256"
            },
            {
              "internalType": "uint256",
              "name": "exerciseTime",
              "type": "uint256"
            },
            {
              "internalType": "uint256",
              "name": "amount",
              "type": "uint256"
            },
            {
              "internalType": "uint256",
              "name": "spot",
              "type": "uint256"
            },
            {
              "internalType": "uint256",
              "name": "strike",
              "type": "uint256"
            },
            {
              "internalType": "uint256",
              "name": "volatility",
              "type": "uint256"
            },
            {
              "internalType": "uint256",
              "name": "premium",
              "type": "uint256"
            },
            {
              "internalType": "uint256",
              "name": "fee",
              "type": "uint256"
            }
          ],
          "indexed": false,
          "internalType": "struct IOption.Option",
          "name": "_option",
          "type": "tuple"
        }
      ],
      "name": "optionExercised",
      "type": "event"
    },
    {
      "anonymous": false,
      "inputs": [
        {
          "indexed": false,
          "internalType": "uint256",
          "name": "_tokenAmount",
          "type": "uint256"
        }
      ],
      "name": "volTokenRecycled",
      "type": "event"
    },
    {
      "inputs": [],
      "name": "ADMIN_ROLE",
      "outputs": [
        {
          "internalType": "bytes32",
          "name": "",
          "type": "bytes32"
        }
      ],
      "stateMutability": "view",
      "type": "function"
    },
    {
      "inputs": [],
      "name": "DEFAULT_ADMIN_ROLE",
      "outputs": [
        {
          "internalType": "bytes32",
          "name": "",
          "type": "bytes32"
        }
      ],
      "stateMutability": "view",
      "type": "function"
    },
    {
      "inputs": [],
      "name": "MARKET_MAKER_ROLE",
      "outputs": [
        {
          "internalType": "bytes32",
          "name": "",
          "type": "bytes32"
        }
      ],
      "stateMutability": "view",
      "type": "function"
    },
    {
      "inputs": [],
      "name": "deltaRange",
      "outputs": [
        {
          "internalType": "uint256",
          "name": "numerator",
          "type": "uint256"
        },
        {
          "internalType": "uint256",
          "name": "denominator",
          "type": "uint256"
        }
      ],
      "stateMutability": "view",
      "type": "function"
    },
    {
      "inputs": [
        {
          "internalType": "bytes32",
          "name": "role",
          "type": "bytes32"
        }
      ],
      "name": "getRoleAdmin",
      "outputs": [
        {
          "internalType": "bytes32",
          "name": "",
          "type": "bytes32"
        }
      ],
      "stateMutability": "view",
      "type": "function"
    },
    {
      "inputs": [
        {
          "internalType": "bytes32",
          "name": "role",
          "type": "bytes32"
        },
        {
          "internalType": "address",
          "name": "account",
          "type": "address"
        }
      ],
      "name": "grantRole",
      "outputs": [],
      "stateMutability": "nonpayable",
      "type": "function"
    },
    {
      "inputs": [
        {
          "internalType": "bytes32",
          "name": "role",
          "type": "bytes32"
        },
        {
          "internalType": "address",
          "name": "account",
          "type": "address"
        }
      ],
      "name": "hasRole",
      "outputs": [
        {
          "internalType": "bool",
          "name": "",
          "type": "bool"
        }
      ],
      "stateMutability": "view",
      "type": "function"
    },
    {
      "inputs": [],
      "name": "optionCounter",
      "outputs": [
        {
          "internalType": "uint256",
          "name": "",
          "type": "uint256"
        }
      ],
      "stateMutability": "view",
      "type": "function"
    },
    {
      "inputs": [],
      "name": "priceDecimals",
      "outputs": [
        {
          "internalType": "uint256",
          "name": "",
          "type": "uint256"
        }
      ],
      "stateMutability": "view",
      "type": "function"
    },
    {
      "inputs": [],
      "name": "priceMultiplier",
      "outputs": [
        {
          "internalType": "uint256",
          "name": "",
          "type": "uint256"
        }
      ],
      "stateMutability": "view",
      "type": "function"
    },
    {
      "inputs": [
        {
          "internalType": "bytes32",
          "name": "role",
          "type": "bytes32"
        },
        {
          "internalType": "address",
          "name": "account",
          "type": "address"
        }
      ],
      "name": "renounceRole",
      "outputs": [],
      "stateMutability": "nonpayable",
      "type": "function"
    },
    {
      "inputs": [
        {
          "internalType": "bytes32",
          "name": "role",
          "type": "bytes32"
        },
        {
          "internalType": "address",
          "name": "account",
          "type": "address"
        }
      ],
      "name": "revokeRole",
      "outputs": [],
      "stateMutability": "nonpayable",
      "type": "function"
    },
    {
      "inputs": [
        {
          "internalType": "bytes4",
          "name": "interfaceId",
          "type": "bytes4"
        }
      ],
      "name": "supportsInterface",
      "outputs": [
        {
          "internalType": "bool",
          "name": "",
          "type": "bool"
        }
      ],
      "stateMutability": "view",
      "type": "function"
    },
    {
      "inputs": [],
      "name": "volPremiumFixedAddon",
      "outputs": [
        {
          "internalType": "uint256",
          "name": "numerator",
          "type": "uint256"
        },
        {
          "internalType": "uint256",
          "name": "denominator",
          "type": "uint256"
        }
      ],
      "stateMutability": "view",
      "type": "function"
    },
    {
      "inputs": [],
      "name": "descriptionHash",
      "outputs": [
        {
          "internalType": "bytes32",
          "name": "",
          "type": "bytes32"
        }
      ],
      "stateMutability": "view",
      "type": "function"
    },
    {
      "inputs": [
        {
          "internalType": "uint256",
          "name": "_tenor",
          "type": "uint256"
        }
      ],
      "name": "addTenor",
      "outputs": [],
      "stateMutability": "nonpayable",
      "type": "function"
    },
    {
      "inputs": [
        {
          "internalType": "uint256",
          "name": "_tenor",
          "type": "uint256"
        }
      ],
      "name": "removeTenor",
      "outputs": [],
      "stateMutability": "nonpayable",
      "type": "function"
    },
    {
      "inputs": [
        {
          "internalType": "uint256",
          "name": "_tenor",
          "type": "uint256"
        }
      ],
      "name": "containsTenor",
      "outputs": [
        {
          "internalType": "bool",
          "name": "",
          "type": "bool"
        }
      ],
      "stateMutability": "view",
      "type": "function"
    },
    {
      "inputs": [
        {
          "internalType": "address",
          "name": "_adr",
          "type": "address"
        }
      ],
      "name": "addMarketMaker",
      "outputs": [],
      "stateMutability": "nonpayable",
      "type": "function"
    },
    {
      "inputs": [
        {
          "internalType": "address",
          "name": "_adr",
          "type": "address"
        }
      ],
      "name": "removeMarketMaker",
      "outputs": [],
      "stateMutability": "nonpayable",
      "type": "function"
    },
    {
      "inputs": [],
      "name": "queryPrice",
      "outputs": [
        {
          "internalType": "uint256",
          "name": "",
          "type": "uint256"
        },
        {
          "internalType": "uint256",
          "name": "",
          "type": "uint256"
        }
      ],
      "stateMutability": "view",
      "type": "function"
    },
    {
      "inputs": [
        {
          "internalType": "uint256",
          "name": "_tenor",
          "type": "uint256"
        }
      ],
      "name": "queryVol",
      "outputs": [
        {
          "internalType": "uint256",
          "name": "",
          "type": "uint256"
        }
      ],
      "stateMutability": "view",
      "type": "function"
    },
    {
      "inputs": [
        {
          "internalType": "uint256",
          "name": "_tenor",
          "type": "uint256"
        },
        {
          "internalType": "uint256",
          "name": "_strike",
          "type": "uint256"
        },
        {
          "internalType": "enum IOption.PayoffType",
          "name": "_poType",
          "type": "uint8"
        },
        {
          "internalType": "uint256",
          "name": "_amount",
          "type": "uint256"
        },
        {
          "internalType": "uint256",
          "name": "_fee",
          "type": "uint256"
        },
        {
          "internalType": "uint256",
          "name": "_feeDenomninator",
          "type": "uint256"
        },
        {
          "internalType": "uint256",
          "name": "_volAddon",
          "type": "uint256"
        },
        {
          "internalType": "uint256",
          "name": "_volAddonDenominator",
          "type": "uint256"
        }
      ],
      "name": "queryOptionCost",
      "outputs": [
        {
          "internalType": "uint256",
          "name": "",
          "type": "uint256"
        },
        {
          "internalType": "uint256",
          "name": "",
          "type": "uint256"
        }
      ],
      "stateMutability": "view",
      "type": "function"
    },
    {
      "inputs": [
        {
          "internalType": "uint256",
          "name": "_price",
          "type": "uint256"
        },
        {
          "internalType": "uint256",
          "name": "_volatility",
          "type": "uint256"
        },
        {
          "internalType": "uint256",
          "name": "_strike",
          "type": "uint256"
        },
        {
          "internalType": "enum IOption.PayoffType",
          "name": "_poType",
          "type": "uint8"
        },
        {
          "internalType": "uint256",
          "name": "_amount",
          "type": "uint256"
        },
        {
          "internalType": "uint256",
          "name": "_volAddon",
          "type": "uint256"
        },
        {
          "internalType": "uint256",
          "name": "_volAddonDenominator",
          "type": "uint256"
        }
      ],
      "name": "calcPremium",
      "outputs": [
        {
          "internalType": "uint256",
          "name": "",
          "type": "uint256"
        }
      ],
      "stateMutability": "view",
      "type": "function"
    },
    {
      "inputs": [
        {
          "internalType": "uint256",
          "name": "_strike",
          "type": "uint256"
        },
        {
          "internalType": "uint256",
          "name": "_price",
          "type": "uint256"
        },
        {
          "internalType": "enum IOption.PayoffType",
          "name": "_poType",
          "type": "uint8"
        }
      ],
      "name": "calcIntrinsicValue",
      "outputs": [
        {
          "internalType": "uint256",
          "name": "",
          "type": "uint256"
        }
      ],
      "stateMutability": "pure",
      "type": "function"
    },
    {
      "inputs": [
        {
          "internalType": "uint256",
          "name": "_price",
          "type": "uint256"
        },
        {
          "internalType": "uint256",
          "name": "_volatility",
          "type": "uint256"
        }
      ],
      "name": "calcTimeValue",
      "outputs": [
        {
          "internalType": "uint256",
          "name": "",
          "type": "uint256"
        }
      ],
      "stateMutability": "view",
      "type": "function"
    },
    {
      "inputs": [
        {
          "internalType": "uint256",
          "name": "_amount",
          "type": "uint256"
        },
        {
          "internalType": "uint256",
          "name": "_fee",
          "type": "uint256"
        },
        {
          "internalType": "uint256",
          "name": "_feeDenominator",
          "type": "uint256"
        }
      ],
      "name": "calcFee",
      "outputs": [
        {
          "internalType": "uint256",
          "name": "",
          "type": "uint256"
        }
      ],
      "stateMutability": "pure",
      "type": "function"
    },
    {
      "inputs": [
        {
          "internalType": "uint256",
          "name": "_tenor",
          "type": "uint256"
        },
        {
          "internalType": "uint256",
          "name": "_strike",
          "type": "uint256"
        },
        {
          "internalType": "enum IOption.PayoffType",
          "name": "_poType",
          "type": "uint8"
        },
        {
          "internalType": "uint256",
          "name": "_amount",
          "type": "uint256"
        },
        {
          "internalType": "uint256",
          "name": "_premium",
          "type": "uint256"
        },
        {
          "internalType": "uint256",
          "name": "_fee",
          "type": "uint256"
        }
      ],
      "name": "addOption",
      "outputs": [
        {
          "internalType": "uint256",
          "name": "",
          "type": "uint256"
        }
      ],
      "stateMutability": "nonpayable",
      "type": "function"
    },
    {
      "inputs": [
        {
          "internalType": "uint256",
          "name": "_id",
          "type": "uint256"
        },
        {
          "internalType": "bool",
          "name": "_inVol",
          "type": "bool"
        }
      ],
      "name": "queryDraftOptionCost",
      "outputs": [
        {
          "internalType": "uint256",
          "name": "",
          "type": "uint256"
        }
      ],
      "stateMutability": "view",
      "type": "function"
    },
    {
      "inputs": [
        {
          "internalType": "uint256",
          "name": "_id",
          "type": "uint256"
        }
      ],
      "name": "queryDraftOptionFee",
      "outputs": [
        {
          "internalType": "uint256",
          "name": "",
          "type": "uint256"
        }
      ],
      "stateMutability": "view",
      "type": "function"
    },
    {
      "inputs": [
        {
          "internalType": "uint256",
          "name": "_id",
          "type": "uint256"
        }
      ],
      "name": "queryOptionPremium",
      "outputs": [
        {
          "internalType": "uint256",
          "name": "",
          "type": "uint256"
        }
      ],
      "stateMutability": "view",
      "type": "function"
    },
    {
      "inputs": [
        {
          "internalType": "uint256",
          "name": "_id",
          "type": "uint256"
        },
        {
          "internalType": "enum IOption.PayoffType",
          "name": "_poType",
          "type": "uint8"
        }
      ],
      "name": "queryOptionExposure",
      "outputs": [
        {
          "internalType": "uint256",
          "name": "",
          "type": "uint256"
        }
      ],
      "stateMutability": "view",
      "type": "function"
    },
    {
      "inputs": [
        {
          "internalType": "uint256",
          "name": "_id",
          "type": "uint256"
        }
      ],
      "name": "getOptionPayoffValue",
      "outputs": [
        {
          "internalType": "uint256",
          "name": "",
          "type": "uint256"
        }
      ],
      "stateMutability": "view",
      "type": "function"
    },
    {
      "inputs": [
        {
          "internalType": "uint256",
          "name": "_id",
          "type": "uint256"
        }
      ],
      "name": "getOptionHolder",
      "outputs": [
        {
          "internalType": "address payable",
          "name": "",
          "type": "address"
        }
      ],
      "stateMutability": "view",
      "type": "function"
    },
    {
      "inputs": [
        {
          "internalType": "uint256",
          "name": "_id",
          "type": "uint256"
        }
      ],
      "name": "calculateContractDelta",
      "outputs": [
        {
          "internalType": "int256",
          "name": "",
          "type": "int256"
        }
      ],
      "stateMutability": "view",
      "type": "function"
    },
    {
      "inputs": [
        {
          "internalType": "uint256",
          "name": "_id",
          "type": "uint256"
        },
        {
          "internalType": "address",
          "name": "_holder",
          "type": "address"
        }
      ],
      "name": "validateOption",
      "outputs": [],
      "stateMutability": "view",
      "type": "function"
    },
    {
      "inputs": [
        {
          "internalType": "uint256",
          "name": "_id",
          "type": "uint256"
        }
      ],
      "name": "isOptionExpiring",
      "outputs": [
        {
          "internalType": "bool",
          "name": "",
          "type": "bool"
        }
      ],
      "stateMutability": "view",
      "type": "function"
    },
    {
      "inputs": [
        {
          "internalType": "uint256",
          "name": "_id",
          "type": "uint256"
        }
      ],
      "name": "stampActiveOption",
      "outputs": [],
      "stateMutability": "nonpayable",
      "type": "function"
    },
    {
      "inputs": [
        {
          "internalType": "uint256",
          "name": "_id",
          "type": "uint256"
        }
      ],
      "name": "stampExercisedOption",
      "outputs": [],
      "stateMutability": "nonpayable",
      "type": "function"
    },
    {
      "inputs": [
        {
          "internalType": "uint256",
          "name": "_id",
          "type": "uint256"
        }
      ],
      "name": "stampExpiredOption",
      "outputs": [],
      "stateMutability": "nonpayable",
      "type": "function"
    },
    {
      "inputs": [
        {
          "internalType": "uint256",
          "name": "_id",
          "type": "uint256"
        }
      ],
      "name": "getOption",
      "outputs": [
        {
          "components": [
            {
              "internalType": "enum IOption.PayoffType",
              "name": "poType",
              "type": "uint8"
            },
            {
              "internalType": "address",
              "name": "holder",
              "type": "address"
            },
            {
              "internalType": "enum IOption.OptionStatus",
              "name": "status",
              "type": "uint8"
            },
            {
              "internalType": "uint256",
              "name": "id",
              "type": "uint256"
            },
            {
              "internalType": "uint256",
              "name": "createTime",
              "type": "uint256"
            },
            {
              "internalType": "uint256",
              "name": "effectiveTime",
              "type": "uint256"
            },
            {
              "internalType": "uint256",
              "name": "tenor",
              "type": "uint256"
            },
            {
              "internalType": "uint256",
              "name": "exerciseTime",
              "type": "uint256"
            },
            {
              "internalType": "uint256",
              "name": "amount",
              "type": "uint256"
            },
            {
              "internalType": "uint256",
              "name": "spot",
              "type": "uint256"
            },
            {
              "internalType": "uint256",
              "name": "strike",
              "type": "uint256"
            },
            {
              "internalType": "uint256",
              "name": "volatility",
              "type": "uint256"
            },
            {
              "internalType": "uint256",
              "name": "premium",
              "type": "uint256"
            },
            {
              "internalType": "uint256",
              "name": "fee",
              "type": "uint256"
            }
          ],
          "internalType": "struct IOption.Option",
          "name": "",
          "type": "tuple"
        }
      ],
      "stateMutability": "view",
      "type": "function"
    }
  ],
  "bytecode": "0x60806040526000600255620f424060095560405180604001604052806113888152602001620f4240815250600c600082015181600001556020820151816001015550506040518060400160405280620c35008152602001620f4240815250600e600082015181600001556020820151816001015550503480156200008257600080fd5b50604051620049ad380380620049ad8339818101604052810190620000a89190620004df565b620000da7fa49807205ce4d355092ef5a8a18f56e8913cf4a201fbe287825b095693c21775336200027960201b60201c565b6200010c7f75e5bf8b7de9fd9f24c97951733c6410a040b7a07b543096cb36c6dda365aa8b336200027960201b60201c565b81600360006101000a81548173ffffffffffffffffffffffffffffffffffffffff021916908373ffffffffffffffffffffffffffffffffffffffff16021790555080600460006101000a81548173ffffffffffffffffffffffffffffffffffffffff021916908373ffffffffffffffffffffffffffffffffffffffff160217905550600360009054906101000a900473ffffffffffffffffffffffffffffffffffffffff1673ffffffffffffffffffffffffffffffffffffffff1663313ce5676040518163ffffffff1660e01b815260040160206040518083038186803b158015620001f757600080fd5b505afa1580156200020c573d6000803e3d6000fd5b505050506040513d601f19601f8201168201806040525081019062000232919062000526565b60ff16600881905550600854600a6200024c9190620005b3565b6007819055506200027062015180600a6200028f60201b620021ce1790919060201c565b505050620007b0565b6200028b8282620002b160201b60201c565b5050565b6000620002a9836000018360001b620003a260201b60201c565b905092915050565b620002c382826200041c60201b60201c565b6200039e57600160008084815260200190815260200160002060000160008373ffffffffffffffffffffffffffffffffffffffff1673ffffffffffffffffffffffffffffffffffffffff16815260200190815260200160002060006101000a81548160ff021916908315150217905550620003436200048660201b60201c565b73ffffffffffffffffffffffffffffffffffffffff168173ffffffffffffffffffffffffffffffffffffffff16837f2f8788117e7eff1d82e926ec794901d17c78024a50270940304540a733656f0d60405160405180910390a45b5050565b6000620003b683836200048e60201b60201c565b6200041157826000018290806001815401808255809150506001900390600052602060002001600090919091909150558260000180549050836001016000848152602001908152602001600020819055506001905062000416565b600090505b92915050565b600080600084815260200190815260200160002060000160008373ffffffffffffffffffffffffffffffffffffffff1673ffffffffffffffffffffffffffffffffffffffff16815260200190815260200160002060009054906101000a900460ff16905092915050565b600033905090565b600080836001016000848152602001908152602001600020541415905092915050565b600081519050620004c2816200077c565b92915050565b600081519050620004d98162000796565b92915050565b60008060408385031215620004f957620004f86200076a565b5b60006200050985828601620004b1565b92505060206200051c85828601620004b1565b9150509250929050565b6000602082840312156200053f576200053e6200076a565b5b60006200054f84828501620004c8565b91505092915050565b6000808291508390505b6001851115620005aa578086048111156200058257620005816200073b565b5b6001851615620005925780820291505b8081029050620005a2856200076f565b945062000562565b94509492505050565b6000620005c08262000724565b9150620005cd8362000724565b9250620005fc7fffffffffffffffffffffffffffffffffffffffffffffffffffffffffffffffff848462000604565b905092915050565b600082620006165760019050620006e9565b81620006265760009050620006e9565b81600181146200063f57600281146200064a5762000680565b6001915050620006e9565b60ff8411156200065f576200065e6200073b565b5b8360020a9150848211156200067957620006786200073b565b5b50620006e9565b5060208310610133831016604e8410600b8410161715620006ba5782820a905083811115620006b457620006b36200073b565b5b620006e9565b620006c9848484600162000558565b92509050818404811115620006e357620006e26200073b565b5b81810290505b9392505050565b6000620006fd8262000704565b9050919050565b600073ffffffffffffffffffffffffffffffffffffffff82169050919050565b6000819050919050565b600060ff82169050919050565b7f4e487b7100000000000000000000000000000000000000000000000000000000600052601160045260246000fd5b600080fd5b60008160011c9050919050565b6200078781620006f0565b81146200079357600080fd5b50565b620007a1816200072e565b8114620007ad57600080fd5b50565b6141ed80620007c06000396000f3fe608060405234801561001057600080fd5b50600436106102535760003560e01c806369369ab511610146578063a556feec116100c3578063cfc2dc2011610087578063cfc2dc20146107a8578063d50cb88b146107d8578063d547741f146107f6578063ee29ab1614610812578063f8a3518114610842578063f93bed3f1461086057610253565b8063a556feec14610700578063a823c0871461071c578063b0667cf81461074c578063b44699441461076b578063b56beccb1461078a57610253565b806385d45b0c1161010a57806385d45b0c1461064857806385dcee9314610664578063867536771461068257806391d14854146106b2578063a217fddf146106e257610253565b806369369ab51461057e5780636abae9b3146105ae5780636c1f7b93146105de57806375b238fc146105fa5780637a4ebc3e1461061857610253565b80632f2ff15d116101d457806349b04ee11161019857806349b04ee1146104b55780634d38cad9146104e55780635976eeac14610515578063637baf6014610546578063687c91bd1461056257610253565b80632f2ff15d146103ed57806336568abe1461040957806340d6eaab146104255780634451ebc61461045557806346047a661461048557610253565b80631ce5e9a61161021b5780631ce5e9a614610336578063248a9ca314610366578063285f94571461039657806328e493c1146103b25780632bd81a0f146103ce57610253565b806301ffc9a71461025857806304998e2d1461028857806305300b28146102b8578063128734c5146102d65780631a7985ba14610306575b600080fd5b610272600480360381019061026d9190612bc7565b61087c565b60405161027f919061360c565b60405180910390f35b6102a2600480360381019061029d9190612f2d565b6108f6565b6040516102af91906137b2565b60405180910390f35b6102c0610918565b6040516102cd91906137b2565b60405180910390f35b6102f060048036038101906102eb9190612d17565b61091e565b6040516102fd91906137b2565b60405180910390f35b610320600480360381019061031b9190612c3d565b610998565b60405161032d91906135f1565b60405180910390f35b610350600480360381019061034b9190612c3d565b6109d8565b60405161035d919061377a565b60405180910390f35b610380600480360381019061037b9190612b5a565b610b40565b60405161038d9190613627565b60405180910390f35b6103b060048036038101906103ab9190612c3d565b610b5f565b005b6103cc60048036038101906103c79190612c3d565b610bc7565b005b6103d6610c56565b6040516103e49291906137cd565b60405180910390f35b61040760048036038101906104029190612b87565b610c68565b005b610423600480360381019061041e9190612b87565b610c91565b005b61043f600480360381019061043a9190612c3d565b610d14565b60405161044c91906137b2565b60405180910390f35b61046f600480360381019061046a9190612d57565b610d9a565b60405161047c91906137b2565b60405180910390f35b61049f600480360381019061049a9190612c3d565b610dda565b6040516104ac91906137b2565b60405180910390f35b6104cf60048036038101906104ca9190612c3d565b610dfa565b6040516104dc91906137b2565b60405180910390f35b6104ff60048036038101906104fa9190612c3d565b610e6d565b60405161050c919061360c565b60405180910390f35b61052f600480360381019061052a9190612e77565b610e8a565b60405161053d9291906137cd565b60405180910390f35b610560600480360381019061055b9190612c3d565b610ff2565b005b61057c60048036038101906105779190612b2d565b611067565b005b61059860048036038101906105939190612c3d565b6110d0565b6040516105a5919061360c565b60405180910390f35b6105c860048036038101906105c39190612cd7565b611166565b6040516105d591906137b2565b60405180910390f35b6105f860048036038101906105f39190612c3d565b611283565b005b61060261135c565b60405161060f9190613627565b60405180910390f35b610632600480360381019061062d9190612d97565b611380565b60405161063f91906137b2565b60405180910390f35b610662600480360381019061065d9190612c3d565b61141f565b005b61066c611488565b6040516106799190613627565b60405180910390f35b61069c60048036038101906106979190612dea565b61155a565b6040516106a991906137b2565b60405180910390f35b6106cc60048036038101906106c79190612b87565b611977565b6040516106d9919061360c565b60405180910390f35b6106ea6119e1565b6040516106f79190613627565b60405180910390f35b61071a60048036038101906107159190612c97565b6119e8565b005b61073660048036038101906107319190612c3d565b611b94565b6040516107439190613642565b60405180910390f35b610754611ecf565b6040516107629291906137cd565b60405180910390f35b610773611f88565b6040516107819291906137cd565b60405180910390f35b610792611f9a565b60405161079f9190613627565b60405180910390f35b6107c260048036038101906107bd9190612c3d565b611fbe565b6040516107cf91906137b2565b60405180910390f35b6107e061208f565b6040516107ed91906137b2565b60405180910390f35b610810600480360381019061080b9190612b87565b612095565b005b61082c60048036038101906108279190612f80565b6120be565b60405161083991906137b2565b60405180910390f35b61084a612160565b60405161085791906137b2565b60405180910390f35b61087a60048036038101906108759190612b2d565b612166565b005b60007f7965db0b000000000000000000000000000000000000000000000000000000007bffffffffffffffffffffffffffffffffffffffffffffffffffffffff1916827bffffffffffffffffffffffffffffffffffffffffffffffffffffffff191614806108ef57506108ee826121e8565b5b9050919050565b60008183856109059190613a7b565b61090f9190613933565b90509392505050565b60085481565b600081600181111561093357610932613e3f565b5b6001600085815260200190815260200160002060000160009054906101000a900460ff16600181111561096957610968613e3f565b5b141561098d5760016000848152602001908152602001600020600601549050610992565b600090505b92915050565b60006001600083815260200190815260200160002060000160019054906101000a900473ffffffffffffffffffffffffffffffffffffffff169050919050565b6109e0612957565b60016000838152602001908152602001600020604051806101c00160405290816000820160009054906101000a900460ff166001811115610a2457610a23613e3f565b5b6001811115610a3657610a35613e3f565b5b81526020016000820160019054906101000a900473ffffffffffffffffffffffffffffffffffffffff1673ffffffffffffffffffffffffffffffffffffffff1673ffffffffffffffffffffffffffffffffffffffff1681526020016000820160159054906101000a900460ff166003811115610ab557610ab4613e3f565b5b6003811115610ac757610ac6613e3f565b5b8152602001600182015481526020016002820154815260200160038201548152602001600482015481526020016005820154815260200160068201548152602001600782015481526020016008820154815260200160098201548152602001600a8201548152602001600b820154815250509050919050565b6000806000838152602001908152602001600020600101549050919050565b7fa49807205ce4d355092ef5a8a18f56e8913cf4a201fbe287825b095693c21775610b9181610b8c612252565b61225a565b610ba582600a6122f790919063ffffffff16565b610bae57600080fd5b610bc282600a61231190919063ffffffff16565b505050565b7f75e5bf8b7de9fd9f24c97951733c6410a040b7a07b543096cb36c6dda365aa8b610bf981610bf4612252565b61225a565b426001600084815260200190815260200160002060030181905550600180600084815260200190815260200160002060000160156101000a81548160ff02191690836003811115610c4d57610c4c613e3f565b5b02179055505050565b600e8060000154908060010154905082565b610c7182610b40565b610c8281610c7d612252565b61225a565b610c8c838361232b565b505050565b610c99612252565b73ffffffffffffffffffffffffffffffffffffffff168173ffffffffffffffffffffffffffffffffffffffff1614610d06576040517f08c379a0000000000000000000000000000000000000000000000000000000008152600401610cfd9061375a565b60405180910390fd5b610d10828261240b565b5050565b600080610d1f611ecf565b509050806001600085815260200190815260200160002060060154610d7e6001600087815260200190815260200160002060080154846001600089815260200190815260200160002060000160009054906101000a900460ff16611380565b610d889190613a7b565b610d929190613933565b915050919050565b600080600754600a84600487610db09190613a7b565b610dba9190613a7b565b610dc49190613933565b610dce9190613933565b90508091505092915050565b600060016000838152602001908152602001600020600a01549050919050565b6000806003811115610e0f57610e0e613e3f565b5b6001600084815260200190815260200160002060000160159054906101000a900460ff166003811115610e4557610e44613e3f565b5b14610e4f57600080fd5b60016000838152602001908152602001600020600b01549050919050565b6000610e8382600a6122f790919063ffffffff16565b9050919050565b600080610ea18a600a6122f790919063ffffffff16565b610eaa57600080fd5b60006001811115610ebe57610ebd613e3f565b5b886001811115610ed157610ed0613e3f565b5b1480610f005750600180811115610eeb57610eea613e3f565b5b886001811115610efe57610efd613e3f565b5b145b610f0957600080fd5b6000610f13611ecf565b5090506000600460009054906101000a900473ffffffffffffffffffffffffffffffffffffffff1673ffffffffffffffffffffffffffffffffffffffff1663040b030f8d6040518263ffffffff1660e01b8152600401610f7391906137b2565b60206040518083038186803b158015610f8b57600080fd5b505afa158015610f9f573d6000803e3d6000fd5b505050506040513d601f19601f82011682018060405250810190610fc39190612c6a565b9050610fd482828d8d8d8b8b6120be565b610fdf8a8a8a6108f6565b9350935050509850989650505050505050565b7f75e5bf8b7de9fd9f24c97951733c6410a040b7a07b543096cb36c6dda365aa8b6110248161101f612252565b61225a565b60036001600084815260200190815260200160002060000160156101000a81548160ff0219169083600381111561105e5761105d613e3f565b5b02179055505050565b7fa49807205ce4d355092ef5a8a18f56e8913cf4a201fbe287825b095693c2177561109981611094612252565b61225a565b6110ad8260056124ec90919063ffffffff16565b156110b757600080fd5b6110cb82600561251c90919063ffffffff16565b505050565b60008060038111156110e5576110e4613e3f565b5b6001600084815260200190815260200160002060000160159054906101000a900460ff16600381111561111b5761111a613e3f565b5b14801561115f5750426001600084815260200190815260200160002060040154600160008581526020019081526020016000206003015461115c9190613873565b11155b9050919050565b600080600381111561117b5761117a613e3f565b5b6001600085815260200190815260200160002060000160159054906101000a900460ff1660038111156111b1576111b0613e3f565b5b146111bb57600080fd5b8115611242576001600084815260200190815260200160002060090154600160008581526020019081526020016000206007015460016000868152602001908152602001600020600b015460016000878152602001908152602001600020600a01546112279190613873565b6112319190613a7b565b61123b9190613933565b905061127d565b60016000848152602001908152602001600020600b015460016000858152602001908152602001600020600a015461127a9190613873565b90505b92915050565b7f75e5bf8b7de9fd9f24c97951733c6410a040b7a07b543096cb36c6dda365aa8b6112b5816112b0612252565b61225a565b42600160008481526020019081526020016000206005018190555060026001600084815260200190815260200160002060000160156101000a81548160ff0219169083600381111561130a57611309613e3f565b5b02179055507fa9a1900ebb1fd6909c0f1916d3578820cae9eb96c4090ec3751941dc4b425ae8600160008481526020019081526020016000206040516113509190613796565b60405180910390a15050565b7fa49807205ce4d355092ef5a8a18f56e8913cf4a201fbe287825b095693c2177581565b600080600090506000600181111561139b5761139a613e3f565b5b8360018111156113ae576113ad613e3f565b5b1480156113ba57508484115b156113ce5784846113cb9190613ad5565b90505b6001808111156113e1576113e0613e3f565b5b8360018111156113f4576113f3613e3f565b5b14801561140057508484105b156114145783856114119190613ad5565b90505b809150509392505050565b7fa49807205ce4d355092ef5a8a18f56e8913cf4a201fbe287825b095693c217756114518161144c612252565b61225a565b61146582600a6122f790919063ffffffff16565b1561146f57600080fd5b61148382600a6121ce90919063ffffffff16565b505050565b6000600360009054906101000a900473ffffffffffffffffffffffffffffffffffffffff1673ffffffffffffffffffffffffffffffffffffffff16637284e4166040518163ffffffff1660e01b815260040160006040518083038186803b1580156114f257600080fd5b505afa158015611506573d6000803e3d6000fd5b505050506040513d6000823e3d601f19601f8201168201806040525081019061152f9190612bf4565b60405160200161153f91906135a0565b60405160208183030381529060405280519060200120905090565b60007f75e5bf8b7de9fd9f24c97951733c6410a040b7a07b543096cb36c6dda365aa8b61158e81611589612252565b61225a565b6115a288600a6122f790919063ffffffff16565b6115e1576040517f08c379a00000000000000000000000000000000000000000000000000000000081526004016115d8906136fa565b60405180910390fd5b600060018111156115f5576115f4613e3f565b5b86600181111561160857611607613e3f565b5b1480611637575060018081111561162257611621613e3f565b5b86600181111561163557611634613e3f565b5b145b611676576040517f08c379a000000000000000000000000000000000000000000000000000000000815260040161166d906136ba565b60405180910390fd5b6000611680611ecf565b5090506000600460009054906101000a900473ffffffffffffffffffffffffffffffffffffffff1673ffffffffffffffffffffffffffffffffffffffff1663040b030f8b6040518263ffffffff1660e01b81526004016116e091906137b2565b60206040518083038186803b1580156116f857600080fd5b505afa15801561170c573d6000803e3d6000fd5b505050506040513d601f19601f820116820180604052508101906117309190612c6a565b90506002600081548092919061174590613d4f565b919050555060006002549050604051806101c001604052808a60018111156117705761176f613e3f565b5b81526020013373ffffffffffffffffffffffffffffffffffffffff168152602001600060038111156117a5576117a4613e3f565b5b8152602001828152602001428152602001600081526020018c8152602001600081526020018981526020018481526020018b8152602001838152602001888152602001878152506001600083815260200190815260200160002060008201518160000160006101000a81548160ff0219169083600181111561182a57611829613e3f565b5b021790555060208201518160000160016101000a81548173ffffffffffffffffffffffffffffffffffffffff021916908373ffffffffffffffffffffffffffffffffffffffff16021790555060408201518160000160156101000a81548160ff021916908360038111156118a1576118a0613e3f565b5b0217905550606082015181600101556080820151816002015560a0820151816003015560c0820151816004015560e08201518160050155610100820151816006015561012082015181600701556101408201518160080155610160820151816009015561018082015181600a01556101a082015181600b01559050507fbad02718a6833da91985f76d55e26d5f3190b6d8b82de4df5100ef66a6b306cc6001600083815260200190815260200160002060405161195e9190613796565b60405180910390a1809450505050509695505050505050565b600080600084815260200190815260200160002060000160008373ffffffffffffffffffffffffffffffffffffffff1673ffffffffffffffffffffffffffffffffffffffff16815260200190815260200160002060009054906101000a900460ff16905092915050565b6000801b81565b8073ffffffffffffffffffffffffffffffffffffffff166001600084815260200190815260200160002060000160019054906101000a900473ffffffffffffffffffffffffffffffffffffffff1673ffffffffffffffffffffffffffffffffffffffff1614611a8c576040517f08c379a0000000000000000000000000000000000000000000000000000000008152600401611a839061373a565b60405180910390fd5b4260016000848152602001908152602001600020600401546001600085815260200190815260200160002060030154611ac59190613873565b1015611b06576040517f08c379a0000000000000000000000000000000000000000000000000000000008152600401611afd9061371a565b60405180910390fd5b60016003811115611b1a57611b19613e3f565b5b6001600084815260200190815260200160002060000160159054906101000a900460ff166003811115611b5057611b4f613e3f565b5b14611b90576040517f08c379a0000000000000000000000000000000000000000000000000000000008152600401611b87906136da565b60405180910390fd5b5050565b6000806000905060016003811115611baf57611bae613e3f565b5b6001600085815260200190815260200160002060000160159054906101000a900460ff166003811115611be557611be4613e3f565b5b1415611ec6576000611bf5611ecf565b5090506000600e60010154600e60000154600460009054906101000a900473ffffffffffffffffffffffffffffffffffffffff1673ffffffffffffffffffffffffffffffffffffffff1663040b030f620151806040518263ffffffff1660e01b8152600401611c64919061365d565b60206040518083038186803b158015611c7c57600080fd5b505afa158015611c90573d6000803e3d6000fd5b505050506040513d601f19601f82011682018060405250810190611cb49190612c6a565b611cbe9190613a7b565b611cc89190613933565b905060006007548284611cdb9190613a7b565b611ce59190613933565b83611cf09190613ad5565b9050600081600285611d029190613a7b565b611d0c9190613ad5565b905060026001600089815260200190815260200160002060060154611d3191906138c9565b945060006001811115611d4757611d46613e3f565b5b6001600089815260200190815260200160002060000160009054906101000a900460ff166001811115611d7d57611d7c613e3f565b5b1415611ddf576001600088815260200190815260200160002060080154811015611da657600094505b6001600088815260200190815260200160002060080154821115611dde57600160008881526020019081526020016000206006015494505b5b600180811115611df257611df1613e3f565b5b6001600089815260200190815260200160002060000160009054906101000a900460ff166001811115611e2857611e27613e3f565b5b1415611ec1577fffffffffffffffffffffffffffffffffffffffffffffffffffffffffffffffff85611e5a9190613964565b94506001600088815260200190815260200160002060080154811015611e9d576001600088815260200190815260200160002060060154611e9a90613d98565b94505b6001600088815260200190815260200160002060080154821115611ec057600094505b5b505050505b80915050919050565b600080600080600360009054906101000a900473ffffffffffffffffffffffffffffffffffffffff1673ffffffffffffffffffffffffffffffffffffffff1663feaf968c6040518163ffffffff1660e01b815260040160a06040518083038186803b158015611f3d57600080fd5b505afa158015611f51573d6000803e3d6000fd5b505050506040513d601f19601f82011682018060405250810190611f759190613022565b5093505092505081819350935050509091565b600c8060000154908060010154905082565b7f75e5bf8b7de9fd9f24c97951733c6410a040b7a07b543096cb36c6dda365aa8b81565b6000611fd482600a6122f790919063ffffffff16565b611fdd57600080fd5b600460009054906101000a900473ffffffffffffffffffffffffffffffffffffffff1673ffffffffffffffffffffffffffffffffffffffff1663040b030f836040518263ffffffff1660e01b815260040161203891906137b2565b60206040518083038186803b15801561205057600080fd5b505afa158015612064573d6000803e3d6000fd5b505050506040513d601f19601f820116820180604052508101906120889190612c6a565b9050919050565b60075481565b61209e82610b40565b6120af816120aa612252565b61225a565b6120b9838361240b565b505050565b600080600754856120d0898c8a611380565b6120da9190613a7b565b6120e49190613933565b90506000600754866120f68c8c610d9a565b6121009190613a7b565b61210a9190613933565b90508960075485878761211d9190613873565b846121289190613a7b565b6121329190613933565b8461213d9190613873565b6121479190613a7b565b6121519190613933565b92505050979650505050505050565b60025481565b7fa49807205ce4d355092ef5a8a18f56e8913cf4a201fbe287825b095693c2177561219881612193612252565b61225a565b6121ac8260056124ec90919063ffffffff16565b6121b557600080fd5b6121c982600561254c90919063ffffffff16565b505050565b60006121e0836000018360001b61257c565b905092915050565b60007f01ffc9a7000000000000000000000000000000000000000000000000000000007bffffffffffffffffffffffffffffffffffffffffffffffffffffffff1916827bffffffffffffffffffffffffffffffffffffffffffffffffffffffff1916149050919050565b600033905090565b6122648282611977565b6122f3576122898173ffffffffffffffffffffffffffffffffffffffff1660146125ec565b6122978360001c60206125ec565b6040516020016122a89291906135b7565b6040516020818303038152906040526040517f08c379a00000000000000000000000000000000000000000000000000000000081526004016122ea9190613678565b60405180910390fd5b5050565b6000612309836000018360001b612828565b905092915050565b6000612323836000018360001b61284b565b905092915050565b6123358282611977565b61240757600160008084815260200190815260200160002060000160008373ffffffffffffffffffffffffffffffffffffffff1673ffffffffffffffffffffffffffffffffffffffff16815260200190815260200160002060006101000a81548160ff0219169083151502179055506123ac612252565b73ffffffffffffffffffffffffffffffffffffffff168173ffffffffffffffffffffffffffffffffffffffff16837f2f8788117e7eff1d82e926ec794901d17c78024a50270940304540a733656f0d60405160405180910390a45b5050565b6124158282611977565b156124e857600080600084815260200190815260200160002060000160008373ffffffffffffffffffffffffffffffffffffffff1673ffffffffffffffffffffffffffffffffffffffff16815260200190815260200160002060006101000a81548160ff02191690831515021790555061248d612252565b73ffffffffffffffffffffffffffffffffffffffff168173ffffffffffffffffffffffffffffffffffffffff16837ff6391f5c32d9c69d2a47ea670b442974b53935d1edc7fd64eb21e047a839171b60405160405180910390a45b5050565b6000612514836000018373ffffffffffffffffffffffffffffffffffffffff1660001b612828565b905092915050565b6000612544836000018373ffffffffffffffffffffffffffffffffffffffff1660001b61257c565b905092915050565b6000612574836000018373ffffffffffffffffffffffffffffffffffffffff1660001b61284b565b905092915050565b60006125888383612828565b6125e15782600001829080600181540180825580915050600190039060005260206000200160009091909190915055826000018054905083600101600084815260200190815260200160002081905550600190506125e6565b600090505b92915050565b6060600060028360026125ff9190613a7b565b6126099190613873565b67ffffffffffffffff81111561262257612621613ecc565b5b6040519080825280601f01601f1916602001820160405280156126545781602001600182028036833780820191505090505b5090507f30000000000000000000000000000000000000000000000000000000000000008160008151811061268c5761268b613e9d565b5b60200101907effffffffffffffffffffffffffffffffffffffffffffffffffffffffffffff1916908160001a9053507f7800000000000000000000000000000000000000000000000000000000000000816001815181106126f0576126ef613e9d565b5b60200101907effffffffffffffffffffffffffffffffffffffffffffffffffffffffffffff1916908160001a905350600060018460026127309190613a7b565b61273a9190613873565b90505b60018111156127da577f3031323334353637383961626364656600000000000000000000000000000000600f86166010811061277c5761277b613e9d565b5b1a60f81b82828151811061279357612792613e9d565b5b60200101907effffffffffffffffffffffffffffffffffffffffffffffffffffffffffffff1916908160001a905350600485901c9450806127d390613c8c565b905061273d565b506000841461281e576040517f08c379a00000000000000000000000000000000000000000000000000000000081526004016128159061369a565b60405180910390fd5b8091505092915050565b600080836001016000848152602001908152602001600020541415905092915050565b6000808360010160008481526020019081526020016000205490506000811461294b57600060018261287d9190613ad5565b90506000600186600001805490506128959190613ad5565b905060008660000182815481106128af576128ae613e9d565b5b90600052602060002001549050808760000184815481106128d3576128d2613e9d565b5b906000526020600020018190555083876001016000838152602001908152602001600020819055508660000180548061290f5761290e613e6e565b5b60019003818190600052602060002001600090559055866001016000878152602001908152602001600020600090556001945050505050612951565b60009150505b92915050565b604051806101c001604052806000600181111561297757612976613e3f565b5b8152602001600073ffffffffffffffffffffffffffffffffffffffff168152602001600060038111156129ad576129ac613e3f565b5b815260200160008152602001600081526020016000815260200160008152602001600081526020016000815260200160008152602001600081526020016000815260200160008152602001600081525090565b6000612a13612a0e8461381b565b6137f6565b905082815260208101848484011115612a2f57612a2e613f00565b5b612a3a848285613c59565b509392505050565b600081359050612a5181614106565b92915050565b600081359050612a668161411d565b92915050565b600081359050612a7b81614134565b92915050565b600081359050612a908161414b565b92915050565b600081359050612aa581614162565b92915050565b600081519050612aba81614172565b92915050565b600082601f830112612ad557612ad4613efb565b5b8151612ae5848260208601612a00565b91505092915050565b600081359050612afd81614189565b92915050565b600081519050612b1281614189565b92915050565b600081519050612b27816141a0565b92915050565b600060208284031215612b4357612b42613f0a565b5b6000612b5184828501612a42565b91505092915050565b600060208284031215612b7057612b6f613f0a565b5b6000612b7e84828501612a6c565b91505092915050565b60008060408385031215612b9e57612b9d613f0a565b5b6000612bac85828601612a6c565b9250506020612bbd85828601612a42565b9150509250929050565b600060208284031215612bdd57612bdc613f0a565b5b6000612beb84828501612a81565b91505092915050565b600060208284031215612c0a57612c09613f0a565b5b600082015167ffffffffffffffff811115612c2857612c27613f05565b5b612c3484828501612ac0565b91505092915050565b600060208284031215612c5357612c52613f0a565b5b6000612c6184828501612aee565b91505092915050565b600060208284031215612c8057612c7f613f0a565b5b6000612c8e84828501612b03565b91505092915050565b60008060408385031215612cae57612cad613f0a565b5b6000612cbc85828601612aee565b9250506020612ccd85828601612a42565b9150509250929050565b60008060408385031215612cee57612ced613f0a565b5b6000612cfc85828601612aee565b9250506020612d0d85828601612a57565b9150509250929050565b60008060408385031215612d2e57612d2d613f0a565b5b6000612d3c85828601612aee565b9250506020612d4d85828601612a96565b9150509250929050565b60008060408385031215612d6e57612d6d613f0a565b5b6000612d7c85828601612aee565b9250506020612d8d85828601612aee565b9150509250929050565b600080600060608486031215612db057612daf613f0a565b5b6000612dbe86828701612aee565b9350506020612dcf86828701612aee565b9250506040612de086828701612a96565b9150509250925092565b60008060008060008060c08789031215612e0757612e06613f0a565b5b6000612e1589828a01612aee565b9650506020612e2689828a01612aee565b9550506040612e3789828a01612a96565b9450506060612e4889828a01612aee565b9350506080612e5989828a01612aee565b92505060a0612e6a89828a01612aee565b9150509295509295509295565b600080600080600080600080610100898b031215612e9857612e97613f0a565b5b6000612ea68b828c01612aee565b9850506020612eb78b828c01612aee565b9750506040612ec88b828c01612a96565b9650506060612ed98b828c01612aee565b9550506080612eea8b828c01612aee565b94505060a0612efb8b828c01612aee565b93505060c0612f0c8b828c01612aee565b92505060e0612f1d8b828c01612aee565b9150509295985092959890939650565b600080600060608486031215612f4657612f45613f0a565b5b6000612f5486828701612aee565b9350506020612f6586828701612aee565b9250506040612f7686828701612aee565b9150509250925092565b600080600080600080600060e0888a031215612f9f57612f9e613f0a565b5b6000612fad8a828b01612aee565b9750506020612fbe8a828b01612aee565b9650506040612fcf8a828b01612aee565b9550506060612fe08a828b01612a96565b9450506080612ff18a828b01612aee565b93505060a06130028a828b01612aee565b92505060c06130138a828b01612aee565b91505092959891949750929550565b600080600080600060a0868803121561303e5761303d613f0a565b5b600061304c88828901612b18565b955050602061305d88828901612aab565b945050604061306e88828901612b03565b935050606061307f88828901612b03565b925050608061309088828901612b18565b9150509295509295909350565b6130a681613b5f565b82525050565b6130b581613b4d565b82525050565b6130c481613b71565b82525050565b6130d381613b7d565b82525050565b6130e281613c23565b82525050565b6130f181613c35565b82525050565b61310081613bd9565b82525050565b61310f81613c47565b82525050565b60006131208261384c565b61312a8185613857565b935061313a818560208601613c59565b61314381613f0f565b840191505092915050565b60006131598261384c565b6131638185613868565b9350613173818560208601613c59565b80840191505092915050565b600061318c602083613857565b915061319782613f47565b602082019050919050565b60006131af601783613857565b91506131ba82613f70565b602082019050919050565b60006131d2601283613857565b91506131dd82613f99565b602082019050919050565b60006131f5601383613857565b915061320082613fc2565b602082019050919050565b6000613218601383613857565b915061322382613feb565b602082019050919050565b600061323b600e83613857565b915061324682614014565b602082019050919050565b600061325e601783613868565b91506132698261403d565b601782019050919050565b6000613281601183613868565b915061328c82614066565b601182019050919050565b60006132a4602f83613857565b91506132af8261408f565b604082019050919050565b6101c0820160008201516132d160008501826130e8565b5060208201516132e460208501826130ac565b5060408201516132f760408501826130d9565b50606082015161330a6060850182613582565b50608082015161331d6080850182613582565b5060a082015161333060a0850182613582565b5060c082015161334360c0850182613582565b5060e082015161335660e0850182613582565b5061010082015161336b610100850182613582565b50610120820151613380610120850182613582565b50610140820151613395610140850182613582565b506101608201516133aa610160850182613582565b506101808201516133bf610180850182613582565b506101a08201516133d46101a0850182613582565b50505050565b6101c0820160008083015490506133f081613cb6565b6133fd60008601826130e8565b5061340781613cea565b61341460208601826130ac565b5061341e81613d04565b61342b60408601826130d9565b506001830154905061343c81613cd0565b6134496060860182613582565b506002830154905061345a81613cd0565b6134676080860182613582565b506003830154905061347881613cd0565b61348560a0860182613582565b506004830154905061349681613cd0565b6134a360c0860182613582565b50600583015490506134b481613cd0565b6134c160e0860182613582565b50600683015490506134d281613cd0565b6134e0610100860182613582565b50600783015490506134f181613cd0565b6134ff610120860182613582565b506008830154905061351081613cd0565b61351e610140860182613582565b506009830154905061352f81613cd0565b61353d610160860182613582565b50600a830154905061354e81613cd0565b61355c610180860182613582565b50600b830154905061356d81613cd0565b61357b6101a0860182613582565b5050505050565b61358b81613c03565b82525050565b61359a81613c03565b82525050565b60006135ac828461314e565b915081905092915050565b60006135c282613251565b91506135ce828561314e565b91506135d982613274565b91506135e5828461314e565b91508190509392505050565b6000602082019050613606600083018461309d565b92915050565b600060208201905061362160008301846130bb565b92915050565b600060208201905061363c60008301846130ca565b92915050565b600060208201905061365760008301846130f7565b92915050565b60006020820190506136726000830184613106565b92915050565b600060208201905081810360008301526136928184613115565b905092915050565b600060208201905081810360008301526136b38161317f565b9050919050565b600060208201905081810360008301526136d3816131a2565b9050919050565b600060208201905081810360008301526136f3816131c5565b9050919050565b60006020820190508181036000830152613713816131e8565b9050919050565b600060208201905081810360008301526137338161320b565b9050919050565b600060208201905081810360008301526137538161322e565b9050919050565b6000602082019050818103600083015261377381613297565b9050919050565b60006101c08201905061379060008301846132ba565b92915050565b60006101c0820190506137ac60008301846133da565b92915050565b60006020820190506137c76000830184613591565b92915050565b60006040820190506137e26000830185613591565b6137ef6020830184613591565b9392505050565b6000613800613811565b905061380c8282613d1e565b919050565b6000604051905090565b600067ffffffffffffffff82111561383657613835613ecc565b5b61383f82613f0f565b9050602081019050919050565b600081519050919050565b600082825260208201905092915050565b600081905092915050565b600061387e82613c03565b915061388983613c03565b9250827fffffffffffffffffffffffffffffffffffffffffffffffffffffffffffffffff038211156138be576138bd613de1565b5b828201905092915050565b60006138d482613bd9565b91506138df83613bd9565b9250826138ef576138ee613e10565b5b600160000383147f80000000000000000000000000000000000000000000000000000000000000008314161561392857613927613de1565b5b828205905092915050565b600061393e82613c03565b915061394983613c03565b92508261395957613958613e10565b5b828204905092915050565b600061396f82613bd9565b915061397a83613bd9565b9250827f7fffffffffffffffffffffffffffffffffffffffffffffffffffffffffffffff04821160008413600084131616156139b9576139b8613de1565b5b817f800000000000000000000000000000000000000000000000000000000000000005831260008412600084131616156139f6576139f5613de1565b5b827f80000000000000000000000000000000000000000000000000000000000000000582126000841360008412161615613a3357613a32613de1565b5b827f7fffffffffffffffffffffffffffffffffffffffffffffffffffffffffffffff0582126000841260008412161615613a7057613a6f613de1565b5b828202905092915050565b6000613a8682613c03565b9150613a9183613c03565b9250817fffffffffffffffffffffffffffffffffffffffffffffffffffffffffffffffff0483118215151615613aca57613ac9613de1565b5b828202905092915050565b6000613ae082613c03565b9150613aeb83613c03565b925082821015613afe57613afd613de1565b5b828203905092915050565b600073ffffffffffffffffffffffffffffffffffffffff82169050919050565b600060ff82169050919050565b600060ff82169050919050565b6000819050919050565b6000613b5882613be3565b9050919050565b6000613b6a82613be3565b9050919050565b60008115159050919050565b6000819050919050565b60007fffffffff0000000000000000000000000000000000000000000000000000000082169050919050565b6000819050613bc1826140de565b919050565b6000819050613bd4826140f2565b919050565b6000819050919050565b600073ffffffffffffffffffffffffffffffffffffffff82169050919050565b6000819050919050565b600069ffffffffffffffffffff82169050919050565b6000613c2e82613bb3565b9050919050565b6000613c4082613bc6565b9050919050565b6000613c5282613c03565b9050919050565b60005b83811015613c77578082015181840152602081019050613c5c565b83811115613c86576000848401525b50505050565b6000613c9782613c03565b91506000821415613cab57613caa613de1565b5b600182039050919050565b6000613cc9613cc483613f20565b613b36565b9050919050565b6000613ce3613cde83613f20565b613b43565b9050919050565b6000613cfd613cf883613f3a565b613b09565b9050919050565b6000613d17613d1283613f2d565b613b29565b9050919050565b613d2782613f0f565b810181811067ffffffffffffffff82111715613d4657613d45613ecc565b5b80604052505050565b6000613d5a82613c03565b91507fffffffffffffffffffffffffffffffffffffffffffffffffffffffffffffffff821415613d8d57613d8c613de1565b5b600182019050919050565b6000613da382613bd9565b91507f8000000000000000000000000000000000000000000000000000000000000000821415613dd657613dd5613de1565b5b816000039050919050565b7f4e487b7100000000000000000000000000000000000000000000000000000000600052601160045260246000fd5b7f4e487b7100000000000000000000000000000000000000000000000000000000600052601260045260246000fd5b7f4e487b7100000000000000000000000000000000000000000000000000000000600052602160045260246000fd5b7f4e487b7100000000000000000000000000000000000000000000000000000000600052603160045260246000fd5b7f4e487b7100000000000000000000000000000000000000000000000000000000600052603260045260246000fd5b7f4e487b7100000000000000000000000000000000000000000000000000000000600052604160045260246000fd5b600080fd5b600080fd5b600080fd5b600080fd5b6000601f19601f8301169050919050565b60008160001c9050919050565b60008160a81c9050919050565b60008160081c9050919050565b7f537472696e67733a20686578206c656e67746820696e73756666696369656e74600082015250565b7f5573652063616c6c206f7220707574206f7074696f6e2e000000000000000000600082015250565b7f4e6f7420616374697665206f7074696f6e2e0000000000000000000000000000600082015250565b7f57726f6e67206f7074696f6e2074656e6f722e00000000000000000000000000600082015250565b7f4f7074696f6e2068617320657870697265642e00000000000000000000000000600082015250565b7f4e6f7420746865206f776e65722e000000000000000000000000000000000000600082015250565b7f416363657373436f6e74726f6c3a206163636f756e7420000000000000000000600082015250565b7f206973206d697373696e6720726f6c6520000000000000000000000000000000600082015250565b7f416363657373436f6e74726f6c3a2063616e206f6e6c792072656e6f756e636560008201527f20726f6c657320666f722073656c660000000000000000000000000000000000602082015250565b600481106140ef576140ee613e3f565b5b50565b6002811061410357614102613e3f565b5b50565b61410f81613b4d565b811461411a57600080fd5b50565b61412681613b71565b811461413157600080fd5b50565b61413d81613b7d565b811461414857600080fd5b50565b61415481613b87565b811461415f57600080fd5b50565b6002811061416f57600080fd5b50565b61417b81613bd9565b811461418657600080fd5b50565b61419281613c03565b811461419d57600080fd5b50565b6141a981613c0d565b81146141b457600080fd5b5056fea2646970667358221220b9f3cb4bdaedbaa55b482e1e8e755f80b23050964124e2251e8ddf71af02cb5e64736f6c63430008060033",
  "immutableReferences": {},
  "source": "/**\n * SPDX-License-Identifier: GPL-3.0-or-later\n * Moret\n * Copyright (C) 2021 Moret\n*/\n\npragma solidity ^0.8.4;\n\nimport \"@openzeppelin/contracts/access/AccessControl.sol\";\nimport \"@openzeppelin/contracts/utils/structs/EnumerableSet.sol\";\nimport \"./MoretInterfaces.sol\";\nimport \"./VolatilityChain.sol\";\nimport \"@chainlink/contracts/src/v0.8/interfaces/AggregatorV3Interface.sol\";\n\ncontract OptionContract is AccessControl, IOption\n{\n  using EnumerableSet for EnumerableSet.UintSet;\n  using EnumerableSet for EnumerableSet.Bytes32Set;\n  using EnumerableSet for EnumerableSet.AddressSet;\n\n  bytes32 public constant ADMIN_ROLE = keccak256(\"ADMIN_ROLE\");\n  bytes32 public constant MARKET_MAKER_ROLE = keccak256(\"MARKET_MAKER_ROLE\");\n\n  mapping(uint256=> Option) internal optionsList;\n  uint256 public optionCounter = 0;\n\n  AggregatorV3Interface internal priceInterface;\n  VolatilityChain internal volatilityChain;\n  EnumerableSet.AddressSet allowedMarketMakerAddresses;\n\n  uint256 public priceMultiplier;\n  uint256 public priceDecimals;\n  uint256 internal pctDenominator = 10 ** 6;\n  EnumerableSet.UintSet tenors;\n\n  Percent public volPremiumFixedAddon = Percent(5 * 10 ** 3, 10 ** 6) ;\n  Percent public deltaRange = Percent(8 * 10 ** 5, 10 ** 6) ;\n\n  constructor(\n      address _chainlinkAddress,\n      address _volChainAddress\n      )\n      {\n          _setupRole(ADMIN_ROLE, msg.sender);\n          _setupRole(MARKET_MAKER_ROLE, msg.sender);\n\n          priceInterface = AggregatorV3Interface(_chainlinkAddress);\n          volatilityChain = VolatilityChain(_volChainAddress);\n\n          priceDecimals = priceInterface.decimals();\n          priceMultiplier = 10 ** priceDecimals;\n\n          tenors.add(1 days);\n      }\n\n    function descriptionHash() external view returns (bytes32)\n    {\n      return keccak256(abi.encodePacked(priceInterface.description()));\n    }\n\n    function addTenor(uint256 _tenor) external onlyRole(ADMIN_ROLE){\n      require(!tenors.contains(_tenor));\n      tenors.add(_tenor);\n    }\n    function removeTenor(uint256 _tenor) external onlyRole(ADMIN_ROLE){\n      require(tenors.contains(_tenor));\n      tenors.remove(_tenor);\n    }\n    function containsTenor(uint256 _tenor) external view returns (bool){\n      return(tenors.contains(_tenor));\n    }\n\n    function addMarketMaker(address _adr) external onlyRole(ADMIN_ROLE){\n      require(!allowedMarketMakerAddresses.contains(_adr));\n      allowedMarketMakerAddresses.add(_adr);\n    }\n    function removeMarketMaker(address _adr) external onlyRole(ADMIN_ROLE){\n      require(allowedMarketMakerAddresses.contains(_adr));\n      allowedMarketMakerAddresses.remove(_adr);\n    }\n\n    function queryPrice() public view returns(uint256, uint256){\n      (,int _price,,uint _timeStamp,) = priceInterface.latestRoundData();\n     return (uint256(_price), uint256(_timeStamp));\n    }\n\n    function queryVol(uint256 _tenor) public view returns (uint256){\n      require(tenors.contains(_tenor));\n      return volatilityChain.getVol(_tenor);\n    }\n\n    function queryOptionCost(uint256 _tenor, uint256 _strike, PayoffType _poType, uint256 _amount,\n      uint256 _fee, uint256 _feeDenomninator, uint256 _volAddon, uint256 _volAddonDenominator)\n      external view returns(uint256, uint256)\n    {\n        require(tenors.contains(_tenor));\n        require((_poType==PayoffType.Call) || (_poType==PayoffType.Put));\n\n        (uint256 _price,) = queryPrice();\n        uint256 _volatility = volatilityChain.getVol(_tenor);\n\n        return  (calcPremium(_price, _volatility, _strike, _poType, _amount, _volAddon, _volAddonDenominator),\n         calcFee(_amount, _fee, _feeDenomninator));\n    }\n\n    function calcPremium(uint256 _price, uint256 _volatility, uint256 _strike, PayoffType _poType, uint256 _amount,\n      uint256 _volAddon, uint256 _volAddonDenominator)\n      public view returns(uint256){\n        uint256 _intrinsicValue = calcIntrinsicValue(_strike, _price, _poType) * _amount / priceMultiplier;\n        uint256 _timeValue = calcTimeValue( _price, _volatility) * _amount / priceMultiplier;\n        /* uint256 _margin = MulDiv(volPremiumFixedAddon, _amount, pctDenominator); */\n        /* uint256 _addon = calcVolPremiumAddon(_strike, _poType, _amount); */\n\n        return (_intrinsicValue + (_timeValue * (_volAddonDenominator + _volAddon) / _volAddonDenominator)) * priceMultiplier / _price;\n    }\n\n    function calcIntrinsicValue(uint256 _strike, uint256 _price, PayoffType _poType) public pure returns(uint256)\n    {\n        uint256 _intrinsicValue = 0;\n\n        if((_poType==PayoffType.Call) && (_price > _strike)){\n          _intrinsicValue = _price - _strike;\n        }\n        if((_poType==PayoffType.Put) && (_price<_strike)){\n          _intrinsicValue = _strike - _price;\n        }\n        return _intrinsicValue;\n    }\n\n    function calcTimeValue(uint256 _price, uint256 _volatility) public view returns(uint256)\n    {\n        uint256 _timeValue =  (_price * 4 * _volatility / 10 / priceMultiplier);\n        return _timeValue;\n    }\n\n    function calcFee(uint256 _amount, uint256 _fee, uint256 _feeDenominator) public pure returns(uint256)\n    {\n        return _amount * _fee / _feeDenominator;\n    }\n\n    function addOption(uint256 _tenor, uint256 _strike, PayoffType _poType, uint256 _amount, uint256 _premium, uint256 _fee)\n    external onlyRole(MARKET_MAKER_ROLE) returns(uint256)\n    {\n        require(tenors.contains(_tenor), \"Wrong option tenor.\");\n        require((_poType==PayoffType.Call) || (_poType==PayoffType.Put), \"Use call or put option.\");\n\n        (uint256 _price,) = queryPrice();\n        uint256 _volatility = volatilityChain.getVol(_tenor);\n\n        optionCounter++;\n        uint256 _id = optionCounter;\n        optionsList[_id] = Option(\n            _poType,\n            msg.sender,\n            OptionStatus.Draft,\n            _id,\n            block.timestamp,\n            0,\n            _tenor,\n            0,\n            _amount,\n            _price,\n            _strike,\n            _volatility,\n            _premium,\n            _fee);\n\n        emit newOptionCreated(optionsList[_id]);\n\n        return _id;\n    }\n\n    function queryDraftOptionCost(uint256 _id, bool _inVol) external view returns(uint256)\n    {\n        require(optionsList[_id].status== OptionStatus.Draft);\n        if(_inVol)\n        {\n          return (optionsList[_id].premium + optionsList[_id].fee)  * optionsList[_id].spot / optionsList[_id].volatility;\n        }\n        return (optionsList[_id].premium + optionsList[_id].fee);\n    }\n\n    function queryDraftOptionFee(uint256 _id) external view returns(uint256)\n    {\n        require(optionsList[_id].status== OptionStatus.Draft);\n        return optionsList[_id].fee;\n    }\n\n    function queryOptionPremium(uint256 _id) external view returns(uint256)\n    {\n        return optionsList[_id].premium;\n    }\n    function queryOptionExposure(uint256 _id, PayoffType _poType) external view returns(uint256)\n    {\n      if(optionsList[_id].poType==_poType)\n      {\n          return optionsList[_id].amount;\n      }\n      return 0;\n    }\n\n    function getOptionPayoffValue(uint256 _id) external view returns(uint256)\n    {\n        (uint256 _price,) = queryPrice();\n        return (calcIntrinsicValue(optionsList[_id].strike, _price, optionsList[_id].poType) * optionsList[_id].amount / _price);\n    }\n\n    function getOptionHolder(uint256 _id) external view returns (address payable){\n      return payable(optionsList[_id].holder);\n    }\n\n    function calculateContractDelta(uint256 _id) public view returns(int256){\n      int256 _delta = 0;\n      if(optionsList[_id].status== OptionStatus.Active)\n      {\n       (uint256 _price, ) = queryPrice();\n\n        uint256 _vol1DAdjusted = (volatilityChain.getVol(86400) * deltaRange.numerator / deltaRange.denominator);\n        uint256 _lowerRange = _price - (_price* _vol1DAdjusted/ priceMultiplier);\n        uint256 _upperRange = _price * 2 - _lowerRange;\n\n        _delta = int256(optionsList[_id].amount) / 2;\n        if (optionsList[_id].poType==PayoffType.Call)\n        {\n          if(_upperRange < optionsList[_id].strike)\n          {\n            _delta = 0;\n          }\n          if(_lowerRange > optionsList[_id].strike)\n          {\n            _delta = int256(optionsList[_id].amount);\n          }\n        }\n\n        if(optionsList[_id].poType==PayoffType.Put)\n        {\n            _delta *= -1;\n          if(_upperRange < optionsList[_id].strike)\n          {\n            _delta = -int256(optionsList[_id].amount);\n          }\n          if(_lowerRange > optionsList[_id].strike)\n          {\n            _delta = 0;\n          }\n        }\n      }\n        return _delta;\n    }\n\n\n    function validateOption(uint256 _id, address _holder) external view {\n      require(optionsList[_id].holder== _holder, \"Not the owner.\");\n      require((optionsList[_id].effectiveTime + optionsList[_id].tenor) >= block.timestamp, \"Option has expired.\");\n      require(optionsList[_id].status==OptionStatus.Active, \"Not active option.\");\n    }\n\n    function isOptionExpiring(uint256 _id) external view returns (bool)\n    {\n      return (optionsList[_id].status== OptionStatus.Draft) && ((optionsList[_id].effectiveTime + optionsList[_id].tenor) <= block.timestamp);\n    }\n\n    function stampActiveOption(uint256 _id) external onlyRole(MARKET_MAKER_ROLE) {\n        optionsList[_id].effectiveTime = block.timestamp;\n        optionsList[_id].status = OptionStatus.Active;\n    }\n\n    function stampExercisedOption(uint256 _id) external onlyRole(MARKET_MAKER_ROLE){\n        optionsList[_id].exerciseTime = block.timestamp;\n        optionsList[_id].status = OptionStatus.Exercised;\n        emit optionExercised(optionsList[_id]);\n    }\n\n    function stampExpiredOption(uint256 _id)  external onlyRole(MARKET_MAKER_ROLE){\n        optionsList[_id].status = OptionStatus.Expired;\n    }\n\n    function getOption(uint256 _id) external view returns(Option memory) {\n        return optionsList[_id];\n    }\n\n    event newTenor(uint256 _tenor);\n    event newVolatilityToken(address _tokenAddress);\n\n    event newOptionCreated(Option _newOption);\n    event newOptionBought(Option _newOption);\n    event optionExercised(Option _option);\n    event volTokenRecycled(uint256 _tokenAmount);\n    event cashSweep();\n\n    event newGovernanceFees(uint256 _fee);\n    event newUniswapFees(uint24 _fee);\n    event newDeltaRange(uint256 _range);\n\n    event hedgePositionUpdated(int256 _underlyingAmount, int256 _stableAmount, uint256 _transactedPrice);\n    event capitalAdded(address _recipient, uint256 _mintMPTokenAmount, uint256 _addedValue);\n    event capitalWithdrawn(address _recipient, uint256 _burnMPTokenAmount, uint256 _withdrawValue);\n}\n",
  "sourcePath": "/Users/mac/Documents/GitHub/moret/contracts/OptionContract.sol",
  "compiler": {
    "name": "solc",
    "version": "0.8.6+commit.11564f7e.Emscripten.clang"
  },
  "schemaVersion": "3.4.1",
  "updatedAt": "2021-06-26T18:26:25.313Z",
  "devdoc": {
    "kind": "dev",
    "methods": {
      "getRoleAdmin(bytes32)": {
        "details": "Returns the admin role that controls `role`. See {grantRole} and {revokeRole}. To change a role's admin, use {_setRoleAdmin}."
      },
      "grantRole(bytes32,address)": {
        "details": "Grants `role` to `account`. If `account` had not been already granted `role`, emits a {RoleGranted} event. Requirements: - the caller must have ``role``'s admin role."
      },
      "hasRole(bytes32,address)": {
        "details": "Returns `true` if `account` has been granted `role`."
      },
      "renounceRole(bytes32,address)": {
        "details": "Revokes `role` from the calling account. Roles are often managed via {grantRole} and {revokeRole}: this function's purpose is to provide a mechanism for accounts to lose their privileges if they are compromised (such as when a trusted device is misplaced). If the calling account had been granted `role`, emits a {RoleRevoked} event. Requirements: - the caller must be `account`."
      },
      "revokeRole(bytes32,address)": {
        "details": "Revokes `role` from `account`. If `account` had been granted `role`, emits a {RoleRevoked} event. Requirements: - the caller must have ``role``'s admin role."
      },
      "supportsInterface(bytes4)": {
        "details": "See {IERC165-supportsInterface}."
      }
    },
    "version": 1
  },
  "userdoc": {
    "kind": "user",
    "methods": {},
    "version": 1
  }
}