{
  "contractName": "OptionLibrary",
  "abi": [
    {
      "inputs": [
        {
          "internalType": "uint256",
          "name": "_price",
          "type": "uint256"
        },
        {
          "internalType": "uint256",
          "name": "_volatility",
          "type": "uint256"
        },
        {
          "internalType": "uint256",
          "name": "_strike",
          "type": "uint256"
        },
        {
          "internalType": "enum OptionLibrary.PayoffType",
          "name": "_poType",
          "type": "OptionLibrary.PayoffType"
        },
        {
          "internalType": "uint256",
          "name": "_amount",
          "type": "uint256"
        },
        {
          "internalType": "uint256",
          "name": "_priceMultiplier",
          "type": "uint256"
        }
      ],
      "name": "calcPremium",
      "outputs": [
        {
          "internalType": "uint256",
          "name": "",
          "type": "uint256"
        }
      ],
      "stateMutability": "pure",
      "type": "function"
    },
    {
      "inputs": [
        {
          "internalType": "uint256",
          "name": "_price",
          "type": "uint256"
        },
        {
          "internalType": "uint256",
          "name": "_strike",
          "type": "uint256"
        },
        {
          "internalType": "uint256",
          "name": "_priceMultiplier",
          "type": "uint256"
        },
        {
          "internalType": "uint256",
          "name": "_vol",
          "type": "uint256"
        }
      ],
      "name": "calcDelta",
      "outputs": [
        {
          "internalType": "uint256",
          "name": "_delta",
          "type": "uint256"
        }
      ],
      "stateMutability": "pure",
      "type": "function"
    },
    {
      "inputs": [
        {
          "internalType": "uint256",
          "name": "_price",
          "type": "uint256"
        },
        {
          "internalType": "uint256",
          "name": "_strike",
          "type": "uint256"
        },
        {
          "internalType": "uint256",
          "name": "_priceMultiplier",
          "type": "uint256"
        },
        {
          "internalType": "uint256",
          "name": "_vol",
          "type": "uint256"
        }
      ],
      "name": "calcGamma",
      "outputs": [
        {
          "internalType": "uint256",
          "name": "_gamma",
          "type": "uint256"
        }
      ],
      "stateMutability": "pure",
      "type": "function"
    }
  ],
  "bytecode": "0x613341610053600b82828239805160001a607314610046577f4e487b7100000000000000000000000000000000000000000000000000000000600052600060045260246000fd5b30600052607381538281f3fe73000000000000000000000000000000000000000030146080604052600436106100615760003560e01c80630cf55f771461006657806350c5e95e146100965780635bdec428146100c657806376150a51146100f657806399b0113914610126575b600080fd5b610080600480360381019061007b9190612df3565b610156565b60405161008d9190612e69565b60405180910390f35b6100b060048036038101906100ab9190612df3565b6101cb565b6040516100bd9190612e69565b60405180910390f35b6100e060048036038101906100db9190612eba565b610254565b6040516100ed9190612e69565b60405180910390f35b610110600480360381019061010b9190612eba565b61026e565b60405161011d9190612e69565b60405180910390f35b610140600480360381019061013b9190612f32565b61029f565b60405161014d9190612e69565b60405180910390f35b6000806101648685876102e6565b90506000600284610175919061301d565b610181600287876102e6565b6101a0600261019a8987610195919061304e565b6103e2565b886102e6565b6101aa91906130b2565b6101b49190613146565b90506101bf81610595565b92505050949350505050565b6000806101d98685876102e6565b905060006002846101ea919061301d565b6101f6600287876102e6565b610215600261020f898761020a919061304e565b6103e2565b886102e6565b61021f91906130b2565b6102299190613146565b905061024861024161023a83611a00565b878a6102e6565b86866102e6565b92505050949350505050565b6000610265846007015484846102e6565b90509392505050565b600061029684600901548486600701548760000160009054906101000a900460ff1686612c1e565b90509392505050565b6000806102af8689868887612c1e565b905060006102ca6102c3888b8b8989612cc9565b8a866102e6565b905080826102d891906131da565b925050509695505050505050565b600080600080198587098587029250828110838203039150506000811415610321576000841161031557600080fd5b838204925050506103db565b80841161032d57600080fd5b60008486880990508281118203915080830392506000856001877fffffffffffffffffffffffffffffffffffffffffffffffffffffffffffffffff0301169050808604955080840493506001818260000304019050808302841793506000600287600302189050808702600203810290508087026002038102905080870260020381029050808702600203810290508087026002038102905080870260020381029050808502955050505050505b9392505050565b6000808214156103f55760009050610590565b600082905060019150700100000000000000000000000000000000811061042557608081901c9050604082901b91505b68010000000000000000811061044457604081901c9050602082901b91505b640100000000811061045f57602081901c9050601082901b91505b62010000811061047857601081901c9050600882901b91505b610100811061049057600881901c9050600482901b91505b601081106104a757600481901c9050600282901b91505b600881106104b757600182901b91505b60018284816104c9576104c8612fbf565b5b048301901c915060018284816104e2576104e1612fbf565b5b048301901c915060018284816104fb576104fa612fbf565b5b048301901c9150600182848161051457610513612fbf565b5b048301901c9150600182848161052d5761052c612fbf565b5b048301901c9150600182848161054657610545612fbf565b5b048301901c9150600182848161055f5761055e612fbf565b5b048301901c9150600082848161057857610577612fbf565b5b04905080831015610589578261058b565b805b925050505b919050565b60008060405180610b2001604052807fffffffffffffffffffffffffffffffffffffffffffffffff2fd54b793124000060080b81526020017fffffffffffffffffffffffffffffffffffffffffffffffff3db6022cd888000060080b81526020017fffffffffffffffffffffffffffffffffffffffffffffffff4b96b8e07fec000060080b81526020017fffffffffffffffffffffffffffffffffffffffffffffffff59776f942750000060080b81526020017fffffffffffffffffffffffffffffffffffffffffffffffff67582647ceb4000060080b81526020017fffffffffffffffffffffffffffffffffffffffffffffffff7538dcfb7618000060080b81526020017fffffffffffffffffffffffffffffffffffffffffffffffff831993af1d7c000060080b81526020017fffffffffffffffffffffffffffffffffffffffffffffffff90fa4a62c4e0000060080b81526020017fffffffffffffffffffffffffffffffffffffffffffffffff9edb01166c44000060080b81526020017fffffffffffffffffffffffffffffffffffffffffffffffffacbbb7ca13a8000060080b81526020017fffffffffffffffffffffffffffffffffffffffffffffffffba9c6e7dbb0c000060080b81526020017fffffffffffffffffffffffffffffffffffffffffffffffffc18cc9d78ebe000060080b81526020017fffffffffffffffffffffffffffffffffffffffffffffffffc87d25316270000060080b81526020017fffffffffffffffffffffffffffffffffffffffffffffffffcf6d808b3622000060080b81526020017fffffffffffffffffffffffffffffffffffffffffffffffffd65ddbe509d4000060080b81526020017fffffffffffffffffffffffffffffffffffffffffffffffffd7c1215d675e000060080b81526020017fffffffffffffffffffffffffffffffffffffffffffffffffd92466d5c4e8000060080b81526020017fffffffffffffffffffffffffffffffffffffffffffffffffda87ac4e2272000060080b81526020017fffffffffffffffffffffffffffffffffffffffffffffffffdbeaf1c67ffc000060080b81526020017fffffffffffffffffffffffffffffffffffffffffffffffffdd4e373edd86000060080b81526020017fffffffffffffffffffffffffffffffffffffffffffffffffdeb17cb73b10000060080b81526020017fffffffffffffffffffffffffffffffffffffffffffffffffe014c22f989a000060080b81526020017fffffffffffffffffffffffffffffffffffffffffffffffffe17807a7f624000060080b81526020017fffffffffffffffffffffffffffffffffffffffffffffffffe2db4d2053ae000060080b81526020017fffffffffffffffffffffffffffffffffffffffffffffffffe43e9298b138000060080b81526020017fffffffffffffffffffffffffffffffffffffffffffffffffe5a1d8110ec2000060080b81526020017fffffffffffffffffffffffffffffffffffffffffffffffffe7051d896c4c000060080b81526020017fffffffffffffffffffffffffffffffffffffffffffffffffe8686301c9d6000060080b81526020017fffffffffffffffffffffffffffffffffffffffffffffffffe9cba87a2760000060080b81526020017fffffffffffffffffffffffffffffffffffffffffffffffffeb2eedf284ea000060080b81526020017fffffffffffffffffffffffffffffffffffffffffffffffffec92336ae274000060080b81526020017fffffffffffffffffffffffffffffffffffffffffffffffffedf578e33ffe000060080b81526020017fffffffffffffffffffffffffffffffffffffffffffffffffef58be5b9d88000060080b81526020017ffffffffffffffffffffffffffffffffffffffffffffffffff0bc03d3fb12000060080b81526020017ffffffffffffffffffffffffffffffffffffffffffffffffff21f494c589c000060080b81526020017ffffffffffffffffffffffffffffffffffffffffffffffffff3828ec4b626000060080b81526020017ffffffffffffffffffffffffffffffffffffffffffffffffff4e5d43d13b0000060080b81526020017ffffffffffffffffffffffffffffffffffffffffffffffffff64919b5713a000060080b81526020017ffffffffffffffffffffffffffffffffffffffffffffffffff7ac5f2dcec4000060080b81526020017ffffffffffffffffffffffffffffffffffffffffffffffffff90fa4a62c4e000060080b81526020017ffffffffffffffffffffffffffffffffffffffffffffffffffa72ea1e89d8000060080b81526020017ffffffffffffffffffffffffffffffffffffffffffffffffffbd62f96e762000060080b81526020017ffffffffffffffffffffffffffffffffffffffffffffffffffd39750f44ec000060080b81526020017ffffffffffffffffffffffffffffffffffffffffffffffffffe9cba87a276000060080b8152602001600060080b815260200167016345785d8a000060080b81526020016702c68af0bb14000060080b8152602001670429d069189e000060080b815260200167058d15e17628000060080b81526020016706f05b59d3b2000060080b8152602001670853a0d2313c000060080b81526020016709b6e64a8ec6000060080b8152602001670b1a2bc2ec50000060080b8152602001670c7d713b49da000060080b8152602001670de0b6b3a764000060080b8152602001670f43fc2c04ee000060080b81526020016710a741a46278000060080b815260200167120a871cc002000060080b815260200167136dcc951d8c000060080b81526020016714d1120d7b16000060080b81526020016716345785d8a0000060080b81526020016717979cfe362a000060080b81526020016718fae27693b4000060080b8152602001671a5e27eef13e000060080b8152602001671bc16d674ec8000060080b8152602001671d24b2dfac52000060080b8152602001671e87f85809dc000060080b8152602001671feb3dd06766000060080b815260200167214e8348c4f0000060080b81526020016722b1c8c1227a000060080b81526020016724150e398004000060080b815260200167257853b1dd8e000060080b81526020016726db992a3b18000060080b815260200167283edea298a2000060080b81526020016729a2241af62c000060080b81526020016730927f74c9de000060080b8152602001673782dace9d90000060080b8152602001673e7336287142000060080b8152602001674563918244f4000060080b81526020016753444835ec58000060080b8152602001676124fee993bc000060080b8152602001676f05b59d3b20000060080b8152602001677ce66c50e284000060080b8152602001678ac7230489e8000060080b81526020016798a7d9b8314c000060080b815260200167a688906bd8b0000060080b815260200167b469471f8014000060080b815260200167c249fdd32778000060080b815260200167d02ab486cedc000060080b8152509050600060405180610b200160405280600067ffffffffffffffff1681526020016302ac265467ffffffffffffffff168152602001630ea87f4067ffffffffffffffff168152602001635066183867ffffffffffffffff1681526020016401b8fadbca67ffffffffffffffff168152602001640972bbc11467ffffffffffffffff1681526020016433d28609ff67ffffffffffffffff16815260200165011c3d90be9867ffffffffffffffff168152602001650617061e622b67ffffffffffffffff168152602001652166d7d7e58067ffffffffffffffff16815260200165b72cd961350a67ffffffffffffffff1681526020016601ace0ccb0ffd267ffffffffffffffff1681526020016603ebcac407bfa667ffffffffffffffff16815260200166092b644ed8971c67ffffffffffffffff168152602001661566963940bcf867ffffffffffffffff168152602001661957d7dbe793c467ffffffffffffffff168152602001661e0171808fc27467ffffffffffffffff1681526020016623846cc5efa3ce67ffffffffffffffff168152602001662a077e40df04f467ffffffffffffffff1681526020016631b7e487e8c6a067ffffffffffffffff168152602001663aca5f1113221467ffffffffffffffff16815260200166457c3aeabd4c2867ffffffffffffffff16815260200166521470d9790d5067ffffffffffffffff1681526020016660e4ccd85770fc67ffffffffffffffff16815260200166724b1217ecac5c67ffffffffffffffff1681526020016686b20819b6c83067ffffffffffffffff168152602001669e92552cde3d5467ffffffffffffffff16815260200166ba730044d8b20c67ffffffffffffffff16815260200166dae96810784be067ffffffffffffffff16815260200167010098700b8a077c67ffffffffffffffff16815260200167012c2e976c17d5e067ffffffffffffffff16815260200167015e62a3c6761e6c67ffffffffffffffff168152602001670197ee85e83622c067ffffffffffffffff1681526020016701d98828005076f867ffffffffffffffff168152602001670223d7ef126f75f867ffffffffffffffff1681526020016702776ced5782cd9867ffffffffffffffff1681526020016702d4af13f69d342067ffffffffffffffff16815260200167033bd01fb85ed9e067ffffffffffffffff1681526020016703acbc7c7ede19a067ffffffffffffffff1681526020016704270dd934bc304067ffffffffffffffff1681526020016704aa0180a81000d067ffffffffffffffff168152602001670534749bef40ff6867ffffffffffffffff1681526020016705c4e8260172086067ffffffffffffffff1681526020016706598d804261481067ffffffffffffffff1681526020016706f05b59d3b2000067ffffffffffffffff16815260200167078729336502b7f067ffffffffffffffff16815260200167081bce8da5f1f7a067ffffffffffffffff1681526020016708ac4217b823009867ffffffffffffffff168152602001670936b532ff53ff3067ffffffffffffffff1681526020016709b9a8da72a7cfc067ffffffffffffffff168152602001670a33fa372885e66067ffffffffffffffff168152602001670aa4e693ef05262067ffffffffffffffff168152602001670b0c079fb0c6cbe067ffffffffffffffff168152602001670b6949c64fe1326867ffffffffffffffff168152602001670bbcdec494f48a0867ffffffffffffffff168152602001670c072e8ba713890867ffffffffffffffff168152602001670c48c82dbf2ddd4067ffffffffffffffff168152602001670c82540fe0ede06867ffffffffffffffff168152602001670cb4881c3b4c289067ffffffffffffffff168152602001670ce01e439bd9f9b067ffffffffffffffff168152602001670d05cd4b96ebb35867ffffffffffffffff168152602001670d2643b3628b4f2067ffffffffffffffff168152602001670d42245e7a85c3d867ffffffffffffffff168152602001670d5a04ab8dad364067ffffffffffffffff168152602001670d6e6ba18f77534067ffffffffffffffff168152602001670d7fd1e6cf0c90f867ffffffffffffffff168152602001670d8ea242cdeaf12067ffffffffffffffff168152602001670d9b3a78bca6b3d867ffffffffffffffff168152602001670da5ec549650dbf867ffffffffffffffff168152602001670daefecf1f7b396067ffffffffffffffff168152602001670db6af356684faa867ffffffffffffffff168152602001670dbd3246e1745c0067ffffffffffffffff168152602001670dc2b54226d43d7867ffffffffffffffff168152602001670dc75edbcb7c6e3067ffffffffffffffff168152602001670dcb501d6e23444867ffffffffffffffff168152602001670dd78b4f588b699867ffffffffffffffff168152602001670ddccae8e35c416867ffffffffffffffff168152602001670ddf09d2dab3017067ffffffffffffffff168152602001670ddfff86ce02ccd067ffffffffffffffff168152602001670de0954ccf8c1b6867ffffffffffffffff168152602001670de0b09ca1459db867ffffffffffffffff168152602001670de0b59769d3424067ffffffffffffffff168152602001670de0b67fd4ddf56067ffffffffffffffff168152602001670de0b6aa34a83eb867ffffffffffffffff168152602001670de0b6b1ee69256867ffffffffffffffff168152602001670de0b6b356fde86067ffffffffffffffff168152602001670de0b6b398bb7f6067ffffffffffffffff168152602001670de0b6b3a4b7db6067ffffffffffffffff168152602001670de0b6b3a764000067ffffffffffffffff16815250905060005b848382605981106117ed576117ec613230565b5b602002015160080b1280156118025750605981105b1561181a5780806118129061325f565b9150506117d9565b8160006059811061182e5761182d613230565b5b602002015167ffffffffffffffff169350605981141561186e578160586059811061185c5761185b613230565b5b602002015167ffffffffffffffff1693505b60008111801561187e5750605981105b156119f8578260018261189191906132a8565b605981106118a2576118a1613230565b5b602002015160080b8382605981106118bd576118bc613230565b5b602002015160080b6118cf91906130b2565b836001836118dd91906132a8565b605981106118ee576118ed613230565b5b602002015160080b8661190191906130b2565b83836059811061191457611913613230565b5b602002015167ffffffffffffffff1661192d919061304e565b611937919061301d565b8360018361194591906132a8565b6059811061195657611955613230565b5b602002015160080b84836059811061197157611970613230565b5b602002015160080b61198391906130b2565b8685846059811061199757611996613230565b5b602002015160080b6119a991906130b2565b846001856119b791906132a8565b605981106119c8576119c7613230565b5b602002015167ffffffffffffffff166119e1919061304e565b6119eb919061301d565b6119f591906131da565b93505b505050919050565b600080604051806109e001604052807fffffffffffffffffffffffffffffffffffffffffffffffff7538dcfb7618000060080b81526020017fffffffffffffffffffffffffffffffffffffffffffffffff831993af1d7c000060080b81526020017fffffffffffffffffffffffffffffffffffffffffffffffff90fa4a62c4e0000060080b81526020017fffffffffffffffffffffffffffffffffffffffffffffffff9edb01166c44000060080b81526020017fffffffffffffffffffffffffffffffffffffffffffffffffacbbb7ca13a8000060080b81526020017fffffffffffffffffffffffffffffffffffffffffffffffffba9c6e7dbb0c000060080b81526020017fffffffffffffffffffffffffffffffffffffffffffffffffc18cc9d78ebe000060080b81526020017fffffffffffffffffffffffffffffffffffffffffffffffffc87d25316270000060080b81526020017fffffffffffffffffffffffffffffffffffffffffffffffffcf6d808b3622000060080b81526020017fffffffffffffffffffffffffffffffffffffffffffffffffd65ddbe509d4000060080b81526020017fffffffffffffffffffffffffffffffffffffffffffffffffd7c1215d675e000060080b81526020017fffffffffffffffffffffffffffffffffffffffffffffffffd92466d5c4e8000060080b81526020017fffffffffffffffffffffffffffffffffffffffffffffffffda87ac4e2272000060080b81526020017fffffffffffffffffffffffffffffffffffffffffffffffffdbeaf1c67ffc000060080b81526020017fffffffffffffffffffffffffffffffffffffffffffffffffdd4e373edd86000060080b81526020017fffffffffffffffffffffffffffffffffffffffffffffffffdeb17cb73b10000060080b81526020017fffffffffffffffffffffffffffffffffffffffffffffffffe014c22f989a000060080b81526020017fffffffffffffffffffffffffffffffffffffffffffffffffe17807a7f624000060080b81526020017fffffffffffffffffffffffffffffffffffffffffffffffffe2db4d2053ae000060080b81526020017fffffffffffffffffffffffffffffffffffffffffffffffffe43e9298b138000060080b81526020017fffffffffffffffffffffffffffffffffffffffffffffffffe5a1d8110ec2000060080b81526020017fffffffffffffffffffffffffffffffffffffffffffffffffe7051d896c4c000060080b81526020017fffffffffffffffffffffffffffffffffffffffffffffffffe8686301c9d6000060080b81526020017fffffffffffffffffffffffffffffffffffffffffffffffffe9cba87a2760000060080b81526020017fffffffffffffffffffffffffffffffffffffffffffffffffeb2eedf284ea000060080b81526020017fffffffffffffffffffffffffffffffffffffffffffffffffec92336ae274000060080b81526020017fffffffffffffffffffffffffffffffffffffffffffffffffedf578e33ffe000060080b81526020017fffffffffffffffffffffffffffffffffffffffffffffffffef58be5b9d88000060080b81526020017ffffffffffffffffffffffffffffffffffffffffffffffffff0bc03d3fb12000060080b81526020017ffffffffffffffffffffffffffffffffffffffffffffffffff21f494c589c000060080b81526020017ffffffffffffffffffffffffffffffffffffffffffffffffff3828ec4b626000060080b81526020017ffffffffffffffffffffffffffffffffffffffffffffffffff4e5d43d13b0000060080b81526020017ffffffffffffffffffffffffffffffffffffffffffffffffff64919b5713a000060080b81526020017ffffffffffffffffffffffffffffffffffffffffffffffffff7ac5f2dcec4000060080b81526020017ffffffffffffffffffffffffffffffffffffffffffffffffff90fa4a62c4e000060080b81526020017ffffffffffffffffffffffffffffffffffffffffffffffffffa72ea1e89d8000060080b81526020017ffffffffffffffffffffffffffffffffffffffffffffffffffbd62f96e762000060080b81526020017ffffffffffffffffffffffffffffffffffffffffffffffffffd39750f44ec000060080b81526020017ffffffffffffffffffffffffffffffffffffffffffffffffffe9cba87a276000060080b8152602001600060080b815260200167016345785d8a000060080b81526020016702c68af0bb14000060080b8152602001670429d069189e000060080b815260200167058d15e17628000060080b81526020016706f05b59d3b2000060080b8152602001670853a0d2313c000060080b81526020016709b6e64a8ec6000060080b8152602001670b1a2bc2ec50000060080b8152602001670c7d713b49da000060080b8152602001670de0b6b3a764000060080b8152602001670f43fc2c04ee000060080b81526020016710a741a46278000060080b815260200167120a871cc002000060080b815260200167136dcc951d8c000060080b81526020016714d1120d7b16000060080b81526020016716345785d8a0000060080b81526020016717979cfe362a000060080b81526020016718fae27693b4000060080b8152602001671a5e27eef13e000060080b8152602001671bc16d674ec8000060080b8152602001671d24b2dfac52000060080b8152602001671e87f85809dc000060080b8152602001671feb3dd06766000060080b815260200167214e8348c4f0000060080b81526020016722b1c8c1227a000060080b81526020016724150e398004000060080b815260200167257853b1dd8e000060080b81526020016726db992a3b18000060080b815260200167283edea298a2000060080b81526020016729a2241af62c000060080b81526020016730927f74c9de000060080b8152602001673782dace9d90000060080b8152602001673e7336287142000060080b8152602001674563918244f4000060080b81526020016753444835ec58000060080b8152602001676124fee993bc000060080b8152602001676f05b59d3b20000060080b8152602001677ce66c50e284000060080b8152602001678ac7230489e8000060080b81525090506000604051806109e00160405280600067ffffffffffffffff168152602001600167ffffffffffffffff1681526020016113bc67ffffffffffffffff168152602001628b628067ffffffffffffffff16815260200164016a269d6167ffffffffffffffff16815260200165015a2763786e67ffffffffffffffff168152602001650e898135fad967ffffffffffffffff1681526020016579b7c711221567ffffffffffffffff168152602001660319b3460a328067ffffffffffffffff168152602001660fbebe1e4abcda67ffffffffffffffff168152602001661525cbf4650d6a67ffffffffffffffff168152602001661c1f0fafd71f8267ffffffffffffffff168152602001662505c8f5d7564867ffffffffffffffff168152602001663041a3782b3c6067ffffffffffffffff168152602001663e45e57c6f79f467ffffffffffffffff168152602001664f8fb4e722c61467ffffffffffffffff1681526020016664a34a6e2091b067ffffffffffffffff168152602001667e07f44926b76867ffffffffffffffff168152602001669c42d8f65b8fc067ffffffffffffffff16815260200166bfd07f7c193d0467ffffffffffffffff16815260200166e91d3c634adc7867ffffffffffffffff1681526020016701187cc02c7c53f867ffffffffffffffff16815260200167014e21233880a8d867ffffffffffffffff16815260200167018a11e95542410067ffffffffffffffff1681526020016701cc239129d402a067ffffffffffffffff168152602001670213f05632568ce867ffffffffffffffff168152602001670260d2d396ab1a1867ffffffffffffffff1681526020016702b1e3302b9bdfc867ffffffffffffffff168152602001670305f76699921a5867ffffffffffffffff16815260200167035ba7178901e65867ffffffffffffffff1681526020016703b15320002fb3b867ffffffffffffffff16815260200167040530eeb0c78ef867ffffffffffffffff168152602001670455594c4a0b562867ffffffffffffffff16815260200167049fda02c5c94dc067ffffffffffffffff1681526020016704e2c98ca38496e067ffffffffffffffff16815260200167051c5bbdce29af7867ffffffffffffffff16815260200167054af6328e2fcfe067ffffffffffffffff16815260200167056d4342226b390067ffffffffffffffff168152602001670582423d210dbe2067ffffffffffffffff16815260200167058953e3ed3631a867ffffffffffffffff168152602001670582423d210dbe2067ffffffffffffffff16815260200167056d4342226b390067ffffffffffffffff16815260200167054af6328e2fcfe067ffffffffffffffff16815260200167051c5bbdce29af7867ffffffffffffffff1681526020016704e2c98ca38496e067ffffffffffffffff16815260200167049fda02c5c94dc067ffffffffffffffff168152602001670455594c4a0b562867ffffffffffffffff16815260200167040530eeb0c78ef867ffffffffffffffff1681526020016703b15320002fb3b867ffffffffffffffff16815260200167035ba7178901e65867ffffffffffffffff168152602001670305f76699921a5867ffffffffffffffff1681526020016702b1e3302b9bdfc867ffffffffffffffff168152602001670260d2d396ab1a1867ffffffffffffffff168152602001670213f05632568ce867ffffffffffffffff1681526020016701cc239129d402a067ffffffffffffffff16815260200167018a11e95542410067ffffffffffffffff16815260200167014e21233880a8d867ffffffffffffffff1681526020016701187cc02c7c53f867ffffffffffffffff16815260200166e91d3c634adc7867ffffffffffffffff16815260200166bfd07f7c193d0467ffffffffffffffff168152602001669c42d8f65b8fc067ffffffffffffffff168152602001667e07f44926b76867ffffffffffffffff1681526020016664a34a6e2091b067ffffffffffffffff168152602001664f8fb4e722c61467ffffffffffffffff168152602001663e45e57c6f79f467ffffffffffffffff168152602001663041a3782b3c6067ffffffffffffffff168152602001662505c8f5d7564867ffffffffffffffff168152602001661c1f0fafd71f8267ffffffffffffffff168152602001661525cbf4650d6a67ffffffffffffffff168152602001660fbebe1e4abcda67ffffffffffffffff168152602001660319b3460a328067ffffffffffffffff1681526020016579b7c711221567ffffffffffffffff168152602001650e898135fad967ffffffffffffffff16815260200165015a2763786e67ffffffffffffffff16815260200164016a269d6167ffffffffffffffff168152602001628b628067ffffffffffffffff1681526020016113bc67ffffffffffffffff168152602001600167ffffffffffffffff168152602001600067ffffffffffffffff168152509050600080604f9050600094505b858483604f8110612a2757612a26613230565b5b602002015160080b128015612a3b57508082105b15612a53578180612a4b9061325f565b925050612a13565b80821415612a8c5782600183612a6991906132a8565b604f8110612a7a57612a79613230565b5b602002015167ffffffffffffffff1694505b600082118015612a9b57508082105b15612c155783600183612aae91906132a8565b604f8110612abf57612abe613230565b5b602002015160080b8483604f8110612ada57612ad9613230565b5b602002015160080b612aec91906130b2565b84600184612afa91906132a8565b604f8110612b0b57612b0a613230565b5b602002015160080b87612b1e91906130b2565b8484604f8110612b3157612b30613230565b5b602002015167ffffffffffffffff16612b4a919061304e565b612b54919061301d565b84600184612b6291906132a8565b604f8110612b7357612b72613230565b5b602002015160080b8584604f8110612b8e57612b8d613230565b5b602002015160080b612ba091906130b2565b878685604f8110612bb457612bb3613230565b5b602002015160080b612bc691906130b2565b85600186612bd491906132a8565b604f8110612be557612be4613230565b5b602002015167ffffffffffffffff16612bfe919061304e565b612c08919061301d565b612c1291906131da565b94505b50505050919050565b6000806000905060006001811115612c3957612c386132dc565b5b846001811115612c4c57612c4b6132dc565b5b148015612c5857508686115b15612c6c578686612c6991906132a8565b90505b600180811115612c7f57612c7e6132dc565b5b846001811115612c9257612c916132dc565b5b148015612c9e57508686105b15612cb2578587612caf91906132a8565b90505b612cbd8186856102e6565b91505095945050505050565b600080841415612cdb57839050612daf565b6000858711612d0057858388612cf1919061304e565b612cfb919061301d565b612d18565b868387612d0d919061304e565b612d17919061301d565b5b905060006002848711612d2b5786612d2d565b845b612d37919061301d565b84612d4291906132a8565b9050600081856002612d54919061304e565b612d5e91906132a8565b905060008286612d6e91906132a8565b9050612da8600488612d80919061304e565b612d96838b8887612d9191906132a8565b6102e6565b88600a612da3919061304e565b6102e6565b9450505050505b95945050505050565b600080fd5b6000819050919050565b612dd081612dbd565b8114612ddb57600080fd5b50565b600081359050612ded81612dc7565b92915050565b60008060008060808587031215612e0d57612e0c612db8565b5b6000612e1b87828801612dde565b9450506020612e2c87828801612dde565b9350506040612e3d87828801612dde565b9250506060612e4e87828801612dde565b91505092959194509250565b612e6381612dbd565b82525050565b6000602082019050612e7e6000830184612e5a565b92915050565b6000819050919050565b612e9781612e84565b8114612ea257600080fd5b50565b600081359050612eb481612e8e565b92915050565b600080600060608486031215612ed357612ed2612db8565b5b6000612ee186828701612ea5565b9350506020612ef286828701612dde565b9250506040612f0386828701612dde565b9150509250925092565b60028110612f1a57600080fd5b50565b600081359050612f2c81612f0d565b92915050565b60008060008060008060c08789031215612f4f57612f4e612db8565b5b6000612f5d89828a01612dde565b9650506020612f6e89828a01612dde565b9550506040612f7f89828a01612dde565b9450506060612f9089828a01612f1d565b9350506080612fa189828a01612dde565b92505060a0612fb289828a01612dde565b9150509295509295509295565b7f4e487b7100000000000000000000000000000000000000000000000000000000600052601260045260246000fd5b7f4e487b7100000000000000000000000000000000000000000000000000000000600052601160045260246000fd5b600061302882612dbd565b915061303383612dbd565b92508261304357613042612fbf565b5b828204905092915050565b600061305982612dbd565b915061306483612dbd565b9250817fffffffffffffffffffffffffffffffffffffffffffffffffffffffffffffffff048311821515161561309d5761309c612fee565b5b828202905092915050565b6000819050919050565b60006130bd826130a8565b91506130c8836130a8565b9250827f80000000000000000000000000000000000000000000000000000000000000000182126000841215161561310357613102612fee565b5b827f7fffffffffffffffffffffffffffffffffffffffffffffffffffffffffffffff01821360008412161561313b5761313a612fee565b5b828203905092915050565b6000613151826130a8565b915061315c836130a8565b9250817f7fffffffffffffffffffffffffffffffffffffffffffffffffffffffffffffff0383136000831215161561319757613196612fee565b5b817f80000000000000000000000000000000000000000000000000000000000000000383126000831216156131cf576131ce612fee565b5b828201905092915050565b60006131e582612dbd565b91506131f083612dbd565b9250827fffffffffffffffffffffffffffffffffffffffffffffffffffffffffffffffff0382111561322557613224612fee565b5b828201905092915050565b7f4e487b7100000000000000000000000000000000000000000000000000000000600052603260045260246000fd5b600061326a82612dbd565b91507fffffffffffffffffffffffffffffffffffffffffffffffffffffffffffffffff82141561329d5761329c612fee565b5b600182019050919050565b60006132b382612dbd565b91506132be83612dbd565b9250828210156132d1576132d0612fee565b5b828203905092915050565b7f4e487b7100000000000000000000000000000000000000000000000000000000600052602160045260246000fdfea26469706673582212209961e20688503e3d068b0c9907e6d89137c16715943115dd2dc7842551a6b82f64736f6c63430008090033",
  "immutableReferences": {},
  "source": "/**\n * SPDX-License-Identifier: GPL-3.0-or-later\n * Moret\n * Copyright (C) 2021 Moret\n*/\n\npragma solidity 0.8.9;\n\nimport \"./FullMath.sol\";\nimport \"prb-math/contracts/PRBMath.sol\";\n\nlibrary OptionLibrary {\n  using PRBMath for uint256;\n  enum PayoffType { Call, Put}\n  enum OptionSide{ Buy, Sell}\n  enum OptionStatus { Draft, Active, Exercised, Expired}\n  struct Option { PayoffType poType; OptionSide side; OptionStatus status; address holder; uint256 id; uint256 createTime; uint256 effectiveTime; uint256 tenor; uint256 maturity; uint256 exerciseTime; uint256 amount;uint256 spot;uint256 strike;uint256 volatility;uint256 premium;uint256 cost;}\n  struct Percent{ uint256 numerator; uint256 denominator;}\n\n  function calcIntrinsicValue(uint256 _strike, uint256 _price, uint256 _amount, PayoffType _poType, uint256 _priceMultiplier) private pure returns(uint256){\n      uint256 _intrinsicValue = 0;\n      if((_poType == PayoffType.Call) && (_price > _strike)){ _intrinsicValue = _price - _strike; }\n      if((_poType == PayoffType.Put) && (_price<_strike)){ _intrinsicValue = _strike - _price;}\n      return MulDiv(_intrinsicValue, _amount, _priceMultiplier); }\n\n  function calcTimeValue(uint256 _strike, uint256 _price, uint256 _volatility, uint256 _amount, uint256 _priceMultiplier) private pure returns (uint256){\n    if(_volatility == 0) return _volatility;\n    uint256 _moneyness = _strike > _price? (_price * _priceMultiplier / _strike) : (_strike * _priceMultiplier / _price); // always in (0,1]\n    uint256 _midPoint = _priceMultiplier - (_volatility > _priceMultiplier? _priceMultiplier: _volatility) / 2 ; // always in [0.5, 1]\n    uint256 _a = 2 * _priceMultiplier - _midPoint; // always in [1, 1.5]\n    uint256 _b = _priceMultiplier - _midPoint; // always in [0, 0.5]\n    return MulDiv(_amount * 4, MulDiv(_b,  _volatility, _a - _moneyness), 10 * _priceMultiplier);}\n\n  function calcPremium(uint256 _price, uint256 _volatility, uint256 _strike, PayoffType _poType, uint256 _amount, uint256 _priceMultiplier) public pure returns(uint256){\n      uint256 _intrinsicValue = calcIntrinsicValue(_strike, _price, _amount, _poType, _priceMultiplier);\n      uint256 _timeValue = MulDiv(calcTimeValue(_strike, _price, _volatility, _amount, _priceMultiplier), _price, _priceMultiplier);\n      return _intrinsicValue + _timeValue;}\n\n  function calcPayoff(Option storage _option, uint256 _price, uint256 _priceMultiplier) public view returns(uint256){\n    return calcIntrinsicValue(_option.strike, _price, _option.amount, _option.poType, _priceMultiplier);}\n\n  function calcNotionalExposure(Option storage _option, uint256 _price, uint256 _priceMultiplier) public view returns(uint256){ return MulDiv(_option.amount, _price, _priceMultiplier);}\n\n  function calcDelta(uint256 _price, uint256 _strike, uint256 _priceMultiplier, uint256 _vol) public pure returns(uint256 _delta){\n    uint256 _moneyness = MulDiv(_price, _priceMultiplier, _strike);\n    int256 _d = int256(MulDiv(2 ,  (_moneyness * _priceMultiplier).sqrt(), _vol)) - int256(MulDiv(2,  _priceMultiplier, _vol)) + int256(_vol / 2);\n    _delta = Logistic(_d);}\n  \n  function calcGamma(uint256 _price, uint256 _strike, uint256 _priceMultiplier, uint256 _vol) public pure returns(uint256 _gamma){\n    uint256 _moneyness = MulDiv(_price, _priceMultiplier, _strike);\n    int256 _d = int256(MulDiv(2 ,  (_moneyness * _priceMultiplier).sqrt(), _vol)) - int256(MulDiv(2,  _priceMultiplier, _vol)) + int256(_vol / 2);\n    _gamma = MulDiv(MulDiv(NormalDensity(_d), _priceMultiplier, _price), _priceMultiplier, _vol);}\n\n}\n",
  "sourcePath": "/Users/mac/Documents/GitHub/moret/contracts/OptionLibrary.sol",
  "compiler": {
    "name": "solc",
    "version": "0.8.9+commit.e5eed63a.Emscripten.clang"
  },
  "schemaVersion": "3.4.3",
  "updatedAt": "2021-10-26T23:07:52.745Z",
  "devdoc": {
    "kind": "dev",
    "methods": {},
    "version": 1
  },
  "userdoc": {
    "kind": "user",
    "methods": {},
    "version": 1
  }
}