{
  "contractName": "OptionVault",
  "abi": [
    {
      "inputs": [
        {
          "internalType": "address",
          "name": "_volChainAddress",
          "type": "address"
        }
      ],
      "stateMutability": "nonpayable",
      "type": "constructor"
    },
    {
      "anonymous": false,
      "inputs": [
        {
          "indexed": true,
          "internalType": "bytes32",
          "name": "role",
          "type": "bytes32"
        },
        {
          "indexed": true,
          "internalType": "bytes32",
          "name": "previousAdminRole",
          "type": "bytes32"
        },
        {
          "indexed": true,
          "internalType": "bytes32",
          "name": "newAdminRole",
          "type": "bytes32"
        }
      ],
      "name": "RoleAdminChanged",
      "type": "event"
    },
    {
      "anonymous": false,
      "inputs": [
        {
          "indexed": true,
          "internalType": "bytes32",
          "name": "role",
          "type": "bytes32"
        },
        {
          "indexed": true,
          "internalType": "address",
          "name": "account",
          "type": "address"
        },
        {
          "indexed": true,
          "internalType": "address",
          "name": "sender",
          "type": "address"
        }
      ],
      "name": "RoleGranted",
      "type": "event"
    },
    {
      "anonymous": false,
      "inputs": [
        {
          "indexed": true,
          "internalType": "bytes32",
          "name": "role",
          "type": "bytes32"
        },
        {
          "indexed": true,
          "internalType": "address",
          "name": "account",
          "type": "address"
        },
        {
          "indexed": true,
          "internalType": "address",
          "name": "sender",
          "type": "address"
        }
      ],
      "name": "RoleRevoked",
      "type": "event"
    },
    {
      "inputs": [],
      "name": "DEFAULT_ADMIN_ROLE",
      "outputs": [
        {
          "internalType": "bytes32",
          "name": "",
          "type": "bytes32"
        }
      ],
      "stateMutability": "view",
      "type": "function"
    },
    {
      "inputs": [],
      "name": "EXCHANGE_ROLE",
      "outputs": [
        {
          "internalType": "bytes32",
          "name": "",
          "type": "bytes32"
        }
      ],
      "stateMutability": "view",
      "type": "function"
    },
    {
      "inputs": [
        {
          "internalType": "bytes32",
          "name": "role",
          "type": "bytes32"
        }
      ],
      "name": "getRoleAdmin",
      "outputs": [
        {
          "internalType": "bytes32",
          "name": "",
          "type": "bytes32"
        }
      ],
      "stateMutability": "view",
      "type": "function"
    },
    {
      "inputs": [
        {
          "internalType": "bytes32",
          "name": "role",
          "type": "bytes32"
        },
        {
          "internalType": "address",
          "name": "account",
          "type": "address"
        }
      ],
      "name": "grantRole",
      "outputs": [],
      "stateMutability": "nonpayable",
      "type": "function"
    },
    {
      "inputs": [
        {
          "internalType": "bytes32",
          "name": "role",
          "type": "bytes32"
        },
        {
          "internalType": "address",
          "name": "account",
          "type": "address"
        }
      ],
      "name": "hasRole",
      "outputs": [
        {
          "internalType": "bool",
          "name": "",
          "type": "bool"
        }
      ],
      "stateMutability": "view",
      "type": "function"
    },
    {
      "inputs": [],
      "name": "optionCounter",
      "outputs": [
        {
          "internalType": "uint256",
          "name": "",
          "type": "uint256"
        }
      ],
      "stateMutability": "view",
      "type": "function"
    },
    {
      "inputs": [
        {
          "internalType": "bytes32",
          "name": "role",
          "type": "bytes32"
        },
        {
          "internalType": "address",
          "name": "account",
          "type": "address"
        }
      ],
      "name": "renounceRole",
      "outputs": [],
      "stateMutability": "nonpayable",
      "type": "function"
    },
    {
      "inputs": [
        {
          "internalType": "bytes32",
          "name": "role",
          "type": "bytes32"
        },
        {
          "internalType": "address",
          "name": "account",
          "type": "address"
        }
      ],
      "name": "revokeRole",
      "outputs": [],
      "stateMutability": "nonpayable",
      "type": "function"
    },
    {
      "inputs": [
        {
          "internalType": "bytes4",
          "name": "interfaceId",
          "type": "bytes4"
        }
      ],
      "name": "supportsInterface",
      "outputs": [
        {
          "internalType": "bool",
          "name": "",
          "type": "bool"
        }
      ],
      "stateMutability": "view",
      "type": "function"
    },
    {
      "inputs": [],
      "name": "descriptionHash",
      "outputs": [
        {
          "internalType": "bytes32",
          "name": "",
          "type": "bytes32"
        }
      ],
      "stateMutability": "view",
      "type": "function"
    },
    {
      "inputs": [
        {
          "internalType": "uint256",
          "name": "_strike",
          "type": "uint256"
        },
        {
          "internalType": "uint256",
          "name": "_amount",
          "type": "uint256"
        },
        {
          "internalType": "uint256",
          "name": "_vol",
          "type": "uint256"
        },
        {
          "internalType": "enum OptionLibrary.PayoffType",
          "name": "_poType",
          "type": "uint8"
        },
        {
          "internalType": "enum OptionLibrary.OptionSide",
          "name": "_side",
          "type": "uint8"
        }
      ],
      "name": "queryOptionCost",
      "outputs": [
        {
          "internalType": "uint256",
          "name": "_premium",
          "type": "uint256"
        },
        {
          "internalType": "uint256",
          "name": "_cost",
          "type": "uint256"
        },
        {
          "internalType": "uint256",
          "name": "_price",
          "type": "uint256"
        }
      ],
      "stateMutability": "view",
      "type": "function"
    },
    {
      "inputs": [
        {
          "internalType": "uint256",
          "name": "_tenor",
          "type": "uint256"
        },
        {
          "internalType": "uint256",
          "name": "_strike",
          "type": "uint256"
        },
        {
          "internalType": "uint256",
          "name": "_amount",
          "type": "uint256"
        },
        {
          "internalType": "enum OptionLibrary.PayoffType",
          "name": "_poType",
          "type": "uint8"
        },
        {
          "internalType": "enum OptionLibrary.OptionSide",
          "name": "_side",
          "type": "uint8"
        },
        {
          "internalType": "uint256",
          "name": "_premium",
          "type": "uint256"
        },
        {
          "internalType": "uint256",
          "name": "_cost",
          "type": "uint256"
        },
        {
          "internalType": "uint256",
          "name": "_price",
          "type": "uint256"
        },
        {
          "internalType": "uint256",
          "name": "_volatility",
          "type": "uint256"
        },
        {
          "internalType": "address",
          "name": "_holder",
          "type": "address"
        }
      ],
      "name": "addOption",
      "outputs": [
        {
          "internalType": "uint256",
          "name": "_id",
          "type": "uint256"
        }
      ],
      "stateMutability": "nonpayable",
      "type": "function"
    },
    {
      "inputs": [
        {
          "internalType": "uint256",
          "name": "_id",
          "type": "uint256"
        }
      ],
      "name": "getOptionHolder",
      "outputs": [
        {
          "internalType": "address",
          "name": "",
          "type": "address"
        }
      ],
      "stateMutability": "view",
      "type": "function"
    },
    {
      "inputs": [
        {
          "internalType": "uint256",
          "name": "_id",
          "type": "uint256"
        }
      ],
      "name": "queryOptionPremium",
      "outputs": [
        {
          "internalType": "uint256",
          "name": "",
          "type": "uint256"
        }
      ],
      "stateMutability": "view",
      "type": "function"
    },
    {
      "inputs": [
        {
          "internalType": "uint256",
          "name": "_id",
          "type": "uint256"
        },
        {
          "internalType": "bool",
          "name": "_ignoreSells",
          "type": "bool"
        }
      ],
      "name": "queryOptionNotional",
      "outputs": [
        {
          "internalType": "uint256",
          "name": "_notional",
          "type": "uint256"
        }
      ],
      "stateMutability": "view",
      "type": "function"
    },
    {
      "inputs": [
        {
          "internalType": "uint256",
          "name": "_id",
          "type": "uint256"
        }
      ],
      "name": "getContractPayoff",
      "outputs": [
        {
          "internalType": "uint256",
          "name": "_payoff",
          "type": "uint256"
        },
        {
          "internalType": "uint256",
          "name": "_payback",
          "type": "uint256"
        }
      ],
      "stateMutability": "view",
      "type": "function"
    },
    {
      "inputs": [
        {
          "internalType": "uint256",
          "name": "_id",
          "type": "uint256"
        },
        {
          "internalType": "uint256",
          "name": "_price",
          "type": "uint256"
        },
        {
          "internalType": "bool",
          "name": "_ignoreSells",
          "type": "bool"
        }
      ],
      "name": "calculateContractDelta",
      "outputs": [
        {
          "internalType": "int256",
          "name": "_delta",
          "type": "int256"
        }
      ],
      "stateMutability": "view",
      "type": "function"
    },
    {
      "inputs": [
        {
          "internalType": "uint256",
          "name": "_id",
          "type": "uint256"
        },
        {
          "internalType": "uint256",
          "name": "_price",
          "type": "uint256"
        },
        {
          "internalType": "bool",
          "name": "_ignoreSells",
          "type": "bool"
        }
      ],
      "name": "calculateContractGamma",
      "outputs": [
        {
          "internalType": "int256",
          "name": "_gamma",
          "type": "int256"
        }
      ],
      "stateMutability": "view",
      "type": "function"
    },
    {
      "inputs": [],
      "name": "calculateSpotGamma",
      "outputs": [
        {
          "internalType": "int256",
          "name": "_gamma",
          "type": "int256"
        }
      ],
      "stateMutability": "view",
      "type": "function"
    },
    {
      "inputs": [
        {
          "internalType": "uint256",
          "name": "_id",
          "type": "uint256"
        }
      ],
      "name": "isOptionExpiring",
      "outputs": [
        {
          "internalType": "bool",
          "name": "",
          "type": "bool"
        }
      ],
      "stateMutability": "view",
      "type": "function"
    },
    {
      "inputs": [
        {
          "internalType": "uint256",
          "name": "_id",
          "type": "uint256"
        }
      ],
      "name": "stampActiveOption",
      "outputs": [],
      "stateMutability": "nonpayable",
      "type": "function"
    },
    {
      "inputs": [
        {
          "internalType": "uint256",
          "name": "_id",
          "type": "uint256"
        }
      ],
      "name": "stampExpiredOption",
      "outputs": [],
      "stateMutability": "nonpayable",
      "type": "function"
    },
    {
      "inputs": [
        {
          "internalType": "uint256",
          "name": "_id",
          "type": "uint256"
        }
      ],
      "name": "getOption",
      "outputs": [
        {
          "components": [
            {
              "internalType": "enum OptionLibrary.PayoffType",
              "name": "poType",
              "type": "uint8"
            },
            {
              "internalType": "enum OptionLibrary.OptionSide",
              "name": "side",
              "type": "uint8"
            },
            {
              "internalType": "enum OptionLibrary.OptionStatus",
              "name": "status",
              "type": "uint8"
            },
            {
              "internalType": "address",
              "name": "holder",
              "type": "address"
            },
            {
              "internalType": "uint256",
              "name": "id",
              "type": "uint256"
            },
            {
              "internalType": "uint256",
              "name": "createTime",
              "type": "uint256"
            },
            {
              "internalType": "uint256",
              "name": "effectiveTime",
              "type": "uint256"
            },
            {
              "internalType": "uint256",
              "name": "tenor",
              "type": "uint256"
            },
            {
              "internalType": "uint256",
              "name": "maturity",
              "type": "uint256"
            },
            {
              "internalType": "uint256",
              "name": "exerciseTime",
              "type": "uint256"
            },
            {
              "internalType": "uint256",
              "name": "amount",
              "type": "uint256"
            },
            {
              "internalType": "uint256",
              "name": "spot",
              "type": "uint256"
            },
            {
              "internalType": "uint256",
              "name": "strike",
              "type": "uint256"
            },
            {
              "internalType": "uint256",
              "name": "volatility",
              "type": "uint256"
            },
            {
              "internalType": "uint256",
              "name": "premium",
              "type": "uint256"
            },
            {
              "internalType": "uint256",
              "name": "cost",
              "type": "uint256"
            }
          ],
          "internalType": "struct OptionLibrary.Option",
          "name": "",
          "type": "tuple"
        }
      ],
      "stateMutability": "view",
      "type": "function"
    },
    {
      "inputs": [
        {
          "internalType": "uint256",
          "name": "_tenor",
          "type": "uint256"
        }
      ],
      "name": "queryVol",
      "outputs": [
        {
          "internalType": "uint256",
          "name": "",
          "type": "uint256"
        }
      ],
      "stateMutability": "view",
      "type": "function"
    },
    {
      "inputs": [],
      "name": "queryPrice",
      "outputs": [
        {
          "internalType": "uint256",
          "name": "",
          "type": "uint256"
        },
        {
          "internalType": "uint256",
          "name": "",
          "type": "uint256"
        }
      ],
      "stateMutability": "view",
      "type": "function"
    }
  ],
  "bytecode": "0x608060405260006002553480156200001657600080fd5b50604051620039ba380380620039ba83398181016040528101906200003c9190620002ae565b620000516000801b33620000cb60201b60201c565b620000837f28d62fc77014de57a1bbaa8212ff0979fa61ab00d377b4b8d9762048fb41996133620000cb60201b60201c565b80600360006101000a81548173ffffffffffffffffffffffffffffffffffffffff021916908373ffffffffffffffffffffffffffffffffffffffff16021790555050620002e0565b620000dd8282620000e160201b60201c565b5050565b620000f38282620001d260201b60201c565b620001ce57600160008084815260200190815260200160002060000160008373ffffffffffffffffffffffffffffffffffffffff1673ffffffffffffffffffffffffffffffffffffffff16815260200190815260200160002060006101000a81548160ff021916908315150217905550620001736200023c60201b60201c565b73ffffffffffffffffffffffffffffffffffffffff168173ffffffffffffffffffffffffffffffffffffffff16837f2f8788117e7eff1d82e926ec794901d17c78024a50270940304540a733656f0d60405160405180910390a45b5050565b600080600084815260200190815260200160002060000160008373ffffffffffffffffffffffffffffffffffffffff1673ffffffffffffffffffffffffffffffffffffffff16815260200190815260200160002060009054906101000a900460ff16905092915050565b600033905090565b600080fd5b600073ffffffffffffffffffffffffffffffffffffffff82169050919050565b6000620002768262000249565b9050919050565b620002888162000269565b81146200029457600080fd5b50565b600081519050620002a8816200027d565b92915050565b600060208284031215620002c757620002c662000244565b5b6000620002d78482850162000297565b91505092915050565b6136ca80620002f06000396000f3fe608060405234801561001057600080fd5b50600436106101735760003560e01c806376df2d08116100de578063a217fddf11610097578063b5310ff911610071578063b5310ff9146104c2578063cfc2dc20146104f2578063d547741f14610522578063f8a351811461053e57610173565b8063a217fddf14610455578063b0667cf814610473578063b1cbbfb71461049257610173565b806376df2d081461035657806385ae10e61461038857806385dcee93146103b95780638cbb0cd0146103d757806391d14854146104075780639bc67cd21461043757610173565b80632f2ff15d116101305780632f2ff15d1461028457806336568abe146102a05780633b734501146102bc57806346047a66146102da578063637baf601461030a57806369369ab51461032657610173565b806301ffc9a714610178578063105df856146101a85780631a7985ba146101d85780631ce5e9a614610208578063248a9ca31461023857806328e493c114610268575b600080fd5b610192600480360381019061018d91906125c8565b61055c565b60405161019f9190612610565b60405180910390f35b6101c260048036038101906101bd919061268d565b6105d6565b6040516101cf91906126dc565b60405180910390f35b6101f260048036038101906101ed91906126f7565b610654565b6040516101ff9190612765565b60405180910390f35b610222600480360381019061021d91906126f7565b610694565b60405161022f91906129ef565b60405180910390f35b610252600480360381019061024d9190612a41565b610841565b60405161025f9190612a7d565b60405180910390f35b610282600480360381019061027d91906126f7565b610860565b005b61029e60048036038101906102999190612ac4565b610941565b005b6102ba60048036038101906102b59190612ac4565b61096a565b005b6102c46109ed565b6040516102d19190612a7d565b60405180910390f35b6102f460048036038101906102ef91906126f7565b610a11565b60405161030191906126dc565b60405180910390f35b610324600480360381019061031f91906126f7565b610a31565b005b610340600480360381019061033b91906126f7565b610ac1565b60405161034d9190612610565b60405180910390f35b610370600480360381019061036b9190612b4e565b610b37565b60405161037f93929190612bc9565b60405180910390f35b6103a2600480360381019061039d91906126f7565b610d52565b6040516103b0929190612c00565b60405180910390f35b6103c1610fe4565b6040516103ce9190612a7d565b60405180910390f35b6103f160048036038101906103ec9190612c29565b6110b6565b6040516103fe9190612c95565b60405180910390f35b610421600480360381019061041c9190612ac4565b611473565b60405161042e9190612610565b60405180910390f35b61043f6114dd565b60405161044c9190612c95565b60405180910390f35b61045d611717565b60405161046a9190612a7d565b60405180910390f35b61047b61171e565b604051610489929190612c00565b60405180910390f35b6104ac60048036038101906104a79190612c29565b6117c8565b6040516104b99190612c95565b60405180910390f35b6104dc60048036038101906104d79190612cb0565b611b08565b6040516104e991906126dc565b60405180910390f35b61050c600480360381019061050791906126f7565b611d8f565b60405161051991906126dc565b60405180910390f35b61053c60048036038101906105379190612ac4565b611e43565b005b610546611e6c565b60405161055391906126dc565b60405180910390f35b60007f7965db0b000000000000000000000000000000000000000000000000000000007bffffffffffffffffffffffffffffffffffffffffffffffffffffffff1916827bffffffffffffffffffffffffffffffffffffffffffffffffffffffff191614806105cf57506105ce82611e72565b5b9050919050565b60006001600084815260200190815260200160002060070154905060018081111561060457610603612780565b5b6001600085815260200190815260200160002060000160019054906101000a900460ff16600181111561063a57610639612780565b5b1480156106445750815b1561064e57600090505b92915050565b60006001600083815260200190815260200160002060000160039054906101000a900473ffffffffffffffffffffffffffffffffffffffff169050919050565b61069c612493565b60016000838152602001908152602001600020604051806102000160405290816000820160009054906101000a900460ff1660018111156106e0576106df612780565b5b60018111156106f2576106f1612780565b5b81526020016000820160019054906101000a900460ff16600181111561071b5761071a612780565b5b600181111561072d5761072c612780565b5b81526020016000820160029054906101000a900460ff16600381111561075657610755612780565b5b600381111561076857610767612780565b5b81526020016000820160039054906101000a900473ffffffffffffffffffffffffffffffffffffffff1673ffffffffffffffffffffffffffffffffffffffff1673ffffffffffffffffffffffffffffffffffffffff168152602001600182015481526020016002820154815260200160038201548152602001600482015481526020016005820154815260200160068201548152602001600782015481526020016008820154815260200160098201548152602001600a8201548152602001600b8201548152602001600c820154815250509050919050565b6000806000838152602001908152602001600020600101549050919050565b7f28d62fc77014de57a1bbaa8212ff0979fa61ab00d377b4b8d9762048fb4199616108928161088d611edc565b611ee4565b426001600084815260200190815260200160002060030181905550600160008381526020019081526020016000206004015460016000848152602001908152602001600020600301546108e59190612dbe565b6001600084815260200190815260200160002060050181905550600180600084815260200190815260200160002060000160026101000a81548160ff0219169083600381111561093857610937612780565b5b02179055505050565b61094a82610841565b61095b81610956611edc565b611ee4565b6109658383611f81565b505050565b610972611edc565b73ffffffffffffffffffffffffffffffffffffffff168173ffffffffffffffffffffffffffffffffffffffff16146109df576040517f08c379a00000000000000000000000000000000000000000000000000000000081526004016109d690612e97565b60405180910390fd5b6109e98282612061565b5050565b7f28d62fc77014de57a1bbaa8212ff0979fa61ab00d377b4b8d9762048fb41996181565b600060016000838152602001908152602001600020600b01549050919050565b7f28d62fc77014de57a1bbaa8212ff0979fa61ab00d377b4b8d9762048fb419961610a6381610a5e611edc565b611ee4565b42600160008481526020019081526020016000206006018190555060036001600084815260200190815260200160002060000160026101000a81548160ff02191690836003811115610ab857610ab7612780565b5b02179055505050565b600060016003811115610ad757610ad6612780565b5b6001600084815260200190815260200160002060000160029054906101000a900460ff166003811115610b0d57610b0c612780565b5b148015610b30575042600160008481526020019081526020016000206005015411155b9050919050565b6000806000600360009054906101000a900473ffffffffffffffffffffffffffffffffffffffff1673ffffffffffffffffffffffffffffffffffffffff1663b0667cf86040518163ffffffff1660e01b8152600401604080518083038186803b158015610ba357600080fd5b505afa158015610bb7573d6000803e3d6000fd5b505050506040513d601f19601f82011682018060405250810190610bdb9190612ecc565b508091505073__OptionLibrary_________________________6324f6434582888b898c6040518663ffffffff1660e01b8152600401610c1f959493929190612f2a565b60206040518083038186803b158015610c3757600080fd5b505af4158015610c4b573d6000803e3d6000fd5b505050506040513d601f19601f82011682018060405250810190610c6f9190612f7d565b9250829150600180811115610c8757610c86612780565b5b846001811115610c9a57610c99612780565b5b1415610d47576000610d28888373__OptionLibrary_________________________63fd9b87636040518163ffffffff1660e01b815260040160206040518083038186803b158015610ceb57600080fd5b505af4158015610cff573d6000803e3d6000fd5b505050506040513d601f19601f82011682018060405250810190610d239190612f7d565b612142565b905083811015610d3757600080fd5b8381610d439190612faa565b9250505b955095509592505050565b6000806000600360009054906101000a900473ffffffffffffffffffffffffffffffffffffffff1673ffffffffffffffffffffffffffffffffffffffff1663b0667cf86040518163ffffffff1660e01b8152600401604080518083038186803b158015610dbe57600080fd5b505afa158015610dd2573d6000803e3d6000fd5b505050506040513d601f19601f82011682018060405250810190610df69190612ecc565b5090506001600085815260200190815260200160002073__OptionLibrary_________________________63a69d3ae09091836040518363ffffffff1660e01b8152600401610e46929190612fe5565b60206040518083038186803b158015610e5e57600080fd5b505af4158015610e72573d6000803e3d6000fd5b505050506040513d601f19601f82011682018060405250810190610e969190612f7d565b9250829150600180811115610eae57610ead612780565b5b6001600086815260200190815260200160002060000160019054906101000a900460ff166001811115610ee457610ee3612780565b5b1415610fde5760006001600086815260200190815260200160002073__OptionLibrary_________________________630862958b9091846040518363ffffffff1660e01b8152600401610f39929190612fe5565b60206040518083038186803b158015610f5157600080fd5b505af4158015610f65573d6000803e3d6000fd5b505050506040513d601f19601f82011682018060405250810190610f899190612f7d565b905083811015610fce576040517f08c379a0000000000000000000000000000000000000000000000000000000008152600401610fc59061305a565b60405180910390fd5b8381610fda9190612faa565b9250505b50915091565b6000600360009054906101000a900473ffffffffffffffffffffffffffffffffffffffff1673ffffffffffffffffffffffffffffffffffffffff166398de78976040518163ffffffff1660e01b815260040160006040518083038186803b15801561104e57600080fd5b505afa158015611062573d6000803e3d6000fd5b505050506040513d6000823e3d601f19601f8201168201806040525081019061108b91906131e4565b60405160200161109b9190613274565b60405160208183030381529060405280519060200120905090565b6000600160038111156110cc576110cb612780565b5b6001600086815260200190815260200160002060000160029054906101000a900460ff16600381111561110257611101612780565b5b14801561115f575081801561115d575060018081111561112557611124612780565b5b6001600086815260200190815260200160002060000160019054906101000a900460ff16600181111561115b5761115a612780565b5b145b155b1561146c576000600360009054906101000a900473ffffffffffffffffffffffffffffffffffffffff1673ffffffffffffffffffffffffffffffffffffffff1663040b030f6111c460016000898152602001908152602001600020600501544261223e565b60016000898152602001908152602001600020600501546111e59190612faa565b6040518263ffffffff1660e01b815260040161120191906126dc565b60206040518083038186803b15801561121957600080fd5b505afa15801561122d573d6000803e3d6000fd5b505050506040513d601f19601f820116820180604052508101906112519190612f7d565b905061138f73__OptionLibrary_________________________6323a00f6586600160008a815260200190815260200160002060090154856040518463ffffffff1660e01b81526004016112a79392919061328b565b60206040518083038186803b1580156112bf57600080fd5b505af41580156112d3573d6000803e3d6000fd5b505050506040513d601f19601f820116820180604052508101906112f79190612f7d565b600160008881526020019081526020016000206007015473__OptionLibrary_________________________63fd9b87636040518163ffffffff1660e01b815260040160206040518083038186803b15801561135257600080fd5b505af4158015611366573d6000803e3d6000fd5b505050506040513d601f19601f8201168201806040525081019061138a9190612f7d565b612142565b91506001808111156113a4576113a3612780565b5b6001600087815260200190815260200160002060000160009054906101000a900460ff1660018111156113da576113d9612780565b5b141561140e57816001600087815260200190815260200160002060070154611401906132c2565b61140b919061330b565b91505b60018081111561142157611420612780565b5b6001600087815260200190815260200160002060000160019054906101000a900460ff16600181111561145757611456612780565b5b141561146a5781611467906132c2565b91505b505b9392505050565b600080600084815260200190815260200160002060000160008373ffffffffffffffffffffffffffffffffffffffff1673ffffffffffffffffffffffffffffffffffffffff16815260200190815260200160002060009054906101000a900460ff16905092915050565b600080600360009054906101000a900473ffffffffffffffffffffffffffffffffffffffff1673ffffffffffffffffffffffffffffffffffffffff1663040b030f620151806040518263ffffffff1660e01b815260040161153e91906133e4565b60206040518083038186803b15801561155657600080fd5b505afa15801561156a573d6000803e3d6000fd5b505050506040513d601f19601f8201168201806040525081019061158e9190612f7d565b905073__OptionLibrary_________________________639932b2be73__OptionLibrary_________________________63fd9b87636040518163ffffffff1660e01b815260040160206040518083038186803b1580156115ee57600080fd5b505af4158015611602573d6000803e3d6000fd5b505050506040513d601f19601f820116820180604052508101906116269190612f7d565b73__OptionLibrary_________________________63fd9b87636040518163ffffffff1660e01b815260040160206040518083038186803b15801561166a57600080fd5b505af415801561167e573d6000803e3d6000fd5b505050506040513d601f19601f820116820180604052508101906116a29190612f7d565b846040518463ffffffff1660e01b81526004016116c19392919061328b565b60206040518083038186803b1580156116d957600080fd5b505af41580156116ed573d6000803e3d6000fd5b505050506040513d601f19601f820116820180604052508101906117119190612f7d565b91505090565b6000801b81565b600080600360009054906101000a900473ffffffffffffffffffffffffffffffffffffffff1673ffffffffffffffffffffffffffffffffffffffff1663b0667cf86040518163ffffffff1660e01b8152600401604080518083038186803b15801561178857600080fd5b505afa15801561179c573d6000803e3d6000fd5b505050506040513d601f19601f820116820180604052508101906117c09190612ecc565b915091509091565b6000600160038111156117de576117dd612780565b5b6001600086815260200190815260200160002060000160029054906101000a900460ff16600381111561181457611813612780565b5b148015611871575081801561186f575060018081111561183757611836612780565b5b6001600086815260200190815260200160002060000160019054906101000a900460ff16600181111561186d5761186c612780565b5b145b155b15611b01576000600360009054906101000a900473ffffffffffffffffffffffffffffffffffffffff1673ffffffffffffffffffffffffffffffffffffffff1663040b030f6118d660016000898152602001908152602001600020600501544261223e565b60016000898152602001908152602001600020600501546118f79190612faa565b6040518263ffffffff1660e01b815260040161191391906126dc565b60206040518083038186803b15801561192b57600080fd5b505afa15801561193f573d6000803e3d6000fd5b505050506040513d601f19601f820116820180604052508101906119639190612f7d565b9050611aa173__OptionLibrary_________________________639932b2be86600160008a815260200190815260200160002060090154856040518463ffffffff1660e01b81526004016119b99392919061328b565b60206040518083038186803b1580156119d157600080fd5b505af41580156119e5573d6000803e3d6000fd5b505050506040513d601f19601f82011682018060405250810190611a099190612f7d565b600160008881526020019081526020016000206007015473__OptionLibrary_________________________63fd9b87636040518163ffffffff1660e01b815260040160206040518083038186803b158015611a6457600080fd5b505af4158015611a78573d6000803e3d6000fd5b505050506040513d601f19601f82011682018060405250810190611a9c9190612f7d565b612142565b9150600180811115611ab657611ab5612780565b5b6001600087815260200190815260200160002060000160019054906101000a900460ff166001811115611aec57611aeb612780565b5b1415611aff5781611afc906132c2565b91505b505b9392505050565b60007f28d62fc77014de57a1bbaa8212ff0979fa61ab00d377b4b8d9762048fb419961611b3c81611b37611edc565b611ee4565b60026000815480929190611b4f906133ff565b919050555060025491506040518061020001604052808a6001811115611b7857611b77612780565b5b8152602001896001811115611b9057611b8f612780565b5b815260200160006003811115611ba957611ba8612780565b5b81526020018473ffffffffffffffffffffffffffffffffffffffff168152602001838152602001428152602001600081526020018d815260200160008152602001600081526020018b81526020018681526020018c8152602001858152602001888152602001878152506001600084815260200190815260200160002060008201518160000160006101000a81548160ff02191690836001811115611c5157611c50612780565b5b021790555060208201518160000160016101000a81548160ff02191690836001811115611c8157611c80612780565b5b021790555060408201518160000160026101000a81548160ff02191690836003811115611cb157611cb0612780565b5b021790555060608201518160000160036101000a81548173ffffffffffffffffffffffffffffffffffffffff021916908373ffffffffffffffffffffffffffffffffffffffff1602179055506080820151816001015560a0820151816002015560c0820151816003015560e08201518160040155610100820151816005015561012082015181600601556101408201518160070155610160820151816008015561018082015181600901556101a082015181600a01556101c082015181600b01556101e082015181600c0155905050509a9950505050505050505050565b6000600360009054906101000a900473ffffffffffffffffffffffffffffffffffffffff1673ffffffffffffffffffffffffffffffffffffffff1663040b030f836040518263ffffffff1660e01b8152600401611dec91906126dc565b60206040518083038186803b158015611e0457600080fd5b505afa158015611e18573d6000803e3d6000fd5b505050506040513d601f19601f82011682018060405250810190611e3c9190612f7d565b9050919050565b611e4c82610841565b611e5d81611e58611edc565b611ee4565b611e678383612061565b505050565b60025481565b60007f01ffc9a7000000000000000000000000000000000000000000000000000000007bffffffffffffffffffffffffffffffffffffffffffffffffffffffff1916827bffffffffffffffffffffffffffffffffffffffffffffffffffffffff1916149050919050565b600033905090565b611eee8282611473565b611f7d57611f138173ffffffffffffffffffffffffffffffffffffffff166014612257565b611f218360001c6020612257565b604051602001611f329291906134e0565b6040516020818303038152906040526040517f08c379a0000000000000000000000000000000000000000000000000000000008152600401611f749190613553565b60405180910390fd5b5050565b611f8b8282611473565b61205d57600160008084815260200190815260200160002060000160008373ffffffffffffffffffffffffffffffffffffffff1673ffffffffffffffffffffffffffffffffffffffff16815260200190815260200160002060006101000a81548160ff021916908315150217905550612002611edc565b73ffffffffffffffffffffffffffffffffffffffff168173ffffffffffffffffffffffffffffffffffffffff16837f2f8788117e7eff1d82e926ec794901d17c78024a50270940304540a733656f0d60405160405180910390a45b5050565b61206b8282611473565b1561213e57600080600084815260200190815260200160002060000160008373ffffffffffffffffffffffffffffffffffffffff1673ffffffffffffffffffffffffffffffffffffffff16815260200190815260200160002060006101000a81548160ff0219169083151502179055506120e3611edc565b73ffffffffffffffffffffffffffffffffffffffff168173ffffffffffffffffffffffffffffffffffffffff16837ff6391f5c32d9c69d2a47ea670b442974b53935d1edc7fd64eb21e047a839171b60405160405180910390a45b5050565b60008060008019858709858702925082811083820303915050600081141561217d576000841161217157600080fd5b83820492505050612237565b80841161218957600080fd5b60008486880990508281118203915080830392506000856001877fffffffffffffffffffffffffffffffffffffffffffffffffffffffffffffffff0301169050808604955080840493506001818260000304019050808302841793506000600287600302189050808702600203810290508087026002038102905080870260020381029050808702600203810290508087026002038102905080870260020381029050808502955050505050505b9392505050565b600081831061224d578161224f565b825b905092915050565b60606000600283600261226a9190613575565b6122749190612dbe565b67ffffffffffffffff81111561228d5761228c613095565b5b6040519080825280601f01601f1916602001820160405280156122bf5781602001600182028036833780820191505090505b5090507f3000000000000000000000000000000000000000000000000000000000000000816000815181106122f7576122f66135cf565b5b60200101907effffffffffffffffffffffffffffffffffffffffffffffffffffffffffffff1916908160001a9053507f78000000000000000000000000000000000000000000000000000000000000008160018151811061235b5761235a6135cf565b5b60200101907effffffffffffffffffffffffffffffffffffffffffffffffffffffffffffff1916908160001a9053506000600184600261239b9190613575565b6123a59190612dbe565b90505b6001811115612445577f3031323334353637383961626364656600000000000000000000000000000000600f8616601081106123e7576123e66135cf565b5b1a60f81b8282815181106123fe576123fd6135cf565b5b60200101907effffffffffffffffffffffffffffffffffffffffffffffffffffffffffffff1916908160001a905350600485901c94508061243e906135fe565b90506123a8565b5060008414612489576040517f08c379a000000000000000000000000000000000000000000000000000000000815260040161248090613674565b60405180910390fd5b8091505092915050565b604051806102000160405280600060018111156124b3576124b2612780565b5b8152602001600060018111156124cc576124cb612780565b5b8152602001600060038111156124e5576124e4612780565b5b8152602001600073ffffffffffffffffffffffffffffffffffffffff1681526020016000815260200160008152602001600081526020016000815260200160008152602001600081526020016000815260200160008152602001600081526020016000815260200160008152602001600081525090565b6000604051905090565b600080fd5b600080fd5b60007fffffffff0000000000000000000000000000000000000000000000000000000082169050919050565b6125a581612570565b81146125b057600080fd5b50565b6000813590506125c28161259c565b92915050565b6000602082840312156125de576125dd612566565b5b60006125ec848285016125b3565b91505092915050565b60008115159050919050565b61260a816125f5565b82525050565b60006020820190506126256000830184612601565b92915050565b6000819050919050565b61263e8161262b565b811461264957600080fd5b50565b60008135905061265b81612635565b92915050565b61266a816125f5565b811461267557600080fd5b50565b60008135905061268781612661565b92915050565b600080604083850312156126a4576126a3612566565b5b60006126b28582860161264c565b92505060206126c385828601612678565b9150509250929050565b6126d68161262b565b82525050565b60006020820190506126f160008301846126cd565b92915050565b60006020828403121561270d5761270c612566565b5b600061271b8482850161264c565b91505092915050565b600073ffffffffffffffffffffffffffffffffffffffff82169050919050565b600061274f82612724565b9050919050565b61275f81612744565b82525050565b600060208201905061277a6000830184612756565b92915050565b7f4e487b7100000000000000000000000000000000000000000000000000000000600052602160045260246000fd5b600281106127c0576127bf612780565b5b50565b60008190506127d1826127af565b919050565b60006127e1826127c3565b9050919050565b6127f1816127d6565b82525050565b6002811061280857612807612780565b5b50565b6000819050612819826127f7565b919050565b60006128298261280b565b9050919050565b6128398161281e565b82525050565b600481106128505761284f612780565b5b50565b60008190506128618261283f565b919050565b600061287182612853565b9050919050565b61288181612866565b82525050565b61289081612744565b82525050565b61289f8161262b565b82525050565b610200820160008201516128bc60008501826127e8565b5060208201516128cf6020850182612830565b5060408201516128e26040850182612878565b5060608201516128f56060850182612887565b5060808201516129086080850182612896565b5060a082015161291b60a0850182612896565b5060c082015161292e60c0850182612896565b5060e082015161294160e0850182612896565b50610100820151612956610100850182612896565b5061012082015161296b610120850182612896565b50610140820151612980610140850182612896565b50610160820151612995610160850182612896565b506101808201516129aa610180850182612896565b506101a08201516129bf6101a0850182612896565b506101c08201516129d46101c0850182612896565b506101e08201516129e96101e0850182612896565b50505050565b600061020082019050612a0560008301846128a5565b92915050565b6000819050919050565b612a1e81612a0b565b8114612a2957600080fd5b50565b600081359050612a3b81612a15565b92915050565b600060208284031215612a5757612a56612566565b5b6000612a6584828501612a2c565b91505092915050565b612a7781612a0b565b82525050565b6000602082019050612a926000830184612a6e565b92915050565b612aa181612744565b8114612aac57600080fd5b50565b600081359050612abe81612a98565b92915050565b60008060408385031215612adb57612ada612566565b5b6000612ae985828601612a2c565b9250506020612afa85828601612aaf565b9150509250929050565b60028110612b1157600080fd5b50565b600081359050612b2381612b04565b92915050565b60028110612b3657600080fd5b50565b600081359050612b4881612b29565b92915050565b600080600080600060a08688031215612b6a57612b69612566565b5b6000612b788882890161264c565b9550506020612b898882890161264c565b9450506040612b9a8882890161264c565b9350506060612bab88828901612b14565b9250506080612bbc88828901612b39565b9150509295509295909350565b6000606082019050612bde60008301866126cd565b612beb60208301856126cd565b612bf860408301846126cd565b949350505050565b6000604082019050612c1560008301856126cd565b612c2260208301846126cd565b9392505050565b600080600060608486031215612c4257612c41612566565b5b6000612c508682870161264c565b9350506020612c618682870161264c565b9250506040612c7286828701612678565b9150509250925092565b6000819050919050565b612c8f81612c7c565b82525050565b6000602082019050612caa6000830184612c86565b92915050565b6000806000806000806000806000806101408b8d031215612cd457612cd3612566565b5b6000612ce28d828e0161264c565b9a50506020612cf38d828e0161264c565b9950506040612d048d828e0161264c565b9850506060612d158d828e01612b14565b9750506080612d268d828e01612b39565b96505060a0612d378d828e0161264c565b95505060c0612d488d828e0161264c565b94505060e0612d598d828e0161264c565b935050610100612d6b8d828e0161264c565b925050610120612d7d8d828e01612aaf565b9150509295989b9194979a5092959850565b7f4e487b7100000000000000000000000000000000000000000000000000000000600052601160045260246000fd5b6000612dc98261262b565b9150612dd48361262b565b9250827fffffffffffffffffffffffffffffffffffffffffffffffffffffffffffffffff03821115612e0957612e08612d8f565b5b828201905092915050565b600082825260208201905092915050565b7f416363657373436f6e74726f6c3a2063616e206f6e6c792072656e6f756e636560008201527f20726f6c657320666f722073656c660000000000000000000000000000000000602082015250565b6000612e81602f83612e14565b9150612e8c82612e25565b604082019050919050565b60006020820190508181036000830152612eb081612e74565b9050919050565b600081519050612ec681612635565b92915050565b60008060408385031215612ee357612ee2612566565b5b6000612ef185828601612eb7565b9250506020612f0285828601612eb7565b9150509250929050565b612f158161262b565b82525050565b612f24816127d6565b82525050565b600060a082019050612f3f6000830188612f0c565b612f4c6020830187612f0c565b612f596040830186612f0c565b612f666060830185612f1b565b612f736080830184612f0c565b9695505050505050565b600060208284031215612f9357612f92612566565b5b6000612fa184828501612eb7565b91505092915050565b6000612fb58261262b565b9150612fc08361262b565b925082821015612fd357612fd2612d8f565b5b828203905092915050565b8082525050565b6000604082019050612ffa6000830185612fde565b6130076020830184612f0c565b9392505050565b7f5061796f666620696e636f72726563742e000000000000000000000000000000600082015250565b6000613044601183612e14565b915061304f8261300e565b602082019050919050565b6000602082019050818103600083015261307381613037565b9050919050565b600080fd5b600080fd5b6000601f19601f8301169050919050565b7f4e487b7100000000000000000000000000000000000000000000000000000000600052604160045260246000fd5b6130cd82613084565b810181811067ffffffffffffffff821117156130ec576130eb613095565b5b80604052505050565b60006130ff61255c565b905061310b82826130c4565b919050565b600067ffffffffffffffff82111561312b5761312a613095565b5b61313482613084565b9050602081019050919050565b60005b8381101561315f578082015181840152602081019050613144565b8381111561316e576000848401525b50505050565b600061318761318284613110565b6130f5565b9050828152602081018484840111156131a3576131a261307f565b5b6131ae848285613141565b509392505050565b600082601f8301126131cb576131ca61307a565b5b81516131db848260208601613174565b91505092915050565b6000602082840312156131fa576131f9612566565b5b600082015167ffffffffffffffff8111156132185761321761256b565b5b613224848285016131b6565b91505092915050565b600081519050919050565b600081905092915050565b600061324e8261322d565b6132588185613238565b9350613268818560208601613141565b80840191505092915050565b60006132808284613243565b915081905092915050565b60006060820190506132a06000830186612f0c565b6132ad6020830185612f0c565b6132ba6040830184612f0c565b949350505050565b60006132cd82612c7c565b91507f8000000000000000000000000000000000000000000000000000000000000000821415613300576132ff612d8f565b5b816000039050919050565b600061331682612c7c565b915061332183612c7c565b9250817f7fffffffffffffffffffffffffffffffffffffffffffffffffffffffffffffff0383136000831215161561335c5761335b612d8f565b5b817f800000000000000000000000000000000000000000000000000000000000000003831260008312161561339457613393612d8f565b5b828201905092915050565b6000819050919050565b6000819050919050565b60006133ce6133c96133c48461339f565b6133a9565b61262b565b9050919050565b6133de816133b3565b82525050565b60006020820190506133f960008301846133d5565b92915050565b600061340a8261262b565b91507fffffffffffffffffffffffffffffffffffffffffffffffffffffffffffffffff82141561343d5761343c612d8f565b5b600182019050919050565b7f416363657373436f6e74726f6c3a206163636f756e7420000000000000000000600082015250565b600061347e601783613238565b915061348982613448565b601782019050919050565b7f206973206d697373696e6720726f6c6520000000000000000000000000000000600082015250565b60006134ca601183613238565b91506134d582613494565b601182019050919050565b60006134eb82613471565b91506134f78285613243565b9150613502826134bd565b915061350e8284613243565b91508190509392505050565b60006135258261322d565b61352f8185612e14565b935061353f818560208601613141565b61354881613084565b840191505092915050565b6000602082019050818103600083015261356d818461351a565b905092915050565b60006135808261262b565b915061358b8361262b565b9250817fffffffffffffffffffffffffffffffffffffffffffffffffffffffffffffffff04831182151516156135c4576135c3612d8f565b5b828202905092915050565b7f4e487b7100000000000000000000000000000000000000000000000000000000600052603260045260246000fd5b60006136098261262b565b9150600082141561361d5761361c612d8f565b5b600182039050919050565b7f537472696e67733a20686578206c656e67746820696e73756666696369656e74600082015250565b600061365e602083612e14565b915061366982613628565b602082019050919050565b6000602082019050818103600083015261368d81613651565b905091905056fea2646970667358221220cb917548cdb9f22ef19695d0e86b71cf8204d020664190cdf6f7f114b76d86e364736f6c63430008090033",
  "immutableReferences": {},
  "source": "/**\n * SPDX-License-Identifier: GPL-3.0-or-later\n * Moret\n * Copyright (C) 2021 Moret\n*/\n\npragma solidity 0.8.9;\nimport \"@openzeppelin/contracts/access/AccessControl.sol\";\nimport \"@openzeppelin/contracts/utils/math/Math.sol\";\nimport \"./MoretInterfaces.sol\";\nimport \"./FullMath.sol\";\n\ncontract OptionVault is AccessControl{\n  using OptionLibrary for OptionLibrary.Option;\n  bytes32 public constant EXCHANGE_ROLE = keccak256(\"EXCHANGE_ROLE\");\n  mapping(uint256=> OptionLibrary.Option) internal optionsList;\n  uint256 public optionCounter = 0;\n  IVolatilityChain internal volatilityChain;\n\n  constructor( address _volChainAddress ){\n    _setupRole(DEFAULT_ADMIN_ROLE, msg.sender);\n    _setupRole(EXCHANGE_ROLE, msg.sender);\n    volatilityChain = IVolatilityChain(_volChainAddress); }\n  \n  function descriptionHash() external view returns (bytes32)  { return keccak256(abi.encodePacked(volatilityChain.getDecription()));}\n\n  function queryOptionCost(uint256 _strike, uint256 _amount, uint256 _vol, OptionLibrary.PayoffType _poType, OptionLibrary.OptionSide _side) external view returns(uint256 _premium, uint256 _cost, uint256 _price) {\n    (_price,) = volatilityChain.queryPrice();\n    _premium = OptionLibrary.calcPremium(_price, _vol, _strike, _poType, _amount);\n    _cost = _premium;\n    if(_side == OptionLibrary.OptionSide.Sell){\n      uint256 _notional = MulDiv(_amount, _price, OptionLibrary.Multiplier());\n      require(_notional>= _premium);\n      _cost = _notional - _premium;}}\n\n  function addOption(uint256 _tenor, uint256 _strike, uint256 _amount, OptionLibrary.PayoffType _poType, OptionLibrary.OptionSide _side, uint256 _premium, uint256 _cost, uint256 _price, uint256 _volatility, address _holder) external onlyRole(EXCHANGE_ROLE) returns(uint256 _id) {\n    optionCounter++;\n    _id = optionCounter;\n    optionsList[_id] = OptionLibrary.Option(_poType, _side, OptionLibrary.OptionStatus.Draft, _holder, _id, block.timestamp,  0, _tenor, 0,  0, _amount, _price, _strike, _volatility, _premium, _cost);}\n\n  function getOptionHolder(uint256 _id) external view returns(address) { return optionsList[_id].holder;}\n  function queryOptionPremium(uint256 _id) external view returns(uint256) {return optionsList[_id].premium;}\n\n  function queryOptionNotional(uint256 _id, bool _ignoreSells) external view returns(uint256 _notional){\n    _notional=optionsList[_id].amount;\n    if(optionsList[_id].side==OptionLibrary.OptionSide.Sell && _ignoreSells){_notional=0;}}\n\n  function getContractPayoff(uint256 _id) external view returns(uint256 _payoff, uint256 _payback){\n    (uint256 _price,) = volatilityChain.queryPrice();\n    _payoff = optionsList[_id].calcPayoff(_price);\n    _payback = _payoff;\n    if(optionsList[_id].side == OptionLibrary.OptionSide.Sell){ \n      uint256 _notional = optionsList[_id].calcNotionalExposure(_price);\n      require(_notional >= _payoff, \"Payoff incorrect.\");\n      _payback = _notional - _payoff;}}\n\n  function calculateContractDelta(uint256 _id, uint256 _price, bool _ignoreSells) external view returns(int256 _delta){\n    _delta = 0;\n    if(optionsList[_id].status== OptionLibrary.OptionStatus.Active && !(_ignoreSells && optionsList[_id].side==OptionLibrary.OptionSide.Sell)){\n      uint256 _vol = volatilityChain.getVol(optionsList[_id].maturity - Math.min(optionsList[_id].maturity, block.timestamp));\n      _delta = int256(MulDiv(OptionLibrary.calcDelta(_price, optionsList[_id].strike, _vol), optionsList[_id].amount, OptionLibrary.Multiplier() ));\n      if(optionsList[_id].poType==OptionLibrary.PayoffType.Put) {_delta = -int256(optionsList[_id].amount) + _delta; }\n      if(optionsList[_id].side==OptionLibrary.OptionSide.Sell){ _delta = -_delta;}}}\n    \n  function calculateContractGamma(uint256 _id, uint256 _price, bool _ignoreSells) external view returns(int256 _gamma){\n    _gamma = 0;\n    if(optionsList[_id].status== OptionLibrary.OptionStatus.Active && !(_ignoreSells && optionsList[_id].side==OptionLibrary.OptionSide.Sell)){\n      uint256 _vol = volatilityChain.getVol(optionsList[_id].maturity - Math.min(optionsList[_id].maturity, block.timestamp));\n      _gamma = int256(MulDiv(OptionLibrary.calcGamma(_price, optionsList[_id].strike, _vol), optionsList[_id].amount, OptionLibrary.Multiplier() ));\n      if(optionsList[_id].side==OptionLibrary.OptionSide.Sell){ _gamma = -_gamma;}}}\n      \n  function calculateSpotGamma() external view returns(int256 _gamma){\n    uint256 _vol = volatilityChain.getVol(86400);\n    _gamma = int256(OptionLibrary.calcGamma(OptionLibrary.Multiplier(), OptionLibrary.Multiplier(), _vol));}\n    \n  // function validateOption(uint256 _id, address _holder) external view {\n  //   require(optionsList[_id].holder== _holder, \"Not the owner.\");\n  //   require(optionsList[_id].maturity >= block.timestamp, \"Option has expired.\");\n  //   require(optionsList[_id].status==OptionLibrary.OptionStatus.Active, \"Not active option.\");}\n\n  function isOptionExpiring(uint256 _id) external view returns (bool){ return (optionsList[_id].status== OptionLibrary.OptionStatus.Active) && (optionsList[_id].maturity <= block.timestamp);}\n\n  function stampActiveOption(uint256 _id) external onlyRole(EXCHANGE_ROLE) {\n    optionsList[_id].effectiveTime = block.timestamp;\n    optionsList[_id].maturity = optionsList[_id].effectiveTime + optionsList[_id].tenor;\n    optionsList[_id].status = OptionLibrary.OptionStatus.Active;}\n\n  // function stampExercisedOption(uint256 _id) external onlyRole(EXCHANGE_ROLE){\n  //     optionsList[_id].exerciseTime = block.timestamp;\n  //     optionsList[_id].status = OptionLibrary.OptionStatus.Exercised;}\n\n  function stampExpiredOption(uint256 _id)  external onlyRole(EXCHANGE_ROLE){\n    optionsList[_id].exerciseTime = block.timestamp;\n    optionsList[_id].status = OptionLibrary.OptionStatus.Expired;}\n\n  function getOption(uint256 _id) external view returns(OptionLibrary.Option memory) {return optionsList[_id];}\n  function queryVol(uint256 _tenor) external view returns(uint256){return volatilityChain.getVol(_tenor);}\n  function queryPrice() external view returns(uint256, uint256){return volatilityChain.queryPrice();}\n  // function priceDecimals() external view returns(uint256) {return volatilityChain.getPriceDecimals();}\n}\n",
  "sourcePath": "/Users/apple/Documents/GitHub/moret/contracts/OptionVault.sol",
  "compiler": {
    "name": "solc",
    "version": "0.8.9+commit.e5eed63a.Emscripten.clang"
  },
  "schemaVersion": "3.4.3",
  "updatedAt": "2021-11-10T20:12:01.492Z",
  "devdoc": {
    "kind": "dev",
    "methods": {
      "getRoleAdmin(bytes32)": {
        "details": "Returns the admin role that controls `role`. See {grantRole} and {revokeRole}. To change a role's admin, use {_setRoleAdmin}."
      },
      "grantRole(bytes32,address)": {
        "details": "Grants `role` to `account`. If `account` had not been already granted `role`, emits a {RoleGranted} event. Requirements: - the caller must have ``role``'s admin role."
      },
      "hasRole(bytes32,address)": {
        "details": "Returns `true` if `account` has been granted `role`."
      },
      "renounceRole(bytes32,address)": {
        "details": "Revokes `role` from the calling account. Roles are often managed via {grantRole} and {revokeRole}: this function's purpose is to provide a mechanism for accounts to lose their privileges if they are compromised (such as when a trusted device is misplaced). If the calling account had been granted `role`, emits a {RoleRevoked} event. Requirements: - the caller must be `account`."
      },
      "revokeRole(bytes32,address)": {
        "details": "Revokes `role` from `account`. If `account` had been granted `role`, emits a {RoleRevoked} event. Requirements: - the caller must have ``role``'s admin role."
      },
      "supportsInterface(bytes4)": {
        "details": "See {IERC165-supportsInterface}."
      }
    },
    "version": 1
  },
  "userdoc": {
    "kind": "user",
    "methods": {},
    "version": 1
  }
}