{
  "contractName": "OptionVault",
  "abi": [
    {
      "inputs": [
        {
          "internalType": "address",
          "name": "_volChainAddress",
          "type": "address"
        }
      ],
      "stateMutability": "nonpayable",
      "type": "constructor"
    },
    {
      "anonymous": false,
      "inputs": [
        {
          "indexed": true,
          "internalType": "bytes32",
          "name": "role",
          "type": "bytes32"
        },
        {
          "indexed": true,
          "internalType": "bytes32",
          "name": "previousAdminRole",
          "type": "bytes32"
        },
        {
          "indexed": true,
          "internalType": "bytes32",
          "name": "newAdminRole",
          "type": "bytes32"
        }
      ],
      "name": "RoleAdminChanged",
      "type": "event"
    },
    {
      "anonymous": false,
      "inputs": [
        {
          "indexed": true,
          "internalType": "bytes32",
          "name": "role",
          "type": "bytes32"
        },
        {
          "indexed": true,
          "internalType": "address",
          "name": "account",
          "type": "address"
        },
        {
          "indexed": true,
          "internalType": "address",
          "name": "sender",
          "type": "address"
        }
      ],
      "name": "RoleGranted",
      "type": "event"
    },
    {
      "anonymous": false,
      "inputs": [
        {
          "indexed": true,
          "internalType": "bytes32",
          "name": "role",
          "type": "bytes32"
        },
        {
          "indexed": true,
          "internalType": "address",
          "name": "account",
          "type": "address"
        },
        {
          "indexed": true,
          "internalType": "address",
          "name": "sender",
          "type": "address"
        }
      ],
      "name": "RoleRevoked",
      "type": "event"
    },
    {
      "inputs": [],
      "name": "ADMIN_ROLE",
      "outputs": [
        {
          "internalType": "bytes32",
          "name": "",
          "type": "bytes32"
        }
      ],
      "stateMutability": "view",
      "type": "function",
      "constant": true
    },
    {
      "inputs": [],
      "name": "DEFAULT_ADMIN_ROLE",
      "outputs": [
        {
          "internalType": "bytes32",
          "name": "",
          "type": "bytes32"
        }
      ],
      "stateMutability": "view",
      "type": "function",
      "constant": true
    },
    {
      "inputs": [],
      "name": "EXCHANGE_ROLE",
      "outputs": [
        {
          "internalType": "bytes32",
          "name": "",
          "type": "bytes32"
        }
      ],
      "stateMutability": "view",
      "type": "function",
      "constant": true
    },
    {
      "inputs": [],
      "name": "deltaRange",
      "outputs": [
        {
          "internalType": "uint256",
          "name": "numerator",
          "type": "uint256"
        },
        {
          "internalType": "uint256",
          "name": "denominator",
          "type": "uint256"
        }
      ],
      "stateMutability": "view",
      "type": "function",
      "constant": true
    },
    {
      "inputs": [
        {
          "internalType": "bytes32",
          "name": "role",
          "type": "bytes32"
        }
      ],
      "name": "getRoleAdmin",
      "outputs": [
        {
          "internalType": "bytes32",
          "name": "",
          "type": "bytes32"
        }
      ],
      "stateMutability": "view",
      "type": "function",
      "constant": true
    },
    {
      "inputs": [
        {
          "internalType": "bytes32",
          "name": "role",
          "type": "bytes32"
        },
        {
          "internalType": "address",
          "name": "account",
          "type": "address"
        }
      ],
      "name": "grantRole",
      "outputs": [],
      "stateMutability": "nonpayable",
      "type": "function"
    },
    {
      "inputs": [
        {
          "internalType": "bytes32",
          "name": "role",
          "type": "bytes32"
        },
        {
          "internalType": "address",
          "name": "account",
          "type": "address"
        }
      ],
      "name": "hasRole",
      "outputs": [
        {
          "internalType": "bool",
          "name": "",
          "type": "bool"
        }
      ],
      "stateMutability": "view",
      "type": "function",
      "constant": true
    },
    {
      "inputs": [],
      "name": "optionCounter",
      "outputs": [
        {
          "internalType": "uint256",
          "name": "",
          "type": "uint256"
        }
      ],
      "stateMutability": "view",
      "type": "function",
      "constant": true
    },
    {
      "inputs": [
        {
          "internalType": "bytes32",
          "name": "role",
          "type": "bytes32"
        },
        {
          "internalType": "address",
          "name": "account",
          "type": "address"
        }
      ],
      "name": "renounceRole",
      "outputs": [],
      "stateMutability": "nonpayable",
      "type": "function"
    },
    {
      "inputs": [
        {
          "internalType": "bytes32",
          "name": "role",
          "type": "bytes32"
        },
        {
          "internalType": "address",
          "name": "account",
          "type": "address"
        }
      ],
      "name": "revokeRole",
      "outputs": [],
      "stateMutability": "nonpayable",
      "type": "function"
    },
    {
      "inputs": [
        {
          "internalType": "bytes4",
          "name": "interfaceId",
          "type": "bytes4"
        }
      ],
      "name": "supportsInterface",
      "outputs": [
        {
          "internalType": "bool",
          "name": "",
          "type": "bool"
        }
      ],
      "stateMutability": "view",
      "type": "function",
      "constant": true
    },
    {
      "inputs": [],
      "name": "volPremiumFixedAddon",
      "outputs": [
        {
          "internalType": "uint256",
          "name": "numerator",
          "type": "uint256"
        },
        {
          "internalType": "uint256",
          "name": "denominator",
          "type": "uint256"
        }
      ],
      "stateMutability": "view",
      "type": "function",
      "constant": true
    },
    {
      "inputs": [],
      "name": "descriptionHash",
      "outputs": [
        {
          "internalType": "bytes32",
          "name": "",
          "type": "bytes32"
        }
      ],
      "stateMutability": "view",
      "type": "function",
      "constant": true
    },
    {
      "inputs": [
        {
          "internalType": "uint256",
          "name": "_tenor",
          "type": "uint256"
        },
        {
          "internalType": "uint256",
          "name": "_strike",
          "type": "uint256"
        },
        {
          "internalType": "enum OptionLibrary.PayoffType",
          "name": "_poType",
          "type": "uint8"
        },
        {
          "internalType": "enum OptionLibrary.OptionSide",
          "name": "_side",
          "type": "uint8"
        },
        {
          "internalType": "uint256",
          "name": "_amount",
          "type": "uint256"
        },
        {
          "internalType": "uint256",
          "name": "_utilPrior",
          "type": "uint256"
        },
        {
          "internalType": "uint256",
          "name": "_utilAfter",
          "type": "uint256"
        }
      ],
      "name": "queryOptionCost",
      "outputs": [
        {
          "internalType": "uint256",
          "name": "",
          "type": "uint256"
        }
      ],
      "stateMutability": "view",
      "type": "function",
      "constant": true
    },
    {
      "inputs": [
        {
          "internalType": "uint256",
          "name": "_tenor",
          "type": "uint256"
        },
        {
          "internalType": "uint256",
          "name": "_strike",
          "type": "uint256"
        }
      ],
      "name": "checkVolSkew",
      "outputs": [
        {
          "internalType": "uint256",
          "name": "",
          "type": "uint256"
        },
        {
          "internalType": "uint256",
          "name": "",
          "type": "uint256"
        },
        {
          "internalType": "uint256",
          "name": "",
          "type": "uint256"
        }
      ],
      "stateMutability": "view",
      "type": "function",
      "constant": true
    },
    {
      "inputs": [
        {
          "internalType": "uint256",
          "name": "_tenor",
          "type": "uint256"
        },
        {
          "internalType": "uint256",
          "name": "_strike",
          "type": "uint256"
        },
        {
          "internalType": "enum OptionLibrary.PayoffType",
          "name": "_poType",
          "type": "uint8"
        },
        {
          "internalType": "enum OptionLibrary.OptionSide",
          "name": "_side",
          "type": "uint8"
        },
        {
          "internalType": "uint256",
          "name": "_amount",
          "type": "uint256"
        },
        {
          "internalType": "uint256",
          "name": "_premium",
          "type": "uint256"
        },
        {
          "internalType": "uint256",
          "name": "_fee",
          "type": "uint256"
        }
      ],
      "name": "addOption",
      "outputs": [
        {
          "internalType": "uint256",
          "name": "",
          "type": "uint256"
        }
      ],
      "stateMutability": "nonpayable",
      "type": "function"
    },
    {
      "inputs": [
        {
          "internalType": "uint256",
          "name": "_id",
          "type": "uint256"
        },
        {
          "internalType": "bool",
          "name": "_inVol",
          "type": "bool"
        }
      ],
      "name": "queryDraftOptionCost",
      "outputs": [
        {
          "internalType": "uint256",
          "name": "",
          "type": "uint256"
        }
      ],
      "stateMutability": "view",
      "type": "function",
      "constant": true
    },
    {
      "inputs": [
        {
          "internalType": "uint256",
          "name": "_id",
          "type": "uint256"
        }
      ],
      "name": "queryDraftOptionFee",
      "outputs": [
        {
          "internalType": "uint256",
          "name": "",
          "type": "uint256"
        }
      ],
      "stateMutability": "view",
      "type": "function",
      "constant": true
    },
    {
      "inputs": [
        {
          "internalType": "uint256",
          "name": "_id",
          "type": "uint256"
        }
      ],
      "name": "getOptionHolder",
      "outputs": [
        {
          "internalType": "address",
          "name": "",
          "type": "address"
        }
      ],
      "stateMutability": "view",
      "type": "function",
      "constant": true
    },
    {
      "inputs": [
        {
          "internalType": "uint256",
          "name": "_id",
          "type": "uint256"
        }
      ],
      "name": "queryOptionPremium",
      "outputs": [
        {
          "internalType": "uint256",
          "name": "",
          "type": "uint256"
        }
      ],
      "stateMutability": "view",
      "type": "function",
      "constant": true
    },
    {
      "inputs": [
        {
          "internalType": "uint256",
          "name": "_id",
          "type": "uint256"
        },
        {
          "internalType": "uint256",
          "name": "_capitalRatio",
          "type": "uint256"
        }
      ],
      "name": "queryOptionCapital",
      "outputs": [
        {
          "internalType": "uint256",
          "name": "",
          "type": "uint256"
        }
      ],
      "stateMutability": "view",
      "type": "function",
      "constant": true
    },
    {
      "inputs": [
        {
          "internalType": "uint256",
          "name": "_id",
          "type": "uint256"
        },
        {
          "internalType": "bool",
          "name": "_ignoreSells",
          "type": "bool"
        }
      ],
      "name": "queryOptionNotional",
      "outputs": [
        {
          "internalType": "uint256",
          "name": "",
          "type": "uint256"
        }
      ],
      "stateMutability": "view",
      "type": "function",
      "constant": true
    },
    {
      "inputs": [
        {
          "internalType": "uint256",
          "name": "_amount",
          "type": "uint256"
        },
        {
          "internalType": "uint256",
          "name": "_strike",
          "type": "uint256"
        },
        {
          "internalType": "enum OptionLibrary.PayoffType",
          "name": "_poType",
          "type": "uint8"
        },
        {
          "internalType": "enum OptionLibrary.OptionSide",
          "name": "_side",
          "type": "uint8"
        },
        {
          "internalType": "uint256",
          "name": "_capitalRatio",
          "type": "uint256"
        }
      ],
      "name": "queryOptionCapitalV2",
      "outputs": [
        {
          "internalType": "uint256",
          "name": "",
          "type": "uint256"
        }
      ],
      "stateMutability": "view",
      "type": "function",
      "constant": true
    },
    {
      "inputs": [
        {
          "internalType": "uint256",
          "name": "_id",
          "type": "uint256"
        },
        {
          "internalType": "enum OptionLibrary.PayoffType",
          "name": "_poType",
          "type": "uint8"
        }
      ],
      "name": "queryOptionExposure",
      "outputs": [
        {
          "internalType": "uint256",
          "name": "",
          "type": "uint256"
        }
      ],
      "stateMutability": "view",
      "type": "function",
      "constant": true
    },
    {
      "inputs": [
        {
          "internalType": "uint256",
          "name": "_id",
          "type": "uint256"
        }
      ],
      "name": "getOptionPayoffValue",
      "outputs": [
        {
          "internalType": "uint256",
          "name": "",
          "type": "uint256"
        },
        {
          "internalType": "uint256",
          "name": "",
          "type": "uint256"
        },
        {
          "internalType": "uint256",
          "name": "",
          "type": "uint256"
        }
      ],
      "stateMutability": "view",
      "type": "function",
      "constant": true
    },
    {
      "inputs": [
        {
          "internalType": "uint256",
          "name": "_id",
          "type": "uint256"
        },
        {
          "internalType": "uint256",
          "name": "_price",
          "type": "uint256"
        },
        {
          "internalType": "bool",
          "name": "_ignoreSells",
          "type": "bool"
        }
      ],
      "name": "calculateContractDelta",
      "outputs": [
        {
          "internalType": "int256",
          "name": "",
          "type": "int256"
        }
      ],
      "stateMutability": "view",
      "type": "function",
      "constant": true
    },
    {
      "inputs": [
        {
          "internalType": "uint256",
          "name": "_id",
          "type": "uint256"
        },
        {
          "internalType": "address",
          "name": "_holder",
          "type": "address"
        }
      ],
      "name": "validateOption",
      "outputs": [],
      "stateMutability": "view",
      "type": "function",
      "constant": true
    },
    {
      "inputs": [
        {
          "internalType": "uint256",
          "name": "_id",
          "type": "uint256"
        },
        {
          "internalType": "uint256",
          "name": "_maturityIntervals",
          "type": "uint256"
        }
      ],
      "name": "isOptionExpiring",
      "outputs": [
        {
          "internalType": "bool",
          "name": "",
          "type": "bool"
        }
      ],
      "stateMutability": "view",
      "type": "function",
      "constant": true
    },
    {
      "inputs": [
        {
          "internalType": "uint256",
          "name": "_id",
          "type": "uint256"
        },
        {
          "internalType": "uint256",
          "name": "_maturityIntervals",
          "type": "uint256"
        }
      ],
      "name": "stampActiveOption",
      "outputs": [],
      "stateMutability": "nonpayable",
      "type": "function"
    },
    {
      "inputs": [
        {
          "internalType": "uint256",
          "name": "_id",
          "type": "uint256"
        }
      ],
      "name": "stampExercisedOption",
      "outputs": [],
      "stateMutability": "nonpayable",
      "type": "function"
    },
    {
      "inputs": [
        {
          "internalType": "uint256",
          "name": "_id",
          "type": "uint256"
        }
      ],
      "name": "stampExpiredOption",
      "outputs": [],
      "stateMutability": "nonpayable",
      "type": "function"
    },
    {
      "inputs": [
        {
          "internalType": "uint256",
          "name": "_id",
          "type": "uint256"
        }
      ],
      "name": "getOption",
      "outputs": [
        {
          "components": [
            {
              "internalType": "enum OptionLibrary.PayoffType",
              "name": "poType",
              "type": "uint8"
            },
            {
              "internalType": "enum OptionLibrary.OptionSide",
              "name": "side",
              "type": "uint8"
            },
            {
              "internalType": "enum OptionLibrary.OptionStatus",
              "name": "status",
              "type": "uint8"
            },
            {
              "internalType": "address",
              "name": "holder",
              "type": "address"
            },
            {
              "internalType": "uint256",
              "name": "id",
              "type": "uint256"
            },
            {
              "internalType": "uint256",
              "name": "createTime",
              "type": "uint256"
            },
            {
              "internalType": "uint256",
              "name": "effectiveTime",
              "type": "uint256"
            },
            {
              "internalType": "uint256",
              "name": "tenor",
              "type": "uint256"
            },
            {
              "internalType": "uint256",
              "name": "maturity",
              "type": "uint256"
            },
            {
              "internalType": "uint256",
              "name": "exerciseTime",
              "type": "uint256"
            },
            {
              "internalType": "uint256",
              "name": "amount",
              "type": "uint256"
            },
            {
              "internalType": "uint256",
              "name": "spot",
              "type": "uint256"
            },
            {
              "internalType": "uint256",
              "name": "strike",
              "type": "uint256"
            },
            {
              "internalType": "uint256",
              "name": "volatility",
              "type": "uint256"
            },
            {
              "internalType": "uint256",
              "name": "premium",
              "type": "uint256"
            },
            {
              "internalType": "uint256",
              "name": "fee",
              "type": "uint256"
            }
          ],
          "internalType": "struct OptionLibrary.Option",
          "name": "",
          "type": "tuple"
        }
      ],
      "stateMutability": "view",
      "type": "function",
      "constant": true
    },
    {
      "inputs": [
        {
          "internalType": "uint256",
          "name": "_tenor",
          "type": "uint256"
        }
      ],
      "name": "queryVol",
      "outputs": [
        {
          "internalType": "uint256",
          "name": "",
          "type": "uint256"
        },
        {
          "internalType": "uint256",
          "name": "",
          "type": "uint256"
        }
      ],
      "stateMutability": "view",
      "type": "function",
      "constant": true
    },
    {
      "inputs": [],
      "name": "queryPrice",
      "outputs": [
        {
          "internalType": "uint256",
          "name": "",
          "type": "uint256"
        },
        {
          "internalType": "uint256",
          "name": "",
          "type": "uint256"
        }
      ],
      "stateMutability": "view",
      "type": "function",
      "constant": true
    },
    {
      "inputs": [],
      "name": "priceMultiplier",
      "outputs": [
        {
          "internalType": "uint256",
          "name": "",
          "type": "uint256"
        }
      ],
      "stateMutability": "view",
      "type": "function",
      "constant": true
    },
    {
      "inputs": [],
      "name": "priceDecimals",
      "outputs": [
        {
          "internalType": "uint256",
          "name": "",
          "type": "uint256"
        }
      ],
      "stateMutability": "view",
      "type": "function",
      "constant": true
    }
  ],
  "bytecode": "0x60806040526000600255670de0b6b3a7640000600455620f424060055560405180604001604052806113888152602001620f42408152506006600082015181600001556020820151816001015550506040518060400160405280620c35008152602001620f42408152506008600082015181600001556020820151816001015550503480156200008e57600080fd5b5060405162004d2b38038062004d2b8339818101604052810190620000b4919062000305565b620000c96000801b336200017560201b60201c565b620000fb7fa49807205ce4d355092ef5a8a18f56e8913cf4a201fbe287825b095693c21775336200017560201b60201c565b6200012d7f28d62fc77014de57a1bbaa8212ff0979fa61ab00d377b4b8d9762048fb419961336200017560201b60201c565b80600360006101000a81548173ffffffffffffffffffffffffffffffffffffffff021916908373ffffffffffffffffffffffffffffffffffffffff160217905550506200038a565b6200018782826200018b60201b60201c565b5050565b6200019d82826200027c60201b60201c565b6200027857600160008084815260200190815260200160002060000160008373ffffffffffffffffffffffffffffffffffffffff1673ffffffffffffffffffffffffffffffffffffffff16815260200190815260200160002060006101000a81548160ff0219169083151502179055506200021d620002e660201b60201c565b73ffffffffffffffffffffffffffffffffffffffff168173ffffffffffffffffffffffffffffffffffffffff16837f2f8788117e7eff1d82e926ec794901d17c78024a50270940304540a733656f0d60405160405180910390a45b5050565b600080600084815260200190815260200160002060000160008373ffffffffffffffffffffffffffffffffffffffff1673ffffffffffffffffffffffffffffffffffffffff16815260200190815260200160002060009054906101000a900460ff16905092915050565b600033905090565b600081519050620002ff8162000370565b92915050565b6000602082840312156200031e576200031d6200036b565b5b60006200032e84828501620002ee565b91505092915050565b600062000344826200034b565b9050919050565b600073ffffffffffffffffffffffffffffffffffffffff82169050919050565b600080fd5b6200037b8162000337565b81146200038757600080fd5b50565b614991806200039a6000396000f3fe608060405234801561001057600080fd5b506004361061021c5760003560e01c8063637baf6011610125578063af7b2625116100ad578063cff7fb051161007c578063cff7fb05146106ef578063d50cb88b14610721578063d547741f1461073f578063ed0a3e3a1461075b578063f8a351811461078b5761021c565b8063af7b262514610650578063b0667cf814610680578063b44699441461069f578063cfc2dc20146106be5761021c565b806385dcee93116100f457806385dcee93146105985780638cbb0cd0146105b657806391d14854146105e6578063a217fddf14610616578063a556feec146106345761021c565b8063637baf60146105125780636abae9b31461052e5780636c1f7b931461055e57806375b238fc1461057a5761021c565b80632f2ff15d116101a857806340d6eaab1161017757806340d6eaab14610434578063414714531461046657806346047a661461048257806349b04ee1146104b2578063588d2f70146104e25761021c565b80632f2ff15d146103ae57806336568abe146103ca5780633b734501146103e65780633ef85379146104045761021c565b80631a7985ba116101ef5780631a7985ba146102cf5780631ce5e9a6146102ff578063248a9ca31461032f5780632bd81a0f1461035f5780632e0f54bb1461037e5761021c565b806301ffc9a71461022157806305300b2814610251578063105df8561461026f578063128734c51461029f575b600080fd5b61023b6004803603810190610236919061350e565b6107a9565b6040516102489190613d08565b60405180910390f35b610259610823565b6040516102669190613f09565b60405180910390f35b6102896004803603810190610284919061361e565b6108ca565b6040516102969190613f09565b60405180910390f35b6102b960048036038101906102b4919061365e565b61094e565b6040516102c69190613f09565b60405180910390f35b6102e960048036038101906102e49190613584565b6109c8565b6040516102f69190613ced565b60405180910390f35b61031960048036038101906103149190613584565b610a08565b6040516103269190613e9b565b60405180910390f35b610349600480360381019061034491906134a1565b610bb5565b6040516103569190613d23565b60405180910390f35b610367610bd4565b604051610375929190613f24565b60405180910390f35b6103986004803603810190610393919061369e565b610be6565b6040516103a59190613d08565b60405180910390f35b6103c860048036038101906103c391906134ce565b610ce1565b005b6103e460048036038101906103df91906134ce565b610d0a565b005b6103ee610d8d565b6040516103fb9190613d23565b60405180910390f35b61041e6004803603810190610419919061369e565b610db1565b60405161042b9190613f09565b60405180910390f35b61044e60048036038101906104499190613584565b610eb3565b60405161045d93929190613f4d565b60405180910390f35b610480600480360381019061047b919061369e565b61108e565b005b61049c60048036038101906104979190613584565b6111bd565b6040516104a99190613f09565b60405180910390f35b6104cc60048036038101906104c79190613584565b6111dd565b6040516104d99190613f09565b60405180910390f35b6104fc60048036038101906104f79190613771565b611250565b6040516105099190613f09565b60405180910390f35b61052c60048036038101906105279190613584565b611310565b005b6105486004803603810190610543919061361e565b6113a0565b6040516105559190613f09565b60405180910390f35b61057860048036038101906105739190613584565b61156c565b005b6105826115fc565b60405161058f9190613d23565b60405180910390f35b6105a0611620565b6040516105ad9190613d23565b60405180910390f35b6105d060048036038101906105cb919061371e565b6116f2565b6040516105dd9190613d3e565b60405180910390f35b61060060048036038101906105fb91906134ce565b611b8d565b60405161060d9190613d08565b60405180910390f35b61061e611bf7565b60405161062b9190613d23565b60405180910390f35b61064e600480360381019061064991906135de565b611bfe565b005b61066a600480360381019061066591906137ec565b611daa565b6040516106779190613f09565b60405180910390f35b61068861221e565b604051610696929190613f24565b60405180910390f35b6106a76122c8565b6040516106b5929190613f24565b60405180910390f35b6106d860048036038101906106d39190613584565b6122da565b6040516106e6929190613f24565b60405180910390f35b6107096004803603810190610704919061369e565b612390565b60405161071893929190613f4d565b60405180910390f35b610729612624565b6040516107369190613f09565b60405180910390f35b610759600480360381019061075491906134ce565b6126cb565b005b610775600480360381019061077091906137ec565b6126f4565b6040516107829190613f09565b60405180910390f35b610793612a0e565b6040516107a09190613f09565b60405180910390f35b60007f7965db0b000000000000000000000000000000000000000000000000000000007bffffffffffffffffffffffffffffffffffffffffffffffffffffffff1916827bffffffffffffffffffffffffffffffffffffffffffffffffffffffff1916148061081c575061081b82612a14565b5b9050919050565b6000600360009054906101000a900473ffffffffffffffffffffffffffffffffffffffff1673ffffffffffffffffffffffffffffffffffffffff16631b30aafc6040518163ffffffff1660e01b815260040160206040518083038186803b15801561088d57600080fd5b505afa1580156108a1573d6000803e3d6000fd5b505050506040513d601f19601f820116820180604052508101906108c591906135b1565b905090565b60008060009050600060018111156108e5576108e46145f1565b5b6001600086815260200190815260200160002060000160019054906101000a900460ff16600181111561091b5761091a6145f1565b5b1480610925575082155b1561094457600160008581526020019081526020016000206007015490505b8091505092915050565b6000816001811115610963576109626145f1565b5b6001600085815260200190815260200160002060000160009054906101000a900460ff166001811115610999576109986145f1565b5b14156109bd57600160008481526020019081526020016000206007015490506109c2565b600090505b92915050565b60006001600083815260200190815260200160002060000160039054906101000a900473ffffffffffffffffffffffffffffffffffffffff169050919050565b610a106132c0565b60016000838152602001908152602001600020604051806102000160405290816000820160009054906101000a900460ff166001811115610a5457610a536145f1565b5b6001811115610a6657610a656145f1565b5b81526020016000820160019054906101000a900460ff166001811115610a8f57610a8e6145f1565b5b6001811115610aa157610aa06145f1565b5b81526020016000820160029054906101000a900460ff166003811115610aca57610ac96145f1565b5b6003811115610adc57610adb6145f1565b5b81526020016000820160039054906101000a900473ffffffffffffffffffffffffffffffffffffffff1673ffffffffffffffffffffffffffffffffffffffff1673ffffffffffffffffffffffffffffffffffffffff168152602001600182015481526020016002820154815260200160038201548152602001600482015481526020016005820154815260200160068201548152602001600782015481526020016008820154815260200160098201548152602001600a8201548152602001600b8201548152602001600c820154815250509050919050565b6000806000838152602001908152602001600020600101549050919050565b60088060000154908060010154905082565b600081600160008581526020019081526020016000206005015411610c40576040517f08c379a0000000000000000000000000000000000000000000000000000000008152600401610c3790613dfb565b60405180910390fd5b60016003811115610c5457610c536145f1565b5b6001600085815260200190815260200160002060000160029054906101000a900460ff166003811115610c8a57610c896145f1565b5b148015610cad575042600160008581526020019081526020016000206005015410155b8015610cd9575042826001600086815260200190815260200160002060050154610cd79190614317565b105b905092915050565b610cea82610bb5565b610cfb81610cf6612a7e565b612a86565b610d058383612b23565b505050565b610d12612a7e565b73ffffffffffffffffffffffffffffffffffffffff168173ffffffffffffffffffffffffffffffffffffffff1614610d7f576040517f08c379a0000000000000000000000000000000000000000000000000000000008152600401610d7690613e7b565b60405180910390fd5b610d898282612c03565b5050565b7f28d62fc77014de57a1bbaa8212ff0979fa61ab00d377b4b8d9762048fb41996181565b6000600454821115610df8576040517f08c379a0000000000000000000000000000000000000000000000000000000008152600401610def90613ddb565b60405180910390fd5b6000806001811115610e0d57610e0c6145f1565b5b6001600086815260200190815260200160002060000160019054906101000a900460ff166001811115610e4357610e426145f1565b5b1415610ea957610e7960016000868152602001908152602001600020600b015484600454610e719190614317565b600454612ce4565b610e9c600160008781526020019081526020016000206007015485600454612ce4565b610ea691906140b5565b90505b8091505092915050565b600080600080600360009054906101000a900473ffffffffffffffffffffffffffffffffffffffff1673ffffffffffffffffffffffffffffffffffffffff1663b0667cf86040518163ffffffff1660e01b8152600401604080518083038186803b158015610f2057600080fd5b505afa158015610f34573d6000803e3d6000fd5b505050506040513d601f19601f82011682018060405250810190610f5891906136de565b50905060006001600087815260200190815260200160002073__OptionLibrary_________________________63d26870859091846040518363ffffffff1660e01b8152600401610faa929190613ee0565b60206040518083038186803b158015610fc257600080fd5b505af4158015610fd6573d6000803e3d6000fd5b505050506040513d601f19601f82011682018060405250810190610ffa91906135b1565b905060008190506000600180811115611016576110156145f1565b5b600160008a815260200190815260200160002060000160019054906101000a900460ff16600181111561104c5761104b6145f1565b5b141561107a5782905082600160008a8152602001908152602001600020600701546110779190614317565b92505b828282965096509650505050509193909250565b7f28d62fc77014de57a1bbaa8212ff0979fa61ab00d377b4b8d9762048fb4199616110c0816110bb612a7e565b612a86565b426001600085815260200190815260200160002060030181905550816001600085815260200190815260200160002060040154600160008681526020019081526020016000206003015461111491906140b5565b61111e9190614519565b6001600085815260200190815260200160002060040154600160008681526020019081526020016000206003015461115691906140b5565b6111609190614317565b6001600085815260200190815260200160002060050181905550600180600085815260200190815260200160002060000160026101000a81548160ff021916908360038111156111b3576111b26145f1565b5b0217905550505050565b600060016000838152602001908152602001600020600b01549050919050565b60008060038111156111f2576111f16145f1565b5b6001600084815260200190815260200160002060000160029054906101000a900460ff166003811115611228576112276145f1565b5b1461123257600080fd5b60016000838152602001908152602001600020600c01549050919050565b6000600454821115611297576040517f08c379a000000000000000000000000000000000000000000000000000000000815260040161128e90613ddb565b60405180910390fd5b60008060018111156112ac576112ab6145f1565b5b8460018111156112bf576112be6145f1565b5b1415611303576112e96112d3888888612de0565b846004546112e19190614317565b600454612ce4565b6112f68885600454612ce4565b61130091906140b5565b90505b8091505095945050505050565b7f28d62fc77014de57a1bbaa8212ff0979fa61ab00d377b4b8d9762048fb4199616113428161133d612a7e565b612a86565b42600160008481526020019081526020016000206006018190555060036001600084815260200190815260200160002060000160026101000a81548160ff02191690836003811115611397576113966145f1565b5b02179055505050565b60008060038111156113b5576113b46145f1565b5b6001600085815260200190815260200160002060000160029054906101000a900460ff1660038111156113eb576113ea6145f1565b5b146113f557600080fd5b60006001600085815260200190815260200160002073__OptionLibrary_________________________639931896a9091856040518363ffffffff1660e01b8152600401611444929190613eb7565b60206040518083038186803b15801561145c57600080fd5b505af4158015611470573d6000803e3d6000fd5b505050506040513d601f19601f8201168201806040525081019061149491906135b1565b90506001808111156114a9576114a86145f1565b5b6001600086815260200190815260200160002060000160019054906101000a900460ff1660018111156114df576114de6145f1565b5b1415611562576001600085815260200190815260200160002060070154811061153d576040517f08c379a000000000000000000000000000000000000000000000000000000000815260040161153490613e5b565b60405180910390fd5b80600160008681526020019081526020016000206007015461155f9190614317565b90505b8091505092915050565b7f28d62fc77014de57a1bbaa8212ff0979fa61ab00d377b4b8d9762048fb41996161159e81611599612a7e565b612a86565b42600160008481526020019081526020016000206006018190555060026001600084815260200190815260200160002060000160026101000a81548160ff021916908360038111156115f3576115f26145f1565b5b02179055505050565b7fa49807205ce4d355092ef5a8a18f56e8913cf4a201fbe287825b095693c2177581565b6000600360009054906101000a900473ffffffffffffffffffffffffffffffffffffffff1673ffffffffffffffffffffffffffffffffffffffff166398de78976040518163ffffffff1660e01b815260040160006040518083038186803b15801561168a57600080fd5b505afa15801561169e573d6000803e3d6000fd5b505050506040513d6000823e3d601f19601f820116820180604052508101906116c7919061353b565b6040516020016116d79190613c9c565b60405160208183030381529060405280519060200120905090565b600080600090506001600381111561170d5761170c6145f1565b5b6001600087815260200190815260200160002060000160029054906101000a900460ff166003811115611743576117426145f1565b5b1415611af9576000600360009054906101000a900473ffffffffffffffffffffffffffffffffffffffff1673ffffffffffffffffffffffffffffffffffffffff1663040b030f60016000898152602001908152602001600020600401546040518263ffffffff1660e01b81526004016117bc9190613f09565b604080518083038186803b1580156117d357600080fd5b505afa1580156117e7573d6000803e3d6000fd5b505050506040513d601f19601f8201168201806040525081019061180b91906136de565b50905060006118586118478361182362015180612f35565b611842600160008d815260200190815260200160002060040154612f35565b612ce4565b600860000154600860010154612ce4565b90506000600360009054906101000a900473ffffffffffffffffffffffffffffffffffffffff1673ffffffffffffffffffffffffffffffffffffffff1663bf0a03ca6040518163ffffffff1660e01b815260040160206040518083038186803b1580156118c457600080fd5b505afa1580156118d8573d6000803e3d6000fd5b505050506040513d601f19601f820116820180604052508101906118fc91906135b1565b828861190891906142bd565b6119129190614175565b8761191d9190614317565b905060008160028961192f91906142bd565b6119399190614317565b90506002600160008b81526020019081526020016000206007015461195e919061410b565b945060006001811115611974576119736145f1565b5b600160008b815260200190815260200160002060000160009054906101000a900460ff1660018111156119aa576119a96145f1565b5b1415611a0c57600160008a8152602001908152602001600020600901548110156119d357600094505b600160008a815260200190815260200160002060090154821115611a0b57600160008a81526020019081526020016000206007015494505b5b600180811115611a1f57611a1e6145f1565b5b600160008b815260200190815260200160002060000160009054906101000a900460ff166001811115611a5557611a546145f1565b5b1415611af45786611a8f577fffffffffffffffffffffffffffffffffffffffffffffffffffffffffffffffff85611a8c91906141a6565b94505b600160008a815260200190815260200160002060090154811015611ad057600160008a815260200190815260200160002060070154611acd9061454a565b94505b600160008a815260200190815260200160002060090154821115611af357600094505b5b505050505b600180811115611b0c57611b0b6145f1565b5b6001600087815260200190815260200160002060000160019054906101000a900460ff166001811115611b4257611b416145f1565b5b1415611b82577fffffffffffffffffffffffffffffffffffffffffffffffffffffffffffffffff81611b7491906141a6565b90508215611b8157600090505b5b809150509392505050565b600080600084815260200190815260200160002060000160008373ffffffffffffffffffffffffffffffffffffffff1673ffffffffffffffffffffffffffffffffffffffff16815260200190815260200160002060009054906101000a900460ff16905092915050565b6000801b81565b8073ffffffffffffffffffffffffffffffffffffffff166001600084815260200190815260200160002060000160039054906101000a900473ffffffffffffffffffffffffffffffffffffffff1673ffffffffffffffffffffffffffffffffffffffff1614611ca2576040517f08c379a0000000000000000000000000000000000000000000000000000000008152600401611c9990613e3b565b60405180910390fd5b4260016000848152602001908152602001600020600401546001600085815260200190815260200160002060030154611cdb91906140b5565b1015611d1c576040517f08c379a0000000000000000000000000000000000000000000000000000000008152600401611d1390613e1b565b60405180910390fd5b60016003811115611d3057611d2f6145f1565b5b6001600084815260200190815260200160002060000160029054906101000a900460ff166003811115611d6657611d656145f1565b5b14611da6576040517f08c379a0000000000000000000000000000000000000000000000000000000008152600401611d9d90613dbb565b60405180910390fd5b5050565b60007f28d62fc77014de57a1bbaa8212ff0979fa61ab00d377b4b8d9762048fb419961611dde81611dd9612a7e565b612a86565b60006001811115611df257611df16145f1565b5b876001811115611e0557611e046145f1565b5b1480611e345750600180811115611e1f57611e1e6145f1565b5b876001811115611e3257611e316145f1565b5b145b611e73576040517f08c379a0000000000000000000000000000000000000000000000000000000008152600401611e6a90613d9b565b60405180910390fd5b6000600360009054906101000a900473ffffffffffffffffffffffffffffffffffffffff1673ffffffffffffffffffffffffffffffffffffffff1663b0667cf86040518163ffffffff1660e01b8152600401604080518083038186803b158015611edc57600080fd5b505afa158015611ef0573d6000803e3d6000fd5b505050506040513d601f19601f82011682018060405250810190611f1491906136de565b5090506000600360009054906101000a900473ffffffffffffffffffffffffffffffffffffffff1673ffffffffffffffffffffffffffffffffffffffff1663040b030f8c6040518263ffffffff1660e01b8152600401611f749190613f09565b604080518083038186803b158015611f8b57600080fd5b505afa158015611f9f573d6000803e3d6000fd5b505050506040513d601f19601f82011682018060405250810190611fc391906136de565b50905060026000815480929190611fd9906144d0565b9190505550600060025490506040518061020001604052808b6001811115612004576120036145f1565b5b81526020018a600181111561201c5761201b6145f1565b5b815260200160006003811115612035576120346145f1565b5b81526020013373ffffffffffffffffffffffffffffffffffffffff168152602001828152602001428152602001600081526020018d815260200160008152602001600081526020018981526020018481526020018c8152602001838152602001888152602001878152506001600083815260200190815260200160002060008201518160000160006101000a81548160ff021916908360018111156120dd576120dc6145f1565b5b021790555060208201518160000160016101000a81548160ff0219169083600181111561210d5761210c6145f1565b5b021790555060408201518160000160026101000a81548160ff0219169083600381111561213d5761213c6145f1565b5b021790555060608201518160000160036101000a81548173ffffffffffffffffffffffffffffffffffffffff021916908373ffffffffffffffffffffffffffffffffffffffff1602179055506080820151816001015560a0820151816002015560c0820151816003015560e08201518160040155610100820151816005015561012082015181600601556101408201518160070155610160820151816008015561018082015181600901556101a082015181600a01556101c082015181600b01556101e082015181600c015590505080945050505050979650505050505050565b600080600360009054906101000a900473ffffffffffffffffffffffffffffffffffffffff1673ffffffffffffffffffffffffffffffffffffffff1663b0667cf86040518163ffffffff1660e01b8152600401604080518083038186803b15801561228857600080fd5b505afa15801561229c573d6000803e3d6000fd5b505050506040513d601f19601f820116820180604052508101906122c091906136de565b915091509091565b60068060000154908060010154905082565b600080600360009054906101000a900473ffffffffffffffffffffffffffffffffffffffff1673ffffffffffffffffffffffffffffffffffffffff1663040b030f846040518263ffffffff1660e01b81526004016123389190613f09565b604080518083038186803b15801561234f57600080fd5b505afa158015612363573d6000803e3d6000fd5b505050506040513d601f19601f8201168201806040525081019061238791906136de565b91509150915091565b600080600080600360009054906101000a900473ffffffffffffffffffffffffffffffffffffffff1673ffffffffffffffffffffffffffffffffffffffff1663b0667cf86040518163ffffffff1660e01b8152600401604080518083038186803b1580156123fd57600080fd5b505afa158015612411573d6000803e3d6000fd5b505050506040513d601f19601f8201168201806040525081019061243591906136de565b5090506000600360009054906101000a900473ffffffffffffffffffffffffffffffffffffffff1673ffffffffffffffffffffffffffffffffffffffff1663040b030f886040518263ffffffff1660e01b81526004016124959190613f09565b604080518083038186803b1580156124ac57600080fd5b505afa1580156124c0573d6000803e3d6000fd5b505050506040513d601f19601f820116820180604052508101906124e491906136de565b509050818173__OptionLibrary_________________________63ab390197898686600360009054906101000a900473ffffffffffffffffffffffffffffffffffffffff1673ffffffffffffffffffffffffffffffffffffffff1663bf0a03ca6040518163ffffffff1660e01b815260040160206040518083038186803b15801561256e57600080fd5b505afa158015612582573d6000803e3d6000fd5b505050506040513d601f19601f820116820180604052508101906125a691906135b1565b6040518563ffffffff1660e01b81526004016125c59493929190613ff3565b60206040518083038186803b1580156125dd57600080fd5b505af41580156125f1573d6000803e3d6000fd5b505050506040513d601f19601f8201168201806040525081019061261591906135b1565b94509450945050509250925092565b6000600360009054906101000a900473ffffffffffffffffffffffffffffffffffffffff1673ffffffffffffffffffffffffffffffffffffffff1663bf0a03ca6040518163ffffffff1660e01b815260040160206040518083038186803b15801561268e57600080fd5b505afa1580156126a2573d6000803e3d6000fd5b505050506040513d601f19601f820116820180604052508101906126c691906135b1565b905090565b6126d482610bb5565b6126e5816126e0612a7e565b612a86565b6126ef8383612c03565b505050565b6000806001811115612709576127086145f1565b5b86600181111561271c5761271b6145f1565b5b148061274b5750600180811115612736576127356145f1565b5b866001811115612749576127486145f1565b5b145b61275457600080fd5b6000600360009054906101000a900473ffffffffffffffffffffffffffffffffffffffff1673ffffffffffffffffffffffffffffffffffffffff1663b0667cf86040518163ffffffff1660e01b8152600401604080518083038186803b1580156127bd57600080fd5b505afa1580156127d1573d6000803e3d6000fd5b505050506040513d601f19601f820116820180604052508101906127f591906136de565b509050600080600360009054906101000a900473ffffffffffffffffffffffffffffffffffffffff1673ffffffffffffffffffffffffffffffffffffffff1663040b030f8c6040518263ffffffff1660e01b81526004016128569190613f09565b604080518083038186803b15801561286d57600080fd5b505afa158015612881573d6000803e3d6000fd5b505050506040513d601f19601f820116820180604052508101906128a591906136de565b9150915060006128c96128b9888585612f92565b6128c4888686612f92565b61301d565b905073__OptionLibrary_________________________634586fb4985838e8e8e8e600360009054906101000a900473ffffffffffffffffffffffffffffffffffffffff1673ffffffffffffffffffffffffffffffffffffffff1663bf0a03ca6040518163ffffffff1660e01b815260040160206040518083038186803b15801561295357600080fd5b505afa158015612967573d6000803e3d6000fd5b505050506040513d601f19601f8201168201806040525081019061298b91906135b1565b6040518863ffffffff1660e01b81526004016129ad9796959493929190613f84565b60206040518083038186803b1580156129c557600080fd5b505af41580156129d9573d6000803e3d6000fd5b505050506040513d601f19601f820116820180604052508101906129fd91906135b1565b945050505050979650505050505050565b60025481565b60007f01ffc9a7000000000000000000000000000000000000000000000000000000007bffffffffffffffffffffffffffffffffffffffffffffffffffffffff1916827bffffffffffffffffffffffffffffffffffffffffffffffffffffffff1916149050919050565b600033905090565b612a908282611b8d565b612b1f57612ab58173ffffffffffffffffffffffffffffffffffffffff166014613084565b612ac38360001c6020613084565b604051602001612ad4929190613cb3565b6040516020818303038152906040526040517f08c379a0000000000000000000000000000000000000000000000000000000008152600401612b169190613d59565b60405180910390fd5b5050565b612b2d8282611b8d565b612bff57600160008084815260200190815260200160002060000160008373ffffffffffffffffffffffffffffffffffffffff1673ffffffffffffffffffffffffffffffffffffffff16815260200190815260200160002060006101000a81548160ff021916908315150217905550612ba4612a7e565b73ffffffffffffffffffffffffffffffffffffffff168173ffffffffffffffffffffffffffffffffffffffff16837f2f8788117e7eff1d82e926ec794901d17c78024a50270940304540a733656f0d60405160405180910390a45b5050565b612c0d8282611b8d565b15612ce057600080600084815260200190815260200160002060000160008373ffffffffffffffffffffffffffffffffffffffff1673ffffffffffffffffffffffffffffffffffffffff16815260200190815260200160002060006101000a81548160ff021916908315150217905550612c85612a7e565b73ffffffffffffffffffffffffffffffffffffffff168173ffffffffffffffffffffffffffffffffffffffff16837ff6391f5c32d9c69d2a47ea670b442974b53935d1edc7fd64eb21e047a839171b60405160405180910390a45b5050565b600080600080198587098587029250828110838203039150506000811415612d1f5760008411612d1357600080fd5b83820492505050612dd9565b808411612d2b57600080fd5b60008486880990508281118203915080830392506000856001877fffffffffffffffffffffffffffffffffffffffffffffffffffffffffffffffff0301169050808604955080840493506001818260000304019050808302841793506000600287600302189050808702600203810290508087026002038102905080870260020381029050808702600203810290508087026002038102905080870260020381029050808502955050505050505b9392505050565b600080600360009054906101000a900473ffffffffffffffffffffffffffffffffffffffff1673ffffffffffffffffffffffffffffffffffffffff1663b0667cf86040518163ffffffff1660e01b8152600401604080518083038186803b158015612e4a57600080fd5b505afa158015612e5e573d6000803e3d6000fd5b505050506040513d601f19601f82011682018060405250810190612e8291906136de565b5090506000806001811115612e9a57612e996145f1565b5b846001811115612ead57612eac6145f1565b5b148015612eb957508482115b15612ecd578482612eca9190614317565b90505b600180811115612ee057612edf6145f1565b5b846001811115612ef357612ef26145f1565b5b148015612eff57508482105b15612f13578185612f109190614317565b90505b818682612f2091906142bd565b612f2a9190614175565b925050509392505050565b6000806002600184612f4791906140b5565b612f519190614175565b90508291505b81811015612f8c578091506002818285612f719190614175565b612f7b91906140b5565b612f859190614175565b9050612f57565b50919050565b600082821015612fa457829050613016565b600454841115612fef57612fdf8383612fbd9190614317565b60045486612fcb9190614317565b6002612fd791906142bd565b600454612ce4565b82612fea91906140b5565b613013565b6130078383612ffe9190614317565b85600454612ce4565b8361301291906140b5565b5b90505b9392505050565b60006002808361302d9190614519565b60028561303a9190614519565b61304491906140b5565b61304e9190614175565b60028361305b9190614175565b6002856130689190614175565b61307291906140b5565b61307c91906140b5565b905092915050565b60606000600283600261309791906142bd565b6130a191906140b5565b67ffffffffffffffff8111156130ba576130b961464f565b5b6040519080825280601f01601f1916602001820160405280156130ec5781602001600182028036833780820191505090505b5090507f30000000000000000000000000000000000000000000000000000000000000008160008151811061312457613123614620565b5b60200101907effffffffffffffffffffffffffffffffffffffffffffffffffffffffffffff1916908160001a9053507f78000000000000000000000000000000000000000000000000000000000000008160018151811061318857613187614620565b5b60200101907effffffffffffffffffffffffffffffffffffffffffffffffffffffffffffff1916908160001a905350600060018460026131c891906142bd565b6131d291906140b5565b90505b6001811115613272577f3031323334353637383961626364656600000000000000000000000000000000600f86166010811061321457613213614620565b5b1a60f81b82828151811061322b5761322a614620565b5b60200101907effffffffffffffffffffffffffffffffffffffffffffffffffffffffffffff1916908160001a905350600485901c94508061326b90614475565b90506131d5565b50600084146132b6576040517f08c379a00000000000000000000000000000000000000000000000000000000081526004016132ad90613d7b565b60405180910390fd5b8091505092915050565b604051806102000160405280600060018111156132e0576132df6145f1565b5b8152602001600060018111156132f9576132f86145f1565b5b815260200160006003811115613312576133116145f1565b5b8152602001600073ffffffffffffffffffffffffffffffffffffffff1681526020016000815260200160008152602001600081526020016000815260200160008152602001600081526020016000815260200160008152602001600081526020016000815260200160008152602001600081525090565b600061339c6133978461405d565b614038565b9050828152602081018484840111156133b8576133b7614683565b5b6133c3848285614442565b509392505050565b6000813590506133da816148c8565b92915050565b6000813590506133ef816148df565b92915050565b600081359050613404816148f6565b92915050565b6000813590506134198161490d565b92915050565b60008135905061342e81614924565b92915050565b60008135905061344381614934565b92915050565b600082601f83011261345e5761345d61467e565b5b815161346e848260208601613389565b91505092915050565b60008135905061348681614944565b92915050565b60008151905061349b81614944565b92915050565b6000602082840312156134b7576134b661468d565b5b60006134c5848285016133f5565b91505092915050565b600080604083850312156134e5576134e461468d565b5b60006134f3858286016133f5565b9250506020613504858286016133cb565b9150509250929050565b6000602082840312156135245761352361468d565b5b60006135328482850161340a565b91505092915050565b6000602082840312156135515761355061468d565b5b600082015167ffffffffffffffff81111561356f5761356e614688565b5b61357b84828501613449565b91505092915050565b60006020828403121561359a5761359961468d565b5b60006135a884828501613477565b91505092915050565b6000602082840312156135c7576135c661468d565b5b60006135d58482850161348c565b91505092915050565b600080604083850312156135f5576135f461468d565b5b600061360385828601613477565b9250506020613614858286016133cb565b9150509250929050565b600080604083850312156136355761363461468d565b5b600061364385828601613477565b9250506020613654858286016133e0565b9150509250929050565b600080604083850312156136755761367461468d565b5b600061368385828601613477565b925050602061369485828601613434565b9150509250929050565b600080604083850312156136b5576136b461468d565b5b60006136c385828601613477565b92505060206136d485828601613477565b9150509250929050565b600080604083850312156136f5576136f461468d565b5b60006137038582860161348c565b92505060206137148582860161348c565b9150509250929050565b6000806000606084860312156137375761373661468d565b5b600061374586828701613477565b935050602061375686828701613477565b9250506040613767868287016133e0565b9150509250925092565b600080600080600060a0868803121561378d5761378c61468d565b5b600061379b88828901613477565b95505060206137ac88828901613477565b94505060406137bd88828901613434565b93505060606137ce8882890161341f565b92505060806137df88828901613477565b9150509295509295909350565b600080600080600080600060e0888a03121561380b5761380a61468d565b5b60006138198a828b01613477565b975050602061382a8a828b01613477565b965050604061383b8a828b01613434565b955050606061384c8a828b0161341f565b945050608061385d8a828b01613477565b93505060a061386e8a828b01613477565b92505060c061387f8a828b01613477565b91505092959891949750929550565b6138978161434b565b82525050565b6138a68161434b565b82525050565b6138b58161435d565b82525050565b6138c48161435d565b82525050565b6138d381614369565b82525050565b6138e28161440c565b82525050565b6138f18161440c565b82525050565b6139008161441e565b82525050565b61390f81614430565b82525050565b61391e81614430565b82525050565b61392d816143d8565b82525050565b600061393e8261408e565b6139488185614099565b9350613958818560208601614442565b61396181614692565b840191505092915050565b60006139778261408e565b61398181856140aa565b9350613991818560208601614442565b80840191505092915050565b60006139aa602083614099565b91506139b5826146a3565b602082019050919050565b60006139cd601783614099565b91506139d8826146cc565b602082019050919050565b60006139f0601283614099565b91506139fb826146f5565b602082019050919050565b6000613a13601883614099565b9150613a1e8261471e565b602082019050919050565b6000613a36601183614099565b9150613a4182614747565b602082019050919050565b6000613a59601383614099565b9150613a6482614770565b602082019050919050565b6000613a7c600e83614099565b9150613a8782614799565b602082019050919050565b6000613a9f6017836140aa565b9150613aaa826147c2565b601782019050919050565b6000613ac2601e83614099565b9150613acd826147eb565b602082019050919050565b6000613ae56011836140aa565b9150613af082614814565b601182019050919050565b6000613b08602f83614099565b9150613b138261483d565b604082019050919050565b61020082016000820151613b356000850182613906565b506020820151613b4860208501826138d9565b506040820151613b5b60408501826138f7565b506060820151613b6e606085018261388e565b506080820151613b816080850182613c6f565b5060a0820151613b9460a0850182613c6f565b5060c0820151613ba760c0850182613c6f565b5060e0820151613bba60e0850182613c6f565b50610100820151613bcf610100850182613c6f565b50610120820151613be4610120850182613c6f565b50610140820151613bf9610140850182613c6f565b50610160820151613c0e610160850182613c6f565b50610180820151613c23610180850182613c6f565b506101a0820151613c386101a0850182613c6f565b506101c0820151613c4d6101c0850182613c6f565b506101e0820151613c626101e0850182613c6f565b50505050565b8082525050565b613c7881614402565b82525050565b613c8781614402565b82525050565b613c9681614402565b82525050565b6000613ca8828461396c565b915081905092915050565b6000613cbe82613a92565b9150613cca828561396c565b9150613cd582613ad8565b9150613ce1828461396c565b91508190509392505050565b6000602082019050613d02600083018461389d565b92915050565b6000602082019050613d1d60008301846138ac565b92915050565b6000602082019050613d3860008301846138ca565b92915050565b6000602082019050613d536000830184613924565b92915050565b60006020820190508181036000830152613d738184613933565b905092915050565b60006020820190508181036000830152613d948161399d565b9050919050565b60006020820190508181036000830152613db4816139c0565b9050919050565b60006020820190508181036000830152613dd4816139e3565b9050919050565b60006020820190508181036000830152613df481613a06565b9050919050565b60006020820190508181036000830152613e1481613a29565b9050919050565b60006020820190508181036000830152613e3481613a4c565b9050919050565b60006020820190508181036000830152613e5481613a6f565b9050919050565b60006020820190508181036000830152613e7481613ab5565b9050919050565b60006020820190508181036000830152613e9481613afb565b9050919050565b600061020082019050613eb16000830184613b1e565b92915050565b6000604082019050613ecc6000830185613c68565b613ed960208301846138bb565b9392505050565b6000604082019050613ef56000830185613c68565b613f026020830184613c8d565b9392505050565b6000602082019050613f1e6000830184613c7e565b92915050565b6000604082019050613f396000830185613c7e565b613f466020830184613c7e565b9392505050565b6000606082019050613f626000830186613c7e565b613f6f6020830185613c7e565b613f7c6040830184613c7e565b949350505050565b600060e082019050613f99600083018a613c8d565b613fa66020830189613c8d565b613fb36040830188613c8d565b613fc06060830187613915565b613fcd60808301866138e8565b613fda60a0830185613c8d565b613fe760c0830184613c8d565b98975050505050505050565b60006080820190506140086000830187613c8d565b6140156020830186613c8d565b6140226040830185613c8d565b61402f6060830184613c8d565b95945050505050565b6000614042614053565b905061404e828261449f565b919050565b6000604051905090565b600067ffffffffffffffff8211156140785761407761464f565b5b61408182614692565b9050602081019050919050565b600081519050919050565b600082825260208201905092915050565b600081905092915050565b60006140c082614402565b91506140cb83614402565b9250827fffffffffffffffffffffffffffffffffffffffffffffffffffffffffffffffff03821115614100576140ff614593565b5b828201905092915050565b6000614116826143d8565b9150614121836143d8565b925082614131576141306145c2565b5b600160000383147f80000000000000000000000000000000000000000000000000000000000000008314161561416a57614169614593565b5b828205905092915050565b600061418082614402565b915061418b83614402565b92508261419b5761419a6145c2565b5b828204905092915050565b60006141b1826143d8565b91506141bc836143d8565b9250827f7fffffffffffffffffffffffffffffffffffffffffffffffffffffffffffffff04821160008413600084131616156141fb576141fa614593565b5b817f8000000000000000000000000000000000000000000000000000000000000000058312600084126000841316161561423857614237614593565b5b827f8000000000000000000000000000000000000000000000000000000000000000058212600084136000841216161561427557614274614593565b5b827f7fffffffffffffffffffffffffffffffffffffffffffffffffffffffffffffff05821260008412600084121616156142b2576142b1614593565b5b828202905092915050565b60006142c882614402565b91506142d383614402565b9250817fffffffffffffffffffffffffffffffffffffffffffffffffffffffffffffffff048311821515161561430c5761430b614593565b5b828202905092915050565b600061432282614402565b915061432d83614402565b9250828210156143405761433f614593565b5b828203905092915050565b6000614356826143e2565b9050919050565b60008115159050919050565b6000819050919050565b60007fffffffff0000000000000000000000000000000000000000000000000000000082169050919050565b60008190506143ad8261488c565b919050565b60008190506143c0826148a0565b919050565b60008190506143d3826148b4565b919050565b6000819050919050565b600073ffffffffffffffffffffffffffffffffffffffff82169050919050565b6000819050919050565b60006144178261439f565b9050919050565b6000614429826143b2565b9050919050565b600061443b826143c5565b9050919050565b60005b83811015614460578082015181840152602081019050614445565b8381111561446f576000848401525b50505050565b600061448082614402565b9150600082141561449457614493614593565b5b600182039050919050565b6144a882614692565b810181811067ffffffffffffffff821117156144c7576144c661464f565b5b80604052505050565b60006144db82614402565b91507fffffffffffffffffffffffffffffffffffffffffffffffffffffffffffffffff82141561450e5761450d614593565b5b600182019050919050565b600061452482614402565b915061452f83614402565b92508261453f5761453e6145c2565b5b828206905092915050565b6000614555826143d8565b91507f800000000000000000000000000000000000000000000000000000000000000082141561458857614587614593565b5b816000039050919050565b7f4e487b7100000000000000000000000000000000000000000000000000000000600052601160045260246000fd5b7f4e487b7100000000000000000000000000000000000000000000000000000000600052601260045260246000fd5b7f4e487b7100000000000000000000000000000000000000000000000000000000600052602160045260246000fd5b7f4e487b7100000000000000000000000000000000000000000000000000000000600052603260045260246000fd5b7f4e487b7100000000000000000000000000000000000000000000000000000000600052604160045260246000fd5b600080fd5b600080fd5b600080fd5b600080fd5b6000601f19601f8301169050919050565b7f537472696e67733a20686578206c656e67746820696e73756666696369656e74600082015250565b7f5573652063616c6c206f7220707574206f7074696f6e2e000000000000000000600082015250565b7f4e6f7420616374697665206f7074696f6e2e0000000000000000000000000000600082015250565b7f4361706974616c526174696f20697320746f6f206269672e0000000000000000600082015250565b7f496e74657276616c20746f6f206269672e000000000000000000000000000000600082015250565b7f4f7074696f6e2068617320657870697265642e00000000000000000000000000600082015250565b7f4e6f7420746865206f776e65722e000000000000000000000000000000000000600082015250565b7f416363657373436f6e74726f6c3a206163636f756e7420000000000000000000600082015250565b7f53656c6c206f7074696f6e207072656d69756d20696e636f72726563742e0000600082015250565b7f206973206d697373696e6720726f6c6520000000000000000000000000000000600082015250565b7f416363657373436f6e74726f6c3a2063616e206f6e6c792072656e6f756e636560008201527f20726f6c657320666f722073656c660000000000000000000000000000000000602082015250565b6002811061489d5761489c6145f1565b5b50565b600481106148b1576148b06145f1565b5b50565b600281106148c5576148c46145f1565b5b50565b6148d18161434b565b81146148dc57600080fd5b50565b6148e88161435d565b81146148f357600080fd5b50565b6148ff81614369565b811461490a57600080fd5b50565b61491681614373565b811461492157600080fd5b50565b6002811061493157600080fd5b50565b6002811061494157600080fd5b50565b61494d81614402565b811461495857600080fd5b5056fea2646970667358221220cd60db3ac638ad264aff29cb8fca141a444a76b0990441a4c68a3b5a1b758bd964736f6c63430008070033",
  "immutableReferences": {},
  "source": "/**\n * SPDX-License-Identifier: GPL-3.0-or-later\n * Moret\n * Copyright (C) 2021 Moret\n*/\n\npragma solidity 0.8.7;\n\nimport \"@openzeppelin/contracts/access/AccessControl.sol\";\nimport \"@openzeppelin/contracts/utils/math/Math.sol\";\nimport \"./MoretInterfaces.sol\";\nimport \"./FullMath.sol\";\n\ncontract OptionVault is AccessControl\n{\n  using OptionLibrary for OptionLibrary.Option;\n\n  bytes32 public constant ADMIN_ROLE = keccak256(\"ADMIN_ROLE\");\n  bytes32 public constant EXCHANGE_ROLE = keccak256(\"EXCHANGE_ROLE\");\n\n  mapping(uint256=> OptionLibrary.Option) internal optionsList;\n  uint256 public optionCounter = 0;\n\n  IVolatilityChain internal volatilityChain;\n  uint256 internal ethMultiplier = 10 ** 18;\n  uint256 internal pctDenominator = 10 ** 6;\n\n  OptionLibrary.Percent public volPremiumFixedAddon = OptionLibrary.Percent(5 * 10 ** 3, 10 ** 6) ;\n  OptionLibrary.Percent public deltaRange = OptionLibrary.Percent(8 * 10 ** 5, 10 ** 6) ;\n\n  constructor(\n      address _volChainAddress\n      )\n      {\n          _setupRole(DEFAULT_ADMIN_ROLE, msg.sender);\n          _setupRole(ADMIN_ROLE, msg.sender);\n          _setupRole(EXCHANGE_ROLE, msg.sender);\n\n          volatilityChain = IVolatilityChain(_volChainAddress);\n      }\n\n    function descriptionHash() external view returns (bytes32)\n    {\n      return keccak256(abi.encodePacked(volatilityChain.getDecription()));\n    }\n\n    function queryOptionCost(uint256 _tenor, uint256 _strike, \n      OptionLibrary.PayoffType _poType, \n      OptionLibrary.OptionSide _side,\n      uint256 _amount,\n      uint256 _utilPrior, uint256 _utilAfter)\n      external view returns(uint256)\n    {\n        require((_poType==OptionLibrary.PayoffType.Call) || (_poType==OptionLibrary.PayoffType.Put));\n\n        (uint256 _price,) = volatilityChain.queryPrice();\n        (uint256 _histoVol, uint256 _accentus) = volatilityChain.getVol(_tenor);\n\n        uint256 _volatility = Math.average(calcVolCurve(_utilPrior, _histoVol, _accentus), calcVolCurve(_utilAfter, _histoVol, _accentus));\n\n        return  OptionLibrary.calcPremium(_price, _volatility, _strike, _poType, _side, _amount, volatilityChain.getPriceMultiplier());\n    }\n\n    function calcVolCurve(uint256 _util, uint256 _histoVol, uint256 _accentus) internal view returns (uint256)\n    {\n      if(_accentus < _histoVol)\n      {\n        return _histoVol;\n      }\n      return (_util <= ethMultiplier)? (_histoVol + MulDiv(_accentus - _histoVol, _util, ethMultiplier))\n        : (_accentus + MulDiv(_accentus - _histoVol, 2 * (_util - ethMultiplier), ethMultiplier));\n    }\n\n    function checkVolSkew(uint256 _tenor, uint256 _strike) external view returns (uint256, uint256, uint256)\n    {\n        (uint256 _price,) = volatilityChain.queryPrice();\n        (uint256 _volatility, ) = volatilityChain.getVol(_tenor);\n        return (_price, _volatility, OptionLibrary.calcVolSkew(_strike, _price, _volatility, volatilityChain.getPriceMultiplier()));\n    }\n\n    function addOption(uint256 _tenor, uint256 _strike, OptionLibrary.PayoffType _poType, OptionLibrary.OptionSide _side,\n      uint256 _amount, uint256 _premium, uint256 _fee)\n    external onlyRole(EXCHANGE_ROLE) returns(uint256)\n    {\n        require((_poType==OptionLibrary.PayoffType.Call) || (_poType==OptionLibrary.PayoffType.Put), \"Use call or put option.\");\n\n        (uint256 _price,) = volatilityChain.queryPrice();\n        (uint256 _volatility, ) = volatilityChain.getVol(_tenor);\n\n        optionCounter++;\n        uint256 _id = optionCounter;\n        optionsList[_id] = OptionLibrary.Option(\n            _poType,\n            _side,\n            OptionLibrary.OptionStatus.Draft,\n            msg.sender,\n            _id,\n            block.timestamp,\n            0,\n            _tenor,\n            0,\n            0,\n            _amount,\n            _price,\n            _strike,\n            _volatility,\n            _premium,\n            _fee);\n\n        return _id;\n    }\n\n    function queryDraftOptionCost(uint256 _id, bool _inVol) external view returns(uint256)\n    {\n        require(optionsList[_id].status== OptionLibrary.OptionStatus.Draft);\n        uint256 _cost = optionsList[_id].getCost(_inVol);\n        if(optionsList[_id].side == OptionLibrary.OptionSide.Sell){\n          require(_cost<optionsList[_id].amount, \"Sell option premium incorrect.\");\n          _cost = optionsList[_id].amount - _cost;\n        }\n        return _cost;\n    }\n\n    function queryDraftOptionFee(uint256 _id) external view returns(uint256)\n    {\n        require(optionsList[_id].status== OptionLibrary.OptionStatus.Draft);\n        return optionsList[_id].fee;\n    }\n\n    function getOptionHolder(uint256 _id) external view returns(address)\n    {\n      return optionsList[_id].holder;\n    }\n\n    function queryOptionPremium(uint256 _id) external view returns(uint256)\n    {\n        return optionsList[_id].premium;\n    }\n    function queryOptionCapital(uint256 _id, uint256 _capitalRatio) external view returns(uint256)\n    {\n      require(_capitalRatio<=ethMultiplier, \"CapitalRatio is too big.\");\n      uint256 _capital = 0;\n      if(optionsList[_id].side==OptionLibrary.OptionSide.Buy)\n      {\n        _capital=MulDiv(optionsList[_id].amount, _capitalRatio, ethMultiplier) + MulDiv(optionsList[_id].premium, ethMultiplier-_capitalRatio, ethMultiplier);\n      }\n      return _capital;\n    }\n    function queryOptionNotional(uint256 _id, bool _ignoreSells) external view returns(uint256)\n    {\n      uint256 _notional = 0;\n      if(optionsList[_id].side==OptionLibrary.OptionSide.Buy || !_ignoreSells)\n      {\n        _notional=optionsList[_id].amount;\n      }\n      return _notional;\n    }\n\n    function queryOptionCapitalV2(uint256 _amount, uint256 _strike, OptionLibrary.PayoffType _poType, OptionLibrary.OptionSide _side, uint256 _capitalRatio) external view returns(uint256)\n    {\n      require(_capitalRatio<=ethMultiplier, \"CapitalRatio is too big.\");\n      uint256 _capital = 0;\n      if(_side==OptionLibrary.OptionSide.Buy)\n      {\n        \n        _capital=MulDiv(_amount, _capitalRatio, ethMultiplier) + MulDiv(calcPayoffValue(_amount, _strike, _poType), ethMultiplier-_capitalRatio, ethMultiplier);\n      }\n      return _capital;\n    }\n    function calcPayoffValue(uint256 _amount, uint256 _strike,OptionLibrary.PayoffType _poType) internal view returns(uint256)\n  {\n    (uint256 _price,) = volatilityChain.queryPrice();\n    uint256 _intrinsicValue = 0;\n\n      if((_poType == OptionLibrary.PayoffType.Call) && (_price > _strike)){\n        _intrinsicValue = _price - _strike;\n      }\n      if((_poType == OptionLibrary.PayoffType.Put) && (_price<_strike)){\n        _intrinsicValue = _strike - _price;\n      }\n      return _intrinsicValue * _amount / _price;\n  }\n    function queryOptionExposure(uint256 _id, OptionLibrary.PayoffType _poType) external view returns(uint256)\n    {\n      if(optionsList[_id].poType==_poType)\n      {\n          return optionsList[_id].amount;\n      }\n      return 0;\n    }\n\n    function getOptionPayoffValue(uint256 _id) external view returns(uint256, uint256, uint256)\n    {\n        (uint256 _price,) = volatilityChain.queryPrice();\n        uint256 _payoff = optionsList[_id].calcPayoffValue(_price);\n        uint256 _fromMarketMaker = _payoff;\n        uint256 _toMarketMaker = 0;\n        if(optionsList[_id].side == OptionLibrary.OptionSide.Sell)\n        {\n          _toMarketMaker = _payoff;\n          _payoff = optionsList[_id].amount - _payoff;\n        }\n        return (_payoff, _fromMarketMaker, _toMarketMaker);\n    }\n\n    function calculateContractDelta(uint256 _id, uint256 _price, bool _ignoreSells) external view returns(int256){\n      int256 _delta = 0;\n      if(optionsList[_id].status== OptionLibrary.OptionStatus.Active)\n      {\n      //  (uint256 _price, ) = volatilityChain.queryPrice();\n       (uint256 _vol, ) = volatilityChain.getVol(optionsList[_id].tenor);\n\n        uint256 _vol1DAdjusted = MulDiv(MulDiv(_vol, Sqrt(86400), Sqrt(optionsList[_id].tenor)), deltaRange.numerator, deltaRange.denominator);\n        uint256 _lowerRange = _price - (_price* _vol1DAdjusted/ volatilityChain.getPriceMultiplier());\n        uint256 _upperRange = _price * 2 - _lowerRange;\n\n        _delta = int256(optionsList[_id].amount) / 2;\n        if (optionsList[_id].poType==OptionLibrary.PayoffType.Call)\n        {\n          if(_upperRange < optionsList[_id].strike)\n          {\n            _delta = 0;\n          }\n          if(_lowerRange > optionsList[_id].strike)\n          {\n            _delta = int256(optionsList[_id].amount);\n          }\n        }\n\n        if(optionsList[_id].poType==OptionLibrary.PayoffType.Put)\n        {\n          if(!_ignoreSells)\n            {_delta *= -1;}\n          if(_upperRange < optionsList[_id].strike)\n          {\n            _delta = -int256(optionsList[_id].amount);\n          }\n          if(_lowerRange > optionsList[_id].strike)\n          {\n            _delta = 0;\n          }\n        }\n      }\n\n      if(optionsList[_id].side==OptionLibrary.OptionSide.Sell)\n      {\n        _delta *= -1;\n        if(_ignoreSells)\n        {_delta = 0;}\n      }\n      \n      return _delta;\n    }\n\n    \n    function validateOption(uint256 _id, address _holder) external view {\n      require(optionsList[_id].holder== _holder, \"Not the owner.\");\n      require((optionsList[_id].effectiveTime + optionsList[_id].tenor) >= block.timestamp, \"Option has expired.\");\n      require(optionsList[_id].status==OptionLibrary.OptionStatus.Active, \"Not active option.\");\n    }\n\n    function isOptionExpiring(uint256 _id, uint256 _maturityIntervals) external view returns (bool)\n    {\n      require(optionsList[_id].maturity>_maturityIntervals, \"Interval too big.\");\n      return (optionsList[_id].status== OptionLibrary.OptionStatus.Active) && (optionsList[_id].maturity >= block.timestamp) && ((optionsList[_id].maturity - _maturityIntervals)< block.timestamp);\n    }\n\n    function stampActiveOption(uint256 _id, uint256 _maturityIntervals) external onlyRole(EXCHANGE_ROLE) {\n        optionsList[_id].effectiveTime = block.timestamp;\n        optionsList[_id].maturity = optionsList[_id].effectiveTime + optionsList[_id].tenor - ((optionsList[_id].effectiveTime + optionsList[_id].tenor) % _maturityIntervals);\n\n        optionsList[_id].status = OptionLibrary.OptionStatus.Active;\n    }\n\n    function stampExercisedOption(uint256 _id) external onlyRole(EXCHANGE_ROLE){\n        optionsList[_id].exerciseTime = block.timestamp;\n        optionsList[_id].status = OptionLibrary.OptionStatus.Exercised;\n    }\n\n    function stampExpiredOption(uint256 _id)  external onlyRole(EXCHANGE_ROLE){\n      optionsList[_id].exerciseTime = block.timestamp;\n      optionsList[_id].status = OptionLibrary.OptionStatus.Expired;\n    }\n\n    function getOption(uint256 _id) external view returns(OptionLibrary.Option memory) {\n        return optionsList[_id];\n    }\n\n    function queryVol(uint256 _tenor) external view returns(uint256, uint256){return volatilityChain.getVol(_tenor);}\n    function queryPrice() external view returns(uint256, uint256){return volatilityChain.queryPrice();}\n    function priceMultiplier() external view returns (uint256){return volatilityChain.getPriceMultiplier();}\n    function priceDecimals() external view returns(uint256) {return volatilityChain.getPriceDecimals();}\n}\n",
  "sourcePath": "/Users/mac/Documents/GitHub/moret/contracts/OptionVault.sol",
  "compiler": {
    "name": "solc",
    "version": "0.8.7+commit.e28d00a7.Emscripten.clang"
  },
  "schemaVersion": "3.4.3",
  "updatedAt": "2021-09-15T23:25:58.461Z",
  "networkType": "ethereum",
  "devdoc": {
    "kind": "dev",
    "methods": {
      "getRoleAdmin(bytes32)": {
        "details": "Returns the admin role that controls `role`. See {grantRole} and {revokeRole}. To change a role's admin, use {_setRoleAdmin}."
      },
      "grantRole(bytes32,address)": {
        "details": "Grants `role` to `account`. If `account` had not been already granted `role`, emits a {RoleGranted} event. Requirements: - the caller must have ``role``'s admin role."
      },
      "hasRole(bytes32,address)": {
        "details": "Returns `true` if `account` has been granted `role`."
      },
      "renounceRole(bytes32,address)": {
        "details": "Revokes `role` from the calling account. Roles are often managed via {grantRole} and {revokeRole}: this function's purpose is to provide a mechanism for accounts to lose their privileges if they are compromised (such as when a trusted device is misplaced). If the calling account had been granted `role`, emits a {RoleRevoked} event. Requirements: - the caller must be `account`."
      },
      "revokeRole(bytes32,address)": {
        "details": "Revokes `role` from `account`. If `account` had been granted `role`, emits a {RoleRevoked} event. Requirements: - the caller must have ``role``'s admin role."
      },
      "supportsInterface(bytes4)": {
        "details": "See {IERC165-supportsInterface}."
      }
    },
    "version": 1
  },
  "userdoc": {
    "kind": "user",
    "methods": {},
    "version": 1
  }
}