{
  "contractName": "OptionVault",
  "abi": [
    {
      "inputs": [
        {
          "internalType": "address",
          "name": "_volChainAddress",
          "type": "address"
        }
      ],
      "stateMutability": "nonpayable",
      "type": "constructor"
    },
    {
      "anonymous": false,
      "inputs": [
        {
          "indexed": true,
          "internalType": "bytes32",
          "name": "role",
          "type": "bytes32"
        },
        {
          "indexed": true,
          "internalType": "bytes32",
          "name": "previousAdminRole",
          "type": "bytes32"
        },
        {
          "indexed": true,
          "internalType": "bytes32",
          "name": "newAdminRole",
          "type": "bytes32"
        }
      ],
      "name": "RoleAdminChanged",
      "type": "event"
    },
    {
      "anonymous": false,
      "inputs": [
        {
          "indexed": true,
          "internalType": "bytes32",
          "name": "role",
          "type": "bytes32"
        },
        {
          "indexed": true,
          "internalType": "address",
          "name": "account",
          "type": "address"
        },
        {
          "indexed": true,
          "internalType": "address",
          "name": "sender",
          "type": "address"
        }
      ],
      "name": "RoleGranted",
      "type": "event"
    },
    {
      "anonymous": false,
      "inputs": [
        {
          "indexed": true,
          "internalType": "bytes32",
          "name": "role",
          "type": "bytes32"
        },
        {
          "indexed": true,
          "internalType": "address",
          "name": "account",
          "type": "address"
        },
        {
          "indexed": true,
          "internalType": "address",
          "name": "sender",
          "type": "address"
        }
      ],
      "name": "RoleRevoked",
      "type": "event"
    },
    {
      "inputs": [],
      "name": "DEFAULT_ADMIN_ROLE",
      "outputs": [
        {
          "internalType": "bytes32",
          "name": "",
          "type": "bytes32"
        }
      ],
      "stateMutability": "view",
      "type": "function"
    },
    {
      "inputs": [],
      "name": "EXCHANGE_ROLE",
      "outputs": [
        {
          "internalType": "bytes32",
          "name": "",
          "type": "bytes32"
        }
      ],
      "stateMutability": "view",
      "type": "function"
    },
    {
      "inputs": [
        {
          "internalType": "bytes32",
          "name": "role",
          "type": "bytes32"
        }
      ],
      "name": "getRoleAdmin",
      "outputs": [
        {
          "internalType": "bytes32",
          "name": "",
          "type": "bytes32"
        }
      ],
      "stateMutability": "view",
      "type": "function"
    },
    {
      "inputs": [
        {
          "internalType": "bytes32",
          "name": "role",
          "type": "bytes32"
        },
        {
          "internalType": "address",
          "name": "account",
          "type": "address"
        }
      ],
      "name": "grantRole",
      "outputs": [],
      "stateMutability": "nonpayable",
      "type": "function"
    },
    {
      "inputs": [
        {
          "internalType": "bytes32",
          "name": "role",
          "type": "bytes32"
        },
        {
          "internalType": "address",
          "name": "account",
          "type": "address"
        }
      ],
      "name": "hasRole",
      "outputs": [
        {
          "internalType": "bool",
          "name": "",
          "type": "bool"
        }
      ],
      "stateMutability": "view",
      "type": "function"
    },
    {
      "inputs": [],
      "name": "optionCounter",
      "outputs": [
        {
          "internalType": "uint256",
          "name": "",
          "type": "uint256"
        }
      ],
      "stateMutability": "view",
      "type": "function"
    },
    {
      "inputs": [
        {
          "internalType": "bytes32",
          "name": "role",
          "type": "bytes32"
        },
        {
          "internalType": "address",
          "name": "account",
          "type": "address"
        }
      ],
      "name": "renounceRole",
      "outputs": [],
      "stateMutability": "nonpayable",
      "type": "function"
    },
    {
      "inputs": [
        {
          "internalType": "bytes32",
          "name": "role",
          "type": "bytes32"
        },
        {
          "internalType": "address",
          "name": "account",
          "type": "address"
        }
      ],
      "name": "revokeRole",
      "outputs": [],
      "stateMutability": "nonpayable",
      "type": "function"
    },
    {
      "inputs": [
        {
          "internalType": "bytes4",
          "name": "interfaceId",
          "type": "bytes4"
        }
      ],
      "name": "supportsInterface",
      "outputs": [
        {
          "internalType": "bool",
          "name": "",
          "type": "bool"
        }
      ],
      "stateMutability": "view",
      "type": "function"
    },
    {
      "inputs": [],
      "name": "descriptionHash",
      "outputs": [
        {
          "internalType": "bytes32",
          "name": "",
          "type": "bytes32"
        }
      ],
      "stateMutability": "view",
      "type": "function"
    },
    {
      "inputs": [
        {
          "internalType": "uint256",
          "name": "_strike",
          "type": "uint256"
        },
        {
          "internalType": "uint256",
          "name": "_amount",
          "type": "uint256"
        },
        {
          "internalType": "uint256",
          "name": "_vol",
          "type": "uint256"
        },
        {
          "internalType": "enum OptionLibrary.PayoffType",
          "name": "_poType",
          "type": "uint8"
        },
        {
          "internalType": "enum OptionLibrary.OptionSide",
          "name": "_side",
          "type": "uint8"
        }
      ],
      "name": "queryOptionCost",
      "outputs": [
        {
          "internalType": "uint256",
          "name": "_premium",
          "type": "uint256"
        },
        {
          "internalType": "uint256",
          "name": "_cost",
          "type": "uint256"
        },
        {
          "internalType": "uint256",
          "name": "_price",
          "type": "uint256"
        }
      ],
      "stateMutability": "view",
      "type": "function"
    },
    {
      "inputs": [
        {
          "internalType": "uint256",
          "name": "_tenor",
          "type": "uint256"
        },
        {
          "internalType": "uint256",
          "name": "_strike",
          "type": "uint256"
        },
        {
          "internalType": "uint256",
          "name": "_amount",
          "type": "uint256"
        },
        {
          "internalType": "enum OptionLibrary.PayoffType",
          "name": "_poType",
          "type": "uint8"
        },
        {
          "internalType": "enum OptionLibrary.OptionSide",
          "name": "_side",
          "type": "uint8"
        },
        {
          "internalType": "uint256",
          "name": "_premium",
          "type": "uint256"
        },
        {
          "internalType": "uint256",
          "name": "_cost",
          "type": "uint256"
        },
        {
          "internalType": "uint256",
          "name": "_price",
          "type": "uint256"
        },
        {
          "internalType": "uint256",
          "name": "_volatility",
          "type": "uint256"
        },
        {
          "internalType": "address",
          "name": "_holder",
          "type": "address"
        }
      ],
      "name": "addOption",
      "outputs": [
        {
          "internalType": "uint256",
          "name": "_id",
          "type": "uint256"
        }
      ],
      "stateMutability": "nonpayable",
      "type": "function"
    },
    {
      "inputs": [
        {
          "internalType": "uint256",
          "name": "_id",
          "type": "uint256"
        }
      ],
      "name": "getOptionHolder",
      "outputs": [
        {
          "internalType": "address",
          "name": "",
          "type": "address"
        }
      ],
      "stateMutability": "view",
      "type": "function"
    },
    {
      "inputs": [
        {
          "internalType": "address",
          "name": "_address",
          "type": "address"
        }
      ],
      "name": "getHoldersOptionCount",
      "outputs": [
        {
          "internalType": "uint256",
          "name": "",
          "type": "uint256"
        }
      ],
      "stateMutability": "view",
      "type": "function"
    },
    {
      "inputs": [
        {
          "internalType": "uint256",
          "name": "_index",
          "type": "uint256"
        },
        {
          "internalType": "address",
          "name": "_address",
          "type": "address"
        }
      ],
      "name": "getHoldersOption",
      "outputs": [
        {
          "components": [
            {
              "internalType": "enum OptionLibrary.PayoffType",
              "name": "poType",
              "type": "uint8"
            },
            {
              "internalType": "enum OptionLibrary.OptionSide",
              "name": "side",
              "type": "uint8"
            },
            {
              "internalType": "enum OptionLibrary.OptionStatus",
              "name": "status",
              "type": "uint8"
            },
            {
              "internalType": "address",
              "name": "holder",
              "type": "address"
            },
            {
              "internalType": "uint256",
              "name": "id",
              "type": "uint256"
            },
            {
              "internalType": "uint256",
              "name": "createTime",
              "type": "uint256"
            },
            {
              "internalType": "uint256",
              "name": "effectiveTime",
              "type": "uint256"
            },
            {
              "internalType": "uint256",
              "name": "tenor",
              "type": "uint256"
            },
            {
              "internalType": "uint256",
              "name": "maturity",
              "type": "uint256"
            },
            {
              "internalType": "uint256",
              "name": "exerciseTime",
              "type": "uint256"
            },
            {
              "internalType": "uint256",
              "name": "amount",
              "type": "uint256"
            },
            {
              "internalType": "uint256",
              "name": "spot",
              "type": "uint256"
            },
            {
              "internalType": "uint256",
              "name": "strike",
              "type": "uint256"
            },
            {
              "internalType": "uint256",
              "name": "volatility",
              "type": "uint256"
            },
            {
              "internalType": "uint256",
              "name": "premium",
              "type": "uint256"
            },
            {
              "internalType": "uint256",
              "name": "cost",
              "type": "uint256"
            }
          ],
          "internalType": "struct OptionLibrary.Option",
          "name": "",
          "type": "tuple"
        }
      ],
      "stateMutability": "view",
      "type": "function"
    },
    {
      "inputs": [
        {
          "internalType": "uint256",
          "name": "_id",
          "type": "uint256"
        }
      ],
      "name": "getOption",
      "outputs": [
        {
          "components": [
            {
              "internalType": "enum OptionLibrary.PayoffType",
              "name": "poType",
              "type": "uint8"
            },
            {
              "internalType": "enum OptionLibrary.OptionSide",
              "name": "side",
              "type": "uint8"
            },
            {
              "internalType": "enum OptionLibrary.OptionStatus",
              "name": "status",
              "type": "uint8"
            },
            {
              "internalType": "address",
              "name": "holder",
              "type": "address"
            },
            {
              "internalType": "uint256",
              "name": "id",
              "type": "uint256"
            },
            {
              "internalType": "uint256",
              "name": "createTime",
              "type": "uint256"
            },
            {
              "internalType": "uint256",
              "name": "effectiveTime",
              "type": "uint256"
            },
            {
              "internalType": "uint256",
              "name": "tenor",
              "type": "uint256"
            },
            {
              "internalType": "uint256",
              "name": "maturity",
              "type": "uint256"
            },
            {
              "internalType": "uint256",
              "name": "exerciseTime",
              "type": "uint256"
            },
            {
              "internalType": "uint256",
              "name": "amount",
              "type": "uint256"
            },
            {
              "internalType": "uint256",
              "name": "spot",
              "type": "uint256"
            },
            {
              "internalType": "uint256",
              "name": "strike",
              "type": "uint256"
            },
            {
              "internalType": "uint256",
              "name": "volatility",
              "type": "uint256"
            },
            {
              "internalType": "uint256",
              "name": "premium",
              "type": "uint256"
            },
            {
              "internalType": "uint256",
              "name": "cost",
              "type": "uint256"
            }
          ],
          "internalType": "struct OptionLibrary.Option",
          "name": "",
          "type": "tuple"
        }
      ],
      "stateMutability": "view",
      "type": "function"
    },
    {
      "inputs": [
        {
          "internalType": "uint256",
          "name": "_id",
          "type": "uint256"
        }
      ],
      "name": "queryOptionPremium",
      "outputs": [
        {
          "internalType": "uint256",
          "name": "",
          "type": "uint256"
        }
      ],
      "stateMutability": "view",
      "type": "function"
    },
    {
      "inputs": [
        {
          "internalType": "uint256",
          "name": "_id",
          "type": "uint256"
        },
        {
          "internalType": "bool",
          "name": "_ignoreSells",
          "type": "bool"
        }
      ],
      "name": "queryOptionNotional",
      "outputs": [
        {
          "internalType": "uint256",
          "name": "_notional",
          "type": "uint256"
        }
      ],
      "stateMutability": "view",
      "type": "function"
    },
    {
      "inputs": [
        {
          "internalType": "bool",
          "name": "_ignoreSells",
          "type": "bool"
        }
      ],
      "name": "getAggregateNotional",
      "outputs": [
        {
          "internalType": "uint256",
          "name": "_notional",
          "type": "uint256"
        }
      ],
      "stateMutability": "view",
      "type": "function"
    },
    {
      "inputs": [
        {
          "internalType": "uint256",
          "name": "_id",
          "type": "uint256"
        }
      ],
      "name": "getContractPayoff",
      "outputs": [
        {
          "internalType": "uint256",
          "name": "_payoff",
          "type": "uint256"
        },
        {
          "internalType": "uint256",
          "name": "_payback",
          "type": "uint256"
        }
      ],
      "stateMutability": "view",
      "type": "function"
    },
    {
      "inputs": [
        {
          "internalType": "uint256",
          "name": "_id",
          "type": "uint256"
        },
        {
          "internalType": "uint256",
          "name": "_price",
          "type": "uint256"
        },
        {
          "internalType": "bool",
          "name": "_ignoreSells",
          "type": "bool"
        }
      ],
      "name": "calculateContractDelta",
      "outputs": [
        {
          "internalType": "int256",
          "name": "_delta",
          "type": "int256"
        }
      ],
      "stateMutability": "view",
      "type": "function"
    },
    {
      "inputs": [
        {
          "internalType": "bool",
          "name": "_ignoreSells",
          "type": "bool"
        }
      ],
      "name": "calculateAggregateDelta",
      "outputs": [
        {
          "internalType": "int256",
          "name": "_delta",
          "type": "int256"
        },
        {
          "internalType": "uint256",
          "name": "_price",
          "type": "uint256"
        }
      ],
      "stateMutability": "view",
      "type": "function"
    },
    {
      "inputs": [
        {
          "internalType": "uint256",
          "name": "_id",
          "type": "uint256"
        },
        {
          "internalType": "uint256",
          "name": "_price",
          "type": "uint256"
        },
        {
          "internalType": "bool",
          "name": "_ignoreSells",
          "type": "bool"
        }
      ],
      "name": "calculateContractGamma",
      "outputs": [
        {
          "internalType": "int256",
          "name": "_gamma",
          "type": "int256"
        }
      ],
      "stateMutability": "view",
      "type": "function"
    },
    {
      "inputs": [
        {
          "internalType": "bool",
          "name": "_ignoreSells",
          "type": "bool"
        }
      ],
      "name": "calculateAggregateGamma",
      "outputs": [
        {
          "internalType": "int256",
          "name": "_gamma",
          "type": "int256"
        }
      ],
      "stateMutability": "view",
      "type": "function"
    },
    {
      "inputs": [],
      "name": "calculateSpotGamma",
      "outputs": [
        {
          "internalType": "int256",
          "name": "_gamma",
          "type": "int256"
        }
      ],
      "stateMutability": "view",
      "type": "function"
    },
    {
      "inputs": [],
      "name": "anyOptionExpiring",
      "outputs": [
        {
          "internalType": "bool",
          "name": "_isExpiring",
          "type": "bool"
        }
      ],
      "stateMutability": "view",
      "type": "function"
    },
    {
      "inputs": [
        {
          "internalType": "uint256",
          "name": "_id",
          "type": "uint256"
        }
      ],
      "name": "isExpiring",
      "outputs": [
        {
          "internalType": "bool",
          "name": "",
          "type": "bool"
        }
      ],
      "stateMutability": "view",
      "type": "function"
    },
    {
      "inputs": [],
      "name": "getExpiringOptionId",
      "outputs": [
        {
          "internalType": "uint256",
          "name": "_id",
          "type": "uint256"
        }
      ],
      "stateMutability": "view",
      "type": "function"
    },
    {
      "inputs": [
        {
          "internalType": "uint256",
          "name": "_id",
          "type": "uint256"
        },
        {
          "internalType": "address",
          "name": "_holder",
          "type": "address"
        }
      ],
      "name": "stampActiveOption",
      "outputs": [],
      "stateMutability": "nonpayable",
      "type": "function"
    },
    {
      "inputs": [
        {
          "internalType": "uint256",
          "name": "_id",
          "type": "uint256"
        }
      ],
      "name": "stampExpiredOption",
      "outputs": [],
      "stateMutability": "nonpayable",
      "type": "function"
    },
    {
      "inputs": [
        {
          "internalType": "uint256",
          "name": "_tenor",
          "type": "uint256"
        }
      ],
      "name": "queryVol",
      "outputs": [
        {
          "internalType": "uint256",
          "name": "",
          "type": "uint256"
        }
      ],
      "stateMutability": "view",
      "type": "function"
    },
    {
      "inputs": [],
      "name": "queryPrice",
      "outputs": [
        {
          "internalType": "uint256",
          "name": "",
          "type": "uint256"
        },
        {
          "internalType": "uint256",
          "name": "",
          "type": "uint256"
        }
      ],
      "stateMutability": "view",
      "type": "function"
    }
  ],
  "bytecode": "0x608060405260006002553480156200001657600080fd5b506040516200452d3803806200452d83398181016040528101906200003c9190620002ae565b620000516000801b33620000cb60201b60201c565b620000837f28d62fc77014de57a1bbaa8212ff0979fa61ab00d377b4b8d9762048fb41996133620000cb60201b60201c565b80600660006101000a81548173ffffffffffffffffffffffffffffffffffffffff021916908373ffffffffffffffffffffffffffffffffffffffff16021790555050620002e0565b620000dd8282620000e160201b60201c565b5050565b620000f38282620001d260201b60201c565b620001ce57600160008084815260200190815260200160002060000160008373ffffffffffffffffffffffffffffffffffffffff1673ffffffffffffffffffffffffffffffffffffffff16815260200190815260200160002060006101000a81548160ff021916908315150217905550620001736200023c60201b60201c565b73ffffffffffffffffffffffffffffffffffffffff168173ffffffffffffffffffffffffffffffffffffffff16837f2f8788117e7eff1d82e926ec794901d17c78024a50270940304540a733656f0d60405160405180910390a45b5050565b600080600084815260200190815260200160002060000160008373ffffffffffffffffffffffffffffffffffffffff1673ffffffffffffffffffffffffffffffffffffffff16815260200190815260200160002060009054906101000a900460ff16905092915050565b600033905090565b600080fd5b600073ffffffffffffffffffffffffffffffffffffffff82169050919050565b6000620002768262000249565b9050919050565b620002888162000269565b81146200029457600080fd5b50565b600081519050620002a8816200027d565b92915050565b600060208284031215620002c757620002c662000244565b5b6000620002d78482850162000297565b91505092915050565b61423d80620002f06000396000f3fe608060405234801561001057600080fd5b50600436106101f05760003560e01c806385dcee931161010f578063b0667cf8116100a2578063cfc2dc2011610071578063cfc2dc201461066c578063d547741f1461069c578063ea3d612d146106b8578063f8a35181146106e8576101f0565b8063b0667cf8146105bd578063b1cbbfb7146105dc578063b5310ff91461060c578063c7da75051461063c576101f0565b806391d14854116100de57806391d14854146105215780639bc67cd214610551578063a217fddf1461056f578063a42b66261461058d576101f0565b806385dcee93146104855780638a0687d2146104a35780638cbb0cd0146104d357806390618ed914610503576101f0565b806337f0882f11610187578063637baf6011610156578063637baf60146103e85780637652e7c41461040457806376df2d081461042257806385ae10e614610454576101f0565b806337f0882f146103395780633b7345011461036a5780633b7745ab1461038857806346047a66146103b8576101f0565b8063248a9ca3116101c3578063248a9ca3146102b557806324b4110e146102e55780632f2ff15d1461030157806336568abe1461031d576101f0565b806301ffc9a7146101f5578063105df856146102255780631a7985ba146102555780631ce5e9a614610285575b600080fd5b61020f600480360381019061020a9190613049565b610706565b60405161021c9190613091565b60405180910390f35b61023f600480360381019061023a919061310e565b610780565b60405161024c919061315d565b60405180910390f35b61026f600480360381019061026a9190613178565b6107fe565b60405161027c91906131e6565b60405180910390f35b61029f600480360381019061029a9190613178565b61083e565b6040516102ac9190613470565b60405180910390f35b6102cf60048036038101906102ca91906134c2565b6109eb565b6040516102dc91906134fe565b60405180910390f35b6102ff60048036038101906102fa9190613545565b610a0a565b005b61031b60048036038101906103169190613585565b610b53565b005b61033760048036038101906103329190613585565b610b7c565b005b610353600480360381019061034e91906135c5565b610bff565b60405161036192919061360b565b60405180910390f35b610372610d02565b60405161037f91906134fe565b60405180910390f35b6103a2600480360381019061039d91906135c5565b610d26565b6040516103af919061315d565b60405180910390f35b6103d260048036038101906103cd9190613178565b610d7e565b6040516103df919061315d565b60405180910390f35b61040260048036038101906103fd9190613178565b610d9e565b005b61040c610ecb565b604051610419919061315d565b60405180910390f35b61043c6004803603810190610437919061367e565b610f33565b60405161044b939291906136f9565b60405180910390f35b61046e60048036038101906104699190613178565b61114e565b60405161047c929190613730565b60405180910390f35b61048d6113e0565b60405161049a91906134fe565b60405180910390f35b6104bd60048036038101906104b89190613545565b6114b2565b6040516104ca9190613470565b60405180910390f35b6104ed60048036038101906104e89190613759565b6116b0565b6040516104fa91906137ac565b60405180910390f35b61050b611a8e565b6040516105189190613091565b60405180910390f35b61053b60048036038101906105369190613585565b611ae4565b6040516105489190613091565b60405180910390f35b610559611b4e565b60405161056691906137ac565b60405180910390f35b610577611d88565b60405161058491906134fe565b60405180910390f35b6105a760048036038101906105a291906137c7565b611d8f565b6040516105b4919061315d565b60405180910390f35b6105c5611ddf565b6040516105d3929190613730565b60405180910390f35b6105f660048036038101906105f19190613759565b611e89565b60405161060391906137ac565b60405180910390f35b610626600480360381019061062191906137f4565b6121cb565b604051610633919061315d565b60405180910390f35b61065660048036038101906106519190613178565b612452565b6040516106639190613091565b60405180910390f35b61068660048036038101906106819190613178565b6124c8565b604051610693919061315d565b60405180910390f35b6106b660048036038101906106b19190613585565b61257c565b005b6106d260048036038101906106cd91906135c5565b6125a5565b6040516106df91906137ac565b60405180910390f35b6106f06126a7565b6040516106fd919061315d565b60405180910390f35b60007f7965db0b000000000000000000000000000000000000000000000000000000007bffffffffffffffffffffffffffffffffffffffffffffffffffffffff1916827bffffffffffffffffffffffffffffffffffffffffffffffffffffffff191614806107795750610778826126ad565b5b9050919050565b6000600160008481526020019081526020016000206007015490506001808111156107ae576107ad613201565b5b6001600085815260200190815260200160002060000160019054906101000a900460ff1660018111156107e4576107e3613201565b5b1480156107ee5750815b156107f857600090505b92915050565b60006001600083815260200190815260200160002060000160039054906101000a900473ffffffffffffffffffffffffffffffffffffffff169050919050565b610846612f14565b60016000838152602001908152602001600020604051806102000160405290816000820160009054906101000a900460ff16600181111561088a57610889613201565b5b600181111561089c5761089b613201565b5b81526020016000820160019054906101000a900460ff1660018111156108c5576108c4613201565b5b60018111156108d7576108d6613201565b5b81526020016000820160029054906101000a900460ff166003811115610900576108ff613201565b5b600381111561091257610911613201565b5b81526020016000820160039054906101000a900473ffffffffffffffffffffffffffffffffffffffff1673ffffffffffffffffffffffffffffffffffffffff1673ffffffffffffffffffffffffffffffffffffffff168152602001600182015481526020016002820154815260200160038201548152602001600482015481526020016005820154815260200160068201548152602001600782015481526020016008820154815260200160098201548152602001600a8201548152602001600b8201548152602001600c820154815250509050919050565b6000806000838152602001908152602001600020600101549050919050565b7f28d62fc77014de57a1bbaa8212ff0979fa61ab00d377b4b8d9762048fb419961610a3c81610a37612717565b61271f565b42600160008581526020019081526020016000206003018190555060016000848152602001908152602001600020600401546001600085815260200190815260200160002060030154610a8f9190613902565b6001600085815260200190815260200160002060050181905550600180600085815260200190815260200160002060000160026101000a81548160ff02191690836003811115610ae257610ae1613201565b5b0217905550610b3883600360008573ffffffffffffffffffffffffffffffffffffffff1673ffffffffffffffffffffffffffffffffffffffff1681526020019081526020016000206127bc90919063ffffffff16565b50610b4d8360046127bc90919063ffffffff16565b50505050565b610b5c826109eb565b610b6d81610b68612717565b61271f565b610b7783836127d6565b505050565b610b84612717565b73ffffffffffffffffffffffffffffffffffffffff168173ffffffffffffffffffffffffffffffffffffffff1614610bf1576040517f08c379a0000000000000000000000000000000000000000000000000000000008152600401610be8906139db565b60405180910390fd5b610bfb82826128b6565b5050565b600080600660009054906101000a900473ffffffffffffffffffffffffffffffffffffffff1673ffffffffffffffffffffffffffffffffffffffff1663b0667cf86040518163ffffffff1660e01b8152600401604080518083038186803b158015610c6957600080fd5b505afa158015610c7d573d6000803e3d6000fd5b505050506040513d601f19601f82011682018060405250810190610ca19190613a10565b50809150506000915060005b610cb76004612997565b811015610cfc57610cdc610cd58260046129ac90919063ffffffff16565b83866116b0565b83610ce79190613a50565b92508080610cf490613ae4565b915050610cad565b50915091565b7f28d62fc77014de57a1bbaa8212ff0979fa61ab00d377b4b8d9762048fb41996181565b6000805b610d346004612997565b811015610d7857610d58610d528260046129ac90919063ffffffff16565b84610780565b82610d639190613902565b91508080610d7090613ae4565b915050610d2a565b50919050565b600060016000838152602001908152602001600020600b01549050919050565b7f28d62fc77014de57a1bbaa8212ff0979fa61ab00d377b4b8d9762048fb419961610dd081610dcb612717565b61271f565b42600160008481526020019081526020016000206006018190555060036001600084815260200190815260200160002060000160026101000a81548160ff02191690836003811115610e2557610e24613201565b5b0217905550610eb182600360006001600087815260200190815260200160002060000160039054906101000a900473ffffffffffffffffffffffffffffffffffffffff1673ffffffffffffffffffffffffffffffffffffffff1673ffffffffffffffffffffffffffffffffffffffff1681526020019081526020016000206129c690919063ffffffff16565b50610ec68260046129c690919063ffffffff16565b505050565b6000805b610ed96004612997565b811015610f2f57610efc610ef78260046129ac90919063ffffffff16565b612452565b15610f1c57610f158160046129ac90919063ffffffff16565b9150610f2f565b8080610f2790613ae4565b915050610ecf565b5090565b6000806000600660009054906101000a900473ffffffffffffffffffffffffffffffffffffffff1673ffffffffffffffffffffffffffffffffffffffff1663b0667cf86040518163ffffffff1660e01b8152600401604080518083038186803b158015610f9f57600080fd5b505afa158015610fb3573d6000803e3d6000fd5b505050506040513d601f19601f82011682018060405250810190610fd79190613a10565b508091505073__OptionLibrary_________________________6324f6434582888b898c6040518663ffffffff1660e01b815260040161101b959493929190613b4b565b60206040518083038186803b15801561103357600080fd5b505af4158015611047573d6000803e3d6000fd5b505050506040513d601f19601f8201168201806040525081019061106b9190613b9e565b925082915060018081111561108357611082613201565b5b84600181111561109657611095613201565b5b1415611143576000611124888373__OptionLibrary_________________________63fd9b87636040518163ffffffff1660e01b815260040160206040518083038186803b1580156110e757600080fd5b505af41580156110fb573d6000803e3d6000fd5b505050506040513d601f19601f8201168201806040525081019061111f9190613b9e565b6129e0565b90508381101561113357600080fd5b838161113f9190613bcb565b9250505b955095509592505050565b6000806000600660009054906101000a900473ffffffffffffffffffffffffffffffffffffffff1673ffffffffffffffffffffffffffffffffffffffff1663b0667cf86040518163ffffffff1660e01b8152600401604080518083038186803b1580156111ba57600080fd5b505afa1580156111ce573d6000803e3d6000fd5b505050506040513d601f19601f820116820180604052508101906111f29190613a10565b5090506001600085815260200190815260200160002073__OptionLibrary_________________________63a69d3ae09091836040518363ffffffff1660e01b8152600401611242929190613c06565b60206040518083038186803b15801561125a57600080fd5b505af415801561126e573d6000803e3d6000fd5b505050506040513d601f19601f820116820180604052508101906112929190613b9e565b92508291506001808111156112aa576112a9613201565b5b6001600086815260200190815260200160002060000160019054906101000a900460ff1660018111156112e0576112df613201565b5b14156113da5760006001600086815260200190815260200160002073__OptionLibrary_________________________630862958b9091846040518363ffffffff1660e01b8152600401611335929190613c06565b60206040518083038186803b15801561134d57600080fd5b505af4158015611361573d6000803e3d6000fd5b505050506040513d601f19601f820116820180604052508101906113859190613b9e565b9050838110156113ca576040517f08c379a00000000000000000000000000000000000000000000000000000000081526004016113c190613c7b565b60405180910390fd5b83816113d69190613bcb565b9250505b50915091565b6000600660009054906101000a900473ffffffffffffffffffffffffffffffffffffffff1673ffffffffffffffffffffffffffffffffffffffff166398de78976040518163ffffffff1660e01b815260040160006040518083038186803b15801561144a57600080fd5b505afa15801561145e573d6000803e3d6000fd5b505050506040513d6000823e3d601f19601f820116820180604052508101906114879190613e05565b6040516020016114979190613e95565b60405160208183030381529060405280519060200120905090565b6114ba612f14565b6001600061150f85600360008773ffffffffffffffffffffffffffffffffffffffff1673ffffffffffffffffffffffffffffffffffffffff1681526020019081526020016000206129ac90919063ffffffff16565b8152602001908152602001600020604051806102000160405290816000820160009054906101000a900460ff16600181111561154e5761154d613201565b5b60018111156115605761155f613201565b5b81526020016000820160019054906101000a900460ff16600181111561158957611588613201565b5b600181111561159b5761159a613201565b5b81526020016000820160029054906101000a900460ff1660038111156115c4576115c3613201565b5b60038111156115d6576115d5613201565b5b81526020016000820160039054906101000a900473ffffffffffffffffffffffffffffffffffffffff1673ffffffffffffffffffffffffffffffffffffffff1673ffffffffffffffffffffffffffffffffffffffff168152602001600182015481526020016002820154815260200160038201548152602001600482015481526020016005820154815260200160068201548152602001600782015481526020016008820154815260200160098201548152602001600a8201548152602001600b8201548152602001600c82015481525050905092915050565b6000600160038111156116c6576116c5613201565b5b6001600086815260200190815260200160002060000160029054906101000a900460ff1660038111156116fc576116fb613201565b5b14801561171e5750426001600086815260200190815260200160002060050154115b801561177a575081801561177857506001808111156117405761173f613201565b5b6001600086815260200190815260200160002060000160019054906101000a900460ff16600181111561177657611775613201565b5b145b155b15611a87576000600660009054906101000a900473ffffffffffffffffffffffffffffffffffffffff1673ffffffffffffffffffffffffffffffffffffffff1663040b030f6117df600160008981526020019081526020016000206005015442612adc565b60016000898152602001908152602001600020600501546118009190613bcb565b6040518263ffffffff1660e01b815260040161181c919061315d565b60206040518083038186803b15801561183457600080fd5b505afa158015611848573d6000803e3d6000fd5b505050506040513d601f19601f8201168201806040525081019061186c9190613b9e565b90506119aa73__OptionLibrary_________________________6323a00f6586600160008a815260200190815260200160002060090154856040518463ffffffff1660e01b81526004016118c293929190613eac565b60206040518083038186803b1580156118da57600080fd5b505af41580156118ee573d6000803e3d6000fd5b505050506040513d601f19601f820116820180604052508101906119129190613b9e565b600160008881526020019081526020016000206007015473__OptionLibrary_________________________63fd9b87636040518163ffffffff1660e01b815260040160206040518083038186803b15801561196d57600080fd5b505af4158015611981573d6000803e3d6000fd5b505050506040513d601f19601f820116820180604052508101906119a59190613b9e565b6129e0565b91506001808111156119bf576119be613201565b5b6001600087815260200190815260200160002060000160009054906101000a900460ff1660018111156119f5576119f4613201565b5b1415611a2957816001600087815260200190815260200160002060070154611a1c90613ee3565b611a269190613a50565b91505b600180811115611a3c57611a3b613201565b5b6001600087815260200190815260200160002060000160019054906101000a900460ff166001811115611a7257611a71613201565b5b1415611a855781611a8290613ee3565b91505b505b9392505050565b6000805b611a9c6004612997565b811015611ae057611abf611aba8260046129ac90919063ffffffff16565b612452565b15611acd5760019150611ae0565b8080611ad890613ae4565b915050611a92565b5090565b600080600084815260200190815260200160002060000160008373ffffffffffffffffffffffffffffffffffffffff1673ffffffffffffffffffffffffffffffffffffffff16815260200190815260200160002060009054906101000a900460ff16905092915050565b600080600660009054906101000a900473ffffffffffffffffffffffffffffffffffffffff1673ffffffffffffffffffffffffffffffffffffffff1663040b030f620151806040518263ffffffff1660e01b8152600401611baf9190613f71565b60206040518083038186803b158015611bc757600080fd5b505afa158015611bdb573d6000803e3d6000fd5b505050506040513d601f19601f82011682018060405250810190611bff9190613b9e565b905073__OptionLibrary_________________________639932b2be73__OptionLibrary_________________________63fd9b87636040518163ffffffff1660e01b815260040160206040518083038186803b158015611c5f57600080fd5b505af4158015611c73573d6000803e3d6000fd5b505050506040513d601f19601f82011682018060405250810190611c979190613b9e565b73__OptionLibrary_________________________63fd9b87636040518163ffffffff1660e01b815260040160206040518083038186803b158015611cdb57600080fd5b505af4158015611cef573d6000803e3d6000fd5b505050506040513d601f19601f82011682018060405250810190611d139190613b9e565b846040518463ffffffff1660e01b8152600401611d3293929190613eac565b60206040518083038186803b158015611d4a57600080fd5b505af4158015611d5e573d6000803e3d6000fd5b505050506040513d601f19601f82011682018060405250810190611d829190613b9e565b91505090565b6000801b81565b6000611dd8600360008473ffffffffffffffffffffffffffffffffffffffff1673ffffffffffffffffffffffffffffffffffffffff168152602001908152602001600020612997565b9050919050565b600080600660009054906101000a900473ffffffffffffffffffffffffffffffffffffffff1673ffffffffffffffffffffffffffffffffffffffff1663b0667cf86040518163ffffffff1660e01b8152600401604080518083038186803b158015611e4957600080fd5b505afa158015611e5d573d6000803e3d6000fd5b505050506040513d601f19601f82011682018060405250810190611e819190613a10565b915091509091565b600060016003811115611e9f57611e9e613201565b5b6001600086815260200190815260200160002060000160029054906101000a900460ff166003811115611ed557611ed4613201565b5b148015611ef75750426001600086815260200190815260200160002060050154115b8015611f535750818015611f515750600180811115611f1957611f18613201565b5b6001600086815260200190815260200160002060000160019054906101000a900460ff166001811115611f4f57611f4e613201565b5b145b155b156121c4576000600660009054906101000a900473ffffffffffffffffffffffffffffffffffffffff1673ffffffffffffffffffffffffffffffffffffffff1663040b030f426001600089815260200190815260200160002060050154611fba9190613bcb565b6040518263ffffffff1660e01b8152600401611fd6919061315d565b60206040518083038186803b158015611fee57600080fd5b505afa158015612002573d6000803e3d6000fd5b505050506040513d601f19601f820116820180604052508101906120269190613b9e565b905061216473__OptionLibrary_________________________639932b2be86600160008a815260200190815260200160002060090154856040518463ffffffff1660e01b815260040161207c93929190613eac565b60206040518083038186803b15801561209457600080fd5b505af41580156120a8573d6000803e3d6000fd5b505050506040513d601f19601f820116820180604052508101906120cc9190613b9e565b600160008881526020019081526020016000206007015473__OptionLibrary_________________________63fd9b87636040518163ffffffff1660e01b815260040160206040518083038186803b15801561212757600080fd5b505af415801561213b573d6000803e3d6000fd5b505050506040513d601f19601f8201168201806040525081019061215f9190613b9e565b6129e0565b915060018081111561217957612178613201565b5b6001600087815260200190815260200160002060000160019054906101000a900460ff1660018111156121af576121ae613201565b5b14156121c257816121bf90613ee3565b91505b505b9392505050565b60007f28d62fc77014de57a1bbaa8212ff0979fa61ab00d377b4b8d9762048fb4199616121ff816121fa612717565b61271f565b6002600081548092919061221290613ae4565b919050555060025491506040518061020001604052808a600181111561223b5761223a613201565b5b815260200189600181111561225357612252613201565b5b81526020016000600381111561226c5761226b613201565b5b81526020018473ffffffffffffffffffffffffffffffffffffffff168152602001838152602001428152602001600081526020018d815260200160008152602001600081526020018b81526020018681526020018c8152602001858152602001888152602001878152506001600084815260200190815260200160002060008201518160000160006101000a81548160ff0219169083600181111561231457612313613201565b5b021790555060208201518160000160016101000a81548160ff0219169083600181111561234457612343613201565b5b021790555060408201518160000160026101000a81548160ff0219169083600381111561237457612373613201565b5b021790555060608201518160000160036101000a81548173ffffffffffffffffffffffffffffffffffffffff021916908373ffffffffffffffffffffffffffffffffffffffff1602179055506080820151816001015560a0820151816002015560c0820151816003015560e08201518160040155610100820151816005015561012082015181600601556101408201518160070155610160820151816008015561018082015181600901556101a082015181600a01556101c082015181600b01556101e082015181600c0155905050509a9950505050505050505050565b60006001600381111561246857612467613201565b5b6001600084815260200190815260200160002060000160029054906101000a900460ff16600381111561249e5761249d613201565b5b1480156124c1575042600160008481526020019081526020016000206005015411155b9050919050565b6000600660009054906101000a900473ffffffffffffffffffffffffffffffffffffffff1673ffffffffffffffffffffffffffffffffffffffff1663040b030f836040518263ffffffff1660e01b8152600401612525919061315d565b60206040518083038186803b15801561253d57600080fd5b505afa158015612551573d6000803e3d6000fd5b505050506040513d601f19601f820116820180604052508101906125759190613b9e565b9050919050565b612585826109eb565b61259681612591612717565b61271f565b6125a083836128b6565b505050565b600080600660009054906101000a900473ffffffffffffffffffffffffffffffffffffffff1673ffffffffffffffffffffffffffffffffffffffff1663b0667cf86040518163ffffffff1660e01b8152600401604080518083038186803b15801561260f57600080fd5b505afa158015612623573d6000803e3d6000fd5b505050506040513d601f19601f820116820180604052508101906126479190613a10565b5090506000915060005b61265b6004612997565b8110156126a0576126806126798260046129ac90919063ffffffff16565b8386611e89565b8361268b9190613a50565b9250808061269890613ae4565b915050612651565b5050919050565b60025481565b60007f01ffc9a7000000000000000000000000000000000000000000000000000000007bffffffffffffffffffffffffffffffffffffffffffffffffffffffff1916827bffffffffffffffffffffffffffffffffffffffffffffffffffffffff1916149050919050565b600033905090565b6127298282611ae4565b6127b85761274e8173ffffffffffffffffffffffffffffffffffffffff166014612af5565b61275c8360001c6020612af5565b60405160200161276d929190614024565b6040516020818303038152906040526040517f08c379a00000000000000000000000000000000000000000000000000000000081526004016127af9190614097565b60405180910390fd5b5050565b60006127ce836000018360001b612d31565b905092915050565b6127e08282611ae4565b6128b257600160008084815260200190815260200160002060000160008373ffffffffffffffffffffffffffffffffffffffff1673ffffffffffffffffffffffffffffffffffffffff16815260200190815260200160002060006101000a81548160ff021916908315150217905550612857612717565b73ffffffffffffffffffffffffffffffffffffffff168173ffffffffffffffffffffffffffffffffffffffff16837f2f8788117e7eff1d82e926ec794901d17c78024a50270940304540a733656f0d60405160405180910390a45b5050565b6128c08282611ae4565b1561299357600080600084815260200190815260200160002060000160008373ffffffffffffffffffffffffffffffffffffffff1673ffffffffffffffffffffffffffffffffffffffff16815260200190815260200160002060006101000a81548160ff021916908315150217905550612938612717565b73ffffffffffffffffffffffffffffffffffffffff168173ffffffffffffffffffffffffffffffffffffffff16837ff6391f5c32d9c69d2a47ea670b442974b53935d1edc7fd64eb21e047a839171b60405160405180910390a45b5050565b60006129a582600001612da1565b9050919050565b60006129bb8360000183612db2565b60001c905092915050565b60006129d8836000018360001b612ddd565b905092915050565b600080600080198587098587029250828110838203039150506000811415612a1b5760008411612a0f57600080fd5b83820492505050612ad5565b808411612a2757600080fd5b60008486880990508281118203915080830392506000856001877fffffffffffffffffffffffffffffffffffffffffffffffffffffffffffffffff0301169050808604955080840493506001818260000304019050808302841793506000600287600302189050808702600203810290508087026002038102905080870260020381029050808702600203810290508087026002038102905080870260020381029050808502955050505050505b9392505050565b6000818310612aeb5781612aed565b825b905092915050565b606060006002836002612b0891906140b9565b612b129190613902565b67ffffffffffffffff811115612b2b57612b2a613cb6565b5b6040519080825280601f01601f191660200182016040528015612b5d5781602001600182028036833780820191505090505b5090507f300000000000000000000000000000000000000000000000000000000000000081600081518110612b9557612b94614113565b5b60200101907effffffffffffffffffffffffffffffffffffffffffffffffffffffffffffff1916908160001a9053507f780000000000000000000000000000000000000000000000000000000000000081600181518110612bf957612bf8614113565b5b60200101907effffffffffffffffffffffffffffffffffffffffffffffffffffffffffffff1916908160001a90535060006001846002612c3991906140b9565b612c439190613902565b90505b6001811115612ce3577f3031323334353637383961626364656600000000000000000000000000000000600f861660108110612c8557612c84614113565b5b1a60f81b828281518110612c9c57612c9b614113565b5b60200101907effffffffffffffffffffffffffffffffffffffffffffffffffffffffffffff1916908160001a905350600485901c945080612cdc90614142565b9050612c46565b5060008414612d27576040517f08c379a0000000000000000000000000000000000000000000000000000000008152600401612d1e906141b8565b60405180910390fd5b8091505092915050565b6000612d3d8383612ef1565b612d96578260000182908060018154018082558091505060019003906000526020600020016000909190919091505582600001805490508360010160008481526020019081526020016000208190555060019050612d9b565b600090505b92915050565b600081600001805490509050919050565b6000826000018281548110612dca57612dc9614113565b5b9060005260206000200154905092915050565b60008083600101600084815260200190815260200160002054905060008114612ee5576000600182612e0f9190613bcb565b9050600060018660000180549050612e279190613bcb565b9050818114612e96576000866000018281548110612e4857612e47614113565b5b9060005260206000200154905080876000018481548110612e6c57612e6b614113565b5b90600052602060002001819055508387600101600083815260200190815260200160002081905550505b85600001805480612eaa57612ea96141d8565b5b600190038181906000526020600020016000905590558560010160008681526020019081526020016000206000905560019350505050612eeb565b60009150505b92915050565b600080836001016000848152602001908152602001600020541415905092915050565b60405180610200016040528060006001811115612f3457612f33613201565b5b815260200160006001811115612f4d57612f4c613201565b5b815260200160006003811115612f6657612f65613201565b5b8152602001600073ffffffffffffffffffffffffffffffffffffffff1681526020016000815260200160008152602001600081526020016000815260200160008152602001600081526020016000815260200160008152602001600081526020016000815260200160008152602001600081525090565b6000604051905090565b600080fd5b600080fd5b60007fffffffff0000000000000000000000000000000000000000000000000000000082169050919050565b61302681612ff1565b811461303157600080fd5b50565b6000813590506130438161301d565b92915050565b60006020828403121561305f5761305e612fe7565b5b600061306d84828501613034565b91505092915050565b60008115159050919050565b61308b81613076565b82525050565b60006020820190506130a66000830184613082565b92915050565b6000819050919050565b6130bf816130ac565b81146130ca57600080fd5b50565b6000813590506130dc816130b6565b92915050565b6130eb81613076565b81146130f657600080fd5b50565b600081359050613108816130e2565b92915050565b6000806040838503121561312557613124612fe7565b5b6000613133858286016130cd565b9250506020613144858286016130f9565b9150509250929050565b613157816130ac565b82525050565b6000602082019050613172600083018461314e565b92915050565b60006020828403121561318e5761318d612fe7565b5b600061319c848285016130cd565b91505092915050565b600073ffffffffffffffffffffffffffffffffffffffff82169050919050565b60006131d0826131a5565b9050919050565b6131e0816131c5565b82525050565b60006020820190506131fb60008301846131d7565b92915050565b7f4e487b7100000000000000000000000000000000000000000000000000000000600052602160045260246000fd5b6002811061324157613240613201565b5b50565b600081905061325282613230565b919050565b600061326282613244565b9050919050565b61327281613257565b82525050565b6002811061328957613288613201565b5b50565b600081905061329a82613278565b919050565b60006132aa8261328c565b9050919050565b6132ba8161329f565b82525050565b600481106132d1576132d0613201565b5b50565b60008190506132e2826132c0565b919050565b60006132f2826132d4565b9050919050565b613302816132e7565b82525050565b613311816131c5565b82525050565b613320816130ac565b82525050565b6102008201600082015161333d6000850182613269565b50602082015161335060208501826132b1565b50604082015161336360408501826132f9565b5060608201516133766060850182613308565b5060808201516133896080850182613317565b5060a082015161339c60a0850182613317565b5060c08201516133af60c0850182613317565b5060e08201516133c260e0850182613317565b506101008201516133d7610100850182613317565b506101208201516133ec610120850182613317565b50610140820151613401610140850182613317565b50610160820151613416610160850182613317565b5061018082015161342b610180850182613317565b506101a08201516134406101a0850182613317565b506101c08201516134556101c0850182613317565b506101e082015161346a6101e0850182613317565b50505050565b6000610200820190506134866000830184613326565b92915050565b6000819050919050565b61349f8161348c565b81146134aa57600080fd5b50565b6000813590506134bc81613496565b92915050565b6000602082840312156134d8576134d7612fe7565b5b60006134e6848285016134ad565b91505092915050565b6134f88161348c565b82525050565b600060208201905061351360008301846134ef565b92915050565b613522816131c5565b811461352d57600080fd5b50565b60008135905061353f81613519565b92915050565b6000806040838503121561355c5761355b612fe7565b5b600061356a858286016130cd565b925050602061357b85828601613530565b9150509250929050565b6000806040838503121561359c5761359b612fe7565b5b60006135aa858286016134ad565b92505060206135bb85828601613530565b9150509250929050565b6000602082840312156135db576135da612fe7565b5b60006135e9848285016130f9565b91505092915050565b6000819050919050565b613605816135f2565b82525050565b600060408201905061362060008301856135fc565b61362d602083018461314e565b9392505050565b6002811061364157600080fd5b50565b60008135905061365381613634565b92915050565b6002811061366657600080fd5b50565b60008135905061367881613659565b92915050565b600080600080600060a0868803121561369a57613699612fe7565b5b60006136a8888289016130cd565b95505060206136b9888289016130cd565b94505060406136ca888289016130cd565b93505060606136db88828901613644565b92505060806136ec88828901613669565b9150509295509295909350565b600060608201905061370e600083018661314e565b61371b602083018561314e565b613728604083018461314e565b949350505050565b6000604082019050613745600083018561314e565b613752602083018461314e565b9392505050565b60008060006060848603121561377257613771612fe7565b5b6000613780868287016130cd565b9350506020613791868287016130cd565b92505060406137a2868287016130f9565b9150509250925092565b60006020820190506137c160008301846135fc565b92915050565b6000602082840312156137dd576137dc612fe7565b5b60006137eb84828501613530565b91505092915050565b6000806000806000806000806000806101408b8d03121561381857613817612fe7565b5b60006138268d828e016130cd565b9a505060206138378d828e016130cd565b99505060406138488d828e016130cd565b98505060606138598d828e01613644565b975050608061386a8d828e01613669565b96505060a061387b8d828e016130cd565b95505060c061388c8d828e016130cd565b94505060e061389d8d828e016130cd565b9350506101006138af8d828e016130cd565b9250506101206138c18d828e01613530565b9150509295989b9194979a5092959850565b7f4e487b7100000000000000000000000000000000000000000000000000000000600052601160045260246000fd5b600061390d826130ac565b9150613918836130ac565b9250827fffffffffffffffffffffffffffffffffffffffffffffffffffffffffffffffff0382111561394d5761394c6138d3565b5b828201905092915050565b600082825260208201905092915050565b7f416363657373436f6e74726f6c3a2063616e206f6e6c792072656e6f756e636560008201527f20726f6c657320666f722073656c660000000000000000000000000000000000602082015250565b60006139c5602f83613958565b91506139d082613969565b604082019050919050565b600060208201905081810360008301526139f4816139b8565b9050919050565b600081519050613a0a816130b6565b92915050565b60008060408385031215613a2757613a26612fe7565b5b6000613a35858286016139fb565b9250506020613a46858286016139fb565b9150509250929050565b6000613a5b826135f2565b9150613a66836135f2565b9250817f7fffffffffffffffffffffffffffffffffffffffffffffffffffffffffffffff03831360008312151615613aa157613aa06138d3565b5b817f8000000000000000000000000000000000000000000000000000000000000000038312600083121615613ad957613ad86138d3565b5b828201905092915050565b6000613aef826130ac565b91507fffffffffffffffffffffffffffffffffffffffffffffffffffffffffffffffff821415613b2257613b216138d3565b5b600182019050919050565b613b36816130ac565b82525050565b613b4581613257565b82525050565b600060a082019050613b606000830188613b2d565b613b6d6020830187613b2d565b613b7a6040830186613b2d565b613b876060830185613b3c565b613b946080830184613b2d565b9695505050505050565b600060208284031215613bb457613bb3612fe7565b5b6000613bc2848285016139fb565b91505092915050565b6000613bd6826130ac565b9150613be1836130ac565b925082821015613bf457613bf36138d3565b5b828203905092915050565b8082525050565b6000604082019050613c1b6000830185613bff565b613c286020830184613b2d565b9392505050565b7f5061796f666620696e636f72726563742e000000000000000000000000000000600082015250565b6000613c65601183613958565b9150613c7082613c2f565b602082019050919050565b60006020820190508181036000830152613c9481613c58565b9050919050565b600080fd5b600080fd5b6000601f19601f8301169050919050565b7f4e487b7100000000000000000000000000000000000000000000000000000000600052604160045260246000fd5b613cee82613ca5565b810181811067ffffffffffffffff82111715613d0d57613d0c613cb6565b5b80604052505050565b6000613d20612fdd565b9050613d2c8282613ce5565b919050565b600067ffffffffffffffff821115613d4c57613d4b613cb6565b5b613d5582613ca5565b9050602081019050919050565b60005b83811015613d80578082015181840152602081019050613d65565b83811115613d8f576000848401525b50505050565b6000613da8613da384613d31565b613d16565b905082815260208101848484011115613dc457613dc3613ca0565b5b613dcf848285613d62565b509392505050565b600082601f830112613dec57613deb613c9b565b5b8151613dfc848260208601613d95565b91505092915050565b600060208284031215613e1b57613e1a612fe7565b5b600082015167ffffffffffffffff811115613e3957613e38612fec565b5b613e4584828501613dd7565b91505092915050565b600081519050919050565b600081905092915050565b6000613e6f82613e4e565b613e798185613e59565b9350613e89818560208601613d62565b80840191505092915050565b6000613ea18284613e64565b915081905092915050565b6000606082019050613ec16000830186613b2d565b613ece6020830185613b2d565b613edb6040830184613b2d565b949350505050565b6000613eee826135f2565b91507f8000000000000000000000000000000000000000000000000000000000000000821415613f2157613f206138d3565b5b816000039050919050565b6000819050919050565b6000819050919050565b6000613f5b613f56613f5184613f2c565b613f36565b6130ac565b9050919050565b613f6b81613f40565b82525050565b6000602082019050613f866000830184613f62565b92915050565b7f416363657373436f6e74726f6c3a206163636f756e7420000000000000000000600082015250565b6000613fc2601783613e59565b9150613fcd82613f8c565b601782019050919050565b7f206973206d697373696e6720726f6c6520000000000000000000000000000000600082015250565b600061400e601183613e59565b915061401982613fd8565b601182019050919050565b600061402f82613fb5565b915061403b8285613e64565b915061404682614001565b91506140528284613e64565b91508190509392505050565b600061406982613e4e565b6140738185613958565b9350614083818560208601613d62565b61408c81613ca5565b840191505092915050565b600060208201905081810360008301526140b1818461405e565b905092915050565b60006140c4826130ac565b91506140cf836130ac565b9250817fffffffffffffffffffffffffffffffffffffffffffffffffffffffffffffffff0483118215151615614108576141076138d3565b5b828202905092915050565b7f4e487b7100000000000000000000000000000000000000000000000000000000600052603260045260246000fd5b600061414d826130ac565b91506000821415614161576141606138d3565b5b600182039050919050565b7f537472696e67733a20686578206c656e67746820696e73756666696369656e74600082015250565b60006141a2602083613958565b91506141ad8261416c565b602082019050919050565b600060208201905081810360008301526141d181614195565b9050919050565b7f4e487b7100000000000000000000000000000000000000000000000000000000600052603160045260246000fdfea264697066735822122016a308377eeb07df9a27e693f9fdc9102b8464562e8dd52f2f171c052a783e4b64736f6c63430008090033",
  "immutableReferences": {},
  "source": "/**\n * SPDX-License-Identifier: GPL-3.0-or-later\n * Moret\n * Copyright (C) 2021 Moret\n*/\n\npragma solidity 0.8.9;\nimport \"@openzeppelin/contracts/access/AccessControl.sol\";\nimport \"@openzeppelin/contracts/utils/math/Math.sol\";\nimport \"@openzeppelin/contracts/utils/structs/EnumerableSet.sol\";\nimport \"./MoretInterfaces.sol\";\nimport \"./FullMath.sol\";\n\ncontract OptionVault is AccessControl{\n  using OptionLibrary for OptionLibrary.Option;\n  using EnumerableSet for EnumerableSet.UintSet;\n  // using EnumerableSet for EnumerableSet.AddressSet;\n\n  bytes32 public constant EXCHANGE_ROLE = keccak256(\"EXCHANGE_ROLE\");\n  mapping(uint256=> OptionLibrary.Option) internal optionsList;\n  uint256 public optionCounter = 0;\n  mapping(address=> EnumerableSet.UintSet) internal activeOptionsPerOwner;\n  EnumerableSet.UintSet internal activeOptions;\n  IVolatilityChain internal volatilityChain;\n\n  constructor( address _volChainAddress ){\n    _setupRole(DEFAULT_ADMIN_ROLE, msg.sender);\n    _setupRole(EXCHANGE_ROLE, msg.sender);\n    volatilityChain = IVolatilityChain(_volChainAddress); }\n  \n  function descriptionHash() external view returns (bytes32)  { return keccak256(abi.encodePacked(volatilityChain.getDecription()));}\n\n  function queryOptionCost(uint256 _strike, uint256 _amount, uint256 _vol, OptionLibrary.PayoffType _poType, OptionLibrary.OptionSide _side) external view returns(uint256 _premium, uint256 _cost, uint256 _price) {\n    (_price,) = volatilityChain.queryPrice();\n    _premium = OptionLibrary.calcPremium(_price, _vol, _strike, _poType, _amount);\n    _cost = _premium;\n    if(_side == OptionLibrary.OptionSide.Sell){\n      uint256 _notional = MulDiv(_amount, _price, OptionLibrary.Multiplier());\n      require(_notional>= _premium);\n      _cost = _notional - _premium;}}\n\n  function addOption(uint256 _tenor, uint256 _strike, uint256 _amount, OptionLibrary.PayoffType _poType, OptionLibrary.OptionSide _side, uint256 _premium, uint256 _cost, uint256 _price, uint256 _volatility, address _holder) external onlyRole(EXCHANGE_ROLE) returns(uint256 _id) {\n    optionCounter++;\n    _id = optionCounter;\n    optionsList[_id] = OptionLibrary.Option(_poType, _side, OptionLibrary.OptionStatus.Draft, _holder, _id, block.timestamp,  0, _tenor, 0,  0, _amount, _price, _strike, _volatility, _premium, _cost);}\n\n  function getOptionHolder(uint256 _id) external view returns(address) { return optionsList[_id].holder;}\n  function getHoldersOptionCount(address _address) external view returns(uint256){return activeOptionsPerOwner[_address].length();}\n  function getHoldersOption(uint256 _index, address _address) external view returns(OptionLibrary.Option memory) {return optionsList[activeOptionsPerOwner[_address].at(_index)];}\n  function getOption(uint256 _id) external view returns(OptionLibrary.Option memory) {return optionsList[_id];}\n\n  function queryOptionPremium(uint256 _id) external view returns(uint256) {return optionsList[_id].premium;}\n\n  function queryOptionNotional(uint256 _id, bool _ignoreSells) public view returns(uint256 _notional){\n    _notional=optionsList[_id].amount;\n    if(optionsList[_id].side==OptionLibrary.OptionSide.Sell && _ignoreSells){_notional=0;}}\n  \n  function getAggregateNotional(bool _ignoreSells) external view returns(uint256 _notional) {\n    _notional= 0;\n    for(uint256 i=0;i<activeOptions.length();i++){\n      _notional += queryOptionNotional(uint256(activeOptions.at(i)), _ignoreSells);} }\n\n  function getContractPayoff(uint256 _id) external view returns(uint256 _payoff, uint256 _payback){\n    (uint256 _price,) = volatilityChain.queryPrice();\n    _payoff = optionsList[_id].calcPayoff(_price);\n    _payback = _payoff;\n    if(optionsList[_id].side == OptionLibrary.OptionSide.Sell){ \n      uint256 _notional = optionsList[_id].calcNotionalExposure(_price);\n      require(_notional >= _payoff, \"Payoff incorrect.\");\n      _payback = _notional - _payoff;}}\n\n  function calculateContractDelta(uint256 _id, uint256 _price, bool _ignoreSells) public view returns(int256 _delta){\n    _delta = 0;\n    if(optionsList[_id].status== OptionLibrary.OptionStatus.Active && (optionsList[_id].maturity > block.timestamp) && !(_ignoreSells && optionsList[_id].side==OptionLibrary.OptionSide.Sell)){\n      uint256 _vol = volatilityChain.getVol(optionsList[_id].maturity - Math.min(optionsList[_id].maturity, block.timestamp));\n      _delta = int256(MulDiv(OptionLibrary.calcDelta(_price, optionsList[_id].strike, _vol), optionsList[_id].amount, OptionLibrary.Multiplier() ));\n      if(optionsList[_id].poType==OptionLibrary.PayoffType.Put) {_delta = -int256(optionsList[_id].amount) + _delta; }\n      if(optionsList[_id].side==OptionLibrary.OptionSide.Sell){ _delta = -_delta;}}}\n    \n  function calculateAggregateDelta(bool _ignoreSells) external view returns(int256 _delta, uint256 _price){\n    (_price,) = volatilityChain.queryPrice();\n    _delta= 0;\n    for(uint256 i=0;i<activeOptions.length();i++){\n      _delta += calculateContractDelta(uint256(activeOptions.at(i)),_price, _ignoreSells);}}\n\n  function calculateContractGamma(uint256 _id, uint256 _price, bool _ignoreSells) public view returns(int256 _gamma){\n    _gamma = 0;\n    if(optionsList[_id].status== OptionLibrary.OptionStatus.Active  && (optionsList[_id].maturity > block.timestamp) && !(_ignoreSells && optionsList[_id].side==OptionLibrary.OptionSide.Sell)){\n      uint256 _vol = volatilityChain.getVol(optionsList[_id].maturity - block.timestamp);\n      _gamma = int256(MulDiv(OptionLibrary.calcGamma(_price, optionsList[_id].strike, _vol), optionsList[_id].amount, OptionLibrary.Multiplier() ));\n      if(optionsList[_id].side==OptionLibrary.OptionSide.Sell){ _gamma = -_gamma;}}}\n      \n  function calculateAggregateGamma(bool _ignoreSells) external view returns(int256 _gamma){\n    (uint256 _price,) = volatilityChain.queryPrice();\n    _gamma= 0;\n    for(uint256 i=0;i<activeOptions.length();i++){\n      _gamma += calculateContractGamma(uint256(activeOptions.at(i)),_price, _ignoreSells);}}\n\n  function calculateSpotGamma() external view returns(int256 _gamma){\n    uint256 _vol = volatilityChain.getVol(86400);\n    _gamma = int256(OptionLibrary.calcGamma(OptionLibrary.Multiplier(), OptionLibrary.Multiplier(), _vol));}\n    \n  // function validateOption(uint256 _id, address _holder) external view {\n  //   require(optionsList[_id].holder== _holder, \"Not the owner.\");\n  //   require(optionsList[_id].maturity >= block.timestamp, \"Option has expired.\");\n  //   require(optionsList[_id].status==OptionLibrary.OptionStatus.Active, \"Not active option.\");}\n\n  function anyOptionExpiring() external view returns(bool _isExpiring) {\n    _isExpiring = false;\n    for(uint256 i=0;i<activeOptions.length();i++){\n      if(isExpiring(uint256(activeOptions.at(i)))){\n        _isExpiring = true;\n        break;}}}\n\n  function isExpiring(uint256 _id) public view returns (bool){ return (optionsList[_id].status== OptionLibrary.OptionStatus.Active) && (optionsList[_id].maturity <= block.timestamp);}\n\n  function getExpiringOptionId() external view returns(uint256 _id){\n    _id = 0;\n    for(uint256 i=0;i<activeOptions.length();i++){\n      if(isExpiring(uint256(activeOptions.at(i)))){\n        _id = uint256(activeOptions.at(i));\n        break;}}\n  }\n\n  function stampActiveOption(uint256 _id, address _holder) external onlyRole(EXCHANGE_ROLE) {\n    optionsList[_id].effectiveTime = block.timestamp;\n    optionsList[_id].maturity = optionsList[_id].effectiveTime + optionsList[_id].tenor;\n    optionsList[_id].status = OptionLibrary.OptionStatus.Active;\n    activeOptionsPerOwner[_holder].add(_id);\n    activeOptions.add(_id);}\n\n  // function stampExercisedOption(uint256 _id) external onlyRole(EXCHANGE_ROLE){\n  //     optionsList[_id].exerciseTime = block.timestamp;\n  //     optionsList[_id].status = OptionLibrary.OptionStatus.Exercised;}\n\n  function stampExpiredOption(uint256 _id)  external onlyRole(EXCHANGE_ROLE){\n    optionsList[_id].exerciseTime = block.timestamp;\n    optionsList[_id].status = OptionLibrary.OptionStatus.Expired;\n    activeOptionsPerOwner[optionsList[_id].holder].remove(_id);\n    activeOptions.remove(_id);}\n\n  \n  function queryVol(uint256 _tenor) external view returns(uint256){return volatilityChain.getVol(_tenor);}\n  function queryPrice() external view returns(uint256, uint256){return volatilityChain.queryPrice();}\n  // function priceDecimals() external view returns(uint256) {return volatilityChain.getPriceDecimals();}\n}\n",
  "sourcePath": "/Users/apple/Documents/GitHub/moret/contracts/OptionVault.sol",
  "compiler": {
    "name": "solc",
    "version": "0.8.9+commit.e5eed63a.Emscripten.clang"
  },
  "schemaVersion": "3.4.3",
  "updatedAt": "2021-11-18T23:50:02.194Z",
  "devdoc": {
    "kind": "dev",
    "methods": {
      "getRoleAdmin(bytes32)": {
        "details": "Returns the admin role that controls `role`. See {grantRole} and {revokeRole}. To change a role's admin, use {_setRoleAdmin}."
      },
      "grantRole(bytes32,address)": {
        "details": "Grants `role` to `account`. If `account` had not been already granted `role`, emits a {RoleGranted} event. Requirements: - the caller must have ``role``'s admin role."
      },
      "hasRole(bytes32,address)": {
        "details": "Returns `true` if `account` has been granted `role`."
      },
      "renounceRole(bytes32,address)": {
        "details": "Revokes `role` from the calling account. Roles are often managed via {grantRole} and {revokeRole}: this function's purpose is to provide a mechanism for accounts to lose their privileges if they are compromised (such as when a trusted device is misplaced). If the calling account had been granted `role`, emits a {RoleRevoked} event. Requirements: - the caller must be `account`."
      },
      "revokeRole(bytes32,address)": {
        "details": "Revokes `role` from `account`. If `account` had been granted `role`, emits a {RoleRevoked} event. Requirements: - the caller must have ``role``'s admin role."
      },
      "supportsInterface(bytes4)": {
        "details": "See {IERC165-supportsInterface}."
      }
    },
    "version": 1
  },
  "userdoc": {
    "kind": "user",
    "methods": {},
    "version": 1
  }
}