{
  "contractName": "OptionLibrary",
  "abi": [
    {
      "inputs": [],
      "name": "DefaultDecimals",
      "outputs": [
        {
          "internalType": "uint256",
          "name": "",
          "type": "uint256"
        }
      ],
      "stateMutability": "view",
      "type": "function"
    },
    {
      "inputs": [],
      "name": "DefaultMultiplier",
      "outputs": [
        {
          "internalType": "uint256",
          "name": "",
          "type": "uint256"
        }
      ],
      "stateMutability": "view",
      "type": "function"
    },
    {
      "inputs": [],
      "name": "Multiplier",
      "outputs": [
        {
          "internalType": "uint256",
          "name": "",
          "type": "uint256"
        }
      ],
      "stateMutability": "pure",
      "type": "function"
    },
    {
      "inputs": [],
      "name": "Decimals",
      "outputs": [
        {
          "internalType": "uint256",
          "name": "",
          "type": "uint256"
        }
      ],
      "stateMutability": "pure",
      "type": "function"
    },
    {
      "inputs": [
        {
          "internalType": "uint256",
          "name": "_rawData",
          "type": "uint256"
        },
        {
          "internalType": "uint256",
          "name": "_rawDataDecimals",
          "type": "uint256"
        }
      ],
      "name": "ToDefaultDecimals",
      "outputs": [
        {
          "internalType": "uint256",
          "name": "",
          "type": "uint256"
        }
      ],
      "stateMutability": "pure",
      "type": "function"
    },
    {
      "inputs": [
        {
          "internalType": "uint256",
          "name": "_rawData",
          "type": "uint256"
        },
        {
          "internalType": "uint256",
          "name": "_rawDataDecimals",
          "type": "uint256"
        }
      ],
      "name": "ToCustomDecimals",
      "outputs": [
        {
          "internalType": "uint256",
          "name": "",
          "type": "uint256"
        }
      ],
      "stateMutability": "pure",
      "type": "function"
    },
    {
      "inputs": [
        {
          "internalType": "uint256",
          "name": "_price",
          "type": "uint256"
        },
        {
          "internalType": "uint256",
          "name": "_volatility",
          "type": "uint256"
        },
        {
          "internalType": "uint256",
          "name": "_strike",
          "type": "uint256"
        },
        {
          "internalType": "enum OptionLibrary.PayoffType",
          "name": "_poType",
          "type": "OptionLibrary.PayoffType"
        },
        {
          "internalType": "uint256",
          "name": "_amount",
          "type": "uint256"
        }
      ],
      "name": "calcPremium",
      "outputs": [
        {
          "internalType": "uint256",
          "name": "",
          "type": "uint256"
        }
      ],
      "stateMutability": "pure",
      "type": "function"
    },
    {
      "inputs": [
        {
          "internalType": "uint256",
          "name": "_price",
          "type": "uint256"
        },
        {
          "internalType": "uint256",
          "name": "_strike",
          "type": "uint256"
        },
        {
          "internalType": "uint256",
          "name": "_amount",
          "type": "uint256"
        },
        {
          "internalType": "uint256",
          "name": "_vol",
          "type": "uint256"
        },
        {
          "internalType": "enum OptionLibrary.PayoffType",
          "name": "_poType",
          "type": "OptionLibrary.PayoffType"
        },
        {
          "internalType": "enum OptionLibrary.OptionSide",
          "name": "_side",
          "type": "OptionLibrary.OptionSide"
        }
      ],
      "name": "calcOptionCost",
      "outputs": [
        {
          "internalType": "uint256",
          "name": "_premium",
          "type": "uint256"
        },
        {
          "internalType": "uint256",
          "name": "_cost",
          "type": "uint256"
        }
      ],
      "stateMutability": "pure",
      "type": "function"
    },
    {
      "inputs": [
        {
          "internalType": "uint256",
          "name": "_price",
          "type": "uint256"
        },
        {
          "internalType": "uint256",
          "name": "_strike",
          "type": "uint256"
        },
        {
          "internalType": "uint256",
          "name": "_vol",
          "type": "uint256"
        }
      ],
      "name": "calcDelta",
      "outputs": [
        {
          "internalType": "uint256",
          "name": "_delta",
          "type": "uint256"
        }
      ],
      "stateMutability": "pure",
      "type": "function"
    },
    {
      "inputs": [
        {
          "internalType": "uint256",
          "name": "_price",
          "type": "uint256"
        },
        {
          "internalType": "uint256",
          "name": "_strike",
          "type": "uint256"
        },
        {
          "internalType": "uint256",
          "name": "_vol",
          "type": "uint256"
        }
      ],
      "name": "calcGamma",
      "outputs": [
        {
          "internalType": "uint256",
          "name": "_gamma",
          "type": "uint256"
        }
      ],
      "stateMutability": "pure",
      "type": "function"
    },
    {
      "inputs": [
        {
          "internalType": "uint256",
          "name": "_strike",
          "type": "uint256"
        },
        {
          "internalType": "enum OptionLibrary.PayoffType",
          "name": "_poType",
          "type": "OptionLibrary.PayoffType"
        },
        {
          "internalType": "enum OptionLibrary.OptionSide",
          "name": "_side",
          "type": "OptionLibrary.OptionSide"
        },
        {
          "internalType": "uint256",
          "name": "_slippage",
          "type": "uint256"
        },
        {
          "internalType": "uint256",
          "name": "_loanInterest",
          "type": "uint256"
        }
      ],
      "name": "adjustStrike",
      "outputs": [
        {
          "internalType": "uint256",
          "name": "_adjustedStrike",
          "type": "uint256"
        }
      ],
      "stateMutability": "pure",
      "type": "function"
    },
    {
      "inputs": [
        {
          "internalType": "uint256",
          "name": "_amount",
          "type": "uint256"
        },
        {
          "internalType": "bool",
          "name": "_adjustUpward",
          "type": "bool"
        },
        {
          "internalType": "uint256",
          "name": "_slippage",
          "type": "uint256"
        },
        {
          "internalType": "uint256",
          "name": "_loanInterest",
          "type": "uint256"
        }
      ],
      "name": "adjustSlippage",
      "outputs": [
        {
          "internalType": "uint256",
          "name": "_adjustedAmount",
          "type": "uint256"
        }
      ],
      "stateMutability": "pure",
      "type": "function"
    },
    {
      "inputs": [
        {
          "internalType": "int256",
          "name": "_amount",
          "type": "int256"
        },
        {
          "internalType": "uint256",
          "name": "_price",
          "type": "uint256"
        },
        {
          "internalType": "uint256",
          "name": "_slippage",
          "type": "uint256"
        }
      ],
      "name": "getOpposeTrade",
      "outputs": [
        {
          "internalType": "int256",
          "name": "_oppositeAmount",
          "type": "int256"
        }
      ],
      "stateMutability": "pure",
      "type": "function"
    }
  ],
  "bytecode": "0x613edd610053600b82828239805160001a607314610046577f4e487b7100000000000000000000000000000000000000000000000000000000600052600060045260246000fd5b30600052607381538281f3fe73000000000000000000000000000000000000000030146080604052600436106100ff5760003560e01c806390829f91116100a1578063c6ceb50b11610070578063c6ceb50b14610303578063ca0cc13d14610321578063e9ef55ca14610351578063fd9b87631461036f576100ff565b806390829f91146102425780639932b2be14610273578063a69d3ae0146102a3578063bde840ed146102d3576100ff565b806324f64345116100dd57806324f64345146101945780634ea26ca4146101c4578063508cd14e146101f45780638d2c3b3414610224576100ff565b80630862958b14610104578063092f957a1461013457806323a00f6514610164575b600080fd5b61011e60048036038101906101199190613442565b61038d565b60405161012b9190613491565b60405180910390f35b61014e600480360381019061014991906134ac565b6103ae565b60405161015b9190613491565b60405180910390f35b61017e600480360381019061017991906134ec565b6103ea565b60405161018b9190613491565b60405180910390f35b6101ae60048036038101906101a99190613564565b61049c565b6040516101bb9190613491565b60405180910390f35b6101de60048036038101906101d99190613604565b6104e8565b6040516101eb9190613491565b60405180910390f35b61020e600480360381019061020991906136b7565b6105cd565b60405161021b9190613491565b60405180910390f35b61022c61064d565b6040516102399190613491565b60405180910390f35b61025c6004803603810190610257919061371e565b610659565b60405161026a9291906137ab565b60405180910390f35b61028d600480360381019061028891906134ec565b6106d9565b60405161029a9190613491565b60405180910390f35b6102bd60048036038101906102b89190613442565b6107af565b6040516102ca9190613491565b60405180910390f35b6102ed60048036038101906102e891906134ac565b6107de565b6040516102fa9190613491565b60405180910390f35b61030b61081a565b6040516103189190613491565b60405180910390f35b61033b6004803603810190610336919061380a565b610823565b604051610348919061386c565b60405180910390f35b6103596108a4565b6040516103669190613491565b60405180910390f35b6103776108a9565b6040516103849190613491565b60405180910390f35b60006103a6836007015483670de0b6b3a76400006108b9565b905092915050565b600081601210156103be57600080fd5b8160126103cb91906138b6565b600a6103d79190613a1d565b836103e29190613a97565b905092915050565b60008061040085670de0b6b3a7640000866108b9565b905060006002846104119190613a97565b610438670de0b6b3a764000060026104299190613ac8565b670de0b6b3a7640000876108b9565b610472670de0b6b3a764000060026104509190613ac8565b61046c670de0b6b3a7640000876104679190613ac8565b6109b5565b886108b9565b61047c9190613b22565b6104869190613bb6565b905061049181610b68565b925050509392505050565b6000806104ab85888587611fd3565b905060006104cd6104be878a8a88612085565b89670de0b6b3a76400006108b9565b905080826104db9190613c4a565b9250505095945050505050565b60006104f88660008560006105cd565b905060018081111561050d5761050c613ca0565b5b8560018111156105205761051f613ca0565b5b14801561055157506000600181111561053c5761053b613ca0565b5b84600181111561054f5761054e613ca0565b5b145b806105af57506000600181111561056b5761056a613ca0565b5b85600181111561057e5761057d613ca0565b5b1480156105ae575060018081111561059957610598613ca0565b5b8460018111156105ac576105ab613ca0565b5b145b5b156105c4576105c186600185856105cd565b90505b95945050505050565b6000849050831561060c57610609858385670de0b6b3a76400006105f19190613c4a565b6105fb9190613c4a565b670de0b6b3a76400006108b9565b90505b836106455761064285670de0b6b3a76400008486670de0b6b3a76400006106339190613c4a565b61063d9190613c4a565b6108b9565b90505b949350505050565b670de0b6b3a764000081565b600080610669888689878a61049c565b915081905060018081111561068157610680613ca0565b5b83600181111561069457610693613ca0565b5b14156106ce5760006106af878a670de0b6b3a76400006108b9565b9050828110156106be57600080fd5b82816106ca91906138b6565b9150505b965096945050505050565b6000806106ef85670de0b6b3a7640000866108b9565b905060006002846107009190613a97565b610727670de0b6b3a764000060026107189190613ac8565b670de0b6b3a7640000876108b9565b610761670de0b6b3a7640000600261073f9190613ac8565b61075b670de0b6b3a7640000876107569190613ac8565b6109b5565b886108b9565b61076b9190613b22565b6107759190613bb6565b90506107a4610795610786836121b3565b670de0b6b3a7640000896108b9565b670de0b6b3a7640000866108b9565b925050509392505050565b60006107d683600901548385600701548660000160009054906101000a900460ff16611fd3565b905092915050565b600081601210156107ee57600080fd5b8160126107fb91906138b6565b600a6108079190613a1d565b836108129190613ac8565b905092915050565b60006012905090565b600080841215610834576001610856565b7fffffffffffffffffffffffffffffffffffffffffffffffffffffffffffffffff5b6108916108826000871215610874578661086f90613ccf565b610876565b865b600088138660006105cd565b85670de0b6b3a76400006108b9565b61089b9190613d18565b90509392505050565b601281565b6000670de0b6b3a7640000905090565b6000806000801985870985870292508281108382030391505060008114156108f457600084116108e857600080fd5b838204925050506109ae565b80841161090057600080fd5b60008486880990508281118203915080830392506000856001877fffffffffffffffffffffffffffffffffffffffffffffffffffffffffffffffff0301169050808604955080840493506001818260000304019050808302841793506000600287600302189050808702600203810290508087026002038102905080870260020381029050808702600203810290508087026002038102905080870260020381029050808502955050505050505b9392505050565b6000808214156109c85760009050610b63565b60008290506001915070010000000000000000000000000000000081106109f857608081901c9050604082901b91505b680100000000000000008110610a1757604081901c9050602082901b91505b6401000000008110610a3257602081901c9050601082901b91505b620100008110610a4b57601081901c9050600882901b91505b6101008110610a6357600881901c9050600482901b91505b60108110610a7a57600481901c9050600282901b91505b60088110610a8a57600182901b91505b6001828481610a9c57610a9b613a68565b5b048301901c91506001828481610ab557610ab4613a68565b5b048301901c91506001828481610ace57610acd613a68565b5b048301901c91506001828481610ae757610ae6613a68565b5b048301901c91506001828481610b0057610aff613a68565b5b048301901c91506001828481610b1957610b18613a68565b5b048301901c91506001828481610b3257610b31613a68565b5b048301901c91506000828481610b4b57610b4a613a68565b5b04905080831015610b5c5782610b5e565b805b925050505b919050565b60008060405180610b2001604052807fffffffffffffffffffffffffffffffffffffffffffffffff2fd54b793124000060080b81526020017fffffffffffffffffffffffffffffffffffffffffffffffff3db6022cd888000060080b81526020017fffffffffffffffffffffffffffffffffffffffffffffffff4b96b8e07fec000060080b81526020017fffffffffffffffffffffffffffffffffffffffffffffffff59776f942750000060080b81526020017fffffffffffffffffffffffffffffffffffffffffffffffff67582647ceb4000060080b81526020017fffffffffffffffffffffffffffffffffffffffffffffffff7538dcfb7618000060080b81526020017fffffffffffffffffffffffffffffffffffffffffffffffff831993af1d7c000060080b81526020017fffffffffffffffffffffffffffffffffffffffffffffffff90fa4a62c4e0000060080b81526020017fffffffffffffffffffffffffffffffffffffffffffffffff9edb01166c44000060080b81526020017fffffffffffffffffffffffffffffffffffffffffffffffffacbbb7ca13a8000060080b81526020017fffffffffffffffffffffffffffffffffffffffffffffffffba9c6e7dbb0c000060080b81526020017fffffffffffffffffffffffffffffffffffffffffffffffffc18cc9d78ebe000060080b81526020017fffffffffffffffffffffffffffffffffffffffffffffffffc87d25316270000060080b81526020017fffffffffffffffffffffffffffffffffffffffffffffffffcf6d808b3622000060080b81526020017fffffffffffffffffffffffffffffffffffffffffffffffffd65ddbe509d4000060080b81526020017fffffffffffffffffffffffffffffffffffffffffffffffffd7c1215d675e000060080b81526020017fffffffffffffffffffffffffffffffffffffffffffffffffd92466d5c4e8000060080b81526020017fffffffffffffffffffffffffffffffffffffffffffffffffda87ac4e2272000060080b81526020017fffffffffffffffffffffffffffffffffffffffffffffffffdbeaf1c67ffc000060080b81526020017fffffffffffffffffffffffffffffffffffffffffffffffffdd4e373edd86000060080b81526020017fffffffffffffffffffffffffffffffffffffffffffffffffdeb17cb73b10000060080b81526020017fffffffffffffffffffffffffffffffffffffffffffffffffe014c22f989a000060080b81526020017fffffffffffffffffffffffffffffffffffffffffffffffffe17807a7f624000060080b81526020017fffffffffffffffffffffffffffffffffffffffffffffffffe2db4d2053ae000060080b81526020017fffffffffffffffffffffffffffffffffffffffffffffffffe43e9298b138000060080b81526020017fffffffffffffffffffffffffffffffffffffffffffffffffe5a1d8110ec2000060080b81526020017fffffffffffffffffffffffffffffffffffffffffffffffffe7051d896c4c000060080b81526020017fffffffffffffffffffffffffffffffffffffffffffffffffe8686301c9d6000060080b81526020017fffffffffffffffffffffffffffffffffffffffffffffffffe9cba87a2760000060080b81526020017fffffffffffffffffffffffffffffffffffffffffffffffffeb2eedf284ea000060080b81526020017fffffffffffffffffffffffffffffffffffffffffffffffffec92336ae274000060080b81526020017fffffffffffffffffffffffffffffffffffffffffffffffffedf578e33ffe000060080b81526020017fffffffffffffffffffffffffffffffffffffffffffffffffef58be5b9d88000060080b81526020017ffffffffffffffffffffffffffffffffffffffffffffffffff0bc03d3fb12000060080b81526020017ffffffffffffffffffffffffffffffffffffffffffffffffff21f494c589c000060080b81526020017ffffffffffffffffffffffffffffffffffffffffffffffffff3828ec4b626000060080b81526020017ffffffffffffffffffffffffffffffffffffffffffffffffff4e5d43d13b0000060080b81526020017ffffffffffffffffffffffffffffffffffffffffffffffffff64919b5713a000060080b81526020017ffffffffffffffffffffffffffffffffffffffffffffffffff7ac5f2dcec4000060080b81526020017ffffffffffffffffffffffffffffffffffffffffffffffffff90fa4a62c4e000060080b81526020017ffffffffffffffffffffffffffffffffffffffffffffffffffa72ea1e89d8000060080b81526020017ffffffffffffffffffffffffffffffffffffffffffffffffffbd62f96e762000060080b81526020017ffffffffffffffffffffffffffffffffffffffffffffffffffd39750f44ec000060080b81526020017ffffffffffffffffffffffffffffffffffffffffffffffffffe9cba87a276000060080b8152602001600060080b815260200167016345785d8a000060080b81526020016702c68af0bb14000060080b8152602001670429d069189e000060080b815260200167058d15e17628000060080b81526020016706f05b59d3b2000060080b8152602001670853a0d2313c000060080b81526020016709b6e64a8ec6000060080b8152602001670b1a2bc2ec50000060080b8152602001670c7d713b49da000060080b8152602001670de0b6b3a764000060080b8152602001670f43fc2c04ee000060080b81526020016710a741a46278000060080b815260200167120a871cc002000060080b815260200167136dcc951d8c000060080b81526020016714d1120d7b16000060080b81526020016716345785d8a0000060080b81526020016717979cfe362a000060080b81526020016718fae27693b4000060080b8152602001671a5e27eef13e000060080b8152602001671bc16d674ec8000060080b8152602001671d24b2dfac52000060080b8152602001671e87f85809dc000060080b8152602001671feb3dd06766000060080b815260200167214e8348c4f0000060080b81526020016722b1c8c1227a000060080b81526020016724150e398004000060080b815260200167257853b1dd8e000060080b81526020016726db992a3b18000060080b815260200167283edea298a2000060080b81526020016729a2241af62c000060080b81526020016730927f74c9de000060080b8152602001673782dace9d90000060080b8152602001673e7336287142000060080b8152602001674563918244f4000060080b81526020016753444835ec58000060080b8152602001676124fee993bc000060080b8152602001676f05b59d3b20000060080b8152602001677ce66c50e284000060080b8152602001678ac7230489e8000060080b81526020016798a7d9b8314c000060080b815260200167a688906bd8b0000060080b815260200167b469471f8014000060080b815260200167c249fdd32778000060080b815260200167d02ab486cedc000060080b8152509050600060405180610b200160405280600067ffffffffffffffff1681526020016302ac265467ffffffffffffffff168152602001630ea87f4067ffffffffffffffff168152602001635066183867ffffffffffffffff1681526020016401b8fadbca67ffffffffffffffff168152602001640972bbc11467ffffffffffffffff1681526020016433d28609ff67ffffffffffffffff16815260200165011c3d90be9867ffffffffffffffff168152602001650617061e622b67ffffffffffffffff168152602001652166d7d7e58067ffffffffffffffff16815260200165b72cd961350a67ffffffffffffffff1681526020016601ace0ccb0ffd267ffffffffffffffff1681526020016603ebcac407bfa667ffffffffffffffff16815260200166092b644ed8971c67ffffffffffffffff168152602001661566963940bcf867ffffffffffffffff168152602001661957d7dbe793c467ffffffffffffffff168152602001661e0171808fc27467ffffffffffffffff1681526020016623846cc5efa3ce67ffffffffffffffff168152602001662a077e40df04f467ffffffffffffffff1681526020016631b7e487e8c6a067ffffffffffffffff168152602001663aca5f1113221467ffffffffffffffff16815260200166457c3aeabd4c2867ffffffffffffffff16815260200166521470d9790d5067ffffffffffffffff1681526020016660e4ccd85770fc67ffffffffffffffff16815260200166724b1217ecac5c67ffffffffffffffff1681526020016686b20819b6c83067ffffffffffffffff168152602001669e92552cde3d5467ffffffffffffffff16815260200166ba730044d8b20c67ffffffffffffffff16815260200166dae96810784be067ffffffffffffffff16815260200167010098700b8a077c67ffffffffffffffff16815260200167012c2e976c17d5e067ffffffffffffffff16815260200167015e62a3c6761e6c67ffffffffffffffff168152602001670197ee85e83622c067ffffffffffffffff1681526020016701d98828005076f867ffffffffffffffff168152602001670223d7ef126f75f867ffffffffffffffff1681526020016702776ced5782cd9867ffffffffffffffff1681526020016702d4af13f69d342067ffffffffffffffff16815260200167033bd01fb85ed9e067ffffffffffffffff1681526020016703acbc7c7ede19a067ffffffffffffffff1681526020016704270dd934bc304067ffffffffffffffff1681526020016704aa0180a81000d067ffffffffffffffff168152602001670534749bef40ff6867ffffffffffffffff1681526020016705c4e8260172086067ffffffffffffffff1681526020016706598d804261481067ffffffffffffffff1681526020016706f05b59d3b2000067ffffffffffffffff16815260200167078729336502b7f067ffffffffffffffff16815260200167081bce8da5f1f7a067ffffffffffffffff1681526020016708ac4217b823009867ffffffffffffffff168152602001670936b532ff53ff3067ffffffffffffffff1681526020016709b9a8da72a7cfc067ffffffffffffffff168152602001670a33fa372885e66067ffffffffffffffff168152602001670aa4e693ef05262067ffffffffffffffff168152602001670b0c079fb0c6cbe067ffffffffffffffff168152602001670b6949c64fe1326867ffffffffffffffff168152602001670bbcdec494f48a0867ffffffffffffffff168152602001670c072e8ba713890867ffffffffffffffff168152602001670c48c82dbf2ddd4067ffffffffffffffff168152602001670c82540fe0ede06867ffffffffffffffff168152602001670cb4881c3b4c289067ffffffffffffffff168152602001670ce01e439bd9f9b067ffffffffffffffff168152602001670d05cd4b96ebb35867ffffffffffffffff168152602001670d2643b3628b4f2067ffffffffffffffff168152602001670d42245e7a85c3d867ffffffffffffffff168152602001670d5a04ab8dad364067ffffffffffffffff168152602001670d6e6ba18f77534067ffffffffffffffff168152602001670d7fd1e6cf0c90f867ffffffffffffffff168152602001670d8ea242cdeaf12067ffffffffffffffff168152602001670d9b3a78bca6b3d867ffffffffffffffff168152602001670da5ec549650dbf867ffffffffffffffff168152602001670daefecf1f7b396067ffffffffffffffff168152602001670db6af356684faa867ffffffffffffffff168152602001670dbd3246e1745c0067ffffffffffffffff168152602001670dc2b54226d43d7867ffffffffffffffff168152602001670dc75edbcb7c6e3067ffffffffffffffff168152602001670dcb501d6e23444867ffffffffffffffff168152602001670dd78b4f588b699867ffffffffffffffff168152602001670ddccae8e35c416867ffffffffffffffff168152602001670ddf09d2dab3017067ffffffffffffffff168152602001670ddfff86ce02ccd067ffffffffffffffff168152602001670de0954ccf8c1b6867ffffffffffffffff168152602001670de0b09ca1459db867ffffffffffffffff168152602001670de0b59769d3424067ffffffffffffffff168152602001670de0b67fd4ddf56067ffffffffffffffff168152602001670de0b6aa34a83eb867ffffffffffffffff168152602001670de0b6b1ee69256867ffffffffffffffff168152602001670de0b6b356fde86067ffffffffffffffff168152602001670de0b6b398bb7f6067ffffffffffffffff168152602001670de0b6b3a4b7db6067ffffffffffffffff168152602001670de0b6b3a764000067ffffffffffffffff16815250905060005b84838260598110611dc057611dbf613e2f565b5b602002015160080b128015611dd55750605981105b15611ded578080611de590613e5e565b915050611dac565b81600060598110611e0157611e00613e2f565b5b602002015167ffffffffffffffff1693506059811415611e415781605860598110611e2f57611e2e613e2f565b5b602002015167ffffffffffffffff1693505b600081118015611e515750605981105b15611fcb5782600182611e6491906138b6565b60598110611e7557611e74613e2f565b5b602002015160080b838260598110611e9057611e8f613e2f565b5b602002015160080b611ea29190613b22565b83600183611eb091906138b6565b60598110611ec157611ec0613e2f565b5b602002015160080b86611ed49190613b22565b838360598110611ee757611ee6613e2f565b5b602002015167ffffffffffffffff16611f009190613ac8565b611f0a9190613a97565b83600183611f1891906138b6565b60598110611f2957611f28613e2f565b5b602002015160080b848360598110611f4457611f43613e2f565b5b602002015160080b611f569190613b22565b86858460598110611f6a57611f69613e2f565b5b602002015160080b611f7c9190613b22565b84600185611f8a91906138b6565b60598110611f9b57611f9a613e2f565b5b602002015167ffffffffffffffff16611fb49190613ac8565b611fbe9190613a97565b611fc89190613c4a565b93505b505050919050565b6000806000905060006001811115611fee57611fed613ca0565b5b83600181111561200157612000613ca0565b5b14801561200d57508585115b1561202157858561201e91906138b6565b90505b60018081111561203457612033613ca0565b5b83600181111561204757612046613ca0565b5b14801561205357508585105b1561206757848661206491906138b6565b90505b61207a8185670de0b6b3a76400006108b9565b915050949350505050565b600080831415612097578290506121ab565b60008486116120c45784670de0b6b3a7640000876120b59190613ac8565b6120bf9190613a97565b6120e4565b85670de0b6b3a7640000866120d99190613ac8565b6120e39190613a97565b5b905060006002670de0b6b3a764000086116120ff5785612109565b670de0b6b3a76400005b6121139190613a97565b670de0b6b3a764000061212691906138b6565b9050600081670de0b6b3a764000060026121409190613ac8565b61214a91906138b6565b9050600082670de0b6b3a764000061216291906138b6565b90506121a46004876121749190613ac8565b61218a838a888761218591906138b6565b6108b9565b670de0b6b3a7640000600a61219f9190613ac8565b6108b9565b9450505050505b949350505050565b600080604051806109e001604052807fffffffffffffffffffffffffffffffffffffffffffffffff7538dcfb7618000060080b81526020017fffffffffffffffffffffffffffffffffffffffffffffffff831993af1d7c000060080b81526020017fffffffffffffffffffffffffffffffffffffffffffffffff90fa4a62c4e0000060080b81526020017fffffffffffffffffffffffffffffffffffffffffffffffff9edb01166c44000060080b81526020017fffffffffffffffffffffffffffffffffffffffffffffffffacbbb7ca13a8000060080b81526020017fffffffffffffffffffffffffffffffffffffffffffffffffba9c6e7dbb0c000060080b81526020017fffffffffffffffffffffffffffffffffffffffffffffffffc18cc9d78ebe000060080b81526020017fffffffffffffffffffffffffffffffffffffffffffffffffc87d25316270000060080b81526020017fffffffffffffffffffffffffffffffffffffffffffffffffcf6d808b3622000060080b81526020017fffffffffffffffffffffffffffffffffffffffffffffffffd65ddbe509d4000060080b81526020017fffffffffffffffffffffffffffffffffffffffffffffffffd7c1215d675e000060080b81526020017fffffffffffffffffffffffffffffffffffffffffffffffffd92466d5c4e8000060080b81526020017fffffffffffffffffffffffffffffffffffffffffffffffffda87ac4e2272000060080b81526020017fffffffffffffffffffffffffffffffffffffffffffffffffdbeaf1c67ffc000060080b81526020017fffffffffffffffffffffffffffffffffffffffffffffffffdd4e373edd86000060080b81526020017fffffffffffffffffffffffffffffffffffffffffffffffffdeb17cb73b10000060080b81526020017fffffffffffffffffffffffffffffffffffffffffffffffffe014c22f989a000060080b81526020017fffffffffffffffffffffffffffffffffffffffffffffffffe17807a7f624000060080b81526020017fffffffffffffffffffffffffffffffffffffffffffffffffe2db4d2053ae000060080b81526020017fffffffffffffffffffffffffffffffffffffffffffffffffe43e9298b138000060080b81526020017fffffffffffffffffffffffffffffffffffffffffffffffffe5a1d8110ec2000060080b81526020017fffffffffffffffffffffffffffffffffffffffffffffffffe7051d896c4c000060080b81526020017fffffffffffffffffffffffffffffffffffffffffffffffffe8686301c9d6000060080b81526020017fffffffffffffffffffffffffffffffffffffffffffffffffe9cba87a2760000060080b81526020017fffffffffffffffffffffffffffffffffffffffffffffffffeb2eedf284ea000060080b81526020017fffffffffffffffffffffffffffffffffffffffffffffffffec92336ae274000060080b81526020017fffffffffffffffffffffffffffffffffffffffffffffffffedf578e33ffe000060080b81526020017fffffffffffffffffffffffffffffffffffffffffffffffffef58be5b9d88000060080b81526020017ffffffffffffffffffffffffffffffffffffffffffffffffff0bc03d3fb12000060080b81526020017ffffffffffffffffffffffffffffffffffffffffffffffffff21f494c589c000060080b81526020017ffffffffffffffffffffffffffffffffffffffffffffffffff3828ec4b626000060080b81526020017ffffffffffffffffffffffffffffffffffffffffffffffffff4e5d43d13b0000060080b81526020017ffffffffffffffffffffffffffffffffffffffffffffffffff64919b5713a000060080b81526020017ffffffffffffffffffffffffffffffffffffffffffffffffff7ac5f2dcec4000060080b81526020017ffffffffffffffffffffffffffffffffffffffffffffffffff90fa4a62c4e000060080b81526020017ffffffffffffffffffffffffffffffffffffffffffffffffffa72ea1e89d8000060080b81526020017ffffffffffffffffffffffffffffffffffffffffffffffffffbd62f96e762000060080b81526020017ffffffffffffffffffffffffffffffffffffffffffffffffffd39750f44ec000060080b81526020017ffffffffffffffffffffffffffffffffffffffffffffffffffe9cba87a276000060080b8152602001600060080b815260200167016345785d8a000060080b81526020016702c68af0bb14000060080b8152602001670429d069189e000060080b815260200167058d15e17628000060080b81526020016706f05b59d3b2000060080b8152602001670853a0d2313c000060080b81526020016709b6e64a8ec6000060080b8152602001670b1a2bc2ec50000060080b8152602001670c7d713b49da000060080b8152602001670de0b6b3a764000060080b8152602001670f43fc2c04ee000060080b81526020016710a741a46278000060080b815260200167120a871cc002000060080b815260200167136dcc951d8c000060080b81526020016714d1120d7b16000060080b81526020016716345785d8a0000060080b81526020016717979cfe362a000060080b81526020016718fae27693b4000060080b8152602001671a5e27eef13e000060080b8152602001671bc16d674ec8000060080b8152602001671d24b2dfac52000060080b8152602001671e87f85809dc000060080b8152602001671feb3dd06766000060080b815260200167214e8348c4f0000060080b81526020016722b1c8c1227a000060080b81526020016724150e398004000060080b815260200167257853b1dd8e000060080b81526020016726db992a3b18000060080b815260200167283edea298a2000060080b81526020016729a2241af62c000060080b81526020016730927f74c9de000060080b8152602001673782dace9d90000060080b8152602001673e7336287142000060080b8152602001674563918244f4000060080b81526020016753444835ec58000060080b8152602001676124fee993bc000060080b8152602001676f05b59d3b20000060080b8152602001677ce66c50e284000060080b8152602001678ac7230489e8000060080b81525090506000604051806109e00160405280600067ffffffffffffffff168152602001600167ffffffffffffffff1681526020016113bc67ffffffffffffffff168152602001628b628067ffffffffffffffff16815260200164016a269d6167ffffffffffffffff16815260200165015a2763786e67ffffffffffffffff168152602001650e898135fad967ffffffffffffffff1681526020016579b7c711221567ffffffffffffffff168152602001660319b3460a328067ffffffffffffffff168152602001660fbebe1e4abcda67ffffffffffffffff168152602001661525cbf4650d6a67ffffffffffffffff168152602001661c1f0fafd71f8267ffffffffffffffff168152602001662505c8f5d7564867ffffffffffffffff168152602001663041a3782b3c6067ffffffffffffffff168152602001663e45e57c6f79f467ffffffffffffffff168152602001664f8fb4e722c61467ffffffffffffffff1681526020016664a34a6e2091b067ffffffffffffffff168152602001667e07f44926b76867ffffffffffffffff168152602001669c42d8f65b8fc067ffffffffffffffff16815260200166bfd07f7c193d0467ffffffffffffffff16815260200166e91d3c634adc7867ffffffffffffffff1681526020016701187cc02c7c53f867ffffffffffffffff16815260200167014e21233880a8d867ffffffffffffffff16815260200167018a11e95542410067ffffffffffffffff1681526020016701cc239129d402a067ffffffffffffffff168152602001670213f05632568ce867ffffffffffffffff168152602001670260d2d396ab1a1867ffffffffffffffff1681526020016702b1e3302b9bdfc867ffffffffffffffff168152602001670305f76699921a5867ffffffffffffffff16815260200167035ba7178901e65867ffffffffffffffff1681526020016703b15320002fb3b867ffffffffffffffff16815260200167040530eeb0c78ef867ffffffffffffffff168152602001670455594c4a0b562867ffffffffffffffff16815260200167049fda02c5c94dc067ffffffffffffffff1681526020016704e2c98ca38496e067ffffffffffffffff16815260200167051c5bbdce29af7867ffffffffffffffff16815260200167054af6328e2fcfe067ffffffffffffffff16815260200167056d4342226b390067ffffffffffffffff168152602001670582423d210dbe2067ffffffffffffffff16815260200167058953e3ed3631a867ffffffffffffffff168152602001670582423d210dbe2067ffffffffffffffff16815260200167056d4342226b390067ffffffffffffffff16815260200167054af6328e2fcfe067ffffffffffffffff16815260200167051c5bbdce29af7867ffffffffffffffff1681526020016704e2c98ca38496e067ffffffffffffffff16815260200167049fda02c5c94dc067ffffffffffffffff168152602001670455594c4a0b562867ffffffffffffffff16815260200167040530eeb0c78ef867ffffffffffffffff1681526020016703b15320002fb3b867ffffffffffffffff16815260200167035ba7178901e65867ffffffffffffffff168152602001670305f76699921a5867ffffffffffffffff1681526020016702b1e3302b9bdfc867ffffffffffffffff168152602001670260d2d396ab1a1867ffffffffffffffff168152602001670213f05632568ce867ffffffffffffffff1681526020016701cc239129d402a067ffffffffffffffff16815260200167018a11e95542410067ffffffffffffffff16815260200167014e21233880a8d867ffffffffffffffff1681526020016701187cc02c7c53f867ffffffffffffffff16815260200166e91d3c634adc7867ffffffffffffffff16815260200166bfd07f7c193d0467ffffffffffffffff168152602001669c42d8f65b8fc067ffffffffffffffff168152602001667e07f44926b76867ffffffffffffffff1681526020016664a34a6e2091b067ffffffffffffffff168152602001664f8fb4e722c61467ffffffffffffffff168152602001663e45e57c6f79f467ffffffffffffffff168152602001663041a3782b3c6067ffffffffffffffff168152602001662505c8f5d7564867ffffffffffffffff168152602001661c1f0fafd71f8267ffffffffffffffff168152602001661525cbf4650d6a67ffffffffffffffff168152602001660fbebe1e4abcda67ffffffffffffffff168152602001660319b3460a328067ffffffffffffffff1681526020016579b7c711221567ffffffffffffffff168152602001650e898135fad967ffffffffffffffff16815260200165015a2763786e67ffffffffffffffff16815260200164016a269d6167ffffffffffffffff168152602001628b628067ffffffffffffffff1681526020016113bc67ffffffffffffffff168152602001600167ffffffffffffffff168152602001600067ffffffffffffffff168152509050600080604f9050600094505b858483604f81106131da576131d9613e2f565b5b602002015160080b1280156131ee57508082105b156132065781806131fe90613e5e565b9250506131c6565b8082141561323f578260018361321c91906138b6565b604f811061322d5761322c613e2f565b5b602002015167ffffffffffffffff1694505b60008211801561324e57508082105b156133c8578360018361326191906138b6565b604f811061327257613271613e2f565b5b602002015160080b8483604f811061328d5761328c613e2f565b5b602002015160080b61329f9190613b22565b846001846132ad91906138b6565b604f81106132be576132bd613e2f565b5b602002015160080b876132d19190613b22565b8484604f81106132e4576132e3613e2f565b5b602002015167ffffffffffffffff166132fd9190613ac8565b6133079190613a97565b8460018461331591906138b6565b604f811061332657613325613e2f565b5b602002015160080b8584604f811061334157613340613e2f565b5b602002015160080b6133539190613b22565b878685604f811061336757613366613e2f565b5b602002015160080b6133799190613b22565b8560018661338791906138b6565b604f811061339857613397613e2f565b5b602002015167ffffffffffffffff166133b19190613ac8565b6133bb9190613a97565b6133c59190613c4a565b94505b50505050919050565b600080fd5b6000819050919050565b6133e9816133d6565b81146133f457600080fd5b50565b600081359050613406816133e0565b92915050565b6000819050919050565b61341f8161340c565b811461342a57600080fd5b50565b60008135905061343c81613416565b92915050565b60008060408385031215613459576134586133d1565b5b6000613467858286016133f7565b92505060206134788582860161342d565b9150509250929050565b61348b8161340c565b82525050565b60006020820190506134a66000830184613482565b92915050565b600080604083850312156134c3576134c26133d1565b5b60006134d18582860161342d565b92505060206134e28582860161342d565b9150509250929050565b600080600060608486031215613505576135046133d1565b5b60006135138682870161342d565b93505060206135248682870161342d565b92505060406135358682870161342d565b9150509250925092565b6002811061354c57600080fd5b50565b60008135905061355e8161353f565b92915050565b600080600080600060a086880312156135805761357f6133d1565b5b600061358e8882890161342d565b955050602061359f8882890161342d565b94505060406135b08882890161342d565b93505060606135c18882890161354f565b92505060806135d28882890161342d565b9150509295509295909350565b600281106135ec57600080fd5b50565b6000813590506135fe816135df565b92915050565b600080600080600060a086880312156136205761361f6133d1565b5b600061362e8882890161342d565b955050602061363f8882890161354f565b9450506040613650888289016135ef565b93505060606136618882890161342d565b92505060806136728882890161342d565b9150509295509295909350565b60008115159050919050565b6136948161367f565b811461369f57600080fd5b50565b6000813590506136b18161368b565b92915050565b600080600080608085870312156136d1576136d06133d1565b5b60006136df8782880161342d565b94505060206136f0878288016136a2565b93505060406137018782880161342d565b92505060606137128782880161342d565b91505092959194509250565b60008060008060008060c0878903121561373b5761373a6133d1565b5b600061374989828a0161342d565b965050602061375a89828a0161342d565b955050604061376b89828a0161342d565b945050606061377c89828a0161342d565b935050608061378d89828a0161354f565b92505060a061379e89828a016135ef565b9150509295509295509295565b60006040820190506137c06000830185613482565b6137cd6020830184613482565b9392505050565b6000819050919050565b6137e7816137d4565b81146137f257600080fd5b50565b600081359050613804816137de565b92915050565b600080600060608486031215613823576138226133d1565b5b6000613831868287016137f5565b93505060206138428682870161342d565b92505060406138538682870161342d565b9150509250925092565b613866816137d4565b82525050565b6000602082019050613881600083018461385d565b92915050565b7f4e487b7100000000000000000000000000000000000000000000000000000000600052601160045260246000fd5b60006138c18261340c565b91506138cc8361340c565b9250828210156138df576138de613887565b5b828203905092915050565b60008160011c9050919050565b6000808291508390505b60018511156139415780860481111561391d5761391c613887565b5b600185161561392c5780820291505b808102905061393a856138ea565b9450613901565b94509492505050565b60008261395a5760019050613a16565b816139685760009050613a16565b816001811461397e5760028114613988576139b7565b6001915050613a16565b60ff84111561399a57613999613887565b5b8360020a9150848211156139b1576139b0613887565b5b50613a16565b5060208310610133831016604e8410600b84101617156139ec5782820a9050838111156139e7576139e6613887565b5b613a16565b6139f984848460016138f7565b92509050818404811115613a1057613a0f613887565b5b81810290505b9392505050565b6000613a288261340c565b9150613a338361340c565b9250613a607fffffffffffffffffffffffffffffffffffffffffffffffffffffffffffffffff848461394a565b905092915050565b7f4e487b7100000000000000000000000000000000000000000000000000000000600052601260045260246000fd5b6000613aa28261340c565b9150613aad8361340c565b925082613abd57613abc613a68565b5b828204905092915050565b6000613ad38261340c565b9150613ade8361340c565b9250817fffffffffffffffffffffffffffffffffffffffffffffffffffffffffffffffff0483118215151615613b1757613b16613887565b5b828202905092915050565b6000613b2d826137d4565b9150613b38836137d4565b9250827f800000000000000000000000000000000000000000000000000000000000000001821260008412151615613b7357613b72613887565b5b827f7fffffffffffffffffffffffffffffffffffffffffffffffffffffffffffffff018213600084121615613bab57613baa613887565b5b828203905092915050565b6000613bc1826137d4565b9150613bcc836137d4565b9250817f7fffffffffffffffffffffffffffffffffffffffffffffffffffffffffffffff03831360008312151615613c0757613c06613887565b5b817f8000000000000000000000000000000000000000000000000000000000000000038312600083121615613c3f57613c3e613887565b5b828201905092915050565b6000613c558261340c565b9150613c608361340c565b9250827fffffffffffffffffffffffffffffffffffffffffffffffffffffffffffffffff03821115613c9557613c94613887565b5b828201905092915050565b7f4e487b7100000000000000000000000000000000000000000000000000000000600052602160045260246000fd5b6000613cda826137d4565b91507f8000000000000000000000000000000000000000000000000000000000000000821415613d0d57613d0c613887565b5b816000039050919050565b6000613d23826137d4565b9150613d2e836137d4565b9250827f7fffffffffffffffffffffffffffffffffffffffffffffffffffffffffffffff0482116000841360008413161615613d6d57613d6c613887565b5b817f80000000000000000000000000000000000000000000000000000000000000000583126000841260008413161615613daa57613da9613887565b5b827f80000000000000000000000000000000000000000000000000000000000000000582126000841360008412161615613de757613de6613887565b5b827f7fffffffffffffffffffffffffffffffffffffffffffffffffffffffffffffff0582126000841260008412161615613e2457613e23613887565b5b828202905092915050565b7f4e487b7100000000000000000000000000000000000000000000000000000000600052603260045260246000fd5b6000613e698261340c565b91507fffffffffffffffffffffffffffffffffffffffffffffffffffffffffffffffff821415613e9c57613e9b613887565b5b60018201905091905056fea26469706673582212206f2af73efbd02e3e838f268562ce577a74d72544d9fe6d70e86d89c9f0a426d264736f6c634300080a0033",
  "immutableReferences": {},
  "source": "/**\n * SPDX-License-Identifier: GPL-3.0-or-later\n * Moret\n * Copyright (C) 2021 Moret\n*/\n\npragma solidity 0.8.10;\n\nimport \"./FullMath.sol\";\nimport \"prb-math/contracts/PRBMath.sol\";\n\nlibrary OptionLibrary {\n  using PRBMath for uint256;\n  enum PayoffType { Call, Put}\n  enum OptionSide{ Buy, Sell}\n  enum OptionStatus { Draft, Active, Exercised, Expired}\n  struct Option { PayoffType poType; OptionSide side; OptionStatus status; address holder; uint256 id; uint256 createTime; uint256 effectiveTime; uint256 tenor; uint256 maturity; uint256 exerciseTime; uint256 amount;uint256 spot;uint256 strike;uint256 volatility;uint256 premium;uint256 cost;}\n  struct Percent{ uint256 numerator; uint256 denominator;}\n  uint256 public constant DefaultMultiplier  = 10 ** 18;\n  uint256 public constant DefaultDecimals = 18;\n\n  function Multiplier() public pure returns (uint256){return DefaultMultiplier;}\n  function Decimals() public pure returns (uint256) {return DefaultDecimals;}\n  function ToDefaultDecimals(uint256 _rawData, uint256 _rawDataDecimals) public pure returns(uint256){\n    require(DefaultDecimals >= _rawDataDecimals);\n    return _rawData * (10** (DefaultDecimals - _rawDataDecimals));}\n  function ToCustomDecimals(uint256 _rawData, uint256 _rawDataDecimals) public pure returns(uint256){\n    require(DefaultDecimals >= _rawDataDecimals);\n    return _rawData / (10** (DefaultDecimals - _rawDataDecimals));}\n\n  function calcIntrinsicValue(uint256 _strike, uint256 _price, uint256 _amount, PayoffType _poType) private pure returns(uint256){\n      uint256 _intrinsicValue = 0;\n      if((_poType == PayoffType.Call) && (_price > _strike)){ _intrinsicValue = _price - _strike; }\n      if((_poType == PayoffType.Put) && (_price<_strike)){ _intrinsicValue = _strike - _price;}\n      return MulDiv(_intrinsicValue, _amount, DefaultMultiplier); }\n\n  function calcTimeValue(uint256 _strike, uint256 _price, uint256 _volatility, uint256 _amount) private pure returns (uint256){\n    if(_volatility == 0) return _volatility;\n    uint256 _moneyness = _strike > _price? (_price * DefaultMultiplier / _strike) : (_strike * DefaultMultiplier / _price); // always in (0,1]\n    uint256 _midPoint = DefaultMultiplier - (_volatility > DefaultMultiplier? DefaultMultiplier: _volatility) / 2 ; // always in [0.5, 1]\n    uint256 _a = 2 * DefaultMultiplier - _midPoint; // always in [1, 1.5]\n    uint256 _b = DefaultMultiplier - _midPoint; // always in [0, 0.5]\n    return MulDiv(_amount * 4, MulDiv(_b,  _volatility, _a - _moneyness), 10 * DefaultMultiplier);}\n\n  function calcPremium(uint256 _price, uint256 _volatility, uint256 _strike, PayoffType _poType, uint256 _amount) public pure returns(uint256){\n      uint256 _intrinsicValue = calcIntrinsicValue(_strike, _price, _amount, _poType);\n      uint256 _timeValue = MulDiv(calcTimeValue(_strike, _price, _volatility, _amount), _price, DefaultMultiplier);\n      return _intrinsicValue + _timeValue;}\n\n  function calcOptionCost(uint256 _price, uint256 _strike, uint256 _amount, uint256 _vol, PayoffType _poType, OptionSide _side) external pure returns(uint256 _premium, uint256 _cost) {\n    _premium = calcPremium(_price, _vol, _strike, _poType, _amount);\n    _cost = _premium;\n    if(_side == OptionSide.Sell){\n      uint256 _notional = MulDiv(_amount, _price, DefaultMultiplier);\n      require(_notional>= _premium);\n      _cost = _notional - _premium;}}\n\n  function calcPayoff(Option storage _option, uint256 _price) public view returns(uint256){\n    return calcIntrinsicValue(_option.strike, _price, _option.amount, _option.poType);}\n\n  function calcNotionalExposure(Option storage _option, uint256 _price) public view returns(uint256){ return MulDiv(_option.amount, _price, DefaultMultiplier);}\n\n  function calcDelta(uint256 _price, uint256 _strike, uint256 _vol) public pure returns(uint256 _delta){\n    uint256 _moneyness = MulDiv(_price, DefaultMultiplier, _strike);\n    int256 _d = int256(MulDiv(2 * DefaultMultiplier,  (_moneyness * DefaultMultiplier).sqrt(), _vol)) - int256(MulDiv(2 * DefaultMultiplier,  DefaultMultiplier, _vol)) + int256(_vol/ 2);\n    _delta = Logistic(_d);}\n  \n  function calcGamma(uint256 _price, uint256 _strike, uint256 _vol) public pure returns(uint256 _gamma){\n    uint256 _moneyness = MulDiv(_price, DefaultMultiplier, _strike);\n    int256 _d = int256(MulDiv(2 * DefaultMultiplier,  (_moneyness * DefaultMultiplier).sqrt(), _vol)) - int256(MulDiv(2 * DefaultMultiplier,  DefaultMultiplier, _vol)) + int256(_vol/ 2);\n    _gamma = MulDiv(MulDiv(NormalDensity(_d), DefaultMultiplier, _price), DefaultMultiplier, _vol);}\n\n  function adjustStrike(uint256 _strike, PayoffType _poType, OptionSide _side, uint256 _slippage, uint256 _loanInterest) external pure returns(uint256 _adjustedStrike){\n    _adjustedStrike = adjustSlippage(_strike, false, _slippage, 0); // downward\n    if((_poType==PayoffType.Put && _side == OptionSide.Buy) || (_poType==PayoffType.Call && _side == OptionSide.Sell)){ \n      _adjustedStrike = adjustSlippage(_strike,true, _slippage, _loanInterest);} //upward\n  }\n\n  function adjustSlippage(uint256 _amount, bool _adjustUpward, uint256 _slippage, uint256 _loanInterest) public pure returns (uint256 _adjustedAmount){\n    _adjustedAmount = _amount;\n    if(_adjustUpward) _adjustedAmount = MulDiv(_amount, DefaultMultiplier + _slippage + _loanInterest, DefaultMultiplier);\n    if(!_adjustUpward) _adjustedAmount = MulDiv(_amount, DefaultMultiplier, DefaultMultiplier + _slippage+ _loanInterest);}\n\n  function getOpposeTrade(int256 _amount, uint256 _price, uint256 _slippage) external pure returns (int256 _oppositeAmount){\n    _oppositeAmount = int256(MulDiv(adjustSlippage(_amount >=0 ? uint256(_amount): uint256(-_amount), _amount>0, _slippage, 0), _price, DefaultMultiplier)) * (_amount >=0? int256(-1): int256(1));}\n\n}\n",
  "sourcePath": "/Users/apple/Documents/GitHub/moret/contracts/OptionLibrary.sol",
  "compiler": {
    "name": "solc",
    "version": "0.8.10+commit.fc410830.Emscripten.clang"
  },
  "schemaVersion": "3.4.3",
  "updatedAt": "2021-11-28T12:43:15.259Z",
  "networkType": "ethereum",
  "devdoc": {
    "kind": "dev",
    "methods": {},
    "version": 1
  },
  "userdoc": {
    "kind": "user",
    "methods": {},
    "version": 1
  }
}