{
  "contractName": "OptionVault",
  "abi": [
    {
      "inputs": [
        {
          "internalType": "address",
          "name": "_volChainAddress",
          "type": "address"
        }
      ],
      "stateMutability": "nonpayable",
      "type": "constructor"
    },
    {
      "anonymous": false,
      "inputs": [
        {
          "indexed": true,
          "internalType": "bytes32",
          "name": "role",
          "type": "bytes32"
        },
        {
          "indexed": true,
          "internalType": "bytes32",
          "name": "previousAdminRole",
          "type": "bytes32"
        },
        {
          "indexed": true,
          "internalType": "bytes32",
          "name": "newAdminRole",
          "type": "bytes32"
        }
      ],
      "name": "RoleAdminChanged",
      "type": "event"
    },
    {
      "anonymous": false,
      "inputs": [
        {
          "indexed": true,
          "internalType": "bytes32",
          "name": "role",
          "type": "bytes32"
        },
        {
          "indexed": true,
          "internalType": "address",
          "name": "account",
          "type": "address"
        },
        {
          "indexed": true,
          "internalType": "address",
          "name": "sender",
          "type": "address"
        }
      ],
      "name": "RoleGranted",
      "type": "event"
    },
    {
      "anonymous": false,
      "inputs": [
        {
          "indexed": true,
          "internalType": "bytes32",
          "name": "role",
          "type": "bytes32"
        },
        {
          "indexed": true,
          "internalType": "address",
          "name": "account",
          "type": "address"
        },
        {
          "indexed": true,
          "internalType": "address",
          "name": "sender",
          "type": "address"
        }
      ],
      "name": "RoleRevoked",
      "type": "event"
    },
    {
      "inputs": [],
      "name": "DEFAULT_ADMIN_ROLE",
      "outputs": [
        {
          "internalType": "bytes32",
          "name": "",
          "type": "bytes32"
        }
      ],
      "stateMutability": "view",
      "type": "function"
    },
    {
      "inputs": [],
      "name": "EXCHANGE_ROLE",
      "outputs": [
        {
          "internalType": "bytes32",
          "name": "",
          "type": "bytes32"
        }
      ],
      "stateMutability": "view",
      "type": "function"
    },
    {
      "inputs": [
        {
          "internalType": "bytes32",
          "name": "role",
          "type": "bytes32"
        }
      ],
      "name": "getRoleAdmin",
      "outputs": [
        {
          "internalType": "bytes32",
          "name": "",
          "type": "bytes32"
        }
      ],
      "stateMutability": "view",
      "type": "function"
    },
    {
      "inputs": [
        {
          "internalType": "bytes32",
          "name": "role",
          "type": "bytes32"
        },
        {
          "internalType": "address",
          "name": "account",
          "type": "address"
        }
      ],
      "name": "grantRole",
      "outputs": [],
      "stateMutability": "nonpayable",
      "type": "function"
    },
    {
      "inputs": [
        {
          "internalType": "bytes32",
          "name": "role",
          "type": "bytes32"
        },
        {
          "internalType": "address",
          "name": "account",
          "type": "address"
        }
      ],
      "name": "hasRole",
      "outputs": [
        {
          "internalType": "bool",
          "name": "",
          "type": "bool"
        }
      ],
      "stateMutability": "view",
      "type": "function"
    },
    {
      "inputs": [],
      "name": "optionCounter",
      "outputs": [
        {
          "internalType": "uint256",
          "name": "",
          "type": "uint256"
        }
      ],
      "stateMutability": "view",
      "type": "function"
    },
    {
      "inputs": [
        {
          "internalType": "bytes32",
          "name": "role",
          "type": "bytes32"
        },
        {
          "internalType": "address",
          "name": "account",
          "type": "address"
        }
      ],
      "name": "renounceRole",
      "outputs": [],
      "stateMutability": "nonpayable",
      "type": "function"
    },
    {
      "inputs": [
        {
          "internalType": "bytes32",
          "name": "role",
          "type": "bytes32"
        },
        {
          "internalType": "address",
          "name": "account",
          "type": "address"
        }
      ],
      "name": "revokeRole",
      "outputs": [],
      "stateMutability": "nonpayable",
      "type": "function"
    },
    {
      "inputs": [
        {
          "internalType": "bytes4",
          "name": "interfaceId",
          "type": "bytes4"
        }
      ],
      "name": "supportsInterface",
      "outputs": [
        {
          "internalType": "bool",
          "name": "",
          "type": "bool"
        }
      ],
      "stateMutability": "view",
      "type": "function"
    },
    {
      "inputs": [],
      "name": "descriptionHash",
      "outputs": [
        {
          "internalType": "bytes32",
          "name": "",
          "type": "bytes32"
        }
      ],
      "stateMutability": "view",
      "type": "function"
    },
    {
      "inputs": [
        {
          "internalType": "uint256",
          "name": "_strike",
          "type": "uint256"
        },
        {
          "internalType": "uint256",
          "name": "_amount",
          "type": "uint256"
        },
        {
          "internalType": "uint256",
          "name": "_vol",
          "type": "uint256"
        },
        {
          "internalType": "enum OptionLibrary.PayoffType",
          "name": "_poType",
          "type": "uint8"
        },
        {
          "internalType": "enum OptionLibrary.OptionSide",
          "name": "_side",
          "type": "uint8"
        }
      ],
      "name": "queryOptionCost",
      "outputs": [
        {
          "internalType": "uint256",
          "name": "_premium",
          "type": "uint256"
        },
        {
          "internalType": "uint256",
          "name": "_cost",
          "type": "uint256"
        },
        {
          "internalType": "uint256",
          "name": "_price",
          "type": "uint256"
        }
      ],
      "stateMutability": "view",
      "type": "function"
    },
    {
      "inputs": [
        {
          "internalType": "uint256",
          "name": "_tenor",
          "type": "uint256"
        },
        {
          "internalType": "uint256",
          "name": "_strike",
          "type": "uint256"
        },
        {
          "internalType": "uint256",
          "name": "_amount",
          "type": "uint256"
        },
        {
          "internalType": "enum OptionLibrary.PayoffType",
          "name": "_poType",
          "type": "uint8"
        },
        {
          "internalType": "enum OptionLibrary.OptionSide",
          "name": "_side",
          "type": "uint8"
        },
        {
          "internalType": "uint256",
          "name": "_premium",
          "type": "uint256"
        },
        {
          "internalType": "uint256",
          "name": "_cost",
          "type": "uint256"
        },
        {
          "internalType": "uint256",
          "name": "_price",
          "type": "uint256"
        },
        {
          "internalType": "uint256",
          "name": "_volatility",
          "type": "uint256"
        }
      ],
      "name": "addOption",
      "outputs": [
        {
          "internalType": "uint256",
          "name": "_id",
          "type": "uint256"
        }
      ],
      "stateMutability": "nonpayable",
      "type": "function"
    },
    {
      "inputs": [
        {
          "internalType": "uint256",
          "name": "_id",
          "type": "uint256"
        }
      ],
      "name": "getOptionHolder",
      "outputs": [
        {
          "internalType": "address",
          "name": "",
          "type": "address"
        }
      ],
      "stateMutability": "view",
      "type": "function"
    },
    {
      "inputs": [
        {
          "internalType": "uint256",
          "name": "_id",
          "type": "uint256"
        }
      ],
      "name": "queryOptionPremium",
      "outputs": [
        {
          "internalType": "uint256",
          "name": "",
          "type": "uint256"
        }
      ],
      "stateMutability": "view",
      "type": "function"
    },
    {
      "inputs": [
        {
          "internalType": "uint256",
          "name": "_id",
          "type": "uint256"
        },
        {
          "internalType": "bool",
          "name": "_ignoreSells",
          "type": "bool"
        }
      ],
      "name": "queryOptionNotional",
      "outputs": [
        {
          "internalType": "uint256",
          "name": "_notional",
          "type": "uint256"
        }
      ],
      "stateMutability": "view",
      "type": "function"
    },
    {
      "inputs": [
        {
          "internalType": "uint256",
          "name": "_id",
          "type": "uint256"
        }
      ],
      "name": "getContractPayoff",
      "outputs": [
        {
          "internalType": "uint256",
          "name": "_payoff",
          "type": "uint256"
        },
        {
          "internalType": "uint256",
          "name": "_payback",
          "type": "uint256"
        }
      ],
      "stateMutability": "view",
      "type": "function"
    },
    {
      "inputs": [
        {
          "internalType": "uint256",
          "name": "_id",
          "type": "uint256"
        },
        {
          "internalType": "uint256",
          "name": "_price",
          "type": "uint256"
        },
        {
          "internalType": "bool",
          "name": "_ignoreSells",
          "type": "bool"
        }
      ],
      "name": "calculateContractDelta",
      "outputs": [
        {
          "internalType": "int256",
          "name": "_delta",
          "type": "int256"
        }
      ],
      "stateMutability": "view",
      "type": "function"
    },
    {
      "inputs": [
        {
          "internalType": "uint256",
          "name": "_id",
          "type": "uint256"
        },
        {
          "internalType": "uint256",
          "name": "_price",
          "type": "uint256"
        },
        {
          "internalType": "bool",
          "name": "_ignoreSells",
          "type": "bool"
        }
      ],
      "name": "calculateContractGamma",
      "outputs": [
        {
          "internalType": "int256",
          "name": "_gamma",
          "type": "int256"
        }
      ],
      "stateMutability": "view",
      "type": "function"
    },
    {
      "inputs": [],
      "name": "calculateSpotGamma",
      "outputs": [
        {
          "internalType": "int256",
          "name": "_gamma",
          "type": "int256"
        }
      ],
      "stateMutability": "view",
      "type": "function"
    },
    {
      "inputs": [
        {
          "internalType": "uint256",
          "name": "_id",
          "type": "uint256"
        }
      ],
      "name": "isOptionExpiring",
      "outputs": [
        {
          "internalType": "bool",
          "name": "",
          "type": "bool"
        }
      ],
      "stateMutability": "view",
      "type": "function"
    },
    {
      "inputs": [
        {
          "internalType": "uint256",
          "name": "_id",
          "type": "uint256"
        }
      ],
      "name": "stampActiveOption",
      "outputs": [],
      "stateMutability": "nonpayable",
      "type": "function"
    },
    {
      "inputs": [
        {
          "internalType": "uint256",
          "name": "_id",
          "type": "uint256"
        }
      ],
      "name": "stampExpiredOption",
      "outputs": [],
      "stateMutability": "nonpayable",
      "type": "function"
    },
    {
      "inputs": [
        {
          "internalType": "uint256",
          "name": "_id",
          "type": "uint256"
        }
      ],
      "name": "getOption",
      "outputs": [
        {
          "components": [
            {
              "internalType": "enum OptionLibrary.PayoffType",
              "name": "poType",
              "type": "uint8"
            },
            {
              "internalType": "enum OptionLibrary.OptionSide",
              "name": "side",
              "type": "uint8"
            },
            {
              "internalType": "enum OptionLibrary.OptionStatus",
              "name": "status",
              "type": "uint8"
            },
            {
              "internalType": "address",
              "name": "holder",
              "type": "address"
            },
            {
              "internalType": "uint256",
              "name": "id",
              "type": "uint256"
            },
            {
              "internalType": "uint256",
              "name": "createTime",
              "type": "uint256"
            },
            {
              "internalType": "uint256",
              "name": "effectiveTime",
              "type": "uint256"
            },
            {
              "internalType": "uint256",
              "name": "tenor",
              "type": "uint256"
            },
            {
              "internalType": "uint256",
              "name": "maturity",
              "type": "uint256"
            },
            {
              "internalType": "uint256",
              "name": "exerciseTime",
              "type": "uint256"
            },
            {
              "internalType": "uint256",
              "name": "amount",
              "type": "uint256"
            },
            {
              "internalType": "uint256",
              "name": "spot",
              "type": "uint256"
            },
            {
              "internalType": "uint256",
              "name": "strike",
              "type": "uint256"
            },
            {
              "internalType": "uint256",
              "name": "volatility",
              "type": "uint256"
            },
            {
              "internalType": "uint256",
              "name": "premium",
              "type": "uint256"
            },
            {
              "internalType": "uint256",
              "name": "cost",
              "type": "uint256"
            }
          ],
          "internalType": "struct OptionLibrary.Option",
          "name": "",
          "type": "tuple"
        }
      ],
      "stateMutability": "view",
      "type": "function"
    },
    {
      "inputs": [
        {
          "internalType": "uint256",
          "name": "_tenor",
          "type": "uint256"
        }
      ],
      "name": "queryVol",
      "outputs": [
        {
          "internalType": "uint256",
          "name": "",
          "type": "uint256"
        }
      ],
      "stateMutability": "view",
      "type": "function"
    },
    {
      "inputs": [],
      "name": "queryPrice",
      "outputs": [
        {
          "internalType": "uint256",
          "name": "",
          "type": "uint256"
        },
        {
          "internalType": "uint256",
          "name": "",
          "type": "uint256"
        }
      ],
      "stateMutability": "view",
      "type": "function"
    }
  ],
  "bytecode": "0x608060405260006002553480156200001657600080fd5b50604051620039a4380380620039a483398181016040528101906200003c9190620002ae565b620000516000801b33620000cb60201b60201c565b620000837f28d62fc77014de57a1bbaa8212ff0979fa61ab00d377b4b8d9762048fb41996133620000cb60201b60201c565b80600360006101000a81548173ffffffffffffffffffffffffffffffffffffffff021916908373ffffffffffffffffffffffffffffffffffffffff16021790555050620002e0565b620000dd8282620000e160201b60201c565b5050565b620000f38282620001d260201b60201c565b620001ce57600160008084815260200190815260200160002060000160008373ffffffffffffffffffffffffffffffffffffffff1673ffffffffffffffffffffffffffffffffffffffff16815260200190815260200160002060006101000a81548160ff021916908315150217905550620001736200023c60201b60201c565b73ffffffffffffffffffffffffffffffffffffffff168173ffffffffffffffffffffffffffffffffffffffff16837f2f8788117e7eff1d82e926ec794901d17c78024a50270940304540a733656f0d60405160405180910390a45b5050565b600080600084815260200190815260200160002060000160008373ffffffffffffffffffffffffffffffffffffffff1673ffffffffffffffffffffffffffffffffffffffff16815260200190815260200160002060009054906101000a900460ff16905092915050565b600033905090565b600080fd5b600073ffffffffffffffffffffffffffffffffffffffff82169050919050565b6000620002768262000249565b9050919050565b620002888162000269565b81146200029457600080fd5b50565b600081519050620002a8816200027d565b92915050565b600060208284031215620002c757620002c662000244565b5b6000620002d78482850162000297565b91505092915050565b6136b480620002f06000396000f3fe608060405234801561001057600080fd5b50600436106101735760003560e01c806376df2d08116100de578063a217fddf11610097578063cfc2dc2011610071578063cfc2dc20146104c2578063d547741f146104f2578063f7327abd1461050e578063f8a351811461053e57610173565b8063a217fddf14610455578063b0667cf814610473578063b1cbbfb71461049257610173565b806376df2d081461035657806385ae10e61461038857806385dcee93146103b95780638cbb0cd0146103d757806391d14854146104075780639bc67cd21461043757610173565b80632f2ff15d116101305780632f2ff15d1461028457806336568abe146102a05780633b734501146102bc57806346047a66146102da578063637baf601461030a57806369369ab51461032657610173565b806301ffc9a714610178578063105df856146101a85780631a7985ba146101d85780631ce5e9a614610208578063248a9ca31461023857806328e493c114610268575b600080fd5b610192600480360381019061018d91906125c7565b61055c565b60405161019f919061260f565b60405180910390f35b6101c260048036038101906101bd919061268c565b6105d6565b6040516101cf91906126db565b60405180910390f35b6101f260048036038101906101ed91906126f6565b610654565b6040516101ff9190612764565b60405180910390f35b610222600480360381019061021d91906126f6565b610694565b60405161022f91906129ee565b60405180910390f35b610252600480360381019061024d9190612a40565b610841565b60405161025f9190612a7c565b60405180910390f35b610282600480360381019061027d91906126f6565b610860565b005b61029e60048036038101906102999190612ac3565b610941565b005b6102ba60048036038101906102b59190612ac3565b61096a565b005b6102c46109ed565b6040516102d19190612a7c565b60405180910390f35b6102f460048036038101906102ef91906126f6565b610a11565b60405161030191906126db565b60405180910390f35b610324600480360381019061031f91906126f6565b610a31565b005b610340600480360381019061033b91906126f6565b610ac1565b60405161034d919061260f565b60405180910390f35b610370600480360381019061036b9190612b4d565b610b37565b60405161037f93929190612bc8565b60405180910390f35b6103a2600480360381019061039d91906126f6565b610d52565b6040516103b0929190612bff565b60405180910390f35b6103c1610fe4565b6040516103ce9190612a7c565b60405180910390f35b6103f160048036038101906103ec9190612c28565b6110b6565b6040516103fe9190612c94565b60405180910390f35b610421600480360381019061041c9190612ac3565b611473565b60405161042e919061260f565b60405180910390f35b61043f6114dd565b60405161044c9190612c94565b60405180910390f35b61045d611717565b60405161046a9190612a7c565b60405180910390f35b61047b61171e565b604051610489929190612bff565b60405180910390f35b6104ac60048036038101906104a79190612c28565b6117c8565b6040516104b99190612c94565b60405180910390f35b6104dc60048036038101906104d791906126f6565b611b08565b6040516104e991906126db565b60405180910390f35b61050c60048036038101906105079190612ac3565b611bbc565b005b61052860048036038101906105239190612caf565b611be5565b60405161053591906126db565b60405180910390f35b610546611e6b565b60405161055391906126db565b60405180910390f35b60007f7965db0b000000000000000000000000000000000000000000000000000000007bffffffffffffffffffffffffffffffffffffffffffffffffffffffff1916827bffffffffffffffffffffffffffffffffffffffffffffffffffffffff191614806105cf57506105ce82611e71565b5b9050919050565b6000600160008481526020019081526020016000206007015490506001808111156106045761060361277f565b5b6001600085815260200190815260200160002060000160019054906101000a900460ff16600181111561063a5761063961277f565b5b1480156106445750815b1561064e57600090505b92915050565b60006001600083815260200190815260200160002060000160039054906101000a900473ffffffffffffffffffffffffffffffffffffffff169050919050565b61069c612492565b60016000838152602001908152602001600020604051806102000160405290816000820160009054906101000a900460ff1660018111156106e0576106df61277f565b5b60018111156106f2576106f161277f565b5b81526020016000820160019054906101000a900460ff16600181111561071b5761071a61277f565b5b600181111561072d5761072c61277f565b5b81526020016000820160029054906101000a900460ff1660038111156107565761075561277f565b5b60038111156107685761076761277f565b5b81526020016000820160039054906101000a900473ffffffffffffffffffffffffffffffffffffffff1673ffffffffffffffffffffffffffffffffffffffff1673ffffffffffffffffffffffffffffffffffffffff168152602001600182015481526020016002820154815260200160038201548152602001600482015481526020016005820154815260200160068201548152602001600782015481526020016008820154815260200160098201548152602001600a8201548152602001600b8201548152602001600c820154815250509050919050565b6000806000838152602001908152602001600020600101549050919050565b7f28d62fc77014de57a1bbaa8212ff0979fa61ab00d377b4b8d9762048fb4199616108928161088d611edb565b611ee3565b426001600084815260200190815260200160002060030181905550600160008381526020019081526020016000206004015460016000848152602001908152602001600020600301546108e59190612da8565b6001600084815260200190815260200160002060050181905550600180600084815260200190815260200160002060000160026101000a81548160ff021916908360038111156109385761093761277f565b5b02179055505050565b61094a82610841565b61095b81610956611edb565b611ee3565b6109658383611f80565b505050565b610972611edb565b73ffffffffffffffffffffffffffffffffffffffff168173ffffffffffffffffffffffffffffffffffffffff16146109df576040517f08c379a00000000000000000000000000000000000000000000000000000000081526004016109d690612e81565b60405180910390fd5b6109e98282612060565b5050565b7f28d62fc77014de57a1bbaa8212ff0979fa61ab00d377b4b8d9762048fb41996181565b600060016000838152602001908152602001600020600b01549050919050565b7f28d62fc77014de57a1bbaa8212ff0979fa61ab00d377b4b8d9762048fb419961610a6381610a5e611edb565b611ee3565b42600160008481526020019081526020016000206006018190555060036001600084815260200190815260200160002060000160026101000a81548160ff02191690836003811115610ab857610ab761277f565b5b02179055505050565b600060016003811115610ad757610ad661277f565b5b6001600084815260200190815260200160002060000160029054906101000a900460ff166003811115610b0d57610b0c61277f565b5b148015610b30575042600160008481526020019081526020016000206005015411155b9050919050565b6000806000600360009054906101000a900473ffffffffffffffffffffffffffffffffffffffff1673ffffffffffffffffffffffffffffffffffffffff1663b0667cf86040518163ffffffff1660e01b8152600401604080518083038186803b158015610ba357600080fd5b505afa158015610bb7573d6000803e3d6000fd5b505050506040513d601f19601f82011682018060405250810190610bdb9190612eb6565b508091505073__OptionLibrary_________________________6324f6434582888b898c6040518663ffffffff1660e01b8152600401610c1f959493929190612f14565b60206040518083038186803b158015610c3757600080fd5b505af4158015610c4b573d6000803e3d6000fd5b505050506040513d601f19601f82011682018060405250810190610c6f9190612f67565b9250829150600180811115610c8757610c8661277f565b5b846001811115610c9a57610c9961277f565b5b1415610d47576000610d28888373__OptionLibrary_________________________63fd9b87636040518163ffffffff1660e01b815260040160206040518083038186803b158015610ceb57600080fd5b505af4158015610cff573d6000803e3d6000fd5b505050506040513d601f19601f82011682018060405250810190610d239190612f67565b612141565b905083811015610d3757600080fd5b8381610d439190612f94565b9250505b955095509592505050565b6000806000600360009054906101000a900473ffffffffffffffffffffffffffffffffffffffff1673ffffffffffffffffffffffffffffffffffffffff1663b0667cf86040518163ffffffff1660e01b8152600401604080518083038186803b158015610dbe57600080fd5b505afa158015610dd2573d6000803e3d6000fd5b505050506040513d601f19601f82011682018060405250810190610df69190612eb6565b5090506001600085815260200190815260200160002073__OptionLibrary_________________________63a69d3ae09091836040518363ffffffff1660e01b8152600401610e46929190612fcf565b60206040518083038186803b158015610e5e57600080fd5b505af4158015610e72573d6000803e3d6000fd5b505050506040513d601f19601f82011682018060405250810190610e969190612f67565b9250829150600180811115610eae57610ead61277f565b5b6001600086815260200190815260200160002060000160019054906101000a900460ff166001811115610ee457610ee361277f565b5b1415610fde5760006001600086815260200190815260200160002073__OptionLibrary_________________________630862958b9091846040518363ffffffff1660e01b8152600401610f39929190612fcf565b60206040518083038186803b158015610f5157600080fd5b505af4158015610f65573d6000803e3d6000fd5b505050506040513d601f19601f82011682018060405250810190610f899190612f67565b905083811015610fce576040517f08c379a0000000000000000000000000000000000000000000000000000000008152600401610fc590613044565b60405180910390fd5b8381610fda9190612f94565b9250505b50915091565b6000600360009054906101000a900473ffffffffffffffffffffffffffffffffffffffff1673ffffffffffffffffffffffffffffffffffffffff166398de78976040518163ffffffff1660e01b815260040160006040518083038186803b15801561104e57600080fd5b505afa158015611062573d6000803e3d6000fd5b505050506040513d6000823e3d601f19601f8201168201806040525081019061108b91906131ce565b60405160200161109b919061325e565b60405160208183030381529060405280519060200120905090565b6000600160038111156110cc576110cb61277f565b5b6001600086815260200190815260200160002060000160029054906101000a900460ff1660038111156111025761110161277f565b5b14801561115f575081801561115d57506001808111156111255761112461277f565b5b6001600086815260200190815260200160002060000160019054906101000a900460ff16600181111561115b5761115a61277f565b5b145b155b1561146c576000600360009054906101000a900473ffffffffffffffffffffffffffffffffffffffff1673ffffffffffffffffffffffffffffffffffffffff1663040b030f6111c460016000898152602001908152602001600020600501544261223d565b60016000898152602001908152602001600020600501546111e59190612f94565b6040518263ffffffff1660e01b815260040161120191906126db565b60206040518083038186803b15801561121957600080fd5b505afa15801561122d573d6000803e3d6000fd5b505050506040513d601f19601f820116820180604052508101906112519190612f67565b905061138f73__OptionLibrary_________________________6323a00f6586600160008a815260200190815260200160002060090154856040518463ffffffff1660e01b81526004016112a793929190613275565b60206040518083038186803b1580156112bf57600080fd5b505af41580156112d3573d6000803e3d6000fd5b505050506040513d601f19601f820116820180604052508101906112f79190612f67565b600160008881526020019081526020016000206007015473__OptionLibrary_________________________63fd9b87636040518163ffffffff1660e01b815260040160206040518083038186803b15801561135257600080fd5b505af4158015611366573d6000803e3d6000fd5b505050506040513d601f19601f8201168201806040525081019061138a9190612f67565b612141565b91506001808111156113a4576113a361277f565b5b6001600087815260200190815260200160002060000160009054906101000a900460ff1660018111156113da576113d961277f565b5b141561140e57816001600087815260200190815260200160002060070154611401906132ac565b61140b91906132f5565b91505b6001808111156114215761142061277f565b5b6001600087815260200190815260200160002060000160019054906101000a900460ff1660018111156114575761145661277f565b5b141561146a5781611467906132ac565b91505b505b9392505050565b600080600084815260200190815260200160002060000160008373ffffffffffffffffffffffffffffffffffffffff1673ffffffffffffffffffffffffffffffffffffffff16815260200190815260200160002060009054906101000a900460ff16905092915050565b600080600360009054906101000a900473ffffffffffffffffffffffffffffffffffffffff1673ffffffffffffffffffffffffffffffffffffffff1663040b030f620151806040518263ffffffff1660e01b815260040161153e91906133ce565b60206040518083038186803b15801561155657600080fd5b505afa15801561156a573d6000803e3d6000fd5b505050506040513d601f19601f8201168201806040525081019061158e9190612f67565b905073__OptionLibrary_________________________639932b2be73__OptionLibrary_________________________63fd9b87636040518163ffffffff1660e01b815260040160206040518083038186803b1580156115ee57600080fd5b505af4158015611602573d6000803e3d6000fd5b505050506040513d601f19601f820116820180604052508101906116269190612f67565b73__OptionLibrary_________________________63fd9b87636040518163ffffffff1660e01b815260040160206040518083038186803b15801561166a57600080fd5b505af415801561167e573d6000803e3d6000fd5b505050506040513d601f19601f820116820180604052508101906116a29190612f67565b846040518463ffffffff1660e01b81526004016116c193929190613275565b60206040518083038186803b1580156116d957600080fd5b505af41580156116ed573d6000803e3d6000fd5b505050506040513d601f19601f820116820180604052508101906117119190612f67565b91505090565b6000801b81565b600080600360009054906101000a900473ffffffffffffffffffffffffffffffffffffffff1673ffffffffffffffffffffffffffffffffffffffff1663b0667cf86040518163ffffffff1660e01b8152600401604080518083038186803b15801561178857600080fd5b505afa15801561179c573d6000803e3d6000fd5b505050506040513d601f19601f820116820180604052508101906117c09190612eb6565b915091509091565b6000600160038111156117de576117dd61277f565b5b6001600086815260200190815260200160002060000160029054906101000a900460ff1660038111156118145761181361277f565b5b148015611871575081801561186f57506001808111156118375761183661277f565b5b6001600086815260200190815260200160002060000160019054906101000a900460ff16600181111561186d5761186c61277f565b5b145b155b15611b01576000600360009054906101000a900473ffffffffffffffffffffffffffffffffffffffff1673ffffffffffffffffffffffffffffffffffffffff1663040b030f6118d660016000898152602001908152602001600020600501544261223d565b60016000898152602001908152602001600020600501546118f79190612f94565b6040518263ffffffff1660e01b815260040161191391906126db565b60206040518083038186803b15801561192b57600080fd5b505afa15801561193f573d6000803e3d6000fd5b505050506040513d601f19601f820116820180604052508101906119639190612f67565b9050611aa173__OptionLibrary_________________________639932b2be86600160008a815260200190815260200160002060090154856040518463ffffffff1660e01b81526004016119b993929190613275565b60206040518083038186803b1580156119d157600080fd5b505af41580156119e5573d6000803e3d6000fd5b505050506040513d601f19601f82011682018060405250810190611a099190612f67565b600160008881526020019081526020016000206007015473__OptionLibrary_________________________63fd9b87636040518163ffffffff1660e01b815260040160206040518083038186803b158015611a6457600080fd5b505af4158015611a78573d6000803e3d6000fd5b505050506040513d601f19601f82011682018060405250810190611a9c9190612f67565b612141565b9150600180811115611ab657611ab561277f565b5b6001600087815260200190815260200160002060000160019054906101000a900460ff166001811115611aec57611aeb61277f565b5b1415611aff5781611afc906132ac565b91505b505b9392505050565b6000600360009054906101000a900473ffffffffffffffffffffffffffffffffffffffff1673ffffffffffffffffffffffffffffffffffffffff1663040b030f836040518263ffffffff1660e01b8152600401611b6591906126db565b60206040518083038186803b158015611b7d57600080fd5b505afa158015611b91573d6000803e3d6000fd5b505050506040513d601f19601f82011682018060405250810190611bb59190612f67565b9050919050565b611bc582610841565b611bd681611bd1611edb565b611ee3565b611be08383612060565b505050565b60007f28d62fc77014de57a1bbaa8212ff0979fa61ab00d377b4b8d9762048fb419961611c1981611c14611edb565b611ee3565b60026000815480929190611c2c906133e9565b91905055506002549150604051806102000160405280896001811115611c5557611c5461277f565b5b8152602001886001811115611c6d57611c6c61277f565b5b815260200160006003811115611c8657611c8561277f565b5b81526020013373ffffffffffffffffffffffffffffffffffffffff168152602001838152602001428152602001600081526020018c815260200160008152602001600081526020018a81526020018581526020018b8152602001848152602001878152602001868152506001600084815260200190815260200160002060008201518160000160006101000a81548160ff02191690836001811115611d2e57611d2d61277f565b5b021790555060208201518160000160016101000a81548160ff02191690836001811115611d5e57611d5d61277f565b5b021790555060408201518160000160026101000a81548160ff02191690836003811115611d8e57611d8d61277f565b5b021790555060608201518160000160036101000a81548173ffffffffffffffffffffffffffffffffffffffff021916908373ffffffffffffffffffffffffffffffffffffffff1602179055506080820151816001015560a0820151816002015560c0820151816003015560e08201518160040155610100820151816005015561012082015181600601556101408201518160070155610160820151816008015561018082015181600901556101a082015181600a01556101c082015181600b01556101e082015181600c0155905050509998505050505050505050565b60025481565b60007f01ffc9a7000000000000000000000000000000000000000000000000000000007bffffffffffffffffffffffffffffffffffffffffffffffffffffffff1916827bffffffffffffffffffffffffffffffffffffffffffffffffffffffff1916149050919050565b600033905090565b611eed8282611473565b611f7c57611f128173ffffffffffffffffffffffffffffffffffffffff166014612256565b611f208360001c6020612256565b604051602001611f319291906134ca565b6040516020818303038152906040526040517f08c379a0000000000000000000000000000000000000000000000000000000008152600401611f73919061353d565b60405180910390fd5b5050565b611f8a8282611473565b61205c57600160008084815260200190815260200160002060000160008373ffffffffffffffffffffffffffffffffffffffff1673ffffffffffffffffffffffffffffffffffffffff16815260200190815260200160002060006101000a81548160ff021916908315150217905550612001611edb565b73ffffffffffffffffffffffffffffffffffffffff168173ffffffffffffffffffffffffffffffffffffffff16837f2f8788117e7eff1d82e926ec794901d17c78024a50270940304540a733656f0d60405160405180910390a45b5050565b61206a8282611473565b1561213d57600080600084815260200190815260200160002060000160008373ffffffffffffffffffffffffffffffffffffffff1673ffffffffffffffffffffffffffffffffffffffff16815260200190815260200160002060006101000a81548160ff0219169083151502179055506120e2611edb565b73ffffffffffffffffffffffffffffffffffffffff168173ffffffffffffffffffffffffffffffffffffffff16837ff6391f5c32d9c69d2a47ea670b442974b53935d1edc7fd64eb21e047a839171b60405160405180910390a45b5050565b60008060008019858709858702925082811083820303915050600081141561217c576000841161217057600080fd5b83820492505050612236565b80841161218857600080fd5b60008486880990508281118203915080830392506000856001877fffffffffffffffffffffffffffffffffffffffffffffffffffffffffffffffff0301169050808604955080840493506001818260000304019050808302841793506000600287600302189050808702600203810290508087026002038102905080870260020381029050808702600203810290508087026002038102905080870260020381029050808502955050505050505b9392505050565b600081831061224c578161224e565b825b905092915050565b606060006002836002612269919061355f565b6122739190612da8565b67ffffffffffffffff81111561228c5761228b61307f565b5b6040519080825280601f01601f1916602001820160405280156122be5781602001600182028036833780820191505090505b5090507f3000000000000000000000000000000000000000000000000000000000000000816000815181106122f6576122f56135b9565b5b60200101907effffffffffffffffffffffffffffffffffffffffffffffffffffffffffffff1916908160001a9053507f78000000000000000000000000000000000000000000000000000000000000008160018151811061235a576123596135b9565b5b60200101907effffffffffffffffffffffffffffffffffffffffffffffffffffffffffffff1916908160001a9053506000600184600261239a919061355f565b6123a49190612da8565b90505b6001811115612444577f3031323334353637383961626364656600000000000000000000000000000000600f8616601081106123e6576123e56135b9565b5b1a60f81b8282815181106123fd576123fc6135b9565b5b60200101907effffffffffffffffffffffffffffffffffffffffffffffffffffffffffffff1916908160001a905350600485901c94508061243d906135e8565b90506123a7565b5060008414612488576040517f08c379a000000000000000000000000000000000000000000000000000000000815260040161247f9061365e565b60405180910390fd5b8091505092915050565b604051806102000160405280600060018111156124b2576124b161277f565b5b8152602001600060018111156124cb576124ca61277f565b5b8152602001600060038111156124e4576124e361277f565b5b8152602001600073ffffffffffffffffffffffffffffffffffffffff1681526020016000815260200160008152602001600081526020016000815260200160008152602001600081526020016000815260200160008152602001600081526020016000815260200160008152602001600081525090565b6000604051905090565b600080fd5b600080fd5b60007fffffffff0000000000000000000000000000000000000000000000000000000082169050919050565b6125a48161256f565b81146125af57600080fd5b50565b6000813590506125c18161259b565b92915050565b6000602082840312156125dd576125dc612565565b5b60006125eb848285016125b2565b91505092915050565b60008115159050919050565b612609816125f4565b82525050565b60006020820190506126246000830184612600565b92915050565b6000819050919050565b61263d8161262a565b811461264857600080fd5b50565b60008135905061265a81612634565b92915050565b612669816125f4565b811461267457600080fd5b50565b60008135905061268681612660565b92915050565b600080604083850312156126a3576126a2612565565b5b60006126b18582860161264b565b92505060206126c285828601612677565b9150509250929050565b6126d58161262a565b82525050565b60006020820190506126f060008301846126cc565b92915050565b60006020828403121561270c5761270b612565565b5b600061271a8482850161264b565b91505092915050565b600073ffffffffffffffffffffffffffffffffffffffff82169050919050565b600061274e82612723565b9050919050565b61275e81612743565b82525050565b60006020820190506127796000830184612755565b92915050565b7f4e487b7100000000000000000000000000000000000000000000000000000000600052602160045260246000fd5b600281106127bf576127be61277f565b5b50565b60008190506127d0826127ae565b919050565b60006127e0826127c2565b9050919050565b6127f0816127d5565b82525050565b600281106128075761280661277f565b5b50565b6000819050612818826127f6565b919050565b60006128288261280a565b9050919050565b6128388161281d565b82525050565b6004811061284f5761284e61277f565b5b50565b60008190506128608261283e565b919050565b600061287082612852565b9050919050565b61288081612865565b82525050565b61288f81612743565b82525050565b61289e8161262a565b82525050565b610200820160008201516128bb60008501826127e7565b5060208201516128ce602085018261282f565b5060408201516128e16040850182612877565b5060608201516128f46060850182612886565b5060808201516129076080850182612895565b5060a082015161291a60a0850182612895565b5060c082015161292d60c0850182612895565b5060e082015161294060e0850182612895565b50610100820151612955610100850182612895565b5061012082015161296a610120850182612895565b5061014082015161297f610140850182612895565b50610160820151612994610160850182612895565b506101808201516129a9610180850182612895565b506101a08201516129be6101a0850182612895565b506101c08201516129d36101c0850182612895565b506101e08201516129e86101e0850182612895565b50505050565b600061020082019050612a0460008301846128a4565b92915050565b6000819050919050565b612a1d81612a0a565b8114612a2857600080fd5b50565b600081359050612a3a81612a14565b92915050565b600060208284031215612a5657612a55612565565b5b6000612a6484828501612a2b565b91505092915050565b612a7681612a0a565b82525050565b6000602082019050612a916000830184612a6d565b92915050565b612aa081612743565b8114612aab57600080fd5b50565b600081359050612abd81612a97565b92915050565b60008060408385031215612ada57612ad9612565565b5b6000612ae885828601612a2b565b9250506020612af985828601612aae565b9150509250929050565b60028110612b1057600080fd5b50565b600081359050612b2281612b03565b92915050565b60028110612b3557600080fd5b50565b600081359050612b4781612b28565b92915050565b600080600080600060a08688031215612b6957612b68612565565b5b6000612b778882890161264b565b9550506020612b888882890161264b565b9450506040612b998882890161264b565b9350506060612baa88828901612b13565b9250506080612bbb88828901612b38565b9150509295509295909350565b6000606082019050612bdd60008301866126cc565b612bea60208301856126cc565b612bf760408301846126cc565b949350505050565b6000604082019050612c1460008301856126cc565b612c2160208301846126cc565b9392505050565b600080600060608486031215612c4157612c40612565565b5b6000612c4f8682870161264b565b9350506020612c608682870161264b565b9250506040612c7186828701612677565b9150509250925092565b6000819050919050565b612c8e81612c7b565b82525050565b6000602082019050612ca96000830184612c85565b92915050565b60008060008060008060008060006101208a8c031215612cd257612cd1612565565b5b6000612ce08c828d0161264b565b9950506020612cf18c828d0161264b565b9850506040612d028c828d0161264b565b9750506060612d138c828d01612b13565b9650506080612d248c828d01612b38565b95505060a0612d358c828d0161264b565b94505060c0612d468c828d0161264b565b93505060e0612d578c828d0161264b565b925050610100612d698c828d0161264b565b9150509295985092959850929598565b7f4e487b7100000000000000000000000000000000000000000000000000000000600052601160045260246000fd5b6000612db38261262a565b9150612dbe8361262a565b9250827fffffffffffffffffffffffffffffffffffffffffffffffffffffffffffffffff03821115612df357612df2612d79565b5b828201905092915050565b600082825260208201905092915050565b7f416363657373436f6e74726f6c3a2063616e206f6e6c792072656e6f756e636560008201527f20726f6c657320666f722073656c660000000000000000000000000000000000602082015250565b6000612e6b602f83612dfe565b9150612e7682612e0f565b604082019050919050565b60006020820190508181036000830152612e9a81612e5e565b9050919050565b600081519050612eb081612634565b92915050565b60008060408385031215612ecd57612ecc612565565b5b6000612edb85828601612ea1565b9250506020612eec85828601612ea1565b9150509250929050565b612eff8161262a565b82525050565b612f0e816127d5565b82525050565b600060a082019050612f296000830188612ef6565b612f366020830187612ef6565b612f436040830186612ef6565b612f506060830185612f05565b612f5d6080830184612ef6565b9695505050505050565b600060208284031215612f7d57612f7c612565565b5b6000612f8b84828501612ea1565b91505092915050565b6000612f9f8261262a565b9150612faa8361262a565b925082821015612fbd57612fbc612d79565b5b828203905092915050565b8082525050565b6000604082019050612fe46000830185612fc8565b612ff16020830184612ef6565b9392505050565b7f5061796f666620696e636f72726563742e000000000000000000000000000000600082015250565b600061302e601183612dfe565b915061303982612ff8565b602082019050919050565b6000602082019050818103600083015261305d81613021565b9050919050565b600080fd5b600080fd5b6000601f19601f8301169050919050565b7f4e487b7100000000000000000000000000000000000000000000000000000000600052604160045260246000fd5b6130b78261306e565b810181811067ffffffffffffffff821117156130d6576130d561307f565b5b80604052505050565b60006130e961255b565b90506130f582826130ae565b919050565b600067ffffffffffffffff8211156131155761311461307f565b5b61311e8261306e565b9050602081019050919050565b60005b8381101561314957808201518184015260208101905061312e565b83811115613158576000848401525b50505050565b600061317161316c846130fa565b6130df565b90508281526020810184848401111561318d5761318c613069565b5b61319884828561312b565b509392505050565b600082601f8301126131b5576131b4613064565b5b81516131c584826020860161315e565b91505092915050565b6000602082840312156131e4576131e3612565565b5b600082015167ffffffffffffffff8111156132025761320161256a565b5b61320e848285016131a0565b91505092915050565b600081519050919050565b600081905092915050565b600061323882613217565b6132428185613222565b935061325281856020860161312b565b80840191505092915050565b600061326a828461322d565b915081905092915050565b600060608201905061328a6000830186612ef6565b6132976020830185612ef6565b6132a46040830184612ef6565b949350505050565b60006132b782612c7b565b91507f80000000000000000000000000000000000000000000000000000000000000008214156132ea576132e9612d79565b5b816000039050919050565b600061330082612c7b565b915061330b83612c7b565b9250817f7fffffffffffffffffffffffffffffffffffffffffffffffffffffffffffffff0383136000831215161561334657613345612d79565b5b817f800000000000000000000000000000000000000000000000000000000000000003831260008312161561337e5761337d612d79565b5b828201905092915050565b6000819050919050565b6000819050919050565b60006133b86133b36133ae84613389565b613393565b61262a565b9050919050565b6133c88161339d565b82525050565b60006020820190506133e360008301846133bf565b92915050565b60006133f48261262a565b91507fffffffffffffffffffffffffffffffffffffffffffffffffffffffffffffffff82141561342757613426612d79565b5b600182019050919050565b7f416363657373436f6e74726f6c3a206163636f756e7420000000000000000000600082015250565b6000613468601783613222565b915061347382613432565b601782019050919050565b7f206973206d697373696e6720726f6c6520000000000000000000000000000000600082015250565b60006134b4601183613222565b91506134bf8261347e565b601182019050919050565b60006134d58261345b565b91506134e1828561322d565b91506134ec826134a7565b91506134f8828461322d565b91508190509392505050565b600061350f82613217565b6135198185612dfe565b935061352981856020860161312b565b6135328161306e565b840191505092915050565b600060208201905081810360008301526135578184613504565b905092915050565b600061356a8261262a565b91506135758361262a565b9250817fffffffffffffffffffffffffffffffffffffffffffffffffffffffffffffffff04831182151516156135ae576135ad612d79565b5b828202905092915050565b7f4e487b7100000000000000000000000000000000000000000000000000000000600052603260045260246000fd5b60006135f38261262a565b9150600082141561360757613606612d79565b5b600182039050919050565b7f537472696e67733a20686578206c656e67746820696e73756666696369656e74600082015250565b6000613648602083612dfe565b915061365382613612565b602082019050919050565b600060208201905081810360008301526136778161363b565b905091905056fea2646970667358221220fe3e5003616eadbf1c0ec2591954f8d678af2e0627556af6e152c005b301c6e064736f6c63430008090033",
  "immutableReferences": {},
  "source": "/**\n * SPDX-License-Identifier: GPL-3.0-or-later\n * Moret\n * Copyright (C) 2021 Moret\n*/\n\npragma solidity 0.8.9;\nimport \"@openzeppelin/contracts/access/AccessControl.sol\";\nimport \"@openzeppelin/contracts/utils/math/Math.sol\";\nimport \"./MoretInterfaces.sol\";\nimport \"./FullMath.sol\";\n\ncontract OptionVault is AccessControl{\n  using OptionLibrary for OptionLibrary.Option;\n  bytes32 public constant EXCHANGE_ROLE = keccak256(\"EXCHANGE_ROLE\");\n  mapping(uint256=> OptionLibrary.Option) internal optionsList;\n  uint256 public optionCounter = 0;\n  IVolatilityChain internal volatilityChain;\n\n  constructor( address _volChainAddress ){\n    _setupRole(DEFAULT_ADMIN_ROLE, msg.sender);\n    _setupRole(EXCHANGE_ROLE, msg.sender);\n    volatilityChain = IVolatilityChain(_volChainAddress); }\n  \n  function descriptionHash() external view returns (bytes32)  { return keccak256(abi.encodePacked(volatilityChain.getDecription()));}\n\n  function queryOptionCost(uint256 _strike, uint256 _amount, uint256 _vol, OptionLibrary.PayoffType _poType, OptionLibrary.OptionSide _side) external view returns(uint256 _premium, uint256 _cost, uint256 _price) {\n    (_price,) = volatilityChain.queryPrice();\n    _premium = OptionLibrary.calcPremium(_price, _vol, _strike, _poType, _amount);\n    _cost = _premium;\n    if(_side == OptionLibrary.OptionSide.Sell){\n      uint256 _notional = MulDiv(_amount, _price, OptionLibrary.Multiplier());\n      require(_notional>= _premium);\n      _cost = _notional - _premium;}}\n\n  function addOption(uint256 _tenor, uint256 _strike, uint256 _amount, OptionLibrary.PayoffType _poType, OptionLibrary.OptionSide _side, uint256 _premium, uint256 _cost, uint256 _price, uint256 _volatility) external onlyRole(EXCHANGE_ROLE) returns(uint256 _id) {\n    optionCounter++;\n    _id = optionCounter;\n    optionsList[_id] = OptionLibrary.Option(_poType, _side, OptionLibrary.OptionStatus.Draft, msg.sender, _id, block.timestamp,  0, _tenor, 0,  0, _amount, _price, _strike, _volatility, _premium, _cost);}\n\n  function getOptionHolder(uint256 _id) external view returns(address) { return optionsList[_id].holder;}\n  function queryOptionPremium(uint256 _id) external view returns(uint256) {return optionsList[_id].premium;}\n\n  function queryOptionNotional(uint256 _id, bool _ignoreSells) external view returns(uint256 _notional){\n    _notional=optionsList[_id].amount;\n    if(optionsList[_id].side==OptionLibrary.OptionSide.Sell && _ignoreSells){_notional=0;}}\n\n  function getContractPayoff(uint256 _id) external view returns(uint256 _payoff, uint256 _payback){\n    (uint256 _price,) = volatilityChain.queryPrice();\n    _payoff = optionsList[_id].calcPayoff(_price);\n    _payback = _payoff;\n    if(optionsList[_id].side == OptionLibrary.OptionSide.Sell){ \n      uint256 _notional = optionsList[_id].calcNotionalExposure(_price);\n      require(_notional >= _payoff, \"Payoff incorrect.\");\n      _payback = _notional - _payoff;}}\n\n  function calculateContractDelta(uint256 _id, uint256 _price, bool _ignoreSells) external view returns(int256 _delta){\n    _delta = 0;\n    if(optionsList[_id].status== OptionLibrary.OptionStatus.Active && !(_ignoreSells && optionsList[_id].side==OptionLibrary.OptionSide.Sell)){\n      uint256 _vol = volatilityChain.getVol(optionsList[_id].maturity - Math.min(optionsList[_id].maturity, block.timestamp));\n      _delta = int256(MulDiv(OptionLibrary.calcDelta(_price, optionsList[_id].strike, _vol), optionsList[_id].amount, OptionLibrary.Multiplier() ));\n      if(optionsList[_id].poType==OptionLibrary.PayoffType.Put) {_delta = -int256(optionsList[_id].amount) + _delta; }\n      if(optionsList[_id].side==OptionLibrary.OptionSide.Sell){ _delta = -_delta;}}}\n    \n  function calculateContractGamma(uint256 _id, uint256 _price, bool _ignoreSells) external view returns(int256 _gamma){\n    _gamma = 0;\n    if(optionsList[_id].status== OptionLibrary.OptionStatus.Active && !(_ignoreSells && optionsList[_id].side==OptionLibrary.OptionSide.Sell)){\n      uint256 _vol = volatilityChain.getVol(optionsList[_id].maturity - Math.min(optionsList[_id].maturity, block.timestamp));\n      _gamma = int256(MulDiv(OptionLibrary.calcGamma(_price, optionsList[_id].strike, _vol), optionsList[_id].amount, OptionLibrary.Multiplier() ));\n      if(optionsList[_id].side==OptionLibrary.OptionSide.Sell){ _gamma = -_gamma;}}}\n      \n  function calculateSpotGamma() external view returns(int256 _gamma){\n    uint256 _vol = volatilityChain.getVol(86400);\n    _gamma = int256(OptionLibrary.calcGamma(OptionLibrary.Multiplier(), OptionLibrary.Multiplier(), _vol));}\n    \n  // function validateOption(uint256 _id, address _holder) external view {\n  //   require(optionsList[_id].holder== _holder, \"Not the owner.\");\n  //   require(optionsList[_id].maturity >= block.timestamp, \"Option has expired.\");\n  //   require(optionsList[_id].status==OptionLibrary.OptionStatus.Active, \"Not active option.\");}\n\n  function isOptionExpiring(uint256 _id) external view returns (bool){ return (optionsList[_id].status== OptionLibrary.OptionStatus.Active) && (optionsList[_id].maturity <= block.timestamp);}\n\n  function stampActiveOption(uint256 _id) external onlyRole(EXCHANGE_ROLE) {\n    optionsList[_id].effectiveTime = block.timestamp;\n    optionsList[_id].maturity = optionsList[_id].effectiveTime + optionsList[_id].tenor;\n    optionsList[_id].status = OptionLibrary.OptionStatus.Active;}\n\n  // function stampExercisedOption(uint256 _id) external onlyRole(EXCHANGE_ROLE){\n  //     optionsList[_id].exerciseTime = block.timestamp;\n  //     optionsList[_id].status = OptionLibrary.OptionStatus.Exercised;}\n\n  function stampExpiredOption(uint256 _id)  external onlyRole(EXCHANGE_ROLE){\n    optionsList[_id].exerciseTime = block.timestamp;\n    optionsList[_id].status = OptionLibrary.OptionStatus.Expired;}\n\n  function getOption(uint256 _id) external view returns(OptionLibrary.Option memory) {return optionsList[_id];}\n  function queryVol(uint256 _tenor) external view returns(uint256){return volatilityChain.getVol(_tenor);}\n  function queryPrice() external view returns(uint256, uint256){return volatilityChain.queryPrice();}\n  // function priceDecimals() external view returns(uint256) {return volatilityChain.getPriceDecimals();}\n}\n",
  "sourcePath": "/Users/apple/Documents/GitHub/moret/contracts/OptionVault.sol",
  "compiler": {
    "name": "solc",
    "version": "0.8.9+commit.e5eed63a.Emscripten.clang"
  },
  "schemaVersion": "3.4.3",
  "updatedAt": "2021-11-07T19:48:05.921Z",
  "devdoc": {
    "kind": "dev",
    "methods": {
      "getRoleAdmin(bytes32)": {
        "details": "Returns the admin role that controls `role`. See {grantRole} and {revokeRole}. To change a role's admin, use {_setRoleAdmin}."
      },
      "grantRole(bytes32,address)": {
        "details": "Grants `role` to `account`. If `account` had not been already granted `role`, emits a {RoleGranted} event. Requirements: - the caller must have ``role``'s admin role."
      },
      "hasRole(bytes32,address)": {
        "details": "Returns `true` if `account` has been granted `role`."
      },
      "renounceRole(bytes32,address)": {
        "details": "Revokes `role` from the calling account. Roles are often managed via {grantRole} and {revokeRole}: this function's purpose is to provide a mechanism for accounts to lose their privileges if they are compromised (such as when a trusted device is misplaced). If the calling account had been granted `role`, emits a {RoleRevoked} event. Requirements: - the caller must be `account`."
      },
      "revokeRole(bytes32,address)": {
        "details": "Revokes `role` from `account`. If `account` had been granted `role`, emits a {RoleRevoked} event. Requirements: - the caller must have ``role``'s admin role."
      },
      "supportsInterface(bytes4)": {
        "details": "See {IERC165-supportsInterface}."
      }
    },
    "version": 1
  },
  "userdoc": {
    "kind": "user",
    "methods": {},
    "version": 1
  }
}