{
  "contractName": "OptionLibrary",
  "abi": [
    {
      "inputs": [],
      "name": "DefaultDecimals",
      "outputs": [
        {
          "internalType": "uint256",
          "name": "",
          "type": "uint256"
        }
      ],
      "stateMutability": "view",
      "type": "function"
    },
    {
      "inputs": [],
      "name": "DefaultMultiplier",
      "outputs": [
        {
          "internalType": "uint256",
          "name": "",
          "type": "uint256"
        }
      ],
      "stateMutability": "view",
      "type": "function"
    },
    {
      "inputs": [],
      "name": "Multiplier",
      "outputs": [
        {
          "internalType": "uint256",
          "name": "",
          "type": "uint256"
        }
      ],
      "stateMutability": "pure",
      "type": "function"
    },
    {
      "inputs": [],
      "name": "Decimals",
      "outputs": [
        {
          "internalType": "uint256",
          "name": "",
          "type": "uint256"
        }
      ],
      "stateMutability": "pure",
      "type": "function"
    },
    {
      "inputs": [
        {
          "internalType": "uint256",
          "name": "_rawData",
          "type": "uint256"
        },
        {
          "internalType": "uint256",
          "name": "_rawDataDecimals",
          "type": "uint256"
        }
      ],
      "name": "ToDefaultDecimals",
      "outputs": [
        {
          "internalType": "uint256",
          "name": "",
          "type": "uint256"
        }
      ],
      "stateMutability": "pure",
      "type": "function"
    },
    {
      "inputs": [
        {
          "internalType": "uint256",
          "name": "_rawData",
          "type": "uint256"
        },
        {
          "internalType": "uint256",
          "name": "_rawDataDecimals",
          "type": "uint256"
        }
      ],
      "name": "ToCustomDecimals",
      "outputs": [
        {
          "internalType": "uint256",
          "name": "",
          "type": "uint256"
        }
      ],
      "stateMutability": "pure",
      "type": "function"
    },
    {
      "inputs": [
        {
          "internalType": "uint256",
          "name": "_price",
          "type": "uint256"
        },
        {
          "internalType": "uint256",
          "name": "_volatility",
          "type": "uint256"
        },
        {
          "internalType": "uint256",
          "name": "_strike",
          "type": "uint256"
        },
        {
          "internalType": "enum OptionLibrary.PayoffType",
          "name": "_poType",
          "type": "OptionLibrary.PayoffType"
        },
        {
          "internalType": "uint256",
          "name": "_amount",
          "type": "uint256"
        }
      ],
      "name": "calcPremium",
      "outputs": [
        {
          "internalType": "uint256",
          "name": "",
          "type": "uint256"
        }
      ],
      "stateMutability": "pure",
      "type": "function"
    },
    {
      "inputs": [
        {
          "internalType": "uint256",
          "name": "_price",
          "type": "uint256"
        },
        {
          "internalType": "uint256",
          "name": "_strike",
          "type": "uint256"
        },
        {
          "internalType": "uint256",
          "name": "_amount",
          "type": "uint256"
        },
        {
          "internalType": "uint256",
          "name": "_vol",
          "type": "uint256"
        },
        {
          "internalType": "enum OptionLibrary.PayoffType",
          "name": "_poType",
          "type": "OptionLibrary.PayoffType"
        },
        {
          "internalType": "enum OptionLibrary.OptionSide",
          "name": "_side",
          "type": "OptionLibrary.OptionSide"
        }
      ],
      "name": "calcOptionCost",
      "outputs": [
        {
          "internalType": "uint256",
          "name": "_premium",
          "type": "uint256"
        },
        {
          "internalType": "uint256",
          "name": "_cost",
          "type": "uint256"
        }
      ],
      "stateMutability": "pure",
      "type": "function"
    },
    {
      "inputs": [
        {
          "internalType": "uint256",
          "name": "_price",
          "type": "uint256"
        },
        {
          "internalType": "uint256",
          "name": "_strike",
          "type": "uint256"
        },
        {
          "internalType": "uint256",
          "name": "_vol",
          "type": "uint256"
        }
      ],
      "name": "calcDelta",
      "outputs": [
        {
          "internalType": "uint256",
          "name": "_delta",
          "type": "uint256"
        }
      ],
      "stateMutability": "pure",
      "type": "function"
    },
    {
      "inputs": [
        {
          "internalType": "uint256",
          "name": "_price",
          "type": "uint256"
        },
        {
          "internalType": "uint256",
          "name": "_strike",
          "type": "uint256"
        },
        {
          "internalType": "uint256",
          "name": "_vol",
          "type": "uint256"
        }
      ],
      "name": "calcGamma",
      "outputs": [
        {
          "internalType": "uint256",
          "name": "_gamma",
          "type": "uint256"
        }
      ],
      "stateMutability": "pure",
      "type": "function"
    },
    {
      "inputs": [
        {
          "internalType": "uint256",
          "name": "_strike",
          "type": "uint256"
        },
        {
          "internalType": "enum OptionLibrary.PayoffType",
          "name": "_poType",
          "type": "OptionLibrary.PayoffType"
        },
        {
          "internalType": "enum OptionLibrary.OptionSide",
          "name": "_side",
          "type": "OptionLibrary.OptionSide"
        },
        {
          "internalType": "uint256",
          "name": "_slippage",
          "type": "uint256"
        },
        {
          "internalType": "uint256",
          "name": "_loanInterest",
          "type": "uint256"
        }
      ],
      "name": "adjustStrike",
      "outputs": [
        {
          "internalType": "uint256",
          "name": "_adjustedStrike",
          "type": "uint256"
        }
      ],
      "stateMutability": "pure",
      "type": "function"
    },
    {
      "inputs": [
        {
          "internalType": "uint256",
          "name": "_amount",
          "type": "uint256"
        },
        {
          "internalType": "bool",
          "name": "_adjustUpward",
          "type": "bool"
        },
        {
          "internalType": "uint256",
          "name": "_slippage",
          "type": "uint256"
        },
        {
          "internalType": "uint256",
          "name": "_loanInterest",
          "type": "uint256"
        }
      ],
      "name": "adjustSlippage",
      "outputs": [
        {
          "internalType": "uint256",
          "name": "_adjustedAmount",
          "type": "uint256"
        }
      ],
      "stateMutability": "pure",
      "type": "function"
    },
    {
      "inputs": [
        {
          "internalType": "int256",
          "name": "_amount",
          "type": "int256"
        },
        {
          "internalType": "uint256",
          "name": "_price",
          "type": "uint256"
        },
        {
          "internalType": "uint256",
          "name": "_slippage",
          "type": "uint256"
        }
      ],
      "name": "getOpposeTrade",
      "outputs": [
        {
          "internalType": "int256",
          "name": "_oppositeAmount",
          "type": "int256"
        }
      ],
      "stateMutability": "pure",
      "type": "function"
    }
  ],
  "bytecode": "0x613f76610053600b82828239805160001a607314610046577f4e487b7100000000000000000000000000000000000000000000000000000000600052600060045260246000fd5b30600052607381538281f3fe73000000000000000000000000000000000000000030146080604052600436106100ff5760003560e01c806390829f91116100a1578063c6ceb50b11610070578063c6ceb50b14610303578063ca0cc13d14610321578063e9ef55ca14610351578063fd9b87631461036f576100ff565b806390829f91146102425780639932b2be14610273578063a69d3ae0146102a3578063bde840ed146102d3576100ff565b806324f64345116100dd57806324f64345146101945780634ea26ca4146101c4578063508cd14e146101f45780638d2c3b3414610224576100ff565b80630862958b14610104578063092f957a1461013457806323a00f6514610164575b600080fd5b61011e600480360381019061011991906134db565b61038d565b60405161012b919061352a565b60405180910390f35b61014e60048036038101906101499190613545565b6103ae565b60405161015b919061352a565b60405180910390f35b61017e60048036038101906101799190613585565b6103ea565b60405161018b919061352a565b60405180910390f35b6101ae60048036038101906101a991906135fd565b61049c565b6040516101bb919061352a565b60405180910390f35b6101de60048036038101906101d9919061369d565b6104e8565b6040516101eb919061352a565b60405180910390f35b61020e60048036038101906102099190613750565b6105cd565b60405161021b919061352a565b60405180910390f35b61022c61064d565b604051610239919061352a565b60405180910390f35b61025c600480360381019061025791906137b7565b610659565b60405161026a929190613844565b60405180910390f35b61028d60048036038101906102889190613585565b610772565b60405161029a919061352a565b60405180910390f35b6102bd60048036038101906102b891906134db565b610848565b6040516102ca919061352a565b60405180910390f35b6102ed60048036038101906102e89190613545565b610877565b6040516102fa919061352a565b60405180910390f35b61030b6108b3565b604051610318919061352a565b60405180910390f35b61033b600480360381019061033691906138a3565b6108bc565b6040516103489190613905565b60405180910390f35b61035961093d565b604051610366919061352a565b60405180910390f35b610377610942565b604051610384919061352a565b60405180910390f35b60006103a6836007015483670de0b6b3a7640000610952565b905092915050565b600081601210156103be57600080fd5b8160126103cb919061394f565b600a6103d79190613ab6565b836103e29190613b30565b905092915050565b60008061040085670de0b6b3a764000086610952565b905060006002846104119190613b30565b610438670de0b6b3a764000060026104299190613b61565b670de0b6b3a764000087610952565b610472670de0b6b3a764000060026104509190613b61565b61046c670de0b6b3a7640000876104679190613b61565b610a4e565b88610952565b61047c9190613bbb565b6104869190613c4f565b905061049181610c01565b925050509392505050565b6000806104ab8588858761206c565b905060006104cd6104be878a8a8861211e565b89670de0b6b3a7640000610952565b905080826104db9190613ce3565b9250505095945050505050565b60006104f88660008560006105cd565b905060018081111561050d5761050c613d39565b5b8560018111156105205761051f613d39565b5b14801561055157506000600181111561053c5761053b613d39565b5b84600181111561054f5761054e613d39565b5b145b806105af57506000600181111561056b5761056a613d39565b5b85600181111561057e5761057d613d39565b5b1480156105ae575060018081111561059957610598613d39565b5b8460018111156105ac576105ab613d39565b5b145b5b156105c4576105c186600185856105cd565b90505b95945050505050565b6000849050831561060c57610609858385670de0b6b3a76400006105f19190613ce3565b6105fb9190613ce3565b670de0b6b3a7640000610952565b90505b836106455761064285670de0b6b3a76400008486670de0b6b3a76400006106339190613ce3565b61063d9190613ce3565b610952565b90505b949350505050565b670de0b6b3a764000081565b600080610669888689878a61049c565b915081905060018081111561068157610680613d39565b5b83600181111561069457610693613d39565b5b1480156106c457506001808111156106af576106ae613d39565b5b8460018111156106c2576106c1613d39565b5b145b156106ea57806106dd8789670de0b6b3a7640000610952565b6106e7919061394f565b90505b6001808111156106fd576106fc613d39565b5b8360018111156107105761070f613d39565b5b14801561074157506000600181111561072c5761072b613d39565b5b84600181111561073f5761073e613d39565b5b145b15610767578061075a878a670de0b6b3a7640000610952565b610764919061394f565b90505b965096945050505050565b60008061078885670de0b6b3a764000086610952565b905060006002846107999190613b30565b6107c0670de0b6b3a764000060026107b19190613b61565b670de0b6b3a764000087610952565b6107fa670de0b6b3a764000060026107d89190613b61565b6107f4670de0b6b3a7640000876107ef9190613b61565b610a4e565b88610952565b6108049190613bbb565b61080e9190613c4f565b905061083d61082e61081f8361224c565b670de0b6b3a764000089610952565b670de0b6b3a764000086610952565b925050509392505050565b600061086f83600901548385600701548660000160009054906101000a900460ff1661206c565b905092915050565b6000816012101561088757600080fd5b816012610894919061394f565b600a6108a09190613ab6565b836108ab9190613b61565b905092915050565b60006012905090565b6000808412156108cd5760016108ef565b7fffffffffffffffffffffffffffffffffffffffffffffffffffffffffffffffff5b61092a61091b600087121561090d578661090890613d68565b61090f565b865b600088138660006105cd565b85670de0b6b3a7640000610952565b6109349190613db1565b90509392505050565b601281565b6000670de0b6b3a7640000905090565b60008060008019858709858702925082811083820303915050600081141561098d576000841161098157600080fd5b83820492505050610a47565b80841161099957600080fd5b60008486880990508281118203915080830392506000856001877fffffffffffffffffffffffffffffffffffffffffffffffffffffffffffffffff0301169050808604955080840493506001818260000304019050808302841793506000600287600302189050808702600203810290508087026002038102905080870260020381029050808702600203810290508087026002038102905080870260020381029050808502955050505050505b9392505050565b600080821415610a615760009050610bfc565b6000829050600191507001000000000000000000000000000000008110610a9157608081901c9050604082901b91505b680100000000000000008110610ab057604081901c9050602082901b91505b6401000000008110610acb57602081901c9050601082901b91505b620100008110610ae457601081901c9050600882901b91505b6101008110610afc57600881901c9050600482901b91505b60108110610b1357600481901c9050600282901b91505b60088110610b2357600182901b91505b6001828481610b3557610b34613b01565b5b048301901c91506001828481610b4e57610b4d613b01565b5b048301901c91506001828481610b6757610b66613b01565b5b048301901c91506001828481610b8057610b7f613b01565b5b048301901c91506001828481610b9957610b98613b01565b5b048301901c91506001828481610bb257610bb1613b01565b5b048301901c91506001828481610bcb57610bca613b01565b5b048301901c91506000828481610be457610be3613b01565b5b04905080831015610bf55782610bf7565b805b925050505b919050565b60008060405180610b2001604052807fffffffffffffffffffffffffffffffffffffffffffffffff2fd54b793124000060080b81526020017fffffffffffffffffffffffffffffffffffffffffffffffff3db6022cd888000060080b81526020017fffffffffffffffffffffffffffffffffffffffffffffffff4b96b8e07fec000060080b81526020017fffffffffffffffffffffffffffffffffffffffffffffffff59776f942750000060080b81526020017fffffffffffffffffffffffffffffffffffffffffffffffff67582647ceb4000060080b81526020017fffffffffffffffffffffffffffffffffffffffffffffffff7538dcfb7618000060080b81526020017fffffffffffffffffffffffffffffffffffffffffffffffff831993af1d7c000060080b81526020017fffffffffffffffffffffffffffffffffffffffffffffffff90fa4a62c4e0000060080b81526020017fffffffffffffffffffffffffffffffffffffffffffffffff9edb01166c44000060080b81526020017fffffffffffffffffffffffffffffffffffffffffffffffffacbbb7ca13a8000060080b81526020017fffffffffffffffffffffffffffffffffffffffffffffffffba9c6e7dbb0c000060080b81526020017fffffffffffffffffffffffffffffffffffffffffffffffffc18cc9d78ebe000060080b81526020017fffffffffffffffffffffffffffffffffffffffffffffffffc87d25316270000060080b81526020017fffffffffffffffffffffffffffffffffffffffffffffffffcf6d808b3622000060080b81526020017fffffffffffffffffffffffffffffffffffffffffffffffffd65ddbe509d4000060080b81526020017fffffffffffffffffffffffffffffffffffffffffffffffffd7c1215d675e000060080b81526020017fffffffffffffffffffffffffffffffffffffffffffffffffd92466d5c4e8000060080b81526020017fffffffffffffffffffffffffffffffffffffffffffffffffda87ac4e2272000060080b81526020017fffffffffffffffffffffffffffffffffffffffffffffffffdbeaf1c67ffc000060080b81526020017fffffffffffffffffffffffffffffffffffffffffffffffffdd4e373edd86000060080b81526020017fffffffffffffffffffffffffffffffffffffffffffffffffdeb17cb73b10000060080b81526020017fffffffffffffffffffffffffffffffffffffffffffffffffe014c22f989a000060080b81526020017fffffffffffffffffffffffffffffffffffffffffffffffffe17807a7f624000060080b81526020017fffffffffffffffffffffffffffffffffffffffffffffffffe2db4d2053ae000060080b81526020017fffffffffffffffffffffffffffffffffffffffffffffffffe43e9298b138000060080b81526020017fffffffffffffffffffffffffffffffffffffffffffffffffe5a1d8110ec2000060080b81526020017fffffffffffffffffffffffffffffffffffffffffffffffffe7051d896c4c000060080b81526020017fffffffffffffffffffffffffffffffffffffffffffffffffe8686301c9d6000060080b81526020017fffffffffffffffffffffffffffffffffffffffffffffffffe9cba87a2760000060080b81526020017fffffffffffffffffffffffffffffffffffffffffffffffffeb2eedf284ea000060080b81526020017fffffffffffffffffffffffffffffffffffffffffffffffffec92336ae274000060080b81526020017fffffffffffffffffffffffffffffffffffffffffffffffffedf578e33ffe000060080b81526020017fffffffffffffffffffffffffffffffffffffffffffffffffef58be5b9d88000060080b81526020017ffffffffffffffffffffffffffffffffffffffffffffffffff0bc03d3fb12000060080b81526020017ffffffffffffffffffffffffffffffffffffffffffffffffff21f494c589c000060080b81526020017ffffffffffffffffffffffffffffffffffffffffffffffffff3828ec4b626000060080b81526020017ffffffffffffffffffffffffffffffffffffffffffffffffff4e5d43d13b0000060080b81526020017ffffffffffffffffffffffffffffffffffffffffffffffffff64919b5713a000060080b81526020017ffffffffffffffffffffffffffffffffffffffffffffffffff7ac5f2dcec4000060080b81526020017ffffffffffffffffffffffffffffffffffffffffffffffffff90fa4a62c4e000060080b81526020017ffffffffffffffffffffffffffffffffffffffffffffffffffa72ea1e89d8000060080b81526020017ffffffffffffffffffffffffffffffffffffffffffffffffffbd62f96e762000060080b81526020017ffffffffffffffffffffffffffffffffffffffffffffffffffd39750f44ec000060080b81526020017ffffffffffffffffffffffffffffffffffffffffffffffffffe9cba87a276000060080b8152602001600060080b815260200167016345785d8a000060080b81526020016702c68af0bb14000060080b8152602001670429d069189e000060080b815260200167058d15e17628000060080b81526020016706f05b59d3b2000060080b8152602001670853a0d2313c000060080b81526020016709b6e64a8ec6000060080b8152602001670b1a2bc2ec50000060080b8152602001670c7d713b49da000060080b8152602001670de0b6b3a764000060080b8152602001670f43fc2c04ee000060080b81526020016710a741a46278000060080b815260200167120a871cc002000060080b815260200167136dcc951d8c000060080b81526020016714d1120d7b16000060080b81526020016716345785d8a0000060080b81526020016717979cfe362a000060080b81526020016718fae27693b4000060080b8152602001671a5e27eef13e000060080b8152602001671bc16d674ec8000060080b8152602001671d24b2dfac52000060080b8152602001671e87f85809dc000060080b8152602001671feb3dd06766000060080b815260200167214e8348c4f0000060080b81526020016722b1c8c1227a000060080b81526020016724150e398004000060080b815260200167257853b1dd8e000060080b81526020016726db992a3b18000060080b815260200167283edea298a2000060080b81526020016729a2241af62c000060080b81526020016730927f74c9de000060080b8152602001673782dace9d90000060080b8152602001673e7336287142000060080b8152602001674563918244f4000060080b81526020016753444835ec58000060080b8152602001676124fee993bc000060080b8152602001676f05b59d3b20000060080b8152602001677ce66c50e284000060080b8152602001678ac7230489e8000060080b81526020016798a7d9b8314c000060080b815260200167a688906bd8b0000060080b815260200167b469471f8014000060080b815260200167c249fdd32778000060080b815260200167d02ab486cedc000060080b8152509050600060405180610b200160405280600067ffffffffffffffff1681526020016302ac265467ffffffffffffffff168152602001630ea87f4067ffffffffffffffff168152602001635066183867ffffffffffffffff1681526020016401b8fadbca67ffffffffffffffff168152602001640972bbc11467ffffffffffffffff1681526020016433d28609ff67ffffffffffffffff16815260200165011c3d90be9867ffffffffffffffff168152602001650617061e622b67ffffffffffffffff168152602001652166d7d7e58067ffffffffffffffff16815260200165b72cd961350a67ffffffffffffffff1681526020016601ace0ccb0ffd267ffffffffffffffff1681526020016603ebcac407bfa667ffffffffffffffff16815260200166092b644ed8971c67ffffffffffffffff168152602001661566963940bcf867ffffffffffffffff168152602001661957d7dbe793c467ffffffffffffffff168152602001661e0171808fc27467ffffffffffffffff1681526020016623846cc5efa3ce67ffffffffffffffff168152602001662a077e40df04f467ffffffffffffffff1681526020016631b7e487e8c6a067ffffffffffffffff168152602001663aca5f1113221467ffffffffffffffff16815260200166457c3aeabd4c2867ffffffffffffffff16815260200166521470d9790d5067ffffffffffffffff1681526020016660e4ccd85770fc67ffffffffffffffff16815260200166724b1217ecac5c67ffffffffffffffff1681526020016686b20819b6c83067ffffffffffffffff168152602001669e92552cde3d5467ffffffffffffffff16815260200166ba730044d8b20c67ffffffffffffffff16815260200166dae96810784be067ffffffffffffffff16815260200167010098700b8a077c67ffffffffffffffff16815260200167012c2e976c17d5e067ffffffffffffffff16815260200167015e62a3c6761e6c67ffffffffffffffff168152602001670197ee85e83622c067ffffffffffffffff1681526020016701d98828005076f867ffffffffffffffff168152602001670223d7ef126f75f867ffffffffffffffff1681526020016702776ced5782cd9867ffffffffffffffff1681526020016702d4af13f69d342067ffffffffffffffff16815260200167033bd01fb85ed9e067ffffffffffffffff1681526020016703acbc7c7ede19a067ffffffffffffffff1681526020016704270dd934bc304067ffffffffffffffff1681526020016704aa0180a81000d067ffffffffffffffff168152602001670534749bef40ff6867ffffffffffffffff1681526020016705c4e8260172086067ffffffffffffffff1681526020016706598d804261481067ffffffffffffffff1681526020016706f05b59d3b2000067ffffffffffffffff16815260200167078729336502b7f067ffffffffffffffff16815260200167081bce8da5f1f7a067ffffffffffffffff1681526020016708ac4217b823009867ffffffffffffffff168152602001670936b532ff53ff3067ffffffffffffffff1681526020016709b9a8da72a7cfc067ffffffffffffffff168152602001670a33fa372885e66067ffffffffffffffff168152602001670aa4e693ef05262067ffffffffffffffff168152602001670b0c079fb0c6cbe067ffffffffffffffff168152602001670b6949c64fe1326867ffffffffffffffff168152602001670bbcdec494f48a0867ffffffffffffffff168152602001670c072e8ba713890867ffffffffffffffff168152602001670c48c82dbf2ddd4067ffffffffffffffff168152602001670c82540fe0ede06867ffffffffffffffff168152602001670cb4881c3b4c289067ffffffffffffffff168152602001670ce01e439bd9f9b067ffffffffffffffff168152602001670d05cd4b96ebb35867ffffffffffffffff168152602001670d2643b3628b4f2067ffffffffffffffff168152602001670d42245e7a85c3d867ffffffffffffffff168152602001670d5a04ab8dad364067ffffffffffffffff168152602001670d6e6ba18f77534067ffffffffffffffff168152602001670d7fd1e6cf0c90f867ffffffffffffffff168152602001670d8ea242cdeaf12067ffffffffffffffff168152602001670d9b3a78bca6b3d867ffffffffffffffff168152602001670da5ec549650dbf867ffffffffffffffff168152602001670daefecf1f7b396067ffffffffffffffff168152602001670db6af356684faa867ffffffffffffffff168152602001670dbd3246e1745c0067ffffffffffffffff168152602001670dc2b54226d43d7867ffffffffffffffff168152602001670dc75edbcb7c6e3067ffffffffffffffff168152602001670dcb501d6e23444867ffffffffffffffff168152602001670dd78b4f588b699867ffffffffffffffff168152602001670ddccae8e35c416867ffffffffffffffff168152602001670ddf09d2dab3017067ffffffffffffffff168152602001670ddfff86ce02ccd067ffffffffffffffff168152602001670de0954ccf8c1b6867ffffffffffffffff168152602001670de0b09ca1459db867ffffffffffffffff168152602001670de0b59769d3424067ffffffffffffffff168152602001670de0b67fd4ddf56067ffffffffffffffff168152602001670de0b6aa34a83eb867ffffffffffffffff168152602001670de0b6b1ee69256867ffffffffffffffff168152602001670de0b6b356fde86067ffffffffffffffff168152602001670de0b6b398bb7f6067ffffffffffffffff168152602001670de0b6b3a4b7db6067ffffffffffffffff168152602001670de0b6b3a764000067ffffffffffffffff16815250905060005b84838260598110611e5957611e58613ec8565b5b602002015160080b128015611e6e5750605981105b15611e86578080611e7e90613ef7565b915050611e45565b81600060598110611e9a57611e99613ec8565b5b602002015167ffffffffffffffff1693506059811415611eda5781605860598110611ec857611ec7613ec8565b5b602002015167ffffffffffffffff1693505b600081118015611eea5750605981105b156120645782600182611efd919061394f565b60598110611f0e57611f0d613ec8565b5b602002015160080b838260598110611f2957611f28613ec8565b5b602002015160080b611f3b9190613bbb565b83600183611f49919061394f565b60598110611f5a57611f59613ec8565b5b602002015160080b86611f6d9190613bbb565b838360598110611f8057611f7f613ec8565b5b602002015167ffffffffffffffff16611f999190613b61565b611fa39190613b30565b83600183611fb1919061394f565b60598110611fc257611fc1613ec8565b5b602002015160080b848360598110611fdd57611fdc613ec8565b5b602002015160080b611fef9190613bbb565b8685846059811061200357612002613ec8565b5b602002015160080b6120159190613bbb565b84600185612023919061394f565b6059811061203457612033613ec8565b5b602002015167ffffffffffffffff1661204d9190613b61565b6120579190613b30565b6120619190613ce3565b93505b505050919050565b600080600090506000600181111561208757612086613d39565b5b83600181111561209a57612099613d39565b5b1480156120a657508585115b156120ba5785856120b7919061394f565b90505b6001808111156120cd576120cc613d39565b5b8360018111156120e0576120df613d39565b5b1480156120ec57508585105b156121005784866120fd919061394f565b90505b6121138185670de0b6b3a7640000610952565b915050949350505050565b60008083141561213057829050612244565b600084861161215d5784670de0b6b3a76400008761214e9190613b61565b6121589190613b30565b61217d565b85670de0b6b3a7640000866121729190613b61565b61217c9190613b30565b5b905060006002670de0b6b3a7640000861161219857856121a2565b670de0b6b3a76400005b6121ac9190613b30565b670de0b6b3a76400006121bf919061394f565b9050600081670de0b6b3a764000060026121d99190613b61565b6121e3919061394f565b9050600082670de0b6b3a76400006121fb919061394f565b905061223d60048761220d9190613b61565b612223838a888761221e919061394f565b610952565b670de0b6b3a7640000600a6122389190613b61565b610952565b9450505050505b949350505050565b600080604051806109e001604052807fffffffffffffffffffffffffffffffffffffffffffffffff7538dcfb7618000060080b81526020017fffffffffffffffffffffffffffffffffffffffffffffffff831993af1d7c000060080b81526020017fffffffffffffffffffffffffffffffffffffffffffffffff90fa4a62c4e0000060080b81526020017fffffffffffffffffffffffffffffffffffffffffffffffff9edb01166c44000060080b81526020017fffffffffffffffffffffffffffffffffffffffffffffffffacbbb7ca13a8000060080b81526020017fffffffffffffffffffffffffffffffffffffffffffffffffba9c6e7dbb0c000060080b81526020017fffffffffffffffffffffffffffffffffffffffffffffffffc18cc9d78ebe000060080b81526020017fffffffffffffffffffffffffffffffffffffffffffffffffc87d25316270000060080b81526020017fffffffffffffffffffffffffffffffffffffffffffffffffcf6d808b3622000060080b81526020017fffffffffffffffffffffffffffffffffffffffffffffffffd65ddbe509d4000060080b81526020017fffffffffffffffffffffffffffffffffffffffffffffffffd7c1215d675e000060080b81526020017fffffffffffffffffffffffffffffffffffffffffffffffffd92466d5c4e8000060080b81526020017fffffffffffffffffffffffffffffffffffffffffffffffffda87ac4e2272000060080b81526020017fffffffffffffffffffffffffffffffffffffffffffffffffdbeaf1c67ffc000060080b81526020017fffffffffffffffffffffffffffffffffffffffffffffffffdd4e373edd86000060080b81526020017fffffffffffffffffffffffffffffffffffffffffffffffffdeb17cb73b10000060080b81526020017fffffffffffffffffffffffffffffffffffffffffffffffffe014c22f989a000060080b81526020017fffffffffffffffffffffffffffffffffffffffffffffffffe17807a7f624000060080b81526020017fffffffffffffffffffffffffffffffffffffffffffffffffe2db4d2053ae000060080b81526020017fffffffffffffffffffffffffffffffffffffffffffffffffe43e9298b138000060080b81526020017fffffffffffffffffffffffffffffffffffffffffffffffffe5a1d8110ec2000060080b81526020017fffffffffffffffffffffffffffffffffffffffffffffffffe7051d896c4c000060080b81526020017fffffffffffffffffffffffffffffffffffffffffffffffffe8686301c9d6000060080b81526020017fffffffffffffffffffffffffffffffffffffffffffffffffe9cba87a2760000060080b81526020017fffffffffffffffffffffffffffffffffffffffffffffffffeb2eedf284ea000060080b81526020017fffffffffffffffffffffffffffffffffffffffffffffffffec92336ae274000060080b81526020017fffffffffffffffffffffffffffffffffffffffffffffffffedf578e33ffe000060080b81526020017fffffffffffffffffffffffffffffffffffffffffffffffffef58be5b9d88000060080b81526020017ffffffffffffffffffffffffffffffffffffffffffffffffff0bc03d3fb12000060080b81526020017ffffffffffffffffffffffffffffffffffffffffffffffffff21f494c589c000060080b81526020017ffffffffffffffffffffffffffffffffffffffffffffffffff3828ec4b626000060080b81526020017ffffffffffffffffffffffffffffffffffffffffffffffffff4e5d43d13b0000060080b81526020017ffffffffffffffffffffffffffffffffffffffffffffffffff64919b5713a000060080b81526020017ffffffffffffffffffffffffffffffffffffffffffffffffff7ac5f2dcec4000060080b81526020017ffffffffffffffffffffffffffffffffffffffffffffffffff90fa4a62c4e000060080b81526020017ffffffffffffffffffffffffffffffffffffffffffffffffffa72ea1e89d8000060080b81526020017ffffffffffffffffffffffffffffffffffffffffffffffffffbd62f96e762000060080b81526020017ffffffffffffffffffffffffffffffffffffffffffffffffffd39750f44ec000060080b81526020017ffffffffffffffffffffffffffffffffffffffffffffffffffe9cba87a276000060080b8152602001600060080b815260200167016345785d8a000060080b81526020016702c68af0bb14000060080b8152602001670429d069189e000060080b815260200167058d15e17628000060080b81526020016706f05b59d3b2000060080b8152602001670853a0d2313c000060080b81526020016709b6e64a8ec6000060080b8152602001670b1a2bc2ec50000060080b8152602001670c7d713b49da000060080b8152602001670de0b6b3a764000060080b8152602001670f43fc2c04ee000060080b81526020016710a741a46278000060080b815260200167120a871cc002000060080b815260200167136dcc951d8c000060080b81526020016714d1120d7b16000060080b81526020016716345785d8a0000060080b81526020016717979cfe362a000060080b81526020016718fae27693b4000060080b8152602001671a5e27eef13e000060080b8152602001671bc16d674ec8000060080b8152602001671d24b2dfac52000060080b8152602001671e87f85809dc000060080b8152602001671feb3dd06766000060080b815260200167214e8348c4f0000060080b81526020016722b1c8c1227a000060080b81526020016724150e398004000060080b815260200167257853b1dd8e000060080b81526020016726db992a3b18000060080b815260200167283edea298a2000060080b81526020016729a2241af62c000060080b81526020016730927f74c9de000060080b8152602001673782dace9d90000060080b8152602001673e7336287142000060080b8152602001674563918244f4000060080b81526020016753444835ec58000060080b8152602001676124fee993bc000060080b8152602001676f05b59d3b20000060080b8152602001677ce66c50e284000060080b8152602001678ac7230489e8000060080b81525090506000604051806109e00160405280600067ffffffffffffffff168152602001600167ffffffffffffffff1681526020016113bc67ffffffffffffffff168152602001628b628067ffffffffffffffff16815260200164016a269d6167ffffffffffffffff16815260200165015a2763786e67ffffffffffffffff168152602001650e898135fad967ffffffffffffffff1681526020016579b7c711221567ffffffffffffffff168152602001660319b3460a328067ffffffffffffffff168152602001660fbebe1e4abcda67ffffffffffffffff168152602001661525cbf4650d6a67ffffffffffffffff168152602001661c1f0fafd71f8267ffffffffffffffff168152602001662505c8f5d7564867ffffffffffffffff168152602001663041a3782b3c6067ffffffffffffffff168152602001663e45e57c6f79f467ffffffffffffffff168152602001664f8fb4e722c61467ffffffffffffffff1681526020016664a34a6e2091b067ffffffffffffffff168152602001667e07f44926b76867ffffffffffffffff168152602001669c42d8f65b8fc067ffffffffffffffff16815260200166bfd07f7c193d0467ffffffffffffffff16815260200166e91d3c634adc7867ffffffffffffffff1681526020016701187cc02c7c53f867ffffffffffffffff16815260200167014e21233880a8d867ffffffffffffffff16815260200167018a11e95542410067ffffffffffffffff1681526020016701cc239129d402a067ffffffffffffffff168152602001670213f05632568ce867ffffffffffffffff168152602001670260d2d396ab1a1867ffffffffffffffff1681526020016702b1e3302b9bdfc867ffffffffffffffff168152602001670305f76699921a5867ffffffffffffffff16815260200167035ba7178901e65867ffffffffffffffff1681526020016703b15320002fb3b867ffffffffffffffff16815260200167040530eeb0c78ef867ffffffffffffffff168152602001670455594c4a0b562867ffffffffffffffff16815260200167049fda02c5c94dc067ffffffffffffffff1681526020016704e2c98ca38496e067ffffffffffffffff16815260200167051c5bbdce29af7867ffffffffffffffff16815260200167054af6328e2fcfe067ffffffffffffffff16815260200167056d4342226b390067ffffffffffffffff168152602001670582423d210dbe2067ffffffffffffffff16815260200167058953e3ed3631a867ffffffffffffffff168152602001670582423d210dbe2067ffffffffffffffff16815260200167056d4342226b390067ffffffffffffffff16815260200167054af6328e2fcfe067ffffffffffffffff16815260200167051c5bbdce29af7867ffffffffffffffff1681526020016704e2c98ca38496e067ffffffffffffffff16815260200167049fda02c5c94dc067ffffffffffffffff168152602001670455594c4a0b562867ffffffffffffffff16815260200167040530eeb0c78ef867ffffffffffffffff1681526020016703b15320002fb3b867ffffffffffffffff16815260200167035ba7178901e65867ffffffffffffffff168152602001670305f76699921a5867ffffffffffffffff1681526020016702b1e3302b9bdfc867ffffffffffffffff168152602001670260d2d396ab1a1867ffffffffffffffff168152602001670213f05632568ce867ffffffffffffffff1681526020016701cc239129d402a067ffffffffffffffff16815260200167018a11e95542410067ffffffffffffffff16815260200167014e21233880a8d867ffffffffffffffff1681526020016701187cc02c7c53f867ffffffffffffffff16815260200166e91d3c634adc7867ffffffffffffffff16815260200166bfd07f7c193d0467ffffffffffffffff168152602001669c42d8f65b8fc067ffffffffffffffff168152602001667e07f44926b76867ffffffffffffffff1681526020016664a34a6e2091b067ffffffffffffffff168152602001664f8fb4e722c61467ffffffffffffffff168152602001663e45e57c6f79f467ffffffffffffffff168152602001663041a3782b3c6067ffffffffffffffff168152602001662505c8f5d7564867ffffffffffffffff168152602001661c1f0fafd71f8267ffffffffffffffff168152602001661525cbf4650d6a67ffffffffffffffff168152602001660fbebe1e4abcda67ffffffffffffffff168152602001660319b3460a328067ffffffffffffffff1681526020016579b7c711221567ffffffffffffffff168152602001650e898135fad967ffffffffffffffff16815260200165015a2763786e67ffffffffffffffff16815260200164016a269d6167ffffffffffffffff168152602001628b628067ffffffffffffffff1681526020016113bc67ffffffffffffffff168152602001600167ffffffffffffffff168152602001600067ffffffffffffffff168152509050600080604f9050600094505b858483604f811061327357613272613ec8565b5b602002015160080b12801561328757508082105b1561329f57818061329790613ef7565b92505061325f565b808214156132d857826001836132b5919061394f565b604f81106132c6576132c5613ec8565b5b602002015167ffffffffffffffff1694505b6000821180156132e757508082105b1561346157836001836132fa919061394f565b604f811061330b5761330a613ec8565b5b602002015160080b8483604f811061332657613325613ec8565b5b602002015160080b6133389190613bbb565b84600184613346919061394f565b604f811061335757613356613ec8565b5b602002015160080b8761336a9190613bbb565b8484604f811061337d5761337c613ec8565b5b602002015167ffffffffffffffff166133969190613b61565b6133a09190613b30565b846001846133ae919061394f565b604f81106133bf576133be613ec8565b5b602002015160080b8584604f81106133da576133d9613ec8565b5b602002015160080b6133ec9190613bbb565b878685604f8110613400576133ff613ec8565b5b602002015160080b6134129190613bbb565b85600186613420919061394f565b604f811061343157613430613ec8565b5b602002015167ffffffffffffffff1661344a9190613b61565b6134549190613b30565b61345e9190613ce3565b94505b50505050919050565b600080fd5b6000819050919050565b6134828161346f565b811461348d57600080fd5b50565b60008135905061349f81613479565b92915050565b6000819050919050565b6134b8816134a5565b81146134c357600080fd5b50565b6000813590506134d5816134af565b92915050565b600080604083850312156134f2576134f161346a565b5b600061350085828601613490565b9250506020613511858286016134c6565b9150509250929050565b613524816134a5565b82525050565b600060208201905061353f600083018461351b565b92915050565b6000806040838503121561355c5761355b61346a565b5b600061356a858286016134c6565b925050602061357b858286016134c6565b9150509250929050565b60008060006060848603121561359e5761359d61346a565b5b60006135ac868287016134c6565b93505060206135bd868287016134c6565b92505060406135ce868287016134c6565b9150509250925092565b600281106135e557600080fd5b50565b6000813590506135f7816135d8565b92915050565b600080600080600060a086880312156136195761361861346a565b5b6000613627888289016134c6565b9550506020613638888289016134c6565b9450506040613649888289016134c6565b935050606061365a888289016135e8565b925050608061366b888289016134c6565b9150509295509295909350565b6002811061368557600080fd5b50565b60008135905061369781613678565b92915050565b600080600080600060a086880312156136b9576136b861346a565b5b60006136c7888289016134c6565b95505060206136d8888289016135e8565b94505060406136e988828901613688565b93505060606136fa888289016134c6565b925050608061370b888289016134c6565b9150509295509295909350565b60008115159050919050565b61372d81613718565b811461373857600080fd5b50565b60008135905061374a81613724565b92915050565b6000806000806080858703121561376a5761376961346a565b5b6000613778878288016134c6565b94505060206137898782880161373b565b935050604061379a878288016134c6565b92505060606137ab878288016134c6565b91505092959194509250565b60008060008060008060c087890312156137d4576137d361346a565b5b60006137e289828a016134c6565b96505060206137f389828a016134c6565b955050604061380489828a016134c6565b945050606061381589828a016134c6565b935050608061382689828a016135e8565b92505060a061383789828a01613688565b9150509295509295509295565b6000604082019050613859600083018561351b565b613866602083018461351b565b9392505050565b6000819050919050565b6138808161386d565b811461388b57600080fd5b50565b60008135905061389d81613877565b92915050565b6000806000606084860312156138bc576138bb61346a565b5b60006138ca8682870161388e565b93505060206138db868287016134c6565b92505060406138ec868287016134c6565b9150509250925092565b6138ff8161386d565b82525050565b600060208201905061391a60008301846138f6565b92915050565b7f4e487b7100000000000000000000000000000000000000000000000000000000600052601160045260246000fd5b600061395a826134a5565b9150613965836134a5565b92508282101561397857613977613920565b5b828203905092915050565b60008160011c9050919050565b6000808291508390505b60018511156139da578086048111156139b6576139b5613920565b5b60018516156139c55780820291505b80810290506139d385613983565b945061399a565b94509492505050565b6000826139f35760019050613aaf565b81613a015760009050613aaf565b8160018114613a175760028114613a2157613a50565b6001915050613aaf565b60ff841115613a3357613a32613920565b5b8360020a915084821115613a4a57613a49613920565b5b50613aaf565b5060208310610133831016604e8410600b8410161715613a855782820a905083811115613a8057613a7f613920565b5b613aaf565b613a928484846001613990565b92509050818404811115613aa957613aa8613920565b5b81810290505b9392505050565b6000613ac1826134a5565b9150613acc836134a5565b9250613af97fffffffffffffffffffffffffffffffffffffffffffffffffffffffffffffffff84846139e3565b905092915050565b7f4e487b7100000000000000000000000000000000000000000000000000000000600052601260045260246000fd5b6000613b3b826134a5565b9150613b46836134a5565b925082613b5657613b55613b01565b5b828204905092915050565b6000613b6c826134a5565b9150613b77836134a5565b9250817fffffffffffffffffffffffffffffffffffffffffffffffffffffffffffffffff0483118215151615613bb057613baf613920565b5b828202905092915050565b6000613bc68261386d565b9150613bd18361386d565b9250827f800000000000000000000000000000000000000000000000000000000000000001821260008412151615613c0c57613c0b613920565b5b827f7fffffffffffffffffffffffffffffffffffffffffffffffffffffffffffffff018213600084121615613c4457613c43613920565b5b828203905092915050565b6000613c5a8261386d565b9150613c658361386d565b9250817f7fffffffffffffffffffffffffffffffffffffffffffffffffffffffffffffff03831360008312151615613ca057613c9f613920565b5b817f8000000000000000000000000000000000000000000000000000000000000000038312600083121615613cd857613cd7613920565b5b828201905092915050565b6000613cee826134a5565b9150613cf9836134a5565b9250827fffffffffffffffffffffffffffffffffffffffffffffffffffffffffffffffff03821115613d2e57613d2d613920565b5b828201905092915050565b7f4e487b7100000000000000000000000000000000000000000000000000000000600052602160045260246000fd5b6000613d738261386d565b91507f8000000000000000000000000000000000000000000000000000000000000000821415613da657613da5613920565b5b816000039050919050565b6000613dbc8261386d565b9150613dc78361386d565b9250827f7fffffffffffffffffffffffffffffffffffffffffffffffffffffffffffffff0482116000841360008413161615613e0657613e05613920565b5b817f80000000000000000000000000000000000000000000000000000000000000000583126000841260008413161615613e4357613e42613920565b5b827f80000000000000000000000000000000000000000000000000000000000000000582126000841360008412161615613e8057613e7f613920565b5b827f7fffffffffffffffffffffffffffffffffffffffffffffffffffffffffffffff0582126000841260008412161615613ebd57613ebc613920565b5b828202905092915050565b7f4e487b7100000000000000000000000000000000000000000000000000000000600052603260045260246000fd5b6000613f02826134a5565b91507fffffffffffffffffffffffffffffffffffffffffffffffffffffffffffffffff821415613f3557613f34613920565b5b60018201905091905056fea2646970667358221220558341833ed5f9343e2df4896b6ff8ae89ce700f56f12ebd11c1ea21c46e6a5564736f6c634300080a0033",
  "immutableReferences": {},
  "source": "/**\n * SPDX-License-Identifier: GPL-3.0-or-later\n * Moret\n * Copyright (C) 2021 Moret\n*/\n\npragma solidity 0.8.10;\n\nimport \"./FullMath.sol\";\nimport \"prb-math/contracts/PRBMath.sol\";\n\nlibrary OptionLibrary {\n  using PRBMath for uint256;\n  enum PayoffType { Call, Put}\n  enum OptionSide{ Buy, Sell}\n  enum OptionStatus { Draft, Active, Exercised, Expired}\n  struct Option { PayoffType poType; OptionSide side; OptionStatus status; address holder; uint256 id; uint256 createTime; uint256 effectiveTime; uint256 tenor; uint256 maturity; uint256 exerciseTime; uint256 amount;uint256 spot;uint256 strike;uint256 volatility;uint256 premium;uint256 cost;}\n  struct Percent{ uint256 numerator; uint256 denominator;}\n  uint256 public constant DefaultMultiplier  = 10 ** 18;\n  uint256 public constant DefaultDecimals = 18;\n\n  function Multiplier() public pure returns (uint256){return DefaultMultiplier;}\n  function Decimals() public pure returns (uint256) {return DefaultDecimals;}\n  function ToDefaultDecimals(uint256 _rawData, uint256 _rawDataDecimals) public pure returns(uint256){\n    require(DefaultDecimals >= _rawDataDecimals);\n    return _rawData * (10** (DefaultDecimals - _rawDataDecimals));}\n  function ToCustomDecimals(uint256 _rawData, uint256 _rawDataDecimals) public pure returns(uint256){\n    require(DefaultDecimals >= _rawDataDecimals);\n    return _rawData / (10** (DefaultDecimals - _rawDataDecimals));}\n\n  function calcIntrinsicValue(uint256 _strike, uint256 _price, uint256 _amount, PayoffType _poType) private pure returns(uint256){\n      uint256 _intrinsicValue = 0;\n      if((_poType == PayoffType.Call) && (_price > _strike)){ _intrinsicValue = _price - _strike; }\n      if((_poType == PayoffType.Put) && (_price<_strike)){ _intrinsicValue = _strike - _price;}\n      return MulDiv(_intrinsicValue, _amount, DefaultMultiplier); }\n\n  function calcTimeValue(uint256 _strike, uint256 _price, uint256 _volatility, uint256 _amount) private pure returns (uint256){\n    if(_volatility == 0) return _volatility;\n    uint256 _moneyness = _strike > _price? (_price * DefaultMultiplier / _strike) : (_strike * DefaultMultiplier / _price); // always in (0,1]\n    uint256 _midPoint = DefaultMultiplier - (_volatility > DefaultMultiplier? DefaultMultiplier: _volatility) / 2 ; // always in [0.5, 1]\n    uint256 _a = 2 * DefaultMultiplier - _midPoint; // always in [1, 1.5]\n    uint256 _b = DefaultMultiplier - _midPoint; // always in [0, 0.5]\n    return MulDiv(_amount * 4, MulDiv(_b,  _volatility, _a - _moneyness), 10 * DefaultMultiplier);}\n\n  function calcPremium(uint256 _price, uint256 _volatility, uint256 _strike, PayoffType _poType, uint256 _amount) public pure returns(uint256){\n      uint256 _intrinsicValue = calcIntrinsicValue(_strike, _price, _amount, _poType);\n      uint256 _timeValue = MulDiv(calcTimeValue(_strike, _price, _volatility, _amount), _price, DefaultMultiplier);\n      return _intrinsicValue + _timeValue;}\n\n  function calcOptionCost(uint256 _price, uint256 _strike, uint256 _amount, uint256 _vol, PayoffType _poType, OptionSide _side) external pure returns(uint256 _premium, uint256 _cost) {\n    _premium = calcPremium(_price, _vol, _strike, _poType, _amount);\n    _cost = _premium;\n    if(_side == OptionSide.Sell && _poType == PayoffType.Put){ _cost = MulDiv(_amount, _strike, DefaultMultiplier) - _cost;}\n    if(_side == OptionSide.Sell && _poType == PayoffType.Call){ _cost = MulDiv(_amount, _price, DefaultMultiplier) - _cost;}}\n\n  function calcPayoff(Option storage _option, uint256 _price) public view returns(uint256){\n    return calcIntrinsicValue(_option.strike, _price, _option.amount, _option.poType);}\n\n  function calcNotionalExposure(Option storage _option, uint256 _price) public view returns(uint256){ \n    return MulDiv(_option.amount, _price, DefaultMultiplier);}\n\n  function calcDelta(uint256 _price, uint256 _strike, uint256 _vol) public pure returns(uint256 _delta){\n    uint256 _moneyness = MulDiv(_price, DefaultMultiplier, _strike);\n    int256 _d = int256(MulDiv(2 * DefaultMultiplier,  (_moneyness * DefaultMultiplier).sqrt(), _vol)) - int256(MulDiv(2 * DefaultMultiplier,  DefaultMultiplier, _vol)) + int256(_vol/ 2);\n    _delta = Logistic(_d);}\n  \n  function calcGamma(uint256 _price, uint256 _strike, uint256 _vol) public pure returns(uint256 _gamma){\n    uint256 _moneyness = MulDiv(_price, DefaultMultiplier, _strike);\n    int256 _d = int256(MulDiv(2 * DefaultMultiplier,  (_moneyness * DefaultMultiplier).sqrt(), _vol)) - int256(MulDiv(2 * DefaultMultiplier,  DefaultMultiplier, _vol)) + int256(_vol/ 2);\n    _gamma = MulDiv(MulDiv(NormalDensity(_d), DefaultMultiplier, _price), DefaultMultiplier, _vol);}\n\n  function adjustStrike(uint256 _strike, PayoffType _poType, OptionSide _side, uint256 _slippage, uint256 _loanInterest) external pure returns(uint256 _adjustedStrike){\n    _adjustedStrike = adjustSlippage(_strike, false, _slippage, 0); // downward\n    if((_poType==PayoffType.Put && _side == OptionSide.Buy) || (_poType==PayoffType.Call && _side == OptionSide.Sell)){ \n      _adjustedStrike = adjustSlippage(_strike,true, _slippage, _loanInterest);} //upward\n  }\n\n  function adjustSlippage(uint256 _amount, bool _adjustUpward, uint256 _slippage, uint256 _loanInterest) public pure returns (uint256 _adjustedAmount){\n    _adjustedAmount = _amount;\n    if(_adjustUpward) _adjustedAmount = MulDiv(_amount, DefaultMultiplier + _slippage + _loanInterest, DefaultMultiplier);\n    if(!_adjustUpward) _adjustedAmount = MulDiv(_amount, DefaultMultiplier, DefaultMultiplier + _slippage+ _loanInterest);}\n\n  function getOpposeTrade(int256 _amount, uint256 _price, uint256 _slippage) external pure returns (int256 _oppositeAmount){\n    _oppositeAmount = int256(MulDiv(adjustSlippage(_amount >=0 ? uint256(_amount): uint256(-_amount), _amount>0, _slippage, 0), _price, DefaultMultiplier)) * (_amount >=0? int256(-1): int256(1));}\n\n}\n",
  "sourcePath": "/Users/mac/Documents/GitHub/moret/contracts/OptionLibrary.sol",
  "compiler": {
    "name": "solc",
    "version": "0.8.10+commit.fc410830.Emscripten.clang"
  },
  "schemaVersion": "3.4.3",
  "updatedAt": "2021-12-02T07:29:48.084Z",
  "devdoc": {
    "kind": "dev",
    "methods": {},
    "version": 1
  },
  "userdoc": {
    "kind": "user",
    "methods": {},
    "version": 1
  }
}