{
  "contractName": "OptionLibrary",
  "abi": [
    {
      "inputs": [],
      "name": "DefaultDecimals",
      "outputs": [
        {
          "internalType": "uint256",
          "name": "",
          "type": "uint256"
        }
      ],
      "stateMutability": "view",
      "type": "function"
    },
    {
      "inputs": [],
      "name": "DefaultMultiplier",
      "outputs": [
        {
          "internalType": "uint256",
          "name": "",
          "type": "uint256"
        }
      ],
      "stateMutability": "view",
      "type": "function"
    },
    {
      "inputs": [],
      "name": "Multiplier",
      "outputs": [
        {
          "internalType": "uint256",
          "name": "",
          "type": "uint256"
        }
      ],
      "stateMutability": "pure",
      "type": "function"
    },
    {
      "inputs": [],
      "name": "Decimals",
      "outputs": [
        {
          "internalType": "uint256",
          "name": "",
          "type": "uint256"
        }
      ],
      "stateMutability": "pure",
      "type": "function"
    },
    {
      "inputs": [
        {
          "internalType": "uint256",
          "name": "_rawData",
          "type": "uint256"
        },
        {
          "internalType": "uint256",
          "name": "_rawDataDecimals",
          "type": "uint256"
        }
      ],
      "name": "ToDefaultDecimals",
      "outputs": [
        {
          "internalType": "uint256",
          "name": "",
          "type": "uint256"
        }
      ],
      "stateMutability": "pure",
      "type": "function"
    },
    {
      "inputs": [
        {
          "internalType": "uint256",
          "name": "_rawData",
          "type": "uint256"
        },
        {
          "internalType": "uint256",
          "name": "_rawDataDecimals",
          "type": "uint256"
        }
      ],
      "name": "ToCustomDecimals",
      "outputs": [
        {
          "internalType": "uint256",
          "name": "",
          "type": "uint256"
        }
      ],
      "stateMutability": "pure",
      "type": "function"
    },
    {
      "inputs": [
        {
          "internalType": "uint256",
          "name": "_price",
          "type": "uint256"
        },
        {
          "internalType": "uint256",
          "name": "_volatility",
          "type": "uint256"
        },
        {
          "internalType": "uint256",
          "name": "_strike",
          "type": "uint256"
        },
        {
          "internalType": "enum OptionLibrary.PayoffType",
          "name": "_poType",
          "type": "OptionLibrary.PayoffType"
        },
        {
          "internalType": "uint256",
          "name": "_amount",
          "type": "uint256"
        }
      ],
      "name": "calcPremium",
      "outputs": [
        {
          "internalType": "uint256",
          "name": "",
          "type": "uint256"
        }
      ],
      "stateMutability": "pure",
      "type": "function"
    },
    {
      "inputs": [
        {
          "internalType": "uint256",
          "name": "_price",
          "type": "uint256"
        },
        {
          "internalType": "uint256",
          "name": "_strike",
          "type": "uint256"
        },
        {
          "internalType": "uint256",
          "name": "_vol",
          "type": "uint256"
        }
      ],
      "name": "calcDelta",
      "outputs": [
        {
          "internalType": "uint256",
          "name": "_delta",
          "type": "uint256"
        }
      ],
      "stateMutability": "pure",
      "type": "function"
    },
    {
      "inputs": [
        {
          "internalType": "uint256",
          "name": "_price",
          "type": "uint256"
        },
        {
          "internalType": "uint256",
          "name": "_strike",
          "type": "uint256"
        },
        {
          "internalType": "uint256",
          "name": "_vol",
          "type": "uint256"
        }
      ],
      "name": "calcGamma",
      "outputs": [
        {
          "internalType": "uint256",
          "name": "_gamma",
          "type": "uint256"
        }
      ],
      "stateMutability": "pure",
      "type": "function"
    },
    {
      "inputs": [
        {
          "internalType": "uint256",
          "name": "_amount",
          "type": "uint256"
        },
        {
          "internalType": "bool",
          "name": "_adjustUpward",
          "type": "bool"
        },
        {
          "internalType": "uint256",
          "name": "_slippage",
          "type": "uint256"
        },
        {
          "internalType": "uint256",
          "name": "_loanInterest",
          "type": "uint256"
        }
      ],
      "name": "adjustSlippage",
      "outputs": [
        {
          "internalType": "uint256",
          "name": "_adjustedAmount",
          "type": "uint256"
        }
      ],
      "stateMutability": "pure",
      "type": "function"
    },
    {
      "inputs": [
        {
          "internalType": "int256",
          "name": "_amount",
          "type": "int256"
        },
        {
          "internalType": "uint256",
          "name": "_price",
          "type": "uint256"
        },
        {
          "internalType": "uint256",
          "name": "_slippage",
          "type": "uint256"
        }
      ],
      "name": "getOpposeTrade",
      "outputs": [
        {
          "internalType": "int256",
          "name": "_oppositeAmount",
          "type": "int256"
        }
      ],
      "stateMutability": "pure",
      "type": "function"
    }
  ],
  "bytecode": "0x613b9b610053600b82828239805160001a607314610046577f4e487b7100000000000000000000000000000000000000000000000000000000600052600060045260246000fd5b30600052607381538281f3fe73000000000000000000000000000000000000000030146080604052600436106100d95760003560e01c80639932b2be11610096578063c6ceb50b11610070578063c6ceb50b1461027c578063ca0cc13d1461029a578063e9ef55ca146102ca578063fd9b8763146102e8576100d9565b80639932b2be146101ec578063a69d3ae01461021c578063bde840ed1461024c576100d9565b80630862958b146100de578063092f957a1461010e57806323a00f651461013e57806324f643451461016e578063508cd14e1461019e5780638d2c3b34146101ce575b600080fd5b6100f860048036038101906100f39190613256565b610306565b60405161010591906132a5565b60405180910390f35b610128600480360381019061012391906132c0565b610327565b60405161013591906132a5565b60405180910390f35b61015860048036038101906101539190613300565b610363565b60405161016591906132a5565b60405180910390f35b61018860048036038101906101839190613378565b610415565b60405161019591906132a5565b60405180910390f35b6101b860048036038101906101b3919061342b565b610461565b6040516101c591906132a5565b60405180910390f35b6101d66104e1565b6040516101e391906132a5565b60405180910390f35b61020660048036038101906102019190613300565b6104ed565b60405161021391906132a5565b60405180910390f35b61023660048036038101906102319190613256565b6105c3565b60405161024391906132a5565b60405180910390f35b610266600480360381019061026191906132c0565b6105f2565b60405161027391906132a5565b60405180910390f35b61028461062e565b60405161029191906132a5565b60405180910390f35b6102b460048036038101906102af91906134c8565b610637565b6040516102c1919061352a565b60405180910390f35b6102d26106b8565b6040516102df91906132a5565b60405180910390f35b6102f06106bd565b6040516102fd91906132a5565b60405180910390f35b600061031f836007015483670de0b6b3a76400006106cd565b905092915050565b6000816012101561033757600080fd5b8160126103449190613574565b600a61035091906136db565b8361035b9190613755565b905092915050565b60008061037985670de0b6b3a7640000866106cd565b9050600060028461038a9190613755565b6103b1670de0b6b3a764000060026103a29190613786565b670de0b6b3a7640000876106cd565b6103eb670de0b6b3a764000060026103c99190613786565b6103e5670de0b6b3a7640000876103e09190613786565b6107c9565b886106cd565b6103f591906137e0565b6103ff9190613874565b905061040a8161097c565b925050509392505050565b60008061042485888587611de7565b90506000610446610437878a8a88611e99565b89670de0b6b3a76400006106cd565b905080826104549190613908565b9250505095945050505050565b600084905083156104a05761049d858385670de0b6b3a76400006104859190613908565b61048f9190613908565b670de0b6b3a76400006106cd565b90505b836104d9576104d685670de0b6b3a76400008486670de0b6b3a76400006104c79190613908565b6104d19190613908565b6106cd565b90505b949350505050565b670de0b6b3a764000081565b60008061050385670de0b6b3a7640000866106cd565b905060006002846105149190613755565b61053b670de0b6b3a7640000600261052c9190613786565b670de0b6b3a7640000876106cd565b610575670de0b6b3a764000060026105539190613786565b61056f670de0b6b3a76400008761056a9190613786565b6107c9565b886106cd565b61057f91906137e0565b6105899190613874565b90506105b86105a961059a83611fc7565b670de0b6b3a7640000896106cd565b670de0b6b3a7640000866106cd565b925050509392505050565b60006105ea83600901548385600701548660000160009054906101000a900460ff16611de7565b905092915050565b6000816012101561060257600080fd5b81601261060f9190613574565b600a61061b91906136db565b836106269190613786565b905092915050565b60006012905090565b60008084121561064857600161066a565b7fffffffffffffffffffffffffffffffffffffffffffffffffffffffffffffffff5b6106a5610696600087121561068857866106839061395e565b61068a565b865b60008812866000610461565b85670de0b6b3a76400006106cd565b6106af91906139a7565b90509392505050565b601281565b6000670de0b6b3a7640000905090565b60008060008019858709858702925082811083820303915050600081141561070857600084116106fc57600080fd5b838204925050506107c2565b80841161071457600080fd5b60008486880990508281118203915080830392506000856001877fffffffffffffffffffffffffffffffffffffffffffffffffffffffffffffffff0301169050808604955080840493506001818260000304019050808302841793506000600287600302189050808702600203810290508087026002038102905080870260020381029050808702600203810290508087026002038102905080870260020381029050808502955050505050505b9392505050565b6000808214156107dc5760009050610977565b600082905060019150700100000000000000000000000000000000811061080c57608081901c9050604082901b91505b68010000000000000000811061082b57604081901c9050602082901b91505b640100000000811061084657602081901c9050601082901b91505b62010000811061085f57601081901c9050600882901b91505b610100811061087757600881901c9050600482901b91505b6010811061088e57600481901c9050600282901b91505b6008811061089e57600182901b91505b60018284816108b0576108af613726565b5b048301901c915060018284816108c9576108c8613726565b5b048301901c915060018284816108e2576108e1613726565b5b048301901c915060018284816108fb576108fa613726565b5b048301901c9150600182848161091457610913613726565b5b048301901c9150600182848161092d5761092c613726565b5b048301901c9150600182848161094657610945613726565b5b048301901c9150600082848161095f5761095e613726565b5b049050808310156109705782610972565b805b925050505b919050565b60008060405180610b2001604052807fffffffffffffffffffffffffffffffffffffffffffffffff2fd54b793124000060080b81526020017fffffffffffffffffffffffffffffffffffffffffffffffff3db6022cd888000060080b81526020017fffffffffffffffffffffffffffffffffffffffffffffffff4b96b8e07fec000060080b81526020017fffffffffffffffffffffffffffffffffffffffffffffffff59776f942750000060080b81526020017fffffffffffffffffffffffffffffffffffffffffffffffff67582647ceb4000060080b81526020017fffffffffffffffffffffffffffffffffffffffffffffffff7538dcfb7618000060080b81526020017fffffffffffffffffffffffffffffffffffffffffffffffff831993af1d7c000060080b81526020017fffffffffffffffffffffffffffffffffffffffffffffffff90fa4a62c4e0000060080b81526020017fffffffffffffffffffffffffffffffffffffffffffffffff9edb01166c44000060080b81526020017fffffffffffffffffffffffffffffffffffffffffffffffffacbbb7ca13a8000060080b81526020017fffffffffffffffffffffffffffffffffffffffffffffffffba9c6e7dbb0c000060080b81526020017fffffffffffffffffffffffffffffffffffffffffffffffffc18cc9d78ebe000060080b81526020017fffffffffffffffffffffffffffffffffffffffffffffffffc87d25316270000060080b81526020017fffffffffffffffffffffffffffffffffffffffffffffffffcf6d808b3622000060080b81526020017fffffffffffffffffffffffffffffffffffffffffffffffffd65ddbe509d4000060080b81526020017fffffffffffffffffffffffffffffffffffffffffffffffffd7c1215d675e000060080b81526020017fffffffffffffffffffffffffffffffffffffffffffffffffd92466d5c4e8000060080b81526020017fffffffffffffffffffffffffffffffffffffffffffffffffda87ac4e2272000060080b81526020017fffffffffffffffffffffffffffffffffffffffffffffffffdbeaf1c67ffc000060080b81526020017fffffffffffffffffffffffffffffffffffffffffffffffffdd4e373edd86000060080b81526020017fffffffffffffffffffffffffffffffffffffffffffffffffdeb17cb73b10000060080b81526020017fffffffffffffffffffffffffffffffffffffffffffffffffe014c22f989a000060080b81526020017fffffffffffffffffffffffffffffffffffffffffffffffffe17807a7f624000060080b81526020017fffffffffffffffffffffffffffffffffffffffffffffffffe2db4d2053ae000060080b81526020017fffffffffffffffffffffffffffffffffffffffffffffffffe43e9298b138000060080b81526020017fffffffffffffffffffffffffffffffffffffffffffffffffe5a1d8110ec2000060080b81526020017fffffffffffffffffffffffffffffffffffffffffffffffffe7051d896c4c000060080b81526020017fffffffffffffffffffffffffffffffffffffffffffffffffe8686301c9d6000060080b81526020017fffffffffffffffffffffffffffffffffffffffffffffffffe9cba87a2760000060080b81526020017fffffffffffffffffffffffffffffffffffffffffffffffffeb2eedf284ea000060080b81526020017fffffffffffffffffffffffffffffffffffffffffffffffffec92336ae274000060080b81526020017fffffffffffffffffffffffffffffffffffffffffffffffffedf578e33ffe000060080b81526020017fffffffffffffffffffffffffffffffffffffffffffffffffef58be5b9d88000060080b81526020017ffffffffffffffffffffffffffffffffffffffffffffffffff0bc03d3fb12000060080b81526020017ffffffffffffffffffffffffffffffffffffffffffffffffff21f494c589c000060080b81526020017ffffffffffffffffffffffffffffffffffffffffffffffffff3828ec4b626000060080b81526020017ffffffffffffffffffffffffffffffffffffffffffffffffff4e5d43d13b0000060080b81526020017ffffffffffffffffffffffffffffffffffffffffffffffffff64919b5713a000060080b81526020017ffffffffffffffffffffffffffffffffffffffffffffffffff7ac5f2dcec4000060080b81526020017ffffffffffffffffffffffffffffffffffffffffffffffffff90fa4a62c4e000060080b81526020017ffffffffffffffffffffffffffffffffffffffffffffffffffa72ea1e89d8000060080b81526020017ffffffffffffffffffffffffffffffffffffffffffffffffffbd62f96e762000060080b81526020017ffffffffffffffffffffffffffffffffffffffffffffffffffd39750f44ec000060080b81526020017ffffffffffffffffffffffffffffffffffffffffffffffffffe9cba87a276000060080b8152602001600060080b815260200167016345785d8a000060080b81526020016702c68af0bb14000060080b8152602001670429d069189e000060080b815260200167058d15e17628000060080b81526020016706f05b59d3b2000060080b8152602001670853a0d2313c000060080b81526020016709b6e64a8ec6000060080b8152602001670b1a2bc2ec50000060080b8152602001670c7d713b49da000060080b8152602001670de0b6b3a764000060080b8152602001670f43fc2c04ee000060080b81526020016710a741a46278000060080b815260200167120a871cc002000060080b815260200167136dcc951d8c000060080b81526020016714d1120d7b16000060080b81526020016716345785d8a0000060080b81526020016717979cfe362a000060080b81526020016718fae27693b4000060080b8152602001671a5e27eef13e000060080b8152602001671bc16d674ec8000060080b8152602001671d24b2dfac52000060080b8152602001671e87f85809dc000060080b8152602001671feb3dd06766000060080b815260200167214e8348c4f0000060080b81526020016722b1c8c1227a000060080b81526020016724150e398004000060080b815260200167257853b1dd8e000060080b81526020016726db992a3b18000060080b815260200167283edea298a2000060080b81526020016729a2241af62c000060080b81526020016730927f74c9de000060080b8152602001673782dace9d90000060080b8152602001673e7336287142000060080b8152602001674563918244f4000060080b81526020016753444835ec58000060080b8152602001676124fee993bc000060080b8152602001676f05b59d3b20000060080b8152602001677ce66c50e284000060080b8152602001678ac7230489e8000060080b81526020016798a7d9b8314c000060080b815260200167a688906bd8b0000060080b815260200167b469471f8014000060080b815260200167c249fdd32778000060080b815260200167d02ab486cedc000060080b8152509050600060405180610b200160405280600067ffffffffffffffff1681526020016302ac265467ffffffffffffffff168152602001630ea87f4067ffffffffffffffff168152602001635066183867ffffffffffffffff1681526020016401b8fadbca67ffffffffffffffff168152602001640972bbc11467ffffffffffffffff1681526020016433d28609ff67ffffffffffffffff16815260200165011c3d90be9867ffffffffffffffff168152602001650617061e622b67ffffffffffffffff168152602001652166d7d7e58067ffffffffffffffff16815260200165b72cd961350a67ffffffffffffffff1681526020016601ace0ccb0ffd267ffffffffffffffff1681526020016603ebcac407bfa667ffffffffffffffff16815260200166092b644ed8971c67ffffffffffffffff168152602001661566963940bcf867ffffffffffffffff168152602001661957d7dbe793c467ffffffffffffffff168152602001661e0171808fc27467ffffffffffffffff1681526020016623846cc5efa3ce67ffffffffffffffff168152602001662a077e40df04f467ffffffffffffffff1681526020016631b7e487e8c6a067ffffffffffffffff168152602001663aca5f1113221467ffffffffffffffff16815260200166457c3aeabd4c2867ffffffffffffffff16815260200166521470d9790d5067ffffffffffffffff1681526020016660e4ccd85770fc67ffffffffffffffff16815260200166724b1217ecac5c67ffffffffffffffff1681526020016686b20819b6c83067ffffffffffffffff168152602001669e92552cde3d5467ffffffffffffffff16815260200166ba730044d8b20c67ffffffffffffffff16815260200166dae96810784be067ffffffffffffffff16815260200167010098700b8a077c67ffffffffffffffff16815260200167012c2e976c17d5e067ffffffffffffffff16815260200167015e62a3c6761e6c67ffffffffffffffff168152602001670197ee85e83622c067ffffffffffffffff1681526020016701d98828005076f867ffffffffffffffff168152602001670223d7ef126f75f867ffffffffffffffff1681526020016702776ced5782cd9867ffffffffffffffff1681526020016702d4af13f69d342067ffffffffffffffff16815260200167033bd01fb85ed9e067ffffffffffffffff1681526020016703acbc7c7ede19a067ffffffffffffffff1681526020016704270dd934bc304067ffffffffffffffff1681526020016704aa0180a81000d067ffffffffffffffff168152602001670534749bef40ff6867ffffffffffffffff1681526020016705c4e8260172086067ffffffffffffffff1681526020016706598d804261481067ffffffffffffffff1681526020016706f05b59d3b2000067ffffffffffffffff16815260200167078729336502b7f067ffffffffffffffff16815260200167081bce8da5f1f7a067ffffffffffffffff1681526020016708ac4217b823009867ffffffffffffffff168152602001670936b532ff53ff3067ffffffffffffffff1681526020016709b9a8da72a7cfc067ffffffffffffffff168152602001670a33fa372885e66067ffffffffffffffff168152602001670aa4e693ef05262067ffffffffffffffff168152602001670b0c079fb0c6cbe067ffffffffffffffff168152602001670b6949c64fe1326867ffffffffffffffff168152602001670bbcdec494f48a0867ffffffffffffffff168152602001670c072e8ba713890867ffffffffffffffff168152602001670c48c82dbf2ddd4067ffffffffffffffff168152602001670c82540fe0ede06867ffffffffffffffff168152602001670cb4881c3b4c289067ffffffffffffffff168152602001670ce01e439bd9f9b067ffffffffffffffff168152602001670d05cd4b96ebb35867ffffffffffffffff168152602001670d2643b3628b4f2067ffffffffffffffff168152602001670d42245e7a85c3d867ffffffffffffffff168152602001670d5a04ab8dad364067ffffffffffffffff168152602001670d6e6ba18f77534067ffffffffffffffff168152602001670d7fd1e6cf0c90f867ffffffffffffffff168152602001670d8ea242cdeaf12067ffffffffffffffff168152602001670d9b3a78bca6b3d867ffffffffffffffff168152602001670da5ec549650dbf867ffffffffffffffff168152602001670daefecf1f7b396067ffffffffffffffff168152602001670db6af356684faa867ffffffffffffffff168152602001670dbd3246e1745c0067ffffffffffffffff168152602001670dc2b54226d43d7867ffffffffffffffff168152602001670dc75edbcb7c6e3067ffffffffffffffff168152602001670dcb501d6e23444867ffffffffffffffff168152602001670dd78b4f588b699867ffffffffffffffff168152602001670ddccae8e35c416867ffffffffffffffff168152602001670ddf09d2dab3017067ffffffffffffffff168152602001670ddfff86ce02ccd067ffffffffffffffff168152602001670de0954ccf8c1b6867ffffffffffffffff168152602001670de0b09ca1459db867ffffffffffffffff168152602001670de0b59769d3424067ffffffffffffffff168152602001670de0b67fd4ddf56067ffffffffffffffff168152602001670de0b6aa34a83eb867ffffffffffffffff168152602001670de0b6b1ee69256867ffffffffffffffff168152602001670de0b6b356fde86067ffffffffffffffff168152602001670de0b6b398bb7f6067ffffffffffffffff168152602001670de0b6b3a4b7db6067ffffffffffffffff168152602001670de0b6b3a764000067ffffffffffffffff16815250905060005b84838260598110611bd457611bd3613abe565b5b602002015160080b128015611be95750605981105b15611c01578080611bf990613aed565b915050611bc0565b81600060598110611c1557611c14613abe565b5b602002015167ffffffffffffffff1693506059811415611c555781605860598110611c4357611c42613abe565b5b602002015167ffffffffffffffff1693505b600081118015611c655750605981105b15611ddf5782600182611c789190613574565b60598110611c8957611c88613abe565b5b602002015160080b838260598110611ca457611ca3613abe565b5b602002015160080b611cb691906137e0565b83600183611cc49190613574565b60598110611cd557611cd4613abe565b5b602002015160080b86611ce891906137e0565b838360598110611cfb57611cfa613abe565b5b602002015167ffffffffffffffff16611d149190613786565b611d1e9190613755565b83600183611d2c9190613574565b60598110611d3d57611d3c613abe565b5b602002015160080b848360598110611d5857611d57613abe565b5b602002015160080b611d6a91906137e0565b86858460598110611d7e57611d7d613abe565b5b602002015160080b611d9091906137e0565b84600185611d9e9190613574565b60598110611daf57611dae613abe565b5b602002015167ffffffffffffffff16611dc89190613786565b611dd29190613755565b611ddc9190613908565b93505b505050919050565b6000806000905060006001811115611e0257611e01613b36565b5b836001811115611e1557611e14613b36565b5b148015611e2157508585115b15611e35578585611e329190613574565b90505b600180811115611e4857611e47613b36565b5b836001811115611e5b57611e5a613b36565b5b148015611e6757508585105b15611e7b578486611e789190613574565b90505b611e8e8185670de0b6b3a76400006106cd565b915050949350505050565b600080831415611eab57829050611fbf565b6000848611611ed85784670de0b6b3a764000087611ec99190613786565b611ed39190613755565b611ef8565b85670de0b6b3a764000086611eed9190613786565b611ef79190613755565b5b905060006002670de0b6b3a76400008611611f135785611f1d565b670de0b6b3a76400005b611f279190613755565b670de0b6b3a7640000611f3a9190613574565b9050600081670de0b6b3a76400006002611f549190613786565b611f5e9190613574565b9050600082670de0b6b3a7640000611f769190613574565b9050611fb8600487611f889190613786565b611f9e838a8887611f999190613574565b6106cd565b670de0b6b3a7640000600a611fb39190613786565b6106cd565b9450505050505b949350505050565b600080604051806109e001604052807fffffffffffffffffffffffffffffffffffffffffffffffff7538dcfb7618000060080b81526020017fffffffffffffffffffffffffffffffffffffffffffffffff831993af1d7c000060080b81526020017fffffffffffffffffffffffffffffffffffffffffffffffff90fa4a62c4e0000060080b81526020017fffffffffffffffffffffffffffffffffffffffffffffffff9edb01166c44000060080b81526020017fffffffffffffffffffffffffffffffffffffffffffffffffacbbb7ca13a8000060080b81526020017fffffffffffffffffffffffffffffffffffffffffffffffffba9c6e7dbb0c000060080b81526020017fffffffffffffffffffffffffffffffffffffffffffffffffc18cc9d78ebe000060080b81526020017fffffffffffffffffffffffffffffffffffffffffffffffffc87d25316270000060080b81526020017fffffffffffffffffffffffffffffffffffffffffffffffffcf6d808b3622000060080b81526020017fffffffffffffffffffffffffffffffffffffffffffffffffd65ddbe509d4000060080b81526020017fffffffffffffffffffffffffffffffffffffffffffffffffd7c1215d675e000060080b81526020017fffffffffffffffffffffffffffffffffffffffffffffffffd92466d5c4e8000060080b81526020017fffffffffffffffffffffffffffffffffffffffffffffffffda87ac4e2272000060080b81526020017fffffffffffffffffffffffffffffffffffffffffffffffffdbeaf1c67ffc000060080b81526020017fffffffffffffffffffffffffffffffffffffffffffffffffdd4e373edd86000060080b81526020017fffffffffffffffffffffffffffffffffffffffffffffffffdeb17cb73b10000060080b81526020017fffffffffffffffffffffffffffffffffffffffffffffffffe014c22f989a000060080b81526020017fffffffffffffffffffffffffffffffffffffffffffffffffe17807a7f624000060080b81526020017fffffffffffffffffffffffffffffffffffffffffffffffffe2db4d2053ae000060080b81526020017fffffffffffffffffffffffffffffffffffffffffffffffffe43e9298b138000060080b81526020017fffffffffffffffffffffffffffffffffffffffffffffffffe5a1d8110ec2000060080b81526020017fffffffffffffffffffffffffffffffffffffffffffffffffe7051d896c4c000060080b81526020017fffffffffffffffffffffffffffffffffffffffffffffffffe8686301c9d6000060080b81526020017fffffffffffffffffffffffffffffffffffffffffffffffffe9cba87a2760000060080b81526020017fffffffffffffffffffffffffffffffffffffffffffffffffeb2eedf284ea000060080b81526020017fffffffffffffffffffffffffffffffffffffffffffffffffec92336ae274000060080b81526020017fffffffffffffffffffffffffffffffffffffffffffffffffedf578e33ffe000060080b81526020017fffffffffffffffffffffffffffffffffffffffffffffffffef58be5b9d88000060080b81526020017ffffffffffffffffffffffffffffffffffffffffffffffffff0bc03d3fb12000060080b81526020017ffffffffffffffffffffffffffffffffffffffffffffffffff21f494c589c000060080b81526020017ffffffffffffffffffffffffffffffffffffffffffffffffff3828ec4b626000060080b81526020017ffffffffffffffffffffffffffffffffffffffffffffffffff4e5d43d13b0000060080b81526020017ffffffffffffffffffffffffffffffffffffffffffffffffff64919b5713a000060080b81526020017ffffffffffffffffffffffffffffffffffffffffffffffffff7ac5f2dcec4000060080b81526020017ffffffffffffffffffffffffffffffffffffffffffffffffff90fa4a62c4e000060080b81526020017ffffffffffffffffffffffffffffffffffffffffffffffffffa72ea1e89d8000060080b81526020017ffffffffffffffffffffffffffffffffffffffffffffffffffbd62f96e762000060080b81526020017ffffffffffffffffffffffffffffffffffffffffffffffffffd39750f44ec000060080b81526020017ffffffffffffffffffffffffffffffffffffffffffffffffffe9cba87a276000060080b8152602001600060080b815260200167016345785d8a000060080b81526020016702c68af0bb14000060080b8152602001670429d069189e000060080b815260200167058d15e17628000060080b81526020016706f05b59d3b2000060080b8152602001670853a0d2313c000060080b81526020016709b6e64a8ec6000060080b8152602001670b1a2bc2ec50000060080b8152602001670c7d713b49da000060080b8152602001670de0b6b3a764000060080b8152602001670f43fc2c04ee000060080b81526020016710a741a46278000060080b815260200167120a871cc002000060080b815260200167136dcc951d8c000060080b81526020016714d1120d7b16000060080b81526020016716345785d8a0000060080b81526020016717979cfe362a000060080b81526020016718fae27693b4000060080b8152602001671a5e27eef13e000060080b8152602001671bc16d674ec8000060080b8152602001671d24b2dfac52000060080b8152602001671e87f85809dc000060080b8152602001671feb3dd06766000060080b815260200167214e8348c4f0000060080b81526020016722b1c8c1227a000060080b81526020016724150e398004000060080b815260200167257853b1dd8e000060080b81526020016726db992a3b18000060080b815260200167283edea298a2000060080b81526020016729a2241af62c000060080b81526020016730927f74c9de000060080b8152602001673782dace9d90000060080b8152602001673e7336287142000060080b8152602001674563918244f4000060080b81526020016753444835ec58000060080b8152602001676124fee993bc000060080b8152602001676f05b59d3b20000060080b8152602001677ce66c50e284000060080b8152602001678ac7230489e8000060080b81525090506000604051806109e00160405280600067ffffffffffffffff168152602001600167ffffffffffffffff1681526020016113bc67ffffffffffffffff168152602001628b628067ffffffffffffffff16815260200164016a269d6167ffffffffffffffff16815260200165015a2763786e67ffffffffffffffff168152602001650e898135fad967ffffffffffffffff1681526020016579b7c711221567ffffffffffffffff168152602001660319b3460a328067ffffffffffffffff168152602001660fbebe1e4abcda67ffffffffffffffff168152602001661525cbf4650d6a67ffffffffffffffff168152602001661c1f0fafd71f8267ffffffffffffffff168152602001662505c8f5d7564867ffffffffffffffff168152602001663041a3782b3c6067ffffffffffffffff168152602001663e45e57c6f79f467ffffffffffffffff168152602001664f8fb4e722c61467ffffffffffffffff1681526020016664a34a6e2091b067ffffffffffffffff168152602001667e07f44926b76867ffffffffffffffff168152602001669c42d8f65b8fc067ffffffffffffffff16815260200166bfd07f7c193d0467ffffffffffffffff16815260200166e91d3c634adc7867ffffffffffffffff1681526020016701187cc02c7c53f867ffffffffffffffff16815260200167014e21233880a8d867ffffffffffffffff16815260200167018a11e95542410067ffffffffffffffff1681526020016701cc239129d402a067ffffffffffffffff168152602001670213f05632568ce867ffffffffffffffff168152602001670260d2d396ab1a1867ffffffffffffffff1681526020016702b1e3302b9bdfc867ffffffffffffffff168152602001670305f76699921a5867ffffffffffffffff16815260200167035ba7178901e65867ffffffffffffffff1681526020016703b15320002fb3b867ffffffffffffffff16815260200167040530eeb0c78ef867ffffffffffffffff168152602001670455594c4a0b562867ffffffffffffffff16815260200167049fda02c5c94dc067ffffffffffffffff1681526020016704e2c98ca38496e067ffffffffffffffff16815260200167051c5bbdce29af7867ffffffffffffffff16815260200167054af6328e2fcfe067ffffffffffffffff16815260200167056d4342226b390067ffffffffffffffff168152602001670582423d210dbe2067ffffffffffffffff16815260200167058953e3ed3631a867ffffffffffffffff168152602001670582423d210dbe2067ffffffffffffffff16815260200167056d4342226b390067ffffffffffffffff16815260200167054af6328e2fcfe067ffffffffffffffff16815260200167051c5bbdce29af7867ffffffffffffffff1681526020016704e2c98ca38496e067ffffffffffffffff16815260200167049fda02c5c94dc067ffffffffffffffff168152602001670455594c4a0b562867ffffffffffffffff16815260200167040530eeb0c78ef867ffffffffffffffff1681526020016703b15320002fb3b867ffffffffffffffff16815260200167035ba7178901e65867ffffffffffffffff168152602001670305f76699921a5867ffffffffffffffff1681526020016702b1e3302b9bdfc867ffffffffffffffff168152602001670260d2d396ab1a1867ffffffffffffffff168152602001670213f05632568ce867ffffffffffffffff1681526020016701cc239129d402a067ffffffffffffffff16815260200167018a11e95542410067ffffffffffffffff16815260200167014e21233880a8d867ffffffffffffffff1681526020016701187cc02c7c53f867ffffffffffffffff16815260200166e91d3c634adc7867ffffffffffffffff16815260200166bfd07f7c193d0467ffffffffffffffff168152602001669c42d8f65b8fc067ffffffffffffffff168152602001667e07f44926b76867ffffffffffffffff1681526020016664a34a6e2091b067ffffffffffffffff168152602001664f8fb4e722c61467ffffffffffffffff168152602001663e45e57c6f79f467ffffffffffffffff168152602001663041a3782b3c6067ffffffffffffffff168152602001662505c8f5d7564867ffffffffffffffff168152602001661c1f0fafd71f8267ffffffffffffffff168152602001661525cbf4650d6a67ffffffffffffffff168152602001660fbebe1e4abcda67ffffffffffffffff168152602001660319b3460a328067ffffffffffffffff1681526020016579b7c711221567ffffffffffffffff168152602001650e898135fad967ffffffffffffffff16815260200165015a2763786e67ffffffffffffffff16815260200164016a269d6167ffffffffffffffff168152602001628b628067ffffffffffffffff1681526020016113bc67ffffffffffffffff168152602001600167ffffffffffffffff168152602001600067ffffffffffffffff168152509050600080604f9050600094505b858483604f8110612fee57612fed613abe565b5b602002015160080b12801561300257508082105b1561301a57818061301290613aed565b925050612fda565b8082141561305357826001836130309190613574565b604f811061304157613040613abe565b5b602002015167ffffffffffffffff1694505b60008211801561306257508082105b156131dc57836001836130759190613574565b604f811061308657613085613abe565b5b602002015160080b8483604f81106130a1576130a0613abe565b5b602002015160080b6130b391906137e0565b846001846130c19190613574565b604f81106130d2576130d1613abe565b5b602002015160080b876130e591906137e0565b8484604f81106130f8576130f7613abe565b5b602002015167ffffffffffffffff166131119190613786565b61311b9190613755565b846001846131299190613574565b604f811061313a57613139613abe565b5b602002015160080b8584604f811061315557613154613abe565b5b602002015160080b61316791906137e0565b878685604f811061317b5761317a613abe565b5b602002015160080b61318d91906137e0565b8560018661319b9190613574565b604f81106131ac576131ab613abe565b5b602002015167ffffffffffffffff166131c59190613786565b6131cf9190613755565b6131d99190613908565b94505b50505050919050565b600080fd5b6000819050919050565b6131fd816131ea565b811461320857600080fd5b50565b60008135905061321a816131f4565b92915050565b6000819050919050565b61323381613220565b811461323e57600080fd5b50565b6000813590506132508161322a565b92915050565b6000806040838503121561326d5761326c6131e5565b5b600061327b8582860161320b565b925050602061328c85828601613241565b9150509250929050565b61329f81613220565b82525050565b60006020820190506132ba6000830184613296565b92915050565b600080604083850312156132d7576132d66131e5565b5b60006132e585828601613241565b92505060206132f685828601613241565b9150509250929050565b600080600060608486031215613319576133186131e5565b5b600061332786828701613241565b935050602061333886828701613241565b925050604061334986828701613241565b9150509250925092565b6002811061336057600080fd5b50565b60008135905061337281613353565b92915050565b600080600080600060a08688031215613394576133936131e5565b5b60006133a288828901613241565b95505060206133b388828901613241565b94505060406133c488828901613241565b93505060606133d588828901613363565b92505060806133e688828901613241565b9150509295509295909350565b60008115159050919050565b613408816133f3565b811461341357600080fd5b50565b600081359050613425816133ff565b92915050565b60008060008060808587031215613445576134446131e5565b5b600061345387828801613241565b945050602061346487828801613416565b935050604061347587828801613241565b925050606061348687828801613241565b91505092959194509250565b6000819050919050565b6134a581613492565b81146134b057600080fd5b50565b6000813590506134c28161349c565b92915050565b6000806000606084860312156134e1576134e06131e5565b5b60006134ef868287016134b3565b935050602061350086828701613241565b925050604061351186828701613241565b9150509250925092565b61352481613492565b82525050565b600060208201905061353f600083018461351b565b92915050565b7f4e487b7100000000000000000000000000000000000000000000000000000000600052601160045260246000fd5b600061357f82613220565b915061358a83613220565b92508282101561359d5761359c613545565b5b828203905092915050565b60008160011c9050919050565b6000808291508390505b60018511156135ff578086048111156135db576135da613545565b5b60018516156135ea5780820291505b80810290506135f8856135a8565b94506135bf565b94509492505050565b60008261361857600190506136d4565b8161362657600090506136d4565b816001811461363c576002811461364657613675565b60019150506136d4565b60ff84111561365857613657613545565b5b8360020a91508482111561366f5761366e613545565b5b506136d4565b5060208310610133831016604e8410600b84101617156136aa5782820a9050838111156136a5576136a4613545565b5b6136d4565b6136b784848460016135b5565b925090508184048111156136ce576136cd613545565b5b81810290505b9392505050565b60006136e682613220565b91506136f183613220565b925061371e7fffffffffffffffffffffffffffffffffffffffffffffffffffffffffffffffff8484613608565b905092915050565b7f4e487b7100000000000000000000000000000000000000000000000000000000600052601260045260246000fd5b600061376082613220565b915061376b83613220565b92508261377b5761377a613726565b5b828204905092915050565b600061379182613220565b915061379c83613220565b9250817fffffffffffffffffffffffffffffffffffffffffffffffffffffffffffffffff04831182151516156137d5576137d4613545565b5b828202905092915050565b60006137eb82613492565b91506137f683613492565b9250827f80000000000000000000000000000000000000000000000000000000000000000182126000841215161561383157613830613545565b5b827f7fffffffffffffffffffffffffffffffffffffffffffffffffffffffffffffff01821360008412161561386957613868613545565b5b828203905092915050565b600061387f82613492565b915061388a83613492565b9250817f7fffffffffffffffffffffffffffffffffffffffffffffffffffffffffffffff038313600083121516156138c5576138c4613545565b5b817f80000000000000000000000000000000000000000000000000000000000000000383126000831216156138fd576138fc613545565b5b828201905092915050565b600061391382613220565b915061391e83613220565b9250827fffffffffffffffffffffffffffffffffffffffffffffffffffffffffffffffff0382111561395357613952613545565b5b828201905092915050565b600061396982613492565b91507f800000000000000000000000000000000000000000000000000000000000000082141561399c5761399b613545565b5b816000039050919050565b60006139b282613492565b91506139bd83613492565b9250827f7fffffffffffffffffffffffffffffffffffffffffffffffffffffffffffffff04821160008413600084131616156139fc576139fb613545565b5b817f80000000000000000000000000000000000000000000000000000000000000000583126000841260008413161615613a3957613a38613545565b5b827f80000000000000000000000000000000000000000000000000000000000000000582126000841360008412161615613a7657613a75613545565b5b827f7fffffffffffffffffffffffffffffffffffffffffffffffffffffffffffffff0582126000841260008412161615613ab357613ab2613545565b5b828202905092915050565b7f4e487b7100000000000000000000000000000000000000000000000000000000600052603260045260246000fd5b6000613af882613220565b91507fffffffffffffffffffffffffffffffffffffffffffffffffffffffffffffffff821415613b2b57613b2a613545565b5b600182019050919050565b7f4e487b7100000000000000000000000000000000000000000000000000000000600052602160045260246000fdfea2646970667358221220c430da58a0b63d8d3ae2acf64a69c54599d7f0237c6753223c71913b4c102ef664736f6c63430008090033",
  "immutableReferences": {},
  "source": "/**\n * SPDX-License-Identifier: GPL-3.0-or-later\n * Moret\n * Copyright (C) 2021 Moret\n*/\n\npragma solidity 0.8.9;\n\nimport \"./FullMath.sol\";\nimport \"prb-math/contracts/PRBMath.sol\";\n\nlibrary OptionLibrary {\n  using PRBMath for uint256;\n  enum PayoffType { Call, Put}\n  enum OptionSide{ Buy, Sell}\n  enum OptionStatus { Draft, Active, Exercised, Expired}\n  struct Option { PayoffType poType; OptionSide side; OptionStatus status; address holder; uint256 id; uint256 createTime; uint256 effectiveTime; uint256 tenor; uint256 maturity; uint256 exerciseTime; uint256 amount;uint256 spot;uint256 strike;uint256 volatility;uint256 premium;uint256 cost;}\n  struct Percent{ uint256 numerator; uint256 denominator;}\n  uint256 public constant DefaultMultiplier  = 10 ** 18;\n  uint256 public constant DefaultDecimals = 18;\n\n  function Multiplier() public pure returns (uint256){return DefaultMultiplier;}\n  function Decimals() public pure returns (uint256) {return DefaultDecimals;}\n  function ToDefaultDecimals(uint256 _rawData, uint256 _rawDataDecimals) public pure returns(uint256){\n    require(DefaultDecimals >= _rawDataDecimals);\n    return _rawData * (10** (DefaultDecimals - _rawDataDecimals));}\n  function ToCustomDecimals(uint256 _rawData, uint256 _rawDataDecimals) public pure returns(uint256){\n    require(DefaultDecimals >= _rawDataDecimals);\n    return _rawData / (10** (DefaultDecimals - _rawDataDecimals));}\n\n  function calcIntrinsicValue(uint256 _strike, uint256 _price, uint256 _amount, PayoffType _poType) private pure returns(uint256){\n      uint256 _intrinsicValue = 0;\n      if((_poType == PayoffType.Call) && (_price > _strike)){ _intrinsicValue = _price - _strike; }\n      if((_poType == PayoffType.Put) && (_price<_strike)){ _intrinsicValue = _strike - _price;}\n      return MulDiv(_intrinsicValue, _amount, DefaultMultiplier); }\n\n  function calcTimeValue(uint256 _strike, uint256 _price, uint256 _volatility, uint256 _amount) private pure returns (uint256){\n    if(_volatility == 0) return _volatility;\n    uint256 _moneyness = _strike > _price? (_price * DefaultMultiplier / _strike) : (_strike * DefaultMultiplier / _price); // always in (0,1]\n    uint256 _midPoint = DefaultMultiplier - (_volatility > DefaultMultiplier? DefaultMultiplier: _volatility) / 2 ; // always in [0.5, 1]\n    uint256 _a = 2 * DefaultMultiplier - _midPoint; // always in [1, 1.5]\n    uint256 _b = DefaultMultiplier - _midPoint; // always in [0, 0.5]\n    return MulDiv(_amount * 4, MulDiv(_b,  _volatility, _a - _moneyness), 10 * DefaultMultiplier);}\n\n  function calcPremium(uint256 _price, uint256 _volatility, uint256 _strike, PayoffType _poType, uint256 _amount) public pure returns(uint256){\n      uint256 _intrinsicValue = calcIntrinsicValue(_strike, _price, _amount, _poType);\n      uint256 _timeValue = MulDiv(calcTimeValue(_strike, _price, _volatility, _amount), _price, DefaultMultiplier);\n      return _intrinsicValue + _timeValue;}\n\n  function calcPayoff(Option storage _option, uint256 _price) public view returns(uint256){\n    return calcIntrinsicValue(_option.strike, _price, _option.amount, _option.poType);}\n\n  function calcNotionalExposure(Option storage _option, uint256 _price) public view returns(uint256){ return MulDiv(_option.amount, _price, DefaultMultiplier);}\n\n  function calcDelta(uint256 _price, uint256 _strike, uint256 _vol) public pure returns(uint256 _delta){\n    uint256 _moneyness = MulDiv(_price, DefaultMultiplier, _strike);\n    int256 _d = int256(MulDiv(2 * DefaultMultiplier,  (_moneyness * DefaultMultiplier).sqrt(), _vol)) - int256(MulDiv(2 * DefaultMultiplier,  DefaultMultiplier, _vol)) + int256(_vol/ 2);\n    _delta = Logistic(_d);}\n  \n  function calcGamma(uint256 _price, uint256 _strike, uint256 _vol) public pure returns(uint256 _gamma){\n    uint256 _moneyness = MulDiv(_price, DefaultMultiplier, _strike);\n    int256 _d = int256(MulDiv(2 * DefaultMultiplier,  (_moneyness * DefaultMultiplier).sqrt(), _vol)) - int256(MulDiv(2 * DefaultMultiplier,  DefaultMultiplier, _vol)) + int256(_vol/ 2);\n    _gamma = MulDiv(MulDiv(NormalDensity(_d), DefaultMultiplier, _price), DefaultMultiplier, _vol);}\n\n  function adjustSlippage(uint256 _amount, bool _adjustUpward, uint256 _slippage, uint256 _loanInterest) public pure returns (uint256 _adjustedAmount){\n    _adjustedAmount = _amount;\n    if(_adjustUpward) _adjustedAmount = MulDiv(_amount, DefaultMultiplier + _slippage + _loanInterest, DefaultMultiplier);\n    if(!_adjustUpward) _adjustedAmount = MulDiv(_amount, DefaultMultiplier, DefaultMultiplier + _slippage+ _loanInterest);}\n\n  function getOpposeTrade(int256 _amount, uint256 _price, uint256 _slippage) external pure returns (int256 _oppositeAmount){\n    _oppositeAmount = int256(MulDiv(adjustSlippage(_amount >=0 ? uint256(_amount): uint256(-_amount), _amount<0, _slippage, 0), _price, DefaultMultiplier)) * (_amount >=0? int256(-1): int256(1));}\n\n}\n",
  "sourcePath": "/Users/apple/Documents/GitHub/moret/contracts/OptionLibrary.sol",
  "compiler": {
    "name": "solc",
    "version": "0.8.9+commit.e5eed63a.Emscripten.clang"
  },
  "schemaVersion": "3.4.3",
  "updatedAt": "2021-11-22T21:51:21.970Z",
  "devdoc": {
    "kind": "dev",
    "methods": {},
    "version": 1
  },
  "userdoc": {
    "kind": "user",
    "methods": {},
    "version": 1
  }
}