{
  "contractName": "OptionVault",
  "abi": [
    {
      "inputs": [],
      "stateMutability": "nonpayable",
      "type": "constructor"
    },
    {
      "anonymous": false,
      "inputs": [
        {
          "indexed": true,
          "internalType": "address",
          "name": "_bot",
          "type": "address"
        },
        {
          "indexed": true,
          "internalType": "address",
          "name": "_exchange",
          "type": "address"
        },
        {
          "indexed": false,
          "internalType": "address",
          "name": "_holder",
          "type": "address"
        },
        {
          "indexed": false,
          "internalType": "uint256",
          "name": "_id",
          "type": "uint256"
        },
        {
          "indexed": false,
          "internalType": "uint256",
          "name": "_payoff",
          "type": "uint256"
        }
      ],
      "name": "Expire",
      "type": "event"
    },
    {
      "anonymous": false,
      "inputs": [
        {
          "indexed": true,
          "internalType": "address",
          "name": "_hedger",
          "type": "address"
        },
        {
          "indexed": true,
          "internalType": "address",
          "name": "_market",
          "type": "address"
        },
        {
          "indexed": false,
          "internalType": "bool",
          "name": "success",
          "type": "bool"
        },
        {
          "indexed": false,
          "internalType": "bytes",
          "name": "data",
          "type": "bytes"
        }
      ],
      "name": "HedgeResponse",
      "type": "event"
    },
    {
      "anonymous": false,
      "inputs": [
        {
          "indexed": true,
          "internalType": "address",
          "name": "_hedger",
          "type": "address"
        },
        {
          "indexed": true,
          "internalType": "address",
          "name": "_market",
          "type": "address"
        },
        {
          "indexed": false,
          "internalType": "uint256[]",
          "name": "amounts",
          "type": "uint256[]"
        }
      ],
      "name": "HedgeSwapResponse",
      "type": "event"
    },
    {
      "anonymous": false,
      "inputs": [
        {
          "indexed": true,
          "internalType": "address",
          "name": "_purchaser",
          "type": "address"
        },
        {
          "indexed": true,
          "internalType": "address",
          "name": "_exchange",
          "type": "address"
        },
        {
          "indexed": false,
          "internalType": "uint256",
          "name": "_id",
          "type": "uint256"
        },
        {
          "indexed": false,
          "internalType": "uint256",
          "name": "_premium",
          "type": "uint256"
        },
        {
          "indexed": false,
          "internalType": "uint256",
          "name": "_collateral",
          "type": "uint256"
        },
        {
          "indexed": false,
          "internalType": "bool",
          "name": "_inVol",
          "type": "bool"
        }
      ],
      "name": "NewOption",
      "type": "event"
    },
    {
      "anonymous": false,
      "inputs": [
        {
          "indexed": false,
          "internalType": "address",
          "name": "_newBot",
          "type": "address"
        }
      ],
      "name": "ResetBotAddress",
      "type": "event"
    },
    {
      "anonymous": false,
      "inputs": [
        {
          "indexed": true,
          "internalType": "uint256",
          "name": "_parameterId",
          "type": "uint256"
        },
        {
          "indexed": false,
          "internalType": "uint256",
          "name": "_parameter",
          "type": "uint256"
        }
      ],
      "name": "ResetParameter",
      "type": "event"
    },
    {
      "anonymous": false,
      "inputs": [
        {
          "indexed": true,
          "internalType": "address",
          "name": "_exchange",
          "type": "address"
        },
        {
          "indexed": false,
          "internalType": "bool",
          "name": "_tradingAllowed",
          "type": "bool"
        }
      ],
      "name": "ResetTradingStatus",
      "type": "event"
    },
    {
      "anonymous": false,
      "inputs": [
        {
          "indexed": true,
          "internalType": "bytes32",
          "name": "role",
          "type": "bytes32"
        },
        {
          "indexed": true,
          "internalType": "bytes32",
          "name": "previousAdminRole",
          "type": "bytes32"
        },
        {
          "indexed": true,
          "internalType": "bytes32",
          "name": "newAdminRole",
          "type": "bytes32"
        }
      ],
      "name": "RoleAdminChanged",
      "type": "event"
    },
    {
      "anonymous": false,
      "inputs": [
        {
          "indexed": true,
          "internalType": "bytes32",
          "name": "role",
          "type": "bytes32"
        },
        {
          "indexed": true,
          "internalType": "address",
          "name": "account",
          "type": "address"
        },
        {
          "indexed": true,
          "internalType": "address",
          "name": "sender",
          "type": "address"
        }
      ],
      "name": "RoleGranted",
      "type": "event"
    },
    {
      "anonymous": false,
      "inputs": [
        {
          "indexed": true,
          "internalType": "bytes32",
          "name": "role",
          "type": "bytes32"
        },
        {
          "indexed": true,
          "internalType": "address",
          "name": "account",
          "type": "address"
        },
        {
          "indexed": true,
          "internalType": "address",
          "name": "sender",
          "type": "address"
        }
      ],
      "name": "RoleRevoked",
      "type": "event"
    },
    {
      "anonymous": false,
      "inputs": [
        {
          "indexed": true,
          "internalType": "address",
          "name": "_purchaser",
          "type": "address"
        },
        {
          "indexed": true,
          "internalType": "address",
          "name": "_exchange",
          "type": "address"
        },
        {
          "indexed": false,
          "internalType": "uint256",
          "name": "_cost",
          "type": "uint256"
        },
        {
          "indexed": false,
          "internalType": "uint256",
          "name": "_volAmount",
          "type": "uint256"
        },
        {
          "indexed": false,
          "internalType": "bool",
          "name": "_isPurchase",
          "type": "bool"
        }
      ],
      "name": "TradeVolatility",
      "type": "event"
    },
    {
      "inputs": [],
      "name": "DEFAULT_ADMIN_ROLE",
      "outputs": [
        {
          "internalType": "bytes32",
          "name": "",
          "type": "bytes32"
        }
      ],
      "stateMutability": "view",
      "type": "function",
      "constant": true
    },
    {
      "inputs": [],
      "name": "EXCHANGE",
      "outputs": [
        {
          "internalType": "bytes32",
          "name": "",
          "type": "bytes32"
        }
      ],
      "stateMutability": "view",
      "type": "function",
      "constant": true
    },
    {
      "inputs": [
        {
          "internalType": "bytes32",
          "name": "role",
          "type": "bytes32"
        }
      ],
      "name": "getRoleAdmin",
      "outputs": [
        {
          "internalType": "bytes32",
          "name": "",
          "type": "bytes32"
        }
      ],
      "stateMutability": "view",
      "type": "function",
      "constant": true
    },
    {
      "inputs": [
        {
          "internalType": "bytes32",
          "name": "role",
          "type": "bytes32"
        },
        {
          "internalType": "address",
          "name": "account",
          "type": "address"
        }
      ],
      "name": "grantRole",
      "outputs": [],
      "stateMutability": "nonpayable",
      "type": "function"
    },
    {
      "inputs": [
        {
          "internalType": "bytes32",
          "name": "role",
          "type": "bytes32"
        },
        {
          "internalType": "address",
          "name": "account",
          "type": "address"
        }
      ],
      "name": "hasRole",
      "outputs": [
        {
          "internalType": "bool",
          "name": "",
          "type": "bool"
        }
      ],
      "stateMutability": "view",
      "type": "function",
      "constant": true
    },
    {
      "inputs": [
        {
          "internalType": "address",
          "name": "",
          "type": "address"
        }
      ],
      "name": "mDeltaAtMax",
      "outputs": [
        {
          "internalType": "uint256",
          "name": "",
          "type": "uint256"
        }
      ],
      "stateMutability": "view",
      "type": "function",
      "constant": true
    },
    {
      "inputs": [
        {
          "internalType": "address",
          "name": "",
          "type": "address"
        }
      ],
      "name": "mDeltaAtZero",
      "outputs": [
        {
          "internalType": "uint256",
          "name": "",
          "type": "uint256"
        }
      ],
      "stateMutability": "view",
      "type": "function",
      "constant": true
    },
    {
      "inputs": [
        {
          "internalType": "address",
          "name": "",
          "type": "address"
        }
      ],
      "name": "mNetNotional",
      "outputs": [
        {
          "internalType": "int256",
          "name": "",
          "type": "int256"
        }
      ],
      "stateMutability": "view",
      "type": "function",
      "constant": true
    },
    {
      "inputs": [
        {
          "internalType": "address",
          "name": "",
          "type": "address"
        }
      ],
      "name": "mPutCollateral",
      "outputs": [
        {
          "internalType": "uint256",
          "name": "",
          "type": "uint256"
        }
      ],
      "stateMutability": "view",
      "type": "function",
      "constant": true
    },
    {
      "inputs": [
        {
          "internalType": "bytes32",
          "name": "role",
          "type": "bytes32"
        },
        {
          "internalType": "address",
          "name": "account",
          "type": "address"
        }
      ],
      "name": "renounceRole",
      "outputs": [],
      "stateMutability": "nonpayable",
      "type": "function"
    },
    {
      "inputs": [
        {
          "internalType": "bytes32",
          "name": "role",
          "type": "bytes32"
        },
        {
          "internalType": "address",
          "name": "account",
          "type": "address"
        }
      ],
      "name": "revokeRole",
      "outputs": [],
      "stateMutability": "nonpayable",
      "type": "function"
    },
    {
      "inputs": [
        {
          "internalType": "bytes4",
          "name": "interfaceId",
          "type": "bytes4"
        }
      ],
      "name": "supportsInterface",
      "outputs": [
        {
          "internalType": "bool",
          "name": "",
          "type": "bool"
        }
      ],
      "stateMutability": "view",
      "type": "function",
      "constant": true
    },
    {
      "inputs": [
        {
          "components": [
            {
              "internalType": "enum OptionLib.PayoffType",
              "name": "poType",
              "type": "uint8"
            },
            {
              "internalType": "enum OptionLib.OptionSide",
              "name": "side",
              "type": "uint8"
            },
            {
              "internalType": "enum OptionLib.OptionStatus",
              "name": "status",
              "type": "uint8"
            },
            {
              "internalType": "address",
              "name": "holder",
              "type": "address"
            },
            {
              "internalType": "uint256",
              "name": "id",
              "type": "uint256"
            },
            {
              "internalType": "uint256",
              "name": "createTime",
              "type": "uint256"
            },
            {
              "internalType": "uint256",
              "name": "effectiveTime",
              "type": "uint256"
            },
            {
              "internalType": "uint256",
              "name": "tenor",
              "type": "uint256"
            },
            {
              "internalType": "uint256",
              "name": "maturity",
              "type": "uint256"
            },
            {
              "internalType": "uint256",
              "name": "exerciseTime",
              "type": "uint256"
            },
            {
              "internalType": "uint256",
              "name": "amount",
              "type": "uint256"
            },
            {
              "internalType": "uint256",
              "name": "spot",
              "type": "uint256"
            },
            {
              "internalType": "uint256",
              "name": "strike",
              "type": "uint256"
            },
            {
              "internalType": "uint256",
              "name": "volatility",
              "type": "uint256"
            },
            {
              "internalType": "uint256",
              "name": "premium",
              "type": "uint256"
            },
            {
              "internalType": "uint256",
              "name": "cost",
              "type": "uint256"
            },
            {
              "internalType": "address",
              "name": "pool",
              "type": "address"
            }
          ],
          "internalType": "struct OptionLib.Option",
          "name": "_option",
          "type": "tuple"
        },
        {
          "internalType": "uint256",
          "name": "_premium",
          "type": "uint256"
        },
        {
          "internalType": "uint256",
          "name": "_collateral",
          "type": "uint256"
        },
        {
          "internalType": "uint256",
          "name": "_price",
          "type": "uint256"
        },
        {
          "internalType": "uint256",
          "name": "_vol",
          "type": "uint256"
        }
      ],
      "name": "addOption",
      "outputs": [
        {
          "internalType": "uint256",
          "name": "_id",
          "type": "uint256"
        }
      ],
      "stateMutability": "nonpayable",
      "type": "function"
    },
    {
      "inputs": [
        {
          "internalType": "uint256",
          "name": "_id",
          "type": "uint256"
        },
        {
          "internalType": "address",
          "name": "_holder",
          "type": "address"
        }
      ],
      "name": "stampActiveOption",
      "outputs": [],
      "stateMutability": "nonpayable",
      "type": "function"
    },
    {
      "inputs": [
        {
          "internalType": "uint256",
          "name": "_id",
          "type": "uint256"
        }
      ],
      "name": "stampExpiredOption",
      "outputs": [],
      "stateMutability": "nonpayable",
      "type": "function"
    },
    {
      "inputs": [
        {
          "internalType": "address",
          "name": "_pool",
          "type": "address"
        },
        {
          "internalType": "address",
          "name": "_address",
          "type": "address"
        }
      ],
      "name": "getHolderOptions",
      "outputs": [
        {
          "internalType": "uint256[]",
          "name": "",
          "type": "uint256[]"
        }
      ],
      "stateMutability": "view",
      "type": "function",
      "constant": true
    },
    {
      "inputs": [
        {
          "internalType": "uint256",
          "name": "_id",
          "type": "uint256"
        }
      ],
      "name": "getOption",
      "outputs": [
        {
          "components": [
            {
              "internalType": "enum OptionLib.PayoffType",
              "name": "poType",
              "type": "uint8"
            },
            {
              "internalType": "enum OptionLib.OptionSide",
              "name": "side",
              "type": "uint8"
            },
            {
              "internalType": "enum OptionLib.OptionStatus",
              "name": "status",
              "type": "uint8"
            },
            {
              "internalType": "address",
              "name": "holder",
              "type": "address"
            },
            {
              "internalType": "uint256",
              "name": "id",
              "type": "uint256"
            },
            {
              "internalType": "uint256",
              "name": "createTime",
              "type": "uint256"
            },
            {
              "internalType": "uint256",
              "name": "effectiveTime",
              "type": "uint256"
            },
            {
              "internalType": "uint256",
              "name": "tenor",
              "type": "uint256"
            },
            {
              "internalType": "uint256",
              "name": "maturity",
              "type": "uint256"
            },
            {
              "internalType": "uint256",
              "name": "exerciseTime",
              "type": "uint256"
            },
            {
              "internalType": "uint256",
              "name": "amount",
              "type": "uint256"
            },
            {
              "internalType": "uint256",
              "name": "spot",
              "type": "uint256"
            },
            {
              "internalType": "uint256",
              "name": "strike",
              "type": "uint256"
            },
            {
              "internalType": "uint256",
              "name": "volatility",
              "type": "uint256"
            },
            {
              "internalType": "uint256",
              "name": "premium",
              "type": "uint256"
            },
            {
              "internalType": "uint256",
              "name": "cost",
              "type": "uint256"
            },
            {
              "internalType": "address",
              "name": "pool",
              "type": "address"
            }
          ],
          "internalType": "struct OptionLib.Option",
          "name": "",
          "type": "tuple"
        }
      ],
      "stateMutability": "view",
      "type": "function",
      "constant": true
    },
    {
      "inputs": [
        {
          "internalType": "address",
          "name": "_poolAddress",
          "type": "address"
        }
      ],
      "name": "getActiveOptionCount",
      "outputs": [
        {
          "internalType": "uint256",
          "name": "",
          "type": "uint256"
        }
      ],
      "stateMutability": "view",
      "type": "function",
      "constant": true
    },
    {
      "inputs": [
        {
          "internalType": "uint256",
          "name": "_id",
          "type": "uint256"
        }
      ],
      "name": "getOptionInfo",
      "outputs": [
        {
          "internalType": "enum OptionLib.OptionStatus",
          "name": "",
          "type": "uint8"
        },
        {
          "internalType": "enum OptionLib.OptionSide",
          "name": "",
          "type": "uint8"
        },
        {
          "internalType": "address",
          "name": "",
          "type": "address"
        },
        {
          "internalType": "contract Pool",
          "name": "",
          "type": "address"
        }
      ],
      "stateMutability": "view",
      "type": "function",
      "constant": true
    },
    {
      "inputs": [
        {
          "internalType": "uint256",
          "name": "_id",
          "type": "uint256"
        }
      ],
      "name": "getContractPayoff",
      "outputs": [
        {
          "internalType": "uint256",
          "name": "_payoff",
          "type": "uint256"
        },
        {
          "internalType": "uint256",
          "name": "_payback",
          "type": "uint256"
        },
        {
          "internalType": "uint256",
          "name": "_collateral",
          "type": "uint256"
        }
      ],
      "stateMutability": "view",
      "type": "function",
      "constant": true
    },
    {
      "inputs": [
        {
          "internalType": "address",
          "name": "_poolAddress",
          "type": "address"
        }
      ],
      "name": "anyOptionExpiring",
      "outputs": [
        {
          "internalType": "bool",
          "name": "_isExpiring",
          "type": "bool"
        }
      ],
      "stateMutability": "view",
      "type": "function",
      "constant": true
    },
    {
      "inputs": [
        {
          "internalType": "address",
          "name": "_poolAddress",
          "type": "address"
        }
      ],
      "name": "getExpiringOptionId",
      "outputs": [
        {
          "internalType": "uint256",
          "name": "_id",
          "type": "uint256"
        }
      ],
      "stateMutability": "view",
      "type": "function",
      "constant": true
    },
    {
      "inputs": [
        {
          "internalType": "contract Pool",
          "name": "_pool",
          "type": "address"
        },
        {
          "internalType": "uint256",
          "name": "_tenor",
          "type": "uint256"
        },
        {
          "internalType": "uint256",
          "name": "_amount",
          "type": "uint256"
        },
        {
          "internalType": "enum OptionLib.PayoffType",
          "name": "_poType",
          "type": "uint8"
        },
        {
          "internalType": "enum OptionLib.OptionSide",
          "name": "_side",
          "type": "uint8"
        }
      ],
      "name": "tryATMOptionCost",
      "outputs": [
        {
          "internalType": "uint256",
          "name": "_premium",
          "type": "uint256"
        },
        {
          "internalType": "uint256",
          "name": "_collateral",
          "type": "uint256"
        },
        {
          "internalType": "uint256",
          "name": "_price",
          "type": "uint256"
        },
        {
          "internalType": "uint256",
          "name": "_volatilty",
          "type": "uint256"
        }
      ],
      "stateMutability": "view",
      "type": "function",
      "constant": true
    },
    {
      "inputs": [
        {
          "components": [
            {
              "internalType": "enum OptionLib.PayoffType",
              "name": "poType",
              "type": "uint8"
            },
            {
              "internalType": "enum OptionLib.OptionSide",
              "name": "side",
              "type": "uint8"
            },
            {
              "internalType": "enum OptionLib.OptionStatus",
              "name": "status",
              "type": "uint8"
            },
            {
              "internalType": "address",
              "name": "holder",
              "type": "address"
            },
            {
              "internalType": "uint256",
              "name": "id",
              "type": "uint256"
            },
            {
              "internalType": "uint256",
              "name": "createTime",
              "type": "uint256"
            },
            {
              "internalType": "uint256",
              "name": "effectiveTime",
              "type": "uint256"
            },
            {
              "internalType": "uint256",
              "name": "tenor",
              "type": "uint256"
            },
            {
              "internalType": "uint256",
              "name": "maturity",
              "type": "uint256"
            },
            {
              "internalType": "uint256",
              "name": "exerciseTime",
              "type": "uint256"
            },
            {
              "internalType": "uint256",
              "name": "amount",
              "type": "uint256"
            },
            {
              "internalType": "uint256",
              "name": "spot",
              "type": "uint256"
            },
            {
              "internalType": "uint256",
              "name": "strike",
              "type": "uint256"
            },
            {
              "internalType": "uint256",
              "name": "volatility",
              "type": "uint256"
            },
            {
              "internalType": "uint256",
              "name": "premium",
              "type": "uint256"
            },
            {
              "internalType": "uint256",
              "name": "cost",
              "type": "uint256"
            },
            {
              "internalType": "address",
              "name": "pool",
              "type": "address"
            }
          ],
          "internalType": "struct OptionLib.Option",
          "name": "_option",
          "type": "tuple"
        },
        {
          "internalType": "bool",
          "name": "_forceATM",
          "type": "bool"
        }
      ],
      "name": "calcOptionCost",
      "outputs": [
        {
          "internalType": "uint256",
          "name": "_premium",
          "type": "uint256"
        },
        {
          "internalType": "uint256",
          "name": "_collateral",
          "type": "uint256"
        },
        {
          "internalType": "uint256",
          "name": "_price",
          "type": "uint256"
        },
        {
          "internalType": "uint256",
          "name": "_annualisedVol",
          "type": "uint256"
        }
      ],
      "stateMutability": "view",
      "type": "function",
      "constant": true
    },
    {
      "inputs": [
        {
          "internalType": "contract MarketMaker",
          "name": "_market",
          "type": "address"
        },
        {
          "internalType": "uint256",
          "name": "_tenor",
          "type": "uint256"
        },
        {
          "internalType": "uint256",
          "name": "_volCapacityFactor",
          "type": "uint256"
        },
        {
          "internalType": "int256",
          "name": "_currentNetNotional",
          "type": "int256"
        },
        {
          "internalType": "int256",
          "name": "_newNetNotional",
          "type": "int256"
        }
      ],
      "name": "calcImpliedVol",
      "outputs": [
        {
          "internalType": "uint256",
          "name": "_price",
          "type": "uint256"
        },
        {
          "internalType": "uint256",
          "name": "_impVol",
          "type": "uint256"
        },
        {
          "internalType": "uint256",
          "name": "_annualisedVol",
          "type": "uint256"
        }
      ],
      "stateMutability": "view",
      "type": "function",
      "constant": true
    },
    {
      "inputs": [
        {
          "internalType": "contract Pool",
          "name": "_pool",
          "type": "address"
        },
        {
          "internalType": "bool",
          "name": "_net",
          "type": "bool"
        },
        {
          "internalType": "bool",
          "name": "_average",
          "type": "bool"
        }
      ],
      "name": "calcCapital",
      "outputs": [
        {
          "internalType": "uint256",
          "name": "",
          "type": "uint256"
        }
      ],
      "stateMutability": "view",
      "type": "function",
      "constant": true
    }
  ],
  "bytecode": "0x60806040523480156200001157600080fd5b50620000276000801b336200002d60201b60201c565b620001a6565b6200003f82826200004360201b60201c565b5050565b6200005582826200013460201b60201c565b6200013057600160008084815260200190815260200160002060000160008373ffffffffffffffffffffffffffffffffffffffff1673ffffffffffffffffffffffffffffffffffffffff16815260200190815260200160002060006101000a81548160ff021916908315150217905550620000d56200019e60201b60201c565b73ffffffffffffffffffffffffffffffffffffffff168173ffffffffffffffffffffffffffffffffffffffff16837f2f8788117e7eff1d82e926ec794901d17c78024a50270940304540a733656f0d60405160405180910390a45b5050565b600080600084815260200190815260200160002060000160008373ffffffffffffffffffffffffffffffffffffffff1673ffffffffffffffffffffffffffffffffffffffff16815260200190815260200160002060009054906101000a900460ff16905092915050565b600033905090565b61500f80620001b66000396000f3fe608060405234801561001057600080fd5b506004361061018e5760003560e01c806365c22c5f116100de5780639bafc25411610097578063b50e44b811610071578063b50e44b81461055b578063b9f10b6614610579578063d547741f146105a9578063fc9d80e0146105c55761018e565b80639bafc254146104dd5780639f2b958c1461050d578063a217fddf1461053d5761018e565b806365c22c5f146103bb5780636a347c40146103eb5780637be795e01461041b578063844a7c9a1461044b57806385ae10e61461047b57806391d14854146104ad5761018e565b8063255242171161014b5780633a328e29116101255780633a328e291461030c5780634bf728b21461033c5780635c273c2f1461036f578063637baf601461039f5761018e565b806325524217146102a25780632f2ff15d146102d457806336568abe146102f05761018e565b806301ffc9a714610193578063132a0f1b146101c35780631ce5e9a6146101f35780632360e81714610223578063248a9ca31461025657806324b4110e14610286575b600080fd5b6101ad60048036038101906101a891906135d7565b6105f8565b6040516101ba919061361f565b60405180910390f35b6101dd60048036038101906101d89190613698565b610672565b6040516101ea91906136de565b60405180910390f35b61020d60048036038101906102089190613725565b6106c2565b60405161021a91906139d6565b60405180910390f35b61023d60048036038101906102389190613cae565b6108d4565b60405161024d9493929190613cf0565b60405180910390f35b610270600480360381019061026b9190613d6b565b610c76565b60405161027d9190613da7565b60405180910390f35b6102a0600480360381019061029b9190613dc2565b610c95565b005b6102bc60048036038101906102b79190613e76565b611180565b6040516102cb93929190613ef1565b60405180910390f35b6102ee60048036038101906102e99190613f28565b6114df565b005b61030a60048036038101906103059190613f28565b611500565b005b61032660048036038101906103219190613698565b611583565b60405161033391906136de565b60405180910390f35b61035660048036038101906103519190613fa6565b6116f3565b6040516103669493929190613cf0565b60405180910390f35b61038960048036038101906103849190614021565b6117f9565b60405161039691906136de565b60405180910390f35b6103b960048036038101906103b49190613725565b611c7e565b005b6103d560048036038101906103d09190613698565b612252565b6040516103e291906136de565b60405180910390f35b61040560048036038101906104009190613698565b61226a565b60405161041291906136de565b60405180910390f35b61043560048036038101906104309190614074565b612282565b6040516104429190614163565b60405180910390f35b61046560048036038101906104609190613698565b612310565b6040516104729190614194565b60405180910390f35b61049560048036038101906104909190613725565b612328565b6040516104a493929190613ef1565b60405180910390f35b6104c760048036038101906104c29190613f28565b612571565b6040516104d4919061361f565b60405180910390f35b6104f760048036038101906104f29190613698565b6125db565b60405161050491906136de565b60405180910390f35b61052760048036038101906105229190613698565b6125f3565b604051610534919061361f565b60405180910390f35b61054561275d565b6040516105529190613da7565b60405180910390f35b610563612764565b6040516105709190613da7565b60405180910390f35b610593600480360381019061058e91906141af565b612788565b6040516105a091906136de565b60405180910390f35b6105c360048036038101906105be9190613f28565b612ace565b005b6105df60048036038101906105da9190613725565b612aef565b6040516105ef94939291906142bb565b60405180910390f35b60007f7965db0b000000000000000000000000000000000000000000000000000000007bffffffffffffffffffffffffffffffffffffffffffffffffffffffff1916827bffffffffffffffffffffffffffffffffffffffffffffffffffffffff1916148061066b575061066a82612c07565b5b9050919050565b60006106bb600360008473ffffffffffffffffffffffffffffffffffffffff1673ffffffffffffffffffffffffffffffffffffffff168152602001908152602001600020612c71565b9050919050565b6106ca61348a565b600182815481106106de576106dd614300565b5b90600052602060002090600e0201604051806102200160405290816000820160009054906101000a900460ff16600181111561071d5761071c613752565b5b600181111561072f5761072e613752565b5b81526020016000820160019054906101000a900460ff16600181111561075857610757613752565b5b600181111561076a57610769613752565b5b81526020016000820160029054906101000a900460ff16600381111561079357610792613752565b5b60038111156107a5576107a4613752565b5b81526020016000820160039054906101000a900473ffffffffffffffffffffffffffffffffffffffff1673ffffffffffffffffffffffffffffffffffffffff1673ffffffffffffffffffffffffffffffffffffffff168152602001600182015481526020016002820154815260200160038201548152602001600482015481526020016005820154815260200160068201548152602001600782015481526020016008820154815260200160098201548152602001600a8201548152602001600b8201548152602001600c8201548152602001600d820160009054906101000a900473ffffffffffffffffffffffffffffffffffffffff1673ffffffffffffffffffffffffffffffffffffffff1673ffffffffffffffffffffffffffffffffffffffff16815250509050919050565b6000806000806000866102000151905060008173ffffffffffffffffffffffffffffffffffffffff16631f21f9af6040518163ffffffff1660e01b8152600401602060405180830381865afa158015610931573d6000803e3d6000fd5b505050506040513d601f19601f820116820180604052508101906109559190614344565b9050600060018081111561096c5761096b613752565b5b8960200151600181111561098357610982613752565b5b1461098f5760016109b1565b7fffffffffffffffffffffffffffffffffffffffffffffffffffffffffffffffff5b6109bf8a6101400151612c86565b6109c991906143a0565b600460008b610200015173ffffffffffffffffffffffffffffffffffffffff1673ffffffffffffffffffffffffffffffffffffffff16815260200190815260200160002054610a1891906144b7565b90506000610adf838b60e001518673ffffffffffffffffffffffffffffffffffffffff16630f9026186040518163ffffffff1660e01b8152600401602060405180830381865afa158015610a70573d6000803e3d6000fd5b505050506040513d601f19601f82011682018060405250810190610a949190614560565b600460008f610200015173ffffffffffffffffffffffffffffffffffffffff1673ffffffffffffffffffffffffffffffffffffffff1681526020019081526020016000205486611180565b8097508193508298505050508815610afd57858a6101800181815250505b8973__OptionLib_____________________________638399d60c909188848773ffffffffffffffffffffffffffffffffffffffff1663a7292ea46040518163ffffffff1660e01b8152600401602060405180830381865afa158015610b67573d6000803e3d6000fd5b505050506040513d601f19601f82011682018060405250810190610b8b9190614560565b6040518563ffffffff1660e01b8152600401610baa9493929190614746565b602060405180830381865af4158015610bc7573d6000803e3d6000fd5b505050506040513d601f19601f82011682018060405250810190610beb9190614560565b97508973__OptionLib_____________________________63f8581c2c90916040518263ffffffff1660e01b8152600401610c26919061478f565b602060405180830381865af4158015610c43573d6000803e3d6000fd5b505050506040513d601f19601f82011682018060405250810190610c679190614560565b96505050505092959194509250565b6000806000838152602001908152602001600020600101549050919050565b7f10b261d3bc7a74f38949f9212b0336103474898eda034c06ae0a3e478dc0e4a5610cbf81612cf3565b600060018481548110610cd557610cd4614300565b5b90600052602060002090600e02019050428160030181905550806004015442610cfe91906147ab565b816005018190555060018160000160026101000a81548160ff02191690836003811115610d2e57610d2d613752565b5b0217905550600081600d0160009054906101000a900473ffffffffffffffffffffffffffffffffffffffff1690508173__OptionLib_____________________________63bf38721c90916040518263ffffffff1660e01b8152600401610d959190614808565b602060405180830381865af4158015610db2573d6000803e3d6000fd5b505050506040513d601f19601f82011682018060405250810190610dd69190614838565b600460008373ffffffffffffffffffffffffffffffffffffffff1673ffffffffffffffffffffffffffffffffffffffff1681526020019081526020016000206000828254610e2491906144b7565b925050819055508173__OptionLib_____________________________631b4fb86990916040518263ffffffff1660e01b8152600401610e649190614808565b602060405180830381865af4158015610e81573d6000803e3d6000fd5b505050506040513d601f19601f82011682018060405250810190610ea59190614560565b600560008373ffffffffffffffffffffffffffffffffffffffff1673ffffffffffffffffffffffffffffffffffffffff1681526020019081526020016000206000828254610ef391906147ab565b925050819055508173__OptionLib_____________________________632e5cf0a790916040518263ffffffff1660e01b8152600401610f339190614808565b602060405180830381865af4158015610f50573d6000803e3d6000fd5b505050506040513d601f19601f82011682018060405250810190610f749190614560565b600660008373ffffffffffffffffffffffffffffffffffffffff1673ffffffffffffffffffffffffffffffffffffffff1681526020019081526020016000206000828254610fc291906147ab565b925050819055508173__OptionLib_____________________________6304a65c3e90916040518263ffffffff1660e01b81526004016110029190614808565b602060405180830381865af415801561101f573d6000803e3d6000fd5b505050506040513d601f19601f820116820180604052508101906110439190614560565b600760008373ffffffffffffffffffffffffffffffffffffffff1673ffffffffffffffffffffffffffffffffffffffff168152602001908152602001600020600082825461109191906147ab565b9250508190555061112685600260008473ffffffffffffffffffffffffffffffffffffffff1673ffffffffffffffffffffffffffffffffffffffff16815260200190815260200160002060008773ffffffffffffffffffffffffffffffffffffffff1673ffffffffffffffffffffffffffffffffffffffff168152602001908152602001600020612d0790919063ffffffff16565b5061117885600360008473ffffffffffffffffffffffffffffffffffffffff1673ffffffffffffffffffffffffffffffffffffffff168152602001908152602001600020612d0790919063ffffffff16565b505050505050565b6000806000808873ffffffffffffffffffffffffffffffffffffffff1663c0a16f6a6040518163ffffffff1660e01b8152600401602060405180830381865afa1580156111d1573d6000803e3d6000fd5b505050506040513d601f19601f820116820180604052508101906111f591906148a3565b90508073ffffffffffffffffffffffffffffffffffffffff1663b0667cf86040518163ffffffff1660e01b8152600401602060405180830381865afa158015611242573d6000803e3d6000fd5b505050506040513d601f19601f820116820180604052508101906112669190614560565b935073__MarketLib_____________________________637bc7ed7873__MarketLib_____________________________63e74207d68c886040518363ffffffff1660e01b81526004016112bb9291906148f1565b602060405180830381865af41580156112d8573d6000803e3d6000fd5b505050506040513d601f19601f820116820180604052508101906112fc9190614560565b88888573ffffffffffffffffffffffffffffffffffffffff1663cfc2dc208e6040518263ffffffff1660e01b815260040161133791906136de565b602060405180830381865afa158015611354573d6000803e3d6000fd5b505050506040513d601f19601f820116820180604052508101906113789190614560565b8c6040518663ffffffff1660e01b8152600401611399959493929190614929565b602060405180830381865af41580156113b6573d6000803e3d6000fd5b505050506040513d601f19601f820116820180604052508101906113da9190614560565b92508273__MathLib_______________________________63fed4a0f390918373ffffffffffffffffffffffffffffffffffffffff1663430417f78c6040518263ffffffff1660e01b815260040161143291906136de565b602060405180830381865afa15801561144f573d6000803e3d6000fd5b505050506040513d601f19601f820116820180604052508101906114739190614560565b6040518363ffffffff1660e01b815260040161149092919061497c565b602060405180830381865af41580156114ad573d6000803e3d6000fd5b505050506040513d601f19601f820116820180604052508101906114d19190614560565b915050955095509592505050565b6114e882610c76565b6114f181612cf3565b6114fb8383612d21565b505050565b611508612e01565b73ffffffffffffffffffffffffffffffffffffffff168173ffffffffffffffffffffffffffffffffffffffff1614611575576040517f08c379a000000000000000000000000000000000000000000000000000000000815260040161156c90614a28565b60405180910390fd5b61157f8282612e09565b5050565b6000806115cd600360008573ffffffffffffffffffffffffffffffffffffffff1673ffffffffffffffffffffffffffffffffffffffff168152602001908152602001600020612c71565b905060005b818110156116ec57600061162d82600360008873ffffffffffffffffffffffffffffffffffffffff1673ffffffffffffffffffffffffffffffffffffffff168152602001908152602001600020612eea90919063ffffffff16565b90506001818154811061164357611642614300565b5b90600052602060002090600e020173__OptionLib_____________________________63febf205490916040518263ffffffff1660e01b81526004016116899190614808565b602060405180830381865af41580156116a6573d6000803e3d6000fd5b505050506040513d601f19601f820116820180604052508101906116ca9190614a5d565b156116d857809350506116ec565b5080806116e490614a8a565b9150506115d2565b5050919050565b600080600080600060405180610220016040528088600181111561171a57611719613752565b5b815260200187600181111561173257611731613752565b5b81526020016000600381111561174b5761174a613752565b5b81526020013373ffffffffffffffffffffffffffffffffffffffff16815260200160008152602001428152602001600081526020018a8152602001600081526020016000815260200189815260200160008152602001600081526020016000815260200160008152602001600081526020018b73ffffffffffffffffffffffffffffffffffffffff1681525090506117e48160016108d4565b94509450945094505095509550955095915050565b6000808473ffffffffffffffffffffffffffffffffffffffff16631f21f9af6040518163ffffffff1660e01b8152600401602060405180830381865afa158015611847573d6000803e3d6000fd5b505050506040513d601f19601f8201168201806040525081019061186b9190614344565b905060008173ffffffffffffffffffffffffffffffffffffffff1663c0a16f6a6040518163ffffffff1660e01b8152600401602060405180830381865afa1580156118ba573d6000803e3d6000fd5b505050506040513d601f19601f820116820180604052508101906118de91906148a3565b905060008173ffffffffffffffffffffffffffffffffffffffff1663b0667cf86040518163ffffffff1660e01b8152600401602060405180830381865afa15801561192d573d6000803e3d6000fd5b505050506040513d601f19601f820116820180604052508101906119519190614560565b9050600073__MarketLib_____________________________63e74207d685846040518363ffffffff1660e01b815260040161198e9291906148f1565b602060405180830381865af41580156119ab573d6000803e3d6000fd5b505050506040513d601f19601f820116820180604052508101906119cf9190614560565b905060008890508715611b46576000611a66600660008473ffffffffffffffffffffffffffffffffffffffff1673ffffffffffffffffffffffffffffffffffffffff16815260200190815260200160002054600760008573ffffffffffffffffffffffffffffffffffffffff1673ffffffffffffffffffffffffffffffffffffffff16815260200190815260200160002054612f04565b73__MathLib_______________________________63fed4a0f39091866040518363ffffffff1660e01b8152600401611aa092919061497c565b602060405180830381865af4158015611abd573d6000803e3d6000fd5b505050506040513d601f19601f82011682018060405250810190611ae19190614560565b9050611b37600560008473ffffffffffffffffffffffffffffffffffffffff1673ffffffffffffffffffffffffffffffffffffffff1681526020019081526020016000205482611b3191906147ab565b84612f1e565b83611b429190614ad2565b9250505b8615611c6f5760008973ffffffffffffffffffffffffffffffffffffffff166318160ddd6040518163ffffffff1660e01b8152600401602060405180830381865afa158015611b99573d6000803e3d6000fd5b505050506040513d601f19601f82011682018060405250810190611bbd9190614560565b90506000811115611c4b578273__MathLib_______________________________63de7f61709091836040518363ffffffff1660e01b8152600401611c0392919061497c565b602060405180830381865af4158015611c20573d6000803e3d6000fd5b505050506040513d601f19601f82011682018060405250810190611c449190614560565b9250611c6d565b600081148015611c5b5750600083145b15611c6c57670de0b6b3a764000092505b5b505b81955050505050509392505050565b7f10b261d3bc7a74f38949f9212b0336103474898eda034c06ae0a3e478dc0e4a5611ca881612cf3565b600060018381548110611cbe57611cbd614300565b5b90600052602060002090600e02019050600081600d0160009054906101000a900473ffffffffffffffffffffffffffffffffffffffff16905060008260000160039054906101000a900473ffffffffffffffffffffffffffffffffffffffff169050611d7185600360008573ffffffffffffffffffffffffffffffffffffffff1673ffffffffffffffffffffffffffffffffffffffff168152602001908152602001600020612f3790919063ffffffff16565b50611e0085600260008573ffffffffffffffffffffffffffffffffffffffff1673ffffffffffffffffffffffffffffffffffffffff16815260200190815260200160002060008473ffffffffffffffffffffffffffffffffffffffff1673ffffffffffffffffffffffffffffffffffffffff168152602001908152602001600020612f3790919063ffffffff16565b508273__OptionLib_____________________________63bf38721c90916040518263ffffffff1660e01b8152600401611e3a9190614808565b602060405180830381865af4158015611e57573d6000803e3d6000fd5b505050506040513d601f19601f82011682018060405250810190611e7b9190614838565b600460008473ffffffffffffffffffffffffffffffffffffffff1673ffffffffffffffffffffffffffffffffffffffff1681526020019081526020016000206000828254611ec99190614b06565b92505081905550611f92600660008473ffffffffffffffffffffffffffffffffffffffff1673ffffffffffffffffffffffffffffffffffffffff168152602001908152602001600020548473__OptionLib_____________________________632e5cf0a790916040518263ffffffff1660e01b8152600401611f4c9190614808565b602060405180830381865af4158015611f69573d6000803e3d6000fd5b505050506040513d601f19601f82011682018060405250810190611f8d9190614560565b612f1e565b600660008473ffffffffffffffffffffffffffffffffffffffff1673ffffffffffffffffffffffffffffffffffffffff1681526020019081526020016000206000828254611fe09190614ad2565b925050819055506120a9600760008473ffffffffffffffffffffffffffffffffffffffff1673ffffffffffffffffffffffffffffffffffffffff168152602001908152602001600020548473__OptionLib_____________________________6304a65c3e90916040518263ffffffff1660e01b81526004016120639190614808565b602060405180830381865af4158015612080573d6000803e3d6000fd5b505050506040513d601f19601f820116820180604052508101906120a49190614560565b612f1e565b600760008473ffffffffffffffffffffffffffffffffffffffff1673ffffffffffffffffffffffffffffffffffffffff16815260200190815260200160002060008282546120f79190614ad2565b925050819055506121c0600560008473ffffffffffffffffffffffffffffffffffffffff1673ffffffffffffffffffffffffffffffffffffffff168152602001908152602001600020548473__OptionLib_____________________________631b4fb86990916040518263ffffffff1660e01b815260040161217a9190614808565b602060405180830381865af4158015612197573d6000803e3d6000fd5b505050506040513d601f19601f820116820180604052508101906121bb9190614560565b612f1e565b600560008473ffffffffffffffffffffffffffffffffffffffff1673ffffffffffffffffffffffffffffffffffffffff168152602001908152602001600020600082825461220e9190614ad2565b9250508190555060038360000160026101000a81548160ff0219169083600381111561223d5761223c613752565b5b02179055504283600601819055505050505050565b60076020528060005260406000206000915090505481565b60066020528060005260406000206000915090505481565b6060612308600260008573ffffffffffffffffffffffffffffffffffffffff1673ffffffffffffffffffffffffffffffffffffffff16815260200190815260200160002060008473ffffffffffffffffffffffffffffffffffffffff1673ffffffffffffffffffffffffffffffffffffffff168152602001908152602001600020612f51565b905092915050565b60046020528060005260406000206000915090505481565b6000806000806001858154811061234257612341614300565b5b90600052602060002090600e0201600d0160009054906101000a900473ffffffffffffffffffffffffffffffffffffffff16905060008173ffffffffffffffffffffffffffffffffffffffff16631f21f9af6040518163ffffffff1660e01b8152600401602060405180830381865afa1580156123c3573d6000803e3d6000fd5b505050506040513d601f19601f820116820180604052508101906123e79190614344565b73ffffffffffffffffffffffffffffffffffffffff1663c0a16f6a6040518163ffffffff1660e01b8152600401602060405180830381865afa158015612431573d6000803e3d6000fd5b505050506040513d601f19601f8201168201806040525081019061245591906148a3565b90506001868154811061246b5761246a614300565b5b90600052602060002090600e020173__OptionLib_____________________________63357aa1df90918373ffffffffffffffffffffffffffffffffffffffff1663b0667cf86040518163ffffffff1660e01b8152600401602060405180830381865afa1580156124e0573d6000803e3d6000fd5b505050506040513d601f19601f820116820180604052508101906125049190614560565b6040518363ffffffff1660e01b8152600401612521929190614b9a565b606060405180830381865af415801561253e573d6000803e3d6000fd5b505050506040513d601f19601f820116820180604052508101906125629190614bc3565b94509450945050509193909250565b600080600084815260200190815260200160002060000160008373ffffffffffffffffffffffffffffffffffffffff1673ffffffffffffffffffffffffffffffffffffffff16815260200190815260200160002060009054906101000a900460ff16905092915050565b60056020528060005260406000206000915090505481565b60008061263d600360008573ffffffffffffffffffffffffffffffffffffffff1673ffffffffffffffffffffffffffffffffffffffff168152602001908152602001600020612c71565b905060005b8181101561275657600161269d82600360008873ffffffffffffffffffffffffffffffffffffffff1673ffffffffffffffffffffffffffffffffffffffff168152602001908152602001600020612eea90919063ffffffff16565b815481106126ae576126ad614300565b5b90600052602060002090600e020173__OptionLib_____________________________63febf205490916040518263ffffffff1660e01b81526004016126f49190614808565b602060405180830381865af4158015612711573d6000803e3d6000fd5b505050506040513d601f19601f820116820180604052508101906127359190614a5d565b156127435760019250612756565b808061274e90614a8a565b915050612642565b5050919050565b6000801b81565b7f10b261d3bc7a74f38949f9212b0336103474898eda034c06ae0a3e478dc0e4a581565b60007f10b261d3bc7a74f38949f9212b0336103474898eda034c06ae0a3e478dc0e4a56127b481612cf3565b60008760e00151116127fb576040517f08c379a00000000000000000000000000000000000000000000000000000000081526004016127f290614c62565b60405180910390fd5b600180549050915060016040518061022001604052808960000151600181111561282857612827613752565b5b81526020018960200151600181111561284457612843613752565b5b81526020016000600381111561285d5761285c613752565b5b8152602001896060015173ffffffffffffffffffffffffffffffffffffffff168152602001848152602001428152602001600081526020018960e00151815260200160008152602001600081526020018961014001518152602001868152602001896101800151815260200185815260200188815260200187815260200189610200015173ffffffffffffffffffffffffffffffffffffffff1681525090806001815401808255809150506001900390600052602060002090600e020160009091909190915060008201518160000160006101000a81548160ff0219169083600181111561294e5761294d613752565b5b021790555060208201518160000160016101000a81548160ff0219169083600181111561297e5761297d613752565b5b021790555060408201518160000160026101000a81548160ff021916908360038111156129ae576129ad613752565b5b021790555060608201518160000160036101000a81548173ffffffffffffffffffffffffffffffffffffffff021916908373ffffffffffffffffffffffffffffffffffffffff1602179055506080820151816001015560a0820151816002015560c0820151816003015560e08201518160040155610100820151816005015561012082015181600601556101408201518160070155610160820151816008015561018082015181600901556101a082015181600a01556101c082015181600b01556101e082015181600c015561020082015181600d0160006101000a81548173ffffffffffffffffffffffffffffffffffffffff021916908373ffffffffffffffffffffffffffffffffffffffff16021790555050505095945050505050565b612ad782610c76565b612ae081612cf3565b612aea8383612e09565b505050565b6000806000806001805490508510612b0657600080fd5b60018581548110612b1a57612b19614300565b5b90600052602060002090600e020160000160029054906101000a900460ff1660018681548110612b4d57612b4c614300565b5b90600052602060002090600e020160000160019054906101000a900460ff1660018781548110612b8057612b7f614300565b5b90600052602060002090600e020160000160039054906101000a900473ffffffffffffffffffffffffffffffffffffffff1660018881548110612bc657612bc5614300565b5b90600052602060002090600e0201600d0160009054906101000a900473ffffffffffffffffffffffffffffffffffffffff1693509350935093509193509193565b60007f01ffc9a7000000000000000000000000000000000000000000000000000000007bffffffffffffffffffffffffffffffffffffffffffffffffffffffff1916827bffffffffffffffffffffffffffffffffffffffffffffffffffffffff1916149050919050565b6000612c7f82600001612f72565b9050919050565b60007f7fffffffffffffffffffffffffffffffffffffffffffffffffffffffffffffff821115612ceb576040517f08c379a0000000000000000000000000000000000000000000000000000000008152600401612ce290614cf4565b60405180910390fd5b819050919050565b612d0481612cff612e01565b612f83565b50565b6000612d19836000018360001b613020565b905092915050565b612d2b8282612571565b612dfd57600160008084815260200190815260200160002060000160008373ffffffffffffffffffffffffffffffffffffffff1673ffffffffffffffffffffffffffffffffffffffff16815260200190815260200160002060006101000a81548160ff021916908315150217905550612da2612e01565b73ffffffffffffffffffffffffffffffffffffffff168173ffffffffffffffffffffffffffffffffffffffff16837f2f8788117e7eff1d82e926ec794901d17c78024a50270940304540a733656f0d60405160405180910390a45b5050565b600033905090565b612e138282612571565b15612ee657600080600084815260200190815260200160002060000160008373ffffffffffffffffffffffffffffffffffffffff1673ffffffffffffffffffffffffffffffffffffffff16815260200190815260200160002060006101000a81548160ff021916908315150217905550612e8b612e01565b73ffffffffffffffffffffffffffffffffffffffff168173ffffffffffffffffffffffffffffffffffffffff16837ff6391f5c32d9c69d2a47ea670b442974b53935d1edc7fd64eb21e047a839171b60405160405180910390a45b5050565b6000612ef98360000183613090565b60001c905092915050565b600081831015612f145781612f16565b825b905092915050565b6000818310612f2d5781612f2f565b825b905092915050565b6000612f49836000018360001b6130bb565b905092915050565b60606000612f61836000016131cf565b905060608190508092505050919050565b600081600001805490509050919050565b612f8d8282612571565b61301c57612fb28173ffffffffffffffffffffffffffffffffffffffff16601461322b565b612fc08360001c602061322b565b604051602001612fd1929190614e26565b6040516020818303038152906040526040517f08c379a00000000000000000000000000000000000000000000000000000000081526004016130139190614e99565b60405180910390fd5b5050565b600061302c8383613467565b61308557826000018290806001815401808255809150506001900390600052602060002001600090919091909150558260000180549050836001016000848152602001908152602001600020819055506001905061308a565b600090505b92915050565b60008260000182815481106130a8576130a7614300565b5b9060005260206000200154905092915050565b600080836001016000848152602001908152602001600020549050600081146131c35760006001826130ed9190614ad2565b90506000600186600001805490506131059190614ad2565b905081811461317457600086600001828154811061312657613125614300565b5b906000526020600020015490508087600001848154811061314a57613149614300565b5b90600052602060002001819055508387600101600083815260200190815260200160002081905550505b8560000180548061318857613187614ebb565b5b6001900381819060005260206000200160009055905585600101600086815260200190815260200160002060009055600193505050506131c9565b60009150505b92915050565b60608160000180548060200260200160405190810160405280929190818152602001828054801561321f57602002820191906000526020600020905b81548152602001906001019080831161320b575b50505050509050919050565b60606000600283600261323e9190614eea565b61324891906147ab565b67ffffffffffffffff81111561326157613260613a08565b5b6040519080825280601f01601f1916602001820160405280156132935781602001600182028036833780820191505090505b5090507f3000000000000000000000000000000000000000000000000000000000000000816000815181106132cb576132ca614300565b5b60200101907effffffffffffffffffffffffffffffffffffffffffffffffffffffffffffff1916908160001a9053507f78000000000000000000000000000000000000000000000000000000000000008160018151811061332f5761332e614300565b5b60200101907effffffffffffffffffffffffffffffffffffffffffffffffffffffffffffff1916908160001a9053506000600184600261336f9190614eea565b61337991906147ab565b90505b6001811115613419577f3031323334353637383961626364656600000000000000000000000000000000600f8616601081106133bb576133ba614300565b5b1a60f81b8282815181106133d2576133d1614300565b5b60200101907effffffffffffffffffffffffffffffffffffffffffffffffffffffffffffff1916908160001a905350600485901c94508061341290614f44565b905061337c565b506000841461345d576040517f08c379a000000000000000000000000000000000000000000000000000000000815260040161345490614fb9565b60405180910390fd5b8091505092915050565b600080836001016000848152602001908152602001600020541415905092915050565b604051806102200160405280600060018111156134aa576134a9613752565b5b8152602001600060018111156134c3576134c2613752565b5b8152602001600060038111156134dc576134db613752565b5b8152602001600073ffffffffffffffffffffffffffffffffffffffff168152602001600081526020016000815260200160008152602001600081526020016000815260200160008152602001600081526020016000815260200160008152602001600081526020016000815260200160008152602001600073ffffffffffffffffffffffffffffffffffffffff1681525090565b6000604051905090565b600080fd5b60007fffffffff0000000000000000000000000000000000000000000000000000000082169050919050565b6135b48161357f565b81146135bf57600080fd5b50565b6000813590506135d1816135ab565b92915050565b6000602082840312156135ed576135ec61357a565b5b60006135fb848285016135c2565b91505092915050565b60008115159050919050565b61361981613604565b82525050565b60006020820190506136346000830184613610565b92915050565b600073ffffffffffffffffffffffffffffffffffffffff82169050919050565b60006136658261363a565b9050919050565b6136758161365a565b811461368057600080fd5b50565b6000813590506136928161366c565b92915050565b6000602082840312156136ae576136ad61357a565b5b60006136bc84828501613683565b91505092915050565b6000819050919050565b6136d8816136c5565b82525050565b60006020820190506136f360008301846136cf565b92915050565b613702816136c5565b811461370d57600080fd5b50565b60008135905061371f816136f9565b92915050565b60006020828403121561373b5761373a61357a565b5b600061374984828501613710565b91505092915050565b7f4e487b7100000000000000000000000000000000000000000000000000000000600052602160045260246000fd5b6002811061379257613791613752565b5b50565b60008190506137a382613781565b919050565b60006137b382613795565b9050919050565b6137c3816137a8565b82525050565b600281106137da576137d9613752565b5b50565b60008190506137eb826137c9565b919050565b60006137fb826137dd565b9050919050565b61380b816137f0565b82525050565b6004811061382257613821613752565b5b50565b600081905061383382613811565b919050565b600061384382613825565b9050919050565b61385381613838565b82525050565b6138628161365a565b82525050565b613871816136c5565b82525050565b6102208201600082015161388e60008501826137ba565b5060208201516138a16020850182613802565b5060408201516138b4604085018261384a565b5060608201516138c76060850182613859565b5060808201516138da6080850182613868565b5060a08201516138ed60a0850182613868565b5060c082015161390060c0850182613868565b5060e082015161391360e0850182613868565b50610100820151613928610100850182613868565b5061012082015161393d610120850182613868565b50610140820151613952610140850182613868565b50610160820151613967610160850182613868565b5061018082015161397c610180850182613868565b506101a08201516139916101a0850182613868565b506101c08201516139a66101c0850182613868565b506101e08201516139bb6101e0850182613868565b506102008201516139d0610200850182613859565b50505050565b6000610220820190506139ec6000830184613877565b92915050565b600080fd5b6000601f19601f8301169050919050565b7f4e487b7100000000000000000000000000000000000000000000000000000000600052604160045260246000fd5b613a40826139f7565b810181811067ffffffffffffffff82111715613a5f57613a5e613a08565b5b80604052505050565b6000613a72613570565b9050613a7e8282613a37565b919050565b60028110613a9057600080fd5b50565b600081359050613aa281613a83565b92915050565b60028110613ab557600080fd5b50565b600081359050613ac781613aa8565b92915050565b60048110613ada57600080fd5b50565b600081359050613aec81613acd565b92915050565b60006102208284031215613b0957613b086139f2565b5b613b14610220613a68565b90506000613b2484828501613a93565b6000830152506020613b3884828501613ab8565b6020830152506040613b4c84828501613add565b6040830152506060613b6084828501613683565b6060830152506080613b7484828501613710565b60808301525060a0613b8884828501613710565b60a08301525060c0613b9c84828501613710565b60c08301525060e0613bb084828501613710565b60e083015250610100613bc584828501613710565b61010083015250610120613bdb84828501613710565b61012083015250610140613bf184828501613710565b61014083015250610160613c0784828501613710565b61016083015250610180613c1d84828501613710565b610180830152506101a0613c3384828501613710565b6101a0830152506101c0613c4984828501613710565b6101c0830152506101e0613c5f84828501613710565b6101e083015250610200613c7584828501613683565b6102008301525092915050565b613c8b81613604565b8114613c9657600080fd5b50565b600081359050613ca881613c82565b92915050565b6000806102408385031215613cc657613cc561357a565b5b6000613cd485828601613af2565b925050610220613ce685828601613c99565b9150509250929050565b6000608082019050613d0560008301876136cf565b613d1260208301866136cf565b613d1f60408301856136cf565b613d2c60608301846136cf565b95945050505050565b6000819050919050565b613d4881613d35565b8114613d5357600080fd5b50565b600081359050613d6581613d3f565b92915050565b600060208284031215613d8157613d8061357a565b5b6000613d8f84828501613d56565b91505092915050565b613da181613d35565b82525050565b6000602082019050613dbc6000830184613d98565b92915050565b60008060408385031215613dd957613dd861357a565b5b6000613de785828601613710565b9250506020613df885828601613683565b9150509250929050565b6000613e0d8261365a565b9050919050565b613e1d81613e02565b8114613e2857600080fd5b50565b600081359050613e3a81613e14565b92915050565b6000819050919050565b613e5381613e40565b8114613e5e57600080fd5b50565b600081359050613e7081613e4a565b92915050565b600080600080600060a08688031215613e9257613e9161357a565b5b6000613ea088828901613e2b565b9550506020613eb188828901613710565b9450506040613ec288828901613710565b9350506060613ed388828901613e61565b9250506080613ee488828901613e61565b9150509295509295909350565b6000606082019050613f0660008301866136cf565b613f1360208301856136cf565b613f2060408301846136cf565b949350505050565b60008060408385031215613f3f57613f3e61357a565b5b6000613f4d85828601613d56565b9250506020613f5e85828601613683565b9150509250929050565b6000613f738261365a565b9050919050565b613f8381613f68565b8114613f8e57600080fd5b50565b600081359050613fa081613f7a565b92915050565b600080600080600060a08688031215613fc257613fc161357a565b5b6000613fd088828901613f91565b9550506020613fe188828901613710565b9450506040613ff288828901613710565b935050606061400388828901613a93565b925050608061401488828901613ab8565b9150509295509295909350565b60008060006060848603121561403a5761403961357a565b5b600061404886828701613f91565b935050602061405986828701613c99565b925050604061406a86828701613c99565b9150509250925092565b6000806040838503121561408b5761408a61357a565b5b600061409985828601613683565b92505060206140aa85828601613683565b9150509250929050565b600081519050919050565b600082825260208201905092915050565b6000819050602082019050919050565b60006140ec8383613868565b60208301905092915050565b6000602082019050919050565b6000614110826140b4565b61411a81856140bf565b9350614125836140d0565b8060005b8381101561415657815161413d88826140e0565b9750614148836140f8565b925050600181019050614129565b5085935050505092915050565b6000602082019050818103600083015261417d8184614105565b905092915050565b61418e81613e40565b82525050565b60006020820190506141a96000830184614185565b92915050565b60008060008060006102a086880312156141cc576141cb61357a565b5b60006141da88828901613af2565b9550506102206141ec88828901613710565b9450506102406141fe88828901613710565b93505061026061421088828901613710565b92505061028061422288828901613710565b9150509295509295909350565b61423881613838565b82525050565b614247816137f0565b82525050565b6142568161365a565b82525050565b6000819050919050565b600061428161427c6142778461363a565b61425c565b61363a565b9050919050565b600061429382614266565b9050919050565b60006142a582614288565b9050919050565b6142b58161429a565b82525050565b60006080820190506142d0600083018761422f565b6142dd602083018661423e565b6142ea604083018561424d565b6142f760608301846142ac565b95945050505050565b7f4e487b7100000000000000000000000000000000000000000000000000000000600052603260045260246000fd5b60008151905061433e81613e14565b92915050565b60006020828403121561435a5761435961357a565b5b60006143688482850161432f565b91505092915050565b7f4e487b7100000000000000000000000000000000000000000000000000000000600052601160045260246000fd5b60006143ab82613e40565b91506143b683613e40565b9250827f7fffffffffffffffffffffffffffffffffffffffffffffffffffffffffffffff04821160008413600084131616156143f5576143f4614371565b5b817f8000000000000000000000000000000000000000000000000000000000000000058312600084126000841316161561443257614431614371565b5b827f8000000000000000000000000000000000000000000000000000000000000000058212600084136000841216161561446f5761446e614371565b5b827f7fffffffffffffffffffffffffffffffffffffffffffffffffffffffffffffff05821260008412600084121616156144ac576144ab614371565b5b828202905092915050565b60006144c282613e40565b91506144cd83613e40565b9250817f7fffffffffffffffffffffffffffffffffffffffffffffffffffffffffffffff0383136000831215161561450857614507614371565b5b817f80000000000000000000000000000000000000000000000000000000000000000383126000831216156145405761453f614371565b5b828201905092915050565b60008151905061455a816136f9565b92915050565b6000602082840312156145765761457561357a565b5b60006145848482850161454b565b91505092915050565b614596816137a8565b82525050565b6145a5816137f0565b82525050565b6145b481613838565b82525050565b6145c38161365a565b82525050565b6145d2816136c5565b82525050565b610220820160008201516145ef600085018261458d565b506020820151614602602085018261459c565b50604082015161461560408501826145ab565b50606082015161462860608501826145ba565b50608082015161463b60808501826145c9565b5060a082015161464e60a08501826145c9565b5060c082015161466160c08501826145c9565b5060e082015161467460e08501826145c9565b506101008201516146896101008501826145c9565b5061012082015161469e6101208501826145c9565b506101408201516146b36101408501826145c9565b506101608201516146c86101608501826145c9565b506101808201516146dd6101808501826145c9565b506101a08201516146f26101a08501826145c9565b506101c08201516147076101c08501826145c9565b506101e082015161471c6101e08501826145c9565b506102008201516147316102008501826145ba565b50505050565b614740816136c5565b82525050565b60006102808201905061475c60008301876145d8565b61476a610220830186614737565b614778610240830185614737565b614786610260830184614737565b95945050505050565b6000610220820190506147a560008301846145d8565b92915050565b60006147b6826136c5565b91506147c1836136c5565b9250827fffffffffffffffffffffffffffffffffffffffffffffffffffffffffffffffff038211156147f6576147f5614371565b5b828201905092915050565b8082525050565b600060208201905061481d6000830184614801565b92915050565b60008151905061483281613e4a565b92915050565b60006020828403121561484e5761484d61357a565b5b600061485c84828501614823565b91505092915050565b60006148708261365a565b9050919050565b61488081614865565b811461488b57600080fd5b50565b60008151905061489d81614877565b92915050565b6000602082840312156148b9576148b861357a565b5b60006148c78482850161488e565b91505092915050565b60006148db82614288565b9050919050565b6148eb816148d0565b82525050565b600060408201905061490660008301856148e2565b6149136020830184614737565b9392505050565b61492381613e40565b82525050565b600060a08201905061493e6000830188614737565b61494b602083018761491a565b614958604083018661491a565b6149656060830185614737565b6149726080830184614737565b9695505050505050565b60006040820190506149916000830185614737565b61499e6020830184614737565b9392505050565b600082825260208201905092915050565b7f416363657373436f6e74726f6c3a2063616e206f6e6c792072656e6f756e636560008201527f20726f6c657320666f722073656c660000000000000000000000000000000000602082015250565b6000614a12602f836149a5565b9150614a1d826149b6565b604082019050919050565b60006020820190508181036000830152614a4181614a05565b9050919050565b600081519050614a5781613c82565b92915050565b600060208284031215614a7357614a7261357a565b5b6000614a8184828501614a48565b91505092915050565b6000614a95826136c5565b91507fffffffffffffffffffffffffffffffffffffffffffffffffffffffffffffffff8203614ac757614ac6614371565b5b600182019050919050565b6000614add826136c5565b9150614ae8836136c5565b925082821015614afb57614afa614371565b5b828203905092915050565b6000614b1182613e40565b9150614b1c83613e40565b9250827f800000000000000000000000000000000000000000000000000000000000000001821260008412151615614b5757614b56614371565b5b827f7fffffffffffffffffffffffffffffffffffffffffffffffffffffffffffffff018213600084121615614b8f57614b8e614371565b5b828203905092915050565b6000604082019050614baf6000830185614801565b614bbc6020830184614737565b9392505050565b600080600060608486031215614bdc57614bdb61357a565b5b6000614bea8682870161454b565b9350506020614bfb8682870161454b565b9250506040614c0c8682870161454b565b9150509250925092565b7f5a65726f2074656e6f7200000000000000000000000000000000000000000000600082015250565b6000614c4c600a836149a5565b9150614c5782614c16565b602082019050919050565b60006020820190508181036000830152614c7b81614c3f565b9050919050565b7f53616665436173743a2076616c756520646f65736e27742066697420696e206160008201527f6e20696e74323536000000000000000000000000000000000000000000000000602082015250565b6000614cde6028836149a5565b9150614ce982614c82565b604082019050919050565b60006020820190508181036000830152614d0d81614cd1565b9050919050565b600081905092915050565b7f416363657373436f6e74726f6c3a206163636f756e7420000000000000000000600082015250565b6000614d55601783614d14565b9150614d6082614d1f565b601782019050919050565b600081519050919050565b60005b83811015614d94578082015181840152602081019050614d79565b83811115614da3576000848401525b50505050565b6000614db482614d6b565b614dbe8185614d14565b9350614dce818560208601614d76565b80840191505092915050565b7f206973206d697373696e6720726f6c6520000000000000000000000000000000600082015250565b6000614e10601183614d14565b9150614e1b82614dda565b601182019050919050565b6000614e3182614d48565b9150614e3d8285614da9565b9150614e4882614e03565b9150614e548284614da9565b91508190509392505050565b6000614e6b82614d6b565b614e7581856149a5565b9350614e85818560208601614d76565b614e8e816139f7565b840191505092915050565b60006020820190508181036000830152614eb38184614e60565b905092915050565b7f4e487b7100000000000000000000000000000000000000000000000000000000600052603160045260246000fd5b6000614ef5826136c5565b9150614f00836136c5565b9250817fffffffffffffffffffffffffffffffffffffffffffffffffffffffffffffffff0483118215151615614f3957614f38614371565b5b828202905092915050565b6000614f4f826136c5565b915060008203614f6257614f61614371565b5b600182039050919050565b7f537472696e67733a20686578206c656e67746820696e73756666696369656e74600082015250565b6000614fa36020836149a5565b9150614fae82614f6d565b602082019050919050565b60006020820190508181036000830152614fd281614f96565b905091905056fea26469706673582212204594a4845b093b381db1d74e0bbbc4f6a16c76cf154c0449b639b3c01d0b833764736f6c634300080e0033",
  "immutableReferences": {},
  "source": "// SPDX-License-Identifier: MIT\npragma solidity ^0.8.4;\n\nimport \"@openzeppelin/contracts/access/AccessControl.sol\";\nimport \"@openzeppelin/contracts/utils/structs/EnumerableSet.sol\";\n\nimport \"./libraries/MarketLib.sol\";\nimport \"./libraries/OptionLib.sol\";\nimport \"./libraries/MathLib.sol\";\nimport \"./interfaces/EOption.sol\";\nimport \"./pools/Pool.sol\";\nimport \"./pools/MarketMaker.sol\";\nimport \"./VolatilityChain.sol\";\nimport \"./VolatilityToken.sol\";\n\ncontract OptionVault is EOption, AccessControl{\n  using MathLib for uint256;\n  using MarketLib for uint256;\n  \n  using OptionLib for OptionLib.Option;\n  using EnumerableSet for EnumerableSet.UintSet;\n  using EnumerableSet for EnumerableSet.AddressSet;\n\n  bytes32 public constant EXCHANGE = keccak256(\"EXCHANGE\");\n  \n  // list of option contracts\n  OptionLib.Option[] internal aOption;\n  mapping(address=>mapping(address=> EnumerableSet.UintSet)) internal mHolderAtiveOption;\n  mapping(address=>EnumerableSet.UintSet) internal mActiveOption;\n  // mapping(address=>uint256) public mActiveContractCount = 0;\n  mapping(address=>int256) public mNetNotional;\n  mapping(address=>uint256) public mPutCollateral;\n  mapping(address=>uint256) public mDeltaAtZero;\n  mapping(address=>uint256) public mDeltaAtMax;\n\n  // immutable and constant values\n  uint256 internal constant BASE  = 1e18;\n  uint256 internal constant SCALING = 1e5;\n\n  // constructor\n  constructor(){\n    _setupRole(DEFAULT_ADMIN_ROLE, msg.sender); }\n\n  // function to add new option contracts, only executable by Exchange contract as owner\n  // arguments: tenor of option contracts (in seconds), strike (consistent with price source decimals), amount (consistent with underlying token decimals), option type (call or put), option side (buy or sell), premium (in funding token decimals), cost (in funding token decimals), price (in price source decimals), volatility (in default decimals 18), holder address\n  // return id of option contract\n  function addOption(OptionLib.Option memory _option, uint256 _premium, uint256 _collateral, uint256 _price, uint256 _vol) external onlyRole(EXCHANGE) returns(uint256 _id){\n    require(_option.tenor > 0, \"Zero tenor\");\n    _id = aOption.length;\n    // Arguments: option type, option side, contract status (default to draft), contract holder address, contract id, creation timestamp, effective timestamp (default to 0), tenor in seconds, maturity timestamp (default to 0), excersie timestamp (default to 0), amount or size of contract, current spot price, option strike, implied volatility, calculated premium and total cost including collaterals.\n    aOption.push(OptionLib.Option(_option.poType, _option.side, OptionLib.OptionStatus.Draft, _option.holder, _id, block.timestamp,  0, _option.tenor, 0,  0, _option.amount, _price, _option.strike, _vol, _premium, _collateral, _option.pool));}\n\n  // function to stamp option as an active contract, only executable by Exchange contract as owner\n  // arguments: contract id and holder address\n  function stampActiveOption(uint256 _id, address _holder) external onlyRole(EXCHANGE){\n    // update Option records\n    OptionLib.Option storage _option = aOption[_id];\n    _option.effectiveTime = block.timestamp;\n    _option.maturity = block.timestamp + _option.tenor;\n    _option.status = OptionLib.OptionStatus.Active;\n    \n    // update ownership and exposure records\n    address _poolAddress = _option.pool;\n    mNetNotional[_poolAddress] += _option.getNetNotional();\n    mPutCollateral[_poolAddress] += _option.sellPutCollateral();\n    mDeltaAtZero[_poolAddress] += _option.calcDeltaAtZero();\n    mDeltaAtMax[_poolAddress] += _option.calcDeltaAtMax();\n\n    mHolderAtiveOption[_poolAddress][_holder].add(_id);\n    mActiveOption[_poolAddress].add(_id);}\n\n  // function to stamp option as an expired contract, only executable by Exchange contract as owner\n  // arguments: contract id\n  function stampExpiredOption(uint256 _id)  external onlyRole(EXCHANGE){\n    // update Option records\n    OptionLib.Option storage _option = aOption[_id];\n    address _poolAddress = _option.pool;\n    address _holder = _option.holder;\n    mActiveOption[_poolAddress].remove(_id);\n    mHolderAtiveOption[_poolAddress][_holder].remove(_id);\n\n    mNetNotional[_poolAddress] -= _option.getNetNotional();\n    mDeltaAtZero[_poolAddress] -= Math.min(mDeltaAtZero[_poolAddress], _option.calcDeltaAtZero());\n    mDeltaAtMax[_poolAddress] -= Math.min(mDeltaAtMax[_poolAddress], _option.calcDeltaAtMax());\n    mPutCollateral[_poolAddress] -= Math.min(mPutCollateral[_poolAddress], _option.sellPutCollateral());\n   \n    _option.status = OptionLib.OptionStatus.Expired;\n    _option.exerciseTime = block.timestamp;}\n\n  // functions to get information of the option list -> ONLY USED in VIEW, gas cost unlimited\n  function getHolderOptions(address _pool, address _address) external view returns(uint256[] memory){\n    return mHolderAtiveOption[_pool][_address].values();}\n  function getOption(uint256 _id) external view returns(OptionLib.Option memory) {return aOption[_id];}\n  function getActiveOptionCount(address _poolAddress) external view returns(uint256) {return mActiveOption[_poolAddress].length();}\n\n  // function getHoldersOption(uint256 _index, address _address) external view returns(OptionLib.Option memory) {return aOption[activeOptionsPerOwner[_address].at(_index)];}\n  function getOptionInfo(uint256 _id) external view returns(OptionLib.OptionStatus, OptionLib.OptionSide, address, Pool) {\n    require(_id< aOption.length);\n    return (aOption[_id].status, aOption[_id].side, aOption[_id].holder, Pool(aOption[_id].pool));}\n\n  // functions to get the hedging inputs\n  // maximum hedges needed \n  // function getMaxHedge(Pool _pool) external view returns (uint256){\n  //   VolatilityChain _volChain = _pool.volChain();\n  //   address _poolAddress = address(_pool);\n  //   return Math.max(mDeltaAtZero[_poolAddress], mDeltaAtMax[_poolAddress]).ethmul(_volChain.queryPrice());}\n\n  // aggregate delta of all active contracts, optional including expiring contracts yet stamped as Expired. Arguments: spot price and whether to include expiring contracts\n  // function calculateAggregateDelta(address _pool, uint256 _price, bool _includeExpiring) public view returns(int256 _delta){\n  //   _delta= 0;\n  //   for(uint256 i=0;i<activeContractCount;i++){\n  //     OptionLib.Option storage _option = aOption[uint256(activeOptions.at(i))];\n  //     uint256 _maturityLeft = _option.calcRemainingMaturity();\n  //     uint256 _vol = volChain.queryVol(_maturityLeft);\n  //     _delta += _option.calcDelta(_price, _vol, _includeExpiring);}}\n  \n  // aggregate gamma. Arguments: spot price\n  // function calculateAggregateGamma(address _pool, uint256 _price) external view returns(int256 _gamma){\n  //   _gamma= 0;\n  //   for(uint256 i=0;i<activeContractCount;i++){\n  //     uint256 _id = uint256(activeOptions.at(i));\n  //     if(aOption[_id].status== OptionLib.OptionStatus.Active  && (aOption[_id].maturity > block.timestamp)){\n  //       uint256 _vol = volChain.queryVol(aOption[_id].maturity - block.timestamp);\n  //       int256 _contractGamma = SafeCast.toInt256(OptionLib.calcGamma(_price, aOption[_id].strike, _vol).ethmul(aOption[_id].amount));\n  //       if(aOption[_id].side==OptionLib.OptionSide.Sell){ _gamma -= _contractGamma;}\n  //       else{_gamma += _contractGamma;}}}}\n\n  // hypothetical gamma assuming at the money and 1-day expiry\n  // function calculateSpotGamma() external view returns(int256 _gamma){\n  //   uint256 _vol = volChain.queryVol(86400);\n  //   _gamma = SafeCast.toInt256(OptionLib.calcGamma(BASE, BASE, _vol));}\n\n  // functions used in expiring option contracts\n  // contract payoff of specified contract ID\n  function getContractPayoff(uint256 _id) external view returns(uint256 _payoff, uint256 _payback, uint256 _collateral){\n    Pool _pool = Pool(aOption[_id].pool);\n    VolatilityChain _volChain = _pool.marketMaker().getVolatilityChain();\n    return aOption[_id].calcPayoff(_volChain.queryPrice());}\n    \n  // check if any option contract is expiring\n  function anyOptionExpiring(address _poolAddress) external view returns(bool _isExpiring) {\n    _isExpiring = false;\n    uint256 _count = mActiveOption[_poolAddress].length();\n    for(uint256 i=0;i<_count;i++){\n      if(aOption[uint256(mActiveOption[_poolAddress].at(i))].isExpiring()){\n        _isExpiring = true;\n        break;}}}\n  // get the id of any expiring contract -> please only run it on view function as it has unlimited gas usage.\n  function getExpiringOptionId(address _poolAddress) external view returns(uint256 _id){\n    // uint256[] memory _id;\n    uint256 _count = mActiveOption[_poolAddress].length();\n    for(uint256 i=0;i<_count;i++){\n      uint256 _id_i = uint256(mActiveOption[_poolAddress].at(i));\n      if(aOption[_id_i].isExpiring()){\n        _id = _id_i;\n        break;}}}\n\n  function tryATMOptionCost(Pool _pool, uint256 _tenor, uint256 _amount, OptionLib.PayoffType _poType, OptionLib.OptionSide _side) public view returns(uint256 _premium, uint256 _collateral, uint256 _price, uint256 _volatilty){\n    OptionLib.Option memory _option = OptionLib.Option(_poType, _side, OptionLib.OptionStatus.Draft, msg.sender, 0, block.timestamp,  0, _tenor, 0,  0, _amount, 0, 0, 0, 0, 0, address(_pool));\n    return calcOptionCost(_option, true);\n  }\n\n  function calcOptionCost(OptionLib.Option memory _option, bool _forceATM) public view returns(uint256 _premium, uint256 _collateral, uint256 _price, uint256 _annualisedVol){\n    Pool _pool = Pool(_option.pool);\n    MarketMaker _market = _pool.marketMaker();\n\n    int256 _newNetNotional = mNetNotional[_option.pool] + SafeCast.toInt256(_option.amount) * (_option.side==OptionLib.OptionSide.Sell? -1: int(1));\n    uint256 _impVol; // vol * sqrt(t)\n    (_price, _impVol, _annualisedVol) = calcImpliedVol(_market, _option.tenor, _pool.volCapacityFactor(), mNetNotional[_option.pool], _newNetNotional);\n    \n    if (_forceATM){_option.strike = _price;}\n\n    _premium = _option.calcPremium(_price, _impVol, _market.loanInterest());\n    _collateral = _option.calcCollateral();}\n\n  function calcImpliedVol(MarketMaker _market, uint256 _tenor, uint256 _volCapacityFactor, int256 _currentNetNotional, int256 _newNetNotional) public view returns(uint256 _price, uint256 _impVol, uint256 _annualisedVol){\n    VolatilityChain _volChain = _market.getVolatilityChain();\n    _price = _volChain.queryPrice();\n    _impVol = MarketLib.calcRiskPremium(MarketLib.getGrossCapital(_market, _price), _currentNetNotional, _newNetNotional, _volChain.queryVol(_tenor), _volCapacityFactor);\n    _annualisedVol = _impVol.ethmul(_volChain.getSqrtRatio(_tenor));}\n    \n  // functions related to capital calculation, addition and removals\n  // calculate capitals. Arguments: net for net capital (removing all collaterals and max exposures of option contracts) or gross (including all exposures in the underlying and funding tokens), average for average capital (total divided by number of Pool tokens) or gross (not divided by tokens)\n  function calcCapital(Pool _pool, bool _net, bool _average) external view returns(uint256){\n    MarketMaker _market = _pool.marketMaker();\n    VolatilityChain _volChain = _market.getVolatilityChain();\n    uint256 _price = _volChain.queryPrice();\n    uint256 _capital = MarketLib.getGrossCapital(_market, _price);\n    address _poolAddress = address(_pool);\n\n    if(_net){ \n      uint256 _maxHedge = Math.max(mDeltaAtZero[_poolAddress], mDeltaAtMax[_poolAddress]).ethmul(_price);\n      _capital -= Math.min(_maxHedge + mPutCollateral[_poolAddress], _capital);}\n\n    if(_average){ \n      uint256 _poolSupply = _pool.totalSupply();\n      if(_poolSupply > 0) {\n        _capital = _capital.ethdiv(_poolSupply); }\n      else if(_poolSupply == 0 && _capital == 0) {\n        _capital = BASE;}}\n    \n    return _capital;}\n}\n",
  "sourcePath": "/Users/mac/Documents/GitHub/moret/contracts/OptionVault.sol",
  "compiler": {
    "name": "solc",
    "version": "0.8.14+commit.80d49f37.Emscripten.clang"
  },
  "schemaVersion": "3.4.3",
  "updatedAt": "2022-05-28T21:35:00.388Z",
  "networkType": "ethereum",
  "devdoc": {
    "kind": "dev",
    "methods": {
      "getRoleAdmin(bytes32)": {
        "details": "Returns the admin role that controls `role`. See {grantRole} and {revokeRole}. To change a role's admin, use {_setRoleAdmin}."
      },
      "grantRole(bytes32,address)": {
        "details": "Grants `role` to `account`. If `account` had not been already granted `role`, emits a {RoleGranted} event. Requirements: - the caller must have ``role``'s admin role."
      },
      "hasRole(bytes32,address)": {
        "details": "Returns `true` if `account` has been granted `role`."
      },
      "renounceRole(bytes32,address)": {
        "details": "Revokes `role` from the calling account. Roles are often managed via {grantRole} and {revokeRole}: this function's purpose is to provide a mechanism for accounts to lose their privileges if they are compromised (such as when a trusted device is misplaced). If the calling account had been revoked `role`, emits a {RoleRevoked} event. Requirements: - the caller must be `account`."
      },
      "revokeRole(bytes32,address)": {
        "details": "Revokes `role` from `account`. If `account` had been granted `role`, emits a {RoleRevoked} event. Requirements: - the caller must have ``role``'s admin role."
      },
      "supportsInterface(bytes4)": {
        "details": "See {IERC165-supportsInterface}."
      }
    },
    "version": 1
  },
  "userdoc": {
    "kind": "user",
    "methods": {},
    "version": 1
  }
}