{
  "contractName": "OptionVault",
  "abi": [
    {
      "inputs": [
        {
          "internalType": "address",
          "name": "_chainlinkAddress",
          "type": "address"
        },
        {
          "internalType": "address",
          "name": "_volChainAddress",
          "type": "address"
        }
      ],
      "stateMutability": "nonpayable",
      "type": "constructor"
    },
    {
      "anonymous": false,
      "inputs": [
        {
          "indexed": true,
          "internalType": "bytes32",
          "name": "role",
          "type": "bytes32"
        },
        {
          "indexed": true,
          "internalType": "bytes32",
          "name": "previousAdminRole",
          "type": "bytes32"
        },
        {
          "indexed": true,
          "internalType": "bytes32",
          "name": "newAdminRole",
          "type": "bytes32"
        }
      ],
      "name": "RoleAdminChanged",
      "type": "event"
    },
    {
      "anonymous": false,
      "inputs": [
        {
          "indexed": true,
          "internalType": "bytes32",
          "name": "role",
          "type": "bytes32"
        },
        {
          "indexed": true,
          "internalType": "address",
          "name": "account",
          "type": "address"
        },
        {
          "indexed": true,
          "internalType": "address",
          "name": "sender",
          "type": "address"
        }
      ],
      "name": "RoleGranted",
      "type": "event"
    },
    {
      "anonymous": false,
      "inputs": [
        {
          "indexed": true,
          "internalType": "bytes32",
          "name": "role",
          "type": "bytes32"
        },
        {
          "indexed": true,
          "internalType": "address",
          "name": "account",
          "type": "address"
        },
        {
          "indexed": true,
          "internalType": "address",
          "name": "sender",
          "type": "address"
        }
      ],
      "name": "RoleRevoked",
      "type": "event"
    },
    {
      "anonymous": false,
      "inputs": [
        {
          "indexed": false,
          "internalType": "address",
          "name": "_recipient",
          "type": "address"
        },
        {
          "indexed": false,
          "internalType": "uint256",
          "name": "_mintMPTokenAmount",
          "type": "uint256"
        },
        {
          "indexed": false,
          "internalType": "uint256",
          "name": "_addedValue",
          "type": "uint256"
        }
      ],
      "name": "capitalAdded",
      "type": "event"
    },
    {
      "anonymous": false,
      "inputs": [
        {
          "indexed": false,
          "internalType": "address",
          "name": "_recipient",
          "type": "address"
        },
        {
          "indexed": false,
          "internalType": "uint256",
          "name": "_burnMPTokenAmount",
          "type": "uint256"
        },
        {
          "indexed": false,
          "internalType": "uint256",
          "name": "_withdrawValue",
          "type": "uint256"
        }
      ],
      "name": "capitalWithdrawn",
      "type": "event"
    },
    {
      "anonymous": false,
      "inputs": [
        {
          "indexed": false,
          "internalType": "address",
          "name": "_purchaser",
          "type": "address"
        },
        {
          "indexed": false,
          "internalType": "uint256",
          "name": "_time",
          "type": "uint256"
        },
        {
          "indexed": false,
          "internalType": "uint256",
          "name": "_id",
          "type": "uint256"
        },
        {
          "indexed": false,
          "internalType": "uint256",
          "name": "_cost",
          "type": "uint256"
        },
        {
          "indexed": false,
          "internalType": "bool",
          "name": "_inVol",
          "type": "bool"
        }
      ],
      "name": "newOptionBought",
      "type": "event"
    },
    {
      "anonymous": false,
      "inputs": [
        {
          "indexed": false,
          "internalType": "address",
          "name": "_purchaser",
          "type": "address"
        },
        {
          "indexed": false,
          "internalType": "uint256",
          "name": "_time",
          "type": "uint256"
        },
        {
          "indexed": false,
          "internalType": "uint256",
          "name": "_tenor",
          "type": "uint256"
        },
        {
          "indexed": false,
          "internalType": "uint256",
          "name": "_amount",
          "type": "uint256"
        }
      ],
      "name": "newVolatilityTokenBought",
      "type": "event"
    },
    {
      "anonymous": false,
      "inputs": [
        {
          "indexed": false,
          "internalType": "uint256",
          "name": "_time",
          "type": "uint256"
        },
        {
          "indexed": false,
          "internalType": "uint256",
          "name": "_id",
          "type": "uint256"
        }
      ],
      "name": "optionExercised",
      "type": "event"
    },
    {
      "inputs": [],
      "name": "ADMIN_ROLE",
      "outputs": [
        {
          "internalType": "bytes32",
          "name": "",
          "type": "bytes32"
        }
      ],
      "stateMutability": "view",
      "type": "function"
    },
    {
      "inputs": [],
      "name": "DEFAULT_ADMIN_ROLE",
      "outputs": [
        {
          "internalType": "bytes32",
          "name": "",
          "type": "bytes32"
        }
      ],
      "stateMutability": "view",
      "type": "function"
    },
    {
      "inputs": [],
      "name": "MARKET_MAKER_ROLE",
      "outputs": [
        {
          "internalType": "bytes32",
          "name": "",
          "type": "bytes32"
        }
      ],
      "stateMutability": "view",
      "type": "function"
    },
    {
      "inputs": [],
      "name": "deltaRange",
      "outputs": [
        {
          "internalType": "uint256",
          "name": "numerator",
          "type": "uint256"
        },
        {
          "internalType": "uint256",
          "name": "denominator",
          "type": "uint256"
        }
      ],
      "stateMutability": "view",
      "type": "function"
    },
    {
      "inputs": [
        {
          "internalType": "bytes32",
          "name": "role",
          "type": "bytes32"
        }
      ],
      "name": "getRoleAdmin",
      "outputs": [
        {
          "internalType": "bytes32",
          "name": "",
          "type": "bytes32"
        }
      ],
      "stateMutability": "view",
      "type": "function"
    },
    {
      "inputs": [
        {
          "internalType": "bytes32",
          "name": "role",
          "type": "bytes32"
        },
        {
          "internalType": "address",
          "name": "account",
          "type": "address"
        }
      ],
      "name": "grantRole",
      "outputs": [],
      "stateMutability": "nonpayable",
      "type": "function"
    },
    {
      "inputs": [
        {
          "internalType": "bytes32",
          "name": "role",
          "type": "bytes32"
        },
        {
          "internalType": "address",
          "name": "account",
          "type": "address"
        }
      ],
      "name": "hasRole",
      "outputs": [
        {
          "internalType": "bool",
          "name": "",
          "type": "bool"
        }
      ],
      "stateMutability": "view",
      "type": "function"
    },
    {
      "inputs": [],
      "name": "optionCounter",
      "outputs": [
        {
          "internalType": "uint256",
          "name": "",
          "type": "uint256"
        }
      ],
      "stateMutability": "view",
      "type": "function"
    },
    {
      "inputs": [],
      "name": "priceDecimals",
      "outputs": [
        {
          "internalType": "uint256",
          "name": "",
          "type": "uint256"
        }
      ],
      "stateMutability": "view",
      "type": "function"
    },
    {
      "inputs": [],
      "name": "priceMultiplier",
      "outputs": [
        {
          "internalType": "uint256",
          "name": "",
          "type": "uint256"
        }
      ],
      "stateMutability": "view",
      "type": "function"
    },
    {
      "inputs": [
        {
          "internalType": "bytes32",
          "name": "role",
          "type": "bytes32"
        },
        {
          "internalType": "address",
          "name": "account",
          "type": "address"
        }
      ],
      "name": "renounceRole",
      "outputs": [],
      "stateMutability": "nonpayable",
      "type": "function"
    },
    {
      "inputs": [
        {
          "internalType": "bytes32",
          "name": "role",
          "type": "bytes32"
        },
        {
          "internalType": "address",
          "name": "account",
          "type": "address"
        }
      ],
      "name": "revokeRole",
      "outputs": [],
      "stateMutability": "nonpayable",
      "type": "function"
    },
    {
      "inputs": [
        {
          "internalType": "bytes4",
          "name": "interfaceId",
          "type": "bytes4"
        }
      ],
      "name": "supportsInterface",
      "outputs": [
        {
          "internalType": "bool",
          "name": "",
          "type": "bool"
        }
      ],
      "stateMutability": "view",
      "type": "function"
    },
    {
      "inputs": [],
      "name": "volPremiumFixedAddon",
      "outputs": [
        {
          "internalType": "uint256",
          "name": "numerator",
          "type": "uint256"
        },
        {
          "internalType": "uint256",
          "name": "denominator",
          "type": "uint256"
        }
      ],
      "stateMutability": "view",
      "type": "function"
    },
    {
      "inputs": [],
      "name": "descriptionHash",
      "outputs": [
        {
          "internalType": "bytes32",
          "name": "",
          "type": "bytes32"
        }
      ],
      "stateMutability": "view",
      "type": "function"
    },
    {
      "inputs": [
        {
          "internalType": "uint256",
          "name": "_tenor",
          "type": "uint256"
        }
      ],
      "name": "addTenor",
      "outputs": [],
      "stateMutability": "nonpayable",
      "type": "function"
    },
    {
      "inputs": [
        {
          "internalType": "uint256",
          "name": "_tenor",
          "type": "uint256"
        }
      ],
      "name": "removeTenor",
      "outputs": [],
      "stateMutability": "nonpayable",
      "type": "function"
    },
    {
      "inputs": [
        {
          "internalType": "uint256",
          "name": "_tenor",
          "type": "uint256"
        }
      ],
      "name": "containsTenor",
      "outputs": [
        {
          "internalType": "bool",
          "name": "",
          "type": "bool"
        }
      ],
      "stateMutability": "view",
      "type": "function"
    },
    {
      "inputs": [
        {
          "internalType": "address",
          "name": "_adr",
          "type": "address"
        }
      ],
      "name": "addMarketMaker",
      "outputs": [],
      "stateMutability": "nonpayable",
      "type": "function"
    },
    {
      "inputs": [
        {
          "internalType": "address",
          "name": "_adr",
          "type": "address"
        }
      ],
      "name": "removeMarketMaker",
      "outputs": [],
      "stateMutability": "nonpayable",
      "type": "function"
    },
    {
      "inputs": [],
      "name": "queryPrice",
      "outputs": [
        {
          "internalType": "uint256",
          "name": "",
          "type": "uint256"
        },
        {
          "internalType": "uint256",
          "name": "",
          "type": "uint256"
        }
      ],
      "stateMutability": "view",
      "type": "function"
    },
    {
      "inputs": [
        {
          "internalType": "uint256",
          "name": "_tenor",
          "type": "uint256"
        }
      ],
      "name": "queryVol",
      "outputs": [
        {
          "internalType": "uint256",
          "name": "",
          "type": "uint256"
        }
      ],
      "stateMutability": "view",
      "type": "function"
    },
    {
      "inputs": [
        {
          "internalType": "uint256",
          "name": "_tenor",
          "type": "uint256"
        },
        {
          "internalType": "uint256",
          "name": "_strike",
          "type": "uint256"
        },
        {
          "internalType": "enum OptionLibrary.PayoffType",
          "name": "_poType",
          "type": "uint8"
        },
        {
          "internalType": "uint256",
          "name": "_amount",
          "type": "uint256"
        },
        {
          "components": [
            {
              "internalType": "uint256",
              "name": "numerator",
              "type": "uint256"
            },
            {
              "internalType": "uint256",
              "name": "denominator",
              "type": "uint256"
            }
          ],
          "internalType": "struct OptionLibrary.Percent",
          "name": "_feeAddon",
          "type": "tuple"
        },
        {
          "components": [
            {
              "internalType": "uint256",
              "name": "numerator",
              "type": "uint256"
            },
            {
              "internalType": "uint256",
              "name": "denominator",
              "type": "uint256"
            }
          ],
          "internalType": "struct OptionLibrary.Percent",
          "name": "_volAddon",
          "type": "tuple"
        }
      ],
      "name": "queryOptionCost",
      "outputs": [
        {
          "internalType": "uint256",
          "name": "",
          "type": "uint256"
        },
        {
          "internalType": "uint256",
          "name": "",
          "type": "uint256"
        }
      ],
      "stateMutability": "view",
      "type": "function"
    },
    {
      "inputs": [
        {
          "internalType": "uint256",
          "name": "_tenor",
          "type": "uint256"
        },
        {
          "internalType": "uint256",
          "name": "_strike",
          "type": "uint256"
        }
      ],
      "name": "checkVolSkew",
      "outputs": [
        {
          "internalType": "uint256",
          "name": "",
          "type": "uint256"
        },
        {
          "internalType": "uint256",
          "name": "",
          "type": "uint256"
        },
        {
          "internalType": "uint256",
          "name": "",
          "type": "uint256"
        }
      ],
      "stateMutability": "view",
      "type": "function"
    },
    {
      "inputs": [
        {
          "internalType": "uint256",
          "name": "_tenor",
          "type": "uint256"
        },
        {
          "internalType": "uint256",
          "name": "_strike",
          "type": "uint256"
        },
        {
          "internalType": "enum OptionLibrary.PayoffType",
          "name": "_poType",
          "type": "uint8"
        },
        {
          "internalType": "uint256",
          "name": "_amount",
          "type": "uint256"
        },
        {
          "internalType": "uint256",
          "name": "_premium",
          "type": "uint256"
        },
        {
          "internalType": "uint256",
          "name": "_fee",
          "type": "uint256"
        }
      ],
      "name": "addOption",
      "outputs": [
        {
          "internalType": "uint256",
          "name": "",
          "type": "uint256"
        }
      ],
      "stateMutability": "nonpayable",
      "type": "function"
    },
    {
      "inputs": [
        {
          "internalType": "uint256",
          "name": "_id",
          "type": "uint256"
        },
        {
          "internalType": "bool",
          "name": "_inVol",
          "type": "bool"
        }
      ],
      "name": "queryDraftOptionCost",
      "outputs": [
        {
          "internalType": "uint256",
          "name": "",
          "type": "uint256"
        }
      ],
      "stateMutability": "view",
      "type": "function"
    },
    {
      "inputs": [
        {
          "internalType": "uint256",
          "name": "_id",
          "type": "uint256"
        }
      ],
      "name": "queryDraftOptionFee",
      "outputs": [
        {
          "internalType": "uint256",
          "name": "",
          "type": "uint256"
        }
      ],
      "stateMutability": "view",
      "type": "function"
    },
    {
      "inputs": [
        {
          "internalType": "uint256",
          "name": "_id",
          "type": "uint256"
        }
      ],
      "name": "queryOptionPremium",
      "outputs": [
        {
          "internalType": "uint256",
          "name": "",
          "type": "uint256"
        }
      ],
      "stateMutability": "view",
      "type": "function"
    },
    {
      "inputs": [
        {
          "internalType": "uint256",
          "name": "_id",
          "type": "uint256"
        },
        {
          "internalType": "enum OptionLibrary.PayoffType",
          "name": "_poType",
          "type": "uint8"
        }
      ],
      "name": "queryOptionExposure",
      "outputs": [
        {
          "internalType": "uint256",
          "name": "",
          "type": "uint256"
        }
      ],
      "stateMutability": "view",
      "type": "function"
    },
    {
      "inputs": [
        {
          "internalType": "uint256",
          "name": "_id",
          "type": "uint256"
        }
      ],
      "name": "getOptionPayoffValue",
      "outputs": [
        {
          "internalType": "uint256",
          "name": "",
          "type": "uint256"
        }
      ],
      "stateMutability": "view",
      "type": "function"
    },
    {
      "inputs": [
        {
          "internalType": "uint256",
          "name": "_id",
          "type": "uint256"
        }
      ],
      "name": "getOptionHolder",
      "outputs": [
        {
          "internalType": "address payable",
          "name": "",
          "type": "address"
        }
      ],
      "stateMutability": "view",
      "type": "function"
    },
    {
      "inputs": [
        {
          "internalType": "uint256",
          "name": "_id",
          "type": "uint256"
        }
      ],
      "name": "calculateContractDelta",
      "outputs": [
        {
          "internalType": "int256",
          "name": "",
          "type": "int256"
        }
      ],
      "stateMutability": "view",
      "type": "function"
    },
    {
      "inputs": [
        {
          "internalType": "uint256",
          "name": "_id",
          "type": "uint256"
        },
        {
          "internalType": "address",
          "name": "_holder",
          "type": "address"
        }
      ],
      "name": "validateOption",
      "outputs": [],
      "stateMutability": "view",
      "type": "function"
    },
    {
      "inputs": [
        {
          "internalType": "uint256",
          "name": "_id",
          "type": "uint256"
        }
      ],
      "name": "isOptionExpiring",
      "outputs": [
        {
          "internalType": "bool",
          "name": "",
          "type": "bool"
        }
      ],
      "stateMutability": "view",
      "type": "function"
    },
    {
      "inputs": [
        {
          "internalType": "uint256",
          "name": "_id",
          "type": "uint256"
        }
      ],
      "name": "stampActiveOption",
      "outputs": [],
      "stateMutability": "nonpayable",
      "type": "function"
    },
    {
      "inputs": [
        {
          "internalType": "uint256",
          "name": "_id",
          "type": "uint256"
        }
      ],
      "name": "stampExercisedOption",
      "outputs": [],
      "stateMutability": "nonpayable",
      "type": "function"
    },
    {
      "inputs": [
        {
          "internalType": "uint256",
          "name": "_id",
          "type": "uint256"
        }
      ],
      "name": "stampExpiredOption",
      "outputs": [],
      "stateMutability": "nonpayable",
      "type": "function"
    },
    {
      "inputs": [
        {
          "internalType": "uint256",
          "name": "_id",
          "type": "uint256"
        }
      ],
      "name": "getOption",
      "outputs": [
        {
          "components": [
            {
              "internalType": "enum OptionLibrary.PayoffType",
              "name": "poType",
              "type": "uint8"
            },
            {
              "internalType": "address",
              "name": "holder",
              "type": "address"
            },
            {
              "internalType": "enum OptionLibrary.OptionStatus",
              "name": "status",
              "type": "uint8"
            },
            {
              "internalType": "uint256",
              "name": "id",
              "type": "uint256"
            },
            {
              "internalType": "uint256",
              "name": "createTime",
              "type": "uint256"
            },
            {
              "internalType": "uint256",
              "name": "effectiveTime",
              "type": "uint256"
            },
            {
              "internalType": "uint256",
              "name": "tenor",
              "type": "uint256"
            },
            {
              "internalType": "uint256",
              "name": "exerciseTime",
              "type": "uint256"
            },
            {
              "internalType": "uint256",
              "name": "amount",
              "type": "uint256"
            },
            {
              "internalType": "uint256",
              "name": "spot",
              "type": "uint256"
            },
            {
              "internalType": "uint256",
              "name": "strike",
              "type": "uint256"
            },
            {
              "internalType": "uint256",
              "name": "volatility",
              "type": "uint256"
            },
            {
              "internalType": "uint256",
              "name": "premium",
              "type": "uint256"
            },
            {
              "internalType": "uint256",
              "name": "fee",
              "type": "uint256"
            }
          ],
          "internalType": "struct OptionLibrary.Option",
          "name": "",
          "type": "tuple"
        }
      ],
      "stateMutability": "view",
      "type": "function"
    }
  ],
  "bytecode": "0x60806040526000600255620f424060095560405180604001604052806113888152602001620f4240815250600c600082015181600001556020820151816001015550506040518060400160405280620c35008152602001620f4240815250600e600082015181600001556020820151816001015550503480156200008257600080fd5b5060405162004771380380620047718339818101604052810190620000a89190620004f4565b620000bd6000801b336200028e60201b60201c565b620000ef7fa49807205ce4d355092ef5a8a18f56e8913cf4a201fbe287825b095693c21775336200028e60201b60201c565b620001217f75e5bf8b7de9fd9f24c97951733c6410a040b7a07b543096cb36c6dda365aa8b336200028e60201b60201c565b81600360006101000a81548173ffffffffffffffffffffffffffffffffffffffff021916908373ffffffffffffffffffffffffffffffffffffffff16021790555080600460006101000a81548173ffffffffffffffffffffffffffffffffffffffff021916908373ffffffffffffffffffffffffffffffffffffffff160217905550600360009054906101000a900473ffffffffffffffffffffffffffffffffffffffff1673ffffffffffffffffffffffffffffffffffffffff1663313ce5676040518163ffffffff1660e01b815260040160206040518083038186803b1580156200020c57600080fd5b505afa15801562000221573d6000803e3d6000fd5b505050506040513d601f19601f820116820180604052508101906200024791906200053b565b60ff16600881905550600854600a620002619190620005c8565b6007819055506200028562015180600a620002a460201b620021561790919060201c565b505050620007c5565b620002a08282620002c660201b60201c565b5050565b6000620002be836000018360001b620003b760201b60201c565b905092915050565b620002d882826200043160201b60201c565b620003b357600160008084815260200190815260200160002060000160008373ffffffffffffffffffffffffffffffffffffffff1673ffffffffffffffffffffffffffffffffffffffff16815260200190815260200160002060006101000a81548160ff021916908315150217905550620003586200049b60201b60201c565b73ffffffffffffffffffffffffffffffffffffffff168173ffffffffffffffffffffffffffffffffffffffff16837f2f8788117e7eff1d82e926ec794901d17c78024a50270940304540a733656f0d60405160405180910390a45b5050565b6000620003cb8383620004a360201b60201c565b620004265782600001829080600181540180825580915050600190039060005260206000200160009091909190915055826000018054905083600101600084815260200190815260200160002081905550600190506200042b565b600090505b92915050565b600080600084815260200190815260200160002060000160008373ffffffffffffffffffffffffffffffffffffffff1673ffffffffffffffffffffffffffffffffffffffff16815260200190815260200160002060009054906101000a900460ff16905092915050565b600033905090565b600080836001016000848152602001908152602001600020541415905092915050565b600081519050620004d78162000791565b92915050565b600081519050620004ee81620007ab565b92915050565b600080604083850312156200050e576200050d6200077f565b5b60006200051e85828601620004c6565b92505060206200053185828601620004c6565b9150509250929050565b6000602082840312156200055457620005536200077f565b5b60006200056484828501620004dd565b91505092915050565b6000808291508390505b6001851115620005bf5780860481111562000597576200059662000750565b5b6001851615620005a75780820291505b8081029050620005b78562000784565b945062000577565b94509492505050565b6000620005d58262000739565b9150620005e28362000739565b9250620006117fffffffffffffffffffffffffffffffffffffffffffffffffffffffffffffffff848462000619565b905092915050565b6000826200062b5760019050620006fe565b816200063b5760009050620006fe565b81600181146200065457600281146200065f5762000695565b6001915050620006fe565b60ff84111562000674576200067362000750565b5b8360020a9150848211156200068e576200068d62000750565b5b50620006fe565b5060208310610133831016604e8410600b8410161715620006cf5782820a905083811115620006c957620006c862000750565b5b620006fe565b620006de84848460016200056d565b92509050818404811115620006f857620006f762000750565b5b81810290505b9392505050565b6000620007128262000719565b9050919050565b600073ffffffffffffffffffffffffffffffffffffffff82169050919050565b6000819050919050565b600060ff82169050919050565b7f4e487b7100000000000000000000000000000000000000000000000000000000600052601160045260246000fd5b600080fd5b60008160011c9050919050565b6200079c8162000705565b8114620007a857600080fd5b50565b620007b68162000743565b8114620007c257600080fd5b50565b613f9c80620007d56000396000f3fe608060405234801561001057600080fd5b50600436106102325760003560e01c80636c1f7b9311610130578063b0667cf8116100b8578063d50cb88b1161007c578063d50cb88b14610728578063d547741f14610746578063f8a3518114610762578063f93bed3f14610780578063fa66dcd41461079c57610232565b8063b0667cf81461066a578063b446994414610689578063b56beccb146106a8578063cfc2dc20146106c6578063cff7fb05146106f657610232565b806386753677116100ff57806386753677146105a057806391d14854146105d0578063a217fddf14610600578063a556feec1461061e578063a823c0871461063a57610232565b80636c1f7b931461052c57806375b238fc1461054857806385d45b0c1461056657806385dcee931461058257610232565b80632f2ff15d116101be5780634d38cad9116101825780634d38cad914610464578063637baf6014610494578063687c91bd146104b057806369369ab5146104cc5780636abae9b3146104fc57610232565b80632f2ff15d1461039c57806336568abe146103b857806340d6eaab146103d457806346047a661461040457806349b04ee11461043457610232565b80631ce5e9a6116102055780631ce5e9a6146102e5578063248a9ca314610315578063285f94571461034557806328e493c1146103615780632bd81a0f1461037d57610232565b806301ffc9a71461023757806305300b2814610267578063128734c5146102855780631a7985ba146102b5575b600080fd5b610251600480360381019061024c9190612b9f565b6107cd565b60405161025e919061333e565b60405180910390f35b61026f610847565b60405161027c919061351a565b60405180910390f35b61029f600480360381019061029a9190612cef565b61084d565b6040516102ac919061351a565b60405180910390f35b6102cf60048036038101906102ca9190612c15565b6108c7565b6040516102dc9190613323565b60405180910390f35b6102ff60048036038101906102fa9190612c15565b610907565b60405161030c91906134ac565b60405180910390f35b61032f600480360381019061032a9190612b32565b610a6f565b60405161033c9190613359565b60405180910390f35b61035f600480360381019061035a9190612c15565b610a8e565b005b61037b60048036038101906103769190612c15565b610af6565b005b610385610b85565b60405161039392919061355e565b60405180910390f35b6103b660048036038101906103b19190612b5f565b610b97565b005b6103d260048036038101906103cd9190612b5f565b610bc0565b005b6103ee60048036038101906103e99190612c15565b610c43565b6040516103fb919061351a565b60405180910390f35b61041e60048036038101906104199190612c15565b610cf6565b60405161042b919061351a565b60405180910390f35b61044e60048036038101906104499190612c15565b610d16565b60405161045b919061351a565b60405180910390f35b61047e60048036038101906104799190612c15565b610d89565b60405161048b919061333e565b60405180910390f35b6104ae60048036038101906104a99190612c15565b610da6565b005b6104ca60048036038101906104c59190612b05565b610e1b565b005b6104e660048036038101906104e19190612c15565b610e84565b6040516104f3919061333e565b60405180910390f35b61051660048036038101906105119190612caf565b610f1a565b604051610523919061351a565b60405180910390f35b61054660048036038101906105419190612c15565b611014565b005b6105506110a4565b60405161055d9190613359565b60405180910390f35b610580600480360381019061057b9190612c15565b6110c8565b005b61058a611131565b6040516105979190613359565b60405180910390f35b6105ba60048036038101906105b59190612dfd565b611203565b6040516105c7919061351a565b60405180910390f35b6105ea60048036038101906105e59190612b5f565b6115d7565b6040516105f7919061333e565b60405180910390f35b610608611641565b6040516106159190613359565b60405180910390f35b61063860048036038101906106339190612c6f565b611648565b005b610654600480360381019061064f9190612c15565b6117f4565b6040516106619190613374565b60405180910390f35b610672611b2f565b60405161068092919061355e565b60405180910390f35b610691611be8565b60405161069f92919061355e565b60405180910390f35b6106b0611bfa565b6040516106bd9190613359565b60405180910390f35b6106e060048036038101906106db9190612c15565b611c1e565b6040516106ed919061351a565b60405180910390f35b610710600480360381019061070b9190612d2f565b611cef565b60405161071f93929190613587565b60405180910390f35b610730611e4f565b60405161073d919061351a565b60405180910390f35b610760600480360381019061075b9190612b5f565b611e55565b005b61076a611e7e565b604051610777919061351a565b60405180910390f35b61079a60048036038101906107959190612b05565b611e84565b005b6107b660048036038101906107b19190612d6f565b611eec565b6040516107c492919061355e565b60405180910390f35b60007f7965db0b000000000000000000000000000000000000000000000000000000007bffffffffffffffffffffffffffffffffffffffffffffffffffffffff1916827bffffffffffffffffffffffffffffffffffffffffffffffffffffffff19161480610840575061083f82612170565b5b9050919050565b60085481565b600081600181111561086257610861613c10565b5b6001600085815260200190815260200160002060000160009054906101000a900460ff16600181111561089857610897613c10565b5b14156108bc57600160008481526020019081526020016000206006015490506108c1565b600090505b92915050565b60006001600083815260200190815260200160002060000160019054906101000a900473ffffffffffffffffffffffffffffffffffffffff169050919050565b61090f6128df565b60016000838152602001908152602001600020604051806101c00160405290816000820160009054906101000a900460ff16600181111561095357610952613c10565b5b600181111561096557610964613c10565b5b81526020016000820160019054906101000a900473ffffffffffffffffffffffffffffffffffffffff1673ffffffffffffffffffffffffffffffffffffffff1673ffffffffffffffffffffffffffffffffffffffff1681526020016000820160159054906101000a900460ff1660038111156109e4576109e3613c10565b5b60038111156109f6576109f5613c10565b5b8152602001600182015481526020016002820154815260200160038201548152602001600482015481526020016005820154815260200160068201548152602001600782015481526020016008820154815260200160098201548152602001600a8201548152602001600b820154815250509050919050565b6000806000838152602001908152602001600020600101549050919050565b7fa49807205ce4d355092ef5a8a18f56e8913cf4a201fbe287825b095693c21775610ac081610abb6121da565b6121e2565b610ad482600a61227f90919063ffffffff16565b610add57600080fd5b610af182600a61229990919063ffffffff16565b505050565b7f75e5bf8b7de9fd9f24c97951733c6410a040b7a07b543096cb36c6dda365aa8b610b2881610b236121da565b6121e2565b426001600084815260200190815260200160002060030181905550600180600084815260200190815260200160002060000160156101000a81548160ff02191690836003811115610b7c57610b7b613c10565b5b02179055505050565b600e8060000154908060010154905082565b610ba082610a6f565b610bb181610bac6121da565b6121e2565b610bbb83836122b3565b505050565b610bc86121da565b73ffffffffffffffffffffffffffffffffffffffff168173ffffffffffffffffffffffffffffffffffffffff1614610c35576040517f08c379a0000000000000000000000000000000000000000000000000000000008152600401610c2c9061348c565b60405180910390fd5b610c3f8282612393565b5050565b600080610c4e611b2f565b5090506001600084815260200190815260200160002073__OptionLibrary_________________________63d26870859091836040518363ffffffff1660e01b8152600401610c9e9291906134f1565b60206040518083038186803b158015610cb657600080fd5b505af4158015610cca573d6000803e3d6000fd5b505050506040513d601f19601f82011682018060405250810190610cee9190612c42565b915050919050565b600060016000838152602001908152602001600020600a01549050919050565b6000806003811115610d2b57610d2a613c10565b5b6001600084815260200190815260200160002060000160159054906101000a900460ff166003811115610d6157610d60613c10565b5b14610d6b57600080fd5b60016000838152602001908152602001600020600b01549050919050565b6000610d9f82600a61227f90919063ffffffff16565b9050919050565b7f75e5bf8b7de9fd9f24c97951733c6410a040b7a07b543096cb36c6dda365aa8b610dd881610dd36121da565b6121e2565b60036001600084815260200190815260200160002060000160156101000a81548160ff02191690836003811115610e1257610e11613c10565b5b02179055505050565b7fa49807205ce4d355092ef5a8a18f56e8913cf4a201fbe287825b095693c21775610e4d81610e486121da565b6121e2565b610e6182600561247490919063ffffffff16565b15610e6b57600080fd5b610e7f8260056124a490919063ffffffff16565b505050565b6000806003811115610e9957610e98613c10565b5b6001600084815260200190815260200160002060000160159054906101000a900460ff166003811115610ecf57610ece613c10565b5b148015610f1357504260016000848152602001908152602001600020600401546001600085815260200190815260200160002060030154610f1091906136f0565b11155b9050919050565b6000806003811115610f2f57610f2e613c10565b5b6001600085815260200190815260200160002060000160159054906101000a900460ff166003811115610f6557610f64613c10565b5b14610f6f57600080fd5b6001600084815260200190815260200160002073__OptionLibrary_________________________639931896a9091846040518363ffffffff1660e01b8152600401610fbc9291906134c8565b60206040518083038186803b158015610fd457600080fd5b505af4158015610fe8573d6000803e3d6000fd5b505050506040513d601f19601f8201168201806040525081019061100c9190612c42565b905092915050565b7f75e5bf8b7de9fd9f24c97951733c6410a040b7a07b543096cb36c6dda365aa8b611046816110416121da565b6121e2565b42600160008481526020019081526020016000206005018190555060026001600084815260200190815260200160002060000160156101000a81548160ff0219169083600381111561109b5761109a613c10565b5b02179055505050565b7fa49807205ce4d355092ef5a8a18f56e8913cf4a201fbe287825b095693c2177581565b7fa49807205ce4d355092ef5a8a18f56e8913cf4a201fbe287825b095693c217756110fa816110f56121da565b6121e2565b61110e82600a61227f90919063ffffffff16565b1561111857600080fd5b61112c82600a61215690919063ffffffff16565b505050565b6000600360009054906101000a900473ffffffffffffffffffffffffffffffffffffffff1673ffffffffffffffffffffffffffffffffffffffff16637284e4166040518163ffffffff1660e01b815260040160006040518083038186803b15801561119b57600080fd5b505afa1580156111af573d6000803e3d6000fd5b505050506040513d6000823e3d601f19601f820116820180604052508101906111d89190612bcc565b6040516020016111e891906132d2565b60405160208183030381529060405280519060200120905090565b60007f75e5bf8b7de9fd9f24c97951733c6410a040b7a07b543096cb36c6dda365aa8b611237816112326121da565b6121e2565b61124b88600a61227f90919063ffffffff16565b61128a576040517f08c379a00000000000000000000000000000000000000000000000000000000081526004016112819061342c565b60405180910390fd5b6000600181111561129e5761129d613c10565b5b8660018111156112b1576112b0613c10565b5b14806112e057506001808111156112cb576112ca613c10565b5b8660018111156112de576112dd613c10565b5b145b61131f576040517f08c379a0000000000000000000000000000000000000000000000000000000008152600401611316906133ec565b60405180910390fd5b6000611329611b2f565b5090506000600460009054906101000a900473ffffffffffffffffffffffffffffffffffffffff1673ffffffffffffffffffffffffffffffffffffffff1663040b030f8b6040518263ffffffff1660e01b8152600401611389919061351a565b60206040518083038186803b1580156113a157600080fd5b505afa1580156113b5573d6000803e3d6000fd5b505050506040513d601f19601f820116820180604052508101906113d99190612c42565b9050600260008154809291906113ee90613b20565b919050555060006002549050604051806101c001604052808a600181111561141957611418613c10565b5b81526020013373ffffffffffffffffffffffffffffffffffffffff1681526020016000600381111561144e5761144d613c10565b5b8152602001828152602001428152602001600081526020018c8152602001600081526020018981526020018481526020018b8152602001838152602001888152602001878152506001600083815260200190815260200160002060008201518160000160006101000a81548160ff021916908360018111156114d3576114d2613c10565b5b021790555060208201518160000160016101000a81548173ffffffffffffffffffffffffffffffffffffffff021916908373ffffffffffffffffffffffffffffffffffffffff16021790555060408201518160000160156101000a81548160ff0219169083600381111561154a57611549613c10565b5b0217905550606082015181600101556080820151816002015560a0820151816003015560c0820151816004015560e08201518160050155610100820151816006015561012082015181600701556101408201518160080155610160820151816009015561018082015181600a01556101a082015181600b0155905050809450505050509695505050505050565b600080600084815260200190815260200160002060000160008373ffffffffffffffffffffffffffffffffffffffff1673ffffffffffffffffffffffffffffffffffffffff16815260200190815260200160002060009054906101000a900460ff16905092915050565b6000801b81565b8073ffffffffffffffffffffffffffffffffffffffff166001600084815260200190815260200160002060000160019054906101000a900473ffffffffffffffffffffffffffffffffffffffff1673ffffffffffffffffffffffffffffffffffffffff16146116ec576040517f08c379a00000000000000000000000000000000000000000000000000000000081526004016116e39061346c565b60405180910390fd5b426001600084815260200190815260200160002060040154600160008581526020019081526020016000206003015461172591906136f0565b1015611766576040517f08c379a000000000000000000000000000000000000000000000000000000000815260040161175d9061344c565b60405180910390fd5b6001600381111561177a57611779613c10565b5b6001600084815260200190815260200160002060000160159054906101000a900460ff1660038111156117b0576117af613c10565b5b146117f0576040517f08c379a00000000000000000000000000000000000000000000000000000000081526004016117e79061340c565b60405180910390fd5b5050565b600080600090506001600381111561180f5761180e613c10565b5b6001600085815260200190815260200160002060000160159054906101000a900460ff16600381111561184557611844613c10565b5b1415611b26576000611855611b2f565b5090506000600e60010154600e60000154600460009054906101000a900473ffffffffffffffffffffffffffffffffffffffff1673ffffffffffffffffffffffffffffffffffffffff1663040b030f620151806040518263ffffffff1660e01b81526004016118c4919061338f565b60206040518083038186803b1580156118dc57600080fd5b505afa1580156118f0573d6000803e3d6000fd5b505050506040513d601f19601f820116820180604052508101906119149190612c42565b61191e91906138f8565b61192891906137b0565b90506000600754828461193b91906138f8565b61194591906137b0565b836119509190613952565b905060008160028561196291906138f8565b61196c9190613952565b9050600260016000898152602001908152602001600020600601546119919190613746565b9450600060018111156119a7576119a6613c10565b5b6001600089815260200190815260200160002060000160009054906101000a900460ff1660018111156119dd576119dc613c10565b5b1415611a3f576001600088815260200190815260200160002060080154811015611a0657600094505b6001600088815260200190815260200160002060080154821115611a3e57600160008881526020019081526020016000206006015494505b5b600180811115611a5257611a51613c10565b5b6001600089815260200190815260200160002060000160009054906101000a900460ff166001811115611a8857611a87613c10565b5b1415611b21577fffffffffffffffffffffffffffffffffffffffffffffffffffffffffffffffff85611aba91906137e1565b94506001600088815260200190815260200160002060080154811015611afd576001600088815260200190815260200160002060060154611afa90613b69565b94505b6001600088815260200190815260200160002060080154821115611b2057600094505b5b505050505b80915050919050565b600080600080600360009054906101000a900473ffffffffffffffffffffffffffffffffffffffff1673ffffffffffffffffffffffffffffffffffffffff1663feaf968c6040518163ffffffff1660e01b815260040160a06040518083038186803b158015611b9d57600080fd5b505afa158015611bb1573d6000803e3d6000fd5b505050506040513d601f19601f82011682018060405250810190611bd59190612e8a565b5093505092505081819350935050509091565b600c8060000154908060010154905082565b7f75e5bf8b7de9fd9f24c97951733c6410a040b7a07b543096cb36c6dda365aa8b81565b6000611c3482600a61227f90919063ffffffff16565b611c3d57600080fd5b600460009054906101000a900473ffffffffffffffffffffffffffffffffffffffff1673ffffffffffffffffffffffffffffffffffffffff1663040b030f836040518263ffffffff1660e01b8152600401611c98919061351a565b60206040518083038186803b158015611cb057600080fd5b505afa158015611cc4573d6000803e3d6000fd5b505050506040513d601f19601f82011682018060405250810190611ce89190612c42565b9050919050565b600080600080611cfd611b2f565b5090506000600460009054906101000a900473ffffffffffffffffffffffffffffffffffffffff1673ffffffffffffffffffffffffffffffffffffffff1663040b030f886040518263ffffffff1660e01b8152600401611d5d919061351a565b60206040518083038186803b158015611d7557600080fd5b505afa158015611d89573d6000803e3d6000fd5b505050506040513d601f19601f82011682018060405250810190611dad9190612c42565b9050818173__OptionLibrary_________________________63ab3901978986866007546040518563ffffffff1660e01b8152600401611df0949392919061362e565b60206040518083038186803b158015611e0857600080fd5b505af4158015611e1c573d6000803e3d6000fd5b505050506040513d601f19601f82011682018060405250810190611e409190612c42565b94509450945050509250925092565b60075481565b611e5e82610a6f565b611e6f81611e6a6121da565b6121e2565b611e798383612393565b505050565b60025481565b7fa49807205ce4d355092ef5a8a18f56e8913cf4a201fbe287825b095693c21775611eb681611eb16121da565b6121e2565b611eca82600561247490919063ffffffff16565b611ed357600080fd5b611ee78260056124d490919063ffffffff16565b505050565b600080611f0388600a61227f90919063ffffffff16565b611f0c57600080fd5b60006001811115611f2057611f1f613c10565b5b866001811115611f3357611f32613c10565b5b1480611f625750600180811115611f4d57611f4c613c10565b5b866001811115611f6057611f5f613c10565b5b145b611f6b57600080fd5b6000611f75611b2f565b5090506000600460009054906101000a900473ffffffffffffffffffffffffffffffffffffffff1673ffffffffffffffffffffffffffffffffffffffff1663040b030f8b6040518263ffffffff1660e01b8152600401611fd5919061351a565b60206040518083038186803b158015611fed57600080fd5b505afa158015612001573d6000803e3d6000fd5b505050506040513d601f19601f820116820180604052508101906120259190612c42565b905073__OptionLibrary_________________________63eb4da63e83838c8c8c8b6007546040518863ffffffff1660e01b815260040161206c97969594939291906135be565b60206040518083038186803b15801561208457600080fd5b505af4158015612098573d6000803e3d6000fd5b505050506040513d601f19601f820116820180604052508101906120bc9190612c42565b73__OptionLibrary_________________________633699957989896040518363ffffffff1660e01b81526004016120f5929190613535565b60206040518083038186803b15801561210d57600080fd5b505af4158015612121573d6000803e3d6000fd5b505050506040513d601f19601f820116820180604052508101906121459190612c42565b935093505050965096945050505050565b6000612168836000018360001b612504565b905092915050565b60007f01ffc9a7000000000000000000000000000000000000000000000000000000007bffffffffffffffffffffffffffffffffffffffffffffffffffffffff1916827bffffffffffffffffffffffffffffffffffffffffffffffffffffffff1916149050919050565b600033905090565b6121ec82826115d7565b61227b576122118173ffffffffffffffffffffffffffffffffffffffff166014612574565b61221f8360001c6020612574565b6040516020016122309291906132e9565b6040516020818303038152906040526040517f08c379a000000000000000000000000000000000000000000000000000000000815260040161227291906133aa565b60405180910390fd5b5050565b6000612291836000018360001b6127b0565b905092915050565b60006122ab836000018360001b6127d3565b905092915050565b6122bd82826115d7565b61238f57600160008084815260200190815260200160002060000160008373ffffffffffffffffffffffffffffffffffffffff1673ffffffffffffffffffffffffffffffffffffffff16815260200190815260200160002060006101000a81548160ff0219169083151502179055506123346121da565b73ffffffffffffffffffffffffffffffffffffffff168173ffffffffffffffffffffffffffffffffffffffff16837f2f8788117e7eff1d82e926ec794901d17c78024a50270940304540a733656f0d60405160405180910390a45b5050565b61239d82826115d7565b1561247057600080600084815260200190815260200160002060000160008373ffffffffffffffffffffffffffffffffffffffff1673ffffffffffffffffffffffffffffffffffffffff16815260200190815260200160002060006101000a81548160ff0219169083151502179055506124156121da565b73ffffffffffffffffffffffffffffffffffffffff168173ffffffffffffffffffffffffffffffffffffffff16837ff6391f5c32d9c69d2a47ea670b442974b53935d1edc7fd64eb21e047a839171b60405160405180910390a45b5050565b600061249c836000018373ffffffffffffffffffffffffffffffffffffffff1660001b6127b0565b905092915050565b60006124cc836000018373ffffffffffffffffffffffffffffffffffffffff1660001b612504565b905092915050565b60006124fc836000018373ffffffffffffffffffffffffffffffffffffffff1660001b6127d3565b905092915050565b600061251083836127b0565b61256957826000018290806001815401808255809150506001900390600052602060002001600090919091909150558260000180549050836001016000848152602001908152602001600020819055506001905061256e565b600090505b92915050565b60606000600283600261258791906138f8565b61259191906136f0565b67ffffffffffffffff8111156125aa576125a9613c9d565b5b6040519080825280601f01601f1916602001820160405280156125dc5781602001600182028036833780820191505090505b5090507f30000000000000000000000000000000000000000000000000000000000000008160008151811061261457612613613c6e565b5b60200101907effffffffffffffffffffffffffffffffffffffffffffffffffffffffffffff1916908160001a9053507f78000000000000000000000000000000000000000000000000000000000000008160018151811061267857612677613c6e565b5b60200101907effffffffffffffffffffffffffffffffffffffffffffffffffffffffffffff1916908160001a905350600060018460026126b891906138f8565b6126c291906136f0565b90505b6001811115612762577f3031323334353637383961626364656600000000000000000000000000000000600f86166010811061270457612703613c6e565b5b1a60f81b82828151811061271b5761271a613c6e565b5b60200101907effffffffffffffffffffffffffffffffffffffffffffffffffffffffffffff1916908160001a905350600485901c94508061275b90613ac5565b90506126c5565b50600084146127a6576040517f08c379a000000000000000000000000000000000000000000000000000000000815260040161279d906133cc565b60405180910390fd5b8091505092915050565b600080836001016000848152602001908152602001600020541415905092915050565b600080836001016000848152602001908152602001600020549050600081146128d35760006001826128059190613952565b905060006001866000018054905061281d9190613952565b9050600086600001828154811061283757612836613c6e565b5b906000526020600020015490508087600001848154811061285b5761285a613c6e565b5b906000526020600020018190555083876001016000838152602001908152602001600020819055508660000180548061289757612896613c3f565b5b600190038181906000526020600020016000905590558660010160008781526020019081526020016000206000905560019450505050506128d9565b60009150505b92915050565b604051806101c00160405280600060018111156128ff576128fe613c10565b5b8152602001600073ffffffffffffffffffffffffffffffffffffffff1681526020016000600381111561293557612934613c10565b5b815260200160008152602001600081526020016000815260200160008152602001600081526020016000815260200160008152602001600081526020016000815260200160008152602001600081525090565b600061299b61299684613698565b613673565b9050828152602081018484840111156129b7576129b6613cd6565b5b6129c2848285613a92565b509392505050565b6000813590506129d981613eb5565b92915050565b6000813590506129ee81613ecc565b92915050565b600081359050612a0381613ee3565b92915050565b600081359050612a1881613efa565b92915050565b600081359050612a2d81613f11565b92915050565b600081519050612a4281613f21565b92915050565b600082601f830112612a5d57612a5c613ccc565b5b8151612a6d848260208601612988565b91505092915050565b600060408284031215612a8c57612a8b613cd1565b5b612a966040613673565b90506000612aa684828501612ac6565b6000830152506020612aba84828501612ac6565b60208301525092915050565b600081359050612ad581613f38565b92915050565b600081519050612aea81613f38565b92915050565b600081519050612aff81613f4f565b92915050565b600060208284031215612b1b57612b1a613ce0565b5b6000612b29848285016129ca565b91505092915050565b600060208284031215612b4857612b47613ce0565b5b6000612b56848285016129f4565b91505092915050565b60008060408385031215612b7657612b75613ce0565b5b6000612b84858286016129f4565b9250506020612b95858286016129ca565b9150509250929050565b600060208284031215612bb557612bb4613ce0565b5b6000612bc384828501612a09565b91505092915050565b600060208284031215612be257612be1613ce0565b5b600082015167ffffffffffffffff811115612c0057612bff613cdb565b5b612c0c84828501612a48565b91505092915050565b600060208284031215612c2b57612c2a613ce0565b5b6000612c3984828501612ac6565b91505092915050565b600060208284031215612c5857612c57613ce0565b5b6000612c6684828501612adb565b91505092915050565b60008060408385031215612c8657612c85613ce0565b5b6000612c9485828601612ac6565b9250506020612ca5858286016129ca565b9150509250929050565b60008060408385031215612cc657612cc5613ce0565b5b6000612cd485828601612ac6565b9250506020612ce5858286016129df565b9150509250929050565b60008060408385031215612d0657612d05613ce0565b5b6000612d1485828601612ac6565b9250506020612d2585828601612a1e565b9150509250929050565b60008060408385031215612d4657612d45613ce0565b5b6000612d5485828601612ac6565b9250506020612d6585828601612ac6565b9150509250929050565b6000806000806000806101008789031215612d8d57612d8c613ce0565b5b6000612d9b89828a01612ac6565b9650506020612dac89828a01612ac6565b9550506040612dbd89828a01612a1e565b9450506060612dce89828a01612ac6565b9350506080612ddf89828a01612a76565b92505060c0612df089828a01612a76565b9150509295509295509295565b60008060008060008060c08789031215612e1a57612e19613ce0565b5b6000612e2889828a01612ac6565b9650506020612e3989828a01612ac6565b9550506040612e4a89828a01612a1e565b9450506060612e5b89828a01612ac6565b9350506080612e6c89828a01612ac6565b92505060a0612e7d89828a01612ac6565b9150509295509295509295565b600080600080600060a08688031215612ea657612ea5613ce0565b5b6000612eb488828901612af0565b9550506020612ec588828901612a33565b9450506040612ed688828901612adb565b9350506060612ee788828901612adb565b9250506080612ef888828901612af0565b9150509295509295909350565b612f0e81613998565b82525050565b612f1d81613986565b82525050565b612f2c816139aa565b82525050565b612f3b816139aa565b82525050565b612f4a816139b6565b82525050565b612f5981613a5c565b82525050565b612f6881613a6e565b82525050565b612f7781613a6e565b82525050565b612f8681613a12565b82525050565b612f9581613a80565b82525050565b6000612fa6826136c9565b612fb081856136d4565b9350612fc0818560208601613a92565b612fc981613ce5565b840191505092915050565b6000612fdf826136c9565b612fe981856136e5565b9350612ff9818560208601613a92565b80840191505092915050565b60006130126020836136d4565b915061301d82613cf6565b602082019050919050565b60006130356017836136d4565b915061304082613d1f565b602082019050919050565b60006130586012836136d4565b915061306382613d48565b602082019050919050565b600061307b6013836136d4565b915061308682613d71565b602082019050919050565b600061309e6013836136d4565b91506130a982613d9a565b602082019050919050565b60006130c1600e836136d4565b91506130cc82613dc3565b602082019050919050565b60006130e46017836136e5565b91506130ef82613dec565b601782019050919050565b60006131076011836136e5565b915061311282613e15565b601182019050919050565b600061312a602f836136d4565b915061313582613e3e565b604082019050919050565b6101c0820160008201516131576000850182612f5f565b50602082015161316a6020850182612f14565b50604082015161317d6040850182612f50565b5060608201516131906060850182613296565b5060808201516131a36080850182613296565b5060a08201516131b660a0850182613296565b5060c08201516131c960c0850182613296565b5060e08201516131dc60e0850182613296565b506101008201516131f1610100850182613296565b50610120820151613206610120850182613296565b5061014082015161321b610140850182613296565b50610160820151613230610160850182613296565b50610180820151613245610180850182613296565b506101a082015161325a6101a0850182613296565b50505050565b8082525050565b60408201600082015161327d60008501826132c3565b50602082015161329060208501826132c3565b50505050565b61329f81613a3c565b82525050565b6132ae81613a3c565b82525050565b6132bd81613a3c565b82525050565b6132cc81613a3c565b82525050565b60006132de8284612fd4565b915081905092915050565b60006132f4826130d7565b91506133008285612fd4565b915061330b826130fa565b91506133178284612fd4565b91508190509392505050565b60006020820190506133386000830184612f05565b92915050565b60006020820190506133536000830184612f23565b92915050565b600060208201905061336e6000830184612f41565b92915050565b60006020820190506133896000830184612f7d565b92915050565b60006020820190506133a46000830184612f8c565b92915050565b600060208201905081810360008301526133c48184612f9b565b905092915050565b600060208201905081810360008301526133e581613005565b9050919050565b6000602082019050818103600083015261340581613028565b9050919050565b600060208201905081810360008301526134258161304b565b9050919050565b600060208201905081810360008301526134458161306e565b9050919050565b6000602082019050818103600083015261346581613091565b9050919050565b60006020820190508181036000830152613485816130b4565b9050919050565b600060208201905081810360008301526134a58161311d565b9050919050565b60006101c0820190506134c26000830184613140565b92915050565b60006040820190506134dd6000830185613260565b6134ea6020830184612f32565b9392505050565b60006040820190506135066000830185613260565b61351360208301846132b4565b9392505050565b600060208201905061352f60008301846132a5565b92915050565b600060608201905061354a60008301856132b4565b6135576020830184613267565b9392505050565b600060408201905061357360008301856132a5565b61358060208301846132a5565b9392505050565b600060608201905061359c60008301866132a5565b6135a960208301856132a5565b6135b660408301846132a5565b949350505050565b6000610100820190506135d4600083018a6132b4565b6135e160208301896132b4565b6135ee60408301886132b4565b6135fb6060830187612f6e565b61360860808301866132b4565b61361560a0830185613267565b61362260e08301846132b4565b98975050505050505050565b600060808201905061364360008301876132b4565b61365060208301866132b4565b61365d60408301856132b4565b61366a60608301846132b4565b95945050505050565b600061367d61368e565b90506136898282613aef565b919050565b6000604051905090565b600067ffffffffffffffff8211156136b3576136b2613c9d565b5b6136bc82613ce5565b9050602081019050919050565b600081519050919050565b600082825260208201905092915050565b600081905092915050565b60006136fb82613a3c565b915061370683613a3c565b9250827fffffffffffffffffffffffffffffffffffffffffffffffffffffffffffffffff0382111561373b5761373a613bb2565b5b828201905092915050565b600061375182613a12565b915061375c83613a12565b92508261376c5761376b613be1565b5b600160000383147f8000000000000000000000000000000000000000000000000000000000000000831416156137a5576137a4613bb2565b5b828205905092915050565b60006137bb82613a3c565b91506137c683613a3c565b9250826137d6576137d5613be1565b5b828204905092915050565b60006137ec82613a12565b91506137f783613a12565b9250827f7fffffffffffffffffffffffffffffffffffffffffffffffffffffffffffffff048211600084136000841316161561383657613835613bb2565b5b817f8000000000000000000000000000000000000000000000000000000000000000058312600084126000841316161561387357613872613bb2565b5b827f800000000000000000000000000000000000000000000000000000000000000005821260008413600084121616156138b0576138af613bb2565b5b827f7fffffffffffffffffffffffffffffffffffffffffffffffffffffffffffffff05821260008412600084121616156138ed576138ec613bb2565b5b828202905092915050565b600061390382613a3c565b915061390e83613a3c565b9250817fffffffffffffffffffffffffffffffffffffffffffffffffffffffffffffffff048311821515161561394757613946613bb2565b5b828202905092915050565b600061395d82613a3c565b915061396883613a3c565b92508282101561397b5761397a613bb2565b5b828203905092915050565b600061399182613a1c565b9050919050565b60006139a382613a1c565b9050919050565b60008115159050919050565b6000819050919050565b60007fffffffff0000000000000000000000000000000000000000000000000000000082169050919050565b60008190506139fa82613e8d565b919050565b6000819050613a0d82613ea1565b919050565b6000819050919050565b600073ffffffffffffffffffffffffffffffffffffffff82169050919050565b6000819050919050565b600069ffffffffffffffffffff82169050919050565b6000613a67826139ec565b9050919050565b6000613a79826139ff565b9050919050565b6000613a8b82613a3c565b9050919050565b60005b83811015613ab0578082015181840152602081019050613a95565b83811115613abf576000848401525b50505050565b6000613ad082613a3c565b91506000821415613ae457613ae3613bb2565b5b600182039050919050565b613af882613ce5565b810181811067ffffffffffffffff82111715613b1757613b16613c9d565b5b80604052505050565b6000613b2b82613a3c565b91507fffffffffffffffffffffffffffffffffffffffffffffffffffffffffffffffff821415613b5e57613b5d613bb2565b5b600182019050919050565b6000613b7482613a12565b91507f8000000000000000000000000000000000000000000000000000000000000000821415613ba757613ba6613bb2565b5b816000039050919050565b7f4e487b7100000000000000000000000000000000000000000000000000000000600052601160045260246000fd5b7f4e487b7100000000000000000000000000000000000000000000000000000000600052601260045260246000fd5b7f4e487b7100000000000000000000000000000000000000000000000000000000600052602160045260246000fd5b7f4e487b7100000000000000000000000000000000000000000000000000000000600052603160045260246000fd5b7f4e487b7100000000000000000000000000000000000000000000000000000000600052603260045260246000fd5b7f4e487b7100000000000000000000000000000000000000000000000000000000600052604160045260246000fd5b600080fd5b600080fd5b600080fd5b600080fd5b600080fd5b6000601f19601f8301169050919050565b7f537472696e67733a20686578206c656e67746820696e73756666696369656e74600082015250565b7f5573652063616c6c206f7220707574206f7074696f6e2e000000000000000000600082015250565b7f4e6f7420616374697665206f7074696f6e2e0000000000000000000000000000600082015250565b7f57726f6e67206f7074696f6e2074656e6f722e00000000000000000000000000600082015250565b7f4f7074696f6e2068617320657870697265642e00000000000000000000000000600082015250565b7f4e6f7420746865206f776e65722e000000000000000000000000000000000000600082015250565b7f416363657373436f6e74726f6c3a206163636f756e7420000000000000000000600082015250565b7f206973206d697373696e6720726f6c6520000000000000000000000000000000600082015250565b7f416363657373436f6e74726f6c3a2063616e206f6e6c792072656e6f756e636560008201527f20726f6c657320666f722073656c660000000000000000000000000000000000602082015250565b60048110613e9e57613e9d613c10565b5b50565b60028110613eb257613eb1613c10565b5b50565b613ebe81613986565b8114613ec957600080fd5b50565b613ed5816139aa565b8114613ee057600080fd5b50565b613eec816139b6565b8114613ef757600080fd5b50565b613f03816139c0565b8114613f0e57600080fd5b50565b60028110613f1e57600080fd5b50565b613f2a81613a12565b8114613f3557600080fd5b50565b613f4181613a3c565b8114613f4c57600080fd5b50565b613f5881613a46565b8114613f6357600080fd5b5056fea26469706673582212204ac586c36dbcd1ba8adbe56b2e269824a361f997466dd9c4faacad51fe26d84a64736f6c63430008060033",
  "immutableReferences": {},
  "source": "/**\n * SPDX-License-Identifier: GPL-3.0-or-later\n * Moret\n * Copyright (C) 2021 Moret\n*/\n\npragma solidity ^0.8.4;\n\nimport \"@openzeppelin/contracts/access/AccessControl.sol\";\nimport \"@openzeppelin/contracts/utils/structs/EnumerableSet.sol\";\nimport \"@chainlink/contracts/src/v0.8/interfaces/AggregatorV3Interface.sol\";\nimport \"./MoretInterfaces.sol\";\n\ncontract OptionVault is AccessControl, IOption\n{\n  using EnumerableSet for EnumerableSet.UintSet;\n  using EnumerableSet for EnumerableSet.Bytes32Set;\n  using EnumerableSet for EnumerableSet.AddressSet;\n  using OptionLibrary for OptionLibrary.Option;\n\n  bytes32 public constant ADMIN_ROLE = keccak256(\"ADMIN_ROLE\");\n\n  bytes32 public constant MARKET_MAKER_ROLE = keccak256(\"MARKET_MAKER_ROLE\");\n\n  mapping(uint256=> OptionLibrary.Option) internal optionsList;\n  uint256 public optionCounter = 0;\n\n  AggregatorV3Interface internal priceInterface;\n  IVolatilityChain internal volatilityChain;\n  EnumerableSet.AddressSet allowedMarketMakerAddresses;\n\n  uint256 public priceMultiplier;\n  uint256 public priceDecimals;\n  uint256 internal pctDenominator = 10 ** 6;\n  EnumerableSet.UintSet tenors;\n\n  OptionLibrary.Percent public volPremiumFixedAddon = OptionLibrary.Percent(5 * 10 ** 3, 10 ** 6) ;\n  OptionLibrary.Percent public deltaRange = OptionLibrary.Percent(8 * 10 ** 5, 10 ** 6) ;\n\n  constructor(\n      address _chainlinkAddress,\n      address _volChainAddress\n      )\n      {\n          _setupRole(DEFAULT_ADMIN_ROLE, msg.sender);\n          _setupRole(ADMIN_ROLE, msg.sender);\n          _setupRole(MARKET_MAKER_ROLE, msg.sender);\n\n          priceInterface = AggregatorV3Interface(_chainlinkAddress);\n          volatilityChain = IVolatilityChain(_volChainAddress);\n\n          priceDecimals = priceInterface.decimals();\n          priceMultiplier = 10 ** priceDecimals;\n\n          tenors.add(1 days);\n      }\n\n    function descriptionHash() external view returns (bytes32)\n    {\n      return keccak256(abi.encodePacked(priceInterface.description()));\n    }\n\n    function addTenor(uint256 _tenor) external onlyRole(ADMIN_ROLE){\n      require(!tenors.contains(_tenor));\n      tenors.add(_tenor);\n    }\n    function removeTenor(uint256 _tenor) external onlyRole(ADMIN_ROLE){\n      require(tenors.contains(_tenor));\n      tenors.remove(_tenor);\n    }\n    function containsTenor(uint256 _tenor) external view returns (bool){\n      return(tenors.contains(_tenor));\n    }\n\n    function addMarketMaker(address _adr) external onlyRole(ADMIN_ROLE){\n      require(!allowedMarketMakerAddresses.contains(_adr));\n      allowedMarketMakerAddresses.add(_adr);\n    }\n    function removeMarketMaker(address _adr) external onlyRole(ADMIN_ROLE){\n      require(allowedMarketMakerAddresses.contains(_adr));\n      allowedMarketMakerAddresses.remove(_adr);\n    }\n\n    function queryPrice() public view returns(uint256, uint256){\n      (,int _price,,uint _timeStamp,) = priceInterface.latestRoundData();\n     return (uint256(_price), uint256(_timeStamp));\n    }\n\n    function queryVol(uint256 _tenor) public view returns (uint256){\n      require(tenors.contains(_tenor));\n      return volatilityChain.getVol(_tenor);\n    }\n\n    function queryOptionCost(uint256 _tenor, uint256 _strike, OptionLibrary.PayoffType _poType, uint256 _amount,\n      OptionLibrary.Percent memory _feeAddon, OptionLibrary.Percent memory _volAddon)\n      external view returns(uint256, uint256)\n    {\n        require(tenors.contains(_tenor));\n        require((_poType==OptionLibrary.PayoffType.Call) || (_poType==OptionLibrary.PayoffType.Put));\n\n        (uint256 _price,) = queryPrice();\n        uint256 _volatility = volatilityChain.getVol(_tenor);\n\n        return  (OptionLibrary.calcPremium(_price, _volatility, _strike, _poType, _amount, _volAddon, priceMultiplier),\n         OptionLibrary.calcFee(_amount, _feeAddon));\n    }\n\n    function checkVolSkew(uint256 _tenor, uint256 _strike) external view returns (uint256, uint256, uint256)\n    {\n        (uint256 _price,) = queryPrice();\n        uint256 _volatility = volatilityChain.getVol(_tenor);\n        return (_price, _volatility, OptionLibrary.calcVolSkew(_strike, _price, _volatility, priceMultiplier));\n    }\n\n    function addOption(uint256 _tenor, uint256 _strike, OptionLibrary.PayoffType _poType,\n      uint256 _amount, uint256 _premium, uint256 _fee)\n    external onlyRole(MARKET_MAKER_ROLE) returns(uint256)\n    {\n        require(tenors.contains(_tenor), \"Wrong option tenor.\");\n        require((_poType==OptionLibrary.PayoffType.Call) || (_poType==OptionLibrary.PayoffType.Put), \"Use call or put option.\");\n\n        (uint256 _price,) = queryPrice();\n        uint256 _volatility = volatilityChain.getVol(_tenor);\n\n        optionCounter++;\n        uint256 _id = optionCounter;\n        optionsList[_id] = OptionLibrary.Option(\n            _poType,\n            msg.sender,\n            OptionLibrary.OptionStatus.Draft,\n            _id,\n            block.timestamp,\n            0,\n            _tenor,\n            0,\n            _amount,\n            _price,\n            _strike,\n            _volatility,\n            _premium,\n            _fee);\n\n        return _id;\n    }\n\n    function queryDraftOptionCost(uint256 _id, bool _inVol) external view returns(uint256)\n    {\n        require(optionsList[_id].status== OptionLibrary.OptionStatus.Draft);\n        return optionsList[_id].getCost(_inVol);\n    }\n\n    function queryDraftOptionFee(uint256 _id) external view returns(uint256)\n    {\n        require(optionsList[_id].status== OptionLibrary.OptionStatus.Draft);\n        return optionsList[_id].fee;\n    }\n\n    function queryOptionPremium(uint256 _id) external view returns(uint256)\n    {\n        return optionsList[_id].premium;\n    }\n    function queryOptionExposure(uint256 _id, OptionLibrary.PayoffType _poType) external view returns(uint256)\n    {\n      if(optionsList[_id].poType==_poType)\n      {\n          return optionsList[_id].amount;\n      }\n      return 0;\n    }\n\n    function getOptionPayoffValue(uint256 _id) external view returns(uint256)\n    {\n        (uint256 _price,) = queryPrice();\n        return optionsList[_id].calcPayoffValue(_price);\n    }\n\n    function getOptionHolder(uint256 _id) external view returns (address payable){\n      return payable(optionsList[_id].holder);\n    }\n\n    function calculateContractDelta(uint256 _id) external view returns(int256){\n      int256 _delta = 0;\n      if(optionsList[_id].status== OptionLibrary.OptionStatus.Active)\n      {\n       (uint256 _price, ) = queryPrice();\n\n        uint256 _vol1DAdjusted = (volatilityChain.getVol(86400) * deltaRange.numerator / deltaRange.denominator);\n        uint256 _lowerRange = _price - (_price* _vol1DAdjusted/ priceMultiplier);\n        uint256 _upperRange = _price * 2 - _lowerRange;\n\n        _delta = int256(optionsList[_id].amount) / 2;\n        if (optionsList[_id].poType==OptionLibrary.PayoffType.Call)\n        {\n          if(_upperRange < optionsList[_id].strike)\n          {\n            _delta = 0;\n          }\n          if(_lowerRange > optionsList[_id].strike)\n          {\n            _delta = int256(optionsList[_id].amount);\n          }\n        }\n\n        if(optionsList[_id].poType==OptionLibrary.PayoffType.Put)\n        {\n            _delta *= -1;\n          if(_upperRange < optionsList[_id].strike)\n          {\n            _delta = -int256(optionsList[_id].amount);\n          }\n          if(_lowerRange > optionsList[_id].strike)\n          {\n            _delta = 0;\n          }\n        }\n      }\n        return _delta;\n    }\n\n\n    function validateOption(uint256 _id, address _holder) external view {\n      require(optionsList[_id].holder== _holder, \"Not the owner.\");\n      require((optionsList[_id].effectiveTime + optionsList[_id].tenor) >= block.timestamp, \"Option has expired.\");\n      require(optionsList[_id].status==OptionLibrary.OptionStatus.Active, \"Not active option.\");\n    }\n\n    function isOptionExpiring(uint256 _id) external view returns (bool)\n    {\n      return (optionsList[_id].status== OptionLibrary.OptionStatus.Draft) && ((optionsList[_id].effectiveTime + optionsList[_id].tenor) <= block.timestamp);\n    }\n\n    function stampActiveOption(uint256 _id) external onlyRole(MARKET_MAKER_ROLE) {\n        optionsList[_id].effectiveTime = block.timestamp;\n        optionsList[_id].status = OptionLibrary.OptionStatus.Active;\n    }\n\n    function stampExercisedOption(uint256 _id) external onlyRole(MARKET_MAKER_ROLE){\n        optionsList[_id].exerciseTime = block.timestamp;\n        optionsList[_id].status = OptionLibrary.OptionStatus.Exercised;\n    }\n\n    function stampExpiredOption(uint256 _id)  external onlyRole(MARKET_MAKER_ROLE){\n        optionsList[_id].status = OptionLibrary.OptionStatus.Expired;\n    }\n\n    function getOption(uint256 _id) external view returns(OptionLibrary.Option memory) {\n        return optionsList[_id];\n    }\n\n}\n",
  "sourcePath": "/Users/mac/Documents/GitHub/moret/contracts/OptionVault.sol",
  "compiler": {
    "name": "solc",
    "version": "0.8.6+commit.11564f7e.Emscripten.clang"
  },
  "schemaVersion": "3.4.1",
  "updatedAt": "2021-06-27T15:27:38.723Z",
  "devdoc": {
    "kind": "dev",
    "methods": {
      "getRoleAdmin(bytes32)": {
        "details": "Returns the admin role that controls `role`. See {grantRole} and {revokeRole}. To change a role's admin, use {_setRoleAdmin}."
      },
      "grantRole(bytes32,address)": {
        "details": "Grants `role` to `account`. If `account` had not been already granted `role`, emits a {RoleGranted} event. Requirements: - the caller must have ``role``'s admin role."
      },
      "hasRole(bytes32,address)": {
        "details": "Returns `true` if `account` has been granted `role`."
      },
      "renounceRole(bytes32,address)": {
        "details": "Revokes `role` from the calling account. Roles are often managed via {grantRole} and {revokeRole}: this function's purpose is to provide a mechanism for accounts to lose their privileges if they are compromised (such as when a trusted device is misplaced). If the calling account had been granted `role`, emits a {RoleRevoked} event. Requirements: - the caller must be `account`."
      },
      "revokeRole(bytes32,address)": {
        "details": "Revokes `role` from `account`. If `account` had been granted `role`, emits a {RoleRevoked} event. Requirements: - the caller must have ``role``'s admin role."
      },
      "supportsInterface(bytes4)": {
        "details": "See {IERC165-supportsInterface}."
      }
    },
    "version": 1
  },
  "userdoc": {
    "kind": "user",
    "methods": {},
    "version": 1
  }
}