{
  "contractName": "VolatilityToken",
  "abi": [
    {
      "inputs": [
        {
          "internalType": "string",
          "name": "_underlyingName",
          "type": "string"
        },
        {
          "internalType": "uint256",
          "name": "_tenor",
          "type": "uint256"
        },
        {
          "internalType": "string",
          "name": "_name",
          "type": "string"
        },
        {
          "internalType": "string",
          "name": "_symbol",
          "type": "string"
        }
      ],
      "stateMutability": "nonpayable",
      "type": "constructor"
    },
    {
      "anonymous": false,
      "inputs": [
        {
          "indexed": true,
          "internalType": "address",
          "name": "owner",
          "type": "address"
        },
        {
          "indexed": true,
          "internalType": "address",
          "name": "spender",
          "type": "address"
        },
        {
          "indexed": false,
          "internalType": "uint256",
          "name": "value",
          "type": "uint256"
        }
      ],
      "name": "Approval",
      "type": "event"
    },
    {
      "anonymous": false,
      "inputs": [
        {
          "indexed": true,
          "internalType": "bytes32",
          "name": "role",
          "type": "bytes32"
        },
        {
          "indexed": true,
          "internalType": "bytes32",
          "name": "previousAdminRole",
          "type": "bytes32"
        },
        {
          "indexed": true,
          "internalType": "bytes32",
          "name": "newAdminRole",
          "type": "bytes32"
        }
      ],
      "name": "RoleAdminChanged",
      "type": "event"
    },
    {
      "anonymous": false,
      "inputs": [
        {
          "indexed": true,
          "internalType": "bytes32",
          "name": "role",
          "type": "bytes32"
        },
        {
          "indexed": true,
          "internalType": "address",
          "name": "account",
          "type": "address"
        },
        {
          "indexed": true,
          "internalType": "address",
          "name": "sender",
          "type": "address"
        }
      ],
      "name": "RoleGranted",
      "type": "event"
    },
    {
      "anonymous": false,
      "inputs": [
        {
          "indexed": true,
          "internalType": "bytes32",
          "name": "role",
          "type": "bytes32"
        },
        {
          "indexed": true,
          "internalType": "address",
          "name": "account",
          "type": "address"
        },
        {
          "indexed": true,
          "internalType": "address",
          "name": "sender",
          "type": "address"
        }
      ],
      "name": "RoleRevoked",
      "type": "event"
    },
    {
      "anonymous": false,
      "inputs": [
        {
          "indexed": true,
          "internalType": "address",
          "name": "from",
          "type": "address"
        },
        {
          "indexed": true,
          "internalType": "address",
          "name": "to",
          "type": "address"
        },
        {
          "indexed": false,
          "internalType": "uint256",
          "name": "value",
          "type": "uint256"
        }
      ],
      "name": "Transfer",
      "type": "event"
    },
    {
      "inputs": [],
      "name": "ADMIN_ROLE",
      "outputs": [
        {
          "internalType": "bytes32",
          "name": "",
          "type": "bytes32"
        }
      ],
      "stateMutability": "view",
      "type": "function"
    },
    {
      "inputs": [],
      "name": "DEFAULT_ADMIN_ROLE",
      "outputs": [
        {
          "internalType": "bytes32",
          "name": "",
          "type": "bytes32"
        }
      ],
      "stateMutability": "view",
      "type": "function"
    },
    {
      "inputs": [],
      "name": "MARKET_MAKING_ROLE",
      "outputs": [
        {
          "internalType": "bytes32",
          "name": "",
          "type": "bytes32"
        }
      ],
      "stateMutability": "view",
      "type": "function"
    },
    {
      "inputs": [
        {
          "internalType": "address",
          "name": "owner",
          "type": "address"
        },
        {
          "internalType": "address",
          "name": "spender",
          "type": "address"
        }
      ],
      "name": "allowance",
      "outputs": [
        {
          "internalType": "uint256",
          "name": "",
          "type": "uint256"
        }
      ],
      "stateMutability": "view",
      "type": "function"
    },
    {
      "inputs": [
        {
          "internalType": "address",
          "name": "spender",
          "type": "address"
        },
        {
          "internalType": "uint256",
          "name": "amount",
          "type": "uint256"
        }
      ],
      "name": "approve",
      "outputs": [
        {
          "internalType": "bool",
          "name": "",
          "type": "bool"
        }
      ],
      "stateMutability": "nonpayable",
      "type": "function"
    },
    {
      "inputs": [
        {
          "internalType": "address",
          "name": "account",
          "type": "address"
        }
      ],
      "name": "balanceOf",
      "outputs": [
        {
          "internalType": "uint256",
          "name": "",
          "type": "uint256"
        }
      ],
      "stateMutability": "view",
      "type": "function"
    },
    {
      "inputs": [],
      "name": "contractAddress",
      "outputs": [
        {
          "internalType": "address payable",
          "name": "",
          "type": "address"
        }
      ],
      "stateMutability": "view",
      "type": "function"
    },
    {
      "inputs": [],
      "name": "decimals",
      "outputs": [
        {
          "internalType": "uint8",
          "name": "",
          "type": "uint8"
        }
      ],
      "stateMutability": "view",
      "type": "function"
    },
    {
      "inputs": [
        {
          "internalType": "address",
          "name": "spender",
          "type": "address"
        },
        {
          "internalType": "uint256",
          "name": "subtractedValue",
          "type": "uint256"
        }
      ],
      "name": "decreaseAllowance",
      "outputs": [
        {
          "internalType": "bool",
          "name": "",
          "type": "bool"
        }
      ],
      "stateMutability": "nonpayable",
      "type": "function"
    },
    {
      "inputs": [],
      "name": "descriptionHash",
      "outputs": [
        {
          "internalType": "bytes32",
          "name": "",
          "type": "bytes32"
        }
      ],
      "stateMutability": "view",
      "type": "function"
    },
    {
      "inputs": [
        {
          "internalType": "bytes32",
          "name": "role",
          "type": "bytes32"
        }
      ],
      "name": "getRoleAdmin",
      "outputs": [
        {
          "internalType": "bytes32",
          "name": "",
          "type": "bytes32"
        }
      ],
      "stateMutability": "view",
      "type": "function"
    },
    {
      "inputs": [
        {
          "internalType": "bytes32",
          "name": "role",
          "type": "bytes32"
        },
        {
          "internalType": "address",
          "name": "account",
          "type": "address"
        }
      ],
      "name": "grantRole",
      "outputs": [],
      "stateMutability": "nonpayable",
      "type": "function"
    },
    {
      "inputs": [
        {
          "internalType": "bytes32",
          "name": "role",
          "type": "bytes32"
        },
        {
          "internalType": "address",
          "name": "account",
          "type": "address"
        }
      ],
      "name": "hasRole",
      "outputs": [
        {
          "internalType": "bool",
          "name": "",
          "type": "bool"
        }
      ],
      "stateMutability": "view",
      "type": "function"
    },
    {
      "inputs": [
        {
          "internalType": "address",
          "name": "spender",
          "type": "address"
        },
        {
          "internalType": "uint256",
          "name": "addedValue",
          "type": "uint256"
        }
      ],
      "name": "increaseAllowance",
      "outputs": [
        {
          "internalType": "bool",
          "name": "",
          "type": "bool"
        }
      ],
      "stateMutability": "nonpayable",
      "type": "function"
    },
    {
      "inputs": [],
      "name": "isUnderlyingNative",
      "outputs": [
        {
          "internalType": "bool",
          "name": "",
          "type": "bool"
        }
      ],
      "stateMutability": "view",
      "type": "function"
    },
    {
      "inputs": [],
      "name": "margin",
      "outputs": [
        {
          "internalType": "uint256",
          "name": "numerator",
          "type": "uint256"
        },
        {
          "internalType": "uint256",
          "name": "denominator",
          "type": "uint256"
        }
      ],
      "stateMutability": "view",
      "type": "function"
    },
    {
      "inputs": [],
      "name": "name",
      "outputs": [
        {
          "internalType": "string",
          "name": "",
          "type": "string"
        }
      ],
      "stateMutability": "view",
      "type": "function"
    },
    {
      "inputs": [
        {
          "internalType": "bytes32",
          "name": "role",
          "type": "bytes32"
        },
        {
          "internalType": "address",
          "name": "account",
          "type": "address"
        }
      ],
      "name": "renounceRole",
      "outputs": [],
      "stateMutability": "nonpayable",
      "type": "function"
    },
    {
      "inputs": [
        {
          "internalType": "bytes32",
          "name": "role",
          "type": "bytes32"
        },
        {
          "internalType": "address",
          "name": "account",
          "type": "address"
        }
      ],
      "name": "revokeRole",
      "outputs": [],
      "stateMutability": "nonpayable",
      "type": "function"
    },
    {
      "inputs": [
        {
          "internalType": "bytes4",
          "name": "interfaceId",
          "type": "bytes4"
        }
      ],
      "name": "supportsInterface",
      "outputs": [
        {
          "internalType": "bool",
          "name": "",
          "type": "bool"
        }
      ],
      "stateMutability": "view",
      "type": "function"
    },
    {
      "inputs": [],
      "name": "symbol",
      "outputs": [
        {
          "internalType": "string",
          "name": "",
          "type": "string"
        }
      ],
      "stateMutability": "view",
      "type": "function"
    },
    {
      "inputs": [],
      "name": "tenor",
      "outputs": [
        {
          "internalType": "uint256",
          "name": "",
          "type": "uint256"
        }
      ],
      "stateMutability": "view",
      "type": "function"
    },
    {
      "inputs": [],
      "name": "totalSupply",
      "outputs": [
        {
          "internalType": "uint256",
          "name": "",
          "type": "uint256"
        }
      ],
      "stateMutability": "view",
      "type": "function"
    },
    {
      "inputs": [
        {
          "internalType": "address",
          "name": "recipient",
          "type": "address"
        },
        {
          "internalType": "uint256",
          "name": "amount",
          "type": "uint256"
        }
      ],
      "name": "transfer",
      "outputs": [
        {
          "internalType": "bool",
          "name": "",
          "type": "bool"
        }
      ],
      "stateMutability": "nonpayable",
      "type": "function"
    },
    {
      "inputs": [
        {
          "internalType": "address",
          "name": "sender",
          "type": "address"
        },
        {
          "internalType": "address",
          "name": "recipient",
          "type": "address"
        },
        {
          "internalType": "uint256",
          "name": "amount",
          "type": "uint256"
        }
      ],
      "name": "transferFrom",
      "outputs": [
        {
          "internalType": "bool",
          "name": "",
          "type": "bool"
        }
      ],
      "stateMutability": "nonpayable",
      "type": "function"
    },
    {
      "stateMutability": "payable",
      "type": "receive"
    },
    {
      "inputs": [
        {
          "internalType": "address",
          "name": "_account",
          "type": "address"
        },
        {
          "internalType": "uint256",
          "name": "_amount",
          "type": "uint256"
        }
      ],
      "name": "mint",
      "outputs": [],
      "stateMutability": "payable",
      "type": "function"
    },
    {
      "inputs": [
        {
          "internalType": "address",
          "name": "_account",
          "type": "address"
        },
        {
          "internalType": "uint256",
          "name": "_amount",
          "type": "uint256"
        }
      ],
      "name": "burn",
      "outputs": [],
      "stateMutability": "nonpayable",
      "type": "function"
    },
    {
      "inputs": [
        {
          "internalType": "uint256",
          "name": "_amount",
          "type": "uint256"
        },
        {
          "internalType": "uint256",
          "name": "_price",
          "type": "uint256"
        },
        {
          "internalType": "uint256",
          "name": "_volatility",
          "type": "uint256"
        }
      ],
      "name": "calculateMintValue",
      "outputs": [
        {
          "internalType": "uint256",
          "name": "",
          "type": "uint256"
        }
      ],
      "stateMutability": "view",
      "type": "function"
    },
    {
      "inputs": [
        {
          "internalType": "uint256",
          "name": "_ethValue",
          "type": "uint256"
        },
        {
          "internalType": "uint256",
          "name": "_price",
          "type": "uint256"
        },
        {
          "internalType": "uint256",
          "name": "_volatility",
          "type": "uint256"
        }
      ],
      "name": "calculateMintableAmount",
      "outputs": [
        {
          "internalType": "uint256",
          "name": "",
          "type": "uint256"
        }
      ],
      "stateMutability": "view",
      "type": "function"
    },
    {
      "inputs": [
        {
          "internalType": "address payable",
          "name": "_recipient",
          "type": "address"
        },
        {
          "internalType": "uint256",
          "name": "_amount",
          "type": "uint256"
        }
      ],
      "name": "recycle",
      "outputs": [
        {
          "internalType": "uint256",
          "name": "",
          "type": "uint256"
        }
      ],
      "stateMutability": "nonpayable",
      "type": "function"
    },
    {
      "inputs": [
        {
          "internalType": "address payable",
          "name": "_recipient",
          "type": "address"
        },
        {
          "internalType": "uint256",
          "name": "_amount",
          "type": "uint256"
        },
        {
          "internalType": "contract ERC20",
          "name": "_token",
          "type": "address"
        }
      ],
      "name": "recycleInToken",
      "outputs": [
        {
          "internalType": "uint256",
          "name": "",
          "type": "uint256"
        }
      ],
      "stateMutability": "nonpayable",
      "type": "function"
    },
    {
      "inputs": [
        {
          "internalType": "uint256",
          "name": "_margin",
          "type": "uint256"
        },
        {
          "internalType": "uint256",
          "name": "_marginDenominator",
          "type": "uint256"
        }
      ],
      "name": "resetMargin",
      "outputs": [],
      "stateMutability": "nonpayable",
      "type": "function"
    }
  ],
  "bytecode": "0x60806040523480156200001157600080fd5b5060405162003cc638038062003cc6833981810160405281019062000037919062000588565b818181600390805190602001906200005192919062000300565b5080600490805190602001906200006a92919062000300565b5050506200009f7fa49807205ce4d355092ef5a8a18f56e8913cf4a201fbe287825b095693c21775336200018560201b60201c565b620000d17fea88816b763834ba9e21f37b0611d1194665ca246e2eabaf6b83c704dd3d72be336200018560201b60201c565b8260068190555083604051602001620000eb9190620006a4565b6040516020818303038152906040528051906020012060078190555060405180604001604052806127108152602001620f42408152506009600082015181600001556020820151816001015590505030600860006101000a81548173ffffffffffffffffffffffffffffffffffffffff021916908373ffffffffffffffffffffffffffffffffffffffff1602179055505050505062000722565b6200019782826200019b60201b60201c565b5050565b620001ad82826200028d60201b60201c565b620002895760016005600084815260200190815260200160002060000160008373ffffffffffffffffffffffffffffffffffffffff1673ffffffffffffffffffffffffffffffffffffffff16815260200190815260200160002060006101000a81548160ff0219169083151502179055506200022e620002f860201b60201c565b73ffffffffffffffffffffffffffffffffffffffff168173ffffffffffffffffffffffffffffffffffffffff16837f2f8788117e7eff1d82e926ec794901d17c78024a50270940304540a733656f0d60405160405180910390a45b5050565b60006005600084815260200190815260200160002060000160008373ffffffffffffffffffffffffffffffffffffffff1673ffffffffffffffffffffffffffffffffffffffff16815260200190815260200160002060009054906101000a900460ff16905092915050565b600033905090565b8280546200030e90620006ec565b90600052602060002090601f0160209004810192826200033257600085556200037e565b82601f106200034d57805160ff19168380011785556200037e565b828001600101855582156200037e579182015b828111156200037d57825182559160200191906001019062000360565b5b5090506200038d919062000391565b5090565b5b80821115620003ac57600081600090555060010162000392565b5090565b6000604051905090565b600080fd5b600080fd5b600080fd5b600080fd5b6000601f19601f8301169050919050565b7f4e487b7100000000000000000000000000000000000000000000000000000000600052604160045260246000fd5b6200041982620003ce565b810181811067ffffffffffffffff821117156200043b576200043a620003df565b5b80604052505050565b600062000450620003b0565b90506200045e82826200040e565b919050565b600067ffffffffffffffff821115620004815762000480620003df565b5b6200048c82620003ce565b9050602081019050919050565b60005b83811015620004b95780820151818401526020810190506200049c565b83811115620004c9576000848401525b50505050565b6000620004e6620004e08462000463565b62000444565b905082815260208101848484011115620005055762000504620003c9565b5b6200051284828562000499565b509392505050565b600082601f830112620005325762000531620003c4565b5b815162000544848260208601620004cf565b91505092915050565b6000819050919050565b62000562816200054d565b81146200056e57600080fd5b50565b600081519050620005828162000557565b92915050565b60008060008060808587031215620005a557620005a4620003ba565b5b600085015167ffffffffffffffff811115620005c657620005c5620003bf565b5b620005d4878288016200051a565b9450506020620005e78782880162000571565b935050604085015167ffffffffffffffff8111156200060b576200060a620003bf565b5b62000619878288016200051a565b925050606085015167ffffffffffffffff8111156200063d576200063c620003bf565b5b6200064b878288016200051a565b91505092959194509250565b600081519050919050565b600081905092915050565b60006200067a8262000657565b62000686818562000662565b93506200069881856020860162000499565b80840191505092915050565b6000620006b282846200066d565b915081905092915050565b7f4e487b7100000000000000000000000000000000000000000000000000000000600052602260045260246000fd5b600060028204905060018216806200070557607f821691505b602082108114156200071c576200071b620006bd565b5b50919050565b61359480620007326000396000f3fe6080604052600436106101e75760003560e01c806375b238fc11610102578063a457c2d711610095578063dd62ed3e11610064578063dd62ed3e1461077b578063df648dc4146107b8578063f6844c4d146107e3578063f6b4dfb41461080c576101ee565b8063a457c2d71461069b578063a9059cbb146106d8578063d2f714c514610715578063d547741f14610752576101ee565b806395d89b41116100d157806395d89b41146105f15780639dc29fac1461061c578063a15612d114610645578063a217fddf14610670576101ee565b806375b238fc1461053257806385dcee931461055d5780638f76691a1461058857806391d14854146105b4576101ee565b80632fc7a44a1161017a57806340c10f191161014957806340c10f191461045f5780635d36d1821461047b57806362c5c119146104b857806370a08231146104f5576101ee565b80632fc7a44a14610391578063313ce567146103ce57806336568abe146103f95780633950935114610422576101ee565b80631ee51acf116101b65780631ee51acf146102c357806323b872dd146102ee578063248a9ca31461032b5780632f2ff15d14610368576101ee565b806301ffc9a7146101f357806306fdde0314610230578063095ea7b31461025b57806318160ddd14610298576101ee565b366101ee57005b600080fd5b3480156101ff57600080fd5b5061021a60048036038101906102159190612397565b610837565b60405161022791906123df565b60405180910390f35b34801561023c57600080fd5b506102456108b1565b6040516102529190612493565b60405180910390f35b34801561026757600080fd5b50610282600480360381019061027d9190612549565b610943565b60405161028f91906123df565b60405180910390f35b3480156102a457600080fd5b506102ad610961565b6040516102ba9190612598565b60405180910390f35b3480156102cf57600080fd5b506102d861096b565b6040516102e591906125cc565b60405180910390f35b3480156102fa57600080fd5b50610315600480360381019061031091906125e7565b61098f565b60405161032291906123df565b60405180910390f35b34801561033757600080fd5b50610352600480360381019061034d9190612666565b610a90565b60405161035f91906125cc565b60405180910390f35b34801561037457600080fd5b5061038f600480360381019061038a9190612693565b610ab0565b005b34801561039d57600080fd5b506103b860048036038101906103b391906126d3565b610ad9565b6040516103c59190612598565b60405180910390f35b3480156103da57600080fd5b506103e3610b13565b6040516103f09190612742565b60405180910390f35b34801561040557600080fd5b50610420600480360381019061041b9190612693565b610b1c565b005b34801561042e57600080fd5b5061044960048036038101906104449190612549565b610b9f565b60405161045691906123df565b60405180910390f35b61047960048036038101906104749190612549565b610c4b565b005b34801561048757600080fd5b506104a2600480360381019061049d919061279b565b610c8c565b6040516104af9190612598565b60405180910390f35b3480156104c457600080fd5b506104df60048036038101906104da91906126d3565b610e6d565b6040516104ec9190612598565b60405180910390f35b34801561050157600080fd5b5061051c600480360381019061051791906127db565b610ea7565b6040516105299190612598565b60405180910390f35b34801561053e57600080fd5b50610547610eef565b60405161055491906125cc565b60405180910390f35b34801561056957600080fd5b50610572610f13565b60405161057f91906125cc565b60405180910390f35b34801561059457600080fd5b5061059d610f19565b6040516105ab929190612808565b60405180910390f35b3480156105c057600080fd5b506105db60048036038101906105d69190612693565b610f2b565b6040516105e891906123df565b60405180910390f35b3480156105fd57600080fd5b50610606610f96565b6040516106139190612493565b60405180910390f35b34801561062857600080fd5b50610643600480360381019061063e9190612549565b611028565b005b34801561065157600080fd5b5061065a611069565b6040516106679190612598565b60405180910390f35b34801561067c57600080fd5b5061068561106f565b60405161069291906125cc565b60405180910390f35b3480156106a757600080fd5b506106c260048036038101906106bd9190612549565b611076565b6040516106cf91906123df565b60405180910390f35b3480156106e457600080fd5b506106ff60048036038101906106fa9190612549565b61116a565b60405161070c91906123df565b60405180910390f35b34801561072157600080fd5b5061073c6004803603810190610737919061286f565b611188565b6040516107499190612598565b60405180910390f35b34801561075e57600080fd5b5061077960048036038101906107749190612693565b61146b565b005b34801561078757600080fd5b506107a2600480360381019061079d91906128c2565b611494565b6040516107af9190612598565b60405180910390f35b3480156107c457600080fd5b506107cd61151b565b6040516107da91906123df565b60405180910390f35b3480156107ef57600080fd5b5061080a60048036038101906108059190612902565b61152e565b005b34801561081857600080fd5b50610821611593565b60405161082e9190612951565b60405180910390f35b60007f7965db0b000000000000000000000000000000000000000000000000000000007bffffffffffffffffffffffffffffffffffffffffffffffffffffffff1916827bffffffffffffffffffffffffffffffffffffffffffffffffffffffff191614806108aa57506108a9826115b9565b5b9050919050565b6060600380546108c09061299b565b80601f01602080910402602001604051908101604052809291908181526020018280546108ec9061299b565b80156109395780601f1061090e57610100808354040283529160200191610939565b820191906000526020600020905b81548152906001019060200180831161091c57829003601f168201915b5050505050905090565b6000610957610950611623565b848461162b565b6001905092915050565b6000600254905090565b7fea88816b763834ba9e21f37b0611d1194665ca246e2eabaf6b83c704dd3d72be81565b600061099c8484846117f6565b6000600160008673ffffffffffffffffffffffffffffffffffffffff1673ffffffffffffffffffffffffffffffffffffffff16815260200190815260200160002060006109e7611623565b73ffffffffffffffffffffffffffffffffffffffff1673ffffffffffffffffffffffffffffffffffffffff16815260200190815260200160002054905082811015610a67576040517f08c379a0000000000000000000000000000000000000000000000000000000008152600401610a5e90612a3f565b60405180910390fd5b610a8485610a73611623565b8584610a7f9190612a8e565b61162b565b60019150509392505050565b600060056000838152602001908152602001600020600101549050919050565b610ab982610a90565b610aca81610ac5611623565b611a75565b610ad48383611b12565b505050565b6000610b0a610b0385600960010154600960000154600960010154610afe9190612ac2565b611bf3565b8484611bf3565b90509392505050565b60006012905090565b610b24611623565b73ffffffffffffffffffffffffffffffffffffffff168173ffffffffffffffffffffffffffffffffffffffff1614610b91576040517f08c379a0000000000000000000000000000000000000000000000000000000008152600401610b8890612b8a565b60405180910390fd5b610b9b8282611cef565b5050565b6000610c41610bac611623565b848460016000610bba611623565b73ffffffffffffffffffffffffffffffffffffffff1673ffffffffffffffffffffffffffffffffffffffff16815260200190815260200160002060008873ffffffffffffffffffffffffffffffffffffffff1673ffffffffffffffffffffffffffffffffffffffff16815260200190815260200160002054610c3c9190612ac2565b61162b565b6001905092915050565b7fea88816b763834ba9e21f37b0611d1194665ca246e2eabaf6b83c704dd3d72be610c7d81610c78611623565b611a75565b610c878383611dd1565b505050565b60007fea88816b763834ba9e21f37b0611d1194665ca246e2eabaf6b83c704dd3d72be610cc081610cbb611623565b611a75565b6000610d15600860009054906101000a900473ffffffffffffffffffffffffffffffffffffffff1673ffffffffffffffffffffffffffffffffffffffff1631670de0b6b3a7640000610d10610961565b611bf3565b90506000610d2c8583670de0b6b3a7640000611bf3565b9050600860009054906101000a900473ffffffffffffffffffffffffffffffffffffffff1673ffffffffffffffffffffffffffffffffffffffff1631811115610daa576040517f08c379a0000000000000000000000000000000000000000000000000000000008152600401610da190612bf6565b60405180910390fd5b60008673ffffffffffffffffffffffffffffffffffffffff1682604051610dd090612c47565b60006040518083038185875af1925050503d8060008114610e0d576040519150601f19603f3d011682016040523d82523d6000602084013e610e12565b606091505b5050905080610e56576040517f08c379a0000000000000000000000000000000000000000000000000000000008152600401610e4d90612ca8565b60405180910390fd5b610e608787611f25565b8194505050505092915050565b6000610e9e610e7d858486611bf3565b600960000154600960010154610e939190612ac2565b600960010154611bf3565b90509392505050565b60008060008373ffffffffffffffffffffffffffffffffffffffff1673ffffffffffffffffffffffffffffffffffffffff168152602001908152602001600020549050919050565b7fa49807205ce4d355092ef5a8a18f56e8913cf4a201fbe287825b095693c2177581565b60075481565b60098060000154908060010154905082565b60006005600084815260200190815260200160002060000160008373ffffffffffffffffffffffffffffffffffffffff1673ffffffffffffffffffffffffffffffffffffffff16815260200190815260200160002060009054906101000a900460ff16905092915050565b606060048054610fa59061299b565b80601f0160208091040260200160405190810160405280929190818152602001828054610fd19061299b565b801561101e5780601f10610ff35761010080835404028352916020019161101e565b820191906000526020600020905b81548152906001019060200180831161100157829003601f168201915b5050505050905090565b7fea88816b763834ba9e21f37b0611d1194665ca246e2eabaf6b83c704dd3d72be61105a81611055611623565b611a75565b6110648383611f25565b505050565b60065481565b6000801b81565b60008060016000611085611623565b73ffffffffffffffffffffffffffffffffffffffff1673ffffffffffffffffffffffffffffffffffffffff16815260200190815260200160002060008573ffffffffffffffffffffffffffffffffffffffff1673ffffffffffffffffffffffffffffffffffffffff16815260200190815260200160002054905082811015611142576040517f08c379a000000000000000000000000000000000000000000000000000000000815260040161113990612d3a565b60405180910390fd5b61115f61114d611623565b85858461115a9190612a8e565b61162b565b600191505092915050565b600061117e611177611623565b84846117f6565b6001905092915050565b60007fea88816b763834ba9e21f37b0611d1194665ca246e2eabaf6b83c704dd3d72be6111bc816111b7611623565b611a75565b60006112828473ffffffffffffffffffffffffffffffffffffffff166370a08231600860009054906101000a900473ffffffffffffffffffffffffffffffffffffffff166040518263ffffffff1660e01b815260040161121c9190612db9565b60206040518083038186803b15801561123457600080fd5b505afa158015611248573d6000803e3d6000fd5b505050506040513d601f19601f8201168201806040525081019061126c9190612de9565b670de0b6b3a764000061127d610961565b611bf3565b905060006112998683670de0b6b3a7640000611bf3565b90508473ffffffffffffffffffffffffffffffffffffffff166370a08231600860009054906101000a900473ffffffffffffffffffffffffffffffffffffffff166040518263ffffffff1660e01b81526004016112f69190612db9565b60206040518083038186803b15801561130e57600080fd5b505afa158015611322573d6000803e3d6000fd5b505050506040513d601f19601f820116820180604052508101906113469190612de9565b811115611388576040517f08c379a000000000000000000000000000000000000000000000000000000000815260040161137f90612bf6565b60405180910390fd5b8473ffffffffffffffffffffffffffffffffffffffff1663a9059cbb88836040518363ffffffff1660e01b81526004016113c3929190612e16565b602060405180830381600087803b1580156113dd57600080fd5b505af11580156113f1573d6000803e3d6000fd5b505050506040513d601f19601f820116820180604052508101906114159190612e6b565b611454576040517f08c379a000000000000000000000000000000000000000000000000000000000815260040161144b90612ca8565b60405180910390fd5b61145e8787611f25565b8093505050509392505050565b61147482610a90565b61148581611480611623565b611a75565b61148f8383611cef565b505050565b6000600160008473ffffffffffffffffffffffffffffffffffffffff1673ffffffffffffffffffffffffffffffffffffffff16815260200190815260200160002060008373ffffffffffffffffffffffffffffffffffffffff1673ffffffffffffffffffffffffffffffffffffffff16815260200190815260200160002054905092915050565b600b60009054906101000a900460ff1681565b7fa49807205ce4d355092ef5a8a18f56e8913cf4a201fbe287825b095693c217756115608161155b611623565b611a75565b60405180604001604052808481526020018381525060096000820151816000015560208201518160010155905050505050565b600860009054906101000a900473ffffffffffffffffffffffffffffffffffffffff1681565b60007f01ffc9a7000000000000000000000000000000000000000000000000000000007bffffffffffffffffffffffffffffffffffffffffffffffffffffffff1916827bffffffffffffffffffffffffffffffffffffffffffffffffffffffff1916149050919050565b600033905090565b600073ffffffffffffffffffffffffffffffffffffffff168373ffffffffffffffffffffffffffffffffffffffff16141561169b576040517f08c379a000000000000000000000000000000000000000000000000000000000815260040161169290612f0a565b60405180910390fd5b600073ffffffffffffffffffffffffffffffffffffffff168273ffffffffffffffffffffffffffffffffffffffff16141561170b576040517f08c379a000000000000000000000000000000000000000000000000000000000815260040161170290612f9c565b60405180910390fd5b80600160008573ffffffffffffffffffffffffffffffffffffffff1673ffffffffffffffffffffffffffffffffffffffff16815260200190815260200160002060008473ffffffffffffffffffffffffffffffffffffffff1673ffffffffffffffffffffffffffffffffffffffff168152602001908152602001600020819055508173ffffffffffffffffffffffffffffffffffffffff168373ffffffffffffffffffffffffffffffffffffffff167f8c5be1e5ebec7d5bd14f71427d1e84f3dd0314c0f7b2291e5b200ac8c7c3b925836040516117e99190612598565b60405180910390a3505050565b600073ffffffffffffffffffffffffffffffffffffffff168373ffffffffffffffffffffffffffffffffffffffff161415611866576040517f08c379a000000000000000000000000000000000000000000000000000000000815260040161185d9061302e565b60405180910390fd5b600073ffffffffffffffffffffffffffffffffffffffff168273ffffffffffffffffffffffffffffffffffffffff1614156118d6576040517f08c379a00000000000000000000000000000000000000000000000000000000081526004016118cd906130c0565b60405180910390fd5b6118e18383836120f9565b60008060008573ffffffffffffffffffffffffffffffffffffffff1673ffffffffffffffffffffffffffffffffffffffff16815260200190815260200160002054905081811015611967576040517f08c379a000000000000000000000000000000000000000000000000000000000815260040161195e90613152565b60405180910390fd5b81816119739190612a8e565b6000808673ffffffffffffffffffffffffffffffffffffffff1673ffffffffffffffffffffffffffffffffffffffff16815260200190815260200160002081905550816000808573ffffffffffffffffffffffffffffffffffffffff1673ffffffffffffffffffffffffffffffffffffffff1681526020019081526020016000206000828254611a039190612ac2565b925050819055508273ffffffffffffffffffffffffffffffffffffffff168473ffffffffffffffffffffffffffffffffffffffff167fddf252ad1be2c89b69c2b068fc378daa952ba7f163c4a11628f55a4df523b3ef84604051611a679190612598565b60405180910390a350505050565b611a7f8282610f2b565b611b0e57611aa48173ffffffffffffffffffffffffffffffffffffffff1660146120fe565b611ab28360001c60206120fe565b604051602001611ac3929190613246565b6040516020818303038152906040526040517f08c379a0000000000000000000000000000000000000000000000000000000008152600401611b059190612493565b60405180910390fd5b5050565b611b1c8282610f2b565b611bef5760016005600084815260200190815260200160002060000160008373ffffffffffffffffffffffffffffffffffffffff1673ffffffffffffffffffffffffffffffffffffffff16815260200190815260200160002060006101000a81548160ff021916908315150217905550611b94611623565b73ffffffffffffffffffffffffffffffffffffffff168173ffffffffffffffffffffffffffffffffffffffff16837f2f8788117e7eff1d82e926ec794901d17c78024a50270940304540a733656f0d60405160405180910390a45b5050565b600080600080198587098587029250828110838203039150506000811415611c2e5760008411611c2257600080fd5b83820492505050611ce8565b808411611c3a57600080fd5b60008486880990508281118203915080830392506000856001877fffffffffffffffffffffffffffffffffffffffffffffffffffffffffffffffff0301169050808604955080840493506001818260000304019050808302841793506000600287600302189050808702600203810290508087026002038102905080870260020381029050808702600203810290508087026002038102905080870260020381029050808502955050505050505b9392505050565b611cf98282610f2b565b15611dcd5760006005600084815260200190815260200160002060000160008373ffffffffffffffffffffffffffffffffffffffff1673ffffffffffffffffffffffffffffffffffffffff16815260200190815260200160002060006101000a81548160ff021916908315150217905550611d72611623565b73ffffffffffffffffffffffffffffffffffffffff168173ffffffffffffffffffffffffffffffffffffffff16837ff6391f5c32d9c69d2a47ea670b442974b53935d1edc7fd64eb21e047a839171b60405160405180910390a45b5050565b600073ffffffffffffffffffffffffffffffffffffffff168273ffffffffffffffffffffffffffffffffffffffff161415611e41576040517f08c379a0000000000000000000000000000000000000000000000000000000008152600401611e38906132cc565b60405180910390fd5b611e4d600083836120f9565b8060026000828254611e5f9190612ac2565b92505081905550806000808473ffffffffffffffffffffffffffffffffffffffff1673ffffffffffffffffffffffffffffffffffffffff1681526020019081526020016000206000828254611eb49190612ac2565b925050819055508173ffffffffffffffffffffffffffffffffffffffff16600073ffffffffffffffffffffffffffffffffffffffff167fddf252ad1be2c89b69c2b068fc378daa952ba7f163c4a11628f55a4df523b3ef83604051611f199190612598565b60405180910390a35050565b600073ffffffffffffffffffffffffffffffffffffffff168273ffffffffffffffffffffffffffffffffffffffff161415611f95576040517f08c379a0000000000000000000000000000000000000000000000000000000008152600401611f8c9061335e565b60405180910390fd5b611fa1826000836120f9565b60008060008473ffffffffffffffffffffffffffffffffffffffff1673ffffffffffffffffffffffffffffffffffffffff16815260200190815260200160002054905081811015612027576040517f08c379a000000000000000000000000000000000000000000000000000000000815260040161201e906133f0565b60405180910390fd5b81816120339190612a8e565b6000808573ffffffffffffffffffffffffffffffffffffffff1673ffffffffffffffffffffffffffffffffffffffff1681526020019081526020016000208190555081600260008282546120879190612a8e565b92505081905550600073ffffffffffffffffffffffffffffffffffffffff168373ffffffffffffffffffffffffffffffffffffffff167fddf252ad1be2c89b69c2b068fc378daa952ba7f163c4a11628f55a4df523b3ef846040516120ec9190612598565b60405180910390a3505050565b505050565b6060600060028360026121119190613410565b61211b9190612ac2565b67ffffffffffffffff8111156121345761213361346a565b5b6040519080825280601f01601f1916602001820160405280156121665781602001600182028036833780820191505090505b5090507f30000000000000000000000000000000000000000000000000000000000000008160008151811061219e5761219d613499565b5b60200101907effffffffffffffffffffffffffffffffffffffffffffffffffffffffffffff1916908160001a9053507f78000000000000000000000000000000000000000000000000000000000000008160018151811061220257612201613499565b5b60200101907effffffffffffffffffffffffffffffffffffffffffffffffffffffffffffff1916908160001a905350600060018460026122429190613410565b61224c9190612ac2565b90505b60018111156122ec577f3031323334353637383961626364656600000000000000000000000000000000600f86166010811061228e5761228d613499565b5b1a60f81b8282815181106122a5576122a4613499565b5b60200101907effffffffffffffffffffffffffffffffffffffffffffffffffffffffffffff1916908160001a905350600485901c9450806122e5906134c8565b905061224f565b5060008414612330576040517f08c379a00000000000000000000000000000000000000000000000000000000081526004016123279061353e565b60405180910390fd5b8091505092915050565b600080fd5b60007fffffffff0000000000000000000000000000000000000000000000000000000082169050919050565b6123748161233f565b811461237f57600080fd5b50565b6000813590506123918161236b565b92915050565b6000602082840312156123ad576123ac61233a565b5b60006123bb84828501612382565b91505092915050565b60008115159050919050565b6123d9816123c4565b82525050565b60006020820190506123f460008301846123d0565b92915050565b600081519050919050565b600082825260208201905092915050565b60005b83811015612434578082015181840152602081019050612419565b83811115612443576000848401525b50505050565b6000601f19601f8301169050919050565b6000612465826123fa565b61246f8185612405565b935061247f818560208601612416565b61248881612449565b840191505092915050565b600060208201905081810360008301526124ad818461245a565b905092915050565b600073ffffffffffffffffffffffffffffffffffffffff82169050919050565b60006124e0826124b5565b9050919050565b6124f0816124d5565b81146124fb57600080fd5b50565b60008135905061250d816124e7565b92915050565b6000819050919050565b61252681612513565b811461253157600080fd5b50565b6000813590506125438161251d565b92915050565b600080604083850312156125605761255f61233a565b5b600061256e858286016124fe565b925050602061257f85828601612534565b9150509250929050565b61259281612513565b82525050565b60006020820190506125ad6000830184612589565b92915050565b6000819050919050565b6125c6816125b3565b82525050565b60006020820190506125e160008301846125bd565b92915050565b600080600060608486031215612600576125ff61233a565b5b600061260e868287016124fe565b935050602061261f868287016124fe565b925050604061263086828701612534565b9150509250925092565b612643816125b3565b811461264e57600080fd5b50565b6000813590506126608161263a565b92915050565b60006020828403121561267c5761267b61233a565b5b600061268a84828501612651565b91505092915050565b600080604083850312156126aa576126a961233a565b5b60006126b885828601612651565b92505060206126c9858286016124fe565b9150509250929050565b6000806000606084860312156126ec576126eb61233a565b5b60006126fa86828701612534565b935050602061270b86828701612534565b925050604061271c86828701612534565b9150509250925092565b600060ff82169050919050565b61273c81612726565b82525050565b60006020820190506127576000830184612733565b92915050565b6000612768826124b5565b9050919050565b6127788161275d565b811461278357600080fd5b50565b6000813590506127958161276f565b92915050565b600080604083850312156127b2576127b161233a565b5b60006127c085828601612786565b92505060206127d185828601612534565b9150509250929050565b6000602082840312156127f1576127f061233a565b5b60006127ff848285016124fe565b91505092915050565b600060408201905061281d6000830185612589565b61282a6020830184612589565b9392505050565b600061283c826124d5565b9050919050565b61284c81612831565b811461285757600080fd5b50565b60008135905061286981612843565b92915050565b6000806000606084860312156128885761288761233a565b5b600061289686828701612786565b93505060206128a786828701612534565b92505060406128b88682870161285a565b9150509250925092565b600080604083850312156128d9576128d861233a565b5b60006128e7858286016124fe565b92505060206128f8858286016124fe565b9150509250929050565b600080604083850312156129195761291861233a565b5b600061292785828601612534565b925050602061293885828601612534565b9150509250929050565b61294b8161275d565b82525050565b60006020820190506129666000830184612942565b92915050565b7f4e487b7100000000000000000000000000000000000000000000000000000000600052602260045260246000fd5b600060028204905060018216806129b357607f821691505b602082108114156129c7576129c661296c565b5b50919050565b7f45524332303a207472616e7366657220616d6f756e742065786365656473206160008201527f6c6c6f77616e6365000000000000000000000000000000000000000000000000602082015250565b6000612a29602883612405565b9150612a34826129cd565b604082019050919050565b60006020820190508181036000830152612a5881612a1c565b9050919050565b7f4e487b7100000000000000000000000000000000000000000000000000000000600052601160045260246000fd5b6000612a9982612513565b9150612aa483612513565b925082821015612ab757612ab6612a5f565b5b828203905092915050565b6000612acd82612513565b9150612ad883612513565b9250827fffffffffffffffffffffffffffffffffffffffffffffffffffffffffffffffff03821115612b0d57612b0c612a5f565b5b828201905092915050565b7f416363657373436f6e74726f6c3a2063616e206f6e6c792072656e6f756e636560008201527f20726f6c657320666f722073656c660000000000000000000000000000000000602082015250565b6000612b74602f83612405565b9150612b7f82612b18565b604082019050919050565b60006020820190508181036000830152612ba381612b67565b9050919050565b7f43757272656e742062616c616e6365206e6f7420656e6f7567682e0000000000600082015250565b6000612be0601b83612405565b9150612beb82612baa565b602082019050919050565b60006020820190508181036000830152612c0f81612bd3565b9050919050565b600081905092915050565b50565b6000612c31600083612c16565b9150612c3c82612c21565b600082019050919050565b6000612c5282612c24565b9150819050919050565b7f5769746864726177616c206661696c65642e0000000000000000000000000000600082015250565b6000612c92601283612405565b9150612c9d82612c5c565b602082019050919050565b60006020820190508181036000830152612cc181612c85565b9050919050565b7f45524332303a2064656372656173656420616c6c6f77616e63652062656c6f7760008201527f207a65726f000000000000000000000000000000000000000000000000000000602082015250565b6000612d24602583612405565b9150612d2f82612cc8565b604082019050919050565b60006020820190508181036000830152612d5381612d17565b9050919050565b6000819050919050565b6000612d7f612d7a612d75846124b5565b612d5a565b6124b5565b9050919050565b6000612d9182612d64565b9050919050565b6000612da382612d86565b9050919050565b612db381612d98565b82525050565b6000602082019050612dce6000830184612daa565b92915050565b600081519050612de38161251d565b92915050565b600060208284031215612dff57612dfe61233a565b5b6000612e0d84828501612dd4565b91505092915050565b6000604082019050612e2b6000830185612daa565b612e386020830184612589565b9392505050565b612e48816123c4565b8114612e5357600080fd5b50565b600081519050612e6581612e3f565b92915050565b600060208284031215612e8157612e8061233a565b5b6000612e8f84828501612e56565b91505092915050565b7f45524332303a20617070726f76652066726f6d20746865207a65726f2061646460008201527f7265737300000000000000000000000000000000000000000000000000000000602082015250565b6000612ef4602483612405565b9150612eff82612e98565b604082019050919050565b60006020820190508181036000830152612f2381612ee7565b9050919050565b7f45524332303a20617070726f766520746f20746865207a65726f20616464726560008201527f7373000000000000000000000000000000000000000000000000000000000000602082015250565b6000612f86602283612405565b9150612f9182612f2a565b604082019050919050565b60006020820190508181036000830152612fb581612f79565b9050919050565b7f45524332303a207472616e736665722066726f6d20746865207a65726f20616460008201527f6472657373000000000000000000000000000000000000000000000000000000602082015250565b6000613018602583612405565b915061302382612fbc565b604082019050919050565b600060208201905081810360008301526130478161300b565b9050919050565b7f45524332303a207472616e7366657220746f20746865207a65726f206164647260008201527f6573730000000000000000000000000000000000000000000000000000000000602082015250565b60006130aa602383612405565b91506130b58261304e565b604082019050919050565b600060208201905081810360008301526130d98161309d565b9050919050565b7f45524332303a207472616e7366657220616d6f756e742065786365656473206260008201527f616c616e63650000000000000000000000000000000000000000000000000000602082015250565b600061313c602683612405565b9150613147826130e0565b604082019050919050565b6000602082019050818103600083015261316b8161312f565b9050919050565b600081905092915050565b7f416363657373436f6e74726f6c3a206163636f756e7420000000000000000000600082015250565b60006131b3601783613172565b91506131be8261317d565b601782019050919050565b60006131d4826123fa565b6131de8185613172565b93506131ee818560208601612416565b80840191505092915050565b7f206973206d697373696e6720726f6c6520000000000000000000000000000000600082015250565b6000613230601183613172565b915061323b826131fa565b601182019050919050565b6000613251826131a6565b915061325d82856131c9565b915061326882613223565b915061327482846131c9565b91508190509392505050565b7f45524332303a206d696e7420746f20746865207a65726f206164647265737300600082015250565b60006132b6601f83612405565b91506132c182613280565b602082019050919050565b600060208201905081810360008301526132e5816132a9565b9050919050565b7f45524332303a206275726e2066726f6d20746865207a65726f2061646472657360008201527f7300000000000000000000000000000000000000000000000000000000000000602082015250565b6000613348602183612405565b9150613353826132ec565b604082019050919050565b600060208201905081810360008301526133778161333b565b9050919050565b7f45524332303a206275726e20616d6f756e7420657863656564732062616c616e60008201527f6365000000000000000000000000000000000000000000000000000000000000602082015250565b60006133da602283612405565b91506133e58261337e565b604082019050919050565b60006020820190508181036000830152613409816133cd565b9050919050565b600061341b82612513565b915061342683612513565b9250817fffffffffffffffffffffffffffffffffffffffffffffffffffffffffffffffff048311821515161561345f5761345e612a5f565b5b828202905092915050565b7f4e487b7100000000000000000000000000000000000000000000000000000000600052604160045260246000fd5b7f4e487b7100000000000000000000000000000000000000000000000000000000600052603260045260246000fd5b60006134d382612513565b915060008214156134e7576134e6612a5f565b5b600182039050919050565b7f537472696e67733a20686578206c656e67746820696e73756666696369656e74600082015250565b6000613528602083612405565b9150613533826134f2565b602082019050919050565b600060208201905081810360008301526135578161351b565b905091905056fea2646970667358221220b93aba44e8c94f77d9cf87d3b681cabf68461f584309e943e2e2a3cc3ef917f864736f6c63430008090033",
  "immutableReferences": {},
  "source": "pragma solidity 0.8.9;\n\n/**\n * SPDX-License-Identifier: GPL-3.0-or-later\n * Moret\n * Copyright (C) 2021 Moret\n */\n\nimport \"./FullMath.sol\";\nimport \"./MoretInterfaces.sol\";\nimport \"./OptionLibrary.sol\";\nimport \"@openzeppelin/contracts/token/ERC20/ERC20.sol\";\nimport \"@openzeppelin/contracts/access/AccessControl.sol\";\n\ncontract VolatilityToken is ERC20, AccessControl\n{\n  bytes32 public constant ADMIN_ROLE = keccak256(\"ADMIN_ROLE\");\n  bytes32 public constant MARKET_MAKING_ROLE = keccak256(\"MARKET_MAKING_ROLE\");\n  uint256 private constant ethMultiplier = 10 ** 18;\n\n  uint256 public tenor;\n  bytes32 public descriptionHash;\n  address payable public contractAddress;\n\n  OptionLibrary.Percent public margin;\n  bool public isUnderlyingNative;\n\n  constructor(\n    string memory _underlyingName,\n    uint256 _tenor,\n    string memory _name,\n    string memory _symbol\n    )\n  ERC20(_name, _symbol)\n  {\n     _setupRole(ADMIN_ROLE, msg.sender);\n     _setupRole(MARKET_MAKING_ROLE, msg.sender);\n\n    tenor = _tenor;\n    descriptionHash = keccak256(abi.encodePacked(_underlyingName));\n    margin = OptionLibrary.Percent(10 ** 4, 10 ** 6);\n\n    contractAddress = payable(address(this));\n  }\n\n  function mint(address _account, uint256 _amount) public payable onlyRole(MARKET_MAKING_ROLE) {\n      _mint(_account, _amount);\n  }\n\n  function burn(address _account, uint256 _amount) public onlyRole(MARKET_MAKING_ROLE){\n      _burn(_account, _amount);\n  }\n\n    function calculateMintValue(uint256 _amount, uint256 _price, uint256 _volatility)\n    public view returns(uint256){\n        return MulDiv(MulDiv(_amount, _volatility, _price), margin.denominator + margin.numerator, margin.denominator);\n    }\n\n    function calculateMintableAmount(uint256 _ethValue, uint256 _price, uint256 _volatility)\n    public view returns(uint256){\n        return MulDiv(MulDiv(_ethValue, margin.denominator, margin.denominator + margin.numerator), _price, _volatility);\n    }\n\n    function recycle(address payable _recipient, uint256 _amount) external onlyRole(MARKET_MAKING_ROLE) returns(uint256) {\n        uint256 _impliedPrice = MulDiv(contractAddress.balance, ethMultiplier, totalSupply());\n        uint256 _swapAmount = MulDiv(_amount, _impliedPrice, ethMultiplier);\n\n        require(_swapAmount<= contractAddress.balance, \"Current balance not enough.\");\n\n        (bool _sent, ) = _recipient.call{value: _swapAmount }(\"\");\n        require(_sent, \"Withdrawal failed.\");\n\n        _burn(_recipient, _amount);\n        return _swapAmount;\n    }\n\n    function recycleInToken(address payable _recipient, uint256 _amount, ERC20 _token) external onlyRole(MARKET_MAKING_ROLE) returns(uint256) {\n        uint256 _impliedPrice = MulDiv(_token.balanceOf(contractAddress), ethMultiplier, totalSupply());\n        uint256 _swapAmount = MulDiv(_amount, _impliedPrice, ethMultiplier);\n\n        require(_swapAmount<= _token.balanceOf(contractAddress), \"Current balance not enough.\");\n        require(_token.transfer(_recipient, _swapAmount), \"Withdrawal failed.\");\n\n        _burn(_recipient, _amount);\n        return _swapAmount;\n    }\n\n    function resetMargin(uint256 _margin, uint256 _marginDenominator) public onlyRole(ADMIN_ROLE){\n        margin = OptionLibrary.Percent(_margin, _marginDenominator);\n        /* emit newMargin(_margin); */\n    }\n\n\n    receive() external payable{}\n\n    /* event newMargin(uint256 _margin); */\n}\n",
  "sourcePath": "/Users/apple/Documents/GitHub/moret/contracts/VolatilityToken.sol",
  "compiler": {
    "name": "solc",
    "version": "0.8.9+commit.e5eed63a.Emscripten.clang"
  },
  "schemaVersion": "3.4.3",
  "updatedAt": "2021-11-07T19:48:06.022Z",
  "devdoc": {
    "kind": "dev",
    "methods": {
      "allowance(address,address)": {
        "details": "See {IERC20-allowance}."
      },
      "approve(address,uint256)": {
        "details": "See {IERC20-approve}. Requirements: - `spender` cannot be the zero address."
      },
      "balanceOf(address)": {
        "details": "See {IERC20-balanceOf}."
      },
      "decimals()": {
        "details": "Returns the number of decimals used to get its user representation. For example, if `decimals` equals `2`, a balance of `505` tokens should be displayed to a user as `5,05` (`505 / 10 ** 2`). Tokens usually opt for a value of 18, imitating the relationship between Ether and Wei. This is the value {ERC20} uses, unless this function is overridden; NOTE: This information is only used for _display_ purposes: it in no way affects any of the arithmetic of the contract, including {IERC20-balanceOf} and {IERC20-transfer}."
      },
      "decreaseAllowance(address,uint256)": {
        "details": "Atomically decreases the allowance granted to `spender` by the caller. This is an alternative to {approve} that can be used as a mitigation for problems described in {IERC20-approve}. Emits an {Approval} event indicating the updated allowance. Requirements: - `spender` cannot be the zero address. - `spender` must have allowance for the caller of at least `subtractedValue`."
      },
      "getRoleAdmin(bytes32)": {
        "details": "Returns the admin role that controls `role`. See {grantRole} and {revokeRole}. To change a role's admin, use {_setRoleAdmin}."
      },
      "grantRole(bytes32,address)": {
        "details": "Grants `role` to `account`. If `account` had not been already granted `role`, emits a {RoleGranted} event. Requirements: - the caller must have ``role``'s admin role."
      },
      "hasRole(bytes32,address)": {
        "details": "Returns `true` if `account` has been granted `role`."
      },
      "increaseAllowance(address,uint256)": {
        "details": "Atomically increases the allowance granted to `spender` by the caller. This is an alternative to {approve} that can be used as a mitigation for problems described in {IERC20-approve}. Emits an {Approval} event indicating the updated allowance. Requirements: - `spender` cannot be the zero address."
      },
      "name()": {
        "details": "Returns the name of the token."
      },
      "renounceRole(bytes32,address)": {
        "details": "Revokes `role` from the calling account. Roles are often managed via {grantRole} and {revokeRole}: this function's purpose is to provide a mechanism for accounts to lose their privileges if they are compromised (such as when a trusted device is misplaced). If the calling account had been granted `role`, emits a {RoleRevoked} event. Requirements: - the caller must be `account`."
      },
      "revokeRole(bytes32,address)": {
        "details": "Revokes `role` from `account`. If `account` had been granted `role`, emits a {RoleRevoked} event. Requirements: - the caller must have ``role``'s admin role."
      },
      "supportsInterface(bytes4)": {
        "details": "See {IERC165-supportsInterface}."
      },
      "symbol()": {
        "details": "Returns the symbol of the token, usually a shorter version of the name."
      },
      "totalSupply()": {
        "details": "See {IERC20-totalSupply}."
      },
      "transfer(address,uint256)": {
        "details": "See {IERC20-transfer}. Requirements: - `recipient` cannot be the zero address. - the caller must have a balance of at least `amount`."
      },
      "transferFrom(address,address,uint256)": {
        "details": "See {IERC20-transferFrom}. Emits an {Approval} event indicating the updated allowance. This is not required by the EIP. See the note at the beginning of {ERC20}. Requirements: - `sender` and `recipient` cannot be the zero address. - `sender` must have a balance of at least `amount`. - the caller must have allowance for ``sender``'s tokens of at least `amount`."
      }
    },
    "version": 1
  },
  "userdoc": {
    "kind": "user",
    "methods": {},
    "version": 1
  }
}