{
  "contractName": "VolatilityToken",
  "abi": [
    {
      "inputs": [
        {
          "internalType": "string",
          "name": "_underlyingName",
          "type": "string"
        },
        {
          "internalType": "uint256",
          "name": "_tenor",
          "type": "uint256"
        },
        {
          "internalType": "string",
          "name": "_name",
          "type": "string"
        },
        {
          "internalType": "string",
          "name": "_symbol",
          "type": "string"
        }
      ],
      "stateMutability": "nonpayable",
      "type": "constructor"
    },
    {
      "anonymous": false,
      "inputs": [
        {
          "indexed": true,
          "internalType": "address",
          "name": "owner",
          "type": "address"
        },
        {
          "indexed": true,
          "internalType": "address",
          "name": "spender",
          "type": "address"
        },
        {
          "indexed": false,
          "internalType": "uint256",
          "name": "value",
          "type": "uint256"
        }
      ],
      "name": "Approval",
      "type": "event"
    },
    {
      "anonymous": false,
      "inputs": [
        {
          "indexed": true,
          "internalType": "bytes32",
          "name": "role",
          "type": "bytes32"
        },
        {
          "indexed": true,
          "internalType": "bytes32",
          "name": "previousAdminRole",
          "type": "bytes32"
        },
        {
          "indexed": true,
          "internalType": "bytes32",
          "name": "newAdminRole",
          "type": "bytes32"
        }
      ],
      "name": "RoleAdminChanged",
      "type": "event"
    },
    {
      "anonymous": false,
      "inputs": [
        {
          "indexed": true,
          "internalType": "bytes32",
          "name": "role",
          "type": "bytes32"
        },
        {
          "indexed": true,
          "internalType": "address",
          "name": "account",
          "type": "address"
        },
        {
          "indexed": true,
          "internalType": "address",
          "name": "sender",
          "type": "address"
        }
      ],
      "name": "RoleGranted",
      "type": "event"
    },
    {
      "anonymous": false,
      "inputs": [
        {
          "indexed": true,
          "internalType": "bytes32",
          "name": "role",
          "type": "bytes32"
        },
        {
          "indexed": true,
          "internalType": "address",
          "name": "account",
          "type": "address"
        },
        {
          "indexed": true,
          "internalType": "address",
          "name": "sender",
          "type": "address"
        }
      ],
      "name": "RoleRevoked",
      "type": "event"
    },
    {
      "anonymous": false,
      "inputs": [
        {
          "indexed": true,
          "internalType": "address",
          "name": "from",
          "type": "address"
        },
        {
          "indexed": true,
          "internalType": "address",
          "name": "to",
          "type": "address"
        },
        {
          "indexed": false,
          "internalType": "uint256",
          "name": "value",
          "type": "uint256"
        }
      ],
      "name": "Transfer",
      "type": "event"
    },
    {
      "inputs": [],
      "name": "ADMIN_ROLE",
      "outputs": [
        {
          "internalType": "bytes32",
          "name": "",
          "type": "bytes32"
        }
      ],
      "stateMutability": "view",
      "type": "function"
    },
    {
      "inputs": [],
      "name": "DEFAULT_ADMIN_ROLE",
      "outputs": [
        {
          "internalType": "bytes32",
          "name": "",
          "type": "bytes32"
        }
      ],
      "stateMutability": "view",
      "type": "function"
    },
    {
      "inputs": [],
      "name": "MARKET_MAKING_ROLE",
      "outputs": [
        {
          "internalType": "bytes32",
          "name": "",
          "type": "bytes32"
        }
      ],
      "stateMutability": "view",
      "type": "function"
    },
    {
      "inputs": [
        {
          "internalType": "address",
          "name": "owner",
          "type": "address"
        },
        {
          "internalType": "address",
          "name": "spender",
          "type": "address"
        }
      ],
      "name": "allowance",
      "outputs": [
        {
          "internalType": "uint256",
          "name": "",
          "type": "uint256"
        }
      ],
      "stateMutability": "view",
      "type": "function"
    },
    {
      "inputs": [
        {
          "internalType": "address",
          "name": "spender",
          "type": "address"
        },
        {
          "internalType": "uint256",
          "name": "amount",
          "type": "uint256"
        }
      ],
      "name": "approve",
      "outputs": [
        {
          "internalType": "bool",
          "name": "",
          "type": "bool"
        }
      ],
      "stateMutability": "nonpayable",
      "type": "function"
    },
    {
      "inputs": [
        {
          "internalType": "address",
          "name": "account",
          "type": "address"
        }
      ],
      "name": "balanceOf",
      "outputs": [
        {
          "internalType": "uint256",
          "name": "",
          "type": "uint256"
        }
      ],
      "stateMutability": "view",
      "type": "function"
    },
    {
      "inputs": [],
      "name": "contractAddress",
      "outputs": [
        {
          "internalType": "address payable",
          "name": "",
          "type": "address"
        }
      ],
      "stateMutability": "view",
      "type": "function"
    },
    {
      "inputs": [],
      "name": "decimals",
      "outputs": [
        {
          "internalType": "uint8",
          "name": "",
          "type": "uint8"
        }
      ],
      "stateMutability": "view",
      "type": "function"
    },
    {
      "inputs": [
        {
          "internalType": "address",
          "name": "spender",
          "type": "address"
        },
        {
          "internalType": "uint256",
          "name": "subtractedValue",
          "type": "uint256"
        }
      ],
      "name": "decreaseAllowance",
      "outputs": [
        {
          "internalType": "bool",
          "name": "",
          "type": "bool"
        }
      ],
      "stateMutability": "nonpayable",
      "type": "function"
    },
    {
      "inputs": [],
      "name": "descriptionHash",
      "outputs": [
        {
          "internalType": "bytes32",
          "name": "",
          "type": "bytes32"
        }
      ],
      "stateMutability": "view",
      "type": "function"
    },
    {
      "inputs": [
        {
          "internalType": "bytes32",
          "name": "role",
          "type": "bytes32"
        }
      ],
      "name": "getRoleAdmin",
      "outputs": [
        {
          "internalType": "bytes32",
          "name": "",
          "type": "bytes32"
        }
      ],
      "stateMutability": "view",
      "type": "function"
    },
    {
      "inputs": [
        {
          "internalType": "bytes32",
          "name": "role",
          "type": "bytes32"
        },
        {
          "internalType": "address",
          "name": "account",
          "type": "address"
        }
      ],
      "name": "grantRole",
      "outputs": [],
      "stateMutability": "nonpayable",
      "type": "function"
    },
    {
      "inputs": [
        {
          "internalType": "bytes32",
          "name": "role",
          "type": "bytes32"
        },
        {
          "internalType": "address",
          "name": "account",
          "type": "address"
        }
      ],
      "name": "hasRole",
      "outputs": [
        {
          "internalType": "bool",
          "name": "",
          "type": "bool"
        }
      ],
      "stateMutability": "view",
      "type": "function"
    },
    {
      "inputs": [
        {
          "internalType": "address",
          "name": "spender",
          "type": "address"
        },
        {
          "internalType": "uint256",
          "name": "addedValue",
          "type": "uint256"
        }
      ],
      "name": "increaseAllowance",
      "outputs": [
        {
          "internalType": "bool",
          "name": "",
          "type": "bool"
        }
      ],
      "stateMutability": "nonpayable",
      "type": "function"
    },
    {
      "inputs": [],
      "name": "isUnderlyingNative",
      "outputs": [
        {
          "internalType": "bool",
          "name": "",
          "type": "bool"
        }
      ],
      "stateMutability": "view",
      "type": "function"
    },
    {
      "inputs": [],
      "name": "margin",
      "outputs": [
        {
          "internalType": "uint256",
          "name": "numerator",
          "type": "uint256"
        },
        {
          "internalType": "uint256",
          "name": "denominator",
          "type": "uint256"
        }
      ],
      "stateMutability": "view",
      "type": "function"
    },
    {
      "inputs": [],
      "name": "name",
      "outputs": [
        {
          "internalType": "string",
          "name": "",
          "type": "string"
        }
      ],
      "stateMutability": "view",
      "type": "function"
    },
    {
      "inputs": [
        {
          "internalType": "bytes32",
          "name": "role",
          "type": "bytes32"
        },
        {
          "internalType": "address",
          "name": "account",
          "type": "address"
        }
      ],
      "name": "renounceRole",
      "outputs": [],
      "stateMutability": "nonpayable",
      "type": "function"
    },
    {
      "inputs": [
        {
          "internalType": "bytes32",
          "name": "role",
          "type": "bytes32"
        },
        {
          "internalType": "address",
          "name": "account",
          "type": "address"
        }
      ],
      "name": "revokeRole",
      "outputs": [],
      "stateMutability": "nonpayable",
      "type": "function"
    },
    {
      "inputs": [
        {
          "internalType": "bytes4",
          "name": "interfaceId",
          "type": "bytes4"
        }
      ],
      "name": "supportsInterface",
      "outputs": [
        {
          "internalType": "bool",
          "name": "",
          "type": "bool"
        }
      ],
      "stateMutability": "view",
      "type": "function"
    },
    {
      "inputs": [],
      "name": "symbol",
      "outputs": [
        {
          "internalType": "string",
          "name": "",
          "type": "string"
        }
      ],
      "stateMutability": "view",
      "type": "function"
    },
    {
      "inputs": [],
      "name": "tenor",
      "outputs": [
        {
          "internalType": "uint256",
          "name": "",
          "type": "uint256"
        }
      ],
      "stateMutability": "view",
      "type": "function"
    },
    {
      "inputs": [],
      "name": "totalSupply",
      "outputs": [
        {
          "internalType": "uint256",
          "name": "",
          "type": "uint256"
        }
      ],
      "stateMutability": "view",
      "type": "function"
    },
    {
      "inputs": [
        {
          "internalType": "address",
          "name": "recipient",
          "type": "address"
        },
        {
          "internalType": "uint256",
          "name": "amount",
          "type": "uint256"
        }
      ],
      "name": "transfer",
      "outputs": [
        {
          "internalType": "bool",
          "name": "",
          "type": "bool"
        }
      ],
      "stateMutability": "nonpayable",
      "type": "function"
    },
    {
      "inputs": [
        {
          "internalType": "address",
          "name": "sender",
          "type": "address"
        },
        {
          "internalType": "address",
          "name": "recipient",
          "type": "address"
        },
        {
          "internalType": "uint256",
          "name": "amount",
          "type": "uint256"
        }
      ],
      "name": "transferFrom",
      "outputs": [
        {
          "internalType": "bool",
          "name": "",
          "type": "bool"
        }
      ],
      "stateMutability": "nonpayable",
      "type": "function"
    },
    {
      "stateMutability": "payable",
      "type": "receive"
    },
    {
      "inputs": [
        {
          "internalType": "address",
          "name": "_account",
          "type": "address"
        },
        {
          "internalType": "uint256",
          "name": "_amount",
          "type": "uint256"
        }
      ],
      "name": "mint",
      "outputs": [],
      "stateMutability": "payable",
      "type": "function"
    },
    {
      "inputs": [
        {
          "internalType": "address",
          "name": "_account",
          "type": "address"
        },
        {
          "internalType": "uint256",
          "name": "_amount",
          "type": "uint256"
        }
      ],
      "name": "burn",
      "outputs": [],
      "stateMutability": "nonpayable",
      "type": "function"
    },
    {
      "inputs": [
        {
          "internalType": "uint256",
          "name": "_amount",
          "type": "uint256"
        },
        {
          "internalType": "uint256",
          "name": "_price",
          "type": "uint256"
        },
        {
          "internalType": "uint256",
          "name": "_volatility",
          "type": "uint256"
        }
      ],
      "name": "calculateMintValue",
      "outputs": [
        {
          "internalType": "uint256",
          "name": "",
          "type": "uint256"
        }
      ],
      "stateMutability": "view",
      "type": "function"
    },
    {
      "inputs": [
        {
          "internalType": "uint256",
          "name": "_ethValue",
          "type": "uint256"
        },
        {
          "internalType": "uint256",
          "name": "_price",
          "type": "uint256"
        },
        {
          "internalType": "uint256",
          "name": "_volatility",
          "type": "uint256"
        }
      ],
      "name": "calculateMintableAmount",
      "outputs": [
        {
          "internalType": "uint256",
          "name": "",
          "type": "uint256"
        }
      ],
      "stateMutability": "view",
      "type": "function"
    },
    {
      "inputs": [
        {
          "internalType": "address payable",
          "name": "_recipient",
          "type": "address"
        },
        {
          "internalType": "uint256",
          "name": "_amount",
          "type": "uint256"
        }
      ],
      "name": "recycle",
      "outputs": [
        {
          "internalType": "uint256",
          "name": "",
          "type": "uint256"
        }
      ],
      "stateMutability": "nonpayable",
      "type": "function"
    },
    {
      "inputs": [
        {
          "internalType": "address payable",
          "name": "_recipient",
          "type": "address"
        },
        {
          "internalType": "uint256",
          "name": "_amount",
          "type": "uint256"
        },
        {
          "internalType": "contract ERC20",
          "name": "_token",
          "type": "address"
        }
      ],
      "name": "recycleInToken",
      "outputs": [
        {
          "internalType": "uint256",
          "name": "",
          "type": "uint256"
        }
      ],
      "stateMutability": "nonpayable",
      "type": "function"
    },
    {
      "inputs": [
        {
          "internalType": "uint256",
          "name": "_margin",
          "type": "uint256"
        },
        {
          "internalType": "uint256",
          "name": "_marginDenominator",
          "type": "uint256"
        }
      ],
      "name": "resetMargin",
      "outputs": [],
      "stateMutability": "nonpayable",
      "type": "function"
    }
  ],
  "bytecode": "0x60806040523480156200001157600080fd5b5060405162003cac38038062003cac833981810160405281019062000037919062000445565b818181600390805190602001906200005192919062000300565b5080600490805190602001906200006a92919062000300565b5050506200009f7fa49807205ce4d355092ef5a8a18f56e8913cf4a201fbe287825b095693c21775336200018560201b60201c565b620000d17fea88816b763834ba9e21f37b0611d1194665ca246e2eabaf6b83c704dd3d72be336200018560201b60201c565b8260068190555083604051602001620000eb91906200054b565b6040516020818303038152906040528051906020012060078190555060405180604001604052806127108152602001620f42408152506009600082015181600001556020820151816001015590505030600860006101000a81548173ffffffffffffffffffffffffffffffffffffffff021916908373ffffffffffffffffffffffffffffffffffffffff1602179055505050505062000722565b6200019782826200019b60201b60201c565b5050565b620001ad82826200028d60201b60201c565b620002895760016005600084815260200190815260200160002060000160008373ffffffffffffffffffffffffffffffffffffffff1673ffffffffffffffffffffffffffffffffffffffff16815260200190815260200160002060006101000a81548160ff0219169083151502179055506200022e620002f860201b60201c565b73ffffffffffffffffffffffffffffffffffffffff168173ffffffffffffffffffffffffffffffffffffffff16837f2f8788117e7eff1d82e926ec794901d17c78024a50270940304540a733656f0d60405160405180910390a45b5050565b60006005600084815260200190815260200160002060000160008373ffffffffffffffffffffffffffffffffffffffff1673ffffffffffffffffffffffffffffffffffffffff16815260200190815260200160002060009054906101000a900460ff16905092915050565b600033905090565b8280546200030e9062000619565b90600052602060002090601f0160209004810192826200033257600085556200037e565b82601f106200034d57805160ff19168380011785556200037e565b828001600101855582156200037e579182015b828111156200037d57825182559160200191906001019062000360565b5b5090506200038d919062000391565b5090565b5b80821115620003ac57600081600090555060010162000392565b5090565b6000620003c7620003c1846200058d565b62000564565b905082815260208101848484011115620003e657620003e5620006e8565b5b620003f3848285620005e3565b509392505050565b600082601f830112620004135762000412620006e3565b5b815162000425848260208601620003b0565b91505092915050565b6000815190506200043f8162000708565b92915050565b60008060008060808587031215620004625762000461620006f2565b5b600085015167ffffffffffffffff811115620004835762000482620006ed565b5b6200049187828801620003fb565b9450506020620004a4878288016200042e565b935050604085015167ffffffffffffffff811115620004c857620004c7620006ed565b5b620004d687828801620003fb565b925050606085015167ffffffffffffffff811115620004fa57620004f9620006ed565b5b6200050887828801620003fb565b91505092959194509250565b60006200052182620005c3565b6200052d8185620005ce565b93506200053f818560208601620005e3565b80840191505092915050565b600062000559828462000514565b915081905092915050565b60006200057062000583565b90506200057e82826200064f565b919050565b6000604051905090565b600067ffffffffffffffff821115620005ab57620005aa620006b4565b5b620005b682620006f7565b9050602081019050919050565b600081519050919050565b600081905092915050565b6000819050919050565b60005b8381101562000603578082015181840152602081019050620005e6565b8381111562000613576000848401525b50505050565b600060028204905060018216806200063257607f821691505b6020821081141562000649576200064862000685565b5b50919050565b6200065a82620006f7565b810181811067ffffffffffffffff821117156200067c576200067b620006b4565b5b80604052505050565b7f4e487b7100000000000000000000000000000000000000000000000000000000600052602260045260246000fd5b7f4e487b7100000000000000000000000000000000000000000000000000000000600052604160045260246000fd5b600080fd5b600080fd5b600080fd5b600080fd5b6000601f19601f8301169050919050565b6200071381620005d9565b81146200071f57600080fd5b50565b61357a80620007326000396000f3fe6080604052600436106101e75760003560e01c806375b238fc11610102578063a457c2d711610095578063dd62ed3e11610064578063dd62ed3e1461077b578063df648dc4146107b8578063f6844c4d146107e3578063f6b4dfb41461080c576101ee565b8063a457c2d71461069b578063a9059cbb146106d8578063d2f714c514610715578063d547741f14610752576101ee565b806395d89b41116100d157806395d89b41146105f15780639dc29fac1461061c578063a15612d114610645578063a217fddf14610670576101ee565b806375b238fc1461053257806385dcee931461055d5780638f76691a1461058857806391d14854146105b4576101ee565b80632fc7a44a1161017a57806340c10f191161014957806340c10f191461045f5780635d36d1821461047b57806362c5c119146104b857806370a08231146104f5576101ee565b80632fc7a44a14610391578063313ce567146103ce57806336568abe146103f95780633950935114610422576101ee565b80631ee51acf116101b65780631ee51acf146102c357806323b872dd146102ee578063248a9ca31461032b5780632f2ff15d14610368576101ee565b806301ffc9a7146101f357806306fdde0314610230578063095ea7b31461025b57806318160ddd14610298576101ee565b366101ee57005b600080fd5b3480156101ff57600080fd5b5061021a6004803603810190610215919061260f565b610837565b6040516102279190612ac1565b60405180910390f35b34801561023c57600080fd5b506102456108b1565b6040516102529190612af7565b60405180910390f35b34801561026757600080fd5b50610282600480360381019061027d9190612535565b610943565b60405161028f9190612ac1565b60405180910390f35b3480156102a457600080fd5b506102ad610961565b6040516102ba9190612cd9565b60405180910390f35b3480156102cf57600080fd5b506102d861096b565b6040516102e59190612adc565b60405180910390f35b3480156102fa57600080fd5b50610315600480360381019061031091906124e2565b61098f565b6040516103229190612ac1565b60405180910390f35b34801561033757600080fd5b50610352600480360381019061034d91906125a2565b610a90565b60405161035f9190612adc565b60405180910390f35b34801561037457600080fd5b5061038f600480360381019061038a91906125cf565b610ab0565b005b34801561039d57600080fd5b506103b860048036038101906103b391906126a9565b610ad9565b6040516103c59190612cd9565b60405180910390f35b3480156103da57600080fd5b506103e3610b13565b6040516103f09190612d1d565b60405180910390f35b34801561040557600080fd5b50610420600480360381019061041b91906125cf565b610b1c565b005b34801561042e57600080fd5b5061044960048036038101906104449190612535565b610b9f565b6040516104569190612ac1565b60405180910390f35b61047960048036038101906104749190612535565b610c4b565b005b34801561048757600080fd5b506104a2600480360381019061049d919061240f565b610c8c565b6040516104af9190612cd9565b60405180910390f35b3480156104c457600080fd5b506104df60048036038101906104da91906126a9565b610e6d565b6040516104ec9190612cd9565b60405180910390f35b34801561050157600080fd5b5061051c600480360381019061051791906123e2565b610ea7565b6040516105299190612cd9565b60405180910390f35b34801561053e57600080fd5b50610547610eef565b6040516105549190612adc565b60405180910390f35b34801561056957600080fd5b50610572610f13565b60405161057f9190612adc565b60405180910390f35b34801561059457600080fd5b5061059d610f19565b6040516105ab929190612cf4565b60405180910390f35b3480156105c057600080fd5b506105db60048036038101906105d691906125cf565b610f2b565b6040516105e89190612ac1565b60405180910390f35b3480156105fd57600080fd5b50610606610f96565b6040516106139190612af7565b60405180910390f35b34801561062857600080fd5b50610643600480360381019061063e9190612535565b611028565b005b34801561065157600080fd5b5061065a611069565b6040516106679190612cd9565b60405180910390f35b34801561067c57600080fd5b5061068561106f565b6040516106929190612adc565b60405180910390f35b3480156106a757600080fd5b506106c260048036038101906106bd9190612535565b611076565b6040516106cf9190612ac1565b60405180910390f35b3480156106e457600080fd5b506106ff60048036038101906106fa9190612535565b61116a565b60405161070c9190612ac1565b60405180910390f35b34801561072157600080fd5b5061073c6004803603810190610737919061244f565b611188565b6040516107499190612cd9565b60405180910390f35b34801561075e57600080fd5b50610779600480360381019061077491906125cf565b61146b565b005b34801561078757600080fd5b506107a2600480360381019061079d91906124a2565b611494565b6040516107af9190612cd9565b60405180910390f35b3480156107c457600080fd5b506107cd61151b565b6040516107da9190612ac1565b60405180910390f35b3480156107ef57600080fd5b5061080a60048036038101906108059190612669565b61152e565b005b34801561081857600080fd5b50610821611593565b60405161082e9190612a7d565b60405180910390f35b60007f7965db0b000000000000000000000000000000000000000000000000000000007bffffffffffffffffffffffffffffffffffffffffffffffffffffffff1916827bffffffffffffffffffffffffffffffffffffffffffffffffffffffff191614806108aa57506108a9826115b9565b5b9050919050565b6060600380546108c090612f90565b80601f01602080910402602001604051908101604052809291908181526020018280546108ec90612f90565b80156109395780601f1061090e57610100808354040283529160200191610939565b820191906000526020600020905b81548152906001019060200180831161091c57829003601f168201915b5050505050905090565b6000610957610950611623565b848461162b565b6001905092915050565b6000600254905090565b7fea88816b763834ba9e21f37b0611d1194665ca246e2eabaf6b83c704dd3d72be81565b600061099c8484846117f6565b6000600160008673ffffffffffffffffffffffffffffffffffffffff1673ffffffffffffffffffffffffffffffffffffffff16815260200190815260200160002060006109e7611623565b73ffffffffffffffffffffffffffffffffffffffff1673ffffffffffffffffffffffffffffffffffffffff16815260200190815260200160002054905082811015610a67576040517f08c379a0000000000000000000000000000000000000000000000000000000008152600401610a5e90612bd9565b60405180910390fd5b610a8485610a73611623565b8584610a7f9190612e1a565b61162b565b60019150509392505050565b600060056000838152602001908152602001600020600101549050919050565b610ab982610a90565b610aca81610ac5611623565b611a75565b610ad48383611b12565b505050565b6000610b0a610b0385600960010154600960000154600960010154610afe9190612d6a565b611bf3565b8484611bf3565b90509392505050565b60006012905090565b610b24611623565b73ffffffffffffffffffffffffffffffffffffffff168173ffffffffffffffffffffffffffffffffffffffff1614610b91576040517f08c379a0000000000000000000000000000000000000000000000000000000008152600401610b8890612c99565b60405180910390fd5b610b9b8282611cef565b5050565b6000610c41610bac611623565b848460016000610bba611623565b73ffffffffffffffffffffffffffffffffffffffff1673ffffffffffffffffffffffffffffffffffffffff16815260200190815260200160002060008873ffffffffffffffffffffffffffffffffffffffff1673ffffffffffffffffffffffffffffffffffffffff16815260200190815260200160002054610c3c9190612d6a565b61162b565b6001905092915050565b7fea88816b763834ba9e21f37b0611d1194665ca246e2eabaf6b83c704dd3d72be610c7d81610c78611623565b611a75565b610c878383611dd1565b505050565b60007fea88816b763834ba9e21f37b0611d1194665ca246e2eabaf6b83c704dd3d72be610cc081610cbb611623565b611a75565b6000610d15600860009054906101000a900473ffffffffffffffffffffffffffffffffffffffff1673ffffffffffffffffffffffffffffffffffffffff1631670de0b6b3a7640000610d10610961565b611bf3565b90506000610d2c8583670de0b6b3a7640000611bf3565b9050600860009054906101000a900473ffffffffffffffffffffffffffffffffffffffff1673ffffffffffffffffffffffffffffffffffffffff1631811115610daa576040517f08c379a0000000000000000000000000000000000000000000000000000000008152600401610da190612c19565b60405180910390fd5b60008673ffffffffffffffffffffffffffffffffffffffff1682604051610dd090612a13565b60006040518083038185875af1925050503d8060008114610e0d576040519150601f19603f3d011682016040523d82523d6000602084013e610e12565b606091505b5050905080610e56576040517f08c379a0000000000000000000000000000000000000000000000000000000008152600401610e4d90612bb9565b60405180910390fd5b610e608787611f25565b8194505050505092915050565b6000610e9e610e7d858486611bf3565b600960000154600960010154610e939190612d6a565b600960010154611bf3565b90509392505050565b60008060008373ffffffffffffffffffffffffffffffffffffffff1673ffffffffffffffffffffffffffffffffffffffff168152602001908152602001600020549050919050565b7fa49807205ce4d355092ef5a8a18f56e8913cf4a201fbe287825b095693c2177581565b60075481565b60098060000154908060010154905082565b60006005600084815260200190815260200160002060000160008373ffffffffffffffffffffffffffffffffffffffff1673ffffffffffffffffffffffffffffffffffffffff16815260200190815260200160002060009054906101000a900460ff16905092915050565b606060048054610fa590612f90565b80601f0160208091040260200160405190810160405280929190818152602001828054610fd190612f90565b801561101e5780601f10610ff35761010080835404028352916020019161101e565b820191906000526020600020905b81548152906001019060200180831161100157829003601f168201915b5050505050905090565b7fea88816b763834ba9e21f37b0611d1194665ca246e2eabaf6b83c704dd3d72be61105a81611055611623565b611a75565b6110648383611f25565b505050565b60065481565b6000801b81565b60008060016000611085611623565b73ffffffffffffffffffffffffffffffffffffffff1673ffffffffffffffffffffffffffffffffffffffff16815260200190815260200160002060008573ffffffffffffffffffffffffffffffffffffffff1673ffffffffffffffffffffffffffffffffffffffff16815260200190815260200160002054905082811015611142576040517f08c379a000000000000000000000000000000000000000000000000000000000815260040161113990612c79565b60405180910390fd5b61115f61114d611623565b85858461115a9190612e1a565b61162b565b600191505092915050565b600061117e611177611623565b84846117f6565b6001905092915050565b60007fea88816b763834ba9e21f37b0611d1194665ca246e2eabaf6b83c704dd3d72be6111bc816111b7611623565b611a75565b60006112828473ffffffffffffffffffffffffffffffffffffffff166370a08231600860009054906101000a900473ffffffffffffffffffffffffffffffffffffffff166040518263ffffffff1660e01b815260040161121c9190612a62565b60206040518083038186803b15801561123457600080fd5b505afa158015611248573d6000803e3d6000fd5b505050506040513d601f19601f8201168201806040525081019061126c919061263c565b670de0b6b3a764000061127d610961565b611bf3565b905060006112998683670de0b6b3a7640000611bf3565b90508473ffffffffffffffffffffffffffffffffffffffff166370a08231600860009054906101000a900473ffffffffffffffffffffffffffffffffffffffff166040518263ffffffff1660e01b81526004016112f69190612a62565b60206040518083038186803b15801561130e57600080fd5b505afa158015611322573d6000803e3d6000fd5b505050506040513d601f19601f82011682018060405250810190611346919061263c565b811115611388576040517f08c379a000000000000000000000000000000000000000000000000000000000815260040161137f90612c19565b60405180910390fd5b8473ffffffffffffffffffffffffffffffffffffffff1663a9059cbb88836040518363ffffffff1660e01b81526004016113c3929190612a98565b602060405180830381600087803b1580156113dd57600080fd5b505af11580156113f1573d6000803e3d6000fd5b505050506040513d601f19601f820116820180604052508101906114159190612575565b611454576040517f08c379a000000000000000000000000000000000000000000000000000000000815260040161144b90612bb9565b60405180910390fd5b61145e8787611f25565b8093505050509392505050565b61147482610a90565b61148581611480611623565b611a75565b61148f8383611cef565b505050565b6000600160008473ffffffffffffffffffffffffffffffffffffffff1673ffffffffffffffffffffffffffffffffffffffff16815260200190815260200160002060008373ffffffffffffffffffffffffffffffffffffffff1673ffffffffffffffffffffffffffffffffffffffff16815260200190815260200160002054905092915050565b600b60009054906101000a900460ff1681565b7fa49807205ce4d355092ef5a8a18f56e8913cf4a201fbe287825b095693c217756115608161155b611623565b611a75565b60405180604001604052808481526020018381525060096000820151816000015560208201518160010155905050505050565b600860009054906101000a900473ffffffffffffffffffffffffffffffffffffffff1681565b60007f01ffc9a7000000000000000000000000000000000000000000000000000000007bffffffffffffffffffffffffffffffffffffffffffffffffffffffff1916827bffffffffffffffffffffffffffffffffffffffffffffffffffffffff1916149050919050565b600033905090565b600073ffffffffffffffffffffffffffffffffffffffff168373ffffffffffffffffffffffffffffffffffffffff16141561169b576040517f08c379a000000000000000000000000000000000000000000000000000000000815260040161169290612c59565b60405180910390fd5b600073ffffffffffffffffffffffffffffffffffffffff168273ffffffffffffffffffffffffffffffffffffffff16141561170b576040517f08c379a000000000000000000000000000000000000000000000000000000000815260040161170290612b79565b60405180910390fd5b80600160008573ffffffffffffffffffffffffffffffffffffffff1673ffffffffffffffffffffffffffffffffffffffff16815260200190815260200160002060008473ffffffffffffffffffffffffffffffffffffffff1673ffffffffffffffffffffffffffffffffffffffff168152602001908152602001600020819055508173ffffffffffffffffffffffffffffffffffffffff168373ffffffffffffffffffffffffffffffffffffffff167f8c5be1e5ebec7d5bd14f71427d1e84f3dd0314c0f7b2291e5b200ac8c7c3b925836040516117e99190612cd9565b60405180910390a3505050565b600073ffffffffffffffffffffffffffffffffffffffff168373ffffffffffffffffffffffffffffffffffffffff161415611866576040517f08c379a000000000000000000000000000000000000000000000000000000000815260040161185d90612c39565b60405180910390fd5b600073ffffffffffffffffffffffffffffffffffffffff168273ffffffffffffffffffffffffffffffffffffffff1614156118d6576040517f08c379a00000000000000000000000000000000000000000000000000000000081526004016118cd90612b39565b60405180910390fd5b6118e18383836120f9565b60008060008573ffffffffffffffffffffffffffffffffffffffff1673ffffffffffffffffffffffffffffffffffffffff16815260200190815260200160002054905081811015611967576040517f08c379a000000000000000000000000000000000000000000000000000000000815260040161195e90612b99565b60405180910390fd5b81816119739190612e1a565b6000808673ffffffffffffffffffffffffffffffffffffffff1673ffffffffffffffffffffffffffffffffffffffff16815260200190815260200160002081905550816000808573ffffffffffffffffffffffffffffffffffffffff1673ffffffffffffffffffffffffffffffffffffffff1681526020019081526020016000206000828254611a039190612d6a565b925050819055508273ffffffffffffffffffffffffffffffffffffffff168473ffffffffffffffffffffffffffffffffffffffff167fddf252ad1be2c89b69c2b068fc378daa952ba7f163c4a11628f55a4df523b3ef84604051611a679190612cd9565b60405180910390a350505050565b611a7f8282610f2b565b611b0e57611aa48173ffffffffffffffffffffffffffffffffffffffff1660146120fe565b611ab28360001c60206120fe565b604051602001611ac3929190612a28565b6040516020818303038152906040526040517f08c379a0000000000000000000000000000000000000000000000000000000008152600401611b059190612af7565b60405180910390fd5b5050565b611b1c8282610f2b565b611bef5760016005600084815260200190815260200160002060000160008373ffffffffffffffffffffffffffffffffffffffff1673ffffffffffffffffffffffffffffffffffffffff16815260200190815260200160002060006101000a81548160ff021916908315150217905550611b94611623565b73ffffffffffffffffffffffffffffffffffffffff168173ffffffffffffffffffffffffffffffffffffffff16837f2f8788117e7eff1d82e926ec794901d17c78024a50270940304540a733656f0d60405160405180910390a45b5050565b600080600080198587098587029250828110838203039150506000811415611c2e5760008411611c2257600080fd5b83820492505050611ce8565b808411611c3a57600080fd5b60008486880990508281118203915080830392506000856001877fffffffffffffffffffffffffffffffffffffffffffffffffffffffffffffffff0301169050808604955080840493506001818260000304019050808302841793506000600287600302189050808702600203810290508087026002038102905080870260020381029050808702600203810290508087026002038102905080870260020381029050808502955050505050505b9392505050565b611cf98282610f2b565b15611dcd5760006005600084815260200190815260200160002060000160008373ffffffffffffffffffffffffffffffffffffffff1673ffffffffffffffffffffffffffffffffffffffff16815260200190815260200160002060006101000a81548160ff021916908315150217905550611d72611623565b73ffffffffffffffffffffffffffffffffffffffff168173ffffffffffffffffffffffffffffffffffffffff16837ff6391f5c32d9c69d2a47ea670b442974b53935d1edc7fd64eb21e047a839171b60405160405180910390a45b5050565b600073ffffffffffffffffffffffffffffffffffffffff168273ffffffffffffffffffffffffffffffffffffffff161415611e41576040517f08c379a0000000000000000000000000000000000000000000000000000000008152600401611e3890612cb9565b60405180910390fd5b611e4d600083836120f9565b8060026000828254611e5f9190612d6a565b92505081905550806000808473ffffffffffffffffffffffffffffffffffffffff1673ffffffffffffffffffffffffffffffffffffffff1681526020019081526020016000206000828254611eb49190612d6a565b925050819055508173ffffffffffffffffffffffffffffffffffffffff16600073ffffffffffffffffffffffffffffffffffffffff167fddf252ad1be2c89b69c2b068fc378daa952ba7f163c4a11628f55a4df523b3ef83604051611f199190612cd9565b60405180910390a35050565b600073ffffffffffffffffffffffffffffffffffffffff168273ffffffffffffffffffffffffffffffffffffffff161415611f95576040517f08c379a0000000000000000000000000000000000000000000000000000000008152600401611f8c90612bf9565b60405180910390fd5b611fa1826000836120f9565b60008060008473ffffffffffffffffffffffffffffffffffffffff1673ffffffffffffffffffffffffffffffffffffffff16815260200190815260200160002054905081811015612027576040517f08c379a000000000000000000000000000000000000000000000000000000000815260040161201e90612b59565b60405180910390fd5b81816120339190612e1a565b6000808573ffffffffffffffffffffffffffffffffffffffff1673ffffffffffffffffffffffffffffffffffffffff1681526020019081526020016000208190555081600260008282546120879190612e1a565b92505081905550600073ffffffffffffffffffffffffffffffffffffffff168373ffffffffffffffffffffffffffffffffffffffff167fddf252ad1be2c89b69c2b068fc378daa952ba7f163c4a11628f55a4df523b3ef846040516120ec9190612cd9565b60405180910390a3505050565b505050565b6060600060028360026121119190612dc0565b61211b9190612d6a565b67ffffffffffffffff8111156121345761213361304f565b5b6040519080825280601f01601f1916602001820160405280156121665781602001600182028036833780820191505090505b5090507f30000000000000000000000000000000000000000000000000000000000000008160008151811061219e5761219d613020565b5b60200101907effffffffffffffffffffffffffffffffffffffffffffffffffffffffffffff1916908160001a9053507f78000000000000000000000000000000000000000000000000000000000000008160018151811061220257612201613020565b5b60200101907effffffffffffffffffffffffffffffffffffffffffffffffffffffffffffff1916908160001a905350600060018460026122429190612dc0565b61224c9190612d6a565b90505b60018111156122ec577f3031323334353637383961626364656600000000000000000000000000000000600f86166010811061228e5761228d613020565b5b1a60f81b8282815181106122a5576122a4613020565b5b60200101907effffffffffffffffffffffffffffffffffffffffffffffffffffffffffffff1916908160001a905350600485901c9450806122e590612f66565b905061224f565b5060008414612330576040517f08c379a000000000000000000000000000000000000000000000000000000000815260040161232790612b19565b60405180910390fd5b8091505092915050565b600081359050612349816134a3565b92915050565b60008135905061235e816134ba565b92915050565b600081519050612373816134d1565b92915050565b600081359050612388816134e8565b92915050565b60008135905061239d816134ff565b92915050565b6000813590506123b281613516565b92915050565b6000813590506123c78161352d565b92915050565b6000815190506123dc8161352d565b92915050565b6000602082840312156123f8576123f761307e565b5b60006124068482850161233a565b91505092915050565b600080604083850312156124265761242561307e565b5b60006124348582860161234f565b9250506020612445858286016123b8565b9150509250929050565b6000806000606084860312156124685761246761307e565b5b60006124768682870161234f565b9350506020612487868287016123b8565b9250506040612498868287016123a3565b9150509250925092565b600080604083850312156124b9576124b861307e565b5b60006124c78582860161233a565b92505060206124d88582860161233a565b9150509250929050565b6000806000606084860312156124fb576124fa61307e565b5b60006125098682870161233a565b935050602061251a8682870161233a565b925050604061252b868287016123b8565b9150509250925092565b6000806040838503121561254c5761254b61307e565b5b600061255a8582860161233a565b925050602061256b858286016123b8565b9150509250929050565b60006020828403121561258b5761258a61307e565b5b600061259984828501612364565b91505092915050565b6000602082840312156125b8576125b761307e565b5b60006125c684828501612379565b91505092915050565b600080604083850312156125e6576125e561307e565b5b60006125f485828601612379565b92505060206126058582860161233a565b9150509250929050565b6000602082840312156126255761262461307e565b5b60006126338482850161238e565b91505092915050565b6000602082840312156126525761265161307e565b5b6000612660848285016123cd565b91505092915050565b600080604083850312156126805761267f61307e565b5b600061268e858286016123b8565b925050602061269f858286016123b8565b9150509250929050565b6000806000606084860312156126c2576126c161307e565b5b60006126d0868287016123b8565b93505060206126e1868287016123b8565b92505060406126f2868287016123b8565b9150509250925092565b61270581612efd565b82525050565b61271481612e60565b82525050565b61272381612e72565b82525050565b61273281612e7e565b82525050565b600061274382612d38565b61274d8185612d4e565b935061275d818560208601612f33565b61276681613083565b840191505092915050565b600061277c82612d38565b6127868185612d5f565b9350612796818560208601612f33565b80840191505092915050565b60006127af602083612d4e565b91506127ba82613094565b602082019050919050565b60006127d2602383612d4e565b91506127dd826130bd565b604082019050919050565b60006127f5602283612d4e565b91506128008261310c565b604082019050919050565b6000612818602283612d4e565b91506128238261315b565b604082019050919050565b600061283b602683612d4e565b9150612846826131aa565b604082019050919050565b600061285e601283612d4e565b9150612869826131f9565b602082019050919050565b6000612881602883612d4e565b915061288c82613222565b604082019050919050565b60006128a4602183612d4e565b91506128af82613271565b604082019050919050565b60006128c7601b83612d4e565b91506128d2826132c0565b602082019050919050565b60006128ea602583612d4e565b91506128f5826132e9565b604082019050919050565b600061290d600083612d43565b915061291882613338565b600082019050919050565b6000612930602483612d4e565b915061293b8261333b565b604082019050919050565b6000612953601783612d5f565b915061295e8261338a565b601782019050919050565b6000612976602583612d4e565b9150612981826133b3565b604082019050919050565b6000612999601183612d5f565b91506129a482613402565b601182019050919050565b60006129bc602f83612d4e565b91506129c78261342b565b604082019050919050565b60006129df601f83612d4e565b91506129ea8261347a565b602082019050919050565b6129fe81612ee6565b82525050565b612a0d81612ef0565b82525050565b6000612a1e82612900565b9150819050919050565b6000612a3382612946565b9150612a3f8285612771565b9150612a4a8261298c565b9150612a568284612771565b91508190509392505050565b6000602082019050612a7760008301846126fc565b92915050565b6000602082019050612a92600083018461270b565b92915050565b6000604082019050612aad60008301856126fc565b612aba60208301846129f5565b9392505050565b6000602082019050612ad6600083018461271a565b92915050565b6000602082019050612af16000830184612729565b92915050565b60006020820190508181036000830152612b118184612738565b905092915050565b60006020820190508181036000830152612b32816127a2565b9050919050565b60006020820190508181036000830152612b52816127c5565b9050919050565b60006020820190508181036000830152612b72816127e8565b9050919050565b60006020820190508181036000830152612b928161280b565b9050919050565b60006020820190508181036000830152612bb28161282e565b9050919050565b60006020820190508181036000830152612bd281612851565b9050919050565b60006020820190508181036000830152612bf281612874565b9050919050565b60006020820190508181036000830152612c1281612897565b9050919050565b60006020820190508181036000830152612c32816128ba565b9050919050565b60006020820190508181036000830152612c52816128dd565b9050919050565b60006020820190508181036000830152612c7281612923565b9050919050565b60006020820190508181036000830152612c9281612969565b9050919050565b60006020820190508181036000830152612cb2816129af565b9050919050565b60006020820190508181036000830152612cd2816129d2565b9050919050565b6000602082019050612cee60008301846129f5565b92915050565b6000604082019050612d0960008301856129f5565b612d1660208301846129f5565b9392505050565b6000602082019050612d326000830184612a04565b92915050565b600081519050919050565b600081905092915050565b600082825260208201905092915050565b600081905092915050565b6000612d7582612ee6565b9150612d8083612ee6565b9250827fffffffffffffffffffffffffffffffffffffffffffffffffffffffffffffffff03821115612db557612db4612fc2565b5b828201905092915050565b6000612dcb82612ee6565b9150612dd683612ee6565b9250817fffffffffffffffffffffffffffffffffffffffffffffffffffffffffffffffff0483118215151615612e0f57612e0e612fc2565b5b828202905092915050565b6000612e2582612ee6565b9150612e3083612ee6565b925082821015612e4357612e42612fc2565b5b828203905092915050565b6000612e5982612ec6565b9050919050565b6000612e6b82612ec6565b9050919050565b60008115159050919050565b6000819050919050565b60007fffffffff0000000000000000000000000000000000000000000000000000000082169050919050565b6000612ebf82612e4e565b9050919050565b600073ffffffffffffffffffffffffffffffffffffffff82169050919050565b6000819050919050565b600060ff82169050919050565b6000612f0882612f0f565b9050919050565b6000612f1a82612f21565b9050919050565b6000612f2c82612ec6565b9050919050565b60005b83811015612f51578082015181840152602081019050612f36565b83811115612f60576000848401525b50505050565b6000612f7182612ee6565b91506000821415612f8557612f84612fc2565b5b600182039050919050565b60006002820490506001821680612fa857607f821691505b60208210811415612fbc57612fbb612ff1565b5b50919050565b7f4e487b7100000000000000000000000000000000000000000000000000000000600052601160045260246000fd5b7f4e487b7100000000000000000000000000000000000000000000000000000000600052602260045260246000fd5b7f4e487b7100000000000000000000000000000000000000000000000000000000600052603260045260246000fd5b7f4e487b7100000000000000000000000000000000000000000000000000000000600052604160045260246000fd5b600080fd5b6000601f19601f8301169050919050565b7f537472696e67733a20686578206c656e67746820696e73756666696369656e74600082015250565b7f45524332303a207472616e7366657220746f20746865207a65726f206164647260008201527f6573730000000000000000000000000000000000000000000000000000000000602082015250565b7f45524332303a206275726e20616d6f756e7420657863656564732062616c616e60008201527f6365000000000000000000000000000000000000000000000000000000000000602082015250565b7f45524332303a20617070726f766520746f20746865207a65726f20616464726560008201527f7373000000000000000000000000000000000000000000000000000000000000602082015250565b7f45524332303a207472616e7366657220616d6f756e742065786365656473206260008201527f616c616e63650000000000000000000000000000000000000000000000000000602082015250565b7f5769746864726177616c206661696c65642e0000000000000000000000000000600082015250565b7f45524332303a207472616e7366657220616d6f756e742065786365656473206160008201527f6c6c6f77616e6365000000000000000000000000000000000000000000000000602082015250565b7f45524332303a206275726e2066726f6d20746865207a65726f2061646472657360008201527f7300000000000000000000000000000000000000000000000000000000000000602082015250565b7f43757272656e742062616c616e6365206e6f7420656e6f7567682e0000000000600082015250565b7f45524332303a207472616e736665722066726f6d20746865207a65726f20616460008201527f6472657373000000000000000000000000000000000000000000000000000000602082015250565b50565b7f45524332303a20617070726f76652066726f6d20746865207a65726f2061646460008201527f7265737300000000000000000000000000000000000000000000000000000000602082015250565b7f416363657373436f6e74726f6c3a206163636f756e7420000000000000000000600082015250565b7f45524332303a2064656372656173656420616c6c6f77616e63652062656c6f7760008201527f207a65726f000000000000000000000000000000000000000000000000000000602082015250565b7f206973206d697373696e6720726f6c6520000000000000000000000000000000600082015250565b7f416363657373436f6e74726f6c3a2063616e206f6e6c792072656e6f756e636560008201527f20726f6c657320666f722073656c660000000000000000000000000000000000602082015250565b7f45524332303a206d696e7420746f20746865207a65726f206164647265737300600082015250565b6134ac81612e4e565b81146134b757600080fd5b50565b6134c381612e60565b81146134ce57600080fd5b50565b6134da81612e72565b81146134e557600080fd5b50565b6134f181612e7e565b81146134fc57600080fd5b50565b61350881612e88565b811461351357600080fd5b50565b61351f81612eb4565b811461352a57600080fd5b50565b61353681612ee6565b811461354157600080fd5b5056fea264697066735822122089cedefbbb3137b0d0949349c74bd25cdf872a2d53fd78b5359b94839f22f6ce64736f6c63430008060033",
  "immutableReferences": {},
  "source": "pragma solidity ^0.8.4;\n\n/**\n * SPDX-License-Identifier: GPL-3.0-or-later\n * Moret\n * Copyright (C) 2021 Moret\n */\n\nimport \"./FullMath.sol\";\nimport \"./MoretInterfaces.sol\";\nimport \"./OptionLibrary.sol\";\nimport \"@openzeppelin/contracts/token/ERC20/ERC20.sol\";\nimport \"@openzeppelin/contracts/access/AccessControl.sol\";\n\ncontract VolatilityToken is ERC20, AccessControl\n{\n  bytes32 public constant ADMIN_ROLE = keccak256(\"ADMIN_ROLE\");\n  bytes32 public constant MARKET_MAKING_ROLE = keccak256(\"MARKET_MAKING_ROLE\");\n  uint256 private constant ethMultiplier = 10 ** 18;\n\n  uint256 public tenor;\n  bytes32 public descriptionHash;\n  address payable public contractAddress;\n\n  OptionLibrary.Percent public margin;\n  bool public isUnderlyingNative;\n\n  constructor(\n    string memory _underlyingName,\n    uint256 _tenor,\n    string memory _name,\n    string memory _symbol\n    )\n  ERC20(_name, _symbol)\n  {\n     _setupRole(ADMIN_ROLE, msg.sender);\n     _setupRole(MARKET_MAKING_ROLE, msg.sender);\n\n    tenor = _tenor;\n    descriptionHash = keccak256(abi.encodePacked(_underlyingName));\n    margin = OptionLibrary.Percent(10 ** 4, 10 ** 6);\n\n    contractAddress = payable(address(this));\n  }\n\n  function mint(address _account, uint256 _amount) public payable onlyRole(MARKET_MAKING_ROLE) {\n      _mint(_account, _amount);\n  }\n\n  function burn(address _account, uint256 _amount) public onlyRole(MARKET_MAKING_ROLE){\n      _burn(_account, _amount);\n  }\n\n    function calculateMintValue(uint256 _amount, uint256 _price, uint256 _volatility)\n    public view returns(uint256){\n        return MulDiv(MulDiv(_amount, _volatility, _price), margin.denominator + margin.numerator, margin.denominator);\n    }\n\n    function calculateMintableAmount(uint256 _ethValue, uint256 _price, uint256 _volatility)\n    public view returns(uint256){\n        return MulDiv(MulDiv(_ethValue, margin.denominator, margin.denominator + margin.numerator), _price, _volatility);\n    }\n\n    function recycle(address payable _recipient, uint256 _amount) external onlyRole(MARKET_MAKING_ROLE) returns(uint256) {\n        uint256 _impliedPrice = MulDiv(contractAddress.balance, ethMultiplier, totalSupply());\n        uint256 _swapAmount = MulDiv(_amount, _impliedPrice, ethMultiplier);\n\n        require(_swapAmount<= contractAddress.balance, \"Current balance not enough.\");\n\n        (bool _sent, ) = _recipient.call{value: _swapAmount }(\"\");\n        require(_sent, \"Withdrawal failed.\");\n\n        _burn(_recipient, _amount);\n        return _swapAmount;\n    }\n\n    function recycleInToken(address payable _recipient, uint256 _amount, ERC20 _token) external onlyRole(MARKET_MAKING_ROLE) returns(uint256) {\n        uint256 _impliedPrice = MulDiv(_token.balanceOf(contractAddress), ethMultiplier, totalSupply());\n        uint256 _swapAmount = MulDiv(_amount, _impliedPrice, ethMultiplier);\n\n        require(_swapAmount<= _token.balanceOf(contractAddress), \"Current balance not enough.\");\n        require(_token.transfer(_recipient, _swapAmount), \"Withdrawal failed.\");\n\n        _burn(_recipient, _amount);\n        return _swapAmount;\n    }\n\n    function resetMargin(uint256 _margin, uint256 _marginDenominator) public onlyRole(ADMIN_ROLE){\n        margin = OptionLibrary.Percent(_margin, _marginDenominator);\n        /* emit newMargin(_margin); */\n    }\n\n\n    receive() external payable{}\n\n    /* event newMargin(uint256 _margin); */\n}\n",
  "sourcePath": "/Users/mac/Documents/GitHub/moret/contracts/VolatilityToken.sol",
  "compiler": {
    "name": "solc",
    "version": "0.8.6+commit.11564f7e.Emscripten.clang"
  },
  "schemaVersion": "3.4.1",
  "updatedAt": "2021-07-04T15:00:08.338Z",
  "devdoc": {
    "kind": "dev",
    "methods": {
      "allowance(address,address)": {
        "details": "See {IERC20-allowance}."
      },
      "approve(address,uint256)": {
        "details": "See {IERC20-approve}. Requirements: - `spender` cannot be the zero address."
      },
      "balanceOf(address)": {
        "details": "See {IERC20-balanceOf}."
      },
      "decimals()": {
        "details": "Returns the number of decimals used to get its user representation. For example, if `decimals` equals `2`, a balance of `505` tokens should be displayed to a user as `5,05` (`505 / 10 ** 2`). Tokens usually opt for a value of 18, imitating the relationship between Ether and Wei. This is the value {ERC20} uses, unless this function is overridden; NOTE: This information is only used for _display_ purposes: it in no way affects any of the arithmetic of the contract, including {IERC20-balanceOf} and {IERC20-transfer}."
      },
      "decreaseAllowance(address,uint256)": {
        "details": "Atomically decreases the allowance granted to `spender` by the caller. This is an alternative to {approve} that can be used as a mitigation for problems described in {IERC20-approve}. Emits an {Approval} event indicating the updated allowance. Requirements: - `spender` cannot be the zero address. - `spender` must have allowance for the caller of at least `subtractedValue`."
      },
      "getRoleAdmin(bytes32)": {
        "details": "Returns the admin role that controls `role`. See {grantRole} and {revokeRole}. To change a role's admin, use {_setRoleAdmin}."
      },
      "grantRole(bytes32,address)": {
        "details": "Grants `role` to `account`. If `account` had not been already granted `role`, emits a {RoleGranted} event. Requirements: - the caller must have ``role``'s admin role."
      },
      "hasRole(bytes32,address)": {
        "details": "Returns `true` if `account` has been granted `role`."
      },
      "increaseAllowance(address,uint256)": {
        "details": "Atomically increases the allowance granted to `spender` by the caller. This is an alternative to {approve} that can be used as a mitigation for problems described in {IERC20-approve}. Emits an {Approval} event indicating the updated allowance. Requirements: - `spender` cannot be the zero address."
      },
      "name()": {
        "details": "Returns the name of the token."
      },
      "renounceRole(bytes32,address)": {
        "details": "Revokes `role` from the calling account. Roles are often managed via {grantRole} and {revokeRole}: this function's purpose is to provide a mechanism for accounts to lose their privileges if they are compromised (such as when a trusted device is misplaced). If the calling account had been granted `role`, emits a {RoleRevoked} event. Requirements: - the caller must be `account`."
      },
      "revokeRole(bytes32,address)": {
        "details": "Revokes `role` from `account`. If `account` had been granted `role`, emits a {RoleRevoked} event. Requirements: - the caller must have ``role``'s admin role."
      },
      "supportsInterface(bytes4)": {
        "details": "See {IERC165-supportsInterface}."
      },
      "symbol()": {
        "details": "Returns the symbol of the token, usually a shorter version of the name."
      },
      "totalSupply()": {
        "details": "See {IERC20-totalSupply}."
      },
      "transfer(address,uint256)": {
        "details": "See {IERC20-transfer}. Requirements: - `recipient` cannot be the zero address. - the caller must have a balance of at least `amount`."
      },
      "transferFrom(address,address,uint256)": {
        "details": "See {IERC20-transferFrom}. Emits an {Approval} event indicating the updated allowance. This is not required by the EIP. See the note at the beginning of {ERC20}. Requirements: - `sender` and `recipient` cannot be the zero address. - `sender` must have a balance of at least `amount`. - the caller must have allowance for ``sender``'s tokens of at least `amount`."
      }
    },
    "version": 1
  },
  "userdoc": {
    "kind": "user",
    "methods": {},
    "version": 1
  }
}