{
  "contractName": "VolatilityChain",
  "abi": [
    {
      "inputs": [
        {
          "internalType": "address",
          "name": "_priceSourceId",
          "type": "address"
        },
        {
          "internalType": "uint256",
          "name": "_parameterDecimals",
          "type": "uint256"
        },
        {
          "internalType": "string",
          "name": "_tokenName",
          "type": "string"
        }
      ],
      "stateMutability": "nonpayable",
      "type": "constructor"
    },
    {
      "anonymous": false,
      "inputs": [
        {
          "indexed": true,
          "internalType": "address",
          "name": "previousOwner",
          "type": "address"
        },
        {
          "indexed": true,
          "internalType": "address",
          "name": "newOwner",
          "type": "address"
        }
      ],
      "name": "OwnershipTransferred",
      "type": "event"
    },
    {
      "anonymous": false,
      "inputs": [
        {
          "indexed": true,
          "internalType": "bytes32",
          "name": "role",
          "type": "bytes32"
        },
        {
          "indexed": true,
          "internalType": "bytes32",
          "name": "previousAdminRole",
          "type": "bytes32"
        },
        {
          "indexed": true,
          "internalType": "bytes32",
          "name": "newAdminRole",
          "type": "bytes32"
        }
      ],
      "name": "RoleAdminChanged",
      "type": "event"
    },
    {
      "anonymous": false,
      "inputs": [
        {
          "indexed": true,
          "internalType": "bytes32",
          "name": "role",
          "type": "bytes32"
        },
        {
          "indexed": true,
          "internalType": "address",
          "name": "account",
          "type": "address"
        },
        {
          "indexed": true,
          "internalType": "address",
          "name": "sender",
          "type": "address"
        }
      ],
      "name": "RoleGranted",
      "type": "event"
    },
    {
      "anonymous": false,
      "inputs": [
        {
          "indexed": true,
          "internalType": "bytes32",
          "name": "role",
          "type": "bytes32"
        },
        {
          "indexed": true,
          "internalType": "address",
          "name": "account",
          "type": "address"
        },
        {
          "indexed": true,
          "internalType": "address",
          "name": "sender",
          "type": "address"
        }
      ],
      "name": "RoleRevoked",
      "type": "event"
    },
    {
      "anonymous": false,
      "inputs": [
        {
          "indexed": true,
          "internalType": "uint256",
          "name": "_tenor",
          "type": "uint256"
        },
        {
          "indexed": false,
          "internalType": "uint256",
          "name": "_timeStamp",
          "type": "uint256"
        },
        {
          "components": [
            {
              "internalType": "uint256",
              "name": "startTime",
              "type": "uint256"
            },
            {
              "internalType": "uint256",
              "name": "endTime",
              "type": "uint256"
            },
            {
              "internalType": "uint256",
              "name": "open",
              "type": "uint256"
            },
            {
              "internalType": "uint256",
              "name": "highest",
              "type": "uint256"
            },
            {
              "internalType": "uint256",
              "name": "lowest",
              "type": "uint256"
            },
            {
              "internalType": "uint256",
              "name": "close",
              "type": "uint256"
            },
            {
              "internalType": "uint256",
              "name": "volatility",
              "type": "uint256"
            },
            {
              "internalType": "uint256",
              "name": "accentus",
              "type": "uint256"
            }
          ],
          "indexed": false,
          "internalType": "struct IVolatilityChain.PriceStamp",
          "name": "_book",
          "type": "tuple"
        }
      ],
      "name": "volatilityChainBlockAdded",
      "type": "event"
    },
    {
      "inputs": [],
      "name": "DEFAULT_ADMIN_ROLE",
      "outputs": [
        {
          "internalType": "bytes32",
          "name": "",
          "type": "bytes32"
        }
      ],
      "stateMutability": "view",
      "type": "function"
    },
    {
      "inputs": [],
      "name": "UPDATE_ROLE",
      "outputs": [
        {
          "internalType": "bytes32",
          "name": "",
          "type": "bytes32"
        }
      ],
      "stateMutability": "view",
      "type": "function"
    },
    {
      "inputs": [],
      "name": "description",
      "outputs": [
        {
          "internalType": "string",
          "name": "",
          "type": "string"
        }
      ],
      "stateMutability": "view",
      "type": "function"
    },
    {
      "inputs": [
        {
          "internalType": "bytes32",
          "name": "role",
          "type": "bytes32"
        }
      ],
      "name": "getRoleAdmin",
      "outputs": [
        {
          "internalType": "bytes32",
          "name": "",
          "type": "bytes32"
        }
      ],
      "stateMutability": "view",
      "type": "function"
    },
    {
      "inputs": [
        {
          "internalType": "bytes32",
          "name": "role",
          "type": "bytes32"
        },
        {
          "internalType": "address",
          "name": "account",
          "type": "address"
        }
      ],
      "name": "grantRole",
      "outputs": [],
      "stateMutability": "nonpayable",
      "type": "function"
    },
    {
      "inputs": [
        {
          "internalType": "bytes32",
          "name": "role",
          "type": "bytes32"
        },
        {
          "internalType": "address",
          "name": "account",
          "type": "address"
        }
      ],
      "name": "hasRole",
      "outputs": [
        {
          "internalType": "bool",
          "name": "",
          "type": "bool"
        }
      ],
      "stateMutability": "view",
      "type": "function"
    },
    {
      "inputs": [
        {
          "internalType": "uint256",
          "name": "",
          "type": "uint256"
        }
      ],
      "name": "latestBookTime",
      "outputs": [
        {
          "internalType": "uint256",
          "name": "",
          "type": "uint256"
        }
      ],
      "stateMutability": "view",
      "type": "function"
    },
    {
      "inputs": [],
      "name": "owner",
      "outputs": [
        {
          "internalType": "address",
          "name": "",
          "type": "address"
        }
      ],
      "stateMutability": "view",
      "type": "function"
    },
    {
      "inputs": [],
      "name": "renounceOwnership",
      "outputs": [],
      "stateMutability": "nonpayable",
      "type": "function"
    },
    {
      "inputs": [
        {
          "internalType": "bytes32",
          "name": "role",
          "type": "bytes32"
        },
        {
          "internalType": "address",
          "name": "account",
          "type": "address"
        }
      ],
      "name": "renounceRole",
      "outputs": [],
      "stateMutability": "nonpayable",
      "type": "function"
    },
    {
      "inputs": [
        {
          "internalType": "bytes32",
          "name": "role",
          "type": "bytes32"
        },
        {
          "internalType": "address",
          "name": "account",
          "type": "address"
        }
      ],
      "name": "revokeRole",
      "outputs": [],
      "stateMutability": "nonpayable",
      "type": "function"
    },
    {
      "inputs": [
        {
          "internalType": "bytes4",
          "name": "interfaceId",
          "type": "bytes4"
        }
      ],
      "name": "supportsInterface",
      "outputs": [
        {
          "internalType": "bool",
          "name": "",
          "type": "bool"
        }
      ],
      "stateMutability": "view",
      "type": "function"
    },
    {
      "inputs": [],
      "name": "tokenHash",
      "outputs": [
        {
          "internalType": "bytes32",
          "name": "",
          "type": "bytes32"
        }
      ],
      "stateMutability": "view",
      "type": "function"
    },
    {
      "inputs": [
        {
          "internalType": "address",
          "name": "newOwner",
          "type": "address"
        }
      ],
      "name": "transferOwnership",
      "outputs": [],
      "stateMutability": "nonpayable",
      "type": "function"
    },
    {
      "inputs": [],
      "name": "volParamDecimals",
      "outputs": [
        {
          "internalType": "uint256",
          "name": "",
          "type": "uint256"
        }
      ],
      "stateMutability": "view",
      "type": "function"
    },
    {
      "inputs": [
        {
          "internalType": "uint256",
          "name": "",
          "type": "uint256"
        }
      ],
      "name": "volatilityParameters",
      "outputs": [
        {
          "internalType": "uint256",
          "name": "initialVol",
          "type": "uint256"
        },
        {
          "internalType": "uint256",
          "name": "ltVol",
          "type": "uint256"
        },
        {
          "internalType": "uint256",
          "name": "ltVolWeighted",
          "type": "uint256"
        },
        {
          "internalType": "uint256",
          "name": "w",
          "type": "uint256"
        },
        {
          "internalType": "uint256",
          "name": "p",
          "type": "uint256"
        },
        {
          "internalType": "uint256",
          "name": "q",
          "type": "uint256"
        }
      ],
      "stateMutability": "view",
      "type": "function"
    },
    {
      "inputs": [],
      "name": "volatilityUpdateCounter",
      "outputs": [
        {
          "internalType": "uint256",
          "name": "",
          "type": "uint256"
        }
      ],
      "stateMutability": "view",
      "type": "function"
    },
    {
      "inputs": [],
      "name": "volatilityUpdateTime",
      "outputs": [
        {
          "internalType": "uint256",
          "name": "",
          "type": "uint256"
        }
      ],
      "stateMutability": "view",
      "type": "function"
    },
    {
      "inputs": [
        {
          "internalType": "uint256",
          "name": "_tenor",
          "type": "uint256"
        }
      ],
      "name": "getVol",
      "outputs": [
        {
          "internalType": "uint256",
          "name": "_vol",
          "type": "uint256"
        }
      ],
      "stateMutability": "view",
      "type": "function"
    },
    {
      "inputs": [],
      "name": "queryPrice",
      "outputs": [
        {
          "internalType": "uint256",
          "name": "",
          "type": "uint256"
        },
        {
          "internalType": "uint256",
          "name": "",
          "type": "uint256"
        }
      ],
      "stateMutability": "view",
      "type": "function"
    },
    {
      "inputs": [],
      "name": "update",
      "outputs": [],
      "stateMutability": "nonpayable",
      "type": "function"
    },
    {
      "inputs": [
        {
          "internalType": "uint256",
          "name": "_tenor",
          "type": "uint256"
        },
        {
          "components": [
            {
              "internalType": "uint256",
              "name": "initialVol",
              "type": "uint256"
            },
            {
              "internalType": "uint256",
              "name": "ltVol",
              "type": "uint256"
            },
            {
              "internalType": "uint256",
              "name": "ltVolWeighted",
              "type": "uint256"
            },
            {
              "internalType": "uint256",
              "name": "w",
              "type": "uint256"
            },
            {
              "internalType": "uint256",
              "name": "p",
              "type": "uint256"
            },
            {
              "internalType": "uint256",
              "name": "q",
              "type": "uint256"
            }
          ],
          "internalType": "struct IVolatilityChain.VolParam",
          "name": "_volParams",
          "type": "tuple"
        }
      ],
      "name": "resetVolParams",
      "outputs": [],
      "stateMutability": "nonpayable",
      "type": "function"
    },
    {
      "inputs": [
        {
          "internalType": "uint256",
          "name": "_tenor",
          "type": "uint256"
        }
      ],
      "name": "removeTenor",
      "outputs": [],
      "stateMutability": "nonpayable",
      "type": "function"
    },
    {
      "inputs": [
        {
          "internalType": "uint256",
          "name": "_tenor",
          "type": "uint256"
        }
      ],
      "name": "getPriceBook",
      "outputs": [
        {
          "components": [
            {
              "internalType": "uint256",
              "name": "startTime",
              "type": "uint256"
            },
            {
              "internalType": "uint256",
              "name": "endTime",
              "type": "uint256"
            },
            {
              "internalType": "uint256",
              "name": "open",
              "type": "uint256"
            },
            {
              "internalType": "uint256",
              "name": "highest",
              "type": "uint256"
            },
            {
              "internalType": "uint256",
              "name": "lowest",
              "type": "uint256"
            },
            {
              "internalType": "uint256",
              "name": "close",
              "type": "uint256"
            },
            {
              "internalType": "uint256",
              "name": "volatility",
              "type": "uint256"
            },
            {
              "internalType": "uint256",
              "name": "accentus",
              "type": "uint256"
            }
          ],
          "internalType": "struct IVolatilityChain.PriceStamp",
          "name": "",
          "type": "tuple"
        }
      ],
      "stateMutability": "view",
      "type": "function"
    },
    {
      "inputs": [],
      "name": "getDecription",
      "outputs": [
        {
          "internalType": "string",
          "name": "",
          "type": "string"
        }
      ],
      "stateMutability": "view",
      "type": "function"
    }
  ],
  "bytecode": "0x60806040523480156200001157600080fd5b50604051620042de380380620042de833981810160405281019062000037919062000985565b6000620000496200045f60201b60201c565b9050806000806101000a81548173ffffffffffffffffffffffffffffffffffffffff021916908373ffffffffffffffffffffffffffffffffffffffff1602179055508073ffffffffffffffffffffffffffffffffffffffff16600073ffffffffffffffffffffffffffffffffffffffff167f8be0079c531659141344cd1fd0a4f28419497f9722a3daafe3b4186f6b6457e060405160405180910390a350620000fc6000801b336200046760201b60201c565b6200012e7f3ee192ac25847473237ced4bba57f848e1fd794930ff85b42823290580967205336200046760201b60201c565b8060405160200162000141919062000a4d565b604051602081830303815290604052805190602001206003819055506200017b6201518060056200047d60201b62001bc91790919060201c565b506200019a62093a8060056200047d60201b62001bc91790919060201c565b50620001b962278d0060056200047d60201b62001bc91790919060201c565b5082600260006101000a81548173ffffffffffffffffffffffffffffffffffffffff021916908373ffffffffffffffffffffffffffffffffffffffff160217905550600260009054906101000a900473ffffffffffffffffffffffffffffffffffffffff1673ffffffffffffffffffffffffffffffffffffffff16637284e4166040518163ffffffff1660e01b815260040160006040518083038186803b1580156200026457600080fd5b505afa15801562000279573d6000803e3d6000fd5b505050506040513d6000823e3d601f19601f82011682018060405250810190620002a4919062000a66565b60049080519060200190620002bb92919062000698565b50600260009054906101000a900473ffffffffffffffffffffffffffffffffffffffff1673ffffffffffffffffffffffffffffffffffffffff1663313ce5676040518163ffffffff1660e01b815260040160206040518083038186803b1580156200032557600080fd5b505afa1580156200033a573d6000803e3d6000fd5b505050506040513d601f19601f8201168201806040525081019062000360919062000af5565b600a6200036e919062000caa565b600a81905550600260009054906101000a900473ffffffffffffffffffffffffffffffffffffffff1673ffffffffffffffffffffffffffffffffffffffff1663313ce5676040518163ffffffff1660e01b815260040160206040518083038186803b158015620003dd57600080fd5b505afa158015620003f2573d6000803e3d6000fd5b505050506040513d601f19601f8201168201806040525081019062000418919062000af5565b601262000426919062000cfb565b600a62000434919062000caa565b600b8190555081600f8190555081600a62000450919062000d36565b60108190555050505062000dec565b600033905090565b6200047982826200049f60201b60201c565b5050565b600062000497836000018360001b6200059060201b60201c565b905092915050565b620004b182826200060a60201b60201c565b6200058c57600180600084815260200190815260200160002060000160008373ffffffffffffffffffffffffffffffffffffffff1673ffffffffffffffffffffffffffffffffffffffff16815260200190815260200160002060006101000a81548160ff021916908315150217905550620005316200045f60201b60201c565b73ffffffffffffffffffffffffffffffffffffffff168173ffffffffffffffffffffffffffffffffffffffff16837f2f8788117e7eff1d82e926ec794901d17c78024a50270940304540a733656f0d60405160405180910390a45b5050565b6000620005a483836200067560201b60201c565b620005ff57826000018290806001815401808255809150506001900390600052602060002001600090919091909150558260000180549050836001016000848152602001908152602001600020819055506001905062000604565b600090505b92915050565b60006001600084815260200190815260200160002060000160008373ffffffffffffffffffffffffffffffffffffffff1673ffffffffffffffffffffffffffffffffffffffff16815260200190815260200160002060009054906101000a900460ff16905092915050565b600080836001016000848152602001908152602001600020541415905092915050565b828054620006a69062000db6565b90600052602060002090601f016020900481019282620006ca576000855562000716565b82601f10620006e557805160ff191683800117855562000716565b8280016001018555821562000716579182015b8281111562000715578251825591602001919060010190620006f8565b5b50905062000725919062000729565b5090565b5b80821115620007445760008160009055506001016200072a565b5090565b6000604051905090565b600080fd5b600080fd5b600073ffffffffffffffffffffffffffffffffffffffff82169050919050565b600062000789826200075c565b9050919050565b6200079b816200077c565b8114620007a757600080fd5b50565b600081519050620007bb8162000790565b92915050565b6000819050919050565b620007d681620007c1565b8114620007e257600080fd5b50565b600081519050620007f681620007cb565b92915050565b600080fd5b600080fd5b6000601f19601f8301169050919050565b7f4e487b7100000000000000000000000000000000000000000000000000000000600052604160045260246000fd5b620008518262000806565b810181811067ffffffffffffffff8211171562000873576200087262000817565b5b80604052505050565b60006200088862000748565b905062000896828262000846565b919050565b600067ffffffffffffffff821115620008b957620008b862000817565b5b620008c48262000806565b9050602081019050919050565b60005b83811015620008f1578082015181840152602081019050620008d4565b8381111562000901576000848401525b50505050565b60006200091e62000918846200089b565b6200087c565b9050828152602081018484840111156200093d576200093c62000801565b5b6200094a848285620008d1565b509392505050565b600082601f8301126200096a5762000969620007fc565b5b81516200097c84826020860162000907565b91505092915050565b600080600060608486031215620009a157620009a062000752565b5b6000620009b186828701620007aa565b9350506020620009c486828701620007e5565b925050604084015167ffffffffffffffff811115620009e857620009e762000757565b5b620009f68682870162000952565b9150509250925092565b600081519050919050565b600081905092915050565b600062000a238262000a00565b62000a2f818562000a0b565b935062000a41818560208601620008d1565b80840191505092915050565b600062000a5b828462000a16565b915081905092915050565b60006020828403121562000a7f5762000a7e62000752565b5b600082015167ffffffffffffffff81111562000aa05762000a9f62000757565b5b62000aae8482850162000952565b91505092915050565b600060ff82169050919050565b62000acf8162000ab7565b811462000adb57600080fd5b50565b60008151905062000aef8162000ac4565b92915050565b60006020828403121562000b0e5762000b0d62000752565b5b600062000b1e8482850162000ade565b91505092915050565b7f4e487b7100000000000000000000000000000000000000000000000000000000600052601160045260246000fd5b60008160011c9050919050565b6000808291508390505b600185111562000bb55780860481111562000b8d5762000b8c62000b27565b5b600185161562000b9d5780820291505b808102905062000bad8562000b56565b945062000b6d565b94509492505050565b60008262000bd0576001905062000ca3565b8162000be0576000905062000ca3565b816001811462000bf9576002811462000c045762000c3a565b600191505062000ca3565b60ff84111562000c195762000c1862000b27565b5b8360020a91508482111562000c335762000c3262000b27565b5b5062000ca3565b5060208310610133831016604e8410600b841016171562000c745782820a90508381111562000c6e5762000c6d62000b27565b5b62000ca3565b62000c83848484600162000b63565b9250905081840481111562000c9d5762000c9c62000b27565b5b81810290505b9392505050565b600062000cb782620007c1565b915062000cc48362000ab7565b925062000cf37fffffffffffffffffffffffffffffffffffffffffffffffffffffffffffffffff848462000bbe565b905092915050565b600062000d088262000ab7565b915062000d158362000ab7565b92508282101562000d2b5762000d2a62000b27565b5b828203905092915050565b600062000d4382620007c1565b915062000d5083620007c1565b925062000d7f7fffffffffffffffffffffffffffffffffffffffffffffffffffffffffffffffff848462000bbe565b905092915050565b7f4e487b7100000000000000000000000000000000000000000000000000000000600052602260045260246000fd5b6000600282049050600182168062000dcf57607f821691505b6020821081141562000de65762000de562000d87565b5b50919050565b6134e28062000dfc6000396000f3fe608060405234801561001057600080fd5b50600436106101725760003560e01c80638da5cb5b116100de578063b0667cf811610097578063dcbc93f811610071578063dcbc93f814610416578063de0a012914610434578063f2fde38b14610469578063fe67ec0c1461048557610172565b8063b0667cf8146103bd578063cca49473146103dc578063d547741f146103fa57610172565b80638da5cb5b1461030d57806391d148541461032b578063966e17661461035b57806398de789714610377578063a217fddf14610395578063a2e62045146103b357610172565b806336568abe1161013057806336568abe1461025d5780633dec20f4146102795780636c23852d14610297578063714f13ee146102c7578063715018a6146102e55780637284e416146102ef57610172565b80624978461461017757806301ffc9a714610195578063040b030f146101c5578063248a9ca3146101f5578063285f9457146102255780632f2ff15d14610241575b600080fd5b61017f6104b5565b60405161018c9190612548565b60405180910390f35b6101af60048036038101906101aa91906125ca565b6104d9565b6040516101bc9190612612565b60405180910390f35b6101df60048036038101906101da9190612663565b610553565b6040516101ec919061269f565b60405180910390f35b61020f600480360381019061020a91906126e6565b610761565b60405161021c9190612548565b60405180910390f35b61023f600480360381019061023a9190612663565b610781565b005b61025b60048036038101906102569190612771565b610832565b005b61027760048036038101906102729190612771565b61085b565b005b6102816108de565b60405161028e919061269f565b60405180910390f35b6102b160048036038101906102ac9190612663565b6108e4565b6040516102be9190612862565b60405180910390f35b6102cf6109d9565b6040516102dc919061269f565b60405180910390f35b6102ed6109df565b005b6102f7610b19565b6040516103049190612917565b60405180910390f35b610315610ba7565b6040516103229190612948565b60405180910390f35b61034560048036038101906103409190612771565b610bd0565b6040516103529190612612565b60405180910390f35b61037560048036038101906103709190612a83565b610c3b565b005b61037f610fb1565b60405161038c9190612917565b60405180910390f35b61039d611043565b6040516103aa9190612548565b60405180910390f35b6103bb61104a565b005b6103c56118d1565b6040516103d3929190612ac3565b60405180910390f35b6103e4611997565b6040516103f19190612548565b60405180910390f35b610414600480360381019061040f9190612771565b61199d565b005b61041e6119c6565b60405161042b919061269f565b60405180910390f35b61044e60048036038101906104499190612663565b6119cc565b60405161046096959493929190612aec565b60405180910390f35b610483600480360381019061047e9190612b4d565b611a08565b005b61049f600480360381019061049a9190612663565b611bb1565b6040516104ac919061269f565b60405180910390f35b7f3ee192ac25847473237ced4bba57f848e1fd794930ff85b4282329058096720581565b60007f7965db0b000000000000000000000000000000000000000000000000000000007bffffffffffffffffffffffffffffffffffffffffffffffffffffffff1916827bffffffffffffffffffffffffffffffffffffffffffffffffffffffff1916148061054c575061054b82611be3565b5b9050919050565b6000610569826005611c4d90919063ffffffff16565b156105ac57600760008381526020019081526020016000206000600860008581526020019081526020016000205481526020019081526020016000206006015490505b6105c0826005611c4d90919063ffffffff16565b61074c5760008060008060005b6105d76005611c67565b8110156106c85760006105f4826005611c7c90919063ffffffff16565b9050878111801561060f57508581108061060e5750600086145b5b1561065557809550600760008281526020019081526020016000206000600860008481526020019081526020016000205481526020019081526020016000206006015493505b878110801561066e57508481118061066d5750600085145b5b156106b457809450600760008281526020019081526020016000206000600860008481526020019081526020016000205481526020019081526020016000206006015492505b5080806106c090612ba9565b9150506105cd565b5060008414156106d6578094505b60008314156106e3578194505b6000841180156106f35750600083115b15610747576107198284886107089190612bf2565b85876107149190612bf2565b611c96565b61073a8288876107299190612bf2565b86886107359190612bf2565b611c96565b6107449190612c26565b94505b505050505b600b548161075a9190612c7c565b9050919050565b600060016000838152602001908152602001600020600101549050919050565b610789611d92565b73ffffffffffffffffffffffffffffffffffffffff166107a7610ba7565b73ffffffffffffffffffffffffffffffffffffffff16146107fd576040517f08c379a00000000000000000000000000000000000000000000000000000000081526004016107f490612d22565b60405180910390fd5b610811816005611c4d90919063ffffffff16565b61081a57600080fd5b61082e816005611d9a90919063ffffffff16565b5050565b61083b82610761565b61084c81610847611d92565b611db4565b6108568383611e51565b505050565b610863611d92565b73ffffffffffffffffffffffffffffffffffffffff168173ffffffffffffffffffffffffffffffffffffffff16146108d0576040517f08c379a00000000000000000000000000000000000000000000000000000000081526004016108c790612db4565b60405180910390fd5b6108da8282611f31565b5050565b600f5481565b6108ec6124ea565b610900826005611c4d90919063ffffffff16565b61093f576040517f08c379a000000000000000000000000000000000000000000000000000000000815260040161093690612e46565b60405180910390fd5b6007600083815260200190815260200160002060006008600085815260200190815260200160002054815260200190815260200160002060405180610100016040529081600082015481526020016001820154815260200160028201548152602001600382015481526020016004820154815260200160058201548152602001600682015481526020016007820154815250509050919050565b600c5481565b6109e7611d92565b73ffffffffffffffffffffffffffffffffffffffff16610a05610ba7565b73ffffffffffffffffffffffffffffffffffffffff1614610a5b576040517f08c379a0000000000000000000000000000000000000000000000000000000008152600401610a5290612d22565b60405180910390fd5b600073ffffffffffffffffffffffffffffffffffffffff1660008054906101000a900473ffffffffffffffffffffffffffffffffffffffff1673ffffffffffffffffffffffffffffffffffffffff167f8be0079c531659141344cd1fd0a4f28419497f9722a3daafe3b4186f6b6457e060405160405180910390a360008060006101000a81548173ffffffffffffffffffffffffffffffffffffffff021916908373ffffffffffffffffffffffffffffffffffffffff160217905550565b60048054610b2690612e95565b80601f0160208091040260200160405190810160405280929190818152602001828054610b5290612e95565b8015610b9f5780601f10610b7457610100808354040283529160200191610b9f565b820191906000526020600020905b815481529060010190602001808311610b8257829003601f168201915b505050505081565b60008060009054906101000a900473ffffffffffffffffffffffffffffffffffffffff16905090565b60006001600084815260200190815260200160002060000160008373ffffffffffffffffffffffffffffffffffffffff1673ffffffffffffffffffffffffffffffffffffffff16815260200190815260200160002060009054906101000a900460ff16905092915050565b610c43611d92565b73ffffffffffffffffffffffffffffffffffffffff16610c61610ba7565b73ffffffffffffffffffffffffffffffffffffffff1614610cb7576040517f08c379a0000000000000000000000000000000000000000000000000000000008152600401610cae90612d22565b60405180910390fd5b610ccb826005611c4d90919063ffffffff16565b610cd457600080fd5b6010548160a0015182608001518360600151610cf09190612c26565b610cfa9190612c26565b14610d0457600080fd5b80600e6000848152602001908152602001600020600082015181600001556020820151816001015560408201518160020155606082015181600301556080820151816004015560a08201518160050155905050610db1600e600084815260200190815260200160002060010154600e600085815260200190815260200160002060010154610d929190612c7c565b600e600085815260200190815260200160002060030154601054611c96565b600e600084815260200190815260200160002060020181905550600080600260009054906101000a900473ffffffffffffffffffffffffffffffffffffffff1673ffffffffffffffffffffffffffffffffffffffff1663feaf968c6040518163ffffffff1660e01b815260040160a06040518083038186803b158015610e3657600080fd5b505afa158015610e4a573d6000803e3d6000fd5b505050506040513d601f19601f82011682018060405250810190610e6e9190612f54565b5093505092505060008290508160086000878152602001908152602001600020819055508160076000878152602001908152602001600020600084815260200190815260200160002060000181905550600e6000868152602001908152602001600020600001546007600087815260200190815260200160002060008481526020019081526020016000206007018190556007600087815260200190815260200160002060008481526020019081526020016000206006018190555080600760008781526020019081526020016000206000848152602001908152602001600020600401819055600760008781526020019081526020016000206000848152602001908152602001600020600301819055600760008781526020019081526020016000206000848152602001908152602001600020600201819055505050505050565b606060048054610fc090612e95565b80601f0160208091040260200160405190810160405280929190818152602001828054610fec90612e95565b80156110395780601f1061100e57610100808354040283529160200191611039565b820191906000526020600020905b81548152906001019060200180831161101c57829003601f168201915b5050505050905090565b6000801b81565b7f3ee192ac25847473237ced4bba57f848e1fd794930ff85b4282329058096720561107c81611077611d92565b611db4565b600080600260009054906101000a900473ffffffffffffffffffffffffffffffffffffffff1673ffffffffffffffffffffffffffffffffffffffff1663feaf968c6040518163ffffffff1660e01b815260040160a06040518083038186803b1580156110e757600080fd5b505afa1580156110fb573d6000803e3d6000fd5b505050506040513d601f19601f8201168201806040525081019061111f9190612f54565b50935050925050600082905060005b6111386005611c67565b8110156118ab576000611155826005611c7c90919063ffffffff16565b905060076000828152602001908152602001600020600060086000848152602001908152602001600020548152602001908152602001600020600301548311156111d9578260076000838152602001908152602001600020600060086000858152602001908152602001600020548152602001908152602001600020600301819055505b600760008281526020019081526020016000206000600860008481526020019081526020016000205481526020019081526020016000206004015483101561125b578260076000838152602001908152602001600020600060086000858152602001908152602001600020548152602001908152602001600020600401819055505b80600860008381526020019081526020016000205461127a9190612c26565b84106118975783600760008381526020019081526020016000206000600860008581526020019081526020016000205481526020019081526020016000206001018190555082600760008381526020019081526020016000206000600860008581526020019081526020016000205481526020019081526020016000206005018190555060008360076000848152602001908152602001600020600060086000868152602001908152602001600020548152602001908152602001600020600201541061139a5761138884600a546007600086815260200190815260200160002060006008600088815260200190815260200160002054815260200190815260200160002060020154611c96565b600a546113959190612bf2565b6113ef565b600a546113e485600a546007600087815260200190815260200160002060006008600089815260200190815260200160002054815260200190815260200160002060020154611c96565b6113ee9190612bf2565b5b90506000611517600a5461147a6007600087815260200190815260200160002060006008600089815260200190815260200160002054815260200190815260200160002060030154600a54600760008981526020019081526020016000206000600860008b815260200190815260200160002054815260200190815260200160002060020154611c96565b6114849190612bf2565b6115056007600087815260200190815260200160002060006008600089815260200190815260200160002054815260200190815260200160002060040154600a54600760008981526020019081526020016000206000600860008b815260200190815260200160002054815260200190815260200160002060020154611c96565b600a546115129190612bf2565b612013565b905085600760008581526020019081526020016000206000888152602001908152602001600020600001819055506116486115ea600760008681526020019081526020016000206000600860008881526020019081526020016000205481526020019081526020016000206006015460076000878152602001908152602001600020600060086000898152602001908152602001600020548152602001908152602001600020600601546115cb9190612c7c565b600e600087815260200190815260200160002060040154601054611c96565b61161884856115f99190612c7c565b600e600088815260200190815260200160002060050154601054611c96565b600e6000878152602001908152602001600020600201546116399190612c26565b6116439190612c26565b61202d565b60076000858152602001908152602001600020600088815260200190815260200160002060060181905550611776611718600760008681526020019081526020016000206000600860008881526020019081526020016000205481526020019081526020016000206007015460076000878152602001908152602001600020600060086000898152602001908152602001600020548152602001908152602001600020600701546116f99190612c7c565b600e600087815260200190815260200160002060040154601054611c96565b61174683846117279190612c7c565b600e600088815260200190815260200160002060050154601054611c96565b600e6000878152602001908152602001600020600201546117679190612c26565b6117719190612c26565b61202d565b600760008581526020019081526020016000206000888152602001908152602001600020600701819055508460076000858152602001908152602001600020600088815260200190815260200160002060040181905560076000858152602001908152602001600020600088815260200190815260200160002060030181905560076000858152602001908152602001600020600088815260200190815260200160002060020181905550856008600085815260200190815260200160002081905550827d895f12d3f4f2376feff128f39b92005e9748404845000fd7028aa7edf428876007600087815260200190815260200160002060008a815260200190815260200160002060405161188c9291906130fc565b60405180910390a250505b5080806118a390612ba9565b91505061112e565b5081600d81905550600c60008154809291906118c690612ba9565b919050555050505050565b600080600080600260009054906101000a900473ffffffffffffffffffffffffffffffffffffffff1673ffffffffffffffffffffffffffffffffffffffff1663feaf968c6040518163ffffffff1660e01b815260040160a06040518083038186803b15801561193f57600080fd5b505afa158015611953573d6000803e3d6000fd5b505050506040513d601f19601f820116820180604052508101906119779190612f54565b50935050925050600b548261198c9190612c7c565b819350935050509091565b60035481565b6119a682610761565b6119b7816119b2611d92565b611db4565b6119c18383611f31565b505050565b600d5481565b600e6020528060005260406000206000915090508060000154908060010154908060020154908060030154908060040154908060050154905086565b611a10611d92565b73ffffffffffffffffffffffffffffffffffffffff16611a2e610ba7565b73ffffffffffffffffffffffffffffffffffffffff1614611a84576040517f08c379a0000000000000000000000000000000000000000000000000000000008152600401611a7b90612d22565b60405180910390fd5b600073ffffffffffffffffffffffffffffffffffffffff168173ffffffffffffffffffffffffffffffffffffffff161415611af4576040517f08c379a0000000000000000000000000000000000000000000000000000000008152600401611aeb90613198565b60405180910390fd5b8073ffffffffffffffffffffffffffffffffffffffff1660008054906101000a900473ffffffffffffffffffffffffffffffffffffffff1673ffffffffffffffffffffffffffffffffffffffff167f8be0079c531659141344cd1fd0a4f28419497f9722a3daafe3b4186f6b6457e060405160405180910390a3806000806101000a81548173ffffffffffffffffffffffffffffffffffffffff021916908373ffffffffffffffffffffffffffffffffffffffff16021790555050565b60086020528060005260406000206000915090505481565b6000611bdb836000018360001b61208a565b905092915050565b60007f01ffc9a7000000000000000000000000000000000000000000000000000000007bffffffffffffffffffffffffffffffffffffffffffffffffffffffff1916827bffffffffffffffffffffffffffffffffffffffffffffffffffffffff1916149050919050565b6000611c5f836000018360001b6120fa565b905092915050565b6000611c758260000161211d565b9050919050565b6000611c8b836000018361212e565b60001c905092915050565b600080600080198587098587029250828110838203039150506000811415611cd15760008411611cc557600080fd5b83820492505050611d8b565b808411611cdd57600080fd5b60008486880990508281118203915080830392506000856001877fffffffffffffffffffffffffffffffffffffffffffffffffffffffffffffffff0301169050808604955080840493506001818260000304019050808302841793506000600287600302189050808702600203810290508087026002038102905080870260020381029050808702600203810290508087026002038102905080870260020381029050808502955050505050505b9392505050565b600033905090565b6000611dac836000018360001b6121a2565b905092915050565b611dbe8282610bd0565b611e4d57611de38173ffffffffffffffffffffffffffffffffffffffff1660146122ae565b611df18360001c60206122ae565b604051602001611e0292919061328c565b6040516020818303038152906040526040517f08c379a0000000000000000000000000000000000000000000000000000000008152600401611e449190612917565b60405180910390fd5b5050565b611e5b8282610bd0565b611f2d57600180600084815260200190815260200160002060000160008373ffffffffffffffffffffffffffffffffffffffff1673ffffffffffffffffffffffffffffffffffffffff16815260200190815260200160002060006101000a81548160ff021916908315150217905550611ed2611d92565b73ffffffffffffffffffffffffffffffffffffffff168173ffffffffffffffffffffffffffffffffffffffff16837f2f8788117e7eff1d82e926ec794901d17c78024a50270940304540a733656f0d60405160405180910390a45b5050565b611f3b8282610bd0565b1561200f5760006001600084815260200190815260200160002060000160008373ffffffffffffffffffffffffffffffffffffffff1673ffffffffffffffffffffffffffffffffffffffff16815260200190815260200160002060006101000a81548160ff021916908315150217905550611fb4611d92565b73ffffffffffffffffffffffffffffffffffffffff168173ffffffffffffffffffffffffffffffffffffffff16837ff6391f5c32d9c69d2a47ea670b442974b53935d1edc7fd64eb21e047a839171b60405160405180910390a45b5050565b6000818310156120235781612025565b825b905092915050565b600080600260018461203f9190612c26565b61204991906132f5565b90508291505b8181101561208457809150600281828561206991906132f5565b6120739190612c26565b61207d91906132f5565b905061204f565b50919050565b600061209683836120fa565b6120ef5782600001829080600181540180825580915050600190039060005260206000200160009091909190915055826000018054905083600101600084815260200190815260200160002081905550600190506120f4565b600090505b92915050565b600080836001016000848152602001908152602001600020541415905092915050565b600081600001805490509050919050565b600081836000018054905011612179576040517f08c379a000000000000000000000000000000000000000000000000000000000815260040161217090613398565b60405180910390fd5b82600001828154811061218f5761218e6133b8565b5b9060005260206000200154905092915050565b600080836001016000848152602001908152602001600020549050600081146122a25760006001826121d49190612bf2565b90506000600186600001805490506121ec9190612bf2565b90506000866000018281548110612206576122056133b8565b5b906000526020600020015490508087600001848154811061222a576122296133b8565b5b9060005260206000200181905550838760010160008381526020019081526020016000208190555086600001805480612266576122656133e7565b5b600190038181906000526020600020016000905590558660010160008781526020019081526020016000206000905560019450505050506122a8565b60009150505b92915050565b6060600060028360026122c19190612c7c565b6122cb9190612c26565b67ffffffffffffffff8111156122e4576122e3612968565b5b6040519080825280601f01601f1916602001820160405280156123165781602001600182028036833780820191505090505b5090507f30000000000000000000000000000000000000000000000000000000000000008160008151811061234e5761234d6133b8565b5b60200101907effffffffffffffffffffffffffffffffffffffffffffffffffffffffffffff1916908160001a9053507f7800000000000000000000000000000000000000000000000000000000000000816001815181106123b2576123b16133b8565b5b60200101907effffffffffffffffffffffffffffffffffffffffffffffffffffffffffffff1916908160001a905350600060018460026123f29190612c7c565b6123fc9190612c26565b90505b600181111561249c577f3031323334353637383961626364656600000000000000000000000000000000600f86166010811061243e5761243d6133b8565b5b1a60f81b828281518110612455576124546133b8565b5b60200101907effffffffffffffffffffffffffffffffffffffffffffffffffffffffffffff1916908160001a905350600485901c94508061249590613416565b90506123ff565b50600084146124e0576040517f08c379a00000000000000000000000000000000000000000000000000000000081526004016124d79061348c565b60405180910390fd5b8091505092915050565b60405180610100016040528060008152602001600081526020016000815260200160008152602001600081526020016000815260200160008152602001600081525090565b6000819050919050565b6125428161252f565b82525050565b600060208201905061255d6000830184612539565b92915050565b6000604051905090565b600080fd5b60007fffffffff0000000000000000000000000000000000000000000000000000000082169050919050565b6125a781612572565b81146125b257600080fd5b50565b6000813590506125c48161259e565b92915050565b6000602082840312156125e0576125df61256d565b5b60006125ee848285016125b5565b91505092915050565b60008115159050919050565b61260c816125f7565b82525050565b60006020820190506126276000830184612603565b92915050565b6000819050919050565b6126408161262d565b811461264b57600080fd5b50565b60008135905061265d81612637565b92915050565b6000602082840312156126795761267861256d565b5b60006126878482850161264e565b91505092915050565b6126998161262d565b82525050565b60006020820190506126b46000830184612690565b92915050565b6126c38161252f565b81146126ce57600080fd5b50565b6000813590506126e0816126ba565b92915050565b6000602082840312156126fc576126fb61256d565b5b600061270a848285016126d1565b91505092915050565b600073ffffffffffffffffffffffffffffffffffffffff82169050919050565b600061273e82612713565b9050919050565b61274e81612733565b811461275957600080fd5b50565b60008135905061276b81612745565b92915050565b600080604083850312156127885761278761256d565b5b6000612796858286016126d1565b92505060206127a78582860161275c565b9150509250929050565b6127ba8161262d565b82525050565b610100820160008201516127d760008501826127b1565b5060208201516127ea60208501826127b1565b5060408201516127fd60408501826127b1565b50606082015161281060608501826127b1565b50608082015161282360808501826127b1565b5060a082015161283660a08501826127b1565b5060c082015161284960c08501826127b1565b5060e082015161285c60e08501826127b1565b50505050565b60006101008201905061287860008301846127c0565b92915050565b600081519050919050565b600082825260208201905092915050565b60005b838110156128b857808201518184015260208101905061289d565b838111156128c7576000848401525b50505050565b6000601f19601f8301169050919050565b60006128e98261287e565b6128f38185612889565b935061290381856020860161289a565b61290c816128cd565b840191505092915050565b6000602082019050818103600083015261293181846128de565b905092915050565b61294281612733565b82525050565b600060208201905061295d6000830184612939565b92915050565b600080fd5b7f4e487b7100000000000000000000000000000000000000000000000000000000600052604160045260246000fd5b6129a0826128cd565b810181811067ffffffffffffffff821117156129bf576129be612968565b5b80604052505050565b60006129d2612563565b90506129de8282612997565b919050565b600060c082840312156129f9576129f8612963565b5b612a0360c06129c8565b90506000612a138482850161264e565b6000830152506020612a278482850161264e565b6020830152506040612a3b8482850161264e565b6040830152506060612a4f8482850161264e565b6060830152506080612a638482850161264e565b60808301525060a0612a778482850161264e565b60a08301525092915050565b60008060e08385031215612a9a57612a9961256d565b5b6000612aa88582860161264e565b9250506020612ab9858286016129e3565b9150509250929050565b6000604082019050612ad86000830185612690565b612ae56020830184612690565b9392505050565b600060c082019050612b016000830189612690565b612b0e6020830188612690565b612b1b6040830187612690565b612b286060830186612690565b612b356080830185612690565b612b4260a0830184612690565b979650505050505050565b600060208284031215612b6357612b6261256d565b5b6000612b718482850161275c565b91505092915050565b7f4e487b7100000000000000000000000000000000000000000000000000000000600052601160045260246000fd5b6000612bb48261262d565b91507fffffffffffffffffffffffffffffffffffffffffffffffffffffffffffffffff821415612be757612be6612b7a565b5b600182019050919050565b6000612bfd8261262d565b9150612c088361262d565b925082821015612c1b57612c1a612b7a565b5b828203905092915050565b6000612c318261262d565b9150612c3c8361262d565b9250827fffffffffffffffffffffffffffffffffffffffffffffffffffffffffffffffff03821115612c7157612c70612b7a565b5b828201905092915050565b6000612c878261262d565b9150612c928361262d565b9250817fffffffffffffffffffffffffffffffffffffffffffffffffffffffffffffffff0483118215151615612ccb57612cca612b7a565b5b828202905092915050565b7f4f776e61626c653a2063616c6c6572206973206e6f7420746865206f776e6572600082015250565b6000612d0c602083612889565b9150612d1782612cd6565b602082019050919050565b60006020820190508181036000830152612d3b81612cff565b9050919050565b7f416363657373436f6e74726f6c3a2063616e206f6e6c792072656e6f756e636560008201527f20726f6c657320666f722073656c660000000000000000000000000000000000602082015250565b6000612d9e602f83612889565b9150612da982612d42565b604082019050919050565b60006020820190508181036000830152612dcd81612d91565b9050919050565b7f496e707574206f7074696f6e2074656e6f72206973206e6f7420616c6c6f776560008201527f642e000000000000000000000000000000000000000000000000000000000000602082015250565b6000612e30602283612889565b9150612e3b82612dd4565b604082019050919050565b60006020820190508181036000830152612e5f81612e23565b9050919050565b7f4e487b7100000000000000000000000000000000000000000000000000000000600052602260045260246000fd5b60006002820490506001821680612ead57607f821691505b60208210811415612ec157612ec0612e66565b5b50919050565b600069ffffffffffffffffffff82169050919050565b612ee681612ec7565b8114612ef157600080fd5b50565b600081519050612f0381612edd565b92915050565b6000819050919050565b612f1c81612f09565b8114612f2757600080fd5b50565b600081519050612f3981612f13565b92915050565b600081519050612f4e81612637565b92915050565b600080600080600060a08688031215612f7057612f6f61256d565b5b6000612f7e88828901612ef4565b9550506020612f8f88828901612f2a565b9450506040612fa088828901612f3f565b9350506060612fb188828901612f3f565b9250506080612fc288828901612ef4565b9150509295509295909350565b60008160001c9050919050565b6000819050919050565b6000612ff9612ff483612fcf565b612fdc565b9050919050565b6101008201600080830154905061301681612fe6565b61302360008601826127b1565b506001830154905061303481612fe6565b61304160208601826127b1565b506002830154905061305281612fe6565b61305f60408601826127b1565b506003830154905061307081612fe6565b61307d60608601826127b1565b506004830154905061308e81612fe6565b61309b60808601826127b1565b50600583015490506130ac81612fe6565b6130b960a08601826127b1565b50600683015490506130ca81612fe6565b6130d760c08601826127b1565b50600783015490506130e881612fe6565b6130f560e08601826127b1565b5050505050565b6000610120820190506131126000830185612690565b61311f6020830184613000565b9392505050565b7f4f776e61626c653a206e6577206f776e657220697320746865207a65726f206160008201527f6464726573730000000000000000000000000000000000000000000000000000602082015250565b6000613182602683612889565b915061318d82613126565b604082019050919050565b600060208201905081810360008301526131b181613175565b9050919050565b600081905092915050565b7f416363657373436f6e74726f6c3a206163636f756e7420000000000000000000600082015250565b60006131f96017836131b8565b9150613204826131c3565b601782019050919050565b600061321a8261287e565b61322481856131b8565b935061323481856020860161289a565b80840191505092915050565b7f206973206d697373696e6720726f6c6520000000000000000000000000000000600082015250565b60006132766011836131b8565b915061328182613240565b601182019050919050565b6000613297826131ec565b91506132a3828561320f565b91506132ae82613269565b91506132ba828461320f565b91508190509392505050565b7f4e487b7100000000000000000000000000000000000000000000000000000000600052601260045260246000fd5b60006133008261262d565b915061330b8361262d565b92508261331b5761331a6132c6565b5b828204905092915050565b7f456e756d657261626c655365743a20696e646578206f7574206f6620626f756e60008201527f6473000000000000000000000000000000000000000000000000000000000000602082015250565b6000613382602283612889565b915061338d82613326565b604082019050919050565b600060208201905081810360008301526133b181613375565b9050919050565b7f4e487b7100000000000000000000000000000000000000000000000000000000600052603260045260246000fd5b7f4e487b7100000000000000000000000000000000000000000000000000000000600052603160045260246000fd5b60006134218261262d565b9150600082141561343557613434612b7a565b5b600182039050919050565b7f537472696e67733a20686578206c656e67746820696e73756666696369656e74600082015250565b6000613476602083612889565b915061348182613440565b602082019050919050565b600060208201905081810360008301526134a581613469565b905091905056fea2646970667358221220901ddccce42749b72de716642d112bcda3487ffaf85e14485eab6c91e6eee8f564736f6c63430008090033",
  "immutableReferences": {},
  "source": "// SPDX-License-Identifier: MIT\npragma solidity 0.8.9;\n\nimport {Ownable} from \"@openzeppelin/contracts/access/Ownable.sol\";\nimport \"@openzeppelin/contracts/utils/math/Math.sol\";\nimport {AccessControl} from \"@openzeppelin/contracts/access/AccessControl.sol\";\nimport \"@openzeppelin/contracts/utils/structs/EnumerableSet.sol\";\nimport \"./FullMath.sol\";\nimport {IVolatilityChain} from \"./MoretInterfaces.sol\";\nimport \"@chainlink/contracts/src/v0.8/interfaces/AggregatorV3Interface.sol\";\n\ncontract VolatilityChain is Ownable, AccessControl, IVolatilityChain{\n  using EnumerableSet for EnumerableSet.UintSet;\n  bytes32 public constant UPDATE_ROLE = keccak256(\"UPDATE_ROLE\");\n  AggregatorV3Interface internal priceInterface;\n  bytes32 public tokenHash;\n  string public description;\n  EnumerableSet.UintSet tenors;\n\n  mapping(uint256=>mapping(uint256=>PriceStamp)) private priceBook;\n  mapping(uint256=>uint256) public latestBookTime;\n  uint256 internal priceDecimals;\n  uint256 internal priceMultiplier;\n  uint256 internal quoteAdjustment;\n\n  uint256 public volatilityUpdateCounter;\n  uint256 public volatilityUpdateTime;\n  mapping(uint256=> VolParam) public volatilityParameters;\n  uint256 public volParamDecimals;\n  uint256 internal parameterMultiplier;\n\n  constructor( address _priceSourceId, uint256 _parameterDecimals, string memory _tokenName )  {\n    _setupRole(DEFAULT_ADMIN_ROLE, msg.sender);\n    _setupRole(UPDATE_ROLE, msg.sender);\n    tokenHash = keccak256(abi.encodePacked(_tokenName));\n    tenors.add(1 days);\n    tenors.add(7 days);\n    tenors.add(30 days);\n\n    priceInterface = AggregatorV3Interface(_priceSourceId);\n    description = priceInterface.description();\n    priceMultiplier = 10 ** priceInterface.decimals();\n    quoteAdjustment = 10 ** (18 - priceInterface.decimals());\n    volParamDecimals = _parameterDecimals;\n    parameterMultiplier = 10 ** _parameterDecimals;}\n\n  function getVol(uint256 _tenor) external override view returns(uint256 _vol){\n    _vol = 0;\n    if(tenors.contains(_tenor)){ _vol = priceBook[_tenor][latestBookTime[_tenor]].volatility;}\n    if(!tenors.contains(_tenor)){\n      uint256 _upperTenor = 0;\n      uint256 _lowerTenor = 0;\n      uint256 _upperVol = 0;\n      uint256 _lowerVol = 0;\n      for(uint i = 0;i< tenors.length();i++){\n        uint256 _tenorI = tenors.at(i);\n        if(_tenorI >_tenor && (_tenorI < _upperTenor || _upperTenor == 0) ){ _upperTenor = _tenorI; _upperVol = priceBook[_tenorI][latestBookTime[_tenorI]].volatility; }\n        if(_tenorI <_tenor && (_tenorI > _lowerTenor || _lowerTenor == 0) ){ _lowerTenor = _tenorI; _lowerVol = priceBook[_tenorI][latestBookTime[_tenorI]].volatility; }}\n      if(_upperTenor == 0) { _vol = _lowerVol;}\n      if(_lowerTenor==0) {_vol = _upperVol;}\n      if(_upperTenor >0 && _lowerTenor >0){ _vol = MulDiv(_lowerVol, _upperTenor - _tenor, _upperTenor - _lowerTenor) + MulDiv(_upperVol, _tenor - _lowerTenor, _upperTenor - _lowerTenor);}}\n      _vol *= quoteAdjustment;}\n\n  function queryPrice() external override view returns(uint256, uint256){\n    (,int _price,,uint _timeStamp,) = priceInterface.latestRoundData();\n    return (uint256(_price) * quoteAdjustment, uint256(_timeStamp));}\n\n  function update() external onlyRole(UPDATE_ROLE){\n    (,int _price,,uint _timeStamp,) = priceInterface.latestRoundData();\n    uint256 _updatePrice = uint256(_price);\n\n    for(uint i = 0;i< tenors.length();i++) {\n      uint256 _tenor = tenors.at(i);\n      if(_updatePrice > priceBook[_tenor][latestBookTime[_tenor]].highest){\n        priceBook[_tenor][latestBookTime[_tenor]].highest=_updatePrice;}\n      if(_updatePrice<priceBook[_tenor][latestBookTime[_tenor]].lowest){\n         priceBook[_tenor][latestBookTime[_tenor]].lowest=_updatePrice;}\n\n      if(_timeStamp>= (latestBookTime[_tenor] + _tenor)){\n        priceBook[_tenor][latestBookTime[_tenor]].endTime = _timeStamp;\n        priceBook[_tenor][latestBookTime[_tenor]].close = _updatePrice;\n        uint256 _periodMove = (priceBook[_tenor][latestBookTime[_tenor]].open < _updatePrice)? (MulDiv(_updatePrice, priceMultiplier, priceBook[_tenor][latestBookTime[_tenor]].open) - priceMultiplier) : (priceMultiplier - MulDiv(_updatePrice, priceMultiplier, priceBook[_tenor][latestBookTime[_tenor]].open ));\n        uint256 _largestMove = Math.max(MulDiv(priceBook[_tenor][latestBookTime[_tenor]].highest, priceMultiplier, priceBook[_tenor][latestBookTime[_tenor]].open) - priceMultiplier , priceMultiplier - MulDiv(priceBook[_tenor][latestBookTime[_tenor]].lowest, priceMultiplier, priceBook[_tenor][latestBookTime[_tenor]].open ));\n\n        priceBook[_tenor][_timeStamp].startTime = _timeStamp;\n        priceBook[_tenor][_timeStamp].volatility = Sqrt(volatilityParameters[_tenor].ltVolWeighted + MulDiv(_periodMove * _periodMove, volatilityParameters[_tenor].q, parameterMultiplier) + MulDiv(priceBook[_tenor][latestBookTime[_tenor]].volatility * priceBook[_tenor][latestBookTime[_tenor]].volatility, volatilityParameters[_tenor].p, parameterMultiplier));\n        priceBook[_tenor][_timeStamp].accentus = Sqrt(volatilityParameters[_tenor].ltVolWeighted + MulDiv(_largestMove * _largestMove, volatilityParameters[_tenor].q, parameterMultiplier) + MulDiv(priceBook[_tenor][latestBookTime[_tenor]].accentus * priceBook[_tenor][latestBookTime[_tenor]].accentus, volatilityParameters[_tenor].p, parameterMultiplier));\n        priceBook[_tenor][_timeStamp].open = priceBook[_tenor][_timeStamp].highest = priceBook[_tenor][_timeStamp].lowest = _updatePrice;\n\n        latestBookTime[_tenor] = _timeStamp;\n        emit volatilityChainBlockAdded(_tenor, _timeStamp, priceBook[_tenor][_timeStamp]);} }\n\n    volatilityUpdateTime = _timeStamp;\n    volatilityUpdateCounter ++;}\n\n  function resetVolParams(uint256 _tenor, VolParam memory _volParams) external onlyOwner{\n    require(tenors.contains(_tenor));\n    require((_volParams.w + _volParams.p + _volParams.q)==parameterMultiplier);\n    volatilityParameters[_tenor] = _volParams;\n    volatilityParameters[_tenor].ltVolWeighted = MulDiv(volatilityParameters[_tenor].ltVol*volatilityParameters[_tenor].ltVol, volatilityParameters[_tenor].w, parameterMultiplier);\n\n    (,int _price,,uint _timeStamp,) = priceInterface.latestRoundData();\n    uint256 _updatePrice = uint256(_price);\n\n    latestBookTime[_tenor] = _timeStamp;\n    priceBook[_tenor][_timeStamp].startTime = _timeStamp;\n    priceBook[_tenor][_timeStamp].volatility = priceBook[_tenor][_timeStamp].accentus = volatilityParameters[_tenor].initialVol;\n    priceBook[_tenor][_timeStamp].open = priceBook[_tenor][_timeStamp].highest = priceBook[_tenor][_timeStamp].lowest = _updatePrice;}\n\n  function removeTenor(uint256 _tenor) external onlyOwner{\n    require(tenors.contains(_tenor));\n    tenors.remove(_tenor);}\n\n  function getPriceBook(uint256 _tenor) external view returns(PriceStamp memory){\n    require(tenors.contains(_tenor), \"Input option tenor is not allowed.\");\n    return priceBook[_tenor][latestBookTime[_tenor]];}\n\n  // function getPriceMultiplier() external override view returns (uint256){return priceMultiplier;}\n  // function getPriceDecimals() external override view returns (uint256) {return priceDecimals;}\n  function getDecription() external override view returns (string memory) {return description;}}\n",
  "sourcePath": "/Users/apple/Documents/GitHub/moret/contracts/VolatilityChain.sol",
  "compiler": {
    "name": "solc",
    "version": "0.8.9+commit.e5eed63a.Emscripten.clang"
  },
  "schemaVersion": "3.4.3",
  "updatedAt": "2021-11-07T19:48:05.972Z",
  "devdoc": {
    "kind": "dev",
    "methods": {
      "getRoleAdmin(bytes32)": {
        "details": "Returns the admin role that controls `role`. See {grantRole} and {revokeRole}. To change a role's admin, use {_setRoleAdmin}."
      },
      "grantRole(bytes32,address)": {
        "details": "Grants `role` to `account`. If `account` had not been already granted `role`, emits a {RoleGranted} event. Requirements: - the caller must have ``role``'s admin role."
      },
      "hasRole(bytes32,address)": {
        "details": "Returns `true` if `account` has been granted `role`."
      },
      "owner()": {
        "details": "Returns the address of the current owner."
      },
      "renounceOwnership()": {
        "details": "Leaves the contract without owner. It will not be possible to call `onlyOwner` functions anymore. Can only be called by the current owner. NOTE: Renouncing ownership will leave the contract without an owner, thereby removing any functionality that is only available to the owner."
      },
      "renounceRole(bytes32,address)": {
        "details": "Revokes `role` from the calling account. Roles are often managed via {grantRole} and {revokeRole}: this function's purpose is to provide a mechanism for accounts to lose their privileges if they are compromised (such as when a trusted device is misplaced). If the calling account had been granted `role`, emits a {RoleRevoked} event. Requirements: - the caller must be `account`."
      },
      "revokeRole(bytes32,address)": {
        "details": "Revokes `role` from `account`. If `account` had been granted `role`, emits a {RoleRevoked} event. Requirements: - the caller must have ``role``'s admin role."
      },
      "supportsInterface(bytes4)": {
        "details": "See {IERC165-supportsInterface}."
      },
      "transferOwnership(address)": {
        "details": "Transfers ownership of the contract to a new account (`newOwner`). Can only be called by the current owner."
      }
    },
    "version": 1
  },
  "userdoc": {
    "kind": "user",
    "methods": {},
    "version": 1
  }
}