{
  "contractName": "VolatilityChain",
  "abi": [
    {
      "inputs": [
        {
          "internalType": "address",
          "name": "_priceSourceId",
          "type": "address"
        },
        {
          "internalType": "uint256",
          "name": "_parameterDecimals",
          "type": "uint256"
        },
        {
          "internalType": "string",
          "name": "_tokenName",
          "type": "string"
        }
      ],
      "stateMutability": "nonpayable",
      "type": "constructor"
    },
    {
      "anonymous": false,
      "inputs": [
        {
          "indexed": true,
          "internalType": "address",
          "name": "previousOwner",
          "type": "address"
        },
        {
          "indexed": true,
          "internalType": "address",
          "name": "newOwner",
          "type": "address"
        }
      ],
      "name": "OwnershipTransferred",
      "type": "event"
    },
    {
      "anonymous": false,
      "inputs": [
        {
          "indexed": true,
          "internalType": "bytes32",
          "name": "role",
          "type": "bytes32"
        },
        {
          "indexed": true,
          "internalType": "bytes32",
          "name": "previousAdminRole",
          "type": "bytes32"
        },
        {
          "indexed": true,
          "internalType": "bytes32",
          "name": "newAdminRole",
          "type": "bytes32"
        }
      ],
      "name": "RoleAdminChanged",
      "type": "event"
    },
    {
      "anonymous": false,
      "inputs": [
        {
          "indexed": true,
          "internalType": "bytes32",
          "name": "role",
          "type": "bytes32"
        },
        {
          "indexed": true,
          "internalType": "address",
          "name": "account",
          "type": "address"
        },
        {
          "indexed": true,
          "internalType": "address",
          "name": "sender",
          "type": "address"
        }
      ],
      "name": "RoleGranted",
      "type": "event"
    },
    {
      "anonymous": false,
      "inputs": [
        {
          "indexed": true,
          "internalType": "bytes32",
          "name": "role",
          "type": "bytes32"
        },
        {
          "indexed": true,
          "internalType": "address",
          "name": "account",
          "type": "address"
        },
        {
          "indexed": true,
          "internalType": "address",
          "name": "sender",
          "type": "address"
        }
      ],
      "name": "RoleRevoked",
      "type": "event"
    },
    {
      "anonymous": false,
      "inputs": [
        {
          "indexed": true,
          "internalType": "uint256",
          "name": "_tenor",
          "type": "uint256"
        },
        {
          "indexed": false,
          "internalType": "uint256",
          "name": "_timeStamp",
          "type": "uint256"
        },
        {
          "components": [
            {
              "internalType": "uint256",
              "name": "startTime",
              "type": "uint256"
            },
            {
              "internalType": "uint256",
              "name": "endTime",
              "type": "uint256"
            },
            {
              "internalType": "uint256",
              "name": "open",
              "type": "uint256"
            },
            {
              "internalType": "uint256",
              "name": "highest",
              "type": "uint256"
            },
            {
              "internalType": "uint256",
              "name": "lowest",
              "type": "uint256"
            },
            {
              "internalType": "uint256",
              "name": "close",
              "type": "uint256"
            },
            {
              "internalType": "uint256",
              "name": "volatility",
              "type": "uint256"
            },
            {
              "internalType": "uint256",
              "name": "accentus",
              "type": "uint256"
            }
          ],
          "indexed": false,
          "internalType": "struct IVolatilityChain.PriceStamp",
          "name": "_book",
          "type": "tuple"
        }
      ],
      "name": "volatilityChainBlockAdded",
      "type": "event"
    },
    {
      "inputs": [],
      "name": "DEFAULT_ADMIN_ROLE",
      "outputs": [
        {
          "internalType": "bytes32",
          "name": "",
          "type": "bytes32"
        }
      ],
      "stateMutability": "view",
      "type": "function"
    },
    {
      "inputs": [],
      "name": "UPDATE_ROLE",
      "outputs": [
        {
          "internalType": "bytes32",
          "name": "",
          "type": "bytes32"
        }
      ],
      "stateMutability": "view",
      "type": "function"
    },
    {
      "inputs": [],
      "name": "description",
      "outputs": [
        {
          "internalType": "string",
          "name": "",
          "type": "string"
        }
      ],
      "stateMutability": "view",
      "type": "function"
    },
    {
      "inputs": [
        {
          "internalType": "bytes32",
          "name": "role",
          "type": "bytes32"
        }
      ],
      "name": "getRoleAdmin",
      "outputs": [
        {
          "internalType": "bytes32",
          "name": "",
          "type": "bytes32"
        }
      ],
      "stateMutability": "view",
      "type": "function"
    },
    {
      "inputs": [
        {
          "internalType": "bytes32",
          "name": "role",
          "type": "bytes32"
        },
        {
          "internalType": "address",
          "name": "account",
          "type": "address"
        }
      ],
      "name": "grantRole",
      "outputs": [],
      "stateMutability": "nonpayable",
      "type": "function"
    },
    {
      "inputs": [
        {
          "internalType": "bytes32",
          "name": "role",
          "type": "bytes32"
        },
        {
          "internalType": "address",
          "name": "account",
          "type": "address"
        }
      ],
      "name": "hasRole",
      "outputs": [
        {
          "internalType": "bool",
          "name": "",
          "type": "bool"
        }
      ],
      "stateMutability": "view",
      "type": "function"
    },
    {
      "inputs": [
        {
          "internalType": "uint256",
          "name": "",
          "type": "uint256"
        }
      ],
      "name": "latestBookTime",
      "outputs": [
        {
          "internalType": "uint256",
          "name": "",
          "type": "uint256"
        }
      ],
      "stateMutability": "view",
      "type": "function"
    },
    {
      "inputs": [],
      "name": "owner",
      "outputs": [
        {
          "internalType": "address",
          "name": "",
          "type": "address"
        }
      ],
      "stateMutability": "view",
      "type": "function"
    },
    {
      "inputs": [],
      "name": "renounceOwnership",
      "outputs": [],
      "stateMutability": "nonpayable",
      "type": "function"
    },
    {
      "inputs": [
        {
          "internalType": "bytes32",
          "name": "role",
          "type": "bytes32"
        },
        {
          "internalType": "address",
          "name": "account",
          "type": "address"
        }
      ],
      "name": "renounceRole",
      "outputs": [],
      "stateMutability": "nonpayable",
      "type": "function"
    },
    {
      "inputs": [
        {
          "internalType": "bytes32",
          "name": "role",
          "type": "bytes32"
        },
        {
          "internalType": "address",
          "name": "account",
          "type": "address"
        }
      ],
      "name": "revokeRole",
      "outputs": [],
      "stateMutability": "nonpayable",
      "type": "function"
    },
    {
      "inputs": [
        {
          "internalType": "bytes4",
          "name": "interfaceId",
          "type": "bytes4"
        }
      ],
      "name": "supportsInterface",
      "outputs": [
        {
          "internalType": "bool",
          "name": "",
          "type": "bool"
        }
      ],
      "stateMutability": "view",
      "type": "function"
    },
    {
      "inputs": [],
      "name": "tokenHash",
      "outputs": [
        {
          "internalType": "bytes32",
          "name": "",
          "type": "bytes32"
        }
      ],
      "stateMutability": "view",
      "type": "function"
    },
    {
      "inputs": [
        {
          "internalType": "address",
          "name": "newOwner",
          "type": "address"
        }
      ],
      "name": "transferOwnership",
      "outputs": [],
      "stateMutability": "nonpayable",
      "type": "function"
    },
    {
      "inputs": [],
      "name": "volParamDecimals",
      "outputs": [
        {
          "internalType": "uint256",
          "name": "",
          "type": "uint256"
        }
      ],
      "stateMutability": "view",
      "type": "function"
    },
    {
      "inputs": [
        {
          "internalType": "uint256",
          "name": "",
          "type": "uint256"
        }
      ],
      "name": "volatilityParameters",
      "outputs": [
        {
          "internalType": "uint256",
          "name": "initialVol",
          "type": "uint256"
        },
        {
          "internalType": "uint256",
          "name": "ltVol",
          "type": "uint256"
        },
        {
          "internalType": "uint256",
          "name": "ltVolWeighted",
          "type": "uint256"
        },
        {
          "internalType": "uint256",
          "name": "w",
          "type": "uint256"
        },
        {
          "internalType": "uint256",
          "name": "p",
          "type": "uint256"
        },
        {
          "internalType": "uint256",
          "name": "q",
          "type": "uint256"
        }
      ],
      "stateMutability": "view",
      "type": "function"
    },
    {
      "inputs": [],
      "name": "volatilityUpdateCounter",
      "outputs": [
        {
          "internalType": "uint256",
          "name": "",
          "type": "uint256"
        }
      ],
      "stateMutability": "view",
      "type": "function"
    },
    {
      "inputs": [],
      "name": "volatilityUpdateTime",
      "outputs": [
        {
          "internalType": "uint256",
          "name": "",
          "type": "uint256"
        }
      ],
      "stateMutability": "view",
      "type": "function"
    },
    {
      "inputs": [
        {
          "internalType": "uint256",
          "name": "_tenor",
          "type": "uint256"
        }
      ],
      "name": "getVol",
      "outputs": [
        {
          "internalType": "uint256",
          "name": "",
          "type": "uint256"
        }
      ],
      "stateMutability": "view",
      "type": "function"
    },
    {
      "inputs": [],
      "name": "queryPrice",
      "outputs": [
        {
          "internalType": "uint256",
          "name": "",
          "type": "uint256"
        },
        {
          "internalType": "uint256",
          "name": "",
          "type": "uint256"
        },
        {
          "internalType": "uint256",
          "name": "",
          "type": "uint256"
        }
      ],
      "stateMutability": "view",
      "type": "function"
    },
    {
      "inputs": [],
      "name": "update",
      "outputs": [],
      "stateMutability": "nonpayable",
      "type": "function"
    },
    {
      "inputs": [
        {
          "internalType": "uint256",
          "name": "_tenor",
          "type": "uint256"
        },
        {
          "components": [
            {
              "internalType": "uint256",
              "name": "initialVol",
              "type": "uint256"
            },
            {
              "internalType": "uint256",
              "name": "ltVol",
              "type": "uint256"
            },
            {
              "internalType": "uint256",
              "name": "ltVolWeighted",
              "type": "uint256"
            },
            {
              "internalType": "uint256",
              "name": "w",
              "type": "uint256"
            },
            {
              "internalType": "uint256",
              "name": "p",
              "type": "uint256"
            },
            {
              "internalType": "uint256",
              "name": "q",
              "type": "uint256"
            }
          ],
          "internalType": "struct IVolatilityChain.VolParam",
          "name": "_volParams",
          "type": "tuple"
        }
      ],
      "name": "resetVolParams",
      "outputs": [],
      "stateMutability": "nonpayable",
      "type": "function"
    },
    {
      "inputs": [
        {
          "internalType": "uint256",
          "name": "_tenor",
          "type": "uint256"
        }
      ],
      "name": "removeTenor",
      "outputs": [],
      "stateMutability": "nonpayable",
      "type": "function"
    },
    {
      "inputs": [
        {
          "internalType": "uint256",
          "name": "_tenor",
          "type": "uint256"
        }
      ],
      "name": "getPriceBook",
      "outputs": [
        {
          "components": [
            {
              "internalType": "uint256",
              "name": "startTime",
              "type": "uint256"
            },
            {
              "internalType": "uint256",
              "name": "endTime",
              "type": "uint256"
            },
            {
              "internalType": "uint256",
              "name": "open",
              "type": "uint256"
            },
            {
              "internalType": "uint256",
              "name": "highest",
              "type": "uint256"
            },
            {
              "internalType": "uint256",
              "name": "lowest",
              "type": "uint256"
            },
            {
              "internalType": "uint256",
              "name": "close",
              "type": "uint256"
            },
            {
              "internalType": "uint256",
              "name": "volatility",
              "type": "uint256"
            },
            {
              "internalType": "uint256",
              "name": "accentus",
              "type": "uint256"
            }
          ],
          "internalType": "struct IVolatilityChain.PriceStamp",
          "name": "",
          "type": "tuple"
        }
      ],
      "stateMutability": "view",
      "type": "function"
    },
    {
      "inputs": [],
      "name": "getPriceMultiplier",
      "outputs": [
        {
          "internalType": "uint256",
          "name": "",
          "type": "uint256"
        }
      ],
      "stateMutability": "view",
      "type": "function"
    },
    {
      "inputs": [],
      "name": "getPriceDecimals",
      "outputs": [
        {
          "internalType": "uint256",
          "name": "",
          "type": "uint256"
        }
      ],
      "stateMutability": "view",
      "type": "function"
    },
    {
      "inputs": [],
      "name": "getDecription",
      "outputs": [
        {
          "internalType": "string",
          "name": "",
          "type": "string"
        }
      ],
      "stateMutability": "view",
      "type": "function"
    }
  ],
  "bytecode": "0x60806040523480156200001157600080fd5b50604051620041e3380380620041e383398181016040528101906200003791906200088d565b6000620000496200036760201b60201c565b9050806000806101000a81548173ffffffffffffffffffffffffffffffffffffffff021916908373ffffffffffffffffffffffffffffffffffffffff1602179055508073ffffffffffffffffffffffffffffffffffffffff16600073ffffffffffffffffffffffffffffffffffffffff167f8be0079c531659141344cd1fd0a4f28419497f9722a3daafe3b4186f6b6457e060405160405180910390a350620000fc6000801b336200036f60201b60201c565b6200012e7f3ee192ac25847473237ced4bba57f848e1fd794930ff85b42823290580967205336200036f60201b60201c565b8060405160200162000141919062000955565b604051602081830303815290604052805190602001206003819055506200017b6201518060056200038560201b62001c441790919060201c565b5082600260006101000a81548173ffffffffffffffffffffffffffffffffffffffff021916908373ffffffffffffffffffffffffffffffffffffffff160217905550600260009054906101000a900473ffffffffffffffffffffffffffffffffffffffff1673ffffffffffffffffffffffffffffffffffffffff16637284e4166040518163ffffffff1660e01b815260040160006040518083038186803b1580156200022657600080fd5b505afa1580156200023b573d6000803e3d6000fd5b505050506040513d6000823e3d601f19601f820116820180604052508101906200026691906200096e565b600490805190602001906200027d929190620005a0565b50600260009054906101000a900473ffffffffffffffffffffffffffffffffffffffff1673ffffffffffffffffffffffffffffffffffffffff1663313ce5676040518163ffffffff1660e01b815260040160206040518083038186803b158015620002e757600080fd5b505afa158015620002fc573d6000803e3d6000fd5b505050506040513d601f19601f82011682018060405250810190620003229190620009fd565b60ff16600981905550600954600a6200033c919062000bb2565b600a8190555081600e8190555081600a62000358919062000bb2565b600f8190555050505062000c68565b600033905090565b620003818282620003a760201b60201c565b5050565b60006200039f836000018360001b6200049860201b60201c565b905092915050565b620003b982826200051260201b60201c565b6200049457600180600084815260200190815260200160002060000160008373ffffffffffffffffffffffffffffffffffffffff1673ffffffffffffffffffffffffffffffffffffffff16815260200190815260200160002060006101000a81548160ff021916908315150217905550620004396200036760201b60201c565b73ffffffffffffffffffffffffffffffffffffffff168173ffffffffffffffffffffffffffffffffffffffff16837f2f8788117e7eff1d82e926ec794901d17c78024a50270940304540a733656f0d60405160405180910390a45b5050565b6000620004ac83836200057d60201b60201c565b620005075782600001829080600181540180825580915050600190039060005260206000200160009091909190915055826000018054905083600101600084815260200190815260200160002081905550600190506200050c565b600090505b92915050565b60006001600084815260200190815260200160002060000160008373ffffffffffffffffffffffffffffffffffffffff1673ffffffffffffffffffffffffffffffffffffffff16815260200190815260200160002060009054906101000a900460ff16905092915050565b600080836001016000848152602001908152602001600020541415905092915050565b828054620005ae9062000c32565b90600052602060002090601f016020900481019282620005d257600085556200061e565b82601f10620005ed57805160ff19168380011785556200061e565b828001600101855582156200061e579182015b828111156200061d57825182559160200191906001019062000600565b5b5090506200062d919062000631565b5090565b5b808211156200064c57600081600090555060010162000632565b5090565b6000604051905090565b600080fd5b600080fd5b600073ffffffffffffffffffffffffffffffffffffffff82169050919050565b6000620006918262000664565b9050919050565b620006a38162000684565b8114620006af57600080fd5b50565b600081519050620006c38162000698565b92915050565b6000819050919050565b620006de81620006c9565b8114620006ea57600080fd5b50565b600081519050620006fe81620006d3565b92915050565b600080fd5b600080fd5b6000601f19601f8301169050919050565b7f4e487b7100000000000000000000000000000000000000000000000000000000600052604160045260246000fd5b62000759826200070e565b810181811067ffffffffffffffff821117156200077b576200077a6200071f565b5b80604052505050565b60006200079062000650565b90506200079e82826200074e565b919050565b600067ffffffffffffffff821115620007c157620007c06200071f565b5b620007cc826200070e565b9050602081019050919050565b60005b83811015620007f9578082015181840152602081019050620007dc565b8381111562000809576000848401525b50505050565b6000620008266200082084620007a3565b62000784565b90508281526020810184848401111562000845576200084462000709565b5b62000852848285620007d9565b509392505050565b600082601f83011262000872576200087162000704565b5b8151620008848482602086016200080f565b91505092915050565b600080600060608486031215620008a957620008a86200065a565b5b6000620008b986828701620006b2565b9350506020620008cc86828701620006ed565b925050604084015167ffffffffffffffff811115620008f057620008ef6200065f565b5b620008fe868287016200085a565b9150509250925092565b600081519050919050565b600081905092915050565b60006200092b8262000908565b62000937818562000913565b935062000949818560208601620007d9565b80840191505092915050565b60006200096382846200091e565b915081905092915050565b6000602082840312156200098757620009866200065a565b5b600082015167ffffffffffffffff811115620009a857620009a76200065f565b5b620009b6848285016200085a565b91505092915050565b600060ff82169050919050565b620009d781620009bf565b8114620009e357600080fd5b50565b600081519050620009f781620009cc565b92915050565b60006020828403121562000a165762000a156200065a565b5b600062000a2684828501620009e6565b91505092915050565b7f4e487b7100000000000000000000000000000000000000000000000000000000600052601160045260246000fd5b60008160011c9050919050565b6000808291508390505b600185111562000abd5780860481111562000a955762000a9462000a2f565b5b600185161562000aa55780820291505b808102905062000ab58562000a5e565b945062000a75565b94509492505050565b60008262000ad8576001905062000bab565b8162000ae8576000905062000bab565b816001811462000b01576002811462000b0c5762000b42565b600191505062000bab565b60ff84111562000b215762000b2062000a2f565b5b8360020a91508482111562000b3b5762000b3a62000a2f565b5b5062000bab565b5060208310610133831016604e8410600b841016171562000b7c5782820a90508381111562000b765762000b7562000a2f565b5b62000bab565b62000b8b848484600162000a6b565b9250905081840481111562000ba55762000ba462000a2f565b5b81810290505b9392505050565b600062000bbf82620006c9565b915062000bcc83620006c9565b925062000bfb7fffffffffffffffffffffffffffffffffffffffffffffffffffffffffffffffff848462000ac6565b905092915050565b7f4e487b7100000000000000000000000000000000000000000000000000000000600052602260045260246000fd5b6000600282049050600182168062000c4b57607f821691505b6020821081141562000c625762000c6162000c03565b5b50919050565b61356b8062000c786000396000f3fe608060405234801561001057600080fd5b50600436106101a85760003560e01c80638da5cb5b116100f9578063bf0a03ca11610097578063dcbc93f811610071578063dcbc93f814610489578063de0a0129146104a7578063f2fde38b146104dc578063fe67ec0c146104f8576101a8565b8063bf0a03ca14610431578063cca494731461044f578063d547741f1461046d576101a8565b806398de7897116100d357806398de7897146103cb578063a217fddf146103e9578063a2e6204514610407578063b0667cf814610411576101a8565b80638da5cb5b1461036157806391d148541461037f578063966e1766146103af576101a8565b80632f2ff15d116101665780636c23852d116101405780636c23852d146102eb578063714f13ee1461031b578063715018a6146103395780637284e41614610343576101a8565b80632f2ff15d1461029557806336568abe146102b15780633dec20f4146102cd576101a8565b8062497846146101ad57806301ffc9a7146101cb578063040b030f146101fb5780631b30aafc1461022b578063248a9ca314610249578063285f945714610279575b600080fd5b6101b5610528565b6040516101c291906125c3565b60405180910390f35b6101e560048036038101906101e09190612645565b61054c565b6040516101f2919061268d565b60405180910390f35b610215600480360381019061021091906126de565b6105c6565b604051610222919061271a565b60405180910390f35b6102336107cd565b604051610240919061271a565b60405180910390f35b610263600480360381019061025e9190612761565b6107d7565b60405161027091906125c3565b60405180910390f35b610293600480360381019061028e91906126de565b6107f7565b005b6102af60048036038101906102aa91906127ec565b6108a8565b005b6102cb60048036038101906102c691906127ec565b6108d1565b005b6102d5610954565b6040516102e2919061271a565b60405180910390f35b610305600480360381019061030091906126de565b61095a565b60405161031291906128dd565b60405180910390f35b610323610a4f565b604051610330919061271a565b60405180910390f35b610341610a55565b005b61034b610b8f565b6040516103589190612992565b60405180910390f35b610369610c1d565b60405161037691906129c3565b60405180910390f35b610399600480360381019061039491906127ec565b610c46565b6040516103a6919061268d565b60405180910390f35b6103c960048036038101906103c49190612afe565b610cb1565b005b6103d3611027565b6040516103e09190612992565b60405180910390f35b6103f16110b9565b6040516103fe91906125c3565b60405180910390f35b61040f6110c0565b005b610419611947565b60405161042893929190612b3e565b60405180910390f35b610439611a08565b604051610446919061271a565b60405180910390f35b610457611a12565b60405161046491906125c3565b60405180910390f35b610487600480360381019061048291906127ec565b611a18565b005b610491611a41565b60405161049e919061271a565b60405180910390f35b6104c160048036038101906104bc91906126de565b611a47565b6040516104d396959493929190612b75565b60405180910390f35b6104f660048036038101906104f19190612bd6565b611a83565b005b610512600480360381019061050d91906126de565b611c2c565b60405161051f919061271a565b60405180910390f35b7f3ee192ac25847473237ced4bba57f848e1fd794930ff85b4282329058096720581565b60007f7965db0b000000000000000000000000000000000000000000000000000000007bffffffffffffffffffffffffffffffffffffffffffffffffffffffff1916827bffffffffffffffffffffffffffffffffffffffffffffffffffffffff191614806105bf57506105be82611c5e565b5b9050919050565b600080600090506105e1836005611cc890919063ffffffff16565b1561062457600760008481526020019081526020016000206000600860008681526020019081526020016000205481526020019081526020016000206006015490505b610638836005611cc890919063ffffffff16565b6107c45760008060008060005b61064f6005611ce2565b81101561074057600061066c826005611cf790919063ffffffff16565b905088811180156106875750858110806106865750600086145b5b156106cd57809550600760008281526020019081526020016000206000600860008481526020019081526020016000205481526020019081526020016000206006015493505b88811080156106e65750848111806106e55750600085145b5b1561072c57809450600760008281526020019081526020016000206000600860008481526020019081526020016000205481526020019081526020016000206006015492505b50808061073890612c32565b915050610645565b50600084141561074e578094505b600083141561075b578194505b60008411801561076b5750600083115b156107bf576107918284896107809190612c7b565b858761078c9190612c7b565b611d11565b6107b28289876107a19190612c7b565b86886107ad9190612c7b565b611d11565b6107bc9190612caf565b94505b505050505b80915050919050565b6000600954905090565b600060016000838152602001908152602001600020600101549050919050565b6107ff611e0d565b73ffffffffffffffffffffffffffffffffffffffff1661081d610c1d565b73ffffffffffffffffffffffffffffffffffffffff1614610873576040517f08c379a000000000000000000000000000000000000000000000000000000000815260040161086a90612d51565b60405180910390fd5b610887816005611cc890919063ffffffff16565b61089057600080fd5b6108a4816005611e1590919063ffffffff16565b5050565b6108b1826107d7565b6108c2816108bd611e0d565b611e2f565b6108cc8383611ecc565b505050565b6108d9611e0d565b73ffffffffffffffffffffffffffffffffffffffff168173ffffffffffffffffffffffffffffffffffffffff1614610946576040517f08c379a000000000000000000000000000000000000000000000000000000000815260040161093d90612de3565b60405180910390fd5b6109508282611fac565b5050565b600e5481565b610962612565565b610976826005611cc890919063ffffffff16565b6109b5576040517f08c379a00000000000000000000000000000000000000000000000000000000081526004016109ac90612e75565b60405180910390fd5b6007600083815260200190815260200160002060006008600085815260200190815260200160002054815260200190815260200160002060405180610100016040529081600082015481526020016001820154815260200160028201548152602001600382015481526020016004820154815260200160058201548152602001600682015481526020016007820154815250509050919050565b600b5481565b610a5d611e0d565b73ffffffffffffffffffffffffffffffffffffffff16610a7b610c1d565b73ffffffffffffffffffffffffffffffffffffffff1614610ad1576040517f08c379a0000000000000000000000000000000000000000000000000000000008152600401610ac890612d51565b60405180910390fd5b600073ffffffffffffffffffffffffffffffffffffffff1660008054906101000a900473ffffffffffffffffffffffffffffffffffffffff1673ffffffffffffffffffffffffffffffffffffffff167f8be0079c531659141344cd1fd0a4f28419497f9722a3daafe3b4186f6b6457e060405160405180910390a360008060006101000a81548173ffffffffffffffffffffffffffffffffffffffff021916908373ffffffffffffffffffffffffffffffffffffffff160217905550565b60048054610b9c90612ec4565b80601f0160208091040260200160405190810160405280929190818152602001828054610bc890612ec4565b8015610c155780601f10610bea57610100808354040283529160200191610c15565b820191906000526020600020905b815481529060010190602001808311610bf857829003601f168201915b505050505081565b60008060009054906101000a900473ffffffffffffffffffffffffffffffffffffffff16905090565b60006001600084815260200190815260200160002060000160008373ffffffffffffffffffffffffffffffffffffffff1673ffffffffffffffffffffffffffffffffffffffff16815260200190815260200160002060009054906101000a900460ff16905092915050565b610cb9611e0d565b73ffffffffffffffffffffffffffffffffffffffff16610cd7610c1d565b73ffffffffffffffffffffffffffffffffffffffff1614610d2d576040517f08c379a0000000000000000000000000000000000000000000000000000000008152600401610d2490612d51565b60405180910390fd5b610d41826005611cc890919063ffffffff16565b610d4a57600080fd5b600f548160a0015182608001518360600151610d669190612caf565b610d709190612caf565b14610d7a57600080fd5b80600d6000848152602001908152602001600020600082015181600001556020820151816001015560408201518160020155606082015181600301556080820151816004015560a08201518160050155905050610e27600d600084815260200190815260200160002060010154600d600085815260200190815260200160002060010154610e089190612ef6565b600d600085815260200190815260200160002060030154600f54611d11565b600d600084815260200190815260200160002060020181905550600080600260009054906101000a900473ffffffffffffffffffffffffffffffffffffffff1673ffffffffffffffffffffffffffffffffffffffff1663feaf968c6040518163ffffffff1660e01b815260040160a06040518083038186803b158015610eac57600080fd5b505afa158015610ec0573d6000803e3d6000fd5b505050506040513d601f19601f82011682018060405250810190610ee49190612fdd565b5093505092505060008290508160086000878152602001908152602001600020819055508160076000878152602001908152602001600020600084815260200190815260200160002060000181905550600d6000868152602001908152602001600020600001546007600087815260200190815260200160002060008481526020019081526020016000206007018190556007600087815260200190815260200160002060008481526020019081526020016000206006018190555080600760008781526020019081526020016000206000848152602001908152602001600020600401819055600760008781526020019081526020016000206000848152602001908152602001600020600301819055600760008781526020019081526020016000206000848152602001908152602001600020600201819055505050505050565b60606004805461103690612ec4565b80601f016020809104026020016040519081016040528092919081815260200182805461106290612ec4565b80156110af5780601f10611084576101008083540402835291602001916110af565b820191906000526020600020905b81548152906001019060200180831161109257829003601f168201915b5050505050905090565b6000801b81565b7f3ee192ac25847473237ced4bba57f848e1fd794930ff85b428232905809672056110f2816110ed611e0d565b611e2f565b600080600260009054906101000a900473ffffffffffffffffffffffffffffffffffffffff1673ffffffffffffffffffffffffffffffffffffffff1663feaf968c6040518163ffffffff1660e01b815260040160a06040518083038186803b15801561115d57600080fd5b505afa158015611171573d6000803e3d6000fd5b505050506040513d601f19601f820116820180604052508101906111959190612fdd565b50935050925050600082905060005b6111ae6005611ce2565b8110156119215760006111cb826005611cf790919063ffffffff16565b9050600760008281526020019081526020016000206000600860008481526020019081526020016000205481526020019081526020016000206003015483111561124f578260076000838152602001908152602001600020600060086000858152602001908152602001600020548152602001908152602001600020600301819055505b60076000828152602001908152602001600020600060086000848152602001908152602001600020548152602001908152602001600020600401548310156112d1578260076000838152602001908152602001600020600060086000858152602001908152602001600020548152602001908152602001600020600401819055505b8060086000838152602001908152602001600020546112f09190612caf565b841061190d57836007600083815260200190815260200160002060006008600085815260200190815260200160002054815260200190815260200160002060010181905550826007600083815260200190815260200160002060006008600085815260200190815260200160002054815260200190815260200160002060050181905550600083600760008481526020019081526020016000206000600860008681526020019081526020016000205481526020019081526020016000206002015410611410576113fe84600a546007600086815260200190815260200160002060006008600088815260200190815260200160002054815260200190815260200160002060020154611d11565b600a5461140b9190612c7b565b611465565b600a5461145a85600a546007600087815260200190815260200160002060006008600089815260200190815260200160002054815260200190815260200160002060020154611d11565b6114649190612c7b565b5b9050600061158d600a546114f06007600087815260200190815260200160002060006008600089815260200190815260200160002054815260200190815260200160002060030154600a54600760008981526020019081526020016000206000600860008b815260200190815260200160002054815260200190815260200160002060020154611d11565b6114fa9190612c7b565b61157b6007600087815260200190815260200160002060006008600089815260200190815260200160002054815260200190815260200160002060040154600a54600760008981526020019081526020016000206000600860008b815260200190815260200160002054815260200190815260200160002060020154611d11565b600a546115889190612c7b565b61208e565b905085600760008581526020019081526020016000206000888152602001908152602001600020600001819055506116be611660600760008681526020019081526020016000206000600860008881526020019081526020016000205481526020019081526020016000206006015460076000878152602001908152602001600020600060086000898152602001908152602001600020548152602001908152602001600020600601546116419190612ef6565b600d600087815260200190815260200160002060040154600f54611d11565b61168e848561166f9190612ef6565b600d600088815260200190815260200160002060050154600f54611d11565b600d6000878152602001908152602001600020600201546116af9190612caf565b6116b99190612caf565b6120a8565b600760008581526020019081526020016000206000888152602001908152602001600020600601819055506117ec61178e6007600086815260200190815260200160002060006008600088815260200190815260200160002054815260200190815260200160002060070154600760008781526020019081526020016000206000600860008981526020019081526020016000205481526020019081526020016000206007015461176f9190612ef6565b600d600087815260200190815260200160002060040154600f54611d11565b6117bc838461179d9190612ef6565b600d600088815260200190815260200160002060050154600f54611d11565b600d6000878152602001908152602001600020600201546117dd9190612caf565b6117e79190612caf565b6120a8565b600760008581526020019081526020016000206000888152602001908152602001600020600701819055508460076000858152602001908152602001600020600088815260200190815260200160002060040181905560076000858152602001908152602001600020600088815260200190815260200160002060030181905560076000858152602001908152602001600020600088815260200190815260200160002060020181905550856008600085815260200190815260200160002081905550827d895f12d3f4f2376feff128f39b92005e9748404845000fd7028aa7edf428876007600087815260200190815260200160002060008a8152602001908152602001600020604051611902929190613185565b60405180910390a250505b50808061191990612c32565b9150506111a4565b5081600c81905550600b600081548092919061193c90612c32565b919050555050505050565b6000806000806000600260009054906101000a900473ffffffffffffffffffffffffffffffffffffffff1673ffffffffffffffffffffffffffffffffffffffff1663feaf968c6040518163ffffffff1660e01b815260040160a06040518083038186803b1580156119b757600080fd5b505afa1580156119cb573d6000803e3d6000fd5b505050506040513d601f19601f820116820180604052508101906119ef9190612fdd565b509350509250508181600a549450945094505050909192565b6000600a54905090565b60035481565b611a21826107d7565b611a3281611a2d611e0d565b611e2f565b611a3c8383611fac565b505050565b600c5481565b600d6020528060005260406000206000915090508060000154908060010154908060020154908060030154908060040154908060050154905086565b611a8b611e0d565b73ffffffffffffffffffffffffffffffffffffffff16611aa9610c1d565b73ffffffffffffffffffffffffffffffffffffffff1614611aff576040517f08c379a0000000000000000000000000000000000000000000000000000000008152600401611af690612d51565b60405180910390fd5b600073ffffffffffffffffffffffffffffffffffffffff168173ffffffffffffffffffffffffffffffffffffffff161415611b6f576040517f08c379a0000000000000000000000000000000000000000000000000000000008152600401611b6690613221565b60405180910390fd5b8073ffffffffffffffffffffffffffffffffffffffff1660008054906101000a900473ffffffffffffffffffffffffffffffffffffffff1673ffffffffffffffffffffffffffffffffffffffff167f8be0079c531659141344cd1fd0a4f28419497f9722a3daafe3b4186f6b6457e060405160405180910390a3806000806101000a81548173ffffffffffffffffffffffffffffffffffffffff021916908373ffffffffffffffffffffffffffffffffffffffff16021790555050565b60086020528060005260406000206000915090505481565b6000611c56836000018360001b612105565b905092915050565b60007f01ffc9a7000000000000000000000000000000000000000000000000000000007bffffffffffffffffffffffffffffffffffffffffffffffffffffffff1916827bffffffffffffffffffffffffffffffffffffffffffffffffffffffff1916149050919050565b6000611cda836000018360001b612175565b905092915050565b6000611cf082600001612198565b9050919050565b6000611d0683600001836121a9565b60001c905092915050565b600080600080198587098587029250828110838203039150506000811415611d4c5760008411611d4057600080fd5b83820492505050611e06565b808411611d5857600080fd5b60008486880990508281118203915080830392506000856001877fffffffffffffffffffffffffffffffffffffffffffffffffffffffffffffffff0301169050808604955080840493506001818260000304019050808302841793506000600287600302189050808702600203810290508087026002038102905080870260020381029050808702600203810290508087026002038102905080870260020381029050808502955050505050505b9392505050565b600033905090565b6000611e27836000018360001b61221d565b905092915050565b611e398282610c46565b611ec857611e5e8173ffffffffffffffffffffffffffffffffffffffff166014612329565b611e6c8360001c6020612329565b604051602001611e7d929190613315565b6040516020818303038152906040526040517f08c379a0000000000000000000000000000000000000000000000000000000008152600401611ebf9190612992565b60405180910390fd5b5050565b611ed68282610c46565b611fa857600180600084815260200190815260200160002060000160008373ffffffffffffffffffffffffffffffffffffffff1673ffffffffffffffffffffffffffffffffffffffff16815260200190815260200160002060006101000a81548160ff021916908315150217905550611f4d611e0d565b73ffffffffffffffffffffffffffffffffffffffff168173ffffffffffffffffffffffffffffffffffffffff16837f2f8788117e7eff1d82e926ec794901d17c78024a50270940304540a733656f0d60405160405180910390a45b5050565b611fb68282610c46565b1561208a5760006001600084815260200190815260200160002060000160008373ffffffffffffffffffffffffffffffffffffffff1673ffffffffffffffffffffffffffffffffffffffff16815260200190815260200160002060006101000a81548160ff02191690831515021790555061202f611e0d565b73ffffffffffffffffffffffffffffffffffffffff168173ffffffffffffffffffffffffffffffffffffffff16837ff6391f5c32d9c69d2a47ea670b442974b53935d1edc7fd64eb21e047a839171b60405160405180910390a45b5050565b60008183101561209e57816120a0565b825b905092915050565b60008060026001846120ba9190612caf565b6120c4919061337e565b90508291505b818110156120ff5780915060028182856120e4919061337e565b6120ee9190612caf565b6120f8919061337e565b90506120ca565b50919050565b60006121118383612175565b61216a57826000018290806001815401808255809150506001900390600052602060002001600090919091909150558260000180549050836001016000848152602001908152602001600020819055506001905061216f565b600090505b92915050565b600080836001016000848152602001908152602001600020541415905092915050565b600081600001805490509050919050565b6000818360000180549050116121f4576040517f08c379a00000000000000000000000000000000000000000000000000000000081526004016121eb90613421565b60405180910390fd5b82600001828154811061220a57612209613441565b5b9060005260206000200154905092915050565b6000808360010160008481526020019081526020016000205490506000811461231d57600060018261224f9190612c7b565b90506000600186600001805490506122679190612c7b565b9050600086600001828154811061228157612280613441565b5b90600052602060002001549050808760000184815481106122a5576122a4613441565b5b90600052602060002001819055508387600101600083815260200190815260200160002081905550866000018054806122e1576122e0613470565b5b60019003818190600052602060002001600090559055866001016000878152602001908152602001600020600090556001945050505050612323565b60009150505b92915050565b60606000600283600261233c9190612ef6565b6123469190612caf565b67ffffffffffffffff81111561235f5761235e6129e3565b5b6040519080825280601f01601f1916602001820160405280156123915781602001600182028036833780820191505090505b5090507f3000000000000000000000000000000000000000000000000000000000000000816000815181106123c9576123c8613441565b5b60200101907effffffffffffffffffffffffffffffffffffffffffffffffffffffffffffff1916908160001a9053507f78000000000000000000000000000000000000000000000000000000000000008160018151811061242d5761242c613441565b5b60200101907effffffffffffffffffffffffffffffffffffffffffffffffffffffffffffff1916908160001a9053506000600184600261246d9190612ef6565b6124779190612caf565b90505b6001811115612517577f3031323334353637383961626364656600000000000000000000000000000000600f8616601081106124b9576124b8613441565b5b1a60f81b8282815181106124d0576124cf613441565b5b60200101907effffffffffffffffffffffffffffffffffffffffffffffffffffffffffffff1916908160001a905350600485901c9450806125109061349f565b905061247a565b506000841461255b576040517f08c379a000000000000000000000000000000000000000000000000000000000815260040161255290613515565b60405180910390fd5b8091505092915050565b60405180610100016040528060008152602001600081526020016000815260200160008152602001600081526020016000815260200160008152602001600081525090565b6000819050919050565b6125bd816125aa565b82525050565b60006020820190506125d860008301846125b4565b92915050565b6000604051905090565b600080fd5b60007fffffffff0000000000000000000000000000000000000000000000000000000082169050919050565b612622816125ed565b811461262d57600080fd5b50565b60008135905061263f81612619565b92915050565b60006020828403121561265b5761265a6125e8565b5b600061266984828501612630565b91505092915050565b60008115159050919050565b61268781612672565b82525050565b60006020820190506126a2600083018461267e565b92915050565b6000819050919050565b6126bb816126a8565b81146126c657600080fd5b50565b6000813590506126d8816126b2565b92915050565b6000602082840312156126f4576126f36125e8565b5b6000612702848285016126c9565b91505092915050565b612714816126a8565b82525050565b600060208201905061272f600083018461270b565b92915050565b61273e816125aa565b811461274957600080fd5b50565b60008135905061275b81612735565b92915050565b600060208284031215612777576127766125e8565b5b60006127858482850161274c565b91505092915050565b600073ffffffffffffffffffffffffffffffffffffffff82169050919050565b60006127b98261278e565b9050919050565b6127c9816127ae565b81146127d457600080fd5b50565b6000813590506127e6816127c0565b92915050565b60008060408385031215612803576128026125e8565b5b60006128118582860161274c565b9250506020612822858286016127d7565b9150509250929050565b612835816126a8565b82525050565b61010082016000820151612852600085018261282c565b506020820151612865602085018261282c565b506040820151612878604085018261282c565b50606082015161288b606085018261282c565b50608082015161289e608085018261282c565b5060a08201516128b160a085018261282c565b5060c08201516128c460c085018261282c565b5060e08201516128d760e085018261282c565b50505050565b6000610100820190506128f3600083018461283b565b92915050565b600081519050919050565b600082825260208201905092915050565b60005b83811015612933578082015181840152602081019050612918565b83811115612942576000848401525b50505050565b6000601f19601f8301169050919050565b6000612964826128f9565b61296e8185612904565b935061297e818560208601612915565b61298781612948565b840191505092915050565b600060208201905081810360008301526129ac8184612959565b905092915050565b6129bd816127ae565b82525050565b60006020820190506129d860008301846129b4565b92915050565b600080fd5b7f4e487b7100000000000000000000000000000000000000000000000000000000600052604160045260246000fd5b612a1b82612948565b810181811067ffffffffffffffff82111715612a3a57612a396129e3565b5b80604052505050565b6000612a4d6125de565b9050612a598282612a12565b919050565b600060c08284031215612a7457612a736129de565b5b612a7e60c0612a43565b90506000612a8e848285016126c9565b6000830152506020612aa2848285016126c9565b6020830152506040612ab6848285016126c9565b6040830152506060612aca848285016126c9565b6060830152506080612ade848285016126c9565b60808301525060a0612af2848285016126c9565b60a08301525092915050565b60008060e08385031215612b1557612b146125e8565b5b6000612b23858286016126c9565b9250506020612b3485828601612a5e565b9150509250929050565b6000606082019050612b53600083018661270b565b612b60602083018561270b565b612b6d604083018461270b565b949350505050565b600060c082019050612b8a600083018961270b565b612b97602083018861270b565b612ba4604083018761270b565b612bb1606083018661270b565b612bbe608083018561270b565b612bcb60a083018461270b565b979650505050505050565b600060208284031215612bec57612beb6125e8565b5b6000612bfa848285016127d7565b91505092915050565b7f4e487b7100000000000000000000000000000000000000000000000000000000600052601160045260246000fd5b6000612c3d826126a8565b91507fffffffffffffffffffffffffffffffffffffffffffffffffffffffffffffffff821415612c7057612c6f612c03565b5b600182019050919050565b6000612c86826126a8565b9150612c91836126a8565b925082821015612ca457612ca3612c03565b5b828203905092915050565b6000612cba826126a8565b9150612cc5836126a8565b9250827fffffffffffffffffffffffffffffffffffffffffffffffffffffffffffffffff03821115612cfa57612cf9612c03565b5b828201905092915050565b7f4f776e61626c653a2063616c6c6572206973206e6f7420746865206f776e6572600082015250565b6000612d3b602083612904565b9150612d4682612d05565b602082019050919050565b60006020820190508181036000830152612d6a81612d2e565b9050919050565b7f416363657373436f6e74726f6c3a2063616e206f6e6c792072656e6f756e636560008201527f20726f6c657320666f722073656c660000000000000000000000000000000000602082015250565b6000612dcd602f83612904565b9150612dd882612d71565b604082019050919050565b60006020820190508181036000830152612dfc81612dc0565b9050919050565b7f496e707574206f7074696f6e2074656e6f72206973206e6f7420616c6c6f776560008201527f642e000000000000000000000000000000000000000000000000000000000000602082015250565b6000612e5f602283612904565b9150612e6a82612e03565b604082019050919050565b60006020820190508181036000830152612e8e81612e52565b9050919050565b7f4e487b7100000000000000000000000000000000000000000000000000000000600052602260045260246000fd5b60006002820490506001821680612edc57607f821691505b60208210811415612ef057612eef612e95565b5b50919050565b6000612f01826126a8565b9150612f0c836126a8565b9250817fffffffffffffffffffffffffffffffffffffffffffffffffffffffffffffffff0483118215151615612f4557612f44612c03565b5b828202905092915050565b600069ffffffffffffffffffff82169050919050565b612f6f81612f50565b8114612f7a57600080fd5b50565b600081519050612f8c81612f66565b92915050565b6000819050919050565b612fa581612f92565b8114612fb057600080fd5b50565b600081519050612fc281612f9c565b92915050565b600081519050612fd7816126b2565b92915050565b600080600080600060a08688031215612ff957612ff86125e8565b5b600061300788828901612f7d565b955050602061301888828901612fb3565b945050604061302988828901612fc8565b935050606061303a88828901612fc8565b925050608061304b88828901612f7d565b9150509295509295909350565b60008160001c9050919050565b6000819050919050565b600061308261307d83613058565b613065565b9050919050565b6101008201600080830154905061309f8161306f565b6130ac600086018261282c565b50600183015490506130bd8161306f565b6130ca602086018261282c565b50600283015490506130db8161306f565b6130e8604086018261282c565b50600383015490506130f98161306f565b613106606086018261282c565b50600483015490506131178161306f565b613124608086018261282c565b50600583015490506131358161306f565b61314260a086018261282c565b50600683015490506131538161306f565b61316060c086018261282c565b50600783015490506131718161306f565b61317e60e086018261282c565b5050505050565b60006101208201905061319b600083018561270b565b6131a86020830184613089565b9392505050565b7f4f776e61626c653a206e6577206f776e657220697320746865207a65726f206160008201527f6464726573730000000000000000000000000000000000000000000000000000602082015250565b600061320b602683612904565b9150613216826131af565b604082019050919050565b6000602082019050818103600083015261323a816131fe565b9050919050565b600081905092915050565b7f416363657373436f6e74726f6c3a206163636f756e7420000000000000000000600082015250565b6000613282601783613241565b915061328d8261324c565b601782019050919050565b60006132a3826128f9565b6132ad8185613241565b93506132bd818560208601612915565b80840191505092915050565b7f206973206d697373696e6720726f6c6520000000000000000000000000000000600082015250565b60006132ff601183613241565b915061330a826132c9565b601182019050919050565b600061332082613275565b915061332c8285613298565b9150613337826132f2565b91506133438284613298565b91508190509392505050565b7f4e487b7100000000000000000000000000000000000000000000000000000000600052601260045260246000fd5b6000613389826126a8565b9150613394836126a8565b9250826133a4576133a361334f565b5b828204905092915050565b7f456e756d657261626c655365743a20696e646578206f7574206f6620626f756e60008201527f6473000000000000000000000000000000000000000000000000000000000000602082015250565b600061340b602283612904565b9150613416826133af565b604082019050919050565b6000602082019050818103600083015261343a816133fe565b9050919050565b7f4e487b7100000000000000000000000000000000000000000000000000000000600052603260045260246000fd5b7f4e487b7100000000000000000000000000000000000000000000000000000000600052603160045260246000fd5b60006134aa826126a8565b915060008214156134be576134bd612c03565b5b600182039050919050565b7f537472696e67733a20686578206c656e67746820696e73756666696369656e74600082015250565b60006134ff602083612904565b915061350a826134c9565b602082019050919050565b6000602082019050818103600083015261352e816134f2565b905091905056fea26469706673582212200c2b80ecd1c18bd1ba9a4e6e76579e808f756b5c7fa0e9345152e50194b4d3e264736f6c63430008090033",
  "immutableReferences": {},
  "source": "pragma solidity 0.8.9;\n\n/**\n * SPDX-License-Identifier: GPL-3.0-or-later\n * Moret\n * Copyright (C) 2021 Moret\n */\nimport {Ownable} from \"@openzeppelin/contracts/access/Ownable.sol\";\nimport \"@openzeppelin/contracts/utils/math/Math.sol\";\nimport {AccessControl} from \"@openzeppelin/contracts/access/AccessControl.sol\";\nimport \"@openzeppelin/contracts/utils/structs/EnumerableSet.sol\";\nimport \"./FullMath.sol\";\nimport {IVolatilityChain} from \"./MoretInterfaces.sol\";\nimport \"@chainlink/contracts/src/v0.8/interfaces/AggregatorV3Interface.sol\";\n\n contract VolatilityChain is Ownable, AccessControl, IVolatilityChain\n {\n       using EnumerableSet for EnumerableSet.UintSet;\n\n     bytes32 public constant UPDATE_ROLE = keccak256(\"UPDATE_ROLE\");\n\n   AggregatorV3Interface internal priceInterface;\n   bytes32 public tokenHash;\n   string public description;\n\n  EnumerableSet.UintSet tenors;\n\n   mapping(uint256=>mapping(uint256=>PriceStamp)) private priceBook;\n   mapping(uint256=>uint256) public latestBookTime;\n   uint256 internal priceDecimals;\n   uint256 internal priceMultiplier;\n\n    uint256 public volatilityUpdateCounter;\n    uint256 public volatilityUpdateTime;\n    mapping(uint256=> VolParam) public volatilityParameters;\n   uint256 public volParamDecimals;\n   uint256 internal parameterMultiplier;\n\n   constructor(\n     address _priceSourceId,\n     uint256 _parameterDecimals,\n      string memory _tokenName\n     )  {\n\n         _setupRole(DEFAULT_ADMIN_ROLE, msg.sender);\n         _setupRole(UPDATE_ROLE, msg.sender);\n\n         tokenHash = keccak256(abi.encodePacked(_tokenName));\n\n\n      tenors.add(1 days);\n\n      priceInterface = AggregatorV3Interface(_priceSourceId);\n      description = priceInterface.description();\n      priceDecimals = priceInterface.decimals();\n      priceMultiplier = 10 ** priceDecimals;\n\n      volParamDecimals = _parameterDecimals;\n      parameterMultiplier = 10 ** _parameterDecimals;\n\n   }\n\n   function getVol(uint256 _tenor) external override view returns(uint256){\n      uint256 _vol = 0;\n      if(tenors.contains(_tenor)){ _vol = priceBook[_tenor][latestBookTime[_tenor]].volatility;}\n      if(!tenors.contains(_tenor)){\n        uint256 _upperTenor = 0;\n        uint256 _lowerTenor = 0;\n        uint256 _upperVol = 0;\n        uint256 _lowerVol = 0;\n        for(uint i = 0;i< tenors.length();i++){\n          uint256 _tenorI = tenors.at(i);\n          if(_tenorI >_tenor && (_tenorI < _upperTenor || _upperTenor == 0) ){ _upperTenor = _tenorI; _upperVol = priceBook[_tenorI][latestBookTime[_tenorI]].volatility; }\n          if(_tenorI <_tenor && (_tenorI > _lowerTenor || _lowerTenor == 0) ){ _lowerTenor = _tenorI; _lowerVol = priceBook[_tenorI][latestBookTime[_tenorI]].volatility; }}\n        if(_upperTenor == 0) { _vol = _lowerVol;}\n        if(_lowerTenor==0) {_vol = _upperVol;}\n        if(_upperTenor >0 && _lowerTenor >0){ _vol = MulDiv(_lowerVol, _upperTenor - _tenor, _upperTenor - _lowerTenor) + MulDiv(_upperVol, _tenor - _lowerTenor, _upperTenor - _lowerTenor);}\n      }\n      return _vol;}\n\n  function queryPrice() external override view returns(uint256, uint256, uint256){\n      (,int _price,,uint _timeStamp,) = priceInterface.latestRoundData();\n      return (uint256(_price), uint256(_timeStamp), priceMultiplier);\n  }\n\n   function update() external onlyRole(UPDATE_ROLE){\n     (,int _price,,uint _timeStamp,) = priceInterface.latestRoundData();\n     uint256 _updatePrice = uint256(_price);\n\n     for(uint i = 0;i< tenors.length();i++)\n     {\n       uint256 _tenor = tenors.at(i);\n\n       if(_updatePrice > priceBook[_tenor][latestBookTime[_tenor]].highest)\n       {\n         priceBook[_tenor][latestBookTime[_tenor]].highest=_updatePrice;\n       }\n       if(_updatePrice<priceBook[_tenor][latestBookTime[_tenor]].lowest)\n       {\n         priceBook[_tenor][latestBookTime[_tenor]].lowest=_updatePrice;\n       }\n\n       if(_timeStamp>= (latestBookTime[_tenor] + _tenor))\n       {\n         priceBook[_tenor][latestBookTime[_tenor]].endTime = _timeStamp;\n         priceBook[_tenor][latestBookTime[_tenor]].close = _updatePrice;\n\n         uint256 _periodMove = (priceBook[_tenor][latestBookTime[_tenor]].open < _updatePrice)? (MulDiv(_updatePrice, priceMultiplier, priceBook[_tenor][latestBookTime[_tenor]].open) - priceMultiplier) : (priceMultiplier - MulDiv(_updatePrice, priceMultiplier, priceBook[_tenor][latestBookTime[_tenor]].open ));\n         uint256 _largestMove = Math.max(MulDiv(priceBook[_tenor][latestBookTime[_tenor]].highest, priceMultiplier, priceBook[_tenor][latestBookTime[_tenor]].open) - priceMultiplier , priceMultiplier - MulDiv(priceBook[_tenor][latestBookTime[_tenor]].lowest, priceMultiplier, priceBook[_tenor][latestBookTime[_tenor]].open ));\n\n         priceBook[_tenor][_timeStamp].startTime = _timeStamp;\n         priceBook[_tenor][_timeStamp].volatility = Sqrt(volatilityParameters[_tenor].ltVolWeighted + MulDiv(_periodMove * _periodMove, volatilityParameters[_tenor].q, parameterMultiplier) + MulDiv(priceBook[_tenor][latestBookTime[_tenor]].volatility * priceBook[_tenor][latestBookTime[_tenor]].volatility, volatilityParameters[_tenor].p, parameterMultiplier));\n         priceBook[_tenor][_timeStamp].accentus = Sqrt(volatilityParameters[_tenor].ltVolWeighted + MulDiv(_largestMove * _largestMove, volatilityParameters[_tenor].q, parameterMultiplier) + MulDiv(priceBook[_tenor][latestBookTime[_tenor]].accentus * priceBook[_tenor][latestBookTime[_tenor]].accentus, volatilityParameters[_tenor].p, parameterMultiplier));\n         priceBook[_tenor][_timeStamp].open = priceBook[_tenor][_timeStamp].highest = priceBook[_tenor][_timeStamp].lowest = _updatePrice;\n\n         latestBookTime[_tenor] = _timeStamp;\n         emit volatilityChainBlockAdded(_tenor, _timeStamp, priceBook[_tenor][_timeStamp]);\n       }\n\n     }\n\n     volatilityUpdateTime = _timeStamp;\n     volatilityUpdateCounter ++;\n\n   }\n\n   function resetVolParams(uint256 _tenor, VolParam memory _volParams) external onlyOwner{\n       require(tenors.contains(_tenor));\n       require((_volParams.w + _volParams.p + _volParams.q)==parameterMultiplier);\n       volatilityParameters[_tenor] = _volParams;\n       volatilityParameters[_tenor].ltVolWeighted = MulDiv(volatilityParameters[_tenor].ltVol*volatilityParameters[_tenor].ltVol, volatilityParameters[_tenor].w, parameterMultiplier);\n\n       (,int _price,,uint _timeStamp,) = priceInterface.latestRoundData();\n       uint256 _updatePrice = uint256(_price);\n\n       latestBookTime[_tenor] = _timeStamp;\n       priceBook[_tenor][_timeStamp].startTime = _timeStamp;\n       priceBook[_tenor][_timeStamp].volatility = priceBook[_tenor][_timeStamp].accentus = volatilityParameters[_tenor].initialVol;\n       priceBook[_tenor][_timeStamp].open = priceBook[_tenor][_timeStamp].highest = priceBook[_tenor][_timeStamp].lowest = _updatePrice;\n\n   }\n\n   function removeTenor(uint256 _tenor) external onlyOwner{\n     require(tenors.contains(_tenor));\n     tenors.remove(_tenor);\n   }\n\n   function getPriceBook(uint256 _tenor) external view returns(PriceStamp memory){\n        require(tenors.contains(_tenor), \"Input option tenor is not allowed.\");\n       return priceBook[_tenor][latestBookTime[_tenor]];\n   }\n\n   function getPriceMultiplier() external override view returns (uint256){return priceMultiplier;}\n   function getPriceDecimals() external override view returns (uint256) {return priceDecimals;}\n   function getDecription() external override view returns (string memory) {return description;}\n\n }\n",
  "sourcePath": "/Users/mac/Documents/GitHub/moret/contracts/VolatilityChain.sol",
  "compiler": {
    "name": "solc",
    "version": "0.8.9+commit.e5eed63a.Emscripten.clang"
  },
  "schemaVersion": "3.4.3",
  "updatedAt": "2021-10-26T23:07:52.795Z",
  "devdoc": {
    "kind": "dev",
    "methods": {
      "getRoleAdmin(bytes32)": {
        "details": "Returns the admin role that controls `role`. See {grantRole} and {revokeRole}. To change a role's admin, use {_setRoleAdmin}."
      },
      "grantRole(bytes32,address)": {
        "details": "Grants `role` to `account`. If `account` had not been already granted `role`, emits a {RoleGranted} event. Requirements: - the caller must have ``role``'s admin role."
      },
      "hasRole(bytes32,address)": {
        "details": "Returns `true` if `account` has been granted `role`."
      },
      "owner()": {
        "details": "Returns the address of the current owner."
      },
      "renounceOwnership()": {
        "details": "Leaves the contract without owner. It will not be possible to call `onlyOwner` functions anymore. Can only be called by the current owner. NOTE: Renouncing ownership will leave the contract without an owner, thereby removing any functionality that is only available to the owner."
      },
      "renounceRole(bytes32,address)": {
        "details": "Revokes `role` from the calling account. Roles are often managed via {grantRole} and {revokeRole}: this function's purpose is to provide a mechanism for accounts to lose their privileges if they are compromised (such as when a trusted device is misplaced). If the calling account had been granted `role`, emits a {RoleRevoked} event. Requirements: - the caller must be `account`."
      },
      "revokeRole(bytes32,address)": {
        "details": "Revokes `role` from `account`. If `account` had been granted `role`, emits a {RoleRevoked} event. Requirements: - the caller must have ``role``'s admin role."
      },
      "supportsInterface(bytes4)": {
        "details": "See {IERC165-supportsInterface}."
      },
      "transferOwnership(address)": {
        "details": "Transfers ownership of the contract to a new account (`newOwner`). Can only be called by the current owner."
      }
    },
    "version": 1
  },
  "userdoc": {
    "kind": "user",
    "methods": {},
    "version": 1
  }
}