{
  "contractName": "VolatilityChain",
  "abi": [
    {
      "inputs": [
        {
          "internalType": "contract AggregatorV3Interface",
          "name": "_priceSource",
          "type": "address"
        },
        {
          "internalType": "uint256",
          "name": "_parameterDecimals",
          "type": "uint256"
        },
        {
          "internalType": "string",
          "name": "_tokenName",
          "type": "string"
        }
      ],
      "stateMutability": "nonpayable",
      "type": "constructor"
    },
    {
      "anonymous": false,
      "inputs": [
        {
          "indexed": true,
          "internalType": "uint256",
          "name": "_tenor",
          "type": "uint256"
        },
        {
          "indexed": false,
          "internalType": "uint256",
          "name": "_timeStamp",
          "type": "uint256"
        },
        {
          "components": [
            {
              "internalType": "uint256",
              "name": "startTime",
              "type": "uint256"
            },
            {
              "internalType": "uint256",
              "name": "endTime",
              "type": "uint256"
            },
            {
              "internalType": "uint256",
              "name": "open",
              "type": "uint256"
            },
            {
              "internalType": "uint256",
              "name": "highest",
              "type": "uint256"
            },
            {
              "internalType": "uint256",
              "name": "lowest",
              "type": "uint256"
            },
            {
              "internalType": "uint256",
              "name": "close",
              "type": "uint256"
            },
            {
              "internalType": "uint256",
              "name": "volatility",
              "type": "uint256"
            },
            {
              "internalType": "uint256",
              "name": "accentus",
              "type": "uint256"
            }
          ],
          "indexed": false,
          "internalType": "struct IVolatilityChain.PriceStamp",
          "name": "_book",
          "type": "tuple"
        }
      ],
      "name": "NewVolatilityChainBlock",
      "type": "event"
    },
    {
      "anonymous": false,
      "inputs": [
        {
          "indexed": true,
          "internalType": "address",
          "name": "previousOwner",
          "type": "address"
        },
        {
          "indexed": true,
          "internalType": "address",
          "name": "newOwner",
          "type": "address"
        }
      ],
      "name": "OwnershipTransferred",
      "type": "event"
    },
    {
      "anonymous": false,
      "inputs": [
        {
          "indexed": true,
          "internalType": "uint256",
          "name": "_tenor",
          "type": "uint256"
        },
        {
          "indexed": false,
          "internalType": "uint256",
          "name": "_timeStamp",
          "type": "uint256"
        },
        {
          "indexed": false,
          "internalType": "address",
          "name": "_executor",
          "type": "address"
        }
      ],
      "name": "RemovedTenor",
      "type": "event"
    },
    {
      "anonymous": false,
      "inputs": [
        {
          "indexed": true,
          "internalType": "uint256",
          "name": "_tenor",
          "type": "uint256"
        },
        {
          "indexed": false,
          "internalType": "uint256",
          "name": "_timeStamp",
          "type": "uint256"
        },
        {
          "indexed": false,
          "internalType": "address",
          "name": "_executor",
          "type": "address"
        }
      ],
      "name": "ResetParameter",
      "type": "event"
    },
    {
      "anonymous": false,
      "inputs": [
        {
          "indexed": true,
          "internalType": "bytes32",
          "name": "role",
          "type": "bytes32"
        },
        {
          "indexed": true,
          "internalType": "bytes32",
          "name": "previousAdminRole",
          "type": "bytes32"
        },
        {
          "indexed": true,
          "internalType": "bytes32",
          "name": "newAdminRole",
          "type": "bytes32"
        }
      ],
      "name": "RoleAdminChanged",
      "type": "event"
    },
    {
      "anonymous": false,
      "inputs": [
        {
          "indexed": true,
          "internalType": "bytes32",
          "name": "role",
          "type": "bytes32"
        },
        {
          "indexed": true,
          "internalType": "address",
          "name": "account",
          "type": "address"
        },
        {
          "indexed": true,
          "internalType": "address",
          "name": "sender",
          "type": "address"
        }
      ],
      "name": "RoleGranted",
      "type": "event"
    },
    {
      "anonymous": false,
      "inputs": [
        {
          "indexed": true,
          "internalType": "bytes32",
          "name": "role",
          "type": "bytes32"
        },
        {
          "indexed": true,
          "internalType": "address",
          "name": "account",
          "type": "address"
        },
        {
          "indexed": true,
          "internalType": "address",
          "name": "sender",
          "type": "address"
        }
      ],
      "name": "RoleRevoked",
      "type": "event"
    },
    {
      "inputs": [],
      "name": "DEFAULT_ADMIN_ROLE",
      "outputs": [
        {
          "internalType": "bytes32",
          "name": "",
          "type": "bytes32"
        }
      ],
      "stateMutability": "view",
      "type": "function",
      "constant": true
    },
    {
      "inputs": [],
      "name": "UPDATE_ROLE",
      "outputs": [
        {
          "internalType": "bytes32",
          "name": "",
          "type": "bytes32"
        }
      ],
      "stateMutability": "view",
      "type": "function",
      "constant": true
    },
    {
      "inputs": [
        {
          "internalType": "bytes32",
          "name": "role",
          "type": "bytes32"
        }
      ],
      "name": "getRoleAdmin",
      "outputs": [
        {
          "internalType": "bytes32",
          "name": "",
          "type": "bytes32"
        }
      ],
      "stateMutability": "view",
      "type": "function",
      "constant": true
    },
    {
      "inputs": [
        {
          "internalType": "bytes32",
          "name": "role",
          "type": "bytes32"
        },
        {
          "internalType": "address",
          "name": "account",
          "type": "address"
        }
      ],
      "name": "grantRole",
      "outputs": [],
      "stateMutability": "nonpayable",
      "type": "function"
    },
    {
      "inputs": [
        {
          "internalType": "bytes32",
          "name": "role",
          "type": "bytes32"
        },
        {
          "internalType": "address",
          "name": "account",
          "type": "address"
        }
      ],
      "name": "hasRole",
      "outputs": [
        {
          "internalType": "bool",
          "name": "",
          "type": "bool"
        }
      ],
      "stateMutability": "view",
      "type": "function",
      "constant": true
    },
    {
      "inputs": [
        {
          "internalType": "uint256",
          "name": "",
          "type": "uint256"
        }
      ],
      "name": "latestBookTime",
      "outputs": [
        {
          "internalType": "uint256",
          "name": "",
          "type": "uint256"
        }
      ],
      "stateMutability": "view",
      "type": "function",
      "constant": true
    },
    {
      "inputs": [],
      "name": "owner",
      "outputs": [
        {
          "internalType": "address",
          "name": "",
          "type": "address"
        }
      ],
      "stateMutability": "view",
      "type": "function",
      "constant": true
    },
    {
      "inputs": [],
      "name": "renounceOwnership",
      "outputs": [],
      "stateMutability": "nonpayable",
      "type": "function"
    },
    {
      "inputs": [
        {
          "internalType": "bytes32",
          "name": "role",
          "type": "bytes32"
        },
        {
          "internalType": "address",
          "name": "account",
          "type": "address"
        }
      ],
      "name": "renounceRole",
      "outputs": [],
      "stateMutability": "nonpayable",
      "type": "function"
    },
    {
      "inputs": [
        {
          "internalType": "bytes32",
          "name": "role",
          "type": "bytes32"
        },
        {
          "internalType": "address",
          "name": "account",
          "type": "address"
        }
      ],
      "name": "revokeRole",
      "outputs": [],
      "stateMutability": "nonpayable",
      "type": "function"
    },
    {
      "inputs": [
        {
          "internalType": "bytes4",
          "name": "interfaceId",
          "type": "bytes4"
        }
      ],
      "name": "supportsInterface",
      "outputs": [
        {
          "internalType": "bool",
          "name": "",
          "type": "bool"
        }
      ],
      "stateMutability": "view",
      "type": "function",
      "constant": true
    },
    {
      "inputs": [],
      "name": "tokenHash",
      "outputs": [
        {
          "internalType": "bytes32",
          "name": "",
          "type": "bytes32"
        }
      ],
      "stateMutability": "view",
      "type": "function",
      "constant": true
    },
    {
      "inputs": [
        {
          "internalType": "address",
          "name": "newOwner",
          "type": "address"
        }
      ],
      "name": "transferOwnership",
      "outputs": [],
      "stateMutability": "nonpayable",
      "type": "function"
    },
    {
      "inputs": [],
      "name": "volatilityUpdateCounter",
      "outputs": [
        {
          "internalType": "uint256",
          "name": "",
          "type": "uint256"
        }
      ],
      "stateMutability": "view",
      "type": "function",
      "constant": true
    },
    {
      "inputs": [],
      "name": "volatilityUpdateTime",
      "outputs": [
        {
          "internalType": "uint256",
          "name": "",
          "type": "uint256"
        }
      ],
      "stateMutability": "view",
      "type": "function",
      "constant": true
    },
    {
      "inputs": [
        {
          "internalType": "uint256",
          "name": "_tenor",
          "type": "uint256"
        }
      ],
      "name": "getVol",
      "outputs": [
        {
          "internalType": "uint256",
          "name": "_vol",
          "type": "uint256"
        }
      ],
      "stateMutability": "view",
      "type": "function",
      "constant": true
    },
    {
      "inputs": [],
      "name": "queryPrice",
      "outputs": [
        {
          "internalType": "uint256",
          "name": "",
          "type": "uint256"
        },
        {
          "internalType": "uint256",
          "name": "",
          "type": "uint256"
        }
      ],
      "stateMutability": "view",
      "type": "function",
      "constant": true
    },
    {
      "inputs": [],
      "name": "update",
      "outputs": [],
      "stateMutability": "nonpayable",
      "type": "function"
    },
    {
      "inputs": [
        {
          "internalType": "uint256",
          "name": "_tenor",
          "type": "uint256"
        },
        {
          "components": [
            {
              "internalType": "uint256",
              "name": "initialVol",
              "type": "uint256"
            },
            {
              "internalType": "uint256",
              "name": "ltVol",
              "type": "uint256"
            },
            {
              "internalType": "uint256",
              "name": "ltVolWeighted",
              "type": "uint256"
            },
            {
              "internalType": "uint256",
              "name": "w",
              "type": "uint256"
            },
            {
              "internalType": "uint256",
              "name": "p",
              "type": "uint256"
            },
            {
              "internalType": "uint256",
              "name": "q",
              "type": "uint256"
            }
          ],
          "internalType": "struct IVolatilityChain.VolParam",
          "name": "_volParams",
          "type": "tuple"
        }
      ],
      "name": "resetVolParams",
      "outputs": [],
      "stateMutability": "nonpayable",
      "type": "function"
    },
    {
      "inputs": [
        {
          "internalType": "uint256",
          "name": "_tenor",
          "type": "uint256"
        }
      ],
      "name": "removeTenor",
      "outputs": [],
      "stateMutability": "nonpayable",
      "type": "function"
    },
    {
      "inputs": [
        {
          "internalType": "uint256",
          "name": "_tenor",
          "type": "uint256"
        }
      ],
      "name": "getPriceBook",
      "outputs": [
        {
          "components": [
            {
              "internalType": "uint256",
              "name": "startTime",
              "type": "uint256"
            },
            {
              "internalType": "uint256",
              "name": "endTime",
              "type": "uint256"
            },
            {
              "internalType": "uint256",
              "name": "open",
              "type": "uint256"
            },
            {
              "internalType": "uint256",
              "name": "highest",
              "type": "uint256"
            },
            {
              "internalType": "uint256",
              "name": "lowest",
              "type": "uint256"
            },
            {
              "internalType": "uint256",
              "name": "close",
              "type": "uint256"
            },
            {
              "internalType": "uint256",
              "name": "volatility",
              "type": "uint256"
            },
            {
              "internalType": "uint256",
              "name": "accentus",
              "type": "uint256"
            }
          ],
          "internalType": "struct IVolatilityChain.PriceStamp",
          "name": "",
          "type": "tuple"
        }
      ],
      "stateMutability": "view",
      "type": "function",
      "constant": true
    }
  ],
  "bytecode": "0x60e06040523480156200001157600080fd5b506040516200428538038062004285833981810160405281019062000037919062000746565b620000576200004b620001f860201b60201c565b6200020060201b60201c565b6200006c6000801b33620002c460201b60201c565b6200009e7f3ee192ac25847473237ced4bba57f848e1fd794930ff85b4282329058096720533620002c460201b60201c565b8080519060200120600381905550620000ca620151806004620002da60201b62001f781790919060201c565b50620000e962093a806004620002da60201b62001f781790919060201c565b506200010862278d006004620002da60201b62001f781790919060201c565b5082600260006101000a81548173ffffffffffffffffffffffffffffffffffffffff021916908373ffffffffffffffffffffffffffffffffffffffff1602179055508273ffffffffffffffffffffffffffffffffffffffff1663313ce5676040518163ffffffff1660e01b8152600401602060405180830381865afa15801562000196573d6000803e3d6000fd5b505050506040513d601f19601f82011682018060405250810190620001bc9190620007ff565b600a620001ca9190620009b4565b608081815250508160a0818152505081600a620001e8919062000a05565b60c0818152505050505062000a56565b600033905090565b60008060009054906101000a900473ffffffffffffffffffffffffffffffffffffffff169050816000806101000a81548173ffffffffffffffffffffffffffffffffffffffff021916908373ffffffffffffffffffffffffffffffffffffffff1602179055508173ffffffffffffffffffffffffffffffffffffffff168173ffffffffffffffffffffffffffffffffffffffff167f8be0079c531659141344cd1fd0a4f28419497f9722a3daafe3b4186f6b6457e060405160405180910390a35050565b620002d68282620002fc60201b60201c565b5050565b6000620002f4836000018360001b620003ed60201b60201c565b905092915050565b6200030e82826200046760201b60201c565b620003e957600180600084815260200190815260200160002060000160008373ffffffffffffffffffffffffffffffffffffffff1673ffffffffffffffffffffffffffffffffffffffff16815260200190815260200160002060006101000a81548160ff0219169083151502179055506200038e620001f860201b60201c565b73ffffffffffffffffffffffffffffffffffffffff168173ffffffffffffffffffffffffffffffffffffffff16837f2f8788117e7eff1d82e926ec794901d17c78024a50270940304540a733656f0d60405160405180910390a45b5050565b6000620004018383620004d260201b60201c565b6200045c57826000018290806001815401808255809150506001900390600052602060002001600090919091909150558260000180549050836001016000848152602001908152602001600020819055506001905062000461565b600090505b92915050565b60006001600084815260200190815260200160002060000160008373ffffffffffffffffffffffffffffffffffffffff1673ffffffffffffffffffffffffffffffffffffffff16815260200190815260200160002060009054906101000a900460ff16905092915050565b600080836001016000848152602001908152602001600020541415905092915050565b6000604051905090565b600080fd5b600080fd5b600073ffffffffffffffffffffffffffffffffffffffff82169050919050565b6000620005368262000509565b9050919050565b60006200054a8262000529565b9050919050565b6200055c816200053d565b81146200056857600080fd5b50565b6000815190506200057c8162000551565b92915050565b6000819050919050565b620005978162000582565b8114620005a357600080fd5b50565b600081519050620005b7816200058c565b92915050565b600080fd5b600080fd5b6000601f19601f8301169050919050565b7f4e487b7100000000000000000000000000000000000000000000000000000000600052604160045260246000fd5b6200061282620005c7565b810181811067ffffffffffffffff82111715620006345762000633620005d8565b5b80604052505050565b600062000649620004f5565b905062000657828262000607565b919050565b600067ffffffffffffffff8211156200067a5762000679620005d8565b5b6200068582620005c7565b9050602081019050919050565b60005b83811015620006b257808201518184015260208101905062000695565b83811115620006c2576000848401525b50505050565b6000620006df620006d9846200065c565b6200063d565b905082815260208101848484011115620006fe57620006fd620005c2565b5b6200070b84828562000692565b509392505050565b600082601f8301126200072b576200072a620005bd565b5b81516200073d848260208601620006c8565b91505092915050565b600080600060608486031215620007625762000761620004ff565b5b600062000772868287016200056b565b93505060206200078586828701620005a6565b925050604084015167ffffffffffffffff811115620007a957620007a862000504565b5b620007b78682870162000713565b9150509250925092565b600060ff82169050919050565b620007d981620007c1565b8114620007e557600080fd5b50565b600081519050620007f981620007ce565b92915050565b600060208284031215620008185762000817620004ff565b5b60006200082884828501620007e8565b91505092915050565b7f4e487b7100000000000000000000000000000000000000000000000000000000600052601160045260246000fd5b60008160011c9050919050565b6000808291508390505b6001851115620008bf5780860481111562000897576200089662000831565b5b6001851615620008a75780820291505b8081029050620008b78562000860565b945062000877565b94509492505050565b600082620008da5760019050620009ad565b81620008ea5760009050620009ad565b81600181146200090357600281146200090e5762000944565b6001915050620009ad565b60ff84111562000923576200092262000831565b5b8360020a9150848211156200093d576200093c62000831565b5b50620009ad565b5060208310610133831016604e8410600b84101617156200097e5782820a90508381111562000978576200097762000831565b5b620009ad565b6200098d84848460016200086d565b92509050818404811115620009a757620009a662000831565b5b81810290505b9392505050565b6000620009c18262000582565b9150620009ce83620007c1565b9250620009fd7fffffffffffffffffffffffffffffffffffffffffffffffffffffffffffffffff8484620008c8565b905092915050565b600062000a128262000582565b915062000a1f8362000582565b925062000a4e7fffffffffffffffffffffffffffffffffffffffffffffffffffffffffffffffff8484620008c8565b905092915050565b60805160a05160c0516137a062000ae560003960008181610ff2015281816110fe015281816118790152818161192601528181611a750152611b2201526000505060008181610af4015281816114d90152818161155a0152818161158a015281816115c80152818161165b0152818161169d01528181611749015281816117ca0152611dab01526137a06000f3fe608060405234801561001057600080fd5b50600436106101365760003560e01c80638da5cb5b116100b8578063b0667cf81161007c578063b0667cf814610327578063cca4947314610346578063d547741f14610364578063dcbc93f814610380578063f2fde38b1461039e578063fe67ec0c146103ba57610136565b80638da5cb5b1461029557806391d14854146102b3578063966e1766146102e3578063a217fddf146102ff578063a2e620451461031d57610136565b80632f2ff15d116100ff5780632f2ff15d1461020557806336568abe146102215780636c23852d1461023d578063714f13ee1461026d578063715018a61461028b57610136565b80624978461461013b57806301ffc9a714610159578063040b030f14610189578063248a9ca3146101b9578063285f9457146101e9575b600080fd5b6101436103ea565b604051610150919061286e565b60405180910390f35b610173600480360381019061016e91906128f0565b61040e565b6040516101809190612938565b60405180910390f35b6101a3600480360381019061019e9190612989565b610488565b6040516101b091906129c5565b60405180910390f35b6101d360048036038101906101ce9190612a0c565b610b78565b6040516101e0919061286e565b60405180910390f35b61020360048036038101906101fe9190612989565b610b98565b005b61021f600480360381019061021a9190612a97565b610c83565b005b61023b60048036038101906102369190612a97565b610cac565b005b61025760048036038101906102529190612989565b610d2f565b6040516102649190612b88565b60405180910390f35b610275610e24565b60405161028291906129c5565b60405180910390f35b610293610e2a565b005b61029d610eb2565b6040516102aa9190612bb3565b60405180910390f35b6102cd60048036038101906102c89190612a97565b610edb565b6040516102da9190612938565b60405180910390f35b6102fd60048036038101906102f89190612cff565b610f46565b005b610307611306565b604051610314919061286e565b60405180910390f35b61032561130d565b005b61032f611ce6565b60405161033d929190612d3f565b60405180910390f35b61034e611e33565b60405161035b919061286e565b60405180910390f35b61037e60048036038101906103799190612a97565b611e39565b005b610388611e62565b60405161039591906129c5565b60405180910390f35b6103b860048036038101906103b39190612d68565b611e68565b005b6103d460048036038101906103cf9190612989565b611f60565b6040516103e191906129c5565b60405180910390f35b7f3ee192ac25847473237ced4bba57f848e1fd794930ff85b4282329058096720581565b60007f7965db0b000000000000000000000000000000000000000000000000000000007bffffffffffffffffffffffffffffffffffffffffffffffffffffffff1916827bffffffffffffffffffffffffffffffffffffffffffffffffffffffff19161480610481575061048082611f92565b5b9050919050565b600061049e826004611ffc90919063ffffffff16565b156104e55760066000838152602001908152602001600020600060076000858152602001908152602001600020548152602001908152602001600020600601549050610ad5565b60008060006104f46004612016565b905060005b8181101561057157600061051782600461202b90919063ffffffff16565b905086811180156105325750848110806105315750600085145b5b1561053b578094505b86811080156105545750838111806105535750600084145b5b1561055d578093505b50808061056990612dc4565b9150506104f9565b506000831480156105825750600082115b1561073e576000600660008481526020019081526020016000206000600760008681526020019081526020016000205481526020019081526020016000206006015490508073__FullMath______________________________63b3947c1790918873__FullMath______________________________63677342ce90916040518263ffffffff1660e01b815260040161061c9190612e1c565b602060405180830381865af4158015610639573d6000803e3d6000fd5b505050506040513d601f19601f8201168201806040525081019061065d9190612e4c565b8673__FullMath______________________________63677342ce90916040518263ffffffff1660e01b81526004016106969190612e1c565b602060405180830381865af41580156106b3573d6000803e3d6000fd5b505050506040513d601f19601f820116820180604052508101906106d79190612e4c565b6040518463ffffffff1660e01b81526004016106f593929190612e79565b602060405180830381865af4158015610712573d6000803e3d6000fd5b505050506040513d601f19601f820116820180604052508101906107369190612e4c565b945050610ad1565b60008214801561074e5750600083115b1561090a576000600660008581526020019081526020016000206000600760008781526020019081526020016000205481526020019081526020016000206006015490508073__FullMath______________________________63b3947c1790918873__FullMath______________________________63677342ce90916040518263ffffffff1660e01b81526004016107e89190612e1c565b602060405180830381865af4158015610805573d6000803e3d6000fd5b505050506040513d601f19601f820116820180604052508101906108299190612e4c565b8773__FullMath______________________________63677342ce90916040518263ffffffff1660e01b81526004016108629190612e1c565b602060405180830381865af415801561087f573d6000803e3d6000fd5b505050506040513d601f19601f820116820180604052508101906108a39190612e4c565b6040518463ffffffff1660e01b81526004016108c193929190612e79565b602060405180830381865af41580156108de573d6000803e3d6000fd5b505050506040513d601f19601f820116820180604052508101906109029190612e4c565b945050610ad0565b60008311801561091a5750600082115b15610acf57600060066000848152602001908152602001600020600060076000868152602001908152602001600020548152602001908152602001600020600601549050600060066000868152602001908152602001600020600060076000888152602001908152602001600020548152602001908152602001600020600601549050600084866109ab9190612eb0565b90508173__FullMath______________________________63b3947c179091878b6109d69190612eb0565b846040518463ffffffff1660e01b81526004016109f593929190612e79565b602060405180830381865af4158015610a12573d6000803e3d6000fd5b505050506040513d601f19601f82011682018060405250810190610a369190612e4c565b8373__FullMath______________________________63b3947c1790918b8a610a5f9190612eb0565b856040518463ffffffff1660e01b8152600401610a7e93929190612e79565b602060405180830381865af4158015610a9b573d6000803e3d6000fd5b505050506040513d601f19601f82011682018060405250810190610abf9190612e4c565b610ac99190612ee4565b96505050505b5b5b5050505b8073__FullMath______________________________63de7f617090917f00000000000000000000000000000000000000000000000000000000000000006040518363ffffffff1660e01b8152600401610b30929190612f3a565b602060405180830381865af4158015610b4d573d6000803e3d6000fd5b505050506040513d601f19601f82011682018060405250810190610b719190612e4c565b9050919050565b600060016000838152602001908152602001600020600101549050919050565b610ba0612045565b73ffffffffffffffffffffffffffffffffffffffff16610bbe610eb2565b73ffffffffffffffffffffffffffffffffffffffff1614610c14576040517f08c379a0000000000000000000000000000000000000000000000000000000008152600401610c0b90612fc0565b60405180910390fd5b610c28816004611ffc90919063ffffffff16565b610c3157600080fd5b610c4581600461204d90919063ffffffff16565b50807f16525c17fb1186872bcf57b8588cd51b6e0a69ed167b3471bdd67b5ac538c47e4233604051610c78929190612fe0565b60405180910390a250565b610c8c82610b78565b610c9d81610c98612045565b612067565b610ca78383612104565b505050565b610cb4612045565b73ffffffffffffffffffffffffffffffffffffffff168173ffffffffffffffffffffffffffffffffffffffff1614610d21576040517f08c379a0000000000000000000000000000000000000000000000000000000008152600401610d189061307b565b60405180910390fd5b610d2b82826121e4565b5050565b610d37612810565b610d4b826004611ffc90919063ffffffff16565b610d8a576040517f08c379a0000000000000000000000000000000000000000000000000000000008152600401610d819061310d565b60405180910390fd5b6006600083815260200190815260200160002060006007600085815260200190815260200160002054815260200190815260200160002060405180610100016040529081600082015481526020016001820154815260200160028201548152602001600382015481526020016004820154815260200160058201548152602001600682015481526020016007820154815250509050919050565b60085481565b610e32612045565b73ffffffffffffffffffffffffffffffffffffffff16610e50610eb2565b73ffffffffffffffffffffffffffffffffffffffff1614610ea6576040517f08c379a0000000000000000000000000000000000000000000000000000000008152600401610e9d90612fc0565b60405180910390fd5b610eb060006122c6565b565b60008060009054906101000a900473ffffffffffffffffffffffffffffffffffffffff16905090565b60006001600084815260200190815260200160002060000160008373ffffffffffffffffffffffffffffffffffffffff1673ffffffffffffffffffffffffffffffffffffffff16815260200190815260200160002060009054906101000a900460ff16905092915050565b610f4e612045565b73ffffffffffffffffffffffffffffffffffffffff16610f6c610eb2565b73ffffffffffffffffffffffffffffffffffffffff1614610fc2576040517f08c379a0000000000000000000000000000000000000000000000000000000008152600401610fb990612fc0565b60405180910390fd5b610fd6826004611ffc90919063ffffffff16565b610ff057610fee826004611f7890919063ffffffff16565b505b7f00000000000000000000000000000000000000000000000000000000000000008160a001518260800151836060015161102a9190612ee4565b6110349190612ee4565b1461103e57600080fd5b80600a6000848152602001908152602001600020600082015181600001556020820151816001015560408201518160020155606082015181600301556080820151816004015560a08201518160050155905050600a600083815260200190815260200160002060010154600a6000848152602001908152602001600020600101546110c9919061312d565b73__FullMath______________________________63b3947c179091600a6000868152602001908152602001600020600301547f00000000000000000000000000000000000000000000000000000000000000006040518463ffffffff1660e01b815260040161113b93929190612e79565b602060405180830381865af4158015611158573d6000803e3d6000fd5b505050506040513d601f19601f8201168201806040525081019061117c9190612e4c565b600a600084815260200190815260200160002060020181905550600080600260009054906101000a900473ffffffffffffffffffffffffffffffffffffffff1673ffffffffffffffffffffffffffffffffffffffff1663feaf968c6040518163ffffffff1660e01b815260040160a060405180830381865afa158015611206573d6000803e3d6000fd5b505050506040513d601f19601f8201168201806040525081019061122a91906131ff565b50935050925050600061123c8361238a565b905081600760008781526020019081526020016000208190555060006006600087815260200190815260200160002060008481526020019081526020016000209050828160000181905550600a6000878152602001908152602001600020600001548160070181905581600601819055508181600401819055816003018190558160020181905550857f33073e0fef723d5cc9742cff63be784c102d27f12fdbb1a11d3d2404e4a5df5b42336040516112f6929190612fe0565b60405180910390a2505050505050565b6000801b81565b7f3ee192ac25847473237ced4bba57f848e1fd794930ff85b4282329058096720561133f8161133a612045565b612067565b600080600260009054906101000a900473ffffffffffffffffffffffffffffffffffffffff1673ffffffffffffffffffffffffffffffffffffffff1663feaf968c6040518163ffffffff1660e01b815260040160a060405180830381865afa1580156113af573d6000803e3d6000fd5b505050506040513d601f19601f820116820180604052508101906113d391906131ff565b5093505092505060006113e58361238a565b905060006113f36004612016565b905060005b81811015611cbf57600061141682600461202b90919063ffffffff16565b905060006007600083815260200190815260200160002054905060006006600084815260200190815260200160002060008381526020019081526020016000209050806003015486111561146e578581600301819055505b8060040154861015611484578581600401819055505b82826114909190612ee4565b8710611ca9578681600101819055508581600501819055506000816002015490506000878210611588578773__FullMath______________________________63b3947c1790917f0000000000000000000000000000000000000000000000000000000000000000856040518463ffffffff1660e01b815260040161151793929190612e79565b602060405180830381865af4158015611534573d6000803e3d6000fd5b505050506040513d601f19601f820116820180604052508101906115589190612e4c565b7f00000000000000000000000000000000000000000000000000000000000000006115839190612eb0565b611652565b7f00000000000000000000000000000000000000000000000000000000000000008873__FullMath______________________________63b3947c1790917f0000000000000000000000000000000000000000000000000000000000000000866040518463ffffffff1660e01b815260040161160693929190612e79565b602060405180830381865af4158015611623573d6000803e3d6000fd5b505050506040513d601f19601f820116820180604052508101906116479190612e4c565b6116519190612eb0565b5b905060006117f87f0000000000000000000000000000000000000000000000000000000000000000856003015473__FullMath______________________________63b3947c1790917f0000000000000000000000000000000000000000000000000000000000000000886040518463ffffffff1660e01b81526004016116db93929190612e79565b602060405180830381865af41580156116f8573d6000803e3d6000fd5b505050506040513d601f19601f8201168201806040525081019061171c9190612e4c565b6117269190612eb0565b856004015473__FullMath______________________________63b3947c1790917f0000000000000000000000000000000000000000000000000000000000000000886040518463ffffffff1660e01b815260040161178793929190612e79565b602060405180830381865af41580156117a4573d6000803e3d6000fd5b505050506040513d601f19601f820116820180604052508101906117c89190612e4c565b7f00000000000000000000000000000000000000000000000000000000000000006117f39190612eb0565b6123d7565b905060006006600088815260200190815260200160002060008c815260200190815260200160002090506000600a600089815260200190815260200160002090508b826000018190555085600601548660060154611856919061312d565b73__FullMath______________________________63b3947c17909183600401547f00000000000000000000000000000000000000000000000000000000000000006040518463ffffffff1660e01b81526004016118b693929190612e79565b602060405180830381865af41580156118d3573d6000803e3d6000fd5b505050506040513d601f19601f820116820180604052508101906118f79190612e4c565b8485611903919061312d565b73__FullMath______________________________63b3947c17909184600501547f00000000000000000000000000000000000000000000000000000000000000006040518463ffffffff1660e01b815260040161196393929190612e79565b602060405180830381865af4158015611980573d6000803e3d6000fd5b505050506040513d601f19601f820116820180604052508101906119a49190612e4c565b82600201546119b39190612ee4565b6119bd9190612ee4565b73__FullMath______________________________63677342ce90916040518263ffffffff1660e01b81526004016119f59190612e1c565b602060405180830381865af4158015611a12573d6000803e3d6000fd5b505050506040513d601f19601f82011682018060405250810190611a369190612e4c565b826006018190555085600701548660070154611a52919061312d565b73__FullMath______________________________63b3947c17909183600401547f00000000000000000000000000000000000000000000000000000000000000006040518463ffffffff1660e01b8152600401611ab293929190612e79565b602060405180830381865af4158015611acf573d6000803e3d6000fd5b505050506040513d601f19601f82011682018060405250810190611af39190612e4c565b8384611aff919061312d565b73__FullMath______________________________63b3947c17909184600501547f00000000000000000000000000000000000000000000000000000000000000006040518463ffffffff1660e01b8152600401611b5f93929190612e79565b602060405180830381865af4158015611b7c573d6000803e3d6000fd5b505050506040513d601f19601f82011682018060405250810190611ba09190612e4c565b8260020154611baf9190612ee4565b611bb99190612ee4565b73__FullMath______________________________63677342ce90916040518263ffffffff1660e01b8152600401611bf19190612e1c565b602060405180830381865af4158015611c0e573d6000803e3d6000fd5b505050506040513d601f19601f82011682018060405250810190611c329190612e4c565b82600701819055508a826004018190558260030181905582600201819055508b600760008a815260200190815260200160002081905550877facc5a92f422695ec223f46e9e8d944e705858adc9b9bd84eef64b9c3bc462e218d84604051611c9b9291906133a7565b60405180910390a250505050505b5050508080611cb790612dc4565b9150506113f8565b508260098190555060086000815480929190611cda90612dc4565b91905055505050505050565b600080600080600260009054906101000a900473ffffffffffffffffffffffffffffffffffffffff1673ffffffffffffffffffffffffffffffffffffffff1663feaf968c6040518163ffffffff1660e01b815260040160a060405180830381865afa158015611d59573d6000803e3d6000fd5b505050506040513d601f19601f82011682018060405250810190611d7d91906131ff565b50935050925050611d8d8261238a565b73__FullMath______________________________63de7f617090917f00000000000000000000000000000000000000000000000000000000000000006040518363ffffffff1660e01b8152600401611de7929190612f3a565b602060405180830381865af4158015611e04573d6000803e3d6000fd5b505050506040513d601f19601f82011682018060405250810190611e289190612e4c565b819350935050509091565b60035481565b611e4282610b78565b611e5381611e4e612045565b612067565b611e5d83836121e4565b505050565b60095481565b611e70612045565b73ffffffffffffffffffffffffffffffffffffffff16611e8e610eb2565b73ffffffffffffffffffffffffffffffffffffffff1614611ee4576040517f08c379a0000000000000000000000000000000000000000000000000000000008152600401611edb90612fc0565b60405180910390fd5b600073ffffffffffffffffffffffffffffffffffffffff168173ffffffffffffffffffffffffffffffffffffffff161415611f54576040517f08c379a0000000000000000000000000000000000000000000000000000000008152600401611f4b90613443565b60405180910390fd5b611f5d816122c6565b50565b60076020528060005260406000206000915090505481565b6000611f8a836000018360001b6123f1565b905092915050565b60007f01ffc9a7000000000000000000000000000000000000000000000000000000007bffffffffffffffffffffffffffffffffffffffffffffffffffffffff1916827bffffffffffffffffffffffffffffffffffffffffffffffffffffffff1916149050919050565b600061200e836000018360001b612461565b905092915050565b600061202482600001612484565b9050919050565b600061203a8360000183612495565b60001c905092915050565b600033905090565b600061205f836000018360001b6124c0565b905092915050565b6120718282610edb565b612100576120968173ffffffffffffffffffffffffffffffffffffffff1660146125d4565b6120a48360001c60206125d4565b6040516020016120b5929190613575565b6040516020818303038152906040526040517f08c379a00000000000000000000000000000000000000000000000000000000081526004016120f791906135e8565b60405180910390fd5b5050565b61210e8282610edb565b6121e057600180600084815260200190815260200160002060000160008373ffffffffffffffffffffffffffffffffffffffff1673ffffffffffffffffffffffffffffffffffffffff16815260200190815260200160002060006101000a81548160ff021916908315150217905550612185612045565b73ffffffffffffffffffffffffffffffffffffffff168173ffffffffffffffffffffffffffffffffffffffff16837f2f8788117e7eff1d82e926ec794901d17c78024a50270940304540a733656f0d60405160405180910390a45b5050565b6121ee8282610edb565b156122c25760006001600084815260200190815260200160002060000160008373ffffffffffffffffffffffffffffffffffffffff1673ffffffffffffffffffffffffffffffffffffffff16815260200190815260200160002060006101000a81548160ff021916908315150217905550612267612045565b73ffffffffffffffffffffffffffffffffffffffff168173ffffffffffffffffffffffffffffffffffffffff16837ff6391f5c32d9c69d2a47ea670b442974b53935d1edc7fd64eb21e047a839171b60405160405180910390a45b5050565b60008060009054906101000a900473ffffffffffffffffffffffffffffffffffffffff169050816000806101000a81548173ffffffffffffffffffffffffffffffffffffffff021916908373ffffffffffffffffffffffffffffffffffffffff1602179055508173ffffffffffffffffffffffffffffffffffffffff168173ffffffffffffffffffffffffffffffffffffffff167f8be0079c531659141344cd1fd0a4f28419497f9722a3daafe3b4186f6b6457e060405160405180910390a35050565b6000808212156123cf576040517f08c379a00000000000000000000000000000000000000000000000000000000081526004016123c690613656565b60405180910390fd5b819050919050565b6000818310156123e757816123e9565b825b905092915050565b60006123fd8383612461565b61245657826000018290806001815401808255809150506001900390600052602060002001600090919091909150558260000180549050836001016000848152602001908152602001600020819055506001905061245b565b600090505b92915050565b600080836001016000848152602001908152602001600020541415905092915050565b600081600001805490509050919050565b60008260000182815481106124ad576124ac613676565b5b9060005260206000200154905092915050565b600080836001016000848152602001908152602001600020549050600081146125c85760006001826124f29190612eb0565b905060006001866000018054905061250a9190612eb0565b905081811461257957600086600001828154811061252b5761252a613676565b5b906000526020600020015490508087600001848154811061254f5761254e613676565b5b90600052602060002001819055508387600101600083815260200190815260200160002081905550505b8560000180548061258d5761258c6136a5565b5b6001900381819060005260206000200160009055905585600101600086815260200190815260200160002060009055600193505050506125ce565b60009150505b92915050565b6060600060028360026125e7919061312d565b6125f19190612ee4565b67ffffffffffffffff81111561260a57612609612be4565b5b6040519080825280601f01601f19166020018201604052801561263c5781602001600182028036833780820191505090505b5090507f30000000000000000000000000000000000000000000000000000000000000008160008151811061267457612673613676565b5b60200101907effffffffffffffffffffffffffffffffffffffffffffffffffffffffffffff1916908160001a9053507f7800000000000000000000000000000000000000000000000000000000000000816001815181106126d8576126d7613676565b5b60200101907effffffffffffffffffffffffffffffffffffffffffffffffffffffffffffff1916908160001a90535060006001846002612718919061312d565b6127229190612ee4565b90505b60018111156127c2577f3031323334353637383961626364656600000000000000000000000000000000600f86166010811061276457612763613676565b5b1a60f81b82828151811061277b5761277a613676565b5b60200101907effffffffffffffffffffffffffffffffffffffffffffffffffffffffffffff1916908160001a905350600485901c9450806127bb906136d4565b9050612725565b5060008414612806576040517f08c379a00000000000000000000000000000000000000000000000000000000081526004016127fd9061374a565b60405180910390fd5b8091505092915050565b60405180610100016040528060008152602001600081526020016000815260200160008152602001600081526020016000815260200160008152602001600081525090565b6000819050919050565b61286881612855565b82525050565b6000602082019050612883600083018461285f565b92915050565b6000604051905090565b600080fd5b60007fffffffff0000000000000000000000000000000000000000000000000000000082169050919050565b6128cd81612898565b81146128d857600080fd5b50565b6000813590506128ea816128c4565b92915050565b60006020828403121561290657612905612893565b5b6000612914848285016128db565b91505092915050565b60008115159050919050565b6129328161291d565b82525050565b600060208201905061294d6000830184612929565b92915050565b6000819050919050565b61296681612953565b811461297157600080fd5b50565b6000813590506129838161295d565b92915050565b60006020828403121561299f5761299e612893565b5b60006129ad84828501612974565b91505092915050565b6129bf81612953565b82525050565b60006020820190506129da60008301846129b6565b92915050565b6129e981612855565b81146129f457600080fd5b50565b600081359050612a06816129e0565b92915050565b600060208284031215612a2257612a21612893565b5b6000612a30848285016129f7565b91505092915050565b600073ffffffffffffffffffffffffffffffffffffffff82169050919050565b6000612a6482612a39565b9050919050565b612a7481612a59565b8114612a7f57600080fd5b50565b600081359050612a9181612a6b565b92915050565b60008060408385031215612aae57612aad612893565b5b6000612abc858286016129f7565b9250506020612acd85828601612a82565b9150509250929050565b612ae081612953565b82525050565b61010082016000820151612afd6000850182612ad7565b506020820151612b106020850182612ad7565b506040820151612b236040850182612ad7565b506060820151612b366060850182612ad7565b506080820151612b496080850182612ad7565b5060a0820151612b5c60a0850182612ad7565b5060c0820151612b6f60c0850182612ad7565b5060e0820151612b8260e0850182612ad7565b50505050565b600061010082019050612b9e6000830184612ae6565b92915050565b612bad81612a59565b82525050565b6000602082019050612bc86000830184612ba4565b92915050565b600080fd5b6000601f19601f8301169050919050565b7f4e487b7100000000000000000000000000000000000000000000000000000000600052604160045260246000fd5b612c1c82612bd3565b810181811067ffffffffffffffff82111715612c3b57612c3a612be4565b5b80604052505050565b6000612c4e612889565b9050612c5a8282612c13565b919050565b600060c08284031215612c7557612c74612bce565b5b612c7f60c0612c44565b90506000612c8f84828501612974565b6000830152506020612ca384828501612974565b6020830152506040612cb784828501612974565b6040830152506060612ccb84828501612974565b6060830152506080612cdf84828501612974565b60808301525060a0612cf384828501612974565b60a08301525092915050565b60008060e08385031215612d1657612d15612893565b5b6000612d2485828601612974565b9250506020612d3585828601612c5f565b9150509250929050565b6000604082019050612d5460008301856129b6565b612d6160208301846129b6565b9392505050565b600060208284031215612d7e57612d7d612893565b5b6000612d8c84828501612a82565b91505092915050565b7f4e487b7100000000000000000000000000000000000000000000000000000000600052601160045260246000fd5b6000612dcf82612953565b91507fffffffffffffffffffffffffffffffffffffffffffffffffffffffffffffffff821415612e0257612e01612d95565b5b600182019050919050565b612e1681612953565b82525050565b6000602082019050612e316000830184612e0d565b92915050565b600081519050612e468161295d565b92915050565b600060208284031215612e6257612e61612893565b5b6000612e7084828501612e37565b91505092915050565b6000606082019050612e8e6000830186612e0d565b612e9b6020830185612e0d565b612ea86040830184612e0d565b949350505050565b6000612ebb82612953565b9150612ec683612953565b925082821015612ed957612ed8612d95565b5b828203905092915050565b6000612eef82612953565b9150612efa83612953565b9250827fffffffffffffffffffffffffffffffffffffffffffffffffffffffffffffffff03821115612f2f57612f2e612d95565b5b828201905092915050565b6000604082019050612f4f6000830185612e0d565b612f5c6020830184612e0d565b9392505050565b600082825260208201905092915050565b7f4f776e61626c653a2063616c6c6572206973206e6f7420746865206f776e6572600082015250565b6000612faa602083612f63565b9150612fb582612f74565b602082019050919050565b60006020820190508181036000830152612fd981612f9d565b9050919050565b6000604082019050612ff560008301856129b6565b6130026020830184612ba4565b9392505050565b7f416363657373436f6e74726f6c3a2063616e206f6e6c792072656e6f756e636560008201527f20726f6c657320666f722073656c660000000000000000000000000000000000602082015250565b6000613065602f83612f63565b915061307082613009565b604082019050919050565b6000602082019050818103600083015261309481613058565b9050919050565b7f496e707574206f7074696f6e2074656e6f72206973206e6f7420616c6c6f776560008201527f642e000000000000000000000000000000000000000000000000000000000000602082015250565b60006130f7602283612f63565b91506131028261309b565b604082019050919050565b60006020820190508181036000830152613126816130ea565b9050919050565b600061313882612953565b915061314383612953565b9250817fffffffffffffffffffffffffffffffffffffffffffffffffffffffffffffffff048311821515161561317c5761317b612d95565b5b828202905092915050565b600069ffffffffffffffffffff82169050919050565b6131a681613187565b81146131b157600080fd5b50565b6000815190506131c38161319d565b92915050565b6000819050919050565b6131dc816131c9565b81146131e757600080fd5b50565b6000815190506131f9816131d3565b92915050565b600080600080600060a0868803121561321b5761321a612893565b5b6000613229888289016131b4565b955050602061323a888289016131ea565b945050604061324b88828901612e37565b935050606061325c88828901612e37565b925050608061326d888289016131b4565b9150509295509295909350565b60008160001c9050919050565b6000819050919050565b60006132a461329f8361327a565b613287565b9050919050565b610100820160008083015490506132c181613291565b6132ce6000860182612ad7565b50600183015490506132df81613291565b6132ec6020860182612ad7565b50600283015490506132fd81613291565b61330a6040860182612ad7565b506003830154905061331b81613291565b6133286060860182612ad7565b506004830154905061333981613291565b6133466080860182612ad7565b506005830154905061335781613291565b61336460a0860182612ad7565b506006830154905061337581613291565b61338260c0860182612ad7565b506007830154905061339381613291565b6133a060e0860182612ad7565b5050505050565b6000610120820190506133bd60008301856129b6565b6133ca60208301846132ab565b9392505050565b7f4f776e61626c653a206e6577206f776e657220697320746865207a65726f206160008201527f6464726573730000000000000000000000000000000000000000000000000000602082015250565b600061342d602683612f63565b9150613438826133d1565b604082019050919050565b6000602082019050818103600083015261345c81613420565b9050919050565b600081905092915050565b7f416363657373436f6e74726f6c3a206163636f756e7420000000000000000000600082015250565b60006134a4601783613463565b91506134af8261346e565b601782019050919050565b600081519050919050565b60005b838110156134e35780820151818401526020810190506134c8565b838111156134f2576000848401525b50505050565b6000613503826134ba565b61350d8185613463565b935061351d8185602086016134c5565b80840191505092915050565b7f206973206d697373696e6720726f6c6520000000000000000000000000000000600082015250565b600061355f601183613463565b915061356a82613529565b601182019050919050565b600061358082613497565b915061358c82856134f8565b915061359782613552565b91506135a382846134f8565b91508190509392505050565b60006135ba826134ba565b6135c48185612f63565b93506135d48185602086016134c5565b6135dd81612bd3565b840191505092915050565b6000602082019050818103600083015261360281846135af565b905092915050565b7f53616665436173743a2076616c7565206d75737420626520706f736974697665600082015250565b6000613640602083612f63565b915061364b8261360a565b602082019050919050565b6000602082019050818103600083015261366f81613633565b9050919050565b7f4e487b7100000000000000000000000000000000000000000000000000000000600052603260045260246000fd5b7f4e487b7100000000000000000000000000000000000000000000000000000000600052603160045260246000fd5b60006136df82612953565b915060008214156136f3576136f2612d95565b5b600182039050919050565b7f537472696e67733a20686578206c656e67746820696e73756666696369656e74600082015250565b6000613734602083612f63565b915061373f826136fe565b602082019050919050565b6000602082019050818103600083015261376381613727565b905091905056fea264697066735822122073831f36d01c54ecc2785e25b5f607046c22c0e180dfe8d5a13679d35056516d64736f6c634300080b0033",
  "immutableReferences": {
    "8301": [
      {
        "length": 32,
        "start": 2804
      },
      {
        "length": 32,
        "start": 5337
      },
      {
        "length": 32,
        "start": 5466
      },
      {
        "length": 32,
        "start": 5514
      },
      {
        "length": 32,
        "start": 5576
      },
      {
        "length": 32,
        "start": 5723
      },
      {
        "length": 32,
        "start": 5789
      },
      {
        "length": 32,
        "start": 5961
      },
      {
        "length": 32,
        "start": 6090
      },
      {
        "length": 32,
        "start": 7595
      }
    ],
    "8314": [
      {
        "length": 32,
        "start": 4082
      },
      {
        "length": 32,
        "start": 4350
      },
      {
        "length": 32,
        "start": 6265
      },
      {
        "length": 32,
        "start": 6438
      },
      {
        "length": 32,
        "start": 6773
      },
      {
        "length": 32,
        "start": 6946
      }
    ]
  },
  "source": "// SPDX-License-Identifier: MIT\npragma solidity ^0.8.0;\n\nimport {Ownable} from \"@openzeppelin/contracts/access/Ownable.sol\";\nimport \"@openzeppelin/contracts/utils/math/Math.sol\";\nimport {AccessControl} from \"@openzeppelin/contracts/access/AccessControl.sol\";\nimport \"@openzeppelin/contracts/utils/structs/EnumerableSet.sol\";\nimport \"@openzeppelin/contracts/utils/math/SafeCast.sol\";\nimport \"@chainlink/contracts/src/v0.8/interfaces/AggregatorV3Interface.sol\";\n\nimport \"./FullMath.sol\";\nimport \"./interfaces/IVolatilityChain.sol\";\n\ncontract VolatilityChain is Ownable, AccessControl, IVolatilityChain{\n  using FullMath for uint256;\n  using EnumerableSet for EnumerableSet.UintSet;\n\n  bytes32 public constant UPDATE_ROLE = keccak256(\"UPDATE_ROLE\");\n  AggregatorV3Interface internal priceInterface;\n  bytes32 public tokenHash;\n  EnumerableSet.UintSet tenors;\n\n  mapping(uint256=>mapping(uint256=>PriceStamp)) private priceBook;\n  mapping(uint256=>uint256) public latestBookTime;\n\n  uint256 internal immutable priceMultiplier;\n\n  uint256 public volatilityUpdateCounter;\n  uint256 public volatilityUpdateTime;\n\n  mapping(uint256=> VolParam) internal volatilityParameters;\n  uint256 internal immutable volParamDecimals;\n  uint256 internal immutable parameterMultiplier;\n\n  constructor( AggregatorV3Interface _priceSource, uint256 _parameterDecimals, string memory _tokenName )  {\n    _setupRole(DEFAULT_ADMIN_ROLE, msg.sender);\n    _setupRole(UPDATE_ROLE, msg.sender);\n    tokenHash = keccak256(bytes(_tokenName));\n    tenors.add(1 days);\n    tenors.add(7 days);\n    tenors.add(30 days);\n\n    priceInterface = _priceSource;\n    priceMultiplier = 10 ** _priceSource.decimals();\n    volParamDecimals = _parameterDecimals;\n    parameterMultiplier = 10 ** _parameterDecimals;}\n\n  function getVol(uint256 _tenor) external view returns(uint256 _vol){\n    _vol = 0;\n    if(tenors.contains(_tenor)){ \n      _vol = priceBook[_tenor][latestBookTime[_tenor]].volatility;}\n    else {\n      uint256 _upperTenor = 0;\n      uint256 _lowerTenor = 0;\n      uint _tenorsCount = tenors.length();\n\n      for(uint i = 0;i< _tenorsCount;i++){\n        uint256 _tenorI = tenors.at(i);\n        if(_tenorI >_tenor && (_tenorI < _upperTenor || _upperTenor == 0) ){ \n          _upperTenor = _tenorI; }\n        if(_tenorI <_tenor && (_tenorI > _lowerTenor || _lowerTenor == 0) ){ \n          _lowerTenor = _tenorI; }}\n\n      if(_upperTenor == 0 && _lowerTenor > 0) { \n        uint256 _lowerVol = priceBook[_lowerTenor][latestBookTime[_lowerTenor]].volatility;\n        _vol = _lowerVol.muldiv(_tenor.sqrt() , _lowerTenor.sqrt());}\n      else if(_lowerTenor==0 && _upperTenor > 0) {\n        uint256 _upperVol = priceBook[_upperTenor][latestBookTime[_upperTenor]].volatility;\n        _vol = _upperVol.muldiv( _tenor.sqrt() , _upperTenor.sqrt());}\n      else if(_upperTenor >0 && _lowerTenor >0){ \n        uint256 _lowerVol = priceBook[_lowerTenor][latestBookTime[_lowerTenor]].volatility;\n        uint256 _upperVol = priceBook[_upperTenor][latestBookTime[_upperTenor]].volatility;\n        uint256 _tenorInterval = _upperTenor - _lowerTenor;\n        _vol = _lowerVol.muldiv( _upperTenor - _tenor,  _tenorInterval) + _upperVol.muldiv( _tenor - _lowerTenor, _tenorInterval);}}\n\n      _vol = _vol.ethdiv(priceMultiplier);}\n\n  function queryPrice() external view returns(uint256, uint256){\n    (,int _price,,uint _timeStamp,) = priceInterface.latestRoundData();\n    return (SafeCast.toUint256(_price).ethdiv(priceMultiplier), _timeStamp);}\n\n  function update() external onlyRole(UPDATE_ROLE){\n    (,int _price,,uint _timeStamp,) = priceInterface.latestRoundData();\n    uint256 _updatePrice = SafeCast.toUint256(_price);\n    uint _tenorsCount = tenors.length();\n\n    for(uint i = 0;i< _tenorsCount;i++) {\n      uint256 _tenor = tenors.at(i);\n      uint256 _latestTimeStamp = latestBookTime[_tenor];\n      PriceStamp storage _priceStamp = priceBook[_tenor][_latestTimeStamp];\n      if(_updatePrice > _priceStamp.highest){\n        _priceStamp.highest=_updatePrice;}\n      if(_updatePrice<_priceStamp.lowest){\n         _priceStamp.lowest=_updatePrice;}\n\n      if(_timeStamp>= (_latestTimeStamp + _tenor)){\n        _priceStamp.endTime = _timeStamp;\n        _priceStamp.close = _updatePrice;\n        uint256 _open = _priceStamp.open;\n        uint256 _periodMove = (_open < _updatePrice)? (_updatePrice.muldiv( priceMultiplier, _open) - priceMultiplier) : (priceMultiplier - _updatePrice.muldiv( priceMultiplier, _open ));\n        uint256 _largestMove = Math.max(_priceStamp.highest.muldiv(priceMultiplier, _open) - priceMultiplier , priceMultiplier - _priceStamp.lowest.muldiv( priceMultiplier, _open ));\n\n        PriceStamp storage _newPriceStamp = priceBook[_tenor][_timeStamp];\n        VolParam storage _volParameter = volatilityParameters[_tenor];\n        _newPriceStamp.startTime = _timeStamp;\n        _newPriceStamp.volatility = (_volParameter.ltVolWeighted + (_periodMove * _periodMove).muldiv( _volParameter.q, parameterMultiplier) + (_priceStamp.volatility * _priceStamp.volatility).muldiv( _volParameter.p, parameterMultiplier)).sqrt();\n        _newPriceStamp.accentus = (_volParameter.ltVolWeighted + (_largestMove * _largestMove).muldiv( _volParameter.q, parameterMultiplier) + (_priceStamp.accentus * _priceStamp.accentus).muldiv( _volParameter.p, parameterMultiplier)).sqrt();\n        _newPriceStamp.open = _newPriceStamp.highest = _newPriceStamp.lowest = _updatePrice;\n\n        latestBookTime[_tenor] = _timeStamp;\n        emit NewVolatilityChainBlock(_tenor, _timeStamp, _newPriceStamp);} }\n\n    volatilityUpdateTime = _timeStamp;\n    volatilityUpdateCounter ++;}\n\n  function resetVolParams(uint256 _tenor, VolParam memory _volParams) external onlyOwner{\n    if(!tenors.contains(_tenor)){\n      tenors.add(_tenor);}\n    require((_volParams.w + _volParams.p + _volParams.q)==parameterMultiplier);\n    volatilityParameters[_tenor] = _volParams;\n    volatilityParameters[_tenor].ltVolWeighted = (volatilityParameters[_tenor].ltVol*volatilityParameters[_tenor].ltVol).muldiv( volatilityParameters[_tenor].w, parameterMultiplier);\n\n    (,int _price,,uint _timeStamp,) = priceInterface.latestRoundData();\n    uint256 _updatePrice = SafeCast.toUint256(_price);\n\n    latestBookTime[_tenor] = _timeStamp;\n    PriceStamp storage _priceStamp = priceBook[_tenor][_timeStamp];\n    _priceStamp.startTime = _timeStamp;\n    _priceStamp.volatility = _priceStamp.accentus = volatilityParameters[_tenor].initialVol;\n    _priceStamp.open = _priceStamp.highest = _priceStamp.lowest = _updatePrice;\n    emit ResetParameter(_tenor, block.timestamp, msg.sender);}\n\n  function removeTenor(uint256 _tenor) external onlyOwner{\n    require(tenors.contains(_tenor));\n    tenors.remove(_tenor);\n    emit RemovedTenor(_tenor, block.timestamp, msg.sender);}\n\n  function getPriceBook(uint256 _tenor) external view returns(PriceStamp memory){\n    require(tenors.contains(_tenor), \"Input option tenor is not allowed.\");\n    return priceBook[_tenor][latestBookTime[_tenor]];}\n  }\n",
  "sourcePath": "/Users/mac/Documents/GitHub/moret/contracts/VolatilityChain.sol",
  "compiler": {
    "name": "solc",
    "version": "0.8.11+commit.d7f03943.Emscripten.clang"
  },
  "schemaVersion": "3.4.3",
  "updatedAt": "2022-01-03T13:19:37.580Z",
  "networkType": "ethereum",
  "devdoc": {
    "kind": "dev",
    "methods": {
      "getRoleAdmin(bytes32)": {
        "details": "Returns the admin role that controls `role`. See {grantRole} and {revokeRole}. To change a role's admin, use {_setRoleAdmin}."
      },
      "grantRole(bytes32,address)": {
        "details": "Grants `role` to `account`. If `account` had not been already granted `role`, emits a {RoleGranted} event. Requirements: - the caller must have ``role``'s admin role."
      },
      "hasRole(bytes32,address)": {
        "details": "Returns `true` if `account` has been granted `role`."
      },
      "owner()": {
        "details": "Returns the address of the current owner."
      },
      "renounceOwnership()": {
        "details": "Leaves the contract without owner. It will not be possible to call `onlyOwner` functions anymore. Can only be called by the current owner. NOTE: Renouncing ownership will leave the contract without an owner, thereby removing any functionality that is only available to the owner."
      },
      "renounceRole(bytes32,address)": {
        "details": "Revokes `role` from the calling account. Roles are often managed via {grantRole} and {revokeRole}: this function's purpose is to provide a mechanism for accounts to lose their privileges if they are compromised (such as when a trusted device is misplaced). If the calling account had been revoked `role`, emits a {RoleRevoked} event. Requirements: - the caller must be `account`."
      },
      "revokeRole(bytes32,address)": {
        "details": "Revokes `role` from `account`. If `account` had been granted `role`, emits a {RoleRevoked} event. Requirements: - the caller must have ``role``'s admin role."
      },
      "supportsInterface(bytes4)": {
        "details": "See {IERC165-supportsInterface}."
      },
      "transferOwnership(address)": {
        "details": "Transfers ownership of the contract to a new account (`newOwner`). Can only be called by the current owner."
      }
    },
    "version": 1
  },
  "userdoc": {
    "kind": "user",
    "methods": {},
    "version": 1
  }
}