{
  "contractName": "VolatilityChain",
  "abi": [
    {
      "inputs": [
        {
          "internalType": "address",
          "name": "_priceSourceId",
          "type": "address"
        },
        {
          "internalType": "uint256",
          "name": "_parameterDecimals",
          "type": "uint256"
        },
        {
          "internalType": "string",
          "name": "_tokenName",
          "type": "string"
        }
      ],
      "stateMutability": "nonpayable",
      "type": "constructor"
    },
    {
      "anonymous": false,
      "inputs": [
        {
          "indexed": true,
          "internalType": "address",
          "name": "previousOwner",
          "type": "address"
        },
        {
          "indexed": true,
          "internalType": "address",
          "name": "newOwner",
          "type": "address"
        }
      ],
      "name": "OwnershipTransferred",
      "type": "event"
    },
    {
      "anonymous": false,
      "inputs": [
        {
          "indexed": true,
          "internalType": "bytes32",
          "name": "role",
          "type": "bytes32"
        },
        {
          "indexed": true,
          "internalType": "bytes32",
          "name": "previousAdminRole",
          "type": "bytes32"
        },
        {
          "indexed": true,
          "internalType": "bytes32",
          "name": "newAdminRole",
          "type": "bytes32"
        }
      ],
      "name": "RoleAdminChanged",
      "type": "event"
    },
    {
      "anonymous": false,
      "inputs": [
        {
          "indexed": true,
          "internalType": "bytes32",
          "name": "role",
          "type": "bytes32"
        },
        {
          "indexed": true,
          "internalType": "address",
          "name": "account",
          "type": "address"
        },
        {
          "indexed": true,
          "internalType": "address",
          "name": "sender",
          "type": "address"
        }
      ],
      "name": "RoleGranted",
      "type": "event"
    },
    {
      "anonymous": false,
      "inputs": [
        {
          "indexed": true,
          "internalType": "bytes32",
          "name": "role",
          "type": "bytes32"
        },
        {
          "indexed": true,
          "internalType": "address",
          "name": "account",
          "type": "address"
        },
        {
          "indexed": true,
          "internalType": "address",
          "name": "sender",
          "type": "address"
        }
      ],
      "name": "RoleRevoked",
      "type": "event"
    },
    {
      "anonymous": false,
      "inputs": [
        {
          "indexed": true,
          "internalType": "uint256",
          "name": "_tenor",
          "type": "uint256"
        },
        {
          "indexed": false,
          "internalType": "uint256",
          "name": "_timeStamp",
          "type": "uint256"
        },
        {
          "components": [
            {
              "internalType": "uint256",
              "name": "startTime",
              "type": "uint256"
            },
            {
              "internalType": "uint256",
              "name": "endTime",
              "type": "uint256"
            },
            {
              "internalType": "uint256",
              "name": "open",
              "type": "uint256"
            },
            {
              "internalType": "uint256",
              "name": "highest",
              "type": "uint256"
            },
            {
              "internalType": "uint256",
              "name": "lowest",
              "type": "uint256"
            },
            {
              "internalType": "uint256",
              "name": "close",
              "type": "uint256"
            },
            {
              "internalType": "uint256",
              "name": "volatility",
              "type": "uint256"
            },
            {
              "internalType": "uint256",
              "name": "accentus",
              "type": "uint256"
            }
          ],
          "indexed": false,
          "internalType": "struct IVolatilityChain.PriceStamp",
          "name": "_book",
          "type": "tuple"
        }
      ],
      "name": "volatilityChainBlockAdded",
      "type": "event"
    },
    {
      "inputs": [],
      "name": "DEFAULT_ADMIN_ROLE",
      "outputs": [
        {
          "internalType": "bytes32",
          "name": "",
          "type": "bytes32"
        }
      ],
      "stateMutability": "view",
      "type": "function",
      "constant": true
    },
    {
      "inputs": [],
      "name": "UPDATE_ROLE",
      "outputs": [
        {
          "internalType": "bytes32",
          "name": "",
          "type": "bytes32"
        }
      ],
      "stateMutability": "view",
      "type": "function",
      "constant": true
    },
    {
      "inputs": [],
      "name": "description",
      "outputs": [
        {
          "internalType": "string",
          "name": "",
          "type": "string"
        }
      ],
      "stateMutability": "view",
      "type": "function",
      "constant": true
    },
    {
      "inputs": [
        {
          "internalType": "bytes32",
          "name": "role",
          "type": "bytes32"
        }
      ],
      "name": "getRoleAdmin",
      "outputs": [
        {
          "internalType": "bytes32",
          "name": "",
          "type": "bytes32"
        }
      ],
      "stateMutability": "view",
      "type": "function",
      "constant": true
    },
    {
      "inputs": [
        {
          "internalType": "bytes32",
          "name": "role",
          "type": "bytes32"
        },
        {
          "internalType": "address",
          "name": "account",
          "type": "address"
        }
      ],
      "name": "grantRole",
      "outputs": [],
      "stateMutability": "nonpayable",
      "type": "function"
    },
    {
      "inputs": [
        {
          "internalType": "bytes32",
          "name": "role",
          "type": "bytes32"
        },
        {
          "internalType": "address",
          "name": "account",
          "type": "address"
        }
      ],
      "name": "hasRole",
      "outputs": [
        {
          "internalType": "bool",
          "name": "",
          "type": "bool"
        }
      ],
      "stateMutability": "view",
      "type": "function",
      "constant": true
    },
    {
      "inputs": [
        {
          "internalType": "uint256",
          "name": "",
          "type": "uint256"
        }
      ],
      "name": "latestBookTime",
      "outputs": [
        {
          "internalType": "uint256",
          "name": "",
          "type": "uint256"
        }
      ],
      "stateMutability": "view",
      "type": "function",
      "constant": true
    },
    {
      "inputs": [],
      "name": "owner",
      "outputs": [
        {
          "internalType": "address",
          "name": "",
          "type": "address"
        }
      ],
      "stateMutability": "view",
      "type": "function",
      "constant": true
    },
    {
      "inputs": [],
      "name": "renounceOwnership",
      "outputs": [],
      "stateMutability": "nonpayable",
      "type": "function"
    },
    {
      "inputs": [
        {
          "internalType": "bytes32",
          "name": "role",
          "type": "bytes32"
        },
        {
          "internalType": "address",
          "name": "account",
          "type": "address"
        }
      ],
      "name": "renounceRole",
      "outputs": [],
      "stateMutability": "nonpayable",
      "type": "function"
    },
    {
      "inputs": [
        {
          "internalType": "bytes32",
          "name": "role",
          "type": "bytes32"
        },
        {
          "internalType": "address",
          "name": "account",
          "type": "address"
        }
      ],
      "name": "revokeRole",
      "outputs": [],
      "stateMutability": "nonpayable",
      "type": "function"
    },
    {
      "inputs": [
        {
          "internalType": "bytes4",
          "name": "interfaceId",
          "type": "bytes4"
        }
      ],
      "name": "supportsInterface",
      "outputs": [
        {
          "internalType": "bool",
          "name": "",
          "type": "bool"
        }
      ],
      "stateMutability": "view",
      "type": "function",
      "constant": true
    },
    {
      "inputs": [],
      "name": "tokenHash",
      "outputs": [
        {
          "internalType": "bytes32",
          "name": "",
          "type": "bytes32"
        }
      ],
      "stateMutability": "view",
      "type": "function",
      "constant": true
    },
    {
      "inputs": [
        {
          "internalType": "address",
          "name": "newOwner",
          "type": "address"
        }
      ],
      "name": "transferOwnership",
      "outputs": [],
      "stateMutability": "nonpayable",
      "type": "function"
    },
    {
      "inputs": [],
      "name": "volParamDecimals",
      "outputs": [
        {
          "internalType": "uint256",
          "name": "",
          "type": "uint256"
        }
      ],
      "stateMutability": "view",
      "type": "function",
      "constant": true
    },
    {
      "inputs": [
        {
          "internalType": "uint256",
          "name": "",
          "type": "uint256"
        }
      ],
      "name": "volatilityParameters",
      "outputs": [
        {
          "internalType": "uint256",
          "name": "initialVol",
          "type": "uint256"
        },
        {
          "internalType": "uint256",
          "name": "ltVol",
          "type": "uint256"
        },
        {
          "internalType": "uint256",
          "name": "ltVolWeighted",
          "type": "uint256"
        },
        {
          "internalType": "uint256",
          "name": "w",
          "type": "uint256"
        },
        {
          "internalType": "uint256",
          "name": "p",
          "type": "uint256"
        },
        {
          "internalType": "uint256",
          "name": "q",
          "type": "uint256"
        }
      ],
      "stateMutability": "view",
      "type": "function",
      "constant": true
    },
    {
      "inputs": [],
      "name": "volatilityUpdateCounter",
      "outputs": [
        {
          "internalType": "uint256",
          "name": "",
          "type": "uint256"
        }
      ],
      "stateMutability": "view",
      "type": "function",
      "constant": true
    },
    {
      "inputs": [],
      "name": "volatilityUpdateTime",
      "outputs": [
        {
          "internalType": "uint256",
          "name": "",
          "type": "uint256"
        }
      ],
      "stateMutability": "view",
      "type": "function",
      "constant": true
    },
    {
      "inputs": [
        {
          "internalType": "uint256",
          "name": "_tenor",
          "type": "uint256"
        }
      ],
      "name": "getVol",
      "outputs": [
        {
          "internalType": "uint256",
          "name": "_vol",
          "type": "uint256"
        }
      ],
      "stateMutability": "view",
      "type": "function",
      "constant": true
    },
    {
      "inputs": [],
      "name": "queryPrice",
      "outputs": [
        {
          "internalType": "uint256",
          "name": "",
          "type": "uint256"
        },
        {
          "internalType": "uint256",
          "name": "",
          "type": "uint256"
        }
      ],
      "stateMutability": "view",
      "type": "function",
      "constant": true
    },
    {
      "inputs": [],
      "name": "update",
      "outputs": [],
      "stateMutability": "nonpayable",
      "type": "function"
    },
    {
      "inputs": [
        {
          "internalType": "uint256",
          "name": "_tenor",
          "type": "uint256"
        },
        {
          "components": [
            {
              "internalType": "uint256",
              "name": "initialVol",
              "type": "uint256"
            },
            {
              "internalType": "uint256",
              "name": "ltVol",
              "type": "uint256"
            },
            {
              "internalType": "uint256",
              "name": "ltVolWeighted",
              "type": "uint256"
            },
            {
              "internalType": "uint256",
              "name": "w",
              "type": "uint256"
            },
            {
              "internalType": "uint256",
              "name": "p",
              "type": "uint256"
            },
            {
              "internalType": "uint256",
              "name": "q",
              "type": "uint256"
            }
          ],
          "internalType": "struct IVolatilityChain.VolParam",
          "name": "_volParams",
          "type": "tuple"
        }
      ],
      "name": "resetVolParams",
      "outputs": [],
      "stateMutability": "nonpayable",
      "type": "function"
    },
    {
      "inputs": [
        {
          "internalType": "uint256",
          "name": "_tenor",
          "type": "uint256"
        }
      ],
      "name": "removeTenor",
      "outputs": [],
      "stateMutability": "nonpayable",
      "type": "function"
    },
    {
      "inputs": [
        {
          "internalType": "uint256",
          "name": "_tenor",
          "type": "uint256"
        }
      ],
      "name": "getPriceBook",
      "outputs": [
        {
          "components": [
            {
              "internalType": "uint256",
              "name": "startTime",
              "type": "uint256"
            },
            {
              "internalType": "uint256",
              "name": "endTime",
              "type": "uint256"
            },
            {
              "internalType": "uint256",
              "name": "open",
              "type": "uint256"
            },
            {
              "internalType": "uint256",
              "name": "highest",
              "type": "uint256"
            },
            {
              "internalType": "uint256",
              "name": "lowest",
              "type": "uint256"
            },
            {
              "internalType": "uint256",
              "name": "close",
              "type": "uint256"
            },
            {
              "internalType": "uint256",
              "name": "volatility",
              "type": "uint256"
            },
            {
              "internalType": "uint256",
              "name": "accentus",
              "type": "uint256"
            }
          ],
          "internalType": "struct IVolatilityChain.PriceStamp",
          "name": "",
          "type": "tuple"
        }
      ],
      "stateMutability": "view",
      "type": "function",
      "constant": true
    },
    {
      "inputs": [],
      "name": "getTokenHash",
      "outputs": [
        {
          "internalType": "bytes32",
          "name": "",
          "type": "bytes32"
        }
      ],
      "stateMutability": "view",
      "type": "function",
      "constant": true
    },
    {
      "inputs": [],
      "name": "getDecription",
      "outputs": [
        {
          "internalType": "string",
          "name": "",
          "type": "string"
        }
      ],
      "stateMutability": "view",
      "type": "function",
      "constant": true
    }
  ],
  "bytecode": "0x60806040523480156200001157600080fd5b506040516200418638038062004186833981810160405281019062000037919062000989565b620000576200004b6200039f60201b60201c565b620003a760201b60201c565b6200006c6000801b336200046b60201b60201c565b6200009e7f3ee192ac25847473237ced4bba57f848e1fd794930ff85b42823290580967205336200046b60201b60201c565b80604051602001620000b1919062000a51565b60405160208183030381529060405280519060200120600381905550620000eb6201518060056200048160201b62001a7c1790919060201c565b506200010a62093a8060056200048160201b62001a7c1790919060201c565b506200012962278d0060056200048160201b62001a7c1790919060201c565b5082600260006101000a81548173ffffffffffffffffffffffffffffffffffffffff021916908373ffffffffffffffffffffffffffffffffffffffff160217905550600260009054906101000a900473ffffffffffffffffffffffffffffffffffffffff1673ffffffffffffffffffffffffffffffffffffffff16637284e4166040518163ffffffff1660e01b8152600401600060405180830381865afa158015620001d9573d6000803e3d6000fd5b505050506040513d6000823e3d601f19601f8201168201806040525081019062000204919062000a6a565b600490805190602001906200021b9291906200069c565b50600260009054906101000a900473ffffffffffffffffffffffffffffffffffffffff1673ffffffffffffffffffffffffffffffffffffffff1663313ce5676040518163ffffffff1660e01b8152600401602060405180830381865afa1580156200028a573d6000803e3d6000fd5b505050506040513d601f19601f82011682018060405250810190620002b0919062000af9565b600a620002be919062000cae565b600a81905550600260009054906101000a900473ffffffffffffffffffffffffffffffffffffffff1673ffffffffffffffffffffffffffffffffffffffff1663313ce5676040518163ffffffff1660e01b8152600401602060405180830381865afa15801562000332573d6000803e3d6000fd5b505050506040513d601f19601f8201168201806040525081019062000358919062000af9565b601262000366919062000cff565b600a62000374919062000cae565b600b8190555081600f8190555081600a62000390919062000d3a565b60108190555050505062000df0565b600033905090565b60008060009054906101000a900473ffffffffffffffffffffffffffffffffffffffff169050816000806101000a81548173ffffffffffffffffffffffffffffffffffffffff021916908373ffffffffffffffffffffffffffffffffffffffff1602179055508173ffffffffffffffffffffffffffffffffffffffff168173ffffffffffffffffffffffffffffffffffffffff167f8be0079c531659141344cd1fd0a4f28419497f9722a3daafe3b4186f6b6457e060405160405180910390a35050565b6200047d8282620004a360201b60201c565b5050565b60006200049b836000018360001b6200059460201b60201c565b905092915050565b620004b582826200060e60201b60201c565b6200059057600180600084815260200190815260200160002060000160008373ffffffffffffffffffffffffffffffffffffffff1673ffffffffffffffffffffffffffffffffffffffff16815260200190815260200160002060006101000a81548160ff021916908315150217905550620005356200039f60201b60201c565b73ffffffffffffffffffffffffffffffffffffffff168173ffffffffffffffffffffffffffffffffffffffff16837f2f8788117e7eff1d82e926ec794901d17c78024a50270940304540a733656f0d60405160405180910390a45b5050565b6000620005a883836200067960201b60201c565b6200060357826000018290806001815401808255809150506001900390600052602060002001600090919091909150558260000180549050836001016000848152602001908152602001600020819055506001905062000608565b600090505b92915050565b60006001600084815260200190815260200160002060000160008373ffffffffffffffffffffffffffffffffffffffff1673ffffffffffffffffffffffffffffffffffffffff16815260200190815260200160002060009054906101000a900460ff16905092915050565b600080836001016000848152602001908152602001600020541415905092915050565b828054620006aa9062000dba565b90600052602060002090601f016020900481019282620006ce57600085556200071a565b82601f10620006e957805160ff19168380011785556200071a565b828001600101855582156200071a579182015b8281111562000719578251825591602001919060010190620006fc565b5b5090506200072991906200072d565b5090565b5b80821115620007485760008160009055506001016200072e565b5090565b6000604051905090565b600080fd5b600080fd5b600073ffffffffffffffffffffffffffffffffffffffff82169050919050565b60006200078d8262000760565b9050919050565b6200079f8162000780565b8114620007ab57600080fd5b50565b600081519050620007bf8162000794565b92915050565b6000819050919050565b620007da81620007c5565b8114620007e657600080fd5b50565b600081519050620007fa81620007cf565b92915050565b600080fd5b600080fd5b6000601f19601f8301169050919050565b7f4e487b7100000000000000000000000000000000000000000000000000000000600052604160045260246000fd5b62000855826200080a565b810181811067ffffffffffffffff821117156200087757620008766200081b565b5b80604052505050565b60006200088c6200074c565b90506200089a82826200084a565b919050565b600067ffffffffffffffff821115620008bd57620008bc6200081b565b5b620008c8826200080a565b9050602081019050919050565b60005b83811015620008f5578082015181840152602081019050620008d8565b8381111562000905576000848401525b50505050565b6000620009226200091c846200089f565b62000880565b90508281526020810184848401111562000941576200094062000805565b5b6200094e848285620008d5565b509392505050565b600082601f8301126200096e576200096d62000800565b5b8151620009808482602086016200090b565b91505092915050565b600080600060608486031215620009a557620009a462000756565b5b6000620009b586828701620007ae565b9350506020620009c886828701620007e9565b925050604084015167ffffffffffffffff811115620009ec57620009eb6200075b565b5b620009fa8682870162000956565b9150509250925092565b600081519050919050565b600081905092915050565b600062000a278262000a04565b62000a33818562000a0f565b935062000a45818560208601620008d5565b80840191505092915050565b600062000a5f828462000a1a565b915081905092915050565b60006020828403121562000a835762000a8262000756565b5b600082015167ffffffffffffffff81111562000aa45762000aa36200075b565b5b62000ab28482850162000956565b91505092915050565b600060ff82169050919050565b62000ad38162000abb565b811462000adf57600080fd5b50565b60008151905062000af38162000ac8565b92915050565b60006020828403121562000b125762000b1162000756565b5b600062000b228482850162000ae2565b91505092915050565b7f4e487b7100000000000000000000000000000000000000000000000000000000600052601160045260246000fd5b60008160011c9050919050565b6000808291508390505b600185111562000bb95780860481111562000b915762000b9062000b2b565b5b600185161562000ba15780820291505b808102905062000bb18562000b5a565b945062000b71565b94509492505050565b60008262000bd4576001905062000ca7565b8162000be4576000905062000ca7565b816001811462000bfd576002811462000c085762000c3e565b600191505062000ca7565b60ff84111562000c1d5762000c1c62000b2b565b5b8360020a91508482111562000c375762000c3662000b2b565b5b5062000ca7565b5060208310610133831016604e8410600b841016171562000c785782820a90508381111562000c725762000c7162000b2b565b5b62000ca7565b62000c87848484600162000b67565b9250905081840481111562000ca15762000ca062000b2b565b5b81810290505b9392505050565b600062000cbb82620007c5565b915062000cc88362000abb565b925062000cf77fffffffffffffffffffffffffffffffffffffffffffffffffffffffffffffffff848462000bc2565b905092915050565b600062000d0c8262000abb565b915062000d198362000abb565b92508282101562000d2f5762000d2e62000b2b565b5b828203905092915050565b600062000d4782620007c5565b915062000d5483620007c5565b925062000d837fffffffffffffffffffffffffffffffffffffffffffffffffffffffffffffffff848462000bc2565b905092915050565b7f4e487b7100000000000000000000000000000000000000000000000000000000600052602260045260246000fd5b6000600282049050600182168062000dd357607f821691505b6020821081141562000dea5762000de962000d8b565b5b50919050565b6133868062000e006000396000f3fe608060405234801561001057600080fd5b506004361061018d5760003560e01c806391d14854116100de578063cca4947311610097578063de0a012911610071578063de0a01291461044f578063def2154414610484578063f2fde38b146104a2578063fe67ec0c146104be5761018d565b8063cca49473146103f7578063d547741f14610415578063dcbc93f8146104315761018d565b806391d1485414610346578063966e17661461037657806398de789714610392578063a217fddf146103b0578063a2e62045146103ce578063b0667cf8146103d85761018d565b806336568abe1161014b578063714f13ee11610125578063714f13ee146102e2578063715018a6146103005780637284e4161461030a5780638da5cb5b146103285761018d565b806336568abe146102785780633dec20f4146102945780636c23852d146102b25761018d565b80624978461461019257806301ffc9a7146101b0578063040b030f146101e0578063248a9ca314610210578063285f9457146102405780632f2ff15d1461025c575b600080fd5b61019a6104ee565b6040516101a7919061247e565b60405180910390f35b6101ca60048036038101906101c59190612500565b610512565b6040516101d79190612548565b60405180910390f35b6101fa60048036038101906101f59190612599565b61058c565b60405161020791906125d5565b60405180910390f35b61022a6004803603810190610225919061261c565b61079a565b604051610237919061247e565b60405180910390f35b61025a60048036038101906102559190612599565b6107ba565b005b610276600480360381019061027191906126a7565b61086b565b005b610292600480360381019061028d91906126a7565b610894565b005b61029c610917565b6040516102a991906125d5565b60405180910390f35b6102cc60048036038101906102c79190612599565b61091d565b6040516102d99190612798565b60405180910390f35b6102ea610a12565b6040516102f791906125d5565b60405180910390f35b610308610a18565b005b610312610aa0565b60405161031f919061284d565b60405180910390f35b610330610b2e565b60405161033d919061287e565b60405180910390f35b610360600480360381019061035b91906126a7565b610b57565b60405161036d9190612548565b60405180910390f35b610390600480360381019061038b91906129b9565b610bc2565b005b61039a610f29565b6040516103a7919061284d565b60405180910390f35b6103b8610fbb565b6040516103c5919061247e565b60405180910390f35b6103d6610fc2565b005b6103e061183a565b6040516103ee9291906129f9565b60405180910390f35b6103ff6118f1565b60405161040c919061247e565b60405180910390f35b61042f600480360381019061042a91906126a7565b6118f7565b005b610439611920565b60405161044691906125d5565b60405180910390f35b61046960048036038101906104649190612599565b611926565b60405161047b96959493929190612a22565b60405180910390f35b61048c611962565b604051610499919061247e565b60405180910390f35b6104bc60048036038101906104b79190612a83565b61196c565b005b6104d860048036038101906104d39190612599565b611a64565b6040516104e591906125d5565b60405180910390f35b7f3ee192ac25847473237ced4bba57f848e1fd794930ff85b4282329058096720581565b60007f7965db0b000000000000000000000000000000000000000000000000000000007bffffffffffffffffffffffffffffffffffffffffffffffffffffffff1916827bffffffffffffffffffffffffffffffffffffffffffffffffffffffff19161480610585575061058482611a96565b5b9050919050565b60006105a2826005611b0090919063ffffffff16565b156105e557600760008381526020019081526020016000206000600860008581526020019081526020016000205481526020019081526020016000206006015490505b6105f9826005611b0090919063ffffffff16565b6107855760008060008060005b6106106005611b1a565b81101561070157600061062d826005611b2f90919063ffffffff16565b905087811180156106485750858110806106475750600086145b5b1561068e57809550600760008281526020019081526020016000206000600860008481526020019081526020016000205481526020019081526020016000206006015493505b87811080156106a75750848111806106a65750600085145b5b156106ed57809450600760008281526020019081526020016000206000600860008481526020019081526020016000205481526020019081526020016000206006015492505b5080806106f990612adf565b915050610606565b50600084141561070f578094505b600083141561071c578194505b60008411801561072c5750600083115b15610780576107528284886107419190612b28565b858761074d9190612b28565b611b49565b6107738288876107629190612b28565b868861076e9190612b28565b611b49565b61077d9190612b5c565b94505b505050505b600b54816107939190612bb2565b9050919050565b600060016000838152602001908152602001600020600101549050919050565b6107c2611c45565b73ffffffffffffffffffffffffffffffffffffffff166107e0610b2e565b73ffffffffffffffffffffffffffffffffffffffff1614610836576040517f08c379a000000000000000000000000000000000000000000000000000000000815260040161082d90612c58565b60405180910390fd5b61084a816005611b0090919063ffffffff16565b61085357600080fd5b610867816005611c4d90919063ffffffff16565b5050565b6108748261079a565b61088581610880611c45565b611c67565b61088f8383611d04565b505050565b61089c611c45565b73ffffffffffffffffffffffffffffffffffffffff168173ffffffffffffffffffffffffffffffffffffffff1614610909576040517f08c379a000000000000000000000000000000000000000000000000000000000815260040161090090612cea565b60405180910390fd5b6109138282611de4565b5050565b600f5481565b610925612420565b610939826005611b0090919063ffffffff16565b610978576040517f08c379a000000000000000000000000000000000000000000000000000000000815260040161096f90612d7c565b60405180910390fd5b6007600083815260200190815260200160002060006008600085815260200190815260200160002054815260200190815260200160002060405180610100016040529081600082015481526020016001820154815260200160028201548152602001600382015481526020016004820154815260200160058201548152602001600682015481526020016007820154815250509050919050565b600c5481565b610a20611c45565b73ffffffffffffffffffffffffffffffffffffffff16610a3e610b2e565b73ffffffffffffffffffffffffffffffffffffffff1614610a94576040517f08c379a0000000000000000000000000000000000000000000000000000000008152600401610a8b90612c58565b60405180910390fd5b610a9e6000611ec6565b565b60048054610aad90612dcb565b80601f0160208091040260200160405190810160405280929190818152602001828054610ad990612dcb565b8015610b265780601f10610afb57610100808354040283529160200191610b26565b820191906000526020600020905b815481529060010190602001808311610b0957829003601f168201915b505050505081565b60008060009054906101000a900473ffffffffffffffffffffffffffffffffffffffff16905090565b60006001600084815260200190815260200160002060000160008373ffffffffffffffffffffffffffffffffffffffff1673ffffffffffffffffffffffffffffffffffffffff16815260200190815260200160002060009054906101000a900460ff16905092915050565b610bca611c45565b73ffffffffffffffffffffffffffffffffffffffff16610be8610b2e565b73ffffffffffffffffffffffffffffffffffffffff1614610c3e576040517f08c379a0000000000000000000000000000000000000000000000000000000008152600401610c3590612c58565b60405180910390fd5b610c52826005611b0090919063ffffffff16565b610c5b57600080fd5b6010548160a0015182608001518360600151610c779190612b5c565b610c819190612b5c565b14610c8b57600080fd5b80600e6000848152602001908152602001600020600082015181600001556020820151816001015560408201518160020155606082015181600301556080820151816004015560a08201518160050155905050610d38600e600084815260200190815260200160002060010154600e600085815260200190815260200160002060010154610d199190612bb2565b600e600085815260200190815260200160002060030154601054611b49565b600e600084815260200190815260200160002060020181905550600080600260009054906101000a900473ffffffffffffffffffffffffffffffffffffffff1673ffffffffffffffffffffffffffffffffffffffff1663feaf968c6040518163ffffffff1660e01b815260040160a060405180830381865afa158015610dc2573d6000803e3d6000fd5b505050506040513d601f19601f82011682018060405250810190610de69190612e8a565b5093505092505060008290508160086000878152602001908152602001600020819055508160076000878152602001908152602001600020600084815260200190815260200160002060000181905550600e6000868152602001908152602001600020600001546007600087815260200190815260200160002060008481526020019081526020016000206007018190556007600087815260200190815260200160002060008481526020019081526020016000206006018190555080600760008781526020019081526020016000206000848152602001908152602001600020600401819055600760008781526020019081526020016000206000848152602001908152602001600020600301819055600760008781526020019081526020016000206000848152602001908152602001600020600201819055505050505050565b606060048054610f3890612dcb565b80601f0160208091040260200160405190810160405280929190818152602001828054610f6490612dcb565b8015610fb15780601f10610f8657610100808354040283529160200191610fb1565b820191906000526020600020905b815481529060010190602001808311610f9457829003601f168201915b5050505050905090565b6000801b81565b7f3ee192ac25847473237ced4bba57f848e1fd794930ff85b42823290580967205610ff481610fef611c45565b611c67565b600080600260009054906101000a900473ffffffffffffffffffffffffffffffffffffffff1673ffffffffffffffffffffffffffffffffffffffff1663feaf968c6040518163ffffffff1660e01b815260040160a060405180830381865afa158015611064573d6000803e3d6000fd5b505050506040513d601f19601f820116820180604052508101906110889190612e8a565b50935050925050600082905060005b6110a16005611b1a565b8110156118145760006110be826005611b2f90919063ffffffff16565b90506007600082815260200190815260200160002060006008600084815260200190815260200160002054815260200190815260200160002060030154831115611142578260076000838152602001908152602001600020600060086000858152602001908152602001600020548152602001908152602001600020600301819055505b60076000828152602001908152602001600020600060086000848152602001908152602001600020548152602001908152602001600020600401548310156111c4578260076000838152602001908152602001600020600060086000858152602001908152602001600020548152602001908152602001600020600401819055505b8060086000838152602001908152602001600020546111e39190612b5c565b841061180057836007600083815260200190815260200160002060006008600085815260200190815260200160002054815260200190815260200160002060010181905550826007600083815260200190815260200160002060006008600085815260200190815260200160002054815260200190815260200160002060050181905550600083600760008481526020019081526020016000206000600860008681526020019081526020016000205481526020019081526020016000206002015410611303576112f184600a546007600086815260200190815260200160002060006008600088815260200190815260200160002054815260200190815260200160002060020154611b49565b600a546112fe9190612b28565b611358565b600a5461134d85600a546007600087815260200190815260200160002060006008600089815260200190815260200160002054815260200190815260200160002060020154611b49565b6113579190612b28565b5b90506000611480600a546113e36007600087815260200190815260200160002060006008600089815260200190815260200160002054815260200190815260200160002060030154600a54600760008981526020019081526020016000206000600860008b815260200190815260200160002054815260200190815260200160002060020154611b49565b6113ed9190612b28565b61146e6007600087815260200190815260200160002060006008600089815260200190815260200160002054815260200190815260200160002060040154600a54600760008981526020019081526020016000206000600860008b815260200190815260200160002054815260200190815260200160002060020154611b49565b600a5461147b9190612b28565b611f8a565b905085600760008581526020019081526020016000206000888152602001908152602001600020600001819055506115b1611553600760008681526020019081526020016000206000600860008881526020019081526020016000205481526020019081526020016000206006015460076000878152602001908152602001600020600060086000898152602001908152602001600020548152602001908152602001600020600601546115349190612bb2565b600e600087815260200190815260200160002060040154601054611b49565b61158184856115629190612bb2565b600e600088815260200190815260200160002060050154601054611b49565b600e6000878152602001908152602001600020600201546115a29190612b5c565b6115ac9190612b5c565b611fa4565b600760008581526020019081526020016000206000888152602001908152602001600020600601819055506116df611681600760008681526020019081526020016000206000600860008881526020019081526020016000205481526020019081526020016000206007015460076000878152602001908152602001600020600060086000898152602001908152602001600020548152602001908152602001600020600701546116629190612bb2565b600e600087815260200190815260200160002060040154601054611b49565b6116af83846116909190612bb2565b600e600088815260200190815260200160002060050154601054611b49565b600e6000878152602001908152602001600020600201546116d09190612b5c565b6116da9190612b5c565b611fa4565b600760008581526020019081526020016000206000888152602001908152602001600020600701819055508460076000858152602001908152602001600020600088815260200190815260200160002060040181905560076000858152602001908152602001600020600088815260200190815260200160002060030181905560076000858152602001908152602001600020600088815260200190815260200160002060020181905550856008600085815260200190815260200160002081905550827d895f12d3f4f2376feff128f39b92005e9748404845000fd7028aa7edf428876007600087815260200190815260200160002060008a81526020019081526020016000206040516117f5929190613032565b60405180910390a250505b50808061180c90612adf565b915050611097565b5081600d81905550600c600081548092919061182f90612adf565b919050555050505050565b600080600080600260009054906101000a900473ffffffffffffffffffffffffffffffffffffffff1673ffffffffffffffffffffffffffffffffffffffff1663feaf968c6040518163ffffffff1660e01b815260040160a060405180830381865afa1580156118ad573d6000803e3d6000fd5b505050506040513d601f19601f820116820180604052508101906118d19190612e8a565b50935050925050600b54826118e69190612bb2565b819350935050509091565b60035481565b6119008261079a565b6119118161190c611c45565b611c67565b61191b8383611de4565b505050565b600d5481565b600e6020528060005260406000206000915090508060000154908060010154908060020154908060030154908060040154908060050154905086565b6000600354905090565b611974611c45565b73ffffffffffffffffffffffffffffffffffffffff16611992610b2e565b73ffffffffffffffffffffffffffffffffffffffff16146119e8576040517f08c379a00000000000000000000000000000000000000000000000000000000081526004016119df90612c58565b60405180910390fd5b600073ffffffffffffffffffffffffffffffffffffffff168173ffffffffffffffffffffffffffffffffffffffff161415611a58576040517f08c379a0000000000000000000000000000000000000000000000000000000008152600401611a4f906130ce565b60405180910390fd5b611a6181611ec6565b50565b60086020528060005260406000206000915090505481565b6000611a8e836000018360001b612001565b905092915050565b60007f01ffc9a7000000000000000000000000000000000000000000000000000000007bffffffffffffffffffffffffffffffffffffffffffffffffffffffff1916827bffffffffffffffffffffffffffffffffffffffffffffffffffffffff1916149050919050565b6000611b12836000018360001b612071565b905092915050565b6000611b2882600001612094565b9050919050565b6000611b3e83600001836120a5565b60001c905092915050565b600080600080198587098587029250828110838203039150506000811415611b845760008411611b7857600080fd5b83820492505050611c3e565b808411611b9057600080fd5b60008486880990508281118203915080830392506000856001877fffffffffffffffffffffffffffffffffffffffffffffffffffffffffffffffff0301169050808604955080840493506001818260000304019050808302841793506000600287600302189050808702600203810290508087026002038102905080870260020381029050808702600203810290508087026002038102905080870260020381029050808502955050505050505b9392505050565b600033905090565b6000611c5f836000018360001b6120d0565b905092915050565b611c718282610b57565b611d0057611c968173ffffffffffffffffffffffffffffffffffffffff1660146121e4565b611ca48360001c60206121e4565b604051602001611cb59291906131c2565b6040516020818303038152906040526040517f08c379a0000000000000000000000000000000000000000000000000000000008152600401611cf7919061284d565b60405180910390fd5b5050565b611d0e8282610b57565b611de057600180600084815260200190815260200160002060000160008373ffffffffffffffffffffffffffffffffffffffff1673ffffffffffffffffffffffffffffffffffffffff16815260200190815260200160002060006101000a81548160ff021916908315150217905550611d85611c45565b73ffffffffffffffffffffffffffffffffffffffff168173ffffffffffffffffffffffffffffffffffffffff16837f2f8788117e7eff1d82e926ec794901d17c78024a50270940304540a733656f0d60405160405180910390a45b5050565b611dee8282610b57565b15611ec25760006001600084815260200190815260200160002060000160008373ffffffffffffffffffffffffffffffffffffffff1673ffffffffffffffffffffffffffffffffffffffff16815260200190815260200160002060006101000a81548160ff021916908315150217905550611e67611c45565b73ffffffffffffffffffffffffffffffffffffffff168173ffffffffffffffffffffffffffffffffffffffff16837ff6391f5c32d9c69d2a47ea670b442974b53935d1edc7fd64eb21e047a839171b60405160405180910390a45b5050565b60008060009054906101000a900473ffffffffffffffffffffffffffffffffffffffff169050816000806101000a81548173ffffffffffffffffffffffffffffffffffffffff021916908373ffffffffffffffffffffffffffffffffffffffff1602179055508173ffffffffffffffffffffffffffffffffffffffff168173ffffffffffffffffffffffffffffffffffffffff167f8be0079c531659141344cd1fd0a4f28419497f9722a3daafe3b4186f6b6457e060405160405180910390a35050565b600081831015611f9a5781611f9c565b825b905092915050565b6000806002600184611fb69190612b5c565b611fc0919061322b565b90508291505b81811015611ffb578091506002818285611fe0919061322b565b611fea9190612b5c565b611ff4919061322b565b9050611fc6565b50919050565b600061200d8383612071565b61206657826000018290806001815401808255809150506001900390600052602060002001600090919091909150558260000180549050836001016000848152602001908152602001600020819055506001905061206b565b600090505b92915050565b600080836001016000848152602001908152602001600020541415905092915050565b600081600001805490509050919050565b60008260000182815481106120bd576120bc61325c565b5b9060005260206000200154905092915050565b600080836001016000848152602001908152602001600020549050600081146121d85760006001826121029190612b28565b905060006001866000018054905061211a9190612b28565b905081811461218957600086600001828154811061213b5761213a61325c565b5b906000526020600020015490508087600001848154811061215f5761215e61325c565b5b90600052602060002001819055508387600101600083815260200190815260200160002081905550505b8560000180548061219d5761219c61328b565b5b6001900381819060005260206000200160009055905585600101600086815260200190815260200160002060009055600193505050506121de565b60009150505b92915050565b6060600060028360026121f79190612bb2565b6122019190612b5c565b67ffffffffffffffff81111561221a5761221961289e565b5b6040519080825280601f01601f19166020018201604052801561224c5781602001600182028036833780820191505090505b5090507f3000000000000000000000000000000000000000000000000000000000000000816000815181106122845761228361325c565b5b60200101907effffffffffffffffffffffffffffffffffffffffffffffffffffffffffffff1916908160001a9053507f7800000000000000000000000000000000000000000000000000000000000000816001815181106122e8576122e761325c565b5b60200101907effffffffffffffffffffffffffffffffffffffffffffffffffffffffffffff1916908160001a905350600060018460026123289190612bb2565b6123329190612b5c565b90505b60018111156123d2577f3031323334353637383961626364656600000000000000000000000000000000600f8616601081106123745761237361325c565b5b1a60f81b82828151811061238b5761238a61325c565b5b60200101907effffffffffffffffffffffffffffffffffffffffffffffffffffffffffffff1916908160001a905350600485901c9450806123cb906132ba565b9050612335565b5060008414612416576040517f08c379a000000000000000000000000000000000000000000000000000000000815260040161240d90613330565b60405180910390fd5b8091505092915050565b60405180610100016040528060008152602001600081526020016000815260200160008152602001600081526020016000815260200160008152602001600081525090565b6000819050919050565b61247881612465565b82525050565b6000602082019050612493600083018461246f565b92915050565b6000604051905090565b600080fd5b60007fffffffff0000000000000000000000000000000000000000000000000000000082169050919050565b6124dd816124a8565b81146124e857600080fd5b50565b6000813590506124fa816124d4565b92915050565b600060208284031215612516576125156124a3565b5b6000612524848285016124eb565b91505092915050565b60008115159050919050565b6125428161252d565b82525050565b600060208201905061255d6000830184612539565b92915050565b6000819050919050565b61257681612563565b811461258157600080fd5b50565b6000813590506125938161256d565b92915050565b6000602082840312156125af576125ae6124a3565b5b60006125bd84828501612584565b91505092915050565b6125cf81612563565b82525050565b60006020820190506125ea60008301846125c6565b92915050565b6125f981612465565b811461260457600080fd5b50565b600081359050612616816125f0565b92915050565b600060208284031215612632576126316124a3565b5b600061264084828501612607565b91505092915050565b600073ffffffffffffffffffffffffffffffffffffffff82169050919050565b600061267482612649565b9050919050565b61268481612669565b811461268f57600080fd5b50565b6000813590506126a18161267b565b92915050565b600080604083850312156126be576126bd6124a3565b5b60006126cc85828601612607565b92505060206126dd85828601612692565b9150509250929050565b6126f081612563565b82525050565b6101008201600082015161270d60008501826126e7565b50602082015161272060208501826126e7565b50604082015161273360408501826126e7565b50606082015161274660608501826126e7565b50608082015161275960808501826126e7565b5060a082015161276c60a08501826126e7565b5060c082015161277f60c08501826126e7565b5060e082015161279260e08501826126e7565b50505050565b6000610100820190506127ae60008301846126f6565b92915050565b600081519050919050565b600082825260208201905092915050565b60005b838110156127ee5780820151818401526020810190506127d3565b838111156127fd576000848401525b50505050565b6000601f19601f8301169050919050565b600061281f826127b4565b61282981856127bf565b93506128398185602086016127d0565b61284281612803565b840191505092915050565b600060208201905081810360008301526128678184612814565b905092915050565b61287881612669565b82525050565b6000602082019050612893600083018461286f565b92915050565b600080fd5b7f4e487b7100000000000000000000000000000000000000000000000000000000600052604160045260246000fd5b6128d682612803565b810181811067ffffffffffffffff821117156128f5576128f461289e565b5b80604052505050565b6000612908612499565b905061291482826128cd565b919050565b600060c0828403121561292f5761292e612899565b5b61293960c06128fe565b9050600061294984828501612584565b600083015250602061295d84828501612584565b602083015250604061297184828501612584565b604083015250606061298584828501612584565b606083015250608061299984828501612584565b60808301525060a06129ad84828501612584565b60a08301525092915050565b60008060e083850312156129d0576129cf6124a3565b5b60006129de85828601612584565b92505060206129ef85828601612919565b9150509250929050565b6000604082019050612a0e60008301856125c6565b612a1b60208301846125c6565b9392505050565b600060c082019050612a3760008301896125c6565b612a4460208301886125c6565b612a5160408301876125c6565b612a5e60608301866125c6565b612a6b60808301856125c6565b612a7860a08301846125c6565b979650505050505050565b600060208284031215612a9957612a986124a3565b5b6000612aa784828501612692565b91505092915050565b7f4e487b7100000000000000000000000000000000000000000000000000000000600052601160045260246000fd5b6000612aea82612563565b91507fffffffffffffffffffffffffffffffffffffffffffffffffffffffffffffffff821415612b1d57612b1c612ab0565b5b600182019050919050565b6000612b3382612563565b9150612b3e83612563565b925082821015612b5157612b50612ab0565b5b828203905092915050565b6000612b6782612563565b9150612b7283612563565b9250827fffffffffffffffffffffffffffffffffffffffffffffffffffffffffffffffff03821115612ba757612ba6612ab0565b5b828201905092915050565b6000612bbd82612563565b9150612bc883612563565b9250817fffffffffffffffffffffffffffffffffffffffffffffffffffffffffffffffff0483118215151615612c0157612c00612ab0565b5b828202905092915050565b7f4f776e61626c653a2063616c6c6572206973206e6f7420746865206f776e6572600082015250565b6000612c426020836127bf565b9150612c4d82612c0c565b602082019050919050565b60006020820190508181036000830152612c7181612c35565b9050919050565b7f416363657373436f6e74726f6c3a2063616e206f6e6c792072656e6f756e636560008201527f20726f6c657320666f722073656c660000000000000000000000000000000000602082015250565b6000612cd4602f836127bf565b9150612cdf82612c78565b604082019050919050565b60006020820190508181036000830152612d0381612cc7565b9050919050565b7f496e707574206f7074696f6e2074656e6f72206973206e6f7420616c6c6f776560008201527f642e000000000000000000000000000000000000000000000000000000000000602082015250565b6000612d666022836127bf565b9150612d7182612d0a565b604082019050919050565b60006020820190508181036000830152612d9581612d59565b9050919050565b7f4e487b7100000000000000000000000000000000000000000000000000000000600052602260045260246000fd5b60006002820490506001821680612de357607f821691505b60208210811415612df757612df6612d9c565b5b50919050565b600069ffffffffffffffffffff82169050919050565b612e1c81612dfd565b8114612e2757600080fd5b50565b600081519050612e3981612e13565b92915050565b6000819050919050565b612e5281612e3f565b8114612e5d57600080fd5b50565b600081519050612e6f81612e49565b92915050565b600081519050612e848161256d565b92915050565b600080600080600060a08688031215612ea657612ea56124a3565b5b6000612eb488828901612e2a565b9550506020612ec588828901612e60565b9450506040612ed688828901612e75565b9350506060612ee788828901612e75565b9250506080612ef888828901612e2a565b9150509295509295909350565b60008160001c9050919050565b6000819050919050565b6000612f2f612f2a83612f05565b612f12565b9050919050565b61010082016000808301549050612f4c81612f1c565b612f5960008601826126e7565b5060018301549050612f6a81612f1c565b612f7760208601826126e7565b5060028301549050612f8881612f1c565b612f9560408601826126e7565b5060038301549050612fa681612f1c565b612fb360608601826126e7565b5060048301549050612fc481612f1c565b612fd160808601826126e7565b5060058301549050612fe281612f1c565b612fef60a08601826126e7565b506006830154905061300081612f1c565b61300d60c08601826126e7565b506007830154905061301e81612f1c565b61302b60e08601826126e7565b5050505050565b60006101208201905061304860008301856125c6565b6130556020830184612f36565b9392505050565b7f4f776e61626c653a206e6577206f776e657220697320746865207a65726f206160008201527f6464726573730000000000000000000000000000000000000000000000000000602082015250565b60006130b86026836127bf565b91506130c38261305c565b604082019050919050565b600060208201905081810360008301526130e7816130ab565b9050919050565b600081905092915050565b7f416363657373436f6e74726f6c3a206163636f756e7420000000000000000000600082015250565b600061312f6017836130ee565b915061313a826130f9565b601782019050919050565b6000613150826127b4565b61315a81856130ee565b935061316a8185602086016127d0565b80840191505092915050565b7f206973206d697373696e6720726f6c6520000000000000000000000000000000600082015250565b60006131ac6011836130ee565b91506131b782613176565b601182019050919050565b60006131cd82613122565b91506131d98285613145565b91506131e48261319f565b91506131f08284613145565b91508190509392505050565b7f4e487b7100000000000000000000000000000000000000000000000000000000600052601260045260246000fd5b600061323682612563565b915061324183612563565b925082613251576132506131fc565b5b828204905092915050565b7f4e487b7100000000000000000000000000000000000000000000000000000000600052603260045260246000fd5b7f4e487b7100000000000000000000000000000000000000000000000000000000600052603160045260246000fd5b60006132c582612563565b915060008214156132d9576132d8612ab0565b5b600182039050919050565b7f537472696e67733a20686578206c656e67746820696e73756666696369656e74600082015250565b600061331a6020836127bf565b9150613325826132e4565b602082019050919050565b600060208201905081810360008301526133498161330d565b905091905056fea2646970667358221220e261a42659a3fa35193b9b3400b9d2bc369dcb230e373abc671695618cc655f364736f6c634300080a0033",
  "immutableReferences": {},
  "source": "// SPDX-License-Identifier: MIT\npragma solidity 0.8.10;\n\nimport {Ownable} from \"@openzeppelin/contracts/access/Ownable.sol\";\nimport \"@openzeppelin/contracts/utils/math/Math.sol\";\nimport {AccessControl} from \"@openzeppelin/contracts/access/AccessControl.sol\";\nimport \"@openzeppelin/contracts/utils/structs/EnumerableSet.sol\";\nimport \"./FullMath.sol\";\nimport {IVolatilityChain} from \"./MoretInterfaces.sol\";\nimport \"@chainlink/contracts/src/v0.8/interfaces/AggregatorV3Interface.sol\";\n\ncontract VolatilityChain is Ownable, AccessControl, IVolatilityChain{\n  using EnumerableSet for EnumerableSet.UintSet;\n  bytes32 public constant UPDATE_ROLE = keccak256(\"UPDATE_ROLE\");\n  AggregatorV3Interface internal priceInterface;\n  bytes32 public tokenHash;\n  string public description;\n  EnumerableSet.UintSet tenors;\n\n  mapping(uint256=>mapping(uint256=>PriceStamp)) private priceBook;\n  mapping(uint256=>uint256) public latestBookTime;\n  uint256 internal priceDecimals;\n  uint256 internal priceMultiplier;\n  uint256 internal quoteAdjustment;\n\n  uint256 public volatilityUpdateCounter;\n  uint256 public volatilityUpdateTime;\n  mapping(uint256=> VolParam) public volatilityParameters;\n  uint256 public volParamDecimals;\n  uint256 internal parameterMultiplier;\n\n  constructor( address _priceSourceId, uint256 _parameterDecimals, string memory _tokenName )  {\n    _setupRole(DEFAULT_ADMIN_ROLE, msg.sender);\n    _setupRole(UPDATE_ROLE, msg.sender);\n    tokenHash = keccak256(abi.encodePacked(_tokenName));\n    tenors.add(1 days);\n    tenors.add(7 days);\n    tenors.add(30 days);\n\n    priceInterface = AggregatorV3Interface(_priceSourceId);\n    description = priceInterface.description();\n    priceMultiplier = 10 ** priceInterface.decimals();\n    quoteAdjustment = 10 ** (18 - priceInterface.decimals());\n    volParamDecimals = _parameterDecimals;\n    parameterMultiplier = 10 ** _parameterDecimals;}\n\n  function getVol(uint256 _tenor) external override view returns(uint256 _vol){\n    _vol = 0;\n    if(tenors.contains(_tenor)){ _vol = priceBook[_tenor][latestBookTime[_tenor]].volatility;}\n    if(!tenors.contains(_tenor)){\n      uint256 _upperTenor = 0;\n      uint256 _lowerTenor = 0;\n      uint256 _upperVol = 0;\n      uint256 _lowerVol = 0;\n      for(uint i = 0;i< tenors.length();i++){\n        uint256 _tenorI = tenors.at(i);\n        if(_tenorI >_tenor && (_tenorI < _upperTenor || _upperTenor == 0) ){ _upperTenor = _tenorI; _upperVol = priceBook[_tenorI][latestBookTime[_tenorI]].volatility; }\n        if(_tenorI <_tenor && (_tenorI > _lowerTenor || _lowerTenor == 0) ){ _lowerTenor = _tenorI; _lowerVol = priceBook[_tenorI][latestBookTime[_tenorI]].volatility; }}\n      if(_upperTenor == 0) { _vol = _lowerVol;}\n      if(_lowerTenor==0) {_vol = _upperVol;}\n      if(_upperTenor >0 && _lowerTenor >0){ _vol = MulDiv(_lowerVol, _upperTenor - _tenor, _upperTenor - _lowerTenor) + MulDiv(_upperVol, _tenor - _lowerTenor, _upperTenor - _lowerTenor);}}\n      _vol *= quoteAdjustment;}\n\n  function queryPrice() external override view returns(uint256, uint256){\n    (,int _price,,uint _timeStamp,) = priceInterface.latestRoundData();\n    return (uint256(_price) * quoteAdjustment, uint256(_timeStamp));}\n\n  function update() external onlyRole(UPDATE_ROLE){\n    (,int _price,,uint _timeStamp,) = priceInterface.latestRoundData();\n    uint256 _updatePrice = uint256(_price);\n\n    for(uint i = 0;i< tenors.length();i++) {\n      uint256 _tenor = tenors.at(i);\n      if(_updatePrice > priceBook[_tenor][latestBookTime[_tenor]].highest){\n        priceBook[_tenor][latestBookTime[_tenor]].highest=_updatePrice;}\n      if(_updatePrice<priceBook[_tenor][latestBookTime[_tenor]].lowest){\n         priceBook[_tenor][latestBookTime[_tenor]].lowest=_updatePrice;}\n\n      if(_timeStamp>= (latestBookTime[_tenor] + _tenor)){\n        priceBook[_tenor][latestBookTime[_tenor]].endTime = _timeStamp;\n        priceBook[_tenor][latestBookTime[_tenor]].close = _updatePrice;\n        uint256 _periodMove = (priceBook[_tenor][latestBookTime[_tenor]].open < _updatePrice)? (MulDiv(_updatePrice, priceMultiplier, priceBook[_tenor][latestBookTime[_tenor]].open) - priceMultiplier) : (priceMultiplier - MulDiv(_updatePrice, priceMultiplier, priceBook[_tenor][latestBookTime[_tenor]].open ));\n        uint256 _largestMove = Math.max(MulDiv(priceBook[_tenor][latestBookTime[_tenor]].highest, priceMultiplier, priceBook[_tenor][latestBookTime[_tenor]].open) - priceMultiplier , priceMultiplier - MulDiv(priceBook[_tenor][latestBookTime[_tenor]].lowest, priceMultiplier, priceBook[_tenor][latestBookTime[_tenor]].open ));\n\n        priceBook[_tenor][_timeStamp].startTime = _timeStamp;\n        priceBook[_tenor][_timeStamp].volatility = Sqrt(volatilityParameters[_tenor].ltVolWeighted + MulDiv(_periodMove * _periodMove, volatilityParameters[_tenor].q, parameterMultiplier) + MulDiv(priceBook[_tenor][latestBookTime[_tenor]].volatility * priceBook[_tenor][latestBookTime[_tenor]].volatility, volatilityParameters[_tenor].p, parameterMultiplier));\n        priceBook[_tenor][_timeStamp].accentus = Sqrt(volatilityParameters[_tenor].ltVolWeighted + MulDiv(_largestMove * _largestMove, volatilityParameters[_tenor].q, parameterMultiplier) + MulDiv(priceBook[_tenor][latestBookTime[_tenor]].accentus * priceBook[_tenor][latestBookTime[_tenor]].accentus, volatilityParameters[_tenor].p, parameterMultiplier));\n        priceBook[_tenor][_timeStamp].open = priceBook[_tenor][_timeStamp].highest = priceBook[_tenor][_timeStamp].lowest = _updatePrice;\n\n        latestBookTime[_tenor] = _timeStamp;\n        emit volatilityChainBlockAdded(_tenor, _timeStamp, priceBook[_tenor][_timeStamp]);} }\n\n    volatilityUpdateTime = _timeStamp;\n    volatilityUpdateCounter ++;}\n\n  function resetVolParams(uint256 _tenor, VolParam memory _volParams) external onlyOwner{\n    require(tenors.contains(_tenor));\n    require((_volParams.w + _volParams.p + _volParams.q)==parameterMultiplier);\n    volatilityParameters[_tenor] = _volParams;\n    volatilityParameters[_tenor].ltVolWeighted = MulDiv(volatilityParameters[_tenor].ltVol*volatilityParameters[_tenor].ltVol, volatilityParameters[_tenor].w, parameterMultiplier);\n\n    (,int _price,,uint _timeStamp,) = priceInterface.latestRoundData();\n    uint256 _updatePrice = uint256(_price);\n\n    latestBookTime[_tenor] = _timeStamp;\n    priceBook[_tenor][_timeStamp].startTime = _timeStamp;\n    priceBook[_tenor][_timeStamp].volatility = priceBook[_tenor][_timeStamp].accentus = volatilityParameters[_tenor].initialVol;\n    priceBook[_tenor][_timeStamp].open = priceBook[_tenor][_timeStamp].highest = priceBook[_tenor][_timeStamp].lowest = _updatePrice;}\n\n  function removeTenor(uint256 _tenor) external onlyOwner{\n    require(tenors.contains(_tenor));\n    tenors.remove(_tenor);}\n\n  function getPriceBook(uint256 _tenor) external view returns(PriceStamp memory){\n    require(tenors.contains(_tenor), \"Input option tenor is not allowed.\");\n    return priceBook[_tenor][latestBookTime[_tenor]];}\n\n  function getTokenHash() external override view returns(bytes32){return tokenHash;}\n  function getDecription() external override view returns (string memory) {return description;}}\n",
  "sourcePath": "/Users/apple/Documents/GitHub/moret/contracts/VolatilityChain.sol",
  "compiler": {
    "name": "solc",
    "version": "0.8.10+commit.fc410830.Emscripten.clang"
  },
  "schemaVersion": "3.4.3",
  "updatedAt": "2021-12-08T08:04:57.510Z",
  "networkType": "ethereum",
  "devdoc": {
    "kind": "dev",
    "methods": {
      "getRoleAdmin(bytes32)": {
        "details": "Returns the admin role that controls `role`. See {grantRole} and {revokeRole}. To change a role's admin, use {_setRoleAdmin}."
      },
      "grantRole(bytes32,address)": {
        "details": "Grants `role` to `account`. If `account` had not been already granted `role`, emits a {RoleGranted} event. Requirements: - the caller must have ``role``'s admin role."
      },
      "hasRole(bytes32,address)": {
        "details": "Returns `true` if `account` has been granted `role`."
      },
      "owner()": {
        "details": "Returns the address of the current owner."
      },
      "renounceOwnership()": {
        "details": "Leaves the contract without owner. It will not be possible to call `onlyOwner` functions anymore. Can only be called by the current owner. NOTE: Renouncing ownership will leave the contract without an owner, thereby removing any functionality that is only available to the owner."
      },
      "renounceRole(bytes32,address)": {
        "details": "Revokes `role` from the calling account. Roles are often managed via {grantRole} and {revokeRole}: this function's purpose is to provide a mechanism for accounts to lose their privileges if they are compromised (such as when a trusted device is misplaced). If the calling account had been revoked `role`, emits a {RoleRevoked} event. Requirements: - the caller must be `account`."
      },
      "revokeRole(bytes32,address)": {
        "details": "Revokes `role` from `account`. If `account` had been granted `role`, emits a {RoleRevoked} event. Requirements: - the caller must have ``role``'s admin role."
      },
      "supportsInterface(bytes4)": {
        "details": "See {IERC165-supportsInterface}."
      },
      "transferOwnership(address)": {
        "details": "Transfers ownership of the contract to a new account (`newOwner`). Can only be called by the current owner."
      }
    },
    "version": 1
  },
  "userdoc": {
    "kind": "user",
    "methods": {},
    "version": 1
  }
}