{
  "contractName": "VolatilityToken",
  "abi": [
    {
      "inputs": [
        {
          "internalType": "string",
          "name": "_underlyingName",
          "type": "string"
        },
        {
          "internalType": "uint256",
          "name": "_tenor",
          "type": "uint256"
        },
        {
          "internalType": "string",
          "name": "_name",
          "type": "string"
        },
        {
          "internalType": "string",
          "name": "_symbol",
          "type": "string"
        }
      ],
      "stateMutability": "nonpayable",
      "type": "constructor"
    },
    {
      "anonymous": false,
      "inputs": [
        {
          "indexed": true,
          "internalType": "address",
          "name": "owner",
          "type": "address"
        },
        {
          "indexed": true,
          "internalType": "address",
          "name": "spender",
          "type": "address"
        },
        {
          "indexed": false,
          "internalType": "uint256",
          "name": "value",
          "type": "uint256"
        }
      ],
      "name": "Approval",
      "type": "event"
    },
    {
      "anonymous": false,
      "inputs": [
        {
          "indexed": true,
          "internalType": "bytes32",
          "name": "role",
          "type": "bytes32"
        },
        {
          "indexed": true,
          "internalType": "bytes32",
          "name": "previousAdminRole",
          "type": "bytes32"
        },
        {
          "indexed": true,
          "internalType": "bytes32",
          "name": "newAdminRole",
          "type": "bytes32"
        }
      ],
      "name": "RoleAdminChanged",
      "type": "event"
    },
    {
      "anonymous": false,
      "inputs": [
        {
          "indexed": true,
          "internalType": "bytes32",
          "name": "role",
          "type": "bytes32"
        },
        {
          "indexed": true,
          "internalType": "address",
          "name": "account",
          "type": "address"
        },
        {
          "indexed": true,
          "internalType": "address",
          "name": "sender",
          "type": "address"
        }
      ],
      "name": "RoleGranted",
      "type": "event"
    },
    {
      "anonymous": false,
      "inputs": [
        {
          "indexed": true,
          "internalType": "bytes32",
          "name": "role",
          "type": "bytes32"
        },
        {
          "indexed": true,
          "internalType": "address",
          "name": "account",
          "type": "address"
        },
        {
          "indexed": true,
          "internalType": "address",
          "name": "sender",
          "type": "address"
        }
      ],
      "name": "RoleRevoked",
      "type": "event"
    },
    {
      "anonymous": false,
      "inputs": [
        {
          "indexed": true,
          "internalType": "address",
          "name": "from",
          "type": "address"
        },
        {
          "indexed": true,
          "internalType": "address",
          "name": "to",
          "type": "address"
        },
        {
          "indexed": false,
          "internalType": "uint256",
          "name": "value",
          "type": "uint256"
        }
      ],
      "name": "Transfer",
      "type": "event"
    },
    {
      "inputs": [],
      "name": "ADMIN_ROLE",
      "outputs": [
        {
          "internalType": "bytes32",
          "name": "",
          "type": "bytes32"
        }
      ],
      "stateMutability": "view",
      "type": "function"
    },
    {
      "inputs": [],
      "name": "DEFAULT_ADMIN_ROLE",
      "outputs": [
        {
          "internalType": "bytes32",
          "name": "",
          "type": "bytes32"
        }
      ],
      "stateMutability": "view",
      "type": "function"
    },
    {
      "inputs": [],
      "name": "MARKET_MAKING_ROLE",
      "outputs": [
        {
          "internalType": "bytes32",
          "name": "",
          "type": "bytes32"
        }
      ],
      "stateMutability": "view",
      "type": "function"
    },
    {
      "inputs": [
        {
          "internalType": "address",
          "name": "owner",
          "type": "address"
        },
        {
          "internalType": "address",
          "name": "spender",
          "type": "address"
        }
      ],
      "name": "allowance",
      "outputs": [
        {
          "internalType": "uint256",
          "name": "",
          "type": "uint256"
        }
      ],
      "stateMutability": "view",
      "type": "function"
    },
    {
      "inputs": [
        {
          "internalType": "address",
          "name": "spender",
          "type": "address"
        },
        {
          "internalType": "uint256",
          "name": "amount",
          "type": "uint256"
        }
      ],
      "name": "approve",
      "outputs": [
        {
          "internalType": "bool",
          "name": "",
          "type": "bool"
        }
      ],
      "stateMutability": "nonpayable",
      "type": "function"
    },
    {
      "inputs": [
        {
          "internalType": "address",
          "name": "account",
          "type": "address"
        }
      ],
      "name": "balanceOf",
      "outputs": [
        {
          "internalType": "uint256",
          "name": "",
          "type": "uint256"
        }
      ],
      "stateMutability": "view",
      "type": "function"
    },
    {
      "inputs": [],
      "name": "contractAddress",
      "outputs": [
        {
          "internalType": "address payable",
          "name": "",
          "type": "address"
        }
      ],
      "stateMutability": "view",
      "type": "function"
    },
    {
      "inputs": [],
      "name": "decimals",
      "outputs": [
        {
          "internalType": "uint8",
          "name": "",
          "type": "uint8"
        }
      ],
      "stateMutability": "view",
      "type": "function"
    },
    {
      "inputs": [
        {
          "internalType": "address",
          "name": "spender",
          "type": "address"
        },
        {
          "internalType": "uint256",
          "name": "subtractedValue",
          "type": "uint256"
        }
      ],
      "name": "decreaseAllowance",
      "outputs": [
        {
          "internalType": "bool",
          "name": "",
          "type": "bool"
        }
      ],
      "stateMutability": "nonpayable",
      "type": "function"
    },
    {
      "inputs": [],
      "name": "descriptionHash",
      "outputs": [
        {
          "internalType": "bytes32",
          "name": "",
          "type": "bytes32"
        }
      ],
      "stateMutability": "view",
      "type": "function"
    },
    {
      "inputs": [
        {
          "internalType": "bytes32",
          "name": "role",
          "type": "bytes32"
        }
      ],
      "name": "getRoleAdmin",
      "outputs": [
        {
          "internalType": "bytes32",
          "name": "",
          "type": "bytes32"
        }
      ],
      "stateMutability": "view",
      "type": "function"
    },
    {
      "inputs": [
        {
          "internalType": "bytes32",
          "name": "role",
          "type": "bytes32"
        },
        {
          "internalType": "address",
          "name": "account",
          "type": "address"
        }
      ],
      "name": "grantRole",
      "outputs": [],
      "stateMutability": "nonpayable",
      "type": "function"
    },
    {
      "inputs": [
        {
          "internalType": "bytes32",
          "name": "role",
          "type": "bytes32"
        },
        {
          "internalType": "address",
          "name": "account",
          "type": "address"
        }
      ],
      "name": "hasRole",
      "outputs": [
        {
          "internalType": "bool",
          "name": "",
          "type": "bool"
        }
      ],
      "stateMutability": "view",
      "type": "function"
    },
    {
      "inputs": [
        {
          "internalType": "address",
          "name": "spender",
          "type": "address"
        },
        {
          "internalType": "uint256",
          "name": "addedValue",
          "type": "uint256"
        }
      ],
      "name": "increaseAllowance",
      "outputs": [
        {
          "internalType": "bool",
          "name": "",
          "type": "bool"
        }
      ],
      "stateMutability": "nonpayable",
      "type": "function"
    },
    {
      "inputs": [],
      "name": "isUnderlyingNative",
      "outputs": [
        {
          "internalType": "bool",
          "name": "",
          "type": "bool"
        }
      ],
      "stateMutability": "view",
      "type": "function"
    },
    {
      "inputs": [],
      "name": "margin",
      "outputs": [
        {
          "internalType": "uint256",
          "name": "numerator",
          "type": "uint256"
        },
        {
          "internalType": "uint256",
          "name": "denominator",
          "type": "uint256"
        }
      ],
      "stateMutability": "view",
      "type": "function"
    },
    {
      "inputs": [],
      "name": "name",
      "outputs": [
        {
          "internalType": "string",
          "name": "",
          "type": "string"
        }
      ],
      "stateMutability": "view",
      "type": "function"
    },
    {
      "inputs": [
        {
          "internalType": "bytes32",
          "name": "role",
          "type": "bytes32"
        },
        {
          "internalType": "address",
          "name": "account",
          "type": "address"
        }
      ],
      "name": "renounceRole",
      "outputs": [],
      "stateMutability": "nonpayable",
      "type": "function"
    },
    {
      "inputs": [
        {
          "internalType": "bytes32",
          "name": "role",
          "type": "bytes32"
        },
        {
          "internalType": "address",
          "name": "account",
          "type": "address"
        }
      ],
      "name": "revokeRole",
      "outputs": [],
      "stateMutability": "nonpayable",
      "type": "function"
    },
    {
      "inputs": [
        {
          "internalType": "bytes4",
          "name": "interfaceId",
          "type": "bytes4"
        }
      ],
      "name": "supportsInterface",
      "outputs": [
        {
          "internalType": "bool",
          "name": "",
          "type": "bool"
        }
      ],
      "stateMutability": "view",
      "type": "function"
    },
    {
      "inputs": [],
      "name": "symbol",
      "outputs": [
        {
          "internalType": "string",
          "name": "",
          "type": "string"
        }
      ],
      "stateMutability": "view",
      "type": "function"
    },
    {
      "inputs": [],
      "name": "tenor",
      "outputs": [
        {
          "internalType": "uint256",
          "name": "",
          "type": "uint256"
        }
      ],
      "stateMutability": "view",
      "type": "function"
    },
    {
      "inputs": [],
      "name": "totalSupply",
      "outputs": [
        {
          "internalType": "uint256",
          "name": "",
          "type": "uint256"
        }
      ],
      "stateMutability": "view",
      "type": "function"
    },
    {
      "inputs": [
        {
          "internalType": "address",
          "name": "recipient",
          "type": "address"
        },
        {
          "internalType": "uint256",
          "name": "amount",
          "type": "uint256"
        }
      ],
      "name": "transfer",
      "outputs": [
        {
          "internalType": "bool",
          "name": "",
          "type": "bool"
        }
      ],
      "stateMutability": "nonpayable",
      "type": "function"
    },
    {
      "inputs": [
        {
          "internalType": "address",
          "name": "sender",
          "type": "address"
        },
        {
          "internalType": "address",
          "name": "recipient",
          "type": "address"
        },
        {
          "internalType": "uint256",
          "name": "amount",
          "type": "uint256"
        }
      ],
      "name": "transferFrom",
      "outputs": [
        {
          "internalType": "bool",
          "name": "",
          "type": "bool"
        }
      ],
      "stateMutability": "nonpayable",
      "type": "function"
    },
    {
      "stateMutability": "payable",
      "type": "receive"
    },
    {
      "inputs": [
        {
          "internalType": "address",
          "name": "_account",
          "type": "address"
        },
        {
          "internalType": "uint256",
          "name": "_amount",
          "type": "uint256"
        }
      ],
      "name": "mint",
      "outputs": [],
      "stateMutability": "payable",
      "type": "function"
    },
    {
      "inputs": [
        {
          "internalType": "address",
          "name": "_account",
          "type": "address"
        },
        {
          "internalType": "uint256",
          "name": "_amount",
          "type": "uint256"
        }
      ],
      "name": "burn",
      "outputs": [],
      "stateMutability": "nonpayable",
      "type": "function"
    },
    {
      "inputs": [
        {
          "internalType": "uint256",
          "name": "_amount",
          "type": "uint256"
        },
        {
          "internalType": "uint256",
          "name": "_price",
          "type": "uint256"
        },
        {
          "internalType": "uint256",
          "name": "_volatility",
          "type": "uint256"
        }
      ],
      "name": "calculateMintValue",
      "outputs": [
        {
          "internalType": "uint256",
          "name": "",
          "type": "uint256"
        }
      ],
      "stateMutability": "view",
      "type": "function"
    },
    {
      "inputs": [
        {
          "internalType": "uint256",
          "name": "_ethValue",
          "type": "uint256"
        },
        {
          "internalType": "uint256",
          "name": "_price",
          "type": "uint256"
        },
        {
          "internalType": "uint256",
          "name": "_volatility",
          "type": "uint256"
        }
      ],
      "name": "calculateMintableAmount",
      "outputs": [
        {
          "internalType": "uint256",
          "name": "",
          "type": "uint256"
        }
      ],
      "stateMutability": "view",
      "type": "function"
    },
    {
      "inputs": [
        {
          "internalType": "address payable",
          "name": "_recipient",
          "type": "address"
        },
        {
          "internalType": "uint256",
          "name": "_amount",
          "type": "uint256"
        }
      ],
      "name": "recycle",
      "outputs": [
        {
          "internalType": "uint256",
          "name": "",
          "type": "uint256"
        }
      ],
      "stateMutability": "nonpayable",
      "type": "function"
    },
    {
      "inputs": [
        {
          "internalType": "address payable",
          "name": "_recipient",
          "type": "address"
        },
        {
          "internalType": "uint256",
          "name": "_amount",
          "type": "uint256"
        },
        {
          "internalType": "contract ERC20",
          "name": "_token",
          "type": "address"
        }
      ],
      "name": "recycleInToken",
      "outputs": [
        {
          "internalType": "uint256",
          "name": "",
          "type": "uint256"
        }
      ],
      "stateMutability": "nonpayable",
      "type": "function"
    },
    {
      "inputs": [
        {
          "internalType": "uint256",
          "name": "_margin",
          "type": "uint256"
        },
        {
          "internalType": "uint256",
          "name": "_marginDenominator",
          "type": "uint256"
        }
      ],
      "name": "resetMargin",
      "outputs": [],
      "stateMutability": "nonpayable",
      "type": "function"
    }
  ],
  "bytecode": "0x60806040523480156200001157600080fd5b5060405162003cca38038062003cca833981810160405281019062000037919062000588565b818181600390805190602001906200005192919062000300565b5080600490805190602001906200006a92919062000300565b5050506200009f7fa49807205ce4d355092ef5a8a18f56e8913cf4a201fbe287825b095693c21775336200018560201b60201c565b620000d17fea88816b763834ba9e21f37b0611d1194665ca246e2eabaf6b83c704dd3d72be336200018560201b60201c565b8260068190555083604051602001620000eb9190620006a4565b6040516020818303038152906040528051906020012060078190555060405180604001604052806127108152602001620f42408152506009600082015181600001556020820151816001015590505030600860006101000a81548173ffffffffffffffffffffffffffffffffffffffff021916908373ffffffffffffffffffffffffffffffffffffffff1602179055505050505062000722565b6200019782826200019b60201b60201c565b5050565b620001ad82826200028d60201b60201c565b620002895760016005600084815260200190815260200160002060000160008373ffffffffffffffffffffffffffffffffffffffff1673ffffffffffffffffffffffffffffffffffffffff16815260200190815260200160002060006101000a81548160ff0219169083151502179055506200022e620002f860201b60201c565b73ffffffffffffffffffffffffffffffffffffffff168173ffffffffffffffffffffffffffffffffffffffff16837f2f8788117e7eff1d82e926ec794901d17c78024a50270940304540a733656f0d60405160405180910390a45b5050565b60006005600084815260200190815260200160002060000160008373ffffffffffffffffffffffffffffffffffffffff1673ffffffffffffffffffffffffffffffffffffffff16815260200190815260200160002060009054906101000a900460ff16905092915050565b600033905090565b8280546200030e90620006ec565b90600052602060002090601f0160209004810192826200033257600085556200037e565b82601f106200034d57805160ff19168380011785556200037e565b828001600101855582156200037e579182015b828111156200037d57825182559160200191906001019062000360565b5b5090506200038d919062000391565b5090565b5b80821115620003ac57600081600090555060010162000392565b5090565b6000604051905090565b600080fd5b600080fd5b600080fd5b600080fd5b6000601f19601f8301169050919050565b7f4e487b7100000000000000000000000000000000000000000000000000000000600052604160045260246000fd5b6200041982620003ce565b810181811067ffffffffffffffff821117156200043b576200043a620003df565b5b80604052505050565b600062000450620003b0565b90506200045e82826200040e565b919050565b600067ffffffffffffffff821115620004815762000480620003df565b5b6200048c82620003ce565b9050602081019050919050565b60005b83811015620004b95780820151818401526020810190506200049c565b83811115620004c9576000848401525b50505050565b6000620004e6620004e08462000463565b62000444565b905082815260208101848484011115620005055762000504620003c9565b5b6200051284828562000499565b509392505050565b600082601f830112620005325762000531620003c4565b5b815162000544848260208601620004cf565b91505092915050565b6000819050919050565b62000562816200054d565b81146200056e57600080fd5b50565b600081519050620005828162000557565b92915050565b60008060008060808587031215620005a557620005a4620003ba565b5b600085015167ffffffffffffffff811115620005c657620005c5620003bf565b5b620005d4878288016200051a565b9450506020620005e78782880162000571565b935050604085015167ffffffffffffffff8111156200060b576200060a620003bf565b5b62000619878288016200051a565b925050606085015167ffffffffffffffff8111156200063d576200063c620003bf565b5b6200064b878288016200051a565b91505092959194509250565b600081519050919050565b600081905092915050565b60006200067a8262000657565b62000686818562000662565b93506200069881856020860162000499565b80840191505092915050565b6000620006b282846200066d565b915081905092915050565b7f4e487b7100000000000000000000000000000000000000000000000000000000600052602260045260246000fd5b600060028204905060018216806200070557607f821691505b602082108114156200071c576200071b620006bd565b5b50919050565b61359880620007326000396000f3fe6080604052600436106101e75760003560e01c806375b238fc11610102578063a457c2d711610095578063dd62ed3e11610064578063dd62ed3e1461077b578063df648dc4146107b8578063f6844c4d146107e3578063f6b4dfb41461080c576101ee565b8063a457c2d71461069b578063a9059cbb146106d8578063d2f714c514610715578063d547741f14610752576101ee565b806395d89b41116100d157806395d89b41146105f15780639dc29fac1461061c578063a15612d114610645578063a217fddf14610670576101ee565b806375b238fc1461053257806385dcee931461055d5780638f76691a1461058857806391d14854146105b4576101ee565b80632fc7a44a1161017a57806340c10f191161014957806340c10f191461045f5780635d36d1821461047b57806362c5c119146104b857806370a08231146104f5576101ee565b80632fc7a44a14610391578063313ce567146103ce57806336568abe146103f95780633950935114610422576101ee565b80631ee51acf116101b65780631ee51acf146102c357806323b872dd146102ee578063248a9ca31461032b5780632f2ff15d14610368576101ee565b806301ffc9a7146101f357806306fdde0314610230578063095ea7b31461025b57806318160ddd14610298576101ee565b366101ee57005b600080fd5b3480156101ff57600080fd5b5061021a6004803603810190610215919061239b565b610837565b60405161022791906123e3565b60405180910390f35b34801561023c57600080fd5b506102456108b1565b6040516102529190612497565b60405180910390f35b34801561026757600080fd5b50610282600480360381019061027d919061254d565b610943565b60405161028f91906123e3565b60405180910390f35b3480156102a457600080fd5b506102ad610961565b6040516102ba919061259c565b60405180910390f35b3480156102cf57600080fd5b506102d861096b565b6040516102e591906125d0565b60405180910390f35b3480156102fa57600080fd5b50610315600480360381019061031091906125eb565b61098f565b60405161032291906123e3565b60405180910390f35b34801561033757600080fd5b50610352600480360381019061034d919061266a565b610a87565b60405161035f91906125d0565b60405180910390f35b34801561037457600080fd5b5061038f600480360381019061038a9190612697565b610aa7565b005b34801561039d57600080fd5b506103b860048036038101906103b391906126d7565b610ad0565b6040516103c5919061259c565b60405180910390f35b3480156103da57600080fd5b506103e3610b0a565b6040516103f09190612746565b60405180910390f35b34801561040557600080fd5b50610420600480360381019061041b9190612697565b610b13565b005b34801561042e57600080fd5b506104496004803603810190610444919061254d565b610b96565b60405161045691906123e3565b60405180910390f35b6104796004803603810190610474919061254d565b610c42565b005b34801561048757600080fd5b506104a2600480360381019061049d919061279f565b610c83565b6040516104af919061259c565b60405180910390f35b3480156104c457600080fd5b506104df60048036038101906104da91906126d7565b610e64565b6040516104ec919061259c565b60405180910390f35b34801561050157600080fd5b5061051c600480360381019061051791906127df565b610e9e565b604051610529919061259c565b60405180910390f35b34801561053e57600080fd5b50610547610ee6565b60405161055491906125d0565b60405180910390f35b34801561056957600080fd5b50610572610f0a565b60405161057f91906125d0565b60405180910390f35b34801561059457600080fd5b5061059d610f10565b6040516105ab92919061280c565b60405180910390f35b3480156105c057600080fd5b506105db60048036038101906105d69190612697565b610f22565b6040516105e891906123e3565b60405180910390f35b3480156105fd57600080fd5b50610606610f8d565b6040516106139190612497565b60405180910390f35b34801561062857600080fd5b50610643600480360381019061063e919061254d565b61101f565b005b34801561065157600080fd5b5061065a611060565b604051610667919061259c565b60405180910390f35b34801561067c57600080fd5b50610685611066565b60405161069291906125d0565b60405180910390f35b3480156106a757600080fd5b506106c260048036038101906106bd919061254d565b61106d565b6040516106cf91906123e3565b60405180910390f35b3480156106e457600080fd5b506106ff60048036038101906106fa919061254d565b611158565b60405161070c91906123e3565b60405180910390f35b34801561072157600080fd5b5061073c60048036038101906107379190612873565b611176565b604051610749919061259c565b60405180910390f35b34801561075e57600080fd5b5061077960048036038101906107749190612697565b611459565b005b34801561078757600080fd5b506107a2600480360381019061079d91906128c6565b611482565b6040516107af919061259c565b60405180910390f35b3480156107c457600080fd5b506107cd611509565b6040516107da91906123e3565b60405180910390f35b3480156107ef57600080fd5b5061080a60048036038101906108059190612906565b61151c565b005b34801561081857600080fd5b50610821611581565b60405161082e9190612955565b60405180910390f35b60007f7965db0b000000000000000000000000000000000000000000000000000000007bffffffffffffffffffffffffffffffffffffffffffffffffffffffff1916827bffffffffffffffffffffffffffffffffffffffffffffffffffffffff191614806108aa57506108a9826115a7565b5b9050919050565b6060600380546108c09061299f565b80601f01602080910402602001604051908101604052809291908181526020018280546108ec9061299f565b80156109395780601f1061090e57610100808354040283529160200191610939565b820191906000526020600020905b81548152906001019060200180831161091c57829003601f168201915b5050505050905090565b6000610957610950611611565b8484611619565b6001905092915050565b6000600254905090565b7fea88816b763834ba9e21f37b0611d1194665ca246e2eabaf6b83c704dd3d72be81565b600061099c8484846117e4565b6000600160008673ffffffffffffffffffffffffffffffffffffffff1673ffffffffffffffffffffffffffffffffffffffff16815260200190815260200160002060006109e7611611565b73ffffffffffffffffffffffffffffffffffffffff1673ffffffffffffffffffffffffffffffffffffffff16815260200190815260200160002054905082811015610a67576040517f08c379a0000000000000000000000000000000000000000000000000000000008152600401610a5e90612a43565b60405180910390fd5b610a7b85610a73611611565b858403611619565b60019150509392505050565b600060056000838152602001908152602001600020600101549050919050565b610ab082610a87565b610ac181610abc611611565b611a65565b610acb8383611b02565b505050565b6000610b01610afa85600960010154600960000154600960010154610af59190612a92565b611be3565b8484611be3565b90509392505050565b60006012905090565b610b1b611611565b73ffffffffffffffffffffffffffffffffffffffff168173ffffffffffffffffffffffffffffffffffffffff1614610b88576040517f08c379a0000000000000000000000000000000000000000000000000000000008152600401610b7f90612b5a565b60405180910390fd5b610b928282611cdf565b5050565b6000610c38610ba3611611565b848460016000610bb1611611565b73ffffffffffffffffffffffffffffffffffffffff1673ffffffffffffffffffffffffffffffffffffffff16815260200190815260200160002060008873ffffffffffffffffffffffffffffffffffffffff1673ffffffffffffffffffffffffffffffffffffffff16815260200190815260200160002054610c339190612a92565b611619565b6001905092915050565b7fea88816b763834ba9e21f37b0611d1194665ca246e2eabaf6b83c704dd3d72be610c7481610c6f611611565b611a65565b610c7e8383611dc1565b505050565b60007fea88816b763834ba9e21f37b0611d1194665ca246e2eabaf6b83c704dd3d72be610cb781610cb2611611565b611a65565b6000610d0c600860009054906101000a900473ffffffffffffffffffffffffffffffffffffffff1673ffffffffffffffffffffffffffffffffffffffff1631670de0b6b3a7640000610d07610961565b611be3565b90506000610d238583670de0b6b3a7640000611be3565b9050600860009054906101000a900473ffffffffffffffffffffffffffffffffffffffff1673ffffffffffffffffffffffffffffffffffffffff1631811115610da1576040517f08c379a0000000000000000000000000000000000000000000000000000000008152600401610d9890612bc6565b60405180910390fd5b60008673ffffffffffffffffffffffffffffffffffffffff1682604051610dc790612c17565b60006040518083038185875af1925050503d8060008114610e04576040519150601f19603f3d011682016040523d82523d6000602084013e610e09565b606091505b5050905080610e4d576040517f08c379a0000000000000000000000000000000000000000000000000000000008152600401610e4490612c78565b60405180910390fd5b610e578787611f21565b8194505050505092915050565b6000610e95610e74858486611be3565b600960000154600960010154610e8a9190612a92565b600960010154611be3565b90509392505050565b60008060008373ffffffffffffffffffffffffffffffffffffffff1673ffffffffffffffffffffffffffffffffffffffff168152602001908152602001600020549050919050565b7fa49807205ce4d355092ef5a8a18f56e8913cf4a201fbe287825b095693c2177581565b60075481565b60098060000154908060010154905082565b60006005600084815260200190815260200160002060000160008373ffffffffffffffffffffffffffffffffffffffff1673ffffffffffffffffffffffffffffffffffffffff16815260200190815260200160002060009054906101000a900460ff16905092915050565b606060048054610f9c9061299f565b80601f0160208091040260200160405190810160405280929190818152602001828054610fc89061299f565b80156110155780601f10610fea57610100808354040283529160200191611015565b820191906000526020600020905b815481529060010190602001808311610ff857829003601f168201915b5050505050905090565b7fea88816b763834ba9e21f37b0611d1194665ca246e2eabaf6b83c704dd3d72be6110518161104c611611565b611a65565b61105b8383611f21565b505050565b60065481565b6000801b81565b6000806001600061107c611611565b73ffffffffffffffffffffffffffffffffffffffff1673ffffffffffffffffffffffffffffffffffffffff16815260200190815260200160002060008573ffffffffffffffffffffffffffffffffffffffff1673ffffffffffffffffffffffffffffffffffffffff16815260200190815260200160002054905082811015611139576040517f08c379a000000000000000000000000000000000000000000000000000000000815260040161113090612d0a565b60405180910390fd5b61114d611144611611565b85858403611619565b600191505092915050565b600061116c611165611611565b84846117e4565b6001905092915050565b60007fea88816b763834ba9e21f37b0611d1194665ca246e2eabaf6b83c704dd3d72be6111aa816111a5611611565b611a65565b60006112708473ffffffffffffffffffffffffffffffffffffffff166370a08231600860009054906101000a900473ffffffffffffffffffffffffffffffffffffffff166040518263ffffffff1660e01b815260040161120a9190612d89565b60206040518083038186803b15801561122257600080fd5b505afa158015611236573d6000803e3d6000fd5b505050506040513d601f19601f8201168201806040525081019061125a9190612db9565b670de0b6b3a764000061126b610961565b611be3565b905060006112878683670de0b6b3a7640000611be3565b90508473ffffffffffffffffffffffffffffffffffffffff166370a08231600860009054906101000a900473ffffffffffffffffffffffffffffffffffffffff166040518263ffffffff1660e01b81526004016112e49190612d89565b60206040518083038186803b1580156112fc57600080fd5b505afa158015611310573d6000803e3d6000fd5b505050506040513d601f19601f820116820180604052508101906113349190612db9565b811115611376576040517f08c379a000000000000000000000000000000000000000000000000000000000815260040161136d90612bc6565b60405180910390fd5b8473ffffffffffffffffffffffffffffffffffffffff1663a9059cbb88836040518363ffffffff1660e01b81526004016113b1929190612de6565b602060405180830381600087803b1580156113cb57600080fd5b505af11580156113df573d6000803e3d6000fd5b505050506040513d601f19601f820116820180604052508101906114039190612e3b565b611442576040517f08c379a000000000000000000000000000000000000000000000000000000000815260040161143990612c78565b60405180910390fd5b61144c8787611f21565b8093505050509392505050565b61146282610a87565b6114738161146e611611565b611a65565b61147d8383611cdf565b505050565b6000600160008473ffffffffffffffffffffffffffffffffffffffff1673ffffffffffffffffffffffffffffffffffffffff16815260200190815260200160002060008373ffffffffffffffffffffffffffffffffffffffff1673ffffffffffffffffffffffffffffffffffffffff16815260200190815260200160002054905092915050565b600b60009054906101000a900460ff1681565b7fa49807205ce4d355092ef5a8a18f56e8913cf4a201fbe287825b095693c2177561154e81611549611611565b611a65565b60405180604001604052808481526020018381525060096000820151816000015560208201518160010155905050505050565b600860009054906101000a900473ffffffffffffffffffffffffffffffffffffffff1681565b60007f01ffc9a7000000000000000000000000000000000000000000000000000000007bffffffffffffffffffffffffffffffffffffffffffffffffffffffff1916827bffffffffffffffffffffffffffffffffffffffffffffffffffffffff1916149050919050565b600033905090565b600073ffffffffffffffffffffffffffffffffffffffff168373ffffffffffffffffffffffffffffffffffffffff161415611689576040517f08c379a000000000000000000000000000000000000000000000000000000000815260040161168090612eda565b60405180910390fd5b600073ffffffffffffffffffffffffffffffffffffffff168273ffffffffffffffffffffffffffffffffffffffff1614156116f9576040517f08c379a00000000000000000000000000000000000000000000000000000000081526004016116f090612f6c565b60405180910390fd5b80600160008573ffffffffffffffffffffffffffffffffffffffff1673ffffffffffffffffffffffffffffffffffffffff16815260200190815260200160002060008473ffffffffffffffffffffffffffffffffffffffff1673ffffffffffffffffffffffffffffffffffffffff168152602001908152602001600020819055508173ffffffffffffffffffffffffffffffffffffffff168373ffffffffffffffffffffffffffffffffffffffff167f8c5be1e5ebec7d5bd14f71427d1e84f3dd0314c0f7b2291e5b200ac8c7c3b925836040516117d7919061259c565b60405180910390a3505050565b600073ffffffffffffffffffffffffffffffffffffffff168373ffffffffffffffffffffffffffffffffffffffff161415611854576040517f08c379a000000000000000000000000000000000000000000000000000000000815260040161184b90612ffe565b60405180910390fd5b600073ffffffffffffffffffffffffffffffffffffffff168273ffffffffffffffffffffffffffffffffffffffff1614156118c4576040517f08c379a00000000000000000000000000000000000000000000000000000000081526004016118bb90613090565b60405180910390fd5b6118cf8383836120f8565b60008060008573ffffffffffffffffffffffffffffffffffffffff1673ffffffffffffffffffffffffffffffffffffffff16815260200190815260200160002054905081811015611955576040517f08c379a000000000000000000000000000000000000000000000000000000000815260040161194c90613122565b60405180910390fd5b8181036000808673ffffffffffffffffffffffffffffffffffffffff1673ffffffffffffffffffffffffffffffffffffffff16815260200190815260200160002081905550816000808573ffffffffffffffffffffffffffffffffffffffff1673ffffffffffffffffffffffffffffffffffffffff16815260200190815260200160002060008282546119e89190612a92565b925050819055508273ffffffffffffffffffffffffffffffffffffffff168473ffffffffffffffffffffffffffffffffffffffff167fddf252ad1be2c89b69c2b068fc378daa952ba7f163c4a11628f55a4df523b3ef84604051611a4c919061259c565b60405180910390a3611a5f8484846120fd565b50505050565b611a6f8282610f22565b611afe57611a948173ffffffffffffffffffffffffffffffffffffffff166014612102565b611aa28360001c6020612102565b604051602001611ab3929190613216565b6040516020818303038152906040526040517f08c379a0000000000000000000000000000000000000000000000000000000008152600401611af59190612497565b60405180910390fd5b5050565b611b0c8282610f22565b611bdf5760016005600084815260200190815260200160002060000160008373ffffffffffffffffffffffffffffffffffffffff1673ffffffffffffffffffffffffffffffffffffffff16815260200190815260200160002060006101000a81548160ff021916908315150217905550611b84611611565b73ffffffffffffffffffffffffffffffffffffffff168173ffffffffffffffffffffffffffffffffffffffff16837f2f8788117e7eff1d82e926ec794901d17c78024a50270940304540a733656f0d60405160405180910390a45b5050565b600080600080198587098587029250828110838203039150506000811415611c1e5760008411611c1257600080fd5b83820492505050611cd8565b808411611c2a57600080fd5b60008486880990508281118203915080830392506000856001877fffffffffffffffffffffffffffffffffffffffffffffffffffffffffffffffff0301169050808604955080840493506001818260000304019050808302841793506000600287600302189050808702600203810290508087026002038102905080870260020381029050808702600203810290508087026002038102905080870260020381029050808502955050505050505b9392505050565b611ce98282610f22565b15611dbd5760006005600084815260200190815260200160002060000160008373ffffffffffffffffffffffffffffffffffffffff1673ffffffffffffffffffffffffffffffffffffffff16815260200190815260200160002060006101000a81548160ff021916908315150217905550611d62611611565b73ffffffffffffffffffffffffffffffffffffffff168173ffffffffffffffffffffffffffffffffffffffff16837ff6391f5c32d9c69d2a47ea670b442974b53935d1edc7fd64eb21e047a839171b60405160405180910390a45b5050565b600073ffffffffffffffffffffffffffffffffffffffff168273ffffffffffffffffffffffffffffffffffffffff161415611e31576040517f08c379a0000000000000000000000000000000000000000000000000000000008152600401611e289061329c565b60405180910390fd5b611e3d600083836120f8565b8060026000828254611e4f9190612a92565b92505081905550806000808473ffffffffffffffffffffffffffffffffffffffff1673ffffffffffffffffffffffffffffffffffffffff1681526020019081526020016000206000828254611ea49190612a92565b925050819055508173ffffffffffffffffffffffffffffffffffffffff16600073ffffffffffffffffffffffffffffffffffffffff167fddf252ad1be2c89b69c2b068fc378daa952ba7f163c4a11628f55a4df523b3ef83604051611f09919061259c565b60405180910390a3611f1d600083836120fd565b5050565b600073ffffffffffffffffffffffffffffffffffffffff168273ffffffffffffffffffffffffffffffffffffffff161415611f91576040517f08c379a0000000000000000000000000000000000000000000000000000000008152600401611f889061332e565b60405180910390fd5b611f9d826000836120f8565b60008060008473ffffffffffffffffffffffffffffffffffffffff1673ffffffffffffffffffffffffffffffffffffffff16815260200190815260200160002054905081811015612023576040517f08c379a000000000000000000000000000000000000000000000000000000000815260040161201a906133c0565b60405180910390fd5b8181036000808573ffffffffffffffffffffffffffffffffffffffff1673ffffffffffffffffffffffffffffffffffffffff16815260200190815260200160002081905550816002600082825461207a91906133e0565b92505081905550600073ffffffffffffffffffffffffffffffffffffffff168373ffffffffffffffffffffffffffffffffffffffff167fddf252ad1be2c89b69c2b068fc378daa952ba7f163c4a11628f55a4df523b3ef846040516120df919061259c565b60405180910390a36120f3836000846120fd565b505050565b505050565b505050565b6060600060028360026121159190613414565b61211f9190612a92565b67ffffffffffffffff8111156121385761213761346e565b5b6040519080825280601f01601f19166020018201604052801561216a5781602001600182028036833780820191505090505b5090507f3000000000000000000000000000000000000000000000000000000000000000816000815181106121a2576121a161349d565b5b60200101907effffffffffffffffffffffffffffffffffffffffffffffffffffffffffffff1916908160001a9053507f7800000000000000000000000000000000000000000000000000000000000000816001815181106122065761220561349d565b5b60200101907effffffffffffffffffffffffffffffffffffffffffffffffffffffffffffff1916908160001a905350600060018460026122469190613414565b6122509190612a92565b90505b60018111156122f0577f3031323334353637383961626364656600000000000000000000000000000000600f8616601081106122925761229161349d565b5b1a60f81b8282815181106122a9576122a861349d565b5b60200101907effffffffffffffffffffffffffffffffffffffffffffffffffffffffffffff1916908160001a905350600485901c9450806122e9906134cc565b9050612253565b5060008414612334576040517f08c379a000000000000000000000000000000000000000000000000000000000815260040161232b90613542565b60405180910390fd5b8091505092915050565b600080fd5b60007fffffffff0000000000000000000000000000000000000000000000000000000082169050919050565b61237881612343565b811461238357600080fd5b50565b6000813590506123958161236f565b92915050565b6000602082840312156123b1576123b061233e565b5b60006123bf84828501612386565b91505092915050565b60008115159050919050565b6123dd816123c8565b82525050565b60006020820190506123f860008301846123d4565b92915050565b600081519050919050565b600082825260208201905092915050565b60005b8381101561243857808201518184015260208101905061241d565b83811115612447576000848401525b50505050565b6000601f19601f8301169050919050565b6000612469826123fe565b6124738185612409565b935061248381856020860161241a565b61248c8161244d565b840191505092915050565b600060208201905081810360008301526124b1818461245e565b905092915050565b600073ffffffffffffffffffffffffffffffffffffffff82169050919050565b60006124e4826124b9565b9050919050565b6124f4816124d9565b81146124ff57600080fd5b50565b600081359050612511816124eb565b92915050565b6000819050919050565b61252a81612517565b811461253557600080fd5b50565b60008135905061254781612521565b92915050565b600080604083850312156125645761256361233e565b5b600061257285828601612502565b925050602061258385828601612538565b9150509250929050565b61259681612517565b82525050565b60006020820190506125b1600083018461258d565b92915050565b6000819050919050565b6125ca816125b7565b82525050565b60006020820190506125e560008301846125c1565b92915050565b6000806000606084860312156126045761260361233e565b5b600061261286828701612502565b935050602061262386828701612502565b925050604061263486828701612538565b9150509250925092565b612647816125b7565b811461265257600080fd5b50565b6000813590506126648161263e565b92915050565b6000602082840312156126805761267f61233e565b5b600061268e84828501612655565b91505092915050565b600080604083850312156126ae576126ad61233e565b5b60006126bc85828601612655565b92505060206126cd85828601612502565b9150509250929050565b6000806000606084860312156126f0576126ef61233e565b5b60006126fe86828701612538565b935050602061270f86828701612538565b925050604061272086828701612538565b9150509250925092565b600060ff82169050919050565b6127408161272a565b82525050565b600060208201905061275b6000830184612737565b92915050565b600061276c826124b9565b9050919050565b61277c81612761565b811461278757600080fd5b50565b60008135905061279981612773565b92915050565b600080604083850312156127b6576127b561233e565b5b60006127c48582860161278a565b92505060206127d585828601612538565b9150509250929050565b6000602082840312156127f5576127f461233e565b5b600061280384828501612502565b91505092915050565b6000604082019050612821600083018561258d565b61282e602083018461258d565b9392505050565b6000612840826124d9565b9050919050565b61285081612835565b811461285b57600080fd5b50565b60008135905061286d81612847565b92915050565b60008060006060848603121561288c5761288b61233e565b5b600061289a8682870161278a565b93505060206128ab86828701612538565b92505060406128bc8682870161285e565b9150509250925092565b600080604083850312156128dd576128dc61233e565b5b60006128eb85828601612502565b92505060206128fc85828601612502565b9150509250929050565b6000806040838503121561291d5761291c61233e565b5b600061292b85828601612538565b925050602061293c85828601612538565b9150509250929050565b61294f81612761565b82525050565b600060208201905061296a6000830184612946565b92915050565b7f4e487b7100000000000000000000000000000000000000000000000000000000600052602260045260246000fd5b600060028204905060018216806129b757607f821691505b602082108114156129cb576129ca612970565b5b50919050565b7f45524332303a207472616e7366657220616d6f756e742065786365656473206160008201527f6c6c6f77616e6365000000000000000000000000000000000000000000000000602082015250565b6000612a2d602883612409565b9150612a38826129d1565b604082019050919050565b60006020820190508181036000830152612a5c81612a20565b9050919050565b7f4e487b7100000000000000000000000000000000000000000000000000000000600052601160045260246000fd5b6000612a9d82612517565b9150612aa883612517565b9250827fffffffffffffffffffffffffffffffffffffffffffffffffffffffffffffffff03821115612add57612adc612a63565b5b828201905092915050565b7f416363657373436f6e74726f6c3a2063616e206f6e6c792072656e6f756e636560008201527f20726f6c657320666f722073656c660000000000000000000000000000000000602082015250565b6000612b44602f83612409565b9150612b4f82612ae8565b604082019050919050565b60006020820190508181036000830152612b7381612b37565b9050919050565b7f43757272656e742062616c616e6365206e6f7420656e6f7567682e0000000000600082015250565b6000612bb0601b83612409565b9150612bbb82612b7a565b602082019050919050565b60006020820190508181036000830152612bdf81612ba3565b9050919050565b600081905092915050565b50565b6000612c01600083612be6565b9150612c0c82612bf1565b600082019050919050565b6000612c2282612bf4565b9150819050919050565b7f5769746864726177616c206661696c65642e0000000000000000000000000000600082015250565b6000612c62601283612409565b9150612c6d82612c2c565b602082019050919050565b60006020820190508181036000830152612c9181612c55565b9050919050565b7f45524332303a2064656372656173656420616c6c6f77616e63652062656c6f7760008201527f207a65726f000000000000000000000000000000000000000000000000000000602082015250565b6000612cf4602583612409565b9150612cff82612c98565b604082019050919050565b60006020820190508181036000830152612d2381612ce7565b9050919050565b6000819050919050565b6000612d4f612d4a612d45846124b9565b612d2a565b6124b9565b9050919050565b6000612d6182612d34565b9050919050565b6000612d7382612d56565b9050919050565b612d8381612d68565b82525050565b6000602082019050612d9e6000830184612d7a565b92915050565b600081519050612db381612521565b92915050565b600060208284031215612dcf57612dce61233e565b5b6000612ddd84828501612da4565b91505092915050565b6000604082019050612dfb6000830185612d7a565b612e08602083018461258d565b9392505050565b612e18816123c8565b8114612e2357600080fd5b50565b600081519050612e3581612e0f565b92915050565b600060208284031215612e5157612e5061233e565b5b6000612e5f84828501612e26565b91505092915050565b7f45524332303a20617070726f76652066726f6d20746865207a65726f2061646460008201527f7265737300000000000000000000000000000000000000000000000000000000602082015250565b6000612ec4602483612409565b9150612ecf82612e68565b604082019050919050565b60006020820190508181036000830152612ef381612eb7565b9050919050565b7f45524332303a20617070726f766520746f20746865207a65726f20616464726560008201527f7373000000000000000000000000000000000000000000000000000000000000602082015250565b6000612f56602283612409565b9150612f6182612efa565b604082019050919050565b60006020820190508181036000830152612f8581612f49565b9050919050565b7f45524332303a207472616e736665722066726f6d20746865207a65726f20616460008201527f6472657373000000000000000000000000000000000000000000000000000000602082015250565b6000612fe8602583612409565b9150612ff382612f8c565b604082019050919050565b6000602082019050818103600083015261301781612fdb565b9050919050565b7f45524332303a207472616e7366657220746f20746865207a65726f206164647260008201527f6573730000000000000000000000000000000000000000000000000000000000602082015250565b600061307a602383612409565b91506130858261301e565b604082019050919050565b600060208201905081810360008301526130a98161306d565b9050919050565b7f45524332303a207472616e7366657220616d6f756e742065786365656473206260008201527f616c616e63650000000000000000000000000000000000000000000000000000602082015250565b600061310c602683612409565b9150613117826130b0565b604082019050919050565b6000602082019050818103600083015261313b816130ff565b9050919050565b600081905092915050565b7f416363657373436f6e74726f6c3a206163636f756e7420000000000000000000600082015250565b6000613183601783613142565b915061318e8261314d565b601782019050919050565b60006131a4826123fe565b6131ae8185613142565b93506131be81856020860161241a565b80840191505092915050565b7f206973206d697373696e6720726f6c6520000000000000000000000000000000600082015250565b6000613200601183613142565b915061320b826131ca565b601182019050919050565b600061322182613176565b915061322d8285613199565b9150613238826131f3565b91506132448284613199565b91508190509392505050565b7f45524332303a206d696e7420746f20746865207a65726f206164647265737300600082015250565b6000613286601f83612409565b915061329182613250565b602082019050919050565b600060208201905081810360008301526132b581613279565b9050919050565b7f45524332303a206275726e2066726f6d20746865207a65726f2061646472657360008201527f7300000000000000000000000000000000000000000000000000000000000000602082015250565b6000613318602183612409565b9150613323826132bc565b604082019050919050565b600060208201905081810360008301526133478161330b565b9050919050565b7f45524332303a206275726e20616d6f756e7420657863656564732062616c616e60008201527f6365000000000000000000000000000000000000000000000000000000000000602082015250565b60006133aa602283612409565b91506133b58261334e565b604082019050919050565b600060208201905081810360008301526133d98161339d565b9050919050565b60006133eb82612517565b91506133f683612517565b92508282101561340957613408612a63565b5b828203905092915050565b600061341f82612517565b915061342a83612517565b9250817fffffffffffffffffffffffffffffffffffffffffffffffffffffffffffffffff048311821515161561346357613462612a63565b5b828202905092915050565b7f4e487b7100000000000000000000000000000000000000000000000000000000600052604160045260246000fd5b7f4e487b7100000000000000000000000000000000000000000000000000000000600052603260045260246000fd5b60006134d782612517565b915060008214156134eb576134ea612a63565b5b600182039050919050565b7f537472696e67733a20686578206c656e67746820696e73756666696369656e74600082015250565b600061352c602083612409565b9150613537826134f6565b602082019050919050565b6000602082019050818103600083015261355b8161351f565b905091905056fea2646970667358221220e56716b56144a9368833ca59f13dd65054bfb504c91d32eb50766ce99c733aac64736f6c63430008090033",
  "immutableReferences": {},
  "source": "pragma solidity 0.8.9;\n\n/**\n * SPDX-License-Identifier: GPL-3.0-or-later\n * Moret\n * Copyright (C) 2021 Moret\n */\n\nimport \"./FullMath.sol\";\nimport \"./MoretInterfaces.sol\";\nimport \"./OptionLibrary.sol\";\nimport \"@openzeppelin/contracts/token/ERC20/ERC20.sol\";\nimport \"@openzeppelin/contracts/access/AccessControl.sol\";\n\ncontract VolatilityToken is ERC20, AccessControl\n{\n  bytes32 public constant ADMIN_ROLE = keccak256(\"ADMIN_ROLE\");\n  bytes32 public constant MARKET_MAKING_ROLE = keccak256(\"MARKET_MAKING_ROLE\");\n  uint256 private constant ethMultiplier = 10 ** 18;\n\n  uint256 public tenor;\n  bytes32 public descriptionHash;\n  address payable public contractAddress;\n\n  OptionLibrary.Percent public margin;\n  bool public isUnderlyingNative;\n\n  constructor(\n    string memory _underlyingName,\n    uint256 _tenor,\n    string memory _name,\n    string memory _symbol\n    )\n  ERC20(_name, _symbol)\n  {\n     _setupRole(ADMIN_ROLE, msg.sender);\n     _setupRole(MARKET_MAKING_ROLE, msg.sender);\n\n    tenor = _tenor;\n    descriptionHash = keccak256(abi.encodePacked(_underlyingName));\n    margin = OptionLibrary.Percent(10 ** 4, 10 ** 6);\n\n    contractAddress = payable(address(this));\n  }\n\n  function mint(address _account, uint256 _amount) public payable onlyRole(MARKET_MAKING_ROLE) {\n      _mint(_account, _amount);\n  }\n\n  function burn(address _account, uint256 _amount) public onlyRole(MARKET_MAKING_ROLE){\n      _burn(_account, _amount);\n  }\n\n    function calculateMintValue(uint256 _amount, uint256 _price, uint256 _volatility)\n    public view returns(uint256){\n        return MulDiv(MulDiv(_amount, _volatility, _price), margin.denominator + margin.numerator, margin.denominator);\n    }\n\n    function calculateMintableAmount(uint256 _ethValue, uint256 _price, uint256 _volatility)\n    public view returns(uint256){\n        return MulDiv(MulDiv(_ethValue, margin.denominator, margin.denominator + margin.numerator), _price, _volatility);\n    }\n\n    function recycle(address payable _recipient, uint256 _amount) external onlyRole(MARKET_MAKING_ROLE) returns(uint256) {\n        uint256 _impliedPrice = MulDiv(contractAddress.balance, ethMultiplier, totalSupply());\n        uint256 _swapAmount = MulDiv(_amount, _impliedPrice, ethMultiplier);\n\n        require(_swapAmount<= contractAddress.balance, \"Current balance not enough.\");\n\n        (bool _sent, ) = _recipient.call{value: _swapAmount }(\"\");\n        require(_sent, \"Withdrawal failed.\");\n\n        _burn(_recipient, _amount);\n        return _swapAmount;\n    }\n\n    function recycleInToken(address payable _recipient, uint256 _amount, ERC20 _token) external onlyRole(MARKET_MAKING_ROLE) returns(uint256) {\n        uint256 _impliedPrice = MulDiv(_token.balanceOf(contractAddress), ethMultiplier, totalSupply());\n        uint256 _swapAmount = MulDiv(_amount, _impliedPrice, ethMultiplier);\n\n        require(_swapAmount<= _token.balanceOf(contractAddress), \"Current balance not enough.\");\n        require(_token.transfer(_recipient, _swapAmount), \"Withdrawal failed.\");\n\n        _burn(_recipient, _amount);\n        return _swapAmount;\n    }\n\n    function resetMargin(uint256 _margin, uint256 _marginDenominator) public onlyRole(ADMIN_ROLE){\n        margin = OptionLibrary.Percent(_margin, _marginDenominator);\n        /* emit newMargin(_margin); */\n    }\n\n\n    receive() external payable{}\n\n    /* event newMargin(uint256 _margin); */\n}\n",
  "sourcePath": "/Users/apple/Documents/GitHub/moret/contracts/VolatilityToken.sol",
  "compiler": {
    "name": "solc",
    "version": "0.8.9+commit.e5eed63a.Emscripten.clang"
  },
  "schemaVersion": "3.4.3",
  "updatedAt": "2021-11-10T20:12:01.584Z",
  "devdoc": {
    "kind": "dev",
    "methods": {
      "allowance(address,address)": {
        "details": "See {IERC20-allowance}."
      },
      "approve(address,uint256)": {
        "details": "See {IERC20-approve}. Requirements: - `spender` cannot be the zero address."
      },
      "balanceOf(address)": {
        "details": "See {IERC20-balanceOf}."
      },
      "decimals()": {
        "details": "Returns the number of decimals used to get its user representation. For example, if `decimals` equals `2`, a balance of `505` tokens should be displayed to a user as `5.05` (`505 / 10 ** 2`). Tokens usually opt for a value of 18, imitating the relationship between Ether and Wei. This is the value {ERC20} uses, unless this function is overridden; NOTE: This information is only used for _display_ purposes: it in no way affects any of the arithmetic of the contract, including {IERC20-balanceOf} and {IERC20-transfer}."
      },
      "decreaseAllowance(address,uint256)": {
        "details": "Atomically decreases the allowance granted to `spender` by the caller. This is an alternative to {approve} that can be used as a mitigation for problems described in {IERC20-approve}. Emits an {Approval} event indicating the updated allowance. Requirements: - `spender` cannot be the zero address. - `spender` must have allowance for the caller of at least `subtractedValue`."
      },
      "getRoleAdmin(bytes32)": {
        "details": "Returns the admin role that controls `role`. See {grantRole} and {revokeRole}. To change a role's admin, use {_setRoleAdmin}."
      },
      "grantRole(bytes32,address)": {
        "details": "Grants `role` to `account`. If `account` had not been already granted `role`, emits a {RoleGranted} event. Requirements: - the caller must have ``role``'s admin role."
      },
      "hasRole(bytes32,address)": {
        "details": "Returns `true` if `account` has been granted `role`."
      },
      "increaseAllowance(address,uint256)": {
        "details": "Atomically increases the allowance granted to `spender` by the caller. This is an alternative to {approve} that can be used as a mitigation for problems described in {IERC20-approve}. Emits an {Approval} event indicating the updated allowance. Requirements: - `spender` cannot be the zero address."
      },
      "name()": {
        "details": "Returns the name of the token."
      },
      "renounceRole(bytes32,address)": {
        "details": "Revokes `role` from the calling account. Roles are often managed via {grantRole} and {revokeRole}: this function's purpose is to provide a mechanism for accounts to lose their privileges if they are compromised (such as when a trusted device is misplaced). If the calling account had been granted `role`, emits a {RoleRevoked} event. Requirements: - the caller must be `account`."
      },
      "revokeRole(bytes32,address)": {
        "details": "Revokes `role` from `account`. If `account` had been granted `role`, emits a {RoleRevoked} event. Requirements: - the caller must have ``role``'s admin role."
      },
      "supportsInterface(bytes4)": {
        "details": "See {IERC165-supportsInterface}."
      },
      "symbol()": {
        "details": "Returns the symbol of the token, usually a shorter version of the name."
      },
      "totalSupply()": {
        "details": "See {IERC20-totalSupply}."
      },
      "transfer(address,uint256)": {
        "details": "See {IERC20-transfer}. Requirements: - `recipient` cannot be the zero address. - the caller must have a balance of at least `amount`."
      },
      "transferFrom(address,address,uint256)": {
        "details": "See {IERC20-transferFrom}. Emits an {Approval} event indicating the updated allowance. This is not required by the EIP. See the note at the beginning of {ERC20}. Requirements: - `sender` and `recipient` cannot be the zero address. - `sender` must have a balance of at least `amount`. - the caller must have allowance for ``sender``'s tokens of at least `amount`."
      }
    },
    "version": 1
  },
  "userdoc": {
    "kind": "user",
    "methods": {},
    "version": 1
  }
}