{
  "contractName": "VolatilityChain",
  "abi": [
    {
      "inputs": [
        {
          "internalType": "address",
          "name": "_priceSourceId",
          "type": "address"
        },
        {
          "internalType": "uint256",
          "name": "_parameterDecimals",
          "type": "uint256"
        },
        {
          "internalType": "string",
          "name": "_tokenName",
          "type": "string"
        }
      ],
      "stateMutability": "nonpayable",
      "type": "constructor"
    },
    {
      "anonymous": false,
      "inputs": [
        {
          "indexed": true,
          "internalType": "address",
          "name": "previousOwner",
          "type": "address"
        },
        {
          "indexed": true,
          "internalType": "address",
          "name": "newOwner",
          "type": "address"
        }
      ],
      "name": "OwnershipTransferred",
      "type": "event"
    },
    {
      "anonymous": false,
      "inputs": [
        {
          "indexed": true,
          "internalType": "bytes32",
          "name": "role",
          "type": "bytes32"
        },
        {
          "indexed": true,
          "internalType": "bytes32",
          "name": "previousAdminRole",
          "type": "bytes32"
        },
        {
          "indexed": true,
          "internalType": "bytes32",
          "name": "newAdminRole",
          "type": "bytes32"
        }
      ],
      "name": "RoleAdminChanged",
      "type": "event"
    },
    {
      "anonymous": false,
      "inputs": [
        {
          "indexed": true,
          "internalType": "bytes32",
          "name": "role",
          "type": "bytes32"
        },
        {
          "indexed": true,
          "internalType": "address",
          "name": "account",
          "type": "address"
        },
        {
          "indexed": true,
          "internalType": "address",
          "name": "sender",
          "type": "address"
        }
      ],
      "name": "RoleGranted",
      "type": "event"
    },
    {
      "anonymous": false,
      "inputs": [
        {
          "indexed": true,
          "internalType": "bytes32",
          "name": "role",
          "type": "bytes32"
        },
        {
          "indexed": true,
          "internalType": "address",
          "name": "account",
          "type": "address"
        },
        {
          "indexed": true,
          "internalType": "address",
          "name": "sender",
          "type": "address"
        }
      ],
      "name": "RoleRevoked",
      "type": "event"
    },
    {
      "anonymous": false,
      "inputs": [
        {
          "indexed": true,
          "internalType": "uint256",
          "name": "_tenor",
          "type": "uint256"
        },
        {
          "indexed": false,
          "internalType": "uint256",
          "name": "_timeStamp",
          "type": "uint256"
        },
        {
          "components": [
            {
              "internalType": "uint256",
              "name": "startTime",
              "type": "uint256"
            },
            {
              "internalType": "uint256",
              "name": "endTime",
              "type": "uint256"
            },
            {
              "internalType": "uint256",
              "name": "open",
              "type": "uint256"
            },
            {
              "internalType": "uint256",
              "name": "highest",
              "type": "uint256"
            },
            {
              "internalType": "uint256",
              "name": "lowest",
              "type": "uint256"
            },
            {
              "internalType": "uint256",
              "name": "close",
              "type": "uint256"
            },
            {
              "internalType": "uint256",
              "name": "volatility",
              "type": "uint256"
            },
            {
              "internalType": "uint256",
              "name": "accentus",
              "type": "uint256"
            }
          ],
          "indexed": false,
          "internalType": "struct IVolatilityChain.PriceStamp",
          "name": "_book",
          "type": "tuple"
        }
      ],
      "name": "volatilityChainBlockAdded",
      "type": "event"
    },
    {
      "inputs": [],
      "name": "DEFAULT_ADMIN_ROLE",
      "outputs": [
        {
          "internalType": "bytes32",
          "name": "",
          "type": "bytes32"
        }
      ],
      "stateMutability": "view",
      "type": "function"
    },
    {
      "inputs": [],
      "name": "UPDATE_ROLE",
      "outputs": [
        {
          "internalType": "bytes32",
          "name": "",
          "type": "bytes32"
        }
      ],
      "stateMutability": "view",
      "type": "function"
    },
    {
      "inputs": [],
      "name": "description",
      "outputs": [
        {
          "internalType": "string",
          "name": "",
          "type": "string"
        }
      ],
      "stateMutability": "view",
      "type": "function"
    },
    {
      "inputs": [
        {
          "internalType": "bytes32",
          "name": "role",
          "type": "bytes32"
        }
      ],
      "name": "getRoleAdmin",
      "outputs": [
        {
          "internalType": "bytes32",
          "name": "",
          "type": "bytes32"
        }
      ],
      "stateMutability": "view",
      "type": "function"
    },
    {
      "inputs": [
        {
          "internalType": "bytes32",
          "name": "role",
          "type": "bytes32"
        },
        {
          "internalType": "address",
          "name": "account",
          "type": "address"
        }
      ],
      "name": "grantRole",
      "outputs": [],
      "stateMutability": "nonpayable",
      "type": "function"
    },
    {
      "inputs": [
        {
          "internalType": "bytes32",
          "name": "role",
          "type": "bytes32"
        },
        {
          "internalType": "address",
          "name": "account",
          "type": "address"
        }
      ],
      "name": "hasRole",
      "outputs": [
        {
          "internalType": "bool",
          "name": "",
          "type": "bool"
        }
      ],
      "stateMutability": "view",
      "type": "function"
    },
    {
      "inputs": [
        {
          "internalType": "uint256",
          "name": "",
          "type": "uint256"
        }
      ],
      "name": "latestBookTime",
      "outputs": [
        {
          "internalType": "uint256",
          "name": "",
          "type": "uint256"
        }
      ],
      "stateMutability": "view",
      "type": "function"
    },
    {
      "inputs": [],
      "name": "owner",
      "outputs": [
        {
          "internalType": "address",
          "name": "",
          "type": "address"
        }
      ],
      "stateMutability": "view",
      "type": "function"
    },
    {
      "inputs": [],
      "name": "renounceOwnership",
      "outputs": [],
      "stateMutability": "nonpayable",
      "type": "function"
    },
    {
      "inputs": [
        {
          "internalType": "bytes32",
          "name": "role",
          "type": "bytes32"
        },
        {
          "internalType": "address",
          "name": "account",
          "type": "address"
        }
      ],
      "name": "renounceRole",
      "outputs": [],
      "stateMutability": "nonpayable",
      "type": "function"
    },
    {
      "inputs": [
        {
          "internalType": "bytes32",
          "name": "role",
          "type": "bytes32"
        },
        {
          "internalType": "address",
          "name": "account",
          "type": "address"
        }
      ],
      "name": "revokeRole",
      "outputs": [],
      "stateMutability": "nonpayable",
      "type": "function"
    },
    {
      "inputs": [
        {
          "internalType": "bytes4",
          "name": "interfaceId",
          "type": "bytes4"
        }
      ],
      "name": "supportsInterface",
      "outputs": [
        {
          "internalType": "bool",
          "name": "",
          "type": "bool"
        }
      ],
      "stateMutability": "view",
      "type": "function"
    },
    {
      "inputs": [],
      "name": "tokenHash",
      "outputs": [
        {
          "internalType": "bytes32",
          "name": "",
          "type": "bytes32"
        }
      ],
      "stateMutability": "view",
      "type": "function"
    },
    {
      "inputs": [
        {
          "internalType": "address",
          "name": "newOwner",
          "type": "address"
        }
      ],
      "name": "transferOwnership",
      "outputs": [],
      "stateMutability": "nonpayable",
      "type": "function"
    },
    {
      "inputs": [],
      "name": "volParamDecimals",
      "outputs": [
        {
          "internalType": "uint256",
          "name": "",
          "type": "uint256"
        }
      ],
      "stateMutability": "view",
      "type": "function"
    },
    {
      "inputs": [
        {
          "internalType": "uint256",
          "name": "",
          "type": "uint256"
        }
      ],
      "name": "volatilityParameters",
      "outputs": [
        {
          "internalType": "uint256",
          "name": "initialVol",
          "type": "uint256"
        },
        {
          "internalType": "uint256",
          "name": "ltVol",
          "type": "uint256"
        },
        {
          "internalType": "uint256",
          "name": "ltVolWeighted",
          "type": "uint256"
        },
        {
          "internalType": "uint256",
          "name": "w",
          "type": "uint256"
        },
        {
          "internalType": "uint256",
          "name": "p",
          "type": "uint256"
        },
        {
          "internalType": "uint256",
          "name": "q",
          "type": "uint256"
        }
      ],
      "stateMutability": "view",
      "type": "function"
    },
    {
      "inputs": [],
      "name": "volatilityUpdateCounter",
      "outputs": [
        {
          "internalType": "uint256",
          "name": "",
          "type": "uint256"
        }
      ],
      "stateMutability": "view",
      "type": "function"
    },
    {
      "inputs": [],
      "name": "volatilityUpdateTime",
      "outputs": [
        {
          "internalType": "uint256",
          "name": "",
          "type": "uint256"
        }
      ],
      "stateMutability": "view",
      "type": "function"
    },
    {
      "inputs": [
        {
          "internalType": "uint256",
          "name": "_tenor",
          "type": "uint256"
        }
      ],
      "name": "getVol",
      "outputs": [
        {
          "internalType": "uint256",
          "name": "_vol",
          "type": "uint256"
        }
      ],
      "stateMutability": "view",
      "type": "function"
    },
    {
      "inputs": [],
      "name": "queryPrice",
      "outputs": [
        {
          "internalType": "uint256",
          "name": "",
          "type": "uint256"
        },
        {
          "internalType": "uint256",
          "name": "",
          "type": "uint256"
        }
      ],
      "stateMutability": "view",
      "type": "function"
    },
    {
      "inputs": [],
      "name": "update",
      "outputs": [],
      "stateMutability": "nonpayable",
      "type": "function"
    },
    {
      "inputs": [
        {
          "internalType": "uint256",
          "name": "_tenor",
          "type": "uint256"
        },
        {
          "components": [
            {
              "internalType": "uint256",
              "name": "initialVol",
              "type": "uint256"
            },
            {
              "internalType": "uint256",
              "name": "ltVol",
              "type": "uint256"
            },
            {
              "internalType": "uint256",
              "name": "ltVolWeighted",
              "type": "uint256"
            },
            {
              "internalType": "uint256",
              "name": "w",
              "type": "uint256"
            },
            {
              "internalType": "uint256",
              "name": "p",
              "type": "uint256"
            },
            {
              "internalType": "uint256",
              "name": "q",
              "type": "uint256"
            }
          ],
          "internalType": "struct IVolatilityChain.VolParam",
          "name": "_volParams",
          "type": "tuple"
        }
      ],
      "name": "resetVolParams",
      "outputs": [],
      "stateMutability": "nonpayable",
      "type": "function"
    },
    {
      "inputs": [
        {
          "internalType": "uint256",
          "name": "_tenor",
          "type": "uint256"
        }
      ],
      "name": "removeTenor",
      "outputs": [],
      "stateMutability": "nonpayable",
      "type": "function"
    },
    {
      "inputs": [
        {
          "internalType": "uint256",
          "name": "_tenor",
          "type": "uint256"
        }
      ],
      "name": "getPriceBook",
      "outputs": [
        {
          "components": [
            {
              "internalType": "uint256",
              "name": "startTime",
              "type": "uint256"
            },
            {
              "internalType": "uint256",
              "name": "endTime",
              "type": "uint256"
            },
            {
              "internalType": "uint256",
              "name": "open",
              "type": "uint256"
            },
            {
              "internalType": "uint256",
              "name": "highest",
              "type": "uint256"
            },
            {
              "internalType": "uint256",
              "name": "lowest",
              "type": "uint256"
            },
            {
              "internalType": "uint256",
              "name": "close",
              "type": "uint256"
            },
            {
              "internalType": "uint256",
              "name": "volatility",
              "type": "uint256"
            },
            {
              "internalType": "uint256",
              "name": "accentus",
              "type": "uint256"
            }
          ],
          "internalType": "struct IVolatilityChain.PriceStamp",
          "name": "",
          "type": "tuple"
        }
      ],
      "stateMutability": "view",
      "type": "function"
    },
    {
      "inputs": [],
      "name": "getDecription",
      "outputs": [
        {
          "internalType": "string",
          "name": "",
          "type": "string"
        }
      ],
      "stateMutability": "view",
      "type": "function"
    }
  ],
  "bytecode": "0x60806040523480156200001157600080fd5b50604051620041a0380380620041a08339818101604052810190620000379190620009b9565b620000576200004b620003cf60201b60201c565b620003d760201b60201c565b6200006c6000801b336200049b60201b60201c565b6200009e7f3ee192ac25847473237ced4bba57f848e1fd794930ff85b42823290580967205336200049b60201b60201c565b80604051602001620000b1919062000a81565b60405160208183030381529060405280519060200120600381905550620000eb620151806005620004b160201b62001a661790919060201c565b506200010a62093a806005620004b160201b62001a661790919060201c565b506200012962278d006005620004b160201b62001a661790919060201c565b5082600260006101000a81548173ffffffffffffffffffffffffffffffffffffffff021916908373ffffffffffffffffffffffffffffffffffffffff160217905550600260009054906101000a900473ffffffffffffffffffffffffffffffffffffffff1673ffffffffffffffffffffffffffffffffffffffff16637284e4166040518163ffffffff1660e01b815260040160006040518083038186803b158015620001d457600080fd5b505afa158015620001e9573d6000803e3d6000fd5b505050506040513d6000823e3d601f19601f8201168201806040525081019062000214919062000a9a565b600490805190602001906200022b929190620006cc565b50600260009054906101000a900473ffffffffffffffffffffffffffffffffffffffff1673ffffffffffffffffffffffffffffffffffffffff1663313ce5676040518163ffffffff1660e01b815260040160206040518083038186803b1580156200029557600080fd5b505afa158015620002aa573d6000803e3d6000fd5b505050506040513d601f19601f82011682018060405250810190620002d0919062000b29565b600a620002de919062000cde565b600a81905550600260009054906101000a900473ffffffffffffffffffffffffffffffffffffffff1673ffffffffffffffffffffffffffffffffffffffff1663313ce5676040518163ffffffff1660e01b815260040160206040518083038186803b1580156200034d57600080fd5b505afa15801562000362573d6000803e3d6000fd5b505050506040513d601f19601f8201168201806040525081019062000388919062000b29565b601262000396919062000d2f565b600a620003a4919062000cde565b600b8190555081600f8190555081600a620003c0919062000d6a565b60108190555050505062000e20565b600033905090565b60008060009054906101000a900473ffffffffffffffffffffffffffffffffffffffff169050816000806101000a81548173ffffffffffffffffffffffffffffffffffffffff021916908373ffffffffffffffffffffffffffffffffffffffff1602179055508173ffffffffffffffffffffffffffffffffffffffff168173ffffffffffffffffffffffffffffffffffffffff167f8be0079c531659141344cd1fd0a4f28419497f9722a3daafe3b4186f6b6457e060405160405180910390a35050565b620004ad8282620004d360201b60201c565b5050565b6000620004cb836000018360001b620005c460201b60201c565b905092915050565b620004e582826200063e60201b60201c565b620005c057600180600084815260200190815260200160002060000160008373ffffffffffffffffffffffffffffffffffffffff1673ffffffffffffffffffffffffffffffffffffffff16815260200190815260200160002060006101000a81548160ff02191690831515021790555062000565620003cf60201b60201c565b73ffffffffffffffffffffffffffffffffffffffff168173ffffffffffffffffffffffffffffffffffffffff16837f2f8788117e7eff1d82e926ec794901d17c78024a50270940304540a733656f0d60405160405180910390a45b5050565b6000620005d88383620006a960201b60201c565b6200063357826000018290806001815401808255809150506001900390600052602060002001600090919091909150558260000180549050836001016000848152602001908152602001600020819055506001905062000638565b600090505b92915050565b60006001600084815260200190815260200160002060000160008373ffffffffffffffffffffffffffffffffffffffff1673ffffffffffffffffffffffffffffffffffffffff16815260200190815260200160002060009054906101000a900460ff16905092915050565b600080836001016000848152602001908152602001600020541415905092915050565b828054620006da9062000dea565b90600052602060002090601f016020900481019282620006fe57600085556200074a565b82601f106200071957805160ff19168380011785556200074a565b828001600101855582156200074a579182015b82811115620007495782518255916020019190600101906200072c565b5b5090506200075991906200075d565b5090565b5b80821115620007785760008160009055506001016200075e565b5090565b6000604051905090565b600080fd5b600080fd5b600073ffffffffffffffffffffffffffffffffffffffff82169050919050565b6000620007bd8262000790565b9050919050565b620007cf81620007b0565b8114620007db57600080fd5b50565b600081519050620007ef81620007c4565b92915050565b6000819050919050565b6200080a81620007f5565b81146200081657600080fd5b50565b6000815190506200082a81620007ff565b92915050565b600080fd5b600080fd5b6000601f19601f8301169050919050565b7f4e487b7100000000000000000000000000000000000000000000000000000000600052604160045260246000fd5b62000885826200083a565b810181811067ffffffffffffffff82111715620008a757620008a66200084b565b5b80604052505050565b6000620008bc6200077c565b9050620008ca82826200087a565b919050565b600067ffffffffffffffff821115620008ed57620008ec6200084b565b5b620008f8826200083a565b9050602081019050919050565b60005b838110156200092557808201518184015260208101905062000908565b8381111562000935576000848401525b50505050565b6000620009526200094c84620008cf565b620008b0565b90508281526020810184848401111562000971576200097062000835565b5b6200097e84828562000905565b509392505050565b600082601f8301126200099e576200099d62000830565b5b8151620009b08482602086016200093b565b91505092915050565b600080600060608486031215620009d557620009d462000786565b5b6000620009e586828701620007de565b9350506020620009f88682870162000819565b925050604084015167ffffffffffffffff81111562000a1c5762000a1b6200078b565b5b62000a2a8682870162000986565b9150509250925092565b600081519050919050565b600081905092915050565b600062000a578262000a34565b62000a63818562000a3f565b935062000a7581856020860162000905565b80840191505092915050565b600062000a8f828462000a4a565b915081905092915050565b60006020828403121562000ab35762000ab262000786565b5b600082015167ffffffffffffffff81111562000ad45762000ad36200078b565b5b62000ae28482850162000986565b91505092915050565b600060ff82169050919050565b62000b038162000aeb565b811462000b0f57600080fd5b50565b60008151905062000b238162000af8565b92915050565b60006020828403121562000b425762000b4162000786565b5b600062000b528482850162000b12565b91505092915050565b7f4e487b7100000000000000000000000000000000000000000000000000000000600052601160045260246000fd5b60008160011c9050919050565b6000808291508390505b600185111562000be95780860481111562000bc15762000bc062000b5b565b5b600185161562000bd15780820291505b808102905062000be18562000b8a565b945062000ba1565b94509492505050565b60008262000c04576001905062000cd7565b8162000c14576000905062000cd7565b816001811462000c2d576002811462000c385762000c6e565b600191505062000cd7565b60ff84111562000c4d5762000c4c62000b5b565b5b8360020a91508482111562000c675762000c6662000b5b565b5b5062000cd7565b5060208310610133831016604e8410600b841016171562000ca85782820a90508381111562000ca25762000ca162000b5b565b5b62000cd7565b62000cb7848484600162000b97565b9250905081840481111562000cd15762000cd062000b5b565b5b81810290505b9392505050565b600062000ceb82620007f5565b915062000cf88362000aeb565b925062000d277fffffffffffffffffffffffffffffffffffffffffffffffffffffffffffffffff848462000bf2565b905092915050565b600062000d3c8262000aeb565b915062000d498362000aeb565b92508282101562000d5f5762000d5e62000b5b565b5b828203905092915050565b600062000d7782620007f5565b915062000d8483620007f5565b925062000db37fffffffffffffffffffffffffffffffffffffffffffffffffffffffffffffffff848462000bf2565b905092915050565b7f4e487b7100000000000000000000000000000000000000000000000000000000600052602260045260246000fd5b6000600282049050600182168062000e0357607f821691505b6020821081141562000e1a5762000e1962000dbb565b5b50919050565b6133708062000e306000396000f3fe608060405234801561001057600080fd5b50600436106101725760003560e01c80638da5cb5b116100de578063b0667cf811610097578063dcbc93f811610071578063dcbc93f814610416578063de0a012914610434578063f2fde38b14610469578063fe67ec0c1461048557610172565b8063b0667cf8146103bd578063cca49473146103dc578063d547741f146103fa57610172565b80638da5cb5b1461030d57806391d148541461032b578063966e17661461035b57806398de789714610377578063a217fddf14610395578063a2e62045146103b357610172565b806336568abe1161013057806336568abe1461025d5780633dec20f4146102795780636c23852d14610297578063714f13ee146102c7578063715018a6146102e55780637284e416146102ef57610172565b80624978461461017757806301ffc9a714610195578063040b030f146101c5578063248a9ca3146101f5578063285f9457146102255780632f2ff15d14610241575b600080fd5b61017f6104b5565b60405161018c9190612468565b60405180910390f35b6101af60048036038101906101aa91906124ea565b6104d9565b6040516101bc9190612532565b60405180910390f35b6101df60048036038101906101da9190612583565b610553565b6040516101ec91906125bf565b60405180910390f35b61020f600480360381019061020a9190612606565b610761565b60405161021c9190612468565b60405180910390f35b61023f600480360381019061023a9190612583565b610781565b005b61025b60048036038101906102569190612691565b610832565b005b61027760048036038101906102729190612691565b61085b565b005b6102816108de565b60405161028e91906125bf565b60405180910390f35b6102b160048036038101906102ac9190612583565b6108e4565b6040516102be9190612782565b60405180910390f35b6102cf6109d9565b6040516102dc91906125bf565b60405180910390f35b6102ed6109df565b005b6102f7610a67565b6040516103049190612837565b60405180910390f35b610315610af5565b6040516103229190612868565b60405180910390f35b61034560048036038101906103409190612691565b610b1e565b6040516103529190612532565b60405180910390f35b610375600480360381019061037091906129a3565b610b89565b005b61037f610eff565b60405161038c9190612837565b60405180910390f35b61039d610f91565b6040516103aa9190612468565b60405180910390f35b6103bb610f98565b005b6103c561181f565b6040516103d39291906129e3565b60405180910390f35b6103e46118e5565b6040516103f19190612468565b60405180910390f35b610414600480360381019061040f9190612691565b6118eb565b005b61041e611914565b60405161042b91906125bf565b60405180910390f35b61044e60048036038101906104499190612583565b61191a565b60405161046096959493929190612a0c565b60405180910390f35b610483600480360381019061047e9190612a6d565b611956565b005b61049f600480360381019061049a9190612583565b611a4e565b6040516104ac91906125bf565b60405180910390f35b7f3ee192ac25847473237ced4bba57f848e1fd794930ff85b4282329058096720581565b60007f7965db0b000000000000000000000000000000000000000000000000000000007bffffffffffffffffffffffffffffffffffffffffffffffffffffffff1916827bffffffffffffffffffffffffffffffffffffffffffffffffffffffff1916148061054c575061054b82611a80565b5b9050919050565b6000610569826005611aea90919063ffffffff16565b156105ac57600760008381526020019081526020016000206000600860008581526020019081526020016000205481526020019081526020016000206006015490505b6105c0826005611aea90919063ffffffff16565b61074c5760008060008060005b6105d76005611b04565b8110156106c85760006105f4826005611b1990919063ffffffff16565b9050878111801561060f57508581108061060e5750600086145b5b1561065557809550600760008281526020019081526020016000206000600860008481526020019081526020016000205481526020019081526020016000206006015493505b878110801561066e57508481118061066d5750600085145b5b156106b457809450600760008281526020019081526020016000206000600860008481526020019081526020016000205481526020019081526020016000206006015492505b5080806106c090612ac9565b9150506105cd565b5060008414156106d6578094505b60008314156106e3578194505b6000841180156106f35750600083115b15610747576107198284886107089190612b12565b85876107149190612b12565b611b33565b61073a8288876107299190612b12565b86886107359190612b12565b611b33565b6107449190612b46565b94505b505050505b600b548161075a9190612b9c565b9050919050565b600060016000838152602001908152602001600020600101549050919050565b610789611c2f565b73ffffffffffffffffffffffffffffffffffffffff166107a7610af5565b73ffffffffffffffffffffffffffffffffffffffff16146107fd576040517f08c379a00000000000000000000000000000000000000000000000000000000081526004016107f490612c42565b60405180910390fd5b610811816005611aea90919063ffffffff16565b61081a57600080fd5b61082e816005611c3790919063ffffffff16565b5050565b61083b82610761565b61084c81610847611c2f565b611c51565b6108568383611cee565b505050565b610863611c2f565b73ffffffffffffffffffffffffffffffffffffffff168173ffffffffffffffffffffffffffffffffffffffff16146108d0576040517f08c379a00000000000000000000000000000000000000000000000000000000081526004016108c790612cd4565b60405180910390fd5b6108da8282611dce565b5050565b600f5481565b6108ec61240a565b610900826005611aea90919063ffffffff16565b61093f576040517f08c379a000000000000000000000000000000000000000000000000000000000815260040161093690612d66565b60405180910390fd5b6007600083815260200190815260200160002060006008600085815260200190815260200160002054815260200190815260200160002060405180610100016040529081600082015481526020016001820154815260200160028201548152602001600382015481526020016004820154815260200160058201548152602001600682015481526020016007820154815250509050919050565b600c5481565b6109e7611c2f565b73ffffffffffffffffffffffffffffffffffffffff16610a05610af5565b73ffffffffffffffffffffffffffffffffffffffff1614610a5b576040517f08c379a0000000000000000000000000000000000000000000000000000000008152600401610a5290612c42565b60405180910390fd5b610a656000611eb0565b565b60048054610a7490612db5565b80601f0160208091040260200160405190810160405280929190818152602001828054610aa090612db5565b8015610aed5780601f10610ac257610100808354040283529160200191610aed565b820191906000526020600020905b815481529060010190602001808311610ad057829003601f168201915b505050505081565b60008060009054906101000a900473ffffffffffffffffffffffffffffffffffffffff16905090565b60006001600084815260200190815260200160002060000160008373ffffffffffffffffffffffffffffffffffffffff1673ffffffffffffffffffffffffffffffffffffffff16815260200190815260200160002060009054906101000a900460ff16905092915050565b610b91611c2f565b73ffffffffffffffffffffffffffffffffffffffff16610baf610af5565b73ffffffffffffffffffffffffffffffffffffffff1614610c05576040517f08c379a0000000000000000000000000000000000000000000000000000000008152600401610bfc90612c42565b60405180910390fd5b610c19826005611aea90919063ffffffff16565b610c2257600080fd5b6010548160a0015182608001518360600151610c3e9190612b46565b610c489190612b46565b14610c5257600080fd5b80600e6000848152602001908152602001600020600082015181600001556020820151816001015560408201518160020155606082015181600301556080820151816004015560a08201518160050155905050610cff600e600084815260200190815260200160002060010154600e600085815260200190815260200160002060010154610ce09190612b9c565b600e600085815260200190815260200160002060030154601054611b33565b600e600084815260200190815260200160002060020181905550600080600260009054906101000a900473ffffffffffffffffffffffffffffffffffffffff1673ffffffffffffffffffffffffffffffffffffffff1663feaf968c6040518163ffffffff1660e01b815260040160a06040518083038186803b158015610d8457600080fd5b505afa158015610d98573d6000803e3d6000fd5b505050506040513d601f19601f82011682018060405250810190610dbc9190612e74565b5093505092505060008290508160086000878152602001908152602001600020819055508160076000878152602001908152602001600020600084815260200190815260200160002060000181905550600e6000868152602001908152602001600020600001546007600087815260200190815260200160002060008481526020019081526020016000206007018190556007600087815260200190815260200160002060008481526020019081526020016000206006018190555080600760008781526020019081526020016000206000848152602001908152602001600020600401819055600760008781526020019081526020016000206000848152602001908152602001600020600301819055600760008781526020019081526020016000206000848152602001908152602001600020600201819055505050505050565b606060048054610f0e90612db5565b80601f0160208091040260200160405190810160405280929190818152602001828054610f3a90612db5565b8015610f875780601f10610f5c57610100808354040283529160200191610f87565b820191906000526020600020905b815481529060010190602001808311610f6a57829003601f168201915b5050505050905090565b6000801b81565b7f3ee192ac25847473237ced4bba57f848e1fd794930ff85b42823290580967205610fca81610fc5611c2f565b611c51565b600080600260009054906101000a900473ffffffffffffffffffffffffffffffffffffffff1673ffffffffffffffffffffffffffffffffffffffff1663feaf968c6040518163ffffffff1660e01b815260040160a06040518083038186803b15801561103557600080fd5b505afa158015611049573d6000803e3d6000fd5b505050506040513d601f19601f8201168201806040525081019061106d9190612e74565b50935050925050600082905060005b6110866005611b04565b8110156117f95760006110a3826005611b1990919063ffffffff16565b90506007600082815260200190815260200160002060006008600084815260200190815260200160002054815260200190815260200160002060030154831115611127578260076000838152602001908152602001600020600060086000858152602001908152602001600020548152602001908152602001600020600301819055505b60076000828152602001908152602001600020600060086000848152602001908152602001600020548152602001908152602001600020600401548310156111a9578260076000838152602001908152602001600020600060086000858152602001908152602001600020548152602001908152602001600020600401819055505b8060086000838152602001908152602001600020546111c89190612b46565b84106117e5578360076000838152602001908152602001600020600060086000858152602001908152602001600020548152602001908152602001600020600101819055508260076000838152602001908152602001600020600060086000858152602001908152602001600020548152602001908152602001600020600501819055506000836007600084815260200190815260200160002060006008600086815260200190815260200160002054815260200190815260200160002060020154106112e8576112d684600a546007600086815260200190815260200160002060006008600088815260200190815260200160002054815260200190815260200160002060020154611b33565b600a546112e39190612b12565b61133d565b600a5461133285600a546007600087815260200190815260200160002060006008600089815260200190815260200160002054815260200190815260200160002060020154611b33565b61133c9190612b12565b5b90506000611465600a546113c86007600087815260200190815260200160002060006008600089815260200190815260200160002054815260200190815260200160002060030154600a54600760008981526020019081526020016000206000600860008b815260200190815260200160002054815260200190815260200160002060020154611b33565b6113d29190612b12565b6114536007600087815260200190815260200160002060006008600089815260200190815260200160002054815260200190815260200160002060040154600a54600760008981526020019081526020016000206000600860008b815260200190815260200160002054815260200190815260200160002060020154611b33565b600a546114609190612b12565b611f74565b90508560076000858152602001908152602001600020600088815260200190815260200160002060000181905550611596611538600760008681526020019081526020016000206000600860008881526020019081526020016000205481526020019081526020016000206006015460076000878152602001908152602001600020600060086000898152602001908152602001600020548152602001908152602001600020600601546115199190612b9c565b600e600087815260200190815260200160002060040154601054611b33565b61156684856115479190612b9c565b600e600088815260200190815260200160002060050154601054611b33565b600e6000878152602001908152602001600020600201546115879190612b46565b6115919190612b46565b611f8e565b600760008581526020019081526020016000206000888152602001908152602001600020600601819055506116c4611666600760008681526020019081526020016000206000600860008881526020019081526020016000205481526020019081526020016000206007015460076000878152602001908152602001600020600060086000898152602001908152602001600020548152602001908152602001600020600701546116479190612b9c565b600e600087815260200190815260200160002060040154601054611b33565b61169483846116759190612b9c565b600e600088815260200190815260200160002060050154601054611b33565b600e6000878152602001908152602001600020600201546116b59190612b46565b6116bf9190612b46565b611f8e565b600760008581526020019081526020016000206000888152602001908152602001600020600701819055508460076000858152602001908152602001600020600088815260200190815260200160002060040181905560076000858152602001908152602001600020600088815260200190815260200160002060030181905560076000858152602001908152602001600020600088815260200190815260200160002060020181905550856008600085815260200190815260200160002081905550827d895f12d3f4f2376feff128f39b92005e9748404845000fd7028aa7edf428876007600087815260200190815260200160002060008a81526020019081526020016000206040516117da92919061301c565b60405180910390a250505b5080806117f190612ac9565b91505061107c565b5081600d81905550600c600081548092919061181490612ac9565b919050555050505050565b600080600080600260009054906101000a900473ffffffffffffffffffffffffffffffffffffffff1673ffffffffffffffffffffffffffffffffffffffff1663feaf968c6040518163ffffffff1660e01b815260040160a06040518083038186803b15801561188d57600080fd5b505afa1580156118a1573d6000803e3d6000fd5b505050506040513d601f19601f820116820180604052508101906118c59190612e74565b50935050925050600b54826118da9190612b9c565b819350935050509091565b60035481565b6118f482610761565b61190581611900611c2f565b611c51565b61190f8383611dce565b505050565b600d5481565b600e6020528060005260406000206000915090508060000154908060010154908060020154908060030154908060040154908060050154905086565b61195e611c2f565b73ffffffffffffffffffffffffffffffffffffffff1661197c610af5565b73ffffffffffffffffffffffffffffffffffffffff16146119d2576040517f08c379a00000000000000000000000000000000000000000000000000000000081526004016119c990612c42565b60405180910390fd5b600073ffffffffffffffffffffffffffffffffffffffff168173ffffffffffffffffffffffffffffffffffffffff161415611a42576040517f08c379a0000000000000000000000000000000000000000000000000000000008152600401611a39906130b8565b60405180910390fd5b611a4b81611eb0565b50565b60086020528060005260406000206000915090505481565b6000611a78836000018360001b611feb565b905092915050565b60007f01ffc9a7000000000000000000000000000000000000000000000000000000007bffffffffffffffffffffffffffffffffffffffffffffffffffffffff1916827bffffffffffffffffffffffffffffffffffffffffffffffffffffffff1916149050919050565b6000611afc836000018360001b61205b565b905092915050565b6000611b128260000161207e565b9050919050565b6000611b28836000018361208f565b60001c905092915050565b600080600080198587098587029250828110838203039150506000811415611b6e5760008411611b6257600080fd5b83820492505050611c28565b808411611b7a57600080fd5b60008486880990508281118203915080830392506000856001877fffffffffffffffffffffffffffffffffffffffffffffffffffffffffffffffff0301169050808604955080840493506001818260000304019050808302841793506000600287600302189050808702600203810290508087026002038102905080870260020381029050808702600203810290508087026002038102905080870260020381029050808502955050505050505b9392505050565b600033905090565b6000611c49836000018360001b6120ba565b905092915050565b611c5b8282610b1e565b611cea57611c808173ffffffffffffffffffffffffffffffffffffffff1660146121ce565b611c8e8360001c60206121ce565b604051602001611c9f9291906131ac565b6040516020818303038152906040526040517f08c379a0000000000000000000000000000000000000000000000000000000008152600401611ce19190612837565b60405180910390fd5b5050565b611cf88282610b1e565b611dca57600180600084815260200190815260200160002060000160008373ffffffffffffffffffffffffffffffffffffffff1673ffffffffffffffffffffffffffffffffffffffff16815260200190815260200160002060006101000a81548160ff021916908315150217905550611d6f611c2f565b73ffffffffffffffffffffffffffffffffffffffff168173ffffffffffffffffffffffffffffffffffffffff16837f2f8788117e7eff1d82e926ec794901d17c78024a50270940304540a733656f0d60405160405180910390a45b5050565b611dd88282610b1e565b15611eac5760006001600084815260200190815260200160002060000160008373ffffffffffffffffffffffffffffffffffffffff1673ffffffffffffffffffffffffffffffffffffffff16815260200190815260200160002060006101000a81548160ff021916908315150217905550611e51611c2f565b73ffffffffffffffffffffffffffffffffffffffff168173ffffffffffffffffffffffffffffffffffffffff16837ff6391f5c32d9c69d2a47ea670b442974b53935d1edc7fd64eb21e047a839171b60405160405180910390a45b5050565b60008060009054906101000a900473ffffffffffffffffffffffffffffffffffffffff169050816000806101000a81548173ffffffffffffffffffffffffffffffffffffffff021916908373ffffffffffffffffffffffffffffffffffffffff1602179055508173ffffffffffffffffffffffffffffffffffffffff168173ffffffffffffffffffffffffffffffffffffffff167f8be0079c531659141344cd1fd0a4f28419497f9722a3daafe3b4186f6b6457e060405160405180910390a35050565b600081831015611f845781611f86565b825b905092915050565b6000806002600184611fa09190612b46565b611faa9190613215565b90508291505b81811015611fe5578091506002818285611fca9190613215565b611fd49190612b46565b611fde9190613215565b9050611fb0565b50919050565b6000611ff7838361205b565b612050578260000182908060018154018082558091505060019003906000526020600020016000909190919091505582600001805490508360010160008481526020019081526020016000208190555060019050612055565b600090505b92915050565b600080836001016000848152602001908152602001600020541415905092915050565b600081600001805490509050919050565b60008260000182815481106120a7576120a6613246565b5b9060005260206000200154905092915050565b600080836001016000848152602001908152602001600020549050600081146121c25760006001826120ec9190612b12565b90506000600186600001805490506121049190612b12565b905081811461217357600086600001828154811061212557612124613246565b5b906000526020600020015490508087600001848154811061214957612148613246565b5b90600052602060002001819055508387600101600083815260200190815260200160002081905550505b8560000180548061218757612186613275565b5b6001900381819060005260206000200160009055905585600101600086815260200190815260200160002060009055600193505050506121c8565b60009150505b92915050565b6060600060028360026121e19190612b9c565b6121eb9190612b46565b67ffffffffffffffff81111561220457612203612888565b5b6040519080825280601f01601f1916602001820160405280156122365781602001600182028036833780820191505090505b5090507f30000000000000000000000000000000000000000000000000000000000000008160008151811061226e5761226d613246565b5b60200101907effffffffffffffffffffffffffffffffffffffffffffffffffffffffffffff1916908160001a9053507f7800000000000000000000000000000000000000000000000000000000000000816001815181106122d2576122d1613246565b5b60200101907effffffffffffffffffffffffffffffffffffffffffffffffffffffffffffff1916908160001a905350600060018460026123129190612b9c565b61231c9190612b46565b90505b60018111156123bc577f3031323334353637383961626364656600000000000000000000000000000000600f86166010811061235e5761235d613246565b5b1a60f81b82828151811061237557612374613246565b5b60200101907effffffffffffffffffffffffffffffffffffffffffffffffffffffffffffff1916908160001a905350600485901c9450806123b5906132a4565b905061231f565b5060008414612400576040517f08c379a00000000000000000000000000000000000000000000000000000000081526004016123f79061331a565b60405180910390fd5b8091505092915050565b60405180610100016040528060008152602001600081526020016000815260200160008152602001600081526020016000815260200160008152602001600081525090565b6000819050919050565b6124628161244f565b82525050565b600060208201905061247d6000830184612459565b92915050565b6000604051905090565b600080fd5b60007fffffffff0000000000000000000000000000000000000000000000000000000082169050919050565b6124c781612492565b81146124d257600080fd5b50565b6000813590506124e4816124be565b92915050565b600060208284031215612500576124ff61248d565b5b600061250e848285016124d5565b91505092915050565b60008115159050919050565b61252c81612517565b82525050565b60006020820190506125476000830184612523565b92915050565b6000819050919050565b6125608161254d565b811461256b57600080fd5b50565b60008135905061257d81612557565b92915050565b6000602082840312156125995761259861248d565b5b60006125a78482850161256e565b91505092915050565b6125b98161254d565b82525050565b60006020820190506125d460008301846125b0565b92915050565b6125e38161244f565b81146125ee57600080fd5b50565b600081359050612600816125da565b92915050565b60006020828403121561261c5761261b61248d565b5b600061262a848285016125f1565b91505092915050565b600073ffffffffffffffffffffffffffffffffffffffff82169050919050565b600061265e82612633565b9050919050565b61266e81612653565b811461267957600080fd5b50565b60008135905061268b81612665565b92915050565b600080604083850312156126a8576126a761248d565b5b60006126b6858286016125f1565b92505060206126c78582860161267c565b9150509250929050565b6126da8161254d565b82525050565b610100820160008201516126f760008501826126d1565b50602082015161270a60208501826126d1565b50604082015161271d60408501826126d1565b50606082015161273060608501826126d1565b50608082015161274360808501826126d1565b5060a082015161275660a08501826126d1565b5060c082015161276960c08501826126d1565b5060e082015161277c60e08501826126d1565b50505050565b60006101008201905061279860008301846126e0565b92915050565b600081519050919050565b600082825260208201905092915050565b60005b838110156127d85780820151818401526020810190506127bd565b838111156127e7576000848401525b50505050565b6000601f19601f8301169050919050565b60006128098261279e565b61281381856127a9565b93506128238185602086016127ba565b61282c816127ed565b840191505092915050565b6000602082019050818103600083015261285181846127fe565b905092915050565b61286281612653565b82525050565b600060208201905061287d6000830184612859565b92915050565b600080fd5b7f4e487b7100000000000000000000000000000000000000000000000000000000600052604160045260246000fd5b6128c0826127ed565b810181811067ffffffffffffffff821117156128df576128de612888565b5b80604052505050565b60006128f2612483565b90506128fe82826128b7565b919050565b600060c0828403121561291957612918612883565b5b61292360c06128e8565b905060006129338482850161256e565b60008301525060206129478482850161256e565b602083015250604061295b8482850161256e565b604083015250606061296f8482850161256e565b60608301525060806129838482850161256e565b60808301525060a06129978482850161256e565b60a08301525092915050565b60008060e083850312156129ba576129b961248d565b5b60006129c88582860161256e565b92505060206129d985828601612903565b9150509250929050565b60006040820190506129f860008301856125b0565b612a0560208301846125b0565b9392505050565b600060c082019050612a2160008301896125b0565b612a2e60208301886125b0565b612a3b60408301876125b0565b612a4860608301866125b0565b612a5560808301856125b0565b612a6260a08301846125b0565b979650505050505050565b600060208284031215612a8357612a8261248d565b5b6000612a918482850161267c565b91505092915050565b7f4e487b7100000000000000000000000000000000000000000000000000000000600052601160045260246000fd5b6000612ad48261254d565b91507fffffffffffffffffffffffffffffffffffffffffffffffffffffffffffffffff821415612b0757612b06612a9a565b5b600182019050919050565b6000612b1d8261254d565b9150612b288361254d565b925082821015612b3b57612b3a612a9a565b5b828203905092915050565b6000612b518261254d565b9150612b5c8361254d565b9250827fffffffffffffffffffffffffffffffffffffffffffffffffffffffffffffffff03821115612b9157612b90612a9a565b5b828201905092915050565b6000612ba78261254d565b9150612bb28361254d565b9250817fffffffffffffffffffffffffffffffffffffffffffffffffffffffffffffffff0483118215151615612beb57612bea612a9a565b5b828202905092915050565b7f4f776e61626c653a2063616c6c6572206973206e6f7420746865206f776e6572600082015250565b6000612c2c6020836127a9565b9150612c3782612bf6565b602082019050919050565b60006020820190508181036000830152612c5b81612c1f565b9050919050565b7f416363657373436f6e74726f6c3a2063616e206f6e6c792072656e6f756e636560008201527f20726f6c657320666f722073656c660000000000000000000000000000000000602082015250565b6000612cbe602f836127a9565b9150612cc982612c62565b604082019050919050565b60006020820190508181036000830152612ced81612cb1565b9050919050565b7f496e707574206f7074696f6e2074656e6f72206973206e6f7420616c6c6f776560008201527f642e000000000000000000000000000000000000000000000000000000000000602082015250565b6000612d506022836127a9565b9150612d5b82612cf4565b604082019050919050565b60006020820190508181036000830152612d7f81612d43565b9050919050565b7f4e487b7100000000000000000000000000000000000000000000000000000000600052602260045260246000fd5b60006002820490506001821680612dcd57607f821691505b60208210811415612de157612de0612d86565b5b50919050565b600069ffffffffffffffffffff82169050919050565b612e0681612de7565b8114612e1157600080fd5b50565b600081519050612e2381612dfd565b92915050565b6000819050919050565b612e3c81612e29565b8114612e4757600080fd5b50565b600081519050612e5981612e33565b92915050565b600081519050612e6e81612557565b92915050565b600080600080600060a08688031215612e9057612e8f61248d565b5b6000612e9e88828901612e14565b9550506020612eaf88828901612e4a565b9450506040612ec088828901612e5f565b9350506060612ed188828901612e5f565b9250506080612ee288828901612e14565b9150509295509295909350565b60008160001c9050919050565b6000819050919050565b6000612f19612f1483612eef565b612efc565b9050919050565b61010082016000808301549050612f3681612f06565b612f4360008601826126d1565b5060018301549050612f5481612f06565b612f6160208601826126d1565b5060028301549050612f7281612f06565b612f7f60408601826126d1565b5060038301549050612f9081612f06565b612f9d60608601826126d1565b5060048301549050612fae81612f06565b612fbb60808601826126d1565b5060058301549050612fcc81612f06565b612fd960a08601826126d1565b5060068301549050612fea81612f06565b612ff760c08601826126d1565b506007830154905061300881612f06565b61301560e08601826126d1565b5050505050565b60006101208201905061303260008301856125b0565b61303f6020830184612f20565b9392505050565b7f4f776e61626c653a206e6577206f776e657220697320746865207a65726f206160008201527f6464726573730000000000000000000000000000000000000000000000000000602082015250565b60006130a26026836127a9565b91506130ad82613046565b604082019050919050565b600060208201905081810360008301526130d181613095565b9050919050565b600081905092915050565b7f416363657373436f6e74726f6c3a206163636f756e7420000000000000000000600082015250565b60006131196017836130d8565b9150613124826130e3565b601782019050919050565b600061313a8261279e565b61314481856130d8565b93506131548185602086016127ba565b80840191505092915050565b7f206973206d697373696e6720726f6c6520000000000000000000000000000000600082015250565b60006131966011836130d8565b91506131a182613160565b601182019050919050565b60006131b78261310c565b91506131c3828561312f565b91506131ce82613189565b91506131da828461312f565b91508190509392505050565b7f4e487b7100000000000000000000000000000000000000000000000000000000600052601260045260246000fd5b60006132208261254d565b915061322b8361254d565b92508261323b5761323a6131e6565b5b828204905092915050565b7f4e487b7100000000000000000000000000000000000000000000000000000000600052603260045260246000fd5b7f4e487b7100000000000000000000000000000000000000000000000000000000600052603160045260246000fd5b60006132af8261254d565b915060008214156132c3576132c2612a9a565b5b600182039050919050565b7f537472696e67733a20686578206c656e67746820696e73756666696369656e74600082015250565b60006133046020836127a9565b915061330f826132ce565b602082019050919050565b60006020820190508181036000830152613333816132f7565b905091905056fea2646970667358221220e92c3d11f379866eb2fa918ac2382cfd69dfbc6cc22b250fee222ce1f8501bb964736f6c63430008090033",
  "immutableReferences": {},
  "source": "// SPDX-License-Identifier: MIT\npragma solidity 0.8.9;\n\nimport {Ownable} from \"@openzeppelin/contracts/access/Ownable.sol\";\nimport \"@openzeppelin/contracts/utils/math/Math.sol\";\nimport {AccessControl} from \"@openzeppelin/contracts/access/AccessControl.sol\";\nimport \"@openzeppelin/contracts/utils/structs/EnumerableSet.sol\";\nimport \"./FullMath.sol\";\nimport {IVolatilityChain} from \"./MoretInterfaces.sol\";\nimport \"@chainlink/contracts/src/v0.8/interfaces/AggregatorV3Interface.sol\";\n\ncontract VolatilityChain is Ownable, AccessControl, IVolatilityChain{\n  using EnumerableSet for EnumerableSet.UintSet;\n  bytes32 public constant UPDATE_ROLE = keccak256(\"UPDATE_ROLE\");\n  AggregatorV3Interface internal priceInterface;\n  bytes32 public tokenHash;\n  string public description;\n  EnumerableSet.UintSet tenors;\n\n  mapping(uint256=>mapping(uint256=>PriceStamp)) private priceBook;\n  mapping(uint256=>uint256) public latestBookTime;\n  uint256 internal priceDecimals;\n  uint256 internal priceMultiplier;\n  uint256 internal quoteAdjustment;\n\n  uint256 public volatilityUpdateCounter;\n  uint256 public volatilityUpdateTime;\n  mapping(uint256=> VolParam) public volatilityParameters;\n  uint256 public volParamDecimals;\n  uint256 internal parameterMultiplier;\n\n  constructor( address _priceSourceId, uint256 _parameterDecimals, string memory _tokenName )  {\n    _setupRole(DEFAULT_ADMIN_ROLE, msg.sender);\n    _setupRole(UPDATE_ROLE, msg.sender);\n    tokenHash = keccak256(abi.encodePacked(_tokenName));\n    tenors.add(1 days);\n    tenors.add(7 days);\n    tenors.add(30 days);\n\n    priceInterface = AggregatorV3Interface(_priceSourceId);\n    description = priceInterface.description();\n    priceMultiplier = 10 ** priceInterface.decimals();\n    quoteAdjustment = 10 ** (18 - priceInterface.decimals());\n    volParamDecimals = _parameterDecimals;\n    parameterMultiplier = 10 ** _parameterDecimals;}\n\n  function getVol(uint256 _tenor) external override view returns(uint256 _vol){\n    _vol = 0;\n    if(tenors.contains(_tenor)){ _vol = priceBook[_tenor][latestBookTime[_tenor]].volatility;}\n    if(!tenors.contains(_tenor)){\n      uint256 _upperTenor = 0;\n      uint256 _lowerTenor = 0;\n      uint256 _upperVol = 0;\n      uint256 _lowerVol = 0;\n      for(uint i = 0;i< tenors.length();i++){\n        uint256 _tenorI = tenors.at(i);\n        if(_tenorI >_tenor && (_tenorI < _upperTenor || _upperTenor == 0) ){ _upperTenor = _tenorI; _upperVol = priceBook[_tenorI][latestBookTime[_tenorI]].volatility; }\n        if(_tenorI <_tenor && (_tenorI > _lowerTenor || _lowerTenor == 0) ){ _lowerTenor = _tenorI; _lowerVol = priceBook[_tenorI][latestBookTime[_tenorI]].volatility; }}\n      if(_upperTenor == 0) { _vol = _lowerVol;}\n      if(_lowerTenor==0) {_vol = _upperVol;}\n      if(_upperTenor >0 && _lowerTenor >0){ _vol = MulDiv(_lowerVol, _upperTenor - _tenor, _upperTenor - _lowerTenor) + MulDiv(_upperVol, _tenor - _lowerTenor, _upperTenor - _lowerTenor);}}\n      _vol *= quoteAdjustment;}\n\n  function queryPrice() external override view returns(uint256, uint256){\n    (,int _price,,uint _timeStamp,) = priceInterface.latestRoundData();\n    return (uint256(_price) * quoteAdjustment, uint256(_timeStamp));}\n\n  function update() external onlyRole(UPDATE_ROLE){\n    (,int _price,,uint _timeStamp,) = priceInterface.latestRoundData();\n    uint256 _updatePrice = uint256(_price);\n\n    for(uint i = 0;i< tenors.length();i++) {\n      uint256 _tenor = tenors.at(i);\n      if(_updatePrice > priceBook[_tenor][latestBookTime[_tenor]].highest){\n        priceBook[_tenor][latestBookTime[_tenor]].highest=_updatePrice;}\n      if(_updatePrice<priceBook[_tenor][latestBookTime[_tenor]].lowest){\n         priceBook[_tenor][latestBookTime[_tenor]].lowest=_updatePrice;}\n\n      if(_timeStamp>= (latestBookTime[_tenor] + _tenor)){\n        priceBook[_tenor][latestBookTime[_tenor]].endTime = _timeStamp;\n        priceBook[_tenor][latestBookTime[_tenor]].close = _updatePrice;\n        uint256 _periodMove = (priceBook[_tenor][latestBookTime[_tenor]].open < _updatePrice)? (MulDiv(_updatePrice, priceMultiplier, priceBook[_tenor][latestBookTime[_tenor]].open) - priceMultiplier) : (priceMultiplier - MulDiv(_updatePrice, priceMultiplier, priceBook[_tenor][latestBookTime[_tenor]].open ));\n        uint256 _largestMove = Math.max(MulDiv(priceBook[_tenor][latestBookTime[_tenor]].highest, priceMultiplier, priceBook[_tenor][latestBookTime[_tenor]].open) - priceMultiplier , priceMultiplier - MulDiv(priceBook[_tenor][latestBookTime[_tenor]].lowest, priceMultiplier, priceBook[_tenor][latestBookTime[_tenor]].open ));\n\n        priceBook[_tenor][_timeStamp].startTime = _timeStamp;\n        priceBook[_tenor][_timeStamp].volatility = Sqrt(volatilityParameters[_tenor].ltVolWeighted + MulDiv(_periodMove * _periodMove, volatilityParameters[_tenor].q, parameterMultiplier) + MulDiv(priceBook[_tenor][latestBookTime[_tenor]].volatility * priceBook[_tenor][latestBookTime[_tenor]].volatility, volatilityParameters[_tenor].p, parameterMultiplier));\n        priceBook[_tenor][_timeStamp].accentus = Sqrt(volatilityParameters[_tenor].ltVolWeighted + MulDiv(_largestMove * _largestMove, volatilityParameters[_tenor].q, parameterMultiplier) + MulDiv(priceBook[_tenor][latestBookTime[_tenor]].accentus * priceBook[_tenor][latestBookTime[_tenor]].accentus, volatilityParameters[_tenor].p, parameterMultiplier));\n        priceBook[_tenor][_timeStamp].open = priceBook[_tenor][_timeStamp].highest = priceBook[_tenor][_timeStamp].lowest = _updatePrice;\n\n        latestBookTime[_tenor] = _timeStamp;\n        emit volatilityChainBlockAdded(_tenor, _timeStamp, priceBook[_tenor][_timeStamp]);} }\n\n    volatilityUpdateTime = _timeStamp;\n    volatilityUpdateCounter ++;}\n\n  function resetVolParams(uint256 _tenor, VolParam memory _volParams) external onlyOwner{\n    require(tenors.contains(_tenor));\n    require((_volParams.w + _volParams.p + _volParams.q)==parameterMultiplier);\n    volatilityParameters[_tenor] = _volParams;\n    volatilityParameters[_tenor].ltVolWeighted = MulDiv(volatilityParameters[_tenor].ltVol*volatilityParameters[_tenor].ltVol, volatilityParameters[_tenor].w, parameterMultiplier);\n\n    (,int _price,,uint _timeStamp,) = priceInterface.latestRoundData();\n    uint256 _updatePrice = uint256(_price);\n\n    latestBookTime[_tenor] = _timeStamp;\n    priceBook[_tenor][_timeStamp].startTime = _timeStamp;\n    priceBook[_tenor][_timeStamp].volatility = priceBook[_tenor][_timeStamp].accentus = volatilityParameters[_tenor].initialVol;\n    priceBook[_tenor][_timeStamp].open = priceBook[_tenor][_timeStamp].highest = priceBook[_tenor][_timeStamp].lowest = _updatePrice;}\n\n  function removeTenor(uint256 _tenor) external onlyOwner{\n    require(tenors.contains(_tenor));\n    tenors.remove(_tenor);}\n\n  function getPriceBook(uint256 _tenor) external view returns(PriceStamp memory){\n    require(tenors.contains(_tenor), \"Input option tenor is not allowed.\");\n    return priceBook[_tenor][latestBookTime[_tenor]];}\n\n  // function getPriceMultiplier() external override view returns (uint256){return priceMultiplier;}\n  // function getPriceDecimals() external override view returns (uint256) {return priceDecimals;}\n  function getDecription() external override view returns (string memory) {return description;}}\n",
  "sourcePath": "/Users/mac/Documents/GitHub/moret/contracts/VolatilityChain.sol",
  "compiler": {
    "name": "solc",
    "version": "0.8.9+commit.e5eed63a.Emscripten.clang"
  },
  "schemaVersion": "3.4.3",
  "updatedAt": "2021-11-17T07:55:04.783Z",
  "devdoc": {
    "kind": "dev",
    "methods": {
      "getRoleAdmin(bytes32)": {
        "details": "Returns the admin role that controls `role`. See {grantRole} and {revokeRole}. To change a role's admin, use {_setRoleAdmin}."
      },
      "grantRole(bytes32,address)": {
        "details": "Grants `role` to `account`. If `account` had not been already granted `role`, emits a {RoleGranted} event. Requirements: - the caller must have ``role``'s admin role."
      },
      "hasRole(bytes32,address)": {
        "details": "Returns `true` if `account` has been granted `role`."
      },
      "owner()": {
        "details": "Returns the address of the current owner."
      },
      "renounceOwnership()": {
        "details": "Leaves the contract without owner. It will not be possible to call `onlyOwner` functions anymore. Can only be called by the current owner. NOTE: Renouncing ownership will leave the contract without an owner, thereby removing any functionality that is only available to the owner."
      },
      "renounceRole(bytes32,address)": {
        "details": "Revokes `role` from the calling account. Roles are often managed via {grantRole} and {revokeRole}: this function's purpose is to provide a mechanism for accounts to lose their privileges if they are compromised (such as when a trusted device is misplaced). If the calling account had been granted `role`, emits a {RoleRevoked} event. Requirements: - the caller must be `account`."
      },
      "revokeRole(bytes32,address)": {
        "details": "Revokes `role` from `account`. If `account` had been granted `role`, emits a {RoleRevoked} event. Requirements: - the caller must have ``role``'s admin role."
      },
      "supportsInterface(bytes4)": {
        "details": "See {IERC165-supportsInterface}."
      },
      "transferOwnership(address)": {
        "details": "Transfers ownership of the contract to a new account (`newOwner`). Can only be called by the current owner."
      }
    },
    "version": 1
  },
  "userdoc": {
    "kind": "user",
    "methods": {},
    "version": 1
  }
}